{
	"DIDRegistry.sol": {
		"DIDRegistry": {
			"abi": [
				{
					"inputs": [],
					"stateMutability": "nonpayable",
					"type": "constructor"
				},
				{
					"anonymous": false,
					"inputs": [
						{
							"indexed": true,
							"internalType": "address",
							"name": "issuer",
							"type": "address"
						},
						{
							"indexed": false,
							"internalType": "address",
							"name": "user",
							"type": "address"
						},
						{
							"indexed": false,
							"internalType": "int256",
							"name": "salary",
							"type": "int256"
						},
						{
							"indexed": false,
							"internalType": "string",
							"name": "role",
							"type": "string"
						},
						{
							"indexed": false,
							"internalType": "bytes32",
							"name": "roleHash",
							"type": "bytes32"
						}
					],
					"name": "CredentialIssued",
					"type": "event"
				},
				{
					"anonymous": false,
					"inputs": [
						{
							"indexed": true,
							"internalType": "address",
							"name": "owner",
							"type": "address"
						},
						{
							"indexed": false,
							"internalType": "string",
							"name": "identifier",
							"type": "string"
						}
					],
					"name": "DIDCreated",
					"type": "event"
				},
				{
					"anonymous": false,
					"inputs": [
						{
							"indexed": true,
							"internalType": "address",
							"name": "owner",
							"type": "address"
						},
						{
							"indexed": false,
							"internalType": "string",
							"name": "name",
							"type": "string"
						},
						{
							"indexed": false,
							"internalType": "string",
							"name": "email",
							"type": "string"
						},
						{
							"indexed": false,
							"internalType": "string",
							"name": "profilePicture",
							"type": "string"
						}
					],
					"name": "MetadataCreated",
					"type": "event"
				},
				{
					"anonymous": false,
					"inputs": [
						{
							"indexed": true,
							"internalType": "address",
							"name": "user",
							"type": "address"
						},
						{
							"indexed": false,
							"internalType": "string",
							"name": "role",
							"type": "string"
						}
					],
					"name": "RoleAssigned",
					"type": "event"
				},
				{
					"anonymous": false,
					"inputs": [
						{
							"indexed": true,
							"internalType": "address",
							"name": "issuer",
							"type": "address"
						},
						{
							"indexed": false,
							"internalType": "string",
							"name": "role",
							"type": "string"
						},
						{
							"indexed": false,
							"internalType": "bool",
							"name": "status",
							"type": "bool"
						}
					],
					"name": "RoleVerified",
					"type": "event"
				},
				{
					"anonymous": false,
					"inputs": [
						{
							"indexed": true,
							"internalType": "address",
							"name": "issuer",
							"type": "address"
						},
						{
							"indexed": false,
							"internalType": "int256",
							"name": "salary",
							"type": "int256"
						},
						{
							"indexed": false,
							"internalType": "bool",
							"name": "status",
							"type": "bool"
						}
					],
					"name": "SalaryVerified",
					"type": "event"
				},
				{
					"inputs": [
						{
							"internalType": "address",
							"name": "_user",
							"type": "address"
						},
						{
							"internalType": "string",
							"name": "_role",
							"type": "string"
						}
					],
					"name": "assignRole",
					"outputs": [],
					"stateMutability": "nonpayable",
					"type": "function"
				},
				{
					"inputs": [
						{
							"internalType": "string",
							"name": "_identifier",
							"type": "string"
						}
					],
					"name": "createDID",
					"outputs": [],
					"stateMutability": "nonpayable",
					"type": "function"
				},
				{
					"inputs": [],
					"name": "getDID",
					"outputs": [
						{
							"internalType": "string",
							"name": "",
							"type": "string"
						}
					],
					"stateMutability": "view",
					"type": "function"
				},
				{
					"inputs": [],
					"name": "getMetadata",
					"outputs": [
						{
							"components": [
								{
									"internalType": "string",
									"name": "name",
									"type": "string"
								},
								{
									"internalType": "string",
									"name": "email",
									"type": "string"
								},
								{
									"internalType": "string",
									"name": "profilePicture",
									"type": "string"
								}
							],
							"internalType": "struct DIDRegistry.Metadata",
							"name": "",
							"type": "tuple"
						}
					],
					"stateMutability": "view",
					"type": "function"
				},
				{
					"inputs": [],
					"name": "getRole",
					"outputs": [
						{
							"internalType": "string[]",
							"name": "",
							"type": "string[]"
						}
					],
					"stateMutability": "view",
					"type": "function"
				},
				{
					"inputs": [
						{
							"internalType": "address",
							"name": "_user",
							"type": "address"
						},
						{
							"internalType": "string",
							"name": "_role",
							"type": "string"
						},
						{
							"internalType": "int256",
							"name": "_salary",
							"type": "int256"
						}
					],
					"name": "issueCredential",
					"outputs": [],
					"stateMutability": "nonpayable",
					"type": "function"
				},
				{
					"inputs": [
						{
							"internalType": "string",
							"name": "_name",
							"type": "string"
						},
						{
							"internalType": "string",
							"name": "_email",
							"type": "string"
						}
					],
					"name": "presentCredential",
					"outputs": [
						{
							"internalType": "bytes32",
							"name": "",
							"type": "bytes32"
						}
					],
					"stateMutability": "view",
					"type": "function"
				},
				{
					"inputs": [
						{
							"internalType": "string",
							"name": "_name",
							"type": "string"
						},
						{
							"internalType": "string",
							"name": "_email",
							"type": "string"
						},
						{
							"internalType": "string",
							"name": "_profilePicture",
							"type": "string"
						}
					],
					"name": "setMetadata",
					"outputs": [],
					"stateMutability": "nonpayable",
					"type": "function"
				},
				{
					"inputs": [
						{
							"internalType": "string",
							"name": "_newIdentifier",
							"type": "string"
						}
					],
					"name": "updateDID",
					"outputs": [],
					"stateMutability": "nonpayable",
					"type": "function"
				},
				{
					"inputs": [
						{
							"internalType": "bytes32",
							"name": "presentedHash",
							"type": "bytes32"
						}
					],
					"name": "verifyCredential",
					"outputs": [
						{
							"internalType": "bool",
							"name": "",
							"type": "bool"
						}
					],
					"stateMutability": "view",
					"type": "function"
				},
				{
					"inputs": [
						{
							"internalType": "address",
							"name": "_user",
							"type": "address"
						},
						{
							"internalType": "address",
							"name": "_issuer",
							"type": "address"
						},
						{
							"internalType": "string",
							"name": "_role",
							"type": "string"
						}
					],
					"name": "verifyRole",
					"outputs": [
						{
							"internalType": "bool",
							"name": "",
							"type": "bool"
						}
					],
					"stateMutability": "nonpayable",
					"type": "function"
				},
				{
					"inputs": [
						{
							"internalType": "address",
							"name": "_user",
							"type": "address"
						},
						{
							"internalType": "address",
							"name": "_issuer",
							"type": "address"
						},
						{
							"internalType": "int256",
							"name": "_salary",
							"type": "int256"
						}
					],
					"name": "verifySalary",
					"outputs": [
						{
							"internalType": "bool",
							"name": "",
							"type": "bool"
						}
					],
					"stateMutability": "nonpayable",
					"type": "function"
				}
			],
			"devdoc": {
				"details": "Contract to store and manage DIDs  Authors: - Kong Phirom - Hul Sambath - Prak Pichey - Him Ronald - Chhim Kakada",
				"kind": "dev",
				"methods": {},
				"title": "DIDRegistry",
				"version": 1
			},
			"evm": {
				"assembly": "    /* \"DIDRegistry.sol\":246:9283  contract DIDRegistry {... */\n  mstore(0x40, 0x80)\n    /* \"DIDRegistry.sol\":1271:1383  constructor() {... */\n  callvalue\n  dup1\n  iszero\n  tag_1\n  jumpi\n  0x00\n  dup1\n  revert\ntag_1:\n  pop\n    /* \"DIDRegistry.sol\":1296:1325  roles[msg.sender] = \"manager\" */\n  mload(0x40)\n  dup1\n  0x40\n  add\n  0x40\n  mstore\n  dup1\n  0x07\n  dup2\n  mstore\n  0x20\n  add\n  0x6d616e6167657200000000000000000000000000000000000000000000000000\n  dup2\n  mstore\n  pop\n    /* \"DIDRegistry.sol\":1296:1301  roles */\n  0x01\n    /* \"DIDRegistry.sol\":1296:1313  roles[msg.sender] */\n  0x00\n    /* \"DIDRegistry.sol\":1302:1312  msg.sender */\n  caller\n    /* \"DIDRegistry.sol\":1296:1313  roles[msg.sender] */\n  0xffffffffffffffffffffffffffffffffffffffff\n  and\n  0xffffffffffffffffffffffffffffffffffffffff\n  and\n  dup2\n  mstore\n  0x20\n  add\n  swap1\n  dup2\n  mstore\n  0x20\n  add\n  0x00\n  keccak256\n    /* \"DIDRegistry.sol\":1296:1325  roles[msg.sender] = \"manager\" */\n  swap1\n  dup2\n  tag_4\n  swap2\n  swap1\n  tag_5\n  jump\t// in\ntag_4:\n  pop\n    /* \"DIDRegistry.sol\":1336:1347  roleHistory */\n  0x02\n    /* \"DIDRegistry.sol\":1336:1359  roleHistory[msg.sender] */\n  0x00\n    /* \"DIDRegistry.sol\":1348:1358  msg.sender */\n  caller\n    /* \"DIDRegistry.sol\":1336:1359  roleHistory[msg.sender] */\n  0xffffffffffffffffffffffffffffffffffffffff\n  and\n  0xffffffffffffffffffffffffffffffffffffffff\n  and\n  dup2\n  mstore\n  0x20\n  add\n  swap1\n  dup2\n  mstore\n  0x20\n  add\n  0x00\n  keccak256\n    /* \"DIDRegistry.sol\":1336:1375  roleHistory[msg.sender].push(\"manager\") */\n  dup1\n  0x01\n  dup2\n  sload\n  add\n  dup1\n  dup3\n  sstore\n  dup1\n  swap2\n  pop\n  pop\n  0x01\n  swap1\n  sub\n  swap1\n  0x00\n  mstore\n  keccak256(0x00, 0x20)\n  add\n  0x00\n  mload(0x40)\n  dup1\n  0x40\n  add\n  0x40\n  mstore\n  dup1\n  0x07\n  dup2\n  mstore\n  0x20\n  add\n  0x6d616e6167657200000000000000000000000000000000000000000000000000\n  dup2\n  mstore\n  pop\n  swap1\n  swap2\n  swap1\n  swap2\n  pop\n  swap1\n  dup2\n  tag_7\n  swap2\n  swap1\n  tag_5\n  jump\t// in\ntag_7:\n  pop\n    /* \"DIDRegistry.sol\":246:9283  contract DIDRegistry {... */\n  jump(tag_8)\n    /* \"#utility.yul\":7:106   */\ntag_9:\n    /* \"#utility.yul\":59:65   */\n  0x00\n    /* \"#utility.yul\":93:98   */\n  dup2\n    /* \"#utility.yul\":87:99   */\n  mload\n    /* \"#utility.yul\":77:99   */\n  swap1\n  pop\n    /* \"#utility.yul\":7:106   */\n  swap2\n  swap1\n  pop\n  jump\t// out\n    /* \"#utility.yul\":112:292   */\ntag_10:\n    /* \"#utility.yul\":160:237   */\n  0x4e487b7100000000000000000000000000000000000000000000000000000000\n    /* \"#utility.yul\":157:158   */\n  0x00\n    /* \"#utility.yul\":150:238   */\n  mstore\n    /* \"#utility.yul\":257:261   */\n  0x41\n    /* \"#utility.yul\":254:255   */\n  0x04\n    /* \"#utility.yul\":247:262   */\n  mstore\n    /* \"#utility.yul\":281:285   */\n  0x24\n    /* \"#utility.yul\":278:279   */\n  0x00\n    /* \"#utility.yul\":271:286   */\n  revert\n    /* \"#utility.yul\":298:478   */\ntag_11:\n    /* \"#utility.yul\":346:423   */\n  0x4e487b7100000000000000000000000000000000000000000000000000000000\n    /* \"#utility.yul\":343:344   */\n  0x00\n    /* \"#utility.yul\":336:424   */\n  mstore\n    /* \"#utility.yul\":443:447   */\n  0x22\n    /* \"#utility.yul\":440:441   */\n  0x04\n    /* \"#utility.yul\":433:448   */\n  mstore\n    /* \"#utility.yul\":467:471   */\n  0x24\n    /* \"#utility.yul\":464:465   */\n  0x00\n    /* \"#utility.yul\":457:472   */\n  revert\n    /* \"#utility.yul\":484:804   */\ntag_12:\n    /* \"#utility.yul\":528:534   */\n  0x00\n    /* \"#utility.yul\":565:566   */\n  0x02\n    /* \"#utility.yul\":559:563   */\n  dup3\n    /* \"#utility.yul\":555:567   */\n  div\n    /* \"#utility.yul\":545:567   */\n  swap1\n  pop\n    /* \"#utility.yul\":612:613   */\n  0x01\n    /* \"#utility.yul\":606:610   */\n  dup3\n    /* \"#utility.yul\":602:614   */\n  and\n    /* \"#utility.yul\":633:651   */\n  dup1\n    /* \"#utility.yul\":623:704   */\n  tag_34\n  jumpi\n    /* \"#utility.yul\":689:693   */\n  0x7f\n    /* \"#utility.yul\":681:687   */\n  dup3\n    /* \"#utility.yul\":677:694   */\n  and\n    /* \"#utility.yul\":667:694   */\n  swap2\n  pop\n    /* \"#utility.yul\":623:704   */\ntag_34:\n    /* \"#utility.yul\":751:753   */\n  0x20\n    /* \"#utility.yul\":743:749   */\n  dup3\n    /* \"#utility.yul\":740:754   */\n  lt\n    /* \"#utility.yul\":720:738   */\n  dup2\n    /* \"#utility.yul\":717:755   */\n  sub\n    /* \"#utility.yul\":714:798   */\n  tag_35\n  jumpi\n    /* \"#utility.yul\":770:788   */\n  tag_36\n  tag_11\n  jump\t// in\ntag_36:\n    /* \"#utility.yul\":714:798   */\ntag_35:\n    /* \"#utility.yul\":535:804   */\n  pop\n    /* \"#utility.yul\":484:804   */\n  swap2\n  swap1\n  pop\n  jump\t// out\n    /* \"#utility.yul\":810:951   */\ntag_13:\n    /* \"#utility.yul\":859:863   */\n  0x00\n    /* \"#utility.yul\":882:885   */\n  dup2\n    /* \"#utility.yul\":874:885   */\n  swap1\n  pop\n    /* \"#utility.yul\":905:908   */\n  dup2\n    /* \"#utility.yul\":902:903   */\n  0x00\n    /* \"#utility.yul\":895:909   */\n  mstore\n    /* \"#utility.yul\":939:943   */\n  0x20\n    /* \"#utility.yul\":936:937   */\n  0x00\n    /* \"#utility.yul\":926:944   */\n  keccak256\n    /* \"#utility.yul\":918:944   */\n  swap1\n  pop\n    /* \"#utility.yul\":810:951   */\n  swap2\n  swap1\n  pop\n  jump\t// out\n    /* \"#utility.yul\":957:1050   */\ntag_14:\n    /* \"#utility.yul\":994:1000   */\n  0x00\n    /* \"#utility.yul\":1041:1043   */\n  0x20\n    /* \"#utility.yul\":1036:1038   */\n  0x1f\n    /* \"#utility.yul\":1029:1034   */\n  dup4\n    /* \"#utility.yul\":1025:1039   */\n  add\n    /* \"#utility.yul\":1021:1044   */\n  div\n    /* \"#utility.yul\":1011:1044   */\n  swap1\n  pop\n    /* \"#utility.yul\":957:1050   */\n  swap2\n  swap1\n  pop\n  jump\t// out\n    /* \"#utility.yul\":1056:1163   */\ntag_15:\n    /* \"#utility.yul\":1100:1108   */\n  0x00\n    /* \"#utility.yul\":1150:1155   */\n  dup3\n    /* \"#utility.yul\":1144:1148   */\n  dup3\n    /* \"#utility.yul\":1140:1156   */\n  shl\n    /* \"#utility.yul\":1119:1156   */\n  swap1\n  pop\n    /* \"#utility.yul\":1056:1163   */\n  swap3\n  swap2\n  pop\n  pop\n  jump\t// out\n    /* \"#utility.yul\":1169:1562   */\ntag_16:\n    /* \"#utility.yul\":1238:1244   */\n  0x00\n    /* \"#utility.yul\":1288:1289   */\n  0x08\n    /* \"#utility.yul\":1276:1286   */\n  dup4\n    /* \"#utility.yul\":1272:1290   */\n  mul\n    /* \"#utility.yul\":1311:1408   */\n  tag_41\n    /* \"#utility.yul\":1341:1407   */\n  0xffffffffffffffffffffffffffffffffffffffffffffffffffffffffffffffff\n    /* \"#utility.yul\":1330:1339   */\n  dup3\n    /* \"#utility.yul\":1311:1408   */\n  tag_15\n  jump\t// in\ntag_41:\n    /* \"#utility.yul\":1429:1468   */\n  tag_42\n    /* \"#utility.yul\":1459:1467   */\n  dup7\n    /* \"#utility.yul\":1448:1457   */\n  dup4\n    /* \"#utility.yul\":1429:1468   */\n  tag_15\n  jump\t// in\ntag_42:\n    /* \"#utility.yul\":1417:1468   */\n  swap6\n  pop\n    /* \"#utility.yul\":1501:1505   */\n  dup1\n    /* \"#utility.yul\":1497:1506   */\n  not\n    /* \"#utility.yul\":1490:1495   */\n  dup5\n    /* \"#utility.yul\":1486:1507   */\n  and\n    /* \"#utility.yul\":1477:1507   */\n  swap4\n  pop\n    /* \"#utility.yul\":1550:1554   */\n  dup1\n    /* \"#utility.yul\":1540:1548   */\n  dup7\n    /* \"#utility.yul\":1536:1555   */\n  and\n    /* \"#utility.yul\":1529:1534   */\n  dup5\n    /* \"#utility.yul\":1526:1556   */\n  or\n    /* \"#utility.yul\":1516:1556   */\n  swap3\n  pop\n    /* \"#utility.yul\":1245:1562   */\n  pop\n  pop\n    /* \"#utility.yul\":1169:1562   */\n  swap4\n  swap3\n  pop\n  pop\n  pop\n  jump\t// out\n    /* \"#utility.yul\":1568:1645   */\ntag_17:\n    /* \"#utility.yul\":1605:1612   */\n  0x00\n    /* \"#utility.yul\":1634:1639   */\n  dup2\n    /* \"#utility.yul\":1623:1639   */\n  swap1\n  pop\n    /* \"#utility.yul\":1568:1645   */\n  swap2\n  swap1\n  pop\n  jump\t// out\n    /* \"#utility.yul\":1651:1711   */\ntag_18:\n    /* \"#utility.yul\":1679:1682   */\n  0x00\n    /* \"#utility.yul\":1700:1705   */\n  dup2\n    /* \"#utility.yul\":1693:1705   */\n  swap1\n  pop\n    /* \"#utility.yul\":1651:1711   */\n  swap2\n  swap1\n  pop\n  jump\t// out\n    /* \"#utility.yul\":1717:1859   */\ntag_19:\n    /* \"#utility.yul\":1767:1776   */\n  0x00\n    /* \"#utility.yul\":1800:1853   */\n  tag_46\n    /* \"#utility.yul\":1818:1852   */\n  tag_47\n    /* \"#utility.yul\":1827:1851   */\n  tag_48\n    /* \"#utility.yul\":1845:1850   */\n  dup5\n    /* \"#utility.yul\":1827:1851   */\n  tag_17\n  jump\t// in\ntag_48:\n    /* \"#utility.yul\":1818:1852   */\n  tag_18\n  jump\t// in\ntag_47:\n    /* \"#utility.yul\":1800:1853   */\n  tag_17\n  jump\t// in\ntag_46:\n    /* \"#utility.yul\":1787:1853   */\n  swap1\n  pop\n    /* \"#utility.yul\":1717:1859   */\n  swap2\n  swap1\n  pop\n  jump\t// out\n    /* \"#utility.yul\":1865:1940   */\ntag_20:\n    /* \"#utility.yul\":1908:1911   */\n  0x00\n    /* \"#utility.yul\":1929:1934   */\n  dup2\n    /* \"#utility.yul\":1922:1934   */\n  swap1\n  pop\n    /* \"#utility.yul\":1865:1940   */\n  swap2\n  swap1\n  pop\n  jump\t// out\n    /* \"#utility.yul\":1946:2215   */\ntag_21:\n    /* \"#utility.yul\":2056:2095   */\n  tag_51\n    /* \"#utility.yul\":2087:2094   */\n  dup4\n    /* \"#utility.yul\":2056:2095   */\n  tag_19\n  jump\t// in\ntag_51:\n    /* \"#utility.yul\":2117:2208   */\n  tag_52\n    /* \"#utility.yul\":2166:2207   */\n  tag_53\n    /* \"#utility.yul\":2190:2206   */\n  dup3\n    /* \"#utility.yul\":2166:2207   */\n  tag_20\n  jump\t// in\ntag_53:\n    /* \"#utility.yul\":2158:2164   */\n  dup5\n    /* \"#utility.yul\":2151:2155   */\n  dup5\n    /* \"#utility.yul\":2145:2156   */\n  sload\n    /* \"#utility.yul\":2117:2208   */\n  tag_16\n  jump\t// in\ntag_52:\n    /* \"#utility.yul\":2111:2115   */\n  dup3\n    /* \"#utility.yul\":2104:2209   */\n  sstore\n    /* \"#utility.yul\":2022:2215   */\n  pop\n    /* \"#utility.yul\":1946:2215   */\n  pop\n  pop\n  pop\n  jump\t// out\n    /* \"#utility.yul\":2221:2294   */\ntag_22:\n    /* \"#utility.yul\":2266:2269   */\n  0x00\n    /* \"#utility.yul\":2221:2294   */\n  swap1\n  jump\t// out\n    /* \"#utility.yul\":2300:2489   */\ntag_23:\n    /* \"#utility.yul\":2377:2409   */\n  tag_56\n  tag_22\n  jump\t// in\ntag_56:\n    /* \"#utility.yul\":2418:2483   */\n  tag_57\n    /* \"#utility.yul\":2476:2482   */\n  dup2\n    /* \"#utility.yul\":2468:2474   */\n  dup5\n    /* \"#utility.yul\":2462:2466   */\n  dup5\n    /* \"#utility.yul\":2418:2483   */\n  tag_21\n  jump\t// in\ntag_57:\n    /* \"#utility.yul\":2353:2489   */\n  pop\n    /* \"#utility.yul\":2300:2489   */\n  pop\n  pop\n  jump\t// out\n    /* \"#utility.yul\":2495:2681   */\ntag_24:\n    /* \"#utility.yul\":2555:2675   */\ntag_59:\n    /* \"#utility.yul\":2572:2575   */\n  dup2\n    /* \"#utility.yul\":2565:2570   */\n  dup2\n    /* \"#utility.yul\":2562:2576   */\n  lt\n    /* \"#utility.yul\":2555:2675   */\n  iszero\n  tag_61\n  jumpi\n    /* \"#utility.yul\":2626:2665   */\n  tag_62\n    /* \"#utility.yul\":2663:2664   */\n  0x00\n    /* \"#utility.yul\":2656:2661   */\n  dup3\n    /* \"#utility.yul\":2626:2665   */\n  tag_23\n  jump\t// in\ntag_62:\n    /* \"#utility.yul\":2599:2600   */\n  0x01\n    /* \"#utility.yul\":2592:2597   */\n  dup2\n    /* \"#utility.yul\":2588:2601   */\n  add\n    /* \"#utility.yul\":2579:2601   */\n  swap1\n  pop\n    /* \"#utility.yul\":2555:2675   */\n  jump(tag_59)\ntag_61:\n    /* \"#utility.yul\":2495:2681   */\n  pop\n  pop\n  jump\t// out\n    /* \"#utility.yul\":2687:3230   */\ntag_25:\n    /* \"#utility.yul\":2788:2790   */\n  0x1f\n    /* \"#utility.yul\":2783:2786   */\n  dup3\n    /* \"#utility.yul\":2780:2791   */\n  gt\n    /* \"#utility.yul\":2777:3223   */\n  iszero\n  tag_64\n  jumpi\n    /* \"#utility.yul\":2822:2860   */\n  tag_65\n    /* \"#utility.yul\":2854:2859   */\n  dup2\n    /* \"#utility.yul\":2822:2860   */\n  tag_13\n  jump\t// in\ntag_65:\n    /* \"#utility.yul\":2906:2935   */\n  tag_66\n    /* \"#utility.yul\":2924:2934   */\n  dup5\n    /* \"#utility.yul\":2906:2935   */\n  tag_14\n  jump\t// in\ntag_66:\n    /* \"#utility.yul\":2896:2904   */\n  dup2\n    /* \"#utility.yul\":2892:2936   */\n  add\n    /* \"#utility.yul\":3089:3091   */\n  0x20\n    /* \"#utility.yul\":3077:3087   */\n  dup6\n    /* \"#utility.yul\":3074:3092   */\n  lt\n    /* \"#utility.yul\":3071:3120   */\n  iszero\n  tag_67\n  jumpi\n    /* \"#utility.yul\":3110:3118   */\n  dup2\n    /* \"#utility.yul\":3095:3118   */\n  swap1\n  pop\n    /* \"#utility.yul\":3071:3120   */\ntag_67:\n    /* \"#utility.yul\":3133:3213   */\n  tag_68\n    /* \"#utility.yul\":3189:3211   */\n  tag_69\n    /* \"#utility.yul\":3207:3210   */\n  dup6\n    /* \"#utility.yul\":3189:3211   */\n  tag_14\n  jump\t// in\ntag_69:\n    /* \"#utility.yul\":3179:3187   */\n  dup4\n    /* \"#utility.yul\":3175:3212   */\n  add\n    /* \"#utility.yul\":3162:3173   */\n  dup3\n    /* \"#utility.yul\":3133:3213   */\n  tag_24\n  jump\t// in\ntag_68:\n    /* \"#utility.yul\":2792:3223   */\n  pop\n  pop\n    /* \"#utility.yul\":2777:3223   */\ntag_64:\n    /* \"#utility.yul\":2687:3230   */\n  pop\n  pop\n  pop\n  jump\t// out\n    /* \"#utility.yul\":3236:3353   */\ntag_26:\n    /* \"#utility.yul\":3290:3298   */\n  0x00\n    /* \"#utility.yul\":3340:3345   */\n  dup3\n    /* \"#utility.yul\":3334:3338   */\n  dup3\n    /* \"#utility.yul\":3330:3346   */\n  shr\n    /* \"#utility.yul\":3309:3346   */\n  swap1\n  pop\n    /* \"#utility.yul\":3236:3353   */\n  swap3\n  swap2\n  pop\n  pop\n  jump\t// out\n    /* \"#utility.yul\":3359:3528   */\ntag_27:\n    /* \"#utility.yul\":3403:3409   */\n  0x00\n    /* \"#utility.yul\":3436:3487   */\n  tag_72\n    /* \"#utility.yul\":3484:3485   */\n  0x00\n    /* \"#utility.yul\":3480:3486   */\n  not\n    /* \"#utility.yul\":3472:3477   */\n  dup5\n    /* \"#utility.yul\":3469:3470   */\n  0x08\n    /* \"#utility.yul\":3465:3478   */\n  mul\n    /* \"#utility.yul\":3436:3487   */\n  tag_26\n  jump\t// in\ntag_72:\n    /* \"#utility.yul\":3432:3488   */\n  not\n    /* \"#utility.yul\":3517:3521   */\n  dup1\n    /* \"#utility.yul\":3511:3515   */\n  dup4\n    /* \"#utility.yul\":3507:3522   */\n  and\n    /* \"#utility.yul\":3497:3522   */\n  swap2\n  pop\n    /* \"#utility.yul\":3410:3528   */\n  pop\n    /* \"#utility.yul\":3359:3528   */\n  swap3\n  swap2\n  pop\n  pop\n  jump\t// out\n    /* \"#utility.yul\":3533:3828   */\ntag_28:\n    /* \"#utility.yul\":3609:3613   */\n  0x00\n    /* \"#utility.yul\":3755:3784   */\n  tag_74\n    /* \"#utility.yul\":3780:3783   */\n  dup4\n    /* \"#utility.yul\":3774:3778   */\n  dup4\n    /* \"#utility.yul\":3755:3784   */\n  tag_27\n  jump\t// in\ntag_74:\n    /* \"#utility.yul\":3747:3784   */\n  swap2\n  pop\n    /* \"#utility.yul\":3817:3820   */\n  dup3\n    /* \"#utility.yul\":3814:3815   */\n  0x02\n    /* \"#utility.yul\":3810:3821   */\n  mul\n    /* \"#utility.yul\":3804:3808   */\n  dup3\n    /* \"#utility.yul\":3801:3822   */\n  or\n    /* \"#utility.yul\":3793:3822   */\n  swap1\n  pop\n    /* \"#utility.yul\":3533:3828   */\n  swap3\n  swap2\n  pop\n  pop\n  jump\t// out\n    /* \"#utility.yul\":3833:5228   */\ntag_5:\n    /* \"#utility.yul\":3950:3987   */\n  tag_76\n    /* \"#utility.yul\":3983:3986   */\n  dup3\n    /* \"#utility.yul\":3950:3987   */\n  tag_9\n  jump\t// in\ntag_76:\n    /* \"#utility.yul\":4052:4070   */\n  0xffffffffffffffff\n    /* \"#utility.yul\":4044:4050   */\n  dup2\n    /* \"#utility.yul\":4041:4071   */\n  gt\n    /* \"#utility.yul\":4038:4094   */\n  iszero\n  tag_77\n  jumpi\n    /* \"#utility.yul\":4074:4092   */\n  tag_78\n  tag_10\n  jump\t// in\ntag_78:\n    /* \"#utility.yul\":4038:4094   */\ntag_77:\n    /* \"#utility.yul\":4118:4156   */\n  tag_79\n    /* \"#utility.yul\":4150:4154   */\n  dup3\n    /* \"#utility.yul\":4144:4155   */\n  sload\n    /* \"#utility.yul\":4118:4156   */\n  tag_12\n  jump\t// in\ntag_79:\n    /* \"#utility.yul\":4203:4270   */\n  tag_80\n    /* \"#utility.yul\":4263:4269   */\n  dup3\n    /* \"#utility.yul\":4255:4261   */\n  dup3\n    /* \"#utility.yul\":4249:4253   */\n  dup6\n    /* \"#utility.yul\":4203:4270   */\n  tag_25\n  jump\t// in\ntag_80:\n    /* \"#utility.yul\":4297:4298   */\n  0x00\n    /* \"#utility.yul\":4321:4325   */\n  0x20\n    /* \"#utility.yul\":4308:4325   */\n  swap1\n  pop\n    /* \"#utility.yul\":4353:4355   */\n  0x1f\n    /* \"#utility.yul\":4345:4351   */\n  dup4\n    /* \"#utility.yul\":4342:4356   */\n  gt\n    /* \"#utility.yul\":4370:4371   */\n  0x01\n    /* \"#utility.yul\":4365:4983   */\n  dup2\n  eq\n  tag_82\n  jumpi\n    /* \"#utility.yul\":5027:5028   */\n  0x00\n    /* \"#utility.yul\":5044:5050   */\n  dup5\n    /* \"#utility.yul\":5041:5118   */\n  iszero\n  tag_83\n  jumpi\n    /* \"#utility.yul\":5093:5102   */\n  dup3\n    /* \"#utility.yul\":5088:5091   */\n  dup8\n    /* \"#utility.yul\":5084:5103   */\n  add\n    /* \"#utility.yul\":5078:5104   */\n  mload\n    /* \"#utility.yul\":5069:5104   */\n  swap1\n  pop\n    /* \"#utility.yul\":5041:5118   */\ntag_83:\n    /* \"#utility.yul\":5144:5211   */\n  tag_84\n    /* \"#utility.yul\":5204:5210   */\n  dup6\n    /* \"#utility.yul\":5197:5202   */\n  dup3\n    /* \"#utility.yul\":5144:5211   */\n  tag_28\n  jump\t// in\ntag_84:\n    /* \"#utility.yul\":5138:5142   */\n  dup7\n    /* \"#utility.yul\":5131:5212   */\n  sstore\n    /* \"#utility.yul\":5000:5222   */\n  pop\n    /* \"#utility.yul\":4335:5222   */\n  jump(tag_81)\n    /* \"#utility.yul\":4365:4983   */\ntag_82:\n    /* \"#utility.yul\":4417:4421   */\n  0x1f\n    /* \"#utility.yul\":4413:4422   */\n  not\n    /* \"#utility.yul\":4405:4411   */\n  dup5\n    /* \"#utility.yul\":4401:4423   */\n  and\n    /* \"#utility.yul\":4451:4488   */\n  tag_85\n    /* \"#utility.yul\":4483:4487   */\n  dup7\n    /* \"#utility.yul\":4451:4488   */\n  tag_13\n  jump\t// in\ntag_85:\n    /* \"#utility.yul\":4510:4511   */\n  0x00\n    /* \"#utility.yul\":4524:4732   */\ntag_86:\n    /* \"#utility.yul\":4538:4545   */\n  dup3\n    /* \"#utility.yul\":4535:4536   */\n  dup2\n    /* \"#utility.yul\":4532:4546   */\n  lt\n    /* \"#utility.yul\":4524:4732   */\n  iszero\n  tag_88\n  jumpi\n    /* \"#utility.yul\":4617:4626   */\n  dup5\n    /* \"#utility.yul\":4612:4615   */\n  dup10\n    /* \"#utility.yul\":4608:4627   */\n  add\n    /* \"#utility.yul\":4602:4628   */\n  mload\n    /* \"#utility.yul\":4594:4600   */\n  dup3\n    /* \"#utility.yul\":4587:4629   */\n  sstore\n    /* \"#utility.yul\":4668:4669   */\n  0x01\n    /* \"#utility.yul\":4660:4666   */\n  dup3\n    /* \"#utility.yul\":4656:4670   */\n  add\n    /* \"#utility.yul\":4646:4670   */\n  swap2\n  pop\n    /* \"#utility.yul\":4715:4717   */\n  0x20\n    /* \"#utility.yul\":4704:4713   */\n  dup6\n    /* \"#utility.yul\":4700:4718   */\n  add\n    /* \"#utility.yul\":4687:4718   */\n  swap5\n  pop\n    /* \"#utility.yul\":4561:4565   */\n  0x20\n    /* \"#utility.yul\":4558:4559   */\n  dup2\n    /* \"#utility.yul\":4554:4566   */\n  add\n    /* \"#utility.yul\":4549:4566   */\n  swap1\n  pop\n    /* \"#utility.yul\":4524:4732   */\n  jump(tag_86)\ntag_88:\n    /* \"#utility.yul\":4760:4766   */\n  dup7\n    /* \"#utility.yul\":4751:4758   */\n  dup4\n    /* \"#utility.yul\":4748:4767   */\n  lt\n    /* \"#utility.yul\":4745:4924   */\n  iszero\n  tag_89\n  jumpi\n    /* \"#utility.yul\":4818:4827   */\n  dup5\n    /* \"#utility.yul\":4813:4816   */\n  dup10\n    /* \"#utility.yul\":4809:4828   */\n  add\n    /* \"#utility.yul\":4803:4829   */\n  mload\n    /* \"#utility.yul\":4861:4909   */\n  tag_90\n    /* \"#utility.yul\":4903:4907   */\n  0x1f\n    /* \"#utility.yul\":4895:4901   */\n  dup10\n    /* \"#utility.yul\":4891:4908   */\n  and\n    /* \"#utility.yul\":4880:4889   */\n  dup3\n    /* \"#utility.yul\":4861:4909   */\n  tag_27\n  jump\t// in\ntag_90:\n    /* \"#utility.yul\":4853:4859   */\n  dup4\n    /* \"#utility.yul\":4846:4910   */\n  sstore\n    /* \"#utility.yul\":4768:4924   */\n  pop\n    /* \"#utility.yul\":4745:4924   */\ntag_89:\n    /* \"#utility.yul\":4970:4971   */\n  0x01\n    /* \"#utility.yul\":4966:4967   */\n  0x02\n    /* \"#utility.yul\":4958:4964   */\n  dup9\n    /* \"#utility.yul\":4954:4968   */\n  mul\n    /* \"#utility.yul\":4950:4972   */\n  add\n    /* \"#utility.yul\":4944:4948   */\n  dup9\n    /* \"#utility.yul\":4937:4973   */\n  sstore\n    /* \"#utility.yul\":4372:4983   */\n  pop\n  pop\n  pop\n    /* \"#utility.yul\":4335:5222   */\ntag_81:\n  pop\n    /* \"#utility.yul\":3925:5228   */\n  pop\n  pop\n  pop\n    /* \"#utility.yul\":3833:5228   */\n  pop\n  pop\n  jump\t// out\n    /* \"DIDRegistry.sol\":246:9283  contract DIDRegistry {... */\ntag_8:\n  dataSize(sub_0)\n  dup1\n  dataOffset(sub_0)\n  0x00\n  codecopy\n  0x00\n  return\nstop\n\nsub_0: assembly {\n        /* \"DIDRegistry.sol\":246:9283  contract DIDRegistry {... */\n      mstore(0x40, 0x80)\n      callvalue\n      dup1\n      iszero\n      tag_1\n      jumpi\n      0x00\n      dup1\n      revert\n    tag_1:\n      pop\n      jumpi(tag_2, lt(calldatasize, 0x04))\n      shr(0xe0, calldataload(0x00))\n      dup1\n      0xb7dfcbee\n      gt\n      tag_15\n      jumpi\n      dup1\n      0xb7dfcbee\n      eq\n      tag_9\n      jumpi\n      dup1\n      0xb8d44845\n      eq\n      tag_10\n      jumpi\n      dup1\n      0xbc9c2d55\n      eq\n      tag_11\n      jumpi\n      dup1\n      0xe1e7a16e\n      eq\n      tag_12\n      jumpi\n      dup1\n      0xe4f0c22b\n      eq\n      tag_13\n      jumpi\n      dup1\n      0xfde08174\n      eq\n      tag_14\n      jumpi\n      jump(tag_2)\n    tag_15:\n      dup1\n      0x0890d80c\n      eq\n      tag_3\n      jumpi\n      dup1\n      0x14c95832\n      eq\n      tag_4\n      jumpi\n      dup1\n      0x3457d3e2\n      eq\n      tag_5\n      jumpi\n      dup1\n      0x4dbf87cc\n      eq\n      tag_6\n      jumpi\n      dup1\n      0x7a5b4f59\n      eq\n      tag_7\n      jumpi\n      dup1\n      0xa71b79f2\n      eq\n      tag_8\n      jumpi\n    tag_2:\n      0x00\n      dup1\n      revert\n        /* \"DIDRegistry.sol\":3347:3979  function setMetadata(... */\n    tag_3:\n      tag_16\n      0x04\n      dup1\n      calldatasize\n      sub\n      dup2\n      add\n      swap1\n      tag_17\n      swap2\n      swap1\n      tag_18\n      jump\t// in\n    tag_17:\n      tag_19\n      jump\t// in\n    tag_16:\n      stop\n        /* \"DIDRegistry.sol\":2626:3339  function updateDID(string memory _newIdentifier) public {... */\n    tag_4:\n      tag_20\n      0x04\n      dup1\n      calldatasize\n      sub\n      dup2\n      add\n      swap1\n      tag_21\n      swap2\n      swap1\n      tag_22\n      jump\t// in\n    tag_21:\n      tag_23\n      jump\t// in\n    tag_20:\n      stop\n        /* \"DIDRegistry.sol\":2066:2414  function createDID(string memory _identifier) public {... */\n    tag_5:\n      tag_24\n      0x04\n      dup1\n      calldatasize\n      sub\n      dup2\n      add\n      swap1\n      tag_25\n      swap2\n      swap1\n      tag_22\n      jump\t// in\n    tag_25:\n      tag_26\n      jump\t// in\n    tag_24:\n      stop\n        /* \"DIDRegistry.sol\":8736:9280  function verifyCredential(bytes32 presentedHash) public view returns (bool) {... */\n    tag_6:\n      tag_27\n      0x04\n      dup1\n      calldatasize\n      sub\n      dup2\n      add\n      swap1\n      tag_28\n      swap2\n      swap1\n      tag_29\n      jump\t// in\n    tag_28:\n      tag_30\n      jump\t// in\n    tag_27:\n      mload(0x40)\n      tag_31\n      swap2\n      swap1\n      tag_32\n      jump\t// in\n    tag_31:\n      mload(0x40)\n      dup1\n      swap2\n      sub\n      swap1\n      return\n        /* \"DIDRegistry.sol\":3987:4192  function getMetadata() public view returns (Metadata memory) {... */\n    tag_7:\n      tag_33\n      tag_34\n      jump\t// in\n    tag_33:\n      mload(0x40)\n      tag_35\n      swap2\n      swap1\n      tag_36\n      jump\t// in\n    tag_35:\n      mload(0x40)\n      dup1\n      swap2\n      sub\n      swap1\n      return\n        /* \"DIDRegistry.sol\":7482:8247  function verifySalary(address _user, address _issuer, int _salary) public returns (bool) {... */\n    tag_8:\n      tag_37\n      0x04\n      dup1\n      calldatasize\n      sub\n      dup2\n      add\n      swap1\n      tag_38\n      swap2\n      swap1\n      tag_39\n      jump\t// in\n    tag_38:\n      tag_40\n      jump\t// in\n    tag_37:\n      mload(0x40)\n      tag_41\n      swap2\n      swap1\n      tag_32\n      jump\t// in\n    tag_41:\n      mload(0x40)\n      dup1\n      swap2\n      sub\n      swap1\n      return\n        /* \"DIDRegistry.sol\":4249:4681  function assignRole(address _user, string memory _role) onlyManager public {... */\n    tag_9:\n      tag_42\n      0x04\n      dup1\n      calldatasize\n      sub\n      dup2\n      add\n      swap1\n      tag_43\n      swap2\n      swap1\n      tag_44\n      jump\t// in\n    tag_43:\n      tag_45\n      jump\t// in\n    tag_42:\n      stop\n        /* \"DIDRegistry.sol\":4832:6017  function issueCredential(address _user, string memory _role, int _salary) onlyManager public {... */\n    tag_10:\n      tag_46\n      0x04\n      dup1\n      calldatasize\n      sub\n      dup2\n      add\n      swap1\n      tag_47\n      swap2\n      swap1\n      tag_48\n      jump\t// in\n    tag_47:\n      tag_49\n      jump\t// in\n    tag_46:\n      stop\n        /* \"DIDRegistry.sol\":2422:2618  function getDID() public view returns (string memory) {... */\n    tag_11:\n      tag_50\n      tag_51\n      jump\t// in\n    tag_50:\n      mload(0x40)\n      tag_52\n      swap2\n      swap1\n      tag_53\n      jump\t// in\n    tag_52:\n      mload(0x40)\n      dup1\n      swap2\n      sub\n      swap1\n      return\n        /* \"DIDRegistry.sol\":8320:8657  function presentCredential(string memory _name, string memory _email) public view returns(bytes32)... */\n    tag_12:\n      tag_54\n      0x04\n      dup1\n      calldatasize\n      sub\n      dup2\n      add\n      swap1\n      tag_55\n      swap2\n      swap1\n      tag_56\n      jump\t// in\n    tag_55:\n      tag_57\n      jump\t// in\n    tag_54:\n      mload(0x40)\n      tag_58\n      swap2\n      swap1\n      tag_59\n      jump\t// in\n    tag_58:\n      mload(0x40)\n      dup1\n      swap2\n      sub\n      swap1\n      return\n        /* \"DIDRegistry.sol\":6664:7474  function verifyRole(address _user, address _issuer, string memory _role) public returns (bool) {... */\n    tag_13:\n      tag_60\n      0x04\n      dup1\n      calldatasize\n      sub\n      dup2\n      add\n      swap1\n      tag_61\n      swap2\n      swap1\n      tag_62\n      jump\t// in\n    tag_61:\n      tag_63\n      jump\t// in\n    tag_60:\n      mload(0x40)\n      tag_64\n      swap2\n      swap1\n      tag_32\n      jump\t// in\n    tag_64:\n      mload(0x40)\n      dup1\n      swap2\n      sub\n      swap1\n      return\n        /* \"DIDRegistry.sol\":6150:6631  function getRole() public view returns (string[] memory) {... */\n    tag_14:\n      tag_65\n      tag_66\n      jump\t// in\n    tag_65:\n      mload(0x40)\n      tag_67\n      swap2\n      swap1\n      tag_68\n      jump\t// in\n    tag_67:\n      mload(0x40)\n      dup1\n      swap2\n      sub\n      swap1\n      return\n        /* \"DIDRegistry.sol\":3347:3979  function setMetadata(... */\n    tag_19:\n        /* \"DIDRegistry.sol\":3538:3539  0 */\n      0x00\n        /* \"DIDRegistry.sol\":3504:3540  dids[msg.sender].owner != address(0) */\n      0xffffffffffffffffffffffffffffffffffffffff\n      and\n        /* \"DIDRegistry.sol\":3504:3508  dids */\n      0x00\n        /* \"DIDRegistry.sol\":3504:3520  dids[msg.sender] */\n      dup1\n        /* \"DIDRegistry.sol\":3509:3519  msg.sender */\n      caller\n        /* \"DIDRegistry.sol\":3504:3520  dids[msg.sender] */\n      0xffffffffffffffffffffffffffffffffffffffff\n      and\n      0xffffffffffffffffffffffffffffffffffffffff\n      and\n      dup2\n      mstore\n      0x20\n      add\n      swap1\n      dup2\n      mstore\n      0x20\n      add\n      0x00\n      keccak256\n        /* \"DIDRegistry.sol\":3504:3526  dids[msg.sender].owner */\n      0x01\n      add\n      0x00\n      swap1\n      sload\n      swap1\n      0x0100\n      exp\n      swap1\n      div\n      0xffffffffffffffffffffffffffffffffffffffff\n      and\n        /* \"DIDRegistry.sol\":3504:3540  dids[msg.sender].owner != address(0) */\n      0xffffffffffffffffffffffffffffffffffffffff\n      and\n      sub\n        /* \"DIDRegistry.sol\":3496:3583  require(dids[msg.sender].owner != address(0), \"No existing DID found for this address\") */\n      tag_70\n      jumpi\n      mload(0x40)\n      0x08c379a000000000000000000000000000000000000000000000000000000000\n      dup2\n      mstore\n      0x04\n      add\n      tag_71\n      swap1\n      tag_72\n      jump\t// in\n    tag_71:\n      mload(0x40)\n      dup1\n      swap2\n      sub\n      swap1\n      revert\n    tag_70:\n        /* \"DIDRegistry.sol\":3741:3742  0 */\n      0x00\n        /* \"DIDRegistry.sol\":3724:3730  _email */\n      dup3\n        /* \"DIDRegistry.sol\":3718:3738  bytes(_email).length */\n      mload\n        /* \"DIDRegistry.sol\":3718:3742  bytes(_email).length > 0 */\n      gt\n        /* \"DIDRegistry.sol\":3710:3768  require(bytes(_email).length > 0, \"Email cannot be empty\") */\n      tag_73\n      jumpi\n      mload(0x40)\n      0x08c379a000000000000000000000000000000000000000000000000000000000\n      dup2\n      mstore\n      0x04\n      add\n      tag_74\n      swap1\n      tag_75\n      jump\t// in\n    tag_74:\n      mload(0x40)\n      dup1\n      swap2\n      sub\n      swap1\n      revert\n    tag_73:\n        /* \"DIDRegistry.sol\":3804:3894  Metadata(... */\n      mload(0x40)\n      dup1\n      0x60\n      add\n      0x40\n      mstore\n      dup1\n        /* \"DIDRegistry.sol\":3827:3832  _name */\n      dup5\n        /* \"DIDRegistry.sol\":3804:3894  Metadata(... */\n      dup2\n      mstore\n      0x20\n      add\n        /* \"DIDRegistry.sol\":3847:3853  _email */\n      dup4\n        /* \"DIDRegistry.sol\":3804:3894  Metadata(... */\n      dup2\n      mstore\n      0x20\n      add\n        /* \"DIDRegistry.sol\":3868:3883  _profilePicture */\n      dup3\n        /* \"DIDRegistry.sol\":3804:3894  Metadata(... */\n      dup2\n      mstore\n      pop\n        /* \"DIDRegistry.sol\":3781:3789  metadata */\n      0x03\n        /* \"DIDRegistry.sol\":3781:3801  metadata[msg.sender] */\n      0x00\n        /* \"DIDRegistry.sol\":3790:3800  msg.sender */\n      caller\n        /* \"DIDRegistry.sol\":3781:3801  metadata[msg.sender] */\n      0xffffffffffffffffffffffffffffffffffffffff\n      and\n      0xffffffffffffffffffffffffffffffffffffffff\n      and\n      dup2\n      mstore\n      0x20\n      add\n      swap1\n      dup2\n      mstore\n      0x20\n      add\n      0x00\n      keccak256\n        /* \"DIDRegistry.sol\":3781:3894  metadata[msg.sender] = Metadata(... */\n      0x00\n      dup3\n      add\n      mload\n      dup2\n      0x00\n      add\n      swap1\n      dup2\n      tag_76\n      swap2\n      swap1\n      tag_77\n      jump\t// in\n    tag_76:\n      pop\n      0x20\n      dup3\n      add\n      mload\n      dup2\n      0x01\n      add\n      swap1\n      dup2\n      tag_78\n      swap2\n      swap1\n      tag_77\n      jump\t// in\n    tag_78:\n      pop\n      0x40\n      dup3\n      add\n      mload\n      dup2\n      0x02\n      add\n      swap1\n      dup2\n      tag_79\n      swap2\n      swap1\n      tag_77\n      jump\t// in\n    tag_79:\n      pop\n      swap1\n      pop\n      pop\n        /* \"DIDRegistry.sol\":3928:3938  msg.sender */\n      caller\n        /* \"DIDRegistry.sol\":3912:3971  MetadataCreated(msg.sender, _name, _email, _profilePicture) */\n      0xffffffffffffffffffffffffffffffffffffffff\n      and\n      0x298e769f14d3266a2093cc631184150a9584b1b38c1fb1385be30e0665322bf2\n        /* \"DIDRegistry.sol\":3940:3945  _name */\n      dup5\n        /* \"DIDRegistry.sol\":3947:3953  _email */\n      dup5\n        /* \"DIDRegistry.sol\":3955:3970  _profilePicture */\n      dup5\n        /* \"DIDRegistry.sol\":3912:3971  MetadataCreated(msg.sender, _name, _email, _profilePicture) */\n      mload(0x40)\n      tag_80\n      swap4\n      swap3\n      swap2\n      swap1\n      tag_81\n      jump\t// in\n    tag_80:\n      mload(0x40)\n      dup1\n      swap2\n      sub\n      swap1\n      log2\n        /* \"DIDRegistry.sol\":3347:3979  function setMetadata(... */\n      pop\n      pop\n      pop\n      jump\t// out\n        /* \"DIDRegistry.sol\":2626:3339  function updateDID(string memory _newIdentifier) public {... */\n    tag_23:\n        /* \"DIDRegistry.sol\":2732:2733  0 */\n      0x00\n        /* \"DIDRegistry.sol\":2707:2721  _newIdentifier */\n      dup2\n        /* \"DIDRegistry.sol\":2701:2729  bytes(_newIdentifier).length */\n      mload\n        /* \"DIDRegistry.sol\":2701:2733  bytes(_newIdentifier).length > 0 */\n      gt\n        /* \"DIDRegistry.sol\":2693:2768  require(bytes(_newIdentifier).length > 0, \"New identifier cannot be empty\") */\n      tag_83\n      jumpi\n      mload(0x40)\n      0x08c379a000000000000000000000000000000000000000000000000000000000\n      dup2\n      mstore\n      0x04\n      add\n      tag_84\n      swap1\n      tag_85\n      jump\t// in\n    tag_84:\n      mload(0x40)\n      dup1\n      swap2\n      sub\n      swap1\n      revert\n    tag_83:\n        /* \"DIDRegistry.sol\":2821:2822  0 */\n      0x00\n        /* \"DIDRegistry.sol\":2787:2823  dids[msg.sender].owner != address(0) */\n      0xffffffffffffffffffffffffffffffffffffffff\n      and\n        /* \"DIDRegistry.sol\":2787:2791  dids */\n      0x00\n        /* \"DIDRegistry.sol\":2787:2803  dids[msg.sender] */\n      dup1\n        /* \"DIDRegistry.sol\":2792:2802  msg.sender */\n      caller\n        /* \"DIDRegistry.sol\":2787:2803  dids[msg.sender] */\n      0xffffffffffffffffffffffffffffffffffffffff\n      and\n      0xffffffffffffffffffffffffffffffffffffffff\n      and\n      dup2\n      mstore\n      0x20\n      add\n      swap1\n      dup2\n      mstore\n      0x20\n      add\n      0x00\n      keccak256\n        /* \"DIDRegistry.sol\":2787:2809  dids[msg.sender].owner */\n      0x01\n      add\n      0x00\n      swap1\n      sload\n      swap1\n      0x0100\n      exp\n      swap1\n      div\n      0xffffffffffffffffffffffffffffffffffffffff\n      and\n        /* \"DIDRegistry.sol\":2787:2823  dids[msg.sender].owner != address(0) */\n      0xffffffffffffffffffffffffffffffffffffffff\n      and\n      sub\n        /* \"DIDRegistry.sol\":2779:2866  require(dids[msg.sender].owner != address(0), \"No existing DID found for this address\") */\n      tag_86\n      jumpi\n      mload(0x40)\n      0x08c379a000000000000000000000000000000000000000000000000000000000\n      dup2\n      mstore\n      0x04\n      add\n      tag_87\n      swap1\n      tag_72\n      jump\t// in\n    tag_87:\n      mload(0x40)\n      dup1\n      swap2\n      sub\n      swap1\n      revert\n    tag_86:\n        /* \"DIDRegistry.sol\":2955:2982  string memory oldIdentifier */\n      0x00\n        /* \"DIDRegistry.sol\":2985:2993  getDID() */\n      tag_88\n        /* \"DIDRegistry.sol\":2985:2991  getDID */\n      tag_51\n        /* \"DIDRegistry.sol\":2985:2993  getDID() */\n      jump\t// in\n    tag_88:\n        /* \"DIDRegistry.sol\":2955:2993  string memory oldIdentifier = getDID() */\n      swap1\n      pop\n        /* \"DIDRegistry.sol\":3063:3077  _newIdentifier */\n      dup2\n        /* \"DIDRegistry.sol\":3047:3079  keccak256(bytes(_newIdentifier)) */\n      dup1\n      mload\n      swap1\n      0x20\n      add\n      keccak256\n        /* \"DIDRegistry.sol\":3028:3041  oldIdentifier */\n      dup2\n        /* \"DIDRegistry.sol\":3012:3043  keccak256(bytes(oldIdentifier)) */\n      dup1\n      mload\n      swap1\n      0x20\n      add\n      keccak256\n        /* \"DIDRegistry.sol\":3012:3079  keccak256(bytes(oldIdentifier)) != keccak256(bytes(_newIdentifier)) */\n      sub\n        /* \"DIDRegistry.sol\":3004:3106  require(keccak256(bytes(oldIdentifier)) != keccak256(bytes(_newIdentifier)), \"Invalid new identifier\") */\n      tag_89\n      jumpi\n      mload(0x40)\n      0x08c379a000000000000000000000000000000000000000000000000000000000\n      dup2\n      mstore\n      0x04\n      add\n      tag_90\n      swap1\n      tag_91\n      jump\t// in\n    tag_90:\n      mload(0x40)\n      dup1\n      swap2\n      sub\n      swap1\n      revert\n    tag_89:\n        /* \"DIDRegistry.sol\":3208:3222  _newIdentifier */\n      dup2\n        /* \"DIDRegistry.sol\":3178:3182  dids */\n      0x00\n        /* \"DIDRegistry.sol\":3178:3194  dids[msg.sender] */\n      dup1\n        /* \"DIDRegistry.sol\":3183:3193  msg.sender */\n      caller\n        /* \"DIDRegistry.sol\":3178:3194  dids[msg.sender] */\n      0xffffffffffffffffffffffffffffffffffffffff\n      and\n      0xffffffffffffffffffffffffffffffffffffffff\n      and\n      dup2\n      mstore\n      0x20\n      add\n      swap1\n      dup2\n      mstore\n      0x20\n      add\n      0x00\n      keccak256\n        /* \"DIDRegistry.sol\":3178:3205  dids[msg.sender].identifier */\n      0x00\n      add\n        /* \"DIDRegistry.sol\":3178:3222  dids[msg.sender].identifier = _newIdentifier */\n      swap1\n      dup2\n      tag_92\n      swap2\n      swap1\n      tag_77\n      jump\t// in\n    tag_92:\n      pop\n        /* \"DIDRegistry.sol\":3304:3314  msg.sender */\n      caller\n        /* \"DIDRegistry.sol\":3293:3331  DIDCreated(msg.sender, _newIdentifier) */\n      0xffffffffffffffffffffffffffffffffffffffff\n      and\n      0x1b7934654ba536b6962955e057ce42885353bbaad8c605a5ce0678e632f28410\n        /* \"DIDRegistry.sol\":3316:3330  _newIdentifier */\n      dup4\n        /* \"DIDRegistry.sol\":3293:3331  DIDCreated(msg.sender, _newIdentifier) */\n      mload(0x40)\n      tag_93\n      swap2\n      swap1\n      tag_53\n      jump\t// in\n    tag_93:\n      mload(0x40)\n      dup1\n      swap2\n      sub\n      swap1\n      log2\n        /* \"DIDRegistry.sol\":2682:3339  {... */\n      pop\n        /* \"DIDRegistry.sol\":2626:3339  function updateDID(string memory _newIdentifier) public {... */\n      pop\n      jump\t// out\n        /* \"DIDRegistry.sol\":2066:2414  function createDID(string memory _identifier) public {... */\n    tag_26:\n        /* \"DIDRegistry.sol\":2166:2167  0 */\n      0x00\n        /* \"DIDRegistry.sol\":2144:2155  _identifier */\n      dup2\n        /* \"DIDRegistry.sol\":2138:2163  bytes(_identifier).length */\n      mload\n        /* \"DIDRegistry.sol\":2138:2167  bytes(_identifier).length > 0 */\n      gt\n        /* \"DIDRegistry.sol\":2130:2198  require(bytes(_identifier).length > 0, \"Identifier cannot be empty\") */\n      tag_95\n      jumpi\n      mload(0x40)\n      0x08c379a000000000000000000000000000000000000000000000000000000000\n      dup2\n      mstore\n      0x04\n      add\n      tag_96\n      swap1\n      tag_97\n      jump\t// in\n    tag_96:\n      mload(0x40)\n      dup1\n      swap2\n      sub\n      swap1\n      revert\n    tag_95:\n        /* \"DIDRegistry.sol\":2251:2252  0 */\n      0x00\n        /* \"DIDRegistry.sol\":2217:2253  dids[msg.sender].owner == address(0) */\n      0xffffffffffffffffffffffffffffffffffffffff\n      and\n        /* \"DIDRegistry.sol\":2217:2221  dids */\n      0x00\n        /* \"DIDRegistry.sol\":2217:2233  dids[msg.sender] */\n      dup1\n        /* \"DIDRegistry.sol\":2222:2232  msg.sender */\n      caller\n        /* \"DIDRegistry.sol\":2217:2233  dids[msg.sender] */\n      0xffffffffffffffffffffffffffffffffffffffff\n      and\n      0xffffffffffffffffffffffffffffffffffffffff\n      and\n      dup2\n      mstore\n      0x20\n      add\n      swap1\n      dup2\n      mstore\n      0x20\n      add\n      0x00\n      keccak256\n        /* \"DIDRegistry.sol\":2217:2239  dids[msg.sender].owner */\n      0x01\n      add\n      0x00\n      swap1\n      sload\n      swap1\n      0x0100\n      exp\n      swap1\n      div\n      0xffffffffffffffffffffffffffffffffffffffff\n      and\n        /* \"DIDRegistry.sol\":2217:2253  dids[msg.sender].owner == address(0) */\n      0xffffffffffffffffffffffffffffffffffffffff\n      and\n      eq\n        /* \"DIDRegistry.sol\":2209:2293  require(dids[msg.sender].owner == address(0), \"DID already exists for this address\") */\n      tag_98\n      jumpi\n      mload(0x40)\n      0x08c379a000000000000000000000000000000000000000000000000000000000\n      dup2\n      mstore\n      0x04\n      add\n      tag_99\n      swap1\n      tag_100\n      jump\t// in\n    tag_99:\n      mload(0x40)\n      dup1\n      swap2\n      sub\n      swap1\n      revert\n    tag_98:\n        /* \"DIDRegistry.sol\":2325:2353  DID(_identifier, msg.sender) */\n      mload(0x40)\n      dup1\n      0x40\n      add\n      0x40\n      mstore\n      dup1\n        /* \"DIDRegistry.sol\":2329:2340  _identifier */\n      dup3\n        /* \"DIDRegistry.sol\":2325:2353  DID(_identifier, msg.sender) */\n      dup2\n      mstore\n      0x20\n      add\n        /* \"DIDRegistry.sol\":2342:2352  msg.sender */\n      caller\n        /* \"DIDRegistry.sol\":2325:2353  DID(_identifier, msg.sender) */\n      0xffffffffffffffffffffffffffffffffffffffff\n      and\n      dup2\n      mstore\n      pop\n        /* \"DIDRegistry.sol\":2306:2310  dids */\n      0x00\n        /* \"DIDRegistry.sol\":2306:2322  dids[msg.sender] */\n      dup1\n        /* \"DIDRegistry.sol\":2311:2321  msg.sender */\n      caller\n        /* \"DIDRegistry.sol\":2306:2322  dids[msg.sender] */\n      0xffffffffffffffffffffffffffffffffffffffff\n      and\n      0xffffffffffffffffffffffffffffffffffffffff\n      and\n      dup2\n      mstore\n      0x20\n      add\n      swap1\n      dup2\n      mstore\n      0x20\n      add\n      0x00\n      keccak256\n        /* \"DIDRegistry.sol\":2306:2353  dids[msg.sender] = DID(_identifier, msg.sender) */\n      0x00\n      dup3\n      add\n      mload\n      dup2\n      0x00\n      add\n      swap1\n      dup2\n      tag_101\n      swap2\n      swap1\n      tag_77\n      jump\t// in\n    tag_101:\n      pop\n      0x20\n      dup3\n      add\n      mload\n      dup2\n      0x01\n      add\n      exp(0x0100, 0x00)\n      dup2\n      sload\n      dup2\n      0xffffffffffffffffffffffffffffffffffffffff\n      mul\n      not\n      and\n      swap1\n      dup4\n      0xffffffffffffffffffffffffffffffffffffffff\n      and\n      mul\n      or\n      swap1\n      sstore\n      pop\n      swap1\n      pop\n      pop\n        /* \"DIDRegistry.sol\":2382:2392  msg.sender */\n      caller\n        /* \"DIDRegistry.sol\":2371:2406  DIDCreated(msg.sender, _identifier) */\n      0xffffffffffffffffffffffffffffffffffffffff\n      and\n      0x1b7934654ba536b6962955e057ce42885353bbaad8c605a5ce0678e632f28410\n        /* \"DIDRegistry.sol\":2394:2405  _identifier */\n      dup3\n        /* \"DIDRegistry.sol\":2371:2406  DIDCreated(msg.sender, _identifier) */\n      mload(0x40)\n      tag_102\n      swap2\n      swap1\n      tag_53\n      jump\t// in\n    tag_102:\n      mload(0x40)\n      dup1\n      swap2\n      sub\n      swap1\n      log2\n        /* \"DIDRegistry.sol\":2066:2414  function createDID(string memory _identifier) public {... */\n      pop\n      jump\t// out\n        /* \"DIDRegistry.sol\":8736:9280  function verifyCredential(bytes32 presentedHash) public view returns (bool) {... */\n    tag_30:\n        /* \"DIDRegistry.sol\":8806:8810  bool */\n      0x00\n        /* \"DIDRegistry.sol\":8865:8866  0 */\n      dup1\n        /* \"DIDRegistry.sol\":8831:8867  dids[msg.sender].owner != address(0) */\n      0xffffffffffffffffffffffffffffffffffffffff\n      and\n        /* \"DIDRegistry.sol\":8831:8835  dids */\n      0x00\n        /* \"DIDRegistry.sol\":8831:8847  dids[msg.sender] */\n      dup1\n        /* \"DIDRegistry.sol\":8836:8846  msg.sender */\n      caller\n        /* \"DIDRegistry.sol\":8831:8847  dids[msg.sender] */\n      0xffffffffffffffffffffffffffffffffffffffff\n      and\n      0xffffffffffffffffffffffffffffffffffffffff\n      and\n      dup2\n      mstore\n      0x20\n      add\n      swap1\n      dup2\n      mstore\n      0x20\n      add\n      0x00\n      keccak256\n        /* \"DIDRegistry.sol\":8831:8853  dids[msg.sender].owner */\n      0x01\n      add\n      0x00\n      swap1\n      sload\n      swap1\n      0x0100\n      exp\n      swap1\n      div\n      0xffffffffffffffffffffffffffffffffffffffff\n      and\n        /* \"DIDRegistry.sol\":8831:8867  dids[msg.sender].owner != address(0) */\n      0xffffffffffffffffffffffffffffffffffffffff\n      and\n      sub\n        /* \"DIDRegistry.sol\":8823:8910  require(dids[msg.sender].owner != address(0), \"No existing DID found for this address\") */\n      tag_104\n      jumpi\n      mload(0x40)\n      0x08c379a000000000000000000000000000000000000000000000000000000000\n      dup2\n      mstore\n      0x04\n      add\n      tag_105\n      swap1\n      tag_72\n      jump\t// in\n    tag_105:\n      mload(0x40)\n      dup1\n      swap2\n      sub\n      swap1\n      revert\n    tag_104:\n        /* \"DIDRegistry.sol\":8970:8998  Metadata memory userMetadata */\n      0x00\n        /* \"DIDRegistry.sol\":9001:9009  metadata */\n      0x03\n        /* \"DIDRegistry.sol\":9001:9021  metadata[msg.sender] */\n      0x00\n        /* \"DIDRegistry.sol\":9010:9020  msg.sender */\n      caller\n        /* \"DIDRegistry.sol\":9001:9021  metadata[msg.sender] */\n      0xffffffffffffffffffffffffffffffffffffffff\n      and\n      0xffffffffffffffffffffffffffffffffffffffff\n      and\n      dup2\n      mstore\n      0x20\n      add\n      swap1\n      dup2\n      mstore\n      0x20\n      add\n      0x00\n      keccak256\n        /* \"DIDRegistry.sol\":8970:9021  Metadata memory userMetadata = metadata[msg.sender] */\n      mload(0x40)\n      dup1\n      0x60\n      add\n      0x40\n      mstore\n      swap1\n      dup2\n      0x00\n      dup3\n      add\n      dup1\n      sload\n      tag_106\n      swap1\n      tag_107\n      jump\t// in\n    tag_106:\n      dup1\n      0x1f\n      add\n      0x20\n      dup1\n      swap2\n      div\n      mul\n      0x20\n      add\n      mload(0x40)\n      swap1\n      dup2\n      add\n      0x40\n      mstore\n      dup1\n      swap3\n      swap2\n      swap1\n      dup2\n      dup2\n      mstore\n      0x20\n      add\n      dup3\n      dup1\n      sload\n      tag_108\n      swap1\n      tag_107\n      jump\t// in\n    tag_108:\n      dup1\n      iszero\n      tag_109\n      jumpi\n      dup1\n      0x1f\n      lt\n      tag_110\n      jumpi\n      0x0100\n      dup1\n      dup4\n      sload\n      div\n      mul\n      dup4\n      mstore\n      swap2\n      0x20\n      add\n      swap2\n      jump(tag_109)\n    tag_110:\n      dup3\n      add\n      swap2\n      swap1\n      0x00\n      mstore\n      keccak256(0x00, 0x20)\n      swap1\n    tag_111:\n      dup2\n      sload\n      dup2\n      mstore\n      swap1\n      0x01\n      add\n      swap1\n      0x20\n      add\n      dup1\n      dup4\n      gt\n      tag_111\n      jumpi\n      dup3\n      swap1\n      sub\n      0x1f\n      and\n      dup3\n      add\n      swap2\n    tag_109:\n      pop\n      pop\n      pop\n      pop\n      pop\n      dup2\n      mstore\n      0x20\n      add\n      0x01\n      dup3\n      add\n      dup1\n      sload\n      tag_112\n      swap1\n      tag_107\n      jump\t// in\n    tag_112:\n      dup1\n      0x1f\n      add\n      0x20\n      dup1\n      swap2\n      div\n      mul\n      0x20\n      add\n      mload(0x40)\n      swap1\n      dup2\n      add\n      0x40\n      mstore\n      dup1\n      swap3\n      swap2\n      swap1\n      dup2\n      dup2\n      mstore\n      0x20\n      add\n      dup3\n      dup1\n      sload\n      tag_113\n      swap1\n      tag_107\n      jump\t// in\n    tag_113:\n      dup1\n      iszero\n      tag_114\n      jumpi\n      dup1\n      0x1f\n      lt\n      tag_115\n      jumpi\n      0x0100\n      dup1\n      dup4\n      sload\n      div\n      mul\n      dup4\n      mstore\n      swap2\n      0x20\n      add\n      swap2\n      jump(tag_114)\n    tag_115:\n      dup3\n      add\n      swap2\n      swap1\n      0x00\n      mstore\n      keccak256(0x00, 0x20)\n      swap1\n    tag_116:\n      dup2\n      sload\n      dup2\n      mstore\n      swap1\n      0x01\n      add\n      swap1\n      0x20\n      add\n      dup1\n      dup4\n      gt\n      tag_116\n      jumpi\n      dup3\n      swap1\n      sub\n      0x1f\n      and\n      dup3\n      add\n      swap2\n    tag_114:\n      pop\n      pop\n      pop\n      pop\n      pop\n      dup2\n      mstore\n      0x20\n      add\n      0x02\n      dup3\n      add\n      dup1\n      sload\n      tag_117\n      swap1\n      tag_107\n      jump\t// in\n    tag_117:\n      dup1\n      0x1f\n      add\n      0x20\n      dup1\n      swap2\n      div\n      mul\n      0x20\n      add\n      mload(0x40)\n      swap1\n      dup2\n      add\n      0x40\n      mstore\n      dup1\n      swap3\n      swap2\n      swap1\n      dup2\n      dup2\n      mstore\n      0x20\n      add\n      dup3\n      dup1\n      sload\n      tag_118\n      swap1\n      tag_107\n      jump\t// in\n    tag_118:\n      dup1\n      iszero\n      tag_119\n      jumpi\n      dup1\n      0x1f\n      lt\n      tag_120\n      jumpi\n      0x0100\n      dup1\n      dup4\n      sload\n      div\n      mul\n      dup4\n      mstore\n      swap2\n      0x20\n      add\n      swap2\n      jump(tag_119)\n    tag_120:\n      dup3\n      add\n      swap2\n      swap1\n      0x00\n      mstore\n      keccak256(0x00, 0x20)\n      swap1\n    tag_121:\n      dup2\n      sload\n      dup2\n      mstore\n      swap1\n      0x01\n      add\n      swap1\n      0x20\n      add\n      dup1\n      dup4\n      gt\n      tag_121\n      jumpi\n      dup3\n      swap1\n      sub\n      0x1f\n      and\n      dup3\n      add\n      swap2\n    tag_119:\n      pop\n      pop\n      pop\n      pop\n      pop\n      dup2\n      mstore\n      pop\n      pop\n      swap1\n      pop\n        /* \"DIDRegistry.sol\":9076:9094  bytes32 storedHash */\n      0x00\n        /* \"DIDRegistry.sol\":9124:9136  userMetadata */\n      dup2\n        /* \"DIDRegistry.sol\":9124:9141  userMetadata.name */\n      0x00\n      add\n      mload\n        /* \"DIDRegistry.sol\":9143:9155  userMetadata */\n      dup3\n        /* \"DIDRegistry.sol\":9143:9161  userMetadata.email */\n      0x20\n      add\n      mload\n        /* \"DIDRegistry.sol\":9107:9162  abi.encodePacked(userMetadata.name, userMetadata.email) */\n      add(0x20, mload(0x40))\n      tag_122\n      swap3\n      swap2\n      swap1\n      tag_123\n      jump\t// in\n    tag_122:\n      mload(0x40)\n      0x20\n      dup2\n      dup4\n      sub\n      sub\n      dup2\n      mstore\n      swap1\n      0x40\n      mstore\n        /* \"DIDRegistry.sol\":9097:9163  keccak256(abi.encodePacked(userMetadata.name, userMetadata.email)) */\n      dup1\n      mload\n      swap1\n      0x20\n      add\n      keccak256\n        /* \"DIDRegistry.sol\":9076:9163  bytes32 storedHash = keccak256(abi.encodePacked(userMetadata.name, userMetadata.email)) */\n      swap1\n      pop\n        /* \"DIDRegistry.sol\":9261:9271  storedHash */\n      dup1\n        /* \"DIDRegistry.sol\":9244:9257  presentedHash */\n      dup5\n        /* \"DIDRegistry.sol\":9244:9271  presentedHash == storedHash */\n      eq\n        /* \"DIDRegistry.sol\":9236:9272  return (presentedHash == storedHash) */\n      swap3\n      pop\n      pop\n      pop\n        /* \"DIDRegistry.sol\":8736:9280  function verifyCredential(bytes32 presentedHash) public view returns (bool) {... */\n      swap2\n      swap1\n      pop\n      jump\t// out\n        /* \"DIDRegistry.sol\":3987:4192  function getMetadata() public view returns (Metadata memory) {... */\n    tag_34:\n        /* \"DIDRegistry.sol\":4031:4046  Metadata memory */\n      tag_124\n      tag_125\n      jump\t// in\n    tag_124:\n        /* \"DIDRegistry.sol\":4101:4102  0 */\n      0x00\n        /* \"DIDRegistry.sol\":4067:4103  dids[msg.sender].owner != address(0) */\n      0xffffffffffffffffffffffffffffffffffffffff\n      and\n        /* \"DIDRegistry.sol\":4067:4071  dids */\n      0x00\n        /* \"DIDRegistry.sol\":4067:4083  dids[msg.sender] */\n      dup1\n        /* \"DIDRegistry.sol\":4072:4082  msg.sender */\n      caller\n        /* \"DIDRegistry.sol\":4067:4083  dids[msg.sender] */\n      0xffffffffffffffffffffffffffffffffffffffff\n      and\n      0xffffffffffffffffffffffffffffffffffffffff\n      and\n      dup2\n      mstore\n      0x20\n      add\n      swap1\n      dup2\n      mstore\n      0x20\n      add\n      0x00\n      keccak256\n        /* \"DIDRegistry.sol\":4067:4089  dids[msg.sender].owner */\n      0x01\n      add\n      0x00\n      swap1\n      sload\n      swap1\n      0x0100\n      exp\n      swap1\n      div\n      0xffffffffffffffffffffffffffffffffffffffff\n      and\n        /* \"DIDRegistry.sol\":4067:4103  dids[msg.sender].owner != address(0) */\n      0xffffffffffffffffffffffffffffffffffffffff\n      and\n      sub\n        /* \"DIDRegistry.sol\":4059:4146  require(dids[msg.sender].owner != address(0), \"No existing DID found for this address\") */\n      tag_127\n      jumpi\n      mload(0x40)\n      0x08c379a000000000000000000000000000000000000000000000000000000000\n      dup2\n      mstore\n      0x04\n      add\n      tag_128\n      swap1\n      tag_72\n      jump\t// in\n    tag_128:\n      mload(0x40)\n      dup1\n      swap2\n      sub\n      swap1\n      revert\n    tag_127:\n        /* \"DIDRegistry.sol\":4164:4172  metadata */\n      0x03\n        /* \"DIDRegistry.sol\":4164:4184  metadata[msg.sender] */\n      0x00\n        /* \"DIDRegistry.sol\":4173:4183  msg.sender */\n      caller\n        /* \"DIDRegistry.sol\":4164:4184  metadata[msg.sender] */\n      0xffffffffffffffffffffffffffffffffffffffff\n      and\n      0xffffffffffffffffffffffffffffffffffffffff\n      and\n      dup2\n      mstore\n      0x20\n      add\n      swap1\n      dup2\n      mstore\n      0x20\n      add\n      0x00\n      keccak256\n        /* \"DIDRegistry.sol\":4157:4184  return metadata[msg.sender] */\n      mload(0x40)\n      dup1\n      0x60\n      add\n      0x40\n      mstore\n      swap1\n      dup2\n      0x00\n      dup3\n      add\n      dup1\n      sload\n      tag_129\n      swap1\n      tag_107\n      jump\t// in\n    tag_129:\n      dup1\n      0x1f\n      add\n      0x20\n      dup1\n      swap2\n      div\n      mul\n      0x20\n      add\n      mload(0x40)\n      swap1\n      dup2\n      add\n      0x40\n      mstore\n      dup1\n      swap3\n      swap2\n      swap1\n      dup2\n      dup2\n      mstore\n      0x20\n      add\n      dup3\n      dup1\n      sload\n      tag_130\n      swap1\n      tag_107\n      jump\t// in\n    tag_130:\n      dup1\n      iszero\n      tag_131\n      jumpi\n      dup1\n      0x1f\n      lt\n      tag_132\n      jumpi\n      0x0100\n      dup1\n      dup4\n      sload\n      div\n      mul\n      dup4\n      mstore\n      swap2\n      0x20\n      add\n      swap2\n      jump(tag_131)\n    tag_132:\n      dup3\n      add\n      swap2\n      swap1\n      0x00\n      mstore\n      keccak256(0x00, 0x20)\n      swap1\n    tag_133:\n      dup2\n      sload\n      dup2\n      mstore\n      swap1\n      0x01\n      add\n      swap1\n      0x20\n      add\n      dup1\n      dup4\n      gt\n      tag_133\n      jumpi\n      dup3\n      swap1\n      sub\n      0x1f\n      and\n      dup3\n      add\n      swap2\n    tag_131:\n      pop\n      pop\n      pop\n      pop\n      pop\n      dup2\n      mstore\n      0x20\n      add\n      0x01\n      dup3\n      add\n      dup1\n      sload\n      tag_134\n      swap1\n      tag_107\n      jump\t// in\n    tag_134:\n      dup1\n      0x1f\n      add\n      0x20\n      dup1\n      swap2\n      div\n      mul\n      0x20\n      add\n      mload(0x40)\n      swap1\n      dup2\n      add\n      0x40\n      mstore\n      dup1\n      swap3\n      swap2\n      swap1\n      dup2\n      dup2\n      mstore\n      0x20\n      add\n      dup3\n      dup1\n      sload\n      tag_135\n      swap1\n      tag_107\n      jump\t// in\n    tag_135:\n      dup1\n      iszero\n      tag_136\n      jumpi\n      dup1\n      0x1f\n      lt\n      tag_137\n      jumpi\n      0x0100\n      dup1\n      dup4\n      sload\n      div\n      mul\n      dup4\n      mstore\n      swap2\n      0x20\n      add\n      swap2\n      jump(tag_136)\n    tag_137:\n      dup3\n      add\n      swap2\n      swap1\n      0x00\n      mstore\n      keccak256(0x00, 0x20)\n      swap1\n    tag_138:\n      dup2\n      sload\n      dup2\n      mstore\n      swap1\n      0x01\n      add\n      swap1\n      0x20\n      add\n      dup1\n      dup4\n      gt\n      tag_138\n      jumpi\n      dup3\n      swap1\n      sub\n      0x1f\n      and\n      dup3\n      add\n      swap2\n    tag_136:\n      pop\n      pop\n      pop\n      pop\n      pop\n      dup2\n      mstore\n      0x20\n      add\n      0x02\n      dup3\n      add\n      dup1\n      sload\n      tag_139\n      swap1\n      tag_107\n      jump\t// in\n    tag_139:\n      dup1\n      0x1f\n      add\n      0x20\n      dup1\n      swap2\n      div\n      mul\n      0x20\n      add\n      mload(0x40)\n      swap1\n      dup2\n      add\n      0x40\n      mstore\n      dup1\n      swap3\n      swap2\n      swap1\n      dup2\n      dup2\n      mstore\n      0x20\n      add\n      dup3\n      dup1\n      sload\n      tag_140\n      swap1\n      tag_107\n      jump\t// in\n    tag_140:\n      dup1\n      iszero\n      tag_141\n      jumpi\n      dup1\n      0x1f\n      lt\n      tag_142\n      jumpi\n      0x0100\n      dup1\n      dup4\n      sload\n      div\n      mul\n      dup4\n      mstore\n      swap2\n      0x20\n      add\n      swap2\n      jump(tag_141)\n    tag_142:\n      dup3\n      add\n      swap2\n      swap1\n      0x00\n      mstore\n      keccak256(0x00, 0x20)\n      swap1\n    tag_143:\n      dup2\n      sload\n      dup2\n      mstore\n      swap1\n      0x01\n      add\n      swap1\n      0x20\n      add\n      dup1\n      dup4\n      gt\n      tag_143\n      jumpi\n      dup3\n      swap1\n      sub\n      0x1f\n      and\n      dup3\n      add\n      swap2\n    tag_141:\n      pop\n      pop\n      pop\n      pop\n      pop\n      dup2\n      mstore\n      pop\n      pop\n      swap1\n      pop\n        /* \"DIDRegistry.sol\":3987:4192  function getMetadata() public view returns (Metadata memory) {... */\n      swap1\n      jump\t// out\n        /* \"DIDRegistry.sol\":7482:8247  function verifySalary(address _user, address _issuer, int _salary) public returns (bool) {... */\n    tag_40:\n        /* \"DIDRegistry.sol\":7565:7569  bool */\n      0x00\n        /* \"DIDRegistry.sol\":7619:7620  0 */\n      dup1\n        /* \"DIDRegistry.sol\":7590:7621  dids[_user].owner != address(0) */\n      0xffffffffffffffffffffffffffffffffffffffff\n      and\n        /* \"DIDRegistry.sol\":7590:7594  dids */\n      0x00\n        /* \"DIDRegistry.sol\":7590:7601  dids[_user] */\n      dup1\n        /* \"DIDRegistry.sol\":7595:7600  _user */\n      dup7\n        /* \"DIDRegistry.sol\":7590:7601  dids[_user] */\n      0xffffffffffffffffffffffffffffffffffffffff\n      and\n      0xffffffffffffffffffffffffffffffffffffffff\n      and\n      dup2\n      mstore\n      0x20\n      add\n      swap1\n      dup2\n      mstore\n      0x20\n      add\n      0x00\n      keccak256\n        /* \"DIDRegistry.sol\":7590:7607  dids[_user].owner */\n      0x01\n      add\n      0x00\n      swap1\n      sload\n      swap1\n      0x0100\n      exp\n      swap1\n      div\n      0xffffffffffffffffffffffffffffffffffffffff\n      and\n        /* \"DIDRegistry.sol\":7590:7621  dids[_user].owner != address(0) */\n      0xffffffffffffffffffffffffffffffffffffffff\n      and\n      sub\n        /* \"DIDRegistry.sol\":7582:7661  require(dids[_user].owner != address(0), \"No existing DID found for this user\") */\n      tag_145\n      jumpi\n      mload(0x40)\n      0x08c379a000000000000000000000000000000000000000000000000000000000\n      dup2\n      mstore\n      0x04\n      add\n      tag_146\n      swap1\n      tag_147\n      jump\t// in\n    tag_146:\n      mload(0x40)\n      dup1\n      swap2\n      sub\n      swap1\n      revert\n    tag_145:\n        /* \"DIDRegistry.sol\":7708:7709  0 */\n      0x00\n        /* \"DIDRegistry.sol\":7680:7691  credentials */\n      0x04\n        /* \"DIDRegistry.sol\":7680:7698  credentials[_user] */\n      0x00\n        /* \"DIDRegistry.sol\":7692:7697  _user */\n      dup7\n        /* \"DIDRegistry.sol\":7680:7698  credentials[_user] */\n      0xffffffffffffffffffffffffffffffffffffffff\n      and\n      0xffffffffffffffffffffffffffffffffffffffff\n      and\n      dup2\n      mstore\n      0x20\n      add\n      swap1\n      dup2\n      mstore\n      0x20\n      add\n      0x00\n      keccak256\n        /* \"DIDRegistry.sol\":7680:7705  credentials[_user].length */\n      dup1\n      sload\n      swap1\n      pop\n        /* \"DIDRegistry.sol\":7680:7709  credentials[_user].length > 0 */\n      gt\n        /* \"DIDRegistry.sol\":7672:7747  require(credentials[_user].length > 0, \"User does not have any credential\") */\n      tag_148\n      jumpi\n      mload(0x40)\n      0x08c379a000000000000000000000000000000000000000000000000000000000\n      dup2\n      mstore\n      0x04\n      add\n      tag_149\n      swap1\n      tag_150\n      jump\t// in\n    tag_149:\n      mload(0x40)\n      dup1\n      swap2\n      sub\n      swap1\n      revert\n    tag_148:\n        /* \"DIDRegistry.sol\":7800:7835  Credential[] memory userCredentials */\n      0x00\n        /* \"DIDRegistry.sol\":7838:7849  credentials */\n      0x04\n        /* \"DIDRegistry.sol\":7838:7856  credentials[_user] */\n      0x00\n        /* \"DIDRegistry.sol\":7850:7855  _user */\n      dup7\n        /* \"DIDRegistry.sol\":7838:7856  credentials[_user] */\n      0xffffffffffffffffffffffffffffffffffffffff\n      and\n      0xffffffffffffffffffffffffffffffffffffffff\n      and\n      dup2\n      mstore\n      0x20\n      add\n      swap1\n      dup2\n      mstore\n      0x20\n      add\n      0x00\n      keccak256\n        /* \"DIDRegistry.sol\":7800:7856  Credential[] memory userCredentials = credentials[_user] */\n      dup1\n      sload\n      dup1\n      0x20\n      mul\n      0x20\n      add\n      mload(0x40)\n      swap1\n      dup2\n      add\n      0x40\n      mstore\n      dup1\n      swap3\n      swap2\n      swap1\n      dup2\n      dup2\n      mstore\n      0x20\n      add\n      0x00\n      swap1\n    tag_151:\n      dup3\n      dup3\n      lt\n      iszero\n      tag_152\n      jumpi\n      dup4\n      dup3\n      swap1\n      0x00\n      mstore\n      keccak256(0x00, 0x20)\n      swap1\n      0x08\n      mul\n      add\n      mload(0x40)\n      dup1\n      0x0100\n      add\n      0x40\n      mstore\n      swap1\n      dup2\n      0x00\n      dup3\n      add\n      0x00\n      swap1\n      sload\n      swap1\n      0x0100\n      exp\n      swap1\n      div\n      0xffffffffffffffffffffffffffffffffffffffff\n      and\n      0xffffffffffffffffffffffffffffffffffffffff\n      and\n      0xffffffffffffffffffffffffffffffffffffffff\n      and\n      dup2\n      mstore\n      0x20\n      add\n      0x01\n      dup3\n      add\n      sload\n      dup2\n      mstore\n      0x20\n      add\n      0x02\n      dup3\n      add\n      dup1\n      sload\n      tag_154\n      swap1\n      tag_107\n      jump\t// in\n    tag_154:\n      dup1\n      0x1f\n      add\n      0x20\n      dup1\n      swap2\n      div\n      mul\n      0x20\n      add\n      mload(0x40)\n      swap1\n      dup2\n      add\n      0x40\n      mstore\n      dup1\n      swap3\n      swap2\n      swap1\n      dup2\n      dup2\n      mstore\n      0x20\n      add\n      dup3\n      dup1\n      sload\n      tag_155\n      swap1\n      tag_107\n      jump\t// in\n    tag_155:\n      dup1\n      iszero\n      tag_156\n      jumpi\n      dup1\n      0x1f\n      lt\n      tag_157\n      jumpi\n      0x0100\n      dup1\n      dup4\n      sload\n      div\n      mul\n      dup4\n      mstore\n      swap2\n      0x20\n      add\n      swap2\n      jump(tag_156)\n    tag_157:\n      dup3\n      add\n      swap2\n      swap1\n      0x00\n      mstore\n      keccak256(0x00, 0x20)\n      swap1\n    tag_158:\n      dup2\n      sload\n      dup2\n      mstore\n      swap1\n      0x01\n      add\n      swap1\n      0x20\n      add\n      dup1\n      dup4\n      gt\n      tag_158\n      jumpi\n      dup3\n      swap1\n      sub\n      0x1f\n      and\n      dup3\n      add\n      swap2\n    tag_156:\n      pop\n      pop\n      pop\n      pop\n      pop\n      dup2\n      mstore\n      0x20\n      add\n      0x03\n      dup3\n      add\n      sload\n      dup2\n      mstore\n      0x20\n      add\n      0x04\n      dup3\n      add\n      sload\n      dup2\n      mstore\n      0x20\n      add\n      0x05\n      dup3\n      add\n      sload\n      dup2\n      mstore\n      0x20\n      add\n      0x06\n      dup3\n      add\n      sload\n      dup2\n      mstore\n      0x20\n      add\n      0x07\n      dup3\n      add\n      sload\n      dup2\n      mstore\n      pop\n      pop\n      dup2\n      mstore\n      0x20\n      add\n      swap1\n      0x01\n      add\n      swap1\n      jump(tag_151)\n    tag_152:\n      pop\n      pop\n      pop\n      pop\n      swap1\n      pop\n        /* \"DIDRegistry.sol\":7874:7880  uint i */\n      0x00\n        /* \"DIDRegistry.sol\":7869:8215  for (uint i = 0; i < userCredentials.length; i++) {... */\n    tag_159:\n        /* \"DIDRegistry.sol\":7890:7905  userCredentials */\n      dup2\n        /* \"DIDRegistry.sol\":7890:7912  userCredentials.length */\n      mload\n        /* \"DIDRegistry.sol\":7886:7887  i */\n      dup2\n        /* \"DIDRegistry.sol\":7886:7912  i < userCredentials.length */\n      lt\n        /* \"DIDRegistry.sol\":7869:8215  for (uint i = 0; i < userCredentials.length; i++) {... */\n      iszero\n      tag_160\n      jumpi\n        /* \"DIDRegistry.sol\":7967:7974  _issuer */\n      dup5\n        /* \"DIDRegistry.sol\":7938:7974  userCredentials[i].issuer == _issuer */\n      0xffffffffffffffffffffffffffffffffffffffff\n      and\n        /* \"DIDRegistry.sol\":7938:7953  userCredentials */\n      dup3\n        /* \"DIDRegistry.sol\":7954:7955  i */\n      dup3\n        /* \"DIDRegistry.sol\":7938:7956  userCredentials[i] */\n      dup2\n      mload\n      dup2\n      lt\n      tag_162\n      jumpi\n      tag_163\n      tag_164\n      jump\t// in\n    tag_163:\n    tag_162:\n      0x20\n      mul\n      0x20\n      add\n      add\n      mload\n        /* \"DIDRegistry.sol\":7938:7963  userCredentials[i].issuer */\n      0x00\n      add\n      mload\n        /* \"DIDRegistry.sol\":7938:7974  userCredentials[i].issuer == _issuer */\n      0xffffffffffffffffffffffffffffffffffffffff\n      and\n      eq\n        /* \"DIDRegistry.sol\":7938:8009  userCredentials[i].issuer == _issuer && userCredentials[i].salary > 300 */\n      dup1\n      iszero\n      tag_165\n      jumpi\n      pop\n        /* \"DIDRegistry.sol\":8006:8009  300 */\n      0x012c\n        /* \"DIDRegistry.sol\":7978:7993  userCredentials */\n      dup3\n        /* \"DIDRegistry.sol\":7994:7995  i */\n      dup3\n        /* \"DIDRegistry.sol\":7978:7996  userCredentials[i] */\n      dup2\n      mload\n      dup2\n      lt\n      tag_166\n      jumpi\n      tag_167\n      tag_164\n      jump\t// in\n    tag_167:\n    tag_166:\n      0x20\n      mul\n      0x20\n      add\n      add\n      mload\n        /* \"DIDRegistry.sol\":7978:8003  userCredentials[i].salary */\n      0x20\n      add\n      mload\n        /* \"DIDRegistry.sol\":7978:8009  userCredentials[i].salary > 300 */\n      sgt\n        /* \"DIDRegistry.sol\":7938:8009  userCredentials[i].issuer == _issuer && userCredentials[i].salary > 300 */\n    tag_165:\n        /* \"DIDRegistry.sol\":7934:8204  if (userCredentials[i].issuer == _issuer && userCredentials[i].salary > 300) {... */\n      iszero\n      tag_168\n      jumpi\n        /* \"DIDRegistry.sol\":8050:8057  _issuer */\n      dup5\n        /* \"DIDRegistry.sol\":8035:8073  SalaryVerified(_issuer, _salary, true) */\n      0xffffffffffffffffffffffffffffffffffffffff\n      and\n      0xdc794785acf9c11e109fefc6d2dc8bca096830e028a59f238cc02926513f8cc7\n        /* \"DIDRegistry.sol\":8059:8066  _salary */\n      dup6\n        /* \"DIDRegistry.sol\":8068:8072  true */\n      0x01\n        /* \"DIDRegistry.sol\":8035:8073  SalaryVerified(_issuer, _salary, true) */\n      mload(0x40)\n      tag_169\n      swap3\n      swap2\n      swap1\n      tag_170\n      jump\t// in\n    tag_169:\n      mload(0x40)\n      dup1\n      swap2\n      sub\n      swap1\n      log2\n        /* \"DIDRegistry.sol\":8099:8103  true */\n      0x01\n        /* \"DIDRegistry.sol\":8092:8103  return true */\n      swap3\n      pop\n      pop\n      pop\n      jump(tag_144)\n        /* \"DIDRegistry.sol\":7934:8204  if (userCredentials[i].issuer == _issuer && userCredentials[i].salary > 300) {... */\n    tag_168:\n        /* \"DIDRegistry.sol\":8164:8171  _issuer */\n      dup5\n        /* \"DIDRegistry.sol\":8149:8188  SalaryVerified(_issuer, _salary, false) */\n      0xffffffffffffffffffffffffffffffffffffffff\n      and\n      0xdc794785acf9c11e109fefc6d2dc8bca096830e028a59f238cc02926513f8cc7\n        /* \"DIDRegistry.sol\":8173:8180  _salary */\n      dup6\n        /* \"DIDRegistry.sol\":8182:8187  false */\n      0x00\n        /* \"DIDRegistry.sol\":8149:8188  SalaryVerified(_issuer, _salary, false) */\n      mload(0x40)\n      tag_172\n      swap3\n      swap2\n      swap1\n      tag_170\n      jump\t// in\n    tag_172:\n      mload(0x40)\n      dup1\n      swap2\n      sub\n      swap1\n      log2\n        /* \"DIDRegistry.sol\":7914:7917  i++ */\n      dup1\n      dup1\n      0x01\n      add\n      swap2\n      pop\n      pop\n        /* \"DIDRegistry.sol\":7869:8215  for (uint i = 0; i < userCredentials.length; i++) {... */\n      jump(tag_159)\n    tag_160:\n      pop\n        /* \"DIDRegistry.sol\":8234:8239  false */\n      0x00\n        /* \"DIDRegistry.sol\":8227:8239  return false */\n      swap2\n      pop\n      pop\n        /* \"DIDRegistry.sol\":7482:8247  function verifySalary(address _user, address _issuer, int _salary) public returns (bool) {... */\n    tag_144:\n      swap4\n      swap3\n      pop\n      pop\n      pop\n      jump\t// out\n        /* \"DIDRegistry.sol\":4249:4681  function assignRole(address _user, string memory _role) onlyManager public {... */\n    tag_45:\n        /* \"DIDRegistry.sol\":1202:1218  bytes(\"manager\") */\n      mload(0x40)\n      dup1\n      0x40\n      add\n      0x40\n      mstore\n      dup1\n      0x07\n      dup2\n      mstore\n      0x20\n      add\n      0x6d616e6167657200000000000000000000000000000000000000000000000000\n      dup2\n      mstore\n      pop\n        /* \"DIDRegistry.sol\":1192:1219  keccak256(bytes(\"manager\")) */\n      dup1\n      mload\n      swap1\n      0x20\n      add\n      keccak256\n        /* \"DIDRegistry.sol\":1169:1174  roles */\n      0x01\n        /* \"DIDRegistry.sol\":1169:1186  roles[msg.sender] */\n      0x00\n        /* \"DIDRegistry.sol\":1175:1185  msg.sender */\n      caller\n        /* \"DIDRegistry.sol\":1169:1186  roles[msg.sender] */\n      0xffffffffffffffffffffffffffffffffffffffff\n      and\n      0xffffffffffffffffffffffffffffffffffffffff\n      and\n      dup2\n      mstore\n      0x20\n      add\n      swap1\n      dup2\n      mstore\n      0x20\n      add\n      0x00\n      keccak256\n        /* \"DIDRegistry.sol\":1153:1188  keccak256(bytes(roles[msg.sender])) */\n      mload(0x40)\n      tag_174\n      swap2\n      swap1\n      tag_175\n      jump\t// in\n    tag_174:\n      mload(0x40)\n      dup1\n      swap2\n      sub\n      swap1\n      keccak256\n        /* \"DIDRegistry.sol\":1153:1219  keccak256(bytes(roles[msg.sender])) == keccak256(bytes(\"manager\")) */\n      eq\n        /* \"DIDRegistry.sol\":1145:1243  require(keccak256(bytes(roles[msg.sender])) == keccak256(bytes(\"manager\")), \"Unauthorized action\") */\n      tag_176\n      jumpi\n      mload(0x40)\n      0x08c379a000000000000000000000000000000000000000000000000000000000\n      dup2\n      mstore\n      0x04\n      add\n      tag_177\n      swap1\n      tag_178\n      jump\t// in\n    tag_177:\n      mload(0x40)\n      dup1\n      swap2\n      sub\n      swap1\n      revert\n    tag_176:\n        /* \"DIDRegistry.sol\":4377:4378  0 */\n      0x00\n        /* \"DIDRegistry.sol\":4343:4379  dids[msg.sender].owner != address(0) */\n      0xffffffffffffffffffffffffffffffffffffffff\n      and\n        /* \"DIDRegistry.sol\":4343:4347  dids */\n      0x00\n        /* \"DIDRegistry.sol\":4343:4359  dids[msg.sender] */\n      dup1\n        /* \"DIDRegistry.sol\":4348:4358  msg.sender */\n      caller\n        /* \"DIDRegistry.sol\":4343:4359  dids[msg.sender] */\n      0xffffffffffffffffffffffffffffffffffffffff\n      and\n      0xffffffffffffffffffffffffffffffffffffffff\n      and\n      dup2\n      mstore\n      0x20\n      add\n      swap1\n      dup2\n      mstore\n      0x20\n      add\n      0x00\n      keccak256\n        /* \"DIDRegistry.sol\":4343:4365  dids[msg.sender].owner */\n      0x01\n      add\n      0x00\n      swap1\n      sload\n      swap1\n      0x0100\n      exp\n      swap1\n      div\n      0xffffffffffffffffffffffffffffffffffffffff\n      and\n        /* \"DIDRegistry.sol\":4343:4379  dids[msg.sender].owner != address(0) */\n      0xffffffffffffffffffffffffffffffffffffffff\n      and\n      sub\n        /* \"DIDRegistry.sol\":4335:4422  require(dids[msg.sender].owner != address(0), \"No existing DID found for this address\") */\n      tag_180\n      jumpi\n      mload(0x40)\n      0x08c379a000000000000000000000000000000000000000000000000000000000\n      dup2\n      mstore\n      0x04\n      add\n      tag_181\n      swap1\n      tag_72\n      jump\t// in\n    tag_181:\n      mload(0x40)\n      dup1\n      swap2\n      sub\n      swap1\n      revert\n    tag_180:\n        /* \"DIDRegistry.sol\":4463:4464  0 */\n      0x00\n        /* \"DIDRegistry.sol\":4447:4452  _role */\n      dup2\n        /* \"DIDRegistry.sol\":4441:4460  bytes(_role).length */\n      mload\n        /* \"DIDRegistry.sol\":4441:4464  bytes(_role).length > 0 */\n      gt\n        /* \"DIDRegistry.sol\":4433:4489  require(bytes(_role).length > 0, \"Role cannot be empty\") */\n      tag_182\n      jumpi\n      mload(0x40)\n      0x08c379a000000000000000000000000000000000000000000000000000000000\n      dup2\n      mstore\n      0x04\n      add\n      tag_183\n      swap1\n      tag_184\n      jump\t// in\n    tag_183:\n      mload(0x40)\n      dup1\n      swap2\n      sub\n      swap1\n      revert\n    tag_182:\n        /* \"DIDRegistry.sol\":4517:4522  _role */\n      dup1\n        /* \"DIDRegistry.sol\":4502:4507  roles */\n      0x01\n        /* \"DIDRegistry.sol\":4502:4514  roles[_user] */\n      0x00\n        /* \"DIDRegistry.sol\":4508:4513  _user */\n      dup5\n        /* \"DIDRegistry.sol\":4502:4514  roles[_user] */\n      0xffffffffffffffffffffffffffffffffffffffff\n      and\n      0xffffffffffffffffffffffffffffffffffffffff\n      and\n      dup2\n      mstore\n      0x20\n      add\n      swap1\n      dup2\n      mstore\n      0x20\n      add\n      0x00\n      keccak256\n        /* \"DIDRegistry.sol\":4502:4522  roles[_user] = _role */\n      swap1\n      dup2\n      tag_185\n      swap2\n      swap1\n      tag_77\n      jump\t// in\n    tag_185:\n      pop\n        /* \"DIDRegistry.sol\":4533:4544  roleHistory */\n      0x02\n        /* \"DIDRegistry.sol\":4533:4551  roleHistory[_user] */\n      0x00\n        /* \"DIDRegistry.sol\":4545:4550  _user */\n      dup4\n        /* \"DIDRegistry.sol\":4533:4551  roleHistory[_user] */\n      0xffffffffffffffffffffffffffffffffffffffff\n      and\n      0xffffffffffffffffffffffffffffffffffffffff\n      and\n      dup2\n      mstore\n      0x20\n      add\n      swap1\n      dup2\n      mstore\n      0x20\n      add\n      0x00\n      keccak256\n        /* \"DIDRegistry.sol\":4557:4562  _role */\n      dup2\n        /* \"DIDRegistry.sol\":4533:4563  roleHistory[_user].push(_role) */\n      swap1\n      dup1\n      0x01\n      dup2\n      sload\n      add\n      dup1\n      dup3\n      sstore\n      dup1\n      swap2\n      pop\n      pop\n      0x01\n      swap1\n      sub\n      swap1\n      0x00\n      mstore\n      keccak256(0x00, 0x20)\n      add\n      0x00\n      swap1\n      swap2\n      swap1\n      swap2\n      swap1\n      swap2\n      pop\n      swap1\n      dup2\n      tag_187\n      swap2\n      swap1\n      tag_77\n      jump\t// in\n    tag_187:\n      pop\n        /* \"DIDRegistry.sol\":4659:4664  _user */\n      dup2\n        /* \"DIDRegistry.sol\":4646:4672  RoleAssigned(_user, _role) */\n      0xffffffffffffffffffffffffffffffffffffffff\n      and\n      0x3565795c2fb8842c21347d277937778bbcfe788b5b4f790fc5e408786cbe9c90\n        /* \"DIDRegistry.sol\":4666:4671  _role */\n      dup3\n        /* \"DIDRegistry.sol\":4646:4672  RoleAssigned(_user, _role) */\n      mload(0x40)\n      tag_188\n      swap2\n      swap1\n      tag_53\n      jump\t// in\n    tag_188:\n      mload(0x40)\n      dup1\n      swap2\n      sub\n      swap1\n      log2\n        /* \"DIDRegistry.sol\":4249:4681  function assignRole(address _user, string memory _role) onlyManager public {... */\n      pop\n      pop\n      jump\t// out\n        /* \"DIDRegistry.sol\":4832:6017  function issueCredential(address _user, string memory _role, int _salary) onlyManager public {... */\n    tag_49:\n        /* \"DIDRegistry.sol\":1202:1218  bytes(\"manager\") */\n      mload(0x40)\n      dup1\n      0x40\n      add\n      0x40\n      mstore\n      dup1\n      0x07\n      dup2\n      mstore\n      0x20\n      add\n      0x6d616e6167657200000000000000000000000000000000000000000000000000\n      dup2\n      mstore\n      pop\n        /* \"DIDRegistry.sol\":1192:1219  keccak256(bytes(\"manager\")) */\n      dup1\n      mload\n      swap1\n      0x20\n      add\n      keccak256\n        /* \"DIDRegistry.sol\":1169:1174  roles */\n      0x01\n        /* \"DIDRegistry.sol\":1169:1186  roles[msg.sender] */\n      0x00\n        /* \"DIDRegistry.sol\":1175:1185  msg.sender */\n      caller\n        /* \"DIDRegistry.sol\":1169:1186  roles[msg.sender] */\n      0xffffffffffffffffffffffffffffffffffffffff\n      and\n      0xffffffffffffffffffffffffffffffffffffffff\n      and\n      dup2\n      mstore\n      0x20\n      add\n      swap1\n      dup2\n      mstore\n      0x20\n      add\n      0x00\n      keccak256\n        /* \"DIDRegistry.sol\":1153:1188  keccak256(bytes(roles[msg.sender])) */\n      mload(0x40)\n      tag_190\n      swap2\n      swap1\n      tag_175\n      jump\t// in\n    tag_190:\n      mload(0x40)\n      dup1\n      swap2\n      sub\n      swap1\n      keccak256\n        /* \"DIDRegistry.sol\":1153:1219  keccak256(bytes(roles[msg.sender])) == keccak256(bytes(\"manager\")) */\n      eq\n        /* \"DIDRegistry.sol\":1145:1243  require(keccak256(bytes(roles[msg.sender])) == keccak256(bytes(\"manager\")), \"Unauthorized action\") */\n      tag_191\n      jumpi\n      mload(0x40)\n      0x08c379a000000000000000000000000000000000000000000000000000000000\n      dup2\n      mstore\n      0x04\n      add\n      tag_192\n      swap1\n      tag_178\n      jump\t// in\n    tag_192:\n      mload(0x40)\n      dup1\n      swap2\n      sub\n      swap1\n      revert\n    tag_191:\n        /* \"DIDRegistry.sol\":4978:4979  0 */\n      0x00\n        /* \"DIDRegistry.sol\":4944:4980  dids[msg.sender].owner != address(0) */\n      0xffffffffffffffffffffffffffffffffffffffff\n      and\n        /* \"DIDRegistry.sol\":4944:4948  dids */\n      0x00\n        /* \"DIDRegistry.sol\":4944:4960  dids[msg.sender] */\n      dup1\n        /* \"DIDRegistry.sol\":4949:4959  msg.sender */\n      caller\n        /* \"DIDRegistry.sol\":4944:4960  dids[msg.sender] */\n      0xffffffffffffffffffffffffffffffffffffffff\n      and\n      0xffffffffffffffffffffffffffffffffffffffff\n      and\n      dup2\n      mstore\n      0x20\n      add\n      swap1\n      dup2\n      mstore\n      0x20\n      add\n      0x00\n      keccak256\n        /* \"DIDRegistry.sol\":4944:4966  dids[msg.sender].owner */\n      0x01\n      add\n      0x00\n      swap1\n      sload\n      swap1\n      0x0100\n      exp\n      swap1\n      div\n      0xffffffffffffffffffffffffffffffffffffffff\n      and\n        /* \"DIDRegistry.sol\":4944:4980  dids[msg.sender].owner != address(0) */\n      0xffffffffffffffffffffffffffffffffffffffff\n      and\n      sub\n        /* \"DIDRegistry.sol\":4936:5023  require(dids[msg.sender].owner != address(0), \"No existing DID found for this address\") */\n      tag_194\n      jumpi\n      mload(0x40)\n      0x08c379a000000000000000000000000000000000000000000000000000000000\n      dup2\n      mstore\n      0x04\n      add\n      tag_195\n      swap1\n      tag_72\n      jump\t// in\n    tag_195:\n      mload(0x40)\n      dup1\n      swap2\n      sub\n      swap1\n      revert\n    tag_194:\n        /* \"DIDRegistry.sol\":5064:5065  0 */\n      0x00\n        /* \"DIDRegistry.sol\":5048:5053  _role */\n      dup3\n        /* \"DIDRegistry.sol\":5042:5061  bytes(_role).length */\n      mload\n        /* \"DIDRegistry.sol\":5042:5065  bytes(_role).length > 0 */\n      gt\n        /* \"DIDRegistry.sol\":5034:5090  require(bytes(_role).length > 0, \"Role cannot be empty\") */\n      tag_196\n      jumpi\n      mload(0x40)\n      0x08c379a000000000000000000000000000000000000000000000000000000000\n      dup2\n      mstore\n      0x04\n      add\n      tag_197\n      swap1\n      tag_184\n      jump\t// in\n    tag_197:\n      mload(0x40)\n      dup1\n      swap2\n      sub\n      swap1\n      revert\n    tag_196:\n        /* \"DIDRegistry.sol\":5143:5159  bytes32 fullHash */\n      0x00\n        /* \"DIDRegistry.sol\":5189:5199  msg.sender */\n      caller\n        /* \"DIDRegistry.sol\":5201:5206  _user */\n      dup5\n        /* \"DIDRegistry.sol\":5208:5215  _salary */\n      dup4\n        /* \"DIDRegistry.sol\":5217:5222  _role */\n      dup6\n        /* \"DIDRegistry.sol\":5224:5239  block.timestamp */\n      timestamp\n        /* \"DIDRegistry.sol\":5172:5240  abi.encodePacked(msg.sender, _user, _salary, _role, block.timestamp) */\n      add(0x20, mload(0x40))\n      tag_198\n      swap6\n      swap5\n      swap4\n      swap3\n      swap2\n      swap1\n      tag_199\n      jump\t// in\n    tag_198:\n      mload(0x40)\n      0x20\n      dup2\n      dup4\n      sub\n      sub\n      dup2\n      mstore\n      swap1\n      0x40\n      mstore\n        /* \"DIDRegistry.sol\":5162:5241  keccak256(abi.encodePacked(msg.sender, _user, _salary, _role, block.timestamp)) */\n      dup1\n      mload\n      swap1\n      0x20\n      add\n      keccak256\n        /* \"DIDRegistry.sol\":5143:5241  bytes32 fullHash = keccak256(abi.encodePacked(msg.sender, _user, _salary, _role, block.timestamp)) */\n      swap1\n      pop\n        /* \"DIDRegistry.sol\":5252:5268  bytes32 roleHash */\n      0x00\n        /* \"DIDRegistry.sol\":5298:5308  msg.sender */\n      caller\n        /* \"DIDRegistry.sol\":5310:5315  _user */\n      dup6\n        /* \"DIDRegistry.sol\":5317:5322  _role */\n      dup6\n        /* \"DIDRegistry.sol\":5324:5339  block.timestamp */\n      timestamp\n        /* \"DIDRegistry.sol\":5281:5340  abi.encodePacked(msg.sender, _user, _role, block.timestamp) */\n      add(0x20, mload(0x40))\n      tag_200\n      swap5\n      swap4\n      swap3\n      swap2\n      swap1\n      tag_201\n      jump\t// in\n    tag_200:\n      mload(0x40)\n      0x20\n      dup2\n      dup4\n      sub\n      sub\n      dup2\n      mstore\n      swap1\n      0x40\n      mstore\n        /* \"DIDRegistry.sol\":5271:5341  keccak256(abi.encodePacked(msg.sender, _user, _role, block.timestamp)) */\n      dup1\n      mload\n      swap1\n      0x20\n      add\n      keccak256\n        /* \"DIDRegistry.sol\":5252:5341  bytes32 roleHash = keccak256(abi.encodePacked(msg.sender, _user, _role, block.timestamp)) */\n      swap1\n      pop\n        /* \"DIDRegistry.sol\":5352:5370  bytes32 salaryHash */\n      0x00\n        /* \"DIDRegistry.sol\":5400:5410  msg.sender */\n      caller\n        /* \"DIDRegistry.sol\":5412:5417  _user */\n      dup7\n        /* \"DIDRegistry.sol\":5419:5426  _salary */\n      dup6\n        /* \"DIDRegistry.sol\":5428:5443  block.timestamp */\n      timestamp\n        /* \"DIDRegistry.sol\":5383:5444  abi.encodePacked(msg.sender, _user, _salary, block.timestamp) */\n      add(0x20, mload(0x40))\n      tag_202\n      swap5\n      swap4\n      swap3\n      swap2\n      swap1\n      tag_203\n      jump\t// in\n    tag_202:\n      mload(0x40)\n      0x20\n      dup2\n      dup4\n      sub\n      sub\n      dup2\n      mstore\n      swap1\n      0x40\n      mstore\n        /* \"DIDRegistry.sol\":5373:5445  keccak256(abi.encodePacked(msg.sender, _user, _salary, block.timestamp)) */\n      dup1\n      mload\n      swap1\n      0x20\n      add\n      keccak256\n        /* \"DIDRegistry.sol\":5352:5445  bytes32 salaryHash = keccak256(abi.encodePacked(msg.sender, _user, _salary, block.timestamp)) */\n      swap1\n      pop\n        /* \"DIDRegistry.sol\":5456:5477  bytes32 salary300Hash */\n      0x00\n        /* \"DIDRegistry.sol\":5507:5517  msg.sender */\n      caller\n        /* \"DIDRegistry.sol\":5519:5524  _user */\n      dup8\n        /* \"DIDRegistry.sol\":5536:5539  300 */\n      0x012c\n        /* \"DIDRegistry.sol\":5526:5533  _salary */\n      dup8\n        /* \"DIDRegistry.sol\":5526:5539  _salary > 300 */\n      sgt\n        /* \"DIDRegistry.sol\":5541:5556  block.timestamp */\n      timestamp\n        /* \"DIDRegistry.sol\":5490:5557  abi.encodePacked(msg.sender, _user, _salary > 300, block.timestamp) */\n      add(0x20, mload(0x40))\n      tag_204\n      swap5\n      swap4\n      swap3\n      swap2\n      swap1\n      tag_205\n      jump\t// in\n    tag_204:\n      mload(0x40)\n      0x20\n      dup2\n      dup4\n      sub\n      sub\n      dup2\n      mstore\n      swap1\n      0x40\n      mstore\n        /* \"DIDRegistry.sol\":5480:5558  keccak256(abi.encodePacked(msg.sender, _user, _salary > 300, block.timestamp)) */\n      dup1\n      mload\n      swap1\n      0x20\n      add\n      keccak256\n        /* \"DIDRegistry.sol\":5456:5558  bytes32 salary300Hash = keccak256(abi.encodePacked(msg.sender, _user, _salary > 300, block.timestamp)) */\n      swap1\n      pop\n        /* \"DIDRegistry.sol\":5646:5657  credentials */\n      0x04\n        /* \"DIDRegistry.sol\":5646:5664  credentials[_user] */\n      0x00\n        /* \"DIDRegistry.sol\":5658:5663  _user */\n      dup9\n        /* \"DIDRegistry.sol\":5646:5664  credentials[_user] */\n      0xffffffffffffffffffffffffffffffffffffffff\n      and\n      0xffffffffffffffffffffffffffffffffffffffff\n      and\n      dup2\n      mstore\n      0x20\n      add\n      swap1\n      dup2\n      mstore\n      0x20\n      add\n      0x00\n      keccak256\n        /* \"DIDRegistry.sol\":5670:5887  Credential(... */\n      mload(0x40)\n      dup1\n      0x0100\n      add\n      0x40\n      mstore\n      dup1\n        /* \"DIDRegistry.sol\":5695:5705  msg.sender */\n      caller\n        /* \"DIDRegistry.sol\":5670:5887  Credential(... */\n      0xffffffffffffffffffffffffffffffffffffffff\n      and\n      dup2\n      mstore\n      0x20\n      add\n        /* \"DIDRegistry.sol\":5720:5727  _salary */\n      dup8\n        /* \"DIDRegistry.sol\":5670:5887  Credential(... */\n      dup2\n      mstore\n      0x20\n      add\n        /* \"DIDRegistry.sol\":5742:5747  _role */\n      dup9\n        /* \"DIDRegistry.sol\":5670:5887  Credential(... */\n      dup2\n      mstore\n      0x20\n      add\n        /* \"DIDRegistry.sol\":5762:5770  fullHash */\n      dup7\n        /* \"DIDRegistry.sol\":5670:5887  Credential(... */\n      dup2\n      mstore\n      0x20\n      add\n        /* \"DIDRegistry.sol\":5785:5793  roleHash */\n      dup6\n        /* \"DIDRegistry.sol\":5670:5887  Credential(... */\n      dup2\n      mstore\n      0x20\n      add\n        /* \"DIDRegistry.sol\":5808:5818  salaryHash */\n      dup5\n        /* \"DIDRegistry.sol\":5670:5887  Credential(... */\n      dup2\n      mstore\n      0x20\n      add\n        /* \"DIDRegistry.sol\":5833:5846  salary300Hash */\n      dup4\n        /* \"DIDRegistry.sol\":5670:5887  Credential(... */\n      dup2\n      mstore\n      0x20\n      add\n        /* \"DIDRegistry.sol\":5861:5876  block.timestamp */\n      timestamp\n        /* \"DIDRegistry.sol\":5670:5887  Credential(... */\n      dup2\n      mstore\n      pop\n        /* \"DIDRegistry.sol\":5646:5888  credentials[_user].push(Credential(... */\n      swap1\n      dup1\n      0x01\n      dup2\n      sload\n      add\n      dup1\n      dup3\n      sstore\n      dup1\n      swap2\n      pop\n      pop\n      0x01\n      swap1\n      sub\n      swap1\n      0x00\n      mstore\n      keccak256(0x00, 0x20)\n      swap1\n      0x08\n      mul\n      add\n      0x00\n      swap1\n      swap2\n      swap1\n      swap2\n      swap1\n      swap2\n      pop\n      0x00\n      dup3\n      add\n      mload\n      dup2\n      0x00\n      add\n      exp(0x0100, 0x00)\n      dup2\n      sload\n      dup2\n      0xffffffffffffffffffffffffffffffffffffffff\n      mul\n      not\n      and\n      swap1\n      dup4\n      0xffffffffffffffffffffffffffffffffffffffff\n      and\n      mul\n      or\n      swap1\n      sstore\n      pop\n      0x20\n      dup3\n      add\n      mload\n      dup2\n      0x01\n      add\n      sstore\n      0x40\n      dup3\n      add\n      mload\n      dup2\n      0x02\n      add\n      swap1\n      dup2\n      tag_207\n      swap2\n      swap1\n      tag_77\n      jump\t// in\n    tag_207:\n      pop\n      0x60\n      dup3\n      add\n      mload\n      dup2\n      0x03\n      add\n      sstore\n      0x80\n      dup3\n      add\n      mload\n      dup2\n      0x04\n      add\n      sstore\n      0xa0\n      dup3\n      add\n      mload\n      dup2\n      0x05\n      add\n      sstore\n      0xc0\n      dup3\n      add\n      mload\n      dup2\n      0x06\n      add\n      sstore\n      0xe0\n      dup3\n      add\n      mload\n      dup2\n      0x07\n      add\n      sstore\n      pop\n      pop\n        /* \"DIDRegistry.sol\":5899:5910  roleHistory */\n      0x02\n        /* \"DIDRegistry.sol\":5899:5917  roleHistory[_user] */\n      0x00\n        /* \"DIDRegistry.sol\":5911:5916  _user */\n      dup9\n        /* \"DIDRegistry.sol\":5899:5917  roleHistory[_user] */\n      0xffffffffffffffffffffffffffffffffffffffff\n      and\n      0xffffffffffffffffffffffffffffffffffffffff\n      and\n      dup2\n      mstore\n      0x20\n      add\n      swap1\n      dup2\n      mstore\n      0x20\n      add\n      0x00\n      keccak256\n        /* \"DIDRegistry.sol\":5923:5928  _role */\n      dup7\n        /* \"DIDRegistry.sol\":5899:5929  roleHistory[_user].push(_role) */\n      swap1\n      dup1\n      0x01\n      dup2\n      sload\n      add\n      dup1\n      dup3\n      sstore\n      dup1\n      swap2\n      pop\n      pop\n      0x01\n      swap1\n      sub\n      swap1\n      0x00\n      mstore\n      keccak256(0x00, 0x20)\n      add\n      0x00\n      swap1\n      swap2\n      swap1\n      swap2\n      swap1\n      swap2\n      pop\n      swap1\n      dup2\n      tag_209\n      swap2\n      swap1\n      tag_77\n      jump\t// in\n    tag_209:\n      pop\n        /* \"DIDRegistry.sol\":5964:5974  msg.sender */\n      caller\n        /* \"DIDRegistry.sol\":5947:6008  CredentialIssued(msg.sender, _user, _salary, _role, roleHash) */\n      0xffffffffffffffffffffffffffffffffffffffff\n      and\n      0x8664f7879e62b02f94c87f05b19346809ef65fc277ebad0ceb8e14a5c2f44e6e\n        /* \"DIDRegistry.sol\":5976:5981  _user */\n      dup9\n        /* \"DIDRegistry.sol\":5983:5990  _salary */\n      dup8\n        /* \"DIDRegistry.sol\":5992:5997  _role */\n      dup10\n        /* \"DIDRegistry.sol\":5999:6007  roleHash */\n      dup8\n        /* \"DIDRegistry.sol\":5947:6008  CredentialIssued(msg.sender, _user, _salary, _role, roleHash) */\n      mload(0x40)\n      tag_210\n      swap5\n      swap4\n      swap3\n      swap2\n      swap1\n      tag_211\n      jump\t// in\n    tag_210:\n      mload(0x40)\n      dup1\n      swap2\n      sub\n      swap1\n      log2\n        /* \"DIDRegistry.sol\":4925:6017  {... */\n      pop\n      pop\n      pop\n      pop\n        /* \"DIDRegistry.sol\":4832:6017  function issueCredential(address _user, string memory _role, int _salary) onlyManager public {... */\n      pop\n      pop\n      pop\n      jump\t// out\n        /* \"DIDRegistry.sol\":2422:2618  function getDID() public view returns (string memory) {... */\n    tag_51:\n        /* \"DIDRegistry.sol\":2461:2474  string memory */\n      0x60\n        /* \"DIDRegistry.sol\":2529:2530  0 */\n      0x00\n        /* \"DIDRegistry.sol\":2495:2531  dids[msg.sender].owner != address(0) */\n      0xffffffffffffffffffffffffffffffffffffffff\n      and\n        /* \"DIDRegistry.sol\":2495:2499  dids */\n      0x00\n        /* \"DIDRegistry.sol\":2495:2511  dids[msg.sender] */\n      dup1\n        /* \"DIDRegistry.sol\":2500:2510  msg.sender */\n      caller\n        /* \"DIDRegistry.sol\":2495:2511  dids[msg.sender] */\n      0xffffffffffffffffffffffffffffffffffffffff\n      and\n      0xffffffffffffffffffffffffffffffffffffffff\n      and\n      dup2\n      mstore\n      0x20\n      add\n      swap1\n      dup2\n      mstore\n      0x20\n      add\n      0x00\n      keccak256\n        /* \"DIDRegistry.sol\":2495:2517  dids[msg.sender].owner */\n      0x01\n      add\n      0x00\n      swap1\n      sload\n      swap1\n      0x0100\n      exp\n      swap1\n      div\n      0xffffffffffffffffffffffffffffffffffffffff\n      and\n        /* \"DIDRegistry.sol\":2495:2531  dids[msg.sender].owner != address(0) */\n      0xffffffffffffffffffffffffffffffffffffffff\n      and\n      sub\n        /* \"DIDRegistry.sol\":2487:2565  require(dids[msg.sender].owner != address(0), \"No DID found for this address\") */\n      tag_213\n      jumpi\n      mload(0x40)\n      0x08c379a000000000000000000000000000000000000000000000000000000000\n      dup2\n      mstore\n      0x04\n      add\n      tag_214\n      swap1\n      tag_215\n      jump\t// in\n    tag_214:\n      mload(0x40)\n      dup1\n      swap2\n      sub\n      swap1\n      revert\n    tag_213:\n        /* \"DIDRegistry.sol\":2583:2587  dids */\n      0x00\n        /* \"DIDRegistry.sol\":2583:2599  dids[msg.sender] */\n      dup1\n        /* \"DIDRegistry.sol\":2588:2598  msg.sender */\n      caller\n        /* \"DIDRegistry.sol\":2583:2599  dids[msg.sender] */\n      0xffffffffffffffffffffffffffffffffffffffff\n      and\n      0xffffffffffffffffffffffffffffffffffffffff\n      and\n      dup2\n      mstore\n      0x20\n      add\n      swap1\n      dup2\n      mstore\n      0x20\n      add\n      0x00\n      keccak256\n        /* \"DIDRegistry.sol\":2583:2610  dids[msg.sender].identifier */\n      0x00\n      add\n        /* \"DIDRegistry.sol\":2576:2610  return dids[msg.sender].identifier */\n      dup1\n      sload\n      tag_216\n      swap1\n      tag_107\n      jump\t// in\n    tag_216:\n      dup1\n      0x1f\n      add\n      0x20\n      dup1\n      swap2\n      div\n      mul\n      0x20\n      add\n      mload(0x40)\n      swap1\n      dup2\n      add\n      0x40\n      mstore\n      dup1\n      swap3\n      swap2\n      swap1\n      dup2\n      dup2\n      mstore\n      0x20\n      add\n      dup3\n      dup1\n      sload\n      tag_217\n      swap1\n      tag_107\n      jump\t// in\n    tag_217:\n      dup1\n      iszero\n      tag_218\n      jumpi\n      dup1\n      0x1f\n      lt\n      tag_219\n      jumpi\n      0x0100\n      dup1\n      dup4\n      sload\n      div\n      mul\n      dup4\n      mstore\n      swap2\n      0x20\n      add\n      swap2\n      jump(tag_218)\n    tag_219:\n      dup3\n      add\n      swap2\n      swap1\n      0x00\n      mstore\n      keccak256(0x00, 0x20)\n      swap1\n    tag_220:\n      dup2\n      sload\n      dup2\n      mstore\n      swap1\n      0x01\n      add\n      swap1\n      0x20\n      add\n      dup1\n      dup4\n      gt\n      tag_220\n      jumpi\n      dup3\n      swap1\n      sub\n      0x1f\n      and\n      dup3\n      add\n      swap2\n    tag_218:\n      pop\n      pop\n      pop\n      pop\n      pop\n      swap1\n      pop\n        /* \"DIDRegistry.sol\":2422:2618  function getDID() public view returns (string memory) {... */\n      swap1\n      jump\t// out\n        /* \"DIDRegistry.sol\":8320:8657  function presentCredential(string memory _name, string memory _email) public view returns(bytes32)... */\n    tag_57:\n        /* \"DIDRegistry.sol\":8410:8417  bytes32 */\n      0x00\n        /* \"DIDRegistry.sol\":8477:8478  0 */\n      dup1\n        /* \"DIDRegistry.sol\":8443:8479  dids[msg.sender].owner != address(0) */\n      0xffffffffffffffffffffffffffffffffffffffff\n      and\n        /* \"DIDRegistry.sol\":8443:8447  dids */\n      0x00\n        /* \"DIDRegistry.sol\":8443:8459  dids[msg.sender] */\n      dup1\n        /* \"DIDRegistry.sol\":8448:8458  msg.sender */\n      caller\n        /* \"DIDRegistry.sol\":8443:8459  dids[msg.sender] */\n      0xffffffffffffffffffffffffffffffffffffffff\n      and\n      0xffffffffffffffffffffffffffffffffffffffff\n      and\n      dup2\n      mstore\n      0x20\n      add\n      swap1\n      dup2\n      mstore\n      0x20\n      add\n      0x00\n      keccak256\n        /* \"DIDRegistry.sol\":8443:8465  dids[msg.sender].owner */\n      0x01\n      add\n      0x00\n      swap1\n      sload\n      swap1\n      0x0100\n      exp\n      swap1\n      div\n      0xffffffffffffffffffffffffffffffffffffffff\n      and\n        /* \"DIDRegistry.sol\":8443:8479  dids[msg.sender].owner != address(0) */\n      0xffffffffffffffffffffffffffffffffffffffff\n      and\n      sub\n        /* \"DIDRegistry.sol\":8435:8522  require(dids[msg.sender].owner != address(0), \"No existing DID found for this address\") */\n      tag_222\n      jumpi\n      mload(0x40)\n      0x08c379a000000000000000000000000000000000000000000000000000000000\n      dup2\n      mstore\n      0x04\n      add\n      tag_223\n      swap1\n      tag_72\n      jump\t// in\n    tag_223:\n      mload(0x40)\n      dup1\n      swap2\n      sub\n      swap1\n      revert\n    tag_222:\n        /* \"DIDRegistry.sol\":8634:8639  _name */\n      dup3\n        /* \"DIDRegistry.sol\":8641:8647  _email */\n      dup3\n        /* \"DIDRegistry.sol\":8617:8648  abi.encodePacked(_name, _email) */\n      add(0x20, mload(0x40))\n      tag_224\n      swap3\n      swap2\n      swap1\n      tag_123\n      jump\t// in\n    tag_224:\n      mload(0x40)\n      0x20\n      dup2\n      dup4\n      sub\n      sub\n      dup2\n      mstore\n      swap1\n      0x40\n      mstore\n        /* \"DIDRegistry.sol\":8607:8649  keccak256(abi.encodePacked(_name, _email)) */\n      dup1\n      mload\n      swap1\n      0x20\n      add\n      keccak256\n        /* \"DIDRegistry.sol\":8600:8649  return keccak256(abi.encodePacked(_name, _email)) */\n      swap1\n      pop\n        /* \"DIDRegistry.sol\":8320:8657  function presentCredential(string memory _name, string memory _email) public view returns(bytes32)... */\n      swap3\n      swap2\n      pop\n      pop\n      jump\t// out\n        /* \"DIDRegistry.sol\":6664:7474  function verifyRole(address _user, address _issuer, string memory _role) public returns (bool) {... */\n    tag_63:\n        /* \"DIDRegistry.sol\":6753:6757  bool */\n      0x00\n        /* \"DIDRegistry.sol\":6807:6808  0 */\n      dup1\n        /* \"DIDRegistry.sol\":6778:6809  dids[_user].owner != address(0) */\n      0xffffffffffffffffffffffffffffffffffffffff\n      and\n        /* \"DIDRegistry.sol\":6778:6782  dids */\n      0x00\n        /* \"DIDRegistry.sol\":6778:6789  dids[_user] */\n      dup1\n        /* \"DIDRegistry.sol\":6783:6788  _user */\n      dup7\n        /* \"DIDRegistry.sol\":6778:6789  dids[_user] */\n      0xffffffffffffffffffffffffffffffffffffffff\n      and\n      0xffffffffffffffffffffffffffffffffffffffff\n      and\n      dup2\n      mstore\n      0x20\n      add\n      swap1\n      dup2\n      mstore\n      0x20\n      add\n      0x00\n      keccak256\n        /* \"DIDRegistry.sol\":6778:6795  dids[_user].owner */\n      0x01\n      add\n      0x00\n      swap1\n      sload\n      swap1\n      0x0100\n      exp\n      swap1\n      div\n      0xffffffffffffffffffffffffffffffffffffffff\n      and\n        /* \"DIDRegistry.sol\":6778:6809  dids[_user].owner != address(0) */\n      0xffffffffffffffffffffffffffffffffffffffff\n      and\n      sub\n        /* \"DIDRegistry.sol\":6770:6849  require(dids[_user].owner != address(0), \"No existing DID found for this user\") */\n      tag_226\n      jumpi\n      mload(0x40)\n      0x08c379a000000000000000000000000000000000000000000000000000000000\n      dup2\n      mstore\n      0x04\n      add\n      tag_227\n      swap1\n      tag_147\n      jump\t// in\n    tag_227:\n      mload(0x40)\n      dup1\n      swap2\n      sub\n      swap1\n      revert\n    tag_226:\n        /* \"DIDRegistry.sol\":6896:6897  0 */\n      0x00\n        /* \"DIDRegistry.sol\":6868:6879  credentials */\n      0x04\n        /* \"DIDRegistry.sol\":6868:6886  credentials[_user] */\n      0x00\n        /* \"DIDRegistry.sol\":6880:6885  _user */\n      dup7\n        /* \"DIDRegistry.sol\":6868:6886  credentials[_user] */\n      0xffffffffffffffffffffffffffffffffffffffff\n      and\n      0xffffffffffffffffffffffffffffffffffffffff\n      and\n      dup2\n      mstore\n      0x20\n      add\n      swap1\n      dup2\n      mstore\n      0x20\n      add\n      0x00\n      keccak256\n        /* \"DIDRegistry.sol\":6868:6893  credentials[_user].length */\n      dup1\n      sload\n      swap1\n      pop\n        /* \"DIDRegistry.sol\":6868:6897  credentials[_user].length > 0 */\n      gt\n        /* \"DIDRegistry.sol\":6860:6935  require(credentials[_user].length > 0, \"User does not have any credential\") */\n      tag_228\n      jumpi\n      mload(0x40)\n      0x08c379a000000000000000000000000000000000000000000000000000000000\n      dup2\n      mstore\n      0x04\n      add\n      tag_229\n      swap1\n      tag_150\n      jump\t// in\n    tag_229:\n      mload(0x40)\n      dup1\n      swap2\n      sub\n      swap1\n      revert\n    tag_228:\n        /* \"DIDRegistry.sol\":6988:7022  Credential memory latestCredential */\n      0x00\n        /* \"DIDRegistry.sol\":7025:7036  credentials */\n      0x04\n        /* \"DIDRegistry.sol\":7025:7043  credentials[_user] */\n      0x00\n        /* \"DIDRegistry.sol\":7037:7042  _user */\n      dup7\n        /* \"DIDRegistry.sol\":7025:7043  credentials[_user] */\n      0xffffffffffffffffffffffffffffffffffffffff\n      and\n      0xffffffffffffffffffffffffffffffffffffffff\n      and\n      dup2\n      mstore\n      0x20\n      add\n      swap1\n      dup2\n      mstore\n      0x20\n      add\n      0x00\n      keccak256\n        /* \"DIDRegistry.sol\":7072:7073  1 */\n      0x01\n        /* \"DIDRegistry.sol\":7044:7055  credentials */\n      0x04\n        /* \"DIDRegistry.sol\":7044:7062  credentials[_user] */\n      0x00\n        /* \"DIDRegistry.sol\":7056:7061  _user */\n      dup9\n        /* \"DIDRegistry.sol\":7044:7062  credentials[_user] */\n      0xffffffffffffffffffffffffffffffffffffffff\n      and\n      0xffffffffffffffffffffffffffffffffffffffff\n      and\n      dup2\n      mstore\n      0x20\n      add\n      swap1\n      dup2\n      mstore\n      0x20\n      add\n      0x00\n      keccak256\n        /* \"DIDRegistry.sol\":7044:7069  credentials[_user].length */\n      dup1\n      sload\n      swap1\n      pop\n        /* \"DIDRegistry.sol\":7044:7073  credentials[_user].length - 1 */\n      tag_230\n      swap2\n      swap1\n      tag_231\n      jump\t// in\n    tag_230:\n        /* \"DIDRegistry.sol\":7025:7074  credentials[_user][credentials[_user].length - 1] */\n      dup2\n      sload\n      dup2\n      lt\n      tag_232\n      jumpi\n      tag_233\n      tag_164\n      jump\t// in\n    tag_233:\n    tag_232:\n      swap1\n      0x00\n      mstore\n      keccak256(0x00, 0x20)\n      swap1\n      0x08\n      mul\n      add\n        /* \"DIDRegistry.sol\":6988:7074  Credential memory latestCredential = credentials[_user][credentials[_user].length - 1] */\n      mload(0x40)\n      dup1\n      0x0100\n      add\n      0x40\n      mstore\n      swap1\n      dup2\n      0x00\n      dup3\n      add\n      0x00\n      swap1\n      sload\n      swap1\n      0x0100\n      exp\n      swap1\n      div\n      0xffffffffffffffffffffffffffffffffffffffff\n      and\n      0xffffffffffffffffffffffffffffffffffffffff\n      and\n      0xffffffffffffffffffffffffffffffffffffffff\n      and\n      dup2\n      mstore\n      0x20\n      add\n      0x01\n      dup3\n      add\n      sload\n      dup2\n      mstore\n      0x20\n      add\n      0x02\n      dup3\n      add\n      dup1\n      sload\n      tag_235\n      swap1\n      tag_107\n      jump\t// in\n    tag_235:\n      dup1\n      0x1f\n      add\n      0x20\n      dup1\n      swap2\n      div\n      mul\n      0x20\n      add\n      mload(0x40)\n      swap1\n      dup2\n      add\n      0x40\n      mstore\n      dup1\n      swap3\n      swap2\n      swap1\n      dup2\n      dup2\n      mstore\n      0x20\n      add\n      dup3\n      dup1\n      sload\n      tag_236\n      swap1\n      tag_107\n      jump\t// in\n    tag_236:\n      dup1\n      iszero\n      tag_237\n      jumpi\n      dup1\n      0x1f\n      lt\n      tag_238\n      jumpi\n      0x0100\n      dup1\n      dup4\n      sload\n      div\n      mul\n      dup4\n      mstore\n      swap2\n      0x20\n      add\n      swap2\n      jump(tag_237)\n    tag_238:\n      dup3\n      add\n      swap2\n      swap1\n      0x00\n      mstore\n      keccak256(0x00, 0x20)\n      swap1\n    tag_239:\n      dup2\n      sload\n      dup2\n      mstore\n      swap1\n      0x01\n      add\n      swap1\n      0x20\n      add\n      dup1\n      dup4\n      gt\n      tag_239\n      jumpi\n      dup3\n      swap1\n      sub\n      0x1f\n      and\n      dup3\n      add\n      swap2\n    tag_237:\n      pop\n      pop\n      pop\n      pop\n      pop\n      dup2\n      mstore\n      0x20\n      add\n      0x03\n      dup3\n      add\n      sload\n      dup2\n      mstore\n      0x20\n      add\n      0x04\n      dup3\n      add\n      sload\n      dup2\n      mstore\n      0x20\n      add\n      0x05\n      dup3\n      add\n      sload\n      dup2\n      mstore\n      0x20\n      add\n      0x06\n      dup3\n      add\n      sload\n      dup2\n      mstore\n      0x20\n      add\n      0x07\n      dup3\n      add\n      sload\n      dup2\n      mstore\n      pop\n      pop\n      swap1\n      pop\n        /* \"DIDRegistry.sol\":7136:7158  bytes32 storedRoleHash */\n      0x00\n        /* \"DIDRegistry.sol\":7161:7177  latestCredential */\n      dup2\n        /* \"DIDRegistry.sol\":7161:7186  latestCredential.roleHash */\n      0x80\n      add\n      mload\n        /* \"DIDRegistry.sol\":7136:7186  bytes32 storedRoleHash = latestCredential.roleHash */\n      swap1\n      pop\n        /* \"DIDRegistry.sol\":7242:7258  bytes32 roleHash */\n      0x00\n        /* \"DIDRegistry.sol\":7288:7295  _issuer */\n      dup6\n        /* \"DIDRegistry.sol\":7297:7302  _user */\n      dup8\n        /* \"DIDRegistry.sol\":7304:7309  _role */\n      dup7\n        /* \"DIDRegistry.sol\":7311:7327  latestCredential */\n      dup6\n        /* \"DIDRegistry.sol\":7311:7335  latestCredential.issueAt */\n      0xe0\n      add\n      mload\n        /* \"DIDRegistry.sol\":7271:7336  abi.encodePacked(_issuer, _user, _role, latestCredential.issueAt) */\n      add(0x20, mload(0x40))\n      tag_240\n      swap5\n      swap4\n      swap3\n      swap2\n      swap1\n      tag_201\n      jump\t// in\n    tag_240:\n      mload(0x40)\n      0x20\n      dup2\n      dup4\n      sub\n      sub\n      dup2\n      mstore\n      swap1\n      0x40\n      mstore\n        /* \"DIDRegistry.sol\":7261:7337  keccak256(abi.encodePacked(_issuer, _user, _role, latestCredential.issueAt)) */\n      dup1\n      mload\n      swap1\n      0x20\n      add\n      keccak256\n        /* \"DIDRegistry.sol\":7242:7337  bytes32 roleHash = keccak256(abi.encodePacked(_issuer, _user, _role, latestCredential.issueAt)) */\n      swap1\n      pop\n        /* \"DIDRegistry.sol\":7350:7361  bool status */\n      0x00\n        /* \"DIDRegistry.sol\":7382:7390  roleHash */\n      dup2\n        /* \"DIDRegistry.sol\":7364:7378  storedRoleHash */\n      dup4\n        /* \"DIDRegistry.sol\":7364:7390  storedRoleHash == roleHash */\n      eq\n        /* \"DIDRegistry.sol\":7350:7390  bool status = storedRoleHash == roleHash */\n      swap1\n      pop\n        /* \"DIDRegistry.sol\":7419:7426  _issuer */\n      dup7\n        /* \"DIDRegistry.sol\":7406:7442  RoleVerified(_issuer, _role, status) */\n      0xffffffffffffffffffffffffffffffffffffffff\n      and\n      0x743119e0f5c3443022e2e080183ceafc4ccb88f4c29fc6dbdab02412b9935908\n        /* \"DIDRegistry.sol\":7428:7433  _role */\n      dup8\n        /* \"DIDRegistry.sol\":7435:7441  status */\n      dup4\n        /* \"DIDRegistry.sol\":7406:7442  RoleVerified(_issuer, _role, status) */\n      mload(0x40)\n      tag_241\n      swap3\n      swap2\n      swap1\n      tag_242\n      jump\t// in\n    tag_241:\n      mload(0x40)\n      dup1\n      swap2\n      sub\n      swap1\n      log2\n        /* \"DIDRegistry.sol\":7460:7466  status */\n      dup1\n        /* \"DIDRegistry.sol\":7453:7466  return status */\n      swap5\n      pop\n      pop\n      pop\n      pop\n      pop\n        /* \"DIDRegistry.sol\":6664:7474  function verifyRole(address _user, address _issuer, string memory _role) public returns (bool) {... */\n      swap4\n      swap3\n      pop\n      pop\n      pop\n      jump\t// out\n        /* \"DIDRegistry.sol\":6150:6631  function getRole() public view returns (string[] memory) {... */\n    tag_66:\n        /* \"DIDRegistry.sol\":6190:6205  string[] memory */\n      0x60\n        /* \"DIDRegistry.sol\":6260:6261  0 */\n      0x00\n        /* \"DIDRegistry.sol\":6226:6262  dids[msg.sender].owner != address(0) */\n      0xffffffffffffffffffffffffffffffffffffffff\n      and\n        /* \"DIDRegistry.sol\":6226:6230  dids */\n      0x00\n        /* \"DIDRegistry.sol\":6226:6242  dids[msg.sender] */\n      dup1\n        /* \"DIDRegistry.sol\":6231:6241  msg.sender */\n      caller\n        /* \"DIDRegistry.sol\":6226:6242  dids[msg.sender] */\n      0xffffffffffffffffffffffffffffffffffffffff\n      and\n      0xffffffffffffffffffffffffffffffffffffffff\n      and\n      dup2\n      mstore\n      0x20\n      add\n      swap1\n      dup2\n      mstore\n      0x20\n      add\n      0x00\n      keccak256\n        /* \"DIDRegistry.sol\":6226:6248  dids[msg.sender].owner */\n      0x01\n      add\n      0x00\n      swap1\n      sload\n      swap1\n      0x0100\n      exp\n      swap1\n      div\n      0xffffffffffffffffffffffffffffffffffffffff\n      and\n        /* \"DIDRegistry.sol\":6226:6262  dids[msg.sender].owner != address(0) */\n      0xffffffffffffffffffffffffffffffffffffffff\n      and\n      sub\n        /* \"DIDRegistry.sol\":6218:6305  require(dids[msg.sender].owner != address(0), \"No existing DID found for this address\") */\n      tag_244\n      jumpi\n      mload(0x40)\n      0x08c379a000000000000000000000000000000000000000000000000000000000\n      dup2\n      mstore\n      0x04\n      add\n      tag_245\n      swap1\n      tag_72\n      jump\t// in\n    tag_245:\n      mload(0x40)\n      dup1\n      swap2\n      sub\n      swap1\n      revert\n    tag_244:\n        /* \"DIDRegistry.sol\":6351:6376  string[] memory userRoles */\n      0x00\n        /* \"DIDRegistry.sol\":6379:6390  roleHistory */\n      0x02\n        /* \"DIDRegistry.sol\":6379:6402  roleHistory[msg.sender] */\n      0x00\n        /* \"DIDRegistry.sol\":6391:6401  msg.sender */\n      caller\n        /* \"DIDRegistry.sol\":6379:6402  roleHistory[msg.sender] */\n      0xffffffffffffffffffffffffffffffffffffffff\n      and\n      0xffffffffffffffffffffffffffffffffffffffff\n      and\n      dup2\n      mstore\n      0x20\n      add\n      swap1\n      dup2\n      mstore\n      0x20\n      add\n      0x00\n      keccak256\n        /* \"DIDRegistry.sol\":6351:6402  string[] memory userRoles = roleHistory[msg.sender] */\n      dup1\n      sload\n      dup1\n      0x20\n      mul\n      0x20\n      add\n      mload(0x40)\n      swap1\n      dup2\n      add\n      0x40\n      mstore\n      dup1\n      swap3\n      swap2\n      swap1\n      dup2\n      dup2\n      mstore\n      0x20\n      add\n      0x00\n      swap1\n    tag_246:\n      dup3\n      dup3\n      lt\n      iszero\n      tag_247\n      jumpi\n      dup4\n      dup3\n      swap1\n      0x00\n      mstore\n      keccak256(0x00, 0x20)\n      add\n      dup1\n      sload\n      tag_249\n      swap1\n      tag_107\n      jump\t// in\n    tag_249:\n      dup1\n      0x1f\n      add\n      0x20\n      dup1\n      swap2\n      div\n      mul\n      0x20\n      add\n      mload(0x40)\n      swap1\n      dup2\n      add\n      0x40\n      mstore\n      dup1\n      swap3\n      swap2\n      swap1\n      dup2\n      dup2\n      mstore\n      0x20\n      add\n      dup3\n      dup1\n      sload\n      tag_250\n      swap1\n      tag_107\n      jump\t// in\n    tag_250:\n      dup1\n      iszero\n      tag_251\n      jumpi\n      dup1\n      0x1f\n      lt\n      tag_252\n      jumpi\n      0x0100\n      dup1\n      dup4\n      sload\n      div\n      mul\n      dup4\n      mstore\n      swap2\n      0x20\n      add\n      swap2\n      jump(tag_251)\n    tag_252:\n      dup3\n      add\n      swap2\n      swap1\n      0x00\n      mstore\n      keccak256(0x00, 0x20)\n      swap1\n    tag_253:\n      dup2\n      sload\n      dup2\n      mstore\n      swap1\n      0x01\n      add\n      swap1\n      0x20\n      add\n      dup1\n      dup4\n      gt\n      tag_253\n      jumpi\n      dup3\n      swap1\n      sub\n      0x1f\n      and\n      dup3\n      add\n      swap2\n    tag_251:\n      pop\n      pop\n      pop\n      pop\n      pop\n      dup2\n      mstore\n      0x20\n      add\n      swap1\n      0x01\n      add\n      swap1\n      jump(tag_246)\n    tag_247:\n      pop\n      pop\n      pop\n      pop\n      swap1\n      pop\n        /* \"DIDRegistry.sol\":6504:6505  0 */\n      0x00\n        /* \"DIDRegistry.sol\":6485:6494  userRoles */\n      dup2\n        /* \"DIDRegistry.sol\":6485:6501  userRoles.length */\n      mload\n        /* \"DIDRegistry.sol\":6485:6505  userRoles.length > 0 */\n      gt\n        /* \"DIDRegistry.sol\":6477:6541  require(userRoles.length > 0, \"No roles assigned for this user\") */\n      tag_254\n      jumpi\n      mload(0x40)\n      0x08c379a000000000000000000000000000000000000000000000000000000000\n      dup2\n      mstore\n      0x04\n      add\n      tag_255\n      swap1\n      tag_256\n      jump\t// in\n    tag_255:\n      mload(0x40)\n      dup1\n      swap2\n      sub\n      swap1\n      revert\n    tag_254:\n        /* \"DIDRegistry.sol\":6614:6623  userRoles */\n      dup1\n        /* \"DIDRegistry.sol\":6607:6623  return userRoles */\n      swap2\n      pop\n      pop\n        /* \"DIDRegistry.sol\":6150:6631  function getRole() public view returns (string[] memory) {... */\n      swap1\n      jump\t// out\n    tag_125:\n      mload(0x40)\n      dup1\n      0x60\n      add\n      0x40\n      mstore\n      dup1\n      0x60\n      dup2\n      mstore\n      0x20\n      add\n      0x60\n      dup2\n      mstore\n      0x20\n      add\n      0x60\n      dup2\n      mstore\n      pop\n      swap1\n      jump\t// out\n        /* \"#utility.yul\":7:82   */\n    tag_257:\n        /* \"#utility.yul\":40:46   */\n      0x00\n        /* \"#utility.yul\":73:75   */\n      0x40\n        /* \"#utility.yul\":67:76   */\n      mload\n        /* \"#utility.yul\":57:76   */\n      swap1\n      pop\n        /* \"#utility.yul\":7:82   */\n      swap1\n      jump\t// out\n        /* \"#utility.yul\":88:205   */\n    tag_258:\n        /* \"#utility.yul\":197:198   */\n      0x00\n        /* \"#utility.yul\":194:195   */\n      dup1\n        /* \"#utility.yul\":187:199   */\n      revert\n        /* \"#utility.yul\":211:328   */\n    tag_259:\n        /* \"#utility.yul\":320:321   */\n      0x00\n        /* \"#utility.yul\":317:318   */\n      dup1\n        /* \"#utility.yul\":310:322   */\n      revert\n        /* \"#utility.yul\":334:451   */\n    tag_260:\n        /* \"#utility.yul\":443:444   */\n      0x00\n        /* \"#utility.yul\":440:441   */\n      dup1\n        /* \"#utility.yul\":433:445   */\n      revert\n        /* \"#utility.yul\":457:574   */\n    tag_261:\n        /* \"#utility.yul\":566:567   */\n      0x00\n        /* \"#utility.yul\":563:564   */\n      dup1\n        /* \"#utility.yul\":556:568   */\n      revert\n        /* \"#utility.yul\":580:682   */\n    tag_262:\n        /* \"#utility.yul\":621:627   */\n      0x00\n        /* \"#utility.yul\":672:674   */\n      0x1f\n        /* \"#utility.yul\":668:675   */\n      not\n        /* \"#utility.yul\":663:665   */\n      0x1f\n        /* \"#utility.yul\":656:661   */\n      dup4\n        /* \"#utility.yul\":652:666   */\n      add\n        /* \"#utility.yul\":648:676   */\n      and\n        /* \"#utility.yul\":638:676   */\n      swap1\n      pop\n        /* \"#utility.yul\":580:682   */\n      swap2\n      swap1\n      pop\n      jump\t// out\n        /* \"#utility.yul\":688:868   */\n    tag_263:\n        /* \"#utility.yul\":736:813   */\n      0x4e487b7100000000000000000000000000000000000000000000000000000000\n        /* \"#utility.yul\":733:734   */\n      0x00\n        /* \"#utility.yul\":726:814   */\n      mstore\n        /* \"#utility.yul\":833:837   */\n      0x41\n        /* \"#utility.yul\":830:831   */\n      0x04\n        /* \"#utility.yul\":823:838   */\n      mstore\n        /* \"#utility.yul\":857:861   */\n      0x24\n        /* \"#utility.yul\":854:855   */\n      0x00\n        /* \"#utility.yul\":847:862   */\n      revert\n        /* \"#utility.yul\":874:1155   */\n    tag_264:\n        /* \"#utility.yul\":957:984   */\n      tag_366\n        /* \"#utility.yul\":979:983   */\n      dup3\n        /* \"#utility.yul\":957:984   */\n      tag_262\n      jump\t// in\n    tag_366:\n        /* \"#utility.yul\":949:955   */\n      dup2\n        /* \"#utility.yul\":945:985   */\n      add\n        /* \"#utility.yul\":1087:1093   */\n      dup2\n        /* \"#utility.yul\":1075:1085   */\n      dup2\n        /* \"#utility.yul\":1072:1094   */\n      lt\n        /* \"#utility.yul\":1051:1069   */\n      0xffffffffffffffff\n        /* \"#utility.yul\":1039:1049   */\n      dup3\n        /* \"#utility.yul\":1036:1070   */\n      gt\n        /* \"#utility.yul\":1033:1095   */\n      or\n        /* \"#utility.yul\":1030:1118   */\n      iszero\n      tag_367\n      jumpi\n        /* \"#utility.yul\":1098:1116   */\n      tag_368\n      tag_263\n      jump\t// in\n    tag_368:\n        /* \"#utility.yul\":1030:1118   */\n    tag_367:\n        /* \"#utility.yul\":1138:1148   */\n      dup1\n        /* \"#utility.yul\":1134:1136   */\n      0x40\n        /* \"#utility.yul\":1127:1149   */\n      mstore\n        /* \"#utility.yul\":917:1155   */\n      pop\n        /* \"#utility.yul\":874:1155   */\n      pop\n      pop\n      jump\t// out\n        /* \"#utility.yul\":1161:1290   */\n    tag_265:\n        /* \"#utility.yul\":1195:1201   */\n      0x00\n        /* \"#utility.yul\":1222:1242   */\n      tag_370\n      tag_257\n      jump\t// in\n    tag_370:\n        /* \"#utility.yul\":1212:1242   */\n      swap1\n      pop\n        /* \"#utility.yul\":1251:1284   */\n      tag_371\n        /* \"#utility.yul\":1279:1283   */\n      dup3\n        /* \"#utility.yul\":1271:1277   */\n      dup3\n        /* \"#utility.yul\":1251:1284   */\n      tag_264\n      jump\t// in\n    tag_371:\n        /* \"#utility.yul\":1161:1290   */\n      swap2\n      swap1\n      pop\n      jump\t// out\n        /* \"#utility.yul\":1296:1604   */\n    tag_266:\n        /* \"#utility.yul\":1358:1362   */\n      0x00\n        /* \"#utility.yul\":1448:1466   */\n      0xffffffffffffffff\n        /* \"#utility.yul\":1440:1446   */\n      dup3\n        /* \"#utility.yul\":1437:1467   */\n      gt\n        /* \"#utility.yul\":1434:1490   */\n      iszero\n      tag_373\n      jumpi\n        /* \"#utility.yul\":1470:1488   */\n      tag_374\n      tag_263\n      jump\t// in\n    tag_374:\n        /* \"#utility.yul\":1434:1490   */\n    tag_373:\n        /* \"#utility.yul\":1508:1537   */\n      tag_375\n        /* \"#utility.yul\":1530:1536   */\n      dup3\n        /* \"#utility.yul\":1508:1537   */\n      tag_262\n      jump\t// in\n    tag_375:\n        /* \"#utility.yul\":1500:1537   */\n      swap1\n      pop\n        /* \"#utility.yul\":1592:1596   */\n      0x20\n        /* \"#utility.yul\":1586:1590   */\n      dup2\n        /* \"#utility.yul\":1582:1597   */\n      add\n        /* \"#utility.yul\":1574:1597   */\n      swap1\n      pop\n        /* \"#utility.yul\":1296:1604   */\n      swap2\n      swap1\n      pop\n      jump\t// out\n        /* \"#utility.yul\":1610:1758   */\n    tag_267:\n        /* \"#utility.yul\":1708:1714   */\n      dup3\n        /* \"#utility.yul\":1703:1706   */\n      dup2\n        /* \"#utility.yul\":1698:1701   */\n      dup4\n        /* \"#utility.yul\":1685:1715   */\n      calldatacopy\n        /* \"#utility.yul\":1749:1750   */\n      0x00\n        /* \"#utility.yul\":1740:1746   */\n      dup4\n        /* \"#utility.yul\":1735:1738   */\n      dup4\n        /* \"#utility.yul\":1731:1747   */\n      add\n        /* \"#utility.yul\":1724:1751   */\n      mstore\n        /* \"#utility.yul\":1610:1758   */\n      pop\n      pop\n      pop\n      jump\t// out\n        /* \"#utility.yul\":1764:2189   */\n    tag_268:\n        /* \"#utility.yul\":1842:1847   */\n      0x00\n        /* \"#utility.yul\":1867:1933   */\n      tag_378\n        /* \"#utility.yul\":1883:1932   */\n      tag_379\n        /* \"#utility.yul\":1925:1931   */\n      dup5\n        /* \"#utility.yul\":1883:1932   */\n      tag_266\n      jump\t// in\n    tag_379:\n        /* \"#utility.yul\":1867:1933   */\n      tag_265\n      jump\t// in\n    tag_378:\n        /* \"#utility.yul\":1858:1933   */\n      swap1\n      pop\n        /* \"#utility.yul\":1956:1962   */\n      dup3\n        /* \"#utility.yul\":1949:1954   */\n      dup2\n        /* \"#utility.yul\":1942:1963   */\n      mstore\n        /* \"#utility.yul\":1994:1998   */\n      0x20\n        /* \"#utility.yul\":1987:1992   */\n      dup2\n        /* \"#utility.yul\":1983:1999   */\n      add\n        /* \"#utility.yul\":2032:2035   */\n      dup5\n        /* \"#utility.yul\":2023:2029   */\n      dup5\n        /* \"#utility.yul\":2018:2021   */\n      dup5\n        /* \"#utility.yul\":2014:2030   */\n      add\n        /* \"#utility.yul\":2011:2036   */\n      gt\n        /* \"#utility.yul\":2008:2120   */\n      iszero\n      tag_380\n      jumpi\n        /* \"#utility.yul\":2039:2118   */\n      tag_381\n      tag_261\n      jump\t// in\n    tag_381:\n        /* \"#utility.yul\":2008:2120   */\n    tag_380:\n        /* \"#utility.yul\":2129:2183   */\n      tag_382\n        /* \"#utility.yul\":2176:2182   */\n      dup5\n        /* \"#utility.yul\":2171:2174   */\n      dup3\n        /* \"#utility.yul\":2166:2169   */\n      dup6\n        /* \"#utility.yul\":2129:2183   */\n      tag_267\n      jump\t// in\n    tag_382:\n        /* \"#utility.yul\":1848:2189   */\n      pop\n        /* \"#utility.yul\":1764:2189   */\n      swap4\n      swap3\n      pop\n      pop\n      pop\n      jump\t// out\n        /* \"#utility.yul\":2209:2549   */\n    tag_269:\n        /* \"#utility.yul\":2265:2270   */\n      0x00\n        /* \"#utility.yul\":2314:2317   */\n      dup3\n        /* \"#utility.yul\":2307:2311   */\n      0x1f\n        /* \"#utility.yul\":2299:2305   */\n      dup4\n        /* \"#utility.yul\":2295:2312   */\n      add\n        /* \"#utility.yul\":2291:2318   */\n      slt\n        /* \"#utility.yul\":2281:2403   */\n      tag_384\n      jumpi\n        /* \"#utility.yul\":2322:2401   */\n      tag_385\n      tag_260\n      jump\t// in\n    tag_385:\n        /* \"#utility.yul\":2281:2403   */\n    tag_384:\n        /* \"#utility.yul\":2439:2445   */\n      dup2\n        /* \"#utility.yul\":2426:2446   */\n      calldataload\n        /* \"#utility.yul\":2464:2543   */\n      tag_386\n        /* \"#utility.yul\":2539:2542   */\n      dup5\n        /* \"#utility.yul\":2531:2537   */\n      dup3\n        /* \"#utility.yul\":2524:2528   */\n      0x20\n        /* \"#utility.yul\":2516:2522   */\n      dup7\n        /* \"#utility.yul\":2512:2529   */\n      add\n        /* \"#utility.yul\":2464:2543   */\n      tag_268\n      jump\t// in\n    tag_386:\n        /* \"#utility.yul\":2455:2543   */\n      swap2\n      pop\n        /* \"#utility.yul\":2271:2549   */\n      pop\n        /* \"#utility.yul\":2209:2549   */\n      swap3\n      swap2\n      pop\n      pop\n      jump\t// out\n        /* \"#utility.yul\":2555:3714   */\n    tag_18:\n        /* \"#utility.yul\":2662:2668   */\n      0x00\n        /* \"#utility.yul\":2670:2676   */\n      dup1\n        /* \"#utility.yul\":2678:2684   */\n      0x00\n        /* \"#utility.yul\":2727:2729   */\n      0x60\n        /* \"#utility.yul\":2715:2724   */\n      dup5\n        /* \"#utility.yul\":2706:2713   */\n      dup7\n        /* \"#utility.yul\":2702:2725   */\n      sub\n        /* \"#utility.yul\":2698:2730   */\n      slt\n        /* \"#utility.yul\":2695:2814   */\n      iszero\n      tag_388\n      jumpi\n        /* \"#utility.yul\":2733:2812   */\n      tag_389\n      tag_258\n      jump\t// in\n    tag_389:\n        /* \"#utility.yul\":2695:2814   */\n    tag_388:\n        /* \"#utility.yul\":2881:2882   */\n      0x00\n        /* \"#utility.yul\":2870:2879   */\n      dup5\n        /* \"#utility.yul\":2866:2883   */\n      add\n        /* \"#utility.yul\":2853:2884   */\n      calldataload\n        /* \"#utility.yul\":2911:2929   */\n      0xffffffffffffffff\n        /* \"#utility.yul\":2903:2909   */\n      dup2\n        /* \"#utility.yul\":2900:2930   */\n      gt\n        /* \"#utility.yul\":2897:3014   */\n      iszero\n      tag_390\n      jumpi\n        /* \"#utility.yul\":2933:3012   */\n      tag_391\n      tag_259\n      jump\t// in\n    tag_391:\n        /* \"#utility.yul\":2897:3014   */\n    tag_390:\n        /* \"#utility.yul\":3038:3101   */\n      tag_392\n        /* \"#utility.yul\":3093:3100   */\n      dup7\n        /* \"#utility.yul\":3084:3090   */\n      dup3\n        /* \"#utility.yul\":3073:3082   */\n      dup8\n        /* \"#utility.yul\":3069:3091   */\n      add\n        /* \"#utility.yul\":3038:3101   */\n      tag_269\n      jump\t// in\n    tag_392:\n        /* \"#utility.yul\":3028:3101   */\n      swap4\n      pop\n        /* \"#utility.yul\":2824:3111   */\n      pop\n        /* \"#utility.yul\":3178:3180   */\n      0x20\n        /* \"#utility.yul\":3167:3176   */\n      dup5\n        /* \"#utility.yul\":3163:3181   */\n      add\n        /* \"#utility.yul\":3150:3182   */\n      calldataload\n        /* \"#utility.yul\":3209:3227   */\n      0xffffffffffffffff\n        /* \"#utility.yul\":3201:3207   */\n      dup2\n        /* \"#utility.yul\":3198:3228   */\n      gt\n        /* \"#utility.yul\":3195:3312   */\n      iszero\n      tag_393\n      jumpi\n        /* \"#utility.yul\":3231:3310   */\n      tag_394\n      tag_259\n      jump\t// in\n    tag_394:\n        /* \"#utility.yul\":3195:3312   */\n    tag_393:\n        /* \"#utility.yul\":3336:3399   */\n      tag_395\n        /* \"#utility.yul\":3391:3398   */\n      dup7\n        /* \"#utility.yul\":3382:3388   */\n      dup3\n        /* \"#utility.yul\":3371:3380   */\n      dup8\n        /* \"#utility.yul\":3367:3389   */\n      add\n        /* \"#utility.yul\":3336:3399   */\n      tag_269\n      jump\t// in\n    tag_395:\n        /* \"#utility.yul\":3326:3399   */\n      swap3\n      pop\n        /* \"#utility.yul\":3121:3409   */\n      pop\n        /* \"#utility.yul\":3476:3478   */\n      0x40\n        /* \"#utility.yul\":3465:3474   */\n      dup5\n        /* \"#utility.yul\":3461:3479   */\n      add\n        /* \"#utility.yul\":3448:3480   */\n      calldataload\n        /* \"#utility.yul\":3507:3525   */\n      0xffffffffffffffff\n        /* \"#utility.yul\":3499:3505   */\n      dup2\n        /* \"#utility.yul\":3496:3526   */\n      gt\n        /* \"#utility.yul\":3493:3610   */\n      iszero\n      tag_396\n      jumpi\n        /* \"#utility.yul\":3529:3608   */\n      tag_397\n      tag_259\n      jump\t// in\n    tag_397:\n        /* \"#utility.yul\":3493:3610   */\n    tag_396:\n        /* \"#utility.yul\":3634:3697   */\n      tag_398\n        /* \"#utility.yul\":3689:3696   */\n      dup7\n        /* \"#utility.yul\":3680:3686   */\n      dup3\n        /* \"#utility.yul\":3669:3678   */\n      dup8\n        /* \"#utility.yul\":3665:3687   */\n      add\n        /* \"#utility.yul\":3634:3697   */\n      tag_269\n      jump\t// in\n    tag_398:\n        /* \"#utility.yul\":3624:3697   */\n      swap2\n      pop\n        /* \"#utility.yul\":3419:3707   */\n      pop\n        /* \"#utility.yul\":2555:3714   */\n      swap3\n      pop\n      swap3\n      pop\n      swap3\n      jump\t// out\n        /* \"#utility.yul\":3720:4229   */\n    tag_22:\n        /* \"#utility.yul\":3789:3795   */\n      0x00\n        /* \"#utility.yul\":3838:3840   */\n      0x20\n        /* \"#utility.yul\":3826:3835   */\n      dup3\n        /* \"#utility.yul\":3817:3824   */\n      dup5\n        /* \"#utility.yul\":3813:3836   */\n      sub\n        /* \"#utility.yul\":3809:3841   */\n      slt\n        /* \"#utility.yul\":3806:3925   */\n      iszero\n      tag_400\n      jumpi\n        /* \"#utility.yul\":3844:3923   */\n      tag_401\n      tag_258\n      jump\t// in\n    tag_401:\n        /* \"#utility.yul\":3806:3925   */\n    tag_400:\n        /* \"#utility.yul\":3992:3993   */\n      0x00\n        /* \"#utility.yul\":3981:3990   */\n      dup3\n        /* \"#utility.yul\":3977:3994   */\n      add\n        /* \"#utility.yul\":3964:3995   */\n      calldataload\n        /* \"#utility.yul\":4022:4040   */\n      0xffffffffffffffff\n        /* \"#utility.yul\":4014:4020   */\n      dup2\n        /* \"#utility.yul\":4011:4041   */\n      gt\n        /* \"#utility.yul\":4008:4125   */\n      iszero\n      tag_402\n      jumpi\n        /* \"#utility.yul\":4044:4123   */\n      tag_403\n      tag_259\n      jump\t// in\n    tag_403:\n        /* \"#utility.yul\":4008:4125   */\n    tag_402:\n        /* \"#utility.yul\":4149:4212   */\n      tag_404\n        /* \"#utility.yul\":4204:4211   */\n      dup5\n        /* \"#utility.yul\":4195:4201   */\n      dup3\n        /* \"#utility.yul\":4184:4193   */\n      dup6\n        /* \"#utility.yul\":4180:4202   */\n      add\n        /* \"#utility.yul\":4149:4212   */\n      tag_269\n      jump\t// in\n    tag_404:\n        /* \"#utility.yul\":4139:4212   */\n      swap2\n      pop\n        /* \"#utility.yul\":3935:4222   */\n      pop\n        /* \"#utility.yul\":3720:4229   */\n      swap3\n      swap2\n      pop\n      pop\n      jump\t// out\n        /* \"#utility.yul\":4235:4312   */\n    tag_270:\n        /* \"#utility.yul\":4272:4279   */\n      0x00\n        /* \"#utility.yul\":4301:4306   */\n      dup2\n        /* \"#utility.yul\":4290:4306   */\n      swap1\n      pop\n        /* \"#utility.yul\":4235:4312   */\n      swap2\n      swap1\n      pop\n      jump\t// out\n        /* \"#utility.yul\":4318:4440   */\n    tag_271:\n        /* \"#utility.yul\":4391:4415   */\n      tag_407\n        /* \"#utility.yul\":4409:4414   */\n      dup2\n        /* \"#utility.yul\":4391:4415   */\n      tag_270\n      jump\t// in\n    tag_407:\n        /* \"#utility.yul\":4384:4389   */\n      dup2\n        /* \"#utility.yul\":4381:4416   */\n      eq\n        /* \"#utility.yul\":4371:4434   */\n      tag_408\n      jumpi\n        /* \"#utility.yul\":4430:4431   */\n      0x00\n        /* \"#utility.yul\":4427:4428   */\n      dup1\n        /* \"#utility.yul\":4420:4432   */\n      revert\n        /* \"#utility.yul\":4371:4434   */\n    tag_408:\n        /* \"#utility.yul\":4318:4440   */\n      pop\n      jump\t// out\n        /* \"#utility.yul\":4446:4585   */\n    tag_272:\n        /* \"#utility.yul\":4492:4497   */\n      0x00\n        /* \"#utility.yul\":4530:4536   */\n      dup2\n        /* \"#utility.yul\":4517:4537   */\n      calldataload\n        /* \"#utility.yul\":4508:4537   */\n      swap1\n      pop\n        /* \"#utility.yul\":4546:4579   */\n      tag_410\n        /* \"#utility.yul\":4573:4578   */\n      dup2\n        /* \"#utility.yul\":4546:4579   */\n      tag_271\n      jump\t// in\n    tag_410:\n        /* \"#utility.yul\":4446:4585   */\n      swap3\n      swap2\n      pop\n      pop\n      jump\t// out\n        /* \"#utility.yul\":4591:4920   */\n    tag_29:\n        /* \"#utility.yul\":4650:4656   */\n      0x00\n        /* \"#utility.yul\":4699:4701   */\n      0x20\n        /* \"#utility.yul\":4687:4696   */\n      dup3\n        /* \"#utility.yul\":4678:4685   */\n      dup5\n        /* \"#utility.yul\":4674:4697   */\n      sub\n        /* \"#utility.yul\":4670:4702   */\n      slt\n        /* \"#utility.yul\":4667:4786   */\n      iszero\n      tag_412\n      jumpi\n        /* \"#utility.yul\":4705:4784   */\n      tag_413\n      tag_258\n      jump\t// in\n    tag_413:\n        /* \"#utility.yul\":4667:4786   */\n    tag_412:\n        /* \"#utility.yul\":4825:4826   */\n      0x00\n        /* \"#utility.yul\":4850:4903   */\n      tag_414\n        /* \"#utility.yul\":4895:4902   */\n      dup5\n        /* \"#utility.yul\":4886:4892   */\n      dup3\n        /* \"#utility.yul\":4875:4884   */\n      dup6\n        /* \"#utility.yul\":4871:4893   */\n      add\n        /* \"#utility.yul\":4850:4903   */\n      tag_272\n      jump\t// in\n    tag_414:\n        /* \"#utility.yul\":4840:4903   */\n      swap2\n      pop\n        /* \"#utility.yul\":4796:4913   */\n      pop\n        /* \"#utility.yul\":4591:4920   */\n      swap3\n      swap2\n      pop\n      pop\n      jump\t// out\n        /* \"#utility.yul\":4926:5016   */\n    tag_273:\n        /* \"#utility.yul\":4960:4967   */\n      0x00\n        /* \"#utility.yul\":5003:5008   */\n      dup2\n        /* \"#utility.yul\":4996:5009   */\n      iszero\n        /* \"#utility.yul\":4989:5010   */\n      iszero\n        /* \"#utility.yul\":4978:5010   */\n      swap1\n      pop\n        /* \"#utility.yul\":4926:5016   */\n      swap2\n      swap1\n      pop\n      jump\t// out\n        /* \"#utility.yul\":5022:5131   */\n    tag_274:\n        /* \"#utility.yul\":5103:5124   */\n      tag_417\n        /* \"#utility.yul\":5118:5123   */\n      dup2\n        /* \"#utility.yul\":5103:5124   */\n      tag_273\n      jump\t// in\n    tag_417:\n        /* \"#utility.yul\":5098:5101   */\n      dup3\n        /* \"#utility.yul\":5091:5125   */\n      mstore\n        /* \"#utility.yul\":5022:5131   */\n      pop\n      pop\n      jump\t// out\n        /* \"#utility.yul\":5137:5347   */\n    tag_32:\n        /* \"#utility.yul\":5224:5228   */\n      0x00\n        /* \"#utility.yul\":5262:5264   */\n      0x20\n        /* \"#utility.yul\":5251:5260   */\n      dup3\n        /* \"#utility.yul\":5247:5265   */\n      add\n        /* \"#utility.yul\":5239:5265   */\n      swap1\n      pop\n        /* \"#utility.yul\":5275:5340   */\n      tag_419\n        /* \"#utility.yul\":5337:5338   */\n      0x00\n        /* \"#utility.yul\":5326:5335   */\n      dup4\n        /* \"#utility.yul\":5322:5339   */\n      add\n        /* \"#utility.yul\":5313:5319   */\n      dup5\n        /* \"#utility.yul\":5275:5340   */\n      tag_274\n      jump\t// in\n    tag_419:\n        /* \"#utility.yul\":5137:5347   */\n      swap3\n      swap2\n      pop\n      pop\n      jump\t// out\n        /* \"#utility.yul\":5353:5452   */\n    tag_275:\n        /* \"#utility.yul\":5405:5411   */\n      0x00\n        /* \"#utility.yul\":5439:5444   */\n      dup2\n        /* \"#utility.yul\":5433:5445   */\n      mload\n        /* \"#utility.yul\":5423:5445   */\n      swap1\n      pop\n        /* \"#utility.yul\":5353:5452   */\n      swap2\n      swap1\n      pop\n      jump\t// out\n        /* \"#utility.yul\":5458:5617   */\n    tag_276:\n        /* \"#utility.yul\":5532:5543   */\n      0x00\n        /* \"#utility.yul\":5566:5572   */\n      dup3\n        /* \"#utility.yul\":5561:5564   */\n      dup3\n        /* \"#utility.yul\":5554:5573   */\n      mstore\n        /* \"#utility.yul\":5606:5610   */\n      0x20\n        /* \"#utility.yul\":5601:5604   */\n      dup3\n        /* \"#utility.yul\":5597:5611   */\n      add\n        /* \"#utility.yul\":5582:5611   */\n      swap1\n      pop\n        /* \"#utility.yul\":5458:5617   */\n      swap3\n      swap2\n      pop\n      pop\n      jump\t// out\n        /* \"#utility.yul\":5623:5762   */\n    tag_277:\n        /* \"#utility.yul\":5712:5718   */\n      dup3\n        /* \"#utility.yul\":5707:5710   */\n      dup2\n        /* \"#utility.yul\":5702:5705   */\n      dup4\n        /* \"#utility.yul\":5696:5719   */\n      mcopy\n        /* \"#utility.yul\":5753:5754   */\n      0x00\n        /* \"#utility.yul\":5744:5750   */\n      dup4\n        /* \"#utility.yul\":5739:5742   */\n      dup4\n        /* \"#utility.yul\":5735:5751   */\n      add\n        /* \"#utility.yul\":5728:5755   */\n      mstore\n        /* \"#utility.yul\":5623:5762   */\n      pop\n      pop\n      pop\n      jump\t// out\n        /* \"#utility.yul\":5768:6125   */\n    tag_278:\n        /* \"#utility.yul\":5846:5849   */\n      0x00\n        /* \"#utility.yul\":5874:5913   */\n      tag_424\n        /* \"#utility.yul\":5907:5912   */\n      dup3\n        /* \"#utility.yul\":5874:5913   */\n      tag_275\n      jump\t// in\n    tag_424:\n        /* \"#utility.yul\":5929:5990   */\n      tag_425\n        /* \"#utility.yul\":5983:5989   */\n      dup2\n        /* \"#utility.yul\":5978:5981   */\n      dup6\n        /* \"#utility.yul\":5929:5990   */\n      tag_276\n      jump\t// in\n    tag_425:\n        /* \"#utility.yul\":5922:5990   */\n      swap4\n      pop\n        /* \"#utility.yul\":5999:6064   */\n      tag_426\n        /* \"#utility.yul\":6057:6063   */\n      dup2\n        /* \"#utility.yul\":6052:6055   */\n      dup6\n        /* \"#utility.yul\":6045:6049   */\n      0x20\n        /* \"#utility.yul\":6038:6043   */\n      dup7\n        /* \"#utility.yul\":6034:6050   */\n      add\n        /* \"#utility.yul\":5999:6064   */\n      tag_277\n      jump\t// in\n    tag_426:\n        /* \"#utility.yul\":6089:6118   */\n      tag_427\n        /* \"#utility.yul\":6111:6117   */\n      dup2\n        /* \"#utility.yul\":6089:6118   */\n      tag_262\n      jump\t// in\n    tag_427:\n        /* \"#utility.yul\":6084:6087   */\n      dup5\n        /* \"#utility.yul\":6080:6119   */\n      add\n        /* \"#utility.yul\":6073:6119   */\n      swap2\n      pop\n        /* \"#utility.yul\":5850:6125   */\n      pop\n        /* \"#utility.yul\":5768:6125   */\n      swap3\n      swap2\n      pop\n      pop\n      jump\t// out\n        /* \"#utility.yul\":6197:7128   */\n    tag_279:\n        /* \"#utility.yul\":6314:6317   */\n      0x00\n        /* \"#utility.yul\":6350:6354   */\n      0x60\n        /* \"#utility.yul\":6345:6348   */\n      dup4\n        /* \"#utility.yul\":6341:6355   */\n      add\n        /* \"#utility.yul\":6437:6441   */\n      0x00\n        /* \"#utility.yul\":6430:6435   */\n      dup4\n        /* \"#utility.yul\":6426:6442   */\n      add\n        /* \"#utility.yul\":6420:6443   */\n      mload\n        /* \"#utility.yul\":6490:6493   */\n      dup5\n        /* \"#utility.yul\":6484:6488   */\n      dup3\n        /* \"#utility.yul\":6480:6494   */\n      sub\n        /* \"#utility.yul\":6473:6477   */\n      0x00\n        /* \"#utility.yul\":6468:6471   */\n      dup7\n        /* \"#utility.yul\":6464:6478   */\n      add\n        /* \"#utility.yul\":6457:6495   */\n      mstore\n        /* \"#utility.yul\":6516:6589   */\n      tag_429\n        /* \"#utility.yul\":6584:6588   */\n      dup3\n        /* \"#utility.yul\":6570:6582   */\n      dup3\n        /* \"#utility.yul\":6516:6589   */\n      tag_278\n      jump\t// in\n    tag_429:\n        /* \"#utility.yul\":6508:6589   */\n      swap2\n      pop\n        /* \"#utility.yul\":6365:6600   */\n      pop\n        /* \"#utility.yul\":6683:6687   */\n      0x20\n        /* \"#utility.yul\":6676:6681   */\n      dup4\n        /* \"#utility.yul\":6672:6688   */\n      add\n        /* \"#utility.yul\":6666:6689   */\n      mload\n        /* \"#utility.yul\":6736:6739   */\n      dup5\n        /* \"#utility.yul\":6730:6734   */\n      dup3\n        /* \"#utility.yul\":6726:6740   */\n      sub\n        /* \"#utility.yul\":6719:6723   */\n      0x20\n        /* \"#utility.yul\":6714:6717   */\n      dup7\n        /* \"#utility.yul\":6710:6724   */\n      add\n        /* \"#utility.yul\":6703:6741   */\n      mstore\n        /* \"#utility.yul\":6762:6835   */\n      tag_430\n        /* \"#utility.yul\":6830:6834   */\n      dup3\n        /* \"#utility.yul\":6816:6828   */\n      dup3\n        /* \"#utility.yul\":6762:6835   */\n      tag_278\n      jump\t// in\n    tag_430:\n        /* \"#utility.yul\":6754:6835   */\n      swap2\n      pop\n        /* \"#utility.yul\":6610:6846   */\n      pop\n        /* \"#utility.yul\":6938:6942   */\n      0x40\n        /* \"#utility.yul\":6931:6936   */\n      dup4\n        /* \"#utility.yul\":6927:6943   */\n      add\n        /* \"#utility.yul\":6921:6944   */\n      mload\n        /* \"#utility.yul\":6991:6994   */\n      dup5\n        /* \"#utility.yul\":6985:6989   */\n      dup3\n        /* \"#utility.yul\":6981:6995   */\n      sub\n        /* \"#utility.yul\":6974:6978   */\n      0x40\n        /* \"#utility.yul\":6969:6972   */\n      dup7\n        /* \"#utility.yul\":6965:6979   */\n      add\n        /* \"#utility.yul\":6958:6996   */\n      mstore\n        /* \"#utility.yul\":7017:7090   */\n      tag_431\n        /* \"#utility.yul\":7085:7089   */\n      dup3\n        /* \"#utility.yul\":7071:7083   */\n      dup3\n        /* \"#utility.yul\":7017:7090   */\n      tag_278\n      jump\t// in\n    tag_431:\n        /* \"#utility.yul\":7009:7090   */\n      swap2\n      pop\n        /* \"#utility.yul\":6856:7101   */\n      pop\n        /* \"#utility.yul\":7118:7122   */\n      dup1\n        /* \"#utility.yul\":7111:7122   */\n      swap2\n      pop\n        /* \"#utility.yul\":6319:7128   */\n      pop\n        /* \"#utility.yul\":6197:7128   */\n      swap3\n      swap2\n      pop\n      pop\n      jump\t// out\n        /* \"#utility.yul\":7134:7503   */\n    tag_36:\n        /* \"#utility.yul\":7275:7279   */\n      0x00\n        /* \"#utility.yul\":7313:7315   */\n      0x20\n        /* \"#utility.yul\":7302:7311   */\n      dup3\n        /* \"#utility.yul\":7298:7316   */\n      add\n        /* \"#utility.yul\":7290:7316   */\n      swap1\n      pop\n        /* \"#utility.yul\":7362:7371   */\n      dup2\n        /* \"#utility.yul\":7356:7360   */\n      dup2\n        /* \"#utility.yul\":7352:7372   */\n      sub\n        /* \"#utility.yul\":7348:7349   */\n      0x00\n        /* \"#utility.yul\":7337:7346   */\n      dup4\n        /* \"#utility.yul\":7333:7350   */\n      add\n        /* \"#utility.yul\":7326:7373   */\n      mstore\n        /* \"#utility.yul\":7390:7496   */\n      tag_433\n        /* \"#utility.yul\":7491:7495   */\n      dup2\n        /* \"#utility.yul\":7482:7488   */\n      dup5\n        /* \"#utility.yul\":7390:7496   */\n      tag_279\n      jump\t// in\n    tag_433:\n        /* \"#utility.yul\":7382:7496   */\n      swap1\n      pop\n        /* \"#utility.yul\":7134:7503   */\n      swap3\n      swap2\n      pop\n      pop\n      jump\t// out\n        /* \"#utility.yul\":7509:7635   */\n    tag_280:\n        /* \"#utility.yul\":7546:7553   */\n      0x00\n        /* \"#utility.yul\":7586:7628   */\n      0xffffffffffffffffffffffffffffffffffffffff\n        /* \"#utility.yul\":7579:7584   */\n      dup3\n        /* \"#utility.yul\":7575:7629   */\n      and\n        /* \"#utility.yul\":7564:7629   */\n      swap1\n      pop\n        /* \"#utility.yul\":7509:7635   */\n      swap2\n      swap1\n      pop\n      jump\t// out\n        /* \"#utility.yul\":7641:7737   */\n    tag_281:\n        /* \"#utility.yul\":7678:7685   */\n      0x00\n        /* \"#utility.yul\":7707:7731   */\n      tag_436\n        /* \"#utility.yul\":7725:7730   */\n      dup3\n        /* \"#utility.yul\":7707:7731   */\n      tag_280\n      jump\t// in\n    tag_436:\n        /* \"#utility.yul\":7696:7731   */\n      swap1\n      pop\n        /* \"#utility.yul\":7641:7737   */\n      swap2\n      swap1\n      pop\n      jump\t// out\n        /* \"#utility.yul\":7743:7865   */\n    tag_282:\n        /* \"#utility.yul\":7816:7840   */\n      tag_438\n        /* \"#utility.yul\":7834:7839   */\n      dup2\n        /* \"#utility.yul\":7816:7840   */\n      tag_281\n      jump\t// in\n    tag_438:\n        /* \"#utility.yul\":7809:7814   */\n      dup2\n        /* \"#utility.yul\":7806:7841   */\n      eq\n        /* \"#utility.yul\":7796:7859   */\n      tag_439\n      jumpi\n        /* \"#utility.yul\":7855:7856   */\n      0x00\n        /* \"#utility.yul\":7852:7853   */\n      dup1\n        /* \"#utility.yul\":7845:7857   */\n      revert\n        /* \"#utility.yul\":7796:7859   */\n    tag_439:\n        /* \"#utility.yul\":7743:7865   */\n      pop\n      jump\t// out\n        /* \"#utility.yul\":7871:8010   */\n    tag_283:\n        /* \"#utility.yul\":7917:7922   */\n      0x00\n        /* \"#utility.yul\":7955:7961   */\n      dup2\n        /* \"#utility.yul\":7942:7962   */\n      calldataload\n        /* \"#utility.yul\":7933:7962   */\n      swap1\n      pop\n        /* \"#utility.yul\":7971:8004   */\n      tag_441\n        /* \"#utility.yul\":7998:8003   */\n      dup2\n        /* \"#utility.yul\":7971:8004   */\n      tag_282\n      jump\t// in\n    tag_441:\n        /* \"#utility.yul\":7871:8010   */\n      swap3\n      swap2\n      pop\n      pop\n      jump\t// out\n        /* \"#utility.yul\":8016:8092   */\n    tag_284:\n        /* \"#utility.yul\":8052:8059   */\n      0x00\n        /* \"#utility.yul\":8081:8086   */\n      dup2\n        /* \"#utility.yul\":8070:8086   */\n      swap1\n      pop\n        /* \"#utility.yul\":8016:8092   */\n      swap2\n      swap1\n      pop\n      jump\t// out\n        /* \"#utility.yul\":8098:8218   */\n    tag_285:\n        /* \"#utility.yul\":8170:8193   */\n      tag_444\n        /* \"#utility.yul\":8187:8192   */\n      dup2\n        /* \"#utility.yul\":8170:8193   */\n      tag_284\n      jump\t// in\n    tag_444:\n        /* \"#utility.yul\":8163:8168   */\n      dup2\n        /* \"#utility.yul\":8160:8194   */\n      eq\n        /* \"#utility.yul\":8150:8212   */\n      tag_445\n      jumpi\n        /* \"#utility.yul\":8208:8209   */\n      0x00\n        /* \"#utility.yul\":8205:8206   */\n      dup1\n        /* \"#utility.yul\":8198:8210   */\n      revert\n        /* \"#utility.yul\":8150:8212   */\n    tag_445:\n        /* \"#utility.yul\":8098:8218   */\n      pop\n      jump\t// out\n        /* \"#utility.yul\":8224:8361   */\n    tag_286:\n        /* \"#utility.yul\":8269:8274   */\n      0x00\n        /* \"#utility.yul\":8307:8313   */\n      dup2\n        /* \"#utility.yul\":8294:8314   */\n      calldataload\n        /* \"#utility.yul\":8285:8314   */\n      swap1\n      pop\n        /* \"#utility.yul\":8323:8355   */\n      tag_447\n        /* \"#utility.yul\":8349:8354   */\n      dup2\n        /* \"#utility.yul\":8323:8355   */\n      tag_285\n      jump\t// in\n    tag_447:\n        /* \"#utility.yul\":8224:8361   */\n      swap3\n      swap2\n      pop\n      pop\n      jump\t// out\n        /* \"#utility.yul\":8367:8984   */\n    tag_39:\n        /* \"#utility.yul\":8443:8449   */\n      0x00\n        /* \"#utility.yul\":8451:8457   */\n      dup1\n        /* \"#utility.yul\":8459:8465   */\n      0x00\n        /* \"#utility.yul\":8508:8510   */\n      0x60\n        /* \"#utility.yul\":8496:8505   */\n      dup5\n        /* \"#utility.yul\":8487:8494   */\n      dup7\n        /* \"#utility.yul\":8483:8506   */\n      sub\n        /* \"#utility.yul\":8479:8511   */\n      slt\n        /* \"#utility.yul\":8476:8595   */\n      iszero\n      tag_449\n      jumpi\n        /* \"#utility.yul\":8514:8593   */\n      tag_450\n      tag_258\n      jump\t// in\n    tag_450:\n        /* \"#utility.yul\":8476:8595   */\n    tag_449:\n        /* \"#utility.yul\":8634:8635   */\n      0x00\n        /* \"#utility.yul\":8659:8712   */\n      tag_451\n        /* \"#utility.yul\":8704:8711   */\n      dup7\n        /* \"#utility.yul\":8695:8701   */\n      dup3\n        /* \"#utility.yul\":8684:8693   */\n      dup8\n        /* \"#utility.yul\":8680:8702   */\n      add\n        /* \"#utility.yul\":8659:8712   */\n      tag_283\n      jump\t// in\n    tag_451:\n        /* \"#utility.yul\":8649:8712   */\n      swap4\n      pop\n        /* \"#utility.yul\":8605:8722   */\n      pop\n        /* \"#utility.yul\":8761:8763   */\n      0x20\n        /* \"#utility.yul\":8787:8840   */\n      tag_452\n        /* \"#utility.yul\":8832:8839   */\n      dup7\n        /* \"#utility.yul\":8823:8829   */\n      dup3\n        /* \"#utility.yul\":8812:8821   */\n      dup8\n        /* \"#utility.yul\":8808:8830   */\n      add\n        /* \"#utility.yul\":8787:8840   */\n      tag_283\n      jump\t// in\n    tag_452:\n        /* \"#utility.yul\":8777:8840   */\n      swap3\n      pop\n        /* \"#utility.yul\":8732:8850   */\n      pop\n        /* \"#utility.yul\":8889:8891   */\n      0x40\n        /* \"#utility.yul\":8915:8967   */\n      tag_453\n        /* \"#utility.yul\":8959:8966   */\n      dup7\n        /* \"#utility.yul\":8950:8956   */\n      dup3\n        /* \"#utility.yul\":8939:8948   */\n      dup8\n        /* \"#utility.yul\":8935:8957   */\n      add\n        /* \"#utility.yul\":8915:8967   */\n      tag_286\n      jump\t// in\n    tag_453:\n        /* \"#utility.yul\":8905:8967   */\n      swap2\n      pop\n        /* \"#utility.yul\":8860:8977   */\n      pop\n        /* \"#utility.yul\":8367:8984   */\n      swap3\n      pop\n      swap3\n      pop\n      swap3\n      jump\t// out\n        /* \"#utility.yul\":8990:9644   */\n    tag_44:\n        /* \"#utility.yul\":9068:9074   */\n      0x00\n        /* \"#utility.yul\":9076:9082   */\n      dup1\n        /* \"#utility.yul\":9125:9127   */\n      0x40\n        /* \"#utility.yul\":9113:9122   */\n      dup4\n        /* \"#utility.yul\":9104:9111   */\n      dup6\n        /* \"#utility.yul\":9100:9123   */\n      sub\n        /* \"#utility.yul\":9096:9128   */\n      slt\n        /* \"#utility.yul\":9093:9212   */\n      iszero\n      tag_455\n      jumpi\n        /* \"#utility.yul\":9131:9210   */\n      tag_456\n      tag_258\n      jump\t// in\n    tag_456:\n        /* \"#utility.yul\":9093:9212   */\n    tag_455:\n        /* \"#utility.yul\":9251:9252   */\n      0x00\n        /* \"#utility.yul\":9276:9329   */\n      tag_457\n        /* \"#utility.yul\":9321:9328   */\n      dup6\n        /* \"#utility.yul\":9312:9318   */\n      dup3\n        /* \"#utility.yul\":9301:9310   */\n      dup7\n        /* \"#utility.yul\":9297:9319   */\n      add\n        /* \"#utility.yul\":9276:9329   */\n      tag_283\n      jump\t// in\n    tag_457:\n        /* \"#utility.yul\":9266:9329   */\n      swap3\n      pop\n        /* \"#utility.yul\":9222:9339   */\n      pop\n        /* \"#utility.yul\":9406:9408   */\n      0x20\n        /* \"#utility.yul\":9395:9404   */\n      dup4\n        /* \"#utility.yul\":9391:9409   */\n      add\n        /* \"#utility.yul\":9378:9410   */\n      calldataload\n        /* \"#utility.yul\":9437:9455   */\n      0xffffffffffffffff\n        /* \"#utility.yul\":9429:9435   */\n      dup2\n        /* \"#utility.yul\":9426:9456   */\n      gt\n        /* \"#utility.yul\":9423:9540   */\n      iszero\n      tag_458\n      jumpi\n        /* \"#utility.yul\":9459:9538   */\n      tag_459\n      tag_259\n      jump\t// in\n    tag_459:\n        /* \"#utility.yul\":9423:9540   */\n    tag_458:\n        /* \"#utility.yul\":9564:9627   */\n      tag_460\n        /* \"#utility.yul\":9619:9626   */\n      dup6\n        /* \"#utility.yul\":9610:9616   */\n      dup3\n        /* \"#utility.yul\":9599:9608   */\n      dup7\n        /* \"#utility.yul\":9595:9617   */\n      add\n        /* \"#utility.yul\":9564:9627   */\n      tag_269\n      jump\t// in\n    tag_460:\n        /* \"#utility.yul\":9554:9627   */\n      swap2\n      pop\n        /* \"#utility.yul\":9349:9637   */\n      pop\n        /* \"#utility.yul\":8990:9644   */\n      swap3\n      pop\n      swap3\n      swap1\n      pop\n      jump\t// out\n        /* \"#utility.yul\":9650:10447   */\n    tag_48:\n        /* \"#utility.yul\":9736:9742   */\n      0x00\n        /* \"#utility.yul\":9744:9750   */\n      dup1\n        /* \"#utility.yul\":9752:9758   */\n      0x00\n        /* \"#utility.yul\":9801:9803   */\n      0x60\n        /* \"#utility.yul\":9789:9798   */\n      dup5\n        /* \"#utility.yul\":9780:9787   */\n      dup7\n        /* \"#utility.yul\":9776:9799   */\n      sub\n        /* \"#utility.yul\":9772:9804   */\n      slt\n        /* \"#utility.yul\":9769:9888   */\n      iszero\n      tag_462\n      jumpi\n        /* \"#utility.yul\":9807:9886   */\n      tag_463\n      tag_258\n      jump\t// in\n    tag_463:\n        /* \"#utility.yul\":9769:9888   */\n    tag_462:\n        /* \"#utility.yul\":9927:9928   */\n      0x00\n        /* \"#utility.yul\":9952:10005   */\n      tag_464\n        /* \"#utility.yul\":9997:10004   */\n      dup7\n        /* \"#utility.yul\":9988:9994   */\n      dup3\n        /* \"#utility.yul\":9977:9986   */\n      dup8\n        /* \"#utility.yul\":9973:9995   */\n      add\n        /* \"#utility.yul\":9952:10005   */\n      tag_283\n      jump\t// in\n    tag_464:\n        /* \"#utility.yul\":9942:10005   */\n      swap4\n      pop\n        /* \"#utility.yul\":9898:10015   */\n      pop\n        /* \"#utility.yul\":10082:10084   */\n      0x20\n        /* \"#utility.yul\":10071:10080   */\n      dup5\n        /* \"#utility.yul\":10067:10085   */\n      add\n        /* \"#utility.yul\":10054:10086   */\n      calldataload\n        /* \"#utility.yul\":10113:10131   */\n      0xffffffffffffffff\n        /* \"#utility.yul\":10105:10111   */\n      dup2\n        /* \"#utility.yul\":10102:10132   */\n      gt\n        /* \"#utility.yul\":10099:10216   */\n      iszero\n      tag_465\n      jumpi\n        /* \"#utility.yul\":10135:10214   */\n      tag_466\n      tag_259\n      jump\t// in\n    tag_466:\n        /* \"#utility.yul\":10099:10216   */\n    tag_465:\n        /* \"#utility.yul\":10240:10303   */\n      tag_467\n        /* \"#utility.yul\":10295:10302   */\n      dup7\n        /* \"#utility.yul\":10286:10292   */\n      dup3\n        /* \"#utility.yul\":10275:10284   */\n      dup8\n        /* \"#utility.yul\":10271:10293   */\n      add\n        /* \"#utility.yul\":10240:10303   */\n      tag_269\n      jump\t// in\n    tag_467:\n        /* \"#utility.yul\":10230:10303   */\n      swap3\n      pop\n        /* \"#utility.yul\":10025:10313   */\n      pop\n        /* \"#utility.yul\":10352:10354   */\n      0x40\n        /* \"#utility.yul\":10378:10430   */\n      tag_468\n        /* \"#utility.yul\":10422:10429   */\n      dup7\n        /* \"#utility.yul\":10413:10419   */\n      dup3\n        /* \"#utility.yul\":10402:10411   */\n      dup8\n        /* \"#utility.yul\":10398:10420   */\n      add\n        /* \"#utility.yul\":10378:10430   */\n      tag_286\n      jump\t// in\n    tag_468:\n        /* \"#utility.yul\":10368:10430   */\n      swap2\n      pop\n        /* \"#utility.yul\":10323:10440   */\n      pop\n        /* \"#utility.yul\":9650:10447   */\n      swap3\n      pop\n      swap3\n      pop\n      swap3\n      jump\t// out\n        /* \"#utility.yul\":10453:10622   */\n    tag_287:\n        /* \"#utility.yul\":10537:10548   */\n      0x00\n        /* \"#utility.yul\":10571:10577   */\n      dup3\n        /* \"#utility.yul\":10566:10569   */\n      dup3\n        /* \"#utility.yul\":10559:10578   */\n      mstore\n        /* \"#utility.yul\":10611:10615   */\n      0x20\n        /* \"#utility.yul\":10606:10609   */\n      dup3\n        /* \"#utility.yul\":10602:10616   */\n      add\n        /* \"#utility.yul\":10587:10616   */\n      swap1\n      pop\n        /* \"#utility.yul\":10453:10622   */\n      swap3\n      swap2\n      pop\n      pop\n      jump\t// out\n        /* \"#utility.yul\":10628:11005   */\n    tag_288:\n        /* \"#utility.yul\":10716:10719   */\n      0x00\n        /* \"#utility.yul\":10744:10783   */\n      tag_471\n        /* \"#utility.yul\":10777:10782   */\n      dup3\n        /* \"#utility.yul\":10744:10783   */\n      tag_275\n      jump\t// in\n    tag_471:\n        /* \"#utility.yul\":10799:10870   */\n      tag_472\n        /* \"#utility.yul\":10863:10869   */\n      dup2\n        /* \"#utility.yul\":10858:10861   */\n      dup6\n        /* \"#utility.yul\":10799:10870   */\n      tag_287\n      jump\t// in\n    tag_472:\n        /* \"#utility.yul\":10792:10870   */\n      swap4\n      pop\n        /* \"#utility.yul\":10879:10944   */\n      tag_473\n        /* \"#utility.yul\":10937:10943   */\n      dup2\n        /* \"#utility.yul\":10932:10935   */\n      dup6\n        /* \"#utility.yul\":10925:10929   */\n      0x20\n        /* \"#utility.yul\":10918:10923   */\n      dup7\n        /* \"#utility.yul\":10914:10930   */\n      add\n        /* \"#utility.yul\":10879:10944   */\n      tag_277\n      jump\t// in\n    tag_473:\n        /* \"#utility.yul\":10969:10998   */\n      tag_474\n        /* \"#utility.yul\":10991:10997   */\n      dup2\n        /* \"#utility.yul\":10969:10998   */\n      tag_262\n      jump\t// in\n    tag_474:\n        /* \"#utility.yul\":10964:10967   */\n      dup5\n        /* \"#utility.yul\":10960:10999   */\n      add\n        /* \"#utility.yul\":10953:10999   */\n      swap2\n      pop\n        /* \"#utility.yul\":10720:11005   */\n      pop\n        /* \"#utility.yul\":10628:11005   */\n      swap3\n      swap2\n      pop\n      pop\n      jump\t// out\n        /* \"#utility.yul\":11011:11324   */\n    tag_53:\n        /* \"#utility.yul\":11124:11128   */\n      0x00\n        /* \"#utility.yul\":11162:11164   */\n      0x20\n        /* \"#utility.yul\":11151:11160   */\n      dup3\n        /* \"#utility.yul\":11147:11165   */\n      add\n        /* \"#utility.yul\":11139:11165   */\n      swap1\n      pop\n        /* \"#utility.yul\":11211:11220   */\n      dup2\n        /* \"#utility.yul\":11205:11209   */\n      dup2\n        /* \"#utility.yul\":11201:11221   */\n      sub\n        /* \"#utility.yul\":11197:11198   */\n      0x00\n        /* \"#utility.yul\":11186:11195   */\n      dup4\n        /* \"#utility.yul\":11182:11199   */\n      add\n        /* \"#utility.yul\":11175:11222   */\n      mstore\n        /* \"#utility.yul\":11239:11317   */\n      tag_476\n        /* \"#utility.yul\":11312:11316   */\n      dup2\n        /* \"#utility.yul\":11303:11309   */\n      dup5\n        /* \"#utility.yul\":11239:11317   */\n      tag_288\n      jump\t// in\n    tag_476:\n        /* \"#utility.yul\":11231:11317   */\n      swap1\n      pop\n        /* \"#utility.yul\":11011:11324   */\n      swap3\n      swap2\n      pop\n      pop\n      jump\t// out\n        /* \"#utility.yul\":11330:12164   */\n    tag_56:\n        /* \"#utility.yul\":11418:11424   */\n      0x00\n        /* \"#utility.yul\":11426:11432   */\n      dup1\n        /* \"#utility.yul\":11475:11477   */\n      0x40\n        /* \"#utility.yul\":11463:11472   */\n      dup4\n        /* \"#utility.yul\":11454:11461   */\n      dup6\n        /* \"#utility.yul\":11450:11473   */\n      sub\n        /* \"#utility.yul\":11446:11478   */\n      slt\n        /* \"#utility.yul\":11443:11562   */\n      iszero\n      tag_478\n      jumpi\n        /* \"#utility.yul\":11481:11560   */\n      tag_479\n      tag_258\n      jump\t// in\n    tag_479:\n        /* \"#utility.yul\":11443:11562   */\n    tag_478:\n        /* \"#utility.yul\":11629:11630   */\n      0x00\n        /* \"#utility.yul\":11618:11627   */\n      dup4\n        /* \"#utility.yul\":11614:11631   */\n      add\n        /* \"#utility.yul\":11601:11632   */\n      calldataload\n        /* \"#utility.yul\":11659:11677   */\n      0xffffffffffffffff\n        /* \"#utility.yul\":11651:11657   */\n      dup2\n        /* \"#utility.yul\":11648:11678   */\n      gt\n        /* \"#utility.yul\":11645:11762   */\n      iszero\n      tag_480\n      jumpi\n        /* \"#utility.yul\":11681:11760   */\n      tag_481\n      tag_259\n      jump\t// in\n    tag_481:\n        /* \"#utility.yul\":11645:11762   */\n    tag_480:\n        /* \"#utility.yul\":11786:11849   */\n      tag_482\n        /* \"#utility.yul\":11841:11848   */\n      dup6\n        /* \"#utility.yul\":11832:11838   */\n      dup3\n        /* \"#utility.yul\":11821:11830   */\n      dup7\n        /* \"#utility.yul\":11817:11839   */\n      add\n        /* \"#utility.yul\":11786:11849   */\n      tag_269\n      jump\t// in\n    tag_482:\n        /* \"#utility.yul\":11776:11849   */\n      swap3\n      pop\n        /* \"#utility.yul\":11572:11859   */\n      pop\n        /* \"#utility.yul\":11926:11928   */\n      0x20\n        /* \"#utility.yul\":11915:11924   */\n      dup4\n        /* \"#utility.yul\":11911:11929   */\n      add\n        /* \"#utility.yul\":11898:11930   */\n      calldataload\n        /* \"#utility.yul\":11957:11975   */\n      0xffffffffffffffff\n        /* \"#utility.yul\":11949:11955   */\n      dup2\n        /* \"#utility.yul\":11946:11976   */\n      gt\n        /* \"#utility.yul\":11943:12060   */\n      iszero\n      tag_483\n      jumpi\n        /* \"#utility.yul\":11979:12058   */\n      tag_484\n      tag_259\n      jump\t// in\n    tag_484:\n        /* \"#utility.yul\":11943:12060   */\n    tag_483:\n        /* \"#utility.yul\":12084:12147   */\n      tag_485\n        /* \"#utility.yul\":12139:12146   */\n      dup6\n        /* \"#utility.yul\":12130:12136   */\n      dup3\n        /* \"#utility.yul\":12119:12128   */\n      dup7\n        /* \"#utility.yul\":12115:12137   */\n      add\n        /* \"#utility.yul\":12084:12147   */\n      tag_269\n      jump\t// in\n    tag_485:\n        /* \"#utility.yul\":12074:12147   */\n      swap2\n      pop\n        /* \"#utility.yul\":11869:12157   */\n      pop\n        /* \"#utility.yul\":11330:12164   */\n      swap3\n      pop\n      swap3\n      swap1\n      pop\n      jump\t// out\n        /* \"#utility.yul\":12170:12288   */\n    tag_289:\n        /* \"#utility.yul\":12257:12281   */\n      tag_487\n        /* \"#utility.yul\":12275:12280   */\n      dup2\n        /* \"#utility.yul\":12257:12281   */\n      tag_270\n      jump\t// in\n    tag_487:\n        /* \"#utility.yul\":12252:12255   */\n      dup3\n        /* \"#utility.yul\":12245:12282   */\n      mstore\n        /* \"#utility.yul\":12170:12288   */\n      pop\n      pop\n      jump\t// out\n        /* \"#utility.yul\":12294:12516   */\n    tag_59:\n        /* \"#utility.yul\":12387:12391   */\n      0x00\n        /* \"#utility.yul\":12425:12427   */\n      0x20\n        /* \"#utility.yul\":12414:12423   */\n      dup3\n        /* \"#utility.yul\":12410:12428   */\n      add\n        /* \"#utility.yul\":12402:12428   */\n      swap1\n      pop\n        /* \"#utility.yul\":12438:12509   */\n      tag_489\n        /* \"#utility.yul\":12506:12507   */\n      0x00\n        /* \"#utility.yul\":12495:12504   */\n      dup4\n        /* \"#utility.yul\":12491:12508   */\n      add\n        /* \"#utility.yul\":12482:12488   */\n      dup5\n        /* \"#utility.yul\":12438:12509   */\n      tag_289\n      jump\t// in\n    tag_489:\n        /* \"#utility.yul\":12294:12516   */\n      swap3\n      swap2\n      pop\n      pop\n      jump\t// out\n        /* \"#utility.yul\":12522:13321   */\n    tag_62:\n        /* \"#utility.yul\":12609:12615   */\n      0x00\n        /* \"#utility.yul\":12617:12623   */\n      dup1\n        /* \"#utility.yul\":12625:12631   */\n      0x00\n        /* \"#utility.yul\":12674:12676   */\n      0x60\n        /* \"#utility.yul\":12662:12671   */\n      dup5\n        /* \"#utility.yul\":12653:12660   */\n      dup7\n        /* \"#utility.yul\":12649:12672   */\n      sub\n        /* \"#utility.yul\":12645:12677   */\n      slt\n        /* \"#utility.yul\":12642:12761   */\n      iszero\n      tag_491\n      jumpi\n        /* \"#utility.yul\":12680:12759   */\n      tag_492\n      tag_258\n      jump\t// in\n    tag_492:\n        /* \"#utility.yul\":12642:12761   */\n    tag_491:\n        /* \"#utility.yul\":12800:12801   */\n      0x00\n        /* \"#utility.yul\":12825:12878   */\n      tag_493\n        /* \"#utility.yul\":12870:12877   */\n      dup7\n        /* \"#utility.yul\":12861:12867   */\n      dup3\n        /* \"#utility.yul\":12850:12859   */\n      dup8\n        /* \"#utility.yul\":12846:12868   */\n      add\n        /* \"#utility.yul\":12825:12878   */\n      tag_283\n      jump\t// in\n    tag_493:\n        /* \"#utility.yul\":12815:12878   */\n      swap4\n      pop\n        /* \"#utility.yul\":12771:12888   */\n      pop\n        /* \"#utility.yul\":12927:12929   */\n      0x20\n        /* \"#utility.yul\":12953:13006   */\n      tag_494\n        /* \"#utility.yul\":12998:13005   */\n      dup7\n        /* \"#utility.yul\":12989:12995   */\n      dup3\n        /* \"#utility.yul\":12978:12987   */\n      dup8\n        /* \"#utility.yul\":12974:12996   */\n      add\n        /* \"#utility.yul\":12953:13006   */\n      tag_283\n      jump\t// in\n    tag_494:\n        /* \"#utility.yul\":12943:13006   */\n      swap3\n      pop\n        /* \"#utility.yul\":12898:13016   */\n      pop\n        /* \"#utility.yul\":13083:13085   */\n      0x40\n        /* \"#utility.yul\":13072:13081   */\n      dup5\n        /* \"#utility.yul\":13068:13086   */\n      add\n        /* \"#utility.yul\":13055:13087   */\n      calldataload\n        /* \"#utility.yul\":13114:13132   */\n      0xffffffffffffffff\n        /* \"#utility.yul\":13106:13112   */\n      dup2\n        /* \"#utility.yul\":13103:13133   */\n      gt\n        /* \"#utility.yul\":13100:13217   */\n      iszero\n      tag_495\n      jumpi\n        /* \"#utility.yul\":13136:13215   */\n      tag_496\n      tag_259\n      jump\t// in\n    tag_496:\n        /* \"#utility.yul\":13100:13217   */\n    tag_495:\n        /* \"#utility.yul\":13241:13304   */\n      tag_497\n        /* \"#utility.yul\":13296:13303   */\n      dup7\n        /* \"#utility.yul\":13287:13293   */\n      dup3\n        /* \"#utility.yul\":13276:13285   */\n      dup8\n        /* \"#utility.yul\":13272:13294   */\n      add\n        /* \"#utility.yul\":13241:13304   */\n      tag_269\n      jump\t// in\n    tag_497:\n        /* \"#utility.yul\":13231:13304   */\n      swap2\n      pop\n        /* \"#utility.yul\":13026:13314   */\n      pop\n        /* \"#utility.yul\":12522:13321   */\n      swap3\n      pop\n      swap3\n      pop\n      swap3\n      jump\t// out\n        /* \"#utility.yul\":13327:13451   */\n    tag_290:\n        /* \"#utility.yul\":13404:13410   */\n      0x00\n        /* \"#utility.yul\":13438:13443   */\n      dup2\n        /* \"#utility.yul\":13432:13444   */\n      mload\n        /* \"#utility.yul\":13422:13444   */\n      swap1\n      pop\n        /* \"#utility.yul\":13327:13451   */\n      swap2\n      swap1\n      pop\n      jump\t// out\n        /* \"#utility.yul\":13457:13651   */\n    tag_291:\n        /* \"#utility.yul\":13566:13577   */\n      0x00\n        /* \"#utility.yul\":13600:13606   */\n      dup3\n        /* \"#utility.yul\":13595:13598   */\n      dup3\n        /* \"#utility.yul\":13588:13607   */\n      mstore\n        /* \"#utility.yul\":13640:13644   */\n      0x20\n        /* \"#utility.yul\":13635:13638   */\n      dup3\n        /* \"#utility.yul\":13631:13645   */\n      add\n        /* \"#utility.yul\":13616:13645   */\n      swap1\n      pop\n        /* \"#utility.yul\":13457:13651   */\n      swap3\n      swap2\n      pop\n      pop\n      jump\t// out\n        /* \"#utility.yul\":13657:13799   */\n    tag_292:\n        /* \"#utility.yul\":13734:13738   */\n      0x00\n        /* \"#utility.yul\":13757:13760   */\n      dup2\n        /* \"#utility.yul\":13749:13760   */\n      swap1\n      pop\n        /* \"#utility.yul\":13787:13791   */\n      0x20\n        /* \"#utility.yul\":13782:13785   */\n      dup3\n        /* \"#utility.yul\":13778:13792   */\n      add\n        /* \"#utility.yul\":13770:13792   */\n      swap1\n      pop\n        /* \"#utility.yul\":13657:13799   */\n      swap2\n      swap1\n      pop\n      jump\t// out\n        /* \"#utility.yul\":13805:14001   */\n    tag_293:\n        /* \"#utility.yul\":13894:13904   */\n      0x00\n        /* \"#utility.yul\":13929:13995   */\n      tag_502\n        /* \"#utility.yul\":13991:13994   */\n      dup4\n        /* \"#utility.yul\":13983:13989   */\n      dup4\n        /* \"#utility.yul\":13929:13995   */\n      tag_278\n      jump\t// in\n    tag_502:\n        /* \"#utility.yul\":13915:13995   */\n      swap1\n      pop\n        /* \"#utility.yul\":13805:14001   */\n      swap3\n      swap2\n      pop\n      pop\n      jump\t// out\n        /* \"#utility.yul\":14007:14130   */\n    tag_294:\n        /* \"#utility.yul\":14087:14091   */\n      0x00\n        /* \"#utility.yul\":14119:14123   */\n      0x20\n        /* \"#utility.yul\":14114:14117   */\n      dup3\n        /* \"#utility.yul\":14110:14124   */\n      add\n        /* \"#utility.yul\":14102:14124   */\n      swap1\n      pop\n        /* \"#utility.yul\":14007:14130   */\n      swap2\n      swap1\n      pop\n      jump\t// out\n        /* \"#utility.yul\":14164:15155   */\n    tag_295:\n        /* \"#utility.yul\":14303:14306   */\n      0x00\n        /* \"#utility.yul\":14332:14396   */\n      tag_505\n        /* \"#utility.yul\":14390:14395   */\n      dup3\n        /* \"#utility.yul\":14332:14396   */\n      tag_290\n      jump\t// in\n    tag_505:\n        /* \"#utility.yul\":14412:14508   */\n      tag_506\n        /* \"#utility.yul\":14501:14507   */\n      dup2\n        /* \"#utility.yul\":14496:14499   */\n      dup6\n        /* \"#utility.yul\":14412:14508   */\n      tag_291\n      jump\t// in\n    tag_506:\n        /* \"#utility.yul\":14405:14508   */\n      swap4\n      pop\n        /* \"#utility.yul\":14534:14537   */\n      dup4\n        /* \"#utility.yul\":14579:14583   */\n      0x20\n        /* \"#utility.yul\":14571:14577   */\n      dup3\n        /* \"#utility.yul\":14567:14584   */\n      mul\n        /* \"#utility.yul\":14562:14565   */\n      dup6\n        /* \"#utility.yul\":14558:14585   */\n      add\n        /* \"#utility.yul\":14609:14675   */\n      tag_507\n        /* \"#utility.yul\":14669:14674   */\n      dup6\n        /* \"#utility.yul\":14609:14675   */\n      tag_292\n      jump\t// in\n    tag_507:\n        /* \"#utility.yul\":14698:14705   */\n      dup1\n        /* \"#utility.yul\":14729:14730   */\n      0x00\n        /* \"#utility.yul\":14714:15110   */\n    tag_508:\n        /* \"#utility.yul\":14739:14745   */\n      dup6\n        /* \"#utility.yul\":14736:14737   */\n      dup2\n        /* \"#utility.yul\":14733:14746   */\n      lt\n        /* \"#utility.yul\":14714:15110   */\n      iszero\n      tag_510\n      jumpi\n        /* \"#utility.yul\":14810:14819   */\n      dup5\n        /* \"#utility.yul\":14804:14808   */\n      dup5\n        /* \"#utility.yul\":14800:14820   */\n      sub\n        /* \"#utility.yul\":14795:14798   */\n      dup10\n        /* \"#utility.yul\":14788:14821   */\n      mstore\n        /* \"#utility.yul\":14861:14867   */\n      dup2\n        /* \"#utility.yul\":14855:14868   */\n      mload\n        /* \"#utility.yul\":14889:14973   */\n      tag_511\n        /* \"#utility.yul\":14968:14972   */\n      dup6\n        /* \"#utility.yul\":14953:14966   */\n      dup3\n        /* \"#utility.yul\":14889:14973   */\n      tag_293\n      jump\t// in\n    tag_511:\n        /* \"#utility.yul\":14881:14973   */\n      swap5\n      pop\n        /* \"#utility.yul\":14996:15066   */\n      tag_512\n        /* \"#utility.yul\":15059:15065   */\n      dup4\n        /* \"#utility.yul\":14996:15066   */\n      tag_294\n      jump\t// in\n    tag_512:\n        /* \"#utility.yul\":14986:15066   */\n      swap3\n      pop\n        /* \"#utility.yul\":15095:15099   */\n      0x20\n        /* \"#utility.yul\":15090:15093   */\n      dup11\n        /* \"#utility.yul\":15086:15100   */\n      add\n        /* \"#utility.yul\":15079:15100   */\n      swap10\n      pop\n        /* \"#utility.yul\":14774:15110   */\n      pop\n        /* \"#utility.yul\":14761:14762   */\n      0x01\n        /* \"#utility.yul\":14758:14759   */\n      dup2\n        /* \"#utility.yul\":14754:14763   */\n      add\n        /* \"#utility.yul\":14749:14763   */\n      swap1\n      pop\n        /* \"#utility.yul\":14714:15110   */\n      jump(tag_508)\n    tag_510:\n        /* \"#utility.yul\":14718:14732   */\n      pop\n        /* \"#utility.yul\":15126:15130   */\n      dup3\n        /* \"#utility.yul\":15119:15130   */\n      swap8\n      pop\n        /* \"#utility.yul\":15146:15149   */\n      dup8\n        /* \"#utility.yul\":15139:15149   */\n      swap6\n      pop\n        /* \"#utility.yul\":14308:15155   */\n      pop\n      pop\n      pop\n      pop\n      pop\n        /* \"#utility.yul\":14164:15155   */\n      swap3\n      swap2\n      pop\n      pop\n      jump\t// out\n        /* \"#utility.yul\":15161:15574   */\n    tag_68:\n        /* \"#utility.yul\":15324:15328   */\n      0x00\n        /* \"#utility.yul\":15362:15364   */\n      0x20\n        /* \"#utility.yul\":15351:15360   */\n      dup3\n        /* \"#utility.yul\":15347:15365   */\n      add\n        /* \"#utility.yul\":15339:15365   */\n      swap1\n      pop\n        /* \"#utility.yul\":15411:15420   */\n      dup2\n        /* \"#utility.yul\":15405:15409   */\n      dup2\n        /* \"#utility.yul\":15401:15421   */\n      sub\n        /* \"#utility.yul\":15397:15398   */\n      0x00\n        /* \"#utility.yul\":15386:15395   */\n      dup4\n        /* \"#utility.yul\":15382:15399   */\n      add\n        /* \"#utility.yul\":15375:15422   */\n      mstore\n        /* \"#utility.yul\":15439:15567   */\n      tag_514\n        /* \"#utility.yul\":15562:15566   */\n      dup2\n        /* \"#utility.yul\":15553:15559   */\n      dup5\n        /* \"#utility.yul\":15439:15567   */\n      tag_295\n      jump\t// in\n    tag_514:\n        /* \"#utility.yul\":15431:15567   */\n      swap1\n      pop\n        /* \"#utility.yul\":15161:15574   */\n      swap3\n      swap2\n      pop\n      pop\n      jump\t// out\n        /* \"#utility.yul\":15580:15805   */\n    tag_296:\n        /* \"#utility.yul\":15720:15754   */\n      0x4e6f206578697374696e672044494420666f756e6420666f7220746869732061\n        /* \"#utility.yul\":15716:15717   */\n      0x00\n        /* \"#utility.yul\":15708:15714   */\n      dup3\n        /* \"#utility.yul\":15704:15718   */\n      add\n        /* \"#utility.yul\":15697:15755   */\n      mstore\n        /* \"#utility.yul\":15789:15797   */\n      0x6464726573730000000000000000000000000000000000000000000000000000\n        /* \"#utility.yul\":15784:15786   */\n      0x20\n        /* \"#utility.yul\":15776:15782   */\n      dup3\n        /* \"#utility.yul\":15772:15787   */\n      add\n        /* \"#utility.yul\":15765:15798   */\n      mstore\n        /* \"#utility.yul\":15580:15805   */\n      pop\n      jump\t// out\n        /* \"#utility.yul\":15811:16177   */\n    tag_297:\n        /* \"#utility.yul\":15953:15956   */\n      0x00\n        /* \"#utility.yul\":15974:16041   */\n      tag_517\n        /* \"#utility.yul\":16038:16040   */\n      0x26\n        /* \"#utility.yul\":16033:16036   */\n      dup4\n        /* \"#utility.yul\":15974:16041   */\n      tag_287\n      jump\t// in\n    tag_517:\n        /* \"#utility.yul\":15967:16041   */\n      swap2\n      pop\n        /* \"#utility.yul\":16050:16143   */\n      tag_518\n        /* \"#utility.yul\":16139:16142   */\n      dup3\n        /* \"#utility.yul\":16050:16143   */\n      tag_296\n      jump\t// in\n    tag_518:\n        /* \"#utility.yul\":16168:16170   */\n      0x40\n        /* \"#utility.yul\":16163:16166   */\n      dup3\n        /* \"#utility.yul\":16159:16171   */\n      add\n        /* \"#utility.yul\":16152:16171   */\n      swap1\n      pop\n        /* \"#utility.yul\":15811:16177   */\n      swap2\n      swap1\n      pop\n      jump\t// out\n        /* \"#utility.yul\":16183:16602   */\n    tag_72:\n        /* \"#utility.yul\":16349:16353   */\n      0x00\n        /* \"#utility.yul\":16387:16389   */\n      0x20\n        /* \"#utility.yul\":16376:16385   */\n      dup3\n        /* \"#utility.yul\":16372:16390   */\n      add\n        /* \"#utility.yul\":16364:16390   */\n      swap1\n      pop\n        /* \"#utility.yul\":16436:16445   */\n      dup2\n        /* \"#utility.yul\":16430:16434   */\n      dup2\n        /* \"#utility.yul\":16426:16446   */\n      sub\n        /* \"#utility.yul\":16422:16423   */\n      0x00\n        /* \"#utility.yul\":16411:16420   */\n      dup4\n        /* \"#utility.yul\":16407:16424   */\n      add\n        /* \"#utility.yul\":16400:16447   */\n      mstore\n        /* \"#utility.yul\":16464:16595   */\n      tag_520\n        /* \"#utility.yul\":16590:16594   */\n      dup2\n        /* \"#utility.yul\":16464:16595   */\n      tag_297\n      jump\t// in\n    tag_520:\n        /* \"#utility.yul\":16456:16595   */\n      swap1\n      pop\n        /* \"#utility.yul\":16183:16602   */\n      swap2\n      swap1\n      pop\n      jump\t// out\n        /* \"#utility.yul\":16608:16779   */\n    tag_298:\n        /* \"#utility.yul\":16748:16771   */\n      0x456d61696c2063616e6e6f7420626520656d7074790000000000000000000000\n        /* \"#utility.yul\":16744:16745   */\n      0x00\n        /* \"#utility.yul\":16736:16742   */\n      dup3\n        /* \"#utility.yul\":16732:16746   */\n      add\n        /* \"#utility.yul\":16725:16772   */\n      mstore\n        /* \"#utility.yul\":16608:16779   */\n      pop\n      jump\t// out\n        /* \"#utility.yul\":16785:17151   */\n    tag_299:\n        /* \"#utility.yul\":16927:16930   */\n      0x00\n        /* \"#utility.yul\":16948:17015   */\n      tag_523\n        /* \"#utility.yul\":17012:17014   */\n      0x15\n        /* \"#utility.yul\":17007:17010   */\n      dup4\n        /* \"#utility.yul\":16948:17015   */\n      tag_287\n      jump\t// in\n    tag_523:\n        /* \"#utility.yul\":16941:17015   */\n      swap2\n      pop\n        /* \"#utility.yul\":17024:17117   */\n      tag_524\n        /* \"#utility.yul\":17113:17116   */\n      dup3\n        /* \"#utility.yul\":17024:17117   */\n      tag_298\n      jump\t// in\n    tag_524:\n        /* \"#utility.yul\":17142:17144   */\n      0x20\n        /* \"#utility.yul\":17137:17140   */\n      dup3\n        /* \"#utility.yul\":17133:17145   */\n      add\n        /* \"#utility.yul\":17126:17145   */\n      swap1\n      pop\n        /* \"#utility.yul\":16785:17151   */\n      swap2\n      swap1\n      pop\n      jump\t// out\n        /* \"#utility.yul\":17157:17576   */\n    tag_75:\n        /* \"#utility.yul\":17323:17327   */\n      0x00\n        /* \"#utility.yul\":17361:17363   */\n      0x20\n        /* \"#utility.yul\":17350:17359   */\n      dup3\n        /* \"#utility.yul\":17346:17364   */\n      add\n        /* \"#utility.yul\":17338:17364   */\n      swap1\n      pop\n        /* \"#utility.yul\":17410:17419   */\n      dup2\n        /* \"#utility.yul\":17404:17408   */\n      dup2\n        /* \"#utility.yul\":17400:17420   */\n      sub\n        /* \"#utility.yul\":17396:17397   */\n      0x00\n        /* \"#utility.yul\":17385:17394   */\n      dup4\n        /* \"#utility.yul\":17381:17398   */\n      add\n        /* \"#utility.yul\":17374:17421   */\n      mstore\n        /* \"#utility.yul\":17438:17569   */\n      tag_526\n        /* \"#utility.yul\":17564:17568   */\n      dup2\n        /* \"#utility.yul\":17438:17569   */\n      tag_299\n      jump\t// in\n    tag_526:\n        /* \"#utility.yul\":17430:17569   */\n      swap1\n      pop\n        /* \"#utility.yul\":17157:17576   */\n      swap2\n      swap1\n      pop\n      jump\t// out\n        /* \"#utility.yul\":17582:17762   */\n    tag_300:\n        /* \"#utility.yul\":17630:17707   */\n      0x4e487b7100000000000000000000000000000000000000000000000000000000\n        /* \"#utility.yul\":17627:17628   */\n      0x00\n        /* \"#utility.yul\":17620:17708   */\n      mstore\n        /* \"#utility.yul\":17727:17731   */\n      0x22\n        /* \"#utility.yul\":17724:17725   */\n      0x04\n        /* \"#utility.yul\":17717:17732   */\n      mstore\n        /* \"#utility.yul\":17751:17755   */\n      0x24\n        /* \"#utility.yul\":17748:17749   */\n      0x00\n        /* \"#utility.yul\":17741:17756   */\n      revert\n        /* \"#utility.yul\":17768:18088   */\n    tag_107:\n        /* \"#utility.yul\":17812:17818   */\n      0x00\n        /* \"#utility.yul\":17849:17850   */\n      0x02\n        /* \"#utility.yul\":17843:17847   */\n      dup3\n        /* \"#utility.yul\":17839:17851   */\n      div\n        /* \"#utility.yul\":17829:17851   */\n      swap1\n      pop\n        /* \"#utility.yul\":17896:17897   */\n      0x01\n        /* \"#utility.yul\":17890:17894   */\n      dup3\n        /* \"#utility.yul\":17886:17898   */\n      and\n        /* \"#utility.yul\":17917:17935   */\n      dup1\n        /* \"#utility.yul\":17907:17988   */\n      tag_529\n      jumpi\n        /* \"#utility.yul\":17973:17977   */\n      0x7f\n        /* \"#utility.yul\":17965:17971   */\n      dup3\n        /* \"#utility.yul\":17961:17978   */\n      and\n        /* \"#utility.yul\":17951:17978   */\n      swap2\n      pop\n        /* \"#utility.yul\":17907:17988   */\n    tag_529:\n        /* \"#utility.yul\":18035:18037   */\n      0x20\n        /* \"#utility.yul\":18027:18033   */\n      dup3\n        /* \"#utility.yul\":18024:18038   */\n      lt\n        /* \"#utility.yul\":18004:18022   */\n      dup2\n        /* \"#utility.yul\":18001:18039   */\n      sub\n        /* \"#utility.yul\":17998:18082   */\n      tag_530\n      jumpi\n        /* \"#utility.yul\":18054:18072   */\n      tag_531\n      tag_300\n      jump\t// in\n    tag_531:\n        /* \"#utility.yul\":17998:18082   */\n    tag_530:\n        /* \"#utility.yul\":17819:18088   */\n      pop\n        /* \"#utility.yul\":17768:18088   */\n      swap2\n      swap1\n      pop\n      jump\t// out\n        /* \"#utility.yul\":18094:18235   */\n    tag_301:\n        /* \"#utility.yul\":18143:18147   */\n      0x00\n        /* \"#utility.yul\":18166:18169   */\n      dup2\n        /* \"#utility.yul\":18158:18169   */\n      swap1\n      pop\n        /* \"#utility.yul\":18189:18192   */\n      dup2\n        /* \"#utility.yul\":18186:18187   */\n      0x00\n        /* \"#utility.yul\":18179:18193   */\n      mstore\n        /* \"#utility.yul\":18223:18227   */\n      0x20\n        /* \"#utility.yul\":18220:18221   */\n      0x00\n        /* \"#utility.yul\":18210:18228   */\n      keccak256\n        /* \"#utility.yul\":18202:18228   */\n      swap1\n      pop\n        /* \"#utility.yul\":18094:18235   */\n      swap2\n      swap1\n      pop\n      jump\t// out\n        /* \"#utility.yul\":18241:18334   */\n    tag_302:\n        /* \"#utility.yul\":18278:18284   */\n      0x00\n        /* \"#utility.yul\":18325:18327   */\n      0x20\n        /* \"#utility.yul\":18320:18322   */\n      0x1f\n        /* \"#utility.yul\":18313:18318   */\n      dup4\n        /* \"#utility.yul\":18309:18323   */\n      add\n        /* \"#utility.yul\":18305:18328   */\n      div\n        /* \"#utility.yul\":18295:18328   */\n      swap1\n      pop\n        /* \"#utility.yul\":18241:18334   */\n      swap2\n      swap1\n      pop\n      jump\t// out\n        /* \"#utility.yul\":18340:18447   */\n    tag_303:\n        /* \"#utility.yul\":18384:18392   */\n      0x00\n        /* \"#utility.yul\":18434:18439   */\n      dup3\n        /* \"#utility.yul\":18428:18432   */\n      dup3\n        /* \"#utility.yul\":18424:18440   */\n      shl\n        /* \"#utility.yul\":18403:18440   */\n      swap1\n      pop\n        /* \"#utility.yul\":18340:18447   */\n      swap3\n      swap2\n      pop\n      pop\n      jump\t// out\n        /* \"#utility.yul\":18453:18846   */\n    tag_304:\n        /* \"#utility.yul\":18522:18528   */\n      0x00\n        /* \"#utility.yul\":18572:18573   */\n      0x08\n        /* \"#utility.yul\":18560:18570   */\n      dup4\n        /* \"#utility.yul\":18556:18574   */\n      mul\n        /* \"#utility.yul\":18595:18692   */\n      tag_536\n        /* \"#utility.yul\":18625:18691   */\n      0xffffffffffffffffffffffffffffffffffffffffffffffffffffffffffffffff\n        /* \"#utility.yul\":18614:18623   */\n      dup3\n        /* \"#utility.yul\":18595:18692   */\n      tag_303\n      jump\t// in\n    tag_536:\n        /* \"#utility.yul\":18713:18752   */\n      tag_537\n        /* \"#utility.yul\":18743:18751   */\n      dup7\n        /* \"#utility.yul\":18732:18741   */\n      dup4\n        /* \"#utility.yul\":18713:18752   */\n      tag_303\n      jump\t// in\n    tag_537:\n        /* \"#utility.yul\":18701:18752   */\n      swap6\n      pop\n        /* \"#utility.yul\":18785:18789   */\n      dup1\n        /* \"#utility.yul\":18781:18790   */\n      not\n        /* \"#utility.yul\":18774:18779   */\n      dup5\n        /* \"#utility.yul\":18770:18791   */\n      and\n        /* \"#utility.yul\":18761:18791   */\n      swap4\n      pop\n        /* \"#utility.yul\":18834:18838   */\n      dup1\n        /* \"#utility.yul\":18824:18832   */\n      dup7\n        /* \"#utility.yul\":18820:18839   */\n      and\n        /* \"#utility.yul\":18813:18818   */\n      dup5\n        /* \"#utility.yul\":18810:18840   */\n      or\n        /* \"#utility.yul\":18800:18840   */\n      swap3\n      pop\n        /* \"#utility.yul\":18529:18846   */\n      pop\n      pop\n        /* \"#utility.yul\":18453:18846   */\n      swap4\n      swap3\n      pop\n      pop\n      pop\n      jump\t// out\n        /* \"#utility.yul\":18852:18929   */\n    tag_305:\n        /* \"#utility.yul\":18889:18896   */\n      0x00\n        /* \"#utility.yul\":18918:18923   */\n      dup2\n        /* \"#utility.yul\":18907:18923   */\n      swap1\n      pop\n        /* \"#utility.yul\":18852:18929   */\n      swap2\n      swap1\n      pop\n      jump\t// out\n        /* \"#utility.yul\":18935:18995   */\n    tag_306:\n        /* \"#utility.yul\":18963:18966   */\n      0x00\n        /* \"#utility.yul\":18984:18989   */\n      dup2\n        /* \"#utility.yul\":18977:18989   */\n      swap1\n      pop\n        /* \"#utility.yul\":18935:18995   */\n      swap2\n      swap1\n      pop\n      jump\t// out\n        /* \"#utility.yul\":19001:19143   */\n    tag_307:\n        /* \"#utility.yul\":19051:19060   */\n      0x00\n        /* \"#utility.yul\":19084:19137   */\n      tag_541\n        /* \"#utility.yul\":19102:19136   */\n      tag_542\n        /* \"#utility.yul\":19111:19135   */\n      tag_543\n        /* \"#utility.yul\":19129:19134   */\n      dup5\n        /* \"#utility.yul\":19111:19135   */\n      tag_305\n      jump\t// in\n    tag_543:\n        /* \"#utility.yul\":19102:19136   */\n      tag_306\n      jump\t// in\n    tag_542:\n        /* \"#utility.yul\":19084:19137   */\n      tag_305\n      jump\t// in\n    tag_541:\n        /* \"#utility.yul\":19071:19137   */\n      swap1\n      pop\n        /* \"#utility.yul\":19001:19143   */\n      swap2\n      swap1\n      pop\n      jump\t// out\n        /* \"#utility.yul\":19149:19224   */\n    tag_308:\n        /* \"#utility.yul\":19192:19195   */\n      0x00\n        /* \"#utility.yul\":19213:19218   */\n      dup2\n        /* \"#utility.yul\":19206:19218   */\n      swap1\n      pop\n        /* \"#utility.yul\":19149:19224   */\n      swap2\n      swap1\n      pop\n      jump\t// out\n        /* \"#utility.yul\":19230:19499   */\n    tag_309:\n        /* \"#utility.yul\":19340:19379   */\n      tag_546\n        /* \"#utility.yul\":19371:19378   */\n      dup4\n        /* \"#utility.yul\":19340:19379   */\n      tag_307\n      jump\t// in\n    tag_546:\n        /* \"#utility.yul\":19401:19492   */\n      tag_547\n        /* \"#utility.yul\":19450:19491   */\n      tag_548\n        /* \"#utility.yul\":19474:19490   */\n      dup3\n        /* \"#utility.yul\":19450:19491   */\n      tag_308\n      jump\t// in\n    tag_548:\n        /* \"#utility.yul\":19442:19448   */\n      dup5\n        /* \"#utility.yul\":19435:19439   */\n      dup5\n        /* \"#utility.yul\":19429:19440   */\n      sload\n        /* \"#utility.yul\":19401:19492   */\n      tag_304\n      jump\t// in\n    tag_547:\n        /* \"#utility.yul\":19395:19399   */\n      dup3\n        /* \"#utility.yul\":19388:19493   */\n      sstore\n        /* \"#utility.yul\":19306:19499   */\n      pop\n        /* \"#utility.yul\":19230:19499   */\n      pop\n      pop\n      pop\n      jump\t// out\n        /* \"#utility.yul\":19505:19578   */\n    tag_310:\n        /* \"#utility.yul\":19550:19553   */\n      0x00\n        /* \"#utility.yul\":19505:19578   */\n      swap1\n      jump\t// out\n        /* \"#utility.yul\":19584:19773   */\n    tag_311:\n        /* \"#utility.yul\":19661:19693   */\n      tag_551\n      tag_310\n      jump\t// in\n    tag_551:\n        /* \"#utility.yul\":19702:19767   */\n      tag_552\n        /* \"#utility.yul\":19760:19766   */\n      dup2\n        /* \"#utility.yul\":19752:19758   */\n      dup5\n        /* \"#utility.yul\":19746:19750   */\n      dup5\n        /* \"#utility.yul\":19702:19767   */\n      tag_309\n      jump\t// in\n    tag_552:\n        /* \"#utility.yul\":19637:19773   */\n      pop\n        /* \"#utility.yul\":19584:19773   */\n      pop\n      pop\n      jump\t// out\n        /* \"#utility.yul\":19779:19965   */\n    tag_312:\n        /* \"#utility.yul\":19839:19959   */\n    tag_554:\n        /* \"#utility.yul\":19856:19859   */\n      dup2\n        /* \"#utility.yul\":19849:19854   */\n      dup2\n        /* \"#utility.yul\":19846:19860   */\n      lt\n        /* \"#utility.yul\":19839:19959   */\n      iszero\n      tag_556\n      jumpi\n        /* \"#utility.yul\":19910:19949   */\n      tag_557\n        /* \"#utility.yul\":19947:19948   */\n      0x00\n        /* \"#utility.yul\":19940:19945   */\n      dup3\n        /* \"#utility.yul\":19910:19949   */\n      tag_311\n      jump\t// in\n    tag_557:\n        /* \"#utility.yul\":19883:19884   */\n      0x01\n        /* \"#utility.yul\":19876:19881   */\n      dup2\n        /* \"#utility.yul\":19872:19885   */\n      add\n        /* \"#utility.yul\":19863:19885   */\n      swap1\n      pop\n        /* \"#utility.yul\":19839:19959   */\n      jump(tag_554)\n    tag_556:\n        /* \"#utility.yul\":19779:19965   */\n      pop\n      pop\n      jump\t// out\n        /* \"#utility.yul\":19971:20514   */\n    tag_313:\n        /* \"#utility.yul\":20072:20074   */\n      0x1f\n        /* \"#utility.yul\":20067:20070   */\n      dup3\n        /* \"#utility.yul\":20064:20075   */\n      gt\n        /* \"#utility.yul\":20061:20507   */\n      iszero\n      tag_559\n      jumpi\n        /* \"#utility.yul\":20106:20144   */\n      tag_560\n        /* \"#utility.yul\":20138:20143   */\n      dup2\n        /* \"#utility.yul\":20106:20144   */\n      tag_301\n      jump\t// in\n    tag_560:\n        /* \"#utility.yul\":20190:20219   */\n      tag_561\n        /* \"#utility.yul\":20208:20218   */\n      dup5\n        /* \"#utility.yul\":20190:20219   */\n      tag_302\n      jump\t// in\n    tag_561:\n        /* \"#utility.yul\":20180:20188   */\n      dup2\n        /* \"#utility.yul\":20176:20220   */\n      add\n        /* \"#utility.yul\":20373:20375   */\n      0x20\n        /* \"#utility.yul\":20361:20371   */\n      dup6\n        /* \"#utility.yul\":20358:20376   */\n      lt\n        /* \"#utility.yul\":20355:20404   */\n      iszero\n      tag_562\n      jumpi\n        /* \"#utility.yul\":20394:20402   */\n      dup2\n        /* \"#utility.yul\":20379:20402   */\n      swap1\n      pop\n        /* \"#utility.yul\":20355:20404   */\n    tag_562:\n        /* \"#utility.yul\":20417:20497   */\n      tag_563\n        /* \"#utility.yul\":20473:20495   */\n      tag_564\n        /* \"#utility.yul\":20491:20494   */\n      dup6\n        /* \"#utility.yul\":20473:20495   */\n      tag_302\n      jump\t// in\n    tag_564:\n        /* \"#utility.yul\":20463:20471   */\n      dup4\n        /* \"#utility.yul\":20459:20496   */\n      add\n        /* \"#utility.yul\":20446:20457   */\n      dup3\n        /* \"#utility.yul\":20417:20497   */\n      tag_312\n      jump\t// in\n    tag_563:\n        /* \"#utility.yul\":20076:20507   */\n      pop\n      pop\n        /* \"#utility.yul\":20061:20507   */\n    tag_559:\n        /* \"#utility.yul\":19971:20514   */\n      pop\n      pop\n      pop\n      jump\t// out\n        /* \"#utility.yul\":20520:20637   */\n    tag_314:\n        /* \"#utility.yul\":20574:20582   */\n      0x00\n        /* \"#utility.yul\":20624:20629   */\n      dup3\n        /* \"#utility.yul\":20618:20622   */\n      dup3\n        /* \"#utility.yul\":20614:20630   */\n      shr\n        /* \"#utility.yul\":20593:20630   */\n      swap1\n      pop\n        /* \"#utility.yul\":20520:20637   */\n      swap3\n      swap2\n      pop\n      pop\n      jump\t// out\n        /* \"#utility.yul\":20643:20812   */\n    tag_315:\n        /* \"#utility.yul\":20687:20693   */\n      0x00\n        /* \"#utility.yul\":20720:20771   */\n      tag_567\n        /* \"#utility.yul\":20768:20769   */\n      0x00\n        /* \"#utility.yul\":20764:20770   */\n      not\n        /* \"#utility.yul\":20756:20761   */\n      dup5\n        /* \"#utility.yul\":20753:20754   */\n      0x08\n        /* \"#utility.yul\":20749:20762   */\n      mul\n        /* \"#utility.yul\":20720:20771   */\n      tag_314\n      jump\t// in\n    tag_567:\n        /* \"#utility.yul\":20716:20772   */\n      not\n        /* \"#utility.yul\":20801:20805   */\n      dup1\n        /* \"#utility.yul\":20795:20799   */\n      dup4\n        /* \"#utility.yul\":20791:20806   */\n      and\n        /* \"#utility.yul\":20781:20806   */\n      swap2\n      pop\n        /* \"#utility.yul\":20694:20812   */\n      pop\n        /* \"#utility.yul\":20643:20812   */\n      swap3\n      swap2\n      pop\n      pop\n      jump\t// out\n        /* \"#utility.yul\":20817:21112   */\n    tag_316:\n        /* \"#utility.yul\":20893:20897   */\n      0x00\n        /* \"#utility.yul\":21039:21068   */\n      tag_569\n        /* \"#utility.yul\":21064:21067   */\n      dup4\n        /* \"#utility.yul\":21058:21062   */\n      dup4\n        /* \"#utility.yul\":21039:21068   */\n      tag_315\n      jump\t// in\n    tag_569:\n        /* \"#utility.yul\":21031:21068   */\n      swap2\n      pop\n        /* \"#utility.yul\":21101:21104   */\n      dup3\n        /* \"#utility.yul\":21098:21099   */\n      0x02\n        /* \"#utility.yul\":21094:21105   */\n      mul\n        /* \"#utility.yul\":21088:21092   */\n      dup3\n        /* \"#utility.yul\":21085:21106   */\n      or\n        /* \"#utility.yul\":21077:21106   */\n      swap1\n      pop\n        /* \"#utility.yul\":20817:21112   */\n      swap3\n      swap2\n      pop\n      pop\n      jump\t// out\n        /* \"#utility.yul\":21117:22512   */\n    tag_77:\n        /* \"#utility.yul\":21234:21271   */\n      tag_571\n        /* \"#utility.yul\":21267:21270   */\n      dup3\n        /* \"#utility.yul\":21234:21271   */\n      tag_275\n      jump\t// in\n    tag_571:\n        /* \"#utility.yul\":21336:21354   */\n      0xffffffffffffffff\n        /* \"#utility.yul\":21328:21334   */\n      dup2\n        /* \"#utility.yul\":21325:21355   */\n      gt\n        /* \"#utility.yul\":21322:21378   */\n      iszero\n      tag_572\n      jumpi\n        /* \"#utility.yul\":21358:21376   */\n      tag_573\n      tag_263\n      jump\t// in\n    tag_573:\n        /* \"#utility.yul\":21322:21378   */\n    tag_572:\n        /* \"#utility.yul\":21402:21440   */\n      tag_574\n        /* \"#utility.yul\":21434:21438   */\n      dup3\n        /* \"#utility.yul\":21428:21439   */\n      sload\n        /* \"#utility.yul\":21402:21440   */\n      tag_107\n      jump\t// in\n    tag_574:\n        /* \"#utility.yul\":21487:21554   */\n      tag_575\n        /* \"#utility.yul\":21547:21553   */\n      dup3\n        /* \"#utility.yul\":21539:21545   */\n      dup3\n        /* \"#utility.yul\":21533:21537   */\n      dup6\n        /* \"#utility.yul\":21487:21554   */\n      tag_313\n      jump\t// in\n    tag_575:\n        /* \"#utility.yul\":21581:21582   */\n      0x00\n        /* \"#utility.yul\":21605:21609   */\n      0x20\n        /* \"#utility.yul\":21592:21609   */\n      swap1\n      pop\n        /* \"#utility.yul\":21637:21639   */\n      0x1f\n        /* \"#utility.yul\":21629:21635   */\n      dup4\n        /* \"#utility.yul\":21626:21640   */\n      gt\n        /* \"#utility.yul\":21654:21655   */\n      0x01\n        /* \"#utility.yul\":21649:22267   */\n      dup2\n      eq\n      tag_577\n      jumpi\n        /* \"#utility.yul\":22311:22312   */\n      0x00\n        /* \"#utility.yul\":22328:22334   */\n      dup5\n        /* \"#utility.yul\":22325:22402   */\n      iszero\n      tag_578\n      jumpi\n        /* \"#utility.yul\":22377:22386   */\n      dup3\n        /* \"#utility.yul\":22372:22375   */\n      dup8\n        /* \"#utility.yul\":22368:22387   */\n      add\n        /* \"#utility.yul\":22362:22388   */\n      mload\n        /* \"#utility.yul\":22353:22388   */\n      swap1\n      pop\n        /* \"#utility.yul\":22325:22402   */\n    tag_578:\n        /* \"#utility.yul\":22428:22495   */\n      tag_579\n        /* \"#utility.yul\":22488:22494   */\n      dup6\n        /* \"#utility.yul\":22481:22486   */\n      dup3\n        /* \"#utility.yul\":22428:22495   */\n      tag_316\n      jump\t// in\n    tag_579:\n        /* \"#utility.yul\":22422:22426   */\n      dup7\n        /* \"#utility.yul\":22415:22496   */\n      sstore\n        /* \"#utility.yul\":22284:22506   */\n      pop\n        /* \"#utility.yul\":21619:22506   */\n      jump(tag_576)\n        /* \"#utility.yul\":21649:22267   */\n    tag_577:\n        /* \"#utility.yul\":21701:21705   */\n      0x1f\n        /* \"#utility.yul\":21697:21706   */\n      not\n        /* \"#utility.yul\":21689:21695   */\n      dup5\n        /* \"#utility.yul\":21685:21707   */\n      and\n        /* \"#utility.yul\":21735:21772   */\n      tag_580\n        /* \"#utility.yul\":21767:21771   */\n      dup7\n        /* \"#utility.yul\":21735:21772   */\n      tag_301\n      jump\t// in\n    tag_580:\n        /* \"#utility.yul\":21794:21795   */\n      0x00\n        /* \"#utility.yul\":21808:22016   */\n    tag_581:\n        /* \"#utility.yul\":21822:21829   */\n      dup3\n        /* \"#utility.yul\":21819:21820   */\n      dup2\n        /* \"#utility.yul\":21816:21830   */\n      lt\n        /* \"#utility.yul\":21808:22016   */\n      iszero\n      tag_583\n      jumpi\n        /* \"#utility.yul\":21901:21910   */\n      dup5\n        /* \"#utility.yul\":21896:21899   */\n      dup10\n        /* \"#utility.yul\":21892:21911   */\n      add\n        /* \"#utility.yul\":21886:21912   */\n      mload\n        /* \"#utility.yul\":21878:21884   */\n      dup3\n        /* \"#utility.yul\":21871:21913   */\n      sstore\n        /* \"#utility.yul\":21952:21953   */\n      0x01\n        /* \"#utility.yul\":21944:21950   */\n      dup3\n        /* \"#utility.yul\":21940:21954   */\n      add\n        /* \"#utility.yul\":21930:21954   */\n      swap2\n      pop\n        /* \"#utility.yul\":21999:22001   */\n      0x20\n        /* \"#utility.yul\":21988:21997   */\n      dup6\n        /* \"#utility.yul\":21984:22002   */\n      add\n        /* \"#utility.yul\":21971:22002   */\n      swap5\n      pop\n        /* \"#utility.yul\":21845:21849   */\n      0x20\n        /* \"#utility.yul\":21842:21843   */\n      dup2\n        /* \"#utility.yul\":21838:21850   */\n      add\n        /* \"#utility.yul\":21833:21850   */\n      swap1\n      pop\n        /* \"#utility.yul\":21808:22016   */\n      jump(tag_581)\n    tag_583:\n        /* \"#utility.yul\":22044:22050   */\n      dup7\n        /* \"#utility.yul\":22035:22042   */\n      dup4\n        /* \"#utility.yul\":22032:22051   */\n      lt\n        /* \"#utility.yul\":22029:22208   */\n      iszero\n      tag_584\n      jumpi\n        /* \"#utility.yul\":22102:22111   */\n      dup5\n        /* \"#utility.yul\":22097:22100   */\n      dup10\n        /* \"#utility.yul\":22093:22112   */\n      add\n        /* \"#utility.yul\":22087:22113   */\n      mload\n        /* \"#utility.yul\":22145:22193   */\n      tag_585\n        /* \"#utility.yul\":22187:22191   */\n      0x1f\n        /* \"#utility.yul\":22179:22185   */\n      dup10\n        /* \"#utility.yul\":22175:22192   */\n      and\n        /* \"#utility.yul\":22164:22173   */\n      dup3\n        /* \"#utility.yul\":22145:22193   */\n      tag_315\n      jump\t// in\n    tag_585:\n        /* \"#utility.yul\":22137:22143   */\n      dup4\n        /* \"#utility.yul\":22130:22194   */\n      sstore\n        /* \"#utility.yul\":22052:22208   */\n      pop\n        /* \"#utility.yul\":22029:22208   */\n    tag_584:\n        /* \"#utility.yul\":22254:22255   */\n      0x01\n        /* \"#utility.yul\":22250:22251   */\n      0x02\n        /* \"#utility.yul\":22242:22248   */\n      dup9\n        /* \"#utility.yul\":22238:22252   */\n      mul\n        /* \"#utility.yul\":22234:22256   */\n      add\n        /* \"#utility.yul\":22228:22232   */\n      dup9\n        /* \"#utility.yul\":22221:22257   */\n      sstore\n        /* \"#utility.yul\":21656:22267   */\n      pop\n      pop\n      pop\n        /* \"#utility.yul\":21619:22506   */\n    tag_576:\n      pop\n        /* \"#utility.yul\":21209:22512   */\n      pop\n      pop\n      pop\n        /* \"#utility.yul\":21117:22512   */\n      pop\n      pop\n      jump\t// out\n        /* \"#utility.yul\":22518:23233   */\n    tag_81:\n        /* \"#utility.yul\":22727:22731   */\n      0x00\n        /* \"#utility.yul\":22765:22767   */\n      0x60\n        /* \"#utility.yul\":22754:22763   */\n      dup3\n        /* \"#utility.yul\":22750:22768   */\n      add\n        /* \"#utility.yul\":22742:22768   */\n      swap1\n      pop\n        /* \"#utility.yul\":22814:22823   */\n      dup2\n        /* \"#utility.yul\":22808:22812   */\n      dup2\n        /* \"#utility.yul\":22804:22824   */\n      sub\n        /* \"#utility.yul\":22800:22801   */\n      0x00\n        /* \"#utility.yul\":22789:22798   */\n      dup4\n        /* \"#utility.yul\":22785:22802   */\n      add\n        /* \"#utility.yul\":22778:22825   */\n      mstore\n        /* \"#utility.yul\":22842:22920   */\n      tag_587\n        /* \"#utility.yul\":22915:22919   */\n      dup2\n        /* \"#utility.yul\":22906:22912   */\n      dup7\n        /* \"#utility.yul\":22842:22920   */\n      tag_288\n      jump\t// in\n    tag_587:\n        /* \"#utility.yul\":22834:22920   */\n      swap1\n      pop\n        /* \"#utility.yul\":22967:22976   */\n      dup2\n        /* \"#utility.yul\":22961:22965   */\n      dup2\n        /* \"#utility.yul\":22957:22977   */\n      sub\n        /* \"#utility.yul\":22952:22954   */\n      0x20\n        /* \"#utility.yul\":22941:22950   */\n      dup4\n        /* \"#utility.yul\":22937:22955   */\n      add\n        /* \"#utility.yul\":22930:22978   */\n      mstore\n        /* \"#utility.yul\":22995:23073   */\n      tag_588\n        /* \"#utility.yul\":23068:23072   */\n      dup2\n        /* \"#utility.yul\":23059:23065   */\n      dup6\n        /* \"#utility.yul\":22995:23073   */\n      tag_288\n      jump\t// in\n    tag_588:\n        /* \"#utility.yul\":22987:23073   */\n      swap1\n      pop\n        /* \"#utility.yul\":23120:23129   */\n      dup2\n        /* \"#utility.yul\":23114:23118   */\n      dup2\n        /* \"#utility.yul\":23110:23130   */\n      sub\n        /* \"#utility.yul\":23105:23107   */\n      0x40\n        /* \"#utility.yul\":23094:23103   */\n      dup4\n        /* \"#utility.yul\":23090:23108   */\n      add\n        /* \"#utility.yul\":23083:23131   */\n      mstore\n        /* \"#utility.yul\":23148:23226   */\n      tag_589\n        /* \"#utility.yul\":23221:23225   */\n      dup2\n        /* \"#utility.yul\":23212:23218   */\n      dup5\n        /* \"#utility.yul\":23148:23226   */\n      tag_288\n      jump\t// in\n    tag_589:\n        /* \"#utility.yul\":23140:23226   */\n      swap1\n      pop\n        /* \"#utility.yul\":22518:23233   */\n      swap5\n      swap4\n      pop\n      pop\n      pop\n      pop\n      jump\t// out\n        /* \"#utility.yul\":23239:23419   */\n    tag_317:\n        /* \"#utility.yul\":23379:23411   */\n      0x4e6577206964656e7469666965722063616e6e6f7420626520656d7074790000\n        /* \"#utility.yul\":23375:23376   */\n      0x00\n        /* \"#utility.yul\":23367:23373   */\n      dup3\n        /* \"#utility.yul\":23363:23377   */\n      add\n        /* \"#utility.yul\":23356:23412   */\n      mstore\n        /* \"#utility.yul\":23239:23419   */\n      pop\n      jump\t// out\n        /* \"#utility.yul\":23425:23791   */\n    tag_318:\n        /* \"#utility.yul\":23567:23570   */\n      0x00\n        /* \"#utility.yul\":23588:23655   */\n      tag_592\n        /* \"#utility.yul\":23652:23654   */\n      0x1e\n        /* \"#utility.yul\":23647:23650   */\n      dup4\n        /* \"#utility.yul\":23588:23655   */\n      tag_287\n      jump\t// in\n    tag_592:\n        /* \"#utility.yul\":23581:23655   */\n      swap2\n      pop\n        /* \"#utility.yul\":23664:23757   */\n      tag_593\n        /* \"#utility.yul\":23753:23756   */\n      dup3\n        /* \"#utility.yul\":23664:23757   */\n      tag_317\n      jump\t// in\n    tag_593:\n        /* \"#utility.yul\":23782:23784   */\n      0x20\n        /* \"#utility.yul\":23777:23780   */\n      dup3\n        /* \"#utility.yul\":23773:23785   */\n      add\n        /* \"#utility.yul\":23766:23785   */\n      swap1\n      pop\n        /* \"#utility.yul\":23425:23791   */\n      swap2\n      swap1\n      pop\n      jump\t// out\n        /* \"#utility.yul\":23797:24216   */\n    tag_85:\n        /* \"#utility.yul\":23963:23967   */\n      0x00\n        /* \"#utility.yul\":24001:24003   */\n      0x20\n        /* \"#utility.yul\":23990:23999   */\n      dup3\n        /* \"#utility.yul\":23986:24004   */\n      add\n        /* \"#utility.yul\":23978:24004   */\n      swap1\n      pop\n        /* \"#utility.yul\":24050:24059   */\n      dup2\n        /* \"#utility.yul\":24044:24048   */\n      dup2\n        /* \"#utility.yul\":24040:24060   */\n      sub\n        /* \"#utility.yul\":24036:24037   */\n      0x00\n        /* \"#utility.yul\":24025:24034   */\n      dup4\n        /* \"#utility.yul\":24021:24038   */\n      add\n        /* \"#utility.yul\":24014:24061   */\n      mstore\n        /* \"#utility.yul\":24078:24209   */\n      tag_595\n        /* \"#utility.yul\":24204:24208   */\n      dup2\n        /* \"#utility.yul\":24078:24209   */\n      tag_318\n      jump\t// in\n    tag_595:\n        /* \"#utility.yul\":24070:24209   */\n      swap1\n      pop\n        /* \"#utility.yul\":23797:24216   */\n      swap2\n      swap1\n      pop\n      jump\t// out\n        /* \"#utility.yul\":24222:24394   */\n    tag_319:\n        /* \"#utility.yul\":24362:24386   */\n      0x496e76616c6964206e6577206964656e74696669657200000000000000000000\n        /* \"#utility.yul\":24358:24359   */\n      0x00\n        /* \"#utility.yul\":24350:24356   */\n      dup3\n        /* \"#utility.yul\":24346:24360   */\n      add\n        /* \"#utility.yul\":24339:24387   */\n      mstore\n        /* \"#utility.yul\":24222:24394   */\n      pop\n      jump\t// out\n        /* \"#utility.yul\":24400:24766   */\n    tag_320:\n        /* \"#utility.yul\":24542:24545   */\n      0x00\n        /* \"#utility.yul\":24563:24630   */\n      tag_598\n        /* \"#utility.yul\":24627:24629   */\n      0x16\n        /* \"#utility.yul\":24622:24625   */\n      dup4\n        /* \"#utility.yul\":24563:24630   */\n      tag_287\n      jump\t// in\n    tag_598:\n        /* \"#utility.yul\":24556:24630   */\n      swap2\n      pop\n        /* \"#utility.yul\":24639:24732   */\n      tag_599\n        /* \"#utility.yul\":24728:24731   */\n      dup3\n        /* \"#utility.yul\":24639:24732   */\n      tag_319\n      jump\t// in\n    tag_599:\n        /* \"#utility.yul\":24757:24759   */\n      0x20\n        /* \"#utility.yul\":24752:24755   */\n      dup3\n        /* \"#utility.yul\":24748:24760   */\n      add\n        /* \"#utility.yul\":24741:24760   */\n      swap1\n      pop\n        /* \"#utility.yul\":24400:24766   */\n      swap2\n      swap1\n      pop\n      jump\t// out\n        /* \"#utility.yul\":24772:25191   */\n    tag_91:\n        /* \"#utility.yul\":24938:24942   */\n      0x00\n        /* \"#utility.yul\":24976:24978   */\n      0x20\n        /* \"#utility.yul\":24965:24974   */\n      dup3\n        /* \"#utility.yul\":24961:24979   */\n      add\n        /* \"#utility.yul\":24953:24979   */\n      swap1\n      pop\n        /* \"#utility.yul\":25025:25034   */\n      dup2\n        /* \"#utility.yul\":25019:25023   */\n      dup2\n        /* \"#utility.yul\":25015:25035   */\n      sub\n        /* \"#utility.yul\":25011:25012   */\n      0x00\n        /* \"#utility.yul\":25000:25009   */\n      dup4\n        /* \"#utility.yul\":24996:25013   */\n      add\n        /* \"#utility.yul\":24989:25036   */\n      mstore\n        /* \"#utility.yul\":25053:25184   */\n      tag_601\n        /* \"#utility.yul\":25179:25183   */\n      dup2\n        /* \"#utility.yul\":25053:25184   */\n      tag_320\n      jump\t// in\n    tag_601:\n        /* \"#utility.yul\":25045:25184   */\n      swap1\n      pop\n        /* \"#utility.yul\":24772:25191   */\n      swap2\n      swap1\n      pop\n      jump\t// out\n        /* \"#utility.yul\":25197:25373   */\n    tag_321:\n        /* \"#utility.yul\":25337:25365   */\n      0x4964656e7469666965722063616e6e6f7420626520656d707479000000000000\n        /* \"#utility.yul\":25333:25334   */\n      0x00\n        /* \"#utility.yul\":25325:25331   */\n      dup3\n        /* \"#utility.yul\":25321:25335   */\n      add\n        /* \"#utility.yul\":25314:25366   */\n      mstore\n        /* \"#utility.yul\":25197:25373   */\n      pop\n      jump\t// out\n        /* \"#utility.yul\":25379:25745   */\n    tag_322:\n        /* \"#utility.yul\":25521:25524   */\n      0x00\n        /* \"#utility.yul\":25542:25609   */\n      tag_604\n        /* \"#utility.yul\":25606:25608   */\n      0x1a\n        /* \"#utility.yul\":25601:25604   */\n      dup4\n        /* \"#utility.yul\":25542:25609   */\n      tag_287\n      jump\t// in\n    tag_604:\n        /* \"#utility.yul\":25535:25609   */\n      swap2\n      pop\n        /* \"#utility.yul\":25618:25711   */\n      tag_605\n        /* \"#utility.yul\":25707:25710   */\n      dup3\n        /* \"#utility.yul\":25618:25711   */\n      tag_321\n      jump\t// in\n    tag_605:\n        /* \"#utility.yul\":25736:25738   */\n      0x20\n        /* \"#utility.yul\":25731:25734   */\n      dup3\n        /* \"#utility.yul\":25727:25739   */\n      add\n        /* \"#utility.yul\":25720:25739   */\n      swap1\n      pop\n        /* \"#utility.yul\":25379:25745   */\n      swap2\n      swap1\n      pop\n      jump\t// out\n        /* \"#utility.yul\":25751:26170   */\n    tag_97:\n        /* \"#utility.yul\":25917:25921   */\n      0x00\n        /* \"#utility.yul\":25955:25957   */\n      0x20\n        /* \"#utility.yul\":25944:25953   */\n      dup3\n        /* \"#utility.yul\":25940:25958   */\n      add\n        /* \"#utility.yul\":25932:25958   */\n      swap1\n      pop\n        /* \"#utility.yul\":26004:26013   */\n      dup2\n        /* \"#utility.yul\":25998:26002   */\n      dup2\n        /* \"#utility.yul\":25994:26014   */\n      sub\n        /* \"#utility.yul\":25990:25991   */\n      0x00\n        /* \"#utility.yul\":25979:25988   */\n      dup4\n        /* \"#utility.yul\":25975:25992   */\n      add\n        /* \"#utility.yul\":25968:26015   */\n      mstore\n        /* \"#utility.yul\":26032:26163   */\n      tag_607\n        /* \"#utility.yul\":26158:26162   */\n      dup2\n        /* \"#utility.yul\":26032:26163   */\n      tag_322\n      jump\t// in\n    tag_607:\n        /* \"#utility.yul\":26024:26163   */\n      swap1\n      pop\n        /* \"#utility.yul\":25751:26170   */\n      swap2\n      swap1\n      pop\n      jump\t// out\n        /* \"#utility.yul\":26176:26398   */\n    tag_323:\n        /* \"#utility.yul\":26316:26350   */\n      0x44494420616c72656164792065786973747320666f7220746869732061646472\n        /* \"#utility.yul\":26312:26313   */\n      0x00\n        /* \"#utility.yul\":26304:26310   */\n      dup3\n        /* \"#utility.yul\":26300:26314   */\n      add\n        /* \"#utility.yul\":26293:26351   */\n      mstore\n        /* \"#utility.yul\":26385:26390   */\n      0x6573730000000000000000000000000000000000000000000000000000000000\n        /* \"#utility.yul\":26380:26382   */\n      0x20\n        /* \"#utility.yul\":26372:26378   */\n      dup3\n        /* \"#utility.yul\":26368:26383   */\n      add\n        /* \"#utility.yul\":26361:26391   */\n      mstore\n        /* \"#utility.yul\":26176:26398   */\n      pop\n      jump\t// out\n        /* \"#utility.yul\":26404:26770   */\n    tag_324:\n        /* \"#utility.yul\":26546:26549   */\n      0x00\n        /* \"#utility.yul\":26567:26634   */\n      tag_610\n        /* \"#utility.yul\":26631:26633   */\n      0x23\n        /* \"#utility.yul\":26626:26629   */\n      dup4\n        /* \"#utility.yul\":26567:26634   */\n      tag_287\n      jump\t// in\n    tag_610:\n        /* \"#utility.yul\":26560:26634   */\n      swap2\n      pop\n        /* \"#utility.yul\":26643:26736   */\n      tag_611\n        /* \"#utility.yul\":26732:26735   */\n      dup3\n        /* \"#utility.yul\":26643:26736   */\n      tag_323\n      jump\t// in\n    tag_611:\n        /* \"#utility.yul\":26761:26763   */\n      0x40\n        /* \"#utility.yul\":26756:26759   */\n      dup3\n        /* \"#utility.yul\":26752:26764   */\n      add\n        /* \"#utility.yul\":26745:26764   */\n      swap1\n      pop\n        /* \"#utility.yul\":26404:26770   */\n      swap2\n      swap1\n      pop\n      jump\t// out\n        /* \"#utility.yul\":26776:27195   */\n    tag_100:\n        /* \"#utility.yul\":26942:26946   */\n      0x00\n        /* \"#utility.yul\":26980:26982   */\n      0x20\n        /* \"#utility.yul\":26969:26978   */\n      dup3\n        /* \"#utility.yul\":26965:26983   */\n      add\n        /* \"#utility.yul\":26957:26983   */\n      swap1\n      pop\n        /* \"#utility.yul\":27029:27038   */\n      dup2\n        /* \"#utility.yul\":27023:27027   */\n      dup2\n        /* \"#utility.yul\":27019:27039   */\n      sub\n        /* \"#utility.yul\":27015:27016   */\n      0x00\n        /* \"#utility.yul\":27004:27013   */\n      dup4\n        /* \"#utility.yul\":27000:27017   */\n      add\n        /* \"#utility.yul\":26993:27040   */\n      mstore\n        /* \"#utility.yul\":27057:27188   */\n      tag_613\n        /* \"#utility.yul\":27183:27187   */\n      dup2\n        /* \"#utility.yul\":27057:27188   */\n      tag_324\n      jump\t// in\n    tag_613:\n        /* \"#utility.yul\":27049:27188   */\n      swap1\n      pop\n        /* \"#utility.yul\":26776:27195   */\n      swap2\n      swap1\n      pop\n      jump\t// out\n        /* \"#utility.yul\":27201:27349   */\n    tag_325:\n        /* \"#utility.yul\":27303:27314   */\n      0x00\n        /* \"#utility.yul\":27340:27343   */\n      dup2\n        /* \"#utility.yul\":27325:27343   */\n      swap1\n      pop\n        /* \"#utility.yul\":27201:27349   */\n      swap3\n      swap2\n      pop\n      pop\n      jump\t// out\n        /* \"#utility.yul\":27355:27745   */\n    tag_326:\n        /* \"#utility.yul\":27461:27464   */\n      0x00\n        /* \"#utility.yul\":27489:27528   */\n      tag_616\n        /* \"#utility.yul\":27522:27527   */\n      dup3\n        /* \"#utility.yul\":27489:27528   */\n      tag_275\n      jump\t// in\n    tag_616:\n        /* \"#utility.yul\":27544:27633   */\n      tag_617\n        /* \"#utility.yul\":27626:27632   */\n      dup2\n        /* \"#utility.yul\":27621:27624   */\n      dup6\n        /* \"#utility.yul\":27544:27633   */\n      tag_325\n      jump\t// in\n    tag_617:\n        /* \"#utility.yul\":27537:27633   */\n      swap4\n      pop\n        /* \"#utility.yul\":27642:27707   */\n      tag_618\n        /* \"#utility.yul\":27700:27706   */\n      dup2\n        /* \"#utility.yul\":27695:27698   */\n      dup6\n        /* \"#utility.yul\":27688:27692   */\n      0x20\n        /* \"#utility.yul\":27681:27686   */\n      dup7\n        /* \"#utility.yul\":27677:27693   */\n      add\n        /* \"#utility.yul\":27642:27707   */\n      tag_277\n      jump\t// in\n    tag_618:\n        /* \"#utility.yul\":27732:27738   */\n      dup1\n        /* \"#utility.yul\":27727:27730   */\n      dup5\n        /* \"#utility.yul\":27723:27739   */\n      add\n        /* \"#utility.yul\":27716:27739   */\n      swap2\n      pop\n        /* \"#utility.yul\":27465:27745   */\n      pop\n        /* \"#utility.yul\":27355:27745   */\n      swap3\n      swap2\n      pop\n      pop\n      jump\t// out\n        /* \"#utility.yul\":27751:28186   */\n    tag_123:\n        /* \"#utility.yul\":27931:27934   */\n      0x00\n        /* \"#utility.yul\":27953:28048   */\n      tag_620\n        /* \"#utility.yul\":28044:28047   */\n      dup3\n        /* \"#utility.yul\":28035:28041   */\n      dup6\n        /* \"#utility.yul\":27953:28048   */\n      tag_326\n      jump\t// in\n    tag_620:\n        /* \"#utility.yul\":27946:28048   */\n      swap2\n      pop\n        /* \"#utility.yul\":28065:28160   */\n      tag_621\n        /* \"#utility.yul\":28156:28159   */\n      dup3\n        /* \"#utility.yul\":28147:28153   */\n      dup5\n        /* \"#utility.yul\":28065:28160   */\n      tag_326\n      jump\t// in\n    tag_621:\n        /* \"#utility.yul\":28058:28160   */\n      swap2\n      pop\n        /* \"#utility.yul\":28177:28180   */\n      dup2\n        /* \"#utility.yul\":28170:28180   */\n      swap1\n      pop\n        /* \"#utility.yul\":27751:28186   */\n      swap4\n      swap3\n      pop\n      pop\n      pop\n      jump\t// out\n        /* \"#utility.yul\":28192:28414   */\n    tag_327:\n        /* \"#utility.yul\":28332:28366   */\n      0x4e6f206578697374696e672044494420666f756e6420666f7220746869732075\n        /* \"#utility.yul\":28328:28329   */\n      0x00\n        /* \"#utility.yul\":28320:28326   */\n      dup3\n        /* \"#utility.yul\":28316:28330   */\n      add\n        /* \"#utility.yul\":28309:28367   */\n      mstore\n        /* \"#utility.yul\":28401:28406   */\n      0x7365720000000000000000000000000000000000000000000000000000000000\n        /* \"#utility.yul\":28396:28398   */\n      0x20\n        /* \"#utility.yul\":28388:28394   */\n      dup3\n        /* \"#utility.yul\":28384:28399   */\n      add\n        /* \"#utility.yul\":28377:28407   */\n      mstore\n        /* \"#utility.yul\":28192:28414   */\n      pop\n      jump\t// out\n        /* \"#utility.yul\":28420:28786   */\n    tag_328:\n        /* \"#utility.yul\":28562:28565   */\n      0x00\n        /* \"#utility.yul\":28583:28650   */\n      tag_624\n        /* \"#utility.yul\":28647:28649   */\n      0x23\n        /* \"#utility.yul\":28642:28645   */\n      dup4\n        /* \"#utility.yul\":28583:28650   */\n      tag_287\n      jump\t// in\n    tag_624:\n        /* \"#utility.yul\":28576:28650   */\n      swap2\n      pop\n        /* \"#utility.yul\":28659:28752   */\n      tag_625\n        /* \"#utility.yul\":28748:28751   */\n      dup3\n        /* \"#utility.yul\":28659:28752   */\n      tag_327\n      jump\t// in\n    tag_625:\n        /* \"#utility.yul\":28777:28779   */\n      0x40\n        /* \"#utility.yul\":28772:28775   */\n      dup3\n        /* \"#utility.yul\":28768:28780   */\n      add\n        /* \"#utility.yul\":28761:28780   */\n      swap1\n      pop\n        /* \"#utility.yul\":28420:28786   */\n      swap2\n      swap1\n      pop\n      jump\t// out\n        /* \"#utility.yul\":28792:29211   */\n    tag_147:\n        /* \"#utility.yul\":28958:28962   */\n      0x00\n        /* \"#utility.yul\":28996:28998   */\n      0x20\n        /* \"#utility.yul\":28985:28994   */\n      dup3\n        /* \"#utility.yul\":28981:28999   */\n      add\n        /* \"#utility.yul\":28973:28999   */\n      swap1\n      pop\n        /* \"#utility.yul\":29045:29054   */\n      dup2\n        /* \"#utility.yul\":29039:29043   */\n      dup2\n        /* \"#utility.yul\":29035:29055   */\n      sub\n        /* \"#utility.yul\":29031:29032   */\n      0x00\n        /* \"#utility.yul\":29020:29029   */\n      dup4\n        /* \"#utility.yul\":29016:29033   */\n      add\n        /* \"#utility.yul\":29009:29056   */\n      mstore\n        /* \"#utility.yul\":29073:29204   */\n      tag_627\n        /* \"#utility.yul\":29199:29203   */\n      dup2\n        /* \"#utility.yul\":29073:29204   */\n      tag_328\n      jump\t// in\n    tag_627:\n        /* \"#utility.yul\":29065:29204   */\n      swap1\n      pop\n        /* \"#utility.yul\":28792:29211   */\n      swap2\n      swap1\n      pop\n      jump\t// out\n        /* \"#utility.yul\":29217:29437   */\n    tag_329:\n        /* \"#utility.yul\":29357:29391   */\n      0x5573657220646f6573206e6f74206861766520616e792063726564656e746961\n        /* \"#utility.yul\":29353:29354   */\n      0x00\n        /* \"#utility.yul\":29345:29351   */\n      dup3\n        /* \"#utility.yul\":29341:29355   */\n      add\n        /* \"#utility.yul\":29334:29392   */\n      mstore\n        /* \"#utility.yul\":29426:29429   */\n      0x6c00000000000000000000000000000000000000000000000000000000000000\n        /* \"#utility.yul\":29421:29423   */\n      0x20\n        /* \"#utility.yul\":29413:29419   */\n      dup3\n        /* \"#utility.yul\":29409:29424   */\n      add\n        /* \"#utility.yul\":29402:29430   */\n      mstore\n        /* \"#utility.yul\":29217:29437   */\n      pop\n      jump\t// out\n        /* \"#utility.yul\":29443:29809   */\n    tag_330:\n        /* \"#utility.yul\":29585:29588   */\n      0x00\n        /* \"#utility.yul\":29606:29673   */\n      tag_630\n        /* \"#utility.yul\":29670:29672   */\n      0x21\n        /* \"#utility.yul\":29665:29668   */\n      dup4\n        /* \"#utility.yul\":29606:29673   */\n      tag_287\n      jump\t// in\n    tag_630:\n        /* \"#utility.yul\":29599:29673   */\n      swap2\n      pop\n        /* \"#utility.yul\":29682:29775   */\n      tag_631\n        /* \"#utility.yul\":29771:29774   */\n      dup3\n        /* \"#utility.yul\":29682:29775   */\n      tag_329\n      jump\t// in\n    tag_631:\n        /* \"#utility.yul\":29800:29802   */\n      0x40\n        /* \"#utility.yul\":29795:29798   */\n      dup3\n        /* \"#utility.yul\":29791:29803   */\n      add\n        /* \"#utility.yul\":29784:29803   */\n      swap1\n      pop\n        /* \"#utility.yul\":29443:29809   */\n      swap2\n      swap1\n      pop\n      jump\t// out\n        /* \"#utility.yul\":29815:30234   */\n    tag_150:\n        /* \"#utility.yul\":29981:29985   */\n      0x00\n        /* \"#utility.yul\":30019:30021   */\n      0x20\n        /* \"#utility.yul\":30008:30017   */\n      dup3\n        /* \"#utility.yul\":30004:30022   */\n      add\n        /* \"#utility.yul\":29996:30022   */\n      swap1\n      pop\n        /* \"#utility.yul\":30068:30077   */\n      dup2\n        /* \"#utility.yul\":30062:30066   */\n      dup2\n        /* \"#utility.yul\":30058:30078   */\n      sub\n        /* \"#utility.yul\":30054:30055   */\n      0x00\n        /* \"#utility.yul\":30043:30052   */\n      dup4\n        /* \"#utility.yul\":30039:30056   */\n      add\n        /* \"#utility.yul\":30032:30079   */\n      mstore\n        /* \"#utility.yul\":30096:30227   */\n      tag_633\n        /* \"#utility.yul\":30222:30226   */\n      dup2\n        /* \"#utility.yul\":30096:30227   */\n      tag_330\n      jump\t// in\n    tag_633:\n        /* \"#utility.yul\":30088:30227   */\n      swap1\n      pop\n        /* \"#utility.yul\":29815:30234   */\n      swap2\n      swap1\n      pop\n      jump\t// out\n        /* \"#utility.yul\":30240:30420   */\n    tag_164:\n        /* \"#utility.yul\":30288:30365   */\n      0x4e487b7100000000000000000000000000000000000000000000000000000000\n        /* \"#utility.yul\":30285:30286   */\n      0x00\n        /* \"#utility.yul\":30278:30366   */\n      mstore\n        /* \"#utility.yul\":30385:30389   */\n      0x32\n        /* \"#utility.yul\":30382:30383   */\n      0x04\n        /* \"#utility.yul\":30375:30390   */\n      mstore\n        /* \"#utility.yul\":30409:30413   */\n      0x24\n        /* \"#utility.yul\":30406:30407   */\n      0x00\n        /* \"#utility.yul\":30399:30414   */\n      revert\n        /* \"#utility.yul\":30426:30541   */\n    tag_331:\n        /* \"#utility.yul\":30511:30534   */\n      tag_636\n        /* \"#utility.yul\":30528:30533   */\n      dup2\n        /* \"#utility.yul\":30511:30534   */\n      tag_284\n      jump\t// in\n    tag_636:\n        /* \"#utility.yul\":30506:30509   */\n      dup3\n        /* \"#utility.yul\":30499:30535   */\n      mstore\n        /* \"#utility.yul\":30426:30541   */\n      pop\n      pop\n      jump\t// out\n        /* \"#utility.yul\":30547:30863   */\n    tag_170:\n        /* \"#utility.yul\":30660:30664   */\n      0x00\n        /* \"#utility.yul\":30698:30700   */\n      0x40\n        /* \"#utility.yul\":30687:30696   */\n      dup3\n        /* \"#utility.yul\":30683:30701   */\n      add\n        /* \"#utility.yul\":30675:30701   */\n      swap1\n      pop\n        /* \"#utility.yul\":30711:30780   */\n      tag_638\n        /* \"#utility.yul\":30777:30778   */\n      0x00\n        /* \"#utility.yul\":30766:30775   */\n      dup4\n        /* \"#utility.yul\":30762:30779   */\n      add\n        /* \"#utility.yul\":30753:30759   */\n      dup6\n        /* \"#utility.yul\":30711:30780   */\n      tag_331\n      jump\t// in\n    tag_638:\n        /* \"#utility.yul\":30790:30856   */\n      tag_639\n        /* \"#utility.yul\":30852:30854   */\n      0x20\n        /* \"#utility.yul\":30841:30850   */\n      dup4\n        /* \"#utility.yul\":30837:30855   */\n      add\n        /* \"#utility.yul\":30828:30834   */\n      dup5\n        /* \"#utility.yul\":30790:30856   */\n      tag_274\n      jump\t// in\n    tag_639:\n        /* \"#utility.yul\":30547:30863   */\n      swap4\n      swap3\n      pop\n      pop\n      pop\n      jump\t// out\n        /* \"#utility.yul\":30869:31016   */\n    tag_332:\n        /* \"#utility.yul\":30970:30981   */\n      0x00\n        /* \"#utility.yul\":31007:31010   */\n      dup2\n        /* \"#utility.yul\":30992:31010   */\n      swap1\n      pop\n        /* \"#utility.yul\":30869:31016   */\n      swap3\n      swap2\n      pop\n      pop\n      jump\t// out\n        /* \"#utility.yul\":31022:31166   */\n    tag_333:\n        /* \"#utility.yul\":31074:31078   */\n      0x00\n        /* \"#utility.yul\":31097:31100   */\n      dup2\n        /* \"#utility.yul\":31089:31100   */\n      swap1\n      pop\n        /* \"#utility.yul\":31120:31123   */\n      dup2\n        /* \"#utility.yul\":31117:31118   */\n      0x00\n        /* \"#utility.yul\":31110:31124   */\n      mstore\n        /* \"#utility.yul\":31154:31158   */\n      0x20\n        /* \"#utility.yul\":31151:31152   */\n      0x00\n        /* \"#utility.yul\":31141:31159   */\n      keccak256\n        /* \"#utility.yul\":31133:31159   */\n      swap1\n      pop\n        /* \"#utility.yul\":31022:31166   */\n      swap2\n      swap1\n      pop\n      jump\t// out\n        /* \"#utility.yul\":31194:32072   */\n    tag_334:\n        /* \"#utility.yul\":31299:31302   */\n      0x00\n        /* \"#utility.yul\":31336:31341   */\n      dup2\n        /* \"#utility.yul\":31330:31342   */\n      sload\n        /* \"#utility.yul\":31365:31401   */\n      tag_643\n        /* \"#utility.yul\":31391:31400   */\n      dup2\n        /* \"#utility.yul\":31365:31401   */\n      tag_107\n      jump\t// in\n    tag_643:\n        /* \"#utility.yul\":31417:31505   */\n      tag_644\n        /* \"#utility.yul\":31498:31504   */\n      dup2\n        /* \"#utility.yul\":31493:31496   */\n      dup7\n        /* \"#utility.yul\":31417:31505   */\n      tag_332\n      jump\t// in\n    tag_644:\n        /* \"#utility.yul\":31410:31505   */\n      swap5\n      pop\n        /* \"#utility.yul\":31536:31537   */\n      0x01\n        /* \"#utility.yul\":31525:31534   */\n      dup3\n        /* \"#utility.yul\":31521:31538   */\n      and\n        /* \"#utility.yul\":31552:31553   */\n      0x00\n        /* \"#utility.yul\":31547:31713   */\n      dup2\n      eq\n      tag_646\n      jumpi\n        /* \"#utility.yul\":31727:31728   */\n      0x01\n        /* \"#utility.yul\":31722:32066   */\n      dup2\n      eq\n      tag_647\n      jumpi\n        /* \"#utility.yul\":31514:32066   */\n      jump(tag_645)\n        /* \"#utility.yul\":31547:31713   */\n    tag_646:\n        /* \"#utility.yul\":31631:31635   */\n      0xff\n        /* \"#utility.yul\":31627:31636   */\n      not\n        /* \"#utility.yul\":31616:31625   */\n      dup4\n        /* \"#utility.yul\":31612:31637   */\n      and\n        /* \"#utility.yul\":31607:31610   */\n      dup7\n        /* \"#utility.yul\":31600:31638   */\n      mstore\n        /* \"#utility.yul\":31693:31699   */\n      dup2\n        /* \"#utility.yul\":31686:31700   */\n      iszero\n        /* \"#utility.yul\":31679:31701   */\n      iszero\n        /* \"#utility.yul\":31671:31677   */\n      dup3\n        /* \"#utility.yul\":31667:31702   */\n      mul\n        /* \"#utility.yul\":31662:31665   */\n      dup7\n        /* \"#utility.yul\":31658:31703   */\n      add\n        /* \"#utility.yul\":31651:31703   */\n      swap4\n      pop\n        /* \"#utility.yul\":31547:31713   */\n      jump(tag_645)\n        /* \"#utility.yul\":31722:32066   */\n    tag_647:\n        /* \"#utility.yul\":31789:31830   */\n      tag_648\n        /* \"#utility.yul\":31824:31829   */\n      dup6\n        /* \"#utility.yul\":31789:31830   */\n      tag_333\n      jump\t// in\n    tag_648:\n        /* \"#utility.yul\":31852:31853   */\n      0x00\n        /* \"#utility.yul\":31866:32020   */\n    tag_649:\n        /* \"#utility.yul\":31880:31886   */\n      dup4\n        /* \"#utility.yul\":31877:31878   */\n      dup2\n        /* \"#utility.yul\":31874:31887   */\n      lt\n        /* \"#utility.yul\":31866:32020   */\n      iszero\n      tag_651\n      jumpi\n        /* \"#utility.yul\":31954:31961   */\n      dup2\n        /* \"#utility.yul\":31948:31962   */\n      sload\n        /* \"#utility.yul\":31944:31945   */\n      dup2\n        /* \"#utility.yul\":31939:31942   */\n      dup10\n        /* \"#utility.yul\":31935:31946   */\n      add\n        /* \"#utility.yul\":31928:31963   */\n      mstore\n        /* \"#utility.yul\":32004:32005   */\n      0x01\n        /* \"#utility.yul\":31995:32002   */\n      dup3\n        /* \"#utility.yul\":31991:32006   */\n      add\n        /* \"#utility.yul\":31980:32006   */\n      swap2\n      pop\n        /* \"#utility.yul\":31902:31906   */\n      0x20\n        /* \"#utility.yul\":31899:31900   */\n      dup2\n        /* \"#utility.yul\":31895:31907   */\n      add\n        /* \"#utility.yul\":31890:31907   */\n      swap1\n      pop\n        /* \"#utility.yul\":31866:32020   */\n      jump(tag_649)\n    tag_651:\n        /* \"#utility.yul\":32049:32055   */\n      dup4\n        /* \"#utility.yul\":32044:32047   */\n      dup9\n        /* \"#utility.yul\":32040:32056   */\n      add\n        /* \"#utility.yul\":32033:32056   */\n      swap6\n      pop\n        /* \"#utility.yul\":31729:32066   */\n      pop\n      pop\n        /* \"#utility.yul\":31514:32066   */\n    tag_645:\n      pop\n        /* \"#utility.yul\":31303:32072   */\n      pop\n      pop\n        /* \"#utility.yul\":31194:32072   */\n      swap3\n      swap2\n      pop\n      pop\n      jump\t// out\n        /* \"#utility.yul\":32078:32351   */\n    tag_175:\n        /* \"#utility.yul\":32209:32212   */\n      0x00\n        /* \"#utility.yul\":32231:32325   */\n      tag_653\n        /* \"#utility.yul\":32321:32324   */\n      dup3\n        /* \"#utility.yul\":32312:32318   */\n      dup5\n        /* \"#utility.yul\":32231:32325   */\n      tag_334\n      jump\t// in\n    tag_653:\n        /* \"#utility.yul\":32224:32325   */\n      swap2\n      pop\n        /* \"#utility.yul\":32342:32345   */\n      dup2\n        /* \"#utility.yul\":32335:32345   */\n      swap1\n      pop\n        /* \"#utility.yul\":32078:32351   */\n      swap3\n      swap2\n      pop\n      pop\n      jump\t// out\n        /* \"#utility.yul\":32357:32526   */\n    tag_335:\n        /* \"#utility.yul\":32497:32518   */\n      0x556e617574686f72697a656420616374696f6e00000000000000000000000000\n        /* \"#utility.yul\":32493:32494   */\n      0x00\n        /* \"#utility.yul\":32485:32491   */\n      dup3\n        /* \"#utility.yul\":32481:32495   */\n      add\n        /* \"#utility.yul\":32474:32519   */\n      mstore\n        /* \"#utility.yul\":32357:32526   */\n      pop\n      jump\t// out\n        /* \"#utility.yul\":32532:32898   */\n    tag_336:\n        /* \"#utility.yul\":32674:32677   */\n      0x00\n        /* \"#utility.yul\":32695:32762   */\n      tag_656\n        /* \"#utility.yul\":32759:32761   */\n      0x13\n        /* \"#utility.yul\":32754:32757   */\n      dup4\n        /* \"#utility.yul\":32695:32762   */\n      tag_287\n      jump\t// in\n    tag_656:\n        /* \"#utility.yul\":32688:32762   */\n      swap2\n      pop\n        /* \"#utility.yul\":32771:32864   */\n      tag_657\n        /* \"#utility.yul\":32860:32863   */\n      dup3\n        /* \"#utility.yul\":32771:32864   */\n      tag_335\n      jump\t// in\n    tag_657:\n        /* \"#utility.yul\":32889:32891   */\n      0x20\n        /* \"#utility.yul\":32884:32887   */\n      dup3\n        /* \"#utility.yul\":32880:32892   */\n      add\n        /* \"#utility.yul\":32873:32892   */\n      swap1\n      pop\n        /* \"#utility.yul\":32532:32898   */\n      swap2\n      swap1\n      pop\n      jump\t// out\n        /* \"#utility.yul\":32904:33323   */\n    tag_178:\n        /* \"#utility.yul\":33070:33074   */\n      0x00\n        /* \"#utility.yul\":33108:33110   */\n      0x20\n        /* \"#utility.yul\":33097:33106   */\n      dup3\n        /* \"#utility.yul\":33093:33111   */\n      add\n        /* \"#utility.yul\":33085:33111   */\n      swap1\n      pop\n        /* \"#utility.yul\":33157:33166   */\n      dup2\n        /* \"#utility.yul\":33151:33155   */\n      dup2\n        /* \"#utility.yul\":33147:33167   */\n      sub\n        /* \"#utility.yul\":33143:33144   */\n      0x00\n        /* \"#utility.yul\":33132:33141   */\n      dup4\n        /* \"#utility.yul\":33128:33145   */\n      add\n        /* \"#utility.yul\":33121:33168   */\n      mstore\n        /* \"#utility.yul\":33185:33316   */\n      tag_659\n        /* \"#utility.yul\":33311:33315   */\n      dup2\n        /* \"#utility.yul\":33185:33316   */\n      tag_336\n      jump\t// in\n    tag_659:\n        /* \"#utility.yul\":33177:33316   */\n      swap1\n      pop\n        /* \"#utility.yul\":32904:33323   */\n      swap2\n      swap1\n      pop\n      jump\t// out\n        /* \"#utility.yul\":33329:33499   */\n    tag_337:\n        /* \"#utility.yul\":33469:33491   */\n      0x526f6c652063616e6e6f7420626520656d707479000000000000000000000000\n        /* \"#utility.yul\":33465:33466   */\n      0x00\n        /* \"#utility.yul\":33457:33463   */\n      dup3\n        /* \"#utility.yul\":33453:33467   */\n      add\n        /* \"#utility.yul\":33446:33492   */\n      mstore\n        /* \"#utility.yul\":33329:33499   */\n      pop\n      jump\t// out\n        /* \"#utility.yul\":33505:33871   */\n    tag_338:\n        /* \"#utility.yul\":33647:33650   */\n      0x00\n        /* \"#utility.yul\":33668:33735   */\n      tag_662\n        /* \"#utility.yul\":33732:33734   */\n      0x14\n        /* \"#utility.yul\":33727:33730   */\n      dup4\n        /* \"#utility.yul\":33668:33735   */\n      tag_287\n      jump\t// in\n    tag_662:\n        /* \"#utility.yul\":33661:33735   */\n      swap2\n      pop\n        /* \"#utility.yul\":33744:33837   */\n      tag_663\n        /* \"#utility.yul\":33833:33836   */\n      dup3\n        /* \"#utility.yul\":33744:33837   */\n      tag_337\n      jump\t// in\n    tag_663:\n        /* \"#utility.yul\":33862:33864   */\n      0x20\n        /* \"#utility.yul\":33857:33860   */\n      dup3\n        /* \"#utility.yul\":33853:33865   */\n      add\n        /* \"#utility.yul\":33846:33865   */\n      swap1\n      pop\n        /* \"#utility.yul\":33505:33871   */\n      swap2\n      swap1\n      pop\n      jump\t// out\n        /* \"#utility.yul\":33877:34296   */\n    tag_184:\n        /* \"#utility.yul\":34043:34047   */\n      0x00\n        /* \"#utility.yul\":34081:34083   */\n      0x20\n        /* \"#utility.yul\":34070:34079   */\n      dup3\n        /* \"#utility.yul\":34066:34084   */\n      add\n        /* \"#utility.yul\":34058:34084   */\n      swap1\n      pop\n        /* \"#utility.yul\":34130:34139   */\n      dup2\n        /* \"#utility.yul\":34124:34128   */\n      dup2\n        /* \"#utility.yul\":34120:34140   */\n      sub\n        /* \"#utility.yul\":34116:34117   */\n      0x00\n        /* \"#utility.yul\":34105:34114   */\n      dup4\n        /* \"#utility.yul\":34101:34118   */\n      add\n        /* \"#utility.yul\":34094:34141   */\n      mstore\n        /* \"#utility.yul\":34158:34289   */\n      tag_665\n        /* \"#utility.yul\":34284:34288   */\n      dup2\n        /* \"#utility.yul\":34158:34289   */\n      tag_338\n      jump\t// in\n    tag_665:\n        /* \"#utility.yul\":34150:34289   */\n      swap1\n      pop\n        /* \"#utility.yul\":33877:34296   */\n      swap2\n      swap1\n      pop\n      jump\t// out\n        /* \"#utility.yul\":34302:34396   */\n    tag_339:\n        /* \"#utility.yul\":34335:34343   */\n      0x00\n        /* \"#utility.yul\":34383:34388   */\n      dup2\n        /* \"#utility.yul\":34379:34381   */\n      0x60\n        /* \"#utility.yul\":34375:34389   */\n      shl\n        /* \"#utility.yul\":34354:34389   */\n      swap1\n      pop\n        /* \"#utility.yul\":34302:34396   */\n      swap2\n      swap1\n      pop\n      jump\t// out\n        /* \"#utility.yul\":34402:34496   */\n    tag_340:\n        /* \"#utility.yul\":34441:34448   */\n      0x00\n        /* \"#utility.yul\":34470:34490   */\n      tag_668\n        /* \"#utility.yul\":34484:34489   */\n      dup3\n        /* \"#utility.yul\":34470:34490   */\n      tag_339\n      jump\t// in\n    tag_668:\n        /* \"#utility.yul\":34459:34490   */\n      swap1\n      pop\n        /* \"#utility.yul\":34402:34496   */\n      swap2\n      swap1\n      pop\n      jump\t// out\n        /* \"#utility.yul\":34502:34602   */\n    tag_341:\n        /* \"#utility.yul\":34541:34548   */\n      0x00\n        /* \"#utility.yul\":34570:34596   */\n      tag_670\n        /* \"#utility.yul\":34590:34595   */\n      dup3\n        /* \"#utility.yul\":34570:34596   */\n      tag_340\n      jump\t// in\n    tag_670:\n        /* \"#utility.yul\":34559:34596   */\n      swap1\n      pop\n        /* \"#utility.yul\":34502:34602   */\n      swap2\n      swap1\n      pop\n      jump\t// out\n        /* \"#utility.yul\":34608:34765   */\n    tag_342:\n        /* \"#utility.yul\":34713:34758   */\n      tag_672\n        /* \"#utility.yul\":34733:34757   */\n      tag_673\n        /* \"#utility.yul\":34751:34756   */\n      dup3\n        /* \"#utility.yul\":34733:34757   */\n      tag_281\n      jump\t// in\n    tag_673:\n        /* \"#utility.yul\":34713:34758   */\n      tag_341\n      jump\t// in\n    tag_672:\n        /* \"#utility.yul\":34708:34711   */\n      dup3\n        /* \"#utility.yul\":34701:34759   */\n      mstore\n        /* \"#utility.yul\":34608:34765   */\n      pop\n      pop\n      jump\t// out\n        /* \"#utility.yul\":34771:34849   */\n    tag_343:\n        /* \"#utility.yul\":34809:34816   */\n      0x00\n        /* \"#utility.yul\":34838:34843   */\n      dup2\n        /* \"#utility.yul\":34827:34843   */\n      swap1\n      pop\n        /* \"#utility.yul\":34771:34849   */\n      swap2\n      swap1\n      pop\n      jump\t// out\n        /* \"#utility.yul\":34855:35008   */\n    tag_344:\n        /* \"#utility.yul\":34958:35001   */\n      tag_676\n        /* \"#utility.yul\":34977:35000   */\n      tag_677\n        /* \"#utility.yul\":34994:34999   */\n      dup3\n        /* \"#utility.yul\":34977:35000   */\n      tag_284\n      jump\t// in\n    tag_677:\n        /* \"#utility.yul\":34958:35001   */\n      tag_343\n      jump\t// in\n    tag_676:\n        /* \"#utility.yul\":34953:34956   */\n      dup3\n        /* \"#utility.yul\":34946:35002   */\n      mstore\n        /* \"#utility.yul\":34855:35008   */\n      pop\n      pop\n      jump\t// out\n        /* \"#utility.yul\":35014:35093   */\n    tag_345:\n        /* \"#utility.yul\":35053:35060   */\n      0x00\n        /* \"#utility.yul\":35082:35087   */\n      dup2\n        /* \"#utility.yul\":35071:35087   */\n      swap1\n      pop\n        /* \"#utility.yul\":35014:35093   */\n      swap2\n      swap1\n      pop\n      jump\t// out\n        /* \"#utility.yul\":35099:35256   */\n    tag_346:\n        /* \"#utility.yul\":35204:35249   */\n      tag_680\n        /* \"#utility.yul\":35224:35248   */\n      tag_681\n        /* \"#utility.yul\":35242:35247   */\n      dup3\n        /* \"#utility.yul\":35224:35248   */\n      tag_305\n      jump\t// in\n    tag_681:\n        /* \"#utility.yul\":35204:35249   */\n      tag_345\n      jump\t// in\n    tag_680:\n        /* \"#utility.yul\":35199:35202   */\n      dup3\n        /* \"#utility.yul\":35192:35250   */\n      mstore\n        /* \"#utility.yul\":35099:35256   */\n      pop\n      pop\n      jump\t// out\n        /* \"#utility.yul\":35262:36097   */\n    tag_199:\n        /* \"#utility.yul\":35504:35507   */\n      0x00\n        /* \"#utility.yul\":35519:35594   */\n      tag_683\n        /* \"#utility.yul\":35590:35593   */\n      dup3\n        /* \"#utility.yul\":35581:35587   */\n      dup9\n        /* \"#utility.yul\":35519:35594   */\n      tag_342\n      jump\t// in\n    tag_683:\n        /* \"#utility.yul\":35619:35621   */\n      0x14\n        /* \"#utility.yul\":35614:35617   */\n      dup3\n        /* \"#utility.yul\":35610:35622   */\n      add\n        /* \"#utility.yul\":35603:35622   */\n      swap2\n      pop\n        /* \"#utility.yul\":35632:35707   */\n      tag_684\n        /* \"#utility.yul\":35703:35706   */\n      dup3\n        /* \"#utility.yul\":35694:35700   */\n      dup8\n        /* \"#utility.yul\":35632:35707   */\n      tag_342\n      jump\t// in\n    tag_684:\n        /* \"#utility.yul\":35732:35734   */\n      0x14\n        /* \"#utility.yul\":35727:35730   */\n      dup3\n        /* \"#utility.yul\":35723:35735   */\n      add\n        /* \"#utility.yul\":35716:35735   */\n      swap2\n      pop\n        /* \"#utility.yul\":35745:35818   */\n      tag_685\n        /* \"#utility.yul\":35814:35817   */\n      dup3\n        /* \"#utility.yul\":35805:35811   */\n      dup7\n        /* \"#utility.yul\":35745:35818   */\n      tag_344\n      jump\t// in\n    tag_685:\n        /* \"#utility.yul\":35843:35845   */\n      0x20\n        /* \"#utility.yul\":35838:35841   */\n      dup3\n        /* \"#utility.yul\":35834:35846   */\n      add\n        /* \"#utility.yul\":35827:35846   */\n      swap2\n      pop\n        /* \"#utility.yul\":35863:35958   */\n      tag_686\n        /* \"#utility.yul\":35954:35957   */\n      dup3\n        /* \"#utility.yul\":35945:35951   */\n      dup6\n        /* \"#utility.yul\":35863:35958   */\n      tag_326\n      jump\t// in\n    tag_686:\n        /* \"#utility.yul\":35856:35958   */\n      swap2\n      pop\n        /* \"#utility.yul\":35968:36043   */\n      tag_687\n        /* \"#utility.yul\":36039:36042   */\n      dup3\n        /* \"#utility.yul\":36030:36036   */\n      dup5\n        /* \"#utility.yul\":35968:36043   */\n      tag_346\n      jump\t// in\n    tag_687:\n        /* \"#utility.yul\":36068:36070   */\n      0x20\n        /* \"#utility.yul\":36063:36066   */\n      dup3\n        /* \"#utility.yul\":36059:36071   */\n      add\n        /* \"#utility.yul\":36052:36071   */\n      swap2\n      pop\n        /* \"#utility.yul\":36088:36091   */\n      dup2\n        /* \"#utility.yul\":36081:36091   */\n      swap1\n      pop\n        /* \"#utility.yul\":35262:36097   */\n      swap7\n      swap6\n      pop\n      pop\n      pop\n      pop\n      pop\n      pop\n      jump\t// out\n        /* \"#utility.yul\":36103:36801   */\n    tag_201:\n        /* \"#utility.yul\":36319:36322   */\n      0x00\n        /* \"#utility.yul\":36334:36409   */\n      tag_689\n        /* \"#utility.yul\":36405:36408   */\n      dup3\n        /* \"#utility.yul\":36396:36402   */\n      dup8\n        /* \"#utility.yul\":36334:36409   */\n      tag_342\n      jump\t// in\n    tag_689:\n        /* \"#utility.yul\":36434:36436   */\n      0x14\n        /* \"#utility.yul\":36429:36432   */\n      dup3\n        /* \"#utility.yul\":36425:36437   */\n      add\n        /* \"#utility.yul\":36418:36437   */\n      swap2\n      pop\n        /* \"#utility.yul\":36447:36522   */\n      tag_690\n        /* \"#utility.yul\":36518:36521   */\n      dup3\n        /* \"#utility.yul\":36509:36515   */\n      dup7\n        /* \"#utility.yul\":36447:36522   */\n      tag_342\n      jump\t// in\n    tag_690:\n        /* \"#utility.yul\":36547:36549   */\n      0x14\n        /* \"#utility.yul\":36542:36545   */\n      dup3\n        /* \"#utility.yul\":36538:36550   */\n      add\n        /* \"#utility.yul\":36531:36550   */\n      swap2\n      pop\n        /* \"#utility.yul\":36567:36662   */\n      tag_691\n        /* \"#utility.yul\":36658:36661   */\n      dup3\n        /* \"#utility.yul\":36649:36655   */\n      dup6\n        /* \"#utility.yul\":36567:36662   */\n      tag_326\n      jump\t// in\n    tag_691:\n        /* \"#utility.yul\":36560:36662   */\n      swap2\n      pop\n        /* \"#utility.yul\":36672:36747   */\n      tag_692\n        /* \"#utility.yul\":36743:36746   */\n      dup3\n        /* \"#utility.yul\":36734:36740   */\n      dup5\n        /* \"#utility.yul\":36672:36747   */\n      tag_346\n      jump\t// in\n    tag_692:\n        /* \"#utility.yul\":36772:36774   */\n      0x20\n        /* \"#utility.yul\":36767:36770   */\n      dup3\n        /* \"#utility.yul\":36763:36775   */\n      add\n        /* \"#utility.yul\":36756:36775   */\n      swap2\n      pop\n        /* \"#utility.yul\":36792:36795   */\n      dup2\n        /* \"#utility.yul\":36785:36795   */\n      swap1\n      pop\n        /* \"#utility.yul\":36103:36801   */\n      swap6\n      swap5\n      pop\n      pop\n      pop\n      pop\n      pop\n      jump\t// out\n        /* \"#utility.yul\":36807:37482   */\n    tag_203:\n        /* \"#utility.yul\":37001:37004   */\n      0x00\n        /* \"#utility.yul\":37016:37091   */\n      tag_694\n        /* \"#utility.yul\":37087:37090   */\n      dup3\n        /* \"#utility.yul\":37078:37084   */\n      dup8\n        /* \"#utility.yul\":37016:37091   */\n      tag_342\n      jump\t// in\n    tag_694:\n        /* \"#utility.yul\":37116:37118   */\n      0x14\n        /* \"#utility.yul\":37111:37114   */\n      dup3\n        /* \"#utility.yul\":37107:37119   */\n      add\n        /* \"#utility.yul\":37100:37119   */\n      swap2\n      pop\n        /* \"#utility.yul\":37129:37204   */\n      tag_695\n        /* \"#utility.yul\":37200:37203   */\n      dup3\n        /* \"#utility.yul\":37191:37197   */\n      dup7\n        /* \"#utility.yul\":37129:37204   */\n      tag_342\n      jump\t// in\n    tag_695:\n        /* \"#utility.yul\":37229:37231   */\n      0x14\n        /* \"#utility.yul\":37224:37227   */\n      dup3\n        /* \"#utility.yul\":37220:37232   */\n      add\n        /* \"#utility.yul\":37213:37232   */\n      swap2\n      pop\n        /* \"#utility.yul\":37242:37315   */\n      tag_696\n        /* \"#utility.yul\":37311:37314   */\n      dup3\n        /* \"#utility.yul\":37302:37308   */\n      dup6\n        /* \"#utility.yul\":37242:37315   */\n      tag_344\n      jump\t// in\n    tag_696:\n        /* \"#utility.yul\":37340:37342   */\n      0x20\n        /* \"#utility.yul\":37335:37338   */\n      dup3\n        /* \"#utility.yul\":37331:37343   */\n      add\n        /* \"#utility.yul\":37324:37343   */\n      swap2\n      pop\n        /* \"#utility.yul\":37353:37428   */\n      tag_697\n        /* \"#utility.yul\":37424:37427   */\n      dup3\n        /* \"#utility.yul\":37415:37421   */\n      dup5\n        /* \"#utility.yul\":37353:37428   */\n      tag_346\n      jump\t// in\n    tag_697:\n        /* \"#utility.yul\":37453:37455   */\n      0x20\n        /* \"#utility.yul\":37448:37451   */\n      dup3\n        /* \"#utility.yul\":37444:37456   */\n      add\n        /* \"#utility.yul\":37437:37456   */\n      swap2\n      pop\n        /* \"#utility.yul\":37473:37476   */\n      dup2\n        /* \"#utility.yul\":37466:37476   */\n      swap1\n      pop\n        /* \"#utility.yul\":36807:37482   */\n      swap6\n      swap5\n      pop\n      pop\n      pop\n      pop\n      pop\n      jump\t// out\n        /* \"#utility.yul\":37488:37584   */\n    tag_347:\n        /* \"#utility.yul\":37522:37530   */\n      0x00\n        /* \"#utility.yul\":37571:37576   */\n      dup2\n        /* \"#utility.yul\":37566:37569   */\n      0xf8\n        /* \"#utility.yul\":37562:37577   */\n      shl\n        /* \"#utility.yul\":37541:37577   */\n      swap1\n      pop\n        /* \"#utility.yul\":37488:37584   */\n      swap2\n      swap1\n      pop\n      jump\t// out\n        /* \"#utility.yul\":37590:37683   */\n    tag_348:\n        /* \"#utility.yul\":37627:37634   */\n      0x00\n        /* \"#utility.yul\":37656:37677   */\n      tag_700\n        /* \"#utility.yul\":37671:37676   */\n      dup3\n        /* \"#utility.yul\":37656:37677   */\n      tag_347\n      jump\t// in\n    tag_700:\n        /* \"#utility.yul\":37645:37677   */\n      swap1\n      pop\n        /* \"#utility.yul\":37590:37683   */\n      swap2\n      swap1\n      pop\n      jump\t// out\n        /* \"#utility.yul\":37689:37784   */\n    tag_349:\n        /* \"#utility.yul\":37725:37732   */\n      0x00\n        /* \"#utility.yul\":37754:37778   */\n      tag_702\n        /* \"#utility.yul\":37772:37777   */\n      dup3\n        /* \"#utility.yul\":37754:37778   */\n      tag_348\n      jump\t// in\n    tag_702:\n        /* \"#utility.yul\":37743:37778   */\n      swap1\n      pop\n        /* \"#utility.yul\":37689:37784   */\n      swap2\n      swap1\n      pop\n      jump\t// out\n        /* \"#utility.yul\":37790:37935   */\n    tag_350:\n        /* \"#utility.yul\":37889:37928   */\n      tag_704\n        /* \"#utility.yul\":37906:37927   */\n      tag_705\n        /* \"#utility.yul\":37921:37926   */\n      dup3\n        /* \"#utility.yul\":37906:37927   */\n      tag_273\n      jump\t// in\n    tag_705:\n        /* \"#utility.yul\":37889:37928   */\n      tag_349\n      jump\t// in\n    tag_704:\n        /* \"#utility.yul\":37884:37887   */\n      dup3\n        /* \"#utility.yul\":37877:37929   */\n      mstore\n        /* \"#utility.yul\":37790:37935   */\n      pop\n      pop\n      jump\t// out\n        /* \"#utility.yul\":37941:38607   */\n    tag_205:\n        /* \"#utility.yul\":38131:38134   */\n      0x00\n        /* \"#utility.yul\":38146:38221   */\n      tag_707\n        /* \"#utility.yul\":38217:38220   */\n      dup3\n        /* \"#utility.yul\":38208:38214   */\n      dup8\n        /* \"#utility.yul\":38146:38221   */\n      tag_342\n      jump\t// in\n    tag_707:\n        /* \"#utility.yul\":38246:38248   */\n      0x14\n        /* \"#utility.yul\":38241:38244   */\n      dup3\n        /* \"#utility.yul\":38237:38249   */\n      add\n        /* \"#utility.yul\":38230:38249   */\n      swap2\n      pop\n        /* \"#utility.yul\":38259:38334   */\n      tag_708\n        /* \"#utility.yul\":38330:38333   */\n      dup3\n        /* \"#utility.yul\":38321:38327   */\n      dup7\n        /* \"#utility.yul\":38259:38334   */\n      tag_342\n      jump\t// in\n    tag_708:\n        /* \"#utility.yul\":38359:38361   */\n      0x14\n        /* \"#utility.yul\":38354:38357   */\n      dup3\n        /* \"#utility.yul\":38350:38362   */\n      add\n        /* \"#utility.yul\":38343:38362   */\n      swap2\n      pop\n        /* \"#utility.yul\":38372:38441   */\n      tag_709\n        /* \"#utility.yul\":38437:38440   */\n      dup3\n        /* \"#utility.yul\":38428:38434   */\n      dup6\n        /* \"#utility.yul\":38372:38441   */\n      tag_350\n      jump\t// in\n    tag_709:\n        /* \"#utility.yul\":38466:38467   */\n      0x01\n        /* \"#utility.yul\":38461:38464   */\n      dup3\n        /* \"#utility.yul\":38457:38468   */\n      add\n        /* \"#utility.yul\":38450:38468   */\n      swap2\n      pop\n        /* \"#utility.yul\":38478:38553   */\n      tag_710\n        /* \"#utility.yul\":38549:38552   */\n      dup3\n        /* \"#utility.yul\":38540:38546   */\n      dup5\n        /* \"#utility.yul\":38478:38553   */\n      tag_346\n      jump\t// in\n    tag_710:\n        /* \"#utility.yul\":38578:38580   */\n      0x20\n        /* \"#utility.yul\":38573:38576   */\n      dup3\n        /* \"#utility.yul\":38569:38581   */\n      add\n        /* \"#utility.yul\":38562:38581   */\n      swap2\n      pop\n        /* \"#utility.yul\":38598:38601   */\n      dup2\n        /* \"#utility.yul\":38591:38601   */\n      swap1\n      pop\n        /* \"#utility.yul\":37941:38607   */\n      swap6\n      swap5\n      pop\n      pop\n      pop\n      pop\n      pop\n      jump\t// out\n        /* \"#utility.yul\":38613:38731   */\n    tag_351:\n        /* \"#utility.yul\":38700:38724   */\n      tag_712\n        /* \"#utility.yul\":38718:38723   */\n      dup2\n        /* \"#utility.yul\":38700:38724   */\n      tag_281\n      jump\t// in\n    tag_712:\n        /* \"#utility.yul\":38695:38698   */\n      dup3\n        /* \"#utility.yul\":38688:38725   */\n      mstore\n        /* \"#utility.yul\":38613:38731   */\n      pop\n      pop\n      jump\t// out\n        /* \"#utility.yul\":38737:39377   */\n    tag_211:\n        /* \"#utility.yul\":38932:38936   */\n      0x00\n        /* \"#utility.yul\":38970:38973   */\n      0x80\n        /* \"#utility.yul\":38959:38968   */\n      dup3\n        /* \"#utility.yul\":38955:38974   */\n      add\n        /* \"#utility.yul\":38947:38974   */\n      swap1\n      pop\n        /* \"#utility.yul\":38984:39055   */\n      tag_714\n        /* \"#utility.yul\":39052:39053   */\n      0x00\n        /* \"#utility.yul\":39041:39050   */\n      dup4\n        /* \"#utility.yul\":39037:39054   */\n      add\n        /* \"#utility.yul\":39028:39034   */\n      dup8\n        /* \"#utility.yul\":38984:39055   */\n      tag_351\n      jump\t// in\n    tag_714:\n        /* \"#utility.yul\":39065:39135   */\n      tag_715\n        /* \"#utility.yul\":39131:39133   */\n      0x20\n        /* \"#utility.yul\":39120:39129   */\n      dup4\n        /* \"#utility.yul\":39116:39134   */\n      add\n        /* \"#utility.yul\":39107:39113   */\n      dup7\n        /* \"#utility.yul\":39065:39135   */\n      tag_331\n      jump\t// in\n    tag_715:\n        /* \"#utility.yul\":39182:39191   */\n      dup2\n        /* \"#utility.yul\":39176:39180   */\n      dup2\n        /* \"#utility.yul\":39172:39192   */\n      sub\n        /* \"#utility.yul\":39167:39169   */\n      0x40\n        /* \"#utility.yul\":39156:39165   */\n      dup4\n        /* \"#utility.yul\":39152:39170   */\n      add\n        /* \"#utility.yul\":39145:39193   */\n      mstore\n        /* \"#utility.yul\":39210:39288   */\n      tag_716\n        /* \"#utility.yul\":39283:39287   */\n      dup2\n        /* \"#utility.yul\":39274:39280   */\n      dup6\n        /* \"#utility.yul\":39210:39288   */\n      tag_288\n      jump\t// in\n    tag_716:\n        /* \"#utility.yul\":39202:39288   */\n      swap1\n      pop\n        /* \"#utility.yul\":39298:39370   */\n      tag_717\n        /* \"#utility.yul\":39366:39368   */\n      0x60\n        /* \"#utility.yul\":39355:39364   */\n      dup4\n        /* \"#utility.yul\":39351:39369   */\n      add\n        /* \"#utility.yul\":39342:39348   */\n      dup5\n        /* \"#utility.yul\":39298:39370   */\n      tag_289\n      jump\t// in\n    tag_717:\n        /* \"#utility.yul\":38737:39377   */\n      swap6\n      swap5\n      pop\n      pop\n      pop\n      pop\n      pop\n      jump\t// out\n        /* \"#utility.yul\":39383:39562   */\n    tag_352:\n        /* \"#utility.yul\":39523:39554   */\n      0x4e6f2044494420666f756e6420666f7220746869732061646472657373000000\n        /* \"#utility.yul\":39519:39520   */\n      0x00\n        /* \"#utility.yul\":39511:39517   */\n      dup3\n        /* \"#utility.yul\":39507:39521   */\n      add\n        /* \"#utility.yul\":39500:39555   */\n      mstore\n        /* \"#utility.yul\":39383:39562   */\n      pop\n      jump\t// out\n        /* \"#utility.yul\":39568:39934   */\n    tag_353:\n        /* \"#utility.yul\":39710:39713   */\n      0x00\n        /* \"#utility.yul\":39731:39798   */\n      tag_720\n        /* \"#utility.yul\":39795:39797   */\n      0x1d\n        /* \"#utility.yul\":39790:39793   */\n      dup4\n        /* \"#utility.yul\":39731:39798   */\n      tag_287\n      jump\t// in\n    tag_720:\n        /* \"#utility.yul\":39724:39798   */\n      swap2\n      pop\n        /* \"#utility.yul\":39807:39900   */\n      tag_721\n        /* \"#utility.yul\":39896:39899   */\n      dup3\n        /* \"#utility.yul\":39807:39900   */\n      tag_352\n      jump\t// in\n    tag_721:\n        /* \"#utility.yul\":39925:39927   */\n      0x20\n        /* \"#utility.yul\":39920:39923   */\n      dup3\n        /* \"#utility.yul\":39916:39928   */\n      add\n        /* \"#utility.yul\":39909:39928   */\n      swap1\n      pop\n        /* \"#utility.yul\":39568:39934   */\n      swap2\n      swap1\n      pop\n      jump\t// out\n        /* \"#utility.yul\":39940:40359   */\n    tag_215:\n        /* \"#utility.yul\":40106:40110   */\n      0x00\n        /* \"#utility.yul\":40144:40146   */\n      0x20\n        /* \"#utility.yul\":40133:40142   */\n      dup3\n        /* \"#utility.yul\":40129:40147   */\n      add\n        /* \"#utility.yul\":40121:40147   */\n      swap1\n      pop\n        /* \"#utility.yul\":40193:40202   */\n      dup2\n        /* \"#utility.yul\":40187:40191   */\n      dup2\n        /* \"#utility.yul\":40183:40203   */\n      sub\n        /* \"#utility.yul\":40179:40180   */\n      0x00\n        /* \"#utility.yul\":40168:40177   */\n      dup4\n        /* \"#utility.yul\":40164:40181   */\n      add\n        /* \"#utility.yul\":40157:40204   */\n      mstore\n        /* \"#utility.yul\":40221:40352   */\n      tag_723\n        /* \"#utility.yul\":40347:40351   */\n      dup2\n        /* \"#utility.yul\":40221:40352   */\n      tag_353\n      jump\t// in\n    tag_723:\n        /* \"#utility.yul\":40213:40352   */\n      swap1\n      pop\n        /* \"#utility.yul\":39940:40359   */\n      swap2\n      swap1\n      pop\n      jump\t// out\n        /* \"#utility.yul\":40365:40545   */\n    tag_354:\n        /* \"#utility.yul\":40413:40490   */\n      0x4e487b7100000000000000000000000000000000000000000000000000000000\n        /* \"#utility.yul\":40410:40411   */\n      0x00\n        /* \"#utility.yul\":40403:40491   */\n      mstore\n        /* \"#utility.yul\":40510:40514   */\n      0x11\n        /* \"#utility.yul\":40507:40508   */\n      0x04\n        /* \"#utility.yul\":40500:40515   */\n      mstore\n        /* \"#utility.yul\":40534:40538   */\n      0x24\n        /* \"#utility.yul\":40531:40532   */\n      0x00\n        /* \"#utility.yul\":40524:40539   */\n      revert\n        /* \"#utility.yul\":40551:40745   */\n    tag_231:\n        /* \"#utility.yul\":40591:40595   */\n      0x00\n        /* \"#utility.yul\":40611:40631   */\n      tag_726\n        /* \"#utility.yul\":40629:40630   */\n      dup3\n        /* \"#utility.yul\":40611:40631   */\n      tag_305\n      jump\t// in\n    tag_726:\n        /* \"#utility.yul\":40606:40631   */\n      swap2\n      pop\n        /* \"#utility.yul\":40645:40665   */\n      tag_727\n        /* \"#utility.yul\":40663:40664   */\n      dup4\n        /* \"#utility.yul\":40645:40665   */\n      tag_305\n      jump\t// in\n    tag_727:\n        /* \"#utility.yul\":40640:40665   */\n      swap3\n      pop\n        /* \"#utility.yul\":40689:40690   */\n      dup3\n        /* \"#utility.yul\":40686:40687   */\n      dup3\n        /* \"#utility.yul\":40682:40691   */\n      sub\n        /* \"#utility.yul\":40674:40691   */\n      swap1\n      pop\n        /* \"#utility.yul\":40713:40714   */\n      dup2\n        /* \"#utility.yul\":40707:40711   */\n      dup2\n        /* \"#utility.yul\":40704:40715   */\n      gt\n        /* \"#utility.yul\":40701:40738   */\n      iszero\n      tag_728\n      jumpi\n        /* \"#utility.yul\":40718:40736   */\n      tag_729\n      tag_354\n      jump\t// in\n    tag_729:\n        /* \"#utility.yul\":40701:40738   */\n    tag_728:\n        /* \"#utility.yul\":40551:40745   */\n      swap3\n      swap2\n      pop\n      pop\n      jump\t// out\n        /* \"#utility.yul\":40751:41162   */\n    tag_242:\n        /* \"#utility.yul\":40886:40890   */\n      0x00\n        /* \"#utility.yul\":40924:40926   */\n      0x40\n        /* \"#utility.yul\":40913:40922   */\n      dup3\n        /* \"#utility.yul\":40909:40927   */\n      add\n        /* \"#utility.yul\":40901:40927   */\n      swap1\n      pop\n        /* \"#utility.yul\":40973:40982   */\n      dup2\n        /* \"#utility.yul\":40967:40971   */\n      dup2\n        /* \"#utility.yul\":40963:40983   */\n      sub\n        /* \"#utility.yul\":40959:40960   */\n      0x00\n        /* \"#utility.yul\":40948:40957   */\n      dup4\n        /* \"#utility.yul\":40944:40961   */\n      add\n        /* \"#utility.yul\":40937:40984   */\n      mstore\n        /* \"#utility.yul\":41001:41079   */\n      tag_731\n        /* \"#utility.yul\":41074:41078   */\n      dup2\n        /* \"#utility.yul\":41065:41071   */\n      dup6\n        /* \"#utility.yul\":41001:41079   */\n      tag_288\n      jump\t// in\n    tag_731:\n        /* \"#utility.yul\":40993:41079   */\n      swap1\n      pop\n        /* \"#utility.yul\":41089:41155   */\n      tag_732\n        /* \"#utility.yul\":41151:41153   */\n      0x20\n        /* \"#utility.yul\":41140:41149   */\n      dup4\n        /* \"#utility.yul\":41136:41154   */\n      add\n        /* \"#utility.yul\":41127:41133   */\n      dup5\n        /* \"#utility.yul\":41089:41155   */\n      tag_274\n      jump\t// in\n    tag_732:\n        /* \"#utility.yul\":40751:41162   */\n      swap4\n      swap3\n      pop\n      pop\n      pop\n      jump\t// out\n        /* \"#utility.yul\":41168:41349   */\n    tag_355:\n        /* \"#utility.yul\":41308:41341   */\n      0x4e6f20726f6c65732061737369676e656420666f722074686973207573657200\n        /* \"#utility.yul\":41304:41305   */\n      0x00\n        /* \"#utility.yul\":41296:41302   */\n      dup3\n        /* \"#utility.yul\":41292:41306   */\n      add\n        /* \"#utility.yul\":41285:41342   */\n      mstore\n        /* \"#utility.yul\":41168:41349   */\n      pop\n      jump\t// out\n        /* \"#utility.yul\":41355:41721   */\n    tag_356:\n        /* \"#utility.yul\":41497:41500   */\n      0x00\n        /* \"#utility.yul\":41518:41585   */\n      tag_735\n        /* \"#utility.yul\":41582:41584   */\n      0x1f\n        /* \"#utility.yul\":41577:41580   */\n      dup4\n        /* \"#utility.yul\":41518:41585   */\n      tag_287\n      jump\t// in\n    tag_735:\n        /* \"#utility.yul\":41511:41585   */\n      swap2\n      pop\n        /* \"#utility.yul\":41594:41687   */\n      tag_736\n        /* \"#utility.yul\":41683:41686   */\n      dup3\n        /* \"#utility.yul\":41594:41687   */\n      tag_355\n      jump\t// in\n    tag_736:\n        /* \"#utility.yul\":41712:41714   */\n      0x20\n        /* \"#utility.yul\":41707:41710   */\n      dup3\n        /* \"#utility.yul\":41703:41715   */\n      add\n        /* \"#utility.yul\":41696:41715   */\n      swap1\n      pop\n        /* \"#utility.yul\":41355:41721   */\n      swap2\n      swap1\n      pop\n      jump\t// out\n        /* \"#utility.yul\":41727:42146   */\n    tag_256:\n        /* \"#utility.yul\":41893:41897   */\n      0x00\n        /* \"#utility.yul\":41931:41933   */\n      0x20\n        /* \"#utility.yul\":41920:41929   */\n      dup3\n        /* \"#utility.yul\":41916:41934   */\n      add\n        /* \"#utility.yul\":41908:41934   */\n      swap1\n      pop\n        /* \"#utility.yul\":41980:41989   */\n      dup2\n        /* \"#utility.yul\":41974:41978   */\n      dup2\n        /* \"#utility.yul\":41970:41990   */\n      sub\n        /* \"#utility.yul\":41966:41967   */\n      0x00\n        /* \"#utility.yul\":41955:41964   */\n      dup4\n        /* \"#utility.yul\":41951:41968   */\n      add\n        /* \"#utility.yul\":41944:41991   */\n      mstore\n        /* \"#utility.yul\":42008:42139   */\n      tag_738\n        /* \"#utility.yul\":42134:42138   */\n      dup2\n        /* \"#utility.yul\":42008:42139   */\n      tag_356\n      jump\t// in\n    tag_738:\n        /* \"#utility.yul\":42000:42139   */\n      swap1\n      pop\n        /* \"#utility.yul\":41727:42146   */\n      swap2\n      swap1\n      pop\n      jump\t// out\n\n    auxdata: 0xa2646970667358221220e44d8e21c66d0448cc9bc7f7a857190040e7890650f6823e84e51c606033696064736f6c634300081a0033\n}\n",
				"bytecode": {
					"linkReferences": {},
					"object": "608060405234801561000f575f80fd5b506040518060400160405280600781526020017f6d616e616765720000000000000000000000000000000000000000000000000081525060015f3373ffffffffffffffffffffffffffffffffffffffff1673ffffffffffffffffffffffffffffffffffffffff1681526020019081526020015f20908161008f919061036e565b5060025f3373ffffffffffffffffffffffffffffffffffffffff1673ffffffffffffffffffffffffffffffffffffffff1681526020019081526020015f208060018154018082558091505060019003905f5260205f20015f6040518060400160405280600781526020017f6d616e61676572000000000000000000000000000000000000000000000000008152509091909150908161012e919061036e565b5061043d565b5f81519050919050565b7f4e487b71000000000000000000000000000000000000000000000000000000005f52604160045260245ffd5b7f4e487b71000000000000000000000000000000000000000000000000000000005f52602260045260245ffd5b5f60028204905060018216806101af57607f821691505b6020821081036101c2576101c161016b565b5b50919050565b5f819050815f5260205f209050919050565b5f6020601f8301049050919050565b5f82821b905092915050565b5f600883026102247fffffffffffffffffffffffffffffffffffffffffffffffffffffffffffffffff826101e9565b61022e86836101e9565b95508019841693508086168417925050509392505050565b5f819050919050565b5f819050919050565b5f61027261026d61026884610246565b61024f565b610246565b9050919050565b5f819050919050565b61028b83610258565b61029f61029782610279565b8484546101f5565b825550505050565b5f90565b6102b36102a7565b6102be818484610282565b505050565b5b818110156102e1576102d65f826102ab565b6001810190506102c4565b5050565b601f821115610326576102f7816101c8565b610300846101da565b8101602085101561030f578190505b61032361031b856101da565b8301826102c3565b50505b505050565b5f82821c905092915050565b5f6103465f198460080261032b565b1980831691505092915050565b5f61035e8383610337565b9150826002028217905092915050565b61037782610134565b67ffffffffffffffff8111156103905761038f61013e565b5b61039a8254610198565b6103a58282856102e5565b5f60209050601f8311600181146103d6575f84156103c4578287015190505b6103ce8582610353565b865550610435565b601f1984166103e4866101c8565b5f5b8281101561040b578489015182556001820191506020850194506020810190506103e6565b868310156104285784890151610424601f891682610337565b8355505b6001600288020188555050505b505050505050565b6137ad8061044a5f395ff3fe608060405234801561000f575f80fd5b50600436106100b2575f3560e01c8063b7dfcbee1161006f578063b7dfcbee14610188578063b8d44845146101a4578063bc9c2d55146101c0578063e1e7a16e146101de578063e4f0c22b1461020e578063fde081741461023e576100b2565b80630890d80c146100b657806314c95832146100d25780633457d3e2146100ee5780634dbf87cc1461010a5780637a5b4f591461013a578063a71b79f214610158575b5f80fd5b6100d060048036038101906100cb919061243c565b61025c565b005b6100ec60048036038101906100e791906124e0565b61045d565b005b610108600480360381019061010391906124e0565b610665565b005b610124600480360381019061011f919061255a565b610889565b604051610131919061259f565b60405180910390f35b610142610b8f565b60405161014f9190612673565b60405180910390f35b610172600480360381019061016d9190612720565b610e5f565b60405161017f919061259f565b60405180910390f35b6101a2600480360381019061019d9190612770565b6112af565b005b6101be60048036038101906101b991906127ca565b611597565b005b6101c8611a50565b6040516101d5919061287e565b60405180910390f35b6101f860048036038101906101f3919061289e565b611be8565b6040516102059190612923565b60405180910390f35b6102286004803603810190610223919061293c565b611ce6565b604051610235919061259f565b60405180910390f35b6102466120ab565b6040516102539190612a63565b60405180910390f35b5f73ffffffffffffffffffffffffffffffffffffffff165f803373ffffffffffffffffffffffffffffffffffffffff1673ffffffffffffffffffffffffffffffffffffffff1681526020019081526020015f206001015f9054906101000a900473ffffffffffffffffffffffffffffffffffffffff1673ffffffffffffffffffffffffffffffffffffffff1603610328576040517f08c379a000000000000000000000000000000000000000000000000000000000815260040161031f90612af3565b60405180910390fd5b5f82511161036b576040517f08c379a000000000000000000000000000000000000000000000000000000000815260040161036290612b5b565b60405180910390fd5b60405180606001604052808481526020018381526020018281525060035f3373ffffffffffffffffffffffffffffffffffffffff1673ffffffffffffffffffffffffffffffffffffffff1681526020019081526020015f205f820151815f0190816103d69190612d7c565b5060208201518160010190816103ec9190612d7c565b5060408201518160020190816104029190612d7c565b509050503373ffffffffffffffffffffffffffffffffffffffff167f298e769f14d3266a2093cc631184150a9584b1b38c1fb1385be30e0665322bf284848460405161045093929190612e4b565b60405180910390a2505050565b5f8151116104a0576040517f08c379a000000000000000000000000000000000000000000000000000000000815260040161049790612edf565b60405180910390fd5b5f73ffffffffffffffffffffffffffffffffffffffff165f803373ffffffffffffffffffffffffffffffffffffffff1673ffffffffffffffffffffffffffffffffffffffff1681526020019081526020015f206001015f9054906101000a900473ffffffffffffffffffffffffffffffffffffffff1673ffffffffffffffffffffffffffffffffffffffff160361056c576040517f08c379a000000000000000000000000000000000000000000000000000000000815260040161056390612af3565b60405180910390fd5b5f610575611a50565b905081805190602001208180519060200120036105c7576040517f08c379a00000000000000000000000000000000000000000000000000000000081526004016105be90612f47565b60405180910390fd5b815f803373ffffffffffffffffffffffffffffffffffffffff1673ffffffffffffffffffffffffffffffffffffffff1681526020019081526020015f205f0190816106129190612d7c565b503373ffffffffffffffffffffffffffffffffffffffff167f1b7934654ba536b6962955e057ce42885353bbaad8c605a5ce0678e632f2841083604051610659919061287e565b60405180910390a25050565b5f8151116106a8576040517f08c379a000000000000000000000000000000000000000000000000000000000815260040161069f90612faf565b60405180910390fd5b5f73ffffffffffffffffffffffffffffffffffffffff165f803373ffffffffffffffffffffffffffffffffffffffff1673ffffffffffffffffffffffffffffffffffffffff1681526020019081526020015f206001015f9054906101000a900473ffffffffffffffffffffffffffffffffffffffff1673ffffffffffffffffffffffffffffffffffffffff1614610774576040517f08c379a000000000000000000000000000000000000000000000000000000000815260040161076b9061303d565b60405180910390fd5b60405180604001604052808281526020013373ffffffffffffffffffffffffffffffffffffffff168152505f803373ffffffffffffffffffffffffffffffffffffffff1673ffffffffffffffffffffffffffffffffffffffff1681526020019081526020015f205f820151815f0190816107ee9190612d7c565b506020820151816001015f6101000a81548173ffffffffffffffffffffffffffffffffffffffff021916908373ffffffffffffffffffffffffffffffffffffffff1602179055509050503373ffffffffffffffffffffffffffffffffffffffff167f1b7934654ba536b6962955e057ce42885353bbaad8c605a5ce0678e632f284108260405161087e919061287e565b60405180910390a250565b5f8073ffffffffffffffffffffffffffffffffffffffff165f803373ffffffffffffffffffffffffffffffffffffffff1673ffffffffffffffffffffffffffffffffffffffff1681526020019081526020015f206001015f9054906101000a900473ffffffffffffffffffffffffffffffffffffffff1673ffffffffffffffffffffffffffffffffffffffff1603610956576040517f08c379a000000000000000000000000000000000000000000000000000000000815260040161094d90612af3565b60405180910390fd5b5f60035f3373ffffffffffffffffffffffffffffffffffffffff1673ffffffffffffffffffffffffffffffffffffffff1681526020019081526020015f206040518060600160405290815f820180546109ae90612ba6565b80601f01602080910402602001604051908101604052809291908181526020018280546109da90612ba6565b8015610a255780601f106109fc57610100808354040283529160200191610a25565b820191905f5260205f20905b815481529060010190602001808311610a0857829003601f168201915b50505050508152602001600182018054610a3e90612ba6565b80601f0160208091040260200160405190810160405280929190818152602001828054610a6a90612ba6565b8015610ab55780601f10610a8c57610100808354040283529160200191610ab5565b820191905f5260205f20905b815481529060010190602001808311610a9857829003601f168201915b50505050508152602001600282018054610ace90612ba6565b80601f0160208091040260200160405190810160405280929190818152602001828054610afa90612ba6565b8015610b455780601f10610b1c57610100808354040283529160200191610b45565b820191905f5260205f20905b815481529060010190602001808311610b2857829003601f168201915b50505050508152505090505f815f01518260200151604051602001610b6b929190613095565b60405160208183030381529060405280519060200120905080841492505050919050565b610b976122ce565b5f73ffffffffffffffffffffffffffffffffffffffff165f803373ffffffffffffffffffffffffffffffffffffffff1673ffffffffffffffffffffffffffffffffffffffff1681526020019081526020015f206001015f9054906101000a900473ffffffffffffffffffffffffffffffffffffffff1673ffffffffffffffffffffffffffffffffffffffff1603610c63576040517f08c379a0000000000000000000000000000000000000000000000000000000008152600401610c5a90612af3565b60405180910390fd5b60035f3373ffffffffffffffffffffffffffffffffffffffff1673ffffffffffffffffffffffffffffffffffffffff1681526020019081526020015f206040518060600160405290815f82018054610cba90612ba6565b80601f0160208091040260200160405190810160405280929190818152602001828054610ce690612ba6565b8015610d315780601f10610d0857610100808354040283529160200191610d31565b820191905f5260205f20905b815481529060010190602001808311610d1457829003601f168201915b50505050508152602001600182018054610d4a90612ba6565b80601f0160208091040260200160405190810160405280929190818152602001828054610d7690612ba6565b8015610dc15780601f10610d9857610100808354040283529160200191610dc1565b820191905f5260205f20905b815481529060010190602001808311610da457829003601f168201915b50505050508152602001600282018054610dda90612ba6565b80601f0160208091040260200160405190810160405280929190818152602001828054610e0690612ba6565b8015610e515780601f10610e2857610100808354040283529160200191610e51565b820191905f5260205f20905b815481529060010190602001808311610e3457829003601f168201915b505050505081525050905090565b5f8073ffffffffffffffffffffffffffffffffffffffff165f808673ffffffffffffffffffffffffffffffffffffffff1673ffffffffffffffffffffffffffffffffffffffff1681526020019081526020015f206001015f9054906101000a900473ffffffffffffffffffffffffffffffffffffffff1673ffffffffffffffffffffffffffffffffffffffff1603610f2c576040517f08c379a0000000000000000000000000000000000000000000000000000000008152600401610f2390613128565b60405180910390fd5b5f60045f8673ffffffffffffffffffffffffffffffffffffffff1673ffffffffffffffffffffffffffffffffffffffff1681526020019081526020015f208054905011610fae576040517f08c379a0000000000000000000000000000000000000000000000000000000008152600401610fa5906131b6565b60405180910390fd5b5f60045f8673ffffffffffffffffffffffffffffffffffffffff1673ffffffffffffffffffffffffffffffffffffffff1681526020019081526020015f20805480602002602001604051908101604052809291908181526020015f905b8282101561115c578382905f5260205f209060080201604051806101000160405290815f82015f9054906101000a900473ffffffffffffffffffffffffffffffffffffffff1673ffffffffffffffffffffffffffffffffffffffff1673ffffffffffffffffffffffffffffffffffffffff1681526020016001820154815260200160028201805461109b90612ba6565b80601f01602080910402602001604051908101604052809291908181526020018280546110c790612ba6565b80156111125780601f106110e957610100808354040283529160200191611112565b820191905f5260205f20905b8154815290600101906020018083116110f557829003601f168201915b50505050508152602001600382015481526020016004820154815260200160058201548152602001600682015481526020016007820154815250508152602001906001019061100b565b5050505090505f5b81518110156112a2578473ffffffffffffffffffffffffffffffffffffffff16828281518110611197576111966131d4565b5b60200260200101515f015173ffffffffffffffffffffffffffffffffffffffff161480156111e4575061012c8282815181106111d6576111d56131d4565b5b602002602001015160200151135b15611245578473ffffffffffffffffffffffffffffffffffffffff167fdc794785acf9c11e109fefc6d2dc8bca096830e028a59f238cc02926513f8cc7856001604051611232929190613210565b60405180910390a26001925050506112a8565b8473ffffffffffffffffffffffffffffffffffffffff167fdc794785acf9c11e109fefc6d2dc8bca096830e028a59f238cc02926513f8cc7855f60405161128d929190613210565b60405180910390a28080600101915050611164565b505f9150505b9392505050565b6040518060400160405280600781526020017f6d616e61676572000000000000000000000000000000000000000000000000008152508051906020012060015f3373ffffffffffffffffffffffffffffffffffffffff1673ffffffffffffffffffffffffffffffffffffffff1681526020019081526020015f2060405161133691906132d3565b60405180910390201461137e576040517f08c379a000000000000000000000000000000000000000000000000000000000815260040161137590613333565b60405180910390fd5b5f73ffffffffffffffffffffffffffffffffffffffff165f803373ffffffffffffffffffffffffffffffffffffffff1673ffffffffffffffffffffffffffffffffffffffff1681526020019081526020015f206001015f9054906101000a900473ffffffffffffffffffffffffffffffffffffffff1673ffffffffffffffffffffffffffffffffffffffff160361144a576040517f08c379a000000000000000000000000000000000000000000000000000000000815260040161144190612af3565b60405180910390fd5b5f81511161148d576040517f08c379a00000000000000000000000000000000000000000000000000000000081526004016114849061339b565b60405180910390fd5b8060015f8473ffffffffffffffffffffffffffffffffffffffff1673ffffffffffffffffffffffffffffffffffffffff1681526020019081526020015f2090816114d79190612d7c565b5060025f8373ffffffffffffffffffffffffffffffffffffffff1673ffffffffffffffffffffffffffffffffffffffff1681526020019081526020015f2081908060018154018082558091505060019003905f5260205f20015f9091909190915090816115449190612d7c565b508173ffffffffffffffffffffffffffffffffffffffff167f3565795c2fb8842c21347d277937778bbcfe788b5b4f790fc5e408786cbe9c908260405161158b919061287e565b60405180910390a25050565b6040518060400160405280600781526020017f6d616e61676572000000000000000000000000000000000000000000000000008152508051906020012060015f3373ffffffffffffffffffffffffffffffffffffffff1673ffffffffffffffffffffffffffffffffffffffff1681526020019081526020015f2060405161161e91906132d3565b604051809103902014611666576040517f08c379a000000000000000000000000000000000000000000000000000000000815260040161165d90613333565b60405180910390fd5b5f73ffffffffffffffffffffffffffffffffffffffff165f803373ffffffffffffffffffffffffffffffffffffffff1673ffffffffffffffffffffffffffffffffffffffff1681526020019081526020015f206001015f9054906101000a900473ffffffffffffffffffffffffffffffffffffffff1673ffffffffffffffffffffffffffffffffffffffff1603611732576040517f08c379a000000000000000000000000000000000000000000000000000000000815260040161172990612af3565b60405180910390fd5b5f825111611775576040517f08c379a000000000000000000000000000000000000000000000000000000000815260040161176c9061339b565b60405180910390fd5b5f338483854260405160200161178f95949392919061343e565b6040516020818303038152906040528051906020012090505f338585426040516020016117bf9493929190613498565b6040516020818303038152906040528051906020012090505f338685426040516020016117ef94939291906134e1565b6040516020818303038152906040528051906020012090505f338761012c8713426040516020016118239493929190613573565b60405160208183030381529060405280519060200120905060045f8873ffffffffffffffffffffffffffffffffffffffff1673ffffffffffffffffffffffffffffffffffffffff1681526020019081526020015f206040518061010001604052803373ffffffffffffffffffffffffffffffffffffffff16815260200187815260200188815260200186815260200185815260200184815260200183815260200142815250908060018154018082558091505060019003905f5260205f2090600802015f909190919091505f820151815f015f6101000a81548173ffffffffffffffffffffffffffffffffffffffff021916908373ffffffffffffffffffffffffffffffffffffffff1602179055506020820151816001015560408201518160020190816119519190612d7c565b50606082015181600301556080820151816004015560a0820151816005015560c0820151816006015560e08201518160070155505060025f8873ffffffffffffffffffffffffffffffffffffffff1673ffffffffffffffffffffffffffffffffffffffff1681526020019081526020015f2086908060018154018082558091505060019003905f5260205f20015f9091909190915090816119f29190612d7c565b503373ffffffffffffffffffffffffffffffffffffffff167f8664f7879e62b02f94c87f05b19346809ef65fc277ebad0ceb8e14a5c2f44e6e88878987604051611a3f94939291906135cf565b60405180910390a250505050505050565b60605f73ffffffffffffffffffffffffffffffffffffffff165f803373ffffffffffffffffffffffffffffffffffffffff1673ffffffffffffffffffffffffffffffffffffffff1681526020019081526020015f206001015f9054906101000a900473ffffffffffffffffffffffffffffffffffffffff1673ffffffffffffffffffffffffffffffffffffffff1603611b1e576040517f08c379a0000000000000000000000000000000000000000000000000000000008152600401611b1590613663565b60405180910390fd5b5f803373ffffffffffffffffffffffffffffffffffffffff1673ffffffffffffffffffffffffffffffffffffffff1681526020019081526020015f205f018054611b6790612ba6565b80601f0160208091040260200160405190810160405280929190818152602001828054611b9390612ba6565b8015611bde5780601f10611bb557610100808354040283529160200191611bde565b820191905f5260205f20905b815481529060010190602001808311611bc157829003601f168201915b5050505050905090565b5f8073ffffffffffffffffffffffffffffffffffffffff165f803373ffffffffffffffffffffffffffffffffffffffff1673ffffffffffffffffffffffffffffffffffffffff1681526020019081526020015f206001015f9054906101000a900473ffffffffffffffffffffffffffffffffffffffff1673ffffffffffffffffffffffffffffffffffffffff1603611cb5576040517f08c379a0000000000000000000000000000000000000000000000000000000008152600401611cac90612af3565b60405180910390fd5b8282604051602001611cc8929190613095565b60405160208183030381529060405280519060200120905092915050565b5f8073ffffffffffffffffffffffffffffffffffffffff165f808673ffffffffffffffffffffffffffffffffffffffff1673ffffffffffffffffffffffffffffffffffffffff1681526020019081526020015f206001015f9054906101000a900473ffffffffffffffffffffffffffffffffffffffff1673ffffffffffffffffffffffffffffffffffffffff1603611db3576040517f08c379a0000000000000000000000000000000000000000000000000000000008152600401611daa90613128565b60405180910390fd5b5f60045f8673ffffffffffffffffffffffffffffffffffffffff1673ffffffffffffffffffffffffffffffffffffffff1681526020019081526020015f208054905011611e35576040517f08c379a0000000000000000000000000000000000000000000000000000000008152600401611e2c906131b6565b60405180910390fd5b5f60045f8673ffffffffffffffffffffffffffffffffffffffff1673ffffffffffffffffffffffffffffffffffffffff1681526020019081526020015f20600160045f8873ffffffffffffffffffffffffffffffffffffffff1673ffffffffffffffffffffffffffffffffffffffff1681526020019081526020015f2080549050611ec091906136ae565b81548110611ed157611ed06131d4565b5b905f5260205f209060080201604051806101000160405290815f82015f9054906101000a900473ffffffffffffffffffffffffffffffffffffffff1673ffffffffffffffffffffffffffffffffffffffff1673ffffffffffffffffffffffffffffffffffffffff16815260200160018201548152602001600282018054611f5790612ba6565b80601f0160208091040260200160405190810160405280929190818152602001828054611f8390612ba6565b8015611fce5780601f10611fa557610100808354040283529160200191611fce565b820191905f5260205f20905b815481529060010190602001808311611fb157829003601f168201915b505050505081526020016003820154815260200160048201548152602001600582015481526020016006820154815260200160078201548152505090505f816080015190505f8587868560e0015160405160200161202f9493929190613498565b6040516020818303038152906040528051906020012090505f81831490508673ffffffffffffffffffffffffffffffffffffffff167f743119e0f5c3443022e2e080183ceafc4ccb88f4c29fc6dbdab02412b993590887836040516120959291906136e1565b60405180910390a2809450505050509392505050565b60605f73ffffffffffffffffffffffffffffffffffffffff165f803373ffffffffffffffffffffffffffffffffffffffff1673ffffffffffffffffffffffffffffffffffffffff1681526020019081526020015f206001015f9054906101000a900473ffffffffffffffffffffffffffffffffffffffff1673ffffffffffffffffffffffffffffffffffffffff1603612179576040517f08c379a000000000000000000000000000000000000000000000000000000000815260040161217090612af3565b60405180910390fd5b5f60025f3373ffffffffffffffffffffffffffffffffffffffff1673ffffffffffffffffffffffffffffffffffffffff1681526020019081526020015f20805480602002602001604051908101604052809291908181526020015f905b8282101561227e578382905f5260205f200180546121f390612ba6565b80601f016020809104026020016040519081016040528092919081815260200182805461221f90612ba6565b801561226a5780601f106122415761010080835404028352916020019161226a565b820191905f5260205f20905b81548152906001019060200180831161224d57829003601f168201915b5050505050815260200190600101906121d6565b5050505090505f8151116122c7576040517f08c379a00000000000000000000000000000000000000000000000000000000081526004016122be90613759565b60405180910390fd5b8091505090565b60405180606001604052806060815260200160608152602001606081525090565b5f604051905090565b5f80fd5b5f80fd5b5f80fd5b5f80fd5b5f601f19601f8301169050919050565b7f4e487b71000000000000000000000000000000000000000000000000000000005f52604160045260245ffd5b61234e82612308565b810181811067ffffffffffffffff8211171561236d5761236c612318565b5b80604052505050565b5f61237f6122ef565b905061238b8282612345565b919050565b5f67ffffffffffffffff8211156123aa576123a9612318565b5b6123b382612308565b9050602081019050919050565b828183375f83830152505050565b5f6123e06123db84612390565b612376565b9050828152602081018484840111156123fc576123fb612304565b5b6124078482856123c0565b509392505050565b5f82601f83011261242357612422612300565b5b81356124338482602086016123ce565b91505092915050565b5f805f60608486031215612453576124526122f8565b5b5f84013567ffffffffffffffff8111156124705761246f6122fc565b5b61247c8682870161240f565b935050602084013567ffffffffffffffff81111561249d5761249c6122fc565b5b6124a98682870161240f565b925050604084013567ffffffffffffffff8111156124ca576124c96122fc565b5b6124d68682870161240f565b9150509250925092565b5f602082840312156124f5576124f46122f8565b5b5f82013567ffffffffffffffff811115612512576125116122fc565b5b61251e8482850161240f565b91505092915050565b5f819050919050565b61253981612527565b8114612543575f80fd5b50565b5f8135905061255481612530565b92915050565b5f6020828403121561256f5761256e6122f8565b5b5f61257c84828501612546565b91505092915050565b5f8115159050919050565b61259981612585565b82525050565b5f6020820190506125b25f830184612590565b92915050565b5f81519050919050565b5f82825260208201905092915050565b8281835e5f83830152505050565b5f6125ea826125b8565b6125f481856125c2565b93506126048185602086016125d2565b61260d81612308565b840191505092915050565b5f606083015f8301518482035f86015261263282826125e0565b9150506020830151848203602086015261264c82826125e0565b9150506040830151848203604086015261266682826125e0565b9150508091505092915050565b5f6020820190508181035f83015261268b8184612618565b905092915050565b5f73ffffffffffffffffffffffffffffffffffffffff82169050919050565b5f6126bc82612693565b9050919050565b6126cc816126b2565b81146126d6575f80fd5b50565b5f813590506126e7816126c3565b92915050565b5f819050919050565b6126ff816126ed565b8114612709575f80fd5b50565b5f8135905061271a816126f6565b92915050565b5f805f60608486031215612737576127366122f8565b5b5f612744868287016126d9565b9350506020612755868287016126d9565b92505060406127668682870161270c565b9150509250925092565b5f8060408385031215612786576127856122f8565b5b5f612793858286016126d9565b925050602083013567ffffffffffffffff8111156127b4576127b36122fc565b5b6127c08582860161240f565b9150509250929050565b5f805f606084860312156127e1576127e06122f8565b5b5f6127ee868287016126d9565b935050602084013567ffffffffffffffff81111561280f5761280e6122fc565b5b61281b8682870161240f565b925050604061282c8682870161270c565b9150509250925092565b5f82825260208201905092915050565b5f612850826125b8565b61285a8185612836565b935061286a8185602086016125d2565b61287381612308565b840191505092915050565b5f6020820190508181035f8301526128968184612846565b905092915050565b5f80604083850312156128b4576128b36122f8565b5b5f83013567ffffffffffffffff8111156128d1576128d06122fc565b5b6128dd8582860161240f565b925050602083013567ffffffffffffffff8111156128fe576128fd6122fc565b5b61290a8582860161240f565b9150509250929050565b61291d81612527565b82525050565b5f6020820190506129365f830184612914565b92915050565b5f805f60608486031215612953576129526122f8565b5b5f612960868287016126d9565b9350506020612971868287016126d9565b925050604084013567ffffffffffffffff811115612992576129916122fc565b5b61299e8682870161240f565b9150509250925092565b5f81519050919050565b5f82825260208201905092915050565b5f819050602082019050919050565b5f6129dc83836125e0565b905092915050565b5f602082019050919050565b5f6129fa826129a8565b612a0481856129b2565b935083602082028501612a16856129c2565b805f5b85811015612a515784840389528151612a3285826129d1565b9450612a3d836129e4565b925060208a01995050600181019050612a19565b50829750879550505050505092915050565b5f6020820190508181035f830152612a7b81846129f0565b905092915050565b7f4e6f206578697374696e672044494420666f756e6420666f72207468697320615f8201527f6464726573730000000000000000000000000000000000000000000000000000602082015250565b5f612add602683612836565b9150612ae882612a83565b604082019050919050565b5f6020820190508181035f830152612b0a81612ad1565b9050919050565b7f456d61696c2063616e6e6f7420626520656d70747900000000000000000000005f82015250565b5f612b45601583612836565b9150612b5082612b11565b602082019050919050565b5f6020820190508181035f830152612b7281612b39565b9050919050565b7f4e487b71000000000000000000000000000000000000000000000000000000005f52602260045260245ffd5b5f6002820490506001821680612bbd57607f821691505b602082108103612bd057612bcf612b79565b5b50919050565b5f819050815f5260205f209050919050565b5f6020601f8301049050919050565b5f82821b905092915050565b5f60088302612c327fffffffffffffffffffffffffffffffffffffffffffffffffffffffffffffffff82612bf7565b612c3c8683612bf7565b95508019841693508086168417925050509392505050565b5f819050919050565b5f819050919050565b5f612c80612c7b612c7684612c54565b612c5d565b612c54565b9050919050565b5f819050919050565b612c9983612c66565b612cad612ca582612c87565b848454612c03565b825550505050565b5f90565b612cc1612cb5565b612ccc818484612c90565b505050565b5b81811015612cef57612ce45f82612cb9565b600181019050612cd2565b5050565b601f821115612d3457612d0581612bd6565b612d0e84612be8565b81016020851015612d1d578190505b612d31612d2985612be8565b830182612cd1565b50505b505050565b5f82821c905092915050565b5f612d545f1984600802612d39565b1980831691505092915050565b5f612d6c8383612d45565b9150826002028217905092915050565b612d85826125b8565b67ffffffffffffffff811115612d9e57612d9d612318565b5b612da88254612ba6565b612db3828285612cf3565b5f60209050601f831160018114612de4575f8415612dd2578287015190505b612ddc8582612d61565b865550612e43565b601f198416612df286612bd6565b5f5b82811015612e1957848901518255600182019150602085019450602081019050612df4565b86831015612e365784890151612e32601f891682612d45565b8355505b6001600288020188555050505b505050505050565b5f6060820190508181035f830152612e638186612846565b90508181036020830152612e778185612846565b90508181036040830152612e8b8184612846565b9050949350505050565b7f4e6577206964656e7469666965722063616e6e6f7420626520656d70747900005f82015250565b5f612ec9601e83612836565b9150612ed482612e95565b602082019050919050565b5f6020820190508181035f830152612ef681612ebd565b9050919050565b7f496e76616c6964206e6577206964656e746966696572000000000000000000005f82015250565b5f612f31601683612836565b9150612f3c82612efd565b602082019050919050565b5f6020820190508181035f830152612f5e81612f25565b9050919050565b7f4964656e7469666965722063616e6e6f7420626520656d7074790000000000005f82015250565b5f612f99601a83612836565b9150612fa482612f65565b602082019050919050565b5f6020820190508181035f830152612fc681612f8d565b9050919050565b7f44494420616c72656164792065786973747320666f72207468697320616464725f8201527f6573730000000000000000000000000000000000000000000000000000000000602082015250565b5f613027602383612836565b915061303282612fcd565b604082019050919050565b5f6020820190508181035f8301526130548161301b565b9050919050565b5f81905092915050565b5f61306f826125b8565b613079818561305b565b93506130898185602086016125d2565b80840191505092915050565b5f6130a08285613065565b91506130ac8284613065565b91508190509392505050565b7f4e6f206578697374696e672044494420666f756e6420666f72207468697320755f8201527f7365720000000000000000000000000000000000000000000000000000000000602082015250565b5f613112602383612836565b915061311d826130b8565b604082019050919050565b5f6020820190508181035f83015261313f81613106565b9050919050565b7f5573657220646f6573206e6f74206861766520616e792063726564656e7469615f8201527f6c00000000000000000000000000000000000000000000000000000000000000602082015250565b5f6131a0602183612836565b91506131ab82613146565b604082019050919050565b5f6020820190508181035f8301526131cd81613194565b9050919050565b7f4e487b71000000000000000000000000000000000000000000000000000000005f52603260045260245ffd5b61320a816126ed565b82525050565b5f6040820190506132235f830185613201565b6132306020830184612590565b9392505050565b5f81905092915050565b5f819050815f5260205f209050919050565b5f815461325f81612ba6565b6132698186613237565b9450600182165f81146132835760018114613298576132ca565b60ff19831686528115158202860193506132ca565b6132a185613241565b5f5b838110156132c2578154818901526001820191506020810190506132a3565b838801955050505b50505092915050565b5f6132de8284613253565b915081905092915050565b7f556e617574686f72697a656420616374696f6e000000000000000000000000005f82015250565b5f61331d601383612836565b9150613328826132e9565b602082019050919050565b5f6020820190508181035f83015261334a81613311565b9050919050565b7f526f6c652063616e6e6f7420626520656d7074790000000000000000000000005f82015250565b5f613385601483612836565b915061339082613351565b602082019050919050565b5f6020820190508181035f8301526133b281613379565b9050919050565b5f8160601b9050919050565b5f6133cf826133b9565b9050919050565b5f6133e0826133c5565b9050919050565b6133f86133f3826126b2565b6133d6565b82525050565b5f819050919050565b613418613413826126ed565b6133fe565b82525050565b5f819050919050565b61343861343382612c54565b61341e565b82525050565b5f61344982886133e7565b60148201915061345982876133e7565b6014820191506134698286613407565b6020820191506134798285613065565b91506134858284613427565b6020820191508190509695505050505050565b5f6134a382876133e7565b6014820191506134b382866133e7565b6014820191506134c38285613065565b91506134cf8284613427565b60208201915081905095945050505050565b5f6134ec82876133e7565b6014820191506134fc82866133e7565b60148201915061350c8285613407565b60208201915061351c8284613427565b60208201915081905095945050505050565b5f8160f81b9050919050565b5f6135448261352e565b9050919050565b5f6135558261353a565b9050919050565b61356d61356882612585565b61354b565b82525050565b5f61357e82876133e7565b60148201915061358e82866133e7565b60148201915061359e828561355c565b6001820191506135ae8284613427565b60208201915081905095945050505050565b6135c9816126b2565b82525050565b5f6080820190506135e25f8301876135c0565b6135ef6020830186613201565b81810360408301526136018185612846565b90506136106060830184612914565b95945050505050565b7f4e6f2044494420666f756e6420666f72207468697320616464726573730000005f82015250565b5f61364d601d83612836565b915061365882613619565b602082019050919050565b5f6020820190508181035f83015261367a81613641565b9050919050565b7f4e487b71000000000000000000000000000000000000000000000000000000005f52601160045260245ffd5b5f6136b882612c54565b91506136c383612c54565b92508282039050818111156136db576136da613681565b5b92915050565b5f6040820190508181035f8301526136f98185612846565b90506137086020830184612590565b9392505050565b7f4e6f20726f6c65732061737369676e656420666f7220746869732075736572005f82015250565b5f613743601f83612836565b915061374e8261370f565b602082019050919050565b5f6020820190508181035f83015261377081613737565b905091905056fea2646970667358221220e44d8e21c66d0448cc9bc7f7a857190040e7890650f6823e84e51c606033696064736f6c634300081a0033",
					"opcodes": "PUSH1 0x80 PUSH1 0x40 MSTORE CALLVALUE DUP1 ISZERO PUSH2 0xF JUMPI PUSH0 DUP1 REVERT JUMPDEST POP PUSH1 0x40 MLOAD DUP1 PUSH1 0x40 ADD PUSH1 0x40 MSTORE DUP1 PUSH1 0x7 DUP2 MSTORE PUSH1 0x20 ADD PUSH32 0x6D616E6167657200000000000000000000000000000000000000000000000000 DUP2 MSTORE POP PUSH1 0x1 PUSH0 CALLER PUSH20 0xFFFFFFFFFFFFFFFFFFFFFFFFFFFFFFFFFFFFFFFF AND PUSH20 0xFFFFFFFFFFFFFFFFFFFFFFFFFFFFFFFFFFFFFFFF AND DUP2 MSTORE PUSH1 0x20 ADD SWAP1 DUP2 MSTORE PUSH1 0x20 ADD PUSH0 KECCAK256 SWAP1 DUP2 PUSH2 0x8F SWAP2 SWAP1 PUSH2 0x36E JUMP JUMPDEST POP PUSH1 0x2 PUSH0 CALLER PUSH20 0xFFFFFFFFFFFFFFFFFFFFFFFFFFFFFFFFFFFFFFFF AND PUSH20 0xFFFFFFFFFFFFFFFFFFFFFFFFFFFFFFFFFFFFFFFF AND DUP2 MSTORE PUSH1 0x20 ADD SWAP1 DUP2 MSTORE PUSH1 0x20 ADD PUSH0 KECCAK256 DUP1 PUSH1 0x1 DUP2 SLOAD ADD DUP1 DUP3 SSTORE DUP1 SWAP2 POP POP PUSH1 0x1 SWAP1 SUB SWAP1 PUSH0 MSTORE PUSH1 0x20 PUSH0 KECCAK256 ADD PUSH0 PUSH1 0x40 MLOAD DUP1 PUSH1 0x40 ADD PUSH1 0x40 MSTORE DUP1 PUSH1 0x7 DUP2 MSTORE PUSH1 0x20 ADD PUSH32 0x6D616E6167657200000000000000000000000000000000000000000000000000 DUP2 MSTORE POP SWAP1 SWAP2 SWAP1 SWAP2 POP SWAP1 DUP2 PUSH2 0x12E SWAP2 SWAP1 PUSH2 0x36E JUMP JUMPDEST POP PUSH2 0x43D JUMP JUMPDEST PUSH0 DUP2 MLOAD SWAP1 POP SWAP2 SWAP1 POP JUMP JUMPDEST PUSH32 0x4E487B7100000000000000000000000000000000000000000000000000000000 PUSH0 MSTORE PUSH1 0x41 PUSH1 0x4 MSTORE PUSH1 0x24 PUSH0 REVERT JUMPDEST PUSH32 0x4E487B7100000000000000000000000000000000000000000000000000000000 PUSH0 MSTORE PUSH1 0x22 PUSH1 0x4 MSTORE PUSH1 0x24 PUSH0 REVERT JUMPDEST PUSH0 PUSH1 0x2 DUP3 DIV SWAP1 POP PUSH1 0x1 DUP3 AND DUP1 PUSH2 0x1AF JUMPI PUSH1 0x7F DUP3 AND SWAP2 POP JUMPDEST PUSH1 0x20 DUP3 LT DUP2 SUB PUSH2 0x1C2 JUMPI PUSH2 0x1C1 PUSH2 0x16B JUMP JUMPDEST JUMPDEST POP SWAP2 SWAP1 POP JUMP JUMPDEST PUSH0 DUP2 SWAP1 POP DUP2 PUSH0 MSTORE PUSH1 0x20 PUSH0 KECCAK256 SWAP1 POP SWAP2 SWAP1 POP JUMP JUMPDEST PUSH0 PUSH1 0x20 PUSH1 0x1F DUP4 ADD DIV SWAP1 POP SWAP2 SWAP1 POP JUMP JUMPDEST PUSH0 DUP3 DUP3 SHL SWAP1 POP SWAP3 SWAP2 POP POP JUMP JUMPDEST PUSH0 PUSH1 0x8 DUP4 MUL PUSH2 0x224 PUSH32 0xFFFFFFFFFFFFFFFFFFFFFFFFFFFFFFFFFFFFFFFFFFFFFFFFFFFFFFFFFFFFFFFF DUP3 PUSH2 0x1E9 JUMP JUMPDEST PUSH2 0x22E DUP7 DUP4 PUSH2 0x1E9 JUMP JUMPDEST SWAP6 POP DUP1 NOT DUP5 AND SWAP4 POP DUP1 DUP7 AND DUP5 OR SWAP3 POP POP POP SWAP4 SWAP3 POP POP POP JUMP JUMPDEST PUSH0 DUP2 SWAP1 POP SWAP2 SWAP1 POP JUMP JUMPDEST PUSH0 DUP2 SWAP1 POP SWAP2 SWAP1 POP JUMP JUMPDEST PUSH0 PUSH2 0x272 PUSH2 0x26D PUSH2 0x268 DUP5 PUSH2 0x246 JUMP JUMPDEST PUSH2 0x24F JUMP JUMPDEST PUSH2 0x246 JUMP JUMPDEST SWAP1 POP SWAP2 SWAP1 POP JUMP JUMPDEST PUSH0 DUP2 SWAP1 POP SWAP2 SWAP1 POP JUMP JUMPDEST PUSH2 0x28B DUP4 PUSH2 0x258 JUMP JUMPDEST PUSH2 0x29F PUSH2 0x297 DUP3 PUSH2 0x279 JUMP JUMPDEST DUP5 DUP5 SLOAD PUSH2 0x1F5 JUMP JUMPDEST DUP3 SSTORE POP POP POP POP JUMP JUMPDEST PUSH0 SWAP1 JUMP JUMPDEST PUSH2 0x2B3 PUSH2 0x2A7 JUMP JUMPDEST PUSH2 0x2BE DUP2 DUP5 DUP5 PUSH2 0x282 JUMP JUMPDEST POP POP POP JUMP JUMPDEST JUMPDEST DUP2 DUP2 LT ISZERO PUSH2 0x2E1 JUMPI PUSH2 0x2D6 PUSH0 DUP3 PUSH2 0x2AB JUMP JUMPDEST PUSH1 0x1 DUP2 ADD SWAP1 POP PUSH2 0x2C4 JUMP JUMPDEST POP POP JUMP JUMPDEST PUSH1 0x1F DUP3 GT ISZERO PUSH2 0x326 JUMPI PUSH2 0x2F7 DUP2 PUSH2 0x1C8 JUMP JUMPDEST PUSH2 0x300 DUP5 PUSH2 0x1DA JUMP JUMPDEST DUP2 ADD PUSH1 0x20 DUP6 LT ISZERO PUSH2 0x30F JUMPI DUP2 SWAP1 POP JUMPDEST PUSH2 0x323 PUSH2 0x31B DUP6 PUSH2 0x1DA JUMP JUMPDEST DUP4 ADD DUP3 PUSH2 0x2C3 JUMP JUMPDEST POP POP JUMPDEST POP POP POP JUMP JUMPDEST PUSH0 DUP3 DUP3 SHR SWAP1 POP SWAP3 SWAP2 POP POP JUMP JUMPDEST PUSH0 PUSH2 0x346 PUSH0 NOT DUP5 PUSH1 0x8 MUL PUSH2 0x32B JUMP JUMPDEST NOT DUP1 DUP4 AND SWAP2 POP POP SWAP3 SWAP2 POP POP JUMP JUMPDEST PUSH0 PUSH2 0x35E DUP4 DUP4 PUSH2 0x337 JUMP JUMPDEST SWAP2 POP DUP3 PUSH1 0x2 MUL DUP3 OR SWAP1 POP SWAP3 SWAP2 POP POP JUMP JUMPDEST PUSH2 0x377 DUP3 PUSH2 0x134 JUMP JUMPDEST PUSH8 0xFFFFFFFFFFFFFFFF DUP2 GT ISZERO PUSH2 0x390 JUMPI PUSH2 0x38F PUSH2 0x13E JUMP JUMPDEST JUMPDEST PUSH2 0x39A DUP3 SLOAD PUSH2 0x198 JUMP JUMPDEST PUSH2 0x3A5 DUP3 DUP3 DUP6 PUSH2 0x2E5 JUMP JUMPDEST PUSH0 PUSH1 0x20 SWAP1 POP PUSH1 0x1F DUP4 GT PUSH1 0x1 DUP2 EQ PUSH2 0x3D6 JUMPI PUSH0 DUP5 ISZERO PUSH2 0x3C4 JUMPI DUP3 DUP8 ADD MLOAD SWAP1 POP JUMPDEST PUSH2 0x3CE DUP6 DUP3 PUSH2 0x353 JUMP JUMPDEST DUP7 SSTORE POP PUSH2 0x435 JUMP JUMPDEST PUSH1 0x1F NOT DUP5 AND PUSH2 0x3E4 DUP7 PUSH2 0x1C8 JUMP JUMPDEST PUSH0 JUMPDEST DUP3 DUP2 LT ISZERO PUSH2 0x40B JUMPI DUP5 DUP10 ADD MLOAD DUP3 SSTORE PUSH1 0x1 DUP3 ADD SWAP2 POP PUSH1 0x20 DUP6 ADD SWAP5 POP PUSH1 0x20 DUP2 ADD SWAP1 POP PUSH2 0x3E6 JUMP JUMPDEST DUP7 DUP4 LT ISZERO PUSH2 0x428 JUMPI DUP5 DUP10 ADD MLOAD PUSH2 0x424 PUSH1 0x1F DUP10 AND DUP3 PUSH2 0x337 JUMP JUMPDEST DUP4 SSTORE POP JUMPDEST PUSH1 0x1 PUSH1 0x2 DUP9 MUL ADD DUP9 SSTORE POP POP POP JUMPDEST POP POP POP POP POP POP JUMP JUMPDEST PUSH2 0x37AD DUP1 PUSH2 0x44A PUSH0 CODECOPY PUSH0 RETURN INVALID PUSH1 0x80 PUSH1 0x40 MSTORE CALLVALUE DUP1 ISZERO PUSH2 0xF JUMPI PUSH0 DUP1 REVERT JUMPDEST POP PUSH1 0x4 CALLDATASIZE LT PUSH2 0xB2 JUMPI PUSH0 CALLDATALOAD PUSH1 0xE0 SHR DUP1 PUSH4 0xB7DFCBEE GT PUSH2 0x6F JUMPI DUP1 PUSH4 0xB7DFCBEE EQ PUSH2 0x188 JUMPI DUP1 PUSH4 0xB8D44845 EQ PUSH2 0x1A4 JUMPI DUP1 PUSH4 0xBC9C2D55 EQ PUSH2 0x1C0 JUMPI DUP1 PUSH4 0xE1E7A16E EQ PUSH2 0x1DE JUMPI DUP1 PUSH4 0xE4F0C22B EQ PUSH2 0x20E JUMPI DUP1 PUSH4 0xFDE08174 EQ PUSH2 0x23E JUMPI PUSH2 0xB2 JUMP JUMPDEST DUP1 PUSH4 0x890D80C EQ PUSH2 0xB6 JUMPI DUP1 PUSH4 0x14C95832 EQ PUSH2 0xD2 JUMPI DUP1 PUSH4 0x3457D3E2 EQ PUSH2 0xEE JUMPI DUP1 PUSH4 0x4DBF87CC EQ PUSH2 0x10A JUMPI DUP1 PUSH4 0x7A5B4F59 EQ PUSH2 0x13A JUMPI DUP1 PUSH4 0xA71B79F2 EQ PUSH2 0x158 JUMPI JUMPDEST PUSH0 DUP1 REVERT JUMPDEST PUSH2 0xD0 PUSH1 0x4 DUP1 CALLDATASIZE SUB DUP2 ADD SWAP1 PUSH2 0xCB SWAP2 SWAP1 PUSH2 0x243C JUMP JUMPDEST PUSH2 0x25C JUMP JUMPDEST STOP JUMPDEST PUSH2 0xEC PUSH1 0x4 DUP1 CALLDATASIZE SUB DUP2 ADD SWAP1 PUSH2 0xE7 SWAP2 SWAP1 PUSH2 0x24E0 JUMP JUMPDEST PUSH2 0x45D JUMP JUMPDEST STOP JUMPDEST PUSH2 0x108 PUSH1 0x4 DUP1 CALLDATASIZE SUB DUP2 ADD SWAP1 PUSH2 0x103 SWAP2 SWAP1 PUSH2 0x24E0 JUMP JUMPDEST PUSH2 0x665 JUMP JUMPDEST STOP JUMPDEST PUSH2 0x124 PUSH1 0x4 DUP1 CALLDATASIZE SUB DUP2 ADD SWAP1 PUSH2 0x11F SWAP2 SWAP1 PUSH2 0x255A JUMP JUMPDEST PUSH2 0x889 JUMP JUMPDEST PUSH1 0x40 MLOAD PUSH2 0x131 SWAP2 SWAP1 PUSH2 0x259F JUMP JUMPDEST PUSH1 0x40 MLOAD DUP1 SWAP2 SUB SWAP1 RETURN JUMPDEST PUSH2 0x142 PUSH2 0xB8F JUMP JUMPDEST PUSH1 0x40 MLOAD PUSH2 0x14F SWAP2 SWAP1 PUSH2 0x2673 JUMP JUMPDEST PUSH1 0x40 MLOAD DUP1 SWAP2 SUB SWAP1 RETURN JUMPDEST PUSH2 0x172 PUSH1 0x4 DUP1 CALLDATASIZE SUB DUP2 ADD SWAP1 PUSH2 0x16D SWAP2 SWAP1 PUSH2 0x2720 JUMP JUMPDEST PUSH2 0xE5F JUMP JUMPDEST PUSH1 0x40 MLOAD PUSH2 0x17F SWAP2 SWAP1 PUSH2 0x259F JUMP JUMPDEST PUSH1 0x40 MLOAD DUP1 SWAP2 SUB SWAP1 RETURN JUMPDEST PUSH2 0x1A2 PUSH1 0x4 DUP1 CALLDATASIZE SUB DUP2 ADD SWAP1 PUSH2 0x19D SWAP2 SWAP1 PUSH2 0x2770 JUMP JUMPDEST PUSH2 0x12AF JUMP JUMPDEST STOP JUMPDEST PUSH2 0x1BE PUSH1 0x4 DUP1 CALLDATASIZE SUB DUP2 ADD SWAP1 PUSH2 0x1B9 SWAP2 SWAP1 PUSH2 0x27CA JUMP JUMPDEST PUSH2 0x1597 JUMP JUMPDEST STOP JUMPDEST PUSH2 0x1C8 PUSH2 0x1A50 JUMP JUMPDEST PUSH1 0x40 MLOAD PUSH2 0x1D5 SWAP2 SWAP1 PUSH2 0x287E JUMP JUMPDEST PUSH1 0x40 MLOAD DUP1 SWAP2 SUB SWAP1 RETURN JUMPDEST PUSH2 0x1F8 PUSH1 0x4 DUP1 CALLDATASIZE SUB DUP2 ADD SWAP1 PUSH2 0x1F3 SWAP2 SWAP1 PUSH2 0x289E JUMP JUMPDEST PUSH2 0x1BE8 JUMP JUMPDEST PUSH1 0x40 MLOAD PUSH2 0x205 SWAP2 SWAP1 PUSH2 0x2923 JUMP JUMPDEST PUSH1 0x40 MLOAD DUP1 SWAP2 SUB SWAP1 RETURN JUMPDEST PUSH2 0x228 PUSH1 0x4 DUP1 CALLDATASIZE SUB DUP2 ADD SWAP1 PUSH2 0x223 SWAP2 SWAP1 PUSH2 0x293C JUMP JUMPDEST PUSH2 0x1CE6 JUMP JUMPDEST PUSH1 0x40 MLOAD PUSH2 0x235 SWAP2 SWAP1 PUSH2 0x259F JUMP JUMPDEST PUSH1 0x40 MLOAD DUP1 SWAP2 SUB SWAP1 RETURN JUMPDEST PUSH2 0x246 PUSH2 0x20AB JUMP JUMPDEST PUSH1 0x40 MLOAD PUSH2 0x253 SWAP2 SWAP1 PUSH2 0x2A63 JUMP JUMPDEST PUSH1 0x40 MLOAD DUP1 SWAP2 SUB SWAP1 RETURN JUMPDEST PUSH0 PUSH20 0xFFFFFFFFFFFFFFFFFFFFFFFFFFFFFFFFFFFFFFFF AND PUSH0 DUP1 CALLER PUSH20 0xFFFFFFFFFFFFFFFFFFFFFFFFFFFFFFFFFFFFFFFF AND PUSH20 0xFFFFFFFFFFFFFFFFFFFFFFFFFFFFFFFFFFFFFFFF AND DUP2 MSTORE PUSH1 0x20 ADD SWAP1 DUP2 MSTORE PUSH1 0x20 ADD PUSH0 KECCAK256 PUSH1 0x1 ADD PUSH0 SWAP1 SLOAD SWAP1 PUSH2 0x100 EXP SWAP1 DIV PUSH20 0xFFFFFFFFFFFFFFFFFFFFFFFFFFFFFFFFFFFFFFFF AND PUSH20 0xFFFFFFFFFFFFFFFFFFFFFFFFFFFFFFFFFFFFFFFF AND SUB PUSH2 0x328 JUMPI PUSH1 0x40 MLOAD PUSH32 0x8C379A000000000000000000000000000000000000000000000000000000000 DUP2 MSTORE PUSH1 0x4 ADD PUSH2 0x31F SWAP1 PUSH2 0x2AF3 JUMP JUMPDEST PUSH1 0x40 MLOAD DUP1 SWAP2 SUB SWAP1 REVERT JUMPDEST PUSH0 DUP3 MLOAD GT PUSH2 0x36B JUMPI PUSH1 0x40 MLOAD PUSH32 0x8C379A000000000000000000000000000000000000000000000000000000000 DUP2 MSTORE PUSH1 0x4 ADD PUSH2 0x362 SWAP1 PUSH2 0x2B5B JUMP JUMPDEST PUSH1 0x40 MLOAD DUP1 SWAP2 SUB SWAP1 REVERT JUMPDEST PUSH1 0x40 MLOAD DUP1 PUSH1 0x60 ADD PUSH1 0x40 MSTORE DUP1 DUP5 DUP2 MSTORE PUSH1 0x20 ADD DUP4 DUP2 MSTORE PUSH1 0x20 ADD DUP3 DUP2 MSTORE POP PUSH1 0x3 PUSH0 CALLER PUSH20 0xFFFFFFFFFFFFFFFFFFFFFFFFFFFFFFFFFFFFFFFF AND PUSH20 0xFFFFFFFFFFFFFFFFFFFFFFFFFFFFFFFFFFFFFFFF AND DUP2 MSTORE PUSH1 0x20 ADD SWAP1 DUP2 MSTORE PUSH1 0x20 ADD PUSH0 KECCAK256 PUSH0 DUP3 ADD MLOAD DUP2 PUSH0 ADD SWAP1 DUP2 PUSH2 0x3D6 SWAP2 SWAP1 PUSH2 0x2D7C JUMP JUMPDEST POP PUSH1 0x20 DUP3 ADD MLOAD DUP2 PUSH1 0x1 ADD SWAP1 DUP2 PUSH2 0x3EC SWAP2 SWAP1 PUSH2 0x2D7C JUMP JUMPDEST POP PUSH1 0x40 DUP3 ADD MLOAD DUP2 PUSH1 0x2 ADD SWAP1 DUP2 PUSH2 0x402 SWAP2 SWAP1 PUSH2 0x2D7C JUMP JUMPDEST POP SWAP1 POP POP CALLER PUSH20 0xFFFFFFFFFFFFFFFFFFFFFFFFFFFFFFFFFFFFFFFF AND PUSH32 0x298E769F14D3266A2093CC631184150A9584B1B38C1FB1385BE30E0665322BF2 DUP5 DUP5 DUP5 PUSH1 0x40 MLOAD PUSH2 0x450 SWAP4 SWAP3 SWAP2 SWAP1 PUSH2 0x2E4B JUMP JUMPDEST PUSH1 0x40 MLOAD DUP1 SWAP2 SUB SWAP1 LOG2 POP POP POP JUMP JUMPDEST PUSH0 DUP2 MLOAD GT PUSH2 0x4A0 JUMPI PUSH1 0x40 MLOAD PUSH32 0x8C379A000000000000000000000000000000000000000000000000000000000 DUP2 MSTORE PUSH1 0x4 ADD PUSH2 0x497 SWAP1 PUSH2 0x2EDF JUMP JUMPDEST PUSH1 0x40 MLOAD DUP1 SWAP2 SUB SWAP1 REVERT JUMPDEST PUSH0 PUSH20 0xFFFFFFFFFFFFFFFFFFFFFFFFFFFFFFFFFFFFFFFF AND PUSH0 DUP1 CALLER PUSH20 0xFFFFFFFFFFFFFFFFFFFFFFFFFFFFFFFFFFFFFFFF AND PUSH20 0xFFFFFFFFFFFFFFFFFFFFFFFFFFFFFFFFFFFFFFFF AND DUP2 MSTORE PUSH1 0x20 ADD SWAP1 DUP2 MSTORE PUSH1 0x20 ADD PUSH0 KECCAK256 PUSH1 0x1 ADD PUSH0 SWAP1 SLOAD SWAP1 PUSH2 0x100 EXP SWAP1 DIV PUSH20 0xFFFFFFFFFFFFFFFFFFFFFFFFFFFFFFFFFFFFFFFF AND PUSH20 0xFFFFFFFFFFFFFFFFFFFFFFFFFFFFFFFFFFFFFFFF AND SUB PUSH2 0x56C JUMPI PUSH1 0x40 MLOAD PUSH32 0x8C379A000000000000000000000000000000000000000000000000000000000 DUP2 MSTORE PUSH1 0x4 ADD PUSH2 0x563 SWAP1 PUSH2 0x2AF3 JUMP JUMPDEST PUSH1 0x40 MLOAD DUP1 SWAP2 SUB SWAP1 REVERT JUMPDEST PUSH0 PUSH2 0x575 PUSH2 0x1A50 JUMP JUMPDEST SWAP1 POP DUP2 DUP1 MLOAD SWAP1 PUSH1 0x20 ADD KECCAK256 DUP2 DUP1 MLOAD SWAP1 PUSH1 0x20 ADD KECCAK256 SUB PUSH2 0x5C7 JUMPI PUSH1 0x40 MLOAD PUSH32 0x8C379A000000000000000000000000000000000000000000000000000000000 DUP2 MSTORE PUSH1 0x4 ADD PUSH2 0x5BE SWAP1 PUSH2 0x2F47 JUMP JUMPDEST PUSH1 0x40 MLOAD DUP1 SWAP2 SUB SWAP1 REVERT JUMPDEST DUP2 PUSH0 DUP1 CALLER PUSH20 0xFFFFFFFFFFFFFFFFFFFFFFFFFFFFFFFFFFFFFFFF AND PUSH20 0xFFFFFFFFFFFFFFFFFFFFFFFFFFFFFFFFFFFFFFFF AND DUP2 MSTORE PUSH1 0x20 ADD SWAP1 DUP2 MSTORE PUSH1 0x20 ADD PUSH0 KECCAK256 PUSH0 ADD SWAP1 DUP2 PUSH2 0x612 SWAP2 SWAP1 PUSH2 0x2D7C JUMP JUMPDEST POP CALLER PUSH20 0xFFFFFFFFFFFFFFFFFFFFFFFFFFFFFFFFFFFFFFFF AND PUSH32 0x1B7934654BA536B6962955E057CE42885353BBAAD8C605A5CE0678E632F28410 DUP4 PUSH1 0x40 MLOAD PUSH2 0x659 SWAP2 SWAP1 PUSH2 0x287E JUMP JUMPDEST PUSH1 0x40 MLOAD DUP1 SWAP2 SUB SWAP1 LOG2 POP POP JUMP JUMPDEST PUSH0 DUP2 MLOAD GT PUSH2 0x6A8 JUMPI PUSH1 0x40 MLOAD PUSH32 0x8C379A000000000000000000000000000000000000000000000000000000000 DUP2 MSTORE PUSH1 0x4 ADD PUSH2 0x69F SWAP1 PUSH2 0x2FAF JUMP JUMPDEST PUSH1 0x40 MLOAD DUP1 SWAP2 SUB SWAP1 REVERT JUMPDEST PUSH0 PUSH20 0xFFFFFFFFFFFFFFFFFFFFFFFFFFFFFFFFFFFFFFFF AND PUSH0 DUP1 CALLER PUSH20 0xFFFFFFFFFFFFFFFFFFFFFFFFFFFFFFFFFFFFFFFF AND PUSH20 0xFFFFFFFFFFFFFFFFFFFFFFFFFFFFFFFFFFFFFFFF AND DUP2 MSTORE PUSH1 0x20 ADD SWAP1 DUP2 MSTORE PUSH1 0x20 ADD PUSH0 KECCAK256 PUSH1 0x1 ADD PUSH0 SWAP1 SLOAD SWAP1 PUSH2 0x100 EXP SWAP1 DIV PUSH20 0xFFFFFFFFFFFFFFFFFFFFFFFFFFFFFFFFFFFFFFFF AND PUSH20 0xFFFFFFFFFFFFFFFFFFFFFFFFFFFFFFFFFFFFFFFF AND EQ PUSH2 0x774 JUMPI PUSH1 0x40 MLOAD PUSH32 0x8C379A000000000000000000000000000000000000000000000000000000000 DUP2 MSTORE PUSH1 0x4 ADD PUSH2 0x76B SWAP1 PUSH2 0x303D JUMP JUMPDEST PUSH1 0x40 MLOAD DUP1 SWAP2 SUB SWAP1 REVERT JUMPDEST PUSH1 0x40 MLOAD DUP1 PUSH1 0x40 ADD PUSH1 0x40 MSTORE DUP1 DUP3 DUP2 MSTORE PUSH1 0x20 ADD CALLER PUSH20 0xFFFFFFFFFFFFFFFFFFFFFFFFFFFFFFFFFFFFFFFF AND DUP2 MSTORE POP PUSH0 DUP1 CALLER PUSH20 0xFFFFFFFFFFFFFFFFFFFFFFFFFFFFFFFFFFFFFFFF AND PUSH20 0xFFFFFFFFFFFFFFFFFFFFFFFFFFFFFFFFFFFFFFFF AND DUP2 MSTORE PUSH1 0x20 ADD SWAP1 DUP2 MSTORE PUSH1 0x20 ADD PUSH0 KECCAK256 PUSH0 DUP3 ADD MLOAD DUP2 PUSH0 ADD SWAP1 DUP2 PUSH2 0x7EE SWAP2 SWAP1 PUSH2 0x2D7C JUMP JUMPDEST POP PUSH1 0x20 DUP3 ADD MLOAD DUP2 PUSH1 0x1 ADD PUSH0 PUSH2 0x100 EXP DUP2 SLOAD DUP2 PUSH20 0xFFFFFFFFFFFFFFFFFFFFFFFFFFFFFFFFFFFFFFFF MUL NOT AND SWAP1 DUP4 PUSH20 0xFFFFFFFFFFFFFFFFFFFFFFFFFFFFFFFFFFFFFFFF AND MUL OR SWAP1 SSTORE POP SWAP1 POP POP CALLER PUSH20 0xFFFFFFFFFFFFFFFFFFFFFFFFFFFFFFFFFFFFFFFF AND PUSH32 0x1B7934654BA536B6962955E057CE42885353BBAAD8C605A5CE0678E632F28410 DUP3 PUSH1 0x40 MLOAD PUSH2 0x87E SWAP2 SWAP1 PUSH2 0x287E JUMP JUMPDEST PUSH1 0x40 MLOAD DUP1 SWAP2 SUB SWAP1 LOG2 POP JUMP JUMPDEST PUSH0 DUP1 PUSH20 0xFFFFFFFFFFFFFFFFFFFFFFFFFFFFFFFFFFFFFFFF AND PUSH0 DUP1 CALLER PUSH20 0xFFFFFFFFFFFFFFFFFFFFFFFFFFFFFFFFFFFFFFFF AND PUSH20 0xFFFFFFFFFFFFFFFFFFFFFFFFFFFFFFFFFFFFFFFF AND DUP2 MSTORE PUSH1 0x20 ADD SWAP1 DUP2 MSTORE PUSH1 0x20 ADD PUSH0 KECCAK256 PUSH1 0x1 ADD PUSH0 SWAP1 SLOAD SWAP1 PUSH2 0x100 EXP SWAP1 DIV PUSH20 0xFFFFFFFFFFFFFFFFFFFFFFFFFFFFFFFFFFFFFFFF AND PUSH20 0xFFFFFFFFFFFFFFFFFFFFFFFFFFFFFFFFFFFFFFFF AND SUB PUSH2 0x956 JUMPI PUSH1 0x40 MLOAD PUSH32 0x8C379A000000000000000000000000000000000000000000000000000000000 DUP2 MSTORE PUSH1 0x4 ADD PUSH2 0x94D SWAP1 PUSH2 0x2AF3 JUMP JUMPDEST PUSH1 0x40 MLOAD DUP1 SWAP2 SUB SWAP1 REVERT JUMPDEST PUSH0 PUSH1 0x3 PUSH0 CALLER PUSH20 0xFFFFFFFFFFFFFFFFFFFFFFFFFFFFFFFFFFFFFFFF AND PUSH20 0xFFFFFFFFFFFFFFFFFFFFFFFFFFFFFFFFFFFFFFFF AND DUP2 MSTORE PUSH1 0x20 ADD SWAP1 DUP2 MSTORE PUSH1 0x20 ADD PUSH0 KECCAK256 PUSH1 0x40 MLOAD DUP1 PUSH1 0x60 ADD PUSH1 0x40 MSTORE SWAP1 DUP2 PUSH0 DUP3 ADD DUP1 SLOAD PUSH2 0x9AE SWAP1 PUSH2 0x2BA6 JUMP JUMPDEST DUP1 PUSH1 0x1F ADD PUSH1 0x20 DUP1 SWAP2 DIV MUL PUSH1 0x20 ADD PUSH1 0x40 MLOAD SWAP1 DUP2 ADD PUSH1 0x40 MSTORE DUP1 SWAP3 SWAP2 SWAP1 DUP2 DUP2 MSTORE PUSH1 0x20 ADD DUP3 DUP1 SLOAD PUSH2 0x9DA SWAP1 PUSH2 0x2BA6 JUMP JUMPDEST DUP1 ISZERO PUSH2 0xA25 JUMPI DUP1 PUSH1 0x1F LT PUSH2 0x9FC JUMPI PUSH2 0x100 DUP1 DUP4 SLOAD DIV MUL DUP4 MSTORE SWAP2 PUSH1 0x20 ADD SWAP2 PUSH2 0xA25 JUMP JUMPDEST DUP3 ADD SWAP2 SWAP1 PUSH0 MSTORE PUSH1 0x20 PUSH0 KECCAK256 SWAP1 JUMPDEST DUP2 SLOAD DUP2 MSTORE SWAP1 PUSH1 0x1 ADD SWAP1 PUSH1 0x20 ADD DUP1 DUP4 GT PUSH2 0xA08 JUMPI DUP3 SWAP1 SUB PUSH1 0x1F AND DUP3 ADD SWAP2 JUMPDEST POP POP POP POP POP DUP2 MSTORE PUSH1 0x20 ADD PUSH1 0x1 DUP3 ADD DUP1 SLOAD PUSH2 0xA3E SWAP1 PUSH2 0x2BA6 JUMP JUMPDEST DUP1 PUSH1 0x1F ADD PUSH1 0x20 DUP1 SWAP2 DIV MUL PUSH1 0x20 ADD PUSH1 0x40 MLOAD SWAP1 DUP2 ADD PUSH1 0x40 MSTORE DUP1 SWAP3 SWAP2 SWAP1 DUP2 DUP2 MSTORE PUSH1 0x20 ADD DUP3 DUP1 SLOAD PUSH2 0xA6A SWAP1 PUSH2 0x2BA6 JUMP JUMPDEST DUP1 ISZERO PUSH2 0xAB5 JUMPI DUP1 PUSH1 0x1F LT PUSH2 0xA8C JUMPI PUSH2 0x100 DUP1 DUP4 SLOAD DIV MUL DUP4 MSTORE SWAP2 PUSH1 0x20 ADD SWAP2 PUSH2 0xAB5 JUMP JUMPDEST DUP3 ADD SWAP2 SWAP1 PUSH0 MSTORE PUSH1 0x20 PUSH0 KECCAK256 SWAP1 JUMPDEST DUP2 SLOAD DUP2 MSTORE SWAP1 PUSH1 0x1 ADD SWAP1 PUSH1 0x20 ADD DUP1 DUP4 GT PUSH2 0xA98 JUMPI DUP3 SWAP1 SUB PUSH1 0x1F AND DUP3 ADD SWAP2 JUMPDEST POP POP POP POP POP DUP2 MSTORE PUSH1 0x20 ADD PUSH1 0x2 DUP3 ADD DUP1 SLOAD PUSH2 0xACE SWAP1 PUSH2 0x2BA6 JUMP JUMPDEST DUP1 PUSH1 0x1F ADD PUSH1 0x20 DUP1 SWAP2 DIV MUL PUSH1 0x20 ADD PUSH1 0x40 MLOAD SWAP1 DUP2 ADD PUSH1 0x40 MSTORE DUP1 SWAP3 SWAP2 SWAP1 DUP2 DUP2 MSTORE PUSH1 0x20 ADD DUP3 DUP1 SLOAD PUSH2 0xAFA SWAP1 PUSH2 0x2BA6 JUMP JUMPDEST DUP1 ISZERO PUSH2 0xB45 JUMPI DUP1 PUSH1 0x1F LT PUSH2 0xB1C JUMPI PUSH2 0x100 DUP1 DUP4 SLOAD DIV MUL DUP4 MSTORE SWAP2 PUSH1 0x20 ADD SWAP2 PUSH2 0xB45 JUMP JUMPDEST DUP3 ADD SWAP2 SWAP1 PUSH0 MSTORE PUSH1 0x20 PUSH0 KECCAK256 SWAP1 JUMPDEST DUP2 SLOAD DUP2 MSTORE SWAP1 PUSH1 0x1 ADD SWAP1 PUSH1 0x20 ADD DUP1 DUP4 GT PUSH2 0xB28 JUMPI DUP3 SWAP1 SUB PUSH1 0x1F AND DUP3 ADD SWAP2 JUMPDEST POP POP POP POP POP DUP2 MSTORE POP POP SWAP1 POP PUSH0 DUP2 PUSH0 ADD MLOAD DUP3 PUSH1 0x20 ADD MLOAD PUSH1 0x40 MLOAD PUSH1 0x20 ADD PUSH2 0xB6B SWAP3 SWAP2 SWAP1 PUSH2 0x3095 JUMP JUMPDEST PUSH1 0x40 MLOAD PUSH1 0x20 DUP2 DUP4 SUB SUB DUP2 MSTORE SWAP1 PUSH1 0x40 MSTORE DUP1 MLOAD SWAP1 PUSH1 0x20 ADD KECCAK256 SWAP1 POP DUP1 DUP5 EQ SWAP3 POP POP POP SWAP2 SWAP1 POP JUMP JUMPDEST PUSH2 0xB97 PUSH2 0x22CE JUMP JUMPDEST PUSH0 PUSH20 0xFFFFFFFFFFFFFFFFFFFFFFFFFFFFFFFFFFFFFFFF AND PUSH0 DUP1 CALLER PUSH20 0xFFFFFFFFFFFFFFFFFFFFFFFFFFFFFFFFFFFFFFFF AND PUSH20 0xFFFFFFFFFFFFFFFFFFFFFFFFFFFFFFFFFFFFFFFF AND DUP2 MSTORE PUSH1 0x20 ADD SWAP1 DUP2 MSTORE PUSH1 0x20 ADD PUSH0 KECCAK256 PUSH1 0x1 ADD PUSH0 SWAP1 SLOAD SWAP1 PUSH2 0x100 EXP SWAP1 DIV PUSH20 0xFFFFFFFFFFFFFFFFFFFFFFFFFFFFFFFFFFFFFFFF AND PUSH20 0xFFFFFFFFFFFFFFFFFFFFFFFFFFFFFFFFFFFFFFFF AND SUB PUSH2 0xC63 JUMPI PUSH1 0x40 MLOAD PUSH32 0x8C379A000000000000000000000000000000000000000000000000000000000 DUP2 MSTORE PUSH1 0x4 ADD PUSH2 0xC5A SWAP1 PUSH2 0x2AF3 JUMP JUMPDEST PUSH1 0x40 MLOAD DUP1 SWAP2 SUB SWAP1 REVERT JUMPDEST PUSH1 0x3 PUSH0 CALLER PUSH20 0xFFFFFFFFFFFFFFFFFFFFFFFFFFFFFFFFFFFFFFFF AND PUSH20 0xFFFFFFFFFFFFFFFFFFFFFFFFFFFFFFFFFFFFFFFF AND DUP2 MSTORE PUSH1 0x20 ADD SWAP1 DUP2 MSTORE PUSH1 0x20 ADD PUSH0 KECCAK256 PUSH1 0x40 MLOAD DUP1 PUSH1 0x60 ADD PUSH1 0x40 MSTORE SWAP1 DUP2 PUSH0 DUP3 ADD DUP1 SLOAD PUSH2 0xCBA SWAP1 PUSH2 0x2BA6 JUMP JUMPDEST DUP1 PUSH1 0x1F ADD PUSH1 0x20 DUP1 SWAP2 DIV MUL PUSH1 0x20 ADD PUSH1 0x40 MLOAD SWAP1 DUP2 ADD PUSH1 0x40 MSTORE DUP1 SWAP3 SWAP2 SWAP1 DUP2 DUP2 MSTORE PUSH1 0x20 ADD DUP3 DUP1 SLOAD PUSH2 0xCE6 SWAP1 PUSH2 0x2BA6 JUMP JUMPDEST DUP1 ISZERO PUSH2 0xD31 JUMPI DUP1 PUSH1 0x1F LT PUSH2 0xD08 JUMPI PUSH2 0x100 DUP1 DUP4 SLOAD DIV MUL DUP4 MSTORE SWAP2 PUSH1 0x20 ADD SWAP2 PUSH2 0xD31 JUMP JUMPDEST DUP3 ADD SWAP2 SWAP1 PUSH0 MSTORE PUSH1 0x20 PUSH0 KECCAK256 SWAP1 JUMPDEST DUP2 SLOAD DUP2 MSTORE SWAP1 PUSH1 0x1 ADD SWAP1 PUSH1 0x20 ADD DUP1 DUP4 GT PUSH2 0xD14 JUMPI DUP3 SWAP1 SUB PUSH1 0x1F AND DUP3 ADD SWAP2 JUMPDEST POP POP POP POP POP DUP2 MSTORE PUSH1 0x20 ADD PUSH1 0x1 DUP3 ADD DUP1 SLOAD PUSH2 0xD4A SWAP1 PUSH2 0x2BA6 JUMP JUMPDEST DUP1 PUSH1 0x1F ADD PUSH1 0x20 DUP1 SWAP2 DIV MUL PUSH1 0x20 ADD PUSH1 0x40 MLOAD SWAP1 DUP2 ADD PUSH1 0x40 MSTORE DUP1 SWAP3 SWAP2 SWAP1 DUP2 DUP2 MSTORE PUSH1 0x20 ADD DUP3 DUP1 SLOAD PUSH2 0xD76 SWAP1 PUSH2 0x2BA6 JUMP JUMPDEST DUP1 ISZERO PUSH2 0xDC1 JUMPI DUP1 PUSH1 0x1F LT PUSH2 0xD98 JUMPI PUSH2 0x100 DUP1 DUP4 SLOAD DIV MUL DUP4 MSTORE SWAP2 PUSH1 0x20 ADD SWAP2 PUSH2 0xDC1 JUMP JUMPDEST DUP3 ADD SWAP2 SWAP1 PUSH0 MSTORE PUSH1 0x20 PUSH0 KECCAK256 SWAP1 JUMPDEST DUP2 SLOAD DUP2 MSTORE SWAP1 PUSH1 0x1 ADD SWAP1 PUSH1 0x20 ADD DUP1 DUP4 GT PUSH2 0xDA4 JUMPI DUP3 SWAP1 SUB PUSH1 0x1F AND DUP3 ADD SWAP2 JUMPDEST POP POP POP POP POP DUP2 MSTORE PUSH1 0x20 ADD PUSH1 0x2 DUP3 ADD DUP1 SLOAD PUSH2 0xDDA SWAP1 PUSH2 0x2BA6 JUMP JUMPDEST DUP1 PUSH1 0x1F ADD PUSH1 0x20 DUP1 SWAP2 DIV MUL PUSH1 0x20 ADD PUSH1 0x40 MLOAD SWAP1 DUP2 ADD PUSH1 0x40 MSTORE DUP1 SWAP3 SWAP2 SWAP1 DUP2 DUP2 MSTORE PUSH1 0x20 ADD DUP3 DUP1 SLOAD PUSH2 0xE06 SWAP1 PUSH2 0x2BA6 JUMP JUMPDEST DUP1 ISZERO PUSH2 0xE51 JUMPI DUP1 PUSH1 0x1F LT PUSH2 0xE28 JUMPI PUSH2 0x100 DUP1 DUP4 SLOAD DIV MUL DUP4 MSTORE SWAP2 PUSH1 0x20 ADD SWAP2 PUSH2 0xE51 JUMP JUMPDEST DUP3 ADD SWAP2 SWAP1 PUSH0 MSTORE PUSH1 0x20 PUSH0 KECCAK256 SWAP1 JUMPDEST DUP2 SLOAD DUP2 MSTORE SWAP1 PUSH1 0x1 ADD SWAP1 PUSH1 0x20 ADD DUP1 DUP4 GT PUSH2 0xE34 JUMPI DUP3 SWAP1 SUB PUSH1 0x1F AND DUP3 ADD SWAP2 JUMPDEST POP POP POP POP POP DUP2 MSTORE POP POP SWAP1 POP SWAP1 JUMP JUMPDEST PUSH0 DUP1 PUSH20 0xFFFFFFFFFFFFFFFFFFFFFFFFFFFFFFFFFFFFFFFF AND PUSH0 DUP1 DUP7 PUSH20 0xFFFFFFFFFFFFFFFFFFFFFFFFFFFFFFFFFFFFFFFF AND PUSH20 0xFFFFFFFFFFFFFFFFFFFFFFFFFFFFFFFFFFFFFFFF AND DUP2 MSTORE PUSH1 0x20 ADD SWAP1 DUP2 MSTORE PUSH1 0x20 ADD PUSH0 KECCAK256 PUSH1 0x1 ADD PUSH0 SWAP1 SLOAD SWAP1 PUSH2 0x100 EXP SWAP1 DIV PUSH20 0xFFFFFFFFFFFFFFFFFFFFFFFFFFFFFFFFFFFFFFFF AND PUSH20 0xFFFFFFFFFFFFFFFFFFFFFFFFFFFFFFFFFFFFFFFF AND SUB PUSH2 0xF2C JUMPI PUSH1 0x40 MLOAD PUSH32 0x8C379A000000000000000000000000000000000000000000000000000000000 DUP2 MSTORE PUSH1 0x4 ADD PUSH2 0xF23 SWAP1 PUSH2 0x3128 JUMP JUMPDEST PUSH1 0x40 MLOAD DUP1 SWAP2 SUB SWAP1 REVERT JUMPDEST PUSH0 PUSH1 0x4 PUSH0 DUP7 PUSH20 0xFFFFFFFFFFFFFFFFFFFFFFFFFFFFFFFFFFFFFFFF AND PUSH20 0xFFFFFFFFFFFFFFFFFFFFFFFFFFFFFFFFFFFFFFFF AND DUP2 MSTORE PUSH1 0x20 ADD SWAP1 DUP2 MSTORE PUSH1 0x20 ADD PUSH0 KECCAK256 DUP1 SLOAD SWAP1 POP GT PUSH2 0xFAE JUMPI PUSH1 0x40 MLOAD PUSH32 0x8C379A000000000000000000000000000000000000000000000000000000000 DUP2 MSTORE PUSH1 0x4 ADD PUSH2 0xFA5 SWAP1 PUSH2 0x31B6 JUMP JUMPDEST PUSH1 0x40 MLOAD DUP1 SWAP2 SUB SWAP1 REVERT JUMPDEST PUSH0 PUSH1 0x4 PUSH0 DUP7 PUSH20 0xFFFFFFFFFFFFFFFFFFFFFFFFFFFFFFFFFFFFFFFF AND PUSH20 0xFFFFFFFFFFFFFFFFFFFFFFFFFFFFFFFFFFFFFFFF AND DUP2 MSTORE PUSH1 0x20 ADD SWAP1 DUP2 MSTORE PUSH1 0x20 ADD PUSH0 KECCAK256 DUP1 SLOAD DUP1 PUSH1 0x20 MUL PUSH1 0x20 ADD PUSH1 0x40 MLOAD SWAP1 DUP2 ADD PUSH1 0x40 MSTORE DUP1 SWAP3 SWAP2 SWAP1 DUP2 DUP2 MSTORE PUSH1 0x20 ADD PUSH0 SWAP1 JUMPDEST DUP3 DUP3 LT ISZERO PUSH2 0x115C JUMPI DUP4 DUP3 SWAP1 PUSH0 MSTORE PUSH1 0x20 PUSH0 KECCAK256 SWAP1 PUSH1 0x8 MUL ADD PUSH1 0x40 MLOAD DUP1 PUSH2 0x100 ADD PUSH1 0x40 MSTORE SWAP1 DUP2 PUSH0 DUP3 ADD PUSH0 SWAP1 SLOAD SWAP1 PUSH2 0x100 EXP SWAP1 DIV PUSH20 0xFFFFFFFFFFFFFFFFFFFFFFFFFFFFFFFFFFFFFFFF AND PUSH20 0xFFFFFFFFFFFFFFFFFFFFFFFFFFFFFFFFFFFFFFFF AND PUSH20 0xFFFFFFFFFFFFFFFFFFFFFFFFFFFFFFFFFFFFFFFF AND DUP2 MSTORE PUSH1 0x20 ADD PUSH1 0x1 DUP3 ADD SLOAD DUP2 MSTORE PUSH1 0x20 ADD PUSH1 0x2 DUP3 ADD DUP1 SLOAD PUSH2 0x109B SWAP1 PUSH2 0x2BA6 JUMP JUMPDEST DUP1 PUSH1 0x1F ADD PUSH1 0x20 DUP1 SWAP2 DIV MUL PUSH1 0x20 ADD PUSH1 0x40 MLOAD SWAP1 DUP2 ADD PUSH1 0x40 MSTORE DUP1 SWAP3 SWAP2 SWAP1 DUP2 DUP2 MSTORE PUSH1 0x20 ADD DUP3 DUP1 SLOAD PUSH2 0x10C7 SWAP1 PUSH2 0x2BA6 JUMP JUMPDEST DUP1 ISZERO PUSH2 0x1112 JUMPI DUP1 PUSH1 0x1F LT PUSH2 0x10E9 JUMPI PUSH2 0x100 DUP1 DUP4 SLOAD DIV MUL DUP4 MSTORE SWAP2 PUSH1 0x20 ADD SWAP2 PUSH2 0x1112 JUMP JUMPDEST DUP3 ADD SWAP2 SWAP1 PUSH0 MSTORE PUSH1 0x20 PUSH0 KECCAK256 SWAP1 JUMPDEST DUP2 SLOAD DUP2 MSTORE SWAP1 PUSH1 0x1 ADD SWAP1 PUSH1 0x20 ADD DUP1 DUP4 GT PUSH2 0x10F5 JUMPI DUP3 SWAP1 SUB PUSH1 0x1F AND DUP3 ADD SWAP2 JUMPDEST POP POP POP POP POP DUP2 MSTORE PUSH1 0x20 ADD PUSH1 0x3 DUP3 ADD SLOAD DUP2 MSTORE PUSH1 0x20 ADD PUSH1 0x4 DUP3 ADD SLOAD DUP2 MSTORE PUSH1 0x20 ADD PUSH1 0x5 DUP3 ADD SLOAD DUP2 MSTORE PUSH1 0x20 ADD PUSH1 0x6 DUP3 ADD SLOAD DUP2 MSTORE PUSH1 0x20 ADD PUSH1 0x7 DUP3 ADD SLOAD DUP2 MSTORE POP POP DUP2 MSTORE PUSH1 0x20 ADD SWAP1 PUSH1 0x1 ADD SWAP1 PUSH2 0x100B JUMP JUMPDEST POP POP POP POP SWAP1 POP PUSH0 JUMPDEST DUP2 MLOAD DUP2 LT ISZERO PUSH2 0x12A2 JUMPI DUP5 PUSH20 0xFFFFFFFFFFFFFFFFFFFFFFFFFFFFFFFFFFFFFFFF AND DUP3 DUP3 DUP2 MLOAD DUP2 LT PUSH2 0x1197 JUMPI PUSH2 0x1196 PUSH2 0x31D4 JUMP JUMPDEST JUMPDEST PUSH1 0x20 MUL PUSH1 0x20 ADD ADD MLOAD PUSH0 ADD MLOAD PUSH20 0xFFFFFFFFFFFFFFFFFFFFFFFFFFFFFFFFFFFFFFFF AND EQ DUP1 ISZERO PUSH2 0x11E4 JUMPI POP PUSH2 0x12C DUP3 DUP3 DUP2 MLOAD DUP2 LT PUSH2 0x11D6 JUMPI PUSH2 0x11D5 PUSH2 0x31D4 JUMP JUMPDEST JUMPDEST PUSH1 0x20 MUL PUSH1 0x20 ADD ADD MLOAD PUSH1 0x20 ADD MLOAD SGT JUMPDEST ISZERO PUSH2 0x1245 JUMPI DUP5 PUSH20 0xFFFFFFFFFFFFFFFFFFFFFFFFFFFFFFFFFFFFFFFF AND PUSH32 0xDC794785ACF9C11E109FEFC6D2DC8BCA096830E028A59F238CC02926513F8CC7 DUP6 PUSH1 0x1 PUSH1 0x40 MLOAD PUSH2 0x1232 SWAP3 SWAP2 SWAP1 PUSH2 0x3210 JUMP JUMPDEST PUSH1 0x40 MLOAD DUP1 SWAP2 SUB SWAP1 LOG2 PUSH1 0x1 SWAP3 POP POP POP PUSH2 0x12A8 JUMP JUMPDEST DUP5 PUSH20 0xFFFFFFFFFFFFFFFFFFFFFFFFFFFFFFFFFFFFFFFF AND PUSH32 0xDC794785ACF9C11E109FEFC6D2DC8BCA096830E028A59F238CC02926513F8CC7 DUP6 PUSH0 PUSH1 0x40 MLOAD PUSH2 0x128D SWAP3 SWAP2 SWAP1 PUSH2 0x3210 JUMP JUMPDEST PUSH1 0x40 MLOAD DUP1 SWAP2 SUB SWAP1 LOG2 DUP1 DUP1 PUSH1 0x1 ADD SWAP2 POP POP PUSH2 0x1164 JUMP JUMPDEST POP PUSH0 SWAP2 POP POP JUMPDEST SWAP4 SWAP3 POP POP POP JUMP JUMPDEST PUSH1 0x40 MLOAD DUP1 PUSH1 0x40 ADD PUSH1 0x40 MSTORE DUP1 PUSH1 0x7 DUP2 MSTORE PUSH1 0x20 ADD PUSH32 0x6D616E6167657200000000000000000000000000000000000000000000000000 DUP2 MSTORE POP DUP1 MLOAD SWAP1 PUSH1 0x20 ADD KECCAK256 PUSH1 0x1 PUSH0 CALLER PUSH20 0xFFFFFFFFFFFFFFFFFFFFFFFFFFFFFFFFFFFFFFFF AND PUSH20 0xFFFFFFFFFFFFFFFFFFFFFFFFFFFFFFFFFFFFFFFF AND DUP2 MSTORE PUSH1 0x20 ADD SWAP1 DUP2 MSTORE PUSH1 0x20 ADD PUSH0 KECCAK256 PUSH1 0x40 MLOAD PUSH2 0x1336 SWAP2 SWAP1 PUSH2 0x32D3 JUMP JUMPDEST PUSH1 0x40 MLOAD DUP1 SWAP2 SUB SWAP1 KECCAK256 EQ PUSH2 0x137E JUMPI PUSH1 0x40 MLOAD PUSH32 0x8C379A000000000000000000000000000000000000000000000000000000000 DUP2 MSTORE PUSH1 0x4 ADD PUSH2 0x1375 SWAP1 PUSH2 0x3333 JUMP JUMPDEST PUSH1 0x40 MLOAD DUP1 SWAP2 SUB SWAP1 REVERT JUMPDEST PUSH0 PUSH20 0xFFFFFFFFFFFFFFFFFFFFFFFFFFFFFFFFFFFFFFFF AND PUSH0 DUP1 CALLER PUSH20 0xFFFFFFFFFFFFFFFFFFFFFFFFFFFFFFFFFFFFFFFF AND PUSH20 0xFFFFFFFFFFFFFFFFFFFFFFFFFFFFFFFFFFFFFFFF AND DUP2 MSTORE PUSH1 0x20 ADD SWAP1 DUP2 MSTORE PUSH1 0x20 ADD PUSH0 KECCAK256 PUSH1 0x1 ADD PUSH0 SWAP1 SLOAD SWAP1 PUSH2 0x100 EXP SWAP1 DIV PUSH20 0xFFFFFFFFFFFFFFFFFFFFFFFFFFFFFFFFFFFFFFFF AND PUSH20 0xFFFFFFFFFFFFFFFFFFFFFFFFFFFFFFFFFFFFFFFF AND SUB PUSH2 0x144A JUMPI PUSH1 0x40 MLOAD PUSH32 0x8C379A000000000000000000000000000000000000000000000000000000000 DUP2 MSTORE PUSH1 0x4 ADD PUSH2 0x1441 SWAP1 PUSH2 0x2AF3 JUMP JUMPDEST PUSH1 0x40 MLOAD DUP1 SWAP2 SUB SWAP1 REVERT JUMPDEST PUSH0 DUP2 MLOAD GT PUSH2 0x148D JUMPI PUSH1 0x40 MLOAD PUSH32 0x8C379A000000000000000000000000000000000000000000000000000000000 DUP2 MSTORE PUSH1 0x4 ADD PUSH2 0x1484 SWAP1 PUSH2 0x339B JUMP JUMPDEST PUSH1 0x40 MLOAD DUP1 SWAP2 SUB SWAP1 REVERT JUMPDEST DUP1 PUSH1 0x1 PUSH0 DUP5 PUSH20 0xFFFFFFFFFFFFFFFFFFFFFFFFFFFFFFFFFFFFFFFF AND PUSH20 0xFFFFFFFFFFFFFFFFFFFFFFFFFFFFFFFFFFFFFFFF AND DUP2 MSTORE PUSH1 0x20 ADD SWAP1 DUP2 MSTORE PUSH1 0x20 ADD PUSH0 KECCAK256 SWAP1 DUP2 PUSH2 0x14D7 SWAP2 SWAP1 PUSH2 0x2D7C JUMP JUMPDEST POP PUSH1 0x2 PUSH0 DUP4 PUSH20 0xFFFFFFFFFFFFFFFFFFFFFFFFFFFFFFFFFFFFFFFF AND PUSH20 0xFFFFFFFFFFFFFFFFFFFFFFFFFFFFFFFFFFFFFFFF AND DUP2 MSTORE PUSH1 0x20 ADD SWAP1 DUP2 MSTORE PUSH1 0x20 ADD PUSH0 KECCAK256 DUP2 SWAP1 DUP1 PUSH1 0x1 DUP2 SLOAD ADD DUP1 DUP3 SSTORE DUP1 SWAP2 POP POP PUSH1 0x1 SWAP1 SUB SWAP1 PUSH0 MSTORE PUSH1 0x20 PUSH0 KECCAK256 ADD PUSH0 SWAP1 SWAP2 SWAP1 SWAP2 SWAP1 SWAP2 POP SWAP1 DUP2 PUSH2 0x1544 SWAP2 SWAP1 PUSH2 0x2D7C JUMP JUMPDEST POP DUP2 PUSH20 0xFFFFFFFFFFFFFFFFFFFFFFFFFFFFFFFFFFFFFFFF AND PUSH32 0x3565795C2FB8842C21347D277937778BBCFE788B5B4F790FC5E408786CBE9C90 DUP3 PUSH1 0x40 MLOAD PUSH2 0x158B SWAP2 SWAP1 PUSH2 0x287E JUMP JUMPDEST PUSH1 0x40 MLOAD DUP1 SWAP2 SUB SWAP1 LOG2 POP POP JUMP JUMPDEST PUSH1 0x40 MLOAD DUP1 PUSH1 0x40 ADD PUSH1 0x40 MSTORE DUP1 PUSH1 0x7 DUP2 MSTORE PUSH1 0x20 ADD PUSH32 0x6D616E6167657200000000000000000000000000000000000000000000000000 DUP2 MSTORE POP DUP1 MLOAD SWAP1 PUSH1 0x20 ADD KECCAK256 PUSH1 0x1 PUSH0 CALLER PUSH20 0xFFFFFFFFFFFFFFFFFFFFFFFFFFFFFFFFFFFFFFFF AND PUSH20 0xFFFFFFFFFFFFFFFFFFFFFFFFFFFFFFFFFFFFFFFF AND DUP2 MSTORE PUSH1 0x20 ADD SWAP1 DUP2 MSTORE PUSH1 0x20 ADD PUSH0 KECCAK256 PUSH1 0x40 MLOAD PUSH2 0x161E SWAP2 SWAP1 PUSH2 0x32D3 JUMP JUMPDEST PUSH1 0x40 MLOAD DUP1 SWAP2 SUB SWAP1 KECCAK256 EQ PUSH2 0x1666 JUMPI PUSH1 0x40 MLOAD PUSH32 0x8C379A000000000000000000000000000000000000000000000000000000000 DUP2 MSTORE PUSH1 0x4 ADD PUSH2 0x165D SWAP1 PUSH2 0x3333 JUMP JUMPDEST PUSH1 0x40 MLOAD DUP1 SWAP2 SUB SWAP1 REVERT JUMPDEST PUSH0 PUSH20 0xFFFFFFFFFFFFFFFFFFFFFFFFFFFFFFFFFFFFFFFF AND PUSH0 DUP1 CALLER PUSH20 0xFFFFFFFFFFFFFFFFFFFFFFFFFFFFFFFFFFFFFFFF AND PUSH20 0xFFFFFFFFFFFFFFFFFFFFFFFFFFFFFFFFFFFFFFFF AND DUP2 MSTORE PUSH1 0x20 ADD SWAP1 DUP2 MSTORE PUSH1 0x20 ADD PUSH0 KECCAK256 PUSH1 0x1 ADD PUSH0 SWAP1 SLOAD SWAP1 PUSH2 0x100 EXP SWAP1 DIV PUSH20 0xFFFFFFFFFFFFFFFFFFFFFFFFFFFFFFFFFFFFFFFF AND PUSH20 0xFFFFFFFFFFFFFFFFFFFFFFFFFFFFFFFFFFFFFFFF AND SUB PUSH2 0x1732 JUMPI PUSH1 0x40 MLOAD PUSH32 0x8C379A000000000000000000000000000000000000000000000000000000000 DUP2 MSTORE PUSH1 0x4 ADD PUSH2 0x1729 SWAP1 PUSH2 0x2AF3 JUMP JUMPDEST PUSH1 0x40 MLOAD DUP1 SWAP2 SUB SWAP1 REVERT JUMPDEST PUSH0 DUP3 MLOAD GT PUSH2 0x1775 JUMPI PUSH1 0x40 MLOAD PUSH32 0x8C379A000000000000000000000000000000000000000000000000000000000 DUP2 MSTORE PUSH1 0x4 ADD PUSH2 0x176C SWAP1 PUSH2 0x339B JUMP JUMPDEST PUSH1 0x40 MLOAD DUP1 SWAP2 SUB SWAP1 REVERT JUMPDEST PUSH0 CALLER DUP5 DUP4 DUP6 TIMESTAMP PUSH1 0x40 MLOAD PUSH1 0x20 ADD PUSH2 0x178F SWAP6 SWAP5 SWAP4 SWAP3 SWAP2 SWAP1 PUSH2 0x343E JUMP JUMPDEST PUSH1 0x40 MLOAD PUSH1 0x20 DUP2 DUP4 SUB SUB DUP2 MSTORE SWAP1 PUSH1 0x40 MSTORE DUP1 MLOAD SWAP1 PUSH1 0x20 ADD KECCAK256 SWAP1 POP PUSH0 CALLER DUP6 DUP6 TIMESTAMP PUSH1 0x40 MLOAD PUSH1 0x20 ADD PUSH2 0x17BF SWAP5 SWAP4 SWAP3 SWAP2 SWAP1 PUSH2 0x3498 JUMP JUMPDEST PUSH1 0x40 MLOAD PUSH1 0x20 DUP2 DUP4 SUB SUB DUP2 MSTORE SWAP1 PUSH1 0x40 MSTORE DUP1 MLOAD SWAP1 PUSH1 0x20 ADD KECCAK256 SWAP1 POP PUSH0 CALLER DUP7 DUP6 TIMESTAMP PUSH1 0x40 MLOAD PUSH1 0x20 ADD PUSH2 0x17EF SWAP5 SWAP4 SWAP3 SWAP2 SWAP1 PUSH2 0x34E1 JUMP JUMPDEST PUSH1 0x40 MLOAD PUSH1 0x20 DUP2 DUP4 SUB SUB DUP2 MSTORE SWAP1 PUSH1 0x40 MSTORE DUP1 MLOAD SWAP1 PUSH1 0x20 ADD KECCAK256 SWAP1 POP PUSH0 CALLER DUP8 PUSH2 0x12C DUP8 SGT TIMESTAMP PUSH1 0x40 MLOAD PUSH1 0x20 ADD PUSH2 0x1823 SWAP5 SWAP4 SWAP3 SWAP2 SWAP1 PUSH2 0x3573 JUMP JUMPDEST PUSH1 0x40 MLOAD PUSH1 0x20 DUP2 DUP4 SUB SUB DUP2 MSTORE SWAP1 PUSH1 0x40 MSTORE DUP1 MLOAD SWAP1 PUSH1 0x20 ADD KECCAK256 SWAP1 POP PUSH1 0x4 PUSH0 DUP9 PUSH20 0xFFFFFFFFFFFFFFFFFFFFFFFFFFFFFFFFFFFFFFFF AND PUSH20 0xFFFFFFFFFFFFFFFFFFFFFFFFFFFFFFFFFFFFFFFF AND DUP2 MSTORE PUSH1 0x20 ADD SWAP1 DUP2 MSTORE PUSH1 0x20 ADD PUSH0 KECCAK256 PUSH1 0x40 MLOAD DUP1 PUSH2 0x100 ADD PUSH1 0x40 MSTORE DUP1 CALLER PUSH20 0xFFFFFFFFFFFFFFFFFFFFFFFFFFFFFFFFFFFFFFFF AND DUP2 MSTORE PUSH1 0x20 ADD DUP8 DUP2 MSTORE PUSH1 0x20 ADD DUP9 DUP2 MSTORE PUSH1 0x20 ADD DUP7 DUP2 MSTORE PUSH1 0x20 ADD DUP6 DUP2 MSTORE PUSH1 0x20 ADD DUP5 DUP2 MSTORE PUSH1 0x20 ADD DUP4 DUP2 MSTORE PUSH1 0x20 ADD TIMESTAMP DUP2 MSTORE POP SWAP1 DUP1 PUSH1 0x1 DUP2 SLOAD ADD DUP1 DUP3 SSTORE DUP1 SWAP2 POP POP PUSH1 0x1 SWAP1 SUB SWAP1 PUSH0 MSTORE PUSH1 0x20 PUSH0 KECCAK256 SWAP1 PUSH1 0x8 MUL ADD PUSH0 SWAP1 SWAP2 SWAP1 SWAP2 SWAP1 SWAP2 POP PUSH0 DUP3 ADD MLOAD DUP2 PUSH0 ADD PUSH0 PUSH2 0x100 EXP DUP2 SLOAD DUP2 PUSH20 0xFFFFFFFFFFFFFFFFFFFFFFFFFFFFFFFFFFFFFFFF MUL NOT AND SWAP1 DUP4 PUSH20 0xFFFFFFFFFFFFFFFFFFFFFFFFFFFFFFFFFFFFFFFF AND MUL OR SWAP1 SSTORE POP PUSH1 0x20 DUP3 ADD MLOAD DUP2 PUSH1 0x1 ADD SSTORE PUSH1 0x40 DUP3 ADD MLOAD DUP2 PUSH1 0x2 ADD SWAP1 DUP2 PUSH2 0x1951 SWAP2 SWAP1 PUSH2 0x2D7C JUMP JUMPDEST POP PUSH1 0x60 DUP3 ADD MLOAD DUP2 PUSH1 0x3 ADD SSTORE PUSH1 0x80 DUP3 ADD MLOAD DUP2 PUSH1 0x4 ADD SSTORE PUSH1 0xA0 DUP3 ADD MLOAD DUP2 PUSH1 0x5 ADD SSTORE PUSH1 0xC0 DUP3 ADD MLOAD DUP2 PUSH1 0x6 ADD SSTORE PUSH1 0xE0 DUP3 ADD MLOAD DUP2 PUSH1 0x7 ADD SSTORE POP POP PUSH1 0x2 PUSH0 DUP9 PUSH20 0xFFFFFFFFFFFFFFFFFFFFFFFFFFFFFFFFFFFFFFFF AND PUSH20 0xFFFFFFFFFFFFFFFFFFFFFFFFFFFFFFFFFFFFFFFF AND DUP2 MSTORE PUSH1 0x20 ADD SWAP1 DUP2 MSTORE PUSH1 0x20 ADD PUSH0 KECCAK256 DUP7 SWAP1 DUP1 PUSH1 0x1 DUP2 SLOAD ADD DUP1 DUP3 SSTORE DUP1 SWAP2 POP POP PUSH1 0x1 SWAP1 SUB SWAP1 PUSH0 MSTORE PUSH1 0x20 PUSH0 KECCAK256 ADD PUSH0 SWAP1 SWAP2 SWAP1 SWAP2 SWAP1 SWAP2 POP SWAP1 DUP2 PUSH2 0x19F2 SWAP2 SWAP1 PUSH2 0x2D7C JUMP JUMPDEST POP CALLER PUSH20 0xFFFFFFFFFFFFFFFFFFFFFFFFFFFFFFFFFFFFFFFF AND PUSH32 0x8664F7879E62B02F94C87F05B19346809EF65FC277EBAD0CEB8E14A5C2F44E6E DUP9 DUP8 DUP10 DUP8 PUSH1 0x40 MLOAD PUSH2 0x1A3F SWAP5 SWAP4 SWAP3 SWAP2 SWAP1 PUSH2 0x35CF JUMP JUMPDEST PUSH1 0x40 MLOAD DUP1 SWAP2 SUB SWAP1 LOG2 POP POP POP POP POP POP POP JUMP JUMPDEST PUSH1 0x60 PUSH0 PUSH20 0xFFFFFFFFFFFFFFFFFFFFFFFFFFFFFFFFFFFFFFFF AND PUSH0 DUP1 CALLER PUSH20 0xFFFFFFFFFFFFFFFFFFFFFFFFFFFFFFFFFFFFFFFF AND PUSH20 0xFFFFFFFFFFFFFFFFFFFFFFFFFFFFFFFFFFFFFFFF AND DUP2 MSTORE PUSH1 0x20 ADD SWAP1 DUP2 MSTORE PUSH1 0x20 ADD PUSH0 KECCAK256 PUSH1 0x1 ADD PUSH0 SWAP1 SLOAD SWAP1 PUSH2 0x100 EXP SWAP1 DIV PUSH20 0xFFFFFFFFFFFFFFFFFFFFFFFFFFFFFFFFFFFFFFFF AND PUSH20 0xFFFFFFFFFFFFFFFFFFFFFFFFFFFFFFFFFFFFFFFF AND SUB PUSH2 0x1B1E JUMPI PUSH1 0x40 MLOAD PUSH32 0x8C379A000000000000000000000000000000000000000000000000000000000 DUP2 MSTORE PUSH1 0x4 ADD PUSH2 0x1B15 SWAP1 PUSH2 0x3663 JUMP JUMPDEST PUSH1 0x40 MLOAD DUP1 SWAP2 SUB SWAP1 REVERT JUMPDEST PUSH0 DUP1 CALLER PUSH20 0xFFFFFFFFFFFFFFFFFFFFFFFFFFFFFFFFFFFFFFFF AND PUSH20 0xFFFFFFFFFFFFFFFFFFFFFFFFFFFFFFFFFFFFFFFF AND DUP2 MSTORE PUSH1 0x20 ADD SWAP1 DUP2 MSTORE PUSH1 0x20 ADD PUSH0 KECCAK256 PUSH0 ADD DUP1 SLOAD PUSH2 0x1B67 SWAP1 PUSH2 0x2BA6 JUMP JUMPDEST DUP1 PUSH1 0x1F ADD PUSH1 0x20 DUP1 SWAP2 DIV MUL PUSH1 0x20 ADD PUSH1 0x40 MLOAD SWAP1 DUP2 ADD PUSH1 0x40 MSTORE DUP1 SWAP3 SWAP2 SWAP1 DUP2 DUP2 MSTORE PUSH1 0x20 ADD DUP3 DUP1 SLOAD PUSH2 0x1B93 SWAP1 PUSH2 0x2BA6 JUMP JUMPDEST DUP1 ISZERO PUSH2 0x1BDE JUMPI DUP1 PUSH1 0x1F LT PUSH2 0x1BB5 JUMPI PUSH2 0x100 DUP1 DUP4 SLOAD DIV MUL DUP4 MSTORE SWAP2 PUSH1 0x20 ADD SWAP2 PUSH2 0x1BDE JUMP JUMPDEST DUP3 ADD SWAP2 SWAP1 PUSH0 MSTORE PUSH1 0x20 PUSH0 KECCAK256 SWAP1 JUMPDEST DUP2 SLOAD DUP2 MSTORE SWAP1 PUSH1 0x1 ADD SWAP1 PUSH1 0x20 ADD DUP1 DUP4 GT PUSH2 0x1BC1 JUMPI DUP3 SWAP1 SUB PUSH1 0x1F AND DUP3 ADD SWAP2 JUMPDEST POP POP POP POP POP SWAP1 POP SWAP1 JUMP JUMPDEST PUSH0 DUP1 PUSH20 0xFFFFFFFFFFFFFFFFFFFFFFFFFFFFFFFFFFFFFFFF AND PUSH0 DUP1 CALLER PUSH20 0xFFFFFFFFFFFFFFFFFFFFFFFFFFFFFFFFFFFFFFFF AND PUSH20 0xFFFFFFFFFFFFFFFFFFFFFFFFFFFFFFFFFFFFFFFF AND DUP2 MSTORE PUSH1 0x20 ADD SWAP1 DUP2 MSTORE PUSH1 0x20 ADD PUSH0 KECCAK256 PUSH1 0x1 ADD PUSH0 SWAP1 SLOAD SWAP1 PUSH2 0x100 EXP SWAP1 DIV PUSH20 0xFFFFFFFFFFFFFFFFFFFFFFFFFFFFFFFFFFFFFFFF AND PUSH20 0xFFFFFFFFFFFFFFFFFFFFFFFFFFFFFFFFFFFFFFFF AND SUB PUSH2 0x1CB5 JUMPI PUSH1 0x40 MLOAD PUSH32 0x8C379A000000000000000000000000000000000000000000000000000000000 DUP2 MSTORE PUSH1 0x4 ADD PUSH2 0x1CAC SWAP1 PUSH2 0x2AF3 JUMP JUMPDEST PUSH1 0x40 MLOAD DUP1 SWAP2 SUB SWAP1 REVERT JUMPDEST DUP3 DUP3 PUSH1 0x40 MLOAD PUSH1 0x20 ADD PUSH2 0x1CC8 SWAP3 SWAP2 SWAP1 PUSH2 0x3095 JUMP JUMPDEST PUSH1 0x40 MLOAD PUSH1 0x20 DUP2 DUP4 SUB SUB DUP2 MSTORE SWAP1 PUSH1 0x40 MSTORE DUP1 MLOAD SWAP1 PUSH1 0x20 ADD KECCAK256 SWAP1 POP SWAP3 SWAP2 POP POP JUMP JUMPDEST PUSH0 DUP1 PUSH20 0xFFFFFFFFFFFFFFFFFFFFFFFFFFFFFFFFFFFFFFFF AND PUSH0 DUP1 DUP7 PUSH20 0xFFFFFFFFFFFFFFFFFFFFFFFFFFFFFFFFFFFFFFFF AND PUSH20 0xFFFFFFFFFFFFFFFFFFFFFFFFFFFFFFFFFFFFFFFF AND DUP2 MSTORE PUSH1 0x20 ADD SWAP1 DUP2 MSTORE PUSH1 0x20 ADD PUSH0 KECCAK256 PUSH1 0x1 ADD PUSH0 SWAP1 SLOAD SWAP1 PUSH2 0x100 EXP SWAP1 DIV PUSH20 0xFFFFFFFFFFFFFFFFFFFFFFFFFFFFFFFFFFFFFFFF AND PUSH20 0xFFFFFFFFFFFFFFFFFFFFFFFFFFFFFFFFFFFFFFFF AND SUB PUSH2 0x1DB3 JUMPI PUSH1 0x40 MLOAD PUSH32 0x8C379A000000000000000000000000000000000000000000000000000000000 DUP2 MSTORE PUSH1 0x4 ADD PUSH2 0x1DAA SWAP1 PUSH2 0x3128 JUMP JUMPDEST PUSH1 0x40 MLOAD DUP1 SWAP2 SUB SWAP1 REVERT JUMPDEST PUSH0 PUSH1 0x4 PUSH0 DUP7 PUSH20 0xFFFFFFFFFFFFFFFFFFFFFFFFFFFFFFFFFFFFFFFF AND PUSH20 0xFFFFFFFFFFFFFFFFFFFFFFFFFFFFFFFFFFFFFFFF AND DUP2 MSTORE PUSH1 0x20 ADD SWAP1 DUP2 MSTORE PUSH1 0x20 ADD PUSH0 KECCAK256 DUP1 SLOAD SWAP1 POP GT PUSH2 0x1E35 JUMPI PUSH1 0x40 MLOAD PUSH32 0x8C379A000000000000000000000000000000000000000000000000000000000 DUP2 MSTORE PUSH1 0x4 ADD PUSH2 0x1E2C SWAP1 PUSH2 0x31B6 JUMP JUMPDEST PUSH1 0x40 MLOAD DUP1 SWAP2 SUB SWAP1 REVERT JUMPDEST PUSH0 PUSH1 0x4 PUSH0 DUP7 PUSH20 0xFFFFFFFFFFFFFFFFFFFFFFFFFFFFFFFFFFFFFFFF AND PUSH20 0xFFFFFFFFFFFFFFFFFFFFFFFFFFFFFFFFFFFFFFFF AND DUP2 MSTORE PUSH1 0x20 ADD SWAP1 DUP2 MSTORE PUSH1 0x20 ADD PUSH0 KECCAK256 PUSH1 0x1 PUSH1 0x4 PUSH0 DUP9 PUSH20 0xFFFFFFFFFFFFFFFFFFFFFFFFFFFFFFFFFFFFFFFF AND PUSH20 0xFFFFFFFFFFFFFFFFFFFFFFFFFFFFFFFFFFFFFFFF AND DUP2 MSTORE PUSH1 0x20 ADD SWAP1 DUP2 MSTORE PUSH1 0x20 ADD PUSH0 KECCAK256 DUP1 SLOAD SWAP1 POP PUSH2 0x1EC0 SWAP2 SWAP1 PUSH2 0x36AE JUMP JUMPDEST DUP2 SLOAD DUP2 LT PUSH2 0x1ED1 JUMPI PUSH2 0x1ED0 PUSH2 0x31D4 JUMP JUMPDEST JUMPDEST SWAP1 PUSH0 MSTORE PUSH1 0x20 PUSH0 KECCAK256 SWAP1 PUSH1 0x8 MUL ADD PUSH1 0x40 MLOAD DUP1 PUSH2 0x100 ADD PUSH1 0x40 MSTORE SWAP1 DUP2 PUSH0 DUP3 ADD PUSH0 SWAP1 SLOAD SWAP1 PUSH2 0x100 EXP SWAP1 DIV PUSH20 0xFFFFFFFFFFFFFFFFFFFFFFFFFFFFFFFFFFFFFFFF AND PUSH20 0xFFFFFFFFFFFFFFFFFFFFFFFFFFFFFFFFFFFFFFFF AND PUSH20 0xFFFFFFFFFFFFFFFFFFFFFFFFFFFFFFFFFFFFFFFF AND DUP2 MSTORE PUSH1 0x20 ADD PUSH1 0x1 DUP3 ADD SLOAD DUP2 MSTORE PUSH1 0x20 ADD PUSH1 0x2 DUP3 ADD DUP1 SLOAD PUSH2 0x1F57 SWAP1 PUSH2 0x2BA6 JUMP JUMPDEST DUP1 PUSH1 0x1F ADD PUSH1 0x20 DUP1 SWAP2 DIV MUL PUSH1 0x20 ADD PUSH1 0x40 MLOAD SWAP1 DUP2 ADD PUSH1 0x40 MSTORE DUP1 SWAP3 SWAP2 SWAP1 DUP2 DUP2 MSTORE PUSH1 0x20 ADD DUP3 DUP1 SLOAD PUSH2 0x1F83 SWAP1 PUSH2 0x2BA6 JUMP JUMPDEST DUP1 ISZERO PUSH2 0x1FCE JUMPI DUP1 PUSH1 0x1F LT PUSH2 0x1FA5 JUMPI PUSH2 0x100 DUP1 DUP4 SLOAD DIV MUL DUP4 MSTORE SWAP2 PUSH1 0x20 ADD SWAP2 PUSH2 0x1FCE JUMP JUMPDEST DUP3 ADD SWAP2 SWAP1 PUSH0 MSTORE PUSH1 0x20 PUSH0 KECCAK256 SWAP1 JUMPDEST DUP2 SLOAD DUP2 MSTORE SWAP1 PUSH1 0x1 ADD SWAP1 PUSH1 0x20 ADD DUP1 DUP4 GT PUSH2 0x1FB1 JUMPI DUP3 SWAP1 SUB PUSH1 0x1F AND DUP3 ADD SWAP2 JUMPDEST POP POP POP POP POP DUP2 MSTORE PUSH1 0x20 ADD PUSH1 0x3 DUP3 ADD SLOAD DUP2 MSTORE PUSH1 0x20 ADD PUSH1 0x4 DUP3 ADD SLOAD DUP2 MSTORE PUSH1 0x20 ADD PUSH1 0x5 DUP3 ADD SLOAD DUP2 MSTORE PUSH1 0x20 ADD PUSH1 0x6 DUP3 ADD SLOAD DUP2 MSTORE PUSH1 0x20 ADD PUSH1 0x7 DUP3 ADD SLOAD DUP2 MSTORE POP POP SWAP1 POP PUSH0 DUP2 PUSH1 0x80 ADD MLOAD SWAP1 POP PUSH0 DUP6 DUP8 DUP7 DUP6 PUSH1 0xE0 ADD MLOAD PUSH1 0x40 MLOAD PUSH1 0x20 ADD PUSH2 0x202F SWAP5 SWAP4 SWAP3 SWAP2 SWAP1 PUSH2 0x3498 JUMP JUMPDEST PUSH1 0x40 MLOAD PUSH1 0x20 DUP2 DUP4 SUB SUB DUP2 MSTORE SWAP1 PUSH1 0x40 MSTORE DUP1 MLOAD SWAP1 PUSH1 0x20 ADD KECCAK256 SWAP1 POP PUSH0 DUP2 DUP4 EQ SWAP1 POP DUP7 PUSH20 0xFFFFFFFFFFFFFFFFFFFFFFFFFFFFFFFFFFFFFFFF AND PUSH32 0x743119E0F5C3443022E2E080183CEAFC4CCB88F4C29FC6DBDAB02412B9935908 DUP8 DUP4 PUSH1 0x40 MLOAD PUSH2 0x2095 SWAP3 SWAP2 SWAP1 PUSH2 0x36E1 JUMP JUMPDEST PUSH1 0x40 MLOAD DUP1 SWAP2 SUB SWAP1 LOG2 DUP1 SWAP5 POP POP POP POP POP SWAP4 SWAP3 POP POP POP JUMP JUMPDEST PUSH1 0x60 PUSH0 PUSH20 0xFFFFFFFFFFFFFFFFFFFFFFFFFFFFFFFFFFFFFFFF AND PUSH0 DUP1 CALLER PUSH20 0xFFFFFFFFFFFFFFFFFFFFFFFFFFFFFFFFFFFFFFFF AND PUSH20 0xFFFFFFFFFFFFFFFFFFFFFFFFFFFFFFFFFFFFFFFF AND DUP2 MSTORE PUSH1 0x20 ADD SWAP1 DUP2 MSTORE PUSH1 0x20 ADD PUSH0 KECCAK256 PUSH1 0x1 ADD PUSH0 SWAP1 SLOAD SWAP1 PUSH2 0x100 EXP SWAP1 DIV PUSH20 0xFFFFFFFFFFFFFFFFFFFFFFFFFFFFFFFFFFFFFFFF AND PUSH20 0xFFFFFFFFFFFFFFFFFFFFFFFFFFFFFFFFFFFFFFFF AND SUB PUSH2 0x2179 JUMPI PUSH1 0x40 MLOAD PUSH32 0x8C379A000000000000000000000000000000000000000000000000000000000 DUP2 MSTORE PUSH1 0x4 ADD PUSH2 0x2170 SWAP1 PUSH2 0x2AF3 JUMP JUMPDEST PUSH1 0x40 MLOAD DUP1 SWAP2 SUB SWAP1 REVERT JUMPDEST PUSH0 PUSH1 0x2 PUSH0 CALLER PUSH20 0xFFFFFFFFFFFFFFFFFFFFFFFFFFFFFFFFFFFFFFFF AND PUSH20 0xFFFFFFFFFFFFFFFFFFFFFFFFFFFFFFFFFFFFFFFF AND DUP2 MSTORE PUSH1 0x20 ADD SWAP1 DUP2 MSTORE PUSH1 0x20 ADD PUSH0 KECCAK256 DUP1 SLOAD DUP1 PUSH1 0x20 MUL PUSH1 0x20 ADD PUSH1 0x40 MLOAD SWAP1 DUP2 ADD PUSH1 0x40 MSTORE DUP1 SWAP3 SWAP2 SWAP1 DUP2 DUP2 MSTORE PUSH1 0x20 ADD PUSH0 SWAP1 JUMPDEST DUP3 DUP3 LT ISZERO PUSH2 0x227E JUMPI DUP4 DUP3 SWAP1 PUSH0 MSTORE PUSH1 0x20 PUSH0 KECCAK256 ADD DUP1 SLOAD PUSH2 0x21F3 SWAP1 PUSH2 0x2BA6 JUMP JUMPDEST DUP1 PUSH1 0x1F ADD PUSH1 0x20 DUP1 SWAP2 DIV MUL PUSH1 0x20 ADD PUSH1 0x40 MLOAD SWAP1 DUP2 ADD PUSH1 0x40 MSTORE DUP1 SWAP3 SWAP2 SWAP1 DUP2 DUP2 MSTORE PUSH1 0x20 ADD DUP3 DUP1 SLOAD PUSH2 0x221F SWAP1 PUSH2 0x2BA6 JUMP JUMPDEST DUP1 ISZERO PUSH2 0x226A JUMPI DUP1 PUSH1 0x1F LT PUSH2 0x2241 JUMPI PUSH2 0x100 DUP1 DUP4 SLOAD DIV MUL DUP4 MSTORE SWAP2 PUSH1 0x20 ADD SWAP2 PUSH2 0x226A JUMP JUMPDEST DUP3 ADD SWAP2 SWAP1 PUSH0 MSTORE PUSH1 0x20 PUSH0 KECCAK256 SWAP1 JUMPDEST DUP2 SLOAD DUP2 MSTORE SWAP1 PUSH1 0x1 ADD SWAP1 PUSH1 0x20 ADD DUP1 DUP4 GT PUSH2 0x224D JUMPI DUP3 SWAP1 SUB PUSH1 0x1F AND DUP3 ADD SWAP2 JUMPDEST POP POP POP POP POP DUP2 MSTORE PUSH1 0x20 ADD SWAP1 PUSH1 0x1 ADD SWAP1 PUSH2 0x21D6 JUMP JUMPDEST POP POP POP POP SWAP1 POP PUSH0 DUP2 MLOAD GT PUSH2 0x22C7 JUMPI PUSH1 0x40 MLOAD PUSH32 0x8C379A000000000000000000000000000000000000000000000000000000000 DUP2 MSTORE PUSH1 0x4 ADD PUSH2 0x22BE SWAP1 PUSH2 0x3759 JUMP JUMPDEST PUSH1 0x40 MLOAD DUP1 SWAP2 SUB SWAP1 REVERT JUMPDEST DUP1 SWAP2 POP POP SWAP1 JUMP JUMPDEST PUSH1 0x40 MLOAD DUP1 PUSH1 0x60 ADD PUSH1 0x40 MSTORE DUP1 PUSH1 0x60 DUP2 MSTORE PUSH1 0x20 ADD PUSH1 0x60 DUP2 MSTORE PUSH1 0x20 ADD PUSH1 0x60 DUP2 MSTORE POP SWAP1 JUMP JUMPDEST PUSH0 PUSH1 0x40 MLOAD SWAP1 POP SWAP1 JUMP JUMPDEST PUSH0 DUP1 REVERT JUMPDEST PUSH0 DUP1 REVERT JUMPDEST PUSH0 DUP1 REVERT JUMPDEST PUSH0 DUP1 REVERT JUMPDEST PUSH0 PUSH1 0x1F NOT PUSH1 0x1F DUP4 ADD AND SWAP1 POP SWAP2 SWAP1 POP JUMP JUMPDEST PUSH32 0x4E487B7100000000000000000000000000000000000000000000000000000000 PUSH0 MSTORE PUSH1 0x41 PUSH1 0x4 MSTORE PUSH1 0x24 PUSH0 REVERT JUMPDEST PUSH2 0x234E DUP3 PUSH2 0x2308 JUMP JUMPDEST DUP2 ADD DUP2 DUP2 LT PUSH8 0xFFFFFFFFFFFFFFFF DUP3 GT OR ISZERO PUSH2 0x236D JUMPI PUSH2 0x236C PUSH2 0x2318 JUMP JUMPDEST JUMPDEST DUP1 PUSH1 0x40 MSTORE POP POP POP JUMP JUMPDEST PUSH0 PUSH2 0x237F PUSH2 0x22EF JUMP JUMPDEST SWAP1 POP PUSH2 0x238B DUP3 DUP3 PUSH2 0x2345 JUMP JUMPDEST SWAP2 SWAP1 POP JUMP JUMPDEST PUSH0 PUSH8 0xFFFFFFFFFFFFFFFF DUP3 GT ISZERO PUSH2 0x23AA JUMPI PUSH2 0x23A9 PUSH2 0x2318 JUMP JUMPDEST JUMPDEST PUSH2 0x23B3 DUP3 PUSH2 0x2308 JUMP JUMPDEST SWAP1 POP PUSH1 0x20 DUP2 ADD SWAP1 POP SWAP2 SWAP1 POP JUMP JUMPDEST DUP3 DUP2 DUP4 CALLDATACOPY PUSH0 DUP4 DUP4 ADD MSTORE POP POP POP JUMP JUMPDEST PUSH0 PUSH2 0x23E0 PUSH2 0x23DB DUP5 PUSH2 0x2390 JUMP JUMPDEST PUSH2 0x2376 JUMP JUMPDEST SWAP1 POP DUP3 DUP2 MSTORE PUSH1 0x20 DUP2 ADD DUP5 DUP5 DUP5 ADD GT ISZERO PUSH2 0x23FC JUMPI PUSH2 0x23FB PUSH2 0x2304 JUMP JUMPDEST JUMPDEST PUSH2 0x2407 DUP5 DUP3 DUP6 PUSH2 0x23C0 JUMP JUMPDEST POP SWAP4 SWAP3 POP POP POP JUMP JUMPDEST PUSH0 DUP3 PUSH1 0x1F DUP4 ADD SLT PUSH2 0x2423 JUMPI PUSH2 0x2422 PUSH2 0x2300 JUMP JUMPDEST JUMPDEST DUP2 CALLDATALOAD PUSH2 0x2433 DUP5 DUP3 PUSH1 0x20 DUP7 ADD PUSH2 0x23CE JUMP JUMPDEST SWAP2 POP POP SWAP3 SWAP2 POP POP JUMP JUMPDEST PUSH0 DUP1 PUSH0 PUSH1 0x60 DUP5 DUP7 SUB SLT ISZERO PUSH2 0x2453 JUMPI PUSH2 0x2452 PUSH2 0x22F8 JUMP JUMPDEST JUMPDEST PUSH0 DUP5 ADD CALLDATALOAD PUSH8 0xFFFFFFFFFFFFFFFF DUP2 GT ISZERO PUSH2 0x2470 JUMPI PUSH2 0x246F PUSH2 0x22FC JUMP JUMPDEST JUMPDEST PUSH2 0x247C DUP7 DUP3 DUP8 ADD PUSH2 0x240F JUMP JUMPDEST SWAP4 POP POP PUSH1 0x20 DUP5 ADD CALLDATALOAD PUSH8 0xFFFFFFFFFFFFFFFF DUP2 GT ISZERO PUSH2 0x249D JUMPI PUSH2 0x249C PUSH2 0x22FC JUMP JUMPDEST JUMPDEST PUSH2 0x24A9 DUP7 DUP3 DUP8 ADD PUSH2 0x240F JUMP JUMPDEST SWAP3 POP POP PUSH1 0x40 DUP5 ADD CALLDATALOAD PUSH8 0xFFFFFFFFFFFFFFFF DUP2 GT ISZERO PUSH2 0x24CA JUMPI PUSH2 0x24C9 PUSH2 0x22FC JUMP JUMPDEST JUMPDEST PUSH2 0x24D6 DUP7 DUP3 DUP8 ADD PUSH2 0x240F JUMP JUMPDEST SWAP2 POP POP SWAP3 POP SWAP3 POP SWAP3 JUMP JUMPDEST PUSH0 PUSH1 0x20 DUP3 DUP5 SUB SLT ISZERO PUSH2 0x24F5 JUMPI PUSH2 0x24F4 PUSH2 0x22F8 JUMP JUMPDEST JUMPDEST PUSH0 DUP3 ADD CALLDATALOAD PUSH8 0xFFFFFFFFFFFFFFFF DUP2 GT ISZERO PUSH2 0x2512 JUMPI PUSH2 0x2511 PUSH2 0x22FC JUMP JUMPDEST JUMPDEST PUSH2 0x251E DUP5 DUP3 DUP6 ADD PUSH2 0x240F JUMP JUMPDEST SWAP2 POP POP SWAP3 SWAP2 POP POP JUMP JUMPDEST PUSH0 DUP2 SWAP1 POP SWAP2 SWAP1 POP JUMP JUMPDEST PUSH2 0x2539 DUP2 PUSH2 0x2527 JUMP JUMPDEST DUP2 EQ PUSH2 0x2543 JUMPI PUSH0 DUP1 REVERT JUMPDEST POP JUMP JUMPDEST PUSH0 DUP2 CALLDATALOAD SWAP1 POP PUSH2 0x2554 DUP2 PUSH2 0x2530 JUMP JUMPDEST SWAP3 SWAP2 POP POP JUMP JUMPDEST PUSH0 PUSH1 0x20 DUP3 DUP5 SUB SLT ISZERO PUSH2 0x256F JUMPI PUSH2 0x256E PUSH2 0x22F8 JUMP JUMPDEST JUMPDEST PUSH0 PUSH2 0x257C DUP5 DUP3 DUP6 ADD PUSH2 0x2546 JUMP JUMPDEST SWAP2 POP POP SWAP3 SWAP2 POP POP JUMP JUMPDEST PUSH0 DUP2 ISZERO ISZERO SWAP1 POP SWAP2 SWAP1 POP JUMP JUMPDEST PUSH2 0x2599 DUP2 PUSH2 0x2585 JUMP JUMPDEST DUP3 MSTORE POP POP JUMP JUMPDEST PUSH0 PUSH1 0x20 DUP3 ADD SWAP1 POP PUSH2 0x25B2 PUSH0 DUP4 ADD DUP5 PUSH2 0x2590 JUMP JUMPDEST SWAP3 SWAP2 POP POP JUMP JUMPDEST PUSH0 DUP2 MLOAD SWAP1 POP SWAP2 SWAP1 POP JUMP JUMPDEST PUSH0 DUP3 DUP3 MSTORE PUSH1 0x20 DUP3 ADD SWAP1 POP SWAP3 SWAP2 POP POP JUMP JUMPDEST DUP3 DUP2 DUP4 MCOPY PUSH0 DUP4 DUP4 ADD MSTORE POP POP POP JUMP JUMPDEST PUSH0 PUSH2 0x25EA DUP3 PUSH2 0x25B8 JUMP JUMPDEST PUSH2 0x25F4 DUP2 DUP6 PUSH2 0x25C2 JUMP JUMPDEST SWAP4 POP PUSH2 0x2604 DUP2 DUP6 PUSH1 0x20 DUP7 ADD PUSH2 0x25D2 JUMP JUMPDEST PUSH2 0x260D DUP2 PUSH2 0x2308 JUMP JUMPDEST DUP5 ADD SWAP2 POP POP SWAP3 SWAP2 POP POP JUMP JUMPDEST PUSH0 PUSH1 0x60 DUP4 ADD PUSH0 DUP4 ADD MLOAD DUP5 DUP3 SUB PUSH0 DUP7 ADD MSTORE PUSH2 0x2632 DUP3 DUP3 PUSH2 0x25E0 JUMP JUMPDEST SWAP2 POP POP PUSH1 0x20 DUP4 ADD MLOAD DUP5 DUP3 SUB PUSH1 0x20 DUP7 ADD MSTORE PUSH2 0x264C DUP3 DUP3 PUSH2 0x25E0 JUMP JUMPDEST SWAP2 POP POP PUSH1 0x40 DUP4 ADD MLOAD DUP5 DUP3 SUB PUSH1 0x40 DUP7 ADD MSTORE PUSH2 0x2666 DUP3 DUP3 PUSH2 0x25E0 JUMP JUMPDEST SWAP2 POP POP DUP1 SWAP2 POP POP SWAP3 SWAP2 POP POP JUMP JUMPDEST PUSH0 PUSH1 0x20 DUP3 ADD SWAP1 POP DUP2 DUP2 SUB PUSH0 DUP4 ADD MSTORE PUSH2 0x268B DUP2 DUP5 PUSH2 0x2618 JUMP JUMPDEST SWAP1 POP SWAP3 SWAP2 POP POP JUMP JUMPDEST PUSH0 PUSH20 0xFFFFFFFFFFFFFFFFFFFFFFFFFFFFFFFFFFFFFFFF DUP3 AND SWAP1 POP SWAP2 SWAP1 POP JUMP JUMPDEST PUSH0 PUSH2 0x26BC DUP3 PUSH2 0x2693 JUMP JUMPDEST SWAP1 POP SWAP2 SWAP1 POP JUMP JUMPDEST PUSH2 0x26CC DUP2 PUSH2 0x26B2 JUMP JUMPDEST DUP2 EQ PUSH2 0x26D6 JUMPI PUSH0 DUP1 REVERT JUMPDEST POP JUMP JUMPDEST PUSH0 DUP2 CALLDATALOAD SWAP1 POP PUSH2 0x26E7 DUP2 PUSH2 0x26C3 JUMP JUMPDEST SWAP3 SWAP2 POP POP JUMP JUMPDEST PUSH0 DUP2 SWAP1 POP SWAP2 SWAP1 POP JUMP JUMPDEST PUSH2 0x26FF DUP2 PUSH2 0x26ED JUMP JUMPDEST DUP2 EQ PUSH2 0x2709 JUMPI PUSH0 DUP1 REVERT JUMPDEST POP JUMP JUMPDEST PUSH0 DUP2 CALLDATALOAD SWAP1 POP PUSH2 0x271A DUP2 PUSH2 0x26F6 JUMP JUMPDEST SWAP3 SWAP2 POP POP JUMP JUMPDEST PUSH0 DUP1 PUSH0 PUSH1 0x60 DUP5 DUP7 SUB SLT ISZERO PUSH2 0x2737 JUMPI PUSH2 0x2736 PUSH2 0x22F8 JUMP JUMPDEST JUMPDEST PUSH0 PUSH2 0x2744 DUP7 DUP3 DUP8 ADD PUSH2 0x26D9 JUMP JUMPDEST SWAP4 POP POP PUSH1 0x20 PUSH2 0x2755 DUP7 DUP3 DUP8 ADD PUSH2 0x26D9 JUMP JUMPDEST SWAP3 POP POP PUSH1 0x40 PUSH2 0x2766 DUP7 DUP3 DUP8 ADD PUSH2 0x270C JUMP JUMPDEST SWAP2 POP POP SWAP3 POP SWAP3 POP SWAP3 JUMP JUMPDEST PUSH0 DUP1 PUSH1 0x40 DUP4 DUP6 SUB SLT ISZERO PUSH2 0x2786 JUMPI PUSH2 0x2785 PUSH2 0x22F8 JUMP JUMPDEST JUMPDEST PUSH0 PUSH2 0x2793 DUP6 DUP3 DUP7 ADD PUSH2 0x26D9 JUMP JUMPDEST SWAP3 POP POP PUSH1 0x20 DUP4 ADD CALLDATALOAD PUSH8 0xFFFFFFFFFFFFFFFF DUP2 GT ISZERO PUSH2 0x27B4 JUMPI PUSH2 0x27B3 PUSH2 0x22FC JUMP JUMPDEST JUMPDEST PUSH2 0x27C0 DUP6 DUP3 DUP7 ADD PUSH2 0x240F JUMP JUMPDEST SWAP2 POP POP SWAP3 POP SWAP3 SWAP1 POP JUMP JUMPDEST PUSH0 DUP1 PUSH0 PUSH1 0x60 DUP5 DUP7 SUB SLT ISZERO PUSH2 0x27E1 JUMPI PUSH2 0x27E0 PUSH2 0x22F8 JUMP JUMPDEST JUMPDEST PUSH0 PUSH2 0x27EE DUP7 DUP3 DUP8 ADD PUSH2 0x26D9 JUMP JUMPDEST SWAP4 POP POP PUSH1 0x20 DUP5 ADD CALLDATALOAD PUSH8 0xFFFFFFFFFFFFFFFF DUP2 GT ISZERO PUSH2 0x280F JUMPI PUSH2 0x280E PUSH2 0x22FC JUMP JUMPDEST JUMPDEST PUSH2 0x281B DUP7 DUP3 DUP8 ADD PUSH2 0x240F JUMP JUMPDEST SWAP3 POP POP PUSH1 0x40 PUSH2 0x282C DUP7 DUP3 DUP8 ADD PUSH2 0x270C JUMP JUMPDEST SWAP2 POP POP SWAP3 POP SWAP3 POP SWAP3 JUMP JUMPDEST PUSH0 DUP3 DUP3 MSTORE PUSH1 0x20 DUP3 ADD SWAP1 POP SWAP3 SWAP2 POP POP JUMP JUMPDEST PUSH0 PUSH2 0x2850 DUP3 PUSH2 0x25B8 JUMP JUMPDEST PUSH2 0x285A DUP2 DUP6 PUSH2 0x2836 JUMP JUMPDEST SWAP4 POP PUSH2 0x286A DUP2 DUP6 PUSH1 0x20 DUP7 ADD PUSH2 0x25D2 JUMP JUMPDEST PUSH2 0x2873 DUP2 PUSH2 0x2308 JUMP JUMPDEST DUP5 ADD SWAP2 POP POP SWAP3 SWAP2 POP POP JUMP JUMPDEST PUSH0 PUSH1 0x20 DUP3 ADD SWAP1 POP DUP2 DUP2 SUB PUSH0 DUP4 ADD MSTORE PUSH2 0x2896 DUP2 DUP5 PUSH2 0x2846 JUMP JUMPDEST SWAP1 POP SWAP3 SWAP2 POP POP JUMP JUMPDEST PUSH0 DUP1 PUSH1 0x40 DUP4 DUP6 SUB SLT ISZERO PUSH2 0x28B4 JUMPI PUSH2 0x28B3 PUSH2 0x22F8 JUMP JUMPDEST JUMPDEST PUSH0 DUP4 ADD CALLDATALOAD PUSH8 0xFFFFFFFFFFFFFFFF DUP2 GT ISZERO PUSH2 0x28D1 JUMPI PUSH2 0x28D0 PUSH2 0x22FC JUMP JUMPDEST JUMPDEST PUSH2 0x28DD DUP6 DUP3 DUP7 ADD PUSH2 0x240F JUMP JUMPDEST SWAP3 POP POP PUSH1 0x20 DUP4 ADD CALLDATALOAD PUSH8 0xFFFFFFFFFFFFFFFF DUP2 GT ISZERO PUSH2 0x28FE JUMPI PUSH2 0x28FD PUSH2 0x22FC JUMP JUMPDEST JUMPDEST PUSH2 0x290A DUP6 DUP3 DUP7 ADD PUSH2 0x240F JUMP JUMPDEST SWAP2 POP POP SWAP3 POP SWAP3 SWAP1 POP JUMP JUMPDEST PUSH2 0x291D DUP2 PUSH2 0x2527 JUMP JUMPDEST DUP3 MSTORE POP POP JUMP JUMPDEST PUSH0 PUSH1 0x20 DUP3 ADD SWAP1 POP PUSH2 0x2936 PUSH0 DUP4 ADD DUP5 PUSH2 0x2914 JUMP JUMPDEST SWAP3 SWAP2 POP POP JUMP JUMPDEST PUSH0 DUP1 PUSH0 PUSH1 0x60 DUP5 DUP7 SUB SLT ISZERO PUSH2 0x2953 JUMPI PUSH2 0x2952 PUSH2 0x22F8 JUMP JUMPDEST JUMPDEST PUSH0 PUSH2 0x2960 DUP7 DUP3 DUP8 ADD PUSH2 0x26D9 JUMP JUMPDEST SWAP4 POP POP PUSH1 0x20 PUSH2 0x2971 DUP7 DUP3 DUP8 ADD PUSH2 0x26D9 JUMP JUMPDEST SWAP3 POP POP PUSH1 0x40 DUP5 ADD CALLDATALOAD PUSH8 0xFFFFFFFFFFFFFFFF DUP2 GT ISZERO PUSH2 0x2992 JUMPI PUSH2 0x2991 PUSH2 0x22FC JUMP JUMPDEST JUMPDEST PUSH2 0x299E DUP7 DUP3 DUP8 ADD PUSH2 0x240F JUMP JUMPDEST SWAP2 POP POP SWAP3 POP SWAP3 POP SWAP3 JUMP JUMPDEST PUSH0 DUP2 MLOAD SWAP1 POP SWAP2 SWAP1 POP JUMP JUMPDEST PUSH0 DUP3 DUP3 MSTORE PUSH1 0x20 DUP3 ADD SWAP1 POP SWAP3 SWAP2 POP POP JUMP JUMPDEST PUSH0 DUP2 SWAP1 POP PUSH1 0x20 DUP3 ADD SWAP1 POP SWAP2 SWAP1 POP JUMP JUMPDEST PUSH0 PUSH2 0x29DC DUP4 DUP4 PUSH2 0x25E0 JUMP JUMPDEST SWAP1 POP SWAP3 SWAP2 POP POP JUMP JUMPDEST PUSH0 PUSH1 0x20 DUP3 ADD SWAP1 POP SWAP2 SWAP1 POP JUMP JUMPDEST PUSH0 PUSH2 0x29FA DUP3 PUSH2 0x29A8 JUMP JUMPDEST PUSH2 0x2A04 DUP2 DUP6 PUSH2 0x29B2 JUMP JUMPDEST SWAP4 POP DUP4 PUSH1 0x20 DUP3 MUL DUP6 ADD PUSH2 0x2A16 DUP6 PUSH2 0x29C2 JUMP JUMPDEST DUP1 PUSH0 JUMPDEST DUP6 DUP2 LT ISZERO PUSH2 0x2A51 JUMPI DUP5 DUP5 SUB DUP10 MSTORE DUP2 MLOAD PUSH2 0x2A32 DUP6 DUP3 PUSH2 0x29D1 JUMP JUMPDEST SWAP5 POP PUSH2 0x2A3D DUP4 PUSH2 0x29E4 JUMP JUMPDEST SWAP3 POP PUSH1 0x20 DUP11 ADD SWAP10 POP POP PUSH1 0x1 DUP2 ADD SWAP1 POP PUSH2 0x2A19 JUMP JUMPDEST POP DUP3 SWAP8 POP DUP8 SWAP6 POP POP POP POP POP POP SWAP3 SWAP2 POP POP JUMP JUMPDEST PUSH0 PUSH1 0x20 DUP3 ADD SWAP1 POP DUP2 DUP2 SUB PUSH0 DUP4 ADD MSTORE PUSH2 0x2A7B DUP2 DUP5 PUSH2 0x29F0 JUMP JUMPDEST SWAP1 POP SWAP3 SWAP2 POP POP JUMP JUMPDEST PUSH32 0x4E6F206578697374696E672044494420666F756E6420666F7220746869732061 PUSH0 DUP3 ADD MSTORE PUSH32 0x6464726573730000000000000000000000000000000000000000000000000000 PUSH1 0x20 DUP3 ADD MSTORE POP JUMP JUMPDEST PUSH0 PUSH2 0x2ADD PUSH1 0x26 DUP4 PUSH2 0x2836 JUMP JUMPDEST SWAP2 POP PUSH2 0x2AE8 DUP3 PUSH2 0x2A83 JUMP JUMPDEST PUSH1 0x40 DUP3 ADD SWAP1 POP SWAP2 SWAP1 POP JUMP JUMPDEST PUSH0 PUSH1 0x20 DUP3 ADD SWAP1 POP DUP2 DUP2 SUB PUSH0 DUP4 ADD MSTORE PUSH2 0x2B0A DUP2 PUSH2 0x2AD1 JUMP JUMPDEST SWAP1 POP SWAP2 SWAP1 POP JUMP JUMPDEST PUSH32 0x456D61696C2063616E6E6F7420626520656D7074790000000000000000000000 PUSH0 DUP3 ADD MSTORE POP JUMP JUMPDEST PUSH0 PUSH2 0x2B45 PUSH1 0x15 DUP4 PUSH2 0x2836 JUMP JUMPDEST SWAP2 POP PUSH2 0x2B50 DUP3 PUSH2 0x2B11 JUMP JUMPDEST PUSH1 0x20 DUP3 ADD SWAP1 POP SWAP2 SWAP1 POP JUMP JUMPDEST PUSH0 PUSH1 0x20 DUP3 ADD SWAP1 POP DUP2 DUP2 SUB PUSH0 DUP4 ADD MSTORE PUSH2 0x2B72 DUP2 PUSH2 0x2B39 JUMP JUMPDEST SWAP1 POP SWAP2 SWAP1 POP JUMP JUMPDEST PUSH32 0x4E487B7100000000000000000000000000000000000000000000000000000000 PUSH0 MSTORE PUSH1 0x22 PUSH1 0x4 MSTORE PUSH1 0x24 PUSH0 REVERT JUMPDEST PUSH0 PUSH1 0x2 DUP3 DIV SWAP1 POP PUSH1 0x1 DUP3 AND DUP1 PUSH2 0x2BBD JUMPI PUSH1 0x7F DUP3 AND SWAP2 POP JUMPDEST PUSH1 0x20 DUP3 LT DUP2 SUB PUSH2 0x2BD0 JUMPI PUSH2 0x2BCF PUSH2 0x2B79 JUMP JUMPDEST JUMPDEST POP SWAP2 SWAP1 POP JUMP JUMPDEST PUSH0 DUP2 SWAP1 POP DUP2 PUSH0 MSTORE PUSH1 0x20 PUSH0 KECCAK256 SWAP1 POP SWAP2 SWAP1 POP JUMP JUMPDEST PUSH0 PUSH1 0x20 PUSH1 0x1F DUP4 ADD DIV SWAP1 POP SWAP2 SWAP1 POP JUMP JUMPDEST PUSH0 DUP3 DUP3 SHL SWAP1 POP SWAP3 SWAP2 POP POP JUMP JUMPDEST PUSH0 PUSH1 0x8 DUP4 MUL PUSH2 0x2C32 PUSH32 0xFFFFFFFFFFFFFFFFFFFFFFFFFFFFFFFFFFFFFFFFFFFFFFFFFFFFFFFFFFFFFFFF DUP3 PUSH2 0x2BF7 JUMP JUMPDEST PUSH2 0x2C3C DUP7 DUP4 PUSH2 0x2BF7 JUMP JUMPDEST SWAP6 POP DUP1 NOT DUP5 AND SWAP4 POP DUP1 DUP7 AND DUP5 OR SWAP3 POP POP POP SWAP4 SWAP3 POP POP POP JUMP JUMPDEST PUSH0 DUP2 SWAP1 POP SWAP2 SWAP1 POP JUMP JUMPDEST PUSH0 DUP2 SWAP1 POP SWAP2 SWAP1 POP JUMP JUMPDEST PUSH0 PUSH2 0x2C80 PUSH2 0x2C7B PUSH2 0x2C76 DUP5 PUSH2 0x2C54 JUMP JUMPDEST PUSH2 0x2C5D JUMP JUMPDEST PUSH2 0x2C54 JUMP JUMPDEST SWAP1 POP SWAP2 SWAP1 POP JUMP JUMPDEST PUSH0 DUP2 SWAP1 POP SWAP2 SWAP1 POP JUMP JUMPDEST PUSH2 0x2C99 DUP4 PUSH2 0x2C66 JUMP JUMPDEST PUSH2 0x2CAD PUSH2 0x2CA5 DUP3 PUSH2 0x2C87 JUMP JUMPDEST DUP5 DUP5 SLOAD PUSH2 0x2C03 JUMP JUMPDEST DUP3 SSTORE POP POP POP POP JUMP JUMPDEST PUSH0 SWAP1 JUMP JUMPDEST PUSH2 0x2CC1 PUSH2 0x2CB5 JUMP JUMPDEST PUSH2 0x2CCC DUP2 DUP5 DUP5 PUSH2 0x2C90 JUMP JUMPDEST POP POP POP JUMP JUMPDEST JUMPDEST DUP2 DUP2 LT ISZERO PUSH2 0x2CEF JUMPI PUSH2 0x2CE4 PUSH0 DUP3 PUSH2 0x2CB9 JUMP JUMPDEST PUSH1 0x1 DUP2 ADD SWAP1 POP PUSH2 0x2CD2 JUMP JUMPDEST POP POP JUMP JUMPDEST PUSH1 0x1F DUP3 GT ISZERO PUSH2 0x2D34 JUMPI PUSH2 0x2D05 DUP2 PUSH2 0x2BD6 JUMP JUMPDEST PUSH2 0x2D0E DUP5 PUSH2 0x2BE8 JUMP JUMPDEST DUP2 ADD PUSH1 0x20 DUP6 LT ISZERO PUSH2 0x2D1D JUMPI DUP2 SWAP1 POP JUMPDEST PUSH2 0x2D31 PUSH2 0x2D29 DUP6 PUSH2 0x2BE8 JUMP JUMPDEST DUP4 ADD DUP3 PUSH2 0x2CD1 JUMP JUMPDEST POP POP JUMPDEST POP POP POP JUMP JUMPDEST PUSH0 DUP3 DUP3 SHR SWAP1 POP SWAP3 SWAP2 POP POP JUMP JUMPDEST PUSH0 PUSH2 0x2D54 PUSH0 NOT DUP5 PUSH1 0x8 MUL PUSH2 0x2D39 JUMP JUMPDEST NOT DUP1 DUP4 AND SWAP2 POP POP SWAP3 SWAP2 POP POP JUMP JUMPDEST PUSH0 PUSH2 0x2D6C DUP4 DUP4 PUSH2 0x2D45 JUMP JUMPDEST SWAP2 POP DUP3 PUSH1 0x2 MUL DUP3 OR SWAP1 POP SWAP3 SWAP2 POP POP JUMP JUMPDEST PUSH2 0x2D85 DUP3 PUSH2 0x25B8 JUMP JUMPDEST PUSH8 0xFFFFFFFFFFFFFFFF DUP2 GT ISZERO PUSH2 0x2D9E JUMPI PUSH2 0x2D9D PUSH2 0x2318 JUMP JUMPDEST JUMPDEST PUSH2 0x2DA8 DUP3 SLOAD PUSH2 0x2BA6 JUMP JUMPDEST PUSH2 0x2DB3 DUP3 DUP3 DUP6 PUSH2 0x2CF3 JUMP JUMPDEST PUSH0 PUSH1 0x20 SWAP1 POP PUSH1 0x1F DUP4 GT PUSH1 0x1 DUP2 EQ PUSH2 0x2DE4 JUMPI PUSH0 DUP5 ISZERO PUSH2 0x2DD2 JUMPI DUP3 DUP8 ADD MLOAD SWAP1 POP JUMPDEST PUSH2 0x2DDC DUP6 DUP3 PUSH2 0x2D61 JUMP JUMPDEST DUP7 SSTORE POP PUSH2 0x2E43 JUMP JUMPDEST PUSH1 0x1F NOT DUP5 AND PUSH2 0x2DF2 DUP7 PUSH2 0x2BD6 JUMP JUMPDEST PUSH0 JUMPDEST DUP3 DUP2 LT ISZERO PUSH2 0x2E19 JUMPI DUP5 DUP10 ADD MLOAD DUP3 SSTORE PUSH1 0x1 DUP3 ADD SWAP2 POP PUSH1 0x20 DUP6 ADD SWAP5 POP PUSH1 0x20 DUP2 ADD SWAP1 POP PUSH2 0x2DF4 JUMP JUMPDEST DUP7 DUP4 LT ISZERO PUSH2 0x2E36 JUMPI DUP5 DUP10 ADD MLOAD PUSH2 0x2E32 PUSH1 0x1F DUP10 AND DUP3 PUSH2 0x2D45 JUMP JUMPDEST DUP4 SSTORE POP JUMPDEST PUSH1 0x1 PUSH1 0x2 DUP9 MUL ADD DUP9 SSTORE POP POP POP JUMPDEST POP POP POP POP POP POP JUMP JUMPDEST PUSH0 PUSH1 0x60 DUP3 ADD SWAP1 POP DUP2 DUP2 SUB PUSH0 DUP4 ADD MSTORE PUSH2 0x2E63 DUP2 DUP7 PUSH2 0x2846 JUMP JUMPDEST SWAP1 POP DUP2 DUP2 SUB PUSH1 0x20 DUP4 ADD MSTORE PUSH2 0x2E77 DUP2 DUP6 PUSH2 0x2846 JUMP JUMPDEST SWAP1 POP DUP2 DUP2 SUB PUSH1 0x40 DUP4 ADD MSTORE PUSH2 0x2E8B DUP2 DUP5 PUSH2 0x2846 JUMP JUMPDEST SWAP1 POP SWAP5 SWAP4 POP POP POP POP JUMP JUMPDEST PUSH32 0x4E6577206964656E7469666965722063616E6E6F7420626520656D7074790000 PUSH0 DUP3 ADD MSTORE POP JUMP JUMPDEST PUSH0 PUSH2 0x2EC9 PUSH1 0x1E DUP4 PUSH2 0x2836 JUMP JUMPDEST SWAP2 POP PUSH2 0x2ED4 DUP3 PUSH2 0x2E95 JUMP JUMPDEST PUSH1 0x20 DUP3 ADD SWAP1 POP SWAP2 SWAP1 POP JUMP JUMPDEST PUSH0 PUSH1 0x20 DUP3 ADD SWAP1 POP DUP2 DUP2 SUB PUSH0 DUP4 ADD MSTORE PUSH2 0x2EF6 DUP2 PUSH2 0x2EBD JUMP JUMPDEST SWAP1 POP SWAP2 SWAP1 POP JUMP JUMPDEST PUSH32 0x496E76616C6964206E6577206964656E74696669657200000000000000000000 PUSH0 DUP3 ADD MSTORE POP JUMP JUMPDEST PUSH0 PUSH2 0x2F31 PUSH1 0x16 DUP4 PUSH2 0x2836 JUMP JUMPDEST SWAP2 POP PUSH2 0x2F3C DUP3 PUSH2 0x2EFD JUMP JUMPDEST PUSH1 0x20 DUP3 ADD SWAP1 POP SWAP2 SWAP1 POP JUMP JUMPDEST PUSH0 PUSH1 0x20 DUP3 ADD SWAP1 POP DUP2 DUP2 SUB PUSH0 DUP4 ADD MSTORE PUSH2 0x2F5E DUP2 PUSH2 0x2F25 JUMP JUMPDEST SWAP1 POP SWAP2 SWAP1 POP JUMP JUMPDEST PUSH32 0x4964656E7469666965722063616E6E6F7420626520656D707479000000000000 PUSH0 DUP3 ADD MSTORE POP JUMP JUMPDEST PUSH0 PUSH2 0x2F99 PUSH1 0x1A DUP4 PUSH2 0x2836 JUMP JUMPDEST SWAP2 POP PUSH2 0x2FA4 DUP3 PUSH2 0x2F65 JUMP JUMPDEST PUSH1 0x20 DUP3 ADD SWAP1 POP SWAP2 SWAP1 POP JUMP JUMPDEST PUSH0 PUSH1 0x20 DUP3 ADD SWAP1 POP DUP2 DUP2 SUB PUSH0 DUP4 ADD MSTORE PUSH2 0x2FC6 DUP2 PUSH2 0x2F8D JUMP JUMPDEST SWAP1 POP SWAP2 SWAP1 POP JUMP JUMPDEST PUSH32 0x44494420616C72656164792065786973747320666F7220746869732061646472 PUSH0 DUP3 ADD MSTORE PUSH32 0x6573730000000000000000000000000000000000000000000000000000000000 PUSH1 0x20 DUP3 ADD MSTORE POP JUMP JUMPDEST PUSH0 PUSH2 0x3027 PUSH1 0x23 DUP4 PUSH2 0x2836 JUMP JUMPDEST SWAP2 POP PUSH2 0x3032 DUP3 PUSH2 0x2FCD JUMP JUMPDEST PUSH1 0x40 DUP3 ADD SWAP1 POP SWAP2 SWAP1 POP JUMP JUMPDEST PUSH0 PUSH1 0x20 DUP3 ADD SWAP1 POP DUP2 DUP2 SUB PUSH0 DUP4 ADD MSTORE PUSH2 0x3054 DUP2 PUSH2 0x301B JUMP JUMPDEST SWAP1 POP SWAP2 SWAP1 POP JUMP JUMPDEST PUSH0 DUP2 SWAP1 POP SWAP3 SWAP2 POP POP JUMP JUMPDEST PUSH0 PUSH2 0x306F DUP3 PUSH2 0x25B8 JUMP JUMPDEST PUSH2 0x3079 DUP2 DUP6 PUSH2 0x305B JUMP JUMPDEST SWAP4 POP PUSH2 0x3089 DUP2 DUP6 PUSH1 0x20 DUP7 ADD PUSH2 0x25D2 JUMP JUMPDEST DUP1 DUP5 ADD SWAP2 POP POP SWAP3 SWAP2 POP POP JUMP JUMPDEST PUSH0 PUSH2 0x30A0 DUP3 DUP6 PUSH2 0x3065 JUMP JUMPDEST SWAP2 POP PUSH2 0x30AC DUP3 DUP5 PUSH2 0x3065 JUMP JUMPDEST SWAP2 POP DUP2 SWAP1 POP SWAP4 SWAP3 POP POP POP JUMP JUMPDEST PUSH32 0x4E6F206578697374696E672044494420666F756E6420666F7220746869732075 PUSH0 DUP3 ADD MSTORE PUSH32 0x7365720000000000000000000000000000000000000000000000000000000000 PUSH1 0x20 DUP3 ADD MSTORE POP JUMP JUMPDEST PUSH0 PUSH2 0x3112 PUSH1 0x23 DUP4 PUSH2 0x2836 JUMP JUMPDEST SWAP2 POP PUSH2 0x311D DUP3 PUSH2 0x30B8 JUMP JUMPDEST PUSH1 0x40 DUP3 ADD SWAP1 POP SWAP2 SWAP1 POP JUMP JUMPDEST PUSH0 PUSH1 0x20 DUP3 ADD SWAP1 POP DUP2 DUP2 SUB PUSH0 DUP4 ADD MSTORE PUSH2 0x313F DUP2 PUSH2 0x3106 JUMP JUMPDEST SWAP1 POP SWAP2 SWAP1 POP JUMP JUMPDEST PUSH32 0x5573657220646F6573206E6F74206861766520616E792063726564656E746961 PUSH0 DUP3 ADD MSTORE PUSH32 0x6C00000000000000000000000000000000000000000000000000000000000000 PUSH1 0x20 DUP3 ADD MSTORE POP JUMP JUMPDEST PUSH0 PUSH2 0x31A0 PUSH1 0x21 DUP4 PUSH2 0x2836 JUMP JUMPDEST SWAP2 POP PUSH2 0x31AB DUP3 PUSH2 0x3146 JUMP JUMPDEST PUSH1 0x40 DUP3 ADD SWAP1 POP SWAP2 SWAP1 POP JUMP JUMPDEST PUSH0 PUSH1 0x20 DUP3 ADD SWAP1 POP DUP2 DUP2 SUB PUSH0 DUP4 ADD MSTORE PUSH2 0x31CD DUP2 PUSH2 0x3194 JUMP JUMPDEST SWAP1 POP SWAP2 SWAP1 POP JUMP JUMPDEST PUSH32 0x4E487B7100000000000000000000000000000000000000000000000000000000 PUSH0 MSTORE PUSH1 0x32 PUSH1 0x4 MSTORE PUSH1 0x24 PUSH0 REVERT JUMPDEST PUSH2 0x320A DUP2 PUSH2 0x26ED JUMP JUMPDEST DUP3 MSTORE POP POP JUMP JUMPDEST PUSH0 PUSH1 0x40 DUP3 ADD SWAP1 POP PUSH2 0x3223 PUSH0 DUP4 ADD DUP6 PUSH2 0x3201 JUMP JUMPDEST PUSH2 0x3230 PUSH1 0x20 DUP4 ADD DUP5 PUSH2 0x2590 JUMP JUMPDEST SWAP4 SWAP3 POP POP POP JUMP JUMPDEST PUSH0 DUP2 SWAP1 POP SWAP3 SWAP2 POP POP JUMP JUMPDEST PUSH0 DUP2 SWAP1 POP DUP2 PUSH0 MSTORE PUSH1 0x20 PUSH0 KECCAK256 SWAP1 POP SWAP2 SWAP1 POP JUMP JUMPDEST PUSH0 DUP2 SLOAD PUSH2 0x325F DUP2 PUSH2 0x2BA6 JUMP JUMPDEST PUSH2 0x3269 DUP2 DUP7 PUSH2 0x3237 JUMP JUMPDEST SWAP5 POP PUSH1 0x1 DUP3 AND PUSH0 DUP2 EQ PUSH2 0x3283 JUMPI PUSH1 0x1 DUP2 EQ PUSH2 0x3298 JUMPI PUSH2 0x32CA JUMP JUMPDEST PUSH1 0xFF NOT DUP4 AND DUP7 MSTORE DUP2 ISZERO ISZERO DUP3 MUL DUP7 ADD SWAP4 POP PUSH2 0x32CA JUMP JUMPDEST PUSH2 0x32A1 DUP6 PUSH2 0x3241 JUMP JUMPDEST PUSH0 JUMPDEST DUP4 DUP2 LT ISZERO PUSH2 0x32C2 JUMPI DUP2 SLOAD DUP2 DUP10 ADD MSTORE PUSH1 0x1 DUP3 ADD SWAP2 POP PUSH1 0x20 DUP2 ADD SWAP1 POP PUSH2 0x32A3 JUMP JUMPDEST DUP4 DUP9 ADD SWAP6 POP POP POP JUMPDEST POP POP POP SWAP3 SWAP2 POP POP JUMP JUMPDEST PUSH0 PUSH2 0x32DE DUP3 DUP5 PUSH2 0x3253 JUMP JUMPDEST SWAP2 POP DUP2 SWAP1 POP SWAP3 SWAP2 POP POP JUMP JUMPDEST PUSH32 0x556E617574686F72697A656420616374696F6E00000000000000000000000000 PUSH0 DUP3 ADD MSTORE POP JUMP JUMPDEST PUSH0 PUSH2 0x331D PUSH1 0x13 DUP4 PUSH2 0x2836 JUMP JUMPDEST SWAP2 POP PUSH2 0x3328 DUP3 PUSH2 0x32E9 JUMP JUMPDEST PUSH1 0x20 DUP3 ADD SWAP1 POP SWAP2 SWAP1 POP JUMP JUMPDEST PUSH0 PUSH1 0x20 DUP3 ADD SWAP1 POP DUP2 DUP2 SUB PUSH0 DUP4 ADD MSTORE PUSH2 0x334A DUP2 PUSH2 0x3311 JUMP JUMPDEST SWAP1 POP SWAP2 SWAP1 POP JUMP JUMPDEST PUSH32 0x526F6C652063616E6E6F7420626520656D707479000000000000000000000000 PUSH0 DUP3 ADD MSTORE POP JUMP JUMPDEST PUSH0 PUSH2 0x3385 PUSH1 0x14 DUP4 PUSH2 0x2836 JUMP JUMPDEST SWAP2 POP PUSH2 0x3390 DUP3 PUSH2 0x3351 JUMP JUMPDEST PUSH1 0x20 DUP3 ADD SWAP1 POP SWAP2 SWAP1 POP JUMP JUMPDEST PUSH0 PUSH1 0x20 DUP3 ADD SWAP1 POP DUP2 DUP2 SUB PUSH0 DUP4 ADD MSTORE PUSH2 0x33B2 DUP2 PUSH2 0x3379 JUMP JUMPDEST SWAP1 POP SWAP2 SWAP1 POP JUMP JUMPDEST PUSH0 DUP2 PUSH1 0x60 SHL SWAP1 POP SWAP2 SWAP1 POP JUMP JUMPDEST PUSH0 PUSH2 0x33CF DUP3 PUSH2 0x33B9 JUMP JUMPDEST SWAP1 POP SWAP2 SWAP1 POP JUMP JUMPDEST PUSH0 PUSH2 0x33E0 DUP3 PUSH2 0x33C5 JUMP JUMPDEST SWAP1 POP SWAP2 SWAP1 POP JUMP JUMPDEST PUSH2 0x33F8 PUSH2 0x33F3 DUP3 PUSH2 0x26B2 JUMP JUMPDEST PUSH2 0x33D6 JUMP JUMPDEST DUP3 MSTORE POP POP JUMP JUMPDEST PUSH0 DUP2 SWAP1 POP SWAP2 SWAP1 POP JUMP JUMPDEST PUSH2 0x3418 PUSH2 0x3413 DUP3 PUSH2 0x26ED JUMP JUMPDEST PUSH2 0x33FE JUMP JUMPDEST DUP3 MSTORE POP POP JUMP JUMPDEST PUSH0 DUP2 SWAP1 POP SWAP2 SWAP1 POP JUMP JUMPDEST PUSH2 0x3438 PUSH2 0x3433 DUP3 PUSH2 0x2C54 JUMP JUMPDEST PUSH2 0x341E JUMP JUMPDEST DUP3 MSTORE POP POP JUMP JUMPDEST PUSH0 PUSH2 0x3449 DUP3 DUP9 PUSH2 0x33E7 JUMP JUMPDEST PUSH1 0x14 DUP3 ADD SWAP2 POP PUSH2 0x3459 DUP3 DUP8 PUSH2 0x33E7 JUMP JUMPDEST PUSH1 0x14 DUP3 ADD SWAP2 POP PUSH2 0x3469 DUP3 DUP7 PUSH2 0x3407 JUMP JUMPDEST PUSH1 0x20 DUP3 ADD SWAP2 POP PUSH2 0x3479 DUP3 DUP6 PUSH2 0x3065 JUMP JUMPDEST SWAP2 POP PUSH2 0x3485 DUP3 DUP5 PUSH2 0x3427 JUMP JUMPDEST PUSH1 0x20 DUP3 ADD SWAP2 POP DUP2 SWAP1 POP SWAP7 SWAP6 POP POP POP POP POP POP JUMP JUMPDEST PUSH0 PUSH2 0x34A3 DUP3 DUP8 PUSH2 0x33E7 JUMP JUMPDEST PUSH1 0x14 DUP3 ADD SWAP2 POP PUSH2 0x34B3 DUP3 DUP7 PUSH2 0x33E7 JUMP JUMPDEST PUSH1 0x14 DUP3 ADD SWAP2 POP PUSH2 0x34C3 DUP3 DUP6 PUSH2 0x3065 JUMP JUMPDEST SWAP2 POP PUSH2 0x34CF DUP3 DUP5 PUSH2 0x3427 JUMP JUMPDEST PUSH1 0x20 DUP3 ADD SWAP2 POP DUP2 SWAP1 POP SWAP6 SWAP5 POP POP POP POP POP JUMP JUMPDEST PUSH0 PUSH2 0x34EC DUP3 DUP8 PUSH2 0x33E7 JUMP JUMPDEST PUSH1 0x14 DUP3 ADD SWAP2 POP PUSH2 0x34FC DUP3 DUP7 PUSH2 0x33E7 JUMP JUMPDEST PUSH1 0x14 DUP3 ADD SWAP2 POP PUSH2 0x350C DUP3 DUP6 PUSH2 0x3407 JUMP JUMPDEST PUSH1 0x20 DUP3 ADD SWAP2 POP PUSH2 0x351C DUP3 DUP5 PUSH2 0x3427 JUMP JUMPDEST PUSH1 0x20 DUP3 ADD SWAP2 POP DUP2 SWAP1 POP SWAP6 SWAP5 POP POP POP POP POP JUMP JUMPDEST PUSH0 DUP2 PUSH1 0xF8 SHL SWAP1 POP SWAP2 SWAP1 POP JUMP JUMPDEST PUSH0 PUSH2 0x3544 DUP3 PUSH2 0x352E JUMP JUMPDEST SWAP1 POP SWAP2 SWAP1 POP JUMP JUMPDEST PUSH0 PUSH2 0x3555 DUP3 PUSH2 0x353A JUMP JUMPDEST SWAP1 POP SWAP2 SWAP1 POP JUMP JUMPDEST PUSH2 0x356D PUSH2 0x3568 DUP3 PUSH2 0x2585 JUMP JUMPDEST PUSH2 0x354B JUMP JUMPDEST DUP3 MSTORE POP POP JUMP JUMPDEST PUSH0 PUSH2 0x357E DUP3 DUP8 PUSH2 0x33E7 JUMP JUMPDEST PUSH1 0x14 DUP3 ADD SWAP2 POP PUSH2 0x358E DUP3 DUP7 PUSH2 0x33E7 JUMP JUMPDEST PUSH1 0x14 DUP3 ADD SWAP2 POP PUSH2 0x359E DUP3 DUP6 PUSH2 0x355C JUMP JUMPDEST PUSH1 0x1 DUP3 ADD SWAP2 POP PUSH2 0x35AE DUP3 DUP5 PUSH2 0x3427 JUMP JUMPDEST PUSH1 0x20 DUP3 ADD SWAP2 POP DUP2 SWAP1 POP SWAP6 SWAP5 POP POP POP POP POP JUMP JUMPDEST PUSH2 0x35C9 DUP2 PUSH2 0x26B2 JUMP JUMPDEST DUP3 MSTORE POP POP JUMP JUMPDEST PUSH0 PUSH1 0x80 DUP3 ADD SWAP1 POP PUSH2 0x35E2 PUSH0 DUP4 ADD DUP8 PUSH2 0x35C0 JUMP JUMPDEST PUSH2 0x35EF PUSH1 0x20 DUP4 ADD DUP7 PUSH2 0x3201 JUMP JUMPDEST DUP2 DUP2 SUB PUSH1 0x40 DUP4 ADD MSTORE PUSH2 0x3601 DUP2 DUP6 PUSH2 0x2846 JUMP JUMPDEST SWAP1 POP PUSH2 0x3610 PUSH1 0x60 DUP4 ADD DUP5 PUSH2 0x2914 JUMP JUMPDEST SWAP6 SWAP5 POP POP POP POP POP JUMP JUMPDEST PUSH32 0x4E6F2044494420666F756E6420666F7220746869732061646472657373000000 PUSH0 DUP3 ADD MSTORE POP JUMP JUMPDEST PUSH0 PUSH2 0x364D PUSH1 0x1D DUP4 PUSH2 0x2836 JUMP JUMPDEST SWAP2 POP PUSH2 0x3658 DUP3 PUSH2 0x3619 JUMP JUMPDEST PUSH1 0x20 DUP3 ADD SWAP1 POP SWAP2 SWAP1 POP JUMP JUMPDEST PUSH0 PUSH1 0x20 DUP3 ADD SWAP1 POP DUP2 DUP2 SUB PUSH0 DUP4 ADD MSTORE PUSH2 0x367A DUP2 PUSH2 0x3641 JUMP JUMPDEST SWAP1 POP SWAP2 SWAP1 POP JUMP JUMPDEST PUSH32 0x4E487B7100000000000000000000000000000000000000000000000000000000 PUSH0 MSTORE PUSH1 0x11 PUSH1 0x4 MSTORE PUSH1 0x24 PUSH0 REVERT JUMPDEST PUSH0 PUSH2 0x36B8 DUP3 PUSH2 0x2C54 JUMP JUMPDEST SWAP2 POP PUSH2 0x36C3 DUP4 PUSH2 0x2C54 JUMP JUMPDEST SWAP3 POP DUP3 DUP3 SUB SWAP1 POP DUP2 DUP2 GT ISZERO PUSH2 0x36DB JUMPI PUSH2 0x36DA PUSH2 0x3681 JUMP JUMPDEST JUMPDEST SWAP3 SWAP2 POP POP JUMP JUMPDEST PUSH0 PUSH1 0x40 DUP3 ADD SWAP1 POP DUP2 DUP2 SUB PUSH0 DUP4 ADD MSTORE PUSH2 0x36F9 DUP2 DUP6 PUSH2 0x2846 JUMP JUMPDEST SWAP1 POP PUSH2 0x3708 PUSH1 0x20 DUP4 ADD DUP5 PUSH2 0x2590 JUMP JUMPDEST SWAP4 SWAP3 POP POP POP JUMP JUMPDEST PUSH32 0x4E6F20726F6C65732061737369676E656420666F722074686973207573657200 PUSH0 DUP3 ADD MSTORE POP JUMP JUMPDEST PUSH0 PUSH2 0x3743 PUSH1 0x1F DUP4 PUSH2 0x2836 JUMP JUMPDEST SWAP2 POP PUSH2 0x374E DUP3 PUSH2 0x370F JUMP JUMPDEST PUSH1 0x20 DUP3 ADD SWAP1 POP SWAP2 SWAP1 POP JUMP JUMPDEST PUSH0 PUSH1 0x20 DUP3 ADD SWAP1 POP DUP2 DUP2 SUB PUSH0 DUP4 ADD MSTORE PUSH2 0x3770 DUP2 PUSH2 0x3737 JUMP JUMPDEST SWAP1 POP SWAP2 SWAP1 POP JUMP INVALID LOG2 PUSH5 0x6970667358 0x22 SLT KECCAK256 0xE4 0x4D DUP15 0x21 0xC6 PUSH14 0x448CC9BC7F7A857190040E78906 POP 0xF6 DUP3 RETURNDATACOPY DUP5 0xE5 SHR PUSH1 0x60 CALLER PUSH10 0x6064736F6C634300081A STOP CALLER "
				},
				"gasEstimates": {
					"creation": {
						"codeDepositCost": "2850600",
						"executionCost": "infinite",
						"totalCost": "infinite"
					},
					"external": {
						"assignRole(address,string)": "infinite",
						"createDID(string)": "infinite",
						"getDID()": "infinite",
						"getMetadata()": "infinite",
						"getRole()": "infinite",
						"issueCredential(address,string,int256)": "infinite",
						"presentCredential(string,string)": "infinite",
						"setMetadata(string,string,string)": "infinite",
						"updateDID(string)": "infinite",
						"verifyCredential(bytes32)": "infinite",
						"verifyRole(address,address,string)": "infinite",
						"verifySalary(address,address,int256)": "infinite"
					}
				},
				"methodIdentifiers": {
					"assignRole(address,string)": "b7dfcbee",
					"createDID(string)": "3457d3e2",
					"getDID()": "bc9c2d55",
					"getMetadata()": "7a5b4f59",
					"getRole()": "fde08174",
					"issueCredential(address,string,int256)": "b8d44845",
					"presentCredential(string,string)": "e1e7a16e",
					"setMetadata(string,string,string)": "0890d80c",
					"updateDID(string)": "14c95832",
					"verifyCredential(bytes32)": "4dbf87cc",
					"verifyRole(address,address,string)": "e4f0c22b",
					"verifySalary(address,address,int256)": "a71b79f2"
				}
			},
			"storageLayout": {
				"storage": [
					{
						"astId": 36,
						"contract": "DIDRegistry.sol:DIDRegistry",
						"label": "dids",
						"offset": 0,
						"slot": "0",
						"type": "t_mapping(t_address,t_struct(DID)7_storage)"
					},
					{
						"astId": 40,
						"contract": "DIDRegistry.sol:DIDRegistry",
						"label": "roles",
						"offset": 0,
						"slot": "1",
						"type": "t_mapping(t_address,t_string_storage)"
					},
					{
						"astId": 45,
						"contract": "DIDRegistry.sol:DIDRegistry",
						"label": "roleHistory",
						"offset": 0,
						"slot": "2",
						"type": "t_mapping(t_address,t_array(t_string_storage)dyn_storage)"
					},
					{
						"astId": 50,
						"contract": "DIDRegistry.sol:DIDRegistry",
						"label": "metadata",
						"offset": 0,
						"slot": "3",
						"type": "t_mapping(t_address,t_struct(Metadata)14_storage)"
					},
					{
						"astId": 56,
						"contract": "DIDRegistry.sol:DIDRegistry",
						"label": "credentials",
						"offset": 0,
						"slot": "4",
						"type": "t_mapping(t_address,t_array(t_struct(Credential)31_storage)dyn_storage)"
					}
				],
				"types": {
					"t_address": {
						"encoding": "inplace",
						"label": "address",
						"numberOfBytes": "20"
					},
					"t_array(t_string_storage)dyn_storage": {
						"base": "t_string_storage",
						"encoding": "dynamic_array",
						"label": "string[]",
						"numberOfBytes": "32"
					},
					"t_array(t_struct(Credential)31_storage)dyn_storage": {
						"base": "t_struct(Credential)31_storage",
						"encoding": "dynamic_array",
						"label": "struct DIDRegistry.Credential[]",
						"numberOfBytes": "32"
					},
					"t_bytes32": {
						"encoding": "inplace",
						"label": "bytes32",
						"numberOfBytes": "32"
					},
					"t_int256": {
						"encoding": "inplace",
						"label": "int256",
						"numberOfBytes": "32"
					},
					"t_mapping(t_address,t_array(t_string_storage)dyn_storage)": {
						"encoding": "mapping",
						"key": "t_address",
						"label": "mapping(address => string[])",
						"numberOfBytes": "32",
						"value": "t_array(t_string_storage)dyn_storage"
					},
					"t_mapping(t_address,t_array(t_struct(Credential)31_storage)dyn_storage)": {
						"encoding": "mapping",
						"key": "t_address",
						"label": "mapping(address => struct DIDRegistry.Credential[])",
						"numberOfBytes": "32",
						"value": "t_array(t_struct(Credential)31_storage)dyn_storage"
					},
					"t_mapping(t_address,t_string_storage)": {
						"encoding": "mapping",
						"key": "t_address",
						"label": "mapping(address => string)",
						"numberOfBytes": "32",
						"value": "t_string_storage"
					},
					"t_mapping(t_address,t_struct(DID)7_storage)": {
						"encoding": "mapping",
						"key": "t_address",
						"label": "mapping(address => struct DIDRegistry.DID)",
						"numberOfBytes": "32",
						"value": "t_struct(DID)7_storage"
					},
					"t_mapping(t_address,t_struct(Metadata)14_storage)": {
						"encoding": "mapping",
						"key": "t_address",
						"label": "mapping(address => struct DIDRegistry.Metadata)",
						"numberOfBytes": "32",
						"value": "t_struct(Metadata)14_storage"
					},
					"t_string_storage": {
						"encoding": "bytes",
						"label": "string",
						"numberOfBytes": "32"
					},
					"t_struct(Credential)31_storage": {
						"encoding": "inplace",
						"label": "struct DIDRegistry.Credential",
						"members": [
							{
								"astId": 16,
								"contract": "DIDRegistry.sol:DIDRegistry",
								"label": "issuer",
								"offset": 0,
								"slot": "0",
								"type": "t_address"
							},
							{
								"astId": 18,
								"contract": "DIDRegistry.sol:DIDRegistry",
								"label": "salary",
								"offset": 0,
								"slot": "1",
								"type": "t_int256"
							},
							{
								"astId": 20,
								"contract": "DIDRegistry.sol:DIDRegistry",
								"label": "role",
								"offset": 0,
								"slot": "2",
								"type": "t_string_storage"
							},
							{
								"astId": 22,
								"contract": "DIDRegistry.sol:DIDRegistry",
								"label": "fullHash",
								"offset": 0,
								"slot": "3",
								"type": "t_bytes32"
							},
							{
								"astId": 24,
								"contract": "DIDRegistry.sol:DIDRegistry",
								"label": "roleHash",
								"offset": 0,
								"slot": "4",
								"type": "t_bytes32"
							},
							{
								"astId": 26,
								"contract": "DIDRegistry.sol:DIDRegistry",
								"label": "salaryHash",
								"offset": 0,
								"slot": "5",
								"type": "t_bytes32"
							},
							{
								"astId": 28,
								"contract": "DIDRegistry.sol:DIDRegistry",
								"label": "salary300Hash",
								"offset": 0,
								"slot": "6",
								"type": "t_bytes32"
							},
							{
								"astId": 30,
								"contract": "DIDRegistry.sol:DIDRegistry",
								"label": "issueAt",
								"offset": 0,
								"slot": "7",
								"type": "t_uint256"
							}
						],
						"numberOfBytes": "256"
					},
					"t_struct(DID)7_storage": {
						"encoding": "inplace",
						"label": "struct DIDRegistry.DID",
						"members": [
							{
								"astId": 4,
								"contract": "DIDRegistry.sol:DIDRegistry",
								"label": "identifier",
								"offset": 0,
								"slot": "0",
								"type": "t_string_storage"
							},
							{
								"astId": 6,
								"contract": "DIDRegistry.sol:DIDRegistry",
								"label": "owner",
								"offset": 0,
								"slot": "1",
								"type": "t_address"
							}
						],
						"numberOfBytes": "64"
					},
					"t_struct(Metadata)14_storage": {
						"encoding": "inplace",
						"label": "struct DIDRegistry.Metadata",
						"members": [
							{
								"astId": 9,
								"contract": "DIDRegistry.sol:DIDRegistry",
								"label": "name",
								"offset": 0,
								"slot": "0",
								"type": "t_string_storage"
							},
							{
								"astId": 11,
								"contract": "DIDRegistry.sol:DIDRegistry",
								"label": "email",
								"offset": 0,
								"slot": "1",
								"type": "t_string_storage"
							},
							{
								"astId": 13,
								"contract": "DIDRegistry.sol:DIDRegistry",
								"label": "profilePicture",
								"offset": 0,
								"slot": "2",
								"type": "t_string_storage"
							}
						],
						"numberOfBytes": "96"
					},
					"t_uint256": {
						"encoding": "inplace",
						"label": "uint256",
						"numberOfBytes": "32"
					}
				}
			},
			"userdoc": {
				"kind": "user",
				"methods": {},
				"version": 1
			}
		}
	}
}