{
	"DIDRegistry.sol": {
		"DIDRegistry": {
			"abi": [
				{
					"inputs": [],
					"stateMutability": "nonpayable",
					"type": "constructor"
				},
				{
					"anonymous": false,
					"inputs": [
						{
							"indexed": true,
							"internalType": "address",
							"name": "owner",
							"type": "address"
						},
						{
							"indexed": false,
							"internalType": "string",
							"name": "identifier",
							"type": "string"
						}
					],
					"name": "DIDCreated",
					"type": "event"
				},
				{
					"anonymous": false,
					"inputs": [
						{
							"indexed": true,
							"internalType": "address",
							"name": "owner",
							"type": "address"
						},
						{
							"indexed": false,
							"internalType": "string",
							"name": "name",
							"type": "string"
						},
						{
							"indexed": false,
							"internalType": "string",
							"name": "email",
							"type": "string"
						},
						{
							"indexed": false,
							"internalType": "string",
							"name": "profilePicture",
							"type": "string"
						}
					],
					"name": "MetadataCreated",
					"type": "event"
				},
				{
					"anonymous": false,
					"inputs": [
						{
							"indexed": true,
							"internalType": "address",
							"name": "user",
							"type": "address"
						},
						{
							"indexed": false,
							"internalType": "string",
							"name": "role",
							"type": "string"
						}
					],
					"name": "RoleAssigned",
					"type": "event"
				},
				{
					"anonymous": false,
					"inputs": [
						{
							"indexed": true,
							"internalType": "address",
							"name": "issuer",
							"type": "address"
						},
						{
							"indexed": false,
							"internalType": "address",
							"name": "user",
							"type": "address"
						},
						{
							"indexed": false,
							"internalType": "string",
							"name": "role",
							"type": "string"
						},
						{
							"indexed": false,
							"internalType": "bytes32",
							"name": "roleHash",
							"type": "bytes32"
						}
					],
					"name": "RoleIssued",
					"type": "event"
				},
				{
					"inputs": [
						{
							"internalType": "address",
							"name": "_user",
							"type": "address"
						},
						{
							"internalType": "string",
							"name": "_role",
							"type": "string"
						}
					],
					"name": "assignRole",
					"outputs": [],
					"stateMutability": "nonpayable",
					"type": "function"
				},
				{
					"inputs": [
						{
							"internalType": "string",
							"name": "_identifier",
							"type": "string"
						}
					],
					"name": "createDID",
					"outputs": [],
					"stateMutability": "nonpayable",
					"type": "function"
				},
				{
					"inputs": [],
					"name": "getDID",
					"outputs": [
						{
							"internalType": "string",
							"name": "",
							"type": "string"
						}
					],
					"stateMutability": "view",
					"type": "function"
				},
				{
					"inputs": [],
					"name": "getMetadata",
					"outputs": [
						{
							"components": [
								{
									"internalType": "string",
									"name": "name",
									"type": "string"
								},
								{
									"internalType": "string",
									"name": "email",
									"type": "string"
								},
								{
									"internalType": "string",
									"name": "profilePicture",
									"type": "string"
								}
							],
							"internalType": "struct DIDRegistry.Metadata",
							"name": "",
							"type": "tuple"
						}
					],
					"stateMutability": "view",
					"type": "function"
				},
				{
					"inputs": [],
					"name": "getRole",
					"outputs": [
						{
							"internalType": "string[]",
							"name": "",
							"type": "string[]"
						}
					],
					"stateMutability": "view",
					"type": "function"
				},
				{
					"inputs": [
						{
							"internalType": "address",
							"name": "_user",
							"type": "address"
						},
						{
							"internalType": "string",
							"name": "_role",
							"type": "string"
						}
					],
					"name": "issueRole",
					"outputs": [],
					"stateMutability": "nonpayable",
					"type": "function"
				},
				{
					"inputs": [
						{
							"internalType": "string",
							"name": "_name",
							"type": "string"
						},
						{
							"internalType": "string",
							"name": "_email",
							"type": "string"
						},
						{
							"internalType": "string",
							"name": "_profilePicture",
							"type": "string"
						}
					],
					"name": "setMetadata",
					"outputs": [],
					"stateMutability": "nonpayable",
					"type": "function"
				},
				{
					"inputs": [
						{
							"internalType": "string",
							"name": "_newIdentifier",
							"type": "string"
						}
					],
					"name": "updateDID",
					"outputs": [],
					"stateMutability": "nonpayable",
					"type": "function"
				}
			],
			"devdoc": {
				"details": "Contract to store and manage DIDs  Authors: - Kong Phirom - Hul Sambath - Prak Pichey - Him Ronald - Chhim Kakada",
				"kind": "dev",
				"methods": {},
				"title": "DIDRegistry",
				"version": 1
			},
			"evm": {
				"assembly": "    /* \"DIDRegistry.sol\":246:5997  contract DIDRegistry {... */\n  mstore(0x40, 0x80)\n    /* \"DIDRegistry.sol\":1156:1268  constructor() {... */\n  callvalue\n  dup1\n  iszero\n  tag_1\n  jumpi\n  0x00\n  dup1\n  revert\ntag_1:\n  pop\n    /* \"DIDRegistry.sol\":1181:1210  roles[msg.sender] = \"manager\" */\n  mload(0x40)\n  dup1\n  0x40\n  add\n  0x40\n  mstore\n  dup1\n  0x07\n  dup2\n  mstore\n  0x20\n  add\n  0x6d616e6167657200000000000000000000000000000000000000000000000000\n  dup2\n  mstore\n  pop\n    /* \"DIDRegistry.sol\":1181:1186  roles */\n  0x01\n    /* \"DIDRegistry.sol\":1181:1198  roles[msg.sender] */\n  0x00\n    /* \"DIDRegistry.sol\":1187:1197  msg.sender */\n  caller\n    /* \"DIDRegistry.sol\":1181:1198  roles[msg.sender] */\n  0xffffffffffffffffffffffffffffffffffffffff\n  and\n  0xffffffffffffffffffffffffffffffffffffffff\n  and\n  dup2\n  mstore\n  0x20\n  add\n  swap1\n  dup2\n  mstore\n  0x20\n  add\n  0x00\n  keccak256\n    /* \"DIDRegistry.sol\":1181:1210  roles[msg.sender] = \"manager\" */\n  swap1\n  dup2\n  tag_4\n  swap2\n  swap1\n  tag_5\n  jump\t// in\ntag_4:\n  pop\n    /* \"DIDRegistry.sol\":1221:1232  roleHistory */\n  0x02\n    /* \"DIDRegistry.sol\":1221:1244  roleHistory[msg.sender] */\n  0x00\n    /* \"DIDRegistry.sol\":1233:1243  msg.sender */\n  caller\n    /* \"DIDRegistry.sol\":1221:1244  roleHistory[msg.sender] */\n  0xffffffffffffffffffffffffffffffffffffffff\n  and\n  0xffffffffffffffffffffffffffffffffffffffff\n  and\n  dup2\n  mstore\n  0x20\n  add\n  swap1\n  dup2\n  mstore\n  0x20\n  add\n  0x00\n  keccak256\n    /* \"DIDRegistry.sol\":1221:1260  roleHistory[msg.sender].push(\"manager\") */\n  dup1\n  0x01\n  dup2\n  sload\n  add\n  dup1\n  dup3\n  sstore\n  dup1\n  swap2\n  pop\n  pop\n  0x01\n  swap1\n  sub\n  swap1\n  0x00\n  mstore\n  keccak256(0x00, 0x20)\n  add\n  0x00\n  mload(0x40)\n  dup1\n  0x40\n  add\n  0x40\n  mstore\n  dup1\n  0x07\n  dup2\n  mstore\n  0x20\n  add\n  0x6d616e6167657200000000000000000000000000000000000000000000000000\n  dup2\n  mstore\n  pop\n  swap1\n  swap2\n  swap1\n  swap2\n  pop\n  swap1\n  dup2\n  tag_7\n  swap2\n  swap1\n  tag_5\n  jump\t// in\ntag_7:\n  pop\n    /* \"DIDRegistry.sol\":246:5997  contract DIDRegistry {... */\n  jump(tag_8)\n    /* \"#utility.yul\":7:106   */\ntag_9:\n    /* \"#utility.yul\":59:65   */\n  0x00\n    /* \"#utility.yul\":93:98   */\n  dup2\n    /* \"#utility.yul\":87:99   */\n  mload\n    /* \"#utility.yul\":77:99   */\n  swap1\n  pop\n    /* \"#utility.yul\":7:106   */\n  swap2\n  swap1\n  pop\n  jump\t// out\n    /* \"#utility.yul\":112:292   */\ntag_10:\n    /* \"#utility.yul\":160:237   */\n  0x4e487b7100000000000000000000000000000000000000000000000000000000\n    /* \"#utility.yul\":157:158   */\n  0x00\n    /* \"#utility.yul\":150:238   */\n  mstore\n    /* \"#utility.yul\":257:261   */\n  0x41\n    /* \"#utility.yul\":254:255   */\n  0x04\n    /* \"#utility.yul\":247:262   */\n  mstore\n    /* \"#utility.yul\":281:285   */\n  0x24\n    /* \"#utility.yul\":278:279   */\n  0x00\n    /* \"#utility.yul\":271:286   */\n  revert\n    /* \"#utility.yul\":298:478   */\ntag_11:\n    /* \"#utility.yul\":346:423   */\n  0x4e487b7100000000000000000000000000000000000000000000000000000000\n    /* \"#utility.yul\":343:344   */\n  0x00\n    /* \"#utility.yul\":336:424   */\n  mstore\n    /* \"#utility.yul\":443:447   */\n  0x22\n    /* \"#utility.yul\":440:441   */\n  0x04\n    /* \"#utility.yul\":433:448   */\n  mstore\n    /* \"#utility.yul\":467:471   */\n  0x24\n    /* \"#utility.yul\":464:465   */\n  0x00\n    /* \"#utility.yul\":457:472   */\n  revert\n    /* \"#utility.yul\":484:804   */\ntag_12:\n    /* \"#utility.yul\":528:534   */\n  0x00\n    /* \"#utility.yul\":565:566   */\n  0x02\n    /* \"#utility.yul\":559:563   */\n  dup3\n    /* \"#utility.yul\":555:567   */\n  div\n    /* \"#utility.yul\":545:567   */\n  swap1\n  pop\n    /* \"#utility.yul\":612:613   */\n  0x01\n    /* \"#utility.yul\":606:610   */\n  dup3\n    /* \"#utility.yul\":602:614   */\n  and\n    /* \"#utility.yul\":633:651   */\n  dup1\n    /* \"#utility.yul\":623:704   */\n  tag_34\n  jumpi\n    /* \"#utility.yul\":689:693   */\n  0x7f\n    /* \"#utility.yul\":681:687   */\n  dup3\n    /* \"#utility.yul\":677:694   */\n  and\n    /* \"#utility.yul\":667:694   */\n  swap2\n  pop\n    /* \"#utility.yul\":623:704   */\ntag_34:\n    /* \"#utility.yul\":751:753   */\n  0x20\n    /* \"#utility.yul\":743:749   */\n  dup3\n    /* \"#utility.yul\":740:754   */\n  lt\n    /* \"#utility.yul\":720:738   */\n  dup2\n    /* \"#utility.yul\":717:755   */\n  sub\n    /* \"#utility.yul\":714:798   */\n  tag_35\n  jumpi\n    /* \"#utility.yul\":770:788   */\n  tag_36\n  tag_11\n  jump\t// in\ntag_36:\n    /* \"#utility.yul\":714:798   */\ntag_35:\n    /* \"#utility.yul\":535:804   */\n  pop\n    /* \"#utility.yul\":484:804   */\n  swap2\n  swap1\n  pop\n  jump\t// out\n    /* \"#utility.yul\":810:951   */\ntag_13:\n    /* \"#utility.yul\":859:863   */\n  0x00\n    /* \"#utility.yul\":882:885   */\n  dup2\n    /* \"#utility.yul\":874:885   */\n  swap1\n  pop\n    /* \"#utility.yul\":905:908   */\n  dup2\n    /* \"#utility.yul\":902:903   */\n  0x00\n    /* \"#utility.yul\":895:909   */\n  mstore\n    /* \"#utility.yul\":939:943   */\n  0x20\n    /* \"#utility.yul\":936:937   */\n  0x00\n    /* \"#utility.yul\":926:944   */\n  keccak256\n    /* \"#utility.yul\":918:944   */\n  swap1\n  pop\n    /* \"#utility.yul\":810:951   */\n  swap2\n  swap1\n  pop\n  jump\t// out\n    /* \"#utility.yul\":957:1050   */\ntag_14:\n    /* \"#utility.yul\":994:1000   */\n  0x00\n    /* \"#utility.yul\":1041:1043   */\n  0x20\n    /* \"#utility.yul\":1036:1038   */\n  0x1f\n    /* \"#utility.yul\":1029:1034   */\n  dup4\n    /* \"#utility.yul\":1025:1039   */\n  add\n    /* \"#utility.yul\":1021:1044   */\n  div\n    /* \"#utility.yul\":1011:1044   */\n  swap1\n  pop\n    /* \"#utility.yul\":957:1050   */\n  swap2\n  swap1\n  pop\n  jump\t// out\n    /* \"#utility.yul\":1056:1163   */\ntag_15:\n    /* \"#utility.yul\":1100:1108   */\n  0x00\n    /* \"#utility.yul\":1150:1155   */\n  dup3\n    /* \"#utility.yul\":1144:1148   */\n  dup3\n    /* \"#utility.yul\":1140:1156   */\n  shl\n    /* \"#utility.yul\":1119:1156   */\n  swap1\n  pop\n    /* \"#utility.yul\":1056:1163   */\n  swap3\n  swap2\n  pop\n  pop\n  jump\t// out\n    /* \"#utility.yul\":1169:1562   */\ntag_16:\n    /* \"#utility.yul\":1238:1244   */\n  0x00\n    /* \"#utility.yul\":1288:1289   */\n  0x08\n    /* \"#utility.yul\":1276:1286   */\n  dup4\n    /* \"#utility.yul\":1272:1290   */\n  mul\n    /* \"#utility.yul\":1311:1408   */\n  tag_41\n    /* \"#utility.yul\":1341:1407   */\n  0xffffffffffffffffffffffffffffffffffffffffffffffffffffffffffffffff\n    /* \"#utility.yul\":1330:1339   */\n  dup3\n    /* \"#utility.yul\":1311:1408   */\n  tag_15\n  jump\t// in\ntag_41:\n    /* \"#utility.yul\":1429:1468   */\n  tag_42\n    /* \"#utility.yul\":1459:1467   */\n  dup7\n    /* \"#utility.yul\":1448:1457   */\n  dup4\n    /* \"#utility.yul\":1429:1468   */\n  tag_15\n  jump\t// in\ntag_42:\n    /* \"#utility.yul\":1417:1468   */\n  swap6\n  pop\n    /* \"#utility.yul\":1501:1505   */\n  dup1\n    /* \"#utility.yul\":1497:1506   */\n  not\n    /* \"#utility.yul\":1490:1495   */\n  dup5\n    /* \"#utility.yul\":1486:1507   */\n  and\n    /* \"#utility.yul\":1477:1507   */\n  swap4\n  pop\n    /* \"#utility.yul\":1550:1554   */\n  dup1\n    /* \"#utility.yul\":1540:1548   */\n  dup7\n    /* \"#utility.yul\":1536:1555   */\n  and\n    /* \"#utility.yul\":1529:1534   */\n  dup5\n    /* \"#utility.yul\":1526:1556   */\n  or\n    /* \"#utility.yul\":1516:1556   */\n  swap3\n  pop\n    /* \"#utility.yul\":1245:1562   */\n  pop\n  pop\n    /* \"#utility.yul\":1169:1562   */\n  swap4\n  swap3\n  pop\n  pop\n  pop\n  jump\t// out\n    /* \"#utility.yul\":1568:1645   */\ntag_17:\n    /* \"#utility.yul\":1605:1612   */\n  0x00\n    /* \"#utility.yul\":1634:1639   */\n  dup2\n    /* \"#utility.yul\":1623:1639   */\n  swap1\n  pop\n    /* \"#utility.yul\":1568:1645   */\n  swap2\n  swap1\n  pop\n  jump\t// out\n    /* \"#utility.yul\":1651:1711   */\ntag_18:\n    /* \"#utility.yul\":1679:1682   */\n  0x00\n    /* \"#utility.yul\":1700:1705   */\n  dup2\n    /* \"#utility.yul\":1693:1705   */\n  swap1\n  pop\n    /* \"#utility.yul\":1651:1711   */\n  swap2\n  swap1\n  pop\n  jump\t// out\n    /* \"#utility.yul\":1717:1859   */\ntag_19:\n    /* \"#utility.yul\":1767:1776   */\n  0x00\n    /* \"#utility.yul\":1800:1853   */\n  tag_46\n    /* \"#utility.yul\":1818:1852   */\n  tag_47\n    /* \"#utility.yul\":1827:1851   */\n  tag_48\n    /* \"#utility.yul\":1845:1850   */\n  dup5\n    /* \"#utility.yul\":1827:1851   */\n  tag_17\n  jump\t// in\ntag_48:\n    /* \"#utility.yul\":1818:1852   */\n  tag_18\n  jump\t// in\ntag_47:\n    /* \"#utility.yul\":1800:1853   */\n  tag_17\n  jump\t// in\ntag_46:\n    /* \"#utility.yul\":1787:1853   */\n  swap1\n  pop\n    /* \"#utility.yul\":1717:1859   */\n  swap2\n  swap1\n  pop\n  jump\t// out\n    /* \"#utility.yul\":1865:1940   */\ntag_20:\n    /* \"#utility.yul\":1908:1911   */\n  0x00\n    /* \"#utility.yul\":1929:1934   */\n  dup2\n    /* \"#utility.yul\":1922:1934   */\n  swap1\n  pop\n    /* \"#utility.yul\":1865:1940   */\n  swap2\n  swap1\n  pop\n  jump\t// out\n    /* \"#utility.yul\":1946:2215   */\ntag_21:\n    /* \"#utility.yul\":2056:2095   */\n  tag_51\n    /* \"#utility.yul\":2087:2094   */\n  dup4\n    /* \"#utility.yul\":2056:2095   */\n  tag_19\n  jump\t// in\ntag_51:\n    /* \"#utility.yul\":2117:2208   */\n  tag_52\n    /* \"#utility.yul\":2166:2207   */\n  tag_53\n    /* \"#utility.yul\":2190:2206   */\n  dup3\n    /* \"#utility.yul\":2166:2207   */\n  tag_20\n  jump\t// in\ntag_53:\n    /* \"#utility.yul\":2158:2164   */\n  dup5\n    /* \"#utility.yul\":2151:2155   */\n  dup5\n    /* \"#utility.yul\":2145:2156   */\n  sload\n    /* \"#utility.yul\":2117:2208   */\n  tag_16\n  jump\t// in\ntag_52:\n    /* \"#utility.yul\":2111:2115   */\n  dup3\n    /* \"#utility.yul\":2104:2209   */\n  sstore\n    /* \"#utility.yul\":2022:2215   */\n  pop\n    /* \"#utility.yul\":1946:2215   */\n  pop\n  pop\n  pop\n  jump\t// out\n    /* \"#utility.yul\":2221:2294   */\ntag_22:\n    /* \"#utility.yul\":2266:2269   */\n  0x00\n    /* \"#utility.yul\":2221:2294   */\n  swap1\n  jump\t// out\n    /* \"#utility.yul\":2300:2489   */\ntag_23:\n    /* \"#utility.yul\":2377:2409   */\n  tag_56\n  tag_22\n  jump\t// in\ntag_56:\n    /* \"#utility.yul\":2418:2483   */\n  tag_57\n    /* \"#utility.yul\":2476:2482   */\n  dup2\n    /* \"#utility.yul\":2468:2474   */\n  dup5\n    /* \"#utility.yul\":2462:2466   */\n  dup5\n    /* \"#utility.yul\":2418:2483   */\n  tag_21\n  jump\t// in\ntag_57:\n    /* \"#utility.yul\":2353:2489   */\n  pop\n    /* \"#utility.yul\":2300:2489   */\n  pop\n  pop\n  jump\t// out\n    /* \"#utility.yul\":2495:2681   */\ntag_24:\n    /* \"#utility.yul\":2555:2675   */\ntag_59:\n    /* \"#utility.yul\":2572:2575   */\n  dup2\n    /* \"#utility.yul\":2565:2570   */\n  dup2\n    /* \"#utility.yul\":2562:2576   */\n  lt\n    /* \"#utility.yul\":2555:2675   */\n  iszero\n  tag_61\n  jumpi\n    /* \"#utility.yul\":2626:2665   */\n  tag_62\n    /* \"#utility.yul\":2663:2664   */\n  0x00\n    /* \"#utility.yul\":2656:2661   */\n  dup3\n    /* \"#utility.yul\":2626:2665   */\n  tag_23\n  jump\t// in\ntag_62:\n    /* \"#utility.yul\":2599:2600   */\n  0x01\n    /* \"#utility.yul\":2592:2597   */\n  dup2\n    /* \"#utility.yul\":2588:2601   */\n  add\n    /* \"#utility.yul\":2579:2601   */\n  swap1\n  pop\n    /* \"#utility.yul\":2555:2675   */\n  jump(tag_59)\ntag_61:\n    /* \"#utility.yul\":2495:2681   */\n  pop\n  pop\n  jump\t// out\n    /* \"#utility.yul\":2687:3230   */\ntag_25:\n    /* \"#utility.yul\":2788:2790   */\n  0x1f\n    /* \"#utility.yul\":2783:2786   */\n  dup3\n    /* \"#utility.yul\":2780:2791   */\n  gt\n    /* \"#utility.yul\":2777:3223   */\n  iszero\n  tag_64\n  jumpi\n    /* \"#utility.yul\":2822:2860   */\n  tag_65\n    /* \"#utility.yul\":2854:2859   */\n  dup2\n    /* \"#utility.yul\":2822:2860   */\n  tag_13\n  jump\t// in\ntag_65:\n    /* \"#utility.yul\":2906:2935   */\n  tag_66\n    /* \"#utility.yul\":2924:2934   */\n  dup5\n    /* \"#utility.yul\":2906:2935   */\n  tag_14\n  jump\t// in\ntag_66:\n    /* \"#utility.yul\":2896:2904   */\n  dup2\n    /* \"#utility.yul\":2892:2936   */\n  add\n    /* \"#utility.yul\":3089:3091   */\n  0x20\n    /* \"#utility.yul\":3077:3087   */\n  dup6\n    /* \"#utility.yul\":3074:3092   */\n  lt\n    /* \"#utility.yul\":3071:3120   */\n  iszero\n  tag_67\n  jumpi\n    /* \"#utility.yul\":3110:3118   */\n  dup2\n    /* \"#utility.yul\":3095:3118   */\n  swap1\n  pop\n    /* \"#utility.yul\":3071:3120   */\ntag_67:\n    /* \"#utility.yul\":3133:3213   */\n  tag_68\n    /* \"#utility.yul\":3189:3211   */\n  tag_69\n    /* \"#utility.yul\":3207:3210   */\n  dup6\n    /* \"#utility.yul\":3189:3211   */\n  tag_14\n  jump\t// in\ntag_69:\n    /* \"#utility.yul\":3179:3187   */\n  dup4\n    /* \"#utility.yul\":3175:3212   */\n  add\n    /* \"#utility.yul\":3162:3173   */\n  dup3\n    /* \"#utility.yul\":3133:3213   */\n  tag_24\n  jump\t// in\ntag_68:\n    /* \"#utility.yul\":2792:3223   */\n  pop\n  pop\n    /* \"#utility.yul\":2777:3223   */\ntag_64:\n    /* \"#utility.yul\":2687:3230   */\n  pop\n  pop\n  pop\n  jump\t// out\n    /* \"#utility.yul\":3236:3353   */\ntag_26:\n    /* \"#utility.yul\":3290:3298   */\n  0x00\n    /* \"#utility.yul\":3340:3345   */\n  dup3\n    /* \"#utility.yul\":3334:3338   */\n  dup3\n    /* \"#utility.yul\":3330:3346   */\n  shr\n    /* \"#utility.yul\":3309:3346   */\n  swap1\n  pop\n    /* \"#utility.yul\":3236:3353   */\n  swap3\n  swap2\n  pop\n  pop\n  jump\t// out\n    /* \"#utility.yul\":3359:3528   */\ntag_27:\n    /* \"#utility.yul\":3403:3409   */\n  0x00\n    /* \"#utility.yul\":3436:3487   */\n  tag_72\n    /* \"#utility.yul\":3484:3485   */\n  0x00\n    /* \"#utility.yul\":3480:3486   */\n  not\n    /* \"#utility.yul\":3472:3477   */\n  dup5\n    /* \"#utility.yul\":3469:3470   */\n  0x08\n    /* \"#utility.yul\":3465:3478   */\n  mul\n    /* \"#utility.yul\":3436:3487   */\n  tag_26\n  jump\t// in\ntag_72:\n    /* \"#utility.yul\":3432:3488   */\n  not\n    /* \"#utility.yul\":3517:3521   */\n  dup1\n    /* \"#utility.yul\":3511:3515   */\n  dup4\n    /* \"#utility.yul\":3507:3522   */\n  and\n    /* \"#utility.yul\":3497:3522   */\n  swap2\n  pop\n    /* \"#utility.yul\":3410:3528   */\n  pop\n    /* \"#utility.yul\":3359:3528   */\n  swap3\n  swap2\n  pop\n  pop\n  jump\t// out\n    /* \"#utility.yul\":3533:3828   */\ntag_28:\n    /* \"#utility.yul\":3609:3613   */\n  0x00\n    /* \"#utility.yul\":3755:3784   */\n  tag_74\n    /* \"#utility.yul\":3780:3783   */\n  dup4\n    /* \"#utility.yul\":3774:3778   */\n  dup4\n    /* \"#utility.yul\":3755:3784   */\n  tag_27\n  jump\t// in\ntag_74:\n    /* \"#utility.yul\":3747:3784   */\n  swap2\n  pop\n    /* \"#utility.yul\":3817:3820   */\n  dup3\n    /* \"#utility.yul\":3814:3815   */\n  0x02\n    /* \"#utility.yul\":3810:3821   */\n  mul\n    /* \"#utility.yul\":3804:3808   */\n  dup3\n    /* \"#utility.yul\":3801:3822   */\n  or\n    /* \"#utility.yul\":3793:3822   */\n  swap1\n  pop\n    /* \"#utility.yul\":3533:3828   */\n  swap3\n  swap2\n  pop\n  pop\n  jump\t// out\n    /* \"#utility.yul\":3833:5228   */\ntag_5:\n    /* \"#utility.yul\":3950:3987   */\n  tag_76\n    /* \"#utility.yul\":3983:3986   */\n  dup3\n    /* \"#utility.yul\":3950:3987   */\n  tag_9\n  jump\t// in\ntag_76:\n    /* \"#utility.yul\":4052:4070   */\n  0xffffffffffffffff\n    /* \"#utility.yul\":4044:4050   */\n  dup2\n    /* \"#utility.yul\":4041:4071   */\n  gt\n    /* \"#utility.yul\":4038:4094   */\n  iszero\n  tag_77\n  jumpi\n    /* \"#utility.yul\":4074:4092   */\n  tag_78\n  tag_10\n  jump\t// in\ntag_78:\n    /* \"#utility.yul\":4038:4094   */\ntag_77:\n    /* \"#utility.yul\":4118:4156   */\n  tag_79\n    /* \"#utility.yul\":4150:4154   */\n  dup3\n    /* \"#utility.yul\":4144:4155   */\n  sload\n    /* \"#utility.yul\":4118:4156   */\n  tag_12\n  jump\t// in\ntag_79:\n    /* \"#utility.yul\":4203:4270   */\n  tag_80\n    /* \"#utility.yul\":4263:4269   */\n  dup3\n    /* \"#utility.yul\":4255:4261   */\n  dup3\n    /* \"#utility.yul\":4249:4253   */\n  dup6\n    /* \"#utility.yul\":4203:4270   */\n  tag_25\n  jump\t// in\ntag_80:\n    /* \"#utility.yul\":4297:4298   */\n  0x00\n    /* \"#utility.yul\":4321:4325   */\n  0x20\n    /* \"#utility.yul\":4308:4325   */\n  swap1\n  pop\n    /* \"#utility.yul\":4353:4355   */\n  0x1f\n    /* \"#utility.yul\":4345:4351   */\n  dup4\n    /* \"#utility.yul\":4342:4356   */\n  gt\n    /* \"#utility.yul\":4370:4371   */\n  0x01\n    /* \"#utility.yul\":4365:4983   */\n  dup2\n  eq\n  tag_82\n  jumpi\n    /* \"#utility.yul\":5027:5028   */\n  0x00\n    /* \"#utility.yul\":5044:5050   */\n  dup5\n    /* \"#utility.yul\":5041:5118   */\n  iszero\n  tag_83\n  jumpi\n    /* \"#utility.yul\":5093:5102   */\n  dup3\n    /* \"#utility.yul\":5088:5091   */\n  dup8\n    /* \"#utility.yul\":5084:5103   */\n  add\n    /* \"#utility.yul\":5078:5104   */\n  mload\n    /* \"#utility.yul\":5069:5104   */\n  swap1\n  pop\n    /* \"#utility.yul\":5041:5118   */\ntag_83:\n    /* \"#utility.yul\":5144:5211   */\n  tag_84\n    /* \"#utility.yul\":5204:5210   */\n  dup6\n    /* \"#utility.yul\":5197:5202   */\n  dup3\n    /* \"#utility.yul\":5144:5211   */\n  tag_28\n  jump\t// in\ntag_84:\n    /* \"#utility.yul\":5138:5142   */\n  dup7\n    /* \"#utility.yul\":5131:5212   */\n  sstore\n    /* \"#utility.yul\":5000:5222   */\n  pop\n    /* \"#utility.yul\":4335:5222   */\n  jump(tag_81)\n    /* \"#utility.yul\":4365:4983   */\ntag_82:\n    /* \"#utility.yul\":4417:4421   */\n  0x1f\n    /* \"#utility.yul\":4413:4422   */\n  not\n    /* \"#utility.yul\":4405:4411   */\n  dup5\n    /* \"#utility.yul\":4401:4423   */\n  and\n    /* \"#utility.yul\":4451:4488   */\n  tag_85\n    /* \"#utility.yul\":4483:4487   */\n  dup7\n    /* \"#utility.yul\":4451:4488   */\n  tag_13\n  jump\t// in\ntag_85:\n    /* \"#utility.yul\":4510:4511   */\n  0x00\n    /* \"#utility.yul\":4524:4732   */\ntag_86:\n    /* \"#utility.yul\":4538:4545   */\n  dup3\n    /* \"#utility.yul\":4535:4536   */\n  dup2\n    /* \"#utility.yul\":4532:4546   */\n  lt\n    /* \"#utility.yul\":4524:4732   */\n  iszero\n  tag_88\n  jumpi\n    /* \"#utility.yul\":4617:4626   */\n  dup5\n    /* \"#utility.yul\":4612:4615   */\n  dup10\n    /* \"#utility.yul\":4608:4627   */\n  add\n    /* \"#utility.yul\":4602:4628   */\n  mload\n    /* \"#utility.yul\":4594:4600   */\n  dup3\n    /* \"#utility.yul\":4587:4629   */\n  sstore\n    /* \"#utility.yul\":4668:4669   */\n  0x01\n    /* \"#utility.yul\":4660:4666   */\n  dup3\n    /* \"#utility.yul\":4656:4670   */\n  add\n    /* \"#utility.yul\":4646:4670   */\n  swap2\n  pop\n    /* \"#utility.yul\":4715:4717   */\n  0x20\n    /* \"#utility.yul\":4704:4713   */\n  dup6\n    /* \"#utility.yul\":4700:4718   */\n  add\n    /* \"#utility.yul\":4687:4718   */\n  swap5\n  pop\n    /* \"#utility.yul\":4561:4565   */\n  0x20\n    /* \"#utility.yul\":4558:4559   */\n  dup2\n    /* \"#utility.yul\":4554:4566   */\n  add\n    /* \"#utility.yul\":4549:4566   */\n  swap1\n  pop\n    /* \"#utility.yul\":4524:4732   */\n  jump(tag_86)\ntag_88:\n    /* \"#utility.yul\":4760:4766   */\n  dup7\n    /* \"#utility.yul\":4751:4758   */\n  dup4\n    /* \"#utility.yul\":4748:4767   */\n  lt\n    /* \"#utility.yul\":4745:4924   */\n  iszero\n  tag_89\n  jumpi\n    /* \"#utility.yul\":4818:4827   */\n  dup5\n    /* \"#utility.yul\":4813:4816   */\n  dup10\n    /* \"#utility.yul\":4809:4828   */\n  add\n    /* \"#utility.yul\":4803:4829   */\n  mload\n    /* \"#utility.yul\":4861:4909   */\n  tag_90\n    /* \"#utility.yul\":4903:4907   */\n  0x1f\n    /* \"#utility.yul\":4895:4901   */\n  dup10\n    /* \"#utility.yul\":4891:4908   */\n  and\n    /* \"#utility.yul\":4880:4889   */\n  dup3\n    /* \"#utility.yul\":4861:4909   */\n  tag_27\n  jump\t// in\ntag_90:\n    /* \"#utility.yul\":4853:4859   */\n  dup4\n    /* \"#utility.yul\":4846:4910   */\n  sstore\n    /* \"#utility.yul\":4768:4924   */\n  pop\n    /* \"#utility.yul\":4745:4924   */\ntag_89:\n    /* \"#utility.yul\":4970:4971   */\n  0x01\n    /* \"#utility.yul\":4966:4967   */\n  0x02\n    /* \"#utility.yul\":4958:4964   */\n  dup9\n    /* \"#utility.yul\":4954:4968   */\n  mul\n    /* \"#utility.yul\":4950:4972   */\n  add\n    /* \"#utility.yul\":4944:4948   */\n  dup9\n    /* \"#utility.yul\":4937:4973   */\n  sstore\n    /* \"#utility.yul\":4372:4983   */\n  pop\n  pop\n  pop\n    /* \"#utility.yul\":4335:5222   */\ntag_81:\n  pop\n    /* \"#utility.yul\":3925:5228   */\n  pop\n  pop\n  pop\n    /* \"#utility.yul\":3833:5228   */\n  pop\n  pop\n  jump\t// out\n    /* \"DIDRegistry.sol\":246:5997  contract DIDRegistry {... */\ntag_8:\n  dataSize(sub_0)\n  dup1\n  dataOffset(sub_0)\n  0x00\n  codecopy\n  0x00\n  return\nstop\n\nsub_0: assembly {\n        /* \"DIDRegistry.sol\":246:5997  contract DIDRegistry {... */\n      mstore(0x40, 0x80)\n      callvalue\n      dup1\n      iszero\n      tag_1\n      jumpi\n      0x00\n      dup1\n      revert\n    tag_1:\n      pop\n      jumpi(tag_2, lt(calldatasize, 0x04))\n      shr(0xe0, calldataload(0x00))\n      dup1\n      0x7a5b4f59\n      gt\n      tag_11\n      jumpi\n      dup1\n      0x7a5b4f59\n      eq\n      tag_7\n      jumpi\n      dup1\n      0xb7dfcbee\n      eq\n      tag_8\n      jumpi\n      dup1\n      0xbc9c2d55\n      eq\n      tag_9\n      jumpi\n      dup1\n      0xfde08174\n      eq\n      tag_10\n      jumpi\n      jump(tag_2)\n    tag_11:\n      dup1\n      0x022bf9c1\n      eq\n      tag_3\n      jumpi\n      dup1\n      0x0890d80c\n      eq\n      tag_4\n      jumpi\n      dup1\n      0x14c95832\n      eq\n      tag_5\n      jumpi\n      dup1\n      0x3457d3e2\n      eq\n      tag_6\n      jumpi\n    tag_2:\n      0x00\n      dup1\n      revert\n        /* \"DIDRegistry.sol\":4531:5380  function issueRole(address _user, string memory _role) onlyManager public {... */\n    tag_3:\n      tag_12\n      0x04\n      dup1\n      calldatasize\n      sub\n      dup2\n      add\n      swap1\n      tag_13\n      swap2\n      swap1\n      tag_14\n      jump\t// in\n    tag_13:\n      tag_15\n      jump\t// in\n    tag_12:\n      stop\n        /* \"DIDRegistry.sol\":3063:3695  function setMetadata(... */\n    tag_4:\n      tag_16\n      0x04\n      dup1\n      calldatasize\n      sub\n      dup2\n      add\n      swap1\n      tag_17\n      swap2\n      swap1\n      tag_18\n      jump\t// in\n    tag_17:\n      tag_19\n      jump\t// in\n    tag_16:\n      stop\n        /* \"DIDRegistry.sol\":2342:3055  function updateDID(string memory _newIdentifier) public {... */\n    tag_5:\n      tag_20\n      0x04\n      dup1\n      calldatasize\n      sub\n      dup2\n      add\n      swap1\n      tag_21\n      swap2\n      swap1\n      tag_22\n      jump\t// in\n    tag_21:\n      tag_23\n      jump\t// in\n    tag_20:\n      stop\n        /* \"DIDRegistry.sol\":1782:2130  function createDID(string memory _identifier) public {... */\n    tag_6:\n      tag_24\n      0x04\n      dup1\n      calldatasize\n      sub\n      dup2\n      add\n      swap1\n      tag_25\n      swap2\n      swap1\n      tag_22\n      jump\t// in\n    tag_25:\n      tag_26\n      jump\t// in\n    tag_24:\n      stop\n        /* \"DIDRegistry.sol\":3703:3908  function getMetadata() public view returns (Metadata memory) {... */\n    tag_7:\n      tag_27\n      tag_28\n      jump\t// in\n    tag_27:\n      mload(0x40)\n      tag_29\n      swap2\n      swap1\n      tag_30\n      jump\t// in\n    tag_29:\n      mload(0x40)\n      dup1\n      swap2\n      sub\n      swap1\n      return\n        /* \"DIDRegistry.sol\":3965:4387  function assignRole(address _user, string memory _role) onlyManager public {... */\n    tag_8:\n      tag_31\n      0x04\n      dup1\n      calldatasize\n      sub\n      dup2\n      add\n      swap1\n      tag_32\n      swap2\n      swap1\n      tag_14\n      jump\t// in\n    tag_32:\n      tag_33\n      jump\t// in\n    tag_31:\n      stop\n        /* \"DIDRegistry.sol\":2138:2334  function getDID() public view returns (string memory) {... */\n    tag_9:\n      tag_34\n      tag_35\n      jump\t// in\n    tag_34:\n      mload(0x40)\n      tag_36\n      swap2\n      swap1\n      tag_37\n      jump\t// in\n    tag_36:\n      mload(0x40)\n      dup1\n      swap2\n      sub\n      swap1\n      return\n        /* \"DIDRegistry.sol\":5513:5994  function getRole() public view returns (string[] memory) {... */\n    tag_10:\n      tag_38\n      tag_39\n      jump\t// in\n    tag_38:\n      mload(0x40)\n      tag_40\n      swap2\n      swap1\n      tag_41\n      jump\t// in\n    tag_40:\n      mload(0x40)\n      dup1\n      swap2\n      sub\n      swap1\n      return\n        /* \"DIDRegistry.sol\":4531:5380  function issueRole(address _user, string memory _role) onlyManager public {... */\n    tag_15:\n        /* \"DIDRegistry.sol\":1087:1103  bytes(\"manager\") */\n      mload(0x40)\n      dup1\n      0x40\n      add\n      0x40\n      mstore\n      dup1\n      0x07\n      dup2\n      mstore\n      0x20\n      add\n      0x6d616e6167657200000000000000000000000000000000000000000000000000\n      dup2\n      mstore\n      pop\n        /* \"DIDRegistry.sol\":1077:1104  keccak256(bytes(\"manager\")) */\n      dup1\n      mload\n      swap1\n      0x20\n      add\n      keccak256\n        /* \"DIDRegistry.sol\":1054:1059  roles */\n      0x01\n        /* \"DIDRegistry.sol\":1054:1071  roles[msg.sender] */\n      0x00\n        /* \"DIDRegistry.sol\":1060:1070  msg.sender */\n      caller\n        /* \"DIDRegistry.sol\":1054:1071  roles[msg.sender] */\n      0xffffffffffffffffffffffffffffffffffffffff\n      and\n      0xffffffffffffffffffffffffffffffffffffffff\n      and\n      dup2\n      mstore\n      0x20\n      add\n      swap1\n      dup2\n      mstore\n      0x20\n      add\n      0x00\n      keccak256\n        /* \"DIDRegistry.sol\":1038:1073  keccak256(bytes(roles[msg.sender])) */\n      mload(0x40)\n      tag_43\n      swap2\n      swap1\n      tag_44\n      jump\t// in\n    tag_43:\n      mload(0x40)\n      dup1\n      swap2\n      sub\n      swap1\n      keccak256\n        /* \"DIDRegistry.sol\":1038:1104  keccak256(bytes(roles[msg.sender])) == keccak256(bytes(\"manager\")) */\n      eq\n        /* \"DIDRegistry.sol\":1030:1128  require(keccak256(bytes(roles[msg.sender])) == keccak256(bytes(\"manager\")), \"Unauthorized action\") */\n      tag_45\n      jumpi\n      mload(0x40)\n      0x08c379a000000000000000000000000000000000000000000000000000000000\n      dup2\n      mstore\n      0x04\n      add\n      tag_46\n      swap1\n      tag_47\n      jump\t// in\n    tag_46:\n      mload(0x40)\n      dup1\n      swap2\n      sub\n      swap1\n      revert\n    tag_45:\n        /* \"DIDRegistry.sol\":4717:4718  0 */\n      0x00\n        /* \"DIDRegistry.sol\":4683:4719  dids[msg.sender].owner != address(0) */\n      0xffffffffffffffffffffffffffffffffffffffff\n      and\n        /* \"DIDRegistry.sol\":4683:4687  dids */\n      0x00\n        /* \"DIDRegistry.sol\":4683:4699  dids[msg.sender] */\n      dup1\n        /* \"DIDRegistry.sol\":4688:4698  msg.sender */\n      caller\n        /* \"DIDRegistry.sol\":4683:4699  dids[msg.sender] */\n      0xffffffffffffffffffffffffffffffffffffffff\n      and\n      0xffffffffffffffffffffffffffffffffffffffff\n      and\n      dup2\n      mstore\n      0x20\n      add\n      swap1\n      dup2\n      mstore\n      0x20\n      add\n      0x00\n      keccak256\n        /* \"DIDRegistry.sol\":4683:4705  dids[msg.sender].owner */\n      0x01\n      add\n      0x00\n      swap1\n      sload\n      swap1\n      0x0100\n      exp\n      swap1\n      div\n      0xffffffffffffffffffffffffffffffffffffffff\n      and\n        /* \"DIDRegistry.sol\":4683:4719  dids[msg.sender].owner != address(0) */\n      0xffffffffffffffffffffffffffffffffffffffff\n      and\n      sub\n        /* \"DIDRegistry.sol\":4675:4762  require(dids[msg.sender].owner != address(0), \"No existing DID found for this address\") */\n      tag_49\n      jumpi\n      mload(0x40)\n      0x08c379a000000000000000000000000000000000000000000000000000000000\n      dup2\n      mstore\n      0x04\n      add\n      tag_50\n      swap1\n      tag_51\n      jump\t// in\n    tag_50:\n      mload(0x40)\n      dup1\n      swap2\n      sub\n      swap1\n      revert\n    tag_49:\n        /* \"DIDRegistry.sol\":4803:4804  0 */\n      0x00\n        /* \"DIDRegistry.sol\":4787:4792  _role */\n      dup2\n        /* \"DIDRegistry.sol\":4781:4800  bytes(_role).length */\n      mload\n        /* \"DIDRegistry.sol\":4781:4804  bytes(_role).length > 0 */\n      gt\n        /* \"DIDRegistry.sol\":4773:4829  require(bytes(_role).length > 0, \"Role cannot be empty\") */\n      tag_52\n      jumpi\n      mload(0x40)\n      0x08c379a000000000000000000000000000000000000000000000000000000000\n      dup2\n      mstore\n      0x04\n      add\n      tag_53\n      swap1\n      tag_54\n      jump\t// in\n    tag_53:\n      mload(0x40)\n      dup1\n      swap2\n      sub\n      swap1\n      revert\n    tag_52:\n        /* \"DIDRegistry.sol\":4882:4898  bytes32 roleHash */\n      0x00\n        /* \"DIDRegistry.sol\":4928:4938  msg.sender */\n      caller\n        /* \"DIDRegistry.sol\":4940:4945  _user */\n      dup4\n        /* \"DIDRegistry.sol\":4947:4952  _role */\n      dup4\n        /* \"DIDRegistry.sol\":4954:4969  block.timestamp */\n      timestamp\n        /* \"DIDRegistry.sol\":4911:4970  abi.encodePacked(msg.sender, _user, _role, block.timestamp) */\n      add(0x20, mload(0x40))\n      tag_55\n      swap5\n      swap4\n      swap3\n      swap2\n      swap1\n      tag_56\n      jump\t// in\n    tag_55:\n      mload(0x40)\n      0x20\n      dup2\n      dup4\n      sub\n      sub\n      dup2\n      mstore\n      swap1\n      0x40\n      mstore\n        /* \"DIDRegistry.sol\":4901:4971  keccak256(abi.encodePacked(msg.sender, _user, _role, block.timestamp)) */\n      dup1\n      mload\n      swap1\n      0x20\n      add\n      keccak256\n        /* \"DIDRegistry.sol\":4882:4971  bytes32 roleHash = keccak256(abi.encodePacked(msg.sender, _user, _role, block.timestamp)) */\n      swap1\n      pop\n        /* \"DIDRegistry.sol\":5089:5208  Credential(... */\n      mload(0x40)\n      dup1\n      0x80\n      add\n      0x40\n      mstore\n      dup1\n        /* \"DIDRegistry.sol\":5114:5124  msg.sender */\n      caller\n        /* \"DIDRegistry.sol\":5089:5208  Credential(... */\n      0xffffffffffffffffffffffffffffffffffffffff\n      and\n      dup2\n      mstore\n      0x20\n      add\n        /* \"DIDRegistry.sol\":5139:5144  _role */\n      dup4\n        /* \"DIDRegistry.sol\":5089:5208  Credential(... */\n      dup2\n      mstore\n      0x20\n      add\n        /* \"DIDRegistry.sol\":5159:5167  roleHash */\n      dup3\n        /* \"DIDRegistry.sol\":5089:5208  Credential(... */\n      dup2\n      mstore\n      0x20\n      add\n        /* \"DIDRegistry.sol\":5182:5197  block.timestamp */\n      timestamp\n        /* \"DIDRegistry.sol\":5089:5208  Credential(... */\n      dup2\n      mstore\n      pop\n        /* \"DIDRegistry.sol\":5068:5079  credentials */\n      0x04\n        /* \"DIDRegistry.sol\":5068:5086  credentials[_user] */\n      0x00\n        /* \"DIDRegistry.sol\":5080:5085  _user */\n      dup6\n        /* \"DIDRegistry.sol\":5068:5086  credentials[_user] */\n      0xffffffffffffffffffffffffffffffffffffffff\n      and\n      0xffffffffffffffffffffffffffffffffffffffff\n      and\n      dup2\n      mstore\n      0x20\n      add\n      swap1\n      dup2\n      mstore\n      0x20\n      add\n      0x00\n      keccak256\n        /* \"DIDRegistry.sol\":5068:5208  credentials[_user] = Credential(... */\n      0x00\n      dup3\n      add\n      mload\n      dup2\n      0x00\n      add\n      exp(0x0100, 0x00)\n      dup2\n      sload\n      dup2\n      0xffffffffffffffffffffffffffffffffffffffff\n      mul\n      not\n      and\n      swap1\n      dup4\n      0xffffffffffffffffffffffffffffffffffffffff\n      and\n      mul\n      or\n      swap1\n      sstore\n      pop\n      0x20\n      dup3\n      add\n      mload\n      dup2\n      0x01\n      add\n      swap1\n      dup2\n      tag_57\n      swap2\n      swap1\n      tag_58\n      jump\t// in\n    tag_57:\n      pop\n      0x40\n      dup3\n      add\n      mload\n      dup2\n      0x02\n      add\n      sstore\n      0x60\n      dup3\n      add\n      mload\n      dup2\n      0x03\n      add\n      sstore\n      swap1\n      pop\n      pop\n        /* \"DIDRegistry.sol\":5219:5230  roleHistory */\n      0x02\n        /* \"DIDRegistry.sol\":5219:5237  roleHistory[_user] */\n      0x00\n        /* \"DIDRegistry.sol\":5231:5236  _user */\n      dup5\n        /* \"DIDRegistry.sol\":5219:5237  roleHistory[_user] */\n      0xffffffffffffffffffffffffffffffffffffffff\n      and\n      0xffffffffffffffffffffffffffffffffffffffff\n      and\n      dup2\n      mstore\n      0x20\n      add\n      swap1\n      dup2\n      mstore\n      0x20\n      add\n      0x00\n      keccak256\n        /* \"DIDRegistry.sol\":5243:5248  _role */\n      dup3\n        /* \"DIDRegistry.sol\":5219:5249  roleHistory[_user].push(_role) */\n      swap1\n      dup1\n      0x01\n      dup2\n      sload\n      add\n      dup1\n      dup3\n      sstore\n      dup1\n      swap2\n      pop\n      pop\n      0x01\n      swap1\n      sub\n      swap1\n      0x00\n      mstore\n      keccak256(0x00, 0x20)\n      add\n      0x00\n      swap1\n      swap2\n      swap1\n      swap2\n      swap1\n      swap2\n      pop\n      swap1\n      dup2\n      tag_60\n      swap2\n      swap1\n      tag_58\n      jump\t// in\n    tag_60:\n      pop\n        /* \"DIDRegistry.sol\":5278:5288  msg.sender */\n      caller\n        /* \"DIDRegistry.sol\":5267:5313  RoleIssued(msg.sender, _user, _role, roleHash) */\n      0xffffffffffffffffffffffffffffffffffffffff\n      and\n      0xf4313cb022699889c6eddb590e42342301cdae4824fd424ffdfdeb23d4cdbbe9\n        /* \"DIDRegistry.sol\":5290:5295  _user */\n      dup5\n        /* \"DIDRegistry.sol\":5297:5302  _role */\n      dup5\n        /* \"DIDRegistry.sol\":5304:5312  roleHash */\n      dup5\n        /* \"DIDRegistry.sol\":5267:5313  RoleIssued(msg.sender, _user, _role, roleHash) */\n      mload(0x40)\n      tag_61\n      swap4\n      swap3\n      swap2\n      swap1\n      tag_62\n      jump\t// in\n    tag_61:\n      mload(0x40)\n      dup1\n      swap2\n      sub\n      swap1\n      log2\n        /* \"DIDRegistry.sol\":4605:5380  {... */\n      pop\n        /* \"DIDRegistry.sol\":4531:5380  function issueRole(address _user, string memory _role) onlyManager public {... */\n      pop\n      pop\n      jump\t// out\n        /* \"DIDRegistry.sol\":3063:3695  function setMetadata(... */\n    tag_19:\n        /* \"DIDRegistry.sol\":3254:3255  0 */\n      0x00\n        /* \"DIDRegistry.sol\":3220:3256  dids[msg.sender].owner != address(0) */\n      0xffffffffffffffffffffffffffffffffffffffff\n      and\n        /* \"DIDRegistry.sol\":3220:3224  dids */\n      0x00\n        /* \"DIDRegistry.sol\":3220:3236  dids[msg.sender] */\n      dup1\n        /* \"DIDRegistry.sol\":3225:3235  msg.sender */\n      caller\n        /* \"DIDRegistry.sol\":3220:3236  dids[msg.sender] */\n      0xffffffffffffffffffffffffffffffffffffffff\n      and\n      0xffffffffffffffffffffffffffffffffffffffff\n      and\n      dup2\n      mstore\n      0x20\n      add\n      swap1\n      dup2\n      mstore\n      0x20\n      add\n      0x00\n      keccak256\n        /* \"DIDRegistry.sol\":3220:3242  dids[msg.sender].owner */\n      0x01\n      add\n      0x00\n      swap1\n      sload\n      swap1\n      0x0100\n      exp\n      swap1\n      div\n      0xffffffffffffffffffffffffffffffffffffffff\n      and\n        /* \"DIDRegistry.sol\":3220:3256  dids[msg.sender].owner != address(0) */\n      0xffffffffffffffffffffffffffffffffffffffff\n      and\n      sub\n        /* \"DIDRegistry.sol\":3212:3299  require(dids[msg.sender].owner != address(0), \"No existing DID found for this address\") */\n      tag_64\n      jumpi\n      mload(0x40)\n      0x08c379a000000000000000000000000000000000000000000000000000000000\n      dup2\n      mstore\n      0x04\n      add\n      tag_65\n      swap1\n      tag_51\n      jump\t// in\n    tag_65:\n      mload(0x40)\n      dup1\n      swap2\n      sub\n      swap1\n      revert\n    tag_64:\n        /* \"DIDRegistry.sol\":3457:3458  0 */\n      0x00\n        /* \"DIDRegistry.sol\":3440:3446  _email */\n      dup3\n        /* \"DIDRegistry.sol\":3434:3454  bytes(_email).length */\n      mload\n        /* \"DIDRegistry.sol\":3434:3458  bytes(_email).length > 0 */\n      gt\n        /* \"DIDRegistry.sol\":3426:3484  require(bytes(_email).length > 0, \"Email cannot be empty\") */\n      tag_66\n      jumpi\n      mload(0x40)\n      0x08c379a000000000000000000000000000000000000000000000000000000000\n      dup2\n      mstore\n      0x04\n      add\n      tag_67\n      swap1\n      tag_68\n      jump\t// in\n    tag_67:\n      mload(0x40)\n      dup1\n      swap2\n      sub\n      swap1\n      revert\n    tag_66:\n        /* \"DIDRegistry.sol\":3520:3610  Metadata(... */\n      mload(0x40)\n      dup1\n      0x60\n      add\n      0x40\n      mstore\n      dup1\n        /* \"DIDRegistry.sol\":3543:3548  _name */\n      dup5\n        /* \"DIDRegistry.sol\":3520:3610  Metadata(... */\n      dup2\n      mstore\n      0x20\n      add\n        /* \"DIDRegistry.sol\":3563:3569  _email */\n      dup4\n        /* \"DIDRegistry.sol\":3520:3610  Metadata(... */\n      dup2\n      mstore\n      0x20\n      add\n        /* \"DIDRegistry.sol\":3584:3599  _profilePicture */\n      dup3\n        /* \"DIDRegistry.sol\":3520:3610  Metadata(... */\n      dup2\n      mstore\n      pop\n        /* \"DIDRegistry.sol\":3497:3505  metadata */\n      0x03\n        /* \"DIDRegistry.sol\":3497:3517  metadata[msg.sender] */\n      0x00\n        /* \"DIDRegistry.sol\":3506:3516  msg.sender */\n      caller\n        /* \"DIDRegistry.sol\":3497:3517  metadata[msg.sender] */\n      0xffffffffffffffffffffffffffffffffffffffff\n      and\n      0xffffffffffffffffffffffffffffffffffffffff\n      and\n      dup2\n      mstore\n      0x20\n      add\n      swap1\n      dup2\n      mstore\n      0x20\n      add\n      0x00\n      keccak256\n        /* \"DIDRegistry.sol\":3497:3610  metadata[msg.sender] = Metadata(... */\n      0x00\n      dup3\n      add\n      mload\n      dup2\n      0x00\n      add\n      swap1\n      dup2\n      tag_69\n      swap2\n      swap1\n      tag_58\n      jump\t// in\n    tag_69:\n      pop\n      0x20\n      dup3\n      add\n      mload\n      dup2\n      0x01\n      add\n      swap1\n      dup2\n      tag_70\n      swap2\n      swap1\n      tag_58\n      jump\t// in\n    tag_70:\n      pop\n      0x40\n      dup3\n      add\n      mload\n      dup2\n      0x02\n      add\n      swap1\n      dup2\n      tag_71\n      swap2\n      swap1\n      tag_58\n      jump\t// in\n    tag_71:\n      pop\n      swap1\n      pop\n      pop\n        /* \"DIDRegistry.sol\":3644:3654  msg.sender */\n      caller\n        /* \"DIDRegistry.sol\":3628:3687  MetadataCreated(msg.sender, _name, _email, _profilePicture) */\n      0xffffffffffffffffffffffffffffffffffffffff\n      and\n      0x298e769f14d3266a2093cc631184150a9584b1b38c1fb1385be30e0665322bf2\n        /* \"DIDRegistry.sol\":3656:3661  _name */\n      dup5\n        /* \"DIDRegistry.sol\":3663:3669  _email */\n      dup5\n        /* \"DIDRegistry.sol\":3671:3686  _profilePicture */\n      dup5\n        /* \"DIDRegistry.sol\":3628:3687  MetadataCreated(msg.sender, _name, _email, _profilePicture) */\n      mload(0x40)\n      tag_72\n      swap4\n      swap3\n      swap2\n      swap1\n      tag_73\n      jump\t// in\n    tag_72:\n      mload(0x40)\n      dup1\n      swap2\n      sub\n      swap1\n      log2\n        /* \"DIDRegistry.sol\":3063:3695  function setMetadata(... */\n      pop\n      pop\n      pop\n      jump\t// out\n        /* \"DIDRegistry.sol\":2342:3055  function updateDID(string memory _newIdentifier) public {... */\n    tag_23:\n        /* \"DIDRegistry.sol\":2448:2449  0 */\n      0x00\n        /* \"DIDRegistry.sol\":2423:2437  _newIdentifier */\n      dup2\n        /* \"DIDRegistry.sol\":2417:2445  bytes(_newIdentifier).length */\n      mload\n        /* \"DIDRegistry.sol\":2417:2449  bytes(_newIdentifier).length > 0 */\n      gt\n        /* \"DIDRegistry.sol\":2409:2484  require(bytes(_newIdentifier).length > 0, \"New identifier cannot be empty\") */\n      tag_75\n      jumpi\n      mload(0x40)\n      0x08c379a000000000000000000000000000000000000000000000000000000000\n      dup2\n      mstore\n      0x04\n      add\n      tag_76\n      swap1\n      tag_77\n      jump\t// in\n    tag_76:\n      mload(0x40)\n      dup1\n      swap2\n      sub\n      swap1\n      revert\n    tag_75:\n        /* \"DIDRegistry.sol\":2537:2538  0 */\n      0x00\n        /* \"DIDRegistry.sol\":2503:2539  dids[msg.sender].owner != address(0) */\n      0xffffffffffffffffffffffffffffffffffffffff\n      and\n        /* \"DIDRegistry.sol\":2503:2507  dids */\n      0x00\n        /* \"DIDRegistry.sol\":2503:2519  dids[msg.sender] */\n      dup1\n        /* \"DIDRegistry.sol\":2508:2518  msg.sender */\n      caller\n        /* \"DIDRegistry.sol\":2503:2519  dids[msg.sender] */\n      0xffffffffffffffffffffffffffffffffffffffff\n      and\n      0xffffffffffffffffffffffffffffffffffffffff\n      and\n      dup2\n      mstore\n      0x20\n      add\n      swap1\n      dup2\n      mstore\n      0x20\n      add\n      0x00\n      keccak256\n        /* \"DIDRegistry.sol\":2503:2525  dids[msg.sender].owner */\n      0x01\n      add\n      0x00\n      swap1\n      sload\n      swap1\n      0x0100\n      exp\n      swap1\n      div\n      0xffffffffffffffffffffffffffffffffffffffff\n      and\n        /* \"DIDRegistry.sol\":2503:2539  dids[msg.sender].owner != address(0) */\n      0xffffffffffffffffffffffffffffffffffffffff\n      and\n      sub\n        /* \"DIDRegistry.sol\":2495:2582  require(dids[msg.sender].owner != address(0), \"No existing DID found for this address\") */\n      tag_78\n      jumpi\n      mload(0x40)\n      0x08c379a000000000000000000000000000000000000000000000000000000000\n      dup2\n      mstore\n      0x04\n      add\n      tag_79\n      swap1\n      tag_51\n      jump\t// in\n    tag_79:\n      mload(0x40)\n      dup1\n      swap2\n      sub\n      swap1\n      revert\n    tag_78:\n        /* \"DIDRegistry.sol\":2671:2698  string memory oldIdentifier */\n      0x00\n        /* \"DIDRegistry.sol\":2701:2709  getDID() */\n      tag_80\n        /* \"DIDRegistry.sol\":2701:2707  getDID */\n      tag_35\n        /* \"DIDRegistry.sol\":2701:2709  getDID() */\n      jump\t// in\n    tag_80:\n        /* \"DIDRegistry.sol\":2671:2709  string memory oldIdentifier = getDID() */\n      swap1\n      pop\n        /* \"DIDRegistry.sol\":2779:2793  _newIdentifier */\n      dup2\n        /* \"DIDRegistry.sol\":2763:2795  keccak256(bytes(_newIdentifier)) */\n      dup1\n      mload\n      swap1\n      0x20\n      add\n      keccak256\n        /* \"DIDRegistry.sol\":2744:2757  oldIdentifier */\n      dup2\n        /* \"DIDRegistry.sol\":2728:2759  keccak256(bytes(oldIdentifier)) */\n      dup1\n      mload\n      swap1\n      0x20\n      add\n      keccak256\n        /* \"DIDRegistry.sol\":2728:2795  keccak256(bytes(oldIdentifier)) != keccak256(bytes(_newIdentifier)) */\n      sub\n        /* \"DIDRegistry.sol\":2720:2822  require(keccak256(bytes(oldIdentifier)) != keccak256(bytes(_newIdentifier)), \"Invalid new identifier\") */\n      tag_81\n      jumpi\n      mload(0x40)\n      0x08c379a000000000000000000000000000000000000000000000000000000000\n      dup2\n      mstore\n      0x04\n      add\n      tag_82\n      swap1\n      tag_83\n      jump\t// in\n    tag_82:\n      mload(0x40)\n      dup1\n      swap2\n      sub\n      swap1\n      revert\n    tag_81:\n        /* \"DIDRegistry.sol\":2924:2938  _newIdentifier */\n      dup2\n        /* \"DIDRegistry.sol\":2894:2898  dids */\n      0x00\n        /* \"DIDRegistry.sol\":2894:2910  dids[msg.sender] */\n      dup1\n        /* \"DIDRegistry.sol\":2899:2909  msg.sender */\n      caller\n        /* \"DIDRegistry.sol\":2894:2910  dids[msg.sender] */\n      0xffffffffffffffffffffffffffffffffffffffff\n      and\n      0xffffffffffffffffffffffffffffffffffffffff\n      and\n      dup2\n      mstore\n      0x20\n      add\n      swap1\n      dup2\n      mstore\n      0x20\n      add\n      0x00\n      keccak256\n        /* \"DIDRegistry.sol\":2894:2921  dids[msg.sender].identifier */\n      0x00\n      add\n        /* \"DIDRegistry.sol\":2894:2938  dids[msg.sender].identifier = _newIdentifier */\n      swap1\n      dup2\n      tag_84\n      swap2\n      swap1\n      tag_58\n      jump\t// in\n    tag_84:\n      pop\n        /* \"DIDRegistry.sol\":3020:3030  msg.sender */\n      caller\n        /* \"DIDRegistry.sol\":3009:3047  DIDCreated(msg.sender, _newIdentifier) */\n      0xffffffffffffffffffffffffffffffffffffffff\n      and\n      0x1b7934654ba536b6962955e057ce42885353bbaad8c605a5ce0678e632f28410\n        /* \"DIDRegistry.sol\":3032:3046  _newIdentifier */\n      dup4\n        /* \"DIDRegistry.sol\":3009:3047  DIDCreated(msg.sender, _newIdentifier) */\n      mload(0x40)\n      tag_85\n      swap2\n      swap1\n      tag_37\n      jump\t// in\n    tag_85:\n      mload(0x40)\n      dup1\n      swap2\n      sub\n      swap1\n      log2\n        /* \"DIDRegistry.sol\":2398:3055  {... */\n      pop\n        /* \"DIDRegistry.sol\":2342:3055  function updateDID(string memory _newIdentifier) public {... */\n      pop\n      jump\t// out\n        /* \"DIDRegistry.sol\":1782:2130  function createDID(string memory _identifier) public {... */\n    tag_26:\n        /* \"DIDRegistry.sol\":1882:1883  0 */\n      0x00\n        /* \"DIDRegistry.sol\":1860:1871  _identifier */\n      dup2\n        /* \"DIDRegistry.sol\":1854:1879  bytes(_identifier).length */\n      mload\n        /* \"DIDRegistry.sol\":1854:1883  bytes(_identifier).length > 0 */\n      gt\n        /* \"DIDRegistry.sol\":1846:1914  require(bytes(_identifier).length > 0, \"Identifier cannot be empty\") */\n      tag_87\n      jumpi\n      mload(0x40)\n      0x08c379a000000000000000000000000000000000000000000000000000000000\n      dup2\n      mstore\n      0x04\n      add\n      tag_88\n      swap1\n      tag_89\n      jump\t// in\n    tag_88:\n      mload(0x40)\n      dup1\n      swap2\n      sub\n      swap1\n      revert\n    tag_87:\n        /* \"DIDRegistry.sol\":1967:1968  0 */\n      0x00\n        /* \"DIDRegistry.sol\":1933:1969  dids[msg.sender].owner == address(0) */\n      0xffffffffffffffffffffffffffffffffffffffff\n      and\n        /* \"DIDRegistry.sol\":1933:1937  dids */\n      0x00\n        /* \"DIDRegistry.sol\":1933:1949  dids[msg.sender] */\n      dup1\n        /* \"DIDRegistry.sol\":1938:1948  msg.sender */\n      caller\n        /* \"DIDRegistry.sol\":1933:1949  dids[msg.sender] */\n      0xffffffffffffffffffffffffffffffffffffffff\n      and\n      0xffffffffffffffffffffffffffffffffffffffff\n      and\n      dup2\n      mstore\n      0x20\n      add\n      swap1\n      dup2\n      mstore\n      0x20\n      add\n      0x00\n      keccak256\n        /* \"DIDRegistry.sol\":1933:1955  dids[msg.sender].owner */\n      0x01\n      add\n      0x00\n      swap1\n      sload\n      swap1\n      0x0100\n      exp\n      swap1\n      div\n      0xffffffffffffffffffffffffffffffffffffffff\n      and\n        /* \"DIDRegistry.sol\":1933:1969  dids[msg.sender].owner == address(0) */\n      0xffffffffffffffffffffffffffffffffffffffff\n      and\n      eq\n        /* \"DIDRegistry.sol\":1925:2009  require(dids[msg.sender].owner == address(0), \"DID already exists for this address\") */\n      tag_90\n      jumpi\n      mload(0x40)\n      0x08c379a000000000000000000000000000000000000000000000000000000000\n      dup2\n      mstore\n      0x04\n      add\n      tag_91\n      swap1\n      tag_92\n      jump\t// in\n    tag_91:\n      mload(0x40)\n      dup1\n      swap2\n      sub\n      swap1\n      revert\n    tag_90:\n        /* \"DIDRegistry.sol\":2041:2069  DID(_identifier, msg.sender) */\n      mload(0x40)\n      dup1\n      0x40\n      add\n      0x40\n      mstore\n      dup1\n        /* \"DIDRegistry.sol\":2045:2056  _identifier */\n      dup3\n        /* \"DIDRegistry.sol\":2041:2069  DID(_identifier, msg.sender) */\n      dup2\n      mstore\n      0x20\n      add\n        /* \"DIDRegistry.sol\":2058:2068  msg.sender */\n      caller\n        /* \"DIDRegistry.sol\":2041:2069  DID(_identifier, msg.sender) */\n      0xffffffffffffffffffffffffffffffffffffffff\n      and\n      dup2\n      mstore\n      pop\n        /* \"DIDRegistry.sol\":2022:2026  dids */\n      0x00\n        /* \"DIDRegistry.sol\":2022:2038  dids[msg.sender] */\n      dup1\n        /* \"DIDRegistry.sol\":2027:2037  msg.sender */\n      caller\n        /* \"DIDRegistry.sol\":2022:2038  dids[msg.sender] */\n      0xffffffffffffffffffffffffffffffffffffffff\n      and\n      0xffffffffffffffffffffffffffffffffffffffff\n      and\n      dup2\n      mstore\n      0x20\n      add\n      swap1\n      dup2\n      mstore\n      0x20\n      add\n      0x00\n      keccak256\n        /* \"DIDRegistry.sol\":2022:2069  dids[msg.sender] = DID(_identifier, msg.sender) */\n      0x00\n      dup3\n      add\n      mload\n      dup2\n      0x00\n      add\n      swap1\n      dup2\n      tag_93\n      swap2\n      swap1\n      tag_58\n      jump\t// in\n    tag_93:\n      pop\n      0x20\n      dup3\n      add\n      mload\n      dup2\n      0x01\n      add\n      exp(0x0100, 0x00)\n      dup2\n      sload\n      dup2\n      0xffffffffffffffffffffffffffffffffffffffff\n      mul\n      not\n      and\n      swap1\n      dup4\n      0xffffffffffffffffffffffffffffffffffffffff\n      and\n      mul\n      or\n      swap1\n      sstore\n      pop\n      swap1\n      pop\n      pop\n        /* \"DIDRegistry.sol\":2098:2108  msg.sender */\n      caller\n        /* \"DIDRegistry.sol\":2087:2122  DIDCreated(msg.sender, _identifier) */\n      0xffffffffffffffffffffffffffffffffffffffff\n      and\n      0x1b7934654ba536b6962955e057ce42885353bbaad8c605a5ce0678e632f28410\n        /* \"DIDRegistry.sol\":2110:2121  _identifier */\n      dup3\n        /* \"DIDRegistry.sol\":2087:2122  DIDCreated(msg.sender, _identifier) */\n      mload(0x40)\n      tag_94\n      swap2\n      swap1\n      tag_37\n      jump\t// in\n    tag_94:\n      mload(0x40)\n      dup1\n      swap2\n      sub\n      swap1\n      log2\n        /* \"DIDRegistry.sol\":1782:2130  function createDID(string memory _identifier) public {... */\n      pop\n      jump\t// out\n        /* \"DIDRegistry.sol\":3703:3908  function getMetadata() public view returns (Metadata memory) {... */\n    tag_28:\n        /* \"DIDRegistry.sol\":3747:3762  Metadata memory */\n      tag_95\n      tag_96\n      jump\t// in\n    tag_95:\n        /* \"DIDRegistry.sol\":3817:3818  0 */\n      0x00\n        /* \"DIDRegistry.sol\":3783:3819  dids[msg.sender].owner != address(0) */\n      0xffffffffffffffffffffffffffffffffffffffff\n      and\n        /* \"DIDRegistry.sol\":3783:3787  dids */\n      0x00\n        /* \"DIDRegistry.sol\":3783:3799  dids[msg.sender] */\n      dup1\n        /* \"DIDRegistry.sol\":3788:3798  msg.sender */\n      caller\n        /* \"DIDRegistry.sol\":3783:3799  dids[msg.sender] */\n      0xffffffffffffffffffffffffffffffffffffffff\n      and\n      0xffffffffffffffffffffffffffffffffffffffff\n      and\n      dup2\n      mstore\n      0x20\n      add\n      swap1\n      dup2\n      mstore\n      0x20\n      add\n      0x00\n      keccak256\n        /* \"DIDRegistry.sol\":3783:3805  dids[msg.sender].owner */\n      0x01\n      add\n      0x00\n      swap1\n      sload\n      swap1\n      0x0100\n      exp\n      swap1\n      div\n      0xffffffffffffffffffffffffffffffffffffffff\n      and\n        /* \"DIDRegistry.sol\":3783:3819  dids[msg.sender].owner != address(0) */\n      0xffffffffffffffffffffffffffffffffffffffff\n      and\n      sub\n        /* \"DIDRegistry.sol\":3775:3862  require(dids[msg.sender].owner != address(0), \"No existing DID found for this address\") */\n      tag_98\n      jumpi\n      mload(0x40)\n      0x08c379a000000000000000000000000000000000000000000000000000000000\n      dup2\n      mstore\n      0x04\n      add\n      tag_99\n      swap1\n      tag_51\n      jump\t// in\n    tag_99:\n      mload(0x40)\n      dup1\n      swap2\n      sub\n      swap1\n      revert\n    tag_98:\n        /* \"DIDRegistry.sol\":3880:3888  metadata */\n      0x03\n        /* \"DIDRegistry.sol\":3880:3900  metadata[msg.sender] */\n      0x00\n        /* \"DIDRegistry.sol\":3889:3899  msg.sender */\n      caller\n        /* \"DIDRegistry.sol\":3880:3900  metadata[msg.sender] */\n      0xffffffffffffffffffffffffffffffffffffffff\n      and\n      0xffffffffffffffffffffffffffffffffffffffff\n      and\n      dup2\n      mstore\n      0x20\n      add\n      swap1\n      dup2\n      mstore\n      0x20\n      add\n      0x00\n      keccak256\n        /* \"DIDRegistry.sol\":3873:3900  return metadata[msg.sender] */\n      mload(0x40)\n      dup1\n      0x60\n      add\n      0x40\n      mstore\n      swap1\n      dup2\n      0x00\n      dup3\n      add\n      dup1\n      sload\n      tag_100\n      swap1\n      tag_101\n      jump\t// in\n    tag_100:\n      dup1\n      0x1f\n      add\n      0x20\n      dup1\n      swap2\n      div\n      mul\n      0x20\n      add\n      mload(0x40)\n      swap1\n      dup2\n      add\n      0x40\n      mstore\n      dup1\n      swap3\n      swap2\n      swap1\n      dup2\n      dup2\n      mstore\n      0x20\n      add\n      dup3\n      dup1\n      sload\n      tag_102\n      swap1\n      tag_101\n      jump\t// in\n    tag_102:\n      dup1\n      iszero\n      tag_103\n      jumpi\n      dup1\n      0x1f\n      lt\n      tag_104\n      jumpi\n      0x0100\n      dup1\n      dup4\n      sload\n      div\n      mul\n      dup4\n      mstore\n      swap2\n      0x20\n      add\n      swap2\n      jump(tag_103)\n    tag_104:\n      dup3\n      add\n      swap2\n      swap1\n      0x00\n      mstore\n      keccak256(0x00, 0x20)\n      swap1\n    tag_105:\n      dup2\n      sload\n      dup2\n      mstore\n      swap1\n      0x01\n      add\n      swap1\n      0x20\n      add\n      dup1\n      dup4\n      gt\n      tag_105\n      jumpi\n      dup3\n      swap1\n      sub\n      0x1f\n      and\n      dup3\n      add\n      swap2\n    tag_103:\n      pop\n      pop\n      pop\n      pop\n      pop\n      dup2\n      mstore\n      0x20\n      add\n      0x01\n      dup3\n      add\n      dup1\n      sload\n      tag_106\n      swap1\n      tag_101\n      jump\t// in\n    tag_106:\n      dup1\n      0x1f\n      add\n      0x20\n      dup1\n      swap2\n      div\n      mul\n      0x20\n      add\n      mload(0x40)\n      swap1\n      dup2\n      add\n      0x40\n      mstore\n      dup1\n      swap3\n      swap2\n      swap1\n      dup2\n      dup2\n      mstore\n      0x20\n      add\n      dup3\n      dup1\n      sload\n      tag_107\n      swap1\n      tag_101\n      jump\t// in\n    tag_107:\n      dup1\n      iszero\n      tag_108\n      jumpi\n      dup1\n      0x1f\n      lt\n      tag_109\n      jumpi\n      0x0100\n      dup1\n      dup4\n      sload\n      div\n      mul\n      dup4\n      mstore\n      swap2\n      0x20\n      add\n      swap2\n      jump(tag_108)\n    tag_109:\n      dup3\n      add\n      swap2\n      swap1\n      0x00\n      mstore\n      keccak256(0x00, 0x20)\n      swap1\n    tag_110:\n      dup2\n      sload\n      dup2\n      mstore\n      swap1\n      0x01\n      add\n      swap1\n      0x20\n      add\n      dup1\n      dup4\n      gt\n      tag_110\n      jumpi\n      dup3\n      swap1\n      sub\n      0x1f\n      and\n      dup3\n      add\n      swap2\n    tag_108:\n      pop\n      pop\n      pop\n      pop\n      pop\n      dup2\n      mstore\n      0x20\n      add\n      0x02\n      dup3\n      add\n      dup1\n      sload\n      tag_111\n      swap1\n      tag_101\n      jump\t// in\n    tag_111:\n      dup1\n      0x1f\n      add\n      0x20\n      dup1\n      swap2\n      div\n      mul\n      0x20\n      add\n      mload(0x40)\n      swap1\n      dup2\n      add\n      0x40\n      mstore\n      dup1\n      swap3\n      swap2\n      swap1\n      dup2\n      dup2\n      mstore\n      0x20\n      add\n      dup3\n      dup1\n      sload\n      tag_112\n      swap1\n      tag_101\n      jump\t// in\n    tag_112:\n      dup1\n      iszero\n      tag_113\n      jumpi\n      dup1\n      0x1f\n      lt\n      tag_114\n      jumpi\n      0x0100\n      dup1\n      dup4\n      sload\n      div\n      mul\n      dup4\n      mstore\n      swap2\n      0x20\n      add\n      swap2\n      jump(tag_113)\n    tag_114:\n      dup3\n      add\n      swap2\n      swap1\n      0x00\n      mstore\n      keccak256(0x00, 0x20)\n      swap1\n    tag_115:\n      dup2\n      sload\n      dup2\n      mstore\n      swap1\n      0x01\n      add\n      swap1\n      0x20\n      add\n      dup1\n      dup4\n      gt\n      tag_115\n      jumpi\n      dup3\n      swap1\n      sub\n      0x1f\n      and\n      dup3\n      add\n      swap2\n    tag_113:\n      pop\n      pop\n      pop\n      pop\n      pop\n      dup2\n      mstore\n      pop\n      pop\n      swap1\n      pop\n        /* \"DIDRegistry.sol\":3703:3908  function getMetadata() public view returns (Metadata memory) {... */\n      swap1\n      jump\t// out\n        /* \"DIDRegistry.sol\":3965:4387  function assignRole(address _user, string memory _role) onlyManager public {... */\n    tag_33:\n        /* \"DIDRegistry.sol\":1087:1103  bytes(\"manager\") */\n      mload(0x40)\n      dup1\n      0x40\n      add\n      0x40\n      mstore\n      dup1\n      0x07\n      dup2\n      mstore\n      0x20\n      add\n      0x6d616e6167657200000000000000000000000000000000000000000000000000\n      dup2\n      mstore\n      pop\n        /* \"DIDRegistry.sol\":1077:1104  keccak256(bytes(\"manager\")) */\n      dup1\n      mload\n      swap1\n      0x20\n      add\n      keccak256\n        /* \"DIDRegistry.sol\":1054:1059  roles */\n      0x01\n        /* \"DIDRegistry.sol\":1054:1071  roles[msg.sender] */\n      0x00\n        /* \"DIDRegistry.sol\":1060:1070  msg.sender */\n      caller\n        /* \"DIDRegistry.sol\":1054:1071  roles[msg.sender] */\n      0xffffffffffffffffffffffffffffffffffffffff\n      and\n      0xffffffffffffffffffffffffffffffffffffffff\n      and\n      dup2\n      mstore\n      0x20\n      add\n      swap1\n      dup2\n      mstore\n      0x20\n      add\n      0x00\n      keccak256\n        /* \"DIDRegistry.sol\":1038:1073  keccak256(bytes(roles[msg.sender])) */\n      mload(0x40)\n      tag_117\n      swap2\n      swap1\n      tag_44\n      jump\t// in\n    tag_117:\n      mload(0x40)\n      dup1\n      swap2\n      sub\n      swap1\n      keccak256\n        /* \"DIDRegistry.sol\":1038:1104  keccak256(bytes(roles[msg.sender])) == keccak256(bytes(\"manager\")) */\n      eq\n        /* \"DIDRegistry.sol\":1030:1128  require(keccak256(bytes(roles[msg.sender])) == keccak256(bytes(\"manager\")), \"Unauthorized action\") */\n      tag_118\n      jumpi\n      mload(0x40)\n      0x08c379a000000000000000000000000000000000000000000000000000000000\n      dup2\n      mstore\n      0x04\n      add\n      tag_119\n      swap1\n      tag_47\n      jump\t// in\n    tag_119:\n      mload(0x40)\n      dup1\n      swap2\n      sub\n      swap1\n      revert\n    tag_118:\n        /* \"DIDRegistry.sol\":4093:4094  0 */\n      0x00\n        /* \"DIDRegistry.sol\":4059:4095  dids[msg.sender].owner != address(0) */\n      0xffffffffffffffffffffffffffffffffffffffff\n      and\n        /* \"DIDRegistry.sol\":4059:4063  dids */\n      0x00\n        /* \"DIDRegistry.sol\":4059:4075  dids[msg.sender] */\n      dup1\n        /* \"DIDRegistry.sol\":4064:4074  msg.sender */\n      caller\n        /* \"DIDRegistry.sol\":4059:4075  dids[msg.sender] */\n      0xffffffffffffffffffffffffffffffffffffffff\n      and\n      0xffffffffffffffffffffffffffffffffffffffff\n      and\n      dup2\n      mstore\n      0x20\n      add\n      swap1\n      dup2\n      mstore\n      0x20\n      add\n      0x00\n      keccak256\n        /* \"DIDRegistry.sol\":4059:4081  dids[msg.sender].owner */\n      0x01\n      add\n      0x00\n      swap1\n      sload\n      swap1\n      0x0100\n      exp\n      swap1\n      div\n      0xffffffffffffffffffffffffffffffffffffffff\n      and\n        /* \"DIDRegistry.sol\":4059:4095  dids[msg.sender].owner != address(0) */\n      0xffffffffffffffffffffffffffffffffffffffff\n      and\n      sub\n        /* \"DIDRegistry.sol\":4051:4138  require(dids[msg.sender].owner != address(0), \"No existing DID found for this address\") */\n      tag_121\n      jumpi\n      mload(0x40)\n      0x08c379a000000000000000000000000000000000000000000000000000000000\n      dup2\n      mstore\n      0x04\n      add\n      tag_122\n      swap1\n      tag_51\n      jump\t// in\n    tag_122:\n      mload(0x40)\n      dup1\n      swap2\n      sub\n      swap1\n      revert\n    tag_121:\n        /* \"DIDRegistry.sol\":4179:4180  0 */\n      0x00\n        /* \"DIDRegistry.sol\":4163:4168  _role */\n      dup2\n        /* \"DIDRegistry.sol\":4157:4176  bytes(_role).length */\n      mload\n        /* \"DIDRegistry.sol\":4157:4180  bytes(_role).length > 0 */\n      gt\n        /* \"DIDRegistry.sol\":4149:4205  require(bytes(_role).length > 0, \"Role cannot be empty\") */\n      tag_123\n      jumpi\n      mload(0x40)\n      0x08c379a000000000000000000000000000000000000000000000000000000000\n      dup2\n      mstore\n      0x04\n      add\n      tag_124\n      swap1\n      tag_54\n      jump\t// in\n    tag_124:\n      mload(0x40)\n      dup1\n      swap2\n      sub\n      swap1\n      revert\n    tag_123:\n        /* \"DIDRegistry.sol\":4233:4238  _role */\n      dup1\n        /* \"DIDRegistry.sol\":4218:4223  roles */\n      0x01\n        /* \"DIDRegistry.sol\":4218:4230  roles[_user] */\n      0x00\n        /* \"DIDRegistry.sol\":4224:4229  _user */\n      dup5\n        /* \"DIDRegistry.sol\":4218:4230  roles[_user] */\n      0xffffffffffffffffffffffffffffffffffffffff\n      and\n      0xffffffffffffffffffffffffffffffffffffffff\n      and\n      dup2\n      mstore\n      0x20\n      add\n      swap1\n      dup2\n      mstore\n      0x20\n      add\n      0x00\n      keccak256\n        /* \"DIDRegistry.sol\":4218:4238  roles[_user] = _role */\n      swap1\n      dup2\n      tag_125\n      swap2\n      swap1\n      tag_58\n      jump\t// in\n    tag_125:\n      pop\n        /* \"DIDRegistry.sol\":4249:4260  roleHistory */\n      0x02\n        /* \"DIDRegistry.sol\":4249:4267  roleHistory[_user] */\n      0x00\n        /* \"DIDRegistry.sol\":4261:4266  _user */\n      dup4\n        /* \"DIDRegistry.sol\":4249:4267  roleHistory[_user] */\n      0xffffffffffffffffffffffffffffffffffffffff\n      and\n      0xffffffffffffffffffffffffffffffffffffffff\n      and\n      dup2\n      mstore\n      0x20\n      add\n      swap1\n      dup2\n      mstore\n      0x20\n      add\n      0x00\n      keccak256\n        /* \"DIDRegistry.sol\":4273:4278  _role */\n      dup2\n        /* \"DIDRegistry.sol\":4249:4279  roleHistory[_user].push(_role) */\n      swap1\n      dup1\n      0x01\n      dup2\n      sload\n      add\n      dup1\n      dup3\n      sstore\n      dup1\n      swap2\n      pop\n      pop\n      0x01\n      swap1\n      sub\n      swap1\n      0x00\n      mstore\n      keccak256(0x00, 0x20)\n      add\n      0x00\n      swap1\n      swap2\n      swap1\n      swap2\n      swap1\n      swap2\n      pop\n      swap1\n      dup2\n      tag_127\n      swap2\n      swap1\n      tag_58\n      jump\t// in\n    tag_127:\n      pop\n        /* \"DIDRegistry.sol\":4310:4315  _user */\n      dup2\n        /* \"DIDRegistry.sol\":4297:4323  RoleAssigned(_user, _role) */\n      0xffffffffffffffffffffffffffffffffffffffff\n      and\n      0x3565795c2fb8842c21347d277937778bbcfe788b5b4f790fc5e408786cbe9c90\n        /* \"DIDRegistry.sol\":4317:4322  _role */\n      dup3\n        /* \"DIDRegistry.sol\":4297:4323  RoleAssigned(_user, _role) */\n      mload(0x40)\n      tag_128\n      swap2\n      swap1\n      tag_37\n      jump\t// in\n    tag_128:\n      mload(0x40)\n      dup1\n      swap2\n      sub\n      swap1\n      log2\n        /* \"DIDRegistry.sol\":3965:4387  function assignRole(address _user, string memory _role) onlyManager public {... */\n      pop\n      pop\n      jump\t// out\n        /* \"DIDRegistry.sol\":2138:2334  function getDID() public view returns (string memory) {... */\n    tag_35:\n        /* \"DIDRegistry.sol\":2177:2190  string memory */\n      0x60\n        /* \"DIDRegistry.sol\":2245:2246  0 */\n      0x00\n        /* \"DIDRegistry.sol\":2211:2247  dids[msg.sender].owner != address(0) */\n      0xffffffffffffffffffffffffffffffffffffffff\n      and\n        /* \"DIDRegistry.sol\":2211:2215  dids */\n      0x00\n        /* \"DIDRegistry.sol\":2211:2227  dids[msg.sender] */\n      dup1\n        /* \"DIDRegistry.sol\":2216:2226  msg.sender */\n      caller\n        /* \"DIDRegistry.sol\":2211:2227  dids[msg.sender] */\n      0xffffffffffffffffffffffffffffffffffffffff\n      and\n      0xffffffffffffffffffffffffffffffffffffffff\n      and\n      dup2\n      mstore\n      0x20\n      add\n      swap1\n      dup2\n      mstore\n      0x20\n      add\n      0x00\n      keccak256\n        /* \"DIDRegistry.sol\":2211:2233  dids[msg.sender].owner */\n      0x01\n      add\n      0x00\n      swap1\n      sload\n      swap1\n      0x0100\n      exp\n      swap1\n      div\n      0xffffffffffffffffffffffffffffffffffffffff\n      and\n        /* \"DIDRegistry.sol\":2211:2247  dids[msg.sender].owner != address(0) */\n      0xffffffffffffffffffffffffffffffffffffffff\n      and\n      sub\n        /* \"DIDRegistry.sol\":2203:2281  require(dids[msg.sender].owner != address(0), \"No DID found for this address\") */\n      tag_130\n      jumpi\n      mload(0x40)\n      0x08c379a000000000000000000000000000000000000000000000000000000000\n      dup2\n      mstore\n      0x04\n      add\n      tag_131\n      swap1\n      tag_132\n      jump\t// in\n    tag_131:\n      mload(0x40)\n      dup1\n      swap2\n      sub\n      swap1\n      revert\n    tag_130:\n        /* \"DIDRegistry.sol\":2299:2303  dids */\n      0x00\n        /* \"DIDRegistry.sol\":2299:2315  dids[msg.sender] */\n      dup1\n        /* \"DIDRegistry.sol\":2304:2314  msg.sender */\n      caller\n        /* \"DIDRegistry.sol\":2299:2315  dids[msg.sender] */\n      0xffffffffffffffffffffffffffffffffffffffff\n      and\n      0xffffffffffffffffffffffffffffffffffffffff\n      and\n      dup2\n      mstore\n      0x20\n      add\n      swap1\n      dup2\n      mstore\n      0x20\n      add\n      0x00\n      keccak256\n        /* \"DIDRegistry.sol\":2299:2326  dids[msg.sender].identifier */\n      0x00\n      add\n        /* \"DIDRegistry.sol\":2292:2326  return dids[msg.sender].identifier */\n      dup1\n      sload\n      tag_133\n      swap1\n      tag_101\n      jump\t// in\n    tag_133:\n      dup1\n      0x1f\n      add\n      0x20\n      dup1\n      swap2\n      div\n      mul\n      0x20\n      add\n      mload(0x40)\n      swap1\n      dup2\n      add\n      0x40\n      mstore\n      dup1\n      swap3\n      swap2\n      swap1\n      dup2\n      dup2\n      mstore\n      0x20\n      add\n      dup3\n      dup1\n      sload\n      tag_134\n      swap1\n      tag_101\n      jump\t// in\n    tag_134:\n      dup1\n      iszero\n      tag_135\n      jumpi\n      dup1\n      0x1f\n      lt\n      tag_136\n      jumpi\n      0x0100\n      dup1\n      dup4\n      sload\n      div\n      mul\n      dup4\n      mstore\n      swap2\n      0x20\n      add\n      swap2\n      jump(tag_135)\n    tag_136:\n      dup3\n      add\n      swap2\n      swap1\n      0x00\n      mstore\n      keccak256(0x00, 0x20)\n      swap1\n    tag_137:\n      dup2\n      sload\n      dup2\n      mstore\n      swap1\n      0x01\n      add\n      swap1\n      0x20\n      add\n      dup1\n      dup4\n      gt\n      tag_137\n      jumpi\n      dup3\n      swap1\n      sub\n      0x1f\n      and\n      dup3\n      add\n      swap2\n    tag_135:\n      pop\n      pop\n      pop\n      pop\n      pop\n      swap1\n      pop\n        /* \"DIDRegistry.sol\":2138:2334  function getDID() public view returns (string memory) {... */\n      swap1\n      jump\t// out\n        /* \"DIDRegistry.sol\":5513:5994  function getRole() public view returns (string[] memory) {... */\n    tag_39:\n        /* \"DIDRegistry.sol\":5553:5568  string[] memory */\n      0x60\n        /* \"DIDRegistry.sol\":5623:5624  0 */\n      0x00\n        /* \"DIDRegistry.sol\":5589:5625  dids[msg.sender].owner != address(0) */\n      0xffffffffffffffffffffffffffffffffffffffff\n      and\n        /* \"DIDRegistry.sol\":5589:5593  dids */\n      0x00\n        /* \"DIDRegistry.sol\":5589:5605  dids[msg.sender] */\n      dup1\n        /* \"DIDRegistry.sol\":5594:5604  msg.sender */\n      caller\n        /* \"DIDRegistry.sol\":5589:5605  dids[msg.sender] */\n      0xffffffffffffffffffffffffffffffffffffffff\n      and\n      0xffffffffffffffffffffffffffffffffffffffff\n      and\n      dup2\n      mstore\n      0x20\n      add\n      swap1\n      dup2\n      mstore\n      0x20\n      add\n      0x00\n      keccak256\n        /* \"DIDRegistry.sol\":5589:5611  dids[msg.sender].owner */\n      0x01\n      add\n      0x00\n      swap1\n      sload\n      swap1\n      0x0100\n      exp\n      swap1\n      div\n      0xffffffffffffffffffffffffffffffffffffffff\n      and\n        /* \"DIDRegistry.sol\":5589:5625  dids[msg.sender].owner != address(0) */\n      0xffffffffffffffffffffffffffffffffffffffff\n      and\n      sub\n        /* \"DIDRegistry.sol\":5581:5668  require(dids[msg.sender].owner != address(0), \"No existing DID found for this address\") */\n      tag_139\n      jumpi\n      mload(0x40)\n      0x08c379a000000000000000000000000000000000000000000000000000000000\n      dup2\n      mstore\n      0x04\n      add\n      tag_140\n      swap1\n      tag_51\n      jump\t// in\n    tag_140:\n      mload(0x40)\n      dup1\n      swap2\n      sub\n      swap1\n      revert\n    tag_139:\n        /* \"DIDRegistry.sol\":5714:5739  string[] memory userRoles */\n      0x00\n        /* \"DIDRegistry.sol\":5742:5753  roleHistory */\n      0x02\n        /* \"DIDRegistry.sol\":5742:5765  roleHistory[msg.sender] */\n      0x00\n        /* \"DIDRegistry.sol\":5754:5764  msg.sender */\n      caller\n        /* \"DIDRegistry.sol\":5742:5765  roleHistory[msg.sender] */\n      0xffffffffffffffffffffffffffffffffffffffff\n      and\n      0xffffffffffffffffffffffffffffffffffffffff\n      and\n      dup2\n      mstore\n      0x20\n      add\n      swap1\n      dup2\n      mstore\n      0x20\n      add\n      0x00\n      keccak256\n        /* \"DIDRegistry.sol\":5714:5765  string[] memory userRoles = roleHistory[msg.sender] */\n      dup1\n      sload\n      dup1\n      0x20\n      mul\n      0x20\n      add\n      mload(0x40)\n      swap1\n      dup2\n      add\n      0x40\n      mstore\n      dup1\n      swap3\n      swap2\n      swap1\n      dup2\n      dup2\n      mstore\n      0x20\n      add\n      0x00\n      swap1\n    tag_141:\n      dup3\n      dup3\n      lt\n      iszero\n      tag_142\n      jumpi\n      dup4\n      dup3\n      swap1\n      0x00\n      mstore\n      keccak256(0x00, 0x20)\n      add\n      dup1\n      sload\n      tag_144\n      swap1\n      tag_101\n      jump\t// in\n    tag_144:\n      dup1\n      0x1f\n      add\n      0x20\n      dup1\n      swap2\n      div\n      mul\n      0x20\n      add\n      mload(0x40)\n      swap1\n      dup2\n      add\n      0x40\n      mstore\n      dup1\n      swap3\n      swap2\n      swap1\n      dup2\n      dup2\n      mstore\n      0x20\n      add\n      dup3\n      dup1\n      sload\n      tag_145\n      swap1\n      tag_101\n      jump\t// in\n    tag_145:\n      dup1\n      iszero\n      tag_146\n      jumpi\n      dup1\n      0x1f\n      lt\n      tag_147\n      jumpi\n      0x0100\n      dup1\n      dup4\n      sload\n      div\n      mul\n      dup4\n      mstore\n      swap2\n      0x20\n      add\n      swap2\n      jump(tag_146)\n    tag_147:\n      dup3\n      add\n      swap2\n      swap1\n      0x00\n      mstore\n      keccak256(0x00, 0x20)\n      swap1\n    tag_148:\n      dup2\n      sload\n      dup2\n      mstore\n      swap1\n      0x01\n      add\n      swap1\n      0x20\n      add\n      dup1\n      dup4\n      gt\n      tag_148\n      jumpi\n      dup3\n      swap1\n      sub\n      0x1f\n      and\n      dup3\n      add\n      swap2\n    tag_146:\n      pop\n      pop\n      pop\n      pop\n      pop\n      dup2\n      mstore\n      0x20\n      add\n      swap1\n      0x01\n      add\n      swap1\n      jump(tag_141)\n    tag_142:\n      pop\n      pop\n      pop\n      pop\n      swap1\n      pop\n        /* \"DIDRegistry.sol\":5867:5868  0 */\n      0x00\n        /* \"DIDRegistry.sol\":5848:5857  userRoles */\n      dup2\n        /* \"DIDRegistry.sol\":5848:5864  userRoles.length */\n      mload\n        /* \"DIDRegistry.sol\":5848:5868  userRoles.length > 0 */\n      gt\n        /* \"DIDRegistry.sol\":5840:5904  require(userRoles.length > 0, \"No roles assigned for this user\") */\n      tag_149\n      jumpi\n      mload(0x40)\n      0x08c379a000000000000000000000000000000000000000000000000000000000\n      dup2\n      mstore\n      0x04\n      add\n      tag_150\n      swap1\n      tag_151\n      jump\t// in\n    tag_150:\n      mload(0x40)\n      dup1\n      swap2\n      sub\n      swap1\n      revert\n    tag_149:\n        /* \"DIDRegistry.sol\":5977:5986  userRoles */\n      dup1\n        /* \"DIDRegistry.sol\":5970:5986  return userRoles */\n      swap2\n      pop\n      pop\n        /* \"DIDRegistry.sol\":5513:5994  function getRole() public view returns (string[] memory) {... */\n      swap1\n      jump\t// out\n    tag_96:\n      mload(0x40)\n      dup1\n      0x60\n      add\n      0x40\n      mstore\n      dup1\n      0x60\n      dup2\n      mstore\n      0x20\n      add\n      0x60\n      dup2\n      mstore\n      0x20\n      add\n      0x60\n      dup2\n      mstore\n      pop\n      swap1\n      jump\t// out\n        /* \"#utility.yul\":7:82   */\n    tag_152:\n        /* \"#utility.yul\":40:46   */\n      0x00\n        /* \"#utility.yul\":73:75   */\n      0x40\n        /* \"#utility.yul\":67:76   */\n      mload\n        /* \"#utility.yul\":57:76   */\n      swap1\n      pop\n        /* \"#utility.yul\":7:82   */\n      swap1\n      jump\t// out\n        /* \"#utility.yul\":88:205   */\n    tag_153:\n        /* \"#utility.yul\":197:198   */\n      0x00\n        /* \"#utility.yul\":194:195   */\n      dup1\n        /* \"#utility.yul\":187:199   */\n      revert\n        /* \"#utility.yul\":211:328   */\n    tag_154:\n        /* \"#utility.yul\":320:321   */\n      0x00\n        /* \"#utility.yul\":317:318   */\n      dup1\n        /* \"#utility.yul\":310:322   */\n      revert\n        /* \"#utility.yul\":334:460   */\n    tag_155:\n        /* \"#utility.yul\":371:378   */\n      0x00\n        /* \"#utility.yul\":411:453   */\n      0xffffffffffffffffffffffffffffffffffffffff\n        /* \"#utility.yul\":404:409   */\n      dup3\n        /* \"#utility.yul\":400:454   */\n      and\n        /* \"#utility.yul\":389:454   */\n      swap1\n      pop\n        /* \"#utility.yul\":334:460   */\n      swap2\n      swap1\n      pop\n      jump\t// out\n        /* \"#utility.yul\":466:562   */\n    tag_156:\n        /* \"#utility.yul\":503:510   */\n      0x00\n        /* \"#utility.yul\":532:556   */\n      tag_239\n        /* \"#utility.yul\":550:555   */\n      dup3\n        /* \"#utility.yul\":532:556   */\n      tag_155\n      jump\t// in\n    tag_239:\n        /* \"#utility.yul\":521:556   */\n      swap1\n      pop\n        /* \"#utility.yul\":466:562   */\n      swap2\n      swap1\n      pop\n      jump\t// out\n        /* \"#utility.yul\":568:690   */\n    tag_157:\n        /* \"#utility.yul\":641:665   */\n      tag_241\n        /* \"#utility.yul\":659:664   */\n      dup2\n        /* \"#utility.yul\":641:665   */\n      tag_156\n      jump\t// in\n    tag_241:\n        /* \"#utility.yul\":634:639   */\n      dup2\n        /* \"#utility.yul\":631:666   */\n      eq\n        /* \"#utility.yul\":621:684   */\n      tag_242\n      jumpi\n        /* \"#utility.yul\":680:681   */\n      0x00\n        /* \"#utility.yul\":677:678   */\n      dup1\n        /* \"#utility.yul\":670:682   */\n      revert\n        /* \"#utility.yul\":621:684   */\n    tag_242:\n        /* \"#utility.yul\":568:690   */\n      pop\n      jump\t// out\n        /* \"#utility.yul\":696:835   */\n    tag_158:\n        /* \"#utility.yul\":742:747   */\n      0x00\n        /* \"#utility.yul\":780:786   */\n      dup2\n        /* \"#utility.yul\":767:787   */\n      calldataload\n        /* \"#utility.yul\":758:787   */\n      swap1\n      pop\n        /* \"#utility.yul\":796:829   */\n      tag_244\n        /* \"#utility.yul\":823:828   */\n      dup2\n        /* \"#utility.yul\":796:829   */\n      tag_157\n      jump\t// in\n    tag_244:\n        /* \"#utility.yul\":696:835   */\n      swap3\n      swap2\n      pop\n      pop\n      jump\t// out\n        /* \"#utility.yul\":841:958   */\n    tag_159:\n        /* \"#utility.yul\":950:951   */\n      0x00\n        /* \"#utility.yul\":947:948   */\n      dup1\n        /* \"#utility.yul\":940:952   */\n      revert\n        /* \"#utility.yul\":964:1081   */\n    tag_160:\n        /* \"#utility.yul\":1073:1074   */\n      0x00\n        /* \"#utility.yul\":1070:1071   */\n      dup1\n        /* \"#utility.yul\":1063:1075   */\n      revert\n        /* \"#utility.yul\":1087:1189   */\n    tag_161:\n        /* \"#utility.yul\":1128:1134   */\n      0x00\n        /* \"#utility.yul\":1179:1181   */\n      0x1f\n        /* \"#utility.yul\":1175:1182   */\n      not\n        /* \"#utility.yul\":1170:1172   */\n      0x1f\n        /* \"#utility.yul\":1163:1168   */\n      dup4\n        /* \"#utility.yul\":1159:1173   */\n      add\n        /* \"#utility.yul\":1155:1183   */\n      and\n        /* \"#utility.yul\":1145:1183   */\n      swap1\n      pop\n        /* \"#utility.yul\":1087:1189   */\n      swap2\n      swap1\n      pop\n      jump\t// out\n        /* \"#utility.yul\":1195:1375   */\n    tag_162:\n        /* \"#utility.yul\":1243:1320   */\n      0x4e487b7100000000000000000000000000000000000000000000000000000000\n        /* \"#utility.yul\":1240:1241   */\n      0x00\n        /* \"#utility.yul\":1233:1321   */\n      mstore\n        /* \"#utility.yul\":1340:1344   */\n      0x41\n        /* \"#utility.yul\":1337:1338   */\n      0x04\n        /* \"#utility.yul\":1330:1345   */\n      mstore\n        /* \"#utility.yul\":1364:1368   */\n      0x24\n        /* \"#utility.yul\":1361:1362   */\n      0x00\n        /* \"#utility.yul\":1354:1369   */\n      revert\n        /* \"#utility.yul\":1381:1662   */\n    tag_163:\n        /* \"#utility.yul\":1464:1491   */\n      tag_250\n        /* \"#utility.yul\":1486:1490   */\n      dup3\n        /* \"#utility.yul\":1464:1491   */\n      tag_161\n      jump\t// in\n    tag_250:\n        /* \"#utility.yul\":1456:1462   */\n      dup2\n        /* \"#utility.yul\":1452:1492   */\n      add\n        /* \"#utility.yul\":1594:1600   */\n      dup2\n        /* \"#utility.yul\":1582:1592   */\n      dup2\n        /* \"#utility.yul\":1579:1601   */\n      lt\n        /* \"#utility.yul\":1558:1576   */\n      0xffffffffffffffff\n        /* \"#utility.yul\":1546:1556   */\n      dup3\n        /* \"#utility.yul\":1543:1577   */\n      gt\n        /* \"#utility.yul\":1540:1602   */\n      or\n        /* \"#utility.yul\":1537:1625   */\n      iszero\n      tag_251\n      jumpi\n        /* \"#utility.yul\":1605:1623   */\n      tag_252\n      tag_162\n      jump\t// in\n    tag_252:\n        /* \"#utility.yul\":1537:1625   */\n    tag_251:\n        /* \"#utility.yul\":1645:1655   */\n      dup1\n        /* \"#utility.yul\":1641:1643   */\n      0x40\n        /* \"#utility.yul\":1634:1656   */\n      mstore\n        /* \"#utility.yul\":1424:1662   */\n      pop\n        /* \"#utility.yul\":1381:1662   */\n      pop\n      pop\n      jump\t// out\n        /* \"#utility.yul\":1668:1797   */\n    tag_164:\n        /* \"#utility.yul\":1702:1708   */\n      0x00\n        /* \"#utility.yul\":1729:1749   */\n      tag_254\n      tag_152\n      jump\t// in\n    tag_254:\n        /* \"#utility.yul\":1719:1749   */\n      swap1\n      pop\n        /* \"#utility.yul\":1758:1791   */\n      tag_255\n        /* \"#utility.yul\":1786:1790   */\n      dup3\n        /* \"#utility.yul\":1778:1784   */\n      dup3\n        /* \"#utility.yul\":1758:1791   */\n      tag_163\n      jump\t// in\n    tag_255:\n        /* \"#utility.yul\":1668:1797   */\n      swap2\n      swap1\n      pop\n      jump\t// out\n        /* \"#utility.yul\":1803:2111   */\n    tag_165:\n        /* \"#utility.yul\":1865:1869   */\n      0x00\n        /* \"#utility.yul\":1955:1973   */\n      0xffffffffffffffff\n        /* \"#utility.yul\":1947:1953   */\n      dup3\n        /* \"#utility.yul\":1944:1974   */\n      gt\n        /* \"#utility.yul\":1941:1997   */\n      iszero\n      tag_257\n      jumpi\n        /* \"#utility.yul\":1977:1995   */\n      tag_258\n      tag_162\n      jump\t// in\n    tag_258:\n        /* \"#utility.yul\":1941:1997   */\n    tag_257:\n        /* \"#utility.yul\":2015:2044   */\n      tag_259\n        /* \"#utility.yul\":2037:2043   */\n      dup3\n        /* \"#utility.yul\":2015:2044   */\n      tag_161\n      jump\t// in\n    tag_259:\n        /* \"#utility.yul\":2007:2044   */\n      swap1\n      pop\n        /* \"#utility.yul\":2099:2103   */\n      0x20\n        /* \"#utility.yul\":2093:2097   */\n      dup2\n        /* \"#utility.yul\":2089:2104   */\n      add\n        /* \"#utility.yul\":2081:2104   */\n      swap1\n      pop\n        /* \"#utility.yul\":1803:2111   */\n      swap2\n      swap1\n      pop\n      jump\t// out\n        /* \"#utility.yul\":2117:2265   */\n    tag_166:\n        /* \"#utility.yul\":2215:2221   */\n      dup3\n        /* \"#utility.yul\":2210:2213   */\n      dup2\n        /* \"#utility.yul\":2205:2208   */\n      dup4\n        /* \"#utility.yul\":2192:2222   */\n      calldatacopy\n        /* \"#utility.yul\":2256:2257   */\n      0x00\n        /* \"#utility.yul\":2247:2253   */\n      dup4\n        /* \"#utility.yul\":2242:2245   */\n      dup4\n        /* \"#utility.yul\":2238:2254   */\n      add\n        /* \"#utility.yul\":2231:2258   */\n      mstore\n        /* \"#utility.yul\":2117:2265   */\n      pop\n      pop\n      pop\n      jump\t// out\n        /* \"#utility.yul\":2271:2696   */\n    tag_167:\n        /* \"#utility.yul\":2349:2354   */\n      0x00\n        /* \"#utility.yul\":2374:2440   */\n      tag_262\n        /* \"#utility.yul\":2390:2439   */\n      tag_263\n        /* \"#utility.yul\":2432:2438   */\n      dup5\n        /* \"#utility.yul\":2390:2439   */\n      tag_165\n      jump\t// in\n    tag_263:\n        /* \"#utility.yul\":2374:2440   */\n      tag_164\n      jump\t// in\n    tag_262:\n        /* \"#utility.yul\":2365:2440   */\n      swap1\n      pop\n        /* \"#utility.yul\":2463:2469   */\n      dup3\n        /* \"#utility.yul\":2456:2461   */\n      dup2\n        /* \"#utility.yul\":2449:2470   */\n      mstore\n        /* \"#utility.yul\":2501:2505   */\n      0x20\n        /* \"#utility.yul\":2494:2499   */\n      dup2\n        /* \"#utility.yul\":2490:2506   */\n      add\n        /* \"#utility.yul\":2539:2542   */\n      dup5\n        /* \"#utility.yul\":2530:2536   */\n      dup5\n        /* \"#utility.yul\":2525:2528   */\n      dup5\n        /* \"#utility.yul\":2521:2537   */\n      add\n        /* \"#utility.yul\":2518:2543   */\n      gt\n        /* \"#utility.yul\":2515:2627   */\n      iszero\n      tag_264\n      jumpi\n        /* \"#utility.yul\":2546:2625   */\n      tag_265\n      tag_160\n      jump\t// in\n    tag_265:\n        /* \"#utility.yul\":2515:2627   */\n    tag_264:\n        /* \"#utility.yul\":2636:2690   */\n      tag_266\n        /* \"#utility.yul\":2683:2689   */\n      dup5\n        /* \"#utility.yul\":2678:2681   */\n      dup3\n        /* \"#utility.yul\":2673:2676   */\n      dup6\n        /* \"#utility.yul\":2636:2690   */\n      tag_166\n      jump\t// in\n    tag_266:\n        /* \"#utility.yul\":2355:2696   */\n      pop\n        /* \"#utility.yul\":2271:2696   */\n      swap4\n      swap3\n      pop\n      pop\n      pop\n      jump\t// out\n        /* \"#utility.yul\":2716:3056   */\n    tag_168:\n        /* \"#utility.yul\":2772:2777   */\n      0x00\n        /* \"#utility.yul\":2821:2824   */\n      dup3\n        /* \"#utility.yul\":2814:2818   */\n      0x1f\n        /* \"#utility.yul\":2806:2812   */\n      dup4\n        /* \"#utility.yul\":2802:2819   */\n      add\n        /* \"#utility.yul\":2798:2825   */\n      slt\n        /* \"#utility.yul\":2788:2910   */\n      tag_268\n      jumpi\n        /* \"#utility.yul\":2829:2908   */\n      tag_269\n      tag_159\n      jump\t// in\n    tag_269:\n        /* \"#utility.yul\":2788:2910   */\n    tag_268:\n        /* \"#utility.yul\":2946:2952   */\n      dup2\n        /* \"#utility.yul\":2933:2953   */\n      calldataload\n        /* \"#utility.yul\":2971:3050   */\n      tag_270\n        /* \"#utility.yul\":3046:3049   */\n      dup5\n        /* \"#utility.yul\":3038:3044   */\n      dup3\n        /* \"#utility.yul\":3031:3035   */\n      0x20\n        /* \"#utility.yul\":3023:3029   */\n      dup7\n        /* \"#utility.yul\":3019:3036   */\n      add\n        /* \"#utility.yul\":2971:3050   */\n      tag_167\n      jump\t// in\n    tag_270:\n        /* \"#utility.yul\":2962:3050   */\n      swap2\n      pop\n        /* \"#utility.yul\":2778:3056   */\n      pop\n        /* \"#utility.yul\":2716:3056   */\n      swap3\n      swap2\n      pop\n      pop\n      jump\t// out\n        /* \"#utility.yul\":3062:3716   */\n    tag_14:\n        /* \"#utility.yul\":3140:3146   */\n      0x00\n        /* \"#utility.yul\":3148:3154   */\n      dup1\n        /* \"#utility.yul\":3197:3199   */\n      0x40\n        /* \"#utility.yul\":3185:3194   */\n      dup4\n        /* \"#utility.yul\":3176:3183   */\n      dup6\n        /* \"#utility.yul\":3172:3195   */\n      sub\n        /* \"#utility.yul\":3168:3200   */\n      slt\n        /* \"#utility.yul\":3165:3284   */\n      iszero\n      tag_272\n      jumpi\n        /* \"#utility.yul\":3203:3282   */\n      tag_273\n      tag_153\n      jump\t// in\n    tag_273:\n        /* \"#utility.yul\":3165:3284   */\n    tag_272:\n        /* \"#utility.yul\":3323:3324   */\n      0x00\n        /* \"#utility.yul\":3348:3401   */\n      tag_274\n        /* \"#utility.yul\":3393:3400   */\n      dup6\n        /* \"#utility.yul\":3384:3390   */\n      dup3\n        /* \"#utility.yul\":3373:3382   */\n      dup7\n        /* \"#utility.yul\":3369:3391   */\n      add\n        /* \"#utility.yul\":3348:3401   */\n      tag_158\n      jump\t// in\n    tag_274:\n        /* \"#utility.yul\":3338:3401   */\n      swap3\n      pop\n        /* \"#utility.yul\":3294:3411   */\n      pop\n        /* \"#utility.yul\":3478:3480   */\n      0x20\n        /* \"#utility.yul\":3467:3476   */\n      dup4\n        /* \"#utility.yul\":3463:3481   */\n      add\n        /* \"#utility.yul\":3450:3482   */\n      calldataload\n        /* \"#utility.yul\":3509:3527   */\n      0xffffffffffffffff\n        /* \"#utility.yul\":3501:3507   */\n      dup2\n        /* \"#utility.yul\":3498:3528   */\n      gt\n        /* \"#utility.yul\":3495:3612   */\n      iszero\n      tag_275\n      jumpi\n        /* \"#utility.yul\":3531:3610   */\n      tag_276\n      tag_154\n      jump\t// in\n    tag_276:\n        /* \"#utility.yul\":3495:3612   */\n    tag_275:\n        /* \"#utility.yul\":3636:3699   */\n      tag_277\n        /* \"#utility.yul\":3691:3698   */\n      dup6\n        /* \"#utility.yul\":3682:3688   */\n      dup3\n        /* \"#utility.yul\":3671:3680   */\n      dup7\n        /* \"#utility.yul\":3667:3689   */\n      add\n        /* \"#utility.yul\":3636:3699   */\n      tag_168\n      jump\t// in\n    tag_277:\n        /* \"#utility.yul\":3626:3699   */\n      swap2\n      pop\n        /* \"#utility.yul\":3421:3709   */\n      pop\n        /* \"#utility.yul\":3062:3716   */\n      swap3\n      pop\n      swap3\n      swap1\n      pop\n      jump\t// out\n        /* \"#utility.yul\":3722:4881   */\n    tag_18:\n        /* \"#utility.yul\":3829:3835   */\n      0x00\n        /* \"#utility.yul\":3837:3843   */\n      dup1\n        /* \"#utility.yul\":3845:3851   */\n      0x00\n        /* \"#utility.yul\":3894:3896   */\n      0x60\n        /* \"#utility.yul\":3882:3891   */\n      dup5\n        /* \"#utility.yul\":3873:3880   */\n      dup7\n        /* \"#utility.yul\":3869:3892   */\n      sub\n        /* \"#utility.yul\":3865:3897   */\n      slt\n        /* \"#utility.yul\":3862:3981   */\n      iszero\n      tag_279\n      jumpi\n        /* \"#utility.yul\":3900:3979   */\n      tag_280\n      tag_153\n      jump\t// in\n    tag_280:\n        /* \"#utility.yul\":3862:3981   */\n    tag_279:\n        /* \"#utility.yul\":4048:4049   */\n      0x00\n        /* \"#utility.yul\":4037:4046   */\n      dup5\n        /* \"#utility.yul\":4033:4050   */\n      add\n        /* \"#utility.yul\":4020:4051   */\n      calldataload\n        /* \"#utility.yul\":4078:4096   */\n      0xffffffffffffffff\n        /* \"#utility.yul\":4070:4076   */\n      dup2\n        /* \"#utility.yul\":4067:4097   */\n      gt\n        /* \"#utility.yul\":4064:4181   */\n      iszero\n      tag_281\n      jumpi\n        /* \"#utility.yul\":4100:4179   */\n      tag_282\n      tag_154\n      jump\t// in\n    tag_282:\n        /* \"#utility.yul\":4064:4181   */\n    tag_281:\n        /* \"#utility.yul\":4205:4268   */\n      tag_283\n        /* \"#utility.yul\":4260:4267   */\n      dup7\n        /* \"#utility.yul\":4251:4257   */\n      dup3\n        /* \"#utility.yul\":4240:4249   */\n      dup8\n        /* \"#utility.yul\":4236:4258   */\n      add\n        /* \"#utility.yul\":4205:4268   */\n      tag_168\n      jump\t// in\n    tag_283:\n        /* \"#utility.yul\":4195:4268   */\n      swap4\n      pop\n        /* \"#utility.yul\":3991:4278   */\n      pop\n        /* \"#utility.yul\":4345:4347   */\n      0x20\n        /* \"#utility.yul\":4334:4343   */\n      dup5\n        /* \"#utility.yul\":4330:4348   */\n      add\n        /* \"#utility.yul\":4317:4349   */\n      calldataload\n        /* \"#utility.yul\":4376:4394   */\n      0xffffffffffffffff\n        /* \"#utility.yul\":4368:4374   */\n      dup2\n        /* \"#utility.yul\":4365:4395   */\n      gt\n        /* \"#utility.yul\":4362:4479   */\n      iszero\n      tag_284\n      jumpi\n        /* \"#utility.yul\":4398:4477   */\n      tag_285\n      tag_154\n      jump\t// in\n    tag_285:\n        /* \"#utility.yul\":4362:4479   */\n    tag_284:\n        /* \"#utility.yul\":4503:4566   */\n      tag_286\n        /* \"#utility.yul\":4558:4565   */\n      dup7\n        /* \"#utility.yul\":4549:4555   */\n      dup3\n        /* \"#utility.yul\":4538:4547   */\n      dup8\n        /* \"#utility.yul\":4534:4556   */\n      add\n        /* \"#utility.yul\":4503:4566   */\n      tag_168\n      jump\t// in\n    tag_286:\n        /* \"#utility.yul\":4493:4566   */\n      swap3\n      pop\n        /* \"#utility.yul\":4288:4576   */\n      pop\n        /* \"#utility.yul\":4643:4645   */\n      0x40\n        /* \"#utility.yul\":4632:4641   */\n      dup5\n        /* \"#utility.yul\":4628:4646   */\n      add\n        /* \"#utility.yul\":4615:4647   */\n      calldataload\n        /* \"#utility.yul\":4674:4692   */\n      0xffffffffffffffff\n        /* \"#utility.yul\":4666:4672   */\n      dup2\n        /* \"#utility.yul\":4663:4693   */\n      gt\n        /* \"#utility.yul\":4660:4777   */\n      iszero\n      tag_287\n      jumpi\n        /* \"#utility.yul\":4696:4775   */\n      tag_288\n      tag_154\n      jump\t// in\n    tag_288:\n        /* \"#utility.yul\":4660:4777   */\n    tag_287:\n        /* \"#utility.yul\":4801:4864   */\n      tag_289\n        /* \"#utility.yul\":4856:4863   */\n      dup7\n        /* \"#utility.yul\":4847:4853   */\n      dup3\n        /* \"#utility.yul\":4836:4845   */\n      dup8\n        /* \"#utility.yul\":4832:4854   */\n      add\n        /* \"#utility.yul\":4801:4864   */\n      tag_168\n      jump\t// in\n    tag_289:\n        /* \"#utility.yul\":4791:4864   */\n      swap2\n      pop\n        /* \"#utility.yul\":4586:4874   */\n      pop\n        /* \"#utility.yul\":3722:4881   */\n      swap3\n      pop\n      swap3\n      pop\n      swap3\n      jump\t// out\n        /* \"#utility.yul\":4887:5396   */\n    tag_22:\n        /* \"#utility.yul\":4956:4962   */\n      0x00\n        /* \"#utility.yul\":5005:5007   */\n      0x20\n        /* \"#utility.yul\":4993:5002   */\n      dup3\n        /* \"#utility.yul\":4984:4991   */\n      dup5\n        /* \"#utility.yul\":4980:5003   */\n      sub\n        /* \"#utility.yul\":4976:5008   */\n      slt\n        /* \"#utility.yul\":4973:5092   */\n      iszero\n      tag_291\n      jumpi\n        /* \"#utility.yul\":5011:5090   */\n      tag_292\n      tag_153\n      jump\t// in\n    tag_292:\n        /* \"#utility.yul\":4973:5092   */\n    tag_291:\n        /* \"#utility.yul\":5159:5160   */\n      0x00\n        /* \"#utility.yul\":5148:5157   */\n      dup3\n        /* \"#utility.yul\":5144:5161   */\n      add\n        /* \"#utility.yul\":5131:5162   */\n      calldataload\n        /* \"#utility.yul\":5189:5207   */\n      0xffffffffffffffff\n        /* \"#utility.yul\":5181:5187   */\n      dup2\n        /* \"#utility.yul\":5178:5208   */\n      gt\n        /* \"#utility.yul\":5175:5292   */\n      iszero\n      tag_293\n      jumpi\n        /* \"#utility.yul\":5211:5290   */\n      tag_294\n      tag_154\n      jump\t// in\n    tag_294:\n        /* \"#utility.yul\":5175:5292   */\n    tag_293:\n        /* \"#utility.yul\":5316:5379   */\n      tag_295\n        /* \"#utility.yul\":5371:5378   */\n      dup5\n        /* \"#utility.yul\":5362:5368   */\n      dup3\n        /* \"#utility.yul\":5351:5360   */\n      dup6\n        /* \"#utility.yul\":5347:5369   */\n      add\n        /* \"#utility.yul\":5316:5379   */\n      tag_168\n      jump\t// in\n    tag_295:\n        /* \"#utility.yul\":5306:5379   */\n      swap2\n      pop\n        /* \"#utility.yul\":5102:5389   */\n      pop\n        /* \"#utility.yul\":4887:5396   */\n      swap3\n      swap2\n      pop\n      pop\n      jump\t// out\n        /* \"#utility.yul\":5402:5501   */\n    tag_169:\n        /* \"#utility.yul\":5454:5460   */\n      0x00\n        /* \"#utility.yul\":5488:5493   */\n      dup2\n        /* \"#utility.yul\":5482:5494   */\n      mload\n        /* \"#utility.yul\":5472:5494   */\n      swap1\n      pop\n        /* \"#utility.yul\":5402:5501   */\n      swap2\n      swap1\n      pop\n      jump\t// out\n        /* \"#utility.yul\":5507:5666   */\n    tag_170:\n        /* \"#utility.yul\":5581:5592   */\n      0x00\n        /* \"#utility.yul\":5615:5621   */\n      dup3\n        /* \"#utility.yul\":5610:5613   */\n      dup3\n        /* \"#utility.yul\":5603:5622   */\n      mstore\n        /* \"#utility.yul\":5655:5659   */\n      0x20\n        /* \"#utility.yul\":5650:5653   */\n      dup3\n        /* \"#utility.yul\":5646:5660   */\n      add\n        /* \"#utility.yul\":5631:5660   */\n      swap1\n      pop\n        /* \"#utility.yul\":5507:5666   */\n      swap3\n      swap2\n      pop\n      pop\n      jump\t// out\n        /* \"#utility.yul\":5672:5811   */\n    tag_171:\n        /* \"#utility.yul\":5761:5767   */\n      dup3\n        /* \"#utility.yul\":5756:5759   */\n      dup2\n        /* \"#utility.yul\":5751:5754   */\n      dup4\n        /* \"#utility.yul\":5745:5768   */\n      mcopy\n        /* \"#utility.yul\":5802:5803   */\n      0x00\n        /* \"#utility.yul\":5793:5799   */\n      dup4\n        /* \"#utility.yul\":5788:5791   */\n      dup4\n        /* \"#utility.yul\":5784:5800   */\n      add\n        /* \"#utility.yul\":5777:5804   */\n      mstore\n        /* \"#utility.yul\":5672:5811   */\n      pop\n      pop\n      pop\n      jump\t// out\n        /* \"#utility.yul\":5817:6174   */\n    tag_172:\n        /* \"#utility.yul\":5895:5898   */\n      0x00\n        /* \"#utility.yul\":5923:5962   */\n      tag_300\n        /* \"#utility.yul\":5956:5961   */\n      dup3\n        /* \"#utility.yul\":5923:5962   */\n      tag_169\n      jump\t// in\n    tag_300:\n        /* \"#utility.yul\":5978:6039   */\n      tag_301\n        /* \"#utility.yul\":6032:6038   */\n      dup2\n        /* \"#utility.yul\":6027:6030   */\n      dup6\n        /* \"#utility.yul\":5978:6039   */\n      tag_170\n      jump\t// in\n    tag_301:\n        /* \"#utility.yul\":5971:6039   */\n      swap4\n      pop\n        /* \"#utility.yul\":6048:6113   */\n      tag_302\n        /* \"#utility.yul\":6106:6112   */\n      dup2\n        /* \"#utility.yul\":6101:6104   */\n      dup6\n        /* \"#utility.yul\":6094:6098   */\n      0x20\n        /* \"#utility.yul\":6087:6092   */\n      dup7\n        /* \"#utility.yul\":6083:6099   */\n      add\n        /* \"#utility.yul\":6048:6113   */\n      tag_171\n      jump\t// in\n    tag_302:\n        /* \"#utility.yul\":6138:6167   */\n      tag_303\n        /* \"#utility.yul\":6160:6166   */\n      dup2\n        /* \"#utility.yul\":6138:6167   */\n      tag_161\n      jump\t// in\n    tag_303:\n        /* \"#utility.yul\":6133:6136   */\n      dup5\n        /* \"#utility.yul\":6129:6168   */\n      add\n        /* \"#utility.yul\":6122:6168   */\n      swap2\n      pop\n        /* \"#utility.yul\":5899:6174   */\n      pop\n        /* \"#utility.yul\":5817:6174   */\n      swap3\n      swap2\n      pop\n      pop\n      jump\t// out\n        /* \"#utility.yul\":6246:7177   */\n    tag_173:\n        /* \"#utility.yul\":6363:6366   */\n      0x00\n        /* \"#utility.yul\":6399:6403   */\n      0x60\n        /* \"#utility.yul\":6394:6397   */\n      dup4\n        /* \"#utility.yul\":6390:6404   */\n      add\n        /* \"#utility.yul\":6486:6490   */\n      0x00\n        /* \"#utility.yul\":6479:6484   */\n      dup4\n        /* \"#utility.yul\":6475:6491   */\n      add\n        /* \"#utility.yul\":6469:6492   */\n      mload\n        /* \"#utility.yul\":6539:6542   */\n      dup5\n        /* \"#utility.yul\":6533:6537   */\n      dup3\n        /* \"#utility.yul\":6529:6543   */\n      sub\n        /* \"#utility.yul\":6522:6526   */\n      0x00\n        /* \"#utility.yul\":6517:6520   */\n      dup7\n        /* \"#utility.yul\":6513:6527   */\n      add\n        /* \"#utility.yul\":6506:6544   */\n      mstore\n        /* \"#utility.yul\":6565:6638   */\n      tag_305\n        /* \"#utility.yul\":6633:6637   */\n      dup3\n        /* \"#utility.yul\":6619:6631   */\n      dup3\n        /* \"#utility.yul\":6565:6638   */\n      tag_172\n      jump\t// in\n    tag_305:\n        /* \"#utility.yul\":6557:6638   */\n      swap2\n      pop\n        /* \"#utility.yul\":6414:6649   */\n      pop\n        /* \"#utility.yul\":6732:6736   */\n      0x20\n        /* \"#utility.yul\":6725:6730   */\n      dup4\n        /* \"#utility.yul\":6721:6737   */\n      add\n        /* \"#utility.yul\":6715:6738   */\n      mload\n        /* \"#utility.yul\":6785:6788   */\n      dup5\n        /* \"#utility.yul\":6779:6783   */\n      dup3\n        /* \"#utility.yul\":6775:6789   */\n      sub\n        /* \"#utility.yul\":6768:6772   */\n      0x20\n        /* \"#utility.yul\":6763:6766   */\n      dup7\n        /* \"#utility.yul\":6759:6773   */\n      add\n        /* \"#utility.yul\":6752:6790   */\n      mstore\n        /* \"#utility.yul\":6811:6884   */\n      tag_306\n        /* \"#utility.yul\":6879:6883   */\n      dup3\n        /* \"#utility.yul\":6865:6877   */\n      dup3\n        /* \"#utility.yul\":6811:6884   */\n      tag_172\n      jump\t// in\n    tag_306:\n        /* \"#utility.yul\":6803:6884   */\n      swap2\n      pop\n        /* \"#utility.yul\":6659:6895   */\n      pop\n        /* \"#utility.yul\":6987:6991   */\n      0x40\n        /* \"#utility.yul\":6980:6985   */\n      dup4\n        /* \"#utility.yul\":6976:6992   */\n      add\n        /* \"#utility.yul\":6970:6993   */\n      mload\n        /* \"#utility.yul\":7040:7043   */\n      dup5\n        /* \"#utility.yul\":7034:7038   */\n      dup3\n        /* \"#utility.yul\":7030:7044   */\n      sub\n        /* \"#utility.yul\":7023:7027   */\n      0x40\n        /* \"#utility.yul\":7018:7021   */\n      dup7\n        /* \"#utility.yul\":7014:7028   */\n      add\n        /* \"#utility.yul\":7007:7045   */\n      mstore\n        /* \"#utility.yul\":7066:7139   */\n      tag_307\n        /* \"#utility.yul\":7134:7138   */\n      dup3\n        /* \"#utility.yul\":7120:7132   */\n      dup3\n        /* \"#utility.yul\":7066:7139   */\n      tag_172\n      jump\t// in\n    tag_307:\n        /* \"#utility.yul\":7058:7139   */\n      swap2\n      pop\n        /* \"#utility.yul\":6905:7150   */\n      pop\n        /* \"#utility.yul\":7167:7171   */\n      dup1\n        /* \"#utility.yul\":7160:7171   */\n      swap2\n      pop\n        /* \"#utility.yul\":6368:7177   */\n      pop\n        /* \"#utility.yul\":6246:7177   */\n      swap3\n      swap2\n      pop\n      pop\n      jump\t// out\n        /* \"#utility.yul\":7183:7552   */\n    tag_30:\n        /* \"#utility.yul\":7324:7328   */\n      0x00\n        /* \"#utility.yul\":7362:7364   */\n      0x20\n        /* \"#utility.yul\":7351:7360   */\n      dup3\n        /* \"#utility.yul\":7347:7365   */\n      add\n        /* \"#utility.yul\":7339:7365   */\n      swap1\n      pop\n        /* \"#utility.yul\":7411:7420   */\n      dup2\n        /* \"#utility.yul\":7405:7409   */\n      dup2\n        /* \"#utility.yul\":7401:7421   */\n      sub\n        /* \"#utility.yul\":7397:7398   */\n      0x00\n        /* \"#utility.yul\":7386:7395   */\n      dup4\n        /* \"#utility.yul\":7382:7399   */\n      add\n        /* \"#utility.yul\":7375:7422   */\n      mstore\n        /* \"#utility.yul\":7439:7545   */\n      tag_309\n        /* \"#utility.yul\":7540:7544   */\n      dup2\n        /* \"#utility.yul\":7531:7537   */\n      dup5\n        /* \"#utility.yul\":7439:7545   */\n      tag_173\n      jump\t// in\n    tag_309:\n        /* \"#utility.yul\":7431:7545   */\n      swap1\n      pop\n        /* \"#utility.yul\":7183:7552   */\n      swap3\n      swap2\n      pop\n      pop\n      jump\t// out\n        /* \"#utility.yul\":7558:7727   */\n    tag_174:\n        /* \"#utility.yul\":7642:7653   */\n      0x00\n        /* \"#utility.yul\":7676:7682   */\n      dup3\n        /* \"#utility.yul\":7671:7674   */\n      dup3\n        /* \"#utility.yul\":7664:7683   */\n      mstore\n        /* \"#utility.yul\":7716:7720   */\n      0x20\n        /* \"#utility.yul\":7711:7714   */\n      dup3\n        /* \"#utility.yul\":7707:7721   */\n      add\n        /* \"#utility.yul\":7692:7721   */\n      swap1\n      pop\n        /* \"#utility.yul\":7558:7727   */\n      swap3\n      swap2\n      pop\n      pop\n      jump\t// out\n        /* \"#utility.yul\":7733:8110   */\n    tag_175:\n        /* \"#utility.yul\":7821:7824   */\n      0x00\n        /* \"#utility.yul\":7849:7888   */\n      tag_312\n        /* \"#utility.yul\":7882:7887   */\n      dup3\n        /* \"#utility.yul\":7849:7888   */\n      tag_169\n      jump\t// in\n    tag_312:\n        /* \"#utility.yul\":7904:7975   */\n      tag_313\n        /* \"#utility.yul\":7968:7974   */\n      dup2\n        /* \"#utility.yul\":7963:7966   */\n      dup6\n        /* \"#utility.yul\":7904:7975   */\n      tag_174\n      jump\t// in\n    tag_313:\n        /* \"#utility.yul\":7897:7975   */\n      swap4\n      pop\n        /* \"#utility.yul\":7984:8049   */\n      tag_314\n        /* \"#utility.yul\":8042:8048   */\n      dup2\n        /* \"#utility.yul\":8037:8040   */\n      dup6\n        /* \"#utility.yul\":8030:8034   */\n      0x20\n        /* \"#utility.yul\":8023:8028   */\n      dup7\n        /* \"#utility.yul\":8019:8035   */\n      add\n        /* \"#utility.yul\":7984:8049   */\n      tag_171\n      jump\t// in\n    tag_314:\n        /* \"#utility.yul\":8074:8103   */\n      tag_315\n        /* \"#utility.yul\":8096:8102   */\n      dup2\n        /* \"#utility.yul\":8074:8103   */\n      tag_161\n      jump\t// in\n    tag_315:\n        /* \"#utility.yul\":8069:8072   */\n      dup5\n        /* \"#utility.yul\":8065:8104   */\n      add\n        /* \"#utility.yul\":8058:8104   */\n      swap2\n      pop\n        /* \"#utility.yul\":7825:8110   */\n      pop\n        /* \"#utility.yul\":7733:8110   */\n      swap3\n      swap2\n      pop\n      pop\n      jump\t// out\n        /* \"#utility.yul\":8116:8429   */\n    tag_37:\n        /* \"#utility.yul\":8229:8233   */\n      0x00\n        /* \"#utility.yul\":8267:8269   */\n      0x20\n        /* \"#utility.yul\":8256:8265   */\n      dup3\n        /* \"#utility.yul\":8252:8270   */\n      add\n        /* \"#utility.yul\":8244:8270   */\n      swap1\n      pop\n        /* \"#utility.yul\":8316:8325   */\n      dup2\n        /* \"#utility.yul\":8310:8314   */\n      dup2\n        /* \"#utility.yul\":8306:8326   */\n      sub\n        /* \"#utility.yul\":8302:8303   */\n      0x00\n        /* \"#utility.yul\":8291:8300   */\n      dup4\n        /* \"#utility.yul\":8287:8304   */\n      add\n        /* \"#utility.yul\":8280:8327   */\n      mstore\n        /* \"#utility.yul\":8344:8422   */\n      tag_317\n        /* \"#utility.yul\":8417:8421   */\n      dup2\n        /* \"#utility.yul\":8408:8414   */\n      dup5\n        /* \"#utility.yul\":8344:8422   */\n      tag_175\n      jump\t// in\n    tag_317:\n        /* \"#utility.yul\":8336:8422   */\n      swap1\n      pop\n        /* \"#utility.yul\":8116:8429   */\n      swap3\n      swap2\n      pop\n      pop\n      jump\t// out\n        /* \"#utility.yul\":8435:8559   */\n    tag_176:\n        /* \"#utility.yul\":8512:8518   */\n      0x00\n        /* \"#utility.yul\":8546:8551   */\n      dup2\n        /* \"#utility.yul\":8540:8552   */\n      mload\n        /* \"#utility.yul\":8530:8552   */\n      swap1\n      pop\n        /* \"#utility.yul\":8435:8559   */\n      swap2\n      swap1\n      pop\n      jump\t// out\n        /* \"#utility.yul\":8565:8759   */\n    tag_177:\n        /* \"#utility.yul\":8674:8685   */\n      0x00\n        /* \"#utility.yul\":8708:8714   */\n      dup3\n        /* \"#utility.yul\":8703:8706   */\n      dup3\n        /* \"#utility.yul\":8696:8715   */\n      mstore\n        /* \"#utility.yul\":8748:8752   */\n      0x20\n        /* \"#utility.yul\":8743:8746   */\n      dup3\n        /* \"#utility.yul\":8739:8753   */\n      add\n        /* \"#utility.yul\":8724:8753   */\n      swap1\n      pop\n        /* \"#utility.yul\":8565:8759   */\n      swap3\n      swap2\n      pop\n      pop\n      jump\t// out\n        /* \"#utility.yul\":8765:8907   */\n    tag_178:\n        /* \"#utility.yul\":8842:8846   */\n      0x00\n        /* \"#utility.yul\":8865:8868   */\n      dup2\n        /* \"#utility.yul\":8857:8868   */\n      swap1\n      pop\n        /* \"#utility.yul\":8895:8899   */\n      0x20\n        /* \"#utility.yul\":8890:8893   */\n      dup3\n        /* \"#utility.yul\":8886:8900   */\n      add\n        /* \"#utility.yul\":8878:8900   */\n      swap1\n      pop\n        /* \"#utility.yul\":8765:8907   */\n      swap2\n      swap1\n      pop\n      jump\t// out\n        /* \"#utility.yul\":8913:9109   */\n    tag_179:\n        /* \"#utility.yul\":9002:9012   */\n      0x00\n        /* \"#utility.yul\":9037:9103   */\n      tag_322\n        /* \"#utility.yul\":9099:9102   */\n      dup4\n        /* \"#utility.yul\":9091:9097   */\n      dup4\n        /* \"#utility.yul\":9037:9103   */\n      tag_172\n      jump\t// in\n    tag_322:\n        /* \"#utility.yul\":9023:9103   */\n      swap1\n      pop\n        /* \"#utility.yul\":8913:9109   */\n      swap3\n      swap2\n      pop\n      pop\n      jump\t// out\n        /* \"#utility.yul\":9115:9238   */\n    tag_180:\n        /* \"#utility.yul\":9195:9199   */\n      0x00\n        /* \"#utility.yul\":9227:9231   */\n      0x20\n        /* \"#utility.yul\":9222:9225   */\n      dup3\n        /* \"#utility.yul\":9218:9232   */\n      add\n        /* \"#utility.yul\":9210:9232   */\n      swap1\n      pop\n        /* \"#utility.yul\":9115:9238   */\n      swap2\n      swap1\n      pop\n      jump\t// out\n        /* \"#utility.yul\":9272:10263   */\n    tag_181:\n        /* \"#utility.yul\":9411:9414   */\n      0x00\n        /* \"#utility.yul\":9440:9504   */\n      tag_325\n        /* \"#utility.yul\":9498:9503   */\n      dup3\n        /* \"#utility.yul\":9440:9504   */\n      tag_176\n      jump\t// in\n    tag_325:\n        /* \"#utility.yul\":9520:9616   */\n      tag_326\n        /* \"#utility.yul\":9609:9615   */\n      dup2\n        /* \"#utility.yul\":9604:9607   */\n      dup6\n        /* \"#utility.yul\":9520:9616   */\n      tag_177\n      jump\t// in\n    tag_326:\n        /* \"#utility.yul\":9513:9616   */\n      swap4\n      pop\n        /* \"#utility.yul\":9642:9645   */\n      dup4\n        /* \"#utility.yul\":9687:9691   */\n      0x20\n        /* \"#utility.yul\":9679:9685   */\n      dup3\n        /* \"#utility.yul\":9675:9692   */\n      mul\n        /* \"#utility.yul\":9670:9673   */\n      dup6\n        /* \"#utility.yul\":9666:9693   */\n      add\n        /* \"#utility.yul\":9717:9783   */\n      tag_327\n        /* \"#utility.yul\":9777:9782   */\n      dup6\n        /* \"#utility.yul\":9717:9783   */\n      tag_178\n      jump\t// in\n    tag_327:\n        /* \"#utility.yul\":9806:9813   */\n      dup1\n        /* \"#utility.yul\":9837:9838   */\n      0x00\n        /* \"#utility.yul\":9822:10218   */\n    tag_328:\n        /* \"#utility.yul\":9847:9853   */\n      dup6\n        /* \"#utility.yul\":9844:9845   */\n      dup2\n        /* \"#utility.yul\":9841:9854   */\n      lt\n        /* \"#utility.yul\":9822:10218   */\n      iszero\n      tag_330\n      jumpi\n        /* \"#utility.yul\":9918:9927   */\n      dup5\n        /* \"#utility.yul\":9912:9916   */\n      dup5\n        /* \"#utility.yul\":9908:9928   */\n      sub\n        /* \"#utility.yul\":9903:9906   */\n      dup10\n        /* \"#utility.yul\":9896:9929   */\n      mstore\n        /* \"#utility.yul\":9969:9975   */\n      dup2\n        /* \"#utility.yul\":9963:9976   */\n      mload\n        /* \"#utility.yul\":9997:10081   */\n      tag_331\n        /* \"#utility.yul\":10076:10080   */\n      dup6\n        /* \"#utility.yul\":10061:10074   */\n      dup3\n        /* \"#utility.yul\":9997:10081   */\n      tag_179\n      jump\t// in\n    tag_331:\n        /* \"#utility.yul\":9989:10081   */\n      swap5\n      pop\n        /* \"#utility.yul\":10104:10174   */\n      tag_332\n        /* \"#utility.yul\":10167:10173   */\n      dup4\n        /* \"#utility.yul\":10104:10174   */\n      tag_180\n      jump\t// in\n    tag_332:\n        /* \"#utility.yul\":10094:10174   */\n      swap3\n      pop\n        /* \"#utility.yul\":10203:10207   */\n      0x20\n        /* \"#utility.yul\":10198:10201   */\n      dup11\n        /* \"#utility.yul\":10194:10208   */\n      add\n        /* \"#utility.yul\":10187:10208   */\n      swap10\n      pop\n        /* \"#utility.yul\":9882:10218   */\n      pop\n        /* \"#utility.yul\":9869:9870   */\n      0x01\n        /* \"#utility.yul\":9866:9867   */\n      dup2\n        /* \"#utility.yul\":9862:9871   */\n      add\n        /* \"#utility.yul\":9857:9871   */\n      swap1\n      pop\n        /* \"#utility.yul\":9822:10218   */\n      jump(tag_328)\n    tag_330:\n        /* \"#utility.yul\":9826:9840   */\n      pop\n        /* \"#utility.yul\":10234:10238   */\n      dup3\n        /* \"#utility.yul\":10227:10238   */\n      swap8\n      pop\n        /* \"#utility.yul\":10254:10257   */\n      dup8\n        /* \"#utility.yul\":10247:10257   */\n      swap6\n      pop\n        /* \"#utility.yul\":9416:10263   */\n      pop\n      pop\n      pop\n      pop\n      pop\n        /* \"#utility.yul\":9272:10263   */\n      swap3\n      swap2\n      pop\n      pop\n      jump\t// out\n        /* \"#utility.yul\":10269:10682   */\n    tag_41:\n        /* \"#utility.yul\":10432:10436   */\n      0x00\n        /* \"#utility.yul\":10470:10472   */\n      0x20\n        /* \"#utility.yul\":10459:10468   */\n      dup3\n        /* \"#utility.yul\":10455:10473   */\n      add\n        /* \"#utility.yul\":10447:10473   */\n      swap1\n      pop\n        /* \"#utility.yul\":10519:10528   */\n      dup2\n        /* \"#utility.yul\":10513:10517   */\n      dup2\n        /* \"#utility.yul\":10509:10529   */\n      sub\n        /* \"#utility.yul\":10505:10506   */\n      0x00\n        /* \"#utility.yul\":10494:10503   */\n      dup4\n        /* \"#utility.yul\":10490:10507   */\n      add\n        /* \"#utility.yul\":10483:10530   */\n      mstore\n        /* \"#utility.yul\":10547:10675   */\n      tag_334\n        /* \"#utility.yul\":10670:10674   */\n      dup2\n        /* \"#utility.yul\":10661:10667   */\n      dup5\n        /* \"#utility.yul\":10547:10675   */\n      tag_181\n      jump\t// in\n    tag_334:\n        /* \"#utility.yul\":10539:10675   */\n      swap1\n      pop\n        /* \"#utility.yul\":10269:10682   */\n      swap3\n      swap2\n      pop\n      pop\n      jump\t// out\n        /* \"#utility.yul\":10688:10868   */\n    tag_182:\n        /* \"#utility.yul\":10736:10813   */\n      0x4e487b7100000000000000000000000000000000000000000000000000000000\n        /* \"#utility.yul\":10733:10734   */\n      0x00\n        /* \"#utility.yul\":10726:10814   */\n      mstore\n        /* \"#utility.yul\":10833:10837   */\n      0x22\n        /* \"#utility.yul\":10830:10831   */\n      0x04\n        /* \"#utility.yul\":10823:10838   */\n      mstore\n        /* \"#utility.yul\":10857:10861   */\n      0x24\n        /* \"#utility.yul\":10854:10855   */\n      0x00\n        /* \"#utility.yul\":10847:10862   */\n      revert\n        /* \"#utility.yul\":10874:11194   */\n    tag_101:\n        /* \"#utility.yul\":10918:10924   */\n      0x00\n        /* \"#utility.yul\":10955:10956   */\n      0x02\n        /* \"#utility.yul\":10949:10953   */\n      dup3\n        /* \"#utility.yul\":10945:10957   */\n      div\n        /* \"#utility.yul\":10935:10957   */\n      swap1\n      pop\n        /* \"#utility.yul\":11002:11003   */\n      0x01\n        /* \"#utility.yul\":10996:11000   */\n      dup3\n        /* \"#utility.yul\":10992:11004   */\n      and\n        /* \"#utility.yul\":11023:11041   */\n      dup1\n        /* \"#utility.yul\":11013:11094   */\n      tag_337\n      jumpi\n        /* \"#utility.yul\":11079:11083   */\n      0x7f\n        /* \"#utility.yul\":11071:11077   */\n      dup3\n        /* \"#utility.yul\":11067:11084   */\n      and\n        /* \"#utility.yul\":11057:11084   */\n      swap2\n      pop\n        /* \"#utility.yul\":11013:11094   */\n    tag_337:\n        /* \"#utility.yul\":11141:11143   */\n      0x20\n        /* \"#utility.yul\":11133:11139   */\n      dup3\n        /* \"#utility.yul\":11130:11144   */\n      lt\n        /* \"#utility.yul\":11110:11128   */\n      dup2\n        /* \"#utility.yul\":11107:11145   */\n      sub\n        /* \"#utility.yul\":11104:11188   */\n      tag_338\n      jumpi\n        /* \"#utility.yul\":11160:11178   */\n      tag_339\n      tag_182\n      jump\t// in\n    tag_339:\n        /* \"#utility.yul\":11104:11188   */\n    tag_338:\n        /* \"#utility.yul\":10925:11194   */\n      pop\n        /* \"#utility.yul\":10874:11194   */\n      swap2\n      swap1\n      pop\n      jump\t// out\n        /* \"#utility.yul\":11200:11347   */\n    tag_183:\n        /* \"#utility.yul\":11301:11312   */\n      0x00\n        /* \"#utility.yul\":11338:11341   */\n      dup2\n        /* \"#utility.yul\":11323:11341   */\n      swap1\n      pop\n        /* \"#utility.yul\":11200:11347   */\n      swap3\n      swap2\n      pop\n      pop\n      jump\t// out\n        /* \"#utility.yul\":11353:11497   */\n    tag_184:\n        /* \"#utility.yul\":11405:11409   */\n      0x00\n        /* \"#utility.yul\":11428:11431   */\n      dup2\n        /* \"#utility.yul\":11420:11431   */\n      swap1\n      pop\n        /* \"#utility.yul\":11451:11454   */\n      dup2\n        /* \"#utility.yul\":11448:11449   */\n      0x00\n        /* \"#utility.yul\":11441:11455   */\n      mstore\n        /* \"#utility.yul\":11485:11489   */\n      0x20\n        /* \"#utility.yul\":11482:11483   */\n      0x00\n        /* \"#utility.yul\":11472:11490   */\n      keccak256\n        /* \"#utility.yul\":11464:11490   */\n      swap1\n      pop\n        /* \"#utility.yul\":11353:11497   */\n      swap2\n      swap1\n      pop\n      jump\t// out\n        /* \"#utility.yul\":11525:12403   */\n    tag_185:\n        /* \"#utility.yul\":11630:11633   */\n      0x00\n        /* \"#utility.yul\":11667:11672   */\n      dup2\n        /* \"#utility.yul\":11661:11673   */\n      sload\n        /* \"#utility.yul\":11696:11732   */\n      tag_343\n        /* \"#utility.yul\":11722:11731   */\n      dup2\n        /* \"#utility.yul\":11696:11732   */\n      tag_101\n      jump\t// in\n    tag_343:\n        /* \"#utility.yul\":11748:11836   */\n      tag_344\n        /* \"#utility.yul\":11829:11835   */\n      dup2\n        /* \"#utility.yul\":11824:11827   */\n      dup7\n        /* \"#utility.yul\":11748:11836   */\n      tag_183\n      jump\t// in\n    tag_344:\n        /* \"#utility.yul\":11741:11836   */\n      swap5\n      pop\n        /* \"#utility.yul\":11867:11868   */\n      0x01\n        /* \"#utility.yul\":11856:11865   */\n      dup3\n        /* \"#utility.yul\":11852:11869   */\n      and\n        /* \"#utility.yul\":11883:11884   */\n      0x00\n        /* \"#utility.yul\":11878:12044   */\n      dup2\n      eq\n      tag_346\n      jumpi\n        /* \"#utility.yul\":12058:12059   */\n      0x01\n        /* \"#utility.yul\":12053:12397   */\n      dup2\n      eq\n      tag_347\n      jumpi\n        /* \"#utility.yul\":11845:12397   */\n      jump(tag_345)\n        /* \"#utility.yul\":11878:12044   */\n    tag_346:\n        /* \"#utility.yul\":11962:11966   */\n      0xff\n        /* \"#utility.yul\":11958:11967   */\n      not\n        /* \"#utility.yul\":11947:11956   */\n      dup4\n        /* \"#utility.yul\":11943:11968   */\n      and\n        /* \"#utility.yul\":11938:11941   */\n      dup7\n        /* \"#utility.yul\":11931:11969   */\n      mstore\n        /* \"#utility.yul\":12024:12030   */\n      dup2\n        /* \"#utility.yul\":12017:12031   */\n      iszero\n        /* \"#utility.yul\":12010:12032   */\n      iszero\n        /* \"#utility.yul\":12002:12008   */\n      dup3\n        /* \"#utility.yul\":11998:12033   */\n      mul\n        /* \"#utility.yul\":11993:11996   */\n      dup7\n        /* \"#utility.yul\":11989:12034   */\n      add\n        /* \"#utility.yul\":11982:12034   */\n      swap4\n      pop\n        /* \"#utility.yul\":11878:12044   */\n      jump(tag_345)\n        /* \"#utility.yul\":12053:12397   */\n    tag_347:\n        /* \"#utility.yul\":12120:12161   */\n      tag_348\n        /* \"#utility.yul\":12155:12160   */\n      dup6\n        /* \"#utility.yul\":12120:12161   */\n      tag_184\n      jump\t// in\n    tag_348:\n        /* \"#utility.yul\":12183:12184   */\n      0x00\n        /* \"#utility.yul\":12197:12351   */\n    tag_349:\n        /* \"#utility.yul\":12211:12217   */\n      dup4\n        /* \"#utility.yul\":12208:12209   */\n      dup2\n        /* \"#utility.yul\":12205:12218   */\n      lt\n        /* \"#utility.yul\":12197:12351   */\n      iszero\n      tag_351\n      jumpi\n        /* \"#utility.yul\":12285:12292   */\n      dup2\n        /* \"#utility.yul\":12279:12293   */\n      sload\n        /* \"#utility.yul\":12275:12276   */\n      dup2\n        /* \"#utility.yul\":12270:12273   */\n      dup10\n        /* \"#utility.yul\":12266:12277   */\n      add\n        /* \"#utility.yul\":12259:12294   */\n      mstore\n        /* \"#utility.yul\":12335:12336   */\n      0x01\n        /* \"#utility.yul\":12326:12333   */\n      dup3\n        /* \"#utility.yul\":12322:12337   */\n      add\n        /* \"#utility.yul\":12311:12337   */\n      swap2\n      pop\n        /* \"#utility.yul\":12233:12237   */\n      0x20\n        /* \"#utility.yul\":12230:12231   */\n      dup2\n        /* \"#utility.yul\":12226:12238   */\n      add\n        /* \"#utility.yul\":12221:12238   */\n      swap1\n      pop\n        /* \"#utility.yul\":12197:12351   */\n      jump(tag_349)\n    tag_351:\n        /* \"#utility.yul\":12380:12386   */\n      dup4\n        /* \"#utility.yul\":12375:12378   */\n      dup9\n        /* \"#utility.yul\":12371:12387   */\n      add\n        /* \"#utility.yul\":12364:12387   */\n      swap6\n      pop\n        /* \"#utility.yul\":12060:12397   */\n      pop\n      pop\n        /* \"#utility.yul\":11845:12397   */\n    tag_345:\n      pop\n        /* \"#utility.yul\":11634:12403   */\n      pop\n      pop\n        /* \"#utility.yul\":11525:12403   */\n      swap3\n      swap2\n      pop\n      pop\n      jump\t// out\n        /* \"#utility.yul\":12409:12682   */\n    tag_44:\n        /* \"#utility.yul\":12540:12543   */\n      0x00\n        /* \"#utility.yul\":12562:12656   */\n      tag_353\n        /* \"#utility.yul\":12652:12655   */\n      dup3\n        /* \"#utility.yul\":12643:12649   */\n      dup5\n        /* \"#utility.yul\":12562:12656   */\n      tag_185\n      jump\t// in\n    tag_353:\n        /* \"#utility.yul\":12555:12656   */\n      swap2\n      pop\n        /* \"#utility.yul\":12673:12676   */\n      dup2\n        /* \"#utility.yul\":12666:12676   */\n      swap1\n      pop\n        /* \"#utility.yul\":12409:12682   */\n      swap3\n      swap2\n      pop\n      pop\n      jump\t// out\n        /* \"#utility.yul\":12688:12857   */\n    tag_186:\n        /* \"#utility.yul\":12828:12849   */\n      0x556e617574686f72697a656420616374696f6e00000000000000000000000000\n        /* \"#utility.yul\":12824:12825   */\n      0x00\n        /* \"#utility.yul\":12816:12822   */\n      dup3\n        /* \"#utility.yul\":12812:12826   */\n      add\n        /* \"#utility.yul\":12805:12850   */\n      mstore\n        /* \"#utility.yul\":12688:12857   */\n      pop\n      jump\t// out\n        /* \"#utility.yul\":12863:13229   */\n    tag_187:\n        /* \"#utility.yul\":13005:13008   */\n      0x00\n        /* \"#utility.yul\":13026:13093   */\n      tag_356\n        /* \"#utility.yul\":13090:13092   */\n      0x13\n        /* \"#utility.yul\":13085:13088   */\n      dup4\n        /* \"#utility.yul\":13026:13093   */\n      tag_174\n      jump\t// in\n    tag_356:\n        /* \"#utility.yul\":13019:13093   */\n      swap2\n      pop\n        /* \"#utility.yul\":13102:13195   */\n      tag_357\n        /* \"#utility.yul\":13191:13194   */\n      dup3\n        /* \"#utility.yul\":13102:13195   */\n      tag_186\n      jump\t// in\n    tag_357:\n        /* \"#utility.yul\":13220:13222   */\n      0x20\n        /* \"#utility.yul\":13215:13218   */\n      dup3\n        /* \"#utility.yul\":13211:13223   */\n      add\n        /* \"#utility.yul\":13204:13223   */\n      swap1\n      pop\n        /* \"#utility.yul\":12863:13229   */\n      swap2\n      swap1\n      pop\n      jump\t// out\n        /* \"#utility.yul\":13235:13654   */\n    tag_47:\n        /* \"#utility.yul\":13401:13405   */\n      0x00\n        /* \"#utility.yul\":13439:13441   */\n      0x20\n        /* \"#utility.yul\":13428:13437   */\n      dup3\n        /* \"#utility.yul\":13424:13442   */\n      add\n        /* \"#utility.yul\":13416:13442   */\n      swap1\n      pop\n        /* \"#utility.yul\":13488:13497   */\n      dup2\n        /* \"#utility.yul\":13482:13486   */\n      dup2\n        /* \"#utility.yul\":13478:13498   */\n      sub\n        /* \"#utility.yul\":13474:13475   */\n      0x00\n        /* \"#utility.yul\":13463:13472   */\n      dup4\n        /* \"#utility.yul\":13459:13476   */\n      add\n        /* \"#utility.yul\":13452:13499   */\n      mstore\n        /* \"#utility.yul\":13516:13647   */\n      tag_359\n        /* \"#utility.yul\":13642:13646   */\n      dup2\n        /* \"#utility.yul\":13516:13647   */\n      tag_187\n      jump\t// in\n    tag_359:\n        /* \"#utility.yul\":13508:13647   */\n      swap1\n      pop\n        /* \"#utility.yul\":13235:13654   */\n      swap2\n      swap1\n      pop\n      jump\t// out\n        /* \"#utility.yul\":13660:13885   */\n    tag_188:\n        /* \"#utility.yul\":13800:13834   */\n      0x4e6f206578697374696e672044494420666f756e6420666f7220746869732061\n        /* \"#utility.yul\":13796:13797   */\n      0x00\n        /* \"#utility.yul\":13788:13794   */\n      dup3\n        /* \"#utility.yul\":13784:13798   */\n      add\n        /* \"#utility.yul\":13777:13835   */\n      mstore\n        /* \"#utility.yul\":13869:13877   */\n      0x6464726573730000000000000000000000000000000000000000000000000000\n        /* \"#utility.yul\":13864:13866   */\n      0x20\n        /* \"#utility.yul\":13856:13862   */\n      dup3\n        /* \"#utility.yul\":13852:13867   */\n      add\n        /* \"#utility.yul\":13845:13878   */\n      mstore\n        /* \"#utility.yul\":13660:13885   */\n      pop\n      jump\t// out\n        /* \"#utility.yul\":13891:14257   */\n    tag_189:\n        /* \"#utility.yul\":14033:14036   */\n      0x00\n        /* \"#utility.yul\":14054:14121   */\n      tag_362\n        /* \"#utility.yul\":14118:14120   */\n      0x26\n        /* \"#utility.yul\":14113:14116   */\n      dup4\n        /* \"#utility.yul\":14054:14121   */\n      tag_174\n      jump\t// in\n    tag_362:\n        /* \"#utility.yul\":14047:14121   */\n      swap2\n      pop\n        /* \"#utility.yul\":14130:14223   */\n      tag_363\n        /* \"#utility.yul\":14219:14222   */\n      dup3\n        /* \"#utility.yul\":14130:14223   */\n      tag_188\n      jump\t// in\n    tag_363:\n        /* \"#utility.yul\":14248:14250   */\n      0x40\n        /* \"#utility.yul\":14243:14246   */\n      dup3\n        /* \"#utility.yul\":14239:14251   */\n      add\n        /* \"#utility.yul\":14232:14251   */\n      swap1\n      pop\n        /* \"#utility.yul\":13891:14257   */\n      swap2\n      swap1\n      pop\n      jump\t// out\n        /* \"#utility.yul\":14263:14682   */\n    tag_51:\n        /* \"#utility.yul\":14429:14433   */\n      0x00\n        /* \"#utility.yul\":14467:14469   */\n      0x20\n        /* \"#utility.yul\":14456:14465   */\n      dup3\n        /* \"#utility.yul\":14452:14470   */\n      add\n        /* \"#utility.yul\":14444:14470   */\n      swap1\n      pop\n        /* \"#utility.yul\":14516:14525   */\n      dup2\n        /* \"#utility.yul\":14510:14514   */\n      dup2\n        /* \"#utility.yul\":14506:14526   */\n      sub\n        /* \"#utility.yul\":14502:14503   */\n      0x00\n        /* \"#utility.yul\":14491:14500   */\n      dup4\n        /* \"#utility.yul\":14487:14504   */\n      add\n        /* \"#utility.yul\":14480:14527   */\n      mstore\n        /* \"#utility.yul\":14544:14675   */\n      tag_365\n        /* \"#utility.yul\":14670:14674   */\n      dup2\n        /* \"#utility.yul\":14544:14675   */\n      tag_189\n      jump\t// in\n    tag_365:\n        /* \"#utility.yul\":14536:14675   */\n      swap1\n      pop\n        /* \"#utility.yul\":14263:14682   */\n      swap2\n      swap1\n      pop\n      jump\t// out\n        /* \"#utility.yul\":14688:14858   */\n    tag_190:\n        /* \"#utility.yul\":14828:14850   */\n      0x526f6c652063616e6e6f7420626520656d707479000000000000000000000000\n        /* \"#utility.yul\":14824:14825   */\n      0x00\n        /* \"#utility.yul\":14816:14822   */\n      dup3\n        /* \"#utility.yul\":14812:14826   */\n      add\n        /* \"#utility.yul\":14805:14851   */\n      mstore\n        /* \"#utility.yul\":14688:14858   */\n      pop\n      jump\t// out\n        /* \"#utility.yul\":14864:15230   */\n    tag_191:\n        /* \"#utility.yul\":15006:15009   */\n      0x00\n        /* \"#utility.yul\":15027:15094   */\n      tag_368\n        /* \"#utility.yul\":15091:15093   */\n      0x14\n        /* \"#utility.yul\":15086:15089   */\n      dup4\n        /* \"#utility.yul\":15027:15094   */\n      tag_174\n      jump\t// in\n    tag_368:\n        /* \"#utility.yul\":15020:15094   */\n      swap2\n      pop\n        /* \"#utility.yul\":15103:15196   */\n      tag_369\n        /* \"#utility.yul\":15192:15195   */\n      dup3\n        /* \"#utility.yul\":15103:15196   */\n      tag_190\n      jump\t// in\n    tag_369:\n        /* \"#utility.yul\":15221:15223   */\n      0x20\n        /* \"#utility.yul\":15216:15219   */\n      dup3\n        /* \"#utility.yul\":15212:15224   */\n      add\n        /* \"#utility.yul\":15205:15224   */\n      swap1\n      pop\n        /* \"#utility.yul\":14864:15230   */\n      swap2\n      swap1\n      pop\n      jump\t// out\n        /* \"#utility.yul\":15236:15655   */\n    tag_54:\n        /* \"#utility.yul\":15402:15406   */\n      0x00\n        /* \"#utility.yul\":15440:15442   */\n      0x20\n        /* \"#utility.yul\":15429:15438   */\n      dup3\n        /* \"#utility.yul\":15425:15443   */\n      add\n        /* \"#utility.yul\":15417:15443   */\n      swap1\n      pop\n        /* \"#utility.yul\":15489:15498   */\n      dup2\n        /* \"#utility.yul\":15483:15487   */\n      dup2\n        /* \"#utility.yul\":15479:15499   */\n      sub\n        /* \"#utility.yul\":15475:15476   */\n      0x00\n        /* \"#utility.yul\":15464:15473   */\n      dup4\n        /* \"#utility.yul\":15460:15477   */\n      add\n        /* \"#utility.yul\":15453:15500   */\n      mstore\n        /* \"#utility.yul\":15517:15648   */\n      tag_371\n        /* \"#utility.yul\":15643:15647   */\n      dup2\n        /* \"#utility.yul\":15517:15648   */\n      tag_191\n      jump\t// in\n    tag_371:\n        /* \"#utility.yul\":15509:15648   */\n      swap1\n      pop\n        /* \"#utility.yul\":15236:15655   */\n      swap2\n      swap1\n      pop\n      jump\t// out\n        /* \"#utility.yul\":15661:15755   */\n    tag_192:\n        /* \"#utility.yul\":15694:15702   */\n      0x00\n        /* \"#utility.yul\":15742:15747   */\n      dup2\n        /* \"#utility.yul\":15738:15740   */\n      0x60\n        /* \"#utility.yul\":15734:15748   */\n      shl\n        /* \"#utility.yul\":15713:15748   */\n      swap1\n      pop\n        /* \"#utility.yul\":15661:15755   */\n      swap2\n      swap1\n      pop\n      jump\t// out\n        /* \"#utility.yul\":15761:15855   */\n    tag_193:\n        /* \"#utility.yul\":15800:15807   */\n      0x00\n        /* \"#utility.yul\":15829:15849   */\n      tag_374\n        /* \"#utility.yul\":15843:15848   */\n      dup3\n        /* \"#utility.yul\":15829:15849   */\n      tag_192\n      jump\t// in\n    tag_374:\n        /* \"#utility.yul\":15818:15849   */\n      swap1\n      pop\n        /* \"#utility.yul\":15761:15855   */\n      swap2\n      swap1\n      pop\n      jump\t// out\n        /* \"#utility.yul\":15861:15961   */\n    tag_194:\n        /* \"#utility.yul\":15900:15907   */\n      0x00\n        /* \"#utility.yul\":15929:15955   */\n      tag_376\n        /* \"#utility.yul\":15949:15954   */\n      dup3\n        /* \"#utility.yul\":15929:15955   */\n      tag_193\n      jump\t// in\n    tag_376:\n        /* \"#utility.yul\":15918:15955   */\n      swap1\n      pop\n        /* \"#utility.yul\":15861:15961   */\n      swap2\n      swap1\n      pop\n      jump\t// out\n        /* \"#utility.yul\":15967:16124   */\n    tag_195:\n        /* \"#utility.yul\":16072:16117   */\n      tag_378\n        /* \"#utility.yul\":16092:16116   */\n      tag_379\n        /* \"#utility.yul\":16110:16115   */\n      dup3\n        /* \"#utility.yul\":16092:16116   */\n      tag_156\n      jump\t// in\n    tag_379:\n        /* \"#utility.yul\":16072:16117   */\n      tag_194\n      jump\t// in\n    tag_378:\n        /* \"#utility.yul\":16067:16070   */\n      dup3\n        /* \"#utility.yul\":16060:16118   */\n      mstore\n        /* \"#utility.yul\":15967:16124   */\n      pop\n      pop\n      jump\t// out\n        /* \"#utility.yul\":16130:16278   */\n    tag_196:\n        /* \"#utility.yul\":16232:16243   */\n      0x00\n        /* \"#utility.yul\":16269:16272   */\n      dup2\n        /* \"#utility.yul\":16254:16272   */\n      swap1\n      pop\n        /* \"#utility.yul\":16130:16278   */\n      swap3\n      swap2\n      pop\n      pop\n      jump\t// out\n        /* \"#utility.yul\":16284:16674   */\n    tag_197:\n        /* \"#utility.yul\":16390:16393   */\n      0x00\n        /* \"#utility.yul\":16418:16457   */\n      tag_382\n        /* \"#utility.yul\":16451:16456   */\n      dup3\n        /* \"#utility.yul\":16418:16457   */\n      tag_169\n      jump\t// in\n    tag_382:\n        /* \"#utility.yul\":16473:16562   */\n      tag_383\n        /* \"#utility.yul\":16555:16561   */\n      dup2\n        /* \"#utility.yul\":16550:16553   */\n      dup6\n        /* \"#utility.yul\":16473:16562   */\n      tag_196\n      jump\t// in\n    tag_383:\n        /* \"#utility.yul\":16466:16562   */\n      swap4\n      pop\n        /* \"#utility.yul\":16571:16636   */\n      tag_384\n        /* \"#utility.yul\":16629:16635   */\n      dup2\n        /* \"#utility.yul\":16624:16627   */\n      dup6\n        /* \"#utility.yul\":16617:16621   */\n      0x20\n        /* \"#utility.yul\":16610:16615   */\n      dup7\n        /* \"#utility.yul\":16606:16622   */\n      add\n        /* \"#utility.yul\":16571:16636   */\n      tag_171\n      jump\t// in\n    tag_384:\n        /* \"#utility.yul\":16661:16667   */\n      dup1\n        /* \"#utility.yul\":16656:16659   */\n      dup5\n        /* \"#utility.yul\":16652:16668   */\n      add\n        /* \"#utility.yul\":16645:16668   */\n      swap2\n      pop\n        /* \"#utility.yul\":16394:16674   */\n      pop\n        /* \"#utility.yul\":16284:16674   */\n      swap3\n      swap2\n      pop\n      pop\n      jump\t// out\n        /* \"#utility.yul\":16680:16757   */\n    tag_198:\n        /* \"#utility.yul\":16717:16724   */\n      0x00\n        /* \"#utility.yul\":16746:16751   */\n      dup2\n        /* \"#utility.yul\":16735:16751   */\n      swap1\n      pop\n        /* \"#utility.yul\":16680:16757   */\n      swap2\n      swap1\n      pop\n      jump\t// out\n        /* \"#utility.yul\":16763:16842   */\n    tag_199:\n        /* \"#utility.yul\":16802:16809   */\n      0x00\n        /* \"#utility.yul\":16831:16836   */\n      dup2\n        /* \"#utility.yul\":16820:16836   */\n      swap1\n      pop\n        /* \"#utility.yul\":16763:16842   */\n      swap2\n      swap1\n      pop\n      jump\t// out\n        /* \"#utility.yul\":16848:17005   */\n    tag_200:\n        /* \"#utility.yul\":16953:16998   */\n      tag_388\n        /* \"#utility.yul\":16973:16997   */\n      tag_389\n        /* \"#utility.yul\":16991:16996   */\n      dup3\n        /* \"#utility.yul\":16973:16997   */\n      tag_198\n      jump\t// in\n    tag_389:\n        /* \"#utility.yul\":16953:16998   */\n      tag_199\n      jump\t// in\n    tag_388:\n        /* \"#utility.yul\":16948:16951   */\n      dup3\n        /* \"#utility.yul\":16941:16999   */\n      mstore\n        /* \"#utility.yul\":16848:17005   */\n      pop\n      pop\n      jump\t// out\n        /* \"#utility.yul\":17011:17709   */\n    tag_56:\n        /* \"#utility.yul\":17227:17230   */\n      0x00\n        /* \"#utility.yul\":17242:17317   */\n      tag_391\n        /* \"#utility.yul\":17313:17316   */\n      dup3\n        /* \"#utility.yul\":17304:17310   */\n      dup8\n        /* \"#utility.yul\":17242:17317   */\n      tag_195\n      jump\t// in\n    tag_391:\n        /* \"#utility.yul\":17342:17344   */\n      0x14\n        /* \"#utility.yul\":17337:17340   */\n      dup3\n        /* \"#utility.yul\":17333:17345   */\n      add\n        /* \"#utility.yul\":17326:17345   */\n      swap2\n      pop\n        /* \"#utility.yul\":17355:17430   */\n      tag_392\n        /* \"#utility.yul\":17426:17429   */\n      dup3\n        /* \"#utility.yul\":17417:17423   */\n      dup7\n        /* \"#utility.yul\":17355:17430   */\n      tag_195\n      jump\t// in\n    tag_392:\n        /* \"#utility.yul\":17455:17457   */\n      0x14\n        /* \"#utility.yul\":17450:17453   */\n      dup3\n        /* \"#utility.yul\":17446:17458   */\n      add\n        /* \"#utility.yul\":17439:17458   */\n      swap2\n      pop\n        /* \"#utility.yul\":17475:17570   */\n      tag_393\n        /* \"#utility.yul\":17566:17569   */\n      dup3\n        /* \"#utility.yul\":17557:17563   */\n      dup6\n        /* \"#utility.yul\":17475:17570   */\n      tag_197\n      jump\t// in\n    tag_393:\n        /* \"#utility.yul\":17468:17570   */\n      swap2\n      pop\n        /* \"#utility.yul\":17580:17655   */\n      tag_394\n        /* \"#utility.yul\":17651:17654   */\n      dup3\n        /* \"#utility.yul\":17642:17648   */\n      dup5\n        /* \"#utility.yul\":17580:17655   */\n      tag_200\n      jump\t// in\n    tag_394:\n        /* \"#utility.yul\":17680:17682   */\n      0x20\n        /* \"#utility.yul\":17675:17678   */\n      dup3\n        /* \"#utility.yul\":17671:17683   */\n      add\n        /* \"#utility.yul\":17664:17683   */\n      swap2\n      pop\n        /* \"#utility.yul\":17700:17703   */\n      dup2\n        /* \"#utility.yul\":17693:17703   */\n      swap1\n      pop\n        /* \"#utility.yul\":17011:17709   */\n      swap6\n      swap5\n      pop\n      pop\n      pop\n      pop\n      pop\n      jump\t// out\n        /* \"#utility.yul\":17715:17856   */\n    tag_201:\n        /* \"#utility.yul\":17764:17768   */\n      0x00\n        /* \"#utility.yul\":17787:17790   */\n      dup2\n        /* \"#utility.yul\":17779:17790   */\n      swap1\n      pop\n        /* \"#utility.yul\":17810:17813   */\n      dup2\n        /* \"#utility.yul\":17807:17808   */\n      0x00\n        /* \"#utility.yul\":17800:17814   */\n      mstore\n        /* \"#utility.yul\":17844:17848   */\n      0x20\n        /* \"#utility.yul\":17841:17842   */\n      0x00\n        /* \"#utility.yul\":17831:17849   */\n      keccak256\n        /* \"#utility.yul\":17823:17849   */\n      swap1\n      pop\n        /* \"#utility.yul\":17715:17856   */\n      swap2\n      swap1\n      pop\n      jump\t// out\n        /* \"#utility.yul\":17862:17955   */\n    tag_202:\n        /* \"#utility.yul\":17899:17905   */\n      0x00\n        /* \"#utility.yul\":17946:17948   */\n      0x20\n        /* \"#utility.yul\":17941:17943   */\n      0x1f\n        /* \"#utility.yul\":17934:17939   */\n      dup4\n        /* \"#utility.yul\":17930:17944   */\n      add\n        /* \"#utility.yul\":17926:17949   */\n      div\n        /* \"#utility.yul\":17916:17949   */\n      swap1\n      pop\n        /* \"#utility.yul\":17862:17955   */\n      swap2\n      swap1\n      pop\n      jump\t// out\n        /* \"#utility.yul\":17961:18068   */\n    tag_203:\n        /* \"#utility.yul\":18005:18013   */\n      0x00\n        /* \"#utility.yul\":18055:18060   */\n      dup3\n        /* \"#utility.yul\":18049:18053   */\n      dup3\n        /* \"#utility.yul\":18045:18061   */\n      shl\n        /* \"#utility.yul\":18024:18061   */\n      swap1\n      pop\n        /* \"#utility.yul\":17961:18068   */\n      swap3\n      swap2\n      pop\n      pop\n      jump\t// out\n        /* \"#utility.yul\":18074:18467   */\n    tag_204:\n        /* \"#utility.yul\":18143:18149   */\n      0x00\n        /* \"#utility.yul\":18193:18194   */\n      0x08\n        /* \"#utility.yul\":18181:18191   */\n      dup4\n        /* \"#utility.yul\":18177:18195   */\n      mul\n        /* \"#utility.yul\":18216:18313   */\n      tag_399\n        /* \"#utility.yul\":18246:18312   */\n      0xffffffffffffffffffffffffffffffffffffffffffffffffffffffffffffffff\n        /* \"#utility.yul\":18235:18244   */\n      dup3\n        /* \"#utility.yul\":18216:18313   */\n      tag_203\n      jump\t// in\n    tag_399:\n        /* \"#utility.yul\":18334:18373   */\n      tag_400\n        /* \"#utility.yul\":18364:18372   */\n      dup7\n        /* \"#utility.yul\":18353:18362   */\n      dup4\n        /* \"#utility.yul\":18334:18373   */\n      tag_203\n      jump\t// in\n    tag_400:\n        /* \"#utility.yul\":18322:18373   */\n      swap6\n      pop\n        /* \"#utility.yul\":18406:18410   */\n      dup1\n        /* \"#utility.yul\":18402:18411   */\n      not\n        /* \"#utility.yul\":18395:18400   */\n      dup5\n        /* \"#utility.yul\":18391:18412   */\n      and\n        /* \"#utility.yul\":18382:18412   */\n      swap4\n      pop\n        /* \"#utility.yul\":18455:18459   */\n      dup1\n        /* \"#utility.yul\":18445:18453   */\n      dup7\n        /* \"#utility.yul\":18441:18460   */\n      and\n        /* \"#utility.yul\":18434:18439   */\n      dup5\n        /* \"#utility.yul\":18431:18461   */\n      or\n        /* \"#utility.yul\":18421:18461   */\n      swap3\n      pop\n        /* \"#utility.yul\":18150:18467   */\n      pop\n      pop\n        /* \"#utility.yul\":18074:18467   */\n      swap4\n      swap3\n      pop\n      pop\n      pop\n      jump\t// out\n        /* \"#utility.yul\":18473:18533   */\n    tag_205:\n        /* \"#utility.yul\":18501:18504   */\n      0x00\n        /* \"#utility.yul\":18522:18527   */\n      dup2\n        /* \"#utility.yul\":18515:18527   */\n      swap1\n      pop\n        /* \"#utility.yul\":18473:18533   */\n      swap2\n      swap1\n      pop\n      jump\t// out\n        /* \"#utility.yul\":18539:18681   */\n    tag_206:\n        /* \"#utility.yul\":18589:18598   */\n      0x00\n        /* \"#utility.yul\":18622:18675   */\n      tag_403\n        /* \"#utility.yul\":18640:18674   */\n      tag_404\n        /* \"#utility.yul\":18649:18673   */\n      tag_405\n        /* \"#utility.yul\":18667:18672   */\n      dup5\n        /* \"#utility.yul\":18649:18673   */\n      tag_198\n      jump\t// in\n    tag_405:\n        /* \"#utility.yul\":18640:18674   */\n      tag_205\n      jump\t// in\n    tag_404:\n        /* \"#utility.yul\":18622:18675   */\n      tag_198\n      jump\t// in\n    tag_403:\n        /* \"#utility.yul\":18609:18675   */\n      swap1\n      pop\n        /* \"#utility.yul\":18539:18681   */\n      swap2\n      swap1\n      pop\n      jump\t// out\n        /* \"#utility.yul\":18687:18762   */\n    tag_207:\n        /* \"#utility.yul\":18730:18733   */\n      0x00\n        /* \"#utility.yul\":18751:18756   */\n      dup2\n        /* \"#utility.yul\":18744:18756   */\n      swap1\n      pop\n        /* \"#utility.yul\":18687:18762   */\n      swap2\n      swap1\n      pop\n      jump\t// out\n        /* \"#utility.yul\":18768:19037   */\n    tag_208:\n        /* \"#utility.yul\":18878:18917   */\n      tag_408\n        /* \"#utility.yul\":18909:18916   */\n      dup4\n        /* \"#utility.yul\":18878:18917   */\n      tag_206\n      jump\t// in\n    tag_408:\n        /* \"#utility.yul\":18939:19030   */\n      tag_409\n        /* \"#utility.yul\":18988:19029   */\n      tag_410\n        /* \"#utility.yul\":19012:19028   */\n      dup3\n        /* \"#utility.yul\":18988:19029   */\n      tag_207\n      jump\t// in\n    tag_410:\n        /* \"#utility.yul\":18980:18986   */\n      dup5\n        /* \"#utility.yul\":18973:18977   */\n      dup5\n        /* \"#utility.yul\":18967:18978   */\n      sload\n        /* \"#utility.yul\":18939:19030   */\n      tag_204\n      jump\t// in\n    tag_409:\n        /* \"#utility.yul\":18933:18937   */\n      dup3\n        /* \"#utility.yul\":18926:19031   */\n      sstore\n        /* \"#utility.yul\":18844:19037   */\n      pop\n        /* \"#utility.yul\":18768:19037   */\n      pop\n      pop\n      pop\n      jump\t// out\n        /* \"#utility.yul\":19043:19116   */\n    tag_209:\n        /* \"#utility.yul\":19088:19091   */\n      0x00\n        /* \"#utility.yul\":19043:19116   */\n      swap1\n      jump\t// out\n        /* \"#utility.yul\":19122:19311   */\n    tag_210:\n        /* \"#utility.yul\":19199:19231   */\n      tag_413\n      tag_209\n      jump\t// in\n    tag_413:\n        /* \"#utility.yul\":19240:19305   */\n      tag_414\n        /* \"#utility.yul\":19298:19304   */\n      dup2\n        /* \"#utility.yul\":19290:19296   */\n      dup5\n        /* \"#utility.yul\":19284:19288   */\n      dup5\n        /* \"#utility.yul\":19240:19305   */\n      tag_208\n      jump\t// in\n    tag_414:\n        /* \"#utility.yul\":19175:19311   */\n      pop\n        /* \"#utility.yul\":19122:19311   */\n      pop\n      pop\n      jump\t// out\n        /* \"#utility.yul\":19317:19503   */\n    tag_211:\n        /* \"#utility.yul\":19377:19497   */\n    tag_416:\n        /* \"#utility.yul\":19394:19397   */\n      dup2\n        /* \"#utility.yul\":19387:19392   */\n      dup2\n        /* \"#utility.yul\":19384:19398   */\n      lt\n        /* \"#utility.yul\":19377:19497   */\n      iszero\n      tag_418\n      jumpi\n        /* \"#utility.yul\":19448:19487   */\n      tag_419\n        /* \"#utility.yul\":19485:19486   */\n      0x00\n        /* \"#utility.yul\":19478:19483   */\n      dup3\n        /* \"#utility.yul\":19448:19487   */\n      tag_210\n      jump\t// in\n    tag_419:\n        /* \"#utility.yul\":19421:19422   */\n      0x01\n        /* \"#utility.yul\":19414:19419   */\n      dup2\n        /* \"#utility.yul\":19410:19423   */\n      add\n        /* \"#utility.yul\":19401:19423   */\n      swap1\n      pop\n        /* \"#utility.yul\":19377:19497   */\n      jump(tag_416)\n    tag_418:\n        /* \"#utility.yul\":19317:19503   */\n      pop\n      pop\n      jump\t// out\n        /* \"#utility.yul\":19509:20052   */\n    tag_212:\n        /* \"#utility.yul\":19610:19612   */\n      0x1f\n        /* \"#utility.yul\":19605:19608   */\n      dup3\n        /* \"#utility.yul\":19602:19613   */\n      gt\n        /* \"#utility.yul\":19599:20045   */\n      iszero\n      tag_421\n      jumpi\n        /* \"#utility.yul\":19644:19682   */\n      tag_422\n        /* \"#utility.yul\":19676:19681   */\n      dup2\n        /* \"#utility.yul\":19644:19682   */\n      tag_201\n      jump\t// in\n    tag_422:\n        /* \"#utility.yul\":19728:19757   */\n      tag_423\n        /* \"#utility.yul\":19746:19756   */\n      dup5\n        /* \"#utility.yul\":19728:19757   */\n      tag_202\n      jump\t// in\n    tag_423:\n        /* \"#utility.yul\":19718:19726   */\n      dup2\n        /* \"#utility.yul\":19714:19758   */\n      add\n        /* \"#utility.yul\":19911:19913   */\n      0x20\n        /* \"#utility.yul\":19899:19909   */\n      dup6\n        /* \"#utility.yul\":19896:19914   */\n      lt\n        /* \"#utility.yul\":19893:19942   */\n      iszero\n      tag_424\n      jumpi\n        /* \"#utility.yul\":19932:19940   */\n      dup2\n        /* \"#utility.yul\":19917:19940   */\n      swap1\n      pop\n        /* \"#utility.yul\":19893:19942   */\n    tag_424:\n        /* \"#utility.yul\":19955:20035   */\n      tag_425\n        /* \"#utility.yul\":20011:20033   */\n      tag_426\n        /* \"#utility.yul\":20029:20032   */\n      dup6\n        /* \"#utility.yul\":20011:20033   */\n      tag_202\n      jump\t// in\n    tag_426:\n        /* \"#utility.yul\":20001:20009   */\n      dup4\n        /* \"#utility.yul\":19997:20034   */\n      add\n        /* \"#utility.yul\":19984:19995   */\n      dup3\n        /* \"#utility.yul\":19955:20035   */\n      tag_211\n      jump\t// in\n    tag_425:\n        /* \"#utility.yul\":19614:20045   */\n      pop\n      pop\n        /* \"#utility.yul\":19599:20045   */\n    tag_421:\n        /* \"#utility.yul\":19509:20052   */\n      pop\n      pop\n      pop\n      jump\t// out\n        /* \"#utility.yul\":20058:20175   */\n    tag_213:\n        /* \"#utility.yul\":20112:20120   */\n      0x00\n        /* \"#utility.yul\":20162:20167   */\n      dup3\n        /* \"#utility.yul\":20156:20160   */\n      dup3\n        /* \"#utility.yul\":20152:20168   */\n      shr\n        /* \"#utility.yul\":20131:20168   */\n      swap1\n      pop\n        /* \"#utility.yul\":20058:20175   */\n      swap3\n      swap2\n      pop\n      pop\n      jump\t// out\n        /* \"#utility.yul\":20181:20350   */\n    tag_214:\n        /* \"#utility.yul\":20225:20231   */\n      0x00\n        /* \"#utility.yul\":20258:20309   */\n      tag_429\n        /* \"#utility.yul\":20306:20307   */\n      0x00\n        /* \"#utility.yul\":20302:20308   */\n      not\n        /* \"#utility.yul\":20294:20299   */\n      dup5\n        /* \"#utility.yul\":20291:20292   */\n      0x08\n        /* \"#utility.yul\":20287:20300   */\n      mul\n        /* \"#utility.yul\":20258:20309   */\n      tag_213\n      jump\t// in\n    tag_429:\n        /* \"#utility.yul\":20254:20310   */\n      not\n        /* \"#utility.yul\":20339:20343   */\n      dup1\n        /* \"#utility.yul\":20333:20337   */\n      dup4\n        /* \"#utility.yul\":20329:20344   */\n      and\n        /* \"#utility.yul\":20319:20344   */\n      swap2\n      pop\n        /* \"#utility.yul\":20232:20350   */\n      pop\n        /* \"#utility.yul\":20181:20350   */\n      swap3\n      swap2\n      pop\n      pop\n      jump\t// out\n        /* \"#utility.yul\":20355:20650   */\n    tag_215:\n        /* \"#utility.yul\":20431:20435   */\n      0x00\n        /* \"#utility.yul\":20577:20606   */\n      tag_431\n        /* \"#utility.yul\":20602:20605   */\n      dup4\n        /* \"#utility.yul\":20596:20600   */\n      dup4\n        /* \"#utility.yul\":20577:20606   */\n      tag_214\n      jump\t// in\n    tag_431:\n        /* \"#utility.yul\":20569:20606   */\n      swap2\n      pop\n        /* \"#utility.yul\":20639:20642   */\n      dup3\n        /* \"#utility.yul\":20636:20637   */\n      0x02\n        /* \"#utility.yul\":20632:20643   */\n      mul\n        /* \"#utility.yul\":20626:20630   */\n      dup3\n        /* \"#utility.yul\":20623:20644   */\n      or\n        /* \"#utility.yul\":20615:20644   */\n      swap1\n      pop\n        /* \"#utility.yul\":20355:20650   */\n      swap3\n      swap2\n      pop\n      pop\n      jump\t// out\n        /* \"#utility.yul\":20655:22050   */\n    tag_58:\n        /* \"#utility.yul\":20772:20809   */\n      tag_433\n        /* \"#utility.yul\":20805:20808   */\n      dup3\n        /* \"#utility.yul\":20772:20809   */\n      tag_169\n      jump\t// in\n    tag_433:\n        /* \"#utility.yul\":20874:20892   */\n      0xffffffffffffffff\n        /* \"#utility.yul\":20866:20872   */\n      dup2\n        /* \"#utility.yul\":20863:20893   */\n      gt\n        /* \"#utility.yul\":20860:20916   */\n      iszero\n      tag_434\n      jumpi\n        /* \"#utility.yul\":20896:20914   */\n      tag_435\n      tag_162\n      jump\t// in\n    tag_435:\n        /* \"#utility.yul\":20860:20916   */\n    tag_434:\n        /* \"#utility.yul\":20940:20978   */\n      tag_436\n        /* \"#utility.yul\":20972:20976   */\n      dup3\n        /* \"#utility.yul\":20966:20977   */\n      sload\n        /* \"#utility.yul\":20940:20978   */\n      tag_101\n      jump\t// in\n    tag_436:\n        /* \"#utility.yul\":21025:21092   */\n      tag_437\n        /* \"#utility.yul\":21085:21091   */\n      dup3\n        /* \"#utility.yul\":21077:21083   */\n      dup3\n        /* \"#utility.yul\":21071:21075   */\n      dup6\n        /* \"#utility.yul\":21025:21092   */\n      tag_212\n      jump\t// in\n    tag_437:\n        /* \"#utility.yul\":21119:21120   */\n      0x00\n        /* \"#utility.yul\":21143:21147   */\n      0x20\n        /* \"#utility.yul\":21130:21147   */\n      swap1\n      pop\n        /* \"#utility.yul\":21175:21177   */\n      0x1f\n        /* \"#utility.yul\":21167:21173   */\n      dup4\n        /* \"#utility.yul\":21164:21178   */\n      gt\n        /* \"#utility.yul\":21192:21193   */\n      0x01\n        /* \"#utility.yul\":21187:21805   */\n      dup2\n      eq\n      tag_439\n      jumpi\n        /* \"#utility.yul\":21849:21850   */\n      0x00\n        /* \"#utility.yul\":21866:21872   */\n      dup5\n        /* \"#utility.yul\":21863:21940   */\n      iszero\n      tag_440\n      jumpi\n        /* \"#utility.yul\":21915:21924   */\n      dup3\n        /* \"#utility.yul\":21910:21913   */\n      dup8\n        /* \"#utility.yul\":21906:21925   */\n      add\n        /* \"#utility.yul\":21900:21926   */\n      mload\n        /* \"#utility.yul\":21891:21926   */\n      swap1\n      pop\n        /* \"#utility.yul\":21863:21940   */\n    tag_440:\n        /* \"#utility.yul\":21966:22033   */\n      tag_441\n        /* \"#utility.yul\":22026:22032   */\n      dup6\n        /* \"#utility.yul\":22019:22024   */\n      dup3\n        /* \"#utility.yul\":21966:22033   */\n      tag_215\n      jump\t// in\n    tag_441:\n        /* \"#utility.yul\":21960:21964   */\n      dup7\n        /* \"#utility.yul\":21953:22034   */\n      sstore\n        /* \"#utility.yul\":21822:22044   */\n      pop\n        /* \"#utility.yul\":21157:22044   */\n      jump(tag_438)\n        /* \"#utility.yul\":21187:21805   */\n    tag_439:\n        /* \"#utility.yul\":21239:21243   */\n      0x1f\n        /* \"#utility.yul\":21235:21244   */\n      not\n        /* \"#utility.yul\":21227:21233   */\n      dup5\n        /* \"#utility.yul\":21223:21245   */\n      and\n        /* \"#utility.yul\":21273:21310   */\n      tag_442\n        /* \"#utility.yul\":21305:21309   */\n      dup7\n        /* \"#utility.yul\":21273:21310   */\n      tag_201\n      jump\t// in\n    tag_442:\n        /* \"#utility.yul\":21332:21333   */\n      0x00\n        /* \"#utility.yul\":21346:21554   */\n    tag_443:\n        /* \"#utility.yul\":21360:21367   */\n      dup3\n        /* \"#utility.yul\":21357:21358   */\n      dup2\n        /* \"#utility.yul\":21354:21368   */\n      lt\n        /* \"#utility.yul\":21346:21554   */\n      iszero\n      tag_445\n      jumpi\n        /* \"#utility.yul\":21439:21448   */\n      dup5\n        /* \"#utility.yul\":21434:21437   */\n      dup10\n        /* \"#utility.yul\":21430:21449   */\n      add\n        /* \"#utility.yul\":21424:21450   */\n      mload\n        /* \"#utility.yul\":21416:21422   */\n      dup3\n        /* \"#utility.yul\":21409:21451   */\n      sstore\n        /* \"#utility.yul\":21490:21491   */\n      0x01\n        /* \"#utility.yul\":21482:21488   */\n      dup3\n        /* \"#utility.yul\":21478:21492   */\n      add\n        /* \"#utility.yul\":21468:21492   */\n      swap2\n      pop\n        /* \"#utility.yul\":21537:21539   */\n      0x20\n        /* \"#utility.yul\":21526:21535   */\n      dup6\n        /* \"#utility.yul\":21522:21540   */\n      add\n        /* \"#utility.yul\":21509:21540   */\n      swap5\n      pop\n        /* \"#utility.yul\":21383:21387   */\n      0x20\n        /* \"#utility.yul\":21380:21381   */\n      dup2\n        /* \"#utility.yul\":21376:21388   */\n      add\n        /* \"#utility.yul\":21371:21388   */\n      swap1\n      pop\n        /* \"#utility.yul\":21346:21554   */\n      jump(tag_443)\n    tag_445:\n        /* \"#utility.yul\":21582:21588   */\n      dup7\n        /* \"#utility.yul\":21573:21580   */\n      dup4\n        /* \"#utility.yul\":21570:21589   */\n      lt\n        /* \"#utility.yul\":21567:21746   */\n      iszero\n      tag_446\n      jumpi\n        /* \"#utility.yul\":21640:21649   */\n      dup5\n        /* \"#utility.yul\":21635:21638   */\n      dup10\n        /* \"#utility.yul\":21631:21650   */\n      add\n        /* \"#utility.yul\":21625:21651   */\n      mload\n        /* \"#utility.yul\":21683:21731   */\n      tag_447\n        /* \"#utility.yul\":21725:21729   */\n      0x1f\n        /* \"#utility.yul\":21717:21723   */\n      dup10\n        /* \"#utility.yul\":21713:21730   */\n      and\n        /* \"#utility.yul\":21702:21711   */\n      dup3\n        /* \"#utility.yul\":21683:21731   */\n      tag_214\n      jump\t// in\n    tag_447:\n        /* \"#utility.yul\":21675:21681   */\n      dup4\n        /* \"#utility.yul\":21668:21732   */\n      sstore\n        /* \"#utility.yul\":21590:21746   */\n      pop\n        /* \"#utility.yul\":21567:21746   */\n    tag_446:\n        /* \"#utility.yul\":21792:21793   */\n      0x01\n        /* \"#utility.yul\":21788:21789   */\n      0x02\n        /* \"#utility.yul\":21780:21786   */\n      dup9\n        /* \"#utility.yul\":21776:21790   */\n      mul\n        /* \"#utility.yul\":21772:21794   */\n      add\n        /* \"#utility.yul\":21766:21770   */\n      dup9\n        /* \"#utility.yul\":21759:21795   */\n      sstore\n        /* \"#utility.yul\":21194:21805   */\n      pop\n      pop\n      pop\n        /* \"#utility.yul\":21157:22044   */\n    tag_438:\n      pop\n        /* \"#utility.yul\":20747:22050   */\n      pop\n      pop\n      pop\n        /* \"#utility.yul\":20655:22050   */\n      pop\n      pop\n      jump\t// out\n        /* \"#utility.yul\":22056:22174   */\n    tag_216:\n        /* \"#utility.yul\":22143:22167   */\n      tag_449\n        /* \"#utility.yul\":22161:22166   */\n      dup2\n        /* \"#utility.yul\":22143:22167   */\n      tag_156\n      jump\t// in\n    tag_449:\n        /* \"#utility.yul\":22138:22141   */\n      dup3\n        /* \"#utility.yul\":22131:22168   */\n      mstore\n        /* \"#utility.yul\":22056:22174   */\n      pop\n      pop\n      jump\t// out\n        /* \"#utility.yul\":22180:22257   */\n    tag_217:\n        /* \"#utility.yul\":22217:22224   */\n      0x00\n        /* \"#utility.yul\":22246:22251   */\n      dup2\n        /* \"#utility.yul\":22235:22251   */\n      swap1\n      pop\n        /* \"#utility.yul\":22180:22257   */\n      swap2\n      swap1\n      pop\n      jump\t// out\n        /* \"#utility.yul\":22263:22381   */\n    tag_218:\n        /* \"#utility.yul\":22350:22374   */\n      tag_452\n        /* \"#utility.yul\":22368:22373   */\n      dup2\n        /* \"#utility.yul\":22350:22374   */\n      tag_217\n      jump\t// in\n    tag_452:\n        /* \"#utility.yul\":22345:22348   */\n      dup3\n        /* \"#utility.yul\":22338:22375   */\n      mstore\n        /* \"#utility.yul\":22263:22381   */\n      pop\n      pop\n      jump\t// out\n        /* \"#utility.yul\":22387:22920   */\n    tag_62:\n        /* \"#utility.yul\":22556:22560   */\n      0x00\n        /* \"#utility.yul\":22594:22596   */\n      0x60\n        /* \"#utility.yul\":22583:22592   */\n      dup3\n        /* \"#utility.yul\":22579:22597   */\n      add\n        /* \"#utility.yul\":22571:22597   */\n      swap1\n      pop\n        /* \"#utility.yul\":22607:22678   */\n      tag_454\n        /* \"#utility.yul\":22675:22676   */\n      0x00\n        /* \"#utility.yul\":22664:22673   */\n      dup4\n        /* \"#utility.yul\":22660:22677   */\n      add\n        /* \"#utility.yul\":22651:22657   */\n      dup7\n        /* \"#utility.yul\":22607:22678   */\n      tag_216\n      jump\t// in\n    tag_454:\n        /* \"#utility.yul\":22725:22734   */\n      dup2\n        /* \"#utility.yul\":22719:22723   */\n      dup2\n        /* \"#utility.yul\":22715:22735   */\n      sub\n        /* \"#utility.yul\":22710:22712   */\n      0x20\n        /* \"#utility.yul\":22699:22708   */\n      dup4\n        /* \"#utility.yul\":22695:22713   */\n      add\n        /* \"#utility.yul\":22688:22736   */\n      mstore\n        /* \"#utility.yul\":22753:22831   */\n      tag_455\n        /* \"#utility.yul\":22826:22830   */\n      dup2\n        /* \"#utility.yul\":22817:22823   */\n      dup6\n        /* \"#utility.yul\":22753:22831   */\n      tag_175\n      jump\t// in\n    tag_455:\n        /* \"#utility.yul\":22745:22831   */\n      swap1\n      pop\n        /* \"#utility.yul\":22841:22913   */\n      tag_456\n        /* \"#utility.yul\":22909:22911   */\n      0x40\n        /* \"#utility.yul\":22898:22907   */\n      dup4\n        /* \"#utility.yul\":22894:22912   */\n      add\n        /* \"#utility.yul\":22885:22891   */\n      dup5\n        /* \"#utility.yul\":22841:22913   */\n      tag_218\n      jump\t// in\n    tag_456:\n        /* \"#utility.yul\":22387:22920   */\n      swap5\n      swap4\n      pop\n      pop\n      pop\n      pop\n      jump\t// out\n        /* \"#utility.yul\":22926:23097   */\n    tag_219:\n        /* \"#utility.yul\":23066:23089   */\n      0x456d61696c2063616e6e6f7420626520656d7074790000000000000000000000\n        /* \"#utility.yul\":23062:23063   */\n      0x00\n        /* \"#utility.yul\":23054:23060   */\n      dup3\n        /* \"#utility.yul\":23050:23064   */\n      add\n        /* \"#utility.yul\":23043:23090   */\n      mstore\n        /* \"#utility.yul\":22926:23097   */\n      pop\n      jump\t// out\n        /* \"#utility.yul\":23103:23469   */\n    tag_220:\n        /* \"#utility.yul\":23245:23248   */\n      0x00\n        /* \"#utility.yul\":23266:23333   */\n      tag_459\n        /* \"#utility.yul\":23330:23332   */\n      0x15\n        /* \"#utility.yul\":23325:23328   */\n      dup4\n        /* \"#utility.yul\":23266:23333   */\n      tag_174\n      jump\t// in\n    tag_459:\n        /* \"#utility.yul\":23259:23333   */\n      swap2\n      pop\n        /* \"#utility.yul\":23342:23435   */\n      tag_460\n        /* \"#utility.yul\":23431:23434   */\n      dup3\n        /* \"#utility.yul\":23342:23435   */\n      tag_219\n      jump\t// in\n    tag_460:\n        /* \"#utility.yul\":23460:23462   */\n      0x20\n        /* \"#utility.yul\":23455:23458   */\n      dup3\n        /* \"#utility.yul\":23451:23463   */\n      add\n        /* \"#utility.yul\":23444:23463   */\n      swap1\n      pop\n        /* \"#utility.yul\":23103:23469   */\n      swap2\n      swap1\n      pop\n      jump\t// out\n        /* \"#utility.yul\":23475:23894   */\n    tag_68:\n        /* \"#utility.yul\":23641:23645   */\n      0x00\n        /* \"#utility.yul\":23679:23681   */\n      0x20\n        /* \"#utility.yul\":23668:23677   */\n      dup3\n        /* \"#utility.yul\":23664:23682   */\n      add\n        /* \"#utility.yul\":23656:23682   */\n      swap1\n      pop\n        /* \"#utility.yul\":23728:23737   */\n      dup2\n        /* \"#utility.yul\":23722:23726   */\n      dup2\n        /* \"#utility.yul\":23718:23738   */\n      sub\n        /* \"#utility.yul\":23714:23715   */\n      0x00\n        /* \"#utility.yul\":23703:23712   */\n      dup4\n        /* \"#utility.yul\":23699:23716   */\n      add\n        /* \"#utility.yul\":23692:23739   */\n      mstore\n        /* \"#utility.yul\":23756:23887   */\n      tag_462\n        /* \"#utility.yul\":23882:23886   */\n      dup2\n        /* \"#utility.yul\":23756:23887   */\n      tag_220\n      jump\t// in\n    tag_462:\n        /* \"#utility.yul\":23748:23887   */\n      swap1\n      pop\n        /* \"#utility.yul\":23475:23894   */\n      swap2\n      swap1\n      pop\n      jump\t// out\n        /* \"#utility.yul\":23900:24615   */\n    tag_73:\n        /* \"#utility.yul\":24109:24113   */\n      0x00\n        /* \"#utility.yul\":24147:24149   */\n      0x60\n        /* \"#utility.yul\":24136:24145   */\n      dup3\n        /* \"#utility.yul\":24132:24150   */\n      add\n        /* \"#utility.yul\":24124:24150   */\n      swap1\n      pop\n        /* \"#utility.yul\":24196:24205   */\n      dup2\n        /* \"#utility.yul\":24190:24194   */\n      dup2\n        /* \"#utility.yul\":24186:24206   */\n      sub\n        /* \"#utility.yul\":24182:24183   */\n      0x00\n        /* \"#utility.yul\":24171:24180   */\n      dup4\n        /* \"#utility.yul\":24167:24184   */\n      add\n        /* \"#utility.yul\":24160:24207   */\n      mstore\n        /* \"#utility.yul\":24224:24302   */\n      tag_464\n        /* \"#utility.yul\":24297:24301   */\n      dup2\n        /* \"#utility.yul\":24288:24294   */\n      dup7\n        /* \"#utility.yul\":24224:24302   */\n      tag_175\n      jump\t// in\n    tag_464:\n        /* \"#utility.yul\":24216:24302   */\n      swap1\n      pop\n        /* \"#utility.yul\":24349:24358   */\n      dup2\n        /* \"#utility.yul\":24343:24347   */\n      dup2\n        /* \"#utility.yul\":24339:24359   */\n      sub\n        /* \"#utility.yul\":24334:24336   */\n      0x20\n        /* \"#utility.yul\":24323:24332   */\n      dup4\n        /* \"#utility.yul\":24319:24337   */\n      add\n        /* \"#utility.yul\":24312:24360   */\n      mstore\n        /* \"#utility.yul\":24377:24455   */\n      tag_465\n        /* \"#utility.yul\":24450:24454   */\n      dup2\n        /* \"#utility.yul\":24441:24447   */\n      dup6\n        /* \"#utility.yul\":24377:24455   */\n      tag_175\n      jump\t// in\n    tag_465:\n        /* \"#utility.yul\":24369:24455   */\n      swap1\n      pop\n        /* \"#utility.yul\":24502:24511   */\n      dup2\n        /* \"#utility.yul\":24496:24500   */\n      dup2\n        /* \"#utility.yul\":24492:24512   */\n      sub\n        /* \"#utility.yul\":24487:24489   */\n      0x40\n        /* \"#utility.yul\":24476:24485   */\n      dup4\n        /* \"#utility.yul\":24472:24490   */\n      add\n        /* \"#utility.yul\":24465:24513   */\n      mstore\n        /* \"#utility.yul\":24530:24608   */\n      tag_466\n        /* \"#utility.yul\":24603:24607   */\n      dup2\n        /* \"#utility.yul\":24594:24600   */\n      dup5\n        /* \"#utility.yul\":24530:24608   */\n      tag_175\n      jump\t// in\n    tag_466:\n        /* \"#utility.yul\":24522:24608   */\n      swap1\n      pop\n        /* \"#utility.yul\":23900:24615   */\n      swap5\n      swap4\n      pop\n      pop\n      pop\n      pop\n      jump\t// out\n        /* \"#utility.yul\":24621:24801   */\n    tag_221:\n        /* \"#utility.yul\":24761:24793   */\n      0x4e6577206964656e7469666965722063616e6e6f7420626520656d7074790000\n        /* \"#utility.yul\":24757:24758   */\n      0x00\n        /* \"#utility.yul\":24749:24755   */\n      dup3\n        /* \"#utility.yul\":24745:24759   */\n      add\n        /* \"#utility.yul\":24738:24794   */\n      mstore\n        /* \"#utility.yul\":24621:24801   */\n      pop\n      jump\t// out\n        /* \"#utility.yul\":24807:25173   */\n    tag_222:\n        /* \"#utility.yul\":24949:24952   */\n      0x00\n        /* \"#utility.yul\":24970:25037   */\n      tag_469\n        /* \"#utility.yul\":25034:25036   */\n      0x1e\n        /* \"#utility.yul\":25029:25032   */\n      dup4\n        /* \"#utility.yul\":24970:25037   */\n      tag_174\n      jump\t// in\n    tag_469:\n        /* \"#utility.yul\":24963:25037   */\n      swap2\n      pop\n        /* \"#utility.yul\":25046:25139   */\n      tag_470\n        /* \"#utility.yul\":25135:25138   */\n      dup3\n        /* \"#utility.yul\":25046:25139   */\n      tag_221\n      jump\t// in\n    tag_470:\n        /* \"#utility.yul\":25164:25166   */\n      0x20\n        /* \"#utility.yul\":25159:25162   */\n      dup3\n        /* \"#utility.yul\":25155:25167   */\n      add\n        /* \"#utility.yul\":25148:25167   */\n      swap1\n      pop\n        /* \"#utility.yul\":24807:25173   */\n      swap2\n      swap1\n      pop\n      jump\t// out\n        /* \"#utility.yul\":25179:25598   */\n    tag_77:\n        /* \"#utility.yul\":25345:25349   */\n      0x00\n        /* \"#utility.yul\":25383:25385   */\n      0x20\n        /* \"#utility.yul\":25372:25381   */\n      dup3\n        /* \"#utility.yul\":25368:25386   */\n      add\n        /* \"#utility.yul\":25360:25386   */\n      swap1\n      pop\n        /* \"#utility.yul\":25432:25441   */\n      dup2\n        /* \"#utility.yul\":25426:25430   */\n      dup2\n        /* \"#utility.yul\":25422:25442   */\n      sub\n        /* \"#utility.yul\":25418:25419   */\n      0x00\n        /* \"#utility.yul\":25407:25416   */\n      dup4\n        /* \"#utility.yul\":25403:25420   */\n      add\n        /* \"#utility.yul\":25396:25443   */\n      mstore\n        /* \"#utility.yul\":25460:25591   */\n      tag_472\n        /* \"#utility.yul\":25586:25590   */\n      dup2\n        /* \"#utility.yul\":25460:25591   */\n      tag_222\n      jump\t// in\n    tag_472:\n        /* \"#utility.yul\":25452:25591   */\n      swap1\n      pop\n        /* \"#utility.yul\":25179:25598   */\n      swap2\n      swap1\n      pop\n      jump\t// out\n        /* \"#utility.yul\":25604:25776   */\n    tag_223:\n        /* \"#utility.yul\":25744:25768   */\n      0x496e76616c6964206e6577206964656e74696669657200000000000000000000\n        /* \"#utility.yul\":25740:25741   */\n      0x00\n        /* \"#utility.yul\":25732:25738   */\n      dup3\n        /* \"#utility.yul\":25728:25742   */\n      add\n        /* \"#utility.yul\":25721:25769   */\n      mstore\n        /* \"#utility.yul\":25604:25776   */\n      pop\n      jump\t// out\n        /* \"#utility.yul\":25782:26148   */\n    tag_224:\n        /* \"#utility.yul\":25924:25927   */\n      0x00\n        /* \"#utility.yul\":25945:26012   */\n      tag_475\n        /* \"#utility.yul\":26009:26011   */\n      0x16\n        /* \"#utility.yul\":26004:26007   */\n      dup4\n        /* \"#utility.yul\":25945:26012   */\n      tag_174\n      jump\t// in\n    tag_475:\n        /* \"#utility.yul\":25938:26012   */\n      swap2\n      pop\n        /* \"#utility.yul\":26021:26114   */\n      tag_476\n        /* \"#utility.yul\":26110:26113   */\n      dup3\n        /* \"#utility.yul\":26021:26114   */\n      tag_223\n      jump\t// in\n    tag_476:\n        /* \"#utility.yul\":26139:26141   */\n      0x20\n        /* \"#utility.yul\":26134:26137   */\n      dup3\n        /* \"#utility.yul\":26130:26142   */\n      add\n        /* \"#utility.yul\":26123:26142   */\n      swap1\n      pop\n        /* \"#utility.yul\":25782:26148   */\n      swap2\n      swap1\n      pop\n      jump\t// out\n        /* \"#utility.yul\":26154:26573   */\n    tag_83:\n        /* \"#utility.yul\":26320:26324   */\n      0x00\n        /* \"#utility.yul\":26358:26360   */\n      0x20\n        /* \"#utility.yul\":26347:26356   */\n      dup3\n        /* \"#utility.yul\":26343:26361   */\n      add\n        /* \"#utility.yul\":26335:26361   */\n      swap1\n      pop\n        /* \"#utility.yul\":26407:26416   */\n      dup2\n        /* \"#utility.yul\":26401:26405   */\n      dup2\n        /* \"#utility.yul\":26397:26417   */\n      sub\n        /* \"#utility.yul\":26393:26394   */\n      0x00\n        /* \"#utility.yul\":26382:26391   */\n      dup4\n        /* \"#utility.yul\":26378:26395   */\n      add\n        /* \"#utility.yul\":26371:26418   */\n      mstore\n        /* \"#utility.yul\":26435:26566   */\n      tag_478\n        /* \"#utility.yul\":26561:26565   */\n      dup2\n        /* \"#utility.yul\":26435:26566   */\n      tag_224\n      jump\t// in\n    tag_478:\n        /* \"#utility.yul\":26427:26566   */\n      swap1\n      pop\n        /* \"#utility.yul\":26154:26573   */\n      swap2\n      swap1\n      pop\n      jump\t// out\n        /* \"#utility.yul\":26579:26755   */\n    tag_225:\n        /* \"#utility.yul\":26719:26747   */\n      0x4964656e7469666965722063616e6e6f7420626520656d707479000000000000\n        /* \"#utility.yul\":26715:26716   */\n      0x00\n        /* \"#utility.yul\":26707:26713   */\n      dup3\n        /* \"#utility.yul\":26703:26717   */\n      add\n        /* \"#utility.yul\":26696:26748   */\n      mstore\n        /* \"#utility.yul\":26579:26755   */\n      pop\n      jump\t// out\n        /* \"#utility.yul\":26761:27127   */\n    tag_226:\n        /* \"#utility.yul\":26903:26906   */\n      0x00\n        /* \"#utility.yul\":26924:26991   */\n      tag_481\n        /* \"#utility.yul\":26988:26990   */\n      0x1a\n        /* \"#utility.yul\":26983:26986   */\n      dup4\n        /* \"#utility.yul\":26924:26991   */\n      tag_174\n      jump\t// in\n    tag_481:\n        /* \"#utility.yul\":26917:26991   */\n      swap2\n      pop\n        /* \"#utility.yul\":27000:27093   */\n      tag_482\n        /* \"#utility.yul\":27089:27092   */\n      dup3\n        /* \"#utility.yul\":27000:27093   */\n      tag_225\n      jump\t// in\n    tag_482:\n        /* \"#utility.yul\":27118:27120   */\n      0x20\n        /* \"#utility.yul\":27113:27116   */\n      dup3\n        /* \"#utility.yul\":27109:27121   */\n      add\n        /* \"#utility.yul\":27102:27121   */\n      swap1\n      pop\n        /* \"#utility.yul\":26761:27127   */\n      swap2\n      swap1\n      pop\n      jump\t// out\n        /* \"#utility.yul\":27133:27552   */\n    tag_89:\n        /* \"#utility.yul\":27299:27303   */\n      0x00\n        /* \"#utility.yul\":27337:27339   */\n      0x20\n        /* \"#utility.yul\":27326:27335   */\n      dup3\n        /* \"#utility.yul\":27322:27340   */\n      add\n        /* \"#utility.yul\":27314:27340   */\n      swap1\n      pop\n        /* \"#utility.yul\":27386:27395   */\n      dup2\n        /* \"#utility.yul\":27380:27384   */\n      dup2\n        /* \"#utility.yul\":27376:27396   */\n      sub\n        /* \"#utility.yul\":27372:27373   */\n      0x00\n        /* \"#utility.yul\":27361:27370   */\n      dup4\n        /* \"#utility.yul\":27357:27374   */\n      add\n        /* \"#utility.yul\":27350:27397   */\n      mstore\n        /* \"#utility.yul\":27414:27545   */\n      tag_484\n        /* \"#utility.yul\":27540:27544   */\n      dup2\n        /* \"#utility.yul\":27414:27545   */\n      tag_226\n      jump\t// in\n    tag_484:\n        /* \"#utility.yul\":27406:27545   */\n      swap1\n      pop\n        /* \"#utility.yul\":27133:27552   */\n      swap2\n      swap1\n      pop\n      jump\t// out\n        /* \"#utility.yul\":27558:27780   */\n    tag_227:\n        /* \"#utility.yul\":27698:27732   */\n      0x44494420616c72656164792065786973747320666f7220746869732061646472\n        /* \"#utility.yul\":27694:27695   */\n      0x00\n        /* \"#utility.yul\":27686:27692   */\n      dup3\n        /* \"#utility.yul\":27682:27696   */\n      add\n        /* \"#utility.yul\":27675:27733   */\n      mstore\n        /* \"#utility.yul\":27767:27772   */\n      0x6573730000000000000000000000000000000000000000000000000000000000\n        /* \"#utility.yul\":27762:27764   */\n      0x20\n        /* \"#utility.yul\":27754:27760   */\n      dup3\n        /* \"#utility.yul\":27750:27765   */\n      add\n        /* \"#utility.yul\":27743:27773   */\n      mstore\n        /* \"#utility.yul\":27558:27780   */\n      pop\n      jump\t// out\n        /* \"#utility.yul\":27786:28152   */\n    tag_228:\n        /* \"#utility.yul\":27928:27931   */\n      0x00\n        /* \"#utility.yul\":27949:28016   */\n      tag_487\n        /* \"#utility.yul\":28013:28015   */\n      0x23\n        /* \"#utility.yul\":28008:28011   */\n      dup4\n        /* \"#utility.yul\":27949:28016   */\n      tag_174\n      jump\t// in\n    tag_487:\n        /* \"#utility.yul\":27942:28016   */\n      swap2\n      pop\n        /* \"#utility.yul\":28025:28118   */\n      tag_488\n        /* \"#utility.yul\":28114:28117   */\n      dup3\n        /* \"#utility.yul\":28025:28118   */\n      tag_227\n      jump\t// in\n    tag_488:\n        /* \"#utility.yul\":28143:28145   */\n      0x40\n        /* \"#utility.yul\":28138:28141   */\n      dup3\n        /* \"#utility.yul\":28134:28146   */\n      add\n        /* \"#utility.yul\":28127:28146   */\n      swap1\n      pop\n        /* \"#utility.yul\":27786:28152   */\n      swap2\n      swap1\n      pop\n      jump\t// out\n        /* \"#utility.yul\":28158:28577   */\n    tag_92:\n        /* \"#utility.yul\":28324:28328   */\n      0x00\n        /* \"#utility.yul\":28362:28364   */\n      0x20\n        /* \"#utility.yul\":28351:28360   */\n      dup3\n        /* \"#utility.yul\":28347:28365   */\n      add\n        /* \"#utility.yul\":28339:28365   */\n      swap1\n      pop\n        /* \"#utility.yul\":28411:28420   */\n      dup2\n        /* \"#utility.yul\":28405:28409   */\n      dup2\n        /* \"#utility.yul\":28401:28421   */\n      sub\n        /* \"#utility.yul\":28397:28398   */\n      0x00\n        /* \"#utility.yul\":28386:28395   */\n      dup4\n        /* \"#utility.yul\":28382:28399   */\n      add\n        /* \"#utility.yul\":28375:28422   */\n      mstore\n        /* \"#utility.yul\":28439:28570   */\n      tag_490\n        /* \"#utility.yul\":28565:28569   */\n      dup2\n        /* \"#utility.yul\":28439:28570   */\n      tag_228\n      jump\t// in\n    tag_490:\n        /* \"#utility.yul\":28431:28570   */\n      swap1\n      pop\n        /* \"#utility.yul\":28158:28577   */\n      swap2\n      swap1\n      pop\n      jump\t// out\n        /* \"#utility.yul\":28583:28762   */\n    tag_229:\n        /* \"#utility.yul\":28723:28754   */\n      0x4e6f2044494420666f756e6420666f7220746869732061646472657373000000\n        /* \"#utility.yul\":28719:28720   */\n      0x00\n        /* \"#utility.yul\":28711:28717   */\n      dup3\n        /* \"#utility.yul\":28707:28721   */\n      add\n        /* \"#utility.yul\":28700:28755   */\n      mstore\n        /* \"#utility.yul\":28583:28762   */\n      pop\n      jump\t// out\n        /* \"#utility.yul\":28768:29134   */\n    tag_230:\n        /* \"#utility.yul\":28910:28913   */\n      0x00\n        /* \"#utility.yul\":28931:28998   */\n      tag_493\n        /* \"#utility.yul\":28995:28997   */\n      0x1d\n        /* \"#utility.yul\":28990:28993   */\n      dup4\n        /* \"#utility.yul\":28931:28998   */\n      tag_174\n      jump\t// in\n    tag_493:\n        /* \"#utility.yul\":28924:28998   */\n      swap2\n      pop\n        /* \"#utility.yul\":29007:29100   */\n      tag_494\n        /* \"#utility.yul\":29096:29099   */\n      dup3\n        /* \"#utility.yul\":29007:29100   */\n      tag_229\n      jump\t// in\n    tag_494:\n        /* \"#utility.yul\":29125:29127   */\n      0x20\n        /* \"#utility.yul\":29120:29123   */\n      dup3\n        /* \"#utility.yul\":29116:29128   */\n      add\n        /* \"#utility.yul\":29109:29128   */\n      swap1\n      pop\n        /* \"#utility.yul\":28768:29134   */\n      swap2\n      swap1\n      pop\n      jump\t// out\n        /* \"#utility.yul\":29140:29559   */\n    tag_132:\n        /* \"#utility.yul\":29306:29310   */\n      0x00\n        /* \"#utility.yul\":29344:29346   */\n      0x20\n        /* \"#utility.yul\":29333:29342   */\n      dup3\n        /* \"#utility.yul\":29329:29347   */\n      add\n        /* \"#utility.yul\":29321:29347   */\n      swap1\n      pop\n        /* \"#utility.yul\":29393:29402   */\n      dup2\n        /* \"#utility.yul\":29387:29391   */\n      dup2\n        /* \"#utility.yul\":29383:29403   */\n      sub\n        /* \"#utility.yul\":29379:29380   */\n      0x00\n        /* \"#utility.yul\":29368:29377   */\n      dup4\n        /* \"#utility.yul\":29364:29381   */\n      add\n        /* \"#utility.yul\":29357:29404   */\n      mstore\n        /* \"#utility.yul\":29421:29552   */\n      tag_496\n        /* \"#utility.yul\":29547:29551   */\n      dup2\n        /* \"#utility.yul\":29421:29552   */\n      tag_230\n      jump\t// in\n    tag_496:\n        /* \"#utility.yul\":29413:29552   */\n      swap1\n      pop\n        /* \"#utility.yul\":29140:29559   */\n      swap2\n      swap1\n      pop\n      jump\t// out\n        /* \"#utility.yul\":29565:29746   */\n    tag_231:\n        /* \"#utility.yul\":29705:29738   */\n      0x4e6f20726f6c65732061737369676e656420666f722074686973207573657200\n        /* \"#utility.yul\":29701:29702   */\n      0x00\n        /* \"#utility.yul\":29693:29699   */\n      dup3\n        /* \"#utility.yul\":29689:29703   */\n      add\n        /* \"#utility.yul\":29682:29739   */\n      mstore\n        /* \"#utility.yul\":29565:29746   */\n      pop\n      jump\t// out\n        /* \"#utility.yul\":29752:30118   */\n    tag_232:\n        /* \"#utility.yul\":29894:29897   */\n      0x00\n        /* \"#utility.yul\":29915:29982   */\n      tag_499\n        /* \"#utility.yul\":29979:29981   */\n      0x1f\n        /* \"#utility.yul\":29974:29977   */\n      dup4\n        /* \"#utility.yul\":29915:29982   */\n      tag_174\n      jump\t// in\n    tag_499:\n        /* \"#utility.yul\":29908:29982   */\n      swap2\n      pop\n        /* \"#utility.yul\":29991:30084   */\n      tag_500\n        /* \"#utility.yul\":30080:30083   */\n      dup3\n        /* \"#utility.yul\":29991:30084   */\n      tag_231\n      jump\t// in\n    tag_500:\n        /* \"#utility.yul\":30109:30111   */\n      0x20\n        /* \"#utility.yul\":30104:30107   */\n      dup3\n        /* \"#utility.yul\":30100:30112   */\n      add\n        /* \"#utility.yul\":30093:30112   */\n      swap1\n      pop\n        /* \"#utility.yul\":29752:30118   */\n      swap2\n      swap1\n      pop\n      jump\t// out\n        /* \"#utility.yul\":30124:30543   */\n    tag_151:\n        /* \"#utility.yul\":30290:30294   */\n      0x00\n        /* \"#utility.yul\":30328:30330   */\n      0x20\n        /* \"#utility.yul\":30317:30326   */\n      dup3\n        /* \"#utility.yul\":30313:30331   */\n      add\n        /* \"#utility.yul\":30305:30331   */\n      swap1\n      pop\n        /* \"#utility.yul\":30377:30386   */\n      dup2\n        /* \"#utility.yul\":30371:30375   */\n      dup2\n        /* \"#utility.yul\":30367:30387   */\n      sub\n        /* \"#utility.yul\":30363:30364   */\n      0x00\n        /* \"#utility.yul\":30352:30361   */\n      dup4\n        /* \"#utility.yul\":30348:30365   */\n      add\n        /* \"#utility.yul\":30341:30388   */\n      mstore\n        /* \"#utility.yul\":30405:30536   */\n      tag_502\n        /* \"#utility.yul\":30531:30535   */\n      dup2\n        /* \"#utility.yul\":30405:30536   */\n      tag_232\n      jump\t// in\n    tag_502:\n        /* \"#utility.yul\":30397:30536   */\n      swap1\n      pop\n        /* \"#utility.yul\":30124:30543   */\n      swap2\n      swap1\n      pop\n      jump\t// out\n\n    auxdata: 0xa2646970667358221220afbf2040e430fa9be1f8b2e001daed320404ea91fa0c7d0d076c9b0b7605da1b64736f6c634300081a0033\n}\n",
				"bytecode": {
					"linkReferences": {},
					"object": "608060405234801561000f575f80fd5b506040518060400160405280600781526020017f6d616e616765720000000000000000000000000000000000000000000000000081525060015f3373ffffffffffffffffffffffffffffffffffffffff1673ffffffffffffffffffffffffffffffffffffffff1681526020019081526020015f20908161008f919061036e565b5060025f3373ffffffffffffffffffffffffffffffffffffffff1673ffffffffffffffffffffffffffffffffffffffff1681526020019081526020015f208060018154018082558091505060019003905f5260205f20015f6040518060400160405280600781526020017f6d616e61676572000000000000000000000000000000000000000000000000008152509091909150908161012e919061036e565b5061043d565b5f81519050919050565b7f4e487b71000000000000000000000000000000000000000000000000000000005f52604160045260245ffd5b7f4e487b71000000000000000000000000000000000000000000000000000000005f52602260045260245ffd5b5f60028204905060018216806101af57607f821691505b6020821081036101c2576101c161016b565b5b50919050565b5f819050815f5260205f209050919050565b5f6020601f8301049050919050565b5f82821b905092915050565b5f600883026102247fffffffffffffffffffffffffffffffffffffffffffffffffffffffffffffffff826101e9565b61022e86836101e9565b95508019841693508086168417925050509392505050565b5f819050919050565b5f819050919050565b5f61027261026d61026884610246565b61024f565b610246565b9050919050565b5f819050919050565b61028b83610258565b61029f61029782610279565b8484546101f5565b825550505050565b5f90565b6102b36102a7565b6102be818484610282565b505050565b5b818110156102e1576102d65f826102ab565b6001810190506102c4565b5050565b601f821115610326576102f7816101c8565b610300846101da565b8101602085101561030f578190505b61032361031b856101da565b8301826102c3565b50505b505050565b5f82821c905092915050565b5f6103465f198460080261032b565b1980831691505092915050565b5f61035e8383610337565b9150826002028217905092915050565b61037782610134565b67ffffffffffffffff8111156103905761038f61013e565b5b61039a8254610198565b6103a58282856102e5565b5f60209050601f8311600181146103d6575f84156103c4578287015190505b6103ce8582610353565b865550610435565b601f1984166103e4866101c8565b5f5b8281101561040b578489015182556001820191506020850194506020810190506103e6565b868310156104285784890151610424601f891682610337565b8355505b6001600288020188555050505b505050505050565b61239d8061044a5f395ff3fe608060405234801561000f575f80fd5b5060043610610086575f3560e01c80637a5b4f59116100595780637a5b4f59146100fa578063b7dfcbee14610118578063bc9c2d5514610134578063fde081741461015257610086565b8063022bf9c11461008a5780630890d80c146100a657806314c95832146100c25780633457d3e2146100de575b5f80fd5b6100a4600480360381019061009f919061168f565b610170565b005b6100c060048036038101906100bb91906116e9565b610527565b005b6100dc60048036038101906100d7919061178d565b610728565b005b6100f860048036038101906100f3919061178d565b610930565b005b610102610b54565b60405161010f919061188f565b60405180910390f35b610132600480360381019061012d919061168f565b610e24565b005b61013c61110c565b60405161014991906118f7565b60405180910390f35b61015a6112a4565b60405161016791906119d2565b60405180910390f35b6040518060400160405280600781526020017f6d616e61676572000000000000000000000000000000000000000000000000008152508051906020012060015f3373ffffffffffffffffffffffffffffffffffffffff1673ffffffffffffffffffffffffffffffffffffffff1681526020019081526020015f206040516101f79190611aeb565b60405180910390201461023f576040517f08c379a000000000000000000000000000000000000000000000000000000000815260040161023690611b4b565b60405180910390fd5b5f73ffffffffffffffffffffffffffffffffffffffff165f803373ffffffffffffffffffffffffffffffffffffffff1673ffffffffffffffffffffffffffffffffffffffff1681526020019081526020015f206001015f9054906101000a900473ffffffffffffffffffffffffffffffffffffffff1673ffffffffffffffffffffffffffffffffffffffff160361030b576040517f08c379a000000000000000000000000000000000000000000000000000000000815260040161030290611bd9565b60405180910390fd5b5f81511161034e576040517f08c379a000000000000000000000000000000000000000000000000000000000815260040161034590611c41565b60405180910390fd5b5f338383426040516020016103669493929190611d07565b60405160208183030381529060405280519060200120905060405180608001604052803373ffffffffffffffffffffffffffffffffffffffff1681526020018381526020018281526020014281525060045f8573ffffffffffffffffffffffffffffffffffffffff1673ffffffffffffffffffffffffffffffffffffffff1681526020019081526020015f205f820151815f015f6101000a81548173ffffffffffffffffffffffffffffffffffffffff021916908373ffffffffffffffffffffffffffffffffffffffff160217905550602082015181600101908161044b9190611eed565b50604082015181600201556060820151816003015590505060025f8473ffffffffffffffffffffffffffffffffffffffff1673ffffffffffffffffffffffffffffffffffffffff1681526020019081526020015f2082908060018154018082558091505060019003905f5260205f20015f9091909190915090816104cf9190611eed565b503373ffffffffffffffffffffffffffffffffffffffff167ff4313cb022699889c6eddb590e42342301cdae4824fd424ffdfdeb23d4cdbbe984848460405161051a93929190611fe3565b60405180910390a2505050565b5f73ffffffffffffffffffffffffffffffffffffffff165f803373ffffffffffffffffffffffffffffffffffffffff1673ffffffffffffffffffffffffffffffffffffffff1681526020019081526020015f206001015f9054906101000a900473ffffffffffffffffffffffffffffffffffffffff1673ffffffffffffffffffffffffffffffffffffffff16036105f3576040517f08c379a00000000000000000000000000000000000000000000000000000000081526004016105ea90611bd9565b60405180910390fd5b5f825111610636576040517f08c379a000000000000000000000000000000000000000000000000000000000815260040161062d90612069565b60405180910390fd5b60405180606001604052808481526020018381526020018281525060035f3373ffffffffffffffffffffffffffffffffffffffff1673ffffffffffffffffffffffffffffffffffffffff1681526020019081526020015f205f820151815f0190816106a19190611eed565b5060208201518160010190816106b79190611eed565b5060408201518160020190816106cd9190611eed565b509050503373ffffffffffffffffffffffffffffffffffffffff167f298e769f14d3266a2093cc631184150a9584b1b38c1fb1385be30e0665322bf284848460405161071b93929190612087565b60405180910390a2505050565b5f81511161076b576040517f08c379a00000000000000000000000000000000000000000000000000000000081526004016107629061211b565b60405180910390fd5b5f73ffffffffffffffffffffffffffffffffffffffff165f803373ffffffffffffffffffffffffffffffffffffffff1673ffffffffffffffffffffffffffffffffffffffff1681526020019081526020015f206001015f9054906101000a900473ffffffffffffffffffffffffffffffffffffffff1673ffffffffffffffffffffffffffffffffffffffff1603610837576040517f08c379a000000000000000000000000000000000000000000000000000000000815260040161082e90611bd9565b60405180910390fd5b5f61084061110c565b90508180519060200120818051906020012003610892576040517f08c379a000000000000000000000000000000000000000000000000000000000815260040161088990612183565b60405180910390fd5b815f803373ffffffffffffffffffffffffffffffffffffffff1673ffffffffffffffffffffffffffffffffffffffff1681526020019081526020015f205f0190816108dd9190611eed565b503373ffffffffffffffffffffffffffffffffffffffff167f1b7934654ba536b6962955e057ce42885353bbaad8c605a5ce0678e632f284108360405161092491906118f7565b60405180910390a25050565b5f815111610973576040517f08c379a000000000000000000000000000000000000000000000000000000000815260040161096a906121eb565b60405180910390fd5b5f73ffffffffffffffffffffffffffffffffffffffff165f803373ffffffffffffffffffffffffffffffffffffffff1673ffffffffffffffffffffffffffffffffffffffff1681526020019081526020015f206001015f9054906101000a900473ffffffffffffffffffffffffffffffffffffffff1673ffffffffffffffffffffffffffffffffffffffff1614610a3f576040517f08c379a0000000000000000000000000000000000000000000000000000000008152600401610a3690612279565b60405180910390fd5b60405180604001604052808281526020013373ffffffffffffffffffffffffffffffffffffffff168152505f803373ffffffffffffffffffffffffffffffffffffffff1673ffffffffffffffffffffffffffffffffffffffff1681526020019081526020015f205f820151815f019081610ab99190611eed565b506020820151816001015f6101000a81548173ffffffffffffffffffffffffffffffffffffffff021916908373ffffffffffffffffffffffffffffffffffffffff1602179055509050503373ffffffffffffffffffffffffffffffffffffffff167f1b7934654ba536b6962955e057ce42885353bbaad8c605a5ce0678e632f2841082604051610b4991906118f7565b60405180910390a250565b610b5c6114c7565b5f73ffffffffffffffffffffffffffffffffffffffff165f803373ffffffffffffffffffffffffffffffffffffffff1673ffffffffffffffffffffffffffffffffffffffff1681526020019081526020015f206001015f9054906101000a900473ffffffffffffffffffffffffffffffffffffffff1673ffffffffffffffffffffffffffffffffffffffff1603610c28576040517f08c379a0000000000000000000000000000000000000000000000000000000008152600401610c1f90611bd9565b60405180910390fd5b60035f3373ffffffffffffffffffffffffffffffffffffffff1673ffffffffffffffffffffffffffffffffffffffff1681526020019081526020015f206040518060600160405290815f82018054610c7f90611a1f565b80601f0160208091040260200160405190810160405280929190818152602001828054610cab90611a1f565b8015610cf65780601f10610ccd57610100808354040283529160200191610cf6565b820191905f5260205f20905b815481529060010190602001808311610cd957829003601f168201915b50505050508152602001600182018054610d0f90611a1f565b80601f0160208091040260200160405190810160405280929190818152602001828054610d3b90611a1f565b8015610d865780601f10610d5d57610100808354040283529160200191610d86565b820191905f5260205f20905b815481529060010190602001808311610d6957829003601f168201915b50505050508152602001600282018054610d9f90611a1f565b80601f0160208091040260200160405190810160405280929190818152602001828054610dcb90611a1f565b8015610e165780601f10610ded57610100808354040283529160200191610e16565b820191905f5260205f20905b815481529060010190602001808311610df957829003601f168201915b505050505081525050905090565b6040518060400160405280600781526020017f6d616e61676572000000000000000000000000000000000000000000000000008152508051906020012060015f3373ffffffffffffffffffffffffffffffffffffffff1673ffffffffffffffffffffffffffffffffffffffff1681526020019081526020015f20604051610eab9190611aeb565b604051809103902014610ef3576040517f08c379a0000000000000000000000000000000000000000000000000000000008152600401610eea90611b4b565b60405180910390fd5b5f73ffffffffffffffffffffffffffffffffffffffff165f803373ffffffffffffffffffffffffffffffffffffffff1673ffffffffffffffffffffffffffffffffffffffff1681526020019081526020015f206001015f9054906101000a900473ffffffffffffffffffffffffffffffffffffffff1673ffffffffffffffffffffffffffffffffffffffff1603610fbf576040517f08c379a0000000000000000000000000000000000000000000000000000000008152600401610fb690611bd9565b60405180910390fd5b5f815111611002576040517f08c379a0000000000000000000000000000000000000000000000000000000008152600401610ff990611c41565b60405180910390fd5b8060015f8473ffffffffffffffffffffffffffffffffffffffff1673ffffffffffffffffffffffffffffffffffffffff1681526020019081526020015f20908161104c9190611eed565b5060025f8373ffffffffffffffffffffffffffffffffffffffff1673ffffffffffffffffffffffffffffffffffffffff1681526020019081526020015f2081908060018154018082558091505060019003905f5260205f20015f9091909190915090816110b99190611eed565b508173ffffffffffffffffffffffffffffffffffffffff167f3565795c2fb8842c21347d277937778bbcfe788b5b4f790fc5e408786cbe9c908260405161110091906118f7565b60405180910390a25050565b60605f73ffffffffffffffffffffffffffffffffffffffff165f803373ffffffffffffffffffffffffffffffffffffffff1673ffffffffffffffffffffffffffffffffffffffff1681526020019081526020015f206001015f9054906101000a900473ffffffffffffffffffffffffffffffffffffffff1673ffffffffffffffffffffffffffffffffffffffff16036111da576040517f08c379a00000000000000000000000000000000000000000000000000000000081526004016111d1906122e1565b60405180910390fd5b5f803373ffffffffffffffffffffffffffffffffffffffff1673ffffffffffffffffffffffffffffffffffffffff1681526020019081526020015f205f01805461122390611a1f565b80601f016020809104026020016040519081016040528092919081815260200182805461124f90611a1f565b801561129a5780601f106112715761010080835404028352916020019161129a565b820191905f5260205f20905b81548152906001019060200180831161127d57829003601f168201915b5050505050905090565b60605f73ffffffffffffffffffffffffffffffffffffffff165f803373ffffffffffffffffffffffffffffffffffffffff1673ffffffffffffffffffffffffffffffffffffffff1681526020019081526020015f206001015f9054906101000a900473ffffffffffffffffffffffffffffffffffffffff1673ffffffffffffffffffffffffffffffffffffffff1603611372576040517f08c379a000000000000000000000000000000000000000000000000000000000815260040161136990611bd9565b60405180910390fd5b5f60025f3373ffffffffffffffffffffffffffffffffffffffff1673ffffffffffffffffffffffffffffffffffffffff1681526020019081526020015f20805480602002602001604051908101604052809291908181526020015f905b82821015611477578382905f5260205f200180546113ec90611a1f565b80601f016020809104026020016040519081016040528092919081815260200182805461141890611a1f565b80156114635780601f1061143a57610100808354040283529160200191611463565b820191905f5260205f20905b81548152906001019060200180831161144657829003601f168201915b5050505050815260200190600101906113cf565b5050505090505f8151116114c0576040517f08c379a00000000000000000000000000000000000000000000000000000000081526004016114b790612349565b60405180910390fd5b8091505090565b60405180606001604052806060815260200160608152602001606081525090565b5f604051905090565b5f80fd5b5f80fd5b5f73ffffffffffffffffffffffffffffffffffffffff82169050919050565b5f611522826114f9565b9050919050565b61153281611518565b811461153c575f80fd5b50565b5f8135905061154d81611529565b92915050565b5f80fd5b5f80fd5b5f601f19601f8301169050919050565b7f4e487b71000000000000000000000000000000000000000000000000000000005f52604160045260245ffd5b6115a18261155b565b810181811067ffffffffffffffff821117156115c0576115bf61156b565b5b80604052505050565b5f6115d26114e8565b90506115de8282611598565b919050565b5f67ffffffffffffffff8211156115fd576115fc61156b565b5b6116068261155b565b9050602081019050919050565b828183375f83830152505050565b5f61163361162e846115e3565b6115c9565b90508281526020810184848401111561164f5761164e611557565b5b61165a848285611613565b509392505050565b5f82601f83011261167657611675611553565b5b8135611686848260208601611621565b91505092915050565b5f80604083850312156116a5576116a46114f1565b5b5f6116b28582860161153f565b925050602083013567ffffffffffffffff8111156116d3576116d26114f5565b5b6116df85828601611662565b9150509250929050565b5f805f60608486031215611700576116ff6114f1565b5b5f84013567ffffffffffffffff81111561171d5761171c6114f5565b5b61172986828701611662565b935050602084013567ffffffffffffffff81111561174a576117496114f5565b5b61175686828701611662565b925050604084013567ffffffffffffffff811115611777576117766114f5565b5b61178386828701611662565b9150509250925092565b5f602082840312156117a2576117a16114f1565b5b5f82013567ffffffffffffffff8111156117bf576117be6114f5565b5b6117cb84828501611662565b91505092915050565b5f81519050919050565b5f82825260208201905092915050565b8281835e5f83830152505050565b5f611806826117d4565b61181081856117de565b93506118208185602086016117ee565b6118298161155b565b840191505092915050565b5f606083015f8301518482035f86015261184e82826117fc565b9150506020830151848203602086015261186882826117fc565b9150506040830151848203604086015261188282826117fc565b9150508091505092915050565b5f6020820190508181035f8301526118a78184611834565b905092915050565b5f82825260208201905092915050565b5f6118c9826117d4565b6118d381856118af565b93506118e38185602086016117ee565b6118ec8161155b565b840191505092915050565b5f6020820190508181035f83015261190f81846118bf565b905092915050565b5f81519050919050565b5f82825260208201905092915050565b5f819050602082019050919050565b5f61194b83836117fc565b905092915050565b5f602082019050919050565b5f61196982611917565b6119738185611921565b93508360208202850161198585611931565b805f5b858110156119c057848403895281516119a18582611940565b94506119ac83611953565b925060208a01995050600181019050611988565b50829750879550505050505092915050565b5f6020820190508181035f8301526119ea818461195f565b905092915050565b7f4e487b71000000000000000000000000000000000000000000000000000000005f52602260045260245ffd5b5f6002820490506001821680611a3657607f821691505b602082108103611a4957611a486119f2565b5b50919050565b5f81905092915050565b5f819050815f5260205f209050919050565b5f8154611a7781611a1f565b611a818186611a4f565b9450600182165f8114611a9b5760018114611ab057611ae2565b60ff1983168652811515820286019350611ae2565b611ab985611a59565b5f5b83811015611ada57815481890152600182019150602081019050611abb565b838801955050505b50505092915050565b5f611af68284611a6b565b915081905092915050565b7f556e617574686f72697a656420616374696f6e000000000000000000000000005f82015250565b5f611b356013836118af565b9150611b4082611b01565b602082019050919050565b5f6020820190508181035f830152611b6281611b29565b9050919050565b7f4e6f206578697374696e672044494420666f756e6420666f72207468697320615f8201527f6464726573730000000000000000000000000000000000000000000000000000602082015250565b5f611bc36026836118af565b9150611bce82611b69565b604082019050919050565b5f6020820190508181035f830152611bf081611bb7565b9050919050565b7f526f6c652063616e6e6f7420626520656d7074790000000000000000000000005f82015250565b5f611c2b6014836118af565b9150611c3682611bf7565b602082019050919050565b5f6020820190508181035f830152611c5881611c1f565b9050919050565b5f8160601b9050919050565b5f611c7582611c5f565b9050919050565b5f611c8682611c6b565b9050919050565b611c9e611c9982611518565b611c7c565b82525050565b5f81905092915050565b5f611cb8826117d4565b611cc28185611ca4565b9350611cd28185602086016117ee565b80840191505092915050565b5f819050919050565b5f819050919050565b611d01611cfc82611cde565b611ce7565b82525050565b5f611d128287611c8d565b601482019150611d228286611c8d565b601482019150611d328285611cae565b9150611d3e8284611cf0565b60208201915081905095945050505050565b5f819050815f5260205f209050919050565b5f6020601f8301049050919050565b5f82821b905092915050565b5f60088302611dac7fffffffffffffffffffffffffffffffffffffffffffffffffffffffffffffffff82611d71565b611db68683611d71565b95508019841693508086168417925050509392505050565b5f819050919050565b5f611df1611dec611de784611cde565b611dce565b611cde565b9050919050565b5f819050919050565b611e0a83611dd7565b611e1e611e1682611df8565b848454611d7d565b825550505050565b5f90565b611e32611e26565b611e3d818484611e01565b505050565b5b81811015611e6057611e555f82611e2a565b600181019050611e43565b5050565b601f821115611ea557611e7681611d50565b611e7f84611d62565b81016020851015611e8e578190505b611ea2611e9a85611d62565b830182611e42565b50505b505050565b5f82821c905092915050565b5f611ec55f1984600802611eaa565b1980831691505092915050565b5f611edd8383611eb6565b9150826002028217905092915050565b611ef6826117d4565b67ffffffffffffffff811115611f0f57611f0e61156b565b5b611f198254611a1f565b611f24828285611e64565b5f60209050601f831160018114611f55575f8415611f43578287015190505b611f4d8582611ed2565b865550611fb4565b601f198416611f6386611d50565b5f5b82811015611f8a57848901518255600182019150602085019450602081019050611f65565b86831015611fa75784890151611fa3601f891682611eb6565b8355505b6001600288020188555050505b505050505050565b611fc581611518565b82525050565b5f819050919050565b611fdd81611fcb565b82525050565b5f606082019050611ff65f830186611fbc565b818103602083015261200881856118bf565b90506120176040830184611fd4565b949350505050565b7f456d61696c2063616e6e6f7420626520656d70747900000000000000000000005f82015250565b5f6120536015836118af565b915061205e8261201f565b602082019050919050565b5f6020820190508181035f83015261208081612047565b9050919050565b5f6060820190508181035f83015261209f81866118bf565b905081810360208301526120b381856118bf565b905081810360408301526120c781846118bf565b9050949350505050565b7f4e6577206964656e7469666965722063616e6e6f7420626520656d70747900005f82015250565b5f612105601e836118af565b9150612110826120d1565b602082019050919050565b5f6020820190508181035f830152612132816120f9565b9050919050565b7f496e76616c6964206e6577206964656e746966696572000000000000000000005f82015250565b5f61216d6016836118af565b915061217882612139565b602082019050919050565b5f6020820190508181035f83015261219a81612161565b9050919050565b7f4964656e7469666965722063616e6e6f7420626520656d7074790000000000005f82015250565b5f6121d5601a836118af565b91506121e0826121a1565b602082019050919050565b5f6020820190508181035f830152612202816121c9565b9050919050565b7f44494420616c72656164792065786973747320666f72207468697320616464725f8201527f6573730000000000000000000000000000000000000000000000000000000000602082015250565b5f6122636023836118af565b915061226e82612209565b604082019050919050565b5f6020820190508181035f83015261229081612257565b9050919050565b7f4e6f2044494420666f756e6420666f72207468697320616464726573730000005f82015250565b5f6122cb601d836118af565b91506122d682612297565b602082019050919050565b5f6020820190508181035f8301526122f8816122bf565b9050919050565b7f4e6f20726f6c65732061737369676e656420666f7220746869732075736572005f82015250565b5f612333601f836118af565b915061233e826122ff565b602082019050919050565b5f6020820190508181035f83015261236081612327565b905091905056fea2646970667358221220afbf2040e430fa9be1f8b2e001daed320404ea91fa0c7d0d076c9b0b7605da1b64736f6c634300081a0033",
					"opcodes": "PUSH1 0x80 PUSH1 0x40 MSTORE CALLVALUE DUP1 ISZERO PUSH2 0xF JUMPI PUSH0 DUP1 REVERT JUMPDEST POP PUSH1 0x40 MLOAD DUP1 PUSH1 0x40 ADD PUSH1 0x40 MSTORE DUP1 PUSH1 0x7 DUP2 MSTORE PUSH1 0x20 ADD PUSH32 0x6D616E6167657200000000000000000000000000000000000000000000000000 DUP2 MSTORE POP PUSH1 0x1 PUSH0 CALLER PUSH20 0xFFFFFFFFFFFFFFFFFFFFFFFFFFFFFFFFFFFFFFFF AND PUSH20 0xFFFFFFFFFFFFFFFFFFFFFFFFFFFFFFFFFFFFFFFF AND DUP2 MSTORE PUSH1 0x20 ADD SWAP1 DUP2 MSTORE PUSH1 0x20 ADD PUSH0 KECCAK256 SWAP1 DUP2 PUSH2 0x8F SWAP2 SWAP1 PUSH2 0x36E JUMP JUMPDEST POP PUSH1 0x2 PUSH0 CALLER PUSH20 0xFFFFFFFFFFFFFFFFFFFFFFFFFFFFFFFFFFFFFFFF AND PUSH20 0xFFFFFFFFFFFFFFFFFFFFFFFFFFFFFFFFFFFFFFFF AND DUP2 MSTORE PUSH1 0x20 ADD SWAP1 DUP2 MSTORE PUSH1 0x20 ADD PUSH0 KECCAK256 DUP1 PUSH1 0x1 DUP2 SLOAD ADD DUP1 DUP3 SSTORE DUP1 SWAP2 POP POP PUSH1 0x1 SWAP1 SUB SWAP1 PUSH0 MSTORE PUSH1 0x20 PUSH0 KECCAK256 ADD PUSH0 PUSH1 0x40 MLOAD DUP1 PUSH1 0x40 ADD PUSH1 0x40 MSTORE DUP1 PUSH1 0x7 DUP2 MSTORE PUSH1 0x20 ADD PUSH32 0x6D616E6167657200000000000000000000000000000000000000000000000000 DUP2 MSTORE POP SWAP1 SWAP2 SWAP1 SWAP2 POP SWAP1 DUP2 PUSH2 0x12E SWAP2 SWAP1 PUSH2 0x36E JUMP JUMPDEST POP PUSH2 0x43D JUMP JUMPDEST PUSH0 DUP2 MLOAD SWAP1 POP SWAP2 SWAP1 POP JUMP JUMPDEST PUSH32 0x4E487B7100000000000000000000000000000000000000000000000000000000 PUSH0 MSTORE PUSH1 0x41 PUSH1 0x4 MSTORE PUSH1 0x24 PUSH0 REVERT JUMPDEST PUSH32 0x4E487B7100000000000000000000000000000000000000000000000000000000 PUSH0 MSTORE PUSH1 0x22 PUSH1 0x4 MSTORE PUSH1 0x24 PUSH0 REVERT JUMPDEST PUSH0 PUSH1 0x2 DUP3 DIV SWAP1 POP PUSH1 0x1 DUP3 AND DUP1 PUSH2 0x1AF JUMPI PUSH1 0x7F DUP3 AND SWAP2 POP JUMPDEST PUSH1 0x20 DUP3 LT DUP2 SUB PUSH2 0x1C2 JUMPI PUSH2 0x1C1 PUSH2 0x16B JUMP JUMPDEST JUMPDEST POP SWAP2 SWAP1 POP JUMP JUMPDEST PUSH0 DUP2 SWAP1 POP DUP2 PUSH0 MSTORE PUSH1 0x20 PUSH0 KECCAK256 SWAP1 POP SWAP2 SWAP1 POP JUMP JUMPDEST PUSH0 PUSH1 0x20 PUSH1 0x1F DUP4 ADD DIV SWAP1 POP SWAP2 SWAP1 POP JUMP JUMPDEST PUSH0 DUP3 DUP3 SHL SWAP1 POP SWAP3 SWAP2 POP POP JUMP JUMPDEST PUSH0 PUSH1 0x8 DUP4 MUL PUSH2 0x224 PUSH32 0xFFFFFFFFFFFFFFFFFFFFFFFFFFFFFFFFFFFFFFFFFFFFFFFFFFFFFFFFFFFFFFFF DUP3 PUSH2 0x1E9 JUMP JUMPDEST PUSH2 0x22E DUP7 DUP4 PUSH2 0x1E9 JUMP JUMPDEST SWAP6 POP DUP1 NOT DUP5 AND SWAP4 POP DUP1 DUP7 AND DUP5 OR SWAP3 POP POP POP SWAP4 SWAP3 POP POP POP JUMP JUMPDEST PUSH0 DUP2 SWAP1 POP SWAP2 SWAP1 POP JUMP JUMPDEST PUSH0 DUP2 SWAP1 POP SWAP2 SWAP1 POP JUMP JUMPDEST PUSH0 PUSH2 0x272 PUSH2 0x26D PUSH2 0x268 DUP5 PUSH2 0x246 JUMP JUMPDEST PUSH2 0x24F JUMP JUMPDEST PUSH2 0x246 JUMP JUMPDEST SWAP1 POP SWAP2 SWAP1 POP JUMP JUMPDEST PUSH0 DUP2 SWAP1 POP SWAP2 SWAP1 POP JUMP JUMPDEST PUSH2 0x28B DUP4 PUSH2 0x258 JUMP JUMPDEST PUSH2 0x29F PUSH2 0x297 DUP3 PUSH2 0x279 JUMP JUMPDEST DUP5 DUP5 SLOAD PUSH2 0x1F5 JUMP JUMPDEST DUP3 SSTORE POP POP POP POP JUMP JUMPDEST PUSH0 SWAP1 JUMP JUMPDEST PUSH2 0x2B3 PUSH2 0x2A7 JUMP JUMPDEST PUSH2 0x2BE DUP2 DUP5 DUP5 PUSH2 0x282 JUMP JUMPDEST POP POP POP JUMP JUMPDEST JUMPDEST DUP2 DUP2 LT ISZERO PUSH2 0x2E1 JUMPI PUSH2 0x2D6 PUSH0 DUP3 PUSH2 0x2AB JUMP JUMPDEST PUSH1 0x1 DUP2 ADD SWAP1 POP PUSH2 0x2C4 JUMP JUMPDEST POP POP JUMP JUMPDEST PUSH1 0x1F DUP3 GT ISZERO PUSH2 0x326 JUMPI PUSH2 0x2F7 DUP2 PUSH2 0x1C8 JUMP JUMPDEST PUSH2 0x300 DUP5 PUSH2 0x1DA JUMP JUMPDEST DUP2 ADD PUSH1 0x20 DUP6 LT ISZERO PUSH2 0x30F JUMPI DUP2 SWAP1 POP JUMPDEST PUSH2 0x323 PUSH2 0x31B DUP6 PUSH2 0x1DA JUMP JUMPDEST DUP4 ADD DUP3 PUSH2 0x2C3 JUMP JUMPDEST POP POP JUMPDEST POP POP POP JUMP JUMPDEST PUSH0 DUP3 DUP3 SHR SWAP1 POP SWAP3 SWAP2 POP POP JUMP JUMPDEST PUSH0 PUSH2 0x346 PUSH0 NOT DUP5 PUSH1 0x8 MUL PUSH2 0x32B JUMP JUMPDEST NOT DUP1 DUP4 AND SWAP2 POP POP SWAP3 SWAP2 POP POP JUMP JUMPDEST PUSH0 PUSH2 0x35E DUP4 DUP4 PUSH2 0x337 JUMP JUMPDEST SWAP2 POP DUP3 PUSH1 0x2 MUL DUP3 OR SWAP1 POP SWAP3 SWAP2 POP POP JUMP JUMPDEST PUSH2 0x377 DUP3 PUSH2 0x134 JUMP JUMPDEST PUSH8 0xFFFFFFFFFFFFFFFF DUP2 GT ISZERO PUSH2 0x390 JUMPI PUSH2 0x38F PUSH2 0x13E JUMP JUMPDEST JUMPDEST PUSH2 0x39A DUP3 SLOAD PUSH2 0x198 JUMP JUMPDEST PUSH2 0x3A5 DUP3 DUP3 DUP6 PUSH2 0x2E5 JUMP JUMPDEST PUSH0 PUSH1 0x20 SWAP1 POP PUSH1 0x1F DUP4 GT PUSH1 0x1 DUP2 EQ PUSH2 0x3D6 JUMPI PUSH0 DUP5 ISZERO PUSH2 0x3C4 JUMPI DUP3 DUP8 ADD MLOAD SWAP1 POP JUMPDEST PUSH2 0x3CE DUP6 DUP3 PUSH2 0x353 JUMP JUMPDEST DUP7 SSTORE POP PUSH2 0x435 JUMP JUMPDEST PUSH1 0x1F NOT DUP5 AND PUSH2 0x3E4 DUP7 PUSH2 0x1C8 JUMP JUMPDEST PUSH0 JUMPDEST DUP3 DUP2 LT ISZERO PUSH2 0x40B JUMPI DUP5 DUP10 ADD MLOAD DUP3 SSTORE PUSH1 0x1 DUP3 ADD SWAP2 POP PUSH1 0x20 DUP6 ADD SWAP5 POP PUSH1 0x20 DUP2 ADD SWAP1 POP PUSH2 0x3E6 JUMP JUMPDEST DUP7 DUP4 LT ISZERO PUSH2 0x428 JUMPI DUP5 DUP10 ADD MLOAD PUSH2 0x424 PUSH1 0x1F DUP10 AND DUP3 PUSH2 0x337 JUMP JUMPDEST DUP4 SSTORE POP JUMPDEST PUSH1 0x1 PUSH1 0x2 DUP9 MUL ADD DUP9 SSTORE POP POP POP JUMPDEST POP POP POP POP POP POP JUMP JUMPDEST PUSH2 0x239D DUP1 PUSH2 0x44A PUSH0 CODECOPY PUSH0 RETURN INVALID PUSH1 0x80 PUSH1 0x40 MSTORE CALLVALUE DUP1 ISZERO PUSH2 0xF JUMPI PUSH0 DUP1 REVERT JUMPDEST POP PUSH1 0x4 CALLDATASIZE LT PUSH2 0x86 JUMPI PUSH0 CALLDATALOAD PUSH1 0xE0 SHR DUP1 PUSH4 0x7A5B4F59 GT PUSH2 0x59 JUMPI DUP1 PUSH4 0x7A5B4F59 EQ PUSH2 0xFA JUMPI DUP1 PUSH4 0xB7DFCBEE EQ PUSH2 0x118 JUMPI DUP1 PUSH4 0xBC9C2D55 EQ PUSH2 0x134 JUMPI DUP1 PUSH4 0xFDE08174 EQ PUSH2 0x152 JUMPI PUSH2 0x86 JUMP JUMPDEST DUP1 PUSH4 0x22BF9C1 EQ PUSH2 0x8A JUMPI DUP1 PUSH4 0x890D80C EQ PUSH2 0xA6 JUMPI DUP1 PUSH4 0x14C95832 EQ PUSH2 0xC2 JUMPI DUP1 PUSH4 0x3457D3E2 EQ PUSH2 0xDE JUMPI JUMPDEST PUSH0 DUP1 REVERT JUMPDEST PUSH2 0xA4 PUSH1 0x4 DUP1 CALLDATASIZE SUB DUP2 ADD SWAP1 PUSH2 0x9F SWAP2 SWAP1 PUSH2 0x168F JUMP JUMPDEST PUSH2 0x170 JUMP JUMPDEST STOP JUMPDEST PUSH2 0xC0 PUSH1 0x4 DUP1 CALLDATASIZE SUB DUP2 ADD SWAP1 PUSH2 0xBB SWAP2 SWAP1 PUSH2 0x16E9 JUMP JUMPDEST PUSH2 0x527 JUMP JUMPDEST STOP JUMPDEST PUSH2 0xDC PUSH1 0x4 DUP1 CALLDATASIZE SUB DUP2 ADD SWAP1 PUSH2 0xD7 SWAP2 SWAP1 PUSH2 0x178D JUMP JUMPDEST PUSH2 0x728 JUMP JUMPDEST STOP JUMPDEST PUSH2 0xF8 PUSH1 0x4 DUP1 CALLDATASIZE SUB DUP2 ADD SWAP1 PUSH2 0xF3 SWAP2 SWAP1 PUSH2 0x178D JUMP JUMPDEST PUSH2 0x930 JUMP JUMPDEST STOP JUMPDEST PUSH2 0x102 PUSH2 0xB54 JUMP JUMPDEST PUSH1 0x40 MLOAD PUSH2 0x10F SWAP2 SWAP1 PUSH2 0x188F JUMP JUMPDEST PUSH1 0x40 MLOAD DUP1 SWAP2 SUB SWAP1 RETURN JUMPDEST PUSH2 0x132 PUSH1 0x4 DUP1 CALLDATASIZE SUB DUP2 ADD SWAP1 PUSH2 0x12D SWAP2 SWAP1 PUSH2 0x168F JUMP JUMPDEST PUSH2 0xE24 JUMP JUMPDEST STOP JUMPDEST PUSH2 0x13C PUSH2 0x110C JUMP JUMPDEST PUSH1 0x40 MLOAD PUSH2 0x149 SWAP2 SWAP1 PUSH2 0x18F7 JUMP JUMPDEST PUSH1 0x40 MLOAD DUP1 SWAP2 SUB SWAP1 RETURN JUMPDEST PUSH2 0x15A PUSH2 0x12A4 JUMP JUMPDEST PUSH1 0x40 MLOAD PUSH2 0x167 SWAP2 SWAP1 PUSH2 0x19D2 JUMP JUMPDEST PUSH1 0x40 MLOAD DUP1 SWAP2 SUB SWAP1 RETURN JUMPDEST PUSH1 0x40 MLOAD DUP1 PUSH1 0x40 ADD PUSH1 0x40 MSTORE DUP1 PUSH1 0x7 DUP2 MSTORE PUSH1 0x20 ADD PUSH32 0x6D616E6167657200000000000000000000000000000000000000000000000000 DUP2 MSTORE POP DUP1 MLOAD SWAP1 PUSH1 0x20 ADD KECCAK256 PUSH1 0x1 PUSH0 CALLER PUSH20 0xFFFFFFFFFFFFFFFFFFFFFFFFFFFFFFFFFFFFFFFF AND PUSH20 0xFFFFFFFFFFFFFFFFFFFFFFFFFFFFFFFFFFFFFFFF AND DUP2 MSTORE PUSH1 0x20 ADD SWAP1 DUP2 MSTORE PUSH1 0x20 ADD PUSH0 KECCAK256 PUSH1 0x40 MLOAD PUSH2 0x1F7 SWAP2 SWAP1 PUSH2 0x1AEB JUMP JUMPDEST PUSH1 0x40 MLOAD DUP1 SWAP2 SUB SWAP1 KECCAK256 EQ PUSH2 0x23F JUMPI PUSH1 0x40 MLOAD PUSH32 0x8C379A000000000000000000000000000000000000000000000000000000000 DUP2 MSTORE PUSH1 0x4 ADD PUSH2 0x236 SWAP1 PUSH2 0x1B4B JUMP JUMPDEST PUSH1 0x40 MLOAD DUP1 SWAP2 SUB SWAP1 REVERT JUMPDEST PUSH0 PUSH20 0xFFFFFFFFFFFFFFFFFFFFFFFFFFFFFFFFFFFFFFFF AND PUSH0 DUP1 CALLER PUSH20 0xFFFFFFFFFFFFFFFFFFFFFFFFFFFFFFFFFFFFFFFF AND PUSH20 0xFFFFFFFFFFFFFFFFFFFFFFFFFFFFFFFFFFFFFFFF AND DUP2 MSTORE PUSH1 0x20 ADD SWAP1 DUP2 MSTORE PUSH1 0x20 ADD PUSH0 KECCAK256 PUSH1 0x1 ADD PUSH0 SWAP1 SLOAD SWAP1 PUSH2 0x100 EXP SWAP1 DIV PUSH20 0xFFFFFFFFFFFFFFFFFFFFFFFFFFFFFFFFFFFFFFFF AND PUSH20 0xFFFFFFFFFFFFFFFFFFFFFFFFFFFFFFFFFFFFFFFF AND SUB PUSH2 0x30B JUMPI PUSH1 0x40 MLOAD PUSH32 0x8C379A000000000000000000000000000000000000000000000000000000000 DUP2 MSTORE PUSH1 0x4 ADD PUSH2 0x302 SWAP1 PUSH2 0x1BD9 JUMP JUMPDEST PUSH1 0x40 MLOAD DUP1 SWAP2 SUB SWAP1 REVERT JUMPDEST PUSH0 DUP2 MLOAD GT PUSH2 0x34E JUMPI PUSH1 0x40 MLOAD PUSH32 0x8C379A000000000000000000000000000000000000000000000000000000000 DUP2 MSTORE PUSH1 0x4 ADD PUSH2 0x345 SWAP1 PUSH2 0x1C41 JUMP JUMPDEST PUSH1 0x40 MLOAD DUP1 SWAP2 SUB SWAP1 REVERT JUMPDEST PUSH0 CALLER DUP4 DUP4 TIMESTAMP PUSH1 0x40 MLOAD PUSH1 0x20 ADD PUSH2 0x366 SWAP5 SWAP4 SWAP3 SWAP2 SWAP1 PUSH2 0x1D07 JUMP JUMPDEST PUSH1 0x40 MLOAD PUSH1 0x20 DUP2 DUP4 SUB SUB DUP2 MSTORE SWAP1 PUSH1 0x40 MSTORE DUP1 MLOAD SWAP1 PUSH1 0x20 ADD KECCAK256 SWAP1 POP PUSH1 0x40 MLOAD DUP1 PUSH1 0x80 ADD PUSH1 0x40 MSTORE DUP1 CALLER PUSH20 0xFFFFFFFFFFFFFFFFFFFFFFFFFFFFFFFFFFFFFFFF AND DUP2 MSTORE PUSH1 0x20 ADD DUP4 DUP2 MSTORE PUSH1 0x20 ADD DUP3 DUP2 MSTORE PUSH1 0x20 ADD TIMESTAMP DUP2 MSTORE POP PUSH1 0x4 PUSH0 DUP6 PUSH20 0xFFFFFFFFFFFFFFFFFFFFFFFFFFFFFFFFFFFFFFFF AND PUSH20 0xFFFFFFFFFFFFFFFFFFFFFFFFFFFFFFFFFFFFFFFF AND DUP2 MSTORE PUSH1 0x20 ADD SWAP1 DUP2 MSTORE PUSH1 0x20 ADD PUSH0 KECCAK256 PUSH0 DUP3 ADD MLOAD DUP2 PUSH0 ADD PUSH0 PUSH2 0x100 EXP DUP2 SLOAD DUP2 PUSH20 0xFFFFFFFFFFFFFFFFFFFFFFFFFFFFFFFFFFFFFFFF MUL NOT AND SWAP1 DUP4 PUSH20 0xFFFFFFFFFFFFFFFFFFFFFFFFFFFFFFFFFFFFFFFF AND MUL OR SWAP1 SSTORE POP PUSH1 0x20 DUP3 ADD MLOAD DUP2 PUSH1 0x1 ADD SWAP1 DUP2 PUSH2 0x44B SWAP2 SWAP1 PUSH2 0x1EED JUMP JUMPDEST POP PUSH1 0x40 DUP3 ADD MLOAD DUP2 PUSH1 0x2 ADD SSTORE PUSH1 0x60 DUP3 ADD MLOAD DUP2 PUSH1 0x3 ADD SSTORE SWAP1 POP POP PUSH1 0x2 PUSH0 DUP5 PUSH20 0xFFFFFFFFFFFFFFFFFFFFFFFFFFFFFFFFFFFFFFFF AND PUSH20 0xFFFFFFFFFFFFFFFFFFFFFFFFFFFFFFFFFFFFFFFF AND DUP2 MSTORE PUSH1 0x20 ADD SWAP1 DUP2 MSTORE PUSH1 0x20 ADD PUSH0 KECCAK256 DUP3 SWAP1 DUP1 PUSH1 0x1 DUP2 SLOAD ADD DUP1 DUP3 SSTORE DUP1 SWAP2 POP POP PUSH1 0x1 SWAP1 SUB SWAP1 PUSH0 MSTORE PUSH1 0x20 PUSH0 KECCAK256 ADD PUSH0 SWAP1 SWAP2 SWAP1 SWAP2 SWAP1 SWAP2 POP SWAP1 DUP2 PUSH2 0x4CF SWAP2 SWAP1 PUSH2 0x1EED JUMP JUMPDEST POP CALLER PUSH20 0xFFFFFFFFFFFFFFFFFFFFFFFFFFFFFFFFFFFFFFFF AND PUSH32 0xF4313CB022699889C6EDDB590E42342301CDAE4824FD424FFDFDEB23D4CDBBE9 DUP5 DUP5 DUP5 PUSH1 0x40 MLOAD PUSH2 0x51A SWAP4 SWAP3 SWAP2 SWAP1 PUSH2 0x1FE3 JUMP JUMPDEST PUSH1 0x40 MLOAD DUP1 SWAP2 SUB SWAP1 LOG2 POP POP POP JUMP JUMPDEST PUSH0 PUSH20 0xFFFFFFFFFFFFFFFFFFFFFFFFFFFFFFFFFFFFFFFF AND PUSH0 DUP1 CALLER PUSH20 0xFFFFFFFFFFFFFFFFFFFFFFFFFFFFFFFFFFFFFFFF AND PUSH20 0xFFFFFFFFFFFFFFFFFFFFFFFFFFFFFFFFFFFFFFFF AND DUP2 MSTORE PUSH1 0x20 ADD SWAP1 DUP2 MSTORE PUSH1 0x20 ADD PUSH0 KECCAK256 PUSH1 0x1 ADD PUSH0 SWAP1 SLOAD SWAP1 PUSH2 0x100 EXP SWAP1 DIV PUSH20 0xFFFFFFFFFFFFFFFFFFFFFFFFFFFFFFFFFFFFFFFF AND PUSH20 0xFFFFFFFFFFFFFFFFFFFFFFFFFFFFFFFFFFFFFFFF AND SUB PUSH2 0x5F3 JUMPI PUSH1 0x40 MLOAD PUSH32 0x8C379A000000000000000000000000000000000000000000000000000000000 DUP2 MSTORE PUSH1 0x4 ADD PUSH2 0x5EA SWAP1 PUSH2 0x1BD9 JUMP JUMPDEST PUSH1 0x40 MLOAD DUP1 SWAP2 SUB SWAP1 REVERT JUMPDEST PUSH0 DUP3 MLOAD GT PUSH2 0x636 JUMPI PUSH1 0x40 MLOAD PUSH32 0x8C379A000000000000000000000000000000000000000000000000000000000 DUP2 MSTORE PUSH1 0x4 ADD PUSH2 0x62D SWAP1 PUSH2 0x2069 JUMP JUMPDEST PUSH1 0x40 MLOAD DUP1 SWAP2 SUB SWAP1 REVERT JUMPDEST PUSH1 0x40 MLOAD DUP1 PUSH1 0x60 ADD PUSH1 0x40 MSTORE DUP1 DUP5 DUP2 MSTORE PUSH1 0x20 ADD DUP4 DUP2 MSTORE PUSH1 0x20 ADD DUP3 DUP2 MSTORE POP PUSH1 0x3 PUSH0 CALLER PUSH20 0xFFFFFFFFFFFFFFFFFFFFFFFFFFFFFFFFFFFFFFFF AND PUSH20 0xFFFFFFFFFFFFFFFFFFFFFFFFFFFFFFFFFFFFFFFF AND DUP2 MSTORE PUSH1 0x20 ADD SWAP1 DUP2 MSTORE PUSH1 0x20 ADD PUSH0 KECCAK256 PUSH0 DUP3 ADD MLOAD DUP2 PUSH0 ADD SWAP1 DUP2 PUSH2 0x6A1 SWAP2 SWAP1 PUSH2 0x1EED JUMP JUMPDEST POP PUSH1 0x20 DUP3 ADD MLOAD DUP2 PUSH1 0x1 ADD SWAP1 DUP2 PUSH2 0x6B7 SWAP2 SWAP1 PUSH2 0x1EED JUMP JUMPDEST POP PUSH1 0x40 DUP3 ADD MLOAD DUP2 PUSH1 0x2 ADD SWAP1 DUP2 PUSH2 0x6CD SWAP2 SWAP1 PUSH2 0x1EED JUMP JUMPDEST POP SWAP1 POP POP CALLER PUSH20 0xFFFFFFFFFFFFFFFFFFFFFFFFFFFFFFFFFFFFFFFF AND PUSH32 0x298E769F14D3266A2093CC631184150A9584B1B38C1FB1385BE30E0665322BF2 DUP5 DUP5 DUP5 PUSH1 0x40 MLOAD PUSH2 0x71B SWAP4 SWAP3 SWAP2 SWAP1 PUSH2 0x2087 JUMP JUMPDEST PUSH1 0x40 MLOAD DUP1 SWAP2 SUB SWAP1 LOG2 POP POP POP JUMP JUMPDEST PUSH0 DUP2 MLOAD GT PUSH2 0x76B JUMPI PUSH1 0x40 MLOAD PUSH32 0x8C379A000000000000000000000000000000000000000000000000000000000 DUP2 MSTORE PUSH1 0x4 ADD PUSH2 0x762 SWAP1 PUSH2 0x211B JUMP JUMPDEST PUSH1 0x40 MLOAD DUP1 SWAP2 SUB SWAP1 REVERT JUMPDEST PUSH0 PUSH20 0xFFFFFFFFFFFFFFFFFFFFFFFFFFFFFFFFFFFFFFFF AND PUSH0 DUP1 CALLER PUSH20 0xFFFFFFFFFFFFFFFFFFFFFFFFFFFFFFFFFFFFFFFF AND PUSH20 0xFFFFFFFFFFFFFFFFFFFFFFFFFFFFFFFFFFFFFFFF AND DUP2 MSTORE PUSH1 0x20 ADD SWAP1 DUP2 MSTORE PUSH1 0x20 ADD PUSH0 KECCAK256 PUSH1 0x1 ADD PUSH0 SWAP1 SLOAD SWAP1 PUSH2 0x100 EXP SWAP1 DIV PUSH20 0xFFFFFFFFFFFFFFFFFFFFFFFFFFFFFFFFFFFFFFFF AND PUSH20 0xFFFFFFFFFFFFFFFFFFFFFFFFFFFFFFFFFFFFFFFF AND SUB PUSH2 0x837 JUMPI PUSH1 0x40 MLOAD PUSH32 0x8C379A000000000000000000000000000000000000000000000000000000000 DUP2 MSTORE PUSH1 0x4 ADD PUSH2 0x82E SWAP1 PUSH2 0x1BD9 JUMP JUMPDEST PUSH1 0x40 MLOAD DUP1 SWAP2 SUB SWAP1 REVERT JUMPDEST PUSH0 PUSH2 0x840 PUSH2 0x110C JUMP JUMPDEST SWAP1 POP DUP2 DUP1 MLOAD SWAP1 PUSH1 0x20 ADD KECCAK256 DUP2 DUP1 MLOAD SWAP1 PUSH1 0x20 ADD KECCAK256 SUB PUSH2 0x892 JUMPI PUSH1 0x40 MLOAD PUSH32 0x8C379A000000000000000000000000000000000000000000000000000000000 DUP2 MSTORE PUSH1 0x4 ADD PUSH2 0x889 SWAP1 PUSH2 0x2183 JUMP JUMPDEST PUSH1 0x40 MLOAD DUP1 SWAP2 SUB SWAP1 REVERT JUMPDEST DUP2 PUSH0 DUP1 CALLER PUSH20 0xFFFFFFFFFFFFFFFFFFFFFFFFFFFFFFFFFFFFFFFF AND PUSH20 0xFFFFFFFFFFFFFFFFFFFFFFFFFFFFFFFFFFFFFFFF AND DUP2 MSTORE PUSH1 0x20 ADD SWAP1 DUP2 MSTORE PUSH1 0x20 ADD PUSH0 KECCAK256 PUSH0 ADD SWAP1 DUP2 PUSH2 0x8DD SWAP2 SWAP1 PUSH2 0x1EED JUMP JUMPDEST POP CALLER PUSH20 0xFFFFFFFFFFFFFFFFFFFFFFFFFFFFFFFFFFFFFFFF AND PUSH32 0x1B7934654BA536B6962955E057CE42885353BBAAD8C605A5CE0678E632F28410 DUP4 PUSH1 0x40 MLOAD PUSH2 0x924 SWAP2 SWAP1 PUSH2 0x18F7 JUMP JUMPDEST PUSH1 0x40 MLOAD DUP1 SWAP2 SUB SWAP1 LOG2 POP POP JUMP JUMPDEST PUSH0 DUP2 MLOAD GT PUSH2 0x973 JUMPI PUSH1 0x40 MLOAD PUSH32 0x8C379A000000000000000000000000000000000000000000000000000000000 DUP2 MSTORE PUSH1 0x4 ADD PUSH2 0x96A SWAP1 PUSH2 0x21EB JUMP JUMPDEST PUSH1 0x40 MLOAD DUP1 SWAP2 SUB SWAP1 REVERT JUMPDEST PUSH0 PUSH20 0xFFFFFFFFFFFFFFFFFFFFFFFFFFFFFFFFFFFFFFFF AND PUSH0 DUP1 CALLER PUSH20 0xFFFFFFFFFFFFFFFFFFFFFFFFFFFFFFFFFFFFFFFF AND PUSH20 0xFFFFFFFFFFFFFFFFFFFFFFFFFFFFFFFFFFFFFFFF AND DUP2 MSTORE PUSH1 0x20 ADD SWAP1 DUP2 MSTORE PUSH1 0x20 ADD PUSH0 KECCAK256 PUSH1 0x1 ADD PUSH0 SWAP1 SLOAD SWAP1 PUSH2 0x100 EXP SWAP1 DIV PUSH20 0xFFFFFFFFFFFFFFFFFFFFFFFFFFFFFFFFFFFFFFFF AND PUSH20 0xFFFFFFFFFFFFFFFFFFFFFFFFFFFFFFFFFFFFFFFF AND EQ PUSH2 0xA3F JUMPI PUSH1 0x40 MLOAD PUSH32 0x8C379A000000000000000000000000000000000000000000000000000000000 DUP2 MSTORE PUSH1 0x4 ADD PUSH2 0xA36 SWAP1 PUSH2 0x2279 JUMP JUMPDEST PUSH1 0x40 MLOAD DUP1 SWAP2 SUB SWAP1 REVERT JUMPDEST PUSH1 0x40 MLOAD DUP1 PUSH1 0x40 ADD PUSH1 0x40 MSTORE DUP1 DUP3 DUP2 MSTORE PUSH1 0x20 ADD CALLER PUSH20 0xFFFFFFFFFFFFFFFFFFFFFFFFFFFFFFFFFFFFFFFF AND DUP2 MSTORE POP PUSH0 DUP1 CALLER PUSH20 0xFFFFFFFFFFFFFFFFFFFFFFFFFFFFFFFFFFFFFFFF AND PUSH20 0xFFFFFFFFFFFFFFFFFFFFFFFFFFFFFFFFFFFFFFFF AND DUP2 MSTORE PUSH1 0x20 ADD SWAP1 DUP2 MSTORE PUSH1 0x20 ADD PUSH0 KECCAK256 PUSH0 DUP3 ADD MLOAD DUP2 PUSH0 ADD SWAP1 DUP2 PUSH2 0xAB9 SWAP2 SWAP1 PUSH2 0x1EED JUMP JUMPDEST POP PUSH1 0x20 DUP3 ADD MLOAD DUP2 PUSH1 0x1 ADD PUSH0 PUSH2 0x100 EXP DUP2 SLOAD DUP2 PUSH20 0xFFFFFFFFFFFFFFFFFFFFFFFFFFFFFFFFFFFFFFFF MUL NOT AND SWAP1 DUP4 PUSH20 0xFFFFFFFFFFFFFFFFFFFFFFFFFFFFFFFFFFFFFFFF AND MUL OR SWAP1 SSTORE POP SWAP1 POP POP CALLER PUSH20 0xFFFFFFFFFFFFFFFFFFFFFFFFFFFFFFFFFFFFFFFF AND PUSH32 0x1B7934654BA536B6962955E057CE42885353BBAAD8C605A5CE0678E632F28410 DUP3 PUSH1 0x40 MLOAD PUSH2 0xB49 SWAP2 SWAP1 PUSH2 0x18F7 JUMP JUMPDEST PUSH1 0x40 MLOAD DUP1 SWAP2 SUB SWAP1 LOG2 POP JUMP JUMPDEST PUSH2 0xB5C PUSH2 0x14C7 JUMP JUMPDEST PUSH0 PUSH20 0xFFFFFFFFFFFFFFFFFFFFFFFFFFFFFFFFFFFFFFFF AND PUSH0 DUP1 CALLER PUSH20 0xFFFFFFFFFFFFFFFFFFFFFFFFFFFFFFFFFFFFFFFF AND PUSH20 0xFFFFFFFFFFFFFFFFFFFFFFFFFFFFFFFFFFFFFFFF AND DUP2 MSTORE PUSH1 0x20 ADD SWAP1 DUP2 MSTORE PUSH1 0x20 ADD PUSH0 KECCAK256 PUSH1 0x1 ADD PUSH0 SWAP1 SLOAD SWAP1 PUSH2 0x100 EXP SWAP1 DIV PUSH20 0xFFFFFFFFFFFFFFFFFFFFFFFFFFFFFFFFFFFFFFFF AND PUSH20 0xFFFFFFFFFFFFFFFFFFFFFFFFFFFFFFFFFFFFFFFF AND SUB PUSH2 0xC28 JUMPI PUSH1 0x40 MLOAD PUSH32 0x8C379A000000000000000000000000000000000000000000000000000000000 DUP2 MSTORE PUSH1 0x4 ADD PUSH2 0xC1F SWAP1 PUSH2 0x1BD9 JUMP JUMPDEST PUSH1 0x40 MLOAD DUP1 SWAP2 SUB SWAP1 REVERT JUMPDEST PUSH1 0x3 PUSH0 CALLER PUSH20 0xFFFFFFFFFFFFFFFFFFFFFFFFFFFFFFFFFFFFFFFF AND PUSH20 0xFFFFFFFFFFFFFFFFFFFFFFFFFFFFFFFFFFFFFFFF AND DUP2 MSTORE PUSH1 0x20 ADD SWAP1 DUP2 MSTORE PUSH1 0x20 ADD PUSH0 KECCAK256 PUSH1 0x40 MLOAD DUP1 PUSH1 0x60 ADD PUSH1 0x40 MSTORE SWAP1 DUP2 PUSH0 DUP3 ADD DUP1 SLOAD PUSH2 0xC7F SWAP1 PUSH2 0x1A1F JUMP JUMPDEST DUP1 PUSH1 0x1F ADD PUSH1 0x20 DUP1 SWAP2 DIV MUL PUSH1 0x20 ADD PUSH1 0x40 MLOAD SWAP1 DUP2 ADD PUSH1 0x40 MSTORE DUP1 SWAP3 SWAP2 SWAP1 DUP2 DUP2 MSTORE PUSH1 0x20 ADD DUP3 DUP1 SLOAD PUSH2 0xCAB SWAP1 PUSH2 0x1A1F JUMP JUMPDEST DUP1 ISZERO PUSH2 0xCF6 JUMPI DUP1 PUSH1 0x1F LT PUSH2 0xCCD JUMPI PUSH2 0x100 DUP1 DUP4 SLOAD DIV MUL DUP4 MSTORE SWAP2 PUSH1 0x20 ADD SWAP2 PUSH2 0xCF6 JUMP JUMPDEST DUP3 ADD SWAP2 SWAP1 PUSH0 MSTORE PUSH1 0x20 PUSH0 KECCAK256 SWAP1 JUMPDEST DUP2 SLOAD DUP2 MSTORE SWAP1 PUSH1 0x1 ADD SWAP1 PUSH1 0x20 ADD DUP1 DUP4 GT PUSH2 0xCD9 JUMPI DUP3 SWAP1 SUB PUSH1 0x1F AND DUP3 ADD SWAP2 JUMPDEST POP POP POP POP POP DUP2 MSTORE PUSH1 0x20 ADD PUSH1 0x1 DUP3 ADD DUP1 SLOAD PUSH2 0xD0F SWAP1 PUSH2 0x1A1F JUMP JUMPDEST DUP1 PUSH1 0x1F ADD PUSH1 0x20 DUP1 SWAP2 DIV MUL PUSH1 0x20 ADD PUSH1 0x40 MLOAD SWAP1 DUP2 ADD PUSH1 0x40 MSTORE DUP1 SWAP3 SWAP2 SWAP1 DUP2 DUP2 MSTORE PUSH1 0x20 ADD DUP3 DUP1 SLOAD PUSH2 0xD3B SWAP1 PUSH2 0x1A1F JUMP JUMPDEST DUP1 ISZERO PUSH2 0xD86 JUMPI DUP1 PUSH1 0x1F LT PUSH2 0xD5D JUMPI PUSH2 0x100 DUP1 DUP4 SLOAD DIV MUL DUP4 MSTORE SWAP2 PUSH1 0x20 ADD SWAP2 PUSH2 0xD86 JUMP JUMPDEST DUP3 ADD SWAP2 SWAP1 PUSH0 MSTORE PUSH1 0x20 PUSH0 KECCAK256 SWAP1 JUMPDEST DUP2 SLOAD DUP2 MSTORE SWAP1 PUSH1 0x1 ADD SWAP1 PUSH1 0x20 ADD DUP1 DUP4 GT PUSH2 0xD69 JUMPI DUP3 SWAP1 SUB PUSH1 0x1F AND DUP3 ADD SWAP2 JUMPDEST POP POP POP POP POP DUP2 MSTORE PUSH1 0x20 ADD PUSH1 0x2 DUP3 ADD DUP1 SLOAD PUSH2 0xD9F SWAP1 PUSH2 0x1A1F JUMP JUMPDEST DUP1 PUSH1 0x1F ADD PUSH1 0x20 DUP1 SWAP2 DIV MUL PUSH1 0x20 ADD PUSH1 0x40 MLOAD SWAP1 DUP2 ADD PUSH1 0x40 MSTORE DUP1 SWAP3 SWAP2 SWAP1 DUP2 DUP2 MSTORE PUSH1 0x20 ADD DUP3 DUP1 SLOAD PUSH2 0xDCB SWAP1 PUSH2 0x1A1F JUMP JUMPDEST DUP1 ISZERO PUSH2 0xE16 JUMPI DUP1 PUSH1 0x1F LT PUSH2 0xDED JUMPI PUSH2 0x100 DUP1 DUP4 SLOAD DIV MUL DUP4 MSTORE SWAP2 PUSH1 0x20 ADD SWAP2 PUSH2 0xE16 JUMP JUMPDEST DUP3 ADD SWAP2 SWAP1 PUSH0 MSTORE PUSH1 0x20 PUSH0 KECCAK256 SWAP1 JUMPDEST DUP2 SLOAD DUP2 MSTORE SWAP1 PUSH1 0x1 ADD SWAP1 PUSH1 0x20 ADD DUP1 DUP4 GT PUSH2 0xDF9 JUMPI DUP3 SWAP1 SUB PUSH1 0x1F AND DUP3 ADD SWAP2 JUMPDEST POP POP POP POP POP DUP2 MSTORE POP POP SWAP1 POP SWAP1 JUMP JUMPDEST PUSH1 0x40 MLOAD DUP1 PUSH1 0x40 ADD PUSH1 0x40 MSTORE DUP1 PUSH1 0x7 DUP2 MSTORE PUSH1 0x20 ADD PUSH32 0x6D616E6167657200000000000000000000000000000000000000000000000000 DUP2 MSTORE POP DUP1 MLOAD SWAP1 PUSH1 0x20 ADD KECCAK256 PUSH1 0x1 PUSH0 CALLER PUSH20 0xFFFFFFFFFFFFFFFFFFFFFFFFFFFFFFFFFFFFFFFF AND PUSH20 0xFFFFFFFFFFFFFFFFFFFFFFFFFFFFFFFFFFFFFFFF AND DUP2 MSTORE PUSH1 0x20 ADD SWAP1 DUP2 MSTORE PUSH1 0x20 ADD PUSH0 KECCAK256 PUSH1 0x40 MLOAD PUSH2 0xEAB SWAP2 SWAP1 PUSH2 0x1AEB JUMP JUMPDEST PUSH1 0x40 MLOAD DUP1 SWAP2 SUB SWAP1 KECCAK256 EQ PUSH2 0xEF3 JUMPI PUSH1 0x40 MLOAD PUSH32 0x8C379A000000000000000000000000000000000000000000000000000000000 DUP2 MSTORE PUSH1 0x4 ADD PUSH2 0xEEA SWAP1 PUSH2 0x1B4B JUMP JUMPDEST PUSH1 0x40 MLOAD DUP1 SWAP2 SUB SWAP1 REVERT JUMPDEST PUSH0 PUSH20 0xFFFFFFFFFFFFFFFFFFFFFFFFFFFFFFFFFFFFFFFF AND PUSH0 DUP1 CALLER PUSH20 0xFFFFFFFFFFFFFFFFFFFFFFFFFFFFFFFFFFFFFFFF AND PUSH20 0xFFFFFFFFFFFFFFFFFFFFFFFFFFFFFFFFFFFFFFFF AND DUP2 MSTORE PUSH1 0x20 ADD SWAP1 DUP2 MSTORE PUSH1 0x20 ADD PUSH0 KECCAK256 PUSH1 0x1 ADD PUSH0 SWAP1 SLOAD SWAP1 PUSH2 0x100 EXP SWAP1 DIV PUSH20 0xFFFFFFFFFFFFFFFFFFFFFFFFFFFFFFFFFFFFFFFF AND PUSH20 0xFFFFFFFFFFFFFFFFFFFFFFFFFFFFFFFFFFFFFFFF AND SUB PUSH2 0xFBF JUMPI PUSH1 0x40 MLOAD PUSH32 0x8C379A000000000000000000000000000000000000000000000000000000000 DUP2 MSTORE PUSH1 0x4 ADD PUSH2 0xFB6 SWAP1 PUSH2 0x1BD9 JUMP JUMPDEST PUSH1 0x40 MLOAD DUP1 SWAP2 SUB SWAP1 REVERT JUMPDEST PUSH0 DUP2 MLOAD GT PUSH2 0x1002 JUMPI PUSH1 0x40 MLOAD PUSH32 0x8C379A000000000000000000000000000000000000000000000000000000000 DUP2 MSTORE PUSH1 0x4 ADD PUSH2 0xFF9 SWAP1 PUSH2 0x1C41 JUMP JUMPDEST PUSH1 0x40 MLOAD DUP1 SWAP2 SUB SWAP1 REVERT JUMPDEST DUP1 PUSH1 0x1 PUSH0 DUP5 PUSH20 0xFFFFFFFFFFFFFFFFFFFFFFFFFFFFFFFFFFFFFFFF AND PUSH20 0xFFFFFFFFFFFFFFFFFFFFFFFFFFFFFFFFFFFFFFFF AND DUP2 MSTORE PUSH1 0x20 ADD SWAP1 DUP2 MSTORE PUSH1 0x20 ADD PUSH0 KECCAK256 SWAP1 DUP2 PUSH2 0x104C SWAP2 SWAP1 PUSH2 0x1EED JUMP JUMPDEST POP PUSH1 0x2 PUSH0 DUP4 PUSH20 0xFFFFFFFFFFFFFFFFFFFFFFFFFFFFFFFFFFFFFFFF AND PUSH20 0xFFFFFFFFFFFFFFFFFFFFFFFFFFFFFFFFFFFFFFFF AND DUP2 MSTORE PUSH1 0x20 ADD SWAP1 DUP2 MSTORE PUSH1 0x20 ADD PUSH0 KECCAK256 DUP2 SWAP1 DUP1 PUSH1 0x1 DUP2 SLOAD ADD DUP1 DUP3 SSTORE DUP1 SWAP2 POP POP PUSH1 0x1 SWAP1 SUB SWAP1 PUSH0 MSTORE PUSH1 0x20 PUSH0 KECCAK256 ADD PUSH0 SWAP1 SWAP2 SWAP1 SWAP2 SWAP1 SWAP2 POP SWAP1 DUP2 PUSH2 0x10B9 SWAP2 SWAP1 PUSH2 0x1EED JUMP JUMPDEST POP DUP2 PUSH20 0xFFFFFFFFFFFFFFFFFFFFFFFFFFFFFFFFFFFFFFFF AND PUSH32 0x3565795C2FB8842C21347D277937778BBCFE788B5B4F790FC5E408786CBE9C90 DUP3 PUSH1 0x40 MLOAD PUSH2 0x1100 SWAP2 SWAP1 PUSH2 0x18F7 JUMP JUMPDEST PUSH1 0x40 MLOAD DUP1 SWAP2 SUB SWAP1 LOG2 POP POP JUMP JUMPDEST PUSH1 0x60 PUSH0 PUSH20 0xFFFFFFFFFFFFFFFFFFFFFFFFFFFFFFFFFFFFFFFF AND PUSH0 DUP1 CALLER PUSH20 0xFFFFFFFFFFFFFFFFFFFFFFFFFFFFFFFFFFFFFFFF AND PUSH20 0xFFFFFFFFFFFFFFFFFFFFFFFFFFFFFFFFFFFFFFFF AND DUP2 MSTORE PUSH1 0x20 ADD SWAP1 DUP2 MSTORE PUSH1 0x20 ADD PUSH0 KECCAK256 PUSH1 0x1 ADD PUSH0 SWAP1 SLOAD SWAP1 PUSH2 0x100 EXP SWAP1 DIV PUSH20 0xFFFFFFFFFFFFFFFFFFFFFFFFFFFFFFFFFFFFFFFF AND PUSH20 0xFFFFFFFFFFFFFFFFFFFFFFFFFFFFFFFFFFFFFFFF AND SUB PUSH2 0x11DA JUMPI PUSH1 0x40 MLOAD PUSH32 0x8C379A000000000000000000000000000000000000000000000000000000000 DUP2 MSTORE PUSH1 0x4 ADD PUSH2 0x11D1 SWAP1 PUSH2 0x22E1 JUMP JUMPDEST PUSH1 0x40 MLOAD DUP1 SWAP2 SUB SWAP1 REVERT JUMPDEST PUSH0 DUP1 CALLER PUSH20 0xFFFFFFFFFFFFFFFFFFFFFFFFFFFFFFFFFFFFFFFF AND PUSH20 0xFFFFFFFFFFFFFFFFFFFFFFFFFFFFFFFFFFFFFFFF AND DUP2 MSTORE PUSH1 0x20 ADD SWAP1 DUP2 MSTORE PUSH1 0x20 ADD PUSH0 KECCAK256 PUSH0 ADD DUP1 SLOAD PUSH2 0x1223 SWAP1 PUSH2 0x1A1F JUMP JUMPDEST DUP1 PUSH1 0x1F ADD PUSH1 0x20 DUP1 SWAP2 DIV MUL PUSH1 0x20 ADD PUSH1 0x40 MLOAD SWAP1 DUP2 ADD PUSH1 0x40 MSTORE DUP1 SWAP3 SWAP2 SWAP1 DUP2 DUP2 MSTORE PUSH1 0x20 ADD DUP3 DUP1 SLOAD PUSH2 0x124F SWAP1 PUSH2 0x1A1F JUMP JUMPDEST DUP1 ISZERO PUSH2 0x129A JUMPI DUP1 PUSH1 0x1F LT PUSH2 0x1271 JUMPI PUSH2 0x100 DUP1 DUP4 SLOAD DIV MUL DUP4 MSTORE SWAP2 PUSH1 0x20 ADD SWAP2 PUSH2 0x129A JUMP JUMPDEST DUP3 ADD SWAP2 SWAP1 PUSH0 MSTORE PUSH1 0x20 PUSH0 KECCAK256 SWAP1 JUMPDEST DUP2 SLOAD DUP2 MSTORE SWAP1 PUSH1 0x1 ADD SWAP1 PUSH1 0x20 ADD DUP1 DUP4 GT PUSH2 0x127D JUMPI DUP3 SWAP1 SUB PUSH1 0x1F AND DUP3 ADD SWAP2 JUMPDEST POP POP POP POP POP SWAP1 POP SWAP1 JUMP JUMPDEST PUSH1 0x60 PUSH0 PUSH20 0xFFFFFFFFFFFFFFFFFFFFFFFFFFFFFFFFFFFFFFFF AND PUSH0 DUP1 CALLER PUSH20 0xFFFFFFFFFFFFFFFFFFFFFFFFFFFFFFFFFFFFFFFF AND PUSH20 0xFFFFFFFFFFFFFFFFFFFFFFFFFFFFFFFFFFFFFFFF AND DUP2 MSTORE PUSH1 0x20 ADD SWAP1 DUP2 MSTORE PUSH1 0x20 ADD PUSH0 KECCAK256 PUSH1 0x1 ADD PUSH0 SWAP1 SLOAD SWAP1 PUSH2 0x100 EXP SWAP1 DIV PUSH20 0xFFFFFFFFFFFFFFFFFFFFFFFFFFFFFFFFFFFFFFFF AND PUSH20 0xFFFFFFFFFFFFFFFFFFFFFFFFFFFFFFFFFFFFFFFF AND SUB PUSH2 0x1372 JUMPI PUSH1 0x40 MLOAD PUSH32 0x8C379A000000000000000000000000000000000000000000000000000000000 DUP2 MSTORE PUSH1 0x4 ADD PUSH2 0x1369 SWAP1 PUSH2 0x1BD9 JUMP JUMPDEST PUSH1 0x40 MLOAD DUP1 SWAP2 SUB SWAP1 REVERT JUMPDEST PUSH0 PUSH1 0x2 PUSH0 CALLER PUSH20 0xFFFFFFFFFFFFFFFFFFFFFFFFFFFFFFFFFFFFFFFF AND PUSH20 0xFFFFFFFFFFFFFFFFFFFFFFFFFFFFFFFFFFFFFFFF AND DUP2 MSTORE PUSH1 0x20 ADD SWAP1 DUP2 MSTORE PUSH1 0x20 ADD PUSH0 KECCAK256 DUP1 SLOAD DUP1 PUSH1 0x20 MUL PUSH1 0x20 ADD PUSH1 0x40 MLOAD SWAP1 DUP2 ADD PUSH1 0x40 MSTORE DUP1 SWAP3 SWAP2 SWAP1 DUP2 DUP2 MSTORE PUSH1 0x20 ADD PUSH0 SWAP1 JUMPDEST DUP3 DUP3 LT ISZERO PUSH2 0x1477 JUMPI DUP4 DUP3 SWAP1 PUSH0 MSTORE PUSH1 0x20 PUSH0 KECCAK256 ADD DUP1 SLOAD PUSH2 0x13EC SWAP1 PUSH2 0x1A1F JUMP JUMPDEST DUP1 PUSH1 0x1F ADD PUSH1 0x20 DUP1 SWAP2 DIV MUL PUSH1 0x20 ADD PUSH1 0x40 MLOAD SWAP1 DUP2 ADD PUSH1 0x40 MSTORE DUP1 SWAP3 SWAP2 SWAP1 DUP2 DUP2 MSTORE PUSH1 0x20 ADD DUP3 DUP1 SLOAD PUSH2 0x1418 SWAP1 PUSH2 0x1A1F JUMP JUMPDEST DUP1 ISZERO PUSH2 0x1463 JUMPI DUP1 PUSH1 0x1F LT PUSH2 0x143A JUMPI PUSH2 0x100 DUP1 DUP4 SLOAD DIV MUL DUP4 MSTORE SWAP2 PUSH1 0x20 ADD SWAP2 PUSH2 0x1463 JUMP JUMPDEST DUP3 ADD SWAP2 SWAP1 PUSH0 MSTORE PUSH1 0x20 PUSH0 KECCAK256 SWAP1 JUMPDEST DUP2 SLOAD DUP2 MSTORE SWAP1 PUSH1 0x1 ADD SWAP1 PUSH1 0x20 ADD DUP1 DUP4 GT PUSH2 0x1446 JUMPI DUP3 SWAP1 SUB PUSH1 0x1F AND DUP3 ADD SWAP2 JUMPDEST POP POP POP POP POP DUP2 MSTORE PUSH1 0x20 ADD SWAP1 PUSH1 0x1 ADD SWAP1 PUSH2 0x13CF JUMP JUMPDEST POP POP POP POP SWAP1 POP PUSH0 DUP2 MLOAD GT PUSH2 0x14C0 JUMPI PUSH1 0x40 MLOAD PUSH32 0x8C379A000000000000000000000000000000000000000000000000000000000 DUP2 MSTORE PUSH1 0x4 ADD PUSH2 0x14B7 SWAP1 PUSH2 0x2349 JUMP JUMPDEST PUSH1 0x40 MLOAD DUP1 SWAP2 SUB SWAP1 REVERT JUMPDEST DUP1 SWAP2 POP POP SWAP1 JUMP JUMPDEST PUSH1 0x40 MLOAD DUP1 PUSH1 0x60 ADD PUSH1 0x40 MSTORE DUP1 PUSH1 0x60 DUP2 MSTORE PUSH1 0x20 ADD PUSH1 0x60 DUP2 MSTORE PUSH1 0x20 ADD PUSH1 0x60 DUP2 MSTORE POP SWAP1 JUMP JUMPDEST PUSH0 PUSH1 0x40 MLOAD SWAP1 POP SWAP1 JUMP JUMPDEST PUSH0 DUP1 REVERT JUMPDEST PUSH0 DUP1 REVERT JUMPDEST PUSH0 PUSH20 0xFFFFFFFFFFFFFFFFFFFFFFFFFFFFFFFFFFFFFFFF DUP3 AND SWAP1 POP SWAP2 SWAP1 POP JUMP JUMPDEST PUSH0 PUSH2 0x1522 DUP3 PUSH2 0x14F9 JUMP JUMPDEST SWAP1 POP SWAP2 SWAP1 POP JUMP JUMPDEST PUSH2 0x1532 DUP2 PUSH2 0x1518 JUMP JUMPDEST DUP2 EQ PUSH2 0x153C JUMPI PUSH0 DUP1 REVERT JUMPDEST POP JUMP JUMPDEST PUSH0 DUP2 CALLDATALOAD SWAP1 POP PUSH2 0x154D DUP2 PUSH2 0x1529 JUMP JUMPDEST SWAP3 SWAP2 POP POP JUMP JUMPDEST PUSH0 DUP1 REVERT JUMPDEST PUSH0 DUP1 REVERT JUMPDEST PUSH0 PUSH1 0x1F NOT PUSH1 0x1F DUP4 ADD AND SWAP1 POP SWAP2 SWAP1 POP JUMP JUMPDEST PUSH32 0x4E487B7100000000000000000000000000000000000000000000000000000000 PUSH0 MSTORE PUSH1 0x41 PUSH1 0x4 MSTORE PUSH1 0x24 PUSH0 REVERT JUMPDEST PUSH2 0x15A1 DUP3 PUSH2 0x155B JUMP JUMPDEST DUP2 ADD DUP2 DUP2 LT PUSH8 0xFFFFFFFFFFFFFFFF DUP3 GT OR ISZERO PUSH2 0x15C0 JUMPI PUSH2 0x15BF PUSH2 0x156B JUMP JUMPDEST JUMPDEST DUP1 PUSH1 0x40 MSTORE POP POP POP JUMP JUMPDEST PUSH0 PUSH2 0x15D2 PUSH2 0x14E8 JUMP JUMPDEST SWAP1 POP PUSH2 0x15DE DUP3 DUP3 PUSH2 0x1598 JUMP JUMPDEST SWAP2 SWAP1 POP JUMP JUMPDEST PUSH0 PUSH8 0xFFFFFFFFFFFFFFFF DUP3 GT ISZERO PUSH2 0x15FD JUMPI PUSH2 0x15FC PUSH2 0x156B JUMP JUMPDEST JUMPDEST PUSH2 0x1606 DUP3 PUSH2 0x155B JUMP JUMPDEST SWAP1 POP PUSH1 0x20 DUP2 ADD SWAP1 POP SWAP2 SWAP1 POP JUMP JUMPDEST DUP3 DUP2 DUP4 CALLDATACOPY PUSH0 DUP4 DUP4 ADD MSTORE POP POP POP JUMP JUMPDEST PUSH0 PUSH2 0x1633 PUSH2 0x162E DUP5 PUSH2 0x15E3 JUMP JUMPDEST PUSH2 0x15C9 JUMP JUMPDEST SWAP1 POP DUP3 DUP2 MSTORE PUSH1 0x20 DUP2 ADD DUP5 DUP5 DUP5 ADD GT ISZERO PUSH2 0x164F JUMPI PUSH2 0x164E PUSH2 0x1557 JUMP JUMPDEST JUMPDEST PUSH2 0x165A DUP5 DUP3 DUP6 PUSH2 0x1613 JUMP JUMPDEST POP SWAP4 SWAP3 POP POP POP JUMP JUMPDEST PUSH0 DUP3 PUSH1 0x1F DUP4 ADD SLT PUSH2 0x1676 JUMPI PUSH2 0x1675 PUSH2 0x1553 JUMP JUMPDEST JUMPDEST DUP2 CALLDATALOAD PUSH2 0x1686 DUP5 DUP3 PUSH1 0x20 DUP7 ADD PUSH2 0x1621 JUMP JUMPDEST SWAP2 POP POP SWAP3 SWAP2 POP POP JUMP JUMPDEST PUSH0 DUP1 PUSH1 0x40 DUP4 DUP6 SUB SLT ISZERO PUSH2 0x16A5 JUMPI PUSH2 0x16A4 PUSH2 0x14F1 JUMP JUMPDEST JUMPDEST PUSH0 PUSH2 0x16B2 DUP6 DUP3 DUP7 ADD PUSH2 0x153F JUMP JUMPDEST SWAP3 POP POP PUSH1 0x20 DUP4 ADD CALLDATALOAD PUSH8 0xFFFFFFFFFFFFFFFF DUP2 GT ISZERO PUSH2 0x16D3 JUMPI PUSH2 0x16D2 PUSH2 0x14F5 JUMP JUMPDEST JUMPDEST PUSH2 0x16DF DUP6 DUP3 DUP7 ADD PUSH2 0x1662 JUMP JUMPDEST SWAP2 POP POP SWAP3 POP SWAP3 SWAP1 POP JUMP JUMPDEST PUSH0 DUP1 PUSH0 PUSH1 0x60 DUP5 DUP7 SUB SLT ISZERO PUSH2 0x1700 JUMPI PUSH2 0x16FF PUSH2 0x14F1 JUMP JUMPDEST JUMPDEST PUSH0 DUP5 ADD CALLDATALOAD PUSH8 0xFFFFFFFFFFFFFFFF DUP2 GT ISZERO PUSH2 0x171D JUMPI PUSH2 0x171C PUSH2 0x14F5 JUMP JUMPDEST JUMPDEST PUSH2 0x1729 DUP7 DUP3 DUP8 ADD PUSH2 0x1662 JUMP JUMPDEST SWAP4 POP POP PUSH1 0x20 DUP5 ADD CALLDATALOAD PUSH8 0xFFFFFFFFFFFFFFFF DUP2 GT ISZERO PUSH2 0x174A JUMPI PUSH2 0x1749 PUSH2 0x14F5 JUMP JUMPDEST JUMPDEST PUSH2 0x1756 DUP7 DUP3 DUP8 ADD PUSH2 0x1662 JUMP JUMPDEST SWAP3 POP POP PUSH1 0x40 DUP5 ADD CALLDATALOAD PUSH8 0xFFFFFFFFFFFFFFFF DUP2 GT ISZERO PUSH2 0x1777 JUMPI PUSH2 0x1776 PUSH2 0x14F5 JUMP JUMPDEST JUMPDEST PUSH2 0x1783 DUP7 DUP3 DUP8 ADD PUSH2 0x1662 JUMP JUMPDEST SWAP2 POP POP SWAP3 POP SWAP3 POP SWAP3 JUMP JUMPDEST PUSH0 PUSH1 0x20 DUP3 DUP5 SUB SLT ISZERO PUSH2 0x17A2 JUMPI PUSH2 0x17A1 PUSH2 0x14F1 JUMP JUMPDEST JUMPDEST PUSH0 DUP3 ADD CALLDATALOAD PUSH8 0xFFFFFFFFFFFFFFFF DUP2 GT ISZERO PUSH2 0x17BF JUMPI PUSH2 0x17BE PUSH2 0x14F5 JUMP JUMPDEST JUMPDEST PUSH2 0x17CB DUP5 DUP3 DUP6 ADD PUSH2 0x1662 JUMP JUMPDEST SWAP2 POP POP SWAP3 SWAP2 POP POP JUMP JUMPDEST PUSH0 DUP2 MLOAD SWAP1 POP SWAP2 SWAP1 POP JUMP JUMPDEST PUSH0 DUP3 DUP3 MSTORE PUSH1 0x20 DUP3 ADD SWAP1 POP SWAP3 SWAP2 POP POP JUMP JUMPDEST DUP3 DUP2 DUP4 MCOPY PUSH0 DUP4 DUP4 ADD MSTORE POP POP POP JUMP JUMPDEST PUSH0 PUSH2 0x1806 DUP3 PUSH2 0x17D4 JUMP JUMPDEST PUSH2 0x1810 DUP2 DUP6 PUSH2 0x17DE JUMP JUMPDEST SWAP4 POP PUSH2 0x1820 DUP2 DUP6 PUSH1 0x20 DUP7 ADD PUSH2 0x17EE JUMP JUMPDEST PUSH2 0x1829 DUP2 PUSH2 0x155B JUMP JUMPDEST DUP5 ADD SWAP2 POP POP SWAP3 SWAP2 POP POP JUMP JUMPDEST PUSH0 PUSH1 0x60 DUP4 ADD PUSH0 DUP4 ADD MLOAD DUP5 DUP3 SUB PUSH0 DUP7 ADD MSTORE PUSH2 0x184E DUP3 DUP3 PUSH2 0x17FC JUMP JUMPDEST SWAP2 POP POP PUSH1 0x20 DUP4 ADD MLOAD DUP5 DUP3 SUB PUSH1 0x20 DUP7 ADD MSTORE PUSH2 0x1868 DUP3 DUP3 PUSH2 0x17FC JUMP JUMPDEST SWAP2 POP POP PUSH1 0x40 DUP4 ADD MLOAD DUP5 DUP3 SUB PUSH1 0x40 DUP7 ADD MSTORE PUSH2 0x1882 DUP3 DUP3 PUSH2 0x17FC JUMP JUMPDEST SWAP2 POP POP DUP1 SWAP2 POP POP SWAP3 SWAP2 POP POP JUMP JUMPDEST PUSH0 PUSH1 0x20 DUP3 ADD SWAP1 POP DUP2 DUP2 SUB PUSH0 DUP4 ADD MSTORE PUSH2 0x18A7 DUP2 DUP5 PUSH2 0x1834 JUMP JUMPDEST SWAP1 POP SWAP3 SWAP2 POP POP JUMP JUMPDEST PUSH0 DUP3 DUP3 MSTORE PUSH1 0x20 DUP3 ADD SWAP1 POP SWAP3 SWAP2 POP POP JUMP JUMPDEST PUSH0 PUSH2 0x18C9 DUP3 PUSH2 0x17D4 JUMP JUMPDEST PUSH2 0x18D3 DUP2 DUP6 PUSH2 0x18AF JUMP JUMPDEST SWAP4 POP PUSH2 0x18E3 DUP2 DUP6 PUSH1 0x20 DUP7 ADD PUSH2 0x17EE JUMP JUMPDEST PUSH2 0x18EC DUP2 PUSH2 0x155B JUMP JUMPDEST DUP5 ADD SWAP2 POP POP SWAP3 SWAP2 POP POP JUMP JUMPDEST PUSH0 PUSH1 0x20 DUP3 ADD SWAP1 POP DUP2 DUP2 SUB PUSH0 DUP4 ADD MSTORE PUSH2 0x190F DUP2 DUP5 PUSH2 0x18BF JUMP JUMPDEST SWAP1 POP SWAP3 SWAP2 POP POP JUMP JUMPDEST PUSH0 DUP2 MLOAD SWAP1 POP SWAP2 SWAP1 POP JUMP JUMPDEST PUSH0 DUP3 DUP3 MSTORE PUSH1 0x20 DUP3 ADD SWAP1 POP SWAP3 SWAP2 POP POP JUMP JUMPDEST PUSH0 DUP2 SWAP1 POP PUSH1 0x20 DUP3 ADD SWAP1 POP SWAP2 SWAP1 POP JUMP JUMPDEST PUSH0 PUSH2 0x194B DUP4 DUP4 PUSH2 0x17FC JUMP JUMPDEST SWAP1 POP SWAP3 SWAP2 POP POP JUMP JUMPDEST PUSH0 PUSH1 0x20 DUP3 ADD SWAP1 POP SWAP2 SWAP1 POP JUMP JUMPDEST PUSH0 PUSH2 0x1969 DUP3 PUSH2 0x1917 JUMP JUMPDEST PUSH2 0x1973 DUP2 DUP6 PUSH2 0x1921 JUMP JUMPDEST SWAP4 POP DUP4 PUSH1 0x20 DUP3 MUL DUP6 ADD PUSH2 0x1985 DUP6 PUSH2 0x1931 JUMP JUMPDEST DUP1 PUSH0 JUMPDEST DUP6 DUP2 LT ISZERO PUSH2 0x19C0 JUMPI DUP5 DUP5 SUB DUP10 MSTORE DUP2 MLOAD PUSH2 0x19A1 DUP6 DUP3 PUSH2 0x1940 JUMP JUMPDEST SWAP5 POP PUSH2 0x19AC DUP4 PUSH2 0x1953 JUMP JUMPDEST SWAP3 POP PUSH1 0x20 DUP11 ADD SWAP10 POP POP PUSH1 0x1 DUP2 ADD SWAP1 POP PUSH2 0x1988 JUMP JUMPDEST POP DUP3 SWAP8 POP DUP8 SWAP6 POP POP POP POP POP POP SWAP3 SWAP2 POP POP JUMP JUMPDEST PUSH0 PUSH1 0x20 DUP3 ADD SWAP1 POP DUP2 DUP2 SUB PUSH0 DUP4 ADD MSTORE PUSH2 0x19EA DUP2 DUP5 PUSH2 0x195F JUMP JUMPDEST SWAP1 POP SWAP3 SWAP2 POP POP JUMP JUMPDEST PUSH32 0x4E487B7100000000000000000000000000000000000000000000000000000000 PUSH0 MSTORE PUSH1 0x22 PUSH1 0x4 MSTORE PUSH1 0x24 PUSH0 REVERT JUMPDEST PUSH0 PUSH1 0x2 DUP3 DIV SWAP1 POP PUSH1 0x1 DUP3 AND DUP1 PUSH2 0x1A36 JUMPI PUSH1 0x7F DUP3 AND SWAP2 POP JUMPDEST PUSH1 0x20 DUP3 LT DUP2 SUB PUSH2 0x1A49 JUMPI PUSH2 0x1A48 PUSH2 0x19F2 JUMP JUMPDEST JUMPDEST POP SWAP2 SWAP1 POP JUMP JUMPDEST PUSH0 DUP2 SWAP1 POP SWAP3 SWAP2 POP POP JUMP JUMPDEST PUSH0 DUP2 SWAP1 POP DUP2 PUSH0 MSTORE PUSH1 0x20 PUSH0 KECCAK256 SWAP1 POP SWAP2 SWAP1 POP JUMP JUMPDEST PUSH0 DUP2 SLOAD PUSH2 0x1A77 DUP2 PUSH2 0x1A1F JUMP JUMPDEST PUSH2 0x1A81 DUP2 DUP7 PUSH2 0x1A4F JUMP JUMPDEST SWAP5 POP PUSH1 0x1 DUP3 AND PUSH0 DUP2 EQ PUSH2 0x1A9B JUMPI PUSH1 0x1 DUP2 EQ PUSH2 0x1AB0 JUMPI PUSH2 0x1AE2 JUMP JUMPDEST PUSH1 0xFF NOT DUP4 AND DUP7 MSTORE DUP2 ISZERO ISZERO DUP3 MUL DUP7 ADD SWAP4 POP PUSH2 0x1AE2 JUMP JUMPDEST PUSH2 0x1AB9 DUP6 PUSH2 0x1A59 JUMP JUMPDEST PUSH0 JUMPDEST DUP4 DUP2 LT ISZERO PUSH2 0x1ADA JUMPI DUP2 SLOAD DUP2 DUP10 ADD MSTORE PUSH1 0x1 DUP3 ADD SWAP2 POP PUSH1 0x20 DUP2 ADD SWAP1 POP PUSH2 0x1ABB JUMP JUMPDEST DUP4 DUP9 ADD SWAP6 POP POP POP JUMPDEST POP POP POP SWAP3 SWAP2 POP POP JUMP JUMPDEST PUSH0 PUSH2 0x1AF6 DUP3 DUP5 PUSH2 0x1A6B JUMP JUMPDEST SWAP2 POP DUP2 SWAP1 POP SWAP3 SWAP2 POP POP JUMP JUMPDEST PUSH32 0x556E617574686F72697A656420616374696F6E00000000000000000000000000 PUSH0 DUP3 ADD MSTORE POP JUMP JUMPDEST PUSH0 PUSH2 0x1B35 PUSH1 0x13 DUP4 PUSH2 0x18AF JUMP JUMPDEST SWAP2 POP PUSH2 0x1B40 DUP3 PUSH2 0x1B01 JUMP JUMPDEST PUSH1 0x20 DUP3 ADD SWAP1 POP SWAP2 SWAP1 POP JUMP JUMPDEST PUSH0 PUSH1 0x20 DUP3 ADD SWAP1 POP DUP2 DUP2 SUB PUSH0 DUP4 ADD MSTORE PUSH2 0x1B62 DUP2 PUSH2 0x1B29 JUMP JUMPDEST SWAP1 POP SWAP2 SWAP1 POP JUMP JUMPDEST PUSH32 0x4E6F206578697374696E672044494420666F756E6420666F7220746869732061 PUSH0 DUP3 ADD MSTORE PUSH32 0x6464726573730000000000000000000000000000000000000000000000000000 PUSH1 0x20 DUP3 ADD MSTORE POP JUMP JUMPDEST PUSH0 PUSH2 0x1BC3 PUSH1 0x26 DUP4 PUSH2 0x18AF JUMP JUMPDEST SWAP2 POP PUSH2 0x1BCE DUP3 PUSH2 0x1B69 JUMP JUMPDEST PUSH1 0x40 DUP3 ADD SWAP1 POP SWAP2 SWAP1 POP JUMP JUMPDEST PUSH0 PUSH1 0x20 DUP3 ADD SWAP1 POP DUP2 DUP2 SUB PUSH0 DUP4 ADD MSTORE PUSH2 0x1BF0 DUP2 PUSH2 0x1BB7 JUMP JUMPDEST SWAP1 POP SWAP2 SWAP1 POP JUMP JUMPDEST PUSH32 0x526F6C652063616E6E6F7420626520656D707479000000000000000000000000 PUSH0 DUP3 ADD MSTORE POP JUMP JUMPDEST PUSH0 PUSH2 0x1C2B PUSH1 0x14 DUP4 PUSH2 0x18AF JUMP JUMPDEST SWAP2 POP PUSH2 0x1C36 DUP3 PUSH2 0x1BF7 JUMP JUMPDEST PUSH1 0x20 DUP3 ADD SWAP1 POP SWAP2 SWAP1 POP JUMP JUMPDEST PUSH0 PUSH1 0x20 DUP3 ADD SWAP1 POP DUP2 DUP2 SUB PUSH0 DUP4 ADD MSTORE PUSH2 0x1C58 DUP2 PUSH2 0x1C1F JUMP JUMPDEST SWAP1 POP SWAP2 SWAP1 POP JUMP JUMPDEST PUSH0 DUP2 PUSH1 0x60 SHL SWAP1 POP SWAP2 SWAP1 POP JUMP JUMPDEST PUSH0 PUSH2 0x1C75 DUP3 PUSH2 0x1C5F JUMP JUMPDEST SWAP1 POP SWAP2 SWAP1 POP JUMP JUMPDEST PUSH0 PUSH2 0x1C86 DUP3 PUSH2 0x1C6B JUMP JUMPDEST SWAP1 POP SWAP2 SWAP1 POP JUMP JUMPDEST PUSH2 0x1C9E PUSH2 0x1C99 DUP3 PUSH2 0x1518 JUMP JUMPDEST PUSH2 0x1C7C JUMP JUMPDEST DUP3 MSTORE POP POP JUMP JUMPDEST PUSH0 DUP2 SWAP1 POP SWAP3 SWAP2 POP POP JUMP JUMPDEST PUSH0 PUSH2 0x1CB8 DUP3 PUSH2 0x17D4 JUMP JUMPDEST PUSH2 0x1CC2 DUP2 DUP6 PUSH2 0x1CA4 JUMP JUMPDEST SWAP4 POP PUSH2 0x1CD2 DUP2 DUP6 PUSH1 0x20 DUP7 ADD PUSH2 0x17EE JUMP JUMPDEST DUP1 DUP5 ADD SWAP2 POP POP SWAP3 SWAP2 POP POP JUMP JUMPDEST PUSH0 DUP2 SWAP1 POP SWAP2 SWAP1 POP JUMP JUMPDEST PUSH0 DUP2 SWAP1 POP SWAP2 SWAP1 POP JUMP JUMPDEST PUSH2 0x1D01 PUSH2 0x1CFC DUP3 PUSH2 0x1CDE JUMP JUMPDEST PUSH2 0x1CE7 JUMP JUMPDEST DUP3 MSTORE POP POP JUMP JUMPDEST PUSH0 PUSH2 0x1D12 DUP3 DUP8 PUSH2 0x1C8D JUMP JUMPDEST PUSH1 0x14 DUP3 ADD SWAP2 POP PUSH2 0x1D22 DUP3 DUP7 PUSH2 0x1C8D JUMP JUMPDEST PUSH1 0x14 DUP3 ADD SWAP2 POP PUSH2 0x1D32 DUP3 DUP6 PUSH2 0x1CAE JUMP JUMPDEST SWAP2 POP PUSH2 0x1D3E DUP3 DUP5 PUSH2 0x1CF0 JUMP JUMPDEST PUSH1 0x20 DUP3 ADD SWAP2 POP DUP2 SWAP1 POP SWAP6 SWAP5 POP POP POP POP POP JUMP JUMPDEST PUSH0 DUP2 SWAP1 POP DUP2 PUSH0 MSTORE PUSH1 0x20 PUSH0 KECCAK256 SWAP1 POP SWAP2 SWAP1 POP JUMP JUMPDEST PUSH0 PUSH1 0x20 PUSH1 0x1F DUP4 ADD DIV SWAP1 POP SWAP2 SWAP1 POP JUMP JUMPDEST PUSH0 DUP3 DUP3 SHL SWAP1 POP SWAP3 SWAP2 POP POP JUMP JUMPDEST PUSH0 PUSH1 0x8 DUP4 MUL PUSH2 0x1DAC PUSH32 0xFFFFFFFFFFFFFFFFFFFFFFFFFFFFFFFFFFFFFFFFFFFFFFFFFFFFFFFFFFFFFFFF DUP3 PUSH2 0x1D71 JUMP JUMPDEST PUSH2 0x1DB6 DUP7 DUP4 PUSH2 0x1D71 JUMP JUMPDEST SWAP6 POP DUP1 NOT DUP5 AND SWAP4 POP DUP1 DUP7 AND DUP5 OR SWAP3 POP POP POP SWAP4 SWAP3 POP POP POP JUMP JUMPDEST PUSH0 DUP2 SWAP1 POP SWAP2 SWAP1 POP JUMP JUMPDEST PUSH0 PUSH2 0x1DF1 PUSH2 0x1DEC PUSH2 0x1DE7 DUP5 PUSH2 0x1CDE JUMP JUMPDEST PUSH2 0x1DCE JUMP JUMPDEST PUSH2 0x1CDE JUMP JUMPDEST SWAP1 POP SWAP2 SWAP1 POP JUMP JUMPDEST PUSH0 DUP2 SWAP1 POP SWAP2 SWAP1 POP JUMP JUMPDEST PUSH2 0x1E0A DUP4 PUSH2 0x1DD7 JUMP JUMPDEST PUSH2 0x1E1E PUSH2 0x1E16 DUP3 PUSH2 0x1DF8 JUMP JUMPDEST DUP5 DUP5 SLOAD PUSH2 0x1D7D JUMP JUMPDEST DUP3 SSTORE POP POP POP POP JUMP JUMPDEST PUSH0 SWAP1 JUMP JUMPDEST PUSH2 0x1E32 PUSH2 0x1E26 JUMP JUMPDEST PUSH2 0x1E3D DUP2 DUP5 DUP5 PUSH2 0x1E01 JUMP JUMPDEST POP POP POP JUMP JUMPDEST JUMPDEST DUP2 DUP2 LT ISZERO PUSH2 0x1E60 JUMPI PUSH2 0x1E55 PUSH0 DUP3 PUSH2 0x1E2A JUMP JUMPDEST PUSH1 0x1 DUP2 ADD SWAP1 POP PUSH2 0x1E43 JUMP JUMPDEST POP POP JUMP JUMPDEST PUSH1 0x1F DUP3 GT ISZERO PUSH2 0x1EA5 JUMPI PUSH2 0x1E76 DUP2 PUSH2 0x1D50 JUMP JUMPDEST PUSH2 0x1E7F DUP5 PUSH2 0x1D62 JUMP JUMPDEST DUP2 ADD PUSH1 0x20 DUP6 LT ISZERO PUSH2 0x1E8E JUMPI DUP2 SWAP1 POP JUMPDEST PUSH2 0x1EA2 PUSH2 0x1E9A DUP6 PUSH2 0x1D62 JUMP JUMPDEST DUP4 ADD DUP3 PUSH2 0x1E42 JUMP JUMPDEST POP POP JUMPDEST POP POP POP JUMP JUMPDEST PUSH0 DUP3 DUP3 SHR SWAP1 POP SWAP3 SWAP2 POP POP JUMP JUMPDEST PUSH0 PUSH2 0x1EC5 PUSH0 NOT DUP5 PUSH1 0x8 MUL PUSH2 0x1EAA JUMP JUMPDEST NOT DUP1 DUP4 AND SWAP2 POP POP SWAP3 SWAP2 POP POP JUMP JUMPDEST PUSH0 PUSH2 0x1EDD DUP4 DUP4 PUSH2 0x1EB6 JUMP JUMPDEST SWAP2 POP DUP3 PUSH1 0x2 MUL DUP3 OR SWAP1 POP SWAP3 SWAP2 POP POP JUMP JUMPDEST PUSH2 0x1EF6 DUP3 PUSH2 0x17D4 JUMP JUMPDEST PUSH8 0xFFFFFFFFFFFFFFFF DUP2 GT ISZERO PUSH2 0x1F0F JUMPI PUSH2 0x1F0E PUSH2 0x156B JUMP JUMPDEST JUMPDEST PUSH2 0x1F19 DUP3 SLOAD PUSH2 0x1A1F JUMP JUMPDEST PUSH2 0x1F24 DUP3 DUP3 DUP6 PUSH2 0x1E64 JUMP JUMPDEST PUSH0 PUSH1 0x20 SWAP1 POP PUSH1 0x1F DUP4 GT PUSH1 0x1 DUP2 EQ PUSH2 0x1F55 JUMPI PUSH0 DUP5 ISZERO PUSH2 0x1F43 JUMPI DUP3 DUP8 ADD MLOAD SWAP1 POP JUMPDEST PUSH2 0x1F4D DUP6 DUP3 PUSH2 0x1ED2 JUMP JUMPDEST DUP7 SSTORE POP PUSH2 0x1FB4 JUMP JUMPDEST PUSH1 0x1F NOT DUP5 AND PUSH2 0x1F63 DUP7 PUSH2 0x1D50 JUMP JUMPDEST PUSH0 JUMPDEST DUP3 DUP2 LT ISZERO PUSH2 0x1F8A JUMPI DUP5 DUP10 ADD MLOAD DUP3 SSTORE PUSH1 0x1 DUP3 ADD SWAP2 POP PUSH1 0x20 DUP6 ADD SWAP5 POP PUSH1 0x20 DUP2 ADD SWAP1 POP PUSH2 0x1F65 JUMP JUMPDEST DUP7 DUP4 LT ISZERO PUSH2 0x1FA7 JUMPI DUP5 DUP10 ADD MLOAD PUSH2 0x1FA3 PUSH1 0x1F DUP10 AND DUP3 PUSH2 0x1EB6 JUMP JUMPDEST DUP4 SSTORE POP JUMPDEST PUSH1 0x1 PUSH1 0x2 DUP9 MUL ADD DUP9 SSTORE POP POP POP JUMPDEST POP POP POP POP POP POP JUMP JUMPDEST PUSH2 0x1FC5 DUP2 PUSH2 0x1518 JUMP JUMPDEST DUP3 MSTORE POP POP JUMP JUMPDEST PUSH0 DUP2 SWAP1 POP SWAP2 SWAP1 POP JUMP JUMPDEST PUSH2 0x1FDD DUP2 PUSH2 0x1FCB JUMP JUMPDEST DUP3 MSTORE POP POP JUMP JUMPDEST PUSH0 PUSH1 0x60 DUP3 ADD SWAP1 POP PUSH2 0x1FF6 PUSH0 DUP4 ADD DUP7 PUSH2 0x1FBC JUMP JUMPDEST DUP2 DUP2 SUB PUSH1 0x20 DUP4 ADD MSTORE PUSH2 0x2008 DUP2 DUP6 PUSH2 0x18BF JUMP JUMPDEST SWAP1 POP PUSH2 0x2017 PUSH1 0x40 DUP4 ADD DUP5 PUSH2 0x1FD4 JUMP JUMPDEST SWAP5 SWAP4 POP POP POP POP JUMP JUMPDEST PUSH32 0x456D61696C2063616E6E6F7420626520656D7074790000000000000000000000 PUSH0 DUP3 ADD MSTORE POP JUMP JUMPDEST PUSH0 PUSH2 0x2053 PUSH1 0x15 DUP4 PUSH2 0x18AF JUMP JUMPDEST SWAP2 POP PUSH2 0x205E DUP3 PUSH2 0x201F JUMP JUMPDEST PUSH1 0x20 DUP3 ADD SWAP1 POP SWAP2 SWAP1 POP JUMP JUMPDEST PUSH0 PUSH1 0x20 DUP3 ADD SWAP1 POP DUP2 DUP2 SUB PUSH0 DUP4 ADD MSTORE PUSH2 0x2080 DUP2 PUSH2 0x2047 JUMP JUMPDEST SWAP1 POP SWAP2 SWAP1 POP JUMP JUMPDEST PUSH0 PUSH1 0x60 DUP3 ADD SWAP1 POP DUP2 DUP2 SUB PUSH0 DUP4 ADD MSTORE PUSH2 0x209F DUP2 DUP7 PUSH2 0x18BF JUMP JUMPDEST SWAP1 POP DUP2 DUP2 SUB PUSH1 0x20 DUP4 ADD MSTORE PUSH2 0x20B3 DUP2 DUP6 PUSH2 0x18BF JUMP JUMPDEST SWAP1 POP DUP2 DUP2 SUB PUSH1 0x40 DUP4 ADD MSTORE PUSH2 0x20C7 DUP2 DUP5 PUSH2 0x18BF JUMP JUMPDEST SWAP1 POP SWAP5 SWAP4 POP POP POP POP JUMP JUMPDEST PUSH32 0x4E6577206964656E7469666965722063616E6E6F7420626520656D7074790000 PUSH0 DUP3 ADD MSTORE POP JUMP JUMPDEST PUSH0 PUSH2 0x2105 PUSH1 0x1E DUP4 PUSH2 0x18AF JUMP JUMPDEST SWAP2 POP PUSH2 0x2110 DUP3 PUSH2 0x20D1 JUMP JUMPDEST PUSH1 0x20 DUP3 ADD SWAP1 POP SWAP2 SWAP1 POP JUMP JUMPDEST PUSH0 PUSH1 0x20 DUP3 ADD SWAP1 POP DUP2 DUP2 SUB PUSH0 DUP4 ADD MSTORE PUSH2 0x2132 DUP2 PUSH2 0x20F9 JUMP JUMPDEST SWAP1 POP SWAP2 SWAP1 POP JUMP JUMPDEST PUSH32 0x496E76616C6964206E6577206964656E74696669657200000000000000000000 PUSH0 DUP3 ADD MSTORE POP JUMP JUMPDEST PUSH0 PUSH2 0x216D PUSH1 0x16 DUP4 PUSH2 0x18AF JUMP JUMPDEST SWAP2 POP PUSH2 0x2178 DUP3 PUSH2 0x2139 JUMP JUMPDEST PUSH1 0x20 DUP3 ADD SWAP1 POP SWAP2 SWAP1 POP JUMP JUMPDEST PUSH0 PUSH1 0x20 DUP3 ADD SWAP1 POP DUP2 DUP2 SUB PUSH0 DUP4 ADD MSTORE PUSH2 0x219A DUP2 PUSH2 0x2161 JUMP JUMPDEST SWAP1 POP SWAP2 SWAP1 POP JUMP JUMPDEST PUSH32 0x4964656E7469666965722063616E6E6F7420626520656D707479000000000000 PUSH0 DUP3 ADD MSTORE POP JUMP JUMPDEST PUSH0 PUSH2 0x21D5 PUSH1 0x1A DUP4 PUSH2 0x18AF JUMP JUMPDEST SWAP2 POP PUSH2 0x21E0 DUP3 PUSH2 0x21A1 JUMP JUMPDEST PUSH1 0x20 DUP3 ADD SWAP1 POP SWAP2 SWAP1 POP JUMP JUMPDEST PUSH0 PUSH1 0x20 DUP3 ADD SWAP1 POP DUP2 DUP2 SUB PUSH0 DUP4 ADD MSTORE PUSH2 0x2202 DUP2 PUSH2 0x21C9 JUMP JUMPDEST SWAP1 POP SWAP2 SWAP1 POP JUMP JUMPDEST PUSH32 0x44494420616C72656164792065786973747320666F7220746869732061646472 PUSH0 DUP3 ADD MSTORE PUSH32 0x6573730000000000000000000000000000000000000000000000000000000000 PUSH1 0x20 DUP3 ADD MSTORE POP JUMP JUMPDEST PUSH0 PUSH2 0x2263 PUSH1 0x23 DUP4 PUSH2 0x18AF JUMP JUMPDEST SWAP2 POP PUSH2 0x226E DUP3 PUSH2 0x2209 JUMP JUMPDEST PUSH1 0x40 DUP3 ADD SWAP1 POP SWAP2 SWAP1 POP JUMP JUMPDEST PUSH0 PUSH1 0x20 DUP3 ADD SWAP1 POP DUP2 DUP2 SUB PUSH0 DUP4 ADD MSTORE PUSH2 0x2290 DUP2 PUSH2 0x2257 JUMP JUMPDEST SWAP1 POP SWAP2 SWAP1 POP JUMP JUMPDEST PUSH32 0x4E6F2044494420666F756E6420666F7220746869732061646472657373000000 PUSH0 DUP3 ADD MSTORE POP JUMP JUMPDEST PUSH0 PUSH2 0x22CB PUSH1 0x1D DUP4 PUSH2 0x18AF JUMP JUMPDEST SWAP2 POP PUSH2 0x22D6 DUP3 PUSH2 0x2297 JUMP JUMPDEST PUSH1 0x20 DUP3 ADD SWAP1 POP SWAP2 SWAP1 POP JUMP JUMPDEST PUSH0 PUSH1 0x20 DUP3 ADD SWAP1 POP DUP2 DUP2 SUB PUSH0 DUP4 ADD MSTORE PUSH2 0x22F8 DUP2 PUSH2 0x22BF JUMP JUMPDEST SWAP1 POP SWAP2 SWAP1 POP JUMP JUMPDEST PUSH32 0x4E6F20726F6C65732061737369676E656420666F722074686973207573657200 PUSH0 DUP3 ADD MSTORE POP JUMP JUMPDEST PUSH0 PUSH2 0x2333 PUSH1 0x1F DUP4 PUSH2 0x18AF JUMP JUMPDEST SWAP2 POP PUSH2 0x233E DUP3 PUSH2 0x22FF JUMP JUMPDEST PUSH1 0x20 DUP3 ADD SWAP1 POP SWAP2 SWAP1 POP JUMP JUMPDEST PUSH0 PUSH1 0x20 DUP3 ADD SWAP1 POP DUP2 DUP2 SUB PUSH0 DUP4 ADD MSTORE PUSH2 0x2360 DUP2 PUSH2 0x2327 JUMP JUMPDEST SWAP1 POP SWAP2 SWAP1 POP JUMP INVALID LOG2 PUSH5 0x6970667358 0x22 SLT KECCAK256 0xAF 0xBF KECCAK256 BLOCKHASH 0xE4 ADDRESS STATICCALL SWAP12 0xE1 0xF8 0xB2 0xE0 ADD 0xDA 0xED ORIGIN DIV DIV 0xEA SWAP2 STATICCALL 0xC PUSH30 0xD076C9B0B7605DA1B64736F6C634300081A003300000000000000000000 "
				},
				"gasEstimates": {
					"creation": {
						"codeDepositCost": "1823400",
						"executionCost": "infinite",
						"totalCost": "infinite"
					},
					"external": {
						"assignRole(address,string)": "infinite",
						"createDID(string)": "infinite",
						"getDID()": "infinite",
						"getMetadata()": "infinite",
						"getRole()": "infinite",
						"issueRole(address,string)": "infinite",
						"setMetadata(string,string,string)": "infinite",
						"updateDID(string)": "infinite"
					}
				},
				"methodIdentifiers": {
					"assignRole(address,string)": "b7dfcbee",
					"createDID(string)": "3457d3e2",
					"getDID()": "bc9c2d55",
					"getMetadata()": "7a5b4f59",
					"getRole()": "fde08174",
					"issueRole(address,string)": "022bf9c1",
					"setMetadata(string,string,string)": "0890d80c",
					"updateDID(string)": "14c95832"
				}
			},
			"storageLayout": {
				"storage": [
					{
						"astId": 28,
						"contract": "DIDRegistry.sol:DIDRegistry",
						"label": "dids",
						"offset": 0,
						"slot": "0",
						"type": "t_mapping(t_address,t_struct(DID)7_storage)"
					},
					{
						"astId": 32,
						"contract": "DIDRegistry.sol:DIDRegistry",
						"label": "roles",
						"offset": 0,
						"slot": "1",
						"type": "t_mapping(t_address,t_string_storage)"
					},
					{
						"astId": 37,
						"contract": "DIDRegistry.sol:DIDRegistry",
						"label": "roleHistory",
						"offset": 0,
						"slot": "2",
						"type": "t_mapping(t_address,t_array(t_string_storage)dyn_storage)"
					},
					{
						"astId": 42,
						"contract": "DIDRegistry.sol:DIDRegistry",
						"label": "metadata",
						"offset": 0,
						"slot": "3",
						"type": "t_mapping(t_address,t_struct(Metadata)14_storage)"
					},
					{
						"astId": 47,
						"contract": "DIDRegistry.sol:DIDRegistry",
						"label": "credentials",
						"offset": 0,
						"slot": "4",
						"type": "t_mapping(t_address,t_struct(Credential)23_storage)"
					}
				],
				"types": {
					"t_address": {
						"encoding": "inplace",
						"label": "address",
						"numberOfBytes": "20"
					},
					"t_array(t_string_storage)dyn_storage": {
						"base": "t_string_storage",
						"encoding": "dynamic_array",
						"label": "string[]",
						"numberOfBytes": "32"
					},
					"t_bytes32": {
						"encoding": "inplace",
						"label": "bytes32",
						"numberOfBytes": "32"
					},
					"t_mapping(t_address,t_array(t_string_storage)dyn_storage)": {
						"encoding": "mapping",
						"key": "t_address",
						"label": "mapping(address => string[])",
						"numberOfBytes": "32",
						"value": "t_array(t_string_storage)dyn_storage"
					},
					"t_mapping(t_address,t_string_storage)": {
						"encoding": "mapping",
						"key": "t_address",
						"label": "mapping(address => string)",
						"numberOfBytes": "32",
						"value": "t_string_storage"
					},
					"t_mapping(t_address,t_struct(Credential)23_storage)": {
						"encoding": "mapping",
						"key": "t_address",
						"label": "mapping(address => struct DIDRegistry.Credential)",
						"numberOfBytes": "32",
						"value": "t_struct(Credential)23_storage"
					},
					"t_mapping(t_address,t_struct(DID)7_storage)": {
						"encoding": "mapping",
						"key": "t_address",
						"label": "mapping(address => struct DIDRegistry.DID)",
						"numberOfBytes": "32",
						"value": "t_struct(DID)7_storage"
					},
					"t_mapping(t_address,t_struct(Metadata)14_storage)": {
						"encoding": "mapping",
						"key": "t_address",
						"label": "mapping(address => struct DIDRegistry.Metadata)",
						"numberOfBytes": "32",
						"value": "t_struct(Metadata)14_storage"
					},
					"t_string_storage": {
						"encoding": "bytes",
						"label": "string",
						"numberOfBytes": "32"
					},
					"t_struct(Credential)23_storage": {
						"encoding": "inplace",
						"label": "struct DIDRegistry.Credential",
						"members": [
							{
								"astId": 16,
								"contract": "DIDRegistry.sol:DIDRegistry",
								"label": "issuer",
								"offset": 0,
								"slot": "0",
								"type": "t_address"
							},
							{
								"astId": 18,
								"contract": "DIDRegistry.sol:DIDRegistry",
								"label": "role",
								"offset": 0,
								"slot": "1",
								"type": "t_string_storage"
							},
							{
								"astId": 20,
								"contract": "DIDRegistry.sol:DIDRegistry",
								"label": "hashed",
								"offset": 0,
								"slot": "2",
								"type": "t_bytes32"
							},
							{
								"astId": 22,
								"contract": "DIDRegistry.sol:DIDRegistry",
								"label": "issueAt",
								"offset": 0,
								"slot": "3",
								"type": "t_uint256"
							}
						],
						"numberOfBytes": "128"
					},
					"t_struct(DID)7_storage": {
						"encoding": "inplace",
						"label": "struct DIDRegistry.DID",
						"members": [
							{
								"astId": 4,
								"contract": "DIDRegistry.sol:DIDRegistry",
								"label": "identifier",
								"offset": 0,
								"slot": "0",
								"type": "t_string_storage"
							},
							{
								"astId": 6,
								"contract": "DIDRegistry.sol:DIDRegistry",
								"label": "owner",
								"offset": 0,
								"slot": "1",
								"type": "t_address"
							}
						],
						"numberOfBytes": "64"
					},
					"t_struct(Metadata)14_storage": {
						"encoding": "inplace",
						"label": "struct DIDRegistry.Metadata",
						"members": [
							{
								"astId": 9,
								"contract": "DIDRegistry.sol:DIDRegistry",
								"label": "name",
								"offset": 0,
								"slot": "0",
								"type": "t_string_storage"
							},
							{
								"astId": 11,
								"contract": "DIDRegistry.sol:DIDRegistry",
								"label": "email",
								"offset": 0,
								"slot": "1",
								"type": "t_string_storage"
							},
							{
								"astId": 13,
								"contract": "DIDRegistry.sol:DIDRegistry",
								"label": "profilePicture",
								"offset": 0,
								"slot": "2",
								"type": "t_string_storage"
							}
						],
						"numberOfBytes": "96"
					},
					"t_uint256": {
						"encoding": "inplace",
						"label": "uint256",
						"numberOfBytes": "32"
					}
				}
			},
			"userdoc": {
				"kind": "user",
				"methods": {},
				"version": 1
			}
		}
	}
}