{
	"DIDRegistry.sol": {
		"DIDRegistry": {
			"abi": [
				{
					"inputs": [],
					"stateMutability": "nonpayable",
					"type": "constructor"
				},
				{
					"anonymous": false,
					"inputs": [
						{
							"indexed": true,
							"internalType": "address",
							"name": "owner",
							"type": "address"
						},
						{
							"indexed": false,
							"internalType": "string",
							"name": "identifier",
							"type": "string"
						}
					],
					"name": "DIDCreated",
					"type": "event"
				},
				{
					"anonymous": false,
					"inputs": [
						{
							"indexed": true,
							"internalType": "address",
							"name": "owner",
							"type": "address"
						},
						{
							"indexed": false,
							"internalType": "string",
							"name": "name",
							"type": "string"
						},
						{
							"indexed": false,
							"internalType": "string",
							"name": "email",
							"type": "string"
						},
						{
							"indexed": false,
							"internalType": "string",
							"name": "profilePicture",
							"type": "string"
						}
					],
					"name": "MetadataCreated",
					"type": "event"
				},
				{
					"anonymous": false,
					"inputs": [
						{
							"indexed": true,
							"internalType": "address",
							"name": "user",
							"type": "address"
						},
						{
							"indexed": false,
							"internalType": "string",
							"name": "role",
							"type": "string"
						}
					],
					"name": "RoleAssigned",
					"type": "event"
				},
				{
					"anonymous": false,
					"inputs": [
						{
							"indexed": true,
							"internalType": "address",
							"name": "issuer",
							"type": "address"
						},
						{
							"indexed": false,
							"internalType": "address",
							"name": "user",
							"type": "address"
						},
						{
							"indexed": false,
							"internalType": "string",
							"name": "role",
							"type": "string"
						},
						{
							"indexed": false,
							"internalType": "bytes32",
							"name": "roleHash",
							"type": "bytes32"
						}
					],
					"name": "RoleIssued",
					"type": "event"
				},
				{
					"inputs": [
						{
							"internalType": "address",
							"name": "_user",
							"type": "address"
						},
						{
							"internalType": "string",
							"name": "_role",
							"type": "string"
						}
					],
					"name": "assignRole",
					"outputs": [],
					"stateMutability": "nonpayable",
					"type": "function"
				},
				{
					"inputs": [
						{
							"internalType": "string",
							"name": "_identifier",
							"type": "string"
						}
					],
					"name": "createDID",
					"outputs": [],
					"stateMutability": "nonpayable",
					"type": "function"
				},
				{
					"inputs": [],
					"name": "getDID",
					"outputs": [
						{
							"internalType": "string",
							"name": "",
							"type": "string"
						}
					],
					"stateMutability": "view",
					"type": "function"
				},
				{
					"inputs": [],
					"name": "getMetadata",
					"outputs": [
						{
							"components": [
								{
									"internalType": "string",
									"name": "name",
									"type": "string"
								},
								{
									"internalType": "string",
									"name": "email",
									"type": "string"
								},
								{
									"internalType": "string",
									"name": "profilePicture",
									"type": "string"
								}
							],
							"internalType": "struct DIDRegistry.Metadata",
							"name": "",
							"type": "tuple"
						}
					],
					"stateMutability": "view",
					"type": "function"
				},
				{
					"inputs": [],
					"name": "getRole",
					"outputs": [
						{
							"internalType": "string[]",
							"name": "",
							"type": "string[]"
						}
					],
					"stateMutability": "view",
					"type": "function"
				},
				{
					"inputs": [
						{
							"internalType": "address",
							"name": "_user",
							"type": "address"
						},
						{
							"internalType": "string",
							"name": "_role",
							"type": "string"
						}
					],
					"name": "issueRole",
					"outputs": [],
					"stateMutability": "nonpayable",
					"type": "function"
				},
				{
					"inputs": [
						{
							"internalType": "string",
							"name": "_name",
							"type": "string"
						},
						{
							"internalType": "string",
							"name": "_email",
							"type": "string"
						}
					],
					"name": "presentCredential",
					"outputs": [
						{
							"internalType": "bytes32",
							"name": "",
							"type": "bytes32"
						}
					],
					"stateMutability": "view",
					"type": "function"
				},
				{
					"inputs": [
						{
							"internalType": "string",
							"name": "_name",
							"type": "string"
						},
						{
							"internalType": "string",
							"name": "_email",
							"type": "string"
						},
						{
							"internalType": "string",
							"name": "_profilePicture",
							"type": "string"
						}
					],
					"name": "setMetadata",
					"outputs": [],
					"stateMutability": "nonpayable",
					"type": "function"
				},
				{
					"inputs": [
						{
							"internalType": "string",
							"name": "_newIdentifier",
							"type": "string"
						}
					],
					"name": "updateDID",
					"outputs": [],
					"stateMutability": "nonpayable",
					"type": "function"
				},
				{
					"inputs": [
						{
							"internalType": "bytes32",
							"name": "presentedHash",
							"type": "bytes32"
						}
					],
					"name": "verifyCredential",
					"outputs": [
						{
							"internalType": "bool",
							"name": "",
							"type": "bool"
						}
					],
					"stateMutability": "view",
					"type": "function"
				}
			],
			"devdoc": {
				"details": "Contract to store and manage DIDs  Authors: - Kong Phirom - Hul Sambath - Prak Pichey - Him Ronald - Chhim Kakada",
				"kind": "dev",
				"methods": {},
				"title": "DIDRegistry",
				"version": 1
			},
			"evm": {
				"assembly": "    /* \"DIDRegistry.sol\":246:6988  contract DIDRegistry {... */\n  mstore(0x40, 0x80)\n    /* \"DIDRegistry.sol\":1158:1270  constructor() {... */\n  callvalue\n  dup1\n  iszero\n  tag_1\n  jumpi\n  0x00\n  dup1\n  revert\ntag_1:\n  pop\n    /* \"DIDRegistry.sol\":1183:1212  roles[msg.sender] = \"manager\" */\n  mload(0x40)\n  dup1\n  0x40\n  add\n  0x40\n  mstore\n  dup1\n  0x07\n  dup2\n  mstore\n  0x20\n  add\n  0x6d616e6167657200000000000000000000000000000000000000000000000000\n  dup2\n  mstore\n  pop\n    /* \"DIDRegistry.sol\":1183:1188  roles */\n  0x01\n    /* \"DIDRegistry.sol\":1183:1200  roles[msg.sender] */\n  0x00\n    /* \"DIDRegistry.sol\":1189:1199  msg.sender */\n  caller\n    /* \"DIDRegistry.sol\":1183:1200  roles[msg.sender] */\n  0xffffffffffffffffffffffffffffffffffffffff\n  and\n  0xffffffffffffffffffffffffffffffffffffffff\n  and\n  dup2\n  mstore\n  0x20\n  add\n  swap1\n  dup2\n  mstore\n  0x20\n  add\n  0x00\n  keccak256\n    /* \"DIDRegistry.sol\":1183:1212  roles[msg.sender] = \"manager\" */\n  swap1\n  dup2\n  tag_4\n  swap2\n  swap1\n  tag_5\n  jump\t// in\ntag_4:\n  pop\n    /* \"DIDRegistry.sol\":1223:1234  roleHistory */\n  0x02\n    /* \"DIDRegistry.sol\":1223:1246  roleHistory[msg.sender] */\n  0x00\n    /* \"DIDRegistry.sol\":1235:1245  msg.sender */\n  caller\n    /* \"DIDRegistry.sol\":1223:1246  roleHistory[msg.sender] */\n  0xffffffffffffffffffffffffffffffffffffffff\n  and\n  0xffffffffffffffffffffffffffffffffffffffff\n  and\n  dup2\n  mstore\n  0x20\n  add\n  swap1\n  dup2\n  mstore\n  0x20\n  add\n  0x00\n  keccak256\n    /* \"DIDRegistry.sol\":1223:1262  roleHistory[msg.sender].push(\"manager\") */\n  dup1\n  0x01\n  dup2\n  sload\n  add\n  dup1\n  dup3\n  sstore\n  dup1\n  swap2\n  pop\n  pop\n  0x01\n  swap1\n  sub\n  swap1\n  0x00\n  mstore\n  keccak256(0x00, 0x20)\n  add\n  0x00\n  mload(0x40)\n  dup1\n  0x40\n  add\n  0x40\n  mstore\n  dup1\n  0x07\n  dup2\n  mstore\n  0x20\n  add\n  0x6d616e6167657200000000000000000000000000000000000000000000000000\n  dup2\n  mstore\n  pop\n  swap1\n  swap2\n  swap1\n  swap2\n  pop\n  swap1\n  dup2\n  tag_7\n  swap2\n  swap1\n  tag_5\n  jump\t// in\ntag_7:\n  pop\n    /* \"DIDRegistry.sol\":246:6988  contract DIDRegistry {... */\n  jump(tag_8)\n    /* \"#utility.yul\":7:106   */\ntag_9:\n    /* \"#utility.yul\":59:65   */\n  0x00\n    /* \"#utility.yul\":93:98   */\n  dup2\n    /* \"#utility.yul\":87:99   */\n  mload\n    /* \"#utility.yul\":77:99   */\n  swap1\n  pop\n    /* \"#utility.yul\":7:106   */\n  swap2\n  swap1\n  pop\n  jump\t// out\n    /* \"#utility.yul\":112:292   */\ntag_10:\n    /* \"#utility.yul\":160:237   */\n  0x4e487b7100000000000000000000000000000000000000000000000000000000\n    /* \"#utility.yul\":157:158   */\n  0x00\n    /* \"#utility.yul\":150:238   */\n  mstore\n    /* \"#utility.yul\":257:261   */\n  0x41\n    /* \"#utility.yul\":254:255   */\n  0x04\n    /* \"#utility.yul\":247:262   */\n  mstore\n    /* \"#utility.yul\":281:285   */\n  0x24\n    /* \"#utility.yul\":278:279   */\n  0x00\n    /* \"#utility.yul\":271:286   */\n  revert\n    /* \"#utility.yul\":298:478   */\ntag_11:\n    /* \"#utility.yul\":346:423   */\n  0x4e487b7100000000000000000000000000000000000000000000000000000000\n    /* \"#utility.yul\":343:344   */\n  0x00\n    /* \"#utility.yul\":336:424   */\n  mstore\n    /* \"#utility.yul\":443:447   */\n  0x22\n    /* \"#utility.yul\":440:441   */\n  0x04\n    /* \"#utility.yul\":433:448   */\n  mstore\n    /* \"#utility.yul\":467:471   */\n  0x24\n    /* \"#utility.yul\":464:465   */\n  0x00\n    /* \"#utility.yul\":457:472   */\n  revert\n    /* \"#utility.yul\":484:804   */\ntag_12:\n    /* \"#utility.yul\":528:534   */\n  0x00\n    /* \"#utility.yul\":565:566   */\n  0x02\n    /* \"#utility.yul\":559:563   */\n  dup3\n    /* \"#utility.yul\":555:567   */\n  div\n    /* \"#utility.yul\":545:567   */\n  swap1\n  pop\n    /* \"#utility.yul\":612:613   */\n  0x01\n    /* \"#utility.yul\":606:610   */\n  dup3\n    /* \"#utility.yul\":602:614   */\n  and\n    /* \"#utility.yul\":633:651   */\n  dup1\n    /* \"#utility.yul\":623:704   */\n  tag_34\n  jumpi\n    /* \"#utility.yul\":689:693   */\n  0x7f\n    /* \"#utility.yul\":681:687   */\n  dup3\n    /* \"#utility.yul\":677:694   */\n  and\n    /* \"#utility.yul\":667:694   */\n  swap2\n  pop\n    /* \"#utility.yul\":623:704   */\ntag_34:\n    /* \"#utility.yul\":751:753   */\n  0x20\n    /* \"#utility.yul\":743:749   */\n  dup3\n    /* \"#utility.yul\":740:754   */\n  lt\n    /* \"#utility.yul\":720:738   */\n  dup2\n    /* \"#utility.yul\":717:755   */\n  sub\n    /* \"#utility.yul\":714:798   */\n  tag_35\n  jumpi\n    /* \"#utility.yul\":770:788   */\n  tag_36\n  tag_11\n  jump\t// in\ntag_36:\n    /* \"#utility.yul\":714:798   */\ntag_35:\n    /* \"#utility.yul\":535:804   */\n  pop\n    /* \"#utility.yul\":484:804   */\n  swap2\n  swap1\n  pop\n  jump\t// out\n    /* \"#utility.yul\":810:951   */\ntag_13:\n    /* \"#utility.yul\":859:863   */\n  0x00\n    /* \"#utility.yul\":882:885   */\n  dup2\n    /* \"#utility.yul\":874:885   */\n  swap1\n  pop\n    /* \"#utility.yul\":905:908   */\n  dup2\n    /* \"#utility.yul\":902:903   */\n  0x00\n    /* \"#utility.yul\":895:909   */\n  mstore\n    /* \"#utility.yul\":939:943   */\n  0x20\n    /* \"#utility.yul\":936:937   */\n  0x00\n    /* \"#utility.yul\":926:944   */\n  keccak256\n    /* \"#utility.yul\":918:944   */\n  swap1\n  pop\n    /* \"#utility.yul\":810:951   */\n  swap2\n  swap1\n  pop\n  jump\t// out\n    /* \"#utility.yul\":957:1050   */\ntag_14:\n    /* \"#utility.yul\":994:1000   */\n  0x00\n    /* \"#utility.yul\":1041:1043   */\n  0x20\n    /* \"#utility.yul\":1036:1038   */\n  0x1f\n    /* \"#utility.yul\":1029:1034   */\n  dup4\n    /* \"#utility.yul\":1025:1039   */\n  add\n    /* \"#utility.yul\":1021:1044   */\n  div\n    /* \"#utility.yul\":1011:1044   */\n  swap1\n  pop\n    /* \"#utility.yul\":957:1050   */\n  swap2\n  swap1\n  pop\n  jump\t// out\n    /* \"#utility.yul\":1056:1163   */\ntag_15:\n    /* \"#utility.yul\":1100:1108   */\n  0x00\n    /* \"#utility.yul\":1150:1155   */\n  dup3\n    /* \"#utility.yul\":1144:1148   */\n  dup3\n    /* \"#utility.yul\":1140:1156   */\n  shl\n    /* \"#utility.yul\":1119:1156   */\n  swap1\n  pop\n    /* \"#utility.yul\":1056:1163   */\n  swap3\n  swap2\n  pop\n  pop\n  jump\t// out\n    /* \"#utility.yul\":1169:1562   */\ntag_16:\n    /* \"#utility.yul\":1238:1244   */\n  0x00\n    /* \"#utility.yul\":1288:1289   */\n  0x08\n    /* \"#utility.yul\":1276:1286   */\n  dup4\n    /* \"#utility.yul\":1272:1290   */\n  mul\n    /* \"#utility.yul\":1311:1408   */\n  tag_41\n    /* \"#utility.yul\":1341:1407   */\n  0xffffffffffffffffffffffffffffffffffffffffffffffffffffffffffffffff\n    /* \"#utility.yul\":1330:1339   */\n  dup3\n    /* \"#utility.yul\":1311:1408   */\n  tag_15\n  jump\t// in\ntag_41:\n    /* \"#utility.yul\":1429:1468   */\n  tag_42\n    /* \"#utility.yul\":1459:1467   */\n  dup7\n    /* \"#utility.yul\":1448:1457   */\n  dup4\n    /* \"#utility.yul\":1429:1468   */\n  tag_15\n  jump\t// in\ntag_42:\n    /* \"#utility.yul\":1417:1468   */\n  swap6\n  pop\n    /* \"#utility.yul\":1501:1505   */\n  dup1\n    /* \"#utility.yul\":1497:1506   */\n  not\n    /* \"#utility.yul\":1490:1495   */\n  dup5\n    /* \"#utility.yul\":1486:1507   */\n  and\n    /* \"#utility.yul\":1477:1507   */\n  swap4\n  pop\n    /* \"#utility.yul\":1550:1554   */\n  dup1\n    /* \"#utility.yul\":1540:1548   */\n  dup7\n    /* \"#utility.yul\":1536:1555   */\n  and\n    /* \"#utility.yul\":1529:1534   */\n  dup5\n    /* \"#utility.yul\":1526:1556   */\n  or\n    /* \"#utility.yul\":1516:1556   */\n  swap3\n  pop\n    /* \"#utility.yul\":1245:1562   */\n  pop\n  pop\n    /* \"#utility.yul\":1169:1562   */\n  swap4\n  swap3\n  pop\n  pop\n  pop\n  jump\t// out\n    /* \"#utility.yul\":1568:1645   */\ntag_17:\n    /* \"#utility.yul\":1605:1612   */\n  0x00\n    /* \"#utility.yul\":1634:1639   */\n  dup2\n    /* \"#utility.yul\":1623:1639   */\n  swap1\n  pop\n    /* \"#utility.yul\":1568:1645   */\n  swap2\n  swap1\n  pop\n  jump\t// out\n    /* \"#utility.yul\":1651:1711   */\ntag_18:\n    /* \"#utility.yul\":1679:1682   */\n  0x00\n    /* \"#utility.yul\":1700:1705   */\n  dup2\n    /* \"#utility.yul\":1693:1705   */\n  swap1\n  pop\n    /* \"#utility.yul\":1651:1711   */\n  swap2\n  swap1\n  pop\n  jump\t// out\n    /* \"#utility.yul\":1717:1859   */\ntag_19:\n    /* \"#utility.yul\":1767:1776   */\n  0x00\n    /* \"#utility.yul\":1800:1853   */\n  tag_46\n    /* \"#utility.yul\":1818:1852   */\n  tag_47\n    /* \"#utility.yul\":1827:1851   */\n  tag_48\n    /* \"#utility.yul\":1845:1850   */\n  dup5\n    /* \"#utility.yul\":1827:1851   */\n  tag_17\n  jump\t// in\ntag_48:\n    /* \"#utility.yul\":1818:1852   */\n  tag_18\n  jump\t// in\ntag_47:\n    /* \"#utility.yul\":1800:1853   */\n  tag_17\n  jump\t// in\ntag_46:\n    /* \"#utility.yul\":1787:1853   */\n  swap1\n  pop\n    /* \"#utility.yul\":1717:1859   */\n  swap2\n  swap1\n  pop\n  jump\t// out\n    /* \"#utility.yul\":1865:1940   */\ntag_20:\n    /* \"#utility.yul\":1908:1911   */\n  0x00\n    /* \"#utility.yul\":1929:1934   */\n  dup2\n    /* \"#utility.yul\":1922:1934   */\n  swap1\n  pop\n    /* \"#utility.yul\":1865:1940   */\n  swap2\n  swap1\n  pop\n  jump\t// out\n    /* \"#utility.yul\":1946:2215   */\ntag_21:\n    /* \"#utility.yul\":2056:2095   */\n  tag_51\n    /* \"#utility.yul\":2087:2094   */\n  dup4\n    /* \"#utility.yul\":2056:2095   */\n  tag_19\n  jump\t// in\ntag_51:\n    /* \"#utility.yul\":2117:2208   */\n  tag_52\n    /* \"#utility.yul\":2166:2207   */\n  tag_53\n    /* \"#utility.yul\":2190:2206   */\n  dup3\n    /* \"#utility.yul\":2166:2207   */\n  tag_20\n  jump\t// in\ntag_53:\n    /* \"#utility.yul\":2158:2164   */\n  dup5\n    /* \"#utility.yul\":2151:2155   */\n  dup5\n    /* \"#utility.yul\":2145:2156   */\n  sload\n    /* \"#utility.yul\":2117:2208   */\n  tag_16\n  jump\t// in\ntag_52:\n    /* \"#utility.yul\":2111:2115   */\n  dup3\n    /* \"#utility.yul\":2104:2209   */\n  sstore\n    /* \"#utility.yul\":2022:2215   */\n  pop\n    /* \"#utility.yul\":1946:2215   */\n  pop\n  pop\n  pop\n  jump\t// out\n    /* \"#utility.yul\":2221:2294   */\ntag_22:\n    /* \"#utility.yul\":2266:2269   */\n  0x00\n    /* \"#utility.yul\":2221:2294   */\n  swap1\n  jump\t// out\n    /* \"#utility.yul\":2300:2489   */\ntag_23:\n    /* \"#utility.yul\":2377:2409   */\n  tag_56\n  tag_22\n  jump\t// in\ntag_56:\n    /* \"#utility.yul\":2418:2483   */\n  tag_57\n    /* \"#utility.yul\":2476:2482   */\n  dup2\n    /* \"#utility.yul\":2468:2474   */\n  dup5\n    /* \"#utility.yul\":2462:2466   */\n  dup5\n    /* \"#utility.yul\":2418:2483   */\n  tag_21\n  jump\t// in\ntag_57:\n    /* \"#utility.yul\":2353:2489   */\n  pop\n    /* \"#utility.yul\":2300:2489   */\n  pop\n  pop\n  jump\t// out\n    /* \"#utility.yul\":2495:2681   */\ntag_24:\n    /* \"#utility.yul\":2555:2675   */\ntag_59:\n    /* \"#utility.yul\":2572:2575   */\n  dup2\n    /* \"#utility.yul\":2565:2570   */\n  dup2\n    /* \"#utility.yul\":2562:2576   */\n  lt\n    /* \"#utility.yul\":2555:2675   */\n  iszero\n  tag_61\n  jumpi\n    /* \"#utility.yul\":2626:2665   */\n  tag_62\n    /* \"#utility.yul\":2663:2664   */\n  0x00\n    /* \"#utility.yul\":2656:2661   */\n  dup3\n    /* \"#utility.yul\":2626:2665   */\n  tag_23\n  jump\t// in\ntag_62:\n    /* \"#utility.yul\":2599:2600   */\n  0x01\n    /* \"#utility.yul\":2592:2597   */\n  dup2\n    /* \"#utility.yul\":2588:2601   */\n  add\n    /* \"#utility.yul\":2579:2601   */\n  swap1\n  pop\n    /* \"#utility.yul\":2555:2675   */\n  jump(tag_59)\ntag_61:\n    /* \"#utility.yul\":2495:2681   */\n  pop\n  pop\n  jump\t// out\n    /* \"#utility.yul\":2687:3230   */\ntag_25:\n    /* \"#utility.yul\":2788:2790   */\n  0x1f\n    /* \"#utility.yul\":2783:2786   */\n  dup3\n    /* \"#utility.yul\":2780:2791   */\n  gt\n    /* \"#utility.yul\":2777:3223   */\n  iszero\n  tag_64\n  jumpi\n    /* \"#utility.yul\":2822:2860   */\n  tag_65\n    /* \"#utility.yul\":2854:2859   */\n  dup2\n    /* \"#utility.yul\":2822:2860   */\n  tag_13\n  jump\t// in\ntag_65:\n    /* \"#utility.yul\":2906:2935   */\n  tag_66\n    /* \"#utility.yul\":2924:2934   */\n  dup5\n    /* \"#utility.yul\":2906:2935   */\n  tag_14\n  jump\t// in\ntag_66:\n    /* \"#utility.yul\":2896:2904   */\n  dup2\n    /* \"#utility.yul\":2892:2936   */\n  add\n    /* \"#utility.yul\":3089:3091   */\n  0x20\n    /* \"#utility.yul\":3077:3087   */\n  dup6\n    /* \"#utility.yul\":3074:3092   */\n  lt\n    /* \"#utility.yul\":3071:3120   */\n  iszero\n  tag_67\n  jumpi\n    /* \"#utility.yul\":3110:3118   */\n  dup2\n    /* \"#utility.yul\":3095:3118   */\n  swap1\n  pop\n    /* \"#utility.yul\":3071:3120   */\ntag_67:\n    /* \"#utility.yul\":3133:3213   */\n  tag_68\n    /* \"#utility.yul\":3189:3211   */\n  tag_69\n    /* \"#utility.yul\":3207:3210   */\n  dup6\n    /* \"#utility.yul\":3189:3211   */\n  tag_14\n  jump\t// in\ntag_69:\n    /* \"#utility.yul\":3179:3187   */\n  dup4\n    /* \"#utility.yul\":3175:3212   */\n  add\n    /* \"#utility.yul\":3162:3173   */\n  dup3\n    /* \"#utility.yul\":3133:3213   */\n  tag_24\n  jump\t// in\ntag_68:\n    /* \"#utility.yul\":2792:3223   */\n  pop\n  pop\n    /* \"#utility.yul\":2777:3223   */\ntag_64:\n    /* \"#utility.yul\":2687:3230   */\n  pop\n  pop\n  pop\n  jump\t// out\n    /* \"#utility.yul\":3236:3353   */\ntag_26:\n    /* \"#utility.yul\":3290:3298   */\n  0x00\n    /* \"#utility.yul\":3340:3345   */\n  dup3\n    /* \"#utility.yul\":3334:3338   */\n  dup3\n    /* \"#utility.yul\":3330:3346   */\n  shr\n    /* \"#utility.yul\":3309:3346   */\n  swap1\n  pop\n    /* \"#utility.yul\":3236:3353   */\n  swap3\n  swap2\n  pop\n  pop\n  jump\t// out\n    /* \"#utility.yul\":3359:3528   */\ntag_27:\n    /* \"#utility.yul\":3403:3409   */\n  0x00\n    /* \"#utility.yul\":3436:3487   */\n  tag_72\n    /* \"#utility.yul\":3484:3485   */\n  0x00\n    /* \"#utility.yul\":3480:3486   */\n  not\n    /* \"#utility.yul\":3472:3477   */\n  dup5\n    /* \"#utility.yul\":3469:3470   */\n  0x08\n    /* \"#utility.yul\":3465:3478   */\n  mul\n    /* \"#utility.yul\":3436:3487   */\n  tag_26\n  jump\t// in\ntag_72:\n    /* \"#utility.yul\":3432:3488   */\n  not\n    /* \"#utility.yul\":3517:3521   */\n  dup1\n    /* \"#utility.yul\":3511:3515   */\n  dup4\n    /* \"#utility.yul\":3507:3522   */\n  and\n    /* \"#utility.yul\":3497:3522   */\n  swap2\n  pop\n    /* \"#utility.yul\":3410:3528   */\n  pop\n    /* \"#utility.yul\":3359:3528   */\n  swap3\n  swap2\n  pop\n  pop\n  jump\t// out\n    /* \"#utility.yul\":3533:3828   */\ntag_28:\n    /* \"#utility.yul\":3609:3613   */\n  0x00\n    /* \"#utility.yul\":3755:3784   */\n  tag_74\n    /* \"#utility.yul\":3780:3783   */\n  dup4\n    /* \"#utility.yul\":3774:3778   */\n  dup4\n    /* \"#utility.yul\":3755:3784   */\n  tag_27\n  jump\t// in\ntag_74:\n    /* \"#utility.yul\":3747:3784   */\n  swap2\n  pop\n    /* \"#utility.yul\":3817:3820   */\n  dup3\n    /* \"#utility.yul\":3814:3815   */\n  0x02\n    /* \"#utility.yul\":3810:3821   */\n  mul\n    /* \"#utility.yul\":3804:3808   */\n  dup3\n    /* \"#utility.yul\":3801:3822   */\n  or\n    /* \"#utility.yul\":3793:3822   */\n  swap1\n  pop\n    /* \"#utility.yul\":3533:3828   */\n  swap3\n  swap2\n  pop\n  pop\n  jump\t// out\n    /* \"#utility.yul\":3833:5228   */\ntag_5:\n    /* \"#utility.yul\":3950:3987   */\n  tag_76\n    /* \"#utility.yul\":3983:3986   */\n  dup3\n    /* \"#utility.yul\":3950:3987   */\n  tag_9\n  jump\t// in\ntag_76:\n    /* \"#utility.yul\":4052:4070   */\n  0xffffffffffffffff\n    /* \"#utility.yul\":4044:4050   */\n  dup2\n    /* \"#utility.yul\":4041:4071   */\n  gt\n    /* \"#utility.yul\":4038:4094   */\n  iszero\n  tag_77\n  jumpi\n    /* \"#utility.yul\":4074:4092   */\n  tag_78\n  tag_10\n  jump\t// in\ntag_78:\n    /* \"#utility.yul\":4038:4094   */\ntag_77:\n    /* \"#utility.yul\":4118:4156   */\n  tag_79\n    /* \"#utility.yul\":4150:4154   */\n  dup3\n    /* \"#utility.yul\":4144:4155   */\n  sload\n    /* \"#utility.yul\":4118:4156   */\n  tag_12\n  jump\t// in\ntag_79:\n    /* \"#utility.yul\":4203:4270   */\n  tag_80\n    /* \"#utility.yul\":4263:4269   */\n  dup3\n    /* \"#utility.yul\":4255:4261   */\n  dup3\n    /* \"#utility.yul\":4249:4253   */\n  dup6\n    /* \"#utility.yul\":4203:4270   */\n  tag_25\n  jump\t// in\ntag_80:\n    /* \"#utility.yul\":4297:4298   */\n  0x00\n    /* \"#utility.yul\":4321:4325   */\n  0x20\n    /* \"#utility.yul\":4308:4325   */\n  swap1\n  pop\n    /* \"#utility.yul\":4353:4355   */\n  0x1f\n    /* \"#utility.yul\":4345:4351   */\n  dup4\n    /* \"#utility.yul\":4342:4356   */\n  gt\n    /* \"#utility.yul\":4370:4371   */\n  0x01\n    /* \"#utility.yul\":4365:4983   */\n  dup2\n  eq\n  tag_82\n  jumpi\n    /* \"#utility.yul\":5027:5028   */\n  0x00\n    /* \"#utility.yul\":5044:5050   */\n  dup5\n    /* \"#utility.yul\":5041:5118   */\n  iszero\n  tag_83\n  jumpi\n    /* \"#utility.yul\":5093:5102   */\n  dup3\n    /* \"#utility.yul\":5088:5091   */\n  dup8\n    /* \"#utility.yul\":5084:5103   */\n  add\n    /* \"#utility.yul\":5078:5104   */\n  mload\n    /* \"#utility.yul\":5069:5104   */\n  swap1\n  pop\n    /* \"#utility.yul\":5041:5118   */\ntag_83:\n    /* \"#utility.yul\":5144:5211   */\n  tag_84\n    /* \"#utility.yul\":5204:5210   */\n  dup6\n    /* \"#utility.yul\":5197:5202   */\n  dup3\n    /* \"#utility.yul\":5144:5211   */\n  tag_28\n  jump\t// in\ntag_84:\n    /* \"#utility.yul\":5138:5142   */\n  dup7\n    /* \"#utility.yul\":5131:5212   */\n  sstore\n    /* \"#utility.yul\":5000:5222   */\n  pop\n    /* \"#utility.yul\":4335:5222   */\n  jump(tag_81)\n    /* \"#utility.yul\":4365:4983   */\ntag_82:\n    /* \"#utility.yul\":4417:4421   */\n  0x1f\n    /* \"#utility.yul\":4413:4422   */\n  not\n    /* \"#utility.yul\":4405:4411   */\n  dup5\n    /* \"#utility.yul\":4401:4423   */\n  and\n    /* \"#utility.yul\":4451:4488   */\n  tag_85\n    /* \"#utility.yul\":4483:4487   */\n  dup7\n    /* \"#utility.yul\":4451:4488   */\n  tag_13\n  jump\t// in\ntag_85:\n    /* \"#utility.yul\":4510:4511   */\n  0x00\n    /* \"#utility.yul\":4524:4732   */\ntag_86:\n    /* \"#utility.yul\":4538:4545   */\n  dup3\n    /* \"#utility.yul\":4535:4536   */\n  dup2\n    /* \"#utility.yul\":4532:4546   */\n  lt\n    /* \"#utility.yul\":4524:4732   */\n  iszero\n  tag_88\n  jumpi\n    /* \"#utility.yul\":4617:4626   */\n  dup5\n    /* \"#utility.yul\":4612:4615   */\n  dup10\n    /* \"#utility.yul\":4608:4627   */\n  add\n    /* \"#utility.yul\":4602:4628   */\n  mload\n    /* \"#utility.yul\":4594:4600   */\n  dup3\n    /* \"#utility.yul\":4587:4629   */\n  sstore\n    /* \"#utility.yul\":4668:4669   */\n  0x01\n    /* \"#utility.yul\":4660:4666   */\n  dup3\n    /* \"#utility.yul\":4656:4670   */\n  add\n    /* \"#utility.yul\":4646:4670   */\n  swap2\n  pop\n    /* \"#utility.yul\":4715:4717   */\n  0x20\n    /* \"#utility.yul\":4704:4713   */\n  dup6\n    /* \"#utility.yul\":4700:4718   */\n  add\n    /* \"#utility.yul\":4687:4718   */\n  swap5\n  pop\n    /* \"#utility.yul\":4561:4565   */\n  0x20\n    /* \"#utility.yul\":4558:4559   */\n  dup2\n    /* \"#utility.yul\":4554:4566   */\n  add\n    /* \"#utility.yul\":4549:4566   */\n  swap1\n  pop\n    /* \"#utility.yul\":4524:4732   */\n  jump(tag_86)\ntag_88:\n    /* \"#utility.yul\":4760:4766   */\n  dup7\n    /* \"#utility.yul\":4751:4758   */\n  dup4\n    /* \"#utility.yul\":4748:4767   */\n  lt\n    /* \"#utility.yul\":4745:4924   */\n  iszero\n  tag_89\n  jumpi\n    /* \"#utility.yul\":4818:4827   */\n  dup5\n    /* \"#utility.yul\":4813:4816   */\n  dup10\n    /* \"#utility.yul\":4809:4828   */\n  add\n    /* \"#utility.yul\":4803:4829   */\n  mload\n    /* \"#utility.yul\":4861:4909   */\n  tag_90\n    /* \"#utility.yul\":4903:4907   */\n  0x1f\n    /* \"#utility.yul\":4895:4901   */\n  dup10\n    /* \"#utility.yul\":4891:4908   */\n  and\n    /* \"#utility.yul\":4880:4889   */\n  dup3\n    /* \"#utility.yul\":4861:4909   */\n  tag_27\n  jump\t// in\ntag_90:\n    /* \"#utility.yul\":4853:4859   */\n  dup4\n    /* \"#utility.yul\":4846:4910   */\n  sstore\n    /* \"#utility.yul\":4768:4924   */\n  pop\n    /* \"#utility.yul\":4745:4924   */\ntag_89:\n    /* \"#utility.yul\":4970:4971   */\n  0x01\n    /* \"#utility.yul\":4966:4967   */\n  0x02\n    /* \"#utility.yul\":4958:4964   */\n  dup9\n    /* \"#utility.yul\":4954:4968   */\n  mul\n    /* \"#utility.yul\":4950:4972   */\n  add\n    /* \"#utility.yul\":4944:4948   */\n  dup9\n    /* \"#utility.yul\":4937:4973   */\n  sstore\n    /* \"#utility.yul\":4372:4983   */\n  pop\n  pop\n  pop\n    /* \"#utility.yul\":4335:5222   */\ntag_81:\n  pop\n    /* \"#utility.yul\":3925:5228   */\n  pop\n  pop\n  pop\n    /* \"#utility.yul\":3833:5228   */\n  pop\n  pop\n  jump\t// out\n    /* \"DIDRegistry.sol\":246:6988  contract DIDRegistry {... */\ntag_8:\n  dataSize(sub_0)\n  dup1\n  dataOffset(sub_0)\n  0x00\n  codecopy\n  0x00\n  return\nstop\n\nsub_0: assembly {\n        /* \"DIDRegistry.sol\":246:6988  contract DIDRegistry {... */\n      mstore(0x40, 0x80)\n      callvalue\n      dup1\n      iszero\n      tag_1\n      jumpi\n      0x00\n      dup1\n      revert\n    tag_1:\n      pop\n      jumpi(tag_2, lt(calldatasize, 0x04))\n      shr(0xe0, calldataload(0x00))\n      dup1\n      0x7a5b4f59\n      gt\n      tag_13\n      jumpi\n      dup1\n      0x7a5b4f59\n      eq\n      tag_8\n      jumpi\n      dup1\n      0xb7dfcbee\n      eq\n      tag_9\n      jumpi\n      dup1\n      0xbc9c2d55\n      eq\n      tag_10\n      jumpi\n      dup1\n      0xe1e7a16e\n      eq\n      tag_11\n      jumpi\n      dup1\n      0xfde08174\n      eq\n      tag_12\n      jumpi\n      jump(tag_2)\n    tag_13:\n      dup1\n      0x022bf9c1\n      eq\n      tag_3\n      jumpi\n      dup1\n      0x0890d80c\n      eq\n      tag_4\n      jumpi\n      dup1\n      0x14c95832\n      eq\n      tag_5\n      jumpi\n      dup1\n      0x3457d3e2\n      eq\n      tag_6\n      jumpi\n      dup1\n      0x4dbf87cc\n      eq\n      tag_7\n      jumpi\n    tag_2:\n      0x00\n      dup1\n      revert\n        /* \"DIDRegistry.sol\":4543:5338  function issueRole(address _user, string memory _role) onlyManager public {... */\n    tag_3:\n      tag_14\n      0x04\n      dup1\n      calldatasize\n      sub\n      dup2\n      add\n      swap1\n      tag_15\n      swap2\n      swap1\n      tag_16\n      jump\t// in\n    tag_15:\n      tag_17\n      jump\t// in\n    tag_14:\n      stop\n        /* \"DIDRegistry.sol\":3065:3697  function setMetadata(... */\n    tag_4:\n      tag_18\n      0x04\n      dup1\n      calldatasize\n      sub\n      dup2\n      add\n      swap1\n      tag_19\n      swap2\n      swap1\n      tag_20\n      jump\t// in\n    tag_19:\n      tag_21\n      jump\t// in\n    tag_18:\n      stop\n        /* \"DIDRegistry.sol\":2344:3057  function updateDID(string memory _newIdentifier) public {... */\n    tag_5:\n      tag_22\n      0x04\n      dup1\n      calldatasize\n      sub\n      dup2\n      add\n      swap1\n      tag_23\n      swap2\n      swap1\n      tag_24\n      jump\t// in\n    tag_23:\n      tag_25\n      jump\t// in\n    tag_22:\n      stop\n        /* \"DIDRegistry.sol\":1784:2132  function createDID(string memory _identifier) public {... */\n    tag_6:\n      tag_26\n      0x04\n      dup1\n      calldatasize\n      sub\n      dup2\n      add\n      swap1\n      tag_27\n      swap2\n      swap1\n      tag_24\n      jump\t// in\n    tag_27:\n      tag_28\n      jump\t// in\n    tag_26:\n      stop\n        /* \"DIDRegistry.sol\":6441:6985  function verifyCredential(bytes32 presentedHash) public view returns (bool) {... */\n    tag_7:\n      tag_29\n      0x04\n      dup1\n      calldatasize\n      sub\n      dup2\n      add\n      swap1\n      tag_30\n      swap2\n      swap1\n      tag_31\n      jump\t// in\n    tag_30:\n      tag_32\n      jump\t// in\n    tag_29:\n      mload(0x40)\n      tag_33\n      swap2\n      swap1\n      tag_34\n      jump\t// in\n    tag_33:\n      mload(0x40)\n      dup1\n      swap2\n      sub\n      swap1\n      return\n        /* \"DIDRegistry.sol\":3705:3910  function getMetadata() public view returns (Metadata memory) {... */\n    tag_8:\n      tag_35\n      tag_36\n      jump\t// in\n    tag_35:\n      mload(0x40)\n      tag_37\n      swap2\n      swap1\n      tag_38\n      jump\t// in\n    tag_37:\n      mload(0x40)\n      dup1\n      swap2\n      sub\n      swap1\n      return\n        /* \"DIDRegistry.sol\":3967:4399  function assignRole(address _user, string memory _role) onlyManager public {... */\n    tag_9:\n      tag_39\n      0x04\n      dup1\n      calldatasize\n      sub\n      dup2\n      add\n      swap1\n      tag_40\n      swap2\n      swap1\n      tag_16\n      jump\t// in\n    tag_40:\n      tag_41\n      jump\t// in\n    tag_39:\n      stop\n        /* \"DIDRegistry.sol\":2140:2336  function getDID() public view returns (string memory) {... */\n    tag_10:\n      tag_42\n      tag_43\n      jump\t// in\n    tag_42:\n      mload(0x40)\n      tag_44\n      swap2\n      swap1\n      tag_45\n      jump\t// in\n    tag_44:\n      mload(0x40)\n      dup1\n      swap2\n      sub\n      swap1\n      return\n        /* \"DIDRegistry.sol\":6025:6362  function presentCredential(string memory _name, string memory _email) public view returns(bytes32)... */\n    tag_11:\n      tag_46\n      0x04\n      dup1\n      calldatasize\n      sub\n      dup2\n      add\n      swap1\n      tag_47\n      swap2\n      swap1\n      tag_48\n      jump\t// in\n    tag_47:\n      tag_49\n      jump\t// in\n    tag_46:\n      mload(0x40)\n      tag_50\n      swap2\n      swap1\n      tag_51\n      jump\t// in\n    tag_50:\n      mload(0x40)\n      dup1\n      swap2\n      sub\n      swap1\n      return\n        /* \"DIDRegistry.sol\":5471:5952  function getRole() public view returns (string[] memory) {... */\n    tag_12:\n      tag_52\n      tag_53\n      jump\t// in\n    tag_52:\n      mload(0x40)\n      tag_54\n      swap2\n      swap1\n      tag_55\n      jump\t// in\n    tag_54:\n      mload(0x40)\n      dup1\n      swap2\n      sub\n      swap1\n      return\n        /* \"DIDRegistry.sol\":4543:5338  function issueRole(address _user, string memory _role) onlyManager public {... */\n    tag_17:\n        /* \"DIDRegistry.sol\":1089:1105  bytes(\"manager\") */\n      mload(0x40)\n      dup1\n      0x40\n      add\n      0x40\n      mstore\n      dup1\n      0x07\n      dup2\n      mstore\n      0x20\n      add\n      0x6d616e6167657200000000000000000000000000000000000000000000000000\n      dup2\n      mstore\n      pop\n        /* \"DIDRegistry.sol\":1079:1106  keccak256(bytes(\"manager\")) */\n      dup1\n      mload\n      swap1\n      0x20\n      add\n      keccak256\n        /* \"DIDRegistry.sol\":1056:1061  roles */\n      0x01\n        /* \"DIDRegistry.sol\":1056:1073  roles[msg.sender] */\n      0x00\n        /* \"DIDRegistry.sol\":1062:1072  msg.sender */\n      caller\n        /* \"DIDRegistry.sol\":1056:1073  roles[msg.sender] */\n      0xffffffffffffffffffffffffffffffffffffffff\n      and\n      0xffffffffffffffffffffffffffffffffffffffff\n      and\n      dup2\n      mstore\n      0x20\n      add\n      swap1\n      dup2\n      mstore\n      0x20\n      add\n      0x00\n      keccak256\n        /* \"DIDRegistry.sol\":1040:1075  keccak256(bytes(roles[msg.sender])) */\n      mload(0x40)\n      tag_57\n      swap2\n      swap1\n      tag_58\n      jump\t// in\n    tag_57:\n      mload(0x40)\n      dup1\n      swap2\n      sub\n      swap1\n      keccak256\n        /* \"DIDRegistry.sol\":1040:1106  keccak256(bytes(roles[msg.sender])) == keccak256(bytes(\"manager\")) */\n      eq\n        /* \"DIDRegistry.sol\":1032:1130  require(keccak256(bytes(roles[msg.sender])) == keccak256(bytes(\"manager\")), \"Unauthorized action\") */\n      tag_59\n      jumpi\n      mload(0x40)\n      0x08c379a000000000000000000000000000000000000000000000000000000000\n      dup2\n      mstore\n      0x04\n      add\n      tag_60\n      swap1\n      tag_61\n      jump\t// in\n    tag_60:\n      mload(0x40)\n      dup1\n      swap2\n      sub\n      swap1\n      revert\n    tag_59:\n        /* \"DIDRegistry.sol\":4670:4671  0 */\n      0x00\n        /* \"DIDRegistry.sol\":4636:4672  dids[msg.sender].owner != address(0) */\n      0xffffffffffffffffffffffffffffffffffffffff\n      and\n        /* \"DIDRegistry.sol\":4636:4640  dids */\n      0x00\n        /* \"DIDRegistry.sol\":4636:4652  dids[msg.sender] */\n      dup1\n        /* \"DIDRegistry.sol\":4641:4651  msg.sender */\n      caller\n        /* \"DIDRegistry.sol\":4636:4652  dids[msg.sender] */\n      0xffffffffffffffffffffffffffffffffffffffff\n      and\n      0xffffffffffffffffffffffffffffffffffffffff\n      and\n      dup2\n      mstore\n      0x20\n      add\n      swap1\n      dup2\n      mstore\n      0x20\n      add\n      0x00\n      keccak256\n        /* \"DIDRegistry.sol\":4636:4658  dids[msg.sender].owner */\n      0x01\n      add\n      0x00\n      swap1\n      sload\n      swap1\n      0x0100\n      exp\n      swap1\n      div\n      0xffffffffffffffffffffffffffffffffffffffff\n      and\n        /* \"DIDRegistry.sol\":4636:4672  dids[msg.sender].owner != address(0) */\n      0xffffffffffffffffffffffffffffffffffffffff\n      and\n      sub\n        /* \"DIDRegistry.sol\":4628:4715  require(dids[msg.sender].owner != address(0), \"No existing DID found for this address\") */\n      tag_63\n      jumpi\n      mload(0x40)\n      0x08c379a000000000000000000000000000000000000000000000000000000000\n      dup2\n      mstore\n      0x04\n      add\n      tag_64\n      swap1\n      tag_65\n      jump\t// in\n    tag_64:\n      mload(0x40)\n      dup1\n      swap2\n      sub\n      swap1\n      revert\n    tag_63:\n        /* \"DIDRegistry.sol\":4756:4757  0 */\n      0x00\n        /* \"DIDRegistry.sol\":4740:4745  _role */\n      dup2\n        /* \"DIDRegistry.sol\":4734:4753  bytes(_role).length */\n      mload\n        /* \"DIDRegistry.sol\":4734:4757  bytes(_role).length > 0 */\n      gt\n        /* \"DIDRegistry.sol\":4726:4782  require(bytes(_role).length > 0, \"Role cannot be empty\") */\n      tag_66\n      jumpi\n      mload(0x40)\n      0x08c379a000000000000000000000000000000000000000000000000000000000\n      dup2\n      mstore\n      0x04\n      add\n      tag_67\n      swap1\n      tag_68\n      jump\t// in\n    tag_67:\n      mload(0x40)\n      dup1\n      swap2\n      sub\n      swap1\n      revert\n    tag_66:\n        /* \"DIDRegistry.sol\":4835:4851  bytes32 roleHash */\n      0x00\n        /* \"DIDRegistry.sol\":4881:4891  msg.sender */\n      caller\n        /* \"DIDRegistry.sol\":4893:4898  _user */\n      dup4\n        /* \"DIDRegistry.sol\":4900:4905  _role */\n      dup4\n        /* \"DIDRegistry.sol\":4907:4922  block.timestamp */\n      timestamp\n        /* \"DIDRegistry.sol\":4864:4923  abi.encodePacked(msg.sender, _user, _role, block.timestamp) */\n      add(0x20, mload(0x40))\n      tag_69\n      swap5\n      swap4\n      swap3\n      swap2\n      swap1\n      tag_70\n      jump\t// in\n    tag_69:\n      mload(0x40)\n      0x20\n      dup2\n      dup4\n      sub\n      sub\n      dup2\n      mstore\n      swap1\n      0x40\n      mstore\n        /* \"DIDRegistry.sol\":4854:4924  keccak256(abi.encodePacked(msg.sender, _user, _role, block.timestamp)) */\n      dup1\n      mload\n      swap1\n      0x20\n      add\n      keccak256\n        /* \"DIDRegistry.sol\":4835:4924  bytes32 roleHash = keccak256(abi.encodePacked(msg.sender, _user, _role, block.timestamp)) */\n      swap1\n      pop\n        /* \"DIDRegistry.sol\":5012:5023  credentials */\n      0x04\n        /* \"DIDRegistry.sol\":5012:5030  credentials[_user] */\n      0x00\n        /* \"DIDRegistry.sol\":5024:5029  _user */\n      dup5\n        /* \"DIDRegistry.sol\":5012:5030  credentials[_user] */\n      0xffffffffffffffffffffffffffffffffffffffff\n      and\n      0xffffffffffffffffffffffffffffffffffffffff\n      and\n      dup2\n      mstore\n      0x20\n      add\n      swap1\n      dup2\n      mstore\n      0x20\n      add\n      0x00\n      keccak256\n        /* \"DIDRegistry.sol\":5036:5155  Credential(... */\n      mload(0x40)\n      dup1\n      0x80\n      add\n      0x40\n      mstore\n      dup1\n        /* \"DIDRegistry.sol\":5061:5071  msg.sender */\n      caller\n        /* \"DIDRegistry.sol\":5036:5155  Credential(... */\n      0xffffffffffffffffffffffffffffffffffffffff\n      and\n      dup2\n      mstore\n      0x20\n      add\n        /* \"DIDRegistry.sol\":5086:5091  _role */\n      dup5\n        /* \"DIDRegistry.sol\":5036:5155  Credential(... */\n      dup2\n      mstore\n      0x20\n      add\n        /* \"DIDRegistry.sol\":5106:5114  roleHash */\n      dup4\n        /* \"DIDRegistry.sol\":5036:5155  Credential(... */\n      dup2\n      mstore\n      0x20\n      add\n        /* \"DIDRegistry.sol\":5129:5144  block.timestamp */\n      timestamp\n        /* \"DIDRegistry.sol\":5036:5155  Credential(... */\n      dup2\n      mstore\n      pop\n        /* \"DIDRegistry.sol\":5012:5156  credentials[_user].push(Credential(... */\n      swap1\n      dup1\n      0x01\n      dup2\n      sload\n      add\n      dup1\n      dup3\n      sstore\n      dup1\n      swap2\n      pop\n      pop\n      0x01\n      swap1\n      sub\n      swap1\n      0x00\n      mstore\n      keccak256(0x00, 0x20)\n      swap1\n      0x04\n      mul\n      add\n      0x00\n      swap1\n      swap2\n      swap1\n      swap2\n      swap1\n      swap2\n      pop\n      0x00\n      dup3\n      add\n      mload\n      dup2\n      0x00\n      add\n      exp(0x0100, 0x00)\n      dup2\n      sload\n      dup2\n      0xffffffffffffffffffffffffffffffffffffffff\n      mul\n      not\n      and\n      swap1\n      dup4\n      0xffffffffffffffffffffffffffffffffffffffff\n      and\n      mul\n      or\n      swap1\n      sstore\n      pop\n      0x20\n      dup3\n      add\n      mload\n      dup2\n      0x01\n      add\n      swap1\n      dup2\n      tag_72\n      swap2\n      swap1\n      tag_73\n      jump\t// in\n    tag_72:\n      pop\n      0x40\n      dup3\n      add\n      mload\n      dup2\n      0x02\n      add\n      sstore\n      0x60\n      dup3\n      add\n      mload\n      dup2\n      0x03\n      add\n      sstore\n      pop\n      pop\n        /* \"DIDRegistry.sol\":5167:5178  roleHistory */\n      0x02\n        /* \"DIDRegistry.sol\":5167:5185  roleHistory[_user] */\n      0x00\n        /* \"DIDRegistry.sol\":5179:5184  _user */\n      dup5\n        /* \"DIDRegistry.sol\":5167:5185  roleHistory[_user] */\n      0xffffffffffffffffffffffffffffffffffffffff\n      and\n      0xffffffffffffffffffffffffffffffffffffffff\n      and\n      dup2\n      mstore\n      0x20\n      add\n      swap1\n      dup2\n      mstore\n      0x20\n      add\n      0x00\n      keccak256\n        /* \"DIDRegistry.sol\":5191:5196  _role */\n      dup3\n        /* \"DIDRegistry.sol\":5167:5197  roleHistory[_user].push(_role) */\n      swap1\n      dup1\n      0x01\n      dup2\n      sload\n      add\n      dup1\n      dup3\n      sstore\n      dup1\n      swap2\n      pop\n      pop\n      0x01\n      swap1\n      sub\n      swap1\n      0x00\n      mstore\n      keccak256(0x00, 0x20)\n      add\n      0x00\n      swap1\n      swap2\n      swap1\n      swap2\n      swap1\n      swap2\n      pop\n      swap1\n      dup2\n      tag_75\n      swap2\n      swap1\n      tag_73\n      jump\t// in\n    tag_75:\n      pop\n        /* \"DIDRegistry.sol\":5294:5304  msg.sender */\n      caller\n        /* \"DIDRegistry.sol\":5283:5329  RoleIssued(msg.sender, _user, _role, roleHash) */\n      0xffffffffffffffffffffffffffffffffffffffff\n      and\n      0xf4313cb022699889c6eddb590e42342301cdae4824fd424ffdfdeb23d4cdbbe9\n        /* \"DIDRegistry.sol\":5306:5311  _user */\n      dup5\n        /* \"DIDRegistry.sol\":5313:5318  _role */\n      dup5\n        /* \"DIDRegistry.sol\":5320:5328  roleHash */\n      dup5\n        /* \"DIDRegistry.sol\":5283:5329  RoleIssued(msg.sender, _user, _role, roleHash) */\n      mload(0x40)\n      tag_76\n      swap4\n      swap3\n      swap2\n      swap1\n      tag_77\n      jump\t// in\n    tag_76:\n      mload(0x40)\n      dup1\n      swap2\n      sub\n      swap1\n      log2\n        /* \"DIDRegistry.sol\":4617:5338  {... */\n      pop\n        /* \"DIDRegistry.sol\":4543:5338  function issueRole(address _user, string memory _role) onlyManager public {... */\n      pop\n      pop\n      jump\t// out\n        /* \"DIDRegistry.sol\":3065:3697  function setMetadata(... */\n    tag_21:\n        /* \"DIDRegistry.sol\":3256:3257  0 */\n      0x00\n        /* \"DIDRegistry.sol\":3222:3258  dids[msg.sender].owner != address(0) */\n      0xffffffffffffffffffffffffffffffffffffffff\n      and\n        /* \"DIDRegistry.sol\":3222:3226  dids */\n      0x00\n        /* \"DIDRegistry.sol\":3222:3238  dids[msg.sender] */\n      dup1\n        /* \"DIDRegistry.sol\":3227:3237  msg.sender */\n      caller\n        /* \"DIDRegistry.sol\":3222:3238  dids[msg.sender] */\n      0xffffffffffffffffffffffffffffffffffffffff\n      and\n      0xffffffffffffffffffffffffffffffffffffffff\n      and\n      dup2\n      mstore\n      0x20\n      add\n      swap1\n      dup2\n      mstore\n      0x20\n      add\n      0x00\n      keccak256\n        /* \"DIDRegistry.sol\":3222:3244  dids[msg.sender].owner */\n      0x01\n      add\n      0x00\n      swap1\n      sload\n      swap1\n      0x0100\n      exp\n      swap1\n      div\n      0xffffffffffffffffffffffffffffffffffffffff\n      and\n        /* \"DIDRegistry.sol\":3222:3258  dids[msg.sender].owner != address(0) */\n      0xffffffffffffffffffffffffffffffffffffffff\n      and\n      sub\n        /* \"DIDRegistry.sol\":3214:3301  require(dids[msg.sender].owner != address(0), \"No existing DID found for this address\") */\n      tag_79\n      jumpi\n      mload(0x40)\n      0x08c379a000000000000000000000000000000000000000000000000000000000\n      dup2\n      mstore\n      0x04\n      add\n      tag_80\n      swap1\n      tag_65\n      jump\t// in\n    tag_80:\n      mload(0x40)\n      dup1\n      swap2\n      sub\n      swap1\n      revert\n    tag_79:\n        /* \"DIDRegistry.sol\":3459:3460  0 */\n      0x00\n        /* \"DIDRegistry.sol\":3442:3448  _email */\n      dup3\n        /* \"DIDRegistry.sol\":3436:3456  bytes(_email).length */\n      mload\n        /* \"DIDRegistry.sol\":3436:3460  bytes(_email).length > 0 */\n      gt\n        /* \"DIDRegistry.sol\":3428:3486  require(bytes(_email).length > 0, \"Email cannot be empty\") */\n      tag_81\n      jumpi\n      mload(0x40)\n      0x08c379a000000000000000000000000000000000000000000000000000000000\n      dup2\n      mstore\n      0x04\n      add\n      tag_82\n      swap1\n      tag_83\n      jump\t// in\n    tag_82:\n      mload(0x40)\n      dup1\n      swap2\n      sub\n      swap1\n      revert\n    tag_81:\n        /* \"DIDRegistry.sol\":3522:3612  Metadata(... */\n      mload(0x40)\n      dup1\n      0x60\n      add\n      0x40\n      mstore\n      dup1\n        /* \"DIDRegistry.sol\":3545:3550  _name */\n      dup5\n        /* \"DIDRegistry.sol\":3522:3612  Metadata(... */\n      dup2\n      mstore\n      0x20\n      add\n        /* \"DIDRegistry.sol\":3565:3571  _email */\n      dup4\n        /* \"DIDRegistry.sol\":3522:3612  Metadata(... */\n      dup2\n      mstore\n      0x20\n      add\n        /* \"DIDRegistry.sol\":3586:3601  _profilePicture */\n      dup3\n        /* \"DIDRegistry.sol\":3522:3612  Metadata(... */\n      dup2\n      mstore\n      pop\n        /* \"DIDRegistry.sol\":3499:3507  metadata */\n      0x03\n        /* \"DIDRegistry.sol\":3499:3519  metadata[msg.sender] */\n      0x00\n        /* \"DIDRegistry.sol\":3508:3518  msg.sender */\n      caller\n        /* \"DIDRegistry.sol\":3499:3519  metadata[msg.sender] */\n      0xffffffffffffffffffffffffffffffffffffffff\n      and\n      0xffffffffffffffffffffffffffffffffffffffff\n      and\n      dup2\n      mstore\n      0x20\n      add\n      swap1\n      dup2\n      mstore\n      0x20\n      add\n      0x00\n      keccak256\n        /* \"DIDRegistry.sol\":3499:3612  metadata[msg.sender] = Metadata(... */\n      0x00\n      dup3\n      add\n      mload\n      dup2\n      0x00\n      add\n      swap1\n      dup2\n      tag_84\n      swap2\n      swap1\n      tag_73\n      jump\t// in\n    tag_84:\n      pop\n      0x20\n      dup3\n      add\n      mload\n      dup2\n      0x01\n      add\n      swap1\n      dup2\n      tag_85\n      swap2\n      swap1\n      tag_73\n      jump\t// in\n    tag_85:\n      pop\n      0x40\n      dup3\n      add\n      mload\n      dup2\n      0x02\n      add\n      swap1\n      dup2\n      tag_86\n      swap2\n      swap1\n      tag_73\n      jump\t// in\n    tag_86:\n      pop\n      swap1\n      pop\n      pop\n        /* \"DIDRegistry.sol\":3646:3656  msg.sender */\n      caller\n        /* \"DIDRegistry.sol\":3630:3689  MetadataCreated(msg.sender, _name, _email, _profilePicture) */\n      0xffffffffffffffffffffffffffffffffffffffff\n      and\n      0x298e769f14d3266a2093cc631184150a9584b1b38c1fb1385be30e0665322bf2\n        /* \"DIDRegistry.sol\":3658:3663  _name */\n      dup5\n        /* \"DIDRegistry.sol\":3665:3671  _email */\n      dup5\n        /* \"DIDRegistry.sol\":3673:3688  _profilePicture */\n      dup5\n        /* \"DIDRegistry.sol\":3630:3689  MetadataCreated(msg.sender, _name, _email, _profilePicture) */\n      mload(0x40)\n      tag_87\n      swap4\n      swap3\n      swap2\n      swap1\n      tag_88\n      jump\t// in\n    tag_87:\n      mload(0x40)\n      dup1\n      swap2\n      sub\n      swap1\n      log2\n        /* \"DIDRegistry.sol\":3065:3697  function setMetadata(... */\n      pop\n      pop\n      pop\n      jump\t// out\n        /* \"DIDRegistry.sol\":2344:3057  function updateDID(string memory _newIdentifier) public {... */\n    tag_25:\n        /* \"DIDRegistry.sol\":2450:2451  0 */\n      0x00\n        /* \"DIDRegistry.sol\":2425:2439  _newIdentifier */\n      dup2\n        /* \"DIDRegistry.sol\":2419:2447  bytes(_newIdentifier).length */\n      mload\n        /* \"DIDRegistry.sol\":2419:2451  bytes(_newIdentifier).length > 0 */\n      gt\n        /* \"DIDRegistry.sol\":2411:2486  require(bytes(_newIdentifier).length > 0, \"New identifier cannot be empty\") */\n      tag_90\n      jumpi\n      mload(0x40)\n      0x08c379a000000000000000000000000000000000000000000000000000000000\n      dup2\n      mstore\n      0x04\n      add\n      tag_91\n      swap1\n      tag_92\n      jump\t// in\n    tag_91:\n      mload(0x40)\n      dup1\n      swap2\n      sub\n      swap1\n      revert\n    tag_90:\n        /* \"DIDRegistry.sol\":2539:2540  0 */\n      0x00\n        /* \"DIDRegistry.sol\":2505:2541  dids[msg.sender].owner != address(0) */\n      0xffffffffffffffffffffffffffffffffffffffff\n      and\n        /* \"DIDRegistry.sol\":2505:2509  dids */\n      0x00\n        /* \"DIDRegistry.sol\":2505:2521  dids[msg.sender] */\n      dup1\n        /* \"DIDRegistry.sol\":2510:2520  msg.sender */\n      caller\n        /* \"DIDRegistry.sol\":2505:2521  dids[msg.sender] */\n      0xffffffffffffffffffffffffffffffffffffffff\n      and\n      0xffffffffffffffffffffffffffffffffffffffff\n      and\n      dup2\n      mstore\n      0x20\n      add\n      swap1\n      dup2\n      mstore\n      0x20\n      add\n      0x00\n      keccak256\n        /* \"DIDRegistry.sol\":2505:2527  dids[msg.sender].owner */\n      0x01\n      add\n      0x00\n      swap1\n      sload\n      swap1\n      0x0100\n      exp\n      swap1\n      div\n      0xffffffffffffffffffffffffffffffffffffffff\n      and\n        /* \"DIDRegistry.sol\":2505:2541  dids[msg.sender].owner != address(0) */\n      0xffffffffffffffffffffffffffffffffffffffff\n      and\n      sub\n        /* \"DIDRegistry.sol\":2497:2584  require(dids[msg.sender].owner != address(0), \"No existing DID found for this address\") */\n      tag_93\n      jumpi\n      mload(0x40)\n      0x08c379a000000000000000000000000000000000000000000000000000000000\n      dup2\n      mstore\n      0x04\n      add\n      tag_94\n      swap1\n      tag_65\n      jump\t// in\n    tag_94:\n      mload(0x40)\n      dup1\n      swap2\n      sub\n      swap1\n      revert\n    tag_93:\n        /* \"DIDRegistry.sol\":2673:2700  string memory oldIdentifier */\n      0x00\n        /* \"DIDRegistry.sol\":2703:2711  getDID() */\n      tag_95\n        /* \"DIDRegistry.sol\":2703:2709  getDID */\n      tag_43\n        /* \"DIDRegistry.sol\":2703:2711  getDID() */\n      jump\t// in\n    tag_95:\n        /* \"DIDRegistry.sol\":2673:2711  string memory oldIdentifier = getDID() */\n      swap1\n      pop\n        /* \"DIDRegistry.sol\":2781:2795  _newIdentifier */\n      dup2\n        /* \"DIDRegistry.sol\":2765:2797  keccak256(bytes(_newIdentifier)) */\n      dup1\n      mload\n      swap1\n      0x20\n      add\n      keccak256\n        /* \"DIDRegistry.sol\":2746:2759  oldIdentifier */\n      dup2\n        /* \"DIDRegistry.sol\":2730:2761  keccak256(bytes(oldIdentifier)) */\n      dup1\n      mload\n      swap1\n      0x20\n      add\n      keccak256\n        /* \"DIDRegistry.sol\":2730:2797  keccak256(bytes(oldIdentifier)) != keccak256(bytes(_newIdentifier)) */\n      sub\n        /* \"DIDRegistry.sol\":2722:2824  require(keccak256(bytes(oldIdentifier)) != keccak256(bytes(_newIdentifier)), \"Invalid new identifier\") */\n      tag_96\n      jumpi\n      mload(0x40)\n      0x08c379a000000000000000000000000000000000000000000000000000000000\n      dup2\n      mstore\n      0x04\n      add\n      tag_97\n      swap1\n      tag_98\n      jump\t// in\n    tag_97:\n      mload(0x40)\n      dup1\n      swap2\n      sub\n      swap1\n      revert\n    tag_96:\n        /* \"DIDRegistry.sol\":2926:2940  _newIdentifier */\n      dup2\n        /* \"DIDRegistry.sol\":2896:2900  dids */\n      0x00\n        /* \"DIDRegistry.sol\":2896:2912  dids[msg.sender] */\n      dup1\n        /* \"DIDRegistry.sol\":2901:2911  msg.sender */\n      caller\n        /* \"DIDRegistry.sol\":2896:2912  dids[msg.sender] */\n      0xffffffffffffffffffffffffffffffffffffffff\n      and\n      0xffffffffffffffffffffffffffffffffffffffff\n      and\n      dup2\n      mstore\n      0x20\n      add\n      swap1\n      dup2\n      mstore\n      0x20\n      add\n      0x00\n      keccak256\n        /* \"DIDRegistry.sol\":2896:2923  dids[msg.sender].identifier */\n      0x00\n      add\n        /* \"DIDRegistry.sol\":2896:2940  dids[msg.sender].identifier = _newIdentifier */\n      swap1\n      dup2\n      tag_99\n      swap2\n      swap1\n      tag_73\n      jump\t// in\n    tag_99:\n      pop\n        /* \"DIDRegistry.sol\":3022:3032  msg.sender */\n      caller\n        /* \"DIDRegistry.sol\":3011:3049  DIDCreated(msg.sender, _newIdentifier) */\n      0xffffffffffffffffffffffffffffffffffffffff\n      and\n      0x1b7934654ba536b6962955e057ce42885353bbaad8c605a5ce0678e632f28410\n        /* \"DIDRegistry.sol\":3034:3048  _newIdentifier */\n      dup4\n        /* \"DIDRegistry.sol\":3011:3049  DIDCreated(msg.sender, _newIdentifier) */\n      mload(0x40)\n      tag_100\n      swap2\n      swap1\n      tag_45\n      jump\t// in\n    tag_100:\n      mload(0x40)\n      dup1\n      swap2\n      sub\n      swap1\n      log2\n        /* \"DIDRegistry.sol\":2400:3057  {... */\n      pop\n        /* \"DIDRegistry.sol\":2344:3057  function updateDID(string memory _newIdentifier) public {... */\n      pop\n      jump\t// out\n        /* \"DIDRegistry.sol\":1784:2132  function createDID(string memory _identifier) public {... */\n    tag_28:\n        /* \"DIDRegistry.sol\":1884:1885  0 */\n      0x00\n        /* \"DIDRegistry.sol\":1862:1873  _identifier */\n      dup2\n        /* \"DIDRegistry.sol\":1856:1881  bytes(_identifier).length */\n      mload\n        /* \"DIDRegistry.sol\":1856:1885  bytes(_identifier).length > 0 */\n      gt\n        /* \"DIDRegistry.sol\":1848:1916  require(bytes(_identifier).length > 0, \"Identifier cannot be empty\") */\n      tag_102\n      jumpi\n      mload(0x40)\n      0x08c379a000000000000000000000000000000000000000000000000000000000\n      dup2\n      mstore\n      0x04\n      add\n      tag_103\n      swap1\n      tag_104\n      jump\t// in\n    tag_103:\n      mload(0x40)\n      dup1\n      swap2\n      sub\n      swap1\n      revert\n    tag_102:\n        /* \"DIDRegistry.sol\":1969:1970  0 */\n      0x00\n        /* \"DIDRegistry.sol\":1935:1971  dids[msg.sender].owner == address(0) */\n      0xffffffffffffffffffffffffffffffffffffffff\n      and\n        /* \"DIDRegistry.sol\":1935:1939  dids */\n      0x00\n        /* \"DIDRegistry.sol\":1935:1951  dids[msg.sender] */\n      dup1\n        /* \"DIDRegistry.sol\":1940:1950  msg.sender */\n      caller\n        /* \"DIDRegistry.sol\":1935:1951  dids[msg.sender] */\n      0xffffffffffffffffffffffffffffffffffffffff\n      and\n      0xffffffffffffffffffffffffffffffffffffffff\n      and\n      dup2\n      mstore\n      0x20\n      add\n      swap1\n      dup2\n      mstore\n      0x20\n      add\n      0x00\n      keccak256\n        /* \"DIDRegistry.sol\":1935:1957  dids[msg.sender].owner */\n      0x01\n      add\n      0x00\n      swap1\n      sload\n      swap1\n      0x0100\n      exp\n      swap1\n      div\n      0xffffffffffffffffffffffffffffffffffffffff\n      and\n        /* \"DIDRegistry.sol\":1935:1971  dids[msg.sender].owner == address(0) */\n      0xffffffffffffffffffffffffffffffffffffffff\n      and\n      eq\n        /* \"DIDRegistry.sol\":1927:2011  require(dids[msg.sender].owner == address(0), \"DID already exists for this address\") */\n      tag_105\n      jumpi\n      mload(0x40)\n      0x08c379a000000000000000000000000000000000000000000000000000000000\n      dup2\n      mstore\n      0x04\n      add\n      tag_106\n      swap1\n      tag_107\n      jump\t// in\n    tag_106:\n      mload(0x40)\n      dup1\n      swap2\n      sub\n      swap1\n      revert\n    tag_105:\n        /* \"DIDRegistry.sol\":2043:2071  DID(_identifier, msg.sender) */\n      mload(0x40)\n      dup1\n      0x40\n      add\n      0x40\n      mstore\n      dup1\n        /* \"DIDRegistry.sol\":2047:2058  _identifier */\n      dup3\n        /* \"DIDRegistry.sol\":2043:2071  DID(_identifier, msg.sender) */\n      dup2\n      mstore\n      0x20\n      add\n        /* \"DIDRegistry.sol\":2060:2070  msg.sender */\n      caller\n        /* \"DIDRegistry.sol\":2043:2071  DID(_identifier, msg.sender) */\n      0xffffffffffffffffffffffffffffffffffffffff\n      and\n      dup2\n      mstore\n      pop\n        /* \"DIDRegistry.sol\":2024:2028  dids */\n      0x00\n        /* \"DIDRegistry.sol\":2024:2040  dids[msg.sender] */\n      dup1\n        /* \"DIDRegistry.sol\":2029:2039  msg.sender */\n      caller\n        /* \"DIDRegistry.sol\":2024:2040  dids[msg.sender] */\n      0xffffffffffffffffffffffffffffffffffffffff\n      and\n      0xffffffffffffffffffffffffffffffffffffffff\n      and\n      dup2\n      mstore\n      0x20\n      add\n      swap1\n      dup2\n      mstore\n      0x20\n      add\n      0x00\n      keccak256\n        /* \"DIDRegistry.sol\":2024:2071  dids[msg.sender] = DID(_identifier, msg.sender) */\n      0x00\n      dup3\n      add\n      mload\n      dup2\n      0x00\n      add\n      swap1\n      dup2\n      tag_108\n      swap2\n      swap1\n      tag_73\n      jump\t// in\n    tag_108:\n      pop\n      0x20\n      dup3\n      add\n      mload\n      dup2\n      0x01\n      add\n      exp(0x0100, 0x00)\n      dup2\n      sload\n      dup2\n      0xffffffffffffffffffffffffffffffffffffffff\n      mul\n      not\n      and\n      swap1\n      dup4\n      0xffffffffffffffffffffffffffffffffffffffff\n      and\n      mul\n      or\n      swap1\n      sstore\n      pop\n      swap1\n      pop\n      pop\n        /* \"DIDRegistry.sol\":2100:2110  msg.sender */\n      caller\n        /* \"DIDRegistry.sol\":2089:2124  DIDCreated(msg.sender, _identifier) */\n      0xffffffffffffffffffffffffffffffffffffffff\n      and\n      0x1b7934654ba536b6962955e057ce42885353bbaad8c605a5ce0678e632f28410\n        /* \"DIDRegistry.sol\":2112:2123  _identifier */\n      dup3\n        /* \"DIDRegistry.sol\":2089:2124  DIDCreated(msg.sender, _identifier) */\n      mload(0x40)\n      tag_109\n      swap2\n      swap1\n      tag_45\n      jump\t// in\n    tag_109:\n      mload(0x40)\n      dup1\n      swap2\n      sub\n      swap1\n      log2\n        /* \"DIDRegistry.sol\":1784:2132  function createDID(string memory _identifier) public {... */\n      pop\n      jump\t// out\n        /* \"DIDRegistry.sol\":6441:6985  function verifyCredential(bytes32 presentedHash) public view returns (bool) {... */\n    tag_32:\n        /* \"DIDRegistry.sol\":6511:6515  bool */\n      0x00\n        /* \"DIDRegistry.sol\":6570:6571  0 */\n      dup1\n        /* \"DIDRegistry.sol\":6536:6572  dids[msg.sender].owner != address(0) */\n      0xffffffffffffffffffffffffffffffffffffffff\n      and\n        /* \"DIDRegistry.sol\":6536:6540  dids */\n      0x00\n        /* \"DIDRegistry.sol\":6536:6552  dids[msg.sender] */\n      dup1\n        /* \"DIDRegistry.sol\":6541:6551  msg.sender */\n      caller\n        /* \"DIDRegistry.sol\":6536:6552  dids[msg.sender] */\n      0xffffffffffffffffffffffffffffffffffffffff\n      and\n      0xffffffffffffffffffffffffffffffffffffffff\n      and\n      dup2\n      mstore\n      0x20\n      add\n      swap1\n      dup2\n      mstore\n      0x20\n      add\n      0x00\n      keccak256\n        /* \"DIDRegistry.sol\":6536:6558  dids[msg.sender].owner */\n      0x01\n      add\n      0x00\n      swap1\n      sload\n      swap1\n      0x0100\n      exp\n      swap1\n      div\n      0xffffffffffffffffffffffffffffffffffffffff\n      and\n        /* \"DIDRegistry.sol\":6536:6572  dids[msg.sender].owner != address(0) */\n      0xffffffffffffffffffffffffffffffffffffffff\n      and\n      sub\n        /* \"DIDRegistry.sol\":6528:6615  require(dids[msg.sender].owner != address(0), \"No existing DID found for this address\") */\n      tag_111\n      jumpi\n      mload(0x40)\n      0x08c379a000000000000000000000000000000000000000000000000000000000\n      dup2\n      mstore\n      0x04\n      add\n      tag_112\n      swap1\n      tag_65\n      jump\t// in\n    tag_112:\n      mload(0x40)\n      dup1\n      swap2\n      sub\n      swap1\n      revert\n    tag_111:\n        /* \"DIDRegistry.sol\":6675:6703  Metadata memory userMetadata */\n      0x00\n        /* \"DIDRegistry.sol\":6706:6714  metadata */\n      0x03\n        /* \"DIDRegistry.sol\":6706:6726  metadata[msg.sender] */\n      0x00\n        /* \"DIDRegistry.sol\":6715:6725  msg.sender */\n      caller\n        /* \"DIDRegistry.sol\":6706:6726  metadata[msg.sender] */\n      0xffffffffffffffffffffffffffffffffffffffff\n      and\n      0xffffffffffffffffffffffffffffffffffffffff\n      and\n      dup2\n      mstore\n      0x20\n      add\n      swap1\n      dup2\n      mstore\n      0x20\n      add\n      0x00\n      keccak256\n        /* \"DIDRegistry.sol\":6675:6726  Metadata memory userMetadata = metadata[msg.sender] */\n      mload(0x40)\n      dup1\n      0x60\n      add\n      0x40\n      mstore\n      swap1\n      dup2\n      0x00\n      dup3\n      add\n      dup1\n      sload\n      tag_113\n      swap1\n      tag_114\n      jump\t// in\n    tag_113:\n      dup1\n      0x1f\n      add\n      0x20\n      dup1\n      swap2\n      div\n      mul\n      0x20\n      add\n      mload(0x40)\n      swap1\n      dup2\n      add\n      0x40\n      mstore\n      dup1\n      swap3\n      swap2\n      swap1\n      dup2\n      dup2\n      mstore\n      0x20\n      add\n      dup3\n      dup1\n      sload\n      tag_115\n      swap1\n      tag_114\n      jump\t// in\n    tag_115:\n      dup1\n      iszero\n      tag_116\n      jumpi\n      dup1\n      0x1f\n      lt\n      tag_117\n      jumpi\n      0x0100\n      dup1\n      dup4\n      sload\n      div\n      mul\n      dup4\n      mstore\n      swap2\n      0x20\n      add\n      swap2\n      jump(tag_116)\n    tag_117:\n      dup3\n      add\n      swap2\n      swap1\n      0x00\n      mstore\n      keccak256(0x00, 0x20)\n      swap1\n    tag_118:\n      dup2\n      sload\n      dup2\n      mstore\n      swap1\n      0x01\n      add\n      swap1\n      0x20\n      add\n      dup1\n      dup4\n      gt\n      tag_118\n      jumpi\n      dup3\n      swap1\n      sub\n      0x1f\n      and\n      dup3\n      add\n      swap2\n    tag_116:\n      pop\n      pop\n      pop\n      pop\n      pop\n      dup2\n      mstore\n      0x20\n      add\n      0x01\n      dup3\n      add\n      dup1\n      sload\n      tag_119\n      swap1\n      tag_114\n      jump\t// in\n    tag_119:\n      dup1\n      0x1f\n      add\n      0x20\n      dup1\n      swap2\n      div\n      mul\n      0x20\n      add\n      mload(0x40)\n      swap1\n      dup2\n      add\n      0x40\n      mstore\n      dup1\n      swap3\n      swap2\n      swap1\n      dup2\n      dup2\n      mstore\n      0x20\n      add\n      dup3\n      dup1\n      sload\n      tag_120\n      swap1\n      tag_114\n      jump\t// in\n    tag_120:\n      dup1\n      iszero\n      tag_121\n      jumpi\n      dup1\n      0x1f\n      lt\n      tag_122\n      jumpi\n      0x0100\n      dup1\n      dup4\n      sload\n      div\n      mul\n      dup4\n      mstore\n      swap2\n      0x20\n      add\n      swap2\n      jump(tag_121)\n    tag_122:\n      dup3\n      add\n      swap2\n      swap1\n      0x00\n      mstore\n      keccak256(0x00, 0x20)\n      swap1\n    tag_123:\n      dup2\n      sload\n      dup2\n      mstore\n      swap1\n      0x01\n      add\n      swap1\n      0x20\n      add\n      dup1\n      dup4\n      gt\n      tag_123\n      jumpi\n      dup3\n      swap1\n      sub\n      0x1f\n      and\n      dup3\n      add\n      swap2\n    tag_121:\n      pop\n      pop\n      pop\n      pop\n      pop\n      dup2\n      mstore\n      0x20\n      add\n      0x02\n      dup3\n      add\n      dup1\n      sload\n      tag_124\n      swap1\n      tag_114\n      jump\t// in\n    tag_124:\n      dup1\n      0x1f\n      add\n      0x20\n      dup1\n      swap2\n      div\n      mul\n      0x20\n      add\n      mload(0x40)\n      swap1\n      dup2\n      add\n      0x40\n      mstore\n      dup1\n      swap3\n      swap2\n      swap1\n      dup2\n      dup2\n      mstore\n      0x20\n      add\n      dup3\n      dup1\n      sload\n      tag_125\n      swap1\n      tag_114\n      jump\t// in\n    tag_125:\n      dup1\n      iszero\n      tag_126\n      jumpi\n      dup1\n      0x1f\n      lt\n      tag_127\n      jumpi\n      0x0100\n      dup1\n      dup4\n      sload\n      div\n      mul\n      dup4\n      mstore\n      swap2\n      0x20\n      add\n      swap2\n      jump(tag_126)\n    tag_127:\n      dup3\n      add\n      swap2\n      swap1\n      0x00\n      mstore\n      keccak256(0x00, 0x20)\n      swap1\n    tag_128:\n      dup2\n      sload\n      dup2\n      mstore\n      swap1\n      0x01\n      add\n      swap1\n      0x20\n      add\n      dup1\n      dup4\n      gt\n      tag_128\n      jumpi\n      dup3\n      swap1\n      sub\n      0x1f\n      and\n      dup3\n      add\n      swap2\n    tag_126:\n      pop\n      pop\n      pop\n      pop\n      pop\n      dup2\n      mstore\n      pop\n      pop\n      swap1\n      pop\n        /* \"DIDRegistry.sol\":6781:6799  bytes32 storedHash */\n      0x00\n        /* \"DIDRegistry.sol\":6829:6841  userMetadata */\n      dup2\n        /* \"DIDRegistry.sol\":6829:6846  userMetadata.name */\n      0x00\n      add\n      mload\n        /* \"DIDRegistry.sol\":6848:6860  userMetadata */\n      dup3\n        /* \"DIDRegistry.sol\":6848:6866  userMetadata.email */\n      0x20\n      add\n      mload\n        /* \"DIDRegistry.sol\":6812:6867  abi.encodePacked(userMetadata.name, userMetadata.email) */\n      add(0x20, mload(0x40))\n      tag_129\n      swap3\n      swap2\n      swap1\n      tag_130\n      jump\t// in\n    tag_129:\n      mload(0x40)\n      0x20\n      dup2\n      dup4\n      sub\n      sub\n      dup2\n      mstore\n      swap1\n      0x40\n      mstore\n        /* \"DIDRegistry.sol\":6802:6868  keccak256(abi.encodePacked(userMetadata.name, userMetadata.email)) */\n      dup1\n      mload\n      swap1\n      0x20\n      add\n      keccak256\n        /* \"DIDRegistry.sol\":6781:6868  bytes32 storedHash = keccak256(abi.encodePacked(userMetadata.name, userMetadata.email)) */\n      swap1\n      pop\n        /* \"DIDRegistry.sol\":6966:6976  storedHash */\n      dup1\n        /* \"DIDRegistry.sol\":6949:6962  presentedHash */\n      dup5\n        /* \"DIDRegistry.sol\":6949:6976  presentedHash == storedHash */\n      eq\n        /* \"DIDRegistry.sol\":6941:6977  return (presentedHash == storedHash) */\n      swap3\n      pop\n      pop\n      pop\n        /* \"DIDRegistry.sol\":6441:6985  function verifyCredential(bytes32 presentedHash) public view returns (bool) {... */\n      swap2\n      swap1\n      pop\n      jump\t// out\n        /* \"DIDRegistry.sol\":3705:3910  function getMetadata() public view returns (Metadata memory) {... */\n    tag_36:\n        /* \"DIDRegistry.sol\":3749:3764  Metadata memory */\n      tag_131\n      tag_132\n      jump\t// in\n    tag_131:\n        /* \"DIDRegistry.sol\":3819:3820  0 */\n      0x00\n        /* \"DIDRegistry.sol\":3785:3821  dids[msg.sender].owner != address(0) */\n      0xffffffffffffffffffffffffffffffffffffffff\n      and\n        /* \"DIDRegistry.sol\":3785:3789  dids */\n      0x00\n        /* \"DIDRegistry.sol\":3785:3801  dids[msg.sender] */\n      dup1\n        /* \"DIDRegistry.sol\":3790:3800  msg.sender */\n      caller\n        /* \"DIDRegistry.sol\":3785:3801  dids[msg.sender] */\n      0xffffffffffffffffffffffffffffffffffffffff\n      and\n      0xffffffffffffffffffffffffffffffffffffffff\n      and\n      dup2\n      mstore\n      0x20\n      add\n      swap1\n      dup2\n      mstore\n      0x20\n      add\n      0x00\n      keccak256\n        /* \"DIDRegistry.sol\":3785:3807  dids[msg.sender].owner */\n      0x01\n      add\n      0x00\n      swap1\n      sload\n      swap1\n      0x0100\n      exp\n      swap1\n      div\n      0xffffffffffffffffffffffffffffffffffffffff\n      and\n        /* \"DIDRegistry.sol\":3785:3821  dids[msg.sender].owner != address(0) */\n      0xffffffffffffffffffffffffffffffffffffffff\n      and\n      sub\n        /* \"DIDRegistry.sol\":3777:3864  require(dids[msg.sender].owner != address(0), \"No existing DID found for this address\") */\n      tag_134\n      jumpi\n      mload(0x40)\n      0x08c379a000000000000000000000000000000000000000000000000000000000\n      dup2\n      mstore\n      0x04\n      add\n      tag_135\n      swap1\n      tag_65\n      jump\t// in\n    tag_135:\n      mload(0x40)\n      dup1\n      swap2\n      sub\n      swap1\n      revert\n    tag_134:\n        /* \"DIDRegistry.sol\":3882:3890  metadata */\n      0x03\n        /* \"DIDRegistry.sol\":3882:3902  metadata[msg.sender] */\n      0x00\n        /* \"DIDRegistry.sol\":3891:3901  msg.sender */\n      caller\n        /* \"DIDRegistry.sol\":3882:3902  metadata[msg.sender] */\n      0xffffffffffffffffffffffffffffffffffffffff\n      and\n      0xffffffffffffffffffffffffffffffffffffffff\n      and\n      dup2\n      mstore\n      0x20\n      add\n      swap1\n      dup2\n      mstore\n      0x20\n      add\n      0x00\n      keccak256\n        /* \"DIDRegistry.sol\":3875:3902  return metadata[msg.sender] */\n      mload(0x40)\n      dup1\n      0x60\n      add\n      0x40\n      mstore\n      swap1\n      dup2\n      0x00\n      dup3\n      add\n      dup1\n      sload\n      tag_136\n      swap1\n      tag_114\n      jump\t// in\n    tag_136:\n      dup1\n      0x1f\n      add\n      0x20\n      dup1\n      swap2\n      div\n      mul\n      0x20\n      add\n      mload(0x40)\n      swap1\n      dup2\n      add\n      0x40\n      mstore\n      dup1\n      swap3\n      swap2\n      swap1\n      dup2\n      dup2\n      mstore\n      0x20\n      add\n      dup3\n      dup1\n      sload\n      tag_137\n      swap1\n      tag_114\n      jump\t// in\n    tag_137:\n      dup1\n      iszero\n      tag_138\n      jumpi\n      dup1\n      0x1f\n      lt\n      tag_139\n      jumpi\n      0x0100\n      dup1\n      dup4\n      sload\n      div\n      mul\n      dup4\n      mstore\n      swap2\n      0x20\n      add\n      swap2\n      jump(tag_138)\n    tag_139:\n      dup3\n      add\n      swap2\n      swap1\n      0x00\n      mstore\n      keccak256(0x00, 0x20)\n      swap1\n    tag_140:\n      dup2\n      sload\n      dup2\n      mstore\n      swap1\n      0x01\n      add\n      swap1\n      0x20\n      add\n      dup1\n      dup4\n      gt\n      tag_140\n      jumpi\n      dup3\n      swap1\n      sub\n      0x1f\n      and\n      dup3\n      add\n      swap2\n    tag_138:\n      pop\n      pop\n      pop\n      pop\n      pop\n      dup2\n      mstore\n      0x20\n      add\n      0x01\n      dup3\n      add\n      dup1\n      sload\n      tag_141\n      swap1\n      tag_114\n      jump\t// in\n    tag_141:\n      dup1\n      0x1f\n      add\n      0x20\n      dup1\n      swap2\n      div\n      mul\n      0x20\n      add\n      mload(0x40)\n      swap1\n      dup2\n      add\n      0x40\n      mstore\n      dup1\n      swap3\n      swap2\n      swap1\n      dup2\n      dup2\n      mstore\n      0x20\n      add\n      dup3\n      dup1\n      sload\n      tag_142\n      swap1\n      tag_114\n      jump\t// in\n    tag_142:\n      dup1\n      iszero\n      tag_143\n      jumpi\n      dup1\n      0x1f\n      lt\n      tag_144\n      jumpi\n      0x0100\n      dup1\n      dup4\n      sload\n      div\n      mul\n      dup4\n      mstore\n      swap2\n      0x20\n      add\n      swap2\n      jump(tag_143)\n    tag_144:\n      dup3\n      add\n      swap2\n      swap1\n      0x00\n      mstore\n      keccak256(0x00, 0x20)\n      swap1\n    tag_145:\n      dup2\n      sload\n      dup2\n      mstore\n      swap1\n      0x01\n      add\n      swap1\n      0x20\n      add\n      dup1\n      dup4\n      gt\n      tag_145\n      jumpi\n      dup3\n      swap1\n      sub\n      0x1f\n      and\n      dup3\n      add\n      swap2\n    tag_143:\n      pop\n      pop\n      pop\n      pop\n      pop\n      dup2\n      mstore\n      0x20\n      add\n      0x02\n      dup3\n      add\n      dup1\n      sload\n      tag_146\n      swap1\n      tag_114\n      jump\t// in\n    tag_146:\n      dup1\n      0x1f\n      add\n      0x20\n      dup1\n      swap2\n      div\n      mul\n      0x20\n      add\n      mload(0x40)\n      swap1\n      dup2\n      add\n      0x40\n      mstore\n      dup1\n      swap3\n      swap2\n      swap1\n      dup2\n      dup2\n      mstore\n      0x20\n      add\n      dup3\n      dup1\n      sload\n      tag_147\n      swap1\n      tag_114\n      jump\t// in\n    tag_147:\n      dup1\n      iszero\n      tag_148\n      jumpi\n      dup1\n      0x1f\n      lt\n      tag_149\n      jumpi\n      0x0100\n      dup1\n      dup4\n      sload\n      div\n      mul\n      dup4\n      mstore\n      swap2\n      0x20\n      add\n      swap2\n      jump(tag_148)\n    tag_149:\n      dup3\n      add\n      swap2\n      swap1\n      0x00\n      mstore\n      keccak256(0x00, 0x20)\n      swap1\n    tag_150:\n      dup2\n      sload\n      dup2\n      mstore\n      swap1\n      0x01\n      add\n      swap1\n      0x20\n      add\n      dup1\n      dup4\n      gt\n      tag_150\n      jumpi\n      dup3\n      swap1\n      sub\n      0x1f\n      and\n      dup3\n      add\n      swap2\n    tag_148:\n      pop\n      pop\n      pop\n      pop\n      pop\n      dup2\n      mstore\n      pop\n      pop\n      swap1\n      pop\n        /* \"DIDRegistry.sol\":3705:3910  function getMetadata() public view returns (Metadata memory) {... */\n      swap1\n      jump\t// out\n        /* \"DIDRegistry.sol\":3967:4399  function assignRole(address _user, string memory _role) onlyManager public {... */\n    tag_41:\n        /* \"DIDRegistry.sol\":1089:1105  bytes(\"manager\") */\n      mload(0x40)\n      dup1\n      0x40\n      add\n      0x40\n      mstore\n      dup1\n      0x07\n      dup2\n      mstore\n      0x20\n      add\n      0x6d616e6167657200000000000000000000000000000000000000000000000000\n      dup2\n      mstore\n      pop\n        /* \"DIDRegistry.sol\":1079:1106  keccak256(bytes(\"manager\")) */\n      dup1\n      mload\n      swap1\n      0x20\n      add\n      keccak256\n        /* \"DIDRegistry.sol\":1056:1061  roles */\n      0x01\n        /* \"DIDRegistry.sol\":1056:1073  roles[msg.sender] */\n      0x00\n        /* \"DIDRegistry.sol\":1062:1072  msg.sender */\n      caller\n        /* \"DIDRegistry.sol\":1056:1073  roles[msg.sender] */\n      0xffffffffffffffffffffffffffffffffffffffff\n      and\n      0xffffffffffffffffffffffffffffffffffffffff\n      and\n      dup2\n      mstore\n      0x20\n      add\n      swap1\n      dup2\n      mstore\n      0x20\n      add\n      0x00\n      keccak256\n        /* \"DIDRegistry.sol\":1040:1075  keccak256(bytes(roles[msg.sender])) */\n      mload(0x40)\n      tag_152\n      swap2\n      swap1\n      tag_58\n      jump\t// in\n    tag_152:\n      mload(0x40)\n      dup1\n      swap2\n      sub\n      swap1\n      keccak256\n        /* \"DIDRegistry.sol\":1040:1106  keccak256(bytes(roles[msg.sender])) == keccak256(bytes(\"manager\")) */\n      eq\n        /* \"DIDRegistry.sol\":1032:1130  require(keccak256(bytes(roles[msg.sender])) == keccak256(bytes(\"manager\")), \"Unauthorized action\") */\n      tag_153\n      jumpi\n      mload(0x40)\n      0x08c379a000000000000000000000000000000000000000000000000000000000\n      dup2\n      mstore\n      0x04\n      add\n      tag_154\n      swap1\n      tag_61\n      jump\t// in\n    tag_154:\n      mload(0x40)\n      dup1\n      swap2\n      sub\n      swap1\n      revert\n    tag_153:\n        /* \"DIDRegistry.sol\":4095:4096  0 */\n      0x00\n        /* \"DIDRegistry.sol\":4061:4097  dids[msg.sender].owner != address(0) */\n      0xffffffffffffffffffffffffffffffffffffffff\n      and\n        /* \"DIDRegistry.sol\":4061:4065  dids */\n      0x00\n        /* \"DIDRegistry.sol\":4061:4077  dids[msg.sender] */\n      dup1\n        /* \"DIDRegistry.sol\":4066:4076  msg.sender */\n      caller\n        /* \"DIDRegistry.sol\":4061:4077  dids[msg.sender] */\n      0xffffffffffffffffffffffffffffffffffffffff\n      and\n      0xffffffffffffffffffffffffffffffffffffffff\n      and\n      dup2\n      mstore\n      0x20\n      add\n      swap1\n      dup2\n      mstore\n      0x20\n      add\n      0x00\n      keccak256\n        /* \"DIDRegistry.sol\":4061:4083  dids[msg.sender].owner */\n      0x01\n      add\n      0x00\n      swap1\n      sload\n      swap1\n      0x0100\n      exp\n      swap1\n      div\n      0xffffffffffffffffffffffffffffffffffffffff\n      and\n        /* \"DIDRegistry.sol\":4061:4097  dids[msg.sender].owner != address(0) */\n      0xffffffffffffffffffffffffffffffffffffffff\n      and\n      sub\n        /* \"DIDRegistry.sol\":4053:4140  require(dids[msg.sender].owner != address(0), \"No existing DID found for this address\") */\n      tag_156\n      jumpi\n      mload(0x40)\n      0x08c379a000000000000000000000000000000000000000000000000000000000\n      dup2\n      mstore\n      0x04\n      add\n      tag_157\n      swap1\n      tag_65\n      jump\t// in\n    tag_157:\n      mload(0x40)\n      dup1\n      swap2\n      sub\n      swap1\n      revert\n    tag_156:\n        /* \"DIDRegistry.sol\":4181:4182  0 */\n      0x00\n        /* \"DIDRegistry.sol\":4165:4170  _role */\n      dup2\n        /* \"DIDRegistry.sol\":4159:4178  bytes(_role).length */\n      mload\n        /* \"DIDRegistry.sol\":4159:4182  bytes(_role).length > 0 */\n      gt\n        /* \"DIDRegistry.sol\":4151:4207  require(bytes(_role).length > 0, \"Role cannot be empty\") */\n      tag_158\n      jumpi\n      mload(0x40)\n      0x08c379a000000000000000000000000000000000000000000000000000000000\n      dup2\n      mstore\n      0x04\n      add\n      tag_159\n      swap1\n      tag_68\n      jump\t// in\n    tag_159:\n      mload(0x40)\n      dup1\n      swap2\n      sub\n      swap1\n      revert\n    tag_158:\n        /* \"DIDRegistry.sol\":4235:4240  _role */\n      dup1\n        /* \"DIDRegistry.sol\":4220:4225  roles */\n      0x01\n        /* \"DIDRegistry.sol\":4220:4232  roles[_user] */\n      0x00\n        /* \"DIDRegistry.sol\":4226:4231  _user */\n      dup5\n        /* \"DIDRegistry.sol\":4220:4232  roles[_user] */\n      0xffffffffffffffffffffffffffffffffffffffff\n      and\n      0xffffffffffffffffffffffffffffffffffffffff\n      and\n      dup2\n      mstore\n      0x20\n      add\n      swap1\n      dup2\n      mstore\n      0x20\n      add\n      0x00\n      keccak256\n        /* \"DIDRegistry.sol\":4220:4240  roles[_user] = _role */\n      swap1\n      dup2\n      tag_160\n      swap2\n      swap1\n      tag_73\n      jump\t// in\n    tag_160:\n      pop\n        /* \"DIDRegistry.sol\":4251:4262  roleHistory */\n      0x02\n        /* \"DIDRegistry.sol\":4251:4269  roleHistory[_user] */\n      0x00\n        /* \"DIDRegistry.sol\":4263:4268  _user */\n      dup4\n        /* \"DIDRegistry.sol\":4251:4269  roleHistory[_user] */\n      0xffffffffffffffffffffffffffffffffffffffff\n      and\n      0xffffffffffffffffffffffffffffffffffffffff\n      and\n      dup2\n      mstore\n      0x20\n      add\n      swap1\n      dup2\n      mstore\n      0x20\n      add\n      0x00\n      keccak256\n        /* \"DIDRegistry.sol\":4275:4280  _role */\n      dup2\n        /* \"DIDRegistry.sol\":4251:4281  roleHistory[_user].push(_role) */\n      swap1\n      dup1\n      0x01\n      dup2\n      sload\n      add\n      dup1\n      dup3\n      sstore\n      dup1\n      swap2\n      pop\n      pop\n      0x01\n      swap1\n      sub\n      swap1\n      0x00\n      mstore\n      keccak256(0x00, 0x20)\n      add\n      0x00\n      swap1\n      swap2\n      swap1\n      swap2\n      swap1\n      swap2\n      pop\n      swap1\n      dup2\n      tag_162\n      swap2\n      swap1\n      tag_73\n      jump\t// in\n    tag_162:\n      pop\n        /* \"DIDRegistry.sol\":4377:4382  _user */\n      dup2\n        /* \"DIDRegistry.sol\":4364:4390  RoleAssigned(_user, _role) */\n      0xffffffffffffffffffffffffffffffffffffffff\n      and\n      0x3565795c2fb8842c21347d277937778bbcfe788b5b4f790fc5e408786cbe9c90\n        /* \"DIDRegistry.sol\":4384:4389  _role */\n      dup3\n        /* \"DIDRegistry.sol\":4364:4390  RoleAssigned(_user, _role) */\n      mload(0x40)\n      tag_163\n      swap2\n      swap1\n      tag_45\n      jump\t// in\n    tag_163:\n      mload(0x40)\n      dup1\n      swap2\n      sub\n      swap1\n      log2\n        /* \"DIDRegistry.sol\":3967:4399  function assignRole(address _user, string memory _role) onlyManager public {... */\n      pop\n      pop\n      jump\t// out\n        /* \"DIDRegistry.sol\":2140:2336  function getDID() public view returns (string memory) {... */\n    tag_43:\n        /* \"DIDRegistry.sol\":2179:2192  string memory */\n      0x60\n        /* \"DIDRegistry.sol\":2247:2248  0 */\n      0x00\n        /* \"DIDRegistry.sol\":2213:2249  dids[msg.sender].owner != address(0) */\n      0xffffffffffffffffffffffffffffffffffffffff\n      and\n        /* \"DIDRegistry.sol\":2213:2217  dids */\n      0x00\n        /* \"DIDRegistry.sol\":2213:2229  dids[msg.sender] */\n      dup1\n        /* \"DIDRegistry.sol\":2218:2228  msg.sender */\n      caller\n        /* \"DIDRegistry.sol\":2213:2229  dids[msg.sender] */\n      0xffffffffffffffffffffffffffffffffffffffff\n      and\n      0xffffffffffffffffffffffffffffffffffffffff\n      and\n      dup2\n      mstore\n      0x20\n      add\n      swap1\n      dup2\n      mstore\n      0x20\n      add\n      0x00\n      keccak256\n        /* \"DIDRegistry.sol\":2213:2235  dids[msg.sender].owner */\n      0x01\n      add\n      0x00\n      swap1\n      sload\n      swap1\n      0x0100\n      exp\n      swap1\n      div\n      0xffffffffffffffffffffffffffffffffffffffff\n      and\n        /* \"DIDRegistry.sol\":2213:2249  dids[msg.sender].owner != address(0) */\n      0xffffffffffffffffffffffffffffffffffffffff\n      and\n      sub\n        /* \"DIDRegistry.sol\":2205:2283  require(dids[msg.sender].owner != address(0), \"No DID found for this address\") */\n      tag_165\n      jumpi\n      mload(0x40)\n      0x08c379a000000000000000000000000000000000000000000000000000000000\n      dup2\n      mstore\n      0x04\n      add\n      tag_166\n      swap1\n      tag_167\n      jump\t// in\n    tag_166:\n      mload(0x40)\n      dup1\n      swap2\n      sub\n      swap1\n      revert\n    tag_165:\n        /* \"DIDRegistry.sol\":2301:2305  dids */\n      0x00\n        /* \"DIDRegistry.sol\":2301:2317  dids[msg.sender] */\n      dup1\n        /* \"DIDRegistry.sol\":2306:2316  msg.sender */\n      caller\n        /* \"DIDRegistry.sol\":2301:2317  dids[msg.sender] */\n      0xffffffffffffffffffffffffffffffffffffffff\n      and\n      0xffffffffffffffffffffffffffffffffffffffff\n      and\n      dup2\n      mstore\n      0x20\n      add\n      swap1\n      dup2\n      mstore\n      0x20\n      add\n      0x00\n      keccak256\n        /* \"DIDRegistry.sol\":2301:2328  dids[msg.sender].identifier */\n      0x00\n      add\n        /* \"DIDRegistry.sol\":2294:2328  return dids[msg.sender].identifier */\n      dup1\n      sload\n      tag_168\n      swap1\n      tag_114\n      jump\t// in\n    tag_168:\n      dup1\n      0x1f\n      add\n      0x20\n      dup1\n      swap2\n      div\n      mul\n      0x20\n      add\n      mload(0x40)\n      swap1\n      dup2\n      add\n      0x40\n      mstore\n      dup1\n      swap3\n      swap2\n      swap1\n      dup2\n      dup2\n      mstore\n      0x20\n      add\n      dup3\n      dup1\n      sload\n      tag_169\n      swap1\n      tag_114\n      jump\t// in\n    tag_169:\n      dup1\n      iszero\n      tag_170\n      jumpi\n      dup1\n      0x1f\n      lt\n      tag_171\n      jumpi\n      0x0100\n      dup1\n      dup4\n      sload\n      div\n      mul\n      dup4\n      mstore\n      swap2\n      0x20\n      add\n      swap2\n      jump(tag_170)\n    tag_171:\n      dup3\n      add\n      swap2\n      swap1\n      0x00\n      mstore\n      keccak256(0x00, 0x20)\n      swap1\n    tag_172:\n      dup2\n      sload\n      dup2\n      mstore\n      swap1\n      0x01\n      add\n      swap1\n      0x20\n      add\n      dup1\n      dup4\n      gt\n      tag_172\n      jumpi\n      dup3\n      swap1\n      sub\n      0x1f\n      and\n      dup3\n      add\n      swap2\n    tag_170:\n      pop\n      pop\n      pop\n      pop\n      pop\n      swap1\n      pop\n        /* \"DIDRegistry.sol\":2140:2336  function getDID() public view returns (string memory) {... */\n      swap1\n      jump\t// out\n        /* \"DIDRegistry.sol\":6025:6362  function presentCredential(string memory _name, string memory _email) public view returns(bytes32)... */\n    tag_49:\n        /* \"DIDRegistry.sol\":6115:6122  bytes32 */\n      0x00\n        /* \"DIDRegistry.sol\":6182:6183  0 */\n      dup1\n        /* \"DIDRegistry.sol\":6148:6184  dids[msg.sender].owner != address(0) */\n      0xffffffffffffffffffffffffffffffffffffffff\n      and\n        /* \"DIDRegistry.sol\":6148:6152  dids */\n      0x00\n        /* \"DIDRegistry.sol\":6148:6164  dids[msg.sender] */\n      dup1\n        /* \"DIDRegistry.sol\":6153:6163  msg.sender */\n      caller\n        /* \"DIDRegistry.sol\":6148:6164  dids[msg.sender] */\n      0xffffffffffffffffffffffffffffffffffffffff\n      and\n      0xffffffffffffffffffffffffffffffffffffffff\n      and\n      dup2\n      mstore\n      0x20\n      add\n      swap1\n      dup2\n      mstore\n      0x20\n      add\n      0x00\n      keccak256\n        /* \"DIDRegistry.sol\":6148:6170  dids[msg.sender].owner */\n      0x01\n      add\n      0x00\n      swap1\n      sload\n      swap1\n      0x0100\n      exp\n      swap1\n      div\n      0xffffffffffffffffffffffffffffffffffffffff\n      and\n        /* \"DIDRegistry.sol\":6148:6184  dids[msg.sender].owner != address(0) */\n      0xffffffffffffffffffffffffffffffffffffffff\n      and\n      sub\n        /* \"DIDRegistry.sol\":6140:6227  require(dids[msg.sender].owner != address(0), \"No existing DID found for this address\") */\n      tag_174\n      jumpi\n      mload(0x40)\n      0x08c379a000000000000000000000000000000000000000000000000000000000\n      dup2\n      mstore\n      0x04\n      add\n      tag_175\n      swap1\n      tag_65\n      jump\t// in\n    tag_175:\n      mload(0x40)\n      dup1\n      swap2\n      sub\n      swap1\n      revert\n    tag_174:\n        /* \"DIDRegistry.sol\":6339:6344  _name */\n      dup3\n        /* \"DIDRegistry.sol\":6346:6352  _email */\n      dup3\n        /* \"DIDRegistry.sol\":6322:6353  abi.encodePacked(_name, _email) */\n      add(0x20, mload(0x40))\n      tag_176\n      swap3\n      swap2\n      swap1\n      tag_130\n      jump\t// in\n    tag_176:\n      mload(0x40)\n      0x20\n      dup2\n      dup4\n      sub\n      sub\n      dup2\n      mstore\n      swap1\n      0x40\n      mstore\n        /* \"DIDRegistry.sol\":6312:6354  keccak256(abi.encodePacked(_name, _email)) */\n      dup1\n      mload\n      swap1\n      0x20\n      add\n      keccak256\n        /* \"DIDRegistry.sol\":6305:6354  return keccak256(abi.encodePacked(_name, _email)) */\n      swap1\n      pop\n        /* \"DIDRegistry.sol\":6025:6362  function presentCredential(string memory _name, string memory _email) public view returns(bytes32)... */\n      swap3\n      swap2\n      pop\n      pop\n      jump\t// out\n        /* \"DIDRegistry.sol\":5471:5952  function getRole() public view returns (string[] memory) {... */\n    tag_53:\n        /* \"DIDRegistry.sol\":5511:5526  string[] memory */\n      0x60\n        /* \"DIDRegistry.sol\":5581:5582  0 */\n      0x00\n        /* \"DIDRegistry.sol\":5547:5583  dids[msg.sender].owner != address(0) */\n      0xffffffffffffffffffffffffffffffffffffffff\n      and\n        /* \"DIDRegistry.sol\":5547:5551  dids */\n      0x00\n        /* \"DIDRegistry.sol\":5547:5563  dids[msg.sender] */\n      dup1\n        /* \"DIDRegistry.sol\":5552:5562  msg.sender */\n      caller\n        /* \"DIDRegistry.sol\":5547:5563  dids[msg.sender] */\n      0xffffffffffffffffffffffffffffffffffffffff\n      and\n      0xffffffffffffffffffffffffffffffffffffffff\n      and\n      dup2\n      mstore\n      0x20\n      add\n      swap1\n      dup2\n      mstore\n      0x20\n      add\n      0x00\n      keccak256\n        /* \"DIDRegistry.sol\":5547:5569  dids[msg.sender].owner */\n      0x01\n      add\n      0x00\n      swap1\n      sload\n      swap1\n      0x0100\n      exp\n      swap1\n      div\n      0xffffffffffffffffffffffffffffffffffffffff\n      and\n        /* \"DIDRegistry.sol\":5547:5583  dids[msg.sender].owner != address(0) */\n      0xffffffffffffffffffffffffffffffffffffffff\n      and\n      sub\n        /* \"DIDRegistry.sol\":5539:5626  require(dids[msg.sender].owner != address(0), \"No existing DID found for this address\") */\n      tag_178\n      jumpi\n      mload(0x40)\n      0x08c379a000000000000000000000000000000000000000000000000000000000\n      dup2\n      mstore\n      0x04\n      add\n      tag_179\n      swap1\n      tag_65\n      jump\t// in\n    tag_179:\n      mload(0x40)\n      dup1\n      swap2\n      sub\n      swap1\n      revert\n    tag_178:\n        /* \"DIDRegistry.sol\":5672:5697  string[] memory userRoles */\n      0x00\n        /* \"DIDRegistry.sol\":5700:5711  roleHistory */\n      0x02\n        /* \"DIDRegistry.sol\":5700:5723  roleHistory[msg.sender] */\n      0x00\n        /* \"DIDRegistry.sol\":5712:5722  msg.sender */\n      caller\n        /* \"DIDRegistry.sol\":5700:5723  roleHistory[msg.sender] */\n      0xffffffffffffffffffffffffffffffffffffffff\n      and\n      0xffffffffffffffffffffffffffffffffffffffff\n      and\n      dup2\n      mstore\n      0x20\n      add\n      swap1\n      dup2\n      mstore\n      0x20\n      add\n      0x00\n      keccak256\n        /* \"DIDRegistry.sol\":5672:5723  string[] memory userRoles = roleHistory[msg.sender] */\n      dup1\n      sload\n      dup1\n      0x20\n      mul\n      0x20\n      add\n      mload(0x40)\n      swap1\n      dup2\n      add\n      0x40\n      mstore\n      dup1\n      swap3\n      swap2\n      swap1\n      dup2\n      dup2\n      mstore\n      0x20\n      add\n      0x00\n      swap1\n    tag_180:\n      dup3\n      dup3\n      lt\n      iszero\n      tag_181\n      jumpi\n      dup4\n      dup3\n      swap1\n      0x00\n      mstore\n      keccak256(0x00, 0x20)\n      add\n      dup1\n      sload\n      tag_183\n      swap1\n      tag_114\n      jump\t// in\n    tag_183:\n      dup1\n      0x1f\n      add\n      0x20\n      dup1\n      swap2\n      div\n      mul\n      0x20\n      add\n      mload(0x40)\n      swap1\n      dup2\n      add\n      0x40\n      mstore\n      dup1\n      swap3\n      swap2\n      swap1\n      dup2\n      dup2\n      mstore\n      0x20\n      add\n      dup3\n      dup1\n      sload\n      tag_184\n      swap1\n      tag_114\n      jump\t// in\n    tag_184:\n      dup1\n      iszero\n      tag_185\n      jumpi\n      dup1\n      0x1f\n      lt\n      tag_186\n      jumpi\n      0x0100\n      dup1\n      dup4\n      sload\n      div\n      mul\n      dup4\n      mstore\n      swap2\n      0x20\n      add\n      swap2\n      jump(tag_185)\n    tag_186:\n      dup3\n      add\n      swap2\n      swap1\n      0x00\n      mstore\n      keccak256(0x00, 0x20)\n      swap1\n    tag_187:\n      dup2\n      sload\n      dup2\n      mstore\n      swap1\n      0x01\n      add\n      swap1\n      0x20\n      add\n      dup1\n      dup4\n      gt\n      tag_187\n      jumpi\n      dup3\n      swap1\n      sub\n      0x1f\n      and\n      dup3\n      add\n      swap2\n    tag_185:\n      pop\n      pop\n      pop\n      pop\n      pop\n      dup2\n      mstore\n      0x20\n      add\n      swap1\n      0x01\n      add\n      swap1\n      jump(tag_180)\n    tag_181:\n      pop\n      pop\n      pop\n      pop\n      swap1\n      pop\n        /* \"DIDRegistry.sol\":5825:5826  0 */\n      0x00\n        /* \"DIDRegistry.sol\":5806:5815  userRoles */\n      dup2\n        /* \"DIDRegistry.sol\":5806:5822  userRoles.length */\n      mload\n        /* \"DIDRegistry.sol\":5806:5826  userRoles.length > 0 */\n      gt\n        /* \"DIDRegistry.sol\":5798:5862  require(userRoles.length > 0, \"No roles assigned for this user\") */\n      tag_188\n      jumpi\n      mload(0x40)\n      0x08c379a000000000000000000000000000000000000000000000000000000000\n      dup2\n      mstore\n      0x04\n      add\n      tag_189\n      swap1\n      tag_190\n      jump\t// in\n    tag_189:\n      mload(0x40)\n      dup1\n      swap2\n      sub\n      swap1\n      revert\n    tag_188:\n        /* \"DIDRegistry.sol\":5935:5944  userRoles */\n      dup1\n        /* \"DIDRegistry.sol\":5928:5944  return userRoles */\n      swap2\n      pop\n      pop\n        /* \"DIDRegistry.sol\":5471:5952  function getRole() public view returns (string[] memory) {... */\n      swap1\n      jump\t// out\n    tag_132:\n      mload(0x40)\n      dup1\n      0x60\n      add\n      0x40\n      mstore\n      dup1\n      0x60\n      dup2\n      mstore\n      0x20\n      add\n      0x60\n      dup2\n      mstore\n      0x20\n      add\n      0x60\n      dup2\n      mstore\n      pop\n      swap1\n      jump\t// out\n        /* \"#utility.yul\":7:82   */\n    tag_191:\n        /* \"#utility.yul\":40:46   */\n      0x00\n        /* \"#utility.yul\":73:75   */\n      0x40\n        /* \"#utility.yul\":67:76   */\n      mload\n        /* \"#utility.yul\":57:76   */\n      swap1\n      pop\n        /* \"#utility.yul\":7:82   */\n      swap1\n      jump\t// out\n        /* \"#utility.yul\":88:205   */\n    tag_192:\n        /* \"#utility.yul\":197:198   */\n      0x00\n        /* \"#utility.yul\":194:195   */\n      dup1\n        /* \"#utility.yul\":187:199   */\n      revert\n        /* \"#utility.yul\":211:328   */\n    tag_193:\n        /* \"#utility.yul\":320:321   */\n      0x00\n        /* \"#utility.yul\":317:318   */\n      dup1\n        /* \"#utility.yul\":310:322   */\n      revert\n        /* \"#utility.yul\":334:460   */\n    tag_194:\n        /* \"#utility.yul\":371:378   */\n      0x00\n        /* \"#utility.yul\":411:453   */\n      0xffffffffffffffffffffffffffffffffffffffff\n        /* \"#utility.yul\":404:409   */\n      dup3\n        /* \"#utility.yul\":400:454   */\n      and\n        /* \"#utility.yul\":389:454   */\n      swap1\n      pop\n        /* \"#utility.yul\":334:460   */\n      swap2\n      swap1\n      pop\n      jump\t// out\n        /* \"#utility.yul\":466:562   */\n    tag_195:\n        /* \"#utility.yul\":503:510   */\n      0x00\n        /* \"#utility.yul\":532:556   */\n      tag_282\n        /* \"#utility.yul\":550:555   */\n      dup3\n        /* \"#utility.yul\":532:556   */\n      tag_194\n      jump\t// in\n    tag_282:\n        /* \"#utility.yul\":521:556   */\n      swap1\n      pop\n        /* \"#utility.yul\":466:562   */\n      swap2\n      swap1\n      pop\n      jump\t// out\n        /* \"#utility.yul\":568:690   */\n    tag_196:\n        /* \"#utility.yul\":641:665   */\n      tag_284\n        /* \"#utility.yul\":659:664   */\n      dup2\n        /* \"#utility.yul\":641:665   */\n      tag_195\n      jump\t// in\n    tag_284:\n        /* \"#utility.yul\":634:639   */\n      dup2\n        /* \"#utility.yul\":631:666   */\n      eq\n        /* \"#utility.yul\":621:684   */\n      tag_285\n      jumpi\n        /* \"#utility.yul\":680:681   */\n      0x00\n        /* \"#utility.yul\":677:678   */\n      dup1\n        /* \"#utility.yul\":670:682   */\n      revert\n        /* \"#utility.yul\":621:684   */\n    tag_285:\n        /* \"#utility.yul\":568:690   */\n      pop\n      jump\t// out\n        /* \"#utility.yul\":696:835   */\n    tag_197:\n        /* \"#utility.yul\":742:747   */\n      0x00\n        /* \"#utility.yul\":780:786   */\n      dup2\n        /* \"#utility.yul\":767:787   */\n      calldataload\n        /* \"#utility.yul\":758:787   */\n      swap1\n      pop\n        /* \"#utility.yul\":796:829   */\n      tag_287\n        /* \"#utility.yul\":823:828   */\n      dup2\n        /* \"#utility.yul\":796:829   */\n      tag_196\n      jump\t// in\n    tag_287:\n        /* \"#utility.yul\":696:835   */\n      swap3\n      swap2\n      pop\n      pop\n      jump\t// out\n        /* \"#utility.yul\":841:958   */\n    tag_198:\n        /* \"#utility.yul\":950:951   */\n      0x00\n        /* \"#utility.yul\":947:948   */\n      dup1\n        /* \"#utility.yul\":940:952   */\n      revert\n        /* \"#utility.yul\":964:1081   */\n    tag_199:\n        /* \"#utility.yul\":1073:1074   */\n      0x00\n        /* \"#utility.yul\":1070:1071   */\n      dup1\n        /* \"#utility.yul\":1063:1075   */\n      revert\n        /* \"#utility.yul\":1087:1189   */\n    tag_200:\n        /* \"#utility.yul\":1128:1134   */\n      0x00\n        /* \"#utility.yul\":1179:1181   */\n      0x1f\n        /* \"#utility.yul\":1175:1182   */\n      not\n        /* \"#utility.yul\":1170:1172   */\n      0x1f\n        /* \"#utility.yul\":1163:1168   */\n      dup4\n        /* \"#utility.yul\":1159:1173   */\n      add\n        /* \"#utility.yul\":1155:1183   */\n      and\n        /* \"#utility.yul\":1145:1183   */\n      swap1\n      pop\n        /* \"#utility.yul\":1087:1189   */\n      swap2\n      swap1\n      pop\n      jump\t// out\n        /* \"#utility.yul\":1195:1375   */\n    tag_201:\n        /* \"#utility.yul\":1243:1320   */\n      0x4e487b7100000000000000000000000000000000000000000000000000000000\n        /* \"#utility.yul\":1240:1241   */\n      0x00\n        /* \"#utility.yul\":1233:1321   */\n      mstore\n        /* \"#utility.yul\":1340:1344   */\n      0x41\n        /* \"#utility.yul\":1337:1338   */\n      0x04\n        /* \"#utility.yul\":1330:1345   */\n      mstore\n        /* \"#utility.yul\":1364:1368   */\n      0x24\n        /* \"#utility.yul\":1361:1362   */\n      0x00\n        /* \"#utility.yul\":1354:1369   */\n      revert\n        /* \"#utility.yul\":1381:1662   */\n    tag_202:\n        /* \"#utility.yul\":1464:1491   */\n      tag_293\n        /* \"#utility.yul\":1486:1490   */\n      dup3\n        /* \"#utility.yul\":1464:1491   */\n      tag_200\n      jump\t// in\n    tag_293:\n        /* \"#utility.yul\":1456:1462   */\n      dup2\n        /* \"#utility.yul\":1452:1492   */\n      add\n        /* \"#utility.yul\":1594:1600   */\n      dup2\n        /* \"#utility.yul\":1582:1592   */\n      dup2\n        /* \"#utility.yul\":1579:1601   */\n      lt\n        /* \"#utility.yul\":1558:1576   */\n      0xffffffffffffffff\n        /* \"#utility.yul\":1546:1556   */\n      dup3\n        /* \"#utility.yul\":1543:1577   */\n      gt\n        /* \"#utility.yul\":1540:1602   */\n      or\n        /* \"#utility.yul\":1537:1625   */\n      iszero\n      tag_294\n      jumpi\n        /* \"#utility.yul\":1605:1623   */\n      tag_295\n      tag_201\n      jump\t// in\n    tag_295:\n        /* \"#utility.yul\":1537:1625   */\n    tag_294:\n        /* \"#utility.yul\":1645:1655   */\n      dup1\n        /* \"#utility.yul\":1641:1643   */\n      0x40\n        /* \"#utility.yul\":1634:1656   */\n      mstore\n        /* \"#utility.yul\":1424:1662   */\n      pop\n        /* \"#utility.yul\":1381:1662   */\n      pop\n      pop\n      jump\t// out\n        /* \"#utility.yul\":1668:1797   */\n    tag_203:\n        /* \"#utility.yul\":1702:1708   */\n      0x00\n        /* \"#utility.yul\":1729:1749   */\n      tag_297\n      tag_191\n      jump\t// in\n    tag_297:\n        /* \"#utility.yul\":1719:1749   */\n      swap1\n      pop\n        /* \"#utility.yul\":1758:1791   */\n      tag_298\n        /* \"#utility.yul\":1786:1790   */\n      dup3\n        /* \"#utility.yul\":1778:1784   */\n      dup3\n        /* \"#utility.yul\":1758:1791   */\n      tag_202\n      jump\t// in\n    tag_298:\n        /* \"#utility.yul\":1668:1797   */\n      swap2\n      swap1\n      pop\n      jump\t// out\n        /* \"#utility.yul\":1803:2111   */\n    tag_204:\n        /* \"#utility.yul\":1865:1869   */\n      0x00\n        /* \"#utility.yul\":1955:1973   */\n      0xffffffffffffffff\n        /* \"#utility.yul\":1947:1953   */\n      dup3\n        /* \"#utility.yul\":1944:1974   */\n      gt\n        /* \"#utility.yul\":1941:1997   */\n      iszero\n      tag_300\n      jumpi\n        /* \"#utility.yul\":1977:1995   */\n      tag_301\n      tag_201\n      jump\t// in\n    tag_301:\n        /* \"#utility.yul\":1941:1997   */\n    tag_300:\n        /* \"#utility.yul\":2015:2044   */\n      tag_302\n        /* \"#utility.yul\":2037:2043   */\n      dup3\n        /* \"#utility.yul\":2015:2044   */\n      tag_200\n      jump\t// in\n    tag_302:\n        /* \"#utility.yul\":2007:2044   */\n      swap1\n      pop\n        /* \"#utility.yul\":2099:2103   */\n      0x20\n        /* \"#utility.yul\":2093:2097   */\n      dup2\n        /* \"#utility.yul\":2089:2104   */\n      add\n        /* \"#utility.yul\":2081:2104   */\n      swap1\n      pop\n        /* \"#utility.yul\":1803:2111   */\n      swap2\n      swap1\n      pop\n      jump\t// out\n        /* \"#utility.yul\":2117:2265   */\n    tag_205:\n        /* \"#utility.yul\":2215:2221   */\n      dup3\n        /* \"#utility.yul\":2210:2213   */\n      dup2\n        /* \"#utility.yul\":2205:2208   */\n      dup4\n        /* \"#utility.yul\":2192:2222   */\n      calldatacopy\n        /* \"#utility.yul\":2256:2257   */\n      0x00\n        /* \"#utility.yul\":2247:2253   */\n      dup4\n        /* \"#utility.yul\":2242:2245   */\n      dup4\n        /* \"#utility.yul\":2238:2254   */\n      add\n        /* \"#utility.yul\":2231:2258   */\n      mstore\n        /* \"#utility.yul\":2117:2265   */\n      pop\n      pop\n      pop\n      jump\t// out\n        /* \"#utility.yul\":2271:2696   */\n    tag_206:\n        /* \"#utility.yul\":2349:2354   */\n      0x00\n        /* \"#utility.yul\":2374:2440   */\n      tag_305\n        /* \"#utility.yul\":2390:2439   */\n      tag_306\n        /* \"#utility.yul\":2432:2438   */\n      dup5\n        /* \"#utility.yul\":2390:2439   */\n      tag_204\n      jump\t// in\n    tag_306:\n        /* \"#utility.yul\":2374:2440   */\n      tag_203\n      jump\t// in\n    tag_305:\n        /* \"#utility.yul\":2365:2440   */\n      swap1\n      pop\n        /* \"#utility.yul\":2463:2469   */\n      dup3\n        /* \"#utility.yul\":2456:2461   */\n      dup2\n        /* \"#utility.yul\":2449:2470   */\n      mstore\n        /* \"#utility.yul\":2501:2505   */\n      0x20\n        /* \"#utility.yul\":2494:2499   */\n      dup2\n        /* \"#utility.yul\":2490:2506   */\n      add\n        /* \"#utility.yul\":2539:2542   */\n      dup5\n        /* \"#utility.yul\":2530:2536   */\n      dup5\n        /* \"#utility.yul\":2525:2528   */\n      dup5\n        /* \"#utility.yul\":2521:2537   */\n      add\n        /* \"#utility.yul\":2518:2543   */\n      gt\n        /* \"#utility.yul\":2515:2627   */\n      iszero\n      tag_307\n      jumpi\n        /* \"#utility.yul\":2546:2625   */\n      tag_308\n      tag_199\n      jump\t// in\n    tag_308:\n        /* \"#utility.yul\":2515:2627   */\n    tag_307:\n        /* \"#utility.yul\":2636:2690   */\n      tag_309\n        /* \"#utility.yul\":2683:2689   */\n      dup5\n        /* \"#utility.yul\":2678:2681   */\n      dup3\n        /* \"#utility.yul\":2673:2676   */\n      dup6\n        /* \"#utility.yul\":2636:2690   */\n      tag_205\n      jump\t// in\n    tag_309:\n        /* \"#utility.yul\":2355:2696   */\n      pop\n        /* \"#utility.yul\":2271:2696   */\n      swap4\n      swap3\n      pop\n      pop\n      pop\n      jump\t// out\n        /* \"#utility.yul\":2716:3056   */\n    tag_207:\n        /* \"#utility.yul\":2772:2777   */\n      0x00\n        /* \"#utility.yul\":2821:2824   */\n      dup3\n        /* \"#utility.yul\":2814:2818   */\n      0x1f\n        /* \"#utility.yul\":2806:2812   */\n      dup4\n        /* \"#utility.yul\":2802:2819   */\n      add\n        /* \"#utility.yul\":2798:2825   */\n      slt\n        /* \"#utility.yul\":2788:2910   */\n      tag_311\n      jumpi\n        /* \"#utility.yul\":2829:2908   */\n      tag_312\n      tag_198\n      jump\t// in\n    tag_312:\n        /* \"#utility.yul\":2788:2910   */\n    tag_311:\n        /* \"#utility.yul\":2946:2952   */\n      dup2\n        /* \"#utility.yul\":2933:2953   */\n      calldataload\n        /* \"#utility.yul\":2971:3050   */\n      tag_313\n        /* \"#utility.yul\":3046:3049   */\n      dup5\n        /* \"#utility.yul\":3038:3044   */\n      dup3\n        /* \"#utility.yul\":3031:3035   */\n      0x20\n        /* \"#utility.yul\":3023:3029   */\n      dup7\n        /* \"#utility.yul\":3019:3036   */\n      add\n        /* \"#utility.yul\":2971:3050   */\n      tag_206\n      jump\t// in\n    tag_313:\n        /* \"#utility.yul\":2962:3050   */\n      swap2\n      pop\n        /* \"#utility.yul\":2778:3056   */\n      pop\n        /* \"#utility.yul\":2716:3056   */\n      swap3\n      swap2\n      pop\n      pop\n      jump\t// out\n        /* \"#utility.yul\":3062:3716   */\n    tag_16:\n        /* \"#utility.yul\":3140:3146   */\n      0x00\n        /* \"#utility.yul\":3148:3154   */\n      dup1\n        /* \"#utility.yul\":3197:3199   */\n      0x40\n        /* \"#utility.yul\":3185:3194   */\n      dup4\n        /* \"#utility.yul\":3176:3183   */\n      dup6\n        /* \"#utility.yul\":3172:3195   */\n      sub\n        /* \"#utility.yul\":3168:3200   */\n      slt\n        /* \"#utility.yul\":3165:3284   */\n      iszero\n      tag_315\n      jumpi\n        /* \"#utility.yul\":3203:3282   */\n      tag_316\n      tag_192\n      jump\t// in\n    tag_316:\n        /* \"#utility.yul\":3165:3284   */\n    tag_315:\n        /* \"#utility.yul\":3323:3324   */\n      0x00\n        /* \"#utility.yul\":3348:3401   */\n      tag_317\n        /* \"#utility.yul\":3393:3400   */\n      dup6\n        /* \"#utility.yul\":3384:3390   */\n      dup3\n        /* \"#utility.yul\":3373:3382   */\n      dup7\n        /* \"#utility.yul\":3369:3391   */\n      add\n        /* \"#utility.yul\":3348:3401   */\n      tag_197\n      jump\t// in\n    tag_317:\n        /* \"#utility.yul\":3338:3401   */\n      swap3\n      pop\n        /* \"#utility.yul\":3294:3411   */\n      pop\n        /* \"#utility.yul\":3478:3480   */\n      0x20\n        /* \"#utility.yul\":3467:3476   */\n      dup4\n        /* \"#utility.yul\":3463:3481   */\n      add\n        /* \"#utility.yul\":3450:3482   */\n      calldataload\n        /* \"#utility.yul\":3509:3527   */\n      0xffffffffffffffff\n        /* \"#utility.yul\":3501:3507   */\n      dup2\n        /* \"#utility.yul\":3498:3528   */\n      gt\n        /* \"#utility.yul\":3495:3612   */\n      iszero\n      tag_318\n      jumpi\n        /* \"#utility.yul\":3531:3610   */\n      tag_319\n      tag_193\n      jump\t// in\n    tag_319:\n        /* \"#utility.yul\":3495:3612   */\n    tag_318:\n        /* \"#utility.yul\":3636:3699   */\n      tag_320\n        /* \"#utility.yul\":3691:3698   */\n      dup6\n        /* \"#utility.yul\":3682:3688   */\n      dup3\n        /* \"#utility.yul\":3671:3680   */\n      dup7\n        /* \"#utility.yul\":3667:3689   */\n      add\n        /* \"#utility.yul\":3636:3699   */\n      tag_207\n      jump\t// in\n    tag_320:\n        /* \"#utility.yul\":3626:3699   */\n      swap2\n      pop\n        /* \"#utility.yul\":3421:3709   */\n      pop\n        /* \"#utility.yul\":3062:3716   */\n      swap3\n      pop\n      swap3\n      swap1\n      pop\n      jump\t// out\n        /* \"#utility.yul\":3722:4881   */\n    tag_20:\n        /* \"#utility.yul\":3829:3835   */\n      0x00\n        /* \"#utility.yul\":3837:3843   */\n      dup1\n        /* \"#utility.yul\":3845:3851   */\n      0x00\n        /* \"#utility.yul\":3894:3896   */\n      0x60\n        /* \"#utility.yul\":3882:3891   */\n      dup5\n        /* \"#utility.yul\":3873:3880   */\n      dup7\n        /* \"#utility.yul\":3869:3892   */\n      sub\n        /* \"#utility.yul\":3865:3897   */\n      slt\n        /* \"#utility.yul\":3862:3981   */\n      iszero\n      tag_322\n      jumpi\n        /* \"#utility.yul\":3900:3979   */\n      tag_323\n      tag_192\n      jump\t// in\n    tag_323:\n        /* \"#utility.yul\":3862:3981   */\n    tag_322:\n        /* \"#utility.yul\":4048:4049   */\n      0x00\n        /* \"#utility.yul\":4037:4046   */\n      dup5\n        /* \"#utility.yul\":4033:4050   */\n      add\n        /* \"#utility.yul\":4020:4051   */\n      calldataload\n        /* \"#utility.yul\":4078:4096   */\n      0xffffffffffffffff\n        /* \"#utility.yul\":4070:4076   */\n      dup2\n        /* \"#utility.yul\":4067:4097   */\n      gt\n        /* \"#utility.yul\":4064:4181   */\n      iszero\n      tag_324\n      jumpi\n        /* \"#utility.yul\":4100:4179   */\n      tag_325\n      tag_193\n      jump\t// in\n    tag_325:\n        /* \"#utility.yul\":4064:4181   */\n    tag_324:\n        /* \"#utility.yul\":4205:4268   */\n      tag_326\n        /* \"#utility.yul\":4260:4267   */\n      dup7\n        /* \"#utility.yul\":4251:4257   */\n      dup3\n        /* \"#utility.yul\":4240:4249   */\n      dup8\n        /* \"#utility.yul\":4236:4258   */\n      add\n        /* \"#utility.yul\":4205:4268   */\n      tag_207\n      jump\t// in\n    tag_326:\n        /* \"#utility.yul\":4195:4268   */\n      swap4\n      pop\n        /* \"#utility.yul\":3991:4278   */\n      pop\n        /* \"#utility.yul\":4345:4347   */\n      0x20\n        /* \"#utility.yul\":4334:4343   */\n      dup5\n        /* \"#utility.yul\":4330:4348   */\n      add\n        /* \"#utility.yul\":4317:4349   */\n      calldataload\n        /* \"#utility.yul\":4376:4394   */\n      0xffffffffffffffff\n        /* \"#utility.yul\":4368:4374   */\n      dup2\n        /* \"#utility.yul\":4365:4395   */\n      gt\n        /* \"#utility.yul\":4362:4479   */\n      iszero\n      tag_327\n      jumpi\n        /* \"#utility.yul\":4398:4477   */\n      tag_328\n      tag_193\n      jump\t// in\n    tag_328:\n        /* \"#utility.yul\":4362:4479   */\n    tag_327:\n        /* \"#utility.yul\":4503:4566   */\n      tag_329\n        /* \"#utility.yul\":4558:4565   */\n      dup7\n        /* \"#utility.yul\":4549:4555   */\n      dup3\n        /* \"#utility.yul\":4538:4547   */\n      dup8\n        /* \"#utility.yul\":4534:4556   */\n      add\n        /* \"#utility.yul\":4503:4566   */\n      tag_207\n      jump\t// in\n    tag_329:\n        /* \"#utility.yul\":4493:4566   */\n      swap3\n      pop\n        /* \"#utility.yul\":4288:4576   */\n      pop\n        /* \"#utility.yul\":4643:4645   */\n      0x40\n        /* \"#utility.yul\":4632:4641   */\n      dup5\n        /* \"#utility.yul\":4628:4646   */\n      add\n        /* \"#utility.yul\":4615:4647   */\n      calldataload\n        /* \"#utility.yul\":4674:4692   */\n      0xffffffffffffffff\n        /* \"#utility.yul\":4666:4672   */\n      dup2\n        /* \"#utility.yul\":4663:4693   */\n      gt\n        /* \"#utility.yul\":4660:4777   */\n      iszero\n      tag_330\n      jumpi\n        /* \"#utility.yul\":4696:4775   */\n      tag_331\n      tag_193\n      jump\t// in\n    tag_331:\n        /* \"#utility.yul\":4660:4777   */\n    tag_330:\n        /* \"#utility.yul\":4801:4864   */\n      tag_332\n        /* \"#utility.yul\":4856:4863   */\n      dup7\n        /* \"#utility.yul\":4847:4853   */\n      dup3\n        /* \"#utility.yul\":4836:4845   */\n      dup8\n        /* \"#utility.yul\":4832:4854   */\n      add\n        /* \"#utility.yul\":4801:4864   */\n      tag_207\n      jump\t// in\n    tag_332:\n        /* \"#utility.yul\":4791:4864   */\n      swap2\n      pop\n        /* \"#utility.yul\":4586:4874   */\n      pop\n        /* \"#utility.yul\":3722:4881   */\n      swap3\n      pop\n      swap3\n      pop\n      swap3\n      jump\t// out\n        /* \"#utility.yul\":4887:5396   */\n    tag_24:\n        /* \"#utility.yul\":4956:4962   */\n      0x00\n        /* \"#utility.yul\":5005:5007   */\n      0x20\n        /* \"#utility.yul\":4993:5002   */\n      dup3\n        /* \"#utility.yul\":4984:4991   */\n      dup5\n        /* \"#utility.yul\":4980:5003   */\n      sub\n        /* \"#utility.yul\":4976:5008   */\n      slt\n        /* \"#utility.yul\":4973:5092   */\n      iszero\n      tag_334\n      jumpi\n        /* \"#utility.yul\":5011:5090   */\n      tag_335\n      tag_192\n      jump\t// in\n    tag_335:\n        /* \"#utility.yul\":4973:5092   */\n    tag_334:\n        /* \"#utility.yul\":5159:5160   */\n      0x00\n        /* \"#utility.yul\":5148:5157   */\n      dup3\n        /* \"#utility.yul\":5144:5161   */\n      add\n        /* \"#utility.yul\":5131:5162   */\n      calldataload\n        /* \"#utility.yul\":5189:5207   */\n      0xffffffffffffffff\n        /* \"#utility.yul\":5181:5187   */\n      dup2\n        /* \"#utility.yul\":5178:5208   */\n      gt\n        /* \"#utility.yul\":5175:5292   */\n      iszero\n      tag_336\n      jumpi\n        /* \"#utility.yul\":5211:5290   */\n      tag_337\n      tag_193\n      jump\t// in\n    tag_337:\n        /* \"#utility.yul\":5175:5292   */\n    tag_336:\n        /* \"#utility.yul\":5316:5379   */\n      tag_338\n        /* \"#utility.yul\":5371:5378   */\n      dup5\n        /* \"#utility.yul\":5362:5368   */\n      dup3\n        /* \"#utility.yul\":5351:5360   */\n      dup6\n        /* \"#utility.yul\":5347:5369   */\n      add\n        /* \"#utility.yul\":5316:5379   */\n      tag_207\n      jump\t// in\n    tag_338:\n        /* \"#utility.yul\":5306:5379   */\n      swap2\n      pop\n        /* \"#utility.yul\":5102:5389   */\n      pop\n        /* \"#utility.yul\":4887:5396   */\n      swap3\n      swap2\n      pop\n      pop\n      jump\t// out\n        /* \"#utility.yul\":5402:5479   */\n    tag_208:\n        /* \"#utility.yul\":5439:5446   */\n      0x00\n        /* \"#utility.yul\":5468:5473   */\n      dup2\n        /* \"#utility.yul\":5457:5473   */\n      swap1\n      pop\n        /* \"#utility.yul\":5402:5479   */\n      swap2\n      swap1\n      pop\n      jump\t// out\n        /* \"#utility.yul\":5485:5607   */\n    tag_209:\n        /* \"#utility.yul\":5558:5582   */\n      tag_341\n        /* \"#utility.yul\":5576:5581   */\n      dup2\n        /* \"#utility.yul\":5558:5582   */\n      tag_208\n      jump\t// in\n    tag_341:\n        /* \"#utility.yul\":5551:5556   */\n      dup2\n        /* \"#utility.yul\":5548:5583   */\n      eq\n        /* \"#utility.yul\":5538:5601   */\n      tag_342\n      jumpi\n        /* \"#utility.yul\":5597:5598   */\n      0x00\n        /* \"#utility.yul\":5594:5595   */\n      dup1\n        /* \"#utility.yul\":5587:5599   */\n      revert\n        /* \"#utility.yul\":5538:5601   */\n    tag_342:\n        /* \"#utility.yul\":5485:5607   */\n      pop\n      jump\t// out\n        /* \"#utility.yul\":5613:5752   */\n    tag_210:\n        /* \"#utility.yul\":5659:5664   */\n      0x00\n        /* \"#utility.yul\":5697:5703   */\n      dup2\n        /* \"#utility.yul\":5684:5704   */\n      calldataload\n        /* \"#utility.yul\":5675:5704   */\n      swap1\n      pop\n        /* \"#utility.yul\":5713:5746   */\n      tag_344\n        /* \"#utility.yul\":5740:5745   */\n      dup2\n        /* \"#utility.yul\":5713:5746   */\n      tag_209\n      jump\t// in\n    tag_344:\n        /* \"#utility.yul\":5613:5752   */\n      swap3\n      swap2\n      pop\n      pop\n      jump\t// out\n        /* \"#utility.yul\":5758:6087   */\n    tag_31:\n        /* \"#utility.yul\":5817:5823   */\n      0x00\n        /* \"#utility.yul\":5866:5868   */\n      0x20\n        /* \"#utility.yul\":5854:5863   */\n      dup3\n        /* \"#utility.yul\":5845:5852   */\n      dup5\n        /* \"#utility.yul\":5841:5864   */\n      sub\n        /* \"#utility.yul\":5837:5869   */\n      slt\n        /* \"#utility.yul\":5834:5953   */\n      iszero\n      tag_346\n      jumpi\n        /* \"#utility.yul\":5872:5951   */\n      tag_347\n      tag_192\n      jump\t// in\n    tag_347:\n        /* \"#utility.yul\":5834:5953   */\n    tag_346:\n        /* \"#utility.yul\":5992:5993   */\n      0x00\n        /* \"#utility.yul\":6017:6070   */\n      tag_348\n        /* \"#utility.yul\":6062:6069   */\n      dup5\n        /* \"#utility.yul\":6053:6059   */\n      dup3\n        /* \"#utility.yul\":6042:6051   */\n      dup6\n        /* \"#utility.yul\":6038:6060   */\n      add\n        /* \"#utility.yul\":6017:6070   */\n      tag_210\n      jump\t// in\n    tag_348:\n        /* \"#utility.yul\":6007:6070   */\n      swap2\n      pop\n        /* \"#utility.yul\":5963:6080   */\n      pop\n        /* \"#utility.yul\":5758:6087   */\n      swap3\n      swap2\n      pop\n      pop\n      jump\t// out\n        /* \"#utility.yul\":6093:6183   */\n    tag_211:\n        /* \"#utility.yul\":6127:6134   */\n      0x00\n        /* \"#utility.yul\":6170:6175   */\n      dup2\n        /* \"#utility.yul\":6163:6176   */\n      iszero\n        /* \"#utility.yul\":6156:6177   */\n      iszero\n        /* \"#utility.yul\":6145:6177   */\n      swap1\n      pop\n        /* \"#utility.yul\":6093:6183   */\n      swap2\n      swap1\n      pop\n      jump\t// out\n        /* \"#utility.yul\":6189:6298   */\n    tag_212:\n        /* \"#utility.yul\":6270:6291   */\n      tag_351\n        /* \"#utility.yul\":6285:6290   */\n      dup2\n        /* \"#utility.yul\":6270:6291   */\n      tag_211\n      jump\t// in\n    tag_351:\n        /* \"#utility.yul\":6265:6268   */\n      dup3\n        /* \"#utility.yul\":6258:6292   */\n      mstore\n        /* \"#utility.yul\":6189:6298   */\n      pop\n      pop\n      jump\t// out\n        /* \"#utility.yul\":6304:6514   */\n    tag_34:\n        /* \"#utility.yul\":6391:6395   */\n      0x00\n        /* \"#utility.yul\":6429:6431   */\n      0x20\n        /* \"#utility.yul\":6418:6427   */\n      dup3\n        /* \"#utility.yul\":6414:6432   */\n      add\n        /* \"#utility.yul\":6406:6432   */\n      swap1\n      pop\n        /* \"#utility.yul\":6442:6507   */\n      tag_353\n        /* \"#utility.yul\":6504:6505   */\n      0x00\n        /* \"#utility.yul\":6493:6502   */\n      dup4\n        /* \"#utility.yul\":6489:6506   */\n      add\n        /* \"#utility.yul\":6480:6486   */\n      dup5\n        /* \"#utility.yul\":6442:6507   */\n      tag_212\n      jump\t// in\n    tag_353:\n        /* \"#utility.yul\":6304:6514   */\n      swap3\n      swap2\n      pop\n      pop\n      jump\t// out\n        /* \"#utility.yul\":6520:6619   */\n    tag_213:\n        /* \"#utility.yul\":6572:6578   */\n      0x00\n        /* \"#utility.yul\":6606:6611   */\n      dup2\n        /* \"#utility.yul\":6600:6612   */\n      mload\n        /* \"#utility.yul\":6590:6612   */\n      swap1\n      pop\n        /* \"#utility.yul\":6520:6619   */\n      swap2\n      swap1\n      pop\n      jump\t// out\n        /* \"#utility.yul\":6625:6784   */\n    tag_214:\n        /* \"#utility.yul\":6699:6710   */\n      0x00\n        /* \"#utility.yul\":6733:6739   */\n      dup3\n        /* \"#utility.yul\":6728:6731   */\n      dup3\n        /* \"#utility.yul\":6721:6740   */\n      mstore\n        /* \"#utility.yul\":6773:6777   */\n      0x20\n        /* \"#utility.yul\":6768:6771   */\n      dup3\n        /* \"#utility.yul\":6764:6778   */\n      add\n        /* \"#utility.yul\":6749:6778   */\n      swap1\n      pop\n        /* \"#utility.yul\":6625:6784   */\n      swap3\n      swap2\n      pop\n      pop\n      jump\t// out\n        /* \"#utility.yul\":6790:6929   */\n    tag_215:\n        /* \"#utility.yul\":6879:6885   */\n      dup3\n        /* \"#utility.yul\":6874:6877   */\n      dup2\n        /* \"#utility.yul\":6869:6872   */\n      dup4\n        /* \"#utility.yul\":6863:6886   */\n      mcopy\n        /* \"#utility.yul\":6920:6921   */\n      0x00\n        /* \"#utility.yul\":6911:6917   */\n      dup4\n        /* \"#utility.yul\":6906:6909   */\n      dup4\n        /* \"#utility.yul\":6902:6918   */\n      add\n        /* \"#utility.yul\":6895:6922   */\n      mstore\n        /* \"#utility.yul\":6790:6929   */\n      pop\n      pop\n      pop\n      jump\t// out\n        /* \"#utility.yul\":6935:7292   */\n    tag_216:\n        /* \"#utility.yul\":7013:7016   */\n      0x00\n        /* \"#utility.yul\":7041:7080   */\n      tag_358\n        /* \"#utility.yul\":7074:7079   */\n      dup3\n        /* \"#utility.yul\":7041:7080   */\n      tag_213\n      jump\t// in\n    tag_358:\n        /* \"#utility.yul\":7096:7157   */\n      tag_359\n        /* \"#utility.yul\":7150:7156   */\n      dup2\n        /* \"#utility.yul\":7145:7148   */\n      dup6\n        /* \"#utility.yul\":7096:7157   */\n      tag_214\n      jump\t// in\n    tag_359:\n        /* \"#utility.yul\":7089:7157   */\n      swap4\n      pop\n        /* \"#utility.yul\":7166:7231   */\n      tag_360\n        /* \"#utility.yul\":7224:7230   */\n      dup2\n        /* \"#utility.yul\":7219:7222   */\n      dup6\n        /* \"#utility.yul\":7212:7216   */\n      0x20\n        /* \"#utility.yul\":7205:7210   */\n      dup7\n        /* \"#utility.yul\":7201:7217   */\n      add\n        /* \"#utility.yul\":7166:7231   */\n      tag_215\n      jump\t// in\n    tag_360:\n        /* \"#utility.yul\":7256:7285   */\n      tag_361\n        /* \"#utility.yul\":7278:7284   */\n      dup2\n        /* \"#utility.yul\":7256:7285   */\n      tag_200\n      jump\t// in\n    tag_361:\n        /* \"#utility.yul\":7251:7254   */\n      dup5\n        /* \"#utility.yul\":7247:7286   */\n      add\n        /* \"#utility.yul\":7240:7286   */\n      swap2\n      pop\n        /* \"#utility.yul\":7017:7292   */\n      pop\n        /* \"#utility.yul\":6935:7292   */\n      swap3\n      swap2\n      pop\n      pop\n      jump\t// out\n        /* \"#utility.yul\":7364:8295   */\n    tag_217:\n        /* \"#utility.yul\":7481:7484   */\n      0x00\n        /* \"#utility.yul\":7517:7521   */\n      0x60\n        /* \"#utility.yul\":7512:7515   */\n      dup4\n        /* \"#utility.yul\":7508:7522   */\n      add\n        /* \"#utility.yul\":7604:7608   */\n      0x00\n        /* \"#utility.yul\":7597:7602   */\n      dup4\n        /* \"#utility.yul\":7593:7609   */\n      add\n        /* \"#utility.yul\":7587:7610   */\n      mload\n        /* \"#utility.yul\":7657:7660   */\n      dup5\n        /* \"#utility.yul\":7651:7655   */\n      dup3\n        /* \"#utility.yul\":7647:7661   */\n      sub\n        /* \"#utility.yul\":7640:7644   */\n      0x00\n        /* \"#utility.yul\":7635:7638   */\n      dup7\n        /* \"#utility.yul\":7631:7645   */\n      add\n        /* \"#utility.yul\":7624:7662   */\n      mstore\n        /* \"#utility.yul\":7683:7756   */\n      tag_363\n        /* \"#utility.yul\":7751:7755   */\n      dup3\n        /* \"#utility.yul\":7737:7749   */\n      dup3\n        /* \"#utility.yul\":7683:7756   */\n      tag_216\n      jump\t// in\n    tag_363:\n        /* \"#utility.yul\":7675:7756   */\n      swap2\n      pop\n        /* \"#utility.yul\":7532:7767   */\n      pop\n        /* \"#utility.yul\":7850:7854   */\n      0x20\n        /* \"#utility.yul\":7843:7848   */\n      dup4\n        /* \"#utility.yul\":7839:7855   */\n      add\n        /* \"#utility.yul\":7833:7856   */\n      mload\n        /* \"#utility.yul\":7903:7906   */\n      dup5\n        /* \"#utility.yul\":7897:7901   */\n      dup3\n        /* \"#utility.yul\":7893:7907   */\n      sub\n        /* \"#utility.yul\":7886:7890   */\n      0x20\n        /* \"#utility.yul\":7881:7884   */\n      dup7\n        /* \"#utility.yul\":7877:7891   */\n      add\n        /* \"#utility.yul\":7870:7908   */\n      mstore\n        /* \"#utility.yul\":7929:8002   */\n      tag_364\n        /* \"#utility.yul\":7997:8001   */\n      dup3\n        /* \"#utility.yul\":7983:7995   */\n      dup3\n        /* \"#utility.yul\":7929:8002   */\n      tag_216\n      jump\t// in\n    tag_364:\n        /* \"#utility.yul\":7921:8002   */\n      swap2\n      pop\n        /* \"#utility.yul\":7777:8013   */\n      pop\n        /* \"#utility.yul\":8105:8109   */\n      0x40\n        /* \"#utility.yul\":8098:8103   */\n      dup4\n        /* \"#utility.yul\":8094:8110   */\n      add\n        /* \"#utility.yul\":8088:8111   */\n      mload\n        /* \"#utility.yul\":8158:8161   */\n      dup5\n        /* \"#utility.yul\":8152:8156   */\n      dup3\n        /* \"#utility.yul\":8148:8162   */\n      sub\n        /* \"#utility.yul\":8141:8145   */\n      0x40\n        /* \"#utility.yul\":8136:8139   */\n      dup7\n        /* \"#utility.yul\":8132:8146   */\n      add\n        /* \"#utility.yul\":8125:8163   */\n      mstore\n        /* \"#utility.yul\":8184:8257   */\n      tag_365\n        /* \"#utility.yul\":8252:8256   */\n      dup3\n        /* \"#utility.yul\":8238:8250   */\n      dup3\n        /* \"#utility.yul\":8184:8257   */\n      tag_216\n      jump\t// in\n    tag_365:\n        /* \"#utility.yul\":8176:8257   */\n      swap2\n      pop\n        /* \"#utility.yul\":8023:8268   */\n      pop\n        /* \"#utility.yul\":8285:8289   */\n      dup1\n        /* \"#utility.yul\":8278:8289   */\n      swap2\n      pop\n        /* \"#utility.yul\":7486:8295   */\n      pop\n        /* \"#utility.yul\":7364:8295   */\n      swap3\n      swap2\n      pop\n      pop\n      jump\t// out\n        /* \"#utility.yul\":8301:8670   */\n    tag_38:\n        /* \"#utility.yul\":8442:8446   */\n      0x00\n        /* \"#utility.yul\":8480:8482   */\n      0x20\n        /* \"#utility.yul\":8469:8478   */\n      dup3\n        /* \"#utility.yul\":8465:8483   */\n      add\n        /* \"#utility.yul\":8457:8483   */\n      swap1\n      pop\n        /* \"#utility.yul\":8529:8538   */\n      dup2\n        /* \"#utility.yul\":8523:8527   */\n      dup2\n        /* \"#utility.yul\":8519:8539   */\n      sub\n        /* \"#utility.yul\":8515:8516   */\n      0x00\n        /* \"#utility.yul\":8504:8513   */\n      dup4\n        /* \"#utility.yul\":8500:8517   */\n      add\n        /* \"#utility.yul\":8493:8540   */\n      mstore\n        /* \"#utility.yul\":8557:8663   */\n      tag_367\n        /* \"#utility.yul\":8658:8662   */\n      dup2\n        /* \"#utility.yul\":8649:8655   */\n      dup5\n        /* \"#utility.yul\":8557:8663   */\n      tag_217\n      jump\t// in\n    tag_367:\n        /* \"#utility.yul\":8549:8663   */\n      swap1\n      pop\n        /* \"#utility.yul\":8301:8670   */\n      swap3\n      swap2\n      pop\n      pop\n      jump\t// out\n        /* \"#utility.yul\":8676:8845   */\n    tag_218:\n        /* \"#utility.yul\":8760:8771   */\n      0x00\n        /* \"#utility.yul\":8794:8800   */\n      dup3\n        /* \"#utility.yul\":8789:8792   */\n      dup3\n        /* \"#utility.yul\":8782:8801   */\n      mstore\n        /* \"#utility.yul\":8834:8838   */\n      0x20\n        /* \"#utility.yul\":8829:8832   */\n      dup3\n        /* \"#utility.yul\":8825:8839   */\n      add\n        /* \"#utility.yul\":8810:8839   */\n      swap1\n      pop\n        /* \"#utility.yul\":8676:8845   */\n      swap3\n      swap2\n      pop\n      pop\n      jump\t// out\n        /* \"#utility.yul\":8851:9228   */\n    tag_219:\n        /* \"#utility.yul\":8939:8942   */\n      0x00\n        /* \"#utility.yul\":8967:9006   */\n      tag_370\n        /* \"#utility.yul\":9000:9005   */\n      dup3\n        /* \"#utility.yul\":8967:9006   */\n      tag_213\n      jump\t// in\n    tag_370:\n        /* \"#utility.yul\":9022:9093   */\n      tag_371\n        /* \"#utility.yul\":9086:9092   */\n      dup2\n        /* \"#utility.yul\":9081:9084   */\n      dup6\n        /* \"#utility.yul\":9022:9093   */\n      tag_218\n      jump\t// in\n    tag_371:\n        /* \"#utility.yul\":9015:9093   */\n      swap4\n      pop\n        /* \"#utility.yul\":9102:9167   */\n      tag_372\n        /* \"#utility.yul\":9160:9166   */\n      dup2\n        /* \"#utility.yul\":9155:9158   */\n      dup6\n        /* \"#utility.yul\":9148:9152   */\n      0x20\n        /* \"#utility.yul\":9141:9146   */\n      dup7\n        /* \"#utility.yul\":9137:9153   */\n      add\n        /* \"#utility.yul\":9102:9167   */\n      tag_215\n      jump\t// in\n    tag_372:\n        /* \"#utility.yul\":9192:9221   */\n      tag_373\n        /* \"#utility.yul\":9214:9220   */\n      dup2\n        /* \"#utility.yul\":9192:9221   */\n      tag_200\n      jump\t// in\n    tag_373:\n        /* \"#utility.yul\":9187:9190   */\n      dup5\n        /* \"#utility.yul\":9183:9222   */\n      add\n        /* \"#utility.yul\":9176:9222   */\n      swap2\n      pop\n        /* \"#utility.yul\":8943:9228   */\n      pop\n        /* \"#utility.yul\":8851:9228   */\n      swap3\n      swap2\n      pop\n      pop\n      jump\t// out\n        /* \"#utility.yul\":9234:9547   */\n    tag_45:\n        /* \"#utility.yul\":9347:9351   */\n      0x00\n        /* \"#utility.yul\":9385:9387   */\n      0x20\n        /* \"#utility.yul\":9374:9383   */\n      dup3\n        /* \"#utility.yul\":9370:9388   */\n      add\n        /* \"#utility.yul\":9362:9388   */\n      swap1\n      pop\n        /* \"#utility.yul\":9434:9443   */\n      dup2\n        /* \"#utility.yul\":9428:9432   */\n      dup2\n        /* \"#utility.yul\":9424:9444   */\n      sub\n        /* \"#utility.yul\":9420:9421   */\n      0x00\n        /* \"#utility.yul\":9409:9418   */\n      dup4\n        /* \"#utility.yul\":9405:9422   */\n      add\n        /* \"#utility.yul\":9398:9445   */\n      mstore\n        /* \"#utility.yul\":9462:9540   */\n      tag_375\n        /* \"#utility.yul\":9535:9539   */\n      dup2\n        /* \"#utility.yul\":9526:9532   */\n      dup5\n        /* \"#utility.yul\":9462:9540   */\n      tag_219\n      jump\t// in\n    tag_375:\n        /* \"#utility.yul\":9454:9540   */\n      swap1\n      pop\n        /* \"#utility.yul\":9234:9547   */\n      swap3\n      swap2\n      pop\n      pop\n      jump\t// out\n        /* \"#utility.yul\":9553:10387   */\n    tag_48:\n        /* \"#utility.yul\":9641:9647   */\n      0x00\n        /* \"#utility.yul\":9649:9655   */\n      dup1\n        /* \"#utility.yul\":9698:9700   */\n      0x40\n        /* \"#utility.yul\":9686:9695   */\n      dup4\n        /* \"#utility.yul\":9677:9684   */\n      dup6\n        /* \"#utility.yul\":9673:9696   */\n      sub\n        /* \"#utility.yul\":9669:9701   */\n      slt\n        /* \"#utility.yul\":9666:9785   */\n      iszero\n      tag_377\n      jumpi\n        /* \"#utility.yul\":9704:9783   */\n      tag_378\n      tag_192\n      jump\t// in\n    tag_378:\n        /* \"#utility.yul\":9666:9785   */\n    tag_377:\n        /* \"#utility.yul\":9852:9853   */\n      0x00\n        /* \"#utility.yul\":9841:9850   */\n      dup4\n        /* \"#utility.yul\":9837:9854   */\n      add\n        /* \"#utility.yul\":9824:9855   */\n      calldataload\n        /* \"#utility.yul\":9882:9900   */\n      0xffffffffffffffff\n        /* \"#utility.yul\":9874:9880   */\n      dup2\n        /* \"#utility.yul\":9871:9901   */\n      gt\n        /* \"#utility.yul\":9868:9985   */\n      iszero\n      tag_379\n      jumpi\n        /* \"#utility.yul\":9904:9983   */\n      tag_380\n      tag_193\n      jump\t// in\n    tag_380:\n        /* \"#utility.yul\":9868:9985   */\n    tag_379:\n        /* \"#utility.yul\":10009:10072   */\n      tag_381\n        /* \"#utility.yul\":10064:10071   */\n      dup6\n        /* \"#utility.yul\":10055:10061   */\n      dup3\n        /* \"#utility.yul\":10044:10053   */\n      dup7\n        /* \"#utility.yul\":10040:10062   */\n      add\n        /* \"#utility.yul\":10009:10072   */\n      tag_207\n      jump\t// in\n    tag_381:\n        /* \"#utility.yul\":9999:10072   */\n      swap3\n      pop\n        /* \"#utility.yul\":9795:10082   */\n      pop\n        /* \"#utility.yul\":10149:10151   */\n      0x20\n        /* \"#utility.yul\":10138:10147   */\n      dup4\n        /* \"#utility.yul\":10134:10152   */\n      add\n        /* \"#utility.yul\":10121:10153   */\n      calldataload\n        /* \"#utility.yul\":10180:10198   */\n      0xffffffffffffffff\n        /* \"#utility.yul\":10172:10178   */\n      dup2\n        /* \"#utility.yul\":10169:10199   */\n      gt\n        /* \"#utility.yul\":10166:10283   */\n      iszero\n      tag_382\n      jumpi\n        /* \"#utility.yul\":10202:10281   */\n      tag_383\n      tag_193\n      jump\t// in\n    tag_383:\n        /* \"#utility.yul\":10166:10283   */\n    tag_382:\n        /* \"#utility.yul\":10307:10370   */\n      tag_384\n        /* \"#utility.yul\":10362:10369   */\n      dup6\n        /* \"#utility.yul\":10353:10359   */\n      dup3\n        /* \"#utility.yul\":10342:10351   */\n      dup7\n        /* \"#utility.yul\":10338:10360   */\n      add\n        /* \"#utility.yul\":10307:10370   */\n      tag_207\n      jump\t// in\n    tag_384:\n        /* \"#utility.yul\":10297:10370   */\n      swap2\n      pop\n        /* \"#utility.yul\":10092:10380   */\n      pop\n        /* \"#utility.yul\":9553:10387   */\n      swap3\n      pop\n      swap3\n      swap1\n      pop\n      jump\t// out\n        /* \"#utility.yul\":10393:10511   */\n    tag_220:\n        /* \"#utility.yul\":10480:10504   */\n      tag_386\n        /* \"#utility.yul\":10498:10503   */\n      dup2\n        /* \"#utility.yul\":10480:10504   */\n      tag_208\n      jump\t// in\n    tag_386:\n        /* \"#utility.yul\":10475:10478   */\n      dup3\n        /* \"#utility.yul\":10468:10505   */\n      mstore\n        /* \"#utility.yul\":10393:10511   */\n      pop\n      pop\n      jump\t// out\n        /* \"#utility.yul\":10517:10739   */\n    tag_51:\n        /* \"#utility.yul\":10610:10614   */\n      0x00\n        /* \"#utility.yul\":10648:10650   */\n      0x20\n        /* \"#utility.yul\":10637:10646   */\n      dup3\n        /* \"#utility.yul\":10633:10651   */\n      add\n        /* \"#utility.yul\":10625:10651   */\n      swap1\n      pop\n        /* \"#utility.yul\":10661:10732   */\n      tag_388\n        /* \"#utility.yul\":10729:10730   */\n      0x00\n        /* \"#utility.yul\":10718:10727   */\n      dup4\n        /* \"#utility.yul\":10714:10731   */\n      add\n        /* \"#utility.yul\":10705:10711   */\n      dup5\n        /* \"#utility.yul\":10661:10732   */\n      tag_220\n      jump\t// in\n    tag_388:\n        /* \"#utility.yul\":10517:10739   */\n      swap3\n      swap2\n      pop\n      pop\n      jump\t// out\n        /* \"#utility.yul\":10745:10869   */\n    tag_221:\n        /* \"#utility.yul\":10822:10828   */\n      0x00\n        /* \"#utility.yul\":10856:10861   */\n      dup2\n        /* \"#utility.yul\":10850:10862   */\n      mload\n        /* \"#utility.yul\":10840:10862   */\n      swap1\n      pop\n        /* \"#utility.yul\":10745:10869   */\n      swap2\n      swap1\n      pop\n      jump\t// out\n        /* \"#utility.yul\":10875:11069   */\n    tag_222:\n        /* \"#utility.yul\":10984:10995   */\n      0x00\n        /* \"#utility.yul\":11018:11024   */\n      dup3\n        /* \"#utility.yul\":11013:11016   */\n      dup3\n        /* \"#utility.yul\":11006:11025   */\n      mstore\n        /* \"#utility.yul\":11058:11062   */\n      0x20\n        /* \"#utility.yul\":11053:11056   */\n      dup3\n        /* \"#utility.yul\":11049:11063   */\n      add\n        /* \"#utility.yul\":11034:11063   */\n      swap1\n      pop\n        /* \"#utility.yul\":10875:11069   */\n      swap3\n      swap2\n      pop\n      pop\n      jump\t// out\n        /* \"#utility.yul\":11075:11217   */\n    tag_223:\n        /* \"#utility.yul\":11152:11156   */\n      0x00\n        /* \"#utility.yul\":11175:11178   */\n      dup2\n        /* \"#utility.yul\":11167:11178   */\n      swap1\n      pop\n        /* \"#utility.yul\":11205:11209   */\n      0x20\n        /* \"#utility.yul\":11200:11203   */\n      dup3\n        /* \"#utility.yul\":11196:11210   */\n      add\n        /* \"#utility.yul\":11188:11210   */\n      swap1\n      pop\n        /* \"#utility.yul\":11075:11217   */\n      swap2\n      swap1\n      pop\n      jump\t// out\n        /* \"#utility.yul\":11223:11419   */\n    tag_224:\n        /* \"#utility.yul\":11312:11322   */\n      0x00\n        /* \"#utility.yul\":11347:11413   */\n      tag_393\n        /* \"#utility.yul\":11409:11412   */\n      dup4\n        /* \"#utility.yul\":11401:11407   */\n      dup4\n        /* \"#utility.yul\":11347:11413   */\n      tag_216\n      jump\t// in\n    tag_393:\n        /* \"#utility.yul\":11333:11413   */\n      swap1\n      pop\n        /* \"#utility.yul\":11223:11419   */\n      swap3\n      swap2\n      pop\n      pop\n      jump\t// out\n        /* \"#utility.yul\":11425:11548   */\n    tag_225:\n        /* \"#utility.yul\":11505:11509   */\n      0x00\n        /* \"#utility.yul\":11537:11541   */\n      0x20\n        /* \"#utility.yul\":11532:11535   */\n      dup3\n        /* \"#utility.yul\":11528:11542   */\n      add\n        /* \"#utility.yul\":11520:11542   */\n      swap1\n      pop\n        /* \"#utility.yul\":11425:11548   */\n      swap2\n      swap1\n      pop\n      jump\t// out\n        /* \"#utility.yul\":11582:12573   */\n    tag_226:\n        /* \"#utility.yul\":11721:11724   */\n      0x00\n        /* \"#utility.yul\":11750:11814   */\n      tag_396\n        /* \"#utility.yul\":11808:11813   */\n      dup3\n        /* \"#utility.yul\":11750:11814   */\n      tag_221\n      jump\t// in\n    tag_396:\n        /* \"#utility.yul\":11830:11926   */\n      tag_397\n        /* \"#utility.yul\":11919:11925   */\n      dup2\n        /* \"#utility.yul\":11914:11917   */\n      dup6\n        /* \"#utility.yul\":11830:11926   */\n      tag_222\n      jump\t// in\n    tag_397:\n        /* \"#utility.yul\":11823:11926   */\n      swap4\n      pop\n        /* \"#utility.yul\":11952:11955   */\n      dup4\n        /* \"#utility.yul\":11997:12001   */\n      0x20\n        /* \"#utility.yul\":11989:11995   */\n      dup3\n        /* \"#utility.yul\":11985:12002   */\n      mul\n        /* \"#utility.yul\":11980:11983   */\n      dup6\n        /* \"#utility.yul\":11976:12003   */\n      add\n        /* \"#utility.yul\":12027:12093   */\n      tag_398\n        /* \"#utility.yul\":12087:12092   */\n      dup6\n        /* \"#utility.yul\":12027:12093   */\n      tag_223\n      jump\t// in\n    tag_398:\n        /* \"#utility.yul\":12116:12123   */\n      dup1\n        /* \"#utility.yul\":12147:12148   */\n      0x00\n        /* \"#utility.yul\":12132:12528   */\n    tag_399:\n        /* \"#utility.yul\":12157:12163   */\n      dup6\n        /* \"#utility.yul\":12154:12155   */\n      dup2\n        /* \"#utility.yul\":12151:12164   */\n      lt\n        /* \"#utility.yul\":12132:12528   */\n      iszero\n      tag_401\n      jumpi\n        /* \"#utility.yul\":12228:12237   */\n      dup5\n        /* \"#utility.yul\":12222:12226   */\n      dup5\n        /* \"#utility.yul\":12218:12238   */\n      sub\n        /* \"#utility.yul\":12213:12216   */\n      dup10\n        /* \"#utility.yul\":12206:12239   */\n      mstore\n        /* \"#utility.yul\":12279:12285   */\n      dup2\n        /* \"#utility.yul\":12273:12286   */\n      mload\n        /* \"#utility.yul\":12307:12391   */\n      tag_402\n        /* \"#utility.yul\":12386:12390   */\n      dup6\n        /* \"#utility.yul\":12371:12384   */\n      dup3\n        /* \"#utility.yul\":12307:12391   */\n      tag_224\n      jump\t// in\n    tag_402:\n        /* \"#utility.yul\":12299:12391   */\n      swap5\n      pop\n        /* \"#utility.yul\":12414:12484   */\n      tag_403\n        /* \"#utility.yul\":12477:12483   */\n      dup4\n        /* \"#utility.yul\":12414:12484   */\n      tag_225\n      jump\t// in\n    tag_403:\n        /* \"#utility.yul\":12404:12484   */\n      swap3\n      pop\n        /* \"#utility.yul\":12513:12517   */\n      0x20\n        /* \"#utility.yul\":12508:12511   */\n      dup11\n        /* \"#utility.yul\":12504:12518   */\n      add\n        /* \"#utility.yul\":12497:12518   */\n      swap10\n      pop\n        /* \"#utility.yul\":12192:12528   */\n      pop\n        /* \"#utility.yul\":12179:12180   */\n      0x01\n        /* \"#utility.yul\":12176:12177   */\n      dup2\n        /* \"#utility.yul\":12172:12181   */\n      add\n        /* \"#utility.yul\":12167:12181   */\n      swap1\n      pop\n        /* \"#utility.yul\":12132:12528   */\n      jump(tag_399)\n    tag_401:\n        /* \"#utility.yul\":12136:12150   */\n      pop\n        /* \"#utility.yul\":12544:12548   */\n      dup3\n        /* \"#utility.yul\":12537:12548   */\n      swap8\n      pop\n        /* \"#utility.yul\":12564:12567   */\n      dup8\n        /* \"#utility.yul\":12557:12567   */\n      swap6\n      pop\n        /* \"#utility.yul\":11726:12573   */\n      pop\n      pop\n      pop\n      pop\n      pop\n        /* \"#utility.yul\":11582:12573   */\n      swap3\n      swap2\n      pop\n      pop\n      jump\t// out\n        /* \"#utility.yul\":12579:12992   */\n    tag_55:\n        /* \"#utility.yul\":12742:12746   */\n      0x00\n        /* \"#utility.yul\":12780:12782   */\n      0x20\n        /* \"#utility.yul\":12769:12778   */\n      dup3\n        /* \"#utility.yul\":12765:12783   */\n      add\n        /* \"#utility.yul\":12757:12783   */\n      swap1\n      pop\n        /* \"#utility.yul\":12829:12838   */\n      dup2\n        /* \"#utility.yul\":12823:12827   */\n      dup2\n        /* \"#utility.yul\":12819:12839   */\n      sub\n        /* \"#utility.yul\":12815:12816   */\n      0x00\n        /* \"#utility.yul\":12804:12813   */\n      dup4\n        /* \"#utility.yul\":12800:12817   */\n      add\n        /* \"#utility.yul\":12793:12840   */\n      mstore\n        /* \"#utility.yul\":12857:12985   */\n      tag_405\n        /* \"#utility.yul\":12980:12984   */\n      dup2\n        /* \"#utility.yul\":12971:12977   */\n      dup5\n        /* \"#utility.yul\":12857:12985   */\n      tag_226\n      jump\t// in\n    tag_405:\n        /* \"#utility.yul\":12849:12985   */\n      swap1\n      pop\n        /* \"#utility.yul\":12579:12992   */\n      swap3\n      swap2\n      pop\n      pop\n      jump\t// out\n        /* \"#utility.yul\":12998:13178   */\n    tag_227:\n        /* \"#utility.yul\":13046:13123   */\n      0x4e487b7100000000000000000000000000000000000000000000000000000000\n        /* \"#utility.yul\":13043:13044   */\n      0x00\n        /* \"#utility.yul\":13036:13124   */\n      mstore\n        /* \"#utility.yul\":13143:13147   */\n      0x22\n        /* \"#utility.yul\":13140:13141   */\n      0x04\n        /* \"#utility.yul\":13133:13148   */\n      mstore\n        /* \"#utility.yul\":13167:13171   */\n      0x24\n        /* \"#utility.yul\":13164:13165   */\n      0x00\n        /* \"#utility.yul\":13157:13172   */\n      revert\n        /* \"#utility.yul\":13184:13504   */\n    tag_114:\n        /* \"#utility.yul\":13228:13234   */\n      0x00\n        /* \"#utility.yul\":13265:13266   */\n      0x02\n        /* \"#utility.yul\":13259:13263   */\n      dup3\n        /* \"#utility.yul\":13255:13267   */\n      div\n        /* \"#utility.yul\":13245:13267   */\n      swap1\n      pop\n        /* \"#utility.yul\":13312:13313   */\n      0x01\n        /* \"#utility.yul\":13306:13310   */\n      dup3\n        /* \"#utility.yul\":13302:13314   */\n      and\n        /* \"#utility.yul\":13333:13351   */\n      dup1\n        /* \"#utility.yul\":13323:13404   */\n      tag_408\n      jumpi\n        /* \"#utility.yul\":13389:13393   */\n      0x7f\n        /* \"#utility.yul\":13381:13387   */\n      dup3\n        /* \"#utility.yul\":13377:13394   */\n      and\n        /* \"#utility.yul\":13367:13394   */\n      swap2\n      pop\n        /* \"#utility.yul\":13323:13404   */\n    tag_408:\n        /* \"#utility.yul\":13451:13453   */\n      0x20\n        /* \"#utility.yul\":13443:13449   */\n      dup3\n        /* \"#utility.yul\":13440:13454   */\n      lt\n        /* \"#utility.yul\":13420:13438   */\n      dup2\n        /* \"#utility.yul\":13417:13455   */\n      sub\n        /* \"#utility.yul\":13414:13498   */\n      tag_409\n      jumpi\n        /* \"#utility.yul\":13470:13488   */\n      tag_410\n      tag_227\n      jump\t// in\n    tag_410:\n        /* \"#utility.yul\":13414:13498   */\n    tag_409:\n        /* \"#utility.yul\":13235:13504   */\n      pop\n        /* \"#utility.yul\":13184:13504   */\n      swap2\n      swap1\n      pop\n      jump\t// out\n        /* \"#utility.yul\":13510:13657   */\n    tag_228:\n        /* \"#utility.yul\":13611:13622   */\n      0x00\n        /* \"#utility.yul\":13648:13651   */\n      dup2\n        /* \"#utility.yul\":13633:13651   */\n      swap1\n      pop\n        /* \"#utility.yul\":13510:13657   */\n      swap3\n      swap2\n      pop\n      pop\n      jump\t// out\n        /* \"#utility.yul\":13663:13807   */\n    tag_229:\n        /* \"#utility.yul\":13715:13719   */\n      0x00\n        /* \"#utility.yul\":13738:13741   */\n      dup2\n        /* \"#utility.yul\":13730:13741   */\n      swap1\n      pop\n        /* \"#utility.yul\":13761:13764   */\n      dup2\n        /* \"#utility.yul\":13758:13759   */\n      0x00\n        /* \"#utility.yul\":13751:13765   */\n      mstore\n        /* \"#utility.yul\":13795:13799   */\n      0x20\n        /* \"#utility.yul\":13792:13793   */\n      0x00\n        /* \"#utility.yul\":13782:13800   */\n      keccak256\n        /* \"#utility.yul\":13774:13800   */\n      swap1\n      pop\n        /* \"#utility.yul\":13663:13807   */\n      swap2\n      swap1\n      pop\n      jump\t// out\n        /* \"#utility.yul\":13835:14713   */\n    tag_230:\n        /* \"#utility.yul\":13940:13943   */\n      0x00\n        /* \"#utility.yul\":13977:13982   */\n      dup2\n        /* \"#utility.yul\":13971:13983   */\n      sload\n        /* \"#utility.yul\":14006:14042   */\n      tag_414\n        /* \"#utility.yul\":14032:14041   */\n      dup2\n        /* \"#utility.yul\":14006:14042   */\n      tag_114\n      jump\t// in\n    tag_414:\n        /* \"#utility.yul\":14058:14146   */\n      tag_415\n        /* \"#utility.yul\":14139:14145   */\n      dup2\n        /* \"#utility.yul\":14134:14137   */\n      dup7\n        /* \"#utility.yul\":14058:14146   */\n      tag_228\n      jump\t// in\n    tag_415:\n        /* \"#utility.yul\":14051:14146   */\n      swap5\n      pop\n        /* \"#utility.yul\":14177:14178   */\n      0x01\n        /* \"#utility.yul\":14166:14175   */\n      dup3\n        /* \"#utility.yul\":14162:14179   */\n      and\n        /* \"#utility.yul\":14193:14194   */\n      0x00\n        /* \"#utility.yul\":14188:14354   */\n      dup2\n      eq\n      tag_417\n      jumpi\n        /* \"#utility.yul\":14368:14369   */\n      0x01\n        /* \"#utility.yul\":14363:14707   */\n      dup2\n      eq\n      tag_418\n      jumpi\n        /* \"#utility.yul\":14155:14707   */\n      jump(tag_416)\n        /* \"#utility.yul\":14188:14354   */\n    tag_417:\n        /* \"#utility.yul\":14272:14276   */\n      0xff\n        /* \"#utility.yul\":14268:14277   */\n      not\n        /* \"#utility.yul\":14257:14266   */\n      dup4\n        /* \"#utility.yul\":14253:14278   */\n      and\n        /* \"#utility.yul\":14248:14251   */\n      dup7\n        /* \"#utility.yul\":14241:14279   */\n      mstore\n        /* \"#utility.yul\":14334:14340   */\n      dup2\n        /* \"#utility.yul\":14327:14341   */\n      iszero\n        /* \"#utility.yul\":14320:14342   */\n      iszero\n        /* \"#utility.yul\":14312:14318   */\n      dup3\n        /* \"#utility.yul\":14308:14343   */\n      mul\n        /* \"#utility.yul\":14303:14306   */\n      dup7\n        /* \"#utility.yul\":14299:14344   */\n      add\n        /* \"#utility.yul\":14292:14344   */\n      swap4\n      pop\n        /* \"#utility.yul\":14188:14354   */\n      jump(tag_416)\n        /* \"#utility.yul\":14363:14707   */\n    tag_418:\n        /* \"#utility.yul\":14430:14471   */\n      tag_419\n        /* \"#utility.yul\":14465:14470   */\n      dup6\n        /* \"#utility.yul\":14430:14471   */\n      tag_229\n      jump\t// in\n    tag_419:\n        /* \"#utility.yul\":14493:14494   */\n      0x00\n        /* \"#utility.yul\":14507:14661   */\n    tag_420:\n        /* \"#utility.yul\":14521:14527   */\n      dup4\n        /* \"#utility.yul\":14518:14519   */\n      dup2\n        /* \"#utility.yul\":14515:14528   */\n      lt\n        /* \"#utility.yul\":14507:14661   */\n      iszero\n      tag_422\n      jumpi\n        /* \"#utility.yul\":14595:14602   */\n      dup2\n        /* \"#utility.yul\":14589:14603   */\n      sload\n        /* \"#utility.yul\":14585:14586   */\n      dup2\n        /* \"#utility.yul\":14580:14583   */\n      dup10\n        /* \"#utility.yul\":14576:14587   */\n      add\n        /* \"#utility.yul\":14569:14604   */\n      mstore\n        /* \"#utility.yul\":14645:14646   */\n      0x01\n        /* \"#utility.yul\":14636:14643   */\n      dup3\n        /* \"#utility.yul\":14632:14647   */\n      add\n        /* \"#utility.yul\":14621:14647   */\n      swap2\n      pop\n        /* \"#utility.yul\":14543:14547   */\n      0x20\n        /* \"#utility.yul\":14540:14541   */\n      dup2\n        /* \"#utility.yul\":14536:14548   */\n      add\n        /* \"#utility.yul\":14531:14548   */\n      swap1\n      pop\n        /* \"#utility.yul\":14507:14661   */\n      jump(tag_420)\n    tag_422:\n        /* \"#utility.yul\":14690:14696   */\n      dup4\n        /* \"#utility.yul\":14685:14688   */\n      dup9\n        /* \"#utility.yul\":14681:14697   */\n      add\n        /* \"#utility.yul\":14674:14697   */\n      swap6\n      pop\n        /* \"#utility.yul\":14370:14707   */\n      pop\n      pop\n        /* \"#utility.yul\":14155:14707   */\n    tag_416:\n      pop\n        /* \"#utility.yul\":13944:14713   */\n      pop\n      pop\n        /* \"#utility.yul\":13835:14713   */\n      swap3\n      swap2\n      pop\n      pop\n      jump\t// out\n        /* \"#utility.yul\":14719:14992   */\n    tag_58:\n        /* \"#utility.yul\":14850:14853   */\n      0x00\n        /* \"#utility.yul\":14872:14966   */\n      tag_424\n        /* \"#utility.yul\":14962:14965   */\n      dup3\n        /* \"#utility.yul\":14953:14959   */\n      dup5\n        /* \"#utility.yul\":14872:14966   */\n      tag_230\n      jump\t// in\n    tag_424:\n        /* \"#utility.yul\":14865:14966   */\n      swap2\n      pop\n        /* \"#utility.yul\":14983:14986   */\n      dup2\n        /* \"#utility.yul\":14976:14986   */\n      swap1\n      pop\n        /* \"#utility.yul\":14719:14992   */\n      swap3\n      swap2\n      pop\n      pop\n      jump\t// out\n        /* \"#utility.yul\":14998:15167   */\n    tag_231:\n        /* \"#utility.yul\":15138:15159   */\n      0x556e617574686f72697a656420616374696f6e00000000000000000000000000\n        /* \"#utility.yul\":15134:15135   */\n      0x00\n        /* \"#utility.yul\":15126:15132   */\n      dup3\n        /* \"#utility.yul\":15122:15136   */\n      add\n        /* \"#utility.yul\":15115:15160   */\n      mstore\n        /* \"#utility.yul\":14998:15167   */\n      pop\n      jump\t// out\n        /* \"#utility.yul\":15173:15539   */\n    tag_232:\n        /* \"#utility.yul\":15315:15318   */\n      0x00\n        /* \"#utility.yul\":15336:15403   */\n      tag_427\n        /* \"#utility.yul\":15400:15402   */\n      0x13\n        /* \"#utility.yul\":15395:15398   */\n      dup4\n        /* \"#utility.yul\":15336:15403   */\n      tag_218\n      jump\t// in\n    tag_427:\n        /* \"#utility.yul\":15329:15403   */\n      swap2\n      pop\n        /* \"#utility.yul\":15412:15505   */\n      tag_428\n        /* \"#utility.yul\":15501:15504   */\n      dup3\n        /* \"#utility.yul\":15412:15505   */\n      tag_231\n      jump\t// in\n    tag_428:\n        /* \"#utility.yul\":15530:15532   */\n      0x20\n        /* \"#utility.yul\":15525:15528   */\n      dup3\n        /* \"#utility.yul\":15521:15533   */\n      add\n        /* \"#utility.yul\":15514:15533   */\n      swap1\n      pop\n        /* \"#utility.yul\":15173:15539   */\n      swap2\n      swap1\n      pop\n      jump\t// out\n        /* \"#utility.yul\":15545:15964   */\n    tag_61:\n        /* \"#utility.yul\":15711:15715   */\n      0x00\n        /* \"#utility.yul\":15749:15751   */\n      0x20\n        /* \"#utility.yul\":15738:15747   */\n      dup3\n        /* \"#utility.yul\":15734:15752   */\n      add\n        /* \"#utility.yul\":15726:15752   */\n      swap1\n      pop\n        /* \"#utility.yul\":15798:15807   */\n      dup2\n        /* \"#utility.yul\":15792:15796   */\n      dup2\n        /* \"#utility.yul\":15788:15808   */\n      sub\n        /* \"#utility.yul\":15784:15785   */\n      0x00\n        /* \"#utility.yul\":15773:15782   */\n      dup4\n        /* \"#utility.yul\":15769:15786   */\n      add\n        /* \"#utility.yul\":15762:15809   */\n      mstore\n        /* \"#utility.yul\":15826:15957   */\n      tag_430\n        /* \"#utility.yul\":15952:15956   */\n      dup2\n        /* \"#utility.yul\":15826:15957   */\n      tag_232\n      jump\t// in\n    tag_430:\n        /* \"#utility.yul\":15818:15957   */\n      swap1\n      pop\n        /* \"#utility.yul\":15545:15964   */\n      swap2\n      swap1\n      pop\n      jump\t// out\n        /* \"#utility.yul\":15970:16195   */\n    tag_233:\n        /* \"#utility.yul\":16110:16144   */\n      0x4e6f206578697374696e672044494420666f756e6420666f7220746869732061\n        /* \"#utility.yul\":16106:16107   */\n      0x00\n        /* \"#utility.yul\":16098:16104   */\n      dup3\n        /* \"#utility.yul\":16094:16108   */\n      add\n        /* \"#utility.yul\":16087:16145   */\n      mstore\n        /* \"#utility.yul\":16179:16187   */\n      0x6464726573730000000000000000000000000000000000000000000000000000\n        /* \"#utility.yul\":16174:16176   */\n      0x20\n        /* \"#utility.yul\":16166:16172   */\n      dup3\n        /* \"#utility.yul\":16162:16177   */\n      add\n        /* \"#utility.yul\":16155:16188   */\n      mstore\n        /* \"#utility.yul\":15970:16195   */\n      pop\n      jump\t// out\n        /* \"#utility.yul\":16201:16567   */\n    tag_234:\n        /* \"#utility.yul\":16343:16346   */\n      0x00\n        /* \"#utility.yul\":16364:16431   */\n      tag_433\n        /* \"#utility.yul\":16428:16430   */\n      0x26\n        /* \"#utility.yul\":16423:16426   */\n      dup4\n        /* \"#utility.yul\":16364:16431   */\n      tag_218\n      jump\t// in\n    tag_433:\n        /* \"#utility.yul\":16357:16431   */\n      swap2\n      pop\n        /* \"#utility.yul\":16440:16533   */\n      tag_434\n        /* \"#utility.yul\":16529:16532   */\n      dup3\n        /* \"#utility.yul\":16440:16533   */\n      tag_233\n      jump\t// in\n    tag_434:\n        /* \"#utility.yul\":16558:16560   */\n      0x40\n        /* \"#utility.yul\":16553:16556   */\n      dup3\n        /* \"#utility.yul\":16549:16561   */\n      add\n        /* \"#utility.yul\":16542:16561   */\n      swap1\n      pop\n        /* \"#utility.yul\":16201:16567   */\n      swap2\n      swap1\n      pop\n      jump\t// out\n        /* \"#utility.yul\":16573:16992   */\n    tag_65:\n        /* \"#utility.yul\":16739:16743   */\n      0x00\n        /* \"#utility.yul\":16777:16779   */\n      0x20\n        /* \"#utility.yul\":16766:16775   */\n      dup3\n        /* \"#utility.yul\":16762:16780   */\n      add\n        /* \"#utility.yul\":16754:16780   */\n      swap1\n      pop\n        /* \"#utility.yul\":16826:16835   */\n      dup2\n        /* \"#utility.yul\":16820:16824   */\n      dup2\n        /* \"#utility.yul\":16816:16836   */\n      sub\n        /* \"#utility.yul\":16812:16813   */\n      0x00\n        /* \"#utility.yul\":16801:16810   */\n      dup4\n        /* \"#utility.yul\":16797:16814   */\n      add\n        /* \"#utility.yul\":16790:16837   */\n      mstore\n        /* \"#utility.yul\":16854:16985   */\n      tag_436\n        /* \"#utility.yul\":16980:16984   */\n      dup2\n        /* \"#utility.yul\":16854:16985   */\n      tag_234\n      jump\t// in\n    tag_436:\n        /* \"#utility.yul\":16846:16985   */\n      swap1\n      pop\n        /* \"#utility.yul\":16573:16992   */\n      swap2\n      swap1\n      pop\n      jump\t// out\n        /* \"#utility.yul\":16998:17168   */\n    tag_235:\n        /* \"#utility.yul\":17138:17160   */\n      0x526f6c652063616e6e6f7420626520656d707479000000000000000000000000\n        /* \"#utility.yul\":17134:17135   */\n      0x00\n        /* \"#utility.yul\":17126:17132   */\n      dup3\n        /* \"#utility.yul\":17122:17136   */\n      add\n        /* \"#utility.yul\":17115:17161   */\n      mstore\n        /* \"#utility.yul\":16998:17168   */\n      pop\n      jump\t// out\n        /* \"#utility.yul\":17174:17540   */\n    tag_236:\n        /* \"#utility.yul\":17316:17319   */\n      0x00\n        /* \"#utility.yul\":17337:17404   */\n      tag_439\n        /* \"#utility.yul\":17401:17403   */\n      0x14\n        /* \"#utility.yul\":17396:17399   */\n      dup4\n        /* \"#utility.yul\":17337:17404   */\n      tag_218\n      jump\t// in\n    tag_439:\n        /* \"#utility.yul\":17330:17404   */\n      swap2\n      pop\n        /* \"#utility.yul\":17413:17506   */\n      tag_440\n        /* \"#utility.yul\":17502:17505   */\n      dup3\n        /* \"#utility.yul\":17413:17506   */\n      tag_235\n      jump\t// in\n    tag_440:\n        /* \"#utility.yul\":17531:17533   */\n      0x20\n        /* \"#utility.yul\":17526:17529   */\n      dup3\n        /* \"#utility.yul\":17522:17534   */\n      add\n        /* \"#utility.yul\":17515:17534   */\n      swap1\n      pop\n        /* \"#utility.yul\":17174:17540   */\n      swap2\n      swap1\n      pop\n      jump\t// out\n        /* \"#utility.yul\":17546:17965   */\n    tag_68:\n        /* \"#utility.yul\":17712:17716   */\n      0x00\n        /* \"#utility.yul\":17750:17752   */\n      0x20\n        /* \"#utility.yul\":17739:17748   */\n      dup3\n        /* \"#utility.yul\":17735:17753   */\n      add\n        /* \"#utility.yul\":17727:17753   */\n      swap1\n      pop\n        /* \"#utility.yul\":17799:17808   */\n      dup2\n        /* \"#utility.yul\":17793:17797   */\n      dup2\n        /* \"#utility.yul\":17789:17809   */\n      sub\n        /* \"#utility.yul\":17785:17786   */\n      0x00\n        /* \"#utility.yul\":17774:17783   */\n      dup4\n        /* \"#utility.yul\":17770:17787   */\n      add\n        /* \"#utility.yul\":17763:17810   */\n      mstore\n        /* \"#utility.yul\":17827:17958   */\n      tag_442\n        /* \"#utility.yul\":17953:17957   */\n      dup2\n        /* \"#utility.yul\":17827:17958   */\n      tag_236\n      jump\t// in\n    tag_442:\n        /* \"#utility.yul\":17819:17958   */\n      swap1\n      pop\n        /* \"#utility.yul\":17546:17965   */\n      swap2\n      swap1\n      pop\n      jump\t// out\n        /* \"#utility.yul\":17971:18065   */\n    tag_237:\n        /* \"#utility.yul\":18004:18012   */\n      0x00\n        /* \"#utility.yul\":18052:18057   */\n      dup2\n        /* \"#utility.yul\":18048:18050   */\n      0x60\n        /* \"#utility.yul\":18044:18058   */\n      shl\n        /* \"#utility.yul\":18023:18058   */\n      swap1\n      pop\n        /* \"#utility.yul\":17971:18065   */\n      swap2\n      swap1\n      pop\n      jump\t// out\n        /* \"#utility.yul\":18071:18165   */\n    tag_238:\n        /* \"#utility.yul\":18110:18117   */\n      0x00\n        /* \"#utility.yul\":18139:18159   */\n      tag_445\n        /* \"#utility.yul\":18153:18158   */\n      dup3\n        /* \"#utility.yul\":18139:18159   */\n      tag_237\n      jump\t// in\n    tag_445:\n        /* \"#utility.yul\":18128:18159   */\n      swap1\n      pop\n        /* \"#utility.yul\":18071:18165   */\n      swap2\n      swap1\n      pop\n      jump\t// out\n        /* \"#utility.yul\":18171:18271   */\n    tag_239:\n        /* \"#utility.yul\":18210:18217   */\n      0x00\n        /* \"#utility.yul\":18239:18265   */\n      tag_447\n        /* \"#utility.yul\":18259:18264   */\n      dup3\n        /* \"#utility.yul\":18239:18265   */\n      tag_238\n      jump\t// in\n    tag_447:\n        /* \"#utility.yul\":18228:18265   */\n      swap1\n      pop\n        /* \"#utility.yul\":18171:18271   */\n      swap2\n      swap1\n      pop\n      jump\t// out\n        /* \"#utility.yul\":18277:18434   */\n    tag_240:\n        /* \"#utility.yul\":18382:18427   */\n      tag_449\n        /* \"#utility.yul\":18402:18426   */\n      tag_450\n        /* \"#utility.yul\":18420:18425   */\n      dup3\n        /* \"#utility.yul\":18402:18426   */\n      tag_195\n      jump\t// in\n    tag_450:\n        /* \"#utility.yul\":18382:18427   */\n      tag_239\n      jump\t// in\n    tag_449:\n        /* \"#utility.yul\":18377:18380   */\n      dup3\n        /* \"#utility.yul\":18370:18428   */\n      mstore\n        /* \"#utility.yul\":18277:18434   */\n      pop\n      pop\n      jump\t// out\n        /* \"#utility.yul\":18440:18588   */\n    tag_241:\n        /* \"#utility.yul\":18542:18553   */\n      0x00\n        /* \"#utility.yul\":18579:18582   */\n      dup2\n        /* \"#utility.yul\":18564:18582   */\n      swap1\n      pop\n        /* \"#utility.yul\":18440:18588   */\n      swap3\n      swap2\n      pop\n      pop\n      jump\t// out\n        /* \"#utility.yul\":18594:18984   */\n    tag_242:\n        /* \"#utility.yul\":18700:18703   */\n      0x00\n        /* \"#utility.yul\":18728:18767   */\n      tag_453\n        /* \"#utility.yul\":18761:18766   */\n      dup3\n        /* \"#utility.yul\":18728:18767   */\n      tag_213\n      jump\t// in\n    tag_453:\n        /* \"#utility.yul\":18783:18872   */\n      tag_454\n        /* \"#utility.yul\":18865:18871   */\n      dup2\n        /* \"#utility.yul\":18860:18863   */\n      dup6\n        /* \"#utility.yul\":18783:18872   */\n      tag_241\n      jump\t// in\n    tag_454:\n        /* \"#utility.yul\":18776:18872   */\n      swap4\n      pop\n        /* \"#utility.yul\":18881:18946   */\n      tag_455\n        /* \"#utility.yul\":18939:18945   */\n      dup2\n        /* \"#utility.yul\":18934:18937   */\n      dup6\n        /* \"#utility.yul\":18927:18931   */\n      0x20\n        /* \"#utility.yul\":18920:18925   */\n      dup7\n        /* \"#utility.yul\":18916:18932   */\n      add\n        /* \"#utility.yul\":18881:18946   */\n      tag_215\n      jump\t// in\n    tag_455:\n        /* \"#utility.yul\":18971:18977   */\n      dup1\n        /* \"#utility.yul\":18966:18969   */\n      dup5\n        /* \"#utility.yul\":18962:18978   */\n      add\n        /* \"#utility.yul\":18955:18978   */\n      swap2\n      pop\n        /* \"#utility.yul\":18704:18984   */\n      pop\n        /* \"#utility.yul\":18594:18984   */\n      swap3\n      swap2\n      pop\n      pop\n      jump\t// out\n        /* \"#utility.yul\":18990:19067   */\n    tag_243:\n        /* \"#utility.yul\":19027:19034   */\n      0x00\n        /* \"#utility.yul\":19056:19061   */\n      dup2\n        /* \"#utility.yul\":19045:19061   */\n      swap1\n      pop\n        /* \"#utility.yul\":18990:19067   */\n      swap2\n      swap1\n      pop\n      jump\t// out\n        /* \"#utility.yul\":19073:19152   */\n    tag_244:\n        /* \"#utility.yul\":19112:19119   */\n      0x00\n        /* \"#utility.yul\":19141:19146   */\n      dup2\n        /* \"#utility.yul\":19130:19146   */\n      swap1\n      pop\n        /* \"#utility.yul\":19073:19152   */\n      swap2\n      swap1\n      pop\n      jump\t// out\n        /* \"#utility.yul\":19158:19315   */\n    tag_245:\n        /* \"#utility.yul\":19263:19308   */\n      tag_459\n        /* \"#utility.yul\":19283:19307   */\n      tag_460\n        /* \"#utility.yul\":19301:19306   */\n      dup3\n        /* \"#utility.yul\":19283:19307   */\n      tag_243\n      jump\t// in\n    tag_460:\n        /* \"#utility.yul\":19263:19308   */\n      tag_244\n      jump\t// in\n    tag_459:\n        /* \"#utility.yul\":19258:19261   */\n      dup3\n        /* \"#utility.yul\":19251:19309   */\n      mstore\n        /* \"#utility.yul\":19158:19315   */\n      pop\n      pop\n      jump\t// out\n        /* \"#utility.yul\":19321:20019   */\n    tag_70:\n        /* \"#utility.yul\":19537:19540   */\n      0x00\n        /* \"#utility.yul\":19552:19627   */\n      tag_462\n        /* \"#utility.yul\":19623:19626   */\n      dup3\n        /* \"#utility.yul\":19614:19620   */\n      dup8\n        /* \"#utility.yul\":19552:19627   */\n      tag_240\n      jump\t// in\n    tag_462:\n        /* \"#utility.yul\":19652:19654   */\n      0x14\n        /* \"#utility.yul\":19647:19650   */\n      dup3\n        /* \"#utility.yul\":19643:19655   */\n      add\n        /* \"#utility.yul\":19636:19655   */\n      swap2\n      pop\n        /* \"#utility.yul\":19665:19740   */\n      tag_463\n        /* \"#utility.yul\":19736:19739   */\n      dup3\n        /* \"#utility.yul\":19727:19733   */\n      dup7\n        /* \"#utility.yul\":19665:19740   */\n      tag_240\n      jump\t// in\n    tag_463:\n        /* \"#utility.yul\":19765:19767   */\n      0x14\n        /* \"#utility.yul\":19760:19763   */\n      dup3\n        /* \"#utility.yul\":19756:19768   */\n      add\n        /* \"#utility.yul\":19749:19768   */\n      swap2\n      pop\n        /* \"#utility.yul\":19785:19880   */\n      tag_464\n        /* \"#utility.yul\":19876:19879   */\n      dup3\n        /* \"#utility.yul\":19867:19873   */\n      dup6\n        /* \"#utility.yul\":19785:19880   */\n      tag_242\n      jump\t// in\n    tag_464:\n        /* \"#utility.yul\":19778:19880   */\n      swap2\n      pop\n        /* \"#utility.yul\":19890:19965   */\n      tag_465\n        /* \"#utility.yul\":19961:19964   */\n      dup3\n        /* \"#utility.yul\":19952:19958   */\n      dup5\n        /* \"#utility.yul\":19890:19965   */\n      tag_245\n      jump\t// in\n    tag_465:\n        /* \"#utility.yul\":19990:19992   */\n      0x20\n        /* \"#utility.yul\":19985:19988   */\n      dup3\n        /* \"#utility.yul\":19981:19993   */\n      add\n        /* \"#utility.yul\":19974:19993   */\n      swap2\n      pop\n        /* \"#utility.yul\":20010:20013   */\n      dup2\n        /* \"#utility.yul\":20003:20013   */\n      swap1\n      pop\n        /* \"#utility.yul\":19321:20019   */\n      swap6\n      swap5\n      pop\n      pop\n      pop\n      pop\n      pop\n      jump\t// out\n        /* \"#utility.yul\":20025:20166   */\n    tag_246:\n        /* \"#utility.yul\":20074:20078   */\n      0x00\n        /* \"#utility.yul\":20097:20100   */\n      dup2\n        /* \"#utility.yul\":20089:20100   */\n      swap1\n      pop\n        /* \"#utility.yul\":20120:20123   */\n      dup2\n        /* \"#utility.yul\":20117:20118   */\n      0x00\n        /* \"#utility.yul\":20110:20124   */\n      mstore\n        /* \"#utility.yul\":20154:20158   */\n      0x20\n        /* \"#utility.yul\":20151:20152   */\n      0x00\n        /* \"#utility.yul\":20141:20159   */\n      keccak256\n        /* \"#utility.yul\":20133:20159   */\n      swap1\n      pop\n        /* \"#utility.yul\":20025:20166   */\n      swap2\n      swap1\n      pop\n      jump\t// out\n        /* \"#utility.yul\":20172:20265   */\n    tag_247:\n        /* \"#utility.yul\":20209:20215   */\n      0x00\n        /* \"#utility.yul\":20256:20258   */\n      0x20\n        /* \"#utility.yul\":20251:20253   */\n      0x1f\n        /* \"#utility.yul\":20244:20249   */\n      dup4\n        /* \"#utility.yul\":20240:20254   */\n      add\n        /* \"#utility.yul\":20236:20259   */\n      div\n        /* \"#utility.yul\":20226:20259   */\n      swap1\n      pop\n        /* \"#utility.yul\":20172:20265   */\n      swap2\n      swap1\n      pop\n      jump\t// out\n        /* \"#utility.yul\":20271:20378   */\n    tag_248:\n        /* \"#utility.yul\":20315:20323   */\n      0x00\n        /* \"#utility.yul\":20365:20370   */\n      dup3\n        /* \"#utility.yul\":20359:20363   */\n      dup3\n        /* \"#utility.yul\":20355:20371   */\n      shl\n        /* \"#utility.yul\":20334:20371   */\n      swap1\n      pop\n        /* \"#utility.yul\":20271:20378   */\n      swap3\n      swap2\n      pop\n      pop\n      jump\t// out\n        /* \"#utility.yul\":20384:20777   */\n    tag_249:\n        /* \"#utility.yul\":20453:20459   */\n      0x00\n        /* \"#utility.yul\":20503:20504   */\n      0x08\n        /* \"#utility.yul\":20491:20501   */\n      dup4\n        /* \"#utility.yul\":20487:20505   */\n      mul\n        /* \"#utility.yul\":20526:20623   */\n      tag_470\n        /* \"#utility.yul\":20556:20622   */\n      0xffffffffffffffffffffffffffffffffffffffffffffffffffffffffffffffff\n        /* \"#utility.yul\":20545:20554   */\n      dup3\n        /* \"#utility.yul\":20526:20623   */\n      tag_248\n      jump\t// in\n    tag_470:\n        /* \"#utility.yul\":20644:20683   */\n      tag_471\n        /* \"#utility.yul\":20674:20682   */\n      dup7\n        /* \"#utility.yul\":20663:20672   */\n      dup4\n        /* \"#utility.yul\":20644:20683   */\n      tag_248\n      jump\t// in\n    tag_471:\n        /* \"#utility.yul\":20632:20683   */\n      swap6\n      pop\n        /* \"#utility.yul\":20716:20720   */\n      dup1\n        /* \"#utility.yul\":20712:20721   */\n      not\n        /* \"#utility.yul\":20705:20710   */\n      dup5\n        /* \"#utility.yul\":20701:20722   */\n      and\n        /* \"#utility.yul\":20692:20722   */\n      swap4\n      pop\n        /* \"#utility.yul\":20765:20769   */\n      dup1\n        /* \"#utility.yul\":20755:20763   */\n      dup7\n        /* \"#utility.yul\":20751:20770   */\n      and\n        /* \"#utility.yul\":20744:20749   */\n      dup5\n        /* \"#utility.yul\":20741:20771   */\n      or\n        /* \"#utility.yul\":20731:20771   */\n      swap3\n      pop\n        /* \"#utility.yul\":20460:20777   */\n      pop\n      pop\n        /* \"#utility.yul\":20384:20777   */\n      swap4\n      swap3\n      pop\n      pop\n      pop\n      jump\t// out\n        /* \"#utility.yul\":20783:20843   */\n    tag_250:\n        /* \"#utility.yul\":20811:20814   */\n      0x00\n        /* \"#utility.yul\":20832:20837   */\n      dup2\n        /* \"#utility.yul\":20825:20837   */\n      swap1\n      pop\n        /* \"#utility.yul\":20783:20843   */\n      swap2\n      swap1\n      pop\n      jump\t// out\n        /* \"#utility.yul\":20849:20991   */\n    tag_251:\n        /* \"#utility.yul\":20899:20908   */\n      0x00\n        /* \"#utility.yul\":20932:20985   */\n      tag_474\n        /* \"#utility.yul\":20950:20984   */\n      tag_475\n        /* \"#utility.yul\":20959:20983   */\n      tag_476\n        /* \"#utility.yul\":20977:20982   */\n      dup5\n        /* \"#utility.yul\":20959:20983   */\n      tag_243\n      jump\t// in\n    tag_476:\n        /* \"#utility.yul\":20950:20984   */\n      tag_250\n      jump\t// in\n    tag_475:\n        /* \"#utility.yul\":20932:20985   */\n      tag_243\n      jump\t// in\n    tag_474:\n        /* \"#utility.yul\":20919:20985   */\n      swap1\n      pop\n        /* \"#utility.yul\":20849:20991   */\n      swap2\n      swap1\n      pop\n      jump\t// out\n        /* \"#utility.yul\":20997:21072   */\n    tag_252:\n        /* \"#utility.yul\":21040:21043   */\n      0x00\n        /* \"#utility.yul\":21061:21066   */\n      dup2\n        /* \"#utility.yul\":21054:21066   */\n      swap1\n      pop\n        /* \"#utility.yul\":20997:21072   */\n      swap2\n      swap1\n      pop\n      jump\t// out\n        /* \"#utility.yul\":21078:21347   */\n    tag_253:\n        /* \"#utility.yul\":21188:21227   */\n      tag_479\n        /* \"#utility.yul\":21219:21226   */\n      dup4\n        /* \"#utility.yul\":21188:21227   */\n      tag_251\n      jump\t// in\n    tag_479:\n        /* \"#utility.yul\":21249:21340   */\n      tag_480\n        /* \"#utility.yul\":21298:21339   */\n      tag_481\n        /* \"#utility.yul\":21322:21338   */\n      dup3\n        /* \"#utility.yul\":21298:21339   */\n      tag_252\n      jump\t// in\n    tag_481:\n        /* \"#utility.yul\":21290:21296   */\n      dup5\n        /* \"#utility.yul\":21283:21287   */\n      dup5\n        /* \"#utility.yul\":21277:21288   */\n      sload\n        /* \"#utility.yul\":21249:21340   */\n      tag_249\n      jump\t// in\n    tag_480:\n        /* \"#utility.yul\":21243:21247   */\n      dup3\n        /* \"#utility.yul\":21236:21341   */\n      sstore\n        /* \"#utility.yul\":21154:21347   */\n      pop\n        /* \"#utility.yul\":21078:21347   */\n      pop\n      pop\n      pop\n      jump\t// out\n        /* \"#utility.yul\":21353:21426   */\n    tag_254:\n        /* \"#utility.yul\":21398:21401   */\n      0x00\n        /* \"#utility.yul\":21353:21426   */\n      swap1\n      jump\t// out\n        /* \"#utility.yul\":21432:21621   */\n    tag_255:\n        /* \"#utility.yul\":21509:21541   */\n      tag_484\n      tag_254\n      jump\t// in\n    tag_484:\n        /* \"#utility.yul\":21550:21615   */\n      tag_485\n        /* \"#utility.yul\":21608:21614   */\n      dup2\n        /* \"#utility.yul\":21600:21606   */\n      dup5\n        /* \"#utility.yul\":21594:21598   */\n      dup5\n        /* \"#utility.yul\":21550:21615   */\n      tag_253\n      jump\t// in\n    tag_485:\n        /* \"#utility.yul\":21485:21621   */\n      pop\n        /* \"#utility.yul\":21432:21621   */\n      pop\n      pop\n      jump\t// out\n        /* \"#utility.yul\":21627:21813   */\n    tag_256:\n        /* \"#utility.yul\":21687:21807   */\n    tag_487:\n        /* \"#utility.yul\":21704:21707   */\n      dup2\n        /* \"#utility.yul\":21697:21702   */\n      dup2\n        /* \"#utility.yul\":21694:21708   */\n      lt\n        /* \"#utility.yul\":21687:21807   */\n      iszero\n      tag_489\n      jumpi\n        /* \"#utility.yul\":21758:21797   */\n      tag_490\n        /* \"#utility.yul\":21795:21796   */\n      0x00\n        /* \"#utility.yul\":21788:21793   */\n      dup3\n        /* \"#utility.yul\":21758:21797   */\n      tag_255\n      jump\t// in\n    tag_490:\n        /* \"#utility.yul\":21731:21732   */\n      0x01\n        /* \"#utility.yul\":21724:21729   */\n      dup2\n        /* \"#utility.yul\":21720:21733   */\n      add\n        /* \"#utility.yul\":21711:21733   */\n      swap1\n      pop\n        /* \"#utility.yul\":21687:21807   */\n      jump(tag_487)\n    tag_489:\n        /* \"#utility.yul\":21627:21813   */\n      pop\n      pop\n      jump\t// out\n        /* \"#utility.yul\":21819:22362   */\n    tag_257:\n        /* \"#utility.yul\":21920:21922   */\n      0x1f\n        /* \"#utility.yul\":21915:21918   */\n      dup3\n        /* \"#utility.yul\":21912:21923   */\n      gt\n        /* \"#utility.yul\":21909:22355   */\n      iszero\n      tag_492\n      jumpi\n        /* \"#utility.yul\":21954:21992   */\n      tag_493\n        /* \"#utility.yul\":21986:21991   */\n      dup2\n        /* \"#utility.yul\":21954:21992   */\n      tag_246\n      jump\t// in\n    tag_493:\n        /* \"#utility.yul\":22038:22067   */\n      tag_494\n        /* \"#utility.yul\":22056:22066   */\n      dup5\n        /* \"#utility.yul\":22038:22067   */\n      tag_247\n      jump\t// in\n    tag_494:\n        /* \"#utility.yul\":22028:22036   */\n      dup2\n        /* \"#utility.yul\":22024:22068   */\n      add\n        /* \"#utility.yul\":22221:22223   */\n      0x20\n        /* \"#utility.yul\":22209:22219   */\n      dup6\n        /* \"#utility.yul\":22206:22224   */\n      lt\n        /* \"#utility.yul\":22203:22252   */\n      iszero\n      tag_495\n      jumpi\n        /* \"#utility.yul\":22242:22250   */\n      dup2\n        /* \"#utility.yul\":22227:22250   */\n      swap1\n      pop\n        /* \"#utility.yul\":22203:22252   */\n    tag_495:\n        /* \"#utility.yul\":22265:22345   */\n      tag_496\n        /* \"#utility.yul\":22321:22343   */\n      tag_497\n        /* \"#utility.yul\":22339:22342   */\n      dup6\n        /* \"#utility.yul\":22321:22343   */\n      tag_247\n      jump\t// in\n    tag_497:\n        /* \"#utility.yul\":22311:22319   */\n      dup4\n        /* \"#utility.yul\":22307:22344   */\n      add\n        /* \"#utility.yul\":22294:22305   */\n      dup3\n        /* \"#utility.yul\":22265:22345   */\n      tag_256\n      jump\t// in\n    tag_496:\n        /* \"#utility.yul\":21924:22355   */\n      pop\n      pop\n        /* \"#utility.yul\":21909:22355   */\n    tag_492:\n        /* \"#utility.yul\":21819:22362   */\n      pop\n      pop\n      pop\n      jump\t// out\n        /* \"#utility.yul\":22368:22485   */\n    tag_258:\n        /* \"#utility.yul\":22422:22430   */\n      0x00\n        /* \"#utility.yul\":22472:22477   */\n      dup3\n        /* \"#utility.yul\":22466:22470   */\n      dup3\n        /* \"#utility.yul\":22462:22478   */\n      shr\n        /* \"#utility.yul\":22441:22478   */\n      swap1\n      pop\n        /* \"#utility.yul\":22368:22485   */\n      swap3\n      swap2\n      pop\n      pop\n      jump\t// out\n        /* \"#utility.yul\":22491:22660   */\n    tag_259:\n        /* \"#utility.yul\":22535:22541   */\n      0x00\n        /* \"#utility.yul\":22568:22619   */\n      tag_500\n        /* \"#utility.yul\":22616:22617   */\n      0x00\n        /* \"#utility.yul\":22612:22618   */\n      not\n        /* \"#utility.yul\":22604:22609   */\n      dup5\n        /* \"#utility.yul\":22601:22602   */\n      0x08\n        /* \"#utility.yul\":22597:22610   */\n      mul\n        /* \"#utility.yul\":22568:22619   */\n      tag_258\n      jump\t// in\n    tag_500:\n        /* \"#utility.yul\":22564:22620   */\n      not\n        /* \"#utility.yul\":22649:22653   */\n      dup1\n        /* \"#utility.yul\":22643:22647   */\n      dup4\n        /* \"#utility.yul\":22639:22654   */\n      and\n        /* \"#utility.yul\":22629:22654   */\n      swap2\n      pop\n        /* \"#utility.yul\":22542:22660   */\n      pop\n        /* \"#utility.yul\":22491:22660   */\n      swap3\n      swap2\n      pop\n      pop\n      jump\t// out\n        /* \"#utility.yul\":22665:22960   */\n    tag_260:\n        /* \"#utility.yul\":22741:22745   */\n      0x00\n        /* \"#utility.yul\":22887:22916   */\n      tag_502\n        /* \"#utility.yul\":22912:22915   */\n      dup4\n        /* \"#utility.yul\":22906:22910   */\n      dup4\n        /* \"#utility.yul\":22887:22916   */\n      tag_259\n      jump\t// in\n    tag_502:\n        /* \"#utility.yul\":22879:22916   */\n      swap2\n      pop\n        /* \"#utility.yul\":22949:22952   */\n      dup3\n        /* \"#utility.yul\":22946:22947   */\n      0x02\n        /* \"#utility.yul\":22942:22953   */\n      mul\n        /* \"#utility.yul\":22936:22940   */\n      dup3\n        /* \"#utility.yul\":22933:22954   */\n      or\n        /* \"#utility.yul\":22925:22954   */\n      swap1\n      pop\n        /* \"#utility.yul\":22665:22960   */\n      swap3\n      swap2\n      pop\n      pop\n      jump\t// out\n        /* \"#utility.yul\":22965:24360   */\n    tag_73:\n        /* \"#utility.yul\":23082:23119   */\n      tag_504\n        /* \"#utility.yul\":23115:23118   */\n      dup3\n        /* \"#utility.yul\":23082:23119   */\n      tag_213\n      jump\t// in\n    tag_504:\n        /* \"#utility.yul\":23184:23202   */\n      0xffffffffffffffff\n        /* \"#utility.yul\":23176:23182   */\n      dup2\n        /* \"#utility.yul\":23173:23203   */\n      gt\n        /* \"#utility.yul\":23170:23226   */\n      iszero\n      tag_505\n      jumpi\n        /* \"#utility.yul\":23206:23224   */\n      tag_506\n      tag_201\n      jump\t// in\n    tag_506:\n        /* \"#utility.yul\":23170:23226   */\n    tag_505:\n        /* \"#utility.yul\":23250:23288   */\n      tag_507\n        /* \"#utility.yul\":23282:23286   */\n      dup3\n        /* \"#utility.yul\":23276:23287   */\n      sload\n        /* \"#utility.yul\":23250:23288   */\n      tag_114\n      jump\t// in\n    tag_507:\n        /* \"#utility.yul\":23335:23402   */\n      tag_508\n        /* \"#utility.yul\":23395:23401   */\n      dup3\n        /* \"#utility.yul\":23387:23393   */\n      dup3\n        /* \"#utility.yul\":23381:23385   */\n      dup6\n        /* \"#utility.yul\":23335:23402   */\n      tag_257\n      jump\t// in\n    tag_508:\n        /* \"#utility.yul\":23429:23430   */\n      0x00\n        /* \"#utility.yul\":23453:23457   */\n      0x20\n        /* \"#utility.yul\":23440:23457   */\n      swap1\n      pop\n        /* \"#utility.yul\":23485:23487   */\n      0x1f\n        /* \"#utility.yul\":23477:23483   */\n      dup4\n        /* \"#utility.yul\":23474:23488   */\n      gt\n        /* \"#utility.yul\":23502:23503   */\n      0x01\n        /* \"#utility.yul\":23497:24115   */\n      dup2\n      eq\n      tag_510\n      jumpi\n        /* \"#utility.yul\":24159:24160   */\n      0x00\n        /* \"#utility.yul\":24176:24182   */\n      dup5\n        /* \"#utility.yul\":24173:24250   */\n      iszero\n      tag_511\n      jumpi\n        /* \"#utility.yul\":24225:24234   */\n      dup3\n        /* \"#utility.yul\":24220:24223   */\n      dup8\n        /* \"#utility.yul\":24216:24235   */\n      add\n        /* \"#utility.yul\":24210:24236   */\n      mload\n        /* \"#utility.yul\":24201:24236   */\n      swap1\n      pop\n        /* \"#utility.yul\":24173:24250   */\n    tag_511:\n        /* \"#utility.yul\":24276:24343   */\n      tag_512\n        /* \"#utility.yul\":24336:24342   */\n      dup6\n        /* \"#utility.yul\":24329:24334   */\n      dup3\n        /* \"#utility.yul\":24276:24343   */\n      tag_260\n      jump\t// in\n    tag_512:\n        /* \"#utility.yul\":24270:24274   */\n      dup7\n        /* \"#utility.yul\":24263:24344   */\n      sstore\n        /* \"#utility.yul\":24132:24354   */\n      pop\n        /* \"#utility.yul\":23467:24354   */\n      jump(tag_509)\n        /* \"#utility.yul\":23497:24115   */\n    tag_510:\n        /* \"#utility.yul\":23549:23553   */\n      0x1f\n        /* \"#utility.yul\":23545:23554   */\n      not\n        /* \"#utility.yul\":23537:23543   */\n      dup5\n        /* \"#utility.yul\":23533:23555   */\n      and\n        /* \"#utility.yul\":23583:23620   */\n      tag_513\n        /* \"#utility.yul\":23615:23619   */\n      dup7\n        /* \"#utility.yul\":23583:23620   */\n      tag_246\n      jump\t// in\n    tag_513:\n        /* \"#utility.yul\":23642:23643   */\n      0x00\n        /* \"#utility.yul\":23656:23864   */\n    tag_514:\n        /* \"#utility.yul\":23670:23677   */\n      dup3\n        /* \"#utility.yul\":23667:23668   */\n      dup2\n        /* \"#utility.yul\":23664:23678   */\n      lt\n        /* \"#utility.yul\":23656:23864   */\n      iszero\n      tag_516\n      jumpi\n        /* \"#utility.yul\":23749:23758   */\n      dup5\n        /* \"#utility.yul\":23744:23747   */\n      dup10\n        /* \"#utility.yul\":23740:23759   */\n      add\n        /* \"#utility.yul\":23734:23760   */\n      mload\n        /* \"#utility.yul\":23726:23732   */\n      dup3\n        /* \"#utility.yul\":23719:23761   */\n      sstore\n        /* \"#utility.yul\":23800:23801   */\n      0x01\n        /* \"#utility.yul\":23792:23798   */\n      dup3\n        /* \"#utility.yul\":23788:23802   */\n      add\n        /* \"#utility.yul\":23778:23802   */\n      swap2\n      pop\n        /* \"#utility.yul\":23847:23849   */\n      0x20\n        /* \"#utility.yul\":23836:23845   */\n      dup6\n        /* \"#utility.yul\":23832:23850   */\n      add\n        /* \"#utility.yul\":23819:23850   */\n      swap5\n      pop\n        /* \"#utility.yul\":23693:23697   */\n      0x20\n        /* \"#utility.yul\":23690:23691   */\n      dup2\n        /* \"#utility.yul\":23686:23698   */\n      add\n        /* \"#utility.yul\":23681:23698   */\n      swap1\n      pop\n        /* \"#utility.yul\":23656:23864   */\n      jump(tag_514)\n    tag_516:\n        /* \"#utility.yul\":23892:23898   */\n      dup7\n        /* \"#utility.yul\":23883:23890   */\n      dup4\n        /* \"#utility.yul\":23880:23899   */\n      lt\n        /* \"#utility.yul\":23877:24056   */\n      iszero\n      tag_517\n      jumpi\n        /* \"#utility.yul\":23950:23959   */\n      dup5\n        /* \"#utility.yul\":23945:23948   */\n      dup10\n        /* \"#utility.yul\":23941:23960   */\n      add\n        /* \"#utility.yul\":23935:23961   */\n      mload\n        /* \"#utility.yul\":23993:24041   */\n      tag_518\n        /* \"#utility.yul\":24035:24039   */\n      0x1f\n        /* \"#utility.yul\":24027:24033   */\n      dup10\n        /* \"#utility.yul\":24023:24040   */\n      and\n        /* \"#utility.yul\":24012:24021   */\n      dup3\n        /* \"#utility.yul\":23993:24041   */\n      tag_259\n      jump\t// in\n    tag_518:\n        /* \"#utility.yul\":23985:23991   */\n      dup4\n        /* \"#utility.yul\":23978:24042   */\n      sstore\n        /* \"#utility.yul\":23900:24056   */\n      pop\n        /* \"#utility.yul\":23877:24056   */\n    tag_517:\n        /* \"#utility.yul\":24102:24103   */\n      0x01\n        /* \"#utility.yul\":24098:24099   */\n      0x02\n        /* \"#utility.yul\":24090:24096   */\n      dup9\n        /* \"#utility.yul\":24086:24100   */\n      mul\n        /* \"#utility.yul\":24082:24104   */\n      add\n        /* \"#utility.yul\":24076:24080   */\n      dup9\n        /* \"#utility.yul\":24069:24105   */\n      sstore\n        /* \"#utility.yul\":23504:24115   */\n      pop\n      pop\n      pop\n        /* \"#utility.yul\":23467:24354   */\n    tag_509:\n      pop\n        /* \"#utility.yul\":23057:24360   */\n      pop\n      pop\n      pop\n        /* \"#utility.yul\":22965:24360   */\n      pop\n      pop\n      jump\t// out\n        /* \"#utility.yul\":24366:24484   */\n    tag_261:\n        /* \"#utility.yul\":24453:24477   */\n      tag_520\n        /* \"#utility.yul\":24471:24476   */\n      dup2\n        /* \"#utility.yul\":24453:24477   */\n      tag_195\n      jump\t// in\n    tag_520:\n        /* \"#utility.yul\":24448:24451   */\n      dup3\n        /* \"#utility.yul\":24441:24478   */\n      mstore\n        /* \"#utility.yul\":24366:24484   */\n      pop\n      pop\n      jump\t// out\n        /* \"#utility.yul\":24490:25023   */\n    tag_77:\n        /* \"#utility.yul\":24659:24663   */\n      0x00\n        /* \"#utility.yul\":24697:24699   */\n      0x60\n        /* \"#utility.yul\":24686:24695   */\n      dup3\n        /* \"#utility.yul\":24682:24700   */\n      add\n        /* \"#utility.yul\":24674:24700   */\n      swap1\n      pop\n        /* \"#utility.yul\":24710:24781   */\n      tag_522\n        /* \"#utility.yul\":24778:24779   */\n      0x00\n        /* \"#utility.yul\":24767:24776   */\n      dup4\n        /* \"#utility.yul\":24763:24780   */\n      add\n        /* \"#utility.yul\":24754:24760   */\n      dup7\n        /* \"#utility.yul\":24710:24781   */\n      tag_261\n      jump\t// in\n    tag_522:\n        /* \"#utility.yul\":24828:24837   */\n      dup2\n        /* \"#utility.yul\":24822:24826   */\n      dup2\n        /* \"#utility.yul\":24818:24838   */\n      sub\n        /* \"#utility.yul\":24813:24815   */\n      0x20\n        /* \"#utility.yul\":24802:24811   */\n      dup4\n        /* \"#utility.yul\":24798:24816   */\n      add\n        /* \"#utility.yul\":24791:24839   */\n      mstore\n        /* \"#utility.yul\":24856:24934   */\n      tag_523\n        /* \"#utility.yul\":24929:24933   */\n      dup2\n        /* \"#utility.yul\":24920:24926   */\n      dup6\n        /* \"#utility.yul\":24856:24934   */\n      tag_219\n      jump\t// in\n    tag_523:\n        /* \"#utility.yul\":24848:24934   */\n      swap1\n      pop\n        /* \"#utility.yul\":24944:25016   */\n      tag_524\n        /* \"#utility.yul\":25012:25014   */\n      0x40\n        /* \"#utility.yul\":25001:25010   */\n      dup4\n        /* \"#utility.yul\":24997:25015   */\n      add\n        /* \"#utility.yul\":24988:24994   */\n      dup5\n        /* \"#utility.yul\":24944:25016   */\n      tag_220\n      jump\t// in\n    tag_524:\n        /* \"#utility.yul\":24490:25023   */\n      swap5\n      swap4\n      pop\n      pop\n      pop\n      pop\n      jump\t// out\n        /* \"#utility.yul\":25029:25200   */\n    tag_262:\n        /* \"#utility.yul\":25169:25192   */\n      0x456d61696c2063616e6e6f7420626520656d7074790000000000000000000000\n        /* \"#utility.yul\":25165:25166   */\n      0x00\n        /* \"#utility.yul\":25157:25163   */\n      dup3\n        /* \"#utility.yul\":25153:25167   */\n      add\n        /* \"#utility.yul\":25146:25193   */\n      mstore\n        /* \"#utility.yul\":25029:25200   */\n      pop\n      jump\t// out\n        /* \"#utility.yul\":25206:25572   */\n    tag_263:\n        /* \"#utility.yul\":25348:25351   */\n      0x00\n        /* \"#utility.yul\":25369:25436   */\n      tag_527\n        /* \"#utility.yul\":25433:25435   */\n      0x15\n        /* \"#utility.yul\":25428:25431   */\n      dup4\n        /* \"#utility.yul\":25369:25436   */\n      tag_218\n      jump\t// in\n    tag_527:\n        /* \"#utility.yul\":25362:25436   */\n      swap2\n      pop\n        /* \"#utility.yul\":25445:25538   */\n      tag_528\n        /* \"#utility.yul\":25534:25537   */\n      dup3\n        /* \"#utility.yul\":25445:25538   */\n      tag_262\n      jump\t// in\n    tag_528:\n        /* \"#utility.yul\":25563:25565   */\n      0x20\n        /* \"#utility.yul\":25558:25561   */\n      dup3\n        /* \"#utility.yul\":25554:25566   */\n      add\n        /* \"#utility.yul\":25547:25566   */\n      swap1\n      pop\n        /* \"#utility.yul\":25206:25572   */\n      swap2\n      swap1\n      pop\n      jump\t// out\n        /* \"#utility.yul\":25578:25997   */\n    tag_83:\n        /* \"#utility.yul\":25744:25748   */\n      0x00\n        /* \"#utility.yul\":25782:25784   */\n      0x20\n        /* \"#utility.yul\":25771:25780   */\n      dup3\n        /* \"#utility.yul\":25767:25785   */\n      add\n        /* \"#utility.yul\":25759:25785   */\n      swap1\n      pop\n        /* \"#utility.yul\":25831:25840   */\n      dup2\n        /* \"#utility.yul\":25825:25829   */\n      dup2\n        /* \"#utility.yul\":25821:25841   */\n      sub\n        /* \"#utility.yul\":25817:25818   */\n      0x00\n        /* \"#utility.yul\":25806:25815   */\n      dup4\n        /* \"#utility.yul\":25802:25819   */\n      add\n        /* \"#utility.yul\":25795:25842   */\n      mstore\n        /* \"#utility.yul\":25859:25990   */\n      tag_530\n        /* \"#utility.yul\":25985:25989   */\n      dup2\n        /* \"#utility.yul\":25859:25990   */\n      tag_263\n      jump\t// in\n    tag_530:\n        /* \"#utility.yul\":25851:25990   */\n      swap1\n      pop\n        /* \"#utility.yul\":25578:25997   */\n      swap2\n      swap1\n      pop\n      jump\t// out\n        /* \"#utility.yul\":26003:26718   */\n    tag_88:\n        /* \"#utility.yul\":26212:26216   */\n      0x00\n        /* \"#utility.yul\":26250:26252   */\n      0x60\n        /* \"#utility.yul\":26239:26248   */\n      dup3\n        /* \"#utility.yul\":26235:26253   */\n      add\n        /* \"#utility.yul\":26227:26253   */\n      swap1\n      pop\n        /* \"#utility.yul\":26299:26308   */\n      dup2\n        /* \"#utility.yul\":26293:26297   */\n      dup2\n        /* \"#utility.yul\":26289:26309   */\n      sub\n        /* \"#utility.yul\":26285:26286   */\n      0x00\n        /* \"#utility.yul\":26274:26283   */\n      dup4\n        /* \"#utility.yul\":26270:26287   */\n      add\n        /* \"#utility.yul\":26263:26310   */\n      mstore\n        /* \"#utility.yul\":26327:26405   */\n      tag_532\n        /* \"#utility.yul\":26400:26404   */\n      dup2\n        /* \"#utility.yul\":26391:26397   */\n      dup7\n        /* \"#utility.yul\":26327:26405   */\n      tag_219\n      jump\t// in\n    tag_532:\n        /* \"#utility.yul\":26319:26405   */\n      swap1\n      pop\n        /* \"#utility.yul\":26452:26461   */\n      dup2\n        /* \"#utility.yul\":26446:26450   */\n      dup2\n        /* \"#utility.yul\":26442:26462   */\n      sub\n        /* \"#utility.yul\":26437:26439   */\n      0x20\n        /* \"#utility.yul\":26426:26435   */\n      dup4\n        /* \"#utility.yul\":26422:26440   */\n      add\n        /* \"#utility.yul\":26415:26463   */\n      mstore\n        /* \"#utility.yul\":26480:26558   */\n      tag_533\n        /* \"#utility.yul\":26553:26557   */\n      dup2\n        /* \"#utility.yul\":26544:26550   */\n      dup6\n        /* \"#utility.yul\":26480:26558   */\n      tag_219\n      jump\t// in\n    tag_533:\n        /* \"#utility.yul\":26472:26558   */\n      swap1\n      pop\n        /* \"#utility.yul\":26605:26614   */\n      dup2\n        /* \"#utility.yul\":26599:26603   */\n      dup2\n        /* \"#utility.yul\":26595:26615   */\n      sub\n        /* \"#utility.yul\":26590:26592   */\n      0x40\n        /* \"#utility.yul\":26579:26588   */\n      dup4\n        /* \"#utility.yul\":26575:26593   */\n      add\n        /* \"#utility.yul\":26568:26616   */\n      mstore\n        /* \"#utility.yul\":26633:26711   */\n      tag_534\n        /* \"#utility.yul\":26706:26710   */\n      dup2\n        /* \"#utility.yul\":26697:26703   */\n      dup5\n        /* \"#utility.yul\":26633:26711   */\n      tag_219\n      jump\t// in\n    tag_534:\n        /* \"#utility.yul\":26625:26711   */\n      swap1\n      pop\n        /* \"#utility.yul\":26003:26718   */\n      swap5\n      swap4\n      pop\n      pop\n      pop\n      pop\n      jump\t// out\n        /* \"#utility.yul\":26724:26904   */\n    tag_264:\n        /* \"#utility.yul\":26864:26896   */\n      0x4e6577206964656e7469666965722063616e6e6f7420626520656d7074790000\n        /* \"#utility.yul\":26860:26861   */\n      0x00\n        /* \"#utility.yul\":26852:26858   */\n      dup3\n        /* \"#utility.yul\":26848:26862   */\n      add\n        /* \"#utility.yul\":26841:26897   */\n      mstore\n        /* \"#utility.yul\":26724:26904   */\n      pop\n      jump\t// out\n        /* \"#utility.yul\":26910:27276   */\n    tag_265:\n        /* \"#utility.yul\":27052:27055   */\n      0x00\n        /* \"#utility.yul\":27073:27140   */\n      tag_537\n        /* \"#utility.yul\":27137:27139   */\n      0x1e\n        /* \"#utility.yul\":27132:27135   */\n      dup4\n        /* \"#utility.yul\":27073:27140   */\n      tag_218\n      jump\t// in\n    tag_537:\n        /* \"#utility.yul\":27066:27140   */\n      swap2\n      pop\n        /* \"#utility.yul\":27149:27242   */\n      tag_538\n        /* \"#utility.yul\":27238:27241   */\n      dup3\n        /* \"#utility.yul\":27149:27242   */\n      tag_264\n      jump\t// in\n    tag_538:\n        /* \"#utility.yul\":27267:27269   */\n      0x20\n        /* \"#utility.yul\":27262:27265   */\n      dup3\n        /* \"#utility.yul\":27258:27270   */\n      add\n        /* \"#utility.yul\":27251:27270   */\n      swap1\n      pop\n        /* \"#utility.yul\":26910:27276   */\n      swap2\n      swap1\n      pop\n      jump\t// out\n        /* \"#utility.yul\":27282:27701   */\n    tag_92:\n        /* \"#utility.yul\":27448:27452   */\n      0x00\n        /* \"#utility.yul\":27486:27488   */\n      0x20\n        /* \"#utility.yul\":27475:27484   */\n      dup3\n        /* \"#utility.yul\":27471:27489   */\n      add\n        /* \"#utility.yul\":27463:27489   */\n      swap1\n      pop\n        /* \"#utility.yul\":27535:27544   */\n      dup2\n        /* \"#utility.yul\":27529:27533   */\n      dup2\n        /* \"#utility.yul\":27525:27545   */\n      sub\n        /* \"#utility.yul\":27521:27522   */\n      0x00\n        /* \"#utility.yul\":27510:27519   */\n      dup4\n        /* \"#utility.yul\":27506:27523   */\n      add\n        /* \"#utility.yul\":27499:27546   */\n      mstore\n        /* \"#utility.yul\":27563:27694   */\n      tag_540\n        /* \"#utility.yul\":27689:27693   */\n      dup2\n        /* \"#utility.yul\":27563:27694   */\n      tag_265\n      jump\t// in\n    tag_540:\n        /* \"#utility.yul\":27555:27694   */\n      swap1\n      pop\n        /* \"#utility.yul\":27282:27701   */\n      swap2\n      swap1\n      pop\n      jump\t// out\n        /* \"#utility.yul\":27707:27879   */\n    tag_266:\n        /* \"#utility.yul\":27847:27871   */\n      0x496e76616c6964206e6577206964656e74696669657200000000000000000000\n        /* \"#utility.yul\":27843:27844   */\n      0x00\n        /* \"#utility.yul\":27835:27841   */\n      dup3\n        /* \"#utility.yul\":27831:27845   */\n      add\n        /* \"#utility.yul\":27824:27872   */\n      mstore\n        /* \"#utility.yul\":27707:27879   */\n      pop\n      jump\t// out\n        /* \"#utility.yul\":27885:28251   */\n    tag_267:\n        /* \"#utility.yul\":28027:28030   */\n      0x00\n        /* \"#utility.yul\":28048:28115   */\n      tag_543\n        /* \"#utility.yul\":28112:28114   */\n      0x16\n        /* \"#utility.yul\":28107:28110   */\n      dup4\n        /* \"#utility.yul\":28048:28115   */\n      tag_218\n      jump\t// in\n    tag_543:\n        /* \"#utility.yul\":28041:28115   */\n      swap2\n      pop\n        /* \"#utility.yul\":28124:28217   */\n      tag_544\n        /* \"#utility.yul\":28213:28216   */\n      dup3\n        /* \"#utility.yul\":28124:28217   */\n      tag_266\n      jump\t// in\n    tag_544:\n        /* \"#utility.yul\":28242:28244   */\n      0x20\n        /* \"#utility.yul\":28237:28240   */\n      dup3\n        /* \"#utility.yul\":28233:28245   */\n      add\n        /* \"#utility.yul\":28226:28245   */\n      swap1\n      pop\n        /* \"#utility.yul\":27885:28251   */\n      swap2\n      swap1\n      pop\n      jump\t// out\n        /* \"#utility.yul\":28257:28676   */\n    tag_98:\n        /* \"#utility.yul\":28423:28427   */\n      0x00\n        /* \"#utility.yul\":28461:28463   */\n      0x20\n        /* \"#utility.yul\":28450:28459   */\n      dup3\n        /* \"#utility.yul\":28446:28464   */\n      add\n        /* \"#utility.yul\":28438:28464   */\n      swap1\n      pop\n        /* \"#utility.yul\":28510:28519   */\n      dup2\n        /* \"#utility.yul\":28504:28508   */\n      dup2\n        /* \"#utility.yul\":28500:28520   */\n      sub\n        /* \"#utility.yul\":28496:28497   */\n      0x00\n        /* \"#utility.yul\":28485:28494   */\n      dup4\n        /* \"#utility.yul\":28481:28498   */\n      add\n        /* \"#utility.yul\":28474:28521   */\n      mstore\n        /* \"#utility.yul\":28538:28669   */\n      tag_546\n        /* \"#utility.yul\":28664:28668   */\n      dup2\n        /* \"#utility.yul\":28538:28669   */\n      tag_267\n      jump\t// in\n    tag_546:\n        /* \"#utility.yul\":28530:28669   */\n      swap1\n      pop\n        /* \"#utility.yul\":28257:28676   */\n      swap2\n      swap1\n      pop\n      jump\t// out\n        /* \"#utility.yul\":28682:28858   */\n    tag_268:\n        /* \"#utility.yul\":28822:28850   */\n      0x4964656e7469666965722063616e6e6f7420626520656d707479000000000000\n        /* \"#utility.yul\":28818:28819   */\n      0x00\n        /* \"#utility.yul\":28810:28816   */\n      dup3\n        /* \"#utility.yul\":28806:28820   */\n      add\n        /* \"#utility.yul\":28799:28851   */\n      mstore\n        /* \"#utility.yul\":28682:28858   */\n      pop\n      jump\t// out\n        /* \"#utility.yul\":28864:29230   */\n    tag_269:\n        /* \"#utility.yul\":29006:29009   */\n      0x00\n        /* \"#utility.yul\":29027:29094   */\n      tag_549\n        /* \"#utility.yul\":29091:29093   */\n      0x1a\n        /* \"#utility.yul\":29086:29089   */\n      dup4\n        /* \"#utility.yul\":29027:29094   */\n      tag_218\n      jump\t// in\n    tag_549:\n        /* \"#utility.yul\":29020:29094   */\n      swap2\n      pop\n        /* \"#utility.yul\":29103:29196   */\n      tag_550\n        /* \"#utility.yul\":29192:29195   */\n      dup3\n        /* \"#utility.yul\":29103:29196   */\n      tag_268\n      jump\t// in\n    tag_550:\n        /* \"#utility.yul\":29221:29223   */\n      0x20\n        /* \"#utility.yul\":29216:29219   */\n      dup3\n        /* \"#utility.yul\":29212:29224   */\n      add\n        /* \"#utility.yul\":29205:29224   */\n      swap1\n      pop\n        /* \"#utility.yul\":28864:29230   */\n      swap2\n      swap1\n      pop\n      jump\t// out\n        /* \"#utility.yul\":29236:29655   */\n    tag_104:\n        /* \"#utility.yul\":29402:29406   */\n      0x00\n        /* \"#utility.yul\":29440:29442   */\n      0x20\n        /* \"#utility.yul\":29429:29438   */\n      dup3\n        /* \"#utility.yul\":29425:29443   */\n      add\n        /* \"#utility.yul\":29417:29443   */\n      swap1\n      pop\n        /* \"#utility.yul\":29489:29498   */\n      dup2\n        /* \"#utility.yul\":29483:29487   */\n      dup2\n        /* \"#utility.yul\":29479:29499   */\n      sub\n        /* \"#utility.yul\":29475:29476   */\n      0x00\n        /* \"#utility.yul\":29464:29473   */\n      dup4\n        /* \"#utility.yul\":29460:29477   */\n      add\n        /* \"#utility.yul\":29453:29500   */\n      mstore\n        /* \"#utility.yul\":29517:29648   */\n      tag_552\n        /* \"#utility.yul\":29643:29647   */\n      dup2\n        /* \"#utility.yul\":29517:29648   */\n      tag_269\n      jump\t// in\n    tag_552:\n        /* \"#utility.yul\":29509:29648   */\n      swap1\n      pop\n        /* \"#utility.yul\":29236:29655   */\n      swap2\n      swap1\n      pop\n      jump\t// out\n        /* \"#utility.yul\":29661:29883   */\n    tag_270:\n        /* \"#utility.yul\":29801:29835   */\n      0x44494420616c72656164792065786973747320666f7220746869732061646472\n        /* \"#utility.yul\":29797:29798   */\n      0x00\n        /* \"#utility.yul\":29789:29795   */\n      dup3\n        /* \"#utility.yul\":29785:29799   */\n      add\n        /* \"#utility.yul\":29778:29836   */\n      mstore\n        /* \"#utility.yul\":29870:29875   */\n      0x6573730000000000000000000000000000000000000000000000000000000000\n        /* \"#utility.yul\":29865:29867   */\n      0x20\n        /* \"#utility.yul\":29857:29863   */\n      dup3\n        /* \"#utility.yul\":29853:29868   */\n      add\n        /* \"#utility.yul\":29846:29876   */\n      mstore\n        /* \"#utility.yul\":29661:29883   */\n      pop\n      jump\t// out\n        /* \"#utility.yul\":29889:30255   */\n    tag_271:\n        /* \"#utility.yul\":30031:30034   */\n      0x00\n        /* \"#utility.yul\":30052:30119   */\n      tag_555\n        /* \"#utility.yul\":30116:30118   */\n      0x23\n        /* \"#utility.yul\":30111:30114   */\n      dup4\n        /* \"#utility.yul\":30052:30119   */\n      tag_218\n      jump\t// in\n    tag_555:\n        /* \"#utility.yul\":30045:30119   */\n      swap2\n      pop\n        /* \"#utility.yul\":30128:30221   */\n      tag_556\n        /* \"#utility.yul\":30217:30220   */\n      dup3\n        /* \"#utility.yul\":30128:30221   */\n      tag_270\n      jump\t// in\n    tag_556:\n        /* \"#utility.yul\":30246:30248   */\n      0x40\n        /* \"#utility.yul\":30241:30244   */\n      dup3\n        /* \"#utility.yul\":30237:30249   */\n      add\n        /* \"#utility.yul\":30230:30249   */\n      swap1\n      pop\n        /* \"#utility.yul\":29889:30255   */\n      swap2\n      swap1\n      pop\n      jump\t// out\n        /* \"#utility.yul\":30261:30680   */\n    tag_107:\n        /* \"#utility.yul\":30427:30431   */\n      0x00\n        /* \"#utility.yul\":30465:30467   */\n      0x20\n        /* \"#utility.yul\":30454:30463   */\n      dup3\n        /* \"#utility.yul\":30450:30468   */\n      add\n        /* \"#utility.yul\":30442:30468   */\n      swap1\n      pop\n        /* \"#utility.yul\":30514:30523   */\n      dup2\n        /* \"#utility.yul\":30508:30512   */\n      dup2\n        /* \"#utility.yul\":30504:30524   */\n      sub\n        /* \"#utility.yul\":30500:30501   */\n      0x00\n        /* \"#utility.yul\":30489:30498   */\n      dup4\n        /* \"#utility.yul\":30485:30502   */\n      add\n        /* \"#utility.yul\":30478:30525   */\n      mstore\n        /* \"#utility.yul\":30542:30673   */\n      tag_558\n        /* \"#utility.yul\":30668:30672   */\n      dup2\n        /* \"#utility.yul\":30542:30673   */\n      tag_271\n      jump\t// in\n    tag_558:\n        /* \"#utility.yul\":30534:30673   */\n      swap1\n      pop\n        /* \"#utility.yul\":30261:30680   */\n      swap2\n      swap1\n      pop\n      jump\t// out\n        /* \"#utility.yul\":30686:31121   */\n    tag_130:\n        /* \"#utility.yul\":30866:30869   */\n      0x00\n        /* \"#utility.yul\":30888:30983   */\n      tag_560\n        /* \"#utility.yul\":30979:30982   */\n      dup3\n        /* \"#utility.yul\":30970:30976   */\n      dup6\n        /* \"#utility.yul\":30888:30983   */\n      tag_242\n      jump\t// in\n    tag_560:\n        /* \"#utility.yul\":30881:30983   */\n      swap2\n      pop\n        /* \"#utility.yul\":31000:31095   */\n      tag_561\n        /* \"#utility.yul\":31091:31094   */\n      dup3\n        /* \"#utility.yul\":31082:31088   */\n      dup5\n        /* \"#utility.yul\":31000:31095   */\n      tag_242\n      jump\t// in\n    tag_561:\n        /* \"#utility.yul\":30993:31095   */\n      swap2\n      pop\n        /* \"#utility.yul\":31112:31115   */\n      dup2\n        /* \"#utility.yul\":31105:31115   */\n      swap1\n      pop\n        /* \"#utility.yul\":30686:31121   */\n      swap4\n      swap3\n      pop\n      pop\n      pop\n      jump\t// out\n        /* \"#utility.yul\":31127:31306   */\n    tag_272:\n        /* \"#utility.yul\":31267:31298   */\n      0x4e6f2044494420666f756e6420666f7220746869732061646472657373000000\n        /* \"#utility.yul\":31263:31264   */\n      0x00\n        /* \"#utility.yul\":31255:31261   */\n      dup3\n        /* \"#utility.yul\":31251:31265   */\n      add\n        /* \"#utility.yul\":31244:31299   */\n      mstore\n        /* \"#utility.yul\":31127:31306   */\n      pop\n      jump\t// out\n        /* \"#utility.yul\":31312:31678   */\n    tag_273:\n        /* \"#utility.yul\":31454:31457   */\n      0x00\n        /* \"#utility.yul\":31475:31542   */\n      tag_564\n        /* \"#utility.yul\":31539:31541   */\n      0x1d\n        /* \"#utility.yul\":31534:31537   */\n      dup4\n        /* \"#utility.yul\":31475:31542   */\n      tag_218\n      jump\t// in\n    tag_564:\n        /* \"#utility.yul\":31468:31542   */\n      swap2\n      pop\n        /* \"#utility.yul\":31551:31644   */\n      tag_565\n        /* \"#utility.yul\":31640:31643   */\n      dup3\n        /* \"#utility.yul\":31551:31644   */\n      tag_272\n      jump\t// in\n    tag_565:\n        /* \"#utility.yul\":31669:31671   */\n      0x20\n        /* \"#utility.yul\":31664:31667   */\n      dup3\n        /* \"#utility.yul\":31660:31672   */\n      add\n        /* \"#utility.yul\":31653:31672   */\n      swap1\n      pop\n        /* \"#utility.yul\":31312:31678   */\n      swap2\n      swap1\n      pop\n      jump\t// out\n        /* \"#utility.yul\":31684:32103   */\n    tag_167:\n        /* \"#utility.yul\":31850:31854   */\n      0x00\n        /* \"#utility.yul\":31888:31890   */\n      0x20\n        /* \"#utility.yul\":31877:31886   */\n      dup3\n        /* \"#utility.yul\":31873:31891   */\n      add\n        /* \"#utility.yul\":31865:31891   */\n      swap1\n      pop\n        /* \"#utility.yul\":31937:31946   */\n      dup2\n        /* \"#utility.yul\":31931:31935   */\n      dup2\n        /* \"#utility.yul\":31927:31947   */\n      sub\n        /* \"#utility.yul\":31923:31924   */\n      0x00\n        /* \"#utility.yul\":31912:31921   */\n      dup4\n        /* \"#utility.yul\":31908:31925   */\n      add\n        /* \"#utility.yul\":31901:31948   */\n      mstore\n        /* \"#utility.yul\":31965:32096   */\n      tag_567\n        /* \"#utility.yul\":32091:32095   */\n      dup2\n        /* \"#utility.yul\":31965:32096   */\n      tag_273\n      jump\t// in\n    tag_567:\n        /* \"#utility.yul\":31957:32096   */\n      swap1\n      pop\n        /* \"#utility.yul\":31684:32103   */\n      swap2\n      swap1\n      pop\n      jump\t// out\n        /* \"#utility.yul\":32109:32290   */\n    tag_274:\n        /* \"#utility.yul\":32249:32282   */\n      0x4e6f20726f6c65732061737369676e656420666f722074686973207573657200\n        /* \"#utility.yul\":32245:32246   */\n      0x00\n        /* \"#utility.yul\":32237:32243   */\n      dup3\n        /* \"#utility.yul\":32233:32247   */\n      add\n        /* \"#utility.yul\":32226:32283   */\n      mstore\n        /* \"#utility.yul\":32109:32290   */\n      pop\n      jump\t// out\n        /* \"#utility.yul\":32296:32662   */\n    tag_275:\n        /* \"#utility.yul\":32438:32441   */\n      0x00\n        /* \"#utility.yul\":32459:32526   */\n      tag_570\n        /* \"#utility.yul\":32523:32525   */\n      0x1f\n        /* \"#utility.yul\":32518:32521   */\n      dup4\n        /* \"#utility.yul\":32459:32526   */\n      tag_218\n      jump\t// in\n    tag_570:\n        /* \"#utility.yul\":32452:32526   */\n      swap2\n      pop\n        /* \"#utility.yul\":32535:32628   */\n      tag_571\n        /* \"#utility.yul\":32624:32627   */\n      dup3\n        /* \"#utility.yul\":32535:32628   */\n      tag_274\n      jump\t// in\n    tag_571:\n        /* \"#utility.yul\":32653:32655   */\n      0x20\n        /* \"#utility.yul\":32648:32651   */\n      dup3\n        /* \"#utility.yul\":32644:32656   */\n      add\n        /* \"#utility.yul\":32637:32656   */\n      swap1\n      pop\n        /* \"#utility.yul\":32296:32662   */\n      swap2\n      swap1\n      pop\n      jump\t// out\n        /* \"#utility.yul\":32668:33087   */\n    tag_190:\n        /* \"#utility.yul\":32834:32838   */\n      0x00\n        /* \"#utility.yul\":32872:32874   */\n      0x20\n        /* \"#utility.yul\":32861:32870   */\n      dup3\n        /* \"#utility.yul\":32857:32875   */\n      add\n        /* \"#utility.yul\":32849:32875   */\n      swap1\n      pop\n        /* \"#utility.yul\":32921:32930   */\n      dup2\n        /* \"#utility.yul\":32915:32919   */\n      dup2\n        /* \"#utility.yul\":32911:32931   */\n      sub\n        /* \"#utility.yul\":32907:32908   */\n      0x00\n        /* \"#utility.yul\":32896:32905   */\n      dup4\n        /* \"#utility.yul\":32892:32909   */\n      add\n        /* \"#utility.yul\":32885:32932   */\n      mstore\n        /* \"#utility.yul\":32949:33080   */\n      tag_573\n        /* \"#utility.yul\":33075:33079   */\n      dup2\n        /* \"#utility.yul\":32949:33080   */\n      tag_275\n      jump\t// in\n    tag_573:\n        /* \"#utility.yul\":32941:33080   */\n      swap1\n      pop\n        /* \"#utility.yul\":32668:33087   */\n      swap2\n      swap1\n      pop\n      jump\t// out\n\n    auxdata: 0xa26469706673582212207556f1c5a4738e7bd9939a5c05f65bab942df7eb9820125189a817f3d982578464736f6c634300081a0033\n}\n",
				"bytecode": {
					"linkReferences": {},
					"object": "608060405234801561000f575f80fd5b506040518060400160405280600781526020017f6d616e616765720000000000000000000000000000000000000000000000000081525060015f3373ffffffffffffffffffffffffffffffffffffffff1673ffffffffffffffffffffffffffffffffffffffff1681526020019081526020015f20908161008f919061036e565b5060025f3373ffffffffffffffffffffffffffffffffffffffff1673ffffffffffffffffffffffffffffffffffffffff1681526020019081526020015f208060018154018082558091505060019003905f5260205f20015f6040518060400160405280600781526020017f6d616e61676572000000000000000000000000000000000000000000000000008152509091909150908161012e919061036e565b5061043d565b5f81519050919050565b7f4e487b71000000000000000000000000000000000000000000000000000000005f52604160045260245ffd5b7f4e487b71000000000000000000000000000000000000000000000000000000005f52602260045260245ffd5b5f60028204905060018216806101af57607f821691505b6020821081036101c2576101c161016b565b5b50919050565b5f819050815f5260205f209050919050565b5f6020601f8301049050919050565b5f82821b905092915050565b5f600883026102247fffffffffffffffffffffffffffffffffffffffffffffffffffffffffffffffff826101e9565b61022e86836101e9565b95508019841693508086168417925050509392505050565b5f819050919050565b5f819050919050565b5f61027261026d61026884610246565b61024f565b610246565b9050919050565b5f819050919050565b61028b83610258565b61029f61029782610279565b8484546101f5565b825550505050565b5f90565b6102b36102a7565b6102be818484610282565b505050565b5b818110156102e1576102d65f826102ab565b6001810190506102c4565b5050565b601f821115610326576102f7816101c8565b610300846101da565b8101602085101561030f578190505b61032361031b856101da565b8301826102c3565b50505b505050565b5f82821c905092915050565b5f6103465f198460080261032b565b1980831691505092915050565b5f61035e8383610337565b9150826002028217905092915050565b61037782610134565b67ffffffffffffffff8111156103905761038f61013e565b5b61039a8254610198565b6103a58282856102e5565b5f60209050601f8311600181146103d6575f84156103c4578287015190505b6103ce8582610353565b865550610435565b601f1984166103e4866101c8565b5f5b8281101561040b578489015182556001820191506020850194506020810190506103e6565b868310156104285784890151610424601f891682610337565b8355505b6001600288020188555050505b505050505050565b6129768061044a5f395ff3fe608060405234801561000f575f80fd5b506004361061009c575f3560e01c80637a5b4f59116100645780637a5b4f5914610140578063b7dfcbee1461015e578063bc9c2d551461017a578063e1e7a16e14610198578063fde08174146101c85761009c565b8063022bf9c1146100a05780630890d80c146100bc57806314c95832146100d85780633457d3e2146100f45780634dbf87cc14610110575b5f80fd5b6100ba60048036038101906100b59190611b2e565b6101e6565b005b6100d660048036038101906100d19190611b88565b6105c2565b005b6100f260048036038101906100ed9190611c2c565b6107c3565b005b61010e60048036038101906101099190611c2c565b6109cb565b005b61012a60048036038101906101259190611ca6565b610bef565b6040516101379190611ceb565b60405180910390f35b610148610ef5565b6040516101559190611dbf565b60405180910390f35b61017860048036038101906101739190611b2e565b6111c5565b005b6101826114ad565b60405161018f9190611e27565b60405180910390f35b6101b260048036038101906101ad9190611e47565b611645565b6040516101bf9190611ecc565b60405180910390f35b6101d0611743565b6040516101dd9190611fa0565b60405180910390f35b6040518060400160405280600781526020017f6d616e61676572000000000000000000000000000000000000000000000000008152508051906020012060015f3373ffffffffffffffffffffffffffffffffffffffff1673ffffffffffffffffffffffffffffffffffffffff1681526020019081526020015f2060405161026d91906120b9565b6040518091039020146102b5576040517f08c379a00000000000000000000000000000000000000000000000000000000081526004016102ac90612119565b60405180910390fd5b5f73ffffffffffffffffffffffffffffffffffffffff165f803373ffffffffffffffffffffffffffffffffffffffff1673ffffffffffffffffffffffffffffffffffffffff1681526020019081526020015f206001015f9054906101000a900473ffffffffffffffffffffffffffffffffffffffff1673ffffffffffffffffffffffffffffffffffffffff1603610381576040517f08c379a0000000000000000000000000000000000000000000000000000000008152600401610378906121a7565b60405180910390fd5b5f8151116103c4576040517f08c379a00000000000000000000000000000000000000000000000000000000081526004016103bb9061220f565b60405180910390fd5b5f338383426040516020016103dc94939291906122d5565b60405160208183030381529060405280519060200120905060045f8473ffffffffffffffffffffffffffffffffffffffff1673ffffffffffffffffffffffffffffffffffffffff1681526020019081526020015f2060405180608001604052803373ffffffffffffffffffffffffffffffffffffffff16815260200184815260200183815260200142815250908060018154018082558091505060019003905f5260205f2090600402015f909190919091505f820151815f015f6101000a81548173ffffffffffffffffffffffffffffffffffffffff021916908373ffffffffffffffffffffffffffffffffffffffff16021790555060208201518160010190816104e791906124bb565b506040820151816002015560608201518160030155505060025f8473ffffffffffffffffffffffffffffffffffffffff1673ffffffffffffffffffffffffffffffffffffffff1681526020019081526020015f2082908060018154018082558091505060019003905f5260205f20015f90919091909150908161056a91906124bb565b503373ffffffffffffffffffffffffffffffffffffffff167ff4313cb022699889c6eddb590e42342301cdae4824fd424ffdfdeb23d4cdbbe98484846040516105b593929190612599565b60405180910390a2505050565b5f73ffffffffffffffffffffffffffffffffffffffff165f803373ffffffffffffffffffffffffffffffffffffffff1673ffffffffffffffffffffffffffffffffffffffff1681526020019081526020015f206001015f9054906101000a900473ffffffffffffffffffffffffffffffffffffffff1673ffffffffffffffffffffffffffffffffffffffff160361068e576040517f08c379a0000000000000000000000000000000000000000000000000000000008152600401610685906121a7565b60405180910390fd5b5f8251116106d1576040517f08c379a00000000000000000000000000000000000000000000000000000000081526004016106c89061261f565b60405180910390fd5b60405180606001604052808481526020018381526020018281525060035f3373ffffffffffffffffffffffffffffffffffffffff1673ffffffffffffffffffffffffffffffffffffffff1681526020019081526020015f205f820151815f01908161073c91906124bb565b50602082015181600101908161075291906124bb565b50604082015181600201908161076891906124bb565b509050503373ffffffffffffffffffffffffffffffffffffffff167f298e769f14d3266a2093cc631184150a9584b1b38c1fb1385be30e0665322bf28484846040516107b69392919061263d565b60405180910390a2505050565b5f815111610806576040517f08c379a00000000000000000000000000000000000000000000000000000000081526004016107fd906126d1565b60405180910390fd5b5f73ffffffffffffffffffffffffffffffffffffffff165f803373ffffffffffffffffffffffffffffffffffffffff1673ffffffffffffffffffffffffffffffffffffffff1681526020019081526020015f206001015f9054906101000a900473ffffffffffffffffffffffffffffffffffffffff1673ffffffffffffffffffffffffffffffffffffffff16036108d2576040517f08c379a00000000000000000000000000000000000000000000000000000000081526004016108c9906121a7565b60405180910390fd5b5f6108db6114ad565b9050818051906020012081805190602001200361092d576040517f08c379a000000000000000000000000000000000000000000000000000000000815260040161092490612739565b60405180910390fd5b815f803373ffffffffffffffffffffffffffffffffffffffff1673ffffffffffffffffffffffffffffffffffffffff1681526020019081526020015f205f01908161097891906124bb565b503373ffffffffffffffffffffffffffffffffffffffff167f1b7934654ba536b6962955e057ce42885353bbaad8c605a5ce0678e632f28410836040516109bf9190611e27565b60405180910390a25050565b5f815111610a0e576040517f08c379a0000000000000000000000000000000000000000000000000000000008152600401610a05906127a1565b60405180910390fd5b5f73ffffffffffffffffffffffffffffffffffffffff165f803373ffffffffffffffffffffffffffffffffffffffff1673ffffffffffffffffffffffffffffffffffffffff1681526020019081526020015f206001015f9054906101000a900473ffffffffffffffffffffffffffffffffffffffff1673ffffffffffffffffffffffffffffffffffffffff1614610ada576040517f08c379a0000000000000000000000000000000000000000000000000000000008152600401610ad19061282f565b60405180910390fd5b60405180604001604052808281526020013373ffffffffffffffffffffffffffffffffffffffff168152505f803373ffffffffffffffffffffffffffffffffffffffff1673ffffffffffffffffffffffffffffffffffffffff1681526020019081526020015f205f820151815f019081610b5491906124bb565b506020820151816001015f6101000a81548173ffffffffffffffffffffffffffffffffffffffff021916908373ffffffffffffffffffffffffffffffffffffffff1602179055509050503373ffffffffffffffffffffffffffffffffffffffff167f1b7934654ba536b6962955e057ce42885353bbaad8c605a5ce0678e632f2841082604051610be49190611e27565b60405180910390a250565b5f8073ffffffffffffffffffffffffffffffffffffffff165f803373ffffffffffffffffffffffffffffffffffffffff1673ffffffffffffffffffffffffffffffffffffffff1681526020019081526020015f206001015f9054906101000a900473ffffffffffffffffffffffffffffffffffffffff1673ffffffffffffffffffffffffffffffffffffffff1603610cbc576040517f08c379a0000000000000000000000000000000000000000000000000000000008152600401610cb3906121a7565b60405180910390fd5b5f60035f3373ffffffffffffffffffffffffffffffffffffffff1673ffffffffffffffffffffffffffffffffffffffff1681526020019081526020015f206040518060600160405290815f82018054610d1490611fed565b80601f0160208091040260200160405190810160405280929190818152602001828054610d4090611fed565b8015610d8b5780601f10610d6257610100808354040283529160200191610d8b565b820191905f5260205f20905b815481529060010190602001808311610d6e57829003601f168201915b50505050508152602001600182018054610da490611fed565b80601f0160208091040260200160405190810160405280929190818152602001828054610dd090611fed565b8015610e1b5780601f10610df257610100808354040283529160200191610e1b565b820191905f5260205f20905b815481529060010190602001808311610dfe57829003601f168201915b50505050508152602001600282018054610e3490611fed565b80601f0160208091040260200160405190810160405280929190818152602001828054610e6090611fed565b8015610eab5780601f10610e8257610100808354040283529160200191610eab565b820191905f5260205f20905b815481529060010190602001808311610e8e57829003601f168201915b50505050508152505090505f815f01518260200151604051602001610ed192919061284d565b60405160208183030381529060405280519060200120905080841492505050919050565b610efd611966565b5f73ffffffffffffffffffffffffffffffffffffffff165f803373ffffffffffffffffffffffffffffffffffffffff1673ffffffffffffffffffffffffffffffffffffffff1681526020019081526020015f206001015f9054906101000a900473ffffffffffffffffffffffffffffffffffffffff1673ffffffffffffffffffffffffffffffffffffffff1603610fc9576040517f08c379a0000000000000000000000000000000000000000000000000000000008152600401610fc0906121a7565b60405180910390fd5b60035f3373ffffffffffffffffffffffffffffffffffffffff1673ffffffffffffffffffffffffffffffffffffffff1681526020019081526020015f206040518060600160405290815f8201805461102090611fed565b80601f016020809104026020016040519081016040528092919081815260200182805461104c90611fed565b80156110975780601f1061106e57610100808354040283529160200191611097565b820191905f5260205f20905b81548152906001019060200180831161107a57829003601f168201915b505050505081526020016001820180546110b090611fed565b80601f01602080910402602001604051908101604052809291908181526020018280546110dc90611fed565b80156111275780601f106110fe57610100808354040283529160200191611127565b820191905f5260205f20905b81548152906001019060200180831161110a57829003601f168201915b5050505050815260200160028201805461114090611fed565b80601f016020809104026020016040519081016040528092919081815260200182805461116c90611fed565b80156111b75780601f1061118e576101008083540402835291602001916111b7565b820191905f5260205f20905b81548152906001019060200180831161119a57829003601f168201915b505050505081525050905090565b6040518060400160405280600781526020017f6d616e61676572000000000000000000000000000000000000000000000000008152508051906020012060015f3373ffffffffffffffffffffffffffffffffffffffff1673ffffffffffffffffffffffffffffffffffffffff1681526020019081526020015f2060405161124c91906120b9565b604051809103902014611294576040517f08c379a000000000000000000000000000000000000000000000000000000000815260040161128b90612119565b60405180910390fd5b5f73ffffffffffffffffffffffffffffffffffffffff165f803373ffffffffffffffffffffffffffffffffffffffff1673ffffffffffffffffffffffffffffffffffffffff1681526020019081526020015f206001015f9054906101000a900473ffffffffffffffffffffffffffffffffffffffff1673ffffffffffffffffffffffffffffffffffffffff1603611360576040517f08c379a0000000000000000000000000000000000000000000000000000000008152600401611357906121a7565b60405180910390fd5b5f8151116113a3576040517f08c379a000000000000000000000000000000000000000000000000000000000815260040161139a9061220f565b60405180910390fd5b8060015f8473ffffffffffffffffffffffffffffffffffffffff1673ffffffffffffffffffffffffffffffffffffffff1681526020019081526020015f2090816113ed91906124bb565b5060025f8373ffffffffffffffffffffffffffffffffffffffff1673ffffffffffffffffffffffffffffffffffffffff1681526020019081526020015f2081908060018154018082558091505060019003905f5260205f20015f90919091909150908161145a91906124bb565b508173ffffffffffffffffffffffffffffffffffffffff167f3565795c2fb8842c21347d277937778bbcfe788b5b4f790fc5e408786cbe9c90826040516114a19190611e27565b60405180910390a25050565b60605f73ffffffffffffffffffffffffffffffffffffffff165f803373ffffffffffffffffffffffffffffffffffffffff1673ffffffffffffffffffffffffffffffffffffffff1681526020019081526020015f206001015f9054906101000a900473ffffffffffffffffffffffffffffffffffffffff1673ffffffffffffffffffffffffffffffffffffffff160361157b576040517f08c379a0000000000000000000000000000000000000000000000000000000008152600401611572906128ba565b60405180910390fd5b5f803373ffffffffffffffffffffffffffffffffffffffff1673ffffffffffffffffffffffffffffffffffffffff1681526020019081526020015f205f0180546115c490611fed565b80601f01602080910402602001604051908101604052809291908181526020018280546115f090611fed565b801561163b5780601f106116125761010080835404028352916020019161163b565b820191905f5260205f20905b81548152906001019060200180831161161e57829003601f168201915b5050505050905090565b5f8073ffffffffffffffffffffffffffffffffffffffff165f803373ffffffffffffffffffffffffffffffffffffffff1673ffffffffffffffffffffffffffffffffffffffff1681526020019081526020015f206001015f9054906101000a900473ffffffffffffffffffffffffffffffffffffffff1673ffffffffffffffffffffffffffffffffffffffff1603611712576040517f08c379a0000000000000000000000000000000000000000000000000000000008152600401611709906121a7565b60405180910390fd5b828260405160200161172592919061284d565b60405160208183030381529060405280519060200120905092915050565b60605f73ffffffffffffffffffffffffffffffffffffffff165f803373ffffffffffffffffffffffffffffffffffffffff1673ffffffffffffffffffffffffffffffffffffffff1681526020019081526020015f206001015f9054906101000a900473ffffffffffffffffffffffffffffffffffffffff1673ffffffffffffffffffffffffffffffffffffffff1603611811576040517f08c379a0000000000000000000000000000000000000000000000000000000008152600401611808906121a7565b60405180910390fd5b5f60025f3373ffffffffffffffffffffffffffffffffffffffff1673ffffffffffffffffffffffffffffffffffffffff1681526020019081526020015f20805480602002602001604051908101604052809291908181526020015f905b82821015611916578382905f5260205f2001805461188b90611fed565b80601f01602080910402602001604051908101604052809291908181526020018280546118b790611fed565b80156119025780601f106118d957610100808354040283529160200191611902565b820191905f5260205f20905b8154815290600101906020018083116118e557829003601f168201915b50505050508152602001906001019061186e565b5050505090505f81511161195f576040517f08c379a000000000000000000000000000000000000000000000000000000000815260040161195690612922565b60405180910390fd5b8091505090565b60405180606001604052806060815260200160608152602001606081525090565b5f604051905090565b5f80fd5b5f80fd5b5f73ffffffffffffffffffffffffffffffffffffffff82169050919050565b5f6119c182611998565b9050919050565b6119d1816119b7565b81146119db575f80fd5b50565b5f813590506119ec816119c8565b92915050565b5f80fd5b5f80fd5b5f601f19601f8301169050919050565b7f4e487b71000000000000000000000000000000000000000000000000000000005f52604160045260245ffd5b611a40826119fa565b810181811067ffffffffffffffff82111715611a5f57611a5e611a0a565b5b80604052505050565b5f611a71611987565b9050611a7d8282611a37565b919050565b5f67ffffffffffffffff821115611a9c57611a9b611a0a565b5b611aa5826119fa565b9050602081019050919050565b828183375f83830152505050565b5f611ad2611acd84611a82565b611a68565b905082815260208101848484011115611aee57611aed6119f6565b5b611af9848285611ab2565b509392505050565b5f82601f830112611b1557611b146119f2565b5b8135611b25848260208601611ac0565b91505092915050565b5f8060408385031215611b4457611b43611990565b5b5f611b51858286016119de565b925050602083013567ffffffffffffffff811115611b7257611b71611994565b5b611b7e85828601611b01565b9150509250929050565b5f805f60608486031215611b9f57611b9e611990565b5b5f84013567ffffffffffffffff811115611bbc57611bbb611994565b5b611bc886828701611b01565b935050602084013567ffffffffffffffff811115611be957611be8611994565b5b611bf586828701611b01565b925050604084013567ffffffffffffffff811115611c1657611c15611994565b5b611c2286828701611b01565b9150509250925092565b5f60208284031215611c4157611c40611990565b5b5f82013567ffffffffffffffff811115611c5e57611c5d611994565b5b611c6a84828501611b01565b91505092915050565b5f819050919050565b611c8581611c73565b8114611c8f575f80fd5b50565b5f81359050611ca081611c7c565b92915050565b5f60208284031215611cbb57611cba611990565b5b5f611cc884828501611c92565b91505092915050565b5f8115159050919050565b611ce581611cd1565b82525050565b5f602082019050611cfe5f830184611cdc565b92915050565b5f81519050919050565b5f82825260208201905092915050565b8281835e5f83830152505050565b5f611d3682611d04565b611d408185611d0e565b9350611d50818560208601611d1e565b611d59816119fa565b840191505092915050565b5f606083015f8301518482035f860152611d7e8282611d2c565b91505060208301518482036020860152611d988282611d2c565b91505060408301518482036040860152611db28282611d2c565b9150508091505092915050565b5f6020820190508181035f830152611dd78184611d64565b905092915050565b5f82825260208201905092915050565b5f611df982611d04565b611e038185611ddf565b9350611e13818560208601611d1e565b611e1c816119fa565b840191505092915050565b5f6020820190508181035f830152611e3f8184611def565b905092915050565b5f8060408385031215611e5d57611e5c611990565b5b5f83013567ffffffffffffffff811115611e7a57611e79611994565b5b611e8685828601611b01565b925050602083013567ffffffffffffffff811115611ea757611ea6611994565b5b611eb385828601611b01565b9150509250929050565b611ec681611c73565b82525050565b5f602082019050611edf5f830184611ebd565b92915050565b5f81519050919050565b5f82825260208201905092915050565b5f819050602082019050919050565b5f611f198383611d2c565b905092915050565b5f602082019050919050565b5f611f3782611ee5565b611f418185611eef565b935083602082028501611f5385611eff565b805f5b85811015611f8e5784840389528151611f6f8582611f0e565b9450611f7a83611f21565b925060208a01995050600181019050611f56565b50829750879550505050505092915050565b5f6020820190508181035f830152611fb88184611f2d565b905092915050565b7f4e487b71000000000000000000000000000000000000000000000000000000005f52602260045260245ffd5b5f600282049050600182168061200457607f821691505b60208210810361201757612016611fc0565b5b50919050565b5f81905092915050565b5f819050815f5260205f209050919050565b5f815461204581611fed565b61204f818661201d565b9450600182165f8114612069576001811461207e576120b0565b60ff19831686528115158202860193506120b0565b61208785612027565b5f5b838110156120a857815481890152600182019150602081019050612089565b838801955050505b50505092915050565b5f6120c48284612039565b915081905092915050565b7f556e617574686f72697a656420616374696f6e000000000000000000000000005f82015250565b5f612103601383611ddf565b915061210e826120cf565b602082019050919050565b5f6020820190508181035f830152612130816120f7565b9050919050565b7f4e6f206578697374696e672044494420666f756e6420666f72207468697320615f8201527f6464726573730000000000000000000000000000000000000000000000000000602082015250565b5f612191602683611ddf565b915061219c82612137565b604082019050919050565b5f6020820190508181035f8301526121be81612185565b9050919050565b7f526f6c652063616e6e6f7420626520656d7074790000000000000000000000005f82015250565b5f6121f9601483611ddf565b9150612204826121c5565b602082019050919050565b5f6020820190508181035f830152612226816121ed565b9050919050565b5f8160601b9050919050565b5f6122438261222d565b9050919050565b5f61225482612239565b9050919050565b61226c612267826119b7565b61224a565b82525050565b5f81905092915050565b5f61228682611d04565b6122908185612272565b93506122a0818560208601611d1e565b80840191505092915050565b5f819050919050565b5f819050919050565b6122cf6122ca826122ac565b6122b5565b82525050565b5f6122e0828761225b565b6014820191506122f0828661225b565b601482019150612300828561227c565b915061230c82846122be565b60208201915081905095945050505050565b5f819050815f5260205f209050919050565b5f6020601f8301049050919050565b5f82821b905092915050565b5f6008830261237a7fffffffffffffffffffffffffffffffffffffffffffffffffffffffffffffffff8261233f565b612384868361233f565b95508019841693508086168417925050509392505050565b5f819050919050565b5f6123bf6123ba6123b5846122ac565b61239c565b6122ac565b9050919050565b5f819050919050565b6123d8836123a5565b6123ec6123e4826123c6565b84845461234b565b825550505050565b5f90565b6124006123f4565b61240b8184846123cf565b505050565b5b8181101561242e576124235f826123f8565b600181019050612411565b5050565b601f821115612473576124448161231e565b61244d84612330565b8101602085101561245c578190505b61247061246885612330565b830182612410565b50505b505050565b5f82821c905092915050565b5f6124935f1984600802612478565b1980831691505092915050565b5f6124ab8383612484565b9150826002028217905092915050565b6124c482611d04565b67ffffffffffffffff8111156124dd576124dc611a0a565b5b6124e78254611fed565b6124f2828285612432565b5f60209050601f831160018114612523575f8415612511578287015190505b61251b85826124a0565b865550612582565b601f1984166125318661231e565b5f5b8281101561255857848901518255600182019150602085019450602081019050612533565b868310156125755784890151612571601f891682612484565b8355505b6001600288020188555050505b505050505050565b612593816119b7565b82525050565b5f6060820190506125ac5f83018661258a565b81810360208301526125be8185611def565b90506125cd6040830184611ebd565b949350505050565b7f456d61696c2063616e6e6f7420626520656d70747900000000000000000000005f82015250565b5f612609601583611ddf565b9150612614826125d5565b602082019050919050565b5f6020820190508181035f830152612636816125fd565b9050919050565b5f6060820190508181035f8301526126558186611def565b905081810360208301526126698185611def565b9050818103604083015261267d8184611def565b9050949350505050565b7f4e6577206964656e7469666965722063616e6e6f7420626520656d70747900005f82015250565b5f6126bb601e83611ddf565b91506126c682612687565b602082019050919050565b5f6020820190508181035f8301526126e8816126af565b9050919050565b7f496e76616c6964206e6577206964656e746966696572000000000000000000005f82015250565b5f612723601683611ddf565b915061272e826126ef565b602082019050919050565b5f6020820190508181035f83015261275081612717565b9050919050565b7f4964656e7469666965722063616e6e6f7420626520656d7074790000000000005f82015250565b5f61278b601a83611ddf565b915061279682612757565b602082019050919050565b5f6020820190508181035f8301526127b88161277f565b9050919050565b7f44494420616c72656164792065786973747320666f72207468697320616464725f8201527f6573730000000000000000000000000000000000000000000000000000000000602082015250565b5f612819602383611ddf565b9150612824826127bf565b604082019050919050565b5f6020820190508181035f8301526128468161280d565b9050919050565b5f612858828561227c565b9150612864828461227c565b91508190509392505050565b7f4e6f2044494420666f756e6420666f72207468697320616464726573730000005f82015250565b5f6128a4601d83611ddf565b91506128af82612870565b602082019050919050565b5f6020820190508181035f8301526128d181612898565b9050919050565b7f4e6f20726f6c65732061737369676e656420666f7220746869732075736572005f82015250565b5f61290c601f83611ddf565b9150612917826128d8565b602082019050919050565b5f6020820190508181035f83015261293981612900565b905091905056fea26469706673582212207556f1c5a4738e7bd9939a5c05f65bab942df7eb9820125189a817f3d982578464736f6c634300081a0033",
					"opcodes": "PUSH1 0x80 PUSH1 0x40 MSTORE CALLVALUE DUP1 ISZERO PUSH2 0xF JUMPI PUSH0 DUP1 REVERT JUMPDEST POP PUSH1 0x40 MLOAD DUP1 PUSH1 0x40 ADD PUSH1 0x40 MSTORE DUP1 PUSH1 0x7 DUP2 MSTORE PUSH1 0x20 ADD PUSH32 0x6D616E6167657200000000000000000000000000000000000000000000000000 DUP2 MSTORE POP PUSH1 0x1 PUSH0 CALLER PUSH20 0xFFFFFFFFFFFFFFFFFFFFFFFFFFFFFFFFFFFFFFFF AND PUSH20 0xFFFFFFFFFFFFFFFFFFFFFFFFFFFFFFFFFFFFFFFF AND DUP2 MSTORE PUSH1 0x20 ADD SWAP1 DUP2 MSTORE PUSH1 0x20 ADD PUSH0 KECCAK256 SWAP1 DUP2 PUSH2 0x8F SWAP2 SWAP1 PUSH2 0x36E JUMP JUMPDEST POP PUSH1 0x2 PUSH0 CALLER PUSH20 0xFFFFFFFFFFFFFFFFFFFFFFFFFFFFFFFFFFFFFFFF AND PUSH20 0xFFFFFFFFFFFFFFFFFFFFFFFFFFFFFFFFFFFFFFFF AND DUP2 MSTORE PUSH1 0x20 ADD SWAP1 DUP2 MSTORE PUSH1 0x20 ADD PUSH0 KECCAK256 DUP1 PUSH1 0x1 DUP2 SLOAD ADD DUP1 DUP3 SSTORE DUP1 SWAP2 POP POP PUSH1 0x1 SWAP1 SUB SWAP1 PUSH0 MSTORE PUSH1 0x20 PUSH0 KECCAK256 ADD PUSH0 PUSH1 0x40 MLOAD DUP1 PUSH1 0x40 ADD PUSH1 0x40 MSTORE DUP1 PUSH1 0x7 DUP2 MSTORE PUSH1 0x20 ADD PUSH32 0x6D616E6167657200000000000000000000000000000000000000000000000000 DUP2 MSTORE POP SWAP1 SWAP2 SWAP1 SWAP2 POP SWAP1 DUP2 PUSH2 0x12E SWAP2 SWAP1 PUSH2 0x36E JUMP JUMPDEST POP PUSH2 0x43D JUMP JUMPDEST PUSH0 DUP2 MLOAD SWAP1 POP SWAP2 SWAP1 POP JUMP JUMPDEST PUSH32 0x4E487B7100000000000000000000000000000000000000000000000000000000 PUSH0 MSTORE PUSH1 0x41 PUSH1 0x4 MSTORE PUSH1 0x24 PUSH0 REVERT JUMPDEST PUSH32 0x4E487B7100000000000000000000000000000000000000000000000000000000 PUSH0 MSTORE PUSH1 0x22 PUSH1 0x4 MSTORE PUSH1 0x24 PUSH0 REVERT JUMPDEST PUSH0 PUSH1 0x2 DUP3 DIV SWAP1 POP PUSH1 0x1 DUP3 AND DUP1 PUSH2 0x1AF JUMPI PUSH1 0x7F DUP3 AND SWAP2 POP JUMPDEST PUSH1 0x20 DUP3 LT DUP2 SUB PUSH2 0x1C2 JUMPI PUSH2 0x1C1 PUSH2 0x16B JUMP JUMPDEST JUMPDEST POP SWAP2 SWAP1 POP JUMP JUMPDEST PUSH0 DUP2 SWAP1 POP DUP2 PUSH0 MSTORE PUSH1 0x20 PUSH0 KECCAK256 SWAP1 POP SWAP2 SWAP1 POP JUMP JUMPDEST PUSH0 PUSH1 0x20 PUSH1 0x1F DUP4 ADD DIV SWAP1 POP SWAP2 SWAP1 POP JUMP JUMPDEST PUSH0 DUP3 DUP3 SHL SWAP1 POP SWAP3 SWAP2 POP POP JUMP JUMPDEST PUSH0 PUSH1 0x8 DUP4 MUL PUSH2 0x224 PUSH32 0xFFFFFFFFFFFFFFFFFFFFFFFFFFFFFFFFFFFFFFFFFFFFFFFFFFFFFFFFFFFFFFFF DUP3 PUSH2 0x1E9 JUMP JUMPDEST PUSH2 0x22E DUP7 DUP4 PUSH2 0x1E9 JUMP JUMPDEST SWAP6 POP DUP1 NOT DUP5 AND SWAP4 POP DUP1 DUP7 AND DUP5 OR SWAP3 POP POP POP SWAP4 SWAP3 POP POP POP JUMP JUMPDEST PUSH0 DUP2 SWAP1 POP SWAP2 SWAP1 POP JUMP JUMPDEST PUSH0 DUP2 SWAP1 POP SWAP2 SWAP1 POP JUMP JUMPDEST PUSH0 PUSH2 0x272 PUSH2 0x26D PUSH2 0x268 DUP5 PUSH2 0x246 JUMP JUMPDEST PUSH2 0x24F JUMP JUMPDEST PUSH2 0x246 JUMP JUMPDEST SWAP1 POP SWAP2 SWAP1 POP JUMP JUMPDEST PUSH0 DUP2 SWAP1 POP SWAP2 SWAP1 POP JUMP JUMPDEST PUSH2 0x28B DUP4 PUSH2 0x258 JUMP JUMPDEST PUSH2 0x29F PUSH2 0x297 DUP3 PUSH2 0x279 JUMP JUMPDEST DUP5 DUP5 SLOAD PUSH2 0x1F5 JUMP JUMPDEST DUP3 SSTORE POP POP POP POP JUMP JUMPDEST PUSH0 SWAP1 JUMP JUMPDEST PUSH2 0x2B3 PUSH2 0x2A7 JUMP JUMPDEST PUSH2 0x2BE DUP2 DUP5 DUP5 PUSH2 0x282 JUMP JUMPDEST POP POP POP JUMP JUMPDEST JUMPDEST DUP2 DUP2 LT ISZERO PUSH2 0x2E1 JUMPI PUSH2 0x2D6 PUSH0 DUP3 PUSH2 0x2AB JUMP JUMPDEST PUSH1 0x1 DUP2 ADD SWAP1 POP PUSH2 0x2C4 JUMP JUMPDEST POP POP JUMP JUMPDEST PUSH1 0x1F DUP3 GT ISZERO PUSH2 0x326 JUMPI PUSH2 0x2F7 DUP2 PUSH2 0x1C8 JUMP JUMPDEST PUSH2 0x300 DUP5 PUSH2 0x1DA JUMP JUMPDEST DUP2 ADD PUSH1 0x20 DUP6 LT ISZERO PUSH2 0x30F JUMPI DUP2 SWAP1 POP JUMPDEST PUSH2 0x323 PUSH2 0x31B DUP6 PUSH2 0x1DA JUMP JUMPDEST DUP4 ADD DUP3 PUSH2 0x2C3 JUMP JUMPDEST POP POP JUMPDEST POP POP POP JUMP JUMPDEST PUSH0 DUP3 DUP3 SHR SWAP1 POP SWAP3 SWAP2 POP POP JUMP JUMPDEST PUSH0 PUSH2 0x346 PUSH0 NOT DUP5 PUSH1 0x8 MUL PUSH2 0x32B JUMP JUMPDEST NOT DUP1 DUP4 AND SWAP2 POP POP SWAP3 SWAP2 POP POP JUMP JUMPDEST PUSH0 PUSH2 0x35E DUP4 DUP4 PUSH2 0x337 JUMP JUMPDEST SWAP2 POP DUP3 PUSH1 0x2 MUL DUP3 OR SWAP1 POP SWAP3 SWAP2 POP POP JUMP JUMPDEST PUSH2 0x377 DUP3 PUSH2 0x134 JUMP JUMPDEST PUSH8 0xFFFFFFFFFFFFFFFF DUP2 GT ISZERO PUSH2 0x390 JUMPI PUSH2 0x38F PUSH2 0x13E JUMP JUMPDEST JUMPDEST PUSH2 0x39A DUP3 SLOAD PUSH2 0x198 JUMP JUMPDEST PUSH2 0x3A5 DUP3 DUP3 DUP6 PUSH2 0x2E5 JUMP JUMPDEST PUSH0 PUSH1 0x20 SWAP1 POP PUSH1 0x1F DUP4 GT PUSH1 0x1 DUP2 EQ PUSH2 0x3D6 JUMPI PUSH0 DUP5 ISZERO PUSH2 0x3C4 JUMPI DUP3 DUP8 ADD MLOAD SWAP1 POP JUMPDEST PUSH2 0x3CE DUP6 DUP3 PUSH2 0x353 JUMP JUMPDEST DUP7 SSTORE POP PUSH2 0x435 JUMP JUMPDEST PUSH1 0x1F NOT DUP5 AND PUSH2 0x3E4 DUP7 PUSH2 0x1C8 JUMP JUMPDEST PUSH0 JUMPDEST DUP3 DUP2 LT ISZERO PUSH2 0x40B JUMPI DUP5 DUP10 ADD MLOAD DUP3 SSTORE PUSH1 0x1 DUP3 ADD SWAP2 POP PUSH1 0x20 DUP6 ADD SWAP5 POP PUSH1 0x20 DUP2 ADD SWAP1 POP PUSH2 0x3E6 JUMP JUMPDEST DUP7 DUP4 LT ISZERO PUSH2 0x428 JUMPI DUP5 DUP10 ADD MLOAD PUSH2 0x424 PUSH1 0x1F DUP10 AND DUP3 PUSH2 0x337 JUMP JUMPDEST DUP4 SSTORE POP JUMPDEST PUSH1 0x1 PUSH1 0x2 DUP9 MUL ADD DUP9 SSTORE POP POP POP JUMPDEST POP POP POP POP POP POP JUMP JUMPDEST PUSH2 0x2976 DUP1 PUSH2 0x44A PUSH0 CODECOPY PUSH0 RETURN INVALID PUSH1 0x80 PUSH1 0x40 MSTORE CALLVALUE DUP1 ISZERO PUSH2 0xF JUMPI PUSH0 DUP1 REVERT JUMPDEST POP PUSH1 0x4 CALLDATASIZE LT PUSH2 0x9C JUMPI PUSH0 CALLDATALOAD PUSH1 0xE0 SHR DUP1 PUSH4 0x7A5B4F59 GT PUSH2 0x64 JUMPI DUP1 PUSH4 0x7A5B4F59 EQ PUSH2 0x140 JUMPI DUP1 PUSH4 0xB7DFCBEE EQ PUSH2 0x15E JUMPI DUP1 PUSH4 0xBC9C2D55 EQ PUSH2 0x17A JUMPI DUP1 PUSH4 0xE1E7A16E EQ PUSH2 0x198 JUMPI DUP1 PUSH4 0xFDE08174 EQ PUSH2 0x1C8 JUMPI PUSH2 0x9C JUMP JUMPDEST DUP1 PUSH4 0x22BF9C1 EQ PUSH2 0xA0 JUMPI DUP1 PUSH4 0x890D80C EQ PUSH2 0xBC JUMPI DUP1 PUSH4 0x14C95832 EQ PUSH2 0xD8 JUMPI DUP1 PUSH4 0x3457D3E2 EQ PUSH2 0xF4 JUMPI DUP1 PUSH4 0x4DBF87CC EQ PUSH2 0x110 JUMPI JUMPDEST PUSH0 DUP1 REVERT JUMPDEST PUSH2 0xBA PUSH1 0x4 DUP1 CALLDATASIZE SUB DUP2 ADD SWAP1 PUSH2 0xB5 SWAP2 SWAP1 PUSH2 0x1B2E JUMP JUMPDEST PUSH2 0x1E6 JUMP JUMPDEST STOP JUMPDEST PUSH2 0xD6 PUSH1 0x4 DUP1 CALLDATASIZE SUB DUP2 ADD SWAP1 PUSH2 0xD1 SWAP2 SWAP1 PUSH2 0x1B88 JUMP JUMPDEST PUSH2 0x5C2 JUMP JUMPDEST STOP JUMPDEST PUSH2 0xF2 PUSH1 0x4 DUP1 CALLDATASIZE SUB DUP2 ADD SWAP1 PUSH2 0xED SWAP2 SWAP1 PUSH2 0x1C2C JUMP JUMPDEST PUSH2 0x7C3 JUMP JUMPDEST STOP JUMPDEST PUSH2 0x10E PUSH1 0x4 DUP1 CALLDATASIZE SUB DUP2 ADD SWAP1 PUSH2 0x109 SWAP2 SWAP1 PUSH2 0x1C2C JUMP JUMPDEST PUSH2 0x9CB JUMP JUMPDEST STOP JUMPDEST PUSH2 0x12A PUSH1 0x4 DUP1 CALLDATASIZE SUB DUP2 ADD SWAP1 PUSH2 0x125 SWAP2 SWAP1 PUSH2 0x1CA6 JUMP JUMPDEST PUSH2 0xBEF JUMP JUMPDEST PUSH1 0x40 MLOAD PUSH2 0x137 SWAP2 SWAP1 PUSH2 0x1CEB JUMP JUMPDEST PUSH1 0x40 MLOAD DUP1 SWAP2 SUB SWAP1 RETURN JUMPDEST PUSH2 0x148 PUSH2 0xEF5 JUMP JUMPDEST PUSH1 0x40 MLOAD PUSH2 0x155 SWAP2 SWAP1 PUSH2 0x1DBF JUMP JUMPDEST PUSH1 0x40 MLOAD DUP1 SWAP2 SUB SWAP1 RETURN JUMPDEST PUSH2 0x178 PUSH1 0x4 DUP1 CALLDATASIZE SUB DUP2 ADD SWAP1 PUSH2 0x173 SWAP2 SWAP1 PUSH2 0x1B2E JUMP JUMPDEST PUSH2 0x11C5 JUMP JUMPDEST STOP JUMPDEST PUSH2 0x182 PUSH2 0x14AD JUMP JUMPDEST PUSH1 0x40 MLOAD PUSH2 0x18F SWAP2 SWAP1 PUSH2 0x1E27 JUMP JUMPDEST PUSH1 0x40 MLOAD DUP1 SWAP2 SUB SWAP1 RETURN JUMPDEST PUSH2 0x1B2 PUSH1 0x4 DUP1 CALLDATASIZE SUB DUP2 ADD SWAP1 PUSH2 0x1AD SWAP2 SWAP1 PUSH2 0x1E47 JUMP JUMPDEST PUSH2 0x1645 JUMP JUMPDEST PUSH1 0x40 MLOAD PUSH2 0x1BF SWAP2 SWAP1 PUSH2 0x1ECC JUMP JUMPDEST PUSH1 0x40 MLOAD DUP1 SWAP2 SUB SWAP1 RETURN JUMPDEST PUSH2 0x1D0 PUSH2 0x1743 JUMP JUMPDEST PUSH1 0x40 MLOAD PUSH2 0x1DD SWAP2 SWAP1 PUSH2 0x1FA0 JUMP JUMPDEST PUSH1 0x40 MLOAD DUP1 SWAP2 SUB SWAP1 RETURN JUMPDEST PUSH1 0x40 MLOAD DUP1 PUSH1 0x40 ADD PUSH1 0x40 MSTORE DUP1 PUSH1 0x7 DUP2 MSTORE PUSH1 0x20 ADD PUSH32 0x6D616E6167657200000000000000000000000000000000000000000000000000 DUP2 MSTORE POP DUP1 MLOAD SWAP1 PUSH1 0x20 ADD KECCAK256 PUSH1 0x1 PUSH0 CALLER PUSH20 0xFFFFFFFFFFFFFFFFFFFFFFFFFFFFFFFFFFFFFFFF AND PUSH20 0xFFFFFFFFFFFFFFFFFFFFFFFFFFFFFFFFFFFFFFFF AND DUP2 MSTORE PUSH1 0x20 ADD SWAP1 DUP2 MSTORE PUSH1 0x20 ADD PUSH0 KECCAK256 PUSH1 0x40 MLOAD PUSH2 0x26D SWAP2 SWAP1 PUSH2 0x20B9 JUMP JUMPDEST PUSH1 0x40 MLOAD DUP1 SWAP2 SUB SWAP1 KECCAK256 EQ PUSH2 0x2B5 JUMPI PUSH1 0x40 MLOAD PUSH32 0x8C379A000000000000000000000000000000000000000000000000000000000 DUP2 MSTORE PUSH1 0x4 ADD PUSH2 0x2AC SWAP1 PUSH2 0x2119 JUMP JUMPDEST PUSH1 0x40 MLOAD DUP1 SWAP2 SUB SWAP1 REVERT JUMPDEST PUSH0 PUSH20 0xFFFFFFFFFFFFFFFFFFFFFFFFFFFFFFFFFFFFFFFF AND PUSH0 DUP1 CALLER PUSH20 0xFFFFFFFFFFFFFFFFFFFFFFFFFFFFFFFFFFFFFFFF AND PUSH20 0xFFFFFFFFFFFFFFFFFFFFFFFFFFFFFFFFFFFFFFFF AND DUP2 MSTORE PUSH1 0x20 ADD SWAP1 DUP2 MSTORE PUSH1 0x20 ADD PUSH0 KECCAK256 PUSH1 0x1 ADD PUSH0 SWAP1 SLOAD SWAP1 PUSH2 0x100 EXP SWAP1 DIV PUSH20 0xFFFFFFFFFFFFFFFFFFFFFFFFFFFFFFFFFFFFFFFF AND PUSH20 0xFFFFFFFFFFFFFFFFFFFFFFFFFFFFFFFFFFFFFFFF AND SUB PUSH2 0x381 JUMPI PUSH1 0x40 MLOAD PUSH32 0x8C379A000000000000000000000000000000000000000000000000000000000 DUP2 MSTORE PUSH1 0x4 ADD PUSH2 0x378 SWAP1 PUSH2 0x21A7 JUMP JUMPDEST PUSH1 0x40 MLOAD DUP1 SWAP2 SUB SWAP1 REVERT JUMPDEST PUSH0 DUP2 MLOAD GT PUSH2 0x3C4 JUMPI PUSH1 0x40 MLOAD PUSH32 0x8C379A000000000000000000000000000000000000000000000000000000000 DUP2 MSTORE PUSH1 0x4 ADD PUSH2 0x3BB SWAP1 PUSH2 0x220F JUMP JUMPDEST PUSH1 0x40 MLOAD DUP1 SWAP2 SUB SWAP1 REVERT JUMPDEST PUSH0 CALLER DUP4 DUP4 TIMESTAMP PUSH1 0x40 MLOAD PUSH1 0x20 ADD PUSH2 0x3DC SWAP5 SWAP4 SWAP3 SWAP2 SWAP1 PUSH2 0x22D5 JUMP JUMPDEST PUSH1 0x40 MLOAD PUSH1 0x20 DUP2 DUP4 SUB SUB DUP2 MSTORE SWAP1 PUSH1 0x40 MSTORE DUP1 MLOAD SWAP1 PUSH1 0x20 ADD KECCAK256 SWAP1 POP PUSH1 0x4 PUSH0 DUP5 PUSH20 0xFFFFFFFFFFFFFFFFFFFFFFFFFFFFFFFFFFFFFFFF AND PUSH20 0xFFFFFFFFFFFFFFFFFFFFFFFFFFFFFFFFFFFFFFFF AND DUP2 MSTORE PUSH1 0x20 ADD SWAP1 DUP2 MSTORE PUSH1 0x20 ADD PUSH0 KECCAK256 PUSH1 0x40 MLOAD DUP1 PUSH1 0x80 ADD PUSH1 0x40 MSTORE DUP1 CALLER PUSH20 0xFFFFFFFFFFFFFFFFFFFFFFFFFFFFFFFFFFFFFFFF AND DUP2 MSTORE PUSH1 0x20 ADD DUP5 DUP2 MSTORE PUSH1 0x20 ADD DUP4 DUP2 MSTORE PUSH1 0x20 ADD TIMESTAMP DUP2 MSTORE POP SWAP1 DUP1 PUSH1 0x1 DUP2 SLOAD ADD DUP1 DUP3 SSTORE DUP1 SWAP2 POP POP PUSH1 0x1 SWAP1 SUB SWAP1 PUSH0 MSTORE PUSH1 0x20 PUSH0 KECCAK256 SWAP1 PUSH1 0x4 MUL ADD PUSH0 SWAP1 SWAP2 SWAP1 SWAP2 SWAP1 SWAP2 POP PUSH0 DUP3 ADD MLOAD DUP2 PUSH0 ADD PUSH0 PUSH2 0x100 EXP DUP2 SLOAD DUP2 PUSH20 0xFFFFFFFFFFFFFFFFFFFFFFFFFFFFFFFFFFFFFFFF MUL NOT AND SWAP1 DUP4 PUSH20 0xFFFFFFFFFFFFFFFFFFFFFFFFFFFFFFFFFFFFFFFF AND MUL OR SWAP1 SSTORE POP PUSH1 0x20 DUP3 ADD MLOAD DUP2 PUSH1 0x1 ADD SWAP1 DUP2 PUSH2 0x4E7 SWAP2 SWAP1 PUSH2 0x24BB JUMP JUMPDEST POP PUSH1 0x40 DUP3 ADD MLOAD DUP2 PUSH1 0x2 ADD SSTORE PUSH1 0x60 DUP3 ADD MLOAD DUP2 PUSH1 0x3 ADD SSTORE POP POP PUSH1 0x2 PUSH0 DUP5 PUSH20 0xFFFFFFFFFFFFFFFFFFFFFFFFFFFFFFFFFFFFFFFF AND PUSH20 0xFFFFFFFFFFFFFFFFFFFFFFFFFFFFFFFFFFFFFFFF AND DUP2 MSTORE PUSH1 0x20 ADD SWAP1 DUP2 MSTORE PUSH1 0x20 ADD PUSH0 KECCAK256 DUP3 SWAP1 DUP1 PUSH1 0x1 DUP2 SLOAD ADD DUP1 DUP3 SSTORE DUP1 SWAP2 POP POP PUSH1 0x1 SWAP1 SUB SWAP1 PUSH0 MSTORE PUSH1 0x20 PUSH0 KECCAK256 ADD PUSH0 SWAP1 SWAP2 SWAP1 SWAP2 SWAP1 SWAP2 POP SWAP1 DUP2 PUSH2 0x56A SWAP2 SWAP1 PUSH2 0x24BB JUMP JUMPDEST POP CALLER PUSH20 0xFFFFFFFFFFFFFFFFFFFFFFFFFFFFFFFFFFFFFFFF AND PUSH32 0xF4313CB022699889C6EDDB590E42342301CDAE4824FD424FFDFDEB23D4CDBBE9 DUP5 DUP5 DUP5 PUSH1 0x40 MLOAD PUSH2 0x5B5 SWAP4 SWAP3 SWAP2 SWAP1 PUSH2 0x2599 JUMP JUMPDEST PUSH1 0x40 MLOAD DUP1 SWAP2 SUB SWAP1 LOG2 POP POP POP JUMP JUMPDEST PUSH0 PUSH20 0xFFFFFFFFFFFFFFFFFFFFFFFFFFFFFFFFFFFFFFFF AND PUSH0 DUP1 CALLER PUSH20 0xFFFFFFFFFFFFFFFFFFFFFFFFFFFFFFFFFFFFFFFF AND PUSH20 0xFFFFFFFFFFFFFFFFFFFFFFFFFFFFFFFFFFFFFFFF AND DUP2 MSTORE PUSH1 0x20 ADD SWAP1 DUP2 MSTORE PUSH1 0x20 ADD PUSH0 KECCAK256 PUSH1 0x1 ADD PUSH0 SWAP1 SLOAD SWAP1 PUSH2 0x100 EXP SWAP1 DIV PUSH20 0xFFFFFFFFFFFFFFFFFFFFFFFFFFFFFFFFFFFFFFFF AND PUSH20 0xFFFFFFFFFFFFFFFFFFFFFFFFFFFFFFFFFFFFFFFF AND SUB PUSH2 0x68E JUMPI PUSH1 0x40 MLOAD PUSH32 0x8C379A000000000000000000000000000000000000000000000000000000000 DUP2 MSTORE PUSH1 0x4 ADD PUSH2 0x685 SWAP1 PUSH2 0x21A7 JUMP JUMPDEST PUSH1 0x40 MLOAD DUP1 SWAP2 SUB SWAP1 REVERT JUMPDEST PUSH0 DUP3 MLOAD GT PUSH2 0x6D1 JUMPI PUSH1 0x40 MLOAD PUSH32 0x8C379A000000000000000000000000000000000000000000000000000000000 DUP2 MSTORE PUSH1 0x4 ADD PUSH2 0x6C8 SWAP1 PUSH2 0x261F JUMP JUMPDEST PUSH1 0x40 MLOAD DUP1 SWAP2 SUB SWAP1 REVERT JUMPDEST PUSH1 0x40 MLOAD DUP1 PUSH1 0x60 ADD PUSH1 0x40 MSTORE DUP1 DUP5 DUP2 MSTORE PUSH1 0x20 ADD DUP4 DUP2 MSTORE PUSH1 0x20 ADD DUP3 DUP2 MSTORE POP PUSH1 0x3 PUSH0 CALLER PUSH20 0xFFFFFFFFFFFFFFFFFFFFFFFFFFFFFFFFFFFFFFFF AND PUSH20 0xFFFFFFFFFFFFFFFFFFFFFFFFFFFFFFFFFFFFFFFF AND DUP2 MSTORE PUSH1 0x20 ADD SWAP1 DUP2 MSTORE PUSH1 0x20 ADD PUSH0 KECCAK256 PUSH0 DUP3 ADD MLOAD DUP2 PUSH0 ADD SWAP1 DUP2 PUSH2 0x73C SWAP2 SWAP1 PUSH2 0x24BB JUMP JUMPDEST POP PUSH1 0x20 DUP3 ADD MLOAD DUP2 PUSH1 0x1 ADD SWAP1 DUP2 PUSH2 0x752 SWAP2 SWAP1 PUSH2 0x24BB JUMP JUMPDEST POP PUSH1 0x40 DUP3 ADD MLOAD DUP2 PUSH1 0x2 ADD SWAP1 DUP2 PUSH2 0x768 SWAP2 SWAP1 PUSH2 0x24BB JUMP JUMPDEST POP SWAP1 POP POP CALLER PUSH20 0xFFFFFFFFFFFFFFFFFFFFFFFFFFFFFFFFFFFFFFFF AND PUSH32 0x298E769F14D3266A2093CC631184150A9584B1B38C1FB1385BE30E0665322BF2 DUP5 DUP5 DUP5 PUSH1 0x40 MLOAD PUSH2 0x7B6 SWAP4 SWAP3 SWAP2 SWAP1 PUSH2 0x263D JUMP JUMPDEST PUSH1 0x40 MLOAD DUP1 SWAP2 SUB SWAP1 LOG2 POP POP POP JUMP JUMPDEST PUSH0 DUP2 MLOAD GT PUSH2 0x806 JUMPI PUSH1 0x40 MLOAD PUSH32 0x8C379A000000000000000000000000000000000000000000000000000000000 DUP2 MSTORE PUSH1 0x4 ADD PUSH2 0x7FD SWAP1 PUSH2 0x26D1 JUMP JUMPDEST PUSH1 0x40 MLOAD DUP1 SWAP2 SUB SWAP1 REVERT JUMPDEST PUSH0 PUSH20 0xFFFFFFFFFFFFFFFFFFFFFFFFFFFFFFFFFFFFFFFF AND PUSH0 DUP1 CALLER PUSH20 0xFFFFFFFFFFFFFFFFFFFFFFFFFFFFFFFFFFFFFFFF AND PUSH20 0xFFFFFFFFFFFFFFFFFFFFFFFFFFFFFFFFFFFFFFFF AND DUP2 MSTORE PUSH1 0x20 ADD SWAP1 DUP2 MSTORE PUSH1 0x20 ADD PUSH0 KECCAK256 PUSH1 0x1 ADD PUSH0 SWAP1 SLOAD SWAP1 PUSH2 0x100 EXP SWAP1 DIV PUSH20 0xFFFFFFFFFFFFFFFFFFFFFFFFFFFFFFFFFFFFFFFF AND PUSH20 0xFFFFFFFFFFFFFFFFFFFFFFFFFFFFFFFFFFFFFFFF AND SUB PUSH2 0x8D2 JUMPI PUSH1 0x40 MLOAD PUSH32 0x8C379A000000000000000000000000000000000000000000000000000000000 DUP2 MSTORE PUSH1 0x4 ADD PUSH2 0x8C9 SWAP1 PUSH2 0x21A7 JUMP JUMPDEST PUSH1 0x40 MLOAD DUP1 SWAP2 SUB SWAP1 REVERT JUMPDEST PUSH0 PUSH2 0x8DB PUSH2 0x14AD JUMP JUMPDEST SWAP1 POP DUP2 DUP1 MLOAD SWAP1 PUSH1 0x20 ADD KECCAK256 DUP2 DUP1 MLOAD SWAP1 PUSH1 0x20 ADD KECCAK256 SUB PUSH2 0x92D JUMPI PUSH1 0x40 MLOAD PUSH32 0x8C379A000000000000000000000000000000000000000000000000000000000 DUP2 MSTORE PUSH1 0x4 ADD PUSH2 0x924 SWAP1 PUSH2 0x2739 JUMP JUMPDEST PUSH1 0x40 MLOAD DUP1 SWAP2 SUB SWAP1 REVERT JUMPDEST DUP2 PUSH0 DUP1 CALLER PUSH20 0xFFFFFFFFFFFFFFFFFFFFFFFFFFFFFFFFFFFFFFFF AND PUSH20 0xFFFFFFFFFFFFFFFFFFFFFFFFFFFFFFFFFFFFFFFF AND DUP2 MSTORE PUSH1 0x20 ADD SWAP1 DUP2 MSTORE PUSH1 0x20 ADD PUSH0 KECCAK256 PUSH0 ADD SWAP1 DUP2 PUSH2 0x978 SWAP2 SWAP1 PUSH2 0x24BB JUMP JUMPDEST POP CALLER PUSH20 0xFFFFFFFFFFFFFFFFFFFFFFFFFFFFFFFFFFFFFFFF AND PUSH32 0x1B7934654BA536B6962955E057CE42885353BBAAD8C605A5CE0678E632F28410 DUP4 PUSH1 0x40 MLOAD PUSH2 0x9BF SWAP2 SWAP1 PUSH2 0x1E27 JUMP JUMPDEST PUSH1 0x40 MLOAD DUP1 SWAP2 SUB SWAP1 LOG2 POP POP JUMP JUMPDEST PUSH0 DUP2 MLOAD GT PUSH2 0xA0E JUMPI PUSH1 0x40 MLOAD PUSH32 0x8C379A000000000000000000000000000000000000000000000000000000000 DUP2 MSTORE PUSH1 0x4 ADD PUSH2 0xA05 SWAP1 PUSH2 0x27A1 JUMP JUMPDEST PUSH1 0x40 MLOAD DUP1 SWAP2 SUB SWAP1 REVERT JUMPDEST PUSH0 PUSH20 0xFFFFFFFFFFFFFFFFFFFFFFFFFFFFFFFFFFFFFFFF AND PUSH0 DUP1 CALLER PUSH20 0xFFFFFFFFFFFFFFFFFFFFFFFFFFFFFFFFFFFFFFFF AND PUSH20 0xFFFFFFFFFFFFFFFFFFFFFFFFFFFFFFFFFFFFFFFF AND DUP2 MSTORE PUSH1 0x20 ADD SWAP1 DUP2 MSTORE PUSH1 0x20 ADD PUSH0 KECCAK256 PUSH1 0x1 ADD PUSH0 SWAP1 SLOAD SWAP1 PUSH2 0x100 EXP SWAP1 DIV PUSH20 0xFFFFFFFFFFFFFFFFFFFFFFFFFFFFFFFFFFFFFFFF AND PUSH20 0xFFFFFFFFFFFFFFFFFFFFFFFFFFFFFFFFFFFFFFFF AND EQ PUSH2 0xADA JUMPI PUSH1 0x40 MLOAD PUSH32 0x8C379A000000000000000000000000000000000000000000000000000000000 DUP2 MSTORE PUSH1 0x4 ADD PUSH2 0xAD1 SWAP1 PUSH2 0x282F JUMP JUMPDEST PUSH1 0x40 MLOAD DUP1 SWAP2 SUB SWAP1 REVERT JUMPDEST PUSH1 0x40 MLOAD DUP1 PUSH1 0x40 ADD PUSH1 0x40 MSTORE DUP1 DUP3 DUP2 MSTORE PUSH1 0x20 ADD CALLER PUSH20 0xFFFFFFFFFFFFFFFFFFFFFFFFFFFFFFFFFFFFFFFF AND DUP2 MSTORE POP PUSH0 DUP1 CALLER PUSH20 0xFFFFFFFFFFFFFFFFFFFFFFFFFFFFFFFFFFFFFFFF AND PUSH20 0xFFFFFFFFFFFFFFFFFFFFFFFFFFFFFFFFFFFFFFFF AND DUP2 MSTORE PUSH1 0x20 ADD SWAP1 DUP2 MSTORE PUSH1 0x20 ADD PUSH0 KECCAK256 PUSH0 DUP3 ADD MLOAD DUP2 PUSH0 ADD SWAP1 DUP2 PUSH2 0xB54 SWAP2 SWAP1 PUSH2 0x24BB JUMP JUMPDEST POP PUSH1 0x20 DUP3 ADD MLOAD DUP2 PUSH1 0x1 ADD PUSH0 PUSH2 0x100 EXP DUP2 SLOAD DUP2 PUSH20 0xFFFFFFFFFFFFFFFFFFFFFFFFFFFFFFFFFFFFFFFF MUL NOT AND SWAP1 DUP4 PUSH20 0xFFFFFFFFFFFFFFFFFFFFFFFFFFFFFFFFFFFFFFFF AND MUL OR SWAP1 SSTORE POP SWAP1 POP POP CALLER PUSH20 0xFFFFFFFFFFFFFFFFFFFFFFFFFFFFFFFFFFFFFFFF AND PUSH32 0x1B7934654BA536B6962955E057CE42885353BBAAD8C605A5CE0678E632F28410 DUP3 PUSH1 0x40 MLOAD PUSH2 0xBE4 SWAP2 SWAP1 PUSH2 0x1E27 JUMP JUMPDEST PUSH1 0x40 MLOAD DUP1 SWAP2 SUB SWAP1 LOG2 POP JUMP JUMPDEST PUSH0 DUP1 PUSH20 0xFFFFFFFFFFFFFFFFFFFFFFFFFFFFFFFFFFFFFFFF AND PUSH0 DUP1 CALLER PUSH20 0xFFFFFFFFFFFFFFFFFFFFFFFFFFFFFFFFFFFFFFFF AND PUSH20 0xFFFFFFFFFFFFFFFFFFFFFFFFFFFFFFFFFFFFFFFF AND DUP2 MSTORE PUSH1 0x20 ADD SWAP1 DUP2 MSTORE PUSH1 0x20 ADD PUSH0 KECCAK256 PUSH1 0x1 ADD PUSH0 SWAP1 SLOAD SWAP1 PUSH2 0x100 EXP SWAP1 DIV PUSH20 0xFFFFFFFFFFFFFFFFFFFFFFFFFFFFFFFFFFFFFFFF AND PUSH20 0xFFFFFFFFFFFFFFFFFFFFFFFFFFFFFFFFFFFFFFFF AND SUB PUSH2 0xCBC JUMPI PUSH1 0x40 MLOAD PUSH32 0x8C379A000000000000000000000000000000000000000000000000000000000 DUP2 MSTORE PUSH1 0x4 ADD PUSH2 0xCB3 SWAP1 PUSH2 0x21A7 JUMP JUMPDEST PUSH1 0x40 MLOAD DUP1 SWAP2 SUB SWAP1 REVERT JUMPDEST PUSH0 PUSH1 0x3 PUSH0 CALLER PUSH20 0xFFFFFFFFFFFFFFFFFFFFFFFFFFFFFFFFFFFFFFFF AND PUSH20 0xFFFFFFFFFFFFFFFFFFFFFFFFFFFFFFFFFFFFFFFF AND DUP2 MSTORE PUSH1 0x20 ADD SWAP1 DUP2 MSTORE PUSH1 0x20 ADD PUSH0 KECCAK256 PUSH1 0x40 MLOAD DUP1 PUSH1 0x60 ADD PUSH1 0x40 MSTORE SWAP1 DUP2 PUSH0 DUP3 ADD DUP1 SLOAD PUSH2 0xD14 SWAP1 PUSH2 0x1FED JUMP JUMPDEST DUP1 PUSH1 0x1F ADD PUSH1 0x20 DUP1 SWAP2 DIV MUL PUSH1 0x20 ADD PUSH1 0x40 MLOAD SWAP1 DUP2 ADD PUSH1 0x40 MSTORE DUP1 SWAP3 SWAP2 SWAP1 DUP2 DUP2 MSTORE PUSH1 0x20 ADD DUP3 DUP1 SLOAD PUSH2 0xD40 SWAP1 PUSH2 0x1FED JUMP JUMPDEST DUP1 ISZERO PUSH2 0xD8B JUMPI DUP1 PUSH1 0x1F LT PUSH2 0xD62 JUMPI PUSH2 0x100 DUP1 DUP4 SLOAD DIV MUL DUP4 MSTORE SWAP2 PUSH1 0x20 ADD SWAP2 PUSH2 0xD8B JUMP JUMPDEST DUP3 ADD SWAP2 SWAP1 PUSH0 MSTORE PUSH1 0x20 PUSH0 KECCAK256 SWAP1 JUMPDEST DUP2 SLOAD DUP2 MSTORE SWAP1 PUSH1 0x1 ADD SWAP1 PUSH1 0x20 ADD DUP1 DUP4 GT PUSH2 0xD6E JUMPI DUP3 SWAP1 SUB PUSH1 0x1F AND DUP3 ADD SWAP2 JUMPDEST POP POP POP POP POP DUP2 MSTORE PUSH1 0x20 ADD PUSH1 0x1 DUP3 ADD DUP1 SLOAD PUSH2 0xDA4 SWAP1 PUSH2 0x1FED JUMP JUMPDEST DUP1 PUSH1 0x1F ADD PUSH1 0x20 DUP1 SWAP2 DIV MUL PUSH1 0x20 ADD PUSH1 0x40 MLOAD SWAP1 DUP2 ADD PUSH1 0x40 MSTORE DUP1 SWAP3 SWAP2 SWAP1 DUP2 DUP2 MSTORE PUSH1 0x20 ADD DUP3 DUP1 SLOAD PUSH2 0xDD0 SWAP1 PUSH2 0x1FED JUMP JUMPDEST DUP1 ISZERO PUSH2 0xE1B JUMPI DUP1 PUSH1 0x1F LT PUSH2 0xDF2 JUMPI PUSH2 0x100 DUP1 DUP4 SLOAD DIV MUL DUP4 MSTORE SWAP2 PUSH1 0x20 ADD SWAP2 PUSH2 0xE1B JUMP JUMPDEST DUP3 ADD SWAP2 SWAP1 PUSH0 MSTORE PUSH1 0x20 PUSH0 KECCAK256 SWAP1 JUMPDEST DUP2 SLOAD DUP2 MSTORE SWAP1 PUSH1 0x1 ADD SWAP1 PUSH1 0x20 ADD DUP1 DUP4 GT PUSH2 0xDFE JUMPI DUP3 SWAP1 SUB PUSH1 0x1F AND DUP3 ADD SWAP2 JUMPDEST POP POP POP POP POP DUP2 MSTORE PUSH1 0x20 ADD PUSH1 0x2 DUP3 ADD DUP1 SLOAD PUSH2 0xE34 SWAP1 PUSH2 0x1FED JUMP JUMPDEST DUP1 PUSH1 0x1F ADD PUSH1 0x20 DUP1 SWAP2 DIV MUL PUSH1 0x20 ADD PUSH1 0x40 MLOAD SWAP1 DUP2 ADD PUSH1 0x40 MSTORE DUP1 SWAP3 SWAP2 SWAP1 DUP2 DUP2 MSTORE PUSH1 0x20 ADD DUP3 DUP1 SLOAD PUSH2 0xE60 SWAP1 PUSH2 0x1FED JUMP JUMPDEST DUP1 ISZERO PUSH2 0xEAB JUMPI DUP1 PUSH1 0x1F LT PUSH2 0xE82 JUMPI PUSH2 0x100 DUP1 DUP4 SLOAD DIV MUL DUP4 MSTORE SWAP2 PUSH1 0x20 ADD SWAP2 PUSH2 0xEAB JUMP JUMPDEST DUP3 ADD SWAP2 SWAP1 PUSH0 MSTORE PUSH1 0x20 PUSH0 KECCAK256 SWAP1 JUMPDEST DUP2 SLOAD DUP2 MSTORE SWAP1 PUSH1 0x1 ADD SWAP1 PUSH1 0x20 ADD DUP1 DUP4 GT PUSH2 0xE8E JUMPI DUP3 SWAP1 SUB PUSH1 0x1F AND DUP3 ADD SWAP2 JUMPDEST POP POP POP POP POP DUP2 MSTORE POP POP SWAP1 POP PUSH0 DUP2 PUSH0 ADD MLOAD DUP3 PUSH1 0x20 ADD MLOAD PUSH1 0x40 MLOAD PUSH1 0x20 ADD PUSH2 0xED1 SWAP3 SWAP2 SWAP1 PUSH2 0x284D JUMP JUMPDEST PUSH1 0x40 MLOAD PUSH1 0x20 DUP2 DUP4 SUB SUB DUP2 MSTORE SWAP1 PUSH1 0x40 MSTORE DUP1 MLOAD SWAP1 PUSH1 0x20 ADD KECCAK256 SWAP1 POP DUP1 DUP5 EQ SWAP3 POP POP POP SWAP2 SWAP1 POP JUMP JUMPDEST PUSH2 0xEFD PUSH2 0x1966 JUMP JUMPDEST PUSH0 PUSH20 0xFFFFFFFFFFFFFFFFFFFFFFFFFFFFFFFFFFFFFFFF AND PUSH0 DUP1 CALLER PUSH20 0xFFFFFFFFFFFFFFFFFFFFFFFFFFFFFFFFFFFFFFFF AND PUSH20 0xFFFFFFFFFFFFFFFFFFFFFFFFFFFFFFFFFFFFFFFF AND DUP2 MSTORE PUSH1 0x20 ADD SWAP1 DUP2 MSTORE PUSH1 0x20 ADD PUSH0 KECCAK256 PUSH1 0x1 ADD PUSH0 SWAP1 SLOAD SWAP1 PUSH2 0x100 EXP SWAP1 DIV PUSH20 0xFFFFFFFFFFFFFFFFFFFFFFFFFFFFFFFFFFFFFFFF AND PUSH20 0xFFFFFFFFFFFFFFFFFFFFFFFFFFFFFFFFFFFFFFFF AND SUB PUSH2 0xFC9 JUMPI PUSH1 0x40 MLOAD PUSH32 0x8C379A000000000000000000000000000000000000000000000000000000000 DUP2 MSTORE PUSH1 0x4 ADD PUSH2 0xFC0 SWAP1 PUSH2 0x21A7 JUMP JUMPDEST PUSH1 0x40 MLOAD DUP1 SWAP2 SUB SWAP1 REVERT JUMPDEST PUSH1 0x3 PUSH0 CALLER PUSH20 0xFFFFFFFFFFFFFFFFFFFFFFFFFFFFFFFFFFFFFFFF AND PUSH20 0xFFFFFFFFFFFFFFFFFFFFFFFFFFFFFFFFFFFFFFFF AND DUP2 MSTORE PUSH1 0x20 ADD SWAP1 DUP2 MSTORE PUSH1 0x20 ADD PUSH0 KECCAK256 PUSH1 0x40 MLOAD DUP1 PUSH1 0x60 ADD PUSH1 0x40 MSTORE SWAP1 DUP2 PUSH0 DUP3 ADD DUP1 SLOAD PUSH2 0x1020 SWAP1 PUSH2 0x1FED JUMP JUMPDEST DUP1 PUSH1 0x1F ADD PUSH1 0x20 DUP1 SWAP2 DIV MUL PUSH1 0x20 ADD PUSH1 0x40 MLOAD SWAP1 DUP2 ADD PUSH1 0x40 MSTORE DUP1 SWAP3 SWAP2 SWAP1 DUP2 DUP2 MSTORE PUSH1 0x20 ADD DUP3 DUP1 SLOAD PUSH2 0x104C SWAP1 PUSH2 0x1FED JUMP JUMPDEST DUP1 ISZERO PUSH2 0x1097 JUMPI DUP1 PUSH1 0x1F LT PUSH2 0x106E JUMPI PUSH2 0x100 DUP1 DUP4 SLOAD DIV MUL DUP4 MSTORE SWAP2 PUSH1 0x20 ADD SWAP2 PUSH2 0x1097 JUMP JUMPDEST DUP3 ADD SWAP2 SWAP1 PUSH0 MSTORE PUSH1 0x20 PUSH0 KECCAK256 SWAP1 JUMPDEST DUP2 SLOAD DUP2 MSTORE SWAP1 PUSH1 0x1 ADD SWAP1 PUSH1 0x20 ADD DUP1 DUP4 GT PUSH2 0x107A JUMPI DUP3 SWAP1 SUB PUSH1 0x1F AND DUP3 ADD SWAP2 JUMPDEST POP POP POP POP POP DUP2 MSTORE PUSH1 0x20 ADD PUSH1 0x1 DUP3 ADD DUP1 SLOAD PUSH2 0x10B0 SWAP1 PUSH2 0x1FED JUMP JUMPDEST DUP1 PUSH1 0x1F ADD PUSH1 0x20 DUP1 SWAP2 DIV MUL PUSH1 0x20 ADD PUSH1 0x40 MLOAD SWAP1 DUP2 ADD PUSH1 0x40 MSTORE DUP1 SWAP3 SWAP2 SWAP1 DUP2 DUP2 MSTORE PUSH1 0x20 ADD DUP3 DUP1 SLOAD PUSH2 0x10DC SWAP1 PUSH2 0x1FED JUMP JUMPDEST DUP1 ISZERO PUSH2 0x1127 JUMPI DUP1 PUSH1 0x1F LT PUSH2 0x10FE JUMPI PUSH2 0x100 DUP1 DUP4 SLOAD DIV MUL DUP4 MSTORE SWAP2 PUSH1 0x20 ADD SWAP2 PUSH2 0x1127 JUMP JUMPDEST DUP3 ADD SWAP2 SWAP1 PUSH0 MSTORE PUSH1 0x20 PUSH0 KECCAK256 SWAP1 JUMPDEST DUP2 SLOAD DUP2 MSTORE SWAP1 PUSH1 0x1 ADD SWAP1 PUSH1 0x20 ADD DUP1 DUP4 GT PUSH2 0x110A JUMPI DUP3 SWAP1 SUB PUSH1 0x1F AND DUP3 ADD SWAP2 JUMPDEST POP POP POP POP POP DUP2 MSTORE PUSH1 0x20 ADD PUSH1 0x2 DUP3 ADD DUP1 SLOAD PUSH2 0x1140 SWAP1 PUSH2 0x1FED JUMP JUMPDEST DUP1 PUSH1 0x1F ADD PUSH1 0x20 DUP1 SWAP2 DIV MUL PUSH1 0x20 ADD PUSH1 0x40 MLOAD SWAP1 DUP2 ADD PUSH1 0x40 MSTORE DUP1 SWAP3 SWAP2 SWAP1 DUP2 DUP2 MSTORE PUSH1 0x20 ADD DUP3 DUP1 SLOAD PUSH2 0x116C SWAP1 PUSH2 0x1FED JUMP JUMPDEST DUP1 ISZERO PUSH2 0x11B7 JUMPI DUP1 PUSH1 0x1F LT PUSH2 0x118E JUMPI PUSH2 0x100 DUP1 DUP4 SLOAD DIV MUL DUP4 MSTORE SWAP2 PUSH1 0x20 ADD SWAP2 PUSH2 0x11B7 JUMP JUMPDEST DUP3 ADD SWAP2 SWAP1 PUSH0 MSTORE PUSH1 0x20 PUSH0 KECCAK256 SWAP1 JUMPDEST DUP2 SLOAD DUP2 MSTORE SWAP1 PUSH1 0x1 ADD SWAP1 PUSH1 0x20 ADD DUP1 DUP4 GT PUSH2 0x119A JUMPI DUP3 SWAP1 SUB PUSH1 0x1F AND DUP3 ADD SWAP2 JUMPDEST POP POP POP POP POP DUP2 MSTORE POP POP SWAP1 POP SWAP1 JUMP JUMPDEST PUSH1 0x40 MLOAD DUP1 PUSH1 0x40 ADD PUSH1 0x40 MSTORE DUP1 PUSH1 0x7 DUP2 MSTORE PUSH1 0x20 ADD PUSH32 0x6D616E6167657200000000000000000000000000000000000000000000000000 DUP2 MSTORE POP DUP1 MLOAD SWAP1 PUSH1 0x20 ADD KECCAK256 PUSH1 0x1 PUSH0 CALLER PUSH20 0xFFFFFFFFFFFFFFFFFFFFFFFFFFFFFFFFFFFFFFFF AND PUSH20 0xFFFFFFFFFFFFFFFFFFFFFFFFFFFFFFFFFFFFFFFF AND DUP2 MSTORE PUSH1 0x20 ADD SWAP1 DUP2 MSTORE PUSH1 0x20 ADD PUSH0 KECCAK256 PUSH1 0x40 MLOAD PUSH2 0x124C SWAP2 SWAP1 PUSH2 0x20B9 JUMP JUMPDEST PUSH1 0x40 MLOAD DUP1 SWAP2 SUB SWAP1 KECCAK256 EQ PUSH2 0x1294 JUMPI PUSH1 0x40 MLOAD PUSH32 0x8C379A000000000000000000000000000000000000000000000000000000000 DUP2 MSTORE PUSH1 0x4 ADD PUSH2 0x128B SWAP1 PUSH2 0x2119 JUMP JUMPDEST PUSH1 0x40 MLOAD DUP1 SWAP2 SUB SWAP1 REVERT JUMPDEST PUSH0 PUSH20 0xFFFFFFFFFFFFFFFFFFFFFFFFFFFFFFFFFFFFFFFF AND PUSH0 DUP1 CALLER PUSH20 0xFFFFFFFFFFFFFFFFFFFFFFFFFFFFFFFFFFFFFFFF AND PUSH20 0xFFFFFFFFFFFFFFFFFFFFFFFFFFFFFFFFFFFFFFFF AND DUP2 MSTORE PUSH1 0x20 ADD SWAP1 DUP2 MSTORE PUSH1 0x20 ADD PUSH0 KECCAK256 PUSH1 0x1 ADD PUSH0 SWAP1 SLOAD SWAP1 PUSH2 0x100 EXP SWAP1 DIV PUSH20 0xFFFFFFFFFFFFFFFFFFFFFFFFFFFFFFFFFFFFFFFF AND PUSH20 0xFFFFFFFFFFFFFFFFFFFFFFFFFFFFFFFFFFFFFFFF AND SUB PUSH2 0x1360 JUMPI PUSH1 0x40 MLOAD PUSH32 0x8C379A000000000000000000000000000000000000000000000000000000000 DUP2 MSTORE PUSH1 0x4 ADD PUSH2 0x1357 SWAP1 PUSH2 0x21A7 JUMP JUMPDEST PUSH1 0x40 MLOAD DUP1 SWAP2 SUB SWAP1 REVERT JUMPDEST PUSH0 DUP2 MLOAD GT PUSH2 0x13A3 JUMPI PUSH1 0x40 MLOAD PUSH32 0x8C379A000000000000000000000000000000000000000000000000000000000 DUP2 MSTORE PUSH1 0x4 ADD PUSH2 0x139A SWAP1 PUSH2 0x220F JUMP JUMPDEST PUSH1 0x40 MLOAD DUP1 SWAP2 SUB SWAP1 REVERT JUMPDEST DUP1 PUSH1 0x1 PUSH0 DUP5 PUSH20 0xFFFFFFFFFFFFFFFFFFFFFFFFFFFFFFFFFFFFFFFF AND PUSH20 0xFFFFFFFFFFFFFFFFFFFFFFFFFFFFFFFFFFFFFFFF AND DUP2 MSTORE PUSH1 0x20 ADD SWAP1 DUP2 MSTORE PUSH1 0x20 ADD PUSH0 KECCAK256 SWAP1 DUP2 PUSH2 0x13ED SWAP2 SWAP1 PUSH2 0x24BB JUMP JUMPDEST POP PUSH1 0x2 PUSH0 DUP4 PUSH20 0xFFFFFFFFFFFFFFFFFFFFFFFFFFFFFFFFFFFFFFFF AND PUSH20 0xFFFFFFFFFFFFFFFFFFFFFFFFFFFFFFFFFFFFFFFF AND DUP2 MSTORE PUSH1 0x20 ADD SWAP1 DUP2 MSTORE PUSH1 0x20 ADD PUSH0 KECCAK256 DUP2 SWAP1 DUP1 PUSH1 0x1 DUP2 SLOAD ADD DUP1 DUP3 SSTORE DUP1 SWAP2 POP POP PUSH1 0x1 SWAP1 SUB SWAP1 PUSH0 MSTORE PUSH1 0x20 PUSH0 KECCAK256 ADD PUSH0 SWAP1 SWAP2 SWAP1 SWAP2 SWAP1 SWAP2 POP SWAP1 DUP2 PUSH2 0x145A SWAP2 SWAP1 PUSH2 0x24BB JUMP JUMPDEST POP DUP2 PUSH20 0xFFFFFFFFFFFFFFFFFFFFFFFFFFFFFFFFFFFFFFFF AND PUSH32 0x3565795C2FB8842C21347D277937778BBCFE788B5B4F790FC5E408786CBE9C90 DUP3 PUSH1 0x40 MLOAD PUSH2 0x14A1 SWAP2 SWAP1 PUSH2 0x1E27 JUMP JUMPDEST PUSH1 0x40 MLOAD DUP1 SWAP2 SUB SWAP1 LOG2 POP POP JUMP JUMPDEST PUSH1 0x60 PUSH0 PUSH20 0xFFFFFFFFFFFFFFFFFFFFFFFFFFFFFFFFFFFFFFFF AND PUSH0 DUP1 CALLER PUSH20 0xFFFFFFFFFFFFFFFFFFFFFFFFFFFFFFFFFFFFFFFF AND PUSH20 0xFFFFFFFFFFFFFFFFFFFFFFFFFFFFFFFFFFFFFFFF AND DUP2 MSTORE PUSH1 0x20 ADD SWAP1 DUP2 MSTORE PUSH1 0x20 ADD PUSH0 KECCAK256 PUSH1 0x1 ADD PUSH0 SWAP1 SLOAD SWAP1 PUSH2 0x100 EXP SWAP1 DIV PUSH20 0xFFFFFFFFFFFFFFFFFFFFFFFFFFFFFFFFFFFFFFFF AND PUSH20 0xFFFFFFFFFFFFFFFFFFFFFFFFFFFFFFFFFFFFFFFF AND SUB PUSH2 0x157B JUMPI PUSH1 0x40 MLOAD PUSH32 0x8C379A000000000000000000000000000000000000000000000000000000000 DUP2 MSTORE PUSH1 0x4 ADD PUSH2 0x1572 SWAP1 PUSH2 0x28BA JUMP JUMPDEST PUSH1 0x40 MLOAD DUP1 SWAP2 SUB SWAP1 REVERT JUMPDEST PUSH0 DUP1 CALLER PUSH20 0xFFFFFFFFFFFFFFFFFFFFFFFFFFFFFFFFFFFFFFFF AND PUSH20 0xFFFFFFFFFFFFFFFFFFFFFFFFFFFFFFFFFFFFFFFF AND DUP2 MSTORE PUSH1 0x20 ADD SWAP1 DUP2 MSTORE PUSH1 0x20 ADD PUSH0 KECCAK256 PUSH0 ADD DUP1 SLOAD PUSH2 0x15C4 SWAP1 PUSH2 0x1FED JUMP JUMPDEST DUP1 PUSH1 0x1F ADD PUSH1 0x20 DUP1 SWAP2 DIV MUL PUSH1 0x20 ADD PUSH1 0x40 MLOAD SWAP1 DUP2 ADD PUSH1 0x40 MSTORE DUP1 SWAP3 SWAP2 SWAP1 DUP2 DUP2 MSTORE PUSH1 0x20 ADD DUP3 DUP1 SLOAD PUSH2 0x15F0 SWAP1 PUSH2 0x1FED JUMP JUMPDEST DUP1 ISZERO PUSH2 0x163B JUMPI DUP1 PUSH1 0x1F LT PUSH2 0x1612 JUMPI PUSH2 0x100 DUP1 DUP4 SLOAD DIV MUL DUP4 MSTORE SWAP2 PUSH1 0x20 ADD SWAP2 PUSH2 0x163B JUMP JUMPDEST DUP3 ADD SWAP2 SWAP1 PUSH0 MSTORE PUSH1 0x20 PUSH0 KECCAK256 SWAP1 JUMPDEST DUP2 SLOAD DUP2 MSTORE SWAP1 PUSH1 0x1 ADD SWAP1 PUSH1 0x20 ADD DUP1 DUP4 GT PUSH2 0x161E JUMPI DUP3 SWAP1 SUB PUSH1 0x1F AND DUP3 ADD SWAP2 JUMPDEST POP POP POP POP POP SWAP1 POP SWAP1 JUMP JUMPDEST PUSH0 DUP1 PUSH20 0xFFFFFFFFFFFFFFFFFFFFFFFFFFFFFFFFFFFFFFFF AND PUSH0 DUP1 CALLER PUSH20 0xFFFFFFFFFFFFFFFFFFFFFFFFFFFFFFFFFFFFFFFF AND PUSH20 0xFFFFFFFFFFFFFFFFFFFFFFFFFFFFFFFFFFFFFFFF AND DUP2 MSTORE PUSH1 0x20 ADD SWAP1 DUP2 MSTORE PUSH1 0x20 ADD PUSH0 KECCAK256 PUSH1 0x1 ADD PUSH0 SWAP1 SLOAD SWAP1 PUSH2 0x100 EXP SWAP1 DIV PUSH20 0xFFFFFFFFFFFFFFFFFFFFFFFFFFFFFFFFFFFFFFFF AND PUSH20 0xFFFFFFFFFFFFFFFFFFFFFFFFFFFFFFFFFFFFFFFF AND SUB PUSH2 0x1712 JUMPI PUSH1 0x40 MLOAD PUSH32 0x8C379A000000000000000000000000000000000000000000000000000000000 DUP2 MSTORE PUSH1 0x4 ADD PUSH2 0x1709 SWAP1 PUSH2 0x21A7 JUMP JUMPDEST PUSH1 0x40 MLOAD DUP1 SWAP2 SUB SWAP1 REVERT JUMPDEST DUP3 DUP3 PUSH1 0x40 MLOAD PUSH1 0x20 ADD PUSH2 0x1725 SWAP3 SWAP2 SWAP1 PUSH2 0x284D JUMP JUMPDEST PUSH1 0x40 MLOAD PUSH1 0x20 DUP2 DUP4 SUB SUB DUP2 MSTORE SWAP1 PUSH1 0x40 MSTORE DUP1 MLOAD SWAP1 PUSH1 0x20 ADD KECCAK256 SWAP1 POP SWAP3 SWAP2 POP POP JUMP JUMPDEST PUSH1 0x60 PUSH0 PUSH20 0xFFFFFFFFFFFFFFFFFFFFFFFFFFFFFFFFFFFFFFFF AND PUSH0 DUP1 CALLER PUSH20 0xFFFFFFFFFFFFFFFFFFFFFFFFFFFFFFFFFFFFFFFF AND PUSH20 0xFFFFFFFFFFFFFFFFFFFFFFFFFFFFFFFFFFFFFFFF AND DUP2 MSTORE PUSH1 0x20 ADD SWAP1 DUP2 MSTORE PUSH1 0x20 ADD PUSH0 KECCAK256 PUSH1 0x1 ADD PUSH0 SWAP1 SLOAD SWAP1 PUSH2 0x100 EXP SWAP1 DIV PUSH20 0xFFFFFFFFFFFFFFFFFFFFFFFFFFFFFFFFFFFFFFFF AND PUSH20 0xFFFFFFFFFFFFFFFFFFFFFFFFFFFFFFFFFFFFFFFF AND SUB PUSH2 0x1811 JUMPI PUSH1 0x40 MLOAD PUSH32 0x8C379A000000000000000000000000000000000000000000000000000000000 DUP2 MSTORE PUSH1 0x4 ADD PUSH2 0x1808 SWAP1 PUSH2 0x21A7 JUMP JUMPDEST PUSH1 0x40 MLOAD DUP1 SWAP2 SUB SWAP1 REVERT JUMPDEST PUSH0 PUSH1 0x2 PUSH0 CALLER PUSH20 0xFFFFFFFFFFFFFFFFFFFFFFFFFFFFFFFFFFFFFFFF AND PUSH20 0xFFFFFFFFFFFFFFFFFFFFFFFFFFFFFFFFFFFFFFFF AND DUP2 MSTORE PUSH1 0x20 ADD SWAP1 DUP2 MSTORE PUSH1 0x20 ADD PUSH0 KECCAK256 DUP1 SLOAD DUP1 PUSH1 0x20 MUL PUSH1 0x20 ADD PUSH1 0x40 MLOAD SWAP1 DUP2 ADD PUSH1 0x40 MSTORE DUP1 SWAP3 SWAP2 SWAP1 DUP2 DUP2 MSTORE PUSH1 0x20 ADD PUSH0 SWAP1 JUMPDEST DUP3 DUP3 LT ISZERO PUSH2 0x1916 JUMPI DUP4 DUP3 SWAP1 PUSH0 MSTORE PUSH1 0x20 PUSH0 KECCAK256 ADD DUP1 SLOAD PUSH2 0x188B SWAP1 PUSH2 0x1FED JUMP JUMPDEST DUP1 PUSH1 0x1F ADD PUSH1 0x20 DUP1 SWAP2 DIV MUL PUSH1 0x20 ADD PUSH1 0x40 MLOAD SWAP1 DUP2 ADD PUSH1 0x40 MSTORE DUP1 SWAP3 SWAP2 SWAP1 DUP2 DUP2 MSTORE PUSH1 0x20 ADD DUP3 DUP1 SLOAD PUSH2 0x18B7 SWAP1 PUSH2 0x1FED JUMP JUMPDEST DUP1 ISZERO PUSH2 0x1902 JUMPI DUP1 PUSH1 0x1F LT PUSH2 0x18D9 JUMPI PUSH2 0x100 DUP1 DUP4 SLOAD DIV MUL DUP4 MSTORE SWAP2 PUSH1 0x20 ADD SWAP2 PUSH2 0x1902 JUMP JUMPDEST DUP3 ADD SWAP2 SWAP1 PUSH0 MSTORE PUSH1 0x20 PUSH0 KECCAK256 SWAP1 JUMPDEST DUP2 SLOAD DUP2 MSTORE SWAP1 PUSH1 0x1 ADD SWAP1 PUSH1 0x20 ADD DUP1 DUP4 GT PUSH2 0x18E5 JUMPI DUP3 SWAP1 SUB PUSH1 0x1F AND DUP3 ADD SWAP2 JUMPDEST POP POP POP POP POP DUP2 MSTORE PUSH1 0x20 ADD SWAP1 PUSH1 0x1 ADD SWAP1 PUSH2 0x186E JUMP JUMPDEST POP POP POP POP SWAP1 POP PUSH0 DUP2 MLOAD GT PUSH2 0x195F JUMPI PUSH1 0x40 MLOAD PUSH32 0x8C379A000000000000000000000000000000000000000000000000000000000 DUP2 MSTORE PUSH1 0x4 ADD PUSH2 0x1956 SWAP1 PUSH2 0x2922 JUMP JUMPDEST PUSH1 0x40 MLOAD DUP1 SWAP2 SUB SWAP1 REVERT JUMPDEST DUP1 SWAP2 POP POP SWAP1 JUMP JUMPDEST PUSH1 0x40 MLOAD DUP1 PUSH1 0x60 ADD PUSH1 0x40 MSTORE DUP1 PUSH1 0x60 DUP2 MSTORE PUSH1 0x20 ADD PUSH1 0x60 DUP2 MSTORE PUSH1 0x20 ADD PUSH1 0x60 DUP2 MSTORE POP SWAP1 JUMP JUMPDEST PUSH0 PUSH1 0x40 MLOAD SWAP1 POP SWAP1 JUMP JUMPDEST PUSH0 DUP1 REVERT JUMPDEST PUSH0 DUP1 REVERT JUMPDEST PUSH0 PUSH20 0xFFFFFFFFFFFFFFFFFFFFFFFFFFFFFFFFFFFFFFFF DUP3 AND SWAP1 POP SWAP2 SWAP1 POP JUMP JUMPDEST PUSH0 PUSH2 0x19C1 DUP3 PUSH2 0x1998 JUMP JUMPDEST SWAP1 POP SWAP2 SWAP1 POP JUMP JUMPDEST PUSH2 0x19D1 DUP2 PUSH2 0x19B7 JUMP JUMPDEST DUP2 EQ PUSH2 0x19DB JUMPI PUSH0 DUP1 REVERT JUMPDEST POP JUMP JUMPDEST PUSH0 DUP2 CALLDATALOAD SWAP1 POP PUSH2 0x19EC DUP2 PUSH2 0x19C8 JUMP JUMPDEST SWAP3 SWAP2 POP POP JUMP JUMPDEST PUSH0 DUP1 REVERT JUMPDEST PUSH0 DUP1 REVERT JUMPDEST PUSH0 PUSH1 0x1F NOT PUSH1 0x1F DUP4 ADD AND SWAP1 POP SWAP2 SWAP1 POP JUMP JUMPDEST PUSH32 0x4E487B7100000000000000000000000000000000000000000000000000000000 PUSH0 MSTORE PUSH1 0x41 PUSH1 0x4 MSTORE PUSH1 0x24 PUSH0 REVERT JUMPDEST PUSH2 0x1A40 DUP3 PUSH2 0x19FA JUMP JUMPDEST DUP2 ADD DUP2 DUP2 LT PUSH8 0xFFFFFFFFFFFFFFFF DUP3 GT OR ISZERO PUSH2 0x1A5F JUMPI PUSH2 0x1A5E PUSH2 0x1A0A JUMP JUMPDEST JUMPDEST DUP1 PUSH1 0x40 MSTORE POP POP POP JUMP JUMPDEST PUSH0 PUSH2 0x1A71 PUSH2 0x1987 JUMP JUMPDEST SWAP1 POP PUSH2 0x1A7D DUP3 DUP3 PUSH2 0x1A37 JUMP JUMPDEST SWAP2 SWAP1 POP JUMP JUMPDEST PUSH0 PUSH8 0xFFFFFFFFFFFFFFFF DUP3 GT ISZERO PUSH2 0x1A9C JUMPI PUSH2 0x1A9B PUSH2 0x1A0A JUMP JUMPDEST JUMPDEST PUSH2 0x1AA5 DUP3 PUSH2 0x19FA JUMP JUMPDEST SWAP1 POP PUSH1 0x20 DUP2 ADD SWAP1 POP SWAP2 SWAP1 POP JUMP JUMPDEST DUP3 DUP2 DUP4 CALLDATACOPY PUSH0 DUP4 DUP4 ADD MSTORE POP POP POP JUMP JUMPDEST PUSH0 PUSH2 0x1AD2 PUSH2 0x1ACD DUP5 PUSH2 0x1A82 JUMP JUMPDEST PUSH2 0x1A68 JUMP JUMPDEST SWAP1 POP DUP3 DUP2 MSTORE PUSH1 0x20 DUP2 ADD DUP5 DUP5 DUP5 ADD GT ISZERO PUSH2 0x1AEE JUMPI PUSH2 0x1AED PUSH2 0x19F6 JUMP JUMPDEST JUMPDEST PUSH2 0x1AF9 DUP5 DUP3 DUP6 PUSH2 0x1AB2 JUMP JUMPDEST POP SWAP4 SWAP3 POP POP POP JUMP JUMPDEST PUSH0 DUP3 PUSH1 0x1F DUP4 ADD SLT PUSH2 0x1B15 JUMPI PUSH2 0x1B14 PUSH2 0x19F2 JUMP JUMPDEST JUMPDEST DUP2 CALLDATALOAD PUSH2 0x1B25 DUP5 DUP3 PUSH1 0x20 DUP7 ADD PUSH2 0x1AC0 JUMP JUMPDEST SWAP2 POP POP SWAP3 SWAP2 POP POP JUMP JUMPDEST PUSH0 DUP1 PUSH1 0x40 DUP4 DUP6 SUB SLT ISZERO PUSH2 0x1B44 JUMPI PUSH2 0x1B43 PUSH2 0x1990 JUMP JUMPDEST JUMPDEST PUSH0 PUSH2 0x1B51 DUP6 DUP3 DUP7 ADD PUSH2 0x19DE JUMP JUMPDEST SWAP3 POP POP PUSH1 0x20 DUP4 ADD CALLDATALOAD PUSH8 0xFFFFFFFFFFFFFFFF DUP2 GT ISZERO PUSH2 0x1B72 JUMPI PUSH2 0x1B71 PUSH2 0x1994 JUMP JUMPDEST JUMPDEST PUSH2 0x1B7E DUP6 DUP3 DUP7 ADD PUSH2 0x1B01 JUMP JUMPDEST SWAP2 POP POP SWAP3 POP SWAP3 SWAP1 POP JUMP JUMPDEST PUSH0 DUP1 PUSH0 PUSH1 0x60 DUP5 DUP7 SUB SLT ISZERO PUSH2 0x1B9F JUMPI PUSH2 0x1B9E PUSH2 0x1990 JUMP JUMPDEST JUMPDEST PUSH0 DUP5 ADD CALLDATALOAD PUSH8 0xFFFFFFFFFFFFFFFF DUP2 GT ISZERO PUSH2 0x1BBC JUMPI PUSH2 0x1BBB PUSH2 0x1994 JUMP JUMPDEST JUMPDEST PUSH2 0x1BC8 DUP7 DUP3 DUP8 ADD PUSH2 0x1B01 JUMP JUMPDEST SWAP4 POP POP PUSH1 0x20 DUP5 ADD CALLDATALOAD PUSH8 0xFFFFFFFFFFFFFFFF DUP2 GT ISZERO PUSH2 0x1BE9 JUMPI PUSH2 0x1BE8 PUSH2 0x1994 JUMP JUMPDEST JUMPDEST PUSH2 0x1BF5 DUP7 DUP3 DUP8 ADD PUSH2 0x1B01 JUMP JUMPDEST SWAP3 POP POP PUSH1 0x40 DUP5 ADD CALLDATALOAD PUSH8 0xFFFFFFFFFFFFFFFF DUP2 GT ISZERO PUSH2 0x1C16 JUMPI PUSH2 0x1C15 PUSH2 0x1994 JUMP JUMPDEST JUMPDEST PUSH2 0x1C22 DUP7 DUP3 DUP8 ADD PUSH2 0x1B01 JUMP JUMPDEST SWAP2 POP POP SWAP3 POP SWAP3 POP SWAP3 JUMP JUMPDEST PUSH0 PUSH1 0x20 DUP3 DUP5 SUB SLT ISZERO PUSH2 0x1C41 JUMPI PUSH2 0x1C40 PUSH2 0x1990 JUMP JUMPDEST JUMPDEST PUSH0 DUP3 ADD CALLDATALOAD PUSH8 0xFFFFFFFFFFFFFFFF DUP2 GT ISZERO PUSH2 0x1C5E JUMPI PUSH2 0x1C5D PUSH2 0x1994 JUMP JUMPDEST JUMPDEST PUSH2 0x1C6A DUP5 DUP3 DUP6 ADD PUSH2 0x1B01 JUMP JUMPDEST SWAP2 POP POP SWAP3 SWAP2 POP POP JUMP JUMPDEST PUSH0 DUP2 SWAP1 POP SWAP2 SWAP1 POP JUMP JUMPDEST PUSH2 0x1C85 DUP2 PUSH2 0x1C73 JUMP JUMPDEST DUP2 EQ PUSH2 0x1C8F JUMPI PUSH0 DUP1 REVERT JUMPDEST POP JUMP JUMPDEST PUSH0 DUP2 CALLDATALOAD SWAP1 POP PUSH2 0x1CA0 DUP2 PUSH2 0x1C7C JUMP JUMPDEST SWAP3 SWAP2 POP POP JUMP JUMPDEST PUSH0 PUSH1 0x20 DUP3 DUP5 SUB SLT ISZERO PUSH2 0x1CBB JUMPI PUSH2 0x1CBA PUSH2 0x1990 JUMP JUMPDEST JUMPDEST PUSH0 PUSH2 0x1CC8 DUP5 DUP3 DUP6 ADD PUSH2 0x1C92 JUMP JUMPDEST SWAP2 POP POP SWAP3 SWAP2 POP POP JUMP JUMPDEST PUSH0 DUP2 ISZERO ISZERO SWAP1 POP SWAP2 SWAP1 POP JUMP JUMPDEST PUSH2 0x1CE5 DUP2 PUSH2 0x1CD1 JUMP JUMPDEST DUP3 MSTORE POP POP JUMP JUMPDEST PUSH0 PUSH1 0x20 DUP3 ADD SWAP1 POP PUSH2 0x1CFE PUSH0 DUP4 ADD DUP5 PUSH2 0x1CDC JUMP JUMPDEST SWAP3 SWAP2 POP POP JUMP JUMPDEST PUSH0 DUP2 MLOAD SWAP1 POP SWAP2 SWAP1 POP JUMP JUMPDEST PUSH0 DUP3 DUP3 MSTORE PUSH1 0x20 DUP3 ADD SWAP1 POP SWAP3 SWAP2 POP POP JUMP JUMPDEST DUP3 DUP2 DUP4 MCOPY PUSH0 DUP4 DUP4 ADD MSTORE POP POP POP JUMP JUMPDEST PUSH0 PUSH2 0x1D36 DUP3 PUSH2 0x1D04 JUMP JUMPDEST PUSH2 0x1D40 DUP2 DUP6 PUSH2 0x1D0E JUMP JUMPDEST SWAP4 POP PUSH2 0x1D50 DUP2 DUP6 PUSH1 0x20 DUP7 ADD PUSH2 0x1D1E JUMP JUMPDEST PUSH2 0x1D59 DUP2 PUSH2 0x19FA JUMP JUMPDEST DUP5 ADD SWAP2 POP POP SWAP3 SWAP2 POP POP JUMP JUMPDEST PUSH0 PUSH1 0x60 DUP4 ADD PUSH0 DUP4 ADD MLOAD DUP5 DUP3 SUB PUSH0 DUP7 ADD MSTORE PUSH2 0x1D7E DUP3 DUP3 PUSH2 0x1D2C JUMP JUMPDEST SWAP2 POP POP PUSH1 0x20 DUP4 ADD MLOAD DUP5 DUP3 SUB PUSH1 0x20 DUP7 ADD MSTORE PUSH2 0x1D98 DUP3 DUP3 PUSH2 0x1D2C JUMP JUMPDEST SWAP2 POP POP PUSH1 0x40 DUP4 ADD MLOAD DUP5 DUP3 SUB PUSH1 0x40 DUP7 ADD MSTORE PUSH2 0x1DB2 DUP3 DUP3 PUSH2 0x1D2C JUMP JUMPDEST SWAP2 POP POP DUP1 SWAP2 POP POP SWAP3 SWAP2 POP POP JUMP JUMPDEST PUSH0 PUSH1 0x20 DUP3 ADD SWAP1 POP DUP2 DUP2 SUB PUSH0 DUP4 ADD MSTORE PUSH2 0x1DD7 DUP2 DUP5 PUSH2 0x1D64 JUMP JUMPDEST SWAP1 POP SWAP3 SWAP2 POP POP JUMP JUMPDEST PUSH0 DUP3 DUP3 MSTORE PUSH1 0x20 DUP3 ADD SWAP1 POP SWAP3 SWAP2 POP POP JUMP JUMPDEST PUSH0 PUSH2 0x1DF9 DUP3 PUSH2 0x1D04 JUMP JUMPDEST PUSH2 0x1E03 DUP2 DUP6 PUSH2 0x1DDF JUMP JUMPDEST SWAP4 POP PUSH2 0x1E13 DUP2 DUP6 PUSH1 0x20 DUP7 ADD PUSH2 0x1D1E JUMP JUMPDEST PUSH2 0x1E1C DUP2 PUSH2 0x19FA JUMP JUMPDEST DUP5 ADD SWAP2 POP POP SWAP3 SWAP2 POP POP JUMP JUMPDEST PUSH0 PUSH1 0x20 DUP3 ADD SWAP1 POP DUP2 DUP2 SUB PUSH0 DUP4 ADD MSTORE PUSH2 0x1E3F DUP2 DUP5 PUSH2 0x1DEF JUMP JUMPDEST SWAP1 POP SWAP3 SWAP2 POP POP JUMP JUMPDEST PUSH0 DUP1 PUSH1 0x40 DUP4 DUP6 SUB SLT ISZERO PUSH2 0x1E5D JUMPI PUSH2 0x1E5C PUSH2 0x1990 JUMP JUMPDEST JUMPDEST PUSH0 DUP4 ADD CALLDATALOAD PUSH8 0xFFFFFFFFFFFFFFFF DUP2 GT ISZERO PUSH2 0x1E7A JUMPI PUSH2 0x1E79 PUSH2 0x1994 JUMP JUMPDEST JUMPDEST PUSH2 0x1E86 DUP6 DUP3 DUP7 ADD PUSH2 0x1B01 JUMP JUMPDEST SWAP3 POP POP PUSH1 0x20 DUP4 ADD CALLDATALOAD PUSH8 0xFFFFFFFFFFFFFFFF DUP2 GT ISZERO PUSH2 0x1EA7 JUMPI PUSH2 0x1EA6 PUSH2 0x1994 JUMP JUMPDEST JUMPDEST PUSH2 0x1EB3 DUP6 DUP3 DUP7 ADD PUSH2 0x1B01 JUMP JUMPDEST SWAP2 POP POP SWAP3 POP SWAP3 SWAP1 POP JUMP JUMPDEST PUSH2 0x1EC6 DUP2 PUSH2 0x1C73 JUMP JUMPDEST DUP3 MSTORE POP POP JUMP JUMPDEST PUSH0 PUSH1 0x20 DUP3 ADD SWAP1 POP PUSH2 0x1EDF PUSH0 DUP4 ADD DUP5 PUSH2 0x1EBD JUMP JUMPDEST SWAP3 SWAP2 POP POP JUMP JUMPDEST PUSH0 DUP2 MLOAD SWAP1 POP SWAP2 SWAP1 POP JUMP JUMPDEST PUSH0 DUP3 DUP3 MSTORE PUSH1 0x20 DUP3 ADD SWAP1 POP SWAP3 SWAP2 POP POP JUMP JUMPDEST PUSH0 DUP2 SWAP1 POP PUSH1 0x20 DUP3 ADD SWAP1 POP SWAP2 SWAP1 POP JUMP JUMPDEST PUSH0 PUSH2 0x1F19 DUP4 DUP4 PUSH2 0x1D2C JUMP JUMPDEST SWAP1 POP SWAP3 SWAP2 POP POP JUMP JUMPDEST PUSH0 PUSH1 0x20 DUP3 ADD SWAP1 POP SWAP2 SWAP1 POP JUMP JUMPDEST PUSH0 PUSH2 0x1F37 DUP3 PUSH2 0x1EE5 JUMP JUMPDEST PUSH2 0x1F41 DUP2 DUP6 PUSH2 0x1EEF JUMP JUMPDEST SWAP4 POP DUP4 PUSH1 0x20 DUP3 MUL DUP6 ADD PUSH2 0x1F53 DUP6 PUSH2 0x1EFF JUMP JUMPDEST DUP1 PUSH0 JUMPDEST DUP6 DUP2 LT ISZERO PUSH2 0x1F8E JUMPI DUP5 DUP5 SUB DUP10 MSTORE DUP2 MLOAD PUSH2 0x1F6F DUP6 DUP3 PUSH2 0x1F0E JUMP JUMPDEST SWAP5 POP PUSH2 0x1F7A DUP4 PUSH2 0x1F21 JUMP JUMPDEST SWAP3 POP PUSH1 0x20 DUP11 ADD SWAP10 POP POP PUSH1 0x1 DUP2 ADD SWAP1 POP PUSH2 0x1F56 JUMP JUMPDEST POP DUP3 SWAP8 POP DUP8 SWAP6 POP POP POP POP POP POP SWAP3 SWAP2 POP POP JUMP JUMPDEST PUSH0 PUSH1 0x20 DUP3 ADD SWAP1 POP DUP2 DUP2 SUB PUSH0 DUP4 ADD MSTORE PUSH2 0x1FB8 DUP2 DUP5 PUSH2 0x1F2D JUMP JUMPDEST SWAP1 POP SWAP3 SWAP2 POP POP JUMP JUMPDEST PUSH32 0x4E487B7100000000000000000000000000000000000000000000000000000000 PUSH0 MSTORE PUSH1 0x22 PUSH1 0x4 MSTORE PUSH1 0x24 PUSH0 REVERT JUMPDEST PUSH0 PUSH1 0x2 DUP3 DIV SWAP1 POP PUSH1 0x1 DUP3 AND DUP1 PUSH2 0x2004 JUMPI PUSH1 0x7F DUP3 AND SWAP2 POP JUMPDEST PUSH1 0x20 DUP3 LT DUP2 SUB PUSH2 0x2017 JUMPI PUSH2 0x2016 PUSH2 0x1FC0 JUMP JUMPDEST JUMPDEST POP SWAP2 SWAP1 POP JUMP JUMPDEST PUSH0 DUP2 SWAP1 POP SWAP3 SWAP2 POP POP JUMP JUMPDEST PUSH0 DUP2 SWAP1 POP DUP2 PUSH0 MSTORE PUSH1 0x20 PUSH0 KECCAK256 SWAP1 POP SWAP2 SWAP1 POP JUMP JUMPDEST PUSH0 DUP2 SLOAD PUSH2 0x2045 DUP2 PUSH2 0x1FED JUMP JUMPDEST PUSH2 0x204F DUP2 DUP7 PUSH2 0x201D JUMP JUMPDEST SWAP5 POP PUSH1 0x1 DUP3 AND PUSH0 DUP2 EQ PUSH2 0x2069 JUMPI PUSH1 0x1 DUP2 EQ PUSH2 0x207E JUMPI PUSH2 0x20B0 JUMP JUMPDEST PUSH1 0xFF NOT DUP4 AND DUP7 MSTORE DUP2 ISZERO ISZERO DUP3 MUL DUP7 ADD SWAP4 POP PUSH2 0x20B0 JUMP JUMPDEST PUSH2 0x2087 DUP6 PUSH2 0x2027 JUMP JUMPDEST PUSH0 JUMPDEST DUP4 DUP2 LT ISZERO PUSH2 0x20A8 JUMPI DUP2 SLOAD DUP2 DUP10 ADD MSTORE PUSH1 0x1 DUP3 ADD SWAP2 POP PUSH1 0x20 DUP2 ADD SWAP1 POP PUSH2 0x2089 JUMP JUMPDEST DUP4 DUP9 ADD SWAP6 POP POP POP JUMPDEST POP POP POP SWAP3 SWAP2 POP POP JUMP JUMPDEST PUSH0 PUSH2 0x20C4 DUP3 DUP5 PUSH2 0x2039 JUMP JUMPDEST SWAP2 POP DUP2 SWAP1 POP SWAP3 SWAP2 POP POP JUMP JUMPDEST PUSH32 0x556E617574686F72697A656420616374696F6E00000000000000000000000000 PUSH0 DUP3 ADD MSTORE POP JUMP JUMPDEST PUSH0 PUSH2 0x2103 PUSH1 0x13 DUP4 PUSH2 0x1DDF JUMP JUMPDEST SWAP2 POP PUSH2 0x210E DUP3 PUSH2 0x20CF JUMP JUMPDEST PUSH1 0x20 DUP3 ADD SWAP1 POP SWAP2 SWAP1 POP JUMP JUMPDEST PUSH0 PUSH1 0x20 DUP3 ADD SWAP1 POP DUP2 DUP2 SUB PUSH0 DUP4 ADD MSTORE PUSH2 0x2130 DUP2 PUSH2 0x20F7 JUMP JUMPDEST SWAP1 POP SWAP2 SWAP1 POP JUMP JUMPDEST PUSH32 0x4E6F206578697374696E672044494420666F756E6420666F7220746869732061 PUSH0 DUP3 ADD MSTORE PUSH32 0x6464726573730000000000000000000000000000000000000000000000000000 PUSH1 0x20 DUP3 ADD MSTORE POP JUMP JUMPDEST PUSH0 PUSH2 0x2191 PUSH1 0x26 DUP4 PUSH2 0x1DDF JUMP JUMPDEST SWAP2 POP PUSH2 0x219C DUP3 PUSH2 0x2137 JUMP JUMPDEST PUSH1 0x40 DUP3 ADD SWAP1 POP SWAP2 SWAP1 POP JUMP JUMPDEST PUSH0 PUSH1 0x20 DUP3 ADD SWAP1 POP DUP2 DUP2 SUB PUSH0 DUP4 ADD MSTORE PUSH2 0x21BE DUP2 PUSH2 0x2185 JUMP JUMPDEST SWAP1 POP SWAP2 SWAP1 POP JUMP JUMPDEST PUSH32 0x526F6C652063616E6E6F7420626520656D707479000000000000000000000000 PUSH0 DUP3 ADD MSTORE POP JUMP JUMPDEST PUSH0 PUSH2 0x21F9 PUSH1 0x14 DUP4 PUSH2 0x1DDF JUMP JUMPDEST SWAP2 POP PUSH2 0x2204 DUP3 PUSH2 0x21C5 JUMP JUMPDEST PUSH1 0x20 DUP3 ADD SWAP1 POP SWAP2 SWAP1 POP JUMP JUMPDEST PUSH0 PUSH1 0x20 DUP3 ADD SWAP1 POP DUP2 DUP2 SUB PUSH0 DUP4 ADD MSTORE PUSH2 0x2226 DUP2 PUSH2 0x21ED JUMP JUMPDEST SWAP1 POP SWAP2 SWAP1 POP JUMP JUMPDEST PUSH0 DUP2 PUSH1 0x60 SHL SWAP1 POP SWAP2 SWAP1 POP JUMP JUMPDEST PUSH0 PUSH2 0x2243 DUP3 PUSH2 0x222D JUMP JUMPDEST SWAP1 POP SWAP2 SWAP1 POP JUMP JUMPDEST PUSH0 PUSH2 0x2254 DUP3 PUSH2 0x2239 JUMP JUMPDEST SWAP1 POP SWAP2 SWAP1 POP JUMP JUMPDEST PUSH2 0x226C PUSH2 0x2267 DUP3 PUSH2 0x19B7 JUMP JUMPDEST PUSH2 0x224A JUMP JUMPDEST DUP3 MSTORE POP POP JUMP JUMPDEST PUSH0 DUP2 SWAP1 POP SWAP3 SWAP2 POP POP JUMP JUMPDEST PUSH0 PUSH2 0x2286 DUP3 PUSH2 0x1D04 JUMP JUMPDEST PUSH2 0x2290 DUP2 DUP6 PUSH2 0x2272 JUMP JUMPDEST SWAP4 POP PUSH2 0x22A0 DUP2 DUP6 PUSH1 0x20 DUP7 ADD PUSH2 0x1D1E JUMP JUMPDEST DUP1 DUP5 ADD SWAP2 POP POP SWAP3 SWAP2 POP POP JUMP JUMPDEST PUSH0 DUP2 SWAP1 POP SWAP2 SWAP1 POP JUMP JUMPDEST PUSH0 DUP2 SWAP1 POP SWAP2 SWAP1 POP JUMP JUMPDEST PUSH2 0x22CF PUSH2 0x22CA DUP3 PUSH2 0x22AC JUMP JUMPDEST PUSH2 0x22B5 JUMP JUMPDEST DUP3 MSTORE POP POP JUMP JUMPDEST PUSH0 PUSH2 0x22E0 DUP3 DUP8 PUSH2 0x225B JUMP JUMPDEST PUSH1 0x14 DUP3 ADD SWAP2 POP PUSH2 0x22F0 DUP3 DUP7 PUSH2 0x225B JUMP JUMPDEST PUSH1 0x14 DUP3 ADD SWAP2 POP PUSH2 0x2300 DUP3 DUP6 PUSH2 0x227C JUMP JUMPDEST SWAP2 POP PUSH2 0x230C DUP3 DUP5 PUSH2 0x22BE JUMP JUMPDEST PUSH1 0x20 DUP3 ADD SWAP2 POP DUP2 SWAP1 POP SWAP6 SWAP5 POP POP POP POP POP JUMP JUMPDEST PUSH0 DUP2 SWAP1 POP DUP2 PUSH0 MSTORE PUSH1 0x20 PUSH0 KECCAK256 SWAP1 POP SWAP2 SWAP1 POP JUMP JUMPDEST PUSH0 PUSH1 0x20 PUSH1 0x1F DUP4 ADD DIV SWAP1 POP SWAP2 SWAP1 POP JUMP JUMPDEST PUSH0 DUP3 DUP3 SHL SWAP1 POP SWAP3 SWAP2 POP POP JUMP JUMPDEST PUSH0 PUSH1 0x8 DUP4 MUL PUSH2 0x237A PUSH32 0xFFFFFFFFFFFFFFFFFFFFFFFFFFFFFFFFFFFFFFFFFFFFFFFFFFFFFFFFFFFFFFFF DUP3 PUSH2 0x233F JUMP JUMPDEST PUSH2 0x2384 DUP7 DUP4 PUSH2 0x233F JUMP JUMPDEST SWAP6 POP DUP1 NOT DUP5 AND SWAP4 POP DUP1 DUP7 AND DUP5 OR SWAP3 POP POP POP SWAP4 SWAP3 POP POP POP JUMP JUMPDEST PUSH0 DUP2 SWAP1 POP SWAP2 SWAP1 POP JUMP JUMPDEST PUSH0 PUSH2 0x23BF PUSH2 0x23BA PUSH2 0x23B5 DUP5 PUSH2 0x22AC JUMP JUMPDEST PUSH2 0x239C JUMP JUMPDEST PUSH2 0x22AC JUMP JUMPDEST SWAP1 POP SWAP2 SWAP1 POP JUMP JUMPDEST PUSH0 DUP2 SWAP1 POP SWAP2 SWAP1 POP JUMP JUMPDEST PUSH2 0x23D8 DUP4 PUSH2 0x23A5 JUMP JUMPDEST PUSH2 0x23EC PUSH2 0x23E4 DUP3 PUSH2 0x23C6 JUMP JUMPDEST DUP5 DUP5 SLOAD PUSH2 0x234B JUMP JUMPDEST DUP3 SSTORE POP POP POP POP JUMP JUMPDEST PUSH0 SWAP1 JUMP JUMPDEST PUSH2 0x2400 PUSH2 0x23F4 JUMP JUMPDEST PUSH2 0x240B DUP2 DUP5 DUP5 PUSH2 0x23CF JUMP JUMPDEST POP POP POP JUMP JUMPDEST JUMPDEST DUP2 DUP2 LT ISZERO PUSH2 0x242E JUMPI PUSH2 0x2423 PUSH0 DUP3 PUSH2 0x23F8 JUMP JUMPDEST PUSH1 0x1 DUP2 ADD SWAP1 POP PUSH2 0x2411 JUMP JUMPDEST POP POP JUMP JUMPDEST PUSH1 0x1F DUP3 GT ISZERO PUSH2 0x2473 JUMPI PUSH2 0x2444 DUP2 PUSH2 0x231E JUMP JUMPDEST PUSH2 0x244D DUP5 PUSH2 0x2330 JUMP JUMPDEST DUP2 ADD PUSH1 0x20 DUP6 LT ISZERO PUSH2 0x245C JUMPI DUP2 SWAP1 POP JUMPDEST PUSH2 0x2470 PUSH2 0x2468 DUP6 PUSH2 0x2330 JUMP JUMPDEST DUP4 ADD DUP3 PUSH2 0x2410 JUMP JUMPDEST POP POP JUMPDEST POP POP POP JUMP JUMPDEST PUSH0 DUP3 DUP3 SHR SWAP1 POP SWAP3 SWAP2 POP POP JUMP JUMPDEST PUSH0 PUSH2 0x2493 PUSH0 NOT DUP5 PUSH1 0x8 MUL PUSH2 0x2478 JUMP JUMPDEST NOT DUP1 DUP4 AND SWAP2 POP POP SWAP3 SWAP2 POP POP JUMP JUMPDEST PUSH0 PUSH2 0x24AB DUP4 DUP4 PUSH2 0x2484 JUMP JUMPDEST SWAP2 POP DUP3 PUSH1 0x2 MUL DUP3 OR SWAP1 POP SWAP3 SWAP2 POP POP JUMP JUMPDEST PUSH2 0x24C4 DUP3 PUSH2 0x1D04 JUMP JUMPDEST PUSH8 0xFFFFFFFFFFFFFFFF DUP2 GT ISZERO PUSH2 0x24DD JUMPI PUSH2 0x24DC PUSH2 0x1A0A JUMP JUMPDEST JUMPDEST PUSH2 0x24E7 DUP3 SLOAD PUSH2 0x1FED JUMP JUMPDEST PUSH2 0x24F2 DUP3 DUP3 DUP6 PUSH2 0x2432 JUMP JUMPDEST PUSH0 PUSH1 0x20 SWAP1 POP PUSH1 0x1F DUP4 GT PUSH1 0x1 DUP2 EQ PUSH2 0x2523 JUMPI PUSH0 DUP5 ISZERO PUSH2 0x2511 JUMPI DUP3 DUP8 ADD MLOAD SWAP1 POP JUMPDEST PUSH2 0x251B DUP6 DUP3 PUSH2 0x24A0 JUMP JUMPDEST DUP7 SSTORE POP PUSH2 0x2582 JUMP JUMPDEST PUSH1 0x1F NOT DUP5 AND PUSH2 0x2531 DUP7 PUSH2 0x231E JUMP JUMPDEST PUSH0 JUMPDEST DUP3 DUP2 LT ISZERO PUSH2 0x2558 JUMPI DUP5 DUP10 ADD MLOAD DUP3 SSTORE PUSH1 0x1 DUP3 ADD SWAP2 POP PUSH1 0x20 DUP6 ADD SWAP5 POP PUSH1 0x20 DUP2 ADD SWAP1 POP PUSH2 0x2533 JUMP JUMPDEST DUP7 DUP4 LT ISZERO PUSH2 0x2575 JUMPI DUP5 DUP10 ADD MLOAD PUSH2 0x2571 PUSH1 0x1F DUP10 AND DUP3 PUSH2 0x2484 JUMP JUMPDEST DUP4 SSTORE POP JUMPDEST PUSH1 0x1 PUSH1 0x2 DUP9 MUL ADD DUP9 SSTORE POP POP POP JUMPDEST POP POP POP POP POP POP JUMP JUMPDEST PUSH2 0x2593 DUP2 PUSH2 0x19B7 JUMP JUMPDEST DUP3 MSTORE POP POP JUMP JUMPDEST PUSH0 PUSH1 0x60 DUP3 ADD SWAP1 POP PUSH2 0x25AC PUSH0 DUP4 ADD DUP7 PUSH2 0x258A JUMP JUMPDEST DUP2 DUP2 SUB PUSH1 0x20 DUP4 ADD MSTORE PUSH2 0x25BE DUP2 DUP6 PUSH2 0x1DEF JUMP JUMPDEST SWAP1 POP PUSH2 0x25CD PUSH1 0x40 DUP4 ADD DUP5 PUSH2 0x1EBD JUMP JUMPDEST SWAP5 SWAP4 POP POP POP POP JUMP JUMPDEST PUSH32 0x456D61696C2063616E6E6F7420626520656D7074790000000000000000000000 PUSH0 DUP3 ADD MSTORE POP JUMP JUMPDEST PUSH0 PUSH2 0x2609 PUSH1 0x15 DUP4 PUSH2 0x1DDF JUMP JUMPDEST SWAP2 POP PUSH2 0x2614 DUP3 PUSH2 0x25D5 JUMP JUMPDEST PUSH1 0x20 DUP3 ADD SWAP1 POP SWAP2 SWAP1 POP JUMP JUMPDEST PUSH0 PUSH1 0x20 DUP3 ADD SWAP1 POP DUP2 DUP2 SUB PUSH0 DUP4 ADD MSTORE PUSH2 0x2636 DUP2 PUSH2 0x25FD JUMP JUMPDEST SWAP1 POP SWAP2 SWAP1 POP JUMP JUMPDEST PUSH0 PUSH1 0x60 DUP3 ADD SWAP1 POP DUP2 DUP2 SUB PUSH0 DUP4 ADD MSTORE PUSH2 0x2655 DUP2 DUP7 PUSH2 0x1DEF JUMP JUMPDEST SWAP1 POP DUP2 DUP2 SUB PUSH1 0x20 DUP4 ADD MSTORE PUSH2 0x2669 DUP2 DUP6 PUSH2 0x1DEF JUMP JUMPDEST SWAP1 POP DUP2 DUP2 SUB PUSH1 0x40 DUP4 ADD MSTORE PUSH2 0x267D DUP2 DUP5 PUSH2 0x1DEF JUMP JUMPDEST SWAP1 POP SWAP5 SWAP4 POP POP POP POP JUMP JUMPDEST PUSH32 0x4E6577206964656E7469666965722063616E6E6F7420626520656D7074790000 PUSH0 DUP3 ADD MSTORE POP JUMP JUMPDEST PUSH0 PUSH2 0x26BB PUSH1 0x1E DUP4 PUSH2 0x1DDF JUMP JUMPDEST SWAP2 POP PUSH2 0x26C6 DUP3 PUSH2 0x2687 JUMP JUMPDEST PUSH1 0x20 DUP3 ADD SWAP1 POP SWAP2 SWAP1 POP JUMP JUMPDEST PUSH0 PUSH1 0x20 DUP3 ADD SWAP1 POP DUP2 DUP2 SUB PUSH0 DUP4 ADD MSTORE PUSH2 0x26E8 DUP2 PUSH2 0x26AF JUMP JUMPDEST SWAP1 POP SWAP2 SWAP1 POP JUMP JUMPDEST PUSH32 0x496E76616C6964206E6577206964656E74696669657200000000000000000000 PUSH0 DUP3 ADD MSTORE POP JUMP JUMPDEST PUSH0 PUSH2 0x2723 PUSH1 0x16 DUP4 PUSH2 0x1DDF JUMP JUMPDEST SWAP2 POP PUSH2 0x272E DUP3 PUSH2 0x26EF JUMP JUMPDEST PUSH1 0x20 DUP3 ADD SWAP1 POP SWAP2 SWAP1 POP JUMP JUMPDEST PUSH0 PUSH1 0x20 DUP3 ADD SWAP1 POP DUP2 DUP2 SUB PUSH0 DUP4 ADD MSTORE PUSH2 0x2750 DUP2 PUSH2 0x2717 JUMP JUMPDEST SWAP1 POP SWAP2 SWAP1 POP JUMP JUMPDEST PUSH32 0x4964656E7469666965722063616E6E6F7420626520656D707479000000000000 PUSH0 DUP3 ADD MSTORE POP JUMP JUMPDEST PUSH0 PUSH2 0x278B PUSH1 0x1A DUP4 PUSH2 0x1DDF JUMP JUMPDEST SWAP2 POP PUSH2 0x2796 DUP3 PUSH2 0x2757 JUMP JUMPDEST PUSH1 0x20 DUP3 ADD SWAP1 POP SWAP2 SWAP1 POP JUMP JUMPDEST PUSH0 PUSH1 0x20 DUP3 ADD SWAP1 POP DUP2 DUP2 SUB PUSH0 DUP4 ADD MSTORE PUSH2 0x27B8 DUP2 PUSH2 0x277F JUMP JUMPDEST SWAP1 POP SWAP2 SWAP1 POP JUMP JUMPDEST PUSH32 0x44494420616C72656164792065786973747320666F7220746869732061646472 PUSH0 DUP3 ADD MSTORE PUSH32 0x6573730000000000000000000000000000000000000000000000000000000000 PUSH1 0x20 DUP3 ADD MSTORE POP JUMP JUMPDEST PUSH0 PUSH2 0x2819 PUSH1 0x23 DUP4 PUSH2 0x1DDF JUMP JUMPDEST SWAP2 POP PUSH2 0x2824 DUP3 PUSH2 0x27BF JUMP JUMPDEST PUSH1 0x40 DUP3 ADD SWAP1 POP SWAP2 SWAP1 POP JUMP JUMPDEST PUSH0 PUSH1 0x20 DUP3 ADD SWAP1 POP DUP2 DUP2 SUB PUSH0 DUP4 ADD MSTORE PUSH2 0x2846 DUP2 PUSH2 0x280D JUMP JUMPDEST SWAP1 POP SWAP2 SWAP1 POP JUMP JUMPDEST PUSH0 PUSH2 0x2858 DUP3 DUP6 PUSH2 0x227C JUMP JUMPDEST SWAP2 POP PUSH2 0x2864 DUP3 DUP5 PUSH2 0x227C JUMP JUMPDEST SWAP2 POP DUP2 SWAP1 POP SWAP4 SWAP3 POP POP POP JUMP JUMPDEST PUSH32 0x4E6F2044494420666F756E6420666F7220746869732061646472657373000000 PUSH0 DUP3 ADD MSTORE POP JUMP JUMPDEST PUSH0 PUSH2 0x28A4 PUSH1 0x1D DUP4 PUSH2 0x1DDF JUMP JUMPDEST SWAP2 POP PUSH2 0x28AF DUP3 PUSH2 0x2870 JUMP JUMPDEST PUSH1 0x20 DUP3 ADD SWAP1 POP SWAP2 SWAP1 POP JUMP JUMPDEST PUSH0 PUSH1 0x20 DUP3 ADD SWAP1 POP DUP2 DUP2 SUB PUSH0 DUP4 ADD MSTORE PUSH2 0x28D1 DUP2 PUSH2 0x2898 JUMP JUMPDEST SWAP1 POP SWAP2 SWAP1 POP JUMP JUMPDEST PUSH32 0x4E6F20726F6C65732061737369676E656420666F722074686973207573657200 PUSH0 DUP3 ADD MSTORE POP JUMP JUMPDEST PUSH0 PUSH2 0x290C PUSH1 0x1F DUP4 PUSH2 0x1DDF JUMP JUMPDEST SWAP2 POP PUSH2 0x2917 DUP3 PUSH2 0x28D8 JUMP JUMPDEST PUSH1 0x20 DUP3 ADD SWAP1 POP SWAP2 SWAP1 POP JUMP JUMPDEST PUSH0 PUSH1 0x20 DUP3 ADD SWAP1 POP DUP2 DUP2 SUB PUSH0 DUP4 ADD MSTORE PUSH2 0x2939 DUP2 PUSH2 0x2900 JUMP JUMPDEST SWAP1 POP SWAP2 SWAP1 POP JUMP INVALID LOG2 PUSH5 0x6970667358 0x22 SLT KECCAK256 PUSH22 0x56F1C5A4738E7BD9939A5C05F65BAB942DF7EB982012 MLOAD DUP10 0xA8 OR RETURN 0xD9 DUP3 JUMPI DUP5 PUSH5 0x736F6C6343 STOP ADDMOD BYTE STOP CALLER "
				},
				"gasEstimates": {
					"creation": {
						"codeDepositCost": "2122800",
						"executionCost": "infinite",
						"totalCost": "infinite"
					},
					"external": {
						"assignRole(address,string)": "infinite",
						"createDID(string)": "infinite",
						"getDID()": "infinite",
						"getMetadata()": "infinite",
						"getRole()": "infinite",
						"issueRole(address,string)": "infinite",
						"presentCredential(string,string)": "infinite",
						"setMetadata(string,string,string)": "infinite",
						"updateDID(string)": "infinite",
						"verifyCredential(bytes32)": "infinite"
					}
				},
				"methodIdentifiers": {
					"assignRole(address,string)": "b7dfcbee",
					"createDID(string)": "3457d3e2",
					"getDID()": "bc9c2d55",
					"getMetadata()": "7a5b4f59",
					"getRole()": "fde08174",
					"issueRole(address,string)": "022bf9c1",
					"presentCredential(string,string)": "e1e7a16e",
					"setMetadata(string,string,string)": "0890d80c",
					"updateDID(string)": "14c95832",
					"verifyCredential(bytes32)": "4dbf87cc"
				}
			},
			"storageLayout": {
				"storage": [
					{
						"astId": 28,
						"contract": "DIDRegistry.sol:DIDRegistry",
						"label": "dids",
						"offset": 0,
						"slot": "0",
						"type": "t_mapping(t_address,t_struct(DID)7_storage)"
					},
					{
						"astId": 32,
						"contract": "DIDRegistry.sol:DIDRegistry",
						"label": "roles",
						"offset": 0,
						"slot": "1",
						"type": "t_mapping(t_address,t_string_storage)"
					},
					{
						"astId": 37,
						"contract": "DIDRegistry.sol:DIDRegistry",
						"label": "roleHistory",
						"offset": 0,
						"slot": "2",
						"type": "t_mapping(t_address,t_array(t_string_storage)dyn_storage)"
					},
					{
						"astId": 42,
						"contract": "DIDRegistry.sol:DIDRegistry",
						"label": "metadata",
						"offset": 0,
						"slot": "3",
						"type": "t_mapping(t_address,t_struct(Metadata)14_storage)"
					},
					{
						"astId": 48,
						"contract": "DIDRegistry.sol:DIDRegistry",
						"label": "credentials",
						"offset": 0,
						"slot": "4",
						"type": "t_mapping(t_address,t_array(t_struct(Credential)23_storage)dyn_storage)"
					}
				],
				"types": {
					"t_address": {
						"encoding": "inplace",
						"label": "address",
						"numberOfBytes": "20"
					},
					"t_array(t_string_storage)dyn_storage": {
						"base": "t_string_storage",
						"encoding": "dynamic_array",
						"label": "string[]",
						"numberOfBytes": "32"
					},
					"t_array(t_struct(Credential)23_storage)dyn_storage": {
						"base": "t_struct(Credential)23_storage",
						"encoding": "dynamic_array",
						"label": "struct DIDRegistry.Credential[]",
						"numberOfBytes": "32"
					},
					"t_bytes32": {
						"encoding": "inplace",
						"label": "bytes32",
						"numberOfBytes": "32"
					},
					"t_mapping(t_address,t_array(t_string_storage)dyn_storage)": {
						"encoding": "mapping",
						"key": "t_address",
						"label": "mapping(address => string[])",
						"numberOfBytes": "32",
						"value": "t_array(t_string_storage)dyn_storage"
					},
					"t_mapping(t_address,t_array(t_struct(Credential)23_storage)dyn_storage)": {
						"encoding": "mapping",
						"key": "t_address",
						"label": "mapping(address => struct DIDRegistry.Credential[])",
						"numberOfBytes": "32",
						"value": "t_array(t_struct(Credential)23_storage)dyn_storage"
					},
					"t_mapping(t_address,t_string_storage)": {
						"encoding": "mapping",
						"key": "t_address",
						"label": "mapping(address => string)",
						"numberOfBytes": "32",
						"value": "t_string_storage"
					},
					"t_mapping(t_address,t_struct(DID)7_storage)": {
						"encoding": "mapping",
						"key": "t_address",
						"label": "mapping(address => struct DIDRegistry.DID)",
						"numberOfBytes": "32",
						"value": "t_struct(DID)7_storage"
					},
					"t_mapping(t_address,t_struct(Metadata)14_storage)": {
						"encoding": "mapping",
						"key": "t_address",
						"label": "mapping(address => struct DIDRegistry.Metadata)",
						"numberOfBytes": "32",
						"value": "t_struct(Metadata)14_storage"
					},
					"t_string_storage": {
						"encoding": "bytes",
						"label": "string",
						"numberOfBytes": "32"
					},
					"t_struct(Credential)23_storage": {
						"encoding": "inplace",
						"label": "struct DIDRegistry.Credential",
						"members": [
							{
								"astId": 16,
								"contract": "DIDRegistry.sol:DIDRegistry",
								"label": "issuer",
								"offset": 0,
								"slot": "0",
								"type": "t_address"
							},
							{
								"astId": 18,
								"contract": "DIDRegistry.sol:DIDRegistry",
								"label": "role",
								"offset": 0,
								"slot": "1",
								"type": "t_string_storage"
							},
							{
								"astId": 20,
								"contract": "DIDRegistry.sol:DIDRegistry",
								"label": "hashed",
								"offset": 0,
								"slot": "2",
								"type": "t_bytes32"
							},
							{
								"astId": 22,
								"contract": "DIDRegistry.sol:DIDRegistry",
								"label": "issueAt",
								"offset": 0,
								"slot": "3",
								"type": "t_uint256"
							}
						],
						"numberOfBytes": "128"
					},
					"t_struct(DID)7_storage": {
						"encoding": "inplace",
						"label": "struct DIDRegistry.DID",
						"members": [
							{
								"astId": 4,
								"contract": "DIDRegistry.sol:DIDRegistry",
								"label": "identifier",
								"offset": 0,
								"slot": "0",
								"type": "t_string_storage"
							},
							{
								"astId": 6,
								"contract": "DIDRegistry.sol:DIDRegistry",
								"label": "owner",
								"offset": 0,
								"slot": "1",
								"type": "t_address"
							}
						],
						"numberOfBytes": "64"
					},
					"t_struct(Metadata)14_storage": {
						"encoding": "inplace",
						"label": "struct DIDRegistry.Metadata",
						"members": [
							{
								"astId": 9,
								"contract": "DIDRegistry.sol:DIDRegistry",
								"label": "name",
								"offset": 0,
								"slot": "0",
								"type": "t_string_storage"
							},
							{
								"astId": 11,
								"contract": "DIDRegistry.sol:DIDRegistry",
								"label": "email",
								"offset": 0,
								"slot": "1",
								"type": "t_string_storage"
							},
							{
								"astId": 13,
								"contract": "DIDRegistry.sol:DIDRegistry",
								"label": "profilePicture",
								"offset": 0,
								"slot": "2",
								"type": "t_string_storage"
							}
						],
						"numberOfBytes": "96"
					},
					"t_uint256": {
						"encoding": "inplace",
						"label": "uint256",
						"numberOfBytes": "32"
					}
				}
			},
			"userdoc": {
				"kind": "user",
				"methods": {},
				"version": 1
			}
		}
	}
}