{
	"contracts/TaskManagement.sol": {
		"TaskManagement": {
			"abi": [
				{
					"inputs": [],
					"stateMutability": "nonpayable",
					"type": "constructor"
				},
				{
					"anonymous": false,
					"inputs": [
						{
							"indexed": true,
							"internalType": "address",
							"name": "owner",
							"type": "address"
						},
						{
							"indexed": false,
							"internalType": "string",
							"name": "identifier",
							"type": "string"
						}
					],
					"name": "DIDCreated",
					"type": "event"
				},
				{
					"anonymous": false,
					"inputs": [
						{
							"indexed": true,
							"internalType": "address",
							"name": "user",
							"type": "address"
						},
						{
							"indexed": false,
							"internalType": "string",
							"name": "role",
							"type": "string"
						}
					],
					"name": "RoleAssigned",
					"type": "event"
				},
				{
					"anonymous": false,
					"inputs": [
						{
							"indexed": true,
							"internalType": "address",
							"name": "issuer",
							"type": "address"
						},
						{
							"indexed": false,
							"internalType": "address",
							"name": "user",
							"type": "address"
						},
						{
							"indexed": false,
							"internalType": "string",
							"name": "role",
							"type": "string"
						},
						{
							"indexed": false,
							"internalType": "bytes32",
							"name": "roleHash",
							"type": "bytes32"
						}
					],
					"name": "RoleIssued",
					"type": "event"
				},
				{
					"anonymous": false,
					"inputs": [
						{
							"indexed": true,
							"internalType": "address",
							"name": "issuer",
							"type": "address"
						},
						{
							"indexed": false,
							"internalType": "string",
							"name": "role",
							"type": "string"
						},
						{
							"indexed": false,
							"internalType": "bool",
							"name": "status",
							"type": "bool"
						}
					],
					"name": "RoleVerified",
					"type": "event"
				},
				{
					"anonymous": false,
					"inputs": [
						{
							"indexed": true,
							"internalType": "address",
							"name": "assignee",
							"type": "address"
						},
						{
							"indexed": false,
							"internalType": "uint256",
							"name": "id",
							"type": "uint256"
						}
					],
					"name": "TaskCompleted",
					"type": "event"
				},
				{
					"anonymous": false,
					"inputs": [
						{
							"indexed": true,
							"internalType": "address",
							"name": "issuer",
							"type": "address"
						},
						{
							"indexed": false,
							"internalType": "address",
							"name": "assignee",
							"type": "address"
						},
						{
							"indexed": false,
							"internalType": "uint256",
							"name": "id",
							"type": "uint256"
						}
					],
					"name": "TaskCreated",
					"type": "event"
				},
				{
					"anonymous": false,
					"inputs": [
						{
							"indexed": true,
							"internalType": "uint256",
							"name": "id",
							"type": "uint256"
						},
						{
							"indexed": false,
							"internalType": "bool",
							"name": "isValid",
							"type": "bool"
						}
					],
					"name": "TaskDueDateVerified",
					"type": "event"
				},
				{
					"anonymous": false,
					"inputs": [
						{
							"indexed": true,
							"internalType": "uint256",
							"name": "id",
							"type": "uint256"
						},
						{
							"indexed": false,
							"internalType": "address",
							"name": "assignee",
							"type": "address"
						},
						{
							"indexed": false,
							"internalType": "bool",
							"name": "isOwner",
							"type": "bool"
						}
					],
					"name": "TaskOwnershipVerified",
					"type": "event"
				},
				{
					"anonymous": false,
					"inputs": [
						{
							"indexed": true,
							"internalType": "address",
							"name": "issuer",
							"type": "address"
						},
						{
							"indexed": false,
							"internalType": "address",
							"name": "newAssignee",
							"type": "address"
						},
						{
							"indexed": false,
							"internalType": "uint256",
							"name": "id",
							"type": "uint256"
						}
					],
					"name": "TaskReassigned",
					"type": "event"
				},
				{
					"anonymous": false,
					"inputs": [
						{
							"indexed": true,
							"internalType": "uint256",
							"name": "id",
							"type": "uint256"
						},
						{
							"indexed": false,
							"internalType": "bool",
							"name": "isComplete",
							"type": "bool"
						}
					],
					"name": "TaskStatusVerified",
					"type": "event"
				},
				{
					"inputs": [
						{
							"internalType": "address",
							"name": "_user",
							"type": "address"
						},
						{
							"internalType": "string",
							"name": "_role",
							"type": "string"
						}
					],
					"name": "assignRole",
					"outputs": [],
					"stateMutability": "nonpayable",
					"type": "function"
				},
				{
					"inputs": [
						{
							"internalType": "uint256",
							"name": "_id",
							"type": "uint256"
						}
					],
					"name": "completeTask",
					"outputs": [],
					"stateMutability": "nonpayable",
					"type": "function"
				},
				{
					"inputs": [
						{
							"internalType": "string",
							"name": "_identifier",
							"type": "string"
						}
					],
					"name": "createDID",
					"outputs": [],
					"stateMutability": "nonpayable",
					"type": "function"
				},
				{
					"inputs": [
						{
							"internalType": "string",
							"name": "_title",
							"type": "string"
						},
						{
							"internalType": "string",
							"name": "_description",
							"type": "string"
						},
						{
							"internalType": "enum TaskManagement.Priority",
							"name": "_priority",
							"type": "uint8"
						},
						{
							"internalType": "uint256",
							"name": "_dueDate",
							"type": "uint256"
						},
						{
							"internalType": "address",
							"name": "_assignedTo",
							"type": "address"
						}
					],
					"name": "createTask",
					"outputs": [],
					"stateMutability": "nonpayable",
					"type": "function"
				},
				{
					"inputs": [],
					"name": "getDID",
					"outputs": [
						{
							"internalType": "string",
							"name": "",
							"type": "string"
						}
					],
					"stateMutability": "view",
					"type": "function"
				},
				{
					"inputs": [],
					"name": "getRole",
					"outputs": [
						{
							"internalType": "string[]",
							"name": "",
							"type": "string[]"
						}
					],
					"stateMutability": "view",
					"type": "function"
				},
				{
					"inputs": [
						{
							"internalType": "uint256",
							"name": "_id",
							"type": "uint256"
						}
					],
					"name": "getTask",
					"outputs": [
						{
							"components": [
								{
									"internalType": "uint256",
									"name": "id",
									"type": "uint256"
								},
								{
									"internalType": "string",
									"name": "title",
									"type": "string"
								},
								{
									"internalType": "string",
									"name": "description",
									"type": "string"
								},
								{
									"internalType": "enum TaskManagement.Priority",
									"name": "priority",
									"type": "uint8"
								},
								{
									"internalType": "uint256",
									"name": "dueDate",
									"type": "uint256"
								},
								{
									"internalType": "address",
									"name": "assignedTo",
									"type": "address"
								},
								{
									"internalType": "bool",
									"name": "isCompleted",
									"type": "bool"
								},
								{
									"internalType": "uint256",
									"name": "completedAt",
									"type": "uint256"
								}
							],
							"internalType": "struct TaskManagement.Task",
							"name": "",
							"type": "tuple"
						}
					],
					"stateMutability": "view",
					"type": "function"
				},
				{
					"inputs": [],
					"name": "getTasks",
					"outputs": [
						{
							"components": [
								{
									"internalType": "uint256",
									"name": "id",
									"type": "uint256"
								},
								{
									"internalType": "string",
									"name": "title",
									"type": "string"
								},
								{
									"internalType": "string",
									"name": "description",
									"type": "string"
								},
								{
									"internalType": "enum TaskManagement.Priority",
									"name": "priority",
									"type": "uint8"
								},
								{
									"internalType": "uint256",
									"name": "dueDate",
									"type": "uint256"
								},
								{
									"internalType": "address",
									"name": "assignedTo",
									"type": "address"
								},
								{
									"internalType": "bool",
									"name": "isCompleted",
									"type": "bool"
								},
								{
									"internalType": "uint256",
									"name": "completedAt",
									"type": "uint256"
								}
							],
							"internalType": "struct TaskManagement.Task[]",
							"name": "",
							"type": "tuple[]"
						}
					],
					"stateMutability": "view",
					"type": "function"
				},
				{
					"inputs": [],
					"name": "getUserTasks",
					"outputs": [
						{
							"components": [
								{
									"internalType": "uint256",
									"name": "id",
									"type": "uint256"
								},
								{
									"internalType": "string",
									"name": "title",
									"type": "string"
								},
								{
									"internalType": "string",
									"name": "description",
									"type": "string"
								},
								{
									"internalType": "enum TaskManagement.Priority",
									"name": "priority",
									"type": "uint8"
								},
								{
									"internalType": "uint256",
									"name": "dueDate",
									"type": "uint256"
								},
								{
									"internalType": "address",
									"name": "assignedTo",
									"type": "address"
								},
								{
									"internalType": "bool",
									"name": "isCompleted",
									"type": "bool"
								},
								{
									"internalType": "uint256",
									"name": "completedAt",
									"type": "uint256"
								}
							],
							"internalType": "struct TaskManagement.Task[]",
							"name": "",
							"type": "tuple[]"
						}
					],
					"stateMutability": "view",
					"type": "function"
				},
				{
					"inputs": [
						{
							"internalType": "address",
							"name": "_user",
							"type": "address"
						},
						{
							"internalType": "string",
							"name": "_role",
							"type": "string"
						}
					],
					"name": "issueRole",
					"outputs": [],
					"stateMutability": "nonpayable",
					"type": "function"
				},
				{
					"inputs": [
						{
							"internalType": "uint256",
							"name": "_id",
							"type": "uint256"
						},
						{
							"internalType": "address",
							"name": "_newAssignee",
							"type": "address"
						}
					],
					"name": "reassignTask",
					"outputs": [],
					"stateMutability": "nonpayable",
					"type": "function"
				},
				{
					"inputs": [
						{
							"internalType": "string",
							"name": "_newIdentifier",
							"type": "string"
						}
					],
					"name": "updateDID",
					"outputs": [],
					"stateMutability": "nonpayable",
					"type": "function"
				},
				{
					"inputs": [
						{
							"internalType": "address",
							"name": "_user",
							"type": "address"
						},
						{
							"internalType": "address",
							"name": "_issuer",
							"type": "address"
						},
						{
							"internalType": "string",
							"name": "_role",
							"type": "string"
						}
					],
					"name": "verifyRole",
					"outputs": [
						{
							"internalType": "bool",
							"name": "",
							"type": "bool"
						}
					],
					"stateMutability": "nonpayable",
					"type": "function"
				},
				{
					"inputs": [
						{
							"internalType": "uint256",
							"name": "_id",
							"type": "uint256"
						}
					],
					"name": "verifyTaskDueDate",
					"outputs": [
						{
							"internalType": "bool",
							"name": "",
							"type": "bool"
						}
					],
					"stateMutability": "nonpayable",
					"type": "function"
				},
				{
					"inputs": [
						{
							"internalType": "uint256",
							"name": "_id",
							"type": "uint256"
						},
						{
							"internalType": "address",
							"name": "_assignee",
							"type": "address"
						}
					],
					"name": "verifyTaskOwnership",
					"outputs": [
						{
							"internalType": "bool",
							"name": "",
							"type": "bool"
						}
					],
					"stateMutability": "nonpayable",
					"type": "function"
				},
				{
					"inputs": [
						{
							"internalType": "uint256",
							"name": "_id",
							"type": "uint256"
						}
					],
					"name": "verifyTaskStatus",
					"outputs": [
						{
							"internalType": "bool",
							"name": "",
							"type": "bool"
						}
					],
					"stateMutability": "nonpayable",
					"type": "function"
				}
			],
			"devdoc": {
				"details": "Contract to create and manage Tasks  Authors: - Kong Phirom - Hul Sambath - Prak Pichey - Him Ronald - Chhim Kakada",
				"kind": "dev",
				"methods": {},
				"title": "TaskManagement",
				"version": 1
			},
			"evm": {
				"assembly": "    /* \"contracts/TaskManagement.sol\":249:11679  contract TaskManagement {... */\n  mstore(0x40, 0x80)\n    /* \"contracts/TaskManagement.sol\":1004:1005  0 */\n  0x00\n    /* \"contracts/TaskManagement.sol\":977:1005  uint private taskCounter = 0 */\n  0x04\n  sstore\n    /* \"contracts/TaskManagement.sol\":2115:2227  constructor() {... */\n  callvalue\n  dup1\n  iszero\n  tag_1\n  jumpi\n  0x00\n  dup1\n  revert\ntag_1:\n  pop\n    /* \"contracts/TaskManagement.sol\":2140:2169  roles[msg.sender] = \"manager\" */\n  mload(0x40)\n  dup1\n  0x40\n  add\n  0x40\n  mstore\n  dup1\n  0x07\n  dup2\n  mstore\n  0x20\n  add\n  0x6d616e6167657200000000000000000000000000000000000000000000000000\n  dup2\n  mstore\n  pop\n    /* \"contracts/TaskManagement.sol\":2140:2145  roles */\n  0x01\n    /* \"contracts/TaskManagement.sol\":2140:2157  roles[msg.sender] */\n  0x00\n    /* \"contracts/TaskManagement.sol\":2146:2156  msg.sender */\n  caller\n    /* \"contracts/TaskManagement.sol\":2140:2157  roles[msg.sender] */\n  0xffffffffffffffffffffffffffffffffffffffff\n  and\n  0xffffffffffffffffffffffffffffffffffffffff\n  and\n  dup2\n  mstore\n  0x20\n  add\n  swap1\n  dup2\n  mstore\n  0x20\n  add\n  0x00\n  keccak256\n    /* \"contracts/TaskManagement.sol\":2140:2169  roles[msg.sender] = \"manager\" */\n  swap1\n  dup2\n  tag_4\n  swap2\n  swap1\n  tag_5\n  jump\t// in\ntag_4:\n  pop\n    /* \"contracts/TaskManagement.sol\":2180:2191  roleHistory */\n  0x02\n    /* \"contracts/TaskManagement.sol\":2180:2203  roleHistory[msg.sender] */\n  0x00\n    /* \"contracts/TaskManagement.sol\":2192:2202  msg.sender */\n  caller\n    /* \"contracts/TaskManagement.sol\":2180:2203  roleHistory[msg.sender] */\n  0xffffffffffffffffffffffffffffffffffffffff\n  and\n  0xffffffffffffffffffffffffffffffffffffffff\n  and\n  dup2\n  mstore\n  0x20\n  add\n  swap1\n  dup2\n  mstore\n  0x20\n  add\n  0x00\n  keccak256\n    /* \"contracts/TaskManagement.sol\":2180:2219  roleHistory[msg.sender].push(\"manager\") */\n  dup1\n  0x01\n  dup2\n  sload\n  add\n  dup1\n  dup3\n  sstore\n  dup1\n  swap2\n  pop\n  pop\n  0x01\n  swap1\n  sub\n  swap1\n  0x00\n  mstore\n  keccak256(0x00, 0x20)\n  add\n  0x00\n  mload(0x40)\n  dup1\n  0x40\n  add\n  0x40\n  mstore\n  dup1\n  0x07\n  dup2\n  mstore\n  0x20\n  add\n  0x6d616e6167657200000000000000000000000000000000000000000000000000\n  dup2\n  mstore\n  pop\n  swap1\n  swap2\n  swap1\n  swap2\n  pop\n  swap1\n  dup2\n  tag_7\n  swap2\n  swap1\n  tag_5\n  jump\t// in\ntag_7:\n  pop\n    /* \"contracts/TaskManagement.sol\":249:11679  contract TaskManagement {... */\n  jump(tag_8)\n    /* \"#utility.yul\":7:106   */\ntag_9:\n    /* \"#utility.yul\":59:65   */\n  0x00\n    /* \"#utility.yul\":93:98   */\n  dup2\n    /* \"#utility.yul\":87:99   */\n  mload\n    /* \"#utility.yul\":77:99   */\n  swap1\n  pop\n    /* \"#utility.yul\":7:106   */\n  swap2\n  swap1\n  pop\n  jump\t// out\n    /* \"#utility.yul\":112:292   */\ntag_10:\n    /* \"#utility.yul\":160:237   */\n  0x4e487b7100000000000000000000000000000000000000000000000000000000\n    /* \"#utility.yul\":157:158   */\n  0x00\n    /* \"#utility.yul\":150:238   */\n  mstore\n    /* \"#utility.yul\":257:261   */\n  0x41\n    /* \"#utility.yul\":254:255   */\n  0x04\n    /* \"#utility.yul\":247:262   */\n  mstore\n    /* \"#utility.yul\":281:285   */\n  0x24\n    /* \"#utility.yul\":278:279   */\n  0x00\n    /* \"#utility.yul\":271:286   */\n  revert\n    /* \"#utility.yul\":298:478   */\ntag_11:\n    /* \"#utility.yul\":346:423   */\n  0x4e487b7100000000000000000000000000000000000000000000000000000000\n    /* \"#utility.yul\":343:344   */\n  0x00\n    /* \"#utility.yul\":336:424   */\n  mstore\n    /* \"#utility.yul\":443:447   */\n  0x22\n    /* \"#utility.yul\":440:441   */\n  0x04\n    /* \"#utility.yul\":433:448   */\n  mstore\n    /* \"#utility.yul\":467:471   */\n  0x24\n    /* \"#utility.yul\":464:465   */\n  0x00\n    /* \"#utility.yul\":457:472   */\n  revert\n    /* \"#utility.yul\":484:804   */\ntag_12:\n    /* \"#utility.yul\":528:534   */\n  0x00\n    /* \"#utility.yul\":565:566   */\n  0x02\n    /* \"#utility.yul\":559:563   */\n  dup3\n    /* \"#utility.yul\":555:567   */\n  div\n    /* \"#utility.yul\":545:567   */\n  swap1\n  pop\n    /* \"#utility.yul\":612:613   */\n  0x01\n    /* \"#utility.yul\":606:610   */\n  dup3\n    /* \"#utility.yul\":602:614   */\n  and\n    /* \"#utility.yul\":633:651   */\n  dup1\n    /* \"#utility.yul\":623:704   */\n  tag_34\n  jumpi\n    /* \"#utility.yul\":689:693   */\n  0x7f\n    /* \"#utility.yul\":681:687   */\n  dup3\n    /* \"#utility.yul\":677:694   */\n  and\n    /* \"#utility.yul\":667:694   */\n  swap2\n  pop\n    /* \"#utility.yul\":623:704   */\ntag_34:\n    /* \"#utility.yul\":751:753   */\n  0x20\n    /* \"#utility.yul\":743:749   */\n  dup3\n    /* \"#utility.yul\":740:754   */\n  lt\n    /* \"#utility.yul\":720:738   */\n  dup2\n    /* \"#utility.yul\":717:755   */\n  sub\n    /* \"#utility.yul\":714:798   */\n  tag_35\n  jumpi\n    /* \"#utility.yul\":770:788   */\n  tag_36\n  tag_11\n  jump\t// in\ntag_36:\n    /* \"#utility.yul\":714:798   */\ntag_35:\n    /* \"#utility.yul\":535:804   */\n  pop\n    /* \"#utility.yul\":484:804   */\n  swap2\n  swap1\n  pop\n  jump\t// out\n    /* \"#utility.yul\":810:951   */\ntag_13:\n    /* \"#utility.yul\":859:863   */\n  0x00\n    /* \"#utility.yul\":882:885   */\n  dup2\n    /* \"#utility.yul\":874:885   */\n  swap1\n  pop\n    /* \"#utility.yul\":905:908   */\n  dup2\n    /* \"#utility.yul\":902:903   */\n  0x00\n    /* \"#utility.yul\":895:909   */\n  mstore\n    /* \"#utility.yul\":939:943   */\n  0x20\n    /* \"#utility.yul\":936:937   */\n  0x00\n    /* \"#utility.yul\":926:944   */\n  keccak256\n    /* \"#utility.yul\":918:944   */\n  swap1\n  pop\n    /* \"#utility.yul\":810:951   */\n  swap2\n  swap1\n  pop\n  jump\t// out\n    /* \"#utility.yul\":957:1050   */\ntag_14:\n    /* \"#utility.yul\":994:1000   */\n  0x00\n    /* \"#utility.yul\":1041:1043   */\n  0x20\n    /* \"#utility.yul\":1036:1038   */\n  0x1f\n    /* \"#utility.yul\":1029:1034   */\n  dup4\n    /* \"#utility.yul\":1025:1039   */\n  add\n    /* \"#utility.yul\":1021:1044   */\n  div\n    /* \"#utility.yul\":1011:1044   */\n  swap1\n  pop\n    /* \"#utility.yul\":957:1050   */\n  swap2\n  swap1\n  pop\n  jump\t// out\n    /* \"#utility.yul\":1056:1163   */\ntag_15:\n    /* \"#utility.yul\":1100:1108   */\n  0x00\n    /* \"#utility.yul\":1150:1155   */\n  dup3\n    /* \"#utility.yul\":1144:1148   */\n  dup3\n    /* \"#utility.yul\":1140:1156   */\n  shl\n    /* \"#utility.yul\":1119:1156   */\n  swap1\n  pop\n    /* \"#utility.yul\":1056:1163   */\n  swap3\n  swap2\n  pop\n  pop\n  jump\t// out\n    /* \"#utility.yul\":1169:1562   */\ntag_16:\n    /* \"#utility.yul\":1238:1244   */\n  0x00\n    /* \"#utility.yul\":1288:1289   */\n  0x08\n    /* \"#utility.yul\":1276:1286   */\n  dup4\n    /* \"#utility.yul\":1272:1290   */\n  mul\n    /* \"#utility.yul\":1311:1408   */\n  tag_41\n    /* \"#utility.yul\":1341:1407   */\n  0xffffffffffffffffffffffffffffffffffffffffffffffffffffffffffffffff\n    /* \"#utility.yul\":1330:1339   */\n  dup3\n    /* \"#utility.yul\":1311:1408   */\n  tag_15\n  jump\t// in\ntag_41:\n    /* \"#utility.yul\":1429:1468   */\n  tag_42\n    /* \"#utility.yul\":1459:1467   */\n  dup7\n    /* \"#utility.yul\":1448:1457   */\n  dup4\n    /* \"#utility.yul\":1429:1468   */\n  tag_15\n  jump\t// in\ntag_42:\n    /* \"#utility.yul\":1417:1468   */\n  swap6\n  pop\n    /* \"#utility.yul\":1501:1505   */\n  dup1\n    /* \"#utility.yul\":1497:1506   */\n  not\n    /* \"#utility.yul\":1490:1495   */\n  dup5\n    /* \"#utility.yul\":1486:1507   */\n  and\n    /* \"#utility.yul\":1477:1507   */\n  swap4\n  pop\n    /* \"#utility.yul\":1550:1554   */\n  dup1\n    /* \"#utility.yul\":1540:1548   */\n  dup7\n    /* \"#utility.yul\":1536:1555   */\n  and\n    /* \"#utility.yul\":1529:1534   */\n  dup5\n    /* \"#utility.yul\":1526:1556   */\n  or\n    /* \"#utility.yul\":1516:1556   */\n  swap3\n  pop\n    /* \"#utility.yul\":1245:1562   */\n  pop\n  pop\n    /* \"#utility.yul\":1169:1562   */\n  swap4\n  swap3\n  pop\n  pop\n  pop\n  jump\t// out\n    /* \"#utility.yul\":1568:1645   */\ntag_17:\n    /* \"#utility.yul\":1605:1612   */\n  0x00\n    /* \"#utility.yul\":1634:1639   */\n  dup2\n    /* \"#utility.yul\":1623:1639   */\n  swap1\n  pop\n    /* \"#utility.yul\":1568:1645   */\n  swap2\n  swap1\n  pop\n  jump\t// out\n    /* \"#utility.yul\":1651:1711   */\ntag_18:\n    /* \"#utility.yul\":1679:1682   */\n  0x00\n    /* \"#utility.yul\":1700:1705   */\n  dup2\n    /* \"#utility.yul\":1693:1705   */\n  swap1\n  pop\n    /* \"#utility.yul\":1651:1711   */\n  swap2\n  swap1\n  pop\n  jump\t// out\n    /* \"#utility.yul\":1717:1859   */\ntag_19:\n    /* \"#utility.yul\":1767:1776   */\n  0x00\n    /* \"#utility.yul\":1800:1853   */\n  tag_46\n    /* \"#utility.yul\":1818:1852   */\n  tag_47\n    /* \"#utility.yul\":1827:1851   */\n  tag_48\n    /* \"#utility.yul\":1845:1850   */\n  dup5\n    /* \"#utility.yul\":1827:1851   */\n  tag_17\n  jump\t// in\ntag_48:\n    /* \"#utility.yul\":1818:1852   */\n  tag_18\n  jump\t// in\ntag_47:\n    /* \"#utility.yul\":1800:1853   */\n  tag_17\n  jump\t// in\ntag_46:\n    /* \"#utility.yul\":1787:1853   */\n  swap1\n  pop\n    /* \"#utility.yul\":1717:1859   */\n  swap2\n  swap1\n  pop\n  jump\t// out\n    /* \"#utility.yul\":1865:1940   */\ntag_20:\n    /* \"#utility.yul\":1908:1911   */\n  0x00\n    /* \"#utility.yul\":1929:1934   */\n  dup2\n    /* \"#utility.yul\":1922:1934   */\n  swap1\n  pop\n    /* \"#utility.yul\":1865:1940   */\n  swap2\n  swap1\n  pop\n  jump\t// out\n    /* \"#utility.yul\":1946:2215   */\ntag_21:\n    /* \"#utility.yul\":2056:2095   */\n  tag_51\n    /* \"#utility.yul\":2087:2094   */\n  dup4\n    /* \"#utility.yul\":2056:2095   */\n  tag_19\n  jump\t// in\ntag_51:\n    /* \"#utility.yul\":2117:2208   */\n  tag_52\n    /* \"#utility.yul\":2166:2207   */\n  tag_53\n    /* \"#utility.yul\":2190:2206   */\n  dup3\n    /* \"#utility.yul\":2166:2207   */\n  tag_20\n  jump\t// in\ntag_53:\n    /* \"#utility.yul\":2158:2164   */\n  dup5\n    /* \"#utility.yul\":2151:2155   */\n  dup5\n    /* \"#utility.yul\":2145:2156   */\n  sload\n    /* \"#utility.yul\":2117:2208   */\n  tag_16\n  jump\t// in\ntag_52:\n    /* \"#utility.yul\":2111:2115   */\n  dup3\n    /* \"#utility.yul\":2104:2209   */\n  sstore\n    /* \"#utility.yul\":2022:2215   */\n  pop\n    /* \"#utility.yul\":1946:2215   */\n  pop\n  pop\n  pop\n  jump\t// out\n    /* \"#utility.yul\":2221:2294   */\ntag_22:\n    /* \"#utility.yul\":2266:2269   */\n  0x00\n    /* \"#utility.yul\":2221:2294   */\n  swap1\n  jump\t// out\n    /* \"#utility.yul\":2300:2489   */\ntag_23:\n    /* \"#utility.yul\":2377:2409   */\n  tag_56\n  tag_22\n  jump\t// in\ntag_56:\n    /* \"#utility.yul\":2418:2483   */\n  tag_57\n    /* \"#utility.yul\":2476:2482   */\n  dup2\n    /* \"#utility.yul\":2468:2474   */\n  dup5\n    /* \"#utility.yul\":2462:2466   */\n  dup5\n    /* \"#utility.yul\":2418:2483   */\n  tag_21\n  jump\t// in\ntag_57:\n    /* \"#utility.yul\":2353:2489   */\n  pop\n    /* \"#utility.yul\":2300:2489   */\n  pop\n  pop\n  jump\t// out\n    /* \"#utility.yul\":2495:2681   */\ntag_24:\n    /* \"#utility.yul\":2555:2675   */\ntag_59:\n    /* \"#utility.yul\":2572:2575   */\n  dup2\n    /* \"#utility.yul\":2565:2570   */\n  dup2\n    /* \"#utility.yul\":2562:2576   */\n  lt\n    /* \"#utility.yul\":2555:2675   */\n  iszero\n  tag_61\n  jumpi\n    /* \"#utility.yul\":2626:2665   */\n  tag_62\n    /* \"#utility.yul\":2663:2664   */\n  0x00\n    /* \"#utility.yul\":2656:2661   */\n  dup3\n    /* \"#utility.yul\":2626:2665   */\n  tag_23\n  jump\t// in\ntag_62:\n    /* \"#utility.yul\":2599:2600   */\n  0x01\n    /* \"#utility.yul\":2592:2597   */\n  dup2\n    /* \"#utility.yul\":2588:2601   */\n  add\n    /* \"#utility.yul\":2579:2601   */\n  swap1\n  pop\n    /* \"#utility.yul\":2555:2675   */\n  jump(tag_59)\ntag_61:\n    /* \"#utility.yul\":2495:2681   */\n  pop\n  pop\n  jump\t// out\n    /* \"#utility.yul\":2687:3230   */\ntag_25:\n    /* \"#utility.yul\":2788:2790   */\n  0x1f\n    /* \"#utility.yul\":2783:2786   */\n  dup3\n    /* \"#utility.yul\":2780:2791   */\n  gt\n    /* \"#utility.yul\":2777:3223   */\n  iszero\n  tag_64\n  jumpi\n    /* \"#utility.yul\":2822:2860   */\n  tag_65\n    /* \"#utility.yul\":2854:2859   */\n  dup2\n    /* \"#utility.yul\":2822:2860   */\n  tag_13\n  jump\t// in\ntag_65:\n    /* \"#utility.yul\":2906:2935   */\n  tag_66\n    /* \"#utility.yul\":2924:2934   */\n  dup5\n    /* \"#utility.yul\":2906:2935   */\n  tag_14\n  jump\t// in\ntag_66:\n    /* \"#utility.yul\":2896:2904   */\n  dup2\n    /* \"#utility.yul\":2892:2936   */\n  add\n    /* \"#utility.yul\":3089:3091   */\n  0x20\n    /* \"#utility.yul\":3077:3087   */\n  dup6\n    /* \"#utility.yul\":3074:3092   */\n  lt\n    /* \"#utility.yul\":3071:3120   */\n  iszero\n  tag_67\n  jumpi\n    /* \"#utility.yul\":3110:3118   */\n  dup2\n    /* \"#utility.yul\":3095:3118   */\n  swap1\n  pop\n    /* \"#utility.yul\":3071:3120   */\ntag_67:\n    /* \"#utility.yul\":3133:3213   */\n  tag_68\n    /* \"#utility.yul\":3189:3211   */\n  tag_69\n    /* \"#utility.yul\":3207:3210   */\n  dup6\n    /* \"#utility.yul\":3189:3211   */\n  tag_14\n  jump\t// in\ntag_69:\n    /* \"#utility.yul\":3179:3187   */\n  dup4\n    /* \"#utility.yul\":3175:3212   */\n  add\n    /* \"#utility.yul\":3162:3173   */\n  dup3\n    /* \"#utility.yul\":3133:3213   */\n  tag_24\n  jump\t// in\ntag_68:\n    /* \"#utility.yul\":2792:3223   */\n  pop\n  pop\n    /* \"#utility.yul\":2777:3223   */\ntag_64:\n    /* \"#utility.yul\":2687:3230   */\n  pop\n  pop\n  pop\n  jump\t// out\n    /* \"#utility.yul\":3236:3353   */\ntag_26:\n    /* \"#utility.yul\":3290:3298   */\n  0x00\n    /* \"#utility.yul\":3340:3345   */\n  dup3\n    /* \"#utility.yul\":3334:3338   */\n  dup3\n    /* \"#utility.yul\":3330:3346   */\n  shr\n    /* \"#utility.yul\":3309:3346   */\n  swap1\n  pop\n    /* \"#utility.yul\":3236:3353   */\n  swap3\n  swap2\n  pop\n  pop\n  jump\t// out\n    /* \"#utility.yul\":3359:3528   */\ntag_27:\n    /* \"#utility.yul\":3403:3409   */\n  0x00\n    /* \"#utility.yul\":3436:3487   */\n  tag_72\n    /* \"#utility.yul\":3484:3485   */\n  0x00\n    /* \"#utility.yul\":3480:3486   */\n  not\n    /* \"#utility.yul\":3472:3477   */\n  dup5\n    /* \"#utility.yul\":3469:3470   */\n  0x08\n    /* \"#utility.yul\":3465:3478   */\n  mul\n    /* \"#utility.yul\":3436:3487   */\n  tag_26\n  jump\t// in\ntag_72:\n    /* \"#utility.yul\":3432:3488   */\n  not\n    /* \"#utility.yul\":3517:3521   */\n  dup1\n    /* \"#utility.yul\":3511:3515   */\n  dup4\n    /* \"#utility.yul\":3507:3522   */\n  and\n    /* \"#utility.yul\":3497:3522   */\n  swap2\n  pop\n    /* \"#utility.yul\":3410:3528   */\n  pop\n    /* \"#utility.yul\":3359:3528   */\n  swap3\n  swap2\n  pop\n  pop\n  jump\t// out\n    /* \"#utility.yul\":3533:3828   */\ntag_28:\n    /* \"#utility.yul\":3609:3613   */\n  0x00\n    /* \"#utility.yul\":3755:3784   */\n  tag_74\n    /* \"#utility.yul\":3780:3783   */\n  dup4\n    /* \"#utility.yul\":3774:3778   */\n  dup4\n    /* \"#utility.yul\":3755:3784   */\n  tag_27\n  jump\t// in\ntag_74:\n    /* \"#utility.yul\":3747:3784   */\n  swap2\n  pop\n    /* \"#utility.yul\":3817:3820   */\n  dup3\n    /* \"#utility.yul\":3814:3815   */\n  0x02\n    /* \"#utility.yul\":3810:3821   */\n  mul\n    /* \"#utility.yul\":3804:3808   */\n  dup3\n    /* \"#utility.yul\":3801:3822   */\n  or\n    /* \"#utility.yul\":3793:3822   */\n  swap1\n  pop\n    /* \"#utility.yul\":3533:3828   */\n  swap3\n  swap2\n  pop\n  pop\n  jump\t// out\n    /* \"#utility.yul\":3833:5228   */\ntag_5:\n    /* \"#utility.yul\":3950:3987   */\n  tag_76\n    /* \"#utility.yul\":3983:3986   */\n  dup3\n    /* \"#utility.yul\":3950:3987   */\n  tag_9\n  jump\t// in\ntag_76:\n    /* \"#utility.yul\":4052:4070   */\n  0xffffffffffffffff\n    /* \"#utility.yul\":4044:4050   */\n  dup2\n    /* \"#utility.yul\":4041:4071   */\n  gt\n    /* \"#utility.yul\":4038:4094   */\n  iszero\n  tag_77\n  jumpi\n    /* \"#utility.yul\":4074:4092   */\n  tag_78\n  tag_10\n  jump\t// in\ntag_78:\n    /* \"#utility.yul\":4038:4094   */\ntag_77:\n    /* \"#utility.yul\":4118:4156   */\n  tag_79\n    /* \"#utility.yul\":4150:4154   */\n  dup3\n    /* \"#utility.yul\":4144:4155   */\n  sload\n    /* \"#utility.yul\":4118:4156   */\n  tag_12\n  jump\t// in\ntag_79:\n    /* \"#utility.yul\":4203:4270   */\n  tag_80\n    /* \"#utility.yul\":4263:4269   */\n  dup3\n    /* \"#utility.yul\":4255:4261   */\n  dup3\n    /* \"#utility.yul\":4249:4253   */\n  dup6\n    /* \"#utility.yul\":4203:4270   */\n  tag_25\n  jump\t// in\ntag_80:\n    /* \"#utility.yul\":4297:4298   */\n  0x00\n    /* \"#utility.yul\":4321:4325   */\n  0x20\n    /* \"#utility.yul\":4308:4325   */\n  swap1\n  pop\n    /* \"#utility.yul\":4353:4355   */\n  0x1f\n    /* \"#utility.yul\":4345:4351   */\n  dup4\n    /* \"#utility.yul\":4342:4356   */\n  gt\n    /* \"#utility.yul\":4370:4371   */\n  0x01\n    /* \"#utility.yul\":4365:4983   */\n  dup2\n  eq\n  tag_82\n  jumpi\n    /* \"#utility.yul\":5027:5028   */\n  0x00\n    /* \"#utility.yul\":5044:5050   */\n  dup5\n    /* \"#utility.yul\":5041:5118   */\n  iszero\n  tag_83\n  jumpi\n    /* \"#utility.yul\":5093:5102   */\n  dup3\n    /* \"#utility.yul\":5088:5091   */\n  dup8\n    /* \"#utility.yul\":5084:5103   */\n  add\n    /* \"#utility.yul\":5078:5104   */\n  mload\n    /* \"#utility.yul\":5069:5104   */\n  swap1\n  pop\n    /* \"#utility.yul\":5041:5118   */\ntag_83:\n    /* \"#utility.yul\":5144:5211   */\n  tag_84\n    /* \"#utility.yul\":5204:5210   */\n  dup6\n    /* \"#utility.yul\":5197:5202   */\n  dup3\n    /* \"#utility.yul\":5144:5211   */\n  tag_28\n  jump\t// in\ntag_84:\n    /* \"#utility.yul\":5138:5142   */\n  dup7\n    /* \"#utility.yul\":5131:5212   */\n  sstore\n    /* \"#utility.yul\":5000:5222   */\n  pop\n    /* \"#utility.yul\":4335:5222   */\n  jump(tag_81)\n    /* \"#utility.yul\":4365:4983   */\ntag_82:\n    /* \"#utility.yul\":4417:4421   */\n  0x1f\n    /* \"#utility.yul\":4413:4422   */\n  not\n    /* \"#utility.yul\":4405:4411   */\n  dup5\n    /* \"#utility.yul\":4401:4423   */\n  and\n    /* \"#utility.yul\":4451:4488   */\n  tag_85\n    /* \"#utility.yul\":4483:4487   */\n  dup7\n    /* \"#utility.yul\":4451:4488   */\n  tag_13\n  jump\t// in\ntag_85:\n    /* \"#utility.yul\":4510:4511   */\n  0x00\n    /* \"#utility.yul\":4524:4732   */\ntag_86:\n    /* \"#utility.yul\":4538:4545   */\n  dup3\n    /* \"#utility.yul\":4535:4536   */\n  dup2\n    /* \"#utility.yul\":4532:4546   */\n  lt\n    /* \"#utility.yul\":4524:4732   */\n  iszero\n  tag_88\n  jumpi\n    /* \"#utility.yul\":4617:4626   */\n  dup5\n    /* \"#utility.yul\":4612:4615   */\n  dup10\n    /* \"#utility.yul\":4608:4627   */\n  add\n    /* \"#utility.yul\":4602:4628   */\n  mload\n    /* \"#utility.yul\":4594:4600   */\n  dup3\n    /* \"#utility.yul\":4587:4629   */\n  sstore\n    /* \"#utility.yul\":4668:4669   */\n  0x01\n    /* \"#utility.yul\":4660:4666   */\n  dup3\n    /* \"#utility.yul\":4656:4670   */\n  add\n    /* \"#utility.yul\":4646:4670   */\n  swap2\n  pop\n    /* \"#utility.yul\":4715:4717   */\n  0x20\n    /* \"#utility.yul\":4704:4713   */\n  dup6\n    /* \"#utility.yul\":4700:4718   */\n  add\n    /* \"#utility.yul\":4687:4718   */\n  swap5\n  pop\n    /* \"#utility.yul\":4561:4565   */\n  0x20\n    /* \"#utility.yul\":4558:4559   */\n  dup2\n    /* \"#utility.yul\":4554:4566   */\n  add\n    /* \"#utility.yul\":4549:4566   */\n  swap1\n  pop\n    /* \"#utility.yul\":4524:4732   */\n  jump(tag_86)\ntag_88:\n    /* \"#utility.yul\":4760:4766   */\n  dup7\n    /* \"#utility.yul\":4751:4758   */\n  dup4\n    /* \"#utility.yul\":4748:4767   */\n  lt\n    /* \"#utility.yul\":4745:4924   */\n  iszero\n  tag_89\n  jumpi\n    /* \"#utility.yul\":4818:4827   */\n  dup5\n    /* \"#utility.yul\":4813:4816   */\n  dup10\n    /* \"#utility.yul\":4809:4828   */\n  add\n    /* \"#utility.yul\":4803:4829   */\n  mload\n    /* \"#utility.yul\":4861:4909   */\n  tag_90\n    /* \"#utility.yul\":4903:4907   */\n  0x1f\n    /* \"#utility.yul\":4895:4901   */\n  dup10\n    /* \"#utility.yul\":4891:4908   */\n  and\n    /* \"#utility.yul\":4880:4889   */\n  dup3\n    /* \"#utility.yul\":4861:4909   */\n  tag_27\n  jump\t// in\ntag_90:\n    /* \"#utility.yul\":4853:4859   */\n  dup4\n    /* \"#utility.yul\":4846:4910   */\n  sstore\n    /* \"#utility.yul\":4768:4924   */\n  pop\n    /* \"#utility.yul\":4745:4924   */\ntag_89:\n    /* \"#utility.yul\":4970:4971   */\n  0x01\n    /* \"#utility.yul\":4966:4967   */\n  0x02\n    /* \"#utility.yul\":4958:4964   */\n  dup9\n    /* \"#utility.yul\":4954:4968   */\n  mul\n    /* \"#utility.yul\":4950:4972   */\n  add\n    /* \"#utility.yul\":4944:4948   */\n  dup9\n    /* \"#utility.yul\":4937:4973   */\n  sstore\n    /* \"#utility.yul\":4372:4983   */\n  pop\n  pop\n  pop\n    /* \"#utility.yul\":4335:5222   */\ntag_81:\n  pop\n    /* \"#utility.yul\":3925:5228   */\n  pop\n  pop\n  pop\n    /* \"#utility.yul\":3833:5228   */\n  pop\n  pop\n  jump\t// out\n    /* \"contracts/TaskManagement.sol\":249:11679  contract TaskManagement {... */\ntag_8:\n  dataSize(sub_0)\n  dup1\n  dataOffset(sub_0)\n  0x00\n  codecopy\n  0x00\n  return\nstop\n\nsub_0: assembly {\n        /* \"contracts/TaskManagement.sol\":249:11679  contract TaskManagement {... */\n      mstore(0x40, 0x80)\n      callvalue\n      dup1\n      iszero\n      tag_1\n      jumpi\n      0x00\n      dup1\n      revert\n    tag_1:\n      pop\n      jumpi(tag_2, lt(calldatasize, 0x04))\n      shr(0xe0, calldataload(0x00))\n      dup1\n      0x4505e299\n      gt\n      tag_19\n      jumpi\n      dup1\n      0xbc9c2d55\n      gt\n      tag_20\n      jumpi\n      dup1\n      0xbc9c2d55\n      eq\n      tag_15\n      jumpi\n      dup1\n      0xe1e29558\n      eq\n      tag_16\n      jumpi\n      dup1\n      0xe4f0c22b\n      eq\n      tag_17\n      jumpi\n      dup1\n      0xfde08174\n      eq\n      tag_18\n      jumpi\n      jump(tag_2)\n    tag_20:\n      dup1\n      0x4505e299\n      eq\n      tag_11\n      jumpi\n      dup1\n      0x6c03a898\n      eq\n      tag_12\n      jumpi\n      dup1\n      0x6f6b07db\n      eq\n      tag_13\n      jumpi\n      dup1\n      0xb7dfcbee\n      eq\n      tag_14\n      jumpi\n      jump(tag_2)\n    tag_19:\n      dup1\n      0x14c95832\n      gt\n      tag_21\n      jumpi\n      dup1\n      0x14c95832\n      eq\n      tag_7\n      jumpi\n      dup1\n      0x1d65e77e\n      eq\n      tag_8\n      jumpi\n      dup1\n      0x34112f5f\n      eq\n      tag_9\n      jumpi\n      dup1\n      0x3457d3e2\n      eq\n      tag_10\n      jumpi\n      jump(tag_2)\n    tag_21:\n      dup1\n      0x022bf9c1\n      eq\n      tag_3\n      jumpi\n      dup1\n      0x04a87e38\n      eq\n      tag_4\n      jumpi\n      dup1\n      0x096f8494\n      eq\n      tag_5\n      jumpi\n      dup1\n      0x10668264\n      eq\n      tag_6\n      jumpi\n    tag_2:\n      0x00\n      dup1\n      revert\n        /* \"contracts/TaskManagement.sol\":4131:5015  function issueRole(address _user, string memory _role) onlyManager public {... */\n    tag_3:\n      tag_22\n      0x04\n      dup1\n      calldatasize\n      sub\n      dup2\n      add\n      swap1\n      tag_23\n      swap2\n      swap1\n      tag_24\n      jump\t// in\n    tag_23:\n      tag_25\n      jump\t// in\n    tag_22:\n      stop\n        /* \"contracts/TaskManagement.sol\":8541:8984  function getTasks() onlyManager public view returns (Task[] memory) {... */\n    tag_4:\n      tag_26\n      tag_27\n      jump\t// in\n    tag_26:\n      mload(0x40)\n      tag_28\n      swap2\n      swap1\n      tag_29\n      jump\t// in\n    tag_28:\n      mload(0x40)\n      dup1\n      swap2\n      sub\n      swap1\n      return\n        /* \"contracts/TaskManagement.sol\":11298:11676  function verifyTaskDueDate(uint _id) public returns (bool) {... */\n    tag_5:\n      tag_30\n      0x04\n      dup1\n      calldatasize\n      sub\n      dup2\n      add\n      swap1\n      tag_31\n      swap2\n      swap1\n      tag_32\n      jump\t// in\n    tag_31:\n      tag_33\n      jump\t// in\n    tag_30:\n      mload(0x40)\n      tag_34\n      swap2\n      swap1\n      tag_35\n      jump\t// in\n    tag_34:\n      mload(0x40)\n      dup1\n      swap2\n      sub\n      swap1\n      return\n        /* \"contracts/TaskManagement.sol\":10498:10908  function verifyTaskOwnership(uint _id, address _assignee) public returns (bool) {... */\n    tag_6:\n      tag_36\n      0x04\n      dup1\n      calldatasize\n      sub\n      dup2\n      add\n      swap1\n      tag_37\n      swap2\n      swap1\n      tag_38\n      jump\t// in\n    tag_37:\n      tag_39\n      jump\t// in\n    tag_36:\n      mload(0x40)\n      tag_40\n      swap2\n      swap1\n      tag_35\n      jump\t// in\n    tag_40:\n      mload(0x40)\n      dup1\n      swap2\n      sub\n      swap1\n      return\n        /* \"contracts/TaskManagement.sol\":2795:3508  function updateDID(string memory _newIdentifier) public {... */\n    tag_7:\n      tag_41\n      0x04\n      dup1\n      calldatasize\n      sub\n      dup2\n      add\n      swap1\n      tag_42\n      swap2\n      swap1\n      tag_43\n      jump\t// in\n    tag_42:\n      tag_44\n      jump\t// in\n    tag_41:\n      stop\n        /* \"contracts/TaskManagement.sol\":9541:9988  function getTask(uint _id) public view returns (... */\n    tag_8:\n      tag_45\n      0x04\n      dup1\n      calldatasize\n      sub\n      dup2\n      add\n      swap1\n      tag_46\n      swap2\n      swap1\n      tag_32\n      jump\t// in\n    tag_46:\n      tag_47\n      jump\t// in\n    tag_45:\n      mload(0x40)\n      tag_48\n      swap2\n      swap1\n      tag_49\n      jump\t// in\n    tag_48:\n      mload(0x40)\n      dup1\n      swap2\n      sub\n      swap1\n      return\n        /* \"contracts/TaskManagement.sol\":9030:9533  function getUserTasks() public view returns (Task[] memory) {... */\n    tag_9:\n      tag_50\n      tag_51\n      jump\t// in\n    tag_50:\n      mload(0x40)\n      tag_52\n      swap2\n      swap1\n      tag_29\n      jump\t// in\n    tag_52:\n      mload(0x40)\n      dup1\n      swap2\n      sub\n      swap1\n      return\n        /* \"contracts/TaskManagement.sol\":2235:2583  function createDID(string memory _identifier) public {... */\n    tag_10:\n      tag_53\n      0x04\n      dup1\n      calldatasize\n      sub\n      dup2\n      add\n      swap1\n      tag_54\n      swap2\n      swap1\n      tag_43\n      jump\t// in\n    tag_54:\n      tag_55\n      jump\t// in\n    tag_53:\n      stop\n        /* \"contracts/TaskManagement.sol\":6480:7387  function createTask(... */\n    tag_11:\n      tag_56\n      0x04\n      dup1\n      calldatasize\n      sub\n      dup2\n      add\n      swap1\n      tag_57\n      swap2\n      swap1\n      tag_58\n      jump\t// in\n    tag_57:\n      tag_59\n      jump\t// in\n    tag_56:\n      stop\n        /* \"contracts/TaskManagement.sol\":10916:11290  function verifyTaskStatus(uint _id) public returns (bool) {... */\n    tag_12:\n      tag_60\n      0x04\n      dup1\n      calldatasize\n      sub\n      dup2\n      add\n      swap1\n      tag_61\n      swap2\n      swap1\n      tag_32\n      jump\t// in\n    tag_61:\n      tag_62\n      jump\t// in\n    tag_60:\n      mload(0x40)\n      tag_63\n      swap2\n      swap1\n      tag_35\n      jump\t// in\n    tag_63:\n      mload(0x40)\n      dup1\n      swap2\n      sub\n      swap1\n      return\n        /* \"contracts/TaskManagement.sol\":7459:8495  function reassignTask(uint _id, address _newAssignee) onlyManager public {... */\n    tag_13:\n      tag_64\n      0x04\n      dup1\n      calldatasize\n      sub\n      dup2\n      add\n      swap1\n      tag_65\n      swap2\n      swap1\n      tag_38\n      jump\t// in\n    tag_65:\n      tag_66\n      jump\t// in\n    tag_64:\n      stop\n        /* \"contracts/TaskManagement.sol\":3565:3987  function assignRole(address _user, string memory _role) onlyManager public {... */\n    tag_14:\n      tag_67\n      0x04\n      dup1\n      calldatasize\n      sub\n      dup2\n      add\n      swap1\n      tag_68\n      swap2\n      swap1\n      tag_24\n      jump\t// in\n    tag_68:\n      tag_69\n      jump\t// in\n    tag_67:\n      stop\n        /* \"contracts/TaskManagement.sol\":2591:2787  function getDID() public view returns (string memory) {... */\n    tag_15:\n      tag_70\n      tag_71\n      jump\t// in\n    tag_70:\n      mload(0x40)\n      tag_72\n      swap2\n      swap1\n      tag_73\n      jump\t// in\n    tag_72:\n      mload(0x40)\n      dup1\n      swap2\n      sub\n      swap1\n      return\n        /* \"contracts/TaskManagement.sol\":9996:10490  function completeTask(uint _id) public {... */\n    tag_16:\n      tag_74\n      0x04\n      dup1\n      calldatasize\n      sub\n      dup2\n      add\n      swap1\n      tag_75\n      swap2\n      swap1\n      tag_32\n      jump\t// in\n    tag_75:\n      tag_76\n      jump\t// in\n    tag_74:\n      stop\n        /* \"contracts/TaskManagement.sol\":5662:6472  function verifyRole(address _user, address _issuer, string memory _role) public returns (bool) {... */\n    tag_17:\n      tag_77\n      0x04\n      dup1\n      calldatasize\n      sub\n      dup2\n      add\n      swap1\n      tag_78\n      swap2\n      swap1\n      tag_79\n      jump\t// in\n    tag_78:\n      tag_80\n      jump\t// in\n    tag_77:\n      mload(0x40)\n      tag_81\n      swap2\n      swap1\n      tag_35\n      jump\t// in\n    tag_81:\n      mload(0x40)\n      dup1\n      swap2\n      sub\n      swap1\n      return\n        /* \"contracts/TaskManagement.sol\":5148:5629  function getRole() public view returns (string[] memory) {... */\n    tag_18:\n      tag_82\n      tag_83\n      jump\t// in\n    tag_82:\n      mload(0x40)\n      tag_84\n      swap2\n      swap1\n      tag_85\n      jump\t// in\n    tag_84:\n      mload(0x40)\n      dup1\n      swap2\n      sub\n      swap1\n      return\n        /* \"contracts/TaskManagement.sol\":4131:5015  function issueRole(address _user, string memory _role) onlyManager public {... */\n    tag_25:\n        /* \"contracts/TaskManagement.sol\":2046:2062  bytes(\"manager\") */\n      mload(0x40)\n      dup1\n      0x40\n      add\n      0x40\n      mstore\n      dup1\n      0x07\n      dup2\n      mstore\n      0x20\n      add\n      0x6d616e6167657200000000000000000000000000000000000000000000000000\n      dup2\n      mstore\n      pop\n        /* \"contracts/TaskManagement.sol\":2036:2063  keccak256(bytes(\"manager\")) */\n      dup1\n      mload\n      swap1\n      0x20\n      add\n      keccak256\n        /* \"contracts/TaskManagement.sol\":2013:2018  roles */\n      0x01\n        /* \"contracts/TaskManagement.sol\":2013:2030  roles[msg.sender] */\n      0x00\n        /* \"contracts/TaskManagement.sol\":2019:2029  msg.sender */\n      caller\n        /* \"contracts/TaskManagement.sol\":2013:2030  roles[msg.sender] */\n      0xffffffffffffffffffffffffffffffffffffffff\n      and\n      0xffffffffffffffffffffffffffffffffffffffff\n      and\n      dup2\n      mstore\n      0x20\n      add\n      swap1\n      dup2\n      mstore\n      0x20\n      add\n      0x00\n      keccak256\n        /* \"contracts/TaskManagement.sol\":1997:2032  keccak256(bytes(roles[msg.sender])) */\n      mload(0x40)\n      tag_87\n      swap2\n      swap1\n      tag_88\n      jump\t// in\n    tag_87:\n      mload(0x40)\n      dup1\n      swap2\n      sub\n      swap1\n      keccak256\n        /* \"contracts/TaskManagement.sol\":1997:2063  keccak256(bytes(roles[msg.sender])) == keccak256(bytes(\"manager\")) */\n      eq\n        /* \"contracts/TaskManagement.sol\":1989:2087  require(keccak256(bytes(roles[msg.sender])) == keccak256(bytes(\"manager\")), \"Unauthorized action\") */\n      tag_89\n      jumpi\n      mload(0x40)\n      0x08c379a000000000000000000000000000000000000000000000000000000000\n      dup2\n      mstore\n      0x04\n      add\n      tag_90\n      swap1\n      tag_91\n      jump\t// in\n    tag_90:\n      mload(0x40)\n      dup1\n      swap2\n      sub\n      swap1\n      revert\n    tag_89:\n        /* \"contracts/TaskManagement.sol\":4317:4318  0 */\n      0x00\n        /* \"contracts/TaskManagement.sol\":4283:4319  dids[msg.sender].owner != address(0) */\n      0xffffffffffffffffffffffffffffffffffffffff\n      and\n        /* \"contracts/TaskManagement.sol\":4283:4287  dids */\n      0x00\n        /* \"contracts/TaskManagement.sol\":4283:4299  dids[msg.sender] */\n      dup1\n        /* \"contracts/TaskManagement.sol\":4288:4298  msg.sender */\n      caller\n        /* \"contracts/TaskManagement.sol\":4283:4299  dids[msg.sender] */\n      0xffffffffffffffffffffffffffffffffffffffff\n      and\n      0xffffffffffffffffffffffffffffffffffffffff\n      and\n      dup2\n      mstore\n      0x20\n      add\n      swap1\n      dup2\n      mstore\n      0x20\n      add\n      0x00\n      keccak256\n        /* \"contracts/TaskManagement.sol\":4283:4305  dids[msg.sender].owner */\n      0x01\n      add\n      0x00\n      swap1\n      sload\n      swap1\n      0x0100\n      exp\n      swap1\n      div\n      0xffffffffffffffffffffffffffffffffffffffff\n      and\n        /* \"contracts/TaskManagement.sol\":4283:4319  dids[msg.sender].owner != address(0) */\n      0xffffffffffffffffffffffffffffffffffffffff\n      and\n      sub\n        /* \"contracts/TaskManagement.sol\":4275:4362  require(dids[msg.sender].owner != address(0), \"No existing DID found for this address\") */\n      tag_93\n      jumpi\n      mload(0x40)\n      0x08c379a000000000000000000000000000000000000000000000000000000000\n      dup2\n      mstore\n      0x04\n      add\n      tag_94\n      swap1\n      tag_95\n      jump\t// in\n    tag_94:\n      mload(0x40)\n      dup1\n      swap2\n      sub\n      swap1\n      revert\n    tag_93:\n        /* \"contracts/TaskManagement.sol\":4403:4404  0 */\n      0x00\n        /* \"contracts/TaskManagement.sol\":4387:4392  _role */\n      dup2\n        /* \"contracts/TaskManagement.sol\":4381:4400  bytes(_role).length */\n      mload\n        /* \"contracts/TaskManagement.sol\":4381:4404  bytes(_role).length > 0 */\n      gt\n        /* \"contracts/TaskManagement.sol\":4373:4429  require(bytes(_role).length > 0, \"Role cannot be empty\") */\n      tag_96\n      jumpi\n      mload(0x40)\n      0x08c379a000000000000000000000000000000000000000000000000000000000\n      dup2\n      mstore\n      0x04\n      add\n      tag_97\n      swap1\n      tag_98\n      jump\t// in\n    tag_97:\n      mload(0x40)\n      dup1\n      swap2\n      sub\n      swap1\n      revert\n    tag_96:\n        /* \"contracts/TaskManagement.sol\":4482:4498  bytes32 roleHash */\n      0x00\n        /* \"contracts/TaskManagement.sol\":4528:4538  msg.sender */\n      caller\n        /* \"contracts/TaskManagement.sol\":4540:4545  _user */\n      dup4\n        /* \"contracts/TaskManagement.sol\":4547:4552  _role */\n      dup4\n        /* \"contracts/TaskManagement.sol\":4554:4569  block.timestamp */\n      timestamp\n        /* \"contracts/TaskManagement.sol\":4511:4570  abi.encodePacked(msg.sender, _user, _role, block.timestamp) */\n      add(0x20, mload(0x40))\n      tag_99\n      swap5\n      swap4\n      swap3\n      swap2\n      swap1\n      tag_100\n      jump\t// in\n    tag_99:\n      mload(0x40)\n      0x20\n      dup2\n      dup4\n      sub\n      sub\n      dup2\n      mstore\n      swap1\n      0x40\n      mstore\n        /* \"contracts/TaskManagement.sol\":4501:4571  keccak256(abi.encodePacked(msg.sender, _user, _role, block.timestamp)) */\n      dup1\n      mload\n      swap1\n      0x20\n      add\n      keccak256\n        /* \"contracts/TaskManagement.sol\":4482:4571  bytes32 roleHash = keccak256(abi.encodePacked(msg.sender, _user, _role, block.timestamp)) */\n      swap1\n      pop\n        /* \"contracts/TaskManagement.sol\":4668:4679  credentials */\n      0x03\n        /* \"contracts/TaskManagement.sol\":4668:4686  credentials[_user] */\n      0x00\n        /* \"contracts/TaskManagement.sol\":4680:4685  _user */\n      dup5\n        /* \"contracts/TaskManagement.sol\":4668:4686  credentials[_user] */\n      0xffffffffffffffffffffffffffffffffffffffff\n      and\n      0xffffffffffffffffffffffffffffffffffffffff\n      and\n      dup2\n      mstore\n      0x20\n      add\n      swap1\n      dup2\n      mstore\n      0x20\n      add\n      0x00\n      keccak256\n        /* \"contracts/TaskManagement.sol\":4692:4811  Credential(... */\n      mload(0x40)\n      dup1\n      0x80\n      add\n      0x40\n      mstore\n      dup1\n        /* \"contracts/TaskManagement.sol\":4717:4727  msg.sender */\n      caller\n        /* \"contracts/TaskManagement.sol\":4692:4811  Credential(... */\n      0xffffffffffffffffffffffffffffffffffffffff\n      and\n      dup2\n      mstore\n      0x20\n      add\n        /* \"contracts/TaskManagement.sol\":4742:4747  _role */\n      dup5\n        /* \"contracts/TaskManagement.sol\":4692:4811  Credential(... */\n      dup2\n      mstore\n      0x20\n      add\n        /* \"contracts/TaskManagement.sol\":4762:4770  roleHash */\n      dup4\n        /* \"contracts/TaskManagement.sol\":4692:4811  Credential(... */\n      dup2\n      mstore\n      0x20\n      add\n        /* \"contracts/TaskManagement.sol\":4785:4800  block.timestamp */\n      timestamp\n        /* \"contracts/TaskManagement.sol\":4692:4811  Credential(... */\n      dup2\n      mstore\n      pop\n        /* \"contracts/TaskManagement.sol\":4668:4812  credentials[_user].push(Credential(... */\n      swap1\n      dup1\n      0x01\n      dup2\n      sload\n      add\n      dup1\n      dup3\n      sstore\n      dup1\n      swap2\n      pop\n      pop\n      0x01\n      swap1\n      sub\n      swap1\n      0x00\n      mstore\n      keccak256(0x00, 0x20)\n      swap1\n      0x04\n      mul\n      add\n      0x00\n      swap1\n      swap2\n      swap1\n      swap2\n      swap1\n      swap2\n      pop\n      0x00\n      dup3\n      add\n      mload\n      dup2\n      0x00\n      add\n      exp(0x0100, 0x00)\n      dup2\n      sload\n      dup2\n      0xffffffffffffffffffffffffffffffffffffffff\n      mul\n      not\n      and\n      swap1\n      dup4\n      0xffffffffffffffffffffffffffffffffffffffff\n      and\n      mul\n      or\n      swap1\n      sstore\n      pop\n      0x20\n      dup3\n      add\n      mload\n      dup2\n      0x01\n      add\n      swap1\n      dup2\n      tag_102\n      swap2\n      swap1\n      tag_103\n      jump\t// in\n    tag_102:\n      pop\n      0x40\n      dup3\n      add\n      mload\n      dup2\n      0x02\n      add\n      sstore\n      0x60\n      dup3\n      add\n      mload\n      dup2\n      0x03\n      add\n      sstore\n      pop\n      pop\n        /* \"contracts/TaskManagement.sol\":4838:4843  _role */\n      dup2\n        /* \"contracts/TaskManagement.sol\":4823:4828  roles */\n      0x01\n        /* \"contracts/TaskManagement.sol\":4823:4835  roles[_user] */\n      0x00\n        /* \"contracts/TaskManagement.sol\":4829:4834  _user */\n      dup6\n        /* \"contracts/TaskManagement.sol\":4823:4835  roles[_user] */\n      0xffffffffffffffffffffffffffffffffffffffff\n      and\n      0xffffffffffffffffffffffffffffffffffffffff\n      and\n      dup2\n      mstore\n      0x20\n      add\n      swap1\n      dup2\n      mstore\n      0x20\n      add\n      0x00\n      keccak256\n        /* \"contracts/TaskManagement.sol\":4823:4843  roles[_user] = _role */\n      swap1\n      dup2\n      tag_104\n      swap2\n      swap1\n      tag_103\n      jump\t// in\n    tag_104:\n      pop\n        /* \"contracts/TaskManagement.sol\":4854:4865  roleHistory */\n      0x02\n        /* \"contracts/TaskManagement.sol\":4854:4872  roleHistory[_user] */\n      0x00\n        /* \"contracts/TaskManagement.sol\":4866:4871  _user */\n      dup5\n        /* \"contracts/TaskManagement.sol\":4854:4872  roleHistory[_user] */\n      0xffffffffffffffffffffffffffffffffffffffff\n      and\n      0xffffffffffffffffffffffffffffffffffffffff\n      and\n      dup2\n      mstore\n      0x20\n      add\n      swap1\n      dup2\n      mstore\n      0x20\n      add\n      0x00\n      keccak256\n        /* \"contracts/TaskManagement.sol\":4878:4883  _role */\n      dup3\n        /* \"contracts/TaskManagement.sol\":4854:4884  roleHistory[_user].push(_role) */\n      swap1\n      dup1\n      0x01\n      dup2\n      sload\n      add\n      dup1\n      dup3\n      sstore\n      dup1\n      swap2\n      pop\n      pop\n      0x01\n      swap1\n      sub\n      swap1\n      0x00\n      mstore\n      keccak256(0x00, 0x20)\n      add\n      0x00\n      swap1\n      swap2\n      swap1\n      swap2\n      swap1\n      swap2\n      pop\n      swap1\n      dup2\n      tag_106\n      swap2\n      swap1\n      tag_103\n      jump\t// in\n    tag_106:\n      pop\n        /* \"contracts/TaskManagement.sol\":4913:4923  msg.sender */\n      caller\n        /* \"contracts/TaskManagement.sol\":4902:4948  RoleIssued(msg.sender, _user, _role, roleHash) */\n      0xffffffffffffffffffffffffffffffffffffffff\n      and\n      0xf4313cb022699889c6eddb590e42342301cdae4824fd424ffdfdeb23d4cdbbe9\n        /* \"contracts/TaskManagement.sol\":4925:4930  _user */\n      dup5\n        /* \"contracts/TaskManagement.sol\":4932:4937  _role */\n      dup5\n        /* \"contracts/TaskManagement.sol\":4939:4947  roleHash */\n      dup5\n        /* \"contracts/TaskManagement.sol\":4902:4948  RoleIssued(msg.sender, _user, _role, roleHash) */\n      mload(0x40)\n      tag_107\n      swap4\n      swap3\n      swap2\n      swap1\n      tag_108\n      jump\t// in\n    tag_107:\n      mload(0x40)\n      dup1\n      swap2\n      sub\n      swap1\n      log2\n        /* \"contracts/TaskManagement.sol\":4205:5015  {... */\n      pop\n        /* \"contracts/TaskManagement.sol\":4131:5015  function issueRole(address _user, string memory _role) onlyManager public {... */\n      pop\n      pop\n      jump\t// out\n        /* \"contracts/TaskManagement.sol\":8541:8984  function getTasks() onlyManager public view returns (Task[] memory) {... */\n    tag_27:\n        /* \"contracts/TaskManagement.sol\":8594:8607  Task[] memory */\n      0x60\n        /* \"contracts/TaskManagement.sol\":2046:2062  bytes(\"manager\") */\n      mload(0x40)\n      dup1\n      0x40\n      add\n      0x40\n      mstore\n      dup1\n      0x07\n      dup2\n      mstore\n      0x20\n      add\n      0x6d616e6167657200000000000000000000000000000000000000000000000000\n      dup2\n      mstore\n      pop\n        /* \"contracts/TaskManagement.sol\":2036:2063  keccak256(bytes(\"manager\")) */\n      dup1\n      mload\n      swap1\n      0x20\n      add\n      keccak256\n        /* \"contracts/TaskManagement.sol\":2013:2018  roles */\n      0x01\n        /* \"contracts/TaskManagement.sol\":2013:2030  roles[msg.sender] */\n      0x00\n        /* \"contracts/TaskManagement.sol\":2019:2029  msg.sender */\n      caller\n        /* \"contracts/TaskManagement.sol\":2013:2030  roles[msg.sender] */\n      0xffffffffffffffffffffffffffffffffffffffff\n      and\n      0xffffffffffffffffffffffffffffffffffffffff\n      and\n      dup2\n      mstore\n      0x20\n      add\n      swap1\n      dup2\n      mstore\n      0x20\n      add\n      0x00\n      keccak256\n        /* \"contracts/TaskManagement.sol\":1997:2032  keccak256(bytes(roles[msg.sender])) */\n      mload(0x40)\n      tag_110\n      swap2\n      swap1\n      tag_88\n      jump\t// in\n    tag_110:\n      mload(0x40)\n      dup1\n      swap2\n      sub\n      swap1\n      keccak256\n        /* \"contracts/TaskManagement.sol\":1997:2063  keccak256(bytes(roles[msg.sender])) == keccak256(bytes(\"manager\")) */\n      eq\n        /* \"contracts/TaskManagement.sol\":1989:2087  require(keccak256(bytes(roles[msg.sender])) == keccak256(bytes(\"manager\")), \"Unauthorized action\") */\n      tag_111\n      jumpi\n      mload(0x40)\n      0x08c379a000000000000000000000000000000000000000000000000000000000\n      dup2\n      mstore\n      0x04\n      add\n      tag_112\n      swap1\n      tag_91\n      jump\t// in\n    tag_112:\n      mload(0x40)\n      dup1\n      swap2\n      sub\n      swap1\n      revert\n    tag_111:\n        /* \"contracts/TaskManagement.sol\":8662:8663  0 */\n      0x00\n        /* \"contracts/TaskManagement.sol\":8628:8664  dids[msg.sender].owner != address(0) */\n      0xffffffffffffffffffffffffffffffffffffffff\n      and\n        /* \"contracts/TaskManagement.sol\":8628:8632  dids */\n      0x00\n        /* \"contracts/TaskManagement.sol\":8628:8644  dids[msg.sender] */\n      dup1\n        /* \"contracts/TaskManagement.sol\":8633:8643  msg.sender */\n      caller\n        /* \"contracts/TaskManagement.sol\":8628:8644  dids[msg.sender] */\n      0xffffffffffffffffffffffffffffffffffffffff\n      and\n      0xffffffffffffffffffffffffffffffffffffffff\n      and\n      dup2\n      mstore\n      0x20\n      add\n      swap1\n      dup2\n      mstore\n      0x20\n      add\n      0x00\n      keccak256\n        /* \"contracts/TaskManagement.sol\":8628:8650  dids[msg.sender].owner */\n      0x01\n      add\n      0x00\n      swap1\n      sload\n      swap1\n      0x0100\n      exp\n      swap1\n      div\n      0xffffffffffffffffffffffffffffffffffffffff\n      and\n        /* \"contracts/TaskManagement.sol\":8628:8664  dids[msg.sender].owner != address(0) */\n      0xffffffffffffffffffffffffffffffffffffffff\n      and\n      sub\n        /* \"contracts/TaskManagement.sol\":8620:8707  require(dids[msg.sender].owner != address(0), \"No existing DID found for this address\") */\n      tag_114\n      jumpi\n      mload(0x40)\n      0x08c379a000000000000000000000000000000000000000000000000000000000\n      dup2\n      mstore\n      0x04\n      add\n      tag_115\n      swap1\n      tag_95\n      jump\t// in\n    tag_115:\n      mload(0x40)\n      dup1\n      swap2\n      sub\n      swap1\n      revert\n    tag_114:\n        /* \"contracts/TaskManagement.sol\":8740:8741  0 */\n      0x00\n        /* \"contracts/TaskManagement.sol\":8726:8737  taskCounter */\n      sload(0x04)\n        /* \"contracts/TaskManagement.sol\":8726:8741  taskCounter > 0 */\n      gt\n        /* \"contracts/TaskManagement.sol\":8718:8773  require(taskCounter > 0, \"No tasks have been assigned\") */\n      tag_116\n      jumpi\n      mload(0x40)\n      0x08c379a000000000000000000000000000000000000000000000000000000000\n      dup2\n      mstore\n      0x04\n      add\n      tag_117\n      swap1\n      tag_118\n      jump\t// in\n    tag_117:\n      mload(0x40)\n      dup1\n      swap2\n      sub\n      swap1\n      revert\n    tag_116:\n        /* \"contracts/TaskManagement.sol\":8786:8810  Task[] memory tasksArray */\n      0x00\n        /* \"contracts/TaskManagement.sol\":8824:8835  taskCounter */\n      sload(0x04)\n        /* \"contracts/TaskManagement.sol\":8813:8836  new Task[](taskCounter) */\n      0xffffffffffffffff\n      dup2\n      gt\n      iszero\n      tag_119\n      jumpi\n      tag_120\n      tag_121\n      jump\t// in\n    tag_120:\n    tag_119:\n      mload(0x40)\n      swap1\n      dup1\n      dup3\n      mstore\n      dup1\n      0x20\n      mul\n      0x20\n      add\n      dup3\n      add\n      0x40\n      mstore\n      dup1\n      iszero\n      tag_122\n      jumpi\n      dup2\n      0x20\n      add\n    tag_123:\n      tag_124\n      tag_125\n      jump\t// in\n    tag_124:\n      dup2\n      mstore\n      0x20\n      add\n      swap1\n      0x01\n      swap1\n      sub\n      swap1\n      dup2\n      tag_123\n      jumpi\n      swap1\n      pop\n    tag_122:\n      pop\n        /* \"contracts/TaskManagement.sol\":8786:8836  Task[] memory tasksArray = new Task[](taskCounter) */\n      swap1\n      pop\n        /* \"contracts/TaskManagement.sol\":8852:8858  uint i */\n      0x00\n        /* \"contracts/TaskManagement.sol\":8847:8947  for (uint i = 0; i < taskCounter; i++) ... */\n    tag_126:\n        /* \"contracts/TaskManagement.sol\":8868:8879  taskCounter */\n      sload(0x04)\n        /* \"contracts/TaskManagement.sol\":8864:8865  i */\n      dup2\n        /* \"contracts/TaskManagement.sol\":8864:8879  i < taskCounter */\n      lt\n        /* \"contracts/TaskManagement.sol\":8847:8947  for (uint i = 0; i < taskCounter; i++) ... */\n      iszero\n      tag_127\n      jumpi\n        /* \"contracts/TaskManagement.sol\":8927:8932  tasks */\n      0x05\n        /* \"contracts/TaskManagement.sol\":8927:8935  tasks[i] */\n      0x00\n        /* \"contracts/TaskManagement.sol\":8933:8934  i */\n      dup3\n        /* \"contracts/TaskManagement.sol\":8927:8935  tasks[i] */\n      dup2\n      mstore\n      0x20\n      add\n      swap1\n      dup2\n      mstore\n      0x20\n      add\n      0x00\n      keccak256\n        /* \"contracts/TaskManagement.sol\":8911:8935  tasksArray[i] = tasks[i] */\n      mload(0x40)\n      dup1\n      0x0100\n      add\n      0x40\n      mstore\n      swap1\n      dup2\n      0x00\n      dup3\n      add\n      sload\n      dup2\n      mstore\n      0x20\n      add\n      0x01\n      dup3\n      add\n      dup1\n      sload\n      tag_129\n      swap1\n      tag_130\n      jump\t// in\n    tag_129:\n      dup1\n      0x1f\n      add\n      0x20\n      dup1\n      swap2\n      div\n      mul\n      0x20\n      add\n      mload(0x40)\n      swap1\n      dup2\n      add\n      0x40\n      mstore\n      dup1\n      swap3\n      swap2\n      swap1\n      dup2\n      dup2\n      mstore\n      0x20\n      add\n      dup3\n      dup1\n      sload\n      tag_131\n      swap1\n      tag_130\n      jump\t// in\n    tag_131:\n      dup1\n      iszero\n      tag_132\n      jumpi\n      dup1\n      0x1f\n      lt\n      tag_133\n      jumpi\n      0x0100\n      dup1\n      dup4\n      sload\n      div\n      mul\n      dup4\n      mstore\n      swap2\n      0x20\n      add\n      swap2\n      jump(tag_132)\n    tag_133:\n      dup3\n      add\n      swap2\n      swap1\n      0x00\n      mstore\n      keccak256(0x00, 0x20)\n      swap1\n    tag_134:\n      dup2\n      sload\n      dup2\n      mstore\n      swap1\n      0x01\n      add\n      swap1\n      0x20\n      add\n      dup1\n      dup4\n      gt\n      tag_134\n      jumpi\n      dup3\n      swap1\n      sub\n      0x1f\n      and\n      dup3\n      add\n      swap2\n    tag_132:\n      pop\n      pop\n      pop\n      pop\n      pop\n      dup2\n      mstore\n      0x20\n      add\n      0x02\n      dup3\n      add\n      dup1\n      sload\n      tag_135\n      swap1\n      tag_130\n      jump\t// in\n    tag_135:\n      dup1\n      0x1f\n      add\n      0x20\n      dup1\n      swap2\n      div\n      mul\n      0x20\n      add\n      mload(0x40)\n      swap1\n      dup2\n      add\n      0x40\n      mstore\n      dup1\n      swap3\n      swap2\n      swap1\n      dup2\n      dup2\n      mstore\n      0x20\n      add\n      dup3\n      dup1\n      sload\n      tag_136\n      swap1\n      tag_130\n      jump\t// in\n    tag_136:\n      dup1\n      iszero\n      tag_137\n      jumpi\n      dup1\n      0x1f\n      lt\n      tag_138\n      jumpi\n      0x0100\n      dup1\n      dup4\n      sload\n      div\n      mul\n      dup4\n      mstore\n      swap2\n      0x20\n      add\n      swap2\n      jump(tag_137)\n    tag_138:\n      dup3\n      add\n      swap2\n      swap1\n      0x00\n      mstore\n      keccak256(0x00, 0x20)\n      swap1\n    tag_139:\n      dup2\n      sload\n      dup2\n      mstore\n      swap1\n      0x01\n      add\n      swap1\n      0x20\n      add\n      dup1\n      dup4\n      gt\n      tag_139\n      jumpi\n      dup3\n      swap1\n      sub\n      0x1f\n      and\n      dup3\n      add\n      swap2\n    tag_137:\n      pop\n      pop\n      pop\n      pop\n      pop\n      dup2\n      mstore\n      0x20\n      add\n      0x03\n      dup3\n      add\n      0x00\n      swap1\n      sload\n      swap1\n      0x0100\n      exp\n      swap1\n      div\n      0xff\n      and\n      0x02\n      dup2\n      gt\n      iszero\n      tag_140\n      jumpi\n      tag_141\n      tag_142\n      jump\t// in\n    tag_141:\n    tag_140:\n      0x02\n      dup2\n      gt\n      iszero\n      tag_143\n      jumpi\n      tag_144\n      tag_142\n      jump\t// in\n    tag_144:\n    tag_143:\n      dup2\n      mstore\n      0x20\n      add\n      0x04\n      dup3\n      add\n      sload\n      dup2\n      mstore\n      0x20\n      add\n      0x05\n      dup3\n      add\n      0x00\n      swap1\n      sload\n      swap1\n      0x0100\n      exp\n      swap1\n      div\n      0xffffffffffffffffffffffffffffffffffffffff\n      and\n      0xffffffffffffffffffffffffffffffffffffffff\n      and\n      0xffffffffffffffffffffffffffffffffffffffff\n      and\n      dup2\n      mstore\n      0x20\n      add\n      0x05\n      dup3\n      add\n      0x14\n      swap1\n      sload\n      swap1\n      0x0100\n      exp\n      swap1\n      div\n      0xff\n      and\n      iszero\n      iszero\n      iszero\n      iszero\n      dup2\n      mstore\n      0x20\n      add\n      0x06\n      dup3\n      add\n      sload\n      dup2\n      mstore\n      pop\n      pop\n        /* \"contracts/TaskManagement.sol\":8911:8921  tasksArray */\n      dup3\n        /* \"contracts/TaskManagement.sol\":8922:8923  i */\n      dup3\n        /* \"contracts/TaskManagement.sol\":8911:8924  tasksArray[i] */\n      dup2\n      mload\n      dup2\n      lt\n      tag_145\n      jumpi\n      tag_146\n      tag_147\n      jump\t// in\n    tag_146:\n    tag_145:\n      0x20\n      mul\n      0x20\n      add\n      add\n        /* \"contracts/TaskManagement.sol\":8911:8935  tasksArray[i] = tasks[i] */\n      dup2\n      swap1\n      mstore\n      pop\n        /* \"contracts/TaskManagement.sol\":8881:8884  i++ */\n      dup1\n      dup1\n      0x01\n      add\n      swap2\n      pop\n      pop\n        /* \"contracts/TaskManagement.sol\":8847:8947  for (uint i = 0; i < taskCounter; i++) ... */\n      jump(tag_126)\n    tag_127:\n      pop\n        /* \"contracts/TaskManagement.sol\":8966:8976  tasksArray */\n      dup1\n        /* \"contracts/TaskManagement.sol\":8959:8976  return tasksArray */\n      swap2\n      pop\n      pop\n        /* \"contracts/TaskManagement.sol\":8541:8984  function getTasks() onlyManager public view returns (Task[] memory) {... */\n      swap1\n      jump\t// out\n        /* \"contracts/TaskManagement.sol\":11298:11676  function verifyTaskDueDate(uint _id) public returns (bool) {... */\n    tag_33:\n        /* \"contracts/TaskManagement.sol\":11351:11355  bool */\n      0x00\n        /* \"contracts/TaskManagement.sol\":11410:11411  0 */\n      dup1\n        /* \"contracts/TaskManagement.sol\":11376:11412  dids[msg.sender].owner != address(0) */\n      0xffffffffffffffffffffffffffffffffffffffff\n      and\n        /* \"contracts/TaskManagement.sol\":11376:11380  dids */\n      0x00\n        /* \"contracts/TaskManagement.sol\":11376:11392  dids[msg.sender] */\n      dup1\n        /* \"contracts/TaskManagement.sol\":11381:11391  msg.sender */\n      caller\n        /* \"contracts/TaskManagement.sol\":11376:11392  dids[msg.sender] */\n      0xffffffffffffffffffffffffffffffffffffffff\n      and\n      0xffffffffffffffffffffffffffffffffffffffff\n      and\n      dup2\n      mstore\n      0x20\n      add\n      swap1\n      dup2\n      mstore\n      0x20\n      add\n      0x00\n      keccak256\n        /* \"contracts/TaskManagement.sol\":11376:11398  dids[msg.sender].owner */\n      0x01\n      add\n      0x00\n      swap1\n      sload\n      swap1\n      0x0100\n      exp\n      swap1\n      div\n      0xffffffffffffffffffffffffffffffffffffffff\n      and\n        /* \"contracts/TaskManagement.sol\":11376:11412  dids[msg.sender].owner != address(0) */\n      0xffffffffffffffffffffffffffffffffffffffff\n      and\n      sub\n        /* \"contracts/TaskManagement.sol\":11368:11455  require(dids[msg.sender].owner != address(0), \"No existing DID found for this address\") */\n      tag_149\n      jumpi\n      mload(0x40)\n      0x08c379a000000000000000000000000000000000000000000000000000000000\n      dup2\n      mstore\n      0x04\n      add\n      tag_150\n      swap1\n      tag_95\n      jump\t// in\n    tag_150:\n      mload(0x40)\n      dup1\n      swap2\n      sub\n      swap1\n      revert\n    tag_149:\n        /* \"contracts/TaskManagement.sol\":11507:11508  0 */\n      0x00\n        /* \"contracts/TaskManagement.sol\":11474:11509  tasks[_id].assignedTo != address(0) */\n      0xffffffffffffffffffffffffffffffffffffffff\n      and\n        /* \"contracts/TaskManagement.sol\":11474:11479  tasks */\n      0x05\n        /* \"contracts/TaskManagement.sol\":11474:11484  tasks[_id] */\n      0x00\n        /* \"contracts/TaskManagement.sol\":11480:11483  _id */\n      dup5\n        /* \"contracts/TaskManagement.sol\":11474:11484  tasks[_id] */\n      dup2\n      mstore\n      0x20\n      add\n      swap1\n      dup2\n      mstore\n      0x20\n      add\n      0x00\n      keccak256\n        /* \"contracts/TaskManagement.sol\":11474:11495  tasks[_id].assignedTo */\n      0x05\n      add\n      0x00\n      swap1\n      sload\n      swap1\n      0x0100\n      exp\n      swap1\n      div\n      0xffffffffffffffffffffffffffffffffffffffff\n      and\n        /* \"contracts/TaskManagement.sol\":11474:11509  tasks[_id].assignedTo != address(0) */\n      0xffffffffffffffffffffffffffffffffffffffff\n      and\n      sub\n        /* \"contracts/TaskManagement.sol\":11466:11528  require(tasks[_id].assignedTo != address(0), \"Task not found\") */\n      tag_151\n      jumpi\n      mload(0x40)\n      0x08c379a000000000000000000000000000000000000000000000000000000000\n      dup2\n      mstore\n      0x04\n      add\n      tag_152\n      swap1\n      tag_153\n      jump\t// in\n    tag_152:\n      mload(0x40)\n      dup1\n      swap2\n      sub\n      swap1\n      revert\n    tag_151:\n        /* \"contracts/TaskManagement.sol\":11541:11553  bool isValid */\n      0x00\n        /* \"contracts/TaskManagement.sol\":11577:11592  block.timestamp */\n      timestamp\n        /* \"contracts/TaskManagement.sol\":11556:11561  tasks */\n      0x05\n        /* \"contracts/TaskManagement.sol\":11556:11566  tasks[_id] */\n      0x00\n        /* \"contracts/TaskManagement.sol\":11562:11565  _id */\n      dup6\n        /* \"contracts/TaskManagement.sol\":11556:11566  tasks[_id] */\n      dup2\n      mstore\n      0x20\n      add\n      swap1\n      dup2\n      mstore\n      0x20\n      add\n      0x00\n      keccak256\n        /* \"contracts/TaskManagement.sol\":11556:11574  tasks[_id].dueDate */\n      0x04\n      add\n      sload\n        /* \"contracts/TaskManagement.sol\":11556:11592  tasks[_id].dueDate > block.timestamp */\n      gt\n        /* \"contracts/TaskManagement.sol\":11541:11592  bool isValid = tasks[_id].dueDate > block.timestamp */\n      swap1\n      pop\n        /* \"contracts/TaskManagement.sol\":11630:11633  _id */\n      dup3\n        /* \"contracts/TaskManagement.sol\":11610:11643  TaskDueDateVerified(_id, isValid) */\n      0x98839d14e1c6921e1109e3f12466427e93a0b41da8e46e903a23a78e3e471dcd\n        /* \"contracts/TaskManagement.sol\":11635:11642  isValid */\n      dup3\n        /* \"contracts/TaskManagement.sol\":11610:11643  TaskDueDateVerified(_id, isValid) */\n      mload(0x40)\n      tag_154\n      swap2\n      swap1\n      tag_35\n      jump\t// in\n    tag_154:\n      mload(0x40)\n      dup1\n      swap2\n      sub\n      swap1\n      log2\n        /* \"contracts/TaskManagement.sol\":11661:11668  isValid */\n      dup1\n        /* \"contracts/TaskManagement.sol\":11654:11668  return isValid */\n      swap2\n      pop\n      pop\n        /* \"contracts/TaskManagement.sol\":11298:11676  function verifyTaskDueDate(uint _id) public returns (bool) {... */\n      swap2\n      swap1\n      pop\n      jump\t// out\n        /* \"contracts/TaskManagement.sol\":10498:10908  function verifyTaskOwnership(uint _id, address _assignee) public returns (bool) {... */\n    tag_39:\n        /* \"contracts/TaskManagement.sol\":10572:10576  bool */\n      0x00\n        /* \"contracts/TaskManagement.sol\":10631:10632  0 */\n      dup1\n        /* \"contracts/TaskManagement.sol\":10597:10633  dids[msg.sender].owner != address(0) */\n      0xffffffffffffffffffffffffffffffffffffffff\n      and\n        /* \"contracts/TaskManagement.sol\":10597:10601  dids */\n      0x00\n        /* \"contracts/TaskManagement.sol\":10597:10613  dids[msg.sender] */\n      dup1\n        /* \"contracts/TaskManagement.sol\":10602:10612  msg.sender */\n      caller\n        /* \"contracts/TaskManagement.sol\":10597:10613  dids[msg.sender] */\n      0xffffffffffffffffffffffffffffffffffffffff\n      and\n      0xffffffffffffffffffffffffffffffffffffffff\n      and\n      dup2\n      mstore\n      0x20\n      add\n      swap1\n      dup2\n      mstore\n      0x20\n      add\n      0x00\n      keccak256\n        /* \"contracts/TaskManagement.sol\":10597:10619  dids[msg.sender].owner */\n      0x01\n      add\n      0x00\n      swap1\n      sload\n      swap1\n      0x0100\n      exp\n      swap1\n      div\n      0xffffffffffffffffffffffffffffffffffffffff\n      and\n        /* \"contracts/TaskManagement.sol\":10597:10633  dids[msg.sender].owner != address(0) */\n      0xffffffffffffffffffffffffffffffffffffffff\n      and\n      sub\n        /* \"contracts/TaskManagement.sol\":10589:10676  require(dids[msg.sender].owner != address(0), \"No existing DID found for this address\") */\n      tag_156\n      jumpi\n      mload(0x40)\n      0x08c379a000000000000000000000000000000000000000000000000000000000\n      dup2\n      mstore\n      0x04\n      add\n      tag_157\n      swap1\n      tag_95\n      jump\t// in\n    tag_157:\n      mload(0x40)\n      dup1\n      swap2\n      sub\n      swap1\n      revert\n    tag_156:\n        /* \"contracts/TaskManagement.sol\":10728:10729  0 */\n      0x00\n        /* \"contracts/TaskManagement.sol\":10695:10730  tasks[_id].assignedTo != address(0) */\n      0xffffffffffffffffffffffffffffffffffffffff\n      and\n        /* \"contracts/TaskManagement.sol\":10695:10700  tasks */\n      0x05\n        /* \"contracts/TaskManagement.sol\":10695:10705  tasks[_id] */\n      0x00\n        /* \"contracts/TaskManagement.sol\":10701:10704  _id */\n      dup6\n        /* \"contracts/TaskManagement.sol\":10695:10705  tasks[_id] */\n      dup2\n      mstore\n      0x20\n      add\n      swap1\n      dup2\n      mstore\n      0x20\n      add\n      0x00\n      keccak256\n        /* \"contracts/TaskManagement.sol\":10695:10716  tasks[_id].assignedTo */\n      0x05\n      add\n      0x00\n      swap1\n      sload\n      swap1\n      0x0100\n      exp\n      swap1\n      div\n      0xffffffffffffffffffffffffffffffffffffffff\n      and\n        /* \"contracts/TaskManagement.sol\":10695:10730  tasks[_id].assignedTo != address(0) */\n      0xffffffffffffffffffffffffffffffffffffffff\n      and\n      sub\n        /* \"contracts/TaskManagement.sol\":10687:10749  require(tasks[_id].assignedTo != address(0), \"Task not found\") */\n      tag_158\n      jumpi\n      mload(0x40)\n      0x08c379a000000000000000000000000000000000000000000000000000000000\n      dup2\n      mstore\n      0x04\n      add\n      tag_159\n      swap1\n      tag_153\n      jump\t// in\n    tag_159:\n      mload(0x40)\n      dup1\n      swap2\n      sub\n      swap1\n      revert\n    tag_158:\n        /* \"contracts/TaskManagement.sol\":10762:10774  bool isOwner */\n      0x00\n        /* \"contracts/TaskManagement.sol\":10802:10811  _assignee */\n      dup3\n        /* \"contracts/TaskManagement.sol\":10777:10811  tasks[_id].assignedTo == _assignee */\n      0xffffffffffffffffffffffffffffffffffffffff\n      and\n        /* \"contracts/TaskManagement.sol\":10777:10782  tasks */\n      0x05\n        /* \"contracts/TaskManagement.sol\":10777:10787  tasks[_id] */\n      0x00\n        /* \"contracts/TaskManagement.sol\":10783:10786  _id */\n      dup7\n        /* \"contracts/TaskManagement.sol\":10777:10787  tasks[_id] */\n      dup2\n      mstore\n      0x20\n      add\n      swap1\n      dup2\n      mstore\n      0x20\n      add\n      0x00\n      keccak256\n        /* \"contracts/TaskManagement.sol\":10777:10798  tasks[_id].assignedTo */\n      0x05\n      add\n      0x00\n      swap1\n      sload\n      swap1\n      0x0100\n      exp\n      swap1\n      div\n      0xffffffffffffffffffffffffffffffffffffffff\n      and\n        /* \"contracts/TaskManagement.sol\":10777:10811  tasks[_id].assignedTo == _assignee */\n      0xffffffffffffffffffffffffffffffffffffffff\n      and\n      eq\n        /* \"contracts/TaskManagement.sol\":10762:10811  bool isOwner = tasks[_id].assignedTo == _assignee */\n      swap1\n      pop\n        /* \"contracts/TaskManagement.sol\":10851:10854  _id */\n      dup4\n        /* \"contracts/TaskManagement.sol\":10829:10875  TaskOwnershipVerified(_id, _assignee, isOwner) */\n      0xde182422c60d08a3e491f609a62a1a48fa3876e4cbb962eb9c194de3000951a5\n        /* \"contracts/TaskManagement.sol\":10856:10865  _assignee */\n      dup5\n        /* \"contracts/TaskManagement.sol\":10867:10874  isOwner */\n      dup4\n        /* \"contracts/TaskManagement.sol\":10829:10875  TaskOwnershipVerified(_id, _assignee, isOwner) */\n      mload(0x40)\n      tag_160\n      swap3\n      swap2\n      swap1\n      tag_161\n      jump\t// in\n    tag_160:\n      mload(0x40)\n      dup1\n      swap2\n      sub\n      swap1\n      log2\n        /* \"contracts/TaskManagement.sol\":10893:10900  isOwner */\n      dup1\n        /* \"contracts/TaskManagement.sol\":10886:10900  return isOwner */\n      swap2\n      pop\n      pop\n        /* \"contracts/TaskManagement.sol\":10498:10908  function verifyTaskOwnership(uint _id, address _assignee) public returns (bool) {... */\n      swap3\n      swap2\n      pop\n      pop\n      jump\t// out\n        /* \"contracts/TaskManagement.sol\":2795:3508  function updateDID(string memory _newIdentifier) public {... */\n    tag_44:\n        /* \"contracts/TaskManagement.sol\":2901:2902  0 */\n      0x00\n        /* \"contracts/TaskManagement.sol\":2876:2890  _newIdentifier */\n      dup2\n        /* \"contracts/TaskManagement.sol\":2870:2898  bytes(_newIdentifier).length */\n      mload\n        /* \"contracts/TaskManagement.sol\":2870:2902  bytes(_newIdentifier).length > 0 */\n      gt\n        /* \"contracts/TaskManagement.sol\":2862:2937  require(bytes(_newIdentifier).length > 0, \"New identifier cannot be empty\") */\n      tag_163\n      jumpi\n      mload(0x40)\n      0x08c379a000000000000000000000000000000000000000000000000000000000\n      dup2\n      mstore\n      0x04\n      add\n      tag_164\n      swap1\n      tag_165\n      jump\t// in\n    tag_164:\n      mload(0x40)\n      dup1\n      swap2\n      sub\n      swap1\n      revert\n    tag_163:\n        /* \"contracts/TaskManagement.sol\":2990:2991  0 */\n      0x00\n        /* \"contracts/TaskManagement.sol\":2956:2992  dids[msg.sender].owner != address(0) */\n      0xffffffffffffffffffffffffffffffffffffffff\n      and\n        /* \"contracts/TaskManagement.sol\":2956:2960  dids */\n      0x00\n        /* \"contracts/TaskManagement.sol\":2956:2972  dids[msg.sender] */\n      dup1\n        /* \"contracts/TaskManagement.sol\":2961:2971  msg.sender */\n      caller\n        /* \"contracts/TaskManagement.sol\":2956:2972  dids[msg.sender] */\n      0xffffffffffffffffffffffffffffffffffffffff\n      and\n      0xffffffffffffffffffffffffffffffffffffffff\n      and\n      dup2\n      mstore\n      0x20\n      add\n      swap1\n      dup2\n      mstore\n      0x20\n      add\n      0x00\n      keccak256\n        /* \"contracts/TaskManagement.sol\":2956:2978  dids[msg.sender].owner */\n      0x01\n      add\n      0x00\n      swap1\n      sload\n      swap1\n      0x0100\n      exp\n      swap1\n      div\n      0xffffffffffffffffffffffffffffffffffffffff\n      and\n        /* \"contracts/TaskManagement.sol\":2956:2992  dids[msg.sender].owner != address(0) */\n      0xffffffffffffffffffffffffffffffffffffffff\n      and\n      sub\n        /* \"contracts/TaskManagement.sol\":2948:3035  require(dids[msg.sender].owner != address(0), \"No existing DID found for this address\") */\n      tag_166\n      jumpi\n      mload(0x40)\n      0x08c379a000000000000000000000000000000000000000000000000000000000\n      dup2\n      mstore\n      0x04\n      add\n      tag_167\n      swap1\n      tag_95\n      jump\t// in\n    tag_167:\n      mload(0x40)\n      dup1\n      swap2\n      sub\n      swap1\n      revert\n    tag_166:\n        /* \"contracts/TaskManagement.sol\":3124:3151  string memory oldIdentifier */\n      0x00\n        /* \"contracts/TaskManagement.sol\":3154:3162  getDID() */\n      tag_168\n        /* \"contracts/TaskManagement.sol\":3154:3160  getDID */\n      tag_71\n        /* \"contracts/TaskManagement.sol\":3154:3162  getDID() */\n      jump\t// in\n    tag_168:\n        /* \"contracts/TaskManagement.sol\":3124:3162  string memory oldIdentifier = getDID() */\n      swap1\n      pop\n        /* \"contracts/TaskManagement.sol\":3232:3246  _newIdentifier */\n      dup2\n        /* \"contracts/TaskManagement.sol\":3216:3248  keccak256(bytes(_newIdentifier)) */\n      dup1\n      mload\n      swap1\n      0x20\n      add\n      keccak256\n        /* \"contracts/TaskManagement.sol\":3197:3210  oldIdentifier */\n      dup2\n        /* \"contracts/TaskManagement.sol\":3181:3212  keccak256(bytes(oldIdentifier)) */\n      dup1\n      mload\n      swap1\n      0x20\n      add\n      keccak256\n        /* \"contracts/TaskManagement.sol\":3181:3248  keccak256(bytes(oldIdentifier)) != keccak256(bytes(_newIdentifier)) */\n      sub\n        /* \"contracts/TaskManagement.sol\":3173:3275  require(keccak256(bytes(oldIdentifier)) != keccak256(bytes(_newIdentifier)), \"Invalid new identifier\") */\n      tag_169\n      jumpi\n      mload(0x40)\n      0x08c379a000000000000000000000000000000000000000000000000000000000\n      dup2\n      mstore\n      0x04\n      add\n      tag_170\n      swap1\n      tag_171\n      jump\t// in\n    tag_170:\n      mload(0x40)\n      dup1\n      swap2\n      sub\n      swap1\n      revert\n    tag_169:\n        /* \"contracts/TaskManagement.sol\":3377:3391  _newIdentifier */\n      dup2\n        /* \"contracts/TaskManagement.sol\":3347:3351  dids */\n      0x00\n        /* \"contracts/TaskManagement.sol\":3347:3363  dids[msg.sender] */\n      dup1\n        /* \"contracts/TaskManagement.sol\":3352:3362  msg.sender */\n      caller\n        /* \"contracts/TaskManagement.sol\":3347:3363  dids[msg.sender] */\n      0xffffffffffffffffffffffffffffffffffffffff\n      and\n      0xffffffffffffffffffffffffffffffffffffffff\n      and\n      dup2\n      mstore\n      0x20\n      add\n      swap1\n      dup2\n      mstore\n      0x20\n      add\n      0x00\n      keccak256\n        /* \"contracts/TaskManagement.sol\":3347:3374  dids[msg.sender].identifier */\n      0x00\n      add\n        /* \"contracts/TaskManagement.sol\":3347:3391  dids[msg.sender].identifier = _newIdentifier */\n      swap1\n      dup2\n      tag_172\n      swap2\n      swap1\n      tag_103\n      jump\t// in\n    tag_172:\n      pop\n        /* \"contracts/TaskManagement.sol\":3473:3483  msg.sender */\n      caller\n        /* \"contracts/TaskManagement.sol\":3462:3500  DIDCreated(msg.sender, _newIdentifier) */\n      0xffffffffffffffffffffffffffffffffffffffff\n      and\n      0x1b7934654ba536b6962955e057ce42885353bbaad8c605a5ce0678e632f28410\n        /* \"contracts/TaskManagement.sol\":3485:3499  _newIdentifier */\n      dup4\n        /* \"contracts/TaskManagement.sol\":3462:3500  DIDCreated(msg.sender, _newIdentifier) */\n      mload(0x40)\n      tag_173\n      swap2\n      swap1\n      tag_73\n      jump\t// in\n    tag_173:\n      mload(0x40)\n      dup1\n      swap2\n      sub\n      swap1\n      log2\n        /* \"contracts/TaskManagement.sol\":2851:3508  {... */\n      pop\n        /* \"contracts/TaskManagement.sol\":2795:3508  function updateDID(string memory _newIdentifier) public {... */\n      pop\n      jump\t// out\n        /* \"contracts/TaskManagement.sol\":9541:9988  function getTask(uint _id) public view returns (... */\n    tag_47:\n        /* \"contracts/TaskManagement.sol\":9599:9610  Task memory */\n      tag_174\n      tag_125\n      jump\t// in\n    tag_174:\n        /* \"contracts/TaskManagement.sol\":9671:9672  0 */\n      0x00\n        /* \"contracts/TaskManagement.sol\":9637:9673  dids[msg.sender].owner != address(0) */\n      0xffffffffffffffffffffffffffffffffffffffff\n      and\n        /* \"contracts/TaskManagement.sol\":9637:9641  dids */\n      0x00\n        /* \"contracts/TaskManagement.sol\":9637:9653  dids[msg.sender] */\n      dup1\n        /* \"contracts/TaskManagement.sol\":9642:9652  msg.sender */\n      caller\n        /* \"contracts/TaskManagement.sol\":9637:9653  dids[msg.sender] */\n      0xffffffffffffffffffffffffffffffffffffffff\n      and\n      0xffffffffffffffffffffffffffffffffffffffff\n      and\n      dup2\n      mstore\n      0x20\n      add\n      swap1\n      dup2\n      mstore\n      0x20\n      add\n      0x00\n      keccak256\n        /* \"contracts/TaskManagement.sol\":9637:9659  dids[msg.sender].owner */\n      0x01\n      add\n      0x00\n      swap1\n      sload\n      swap1\n      0x0100\n      exp\n      swap1\n      div\n      0xffffffffffffffffffffffffffffffffffffffff\n      and\n        /* \"contracts/TaskManagement.sol\":9637:9673  dids[msg.sender].owner != address(0) */\n      0xffffffffffffffffffffffffffffffffffffffff\n      and\n      sub\n        /* \"contracts/TaskManagement.sol\":9629:9716  require(dids[msg.sender].owner != address(0), \"No existing DID found for this address\") */\n      tag_176\n      jumpi\n      mload(0x40)\n      0x08c379a000000000000000000000000000000000000000000000000000000000\n      dup2\n      mstore\n      0x04\n      add\n      tag_177\n      swap1\n      tag_95\n      jump\t// in\n    tag_177:\n      mload(0x40)\n      dup1\n      swap2\n      sub\n      swap1\n      revert\n    tag_176:\n        /* \"contracts/TaskManagement.sol\":9768:9769  0 */\n      0x00\n        /* \"contracts/TaskManagement.sol\":9735:9770  tasks[_id].assignedTo != address(0) */\n      0xffffffffffffffffffffffffffffffffffffffff\n      and\n        /* \"contracts/TaskManagement.sol\":9735:9740  tasks */\n      0x05\n        /* \"contracts/TaskManagement.sol\":9735:9745  tasks[_id] */\n      0x00\n        /* \"contracts/TaskManagement.sol\":9741:9744  _id */\n      dup5\n        /* \"contracts/TaskManagement.sol\":9735:9745  tasks[_id] */\n      dup2\n      mstore\n      0x20\n      add\n      swap1\n      dup2\n      mstore\n      0x20\n      add\n      0x00\n      keccak256\n        /* \"contracts/TaskManagement.sol\":9735:9756  tasks[_id].assignedTo */\n      0x05\n      add\n      0x00\n      swap1\n      sload\n      swap1\n      0x0100\n      exp\n      swap1\n      div\n      0xffffffffffffffffffffffffffffffffffffffff\n      and\n        /* \"contracts/TaskManagement.sol\":9735:9770  tasks[_id].assignedTo != address(0) */\n      0xffffffffffffffffffffffffffffffffffffffff\n      and\n      sub\n        /* \"contracts/TaskManagement.sol\":9727:9789  require(tasks[_id].assignedTo != address(0), \"Task not found\") */\n      tag_178\n      jumpi\n      mload(0x40)\n      0x08c379a000000000000000000000000000000000000000000000000000000000\n      dup2\n      mstore\n      0x04\n      add\n      tag_179\n      swap1\n      tag_153\n      jump\t// in\n    tag_179:\n      mload(0x40)\n      dup1\n      swap2\n      sub\n      swap1\n      revert\n    tag_178:\n        /* \"contracts/TaskManagement.sol\":9822:9827  tasks */\n      0x05\n        /* \"contracts/TaskManagement.sol\":9822:9832  tasks[_id] */\n      0x00\n        /* \"contracts/TaskManagement.sol\":9828:9831  _id */\n      dup4\n        /* \"contracts/TaskManagement.sol\":9822:9832  tasks[_id] */\n      dup2\n      mstore\n      0x20\n      add\n      swap1\n      dup2\n      mstore\n      0x20\n      add\n      0x00\n      keccak256\n        /* \"contracts/TaskManagement.sol\":9822:9843  tasks[_id].assignedTo */\n      0x05\n      add\n      0x00\n      swap1\n      sload\n      swap1\n      0x0100\n      exp\n      swap1\n      div\n      0xffffffffffffffffffffffffffffffffffffffff\n      and\n        /* \"contracts/TaskManagement.sol\":9808:9843  msg.sender == tasks[_id].assignedTo */\n      0xffffffffffffffffffffffffffffffffffffffff\n      and\n        /* \"contracts/TaskManagement.sol\":9808:9818  msg.sender */\n      caller\n        /* \"contracts/TaskManagement.sol\":9808:9843  msg.sender == tasks[_id].assignedTo */\n      0xffffffffffffffffffffffffffffffffffffffff\n      and\n      eq\n        /* \"contracts/TaskManagement.sol\":9808:9931  msg.sender == tasks[_id].assignedTo || ... */\n      dup1\n      tag_180\n      jumpi\n      pop\n        /* \"contracts/TaskManagement.sol\":9914:9930  bytes(\"manager\") */\n      mload(0x40)\n      dup1\n      0x40\n      add\n      0x40\n      mstore\n      dup1\n      0x07\n      dup2\n      mstore\n      0x20\n      add\n      0x6d616e6167657200000000000000000000000000000000000000000000000000\n      dup2\n      mstore\n      pop\n        /* \"contracts/TaskManagement.sol\":9904:9931  keccak256(bytes(\"manager\")) */\n      dup1\n      mload\n      swap1\n      0x20\n      add\n      keccak256\n        /* \"contracts/TaskManagement.sol\":9881:9886  roles */\n      0x01\n        /* \"contracts/TaskManagement.sol\":9881:9898  roles[msg.sender] */\n      0x00\n        /* \"contracts/TaskManagement.sol\":9887:9897  msg.sender */\n      caller\n        /* \"contracts/TaskManagement.sol\":9881:9898  roles[msg.sender] */\n      0xffffffffffffffffffffffffffffffffffffffff\n      and\n      0xffffffffffffffffffffffffffffffffffffffff\n      and\n      dup2\n      mstore\n      0x20\n      add\n      swap1\n      dup2\n      mstore\n      0x20\n      add\n      0x00\n      keccak256\n        /* \"contracts/TaskManagement.sol\":9865:9900  keccak256(bytes(roles[msg.sender])) */\n      mload(0x40)\n      tag_181\n      swap2\n      swap1\n      tag_88\n      jump\t// in\n    tag_181:\n      mload(0x40)\n      dup1\n      swap2\n      sub\n      swap1\n      keccak256\n        /* \"contracts/TaskManagement.sol\":9865:9931  keccak256(bytes(roles[msg.sender])) == keccak256(bytes(\"manager\")) */\n      eq\n        /* \"contracts/TaskManagement.sol\":9808:9931  msg.sender == tasks[_id].assignedTo || ... */\n    tag_180:\n        /* \"contracts/TaskManagement.sol\":9800:9950  require(msg.sender == tasks[_id].assignedTo || ... */\n      tag_182\n      jumpi\n      mload(0x40)\n      0x08c379a000000000000000000000000000000000000000000000000000000000\n      dup2\n      mstore\n      0x04\n      add\n      tag_183\n      swap1\n      tag_184\n      jump\t// in\n    tag_183:\n      mload(0x40)\n      dup1\n      swap2\n      sub\n      swap1\n      revert\n    tag_182:\n        /* \"contracts/TaskManagement.sol\":9970:9975  tasks */\n      0x05\n        /* \"contracts/TaskManagement.sol\":9970:9980  tasks[_id] */\n      0x00\n        /* \"contracts/TaskManagement.sol\":9976:9979  _id */\n      dup4\n        /* \"contracts/TaskManagement.sol\":9970:9980  tasks[_id] */\n      dup2\n      mstore\n      0x20\n      add\n      swap1\n      dup2\n      mstore\n      0x20\n      add\n      0x00\n      keccak256\n        /* \"contracts/TaskManagement.sol\":9963:9980  return tasks[_id] */\n      mload(0x40)\n      dup1\n      0x0100\n      add\n      0x40\n      mstore\n      swap1\n      dup2\n      0x00\n      dup3\n      add\n      sload\n      dup2\n      mstore\n      0x20\n      add\n      0x01\n      dup3\n      add\n      dup1\n      sload\n      tag_185\n      swap1\n      tag_130\n      jump\t// in\n    tag_185:\n      dup1\n      0x1f\n      add\n      0x20\n      dup1\n      swap2\n      div\n      mul\n      0x20\n      add\n      mload(0x40)\n      swap1\n      dup2\n      add\n      0x40\n      mstore\n      dup1\n      swap3\n      swap2\n      swap1\n      dup2\n      dup2\n      mstore\n      0x20\n      add\n      dup3\n      dup1\n      sload\n      tag_186\n      swap1\n      tag_130\n      jump\t// in\n    tag_186:\n      dup1\n      iszero\n      tag_187\n      jumpi\n      dup1\n      0x1f\n      lt\n      tag_188\n      jumpi\n      0x0100\n      dup1\n      dup4\n      sload\n      div\n      mul\n      dup4\n      mstore\n      swap2\n      0x20\n      add\n      swap2\n      jump(tag_187)\n    tag_188:\n      dup3\n      add\n      swap2\n      swap1\n      0x00\n      mstore\n      keccak256(0x00, 0x20)\n      swap1\n    tag_189:\n      dup2\n      sload\n      dup2\n      mstore\n      swap1\n      0x01\n      add\n      swap1\n      0x20\n      add\n      dup1\n      dup4\n      gt\n      tag_189\n      jumpi\n      dup3\n      swap1\n      sub\n      0x1f\n      and\n      dup3\n      add\n      swap2\n    tag_187:\n      pop\n      pop\n      pop\n      pop\n      pop\n      dup2\n      mstore\n      0x20\n      add\n      0x02\n      dup3\n      add\n      dup1\n      sload\n      tag_190\n      swap1\n      tag_130\n      jump\t// in\n    tag_190:\n      dup1\n      0x1f\n      add\n      0x20\n      dup1\n      swap2\n      div\n      mul\n      0x20\n      add\n      mload(0x40)\n      swap1\n      dup2\n      add\n      0x40\n      mstore\n      dup1\n      swap3\n      swap2\n      swap1\n      dup2\n      dup2\n      mstore\n      0x20\n      add\n      dup3\n      dup1\n      sload\n      tag_191\n      swap1\n      tag_130\n      jump\t// in\n    tag_191:\n      dup1\n      iszero\n      tag_192\n      jumpi\n      dup1\n      0x1f\n      lt\n      tag_193\n      jumpi\n      0x0100\n      dup1\n      dup4\n      sload\n      div\n      mul\n      dup4\n      mstore\n      swap2\n      0x20\n      add\n      swap2\n      jump(tag_192)\n    tag_193:\n      dup3\n      add\n      swap2\n      swap1\n      0x00\n      mstore\n      keccak256(0x00, 0x20)\n      swap1\n    tag_194:\n      dup2\n      sload\n      dup2\n      mstore\n      swap1\n      0x01\n      add\n      swap1\n      0x20\n      add\n      dup1\n      dup4\n      gt\n      tag_194\n      jumpi\n      dup3\n      swap1\n      sub\n      0x1f\n      and\n      dup3\n      add\n      swap2\n    tag_192:\n      pop\n      pop\n      pop\n      pop\n      pop\n      dup2\n      mstore\n      0x20\n      add\n      0x03\n      dup3\n      add\n      0x00\n      swap1\n      sload\n      swap1\n      0x0100\n      exp\n      swap1\n      div\n      0xff\n      and\n      0x02\n      dup2\n      gt\n      iszero\n      tag_195\n      jumpi\n      tag_196\n      tag_142\n      jump\t// in\n    tag_196:\n    tag_195:\n      0x02\n      dup2\n      gt\n      iszero\n      tag_197\n      jumpi\n      tag_198\n      tag_142\n      jump\t// in\n    tag_198:\n    tag_197:\n      dup2\n      mstore\n      0x20\n      add\n      0x04\n      dup3\n      add\n      sload\n      dup2\n      mstore\n      0x20\n      add\n      0x05\n      dup3\n      add\n      0x00\n      swap1\n      sload\n      swap1\n      0x0100\n      exp\n      swap1\n      div\n      0xffffffffffffffffffffffffffffffffffffffff\n      and\n      0xffffffffffffffffffffffffffffffffffffffff\n      and\n      0xffffffffffffffffffffffffffffffffffffffff\n      and\n      dup2\n      mstore\n      0x20\n      add\n      0x05\n      dup3\n      add\n      0x14\n      swap1\n      sload\n      swap1\n      0x0100\n      exp\n      swap1\n      div\n      0xff\n      and\n      iszero\n      iszero\n      iszero\n      iszero\n      dup2\n      mstore\n      0x20\n      add\n      0x06\n      dup3\n      add\n      sload\n      dup2\n      mstore\n      pop\n      pop\n      swap1\n      pop\n        /* \"contracts/TaskManagement.sol\":9541:9988  function getTask(uint _id) public view returns (... */\n      swap2\n      swap1\n      pop\n      jump\t// out\n        /* \"contracts/TaskManagement.sol\":9030:9533  function getUserTasks() public view returns (Task[] memory) {... */\n    tag_51:\n        /* \"contracts/TaskManagement.sol\":9075:9088  Task[] memory */\n      0x60\n        /* \"contracts/TaskManagement.sol\":9143:9144  0 */\n      0x00\n        /* \"contracts/TaskManagement.sol\":9109:9145  dids[msg.sender].owner != address(0) */\n      0xffffffffffffffffffffffffffffffffffffffff\n      and\n        /* \"contracts/TaskManagement.sol\":9109:9113  dids */\n      0x00\n        /* \"contracts/TaskManagement.sol\":9109:9125  dids[msg.sender] */\n      dup1\n        /* \"contracts/TaskManagement.sol\":9114:9124  msg.sender */\n      caller\n        /* \"contracts/TaskManagement.sol\":9109:9125  dids[msg.sender] */\n      0xffffffffffffffffffffffffffffffffffffffff\n      and\n      0xffffffffffffffffffffffffffffffffffffffff\n      and\n      dup2\n      mstore\n      0x20\n      add\n      swap1\n      dup2\n      mstore\n      0x20\n      add\n      0x00\n      keccak256\n        /* \"contracts/TaskManagement.sol\":9109:9131  dids[msg.sender].owner */\n      0x01\n      add\n      0x00\n      swap1\n      sload\n      swap1\n      0x0100\n      exp\n      swap1\n      div\n      0xffffffffffffffffffffffffffffffffffffffff\n      and\n        /* \"contracts/TaskManagement.sol\":9109:9145  dids[msg.sender].owner != address(0) */\n      0xffffffffffffffffffffffffffffffffffffffff\n      and\n      sub\n        /* \"contracts/TaskManagement.sol\":9101:9188  require(dids[msg.sender].owner != address(0), \"No existing DID found for this address\") */\n      tag_200\n      jumpi\n      mload(0x40)\n      0x08c379a000000000000000000000000000000000000000000000000000000000\n      dup2\n      mstore\n      0x04\n      add\n      tag_201\n      swap1\n      tag_95\n      jump\t// in\n    tag_201:\n      mload(0x40)\n      dup1\n      swap2\n      sub\n      swap1\n      revert\n    tag_200:\n        /* \"contracts/TaskManagement.sol\":9201:9222  uint[] memory taskIds */\n      0x00\n        /* \"contracts/TaskManagement.sol\":9225:9234  userTasks */\n      0x06\n        /* \"contracts/TaskManagement.sol\":9225:9246  userTasks[msg.sender] */\n      0x00\n        /* \"contracts/TaskManagement.sol\":9235:9245  msg.sender */\n      caller\n        /* \"contracts/TaskManagement.sol\":9225:9246  userTasks[msg.sender] */\n      0xffffffffffffffffffffffffffffffffffffffff\n      and\n      0xffffffffffffffffffffffffffffffffffffffff\n      and\n      dup2\n      mstore\n      0x20\n      add\n      swap1\n      dup2\n      mstore\n      0x20\n      add\n      0x00\n      keccak256\n        /* \"contracts/TaskManagement.sol\":9201:9246  uint[] memory taskIds = userTasks[msg.sender] */\n      dup1\n      sload\n      dup1\n      0x20\n      mul\n      0x20\n      add\n      mload(0x40)\n      swap1\n      dup2\n      add\n      0x40\n      mstore\n      dup1\n      swap3\n      swap2\n      swap1\n      dup2\n      dup2\n      mstore\n      0x20\n      add\n      dup3\n      dup1\n      sload\n      dup1\n      iszero\n      tag_202\n      jumpi\n      0x20\n      mul\n      dup3\n      add\n      swap2\n      swap1\n      0x00\n      mstore\n      keccak256(0x00, 0x20)\n      swap1\n    tag_203:\n      dup2\n      sload\n      dup2\n      mstore\n      0x20\n      add\n      swap1\n      0x01\n      add\n      swap1\n      dup1\n      dup4\n      gt\n      tag_203\n      jumpi\n    tag_202:\n      pop\n      pop\n      pop\n      pop\n      pop\n      swap1\n      pop\n        /* \"contracts/TaskManagement.sol\":9282:9283  0 */\n      0x00\n        /* \"contracts/TaskManagement.sol\":9265:9272  taskIds */\n      dup2\n        /* \"contracts/TaskManagement.sol\":9265:9279  taskIds.length */\n      mload\n        /* \"contracts/TaskManagement.sol\":9265:9283  taskIds.length > 0 */\n      gt\n        /* \"contracts/TaskManagement.sol\":9257:9305  require(taskIds.length > 0, \"You have no tasks\") */\n      tag_204\n      jumpi\n      mload(0x40)\n      0x08c379a000000000000000000000000000000000000000000000000000000000\n      dup2\n      mstore\n      0x04\n      add\n      tag_205\n      swap1\n      tag_206\n      jump\t// in\n    tag_205:\n      mload(0x40)\n      dup1\n      swap2\n      sub\n      swap1\n      revert\n    tag_204:\n        /* \"contracts/TaskManagement.sol\":9318:9346  Task[] memory userTasksArray */\n      0x00\n        /* \"contracts/TaskManagement.sol\":9360:9367  taskIds */\n      dup2\n        /* \"contracts/TaskManagement.sol\":9360:9374  taskIds.length */\n      mload\n        /* \"contracts/TaskManagement.sol\":9349:9375  new Task[](taskIds.length) */\n      0xffffffffffffffff\n      dup2\n      gt\n      iszero\n      tag_207\n      jumpi\n      tag_208\n      tag_121\n      jump\t// in\n    tag_208:\n    tag_207:\n      mload(0x40)\n      swap1\n      dup1\n      dup3\n      mstore\n      dup1\n      0x20\n      mul\n      0x20\n      add\n      dup3\n      add\n      0x40\n      mstore\n      dup1\n      iszero\n      tag_209\n      jumpi\n      dup2\n      0x20\n      add\n    tag_210:\n      tag_211\n      tag_125\n      jump\t// in\n    tag_211:\n      dup2\n      mstore\n      0x20\n      add\n      swap1\n      0x01\n      swap1\n      sub\n      swap1\n      dup2\n      tag_210\n      jumpi\n      swap1\n      pop\n    tag_209:\n      pop\n        /* \"contracts/TaskManagement.sol\":9318:9375  Task[] memory userTasksArray = new Task[](taskIds.length) */\n      swap1\n      pop\n        /* \"contracts/TaskManagement.sol\":9391:9397  uint i */\n      0x00\n        /* \"contracts/TaskManagement.sol\":9386:9492  for (uint i = 0; i < taskIds.length; i++) {... */\n    tag_212:\n        /* \"contracts/TaskManagement.sol\":9407:9414  taskIds */\n      dup3\n        /* \"contracts/TaskManagement.sol\":9407:9421  taskIds.length */\n      mload\n        /* \"contracts/TaskManagement.sol\":9403:9404  i */\n      dup2\n        /* \"contracts/TaskManagement.sol\":9403:9421  i < taskIds.length */\n      lt\n        /* \"contracts/TaskManagement.sol\":9386:9492  for (uint i = 0; i < taskIds.length; i++) {... */\n      iszero\n      tag_213\n      jumpi\n        /* \"contracts/TaskManagement.sol\":9463:9468  tasks */\n      0x05\n        /* \"contracts/TaskManagement.sol\":9463:9480  tasks[taskIds[i]] */\n      0x00\n        /* \"contracts/TaskManagement.sol\":9469:9476  taskIds */\n      dup5\n        /* \"contracts/TaskManagement.sol\":9477:9478  i */\n      dup4\n        /* \"contracts/TaskManagement.sol\":9469:9479  taskIds[i] */\n      dup2\n      mload\n      dup2\n      lt\n      tag_215\n      jumpi\n      tag_216\n      tag_147\n      jump\t// in\n    tag_216:\n    tag_215:\n      0x20\n      mul\n      0x20\n      add\n      add\n      mload\n        /* \"contracts/TaskManagement.sol\":9463:9480  tasks[taskIds[i]] */\n      dup2\n      mstore\n      0x20\n      add\n      swap1\n      dup2\n      mstore\n      0x20\n      add\n      0x00\n      keccak256\n        /* \"contracts/TaskManagement.sol\":9443:9480  userTasksArray[i] = tasks[taskIds[i]] */\n      mload(0x40)\n      dup1\n      0x0100\n      add\n      0x40\n      mstore\n      swap1\n      dup2\n      0x00\n      dup3\n      add\n      sload\n      dup2\n      mstore\n      0x20\n      add\n      0x01\n      dup3\n      add\n      dup1\n      sload\n      tag_217\n      swap1\n      tag_130\n      jump\t// in\n    tag_217:\n      dup1\n      0x1f\n      add\n      0x20\n      dup1\n      swap2\n      div\n      mul\n      0x20\n      add\n      mload(0x40)\n      swap1\n      dup2\n      add\n      0x40\n      mstore\n      dup1\n      swap3\n      swap2\n      swap1\n      dup2\n      dup2\n      mstore\n      0x20\n      add\n      dup3\n      dup1\n      sload\n      tag_218\n      swap1\n      tag_130\n      jump\t// in\n    tag_218:\n      dup1\n      iszero\n      tag_219\n      jumpi\n      dup1\n      0x1f\n      lt\n      tag_220\n      jumpi\n      0x0100\n      dup1\n      dup4\n      sload\n      div\n      mul\n      dup4\n      mstore\n      swap2\n      0x20\n      add\n      swap2\n      jump(tag_219)\n    tag_220:\n      dup3\n      add\n      swap2\n      swap1\n      0x00\n      mstore\n      keccak256(0x00, 0x20)\n      swap1\n    tag_221:\n      dup2\n      sload\n      dup2\n      mstore\n      swap1\n      0x01\n      add\n      swap1\n      0x20\n      add\n      dup1\n      dup4\n      gt\n      tag_221\n      jumpi\n      dup3\n      swap1\n      sub\n      0x1f\n      and\n      dup3\n      add\n      swap2\n    tag_219:\n      pop\n      pop\n      pop\n      pop\n      pop\n      dup2\n      mstore\n      0x20\n      add\n      0x02\n      dup3\n      add\n      dup1\n      sload\n      tag_222\n      swap1\n      tag_130\n      jump\t// in\n    tag_222:\n      dup1\n      0x1f\n      add\n      0x20\n      dup1\n      swap2\n      div\n      mul\n      0x20\n      add\n      mload(0x40)\n      swap1\n      dup2\n      add\n      0x40\n      mstore\n      dup1\n      swap3\n      swap2\n      swap1\n      dup2\n      dup2\n      mstore\n      0x20\n      add\n      dup3\n      dup1\n      sload\n      tag_223\n      swap1\n      tag_130\n      jump\t// in\n    tag_223:\n      dup1\n      iszero\n      tag_224\n      jumpi\n      dup1\n      0x1f\n      lt\n      tag_225\n      jumpi\n      0x0100\n      dup1\n      dup4\n      sload\n      div\n      mul\n      dup4\n      mstore\n      swap2\n      0x20\n      add\n      swap2\n      jump(tag_224)\n    tag_225:\n      dup3\n      add\n      swap2\n      swap1\n      0x00\n      mstore\n      keccak256(0x00, 0x20)\n      swap1\n    tag_226:\n      dup2\n      sload\n      dup2\n      mstore\n      swap1\n      0x01\n      add\n      swap1\n      0x20\n      add\n      dup1\n      dup4\n      gt\n      tag_226\n      jumpi\n      dup3\n      swap1\n      sub\n      0x1f\n      and\n      dup3\n      add\n      swap2\n    tag_224:\n      pop\n      pop\n      pop\n      pop\n      pop\n      dup2\n      mstore\n      0x20\n      add\n      0x03\n      dup3\n      add\n      0x00\n      swap1\n      sload\n      swap1\n      0x0100\n      exp\n      swap1\n      div\n      0xff\n      and\n      0x02\n      dup2\n      gt\n      iszero\n      tag_227\n      jumpi\n      tag_228\n      tag_142\n      jump\t// in\n    tag_228:\n    tag_227:\n      0x02\n      dup2\n      gt\n      iszero\n      tag_229\n      jumpi\n      tag_230\n      tag_142\n      jump\t// in\n    tag_230:\n    tag_229:\n      dup2\n      mstore\n      0x20\n      add\n      0x04\n      dup3\n      add\n      sload\n      dup2\n      mstore\n      0x20\n      add\n      0x05\n      dup3\n      add\n      0x00\n      swap1\n      sload\n      swap1\n      0x0100\n      exp\n      swap1\n      div\n      0xffffffffffffffffffffffffffffffffffffffff\n      and\n      0xffffffffffffffffffffffffffffffffffffffff\n      and\n      0xffffffffffffffffffffffffffffffffffffffff\n      and\n      dup2\n      mstore\n      0x20\n      add\n      0x05\n      dup3\n      add\n      0x14\n      swap1\n      sload\n      swap1\n      0x0100\n      exp\n      swap1\n      div\n      0xff\n      and\n      iszero\n      iszero\n      iszero\n      iszero\n      dup2\n      mstore\n      0x20\n      add\n      0x06\n      dup3\n      add\n      sload\n      dup2\n      mstore\n      pop\n      pop\n        /* \"contracts/TaskManagement.sol\":9443:9457  userTasksArray */\n      dup3\n        /* \"contracts/TaskManagement.sol\":9458:9459  i */\n      dup3\n        /* \"contracts/TaskManagement.sol\":9443:9460  userTasksArray[i] */\n      dup2\n      mload\n      dup2\n      lt\n      tag_231\n      jumpi\n      tag_232\n      tag_147\n      jump\t// in\n    tag_232:\n    tag_231:\n      0x20\n      mul\n      0x20\n      add\n      add\n        /* \"contracts/TaskManagement.sol\":9443:9480  userTasksArray[i] = tasks[taskIds[i]] */\n      dup2\n      swap1\n      mstore\n      pop\n        /* \"contracts/TaskManagement.sol\":9423:9426  i++ */\n      dup1\n      dup1\n      0x01\n      add\n      swap2\n      pop\n      pop\n        /* \"contracts/TaskManagement.sol\":9386:9492  for (uint i = 0; i < taskIds.length; i++) {... */\n      jump(tag_212)\n    tag_213:\n      pop\n        /* \"contracts/TaskManagement.sol\":9511:9525  userTasksArray */\n      dup1\n        /* \"contracts/TaskManagement.sol\":9504:9525  return userTasksArray */\n      swap3\n      pop\n      pop\n      pop\n        /* \"contracts/TaskManagement.sol\":9030:9533  function getUserTasks() public view returns (Task[] memory) {... */\n      swap1\n      jump\t// out\n        /* \"contracts/TaskManagement.sol\":2235:2583  function createDID(string memory _identifier) public {... */\n    tag_55:\n        /* \"contracts/TaskManagement.sol\":2335:2336  0 */\n      0x00\n        /* \"contracts/TaskManagement.sol\":2313:2324  _identifier */\n      dup2\n        /* \"contracts/TaskManagement.sol\":2307:2332  bytes(_identifier).length */\n      mload\n        /* \"contracts/TaskManagement.sol\":2307:2336  bytes(_identifier).length > 0 */\n      gt\n        /* \"contracts/TaskManagement.sol\":2299:2367  require(bytes(_identifier).length > 0, \"Identifier cannot be empty\") */\n      tag_234\n      jumpi\n      mload(0x40)\n      0x08c379a000000000000000000000000000000000000000000000000000000000\n      dup2\n      mstore\n      0x04\n      add\n      tag_235\n      swap1\n      tag_236\n      jump\t// in\n    tag_235:\n      mload(0x40)\n      dup1\n      swap2\n      sub\n      swap1\n      revert\n    tag_234:\n        /* \"contracts/TaskManagement.sol\":2420:2421  0 */\n      0x00\n        /* \"contracts/TaskManagement.sol\":2386:2422  dids[msg.sender].owner == address(0) */\n      0xffffffffffffffffffffffffffffffffffffffff\n      and\n        /* \"contracts/TaskManagement.sol\":2386:2390  dids */\n      0x00\n        /* \"contracts/TaskManagement.sol\":2386:2402  dids[msg.sender] */\n      dup1\n        /* \"contracts/TaskManagement.sol\":2391:2401  msg.sender */\n      caller\n        /* \"contracts/TaskManagement.sol\":2386:2402  dids[msg.sender] */\n      0xffffffffffffffffffffffffffffffffffffffff\n      and\n      0xffffffffffffffffffffffffffffffffffffffff\n      and\n      dup2\n      mstore\n      0x20\n      add\n      swap1\n      dup2\n      mstore\n      0x20\n      add\n      0x00\n      keccak256\n        /* \"contracts/TaskManagement.sol\":2386:2408  dids[msg.sender].owner */\n      0x01\n      add\n      0x00\n      swap1\n      sload\n      swap1\n      0x0100\n      exp\n      swap1\n      div\n      0xffffffffffffffffffffffffffffffffffffffff\n      and\n        /* \"contracts/TaskManagement.sol\":2386:2422  dids[msg.sender].owner == address(0) */\n      0xffffffffffffffffffffffffffffffffffffffff\n      and\n      eq\n        /* \"contracts/TaskManagement.sol\":2378:2462  require(dids[msg.sender].owner == address(0), \"DID already exists for this address\") */\n      tag_237\n      jumpi\n      mload(0x40)\n      0x08c379a000000000000000000000000000000000000000000000000000000000\n      dup2\n      mstore\n      0x04\n      add\n      tag_238\n      swap1\n      tag_239\n      jump\t// in\n    tag_238:\n      mload(0x40)\n      dup1\n      swap2\n      sub\n      swap1\n      revert\n    tag_237:\n        /* \"contracts/TaskManagement.sol\":2494:2522  DID(_identifier, msg.sender) */\n      mload(0x40)\n      dup1\n      0x40\n      add\n      0x40\n      mstore\n      dup1\n        /* \"contracts/TaskManagement.sol\":2498:2509  _identifier */\n      dup3\n        /* \"contracts/TaskManagement.sol\":2494:2522  DID(_identifier, msg.sender) */\n      dup2\n      mstore\n      0x20\n      add\n        /* \"contracts/TaskManagement.sol\":2511:2521  msg.sender */\n      caller\n        /* \"contracts/TaskManagement.sol\":2494:2522  DID(_identifier, msg.sender) */\n      0xffffffffffffffffffffffffffffffffffffffff\n      and\n      dup2\n      mstore\n      pop\n        /* \"contracts/TaskManagement.sol\":2475:2479  dids */\n      0x00\n        /* \"contracts/TaskManagement.sol\":2475:2491  dids[msg.sender] */\n      dup1\n        /* \"contracts/TaskManagement.sol\":2480:2490  msg.sender */\n      caller\n        /* \"contracts/TaskManagement.sol\":2475:2491  dids[msg.sender] */\n      0xffffffffffffffffffffffffffffffffffffffff\n      and\n      0xffffffffffffffffffffffffffffffffffffffff\n      and\n      dup2\n      mstore\n      0x20\n      add\n      swap1\n      dup2\n      mstore\n      0x20\n      add\n      0x00\n      keccak256\n        /* \"contracts/TaskManagement.sol\":2475:2522  dids[msg.sender] = DID(_identifier, msg.sender) */\n      0x00\n      dup3\n      add\n      mload\n      dup2\n      0x00\n      add\n      swap1\n      dup2\n      tag_240\n      swap2\n      swap1\n      tag_103\n      jump\t// in\n    tag_240:\n      pop\n      0x20\n      dup3\n      add\n      mload\n      dup2\n      0x01\n      add\n      exp(0x0100, 0x00)\n      dup2\n      sload\n      dup2\n      0xffffffffffffffffffffffffffffffffffffffff\n      mul\n      not\n      and\n      swap1\n      dup4\n      0xffffffffffffffffffffffffffffffffffffffff\n      and\n      mul\n      or\n      swap1\n      sstore\n      pop\n      swap1\n      pop\n      pop\n        /* \"contracts/TaskManagement.sol\":2551:2561  msg.sender */\n      caller\n        /* \"contracts/TaskManagement.sol\":2540:2575  DIDCreated(msg.sender, _identifier) */\n      0xffffffffffffffffffffffffffffffffffffffff\n      and\n      0x1b7934654ba536b6962955e057ce42885353bbaad8c605a5ce0678e632f28410\n        /* \"contracts/TaskManagement.sol\":2563:2574  _identifier */\n      dup3\n        /* \"contracts/TaskManagement.sol\":2540:2575  DIDCreated(msg.sender, _identifier) */\n      mload(0x40)\n      tag_241\n      swap2\n      swap1\n      tag_73\n      jump\t// in\n    tag_241:\n      mload(0x40)\n      dup1\n      swap2\n      sub\n      swap1\n      log2\n        /* \"contracts/TaskManagement.sol\":2235:2583  function createDID(string memory _identifier) public {... */\n      pop\n      jump\t// out\n        /* \"contracts/TaskManagement.sol\":6480:7387  function createTask(... */\n    tag_59:\n        /* \"contracts/TaskManagement.sol\":2046:2062  bytes(\"manager\") */\n      mload(0x40)\n      dup1\n      0x40\n      add\n      0x40\n      mstore\n      dup1\n      0x07\n      dup2\n      mstore\n      0x20\n      add\n      0x6d616e6167657200000000000000000000000000000000000000000000000000\n      dup2\n      mstore\n      pop\n        /* \"contracts/TaskManagement.sol\":2036:2063  keccak256(bytes(\"manager\")) */\n      dup1\n      mload\n      swap1\n      0x20\n      add\n      keccak256\n        /* \"contracts/TaskManagement.sol\":2013:2018  roles */\n      0x01\n        /* \"contracts/TaskManagement.sol\":2013:2030  roles[msg.sender] */\n      0x00\n        /* \"contracts/TaskManagement.sol\":2019:2029  msg.sender */\n      caller\n        /* \"contracts/TaskManagement.sol\":2013:2030  roles[msg.sender] */\n      0xffffffffffffffffffffffffffffffffffffffff\n      and\n      0xffffffffffffffffffffffffffffffffffffffff\n      and\n      dup2\n      mstore\n      0x20\n      add\n      swap1\n      dup2\n      mstore\n      0x20\n      add\n      0x00\n      keccak256\n        /* \"contracts/TaskManagement.sol\":1997:2032  keccak256(bytes(roles[msg.sender])) */\n      mload(0x40)\n      tag_243\n      swap2\n      swap1\n      tag_88\n      jump\t// in\n    tag_243:\n      mload(0x40)\n      dup1\n      swap2\n      sub\n      swap1\n      keccak256\n        /* \"contracts/TaskManagement.sol\":1997:2063  keccak256(bytes(roles[msg.sender])) == keccak256(bytes(\"manager\")) */\n      eq\n        /* \"contracts/TaskManagement.sol\":1989:2087  require(keccak256(bytes(roles[msg.sender])) == keccak256(bytes(\"manager\")), \"Unauthorized action\") */\n      tag_244\n      jumpi\n      mload(0x40)\n      0x08c379a000000000000000000000000000000000000000000000000000000000\n      dup2\n      mstore\n      0x04\n      add\n      tag_245\n      swap1\n      tag_91\n      jump\t// in\n    tag_245:\n      mload(0x40)\n      dup1\n      swap2\n      sub\n      swap1\n      revert\n    tag_244:\n        /* \"contracts/TaskManagement.sol\":6730:6731  0 */\n      0x00\n        /* \"contracts/TaskManagement.sol\":6696:6732  dids[msg.sender].owner != address(0) */\n      0xffffffffffffffffffffffffffffffffffffffff\n      and\n        /* \"contracts/TaskManagement.sol\":6696:6700  dids */\n      0x00\n        /* \"contracts/TaskManagement.sol\":6696:6712  dids[msg.sender] */\n      dup1\n        /* \"contracts/TaskManagement.sol\":6701:6711  msg.sender */\n      caller\n        /* \"contracts/TaskManagement.sol\":6696:6712  dids[msg.sender] */\n      0xffffffffffffffffffffffffffffffffffffffff\n      and\n      0xffffffffffffffffffffffffffffffffffffffff\n      and\n      dup2\n      mstore\n      0x20\n      add\n      swap1\n      dup2\n      mstore\n      0x20\n      add\n      0x00\n      keccak256\n        /* \"contracts/TaskManagement.sol\":6696:6718  dids[msg.sender].owner */\n      0x01\n      add\n      0x00\n      swap1\n      sload\n      swap1\n      0x0100\n      exp\n      swap1\n      div\n      0xffffffffffffffffffffffffffffffffffffffff\n      and\n        /* \"contracts/TaskManagement.sol\":6696:6732  dids[msg.sender].owner != address(0) */\n      0xffffffffffffffffffffffffffffffffffffffff\n      and\n      sub\n        /* \"contracts/TaskManagement.sol\":6688:6775  require(dids[msg.sender].owner != address(0), \"No existing DID found for this address\") */\n      tag_247\n      jumpi\n      mload(0x40)\n      0x08c379a000000000000000000000000000000000000000000000000000000000\n      dup2\n      mstore\n      0x04\n      add\n      tag_248\n      swap1\n      tag_95\n      jump\t// in\n    tag_248:\n      mload(0x40)\n      dup1\n      swap2\n      sub\n      swap1\n      revert\n    tag_247:\n        /* \"contracts/TaskManagement.sol\":6817:6818  0 */\n      0x00\n        /* \"contracts/TaskManagement.sol\":6800:6806  _title */\n      dup6\n        /* \"contracts/TaskManagement.sol\":6794:6814  bytes(_title).length */\n      mload\n        /* \"contracts/TaskManagement.sol\":6794:6818  bytes(_title).length > 0 */\n      gt\n        /* \"contracts/TaskManagement.sol\":6786:6844  require(bytes(_title).length > 0, \"Title cannot be empty\") */\n      tag_249\n      jumpi\n      mload(0x40)\n      0x08c379a000000000000000000000000000000000000000000000000000000000\n      dup2\n      mstore\n      0x04\n      add\n      tag_250\n      swap1\n      tag_251\n      jump\t// in\n    tag_250:\n      mload(0x40)\n      dup1\n      swap2\n      sub\n      swap1\n      revert\n    tag_249:\n        /* \"contracts/TaskManagement.sol\":6892:6893  0 */\n      0x00\n        /* \"contracts/TaskManagement.sol\":6869:6881  _description */\n      dup5\n        /* \"contracts/TaskManagement.sol\":6863:6889  bytes(_description).length */\n      mload\n        /* \"contracts/TaskManagement.sol\":6863:6893  bytes(_description).length > 0 */\n      gt\n        /* \"contracts/TaskManagement.sol\":6855:6925  require(bytes(_description).length > 0, \"Description cannot be empty\") */\n      tag_252\n      jumpi\n      mload(0x40)\n      0x08c379a000000000000000000000000000000000000000000000000000000000\n      dup2\n      mstore\n      0x04\n      add\n      tag_253\n      swap1\n      tag_254\n      jump\t// in\n    tag_253:\n      mload(0x40)\n      dup1\n      swap2\n      sub\n      swap1\n      revert\n    tag_252:\n        /* \"contracts/TaskManagement.sol\":6955:6970  block.timestamp */\n      timestamp\n        /* \"contracts/TaskManagement.sol\":6944:6952  _dueDate */\n      dup3\n        /* \"contracts/TaskManagement.sol\":6944:6970  _dueDate > block.timestamp */\n      gt\n        /* \"contracts/TaskManagement.sol\":6936:7005  require(_dueDate > block.timestamp, \"Due date must be in the future\") */\n      tag_255\n      jumpi\n      mload(0x40)\n      0x08c379a000000000000000000000000000000000000000000000000000000000\n      dup2\n      mstore\n      0x04\n      add\n      tag_256\n      swap1\n      tag_257\n      jump\t// in\n    tag_256:\n      mload(0x40)\n      dup1\n      swap2\n      sub\n      swap1\n      revert\n    tag_255:\n        /* \"contracts/TaskManagement.sol\":7084:7167  Task(taskCounter, _title, _description, _priority, _dueDate, _assignedTo, false, 0) */\n      mload(0x40)\n      dup1\n      0x0100\n      add\n      0x40\n      mstore\n      dup1\n        /* \"contracts/TaskManagement.sol\":7089:7100  taskCounter */\n      sload(0x04)\n        /* \"contracts/TaskManagement.sol\":7084:7167  Task(taskCounter, _title, _description, _priority, _dueDate, _assignedTo, false, 0) */\n      dup2\n      mstore\n      0x20\n      add\n        /* \"contracts/TaskManagement.sol\":7102:7108  _title */\n      dup7\n        /* \"contracts/TaskManagement.sol\":7084:7167  Task(taskCounter, _title, _description, _priority, _dueDate, _assignedTo, false, 0) */\n      dup2\n      mstore\n      0x20\n      add\n        /* \"contracts/TaskManagement.sol\":7110:7122  _description */\n      dup6\n        /* \"contracts/TaskManagement.sol\":7084:7167  Task(taskCounter, _title, _description, _priority, _dueDate, _assignedTo, false, 0) */\n      dup2\n      mstore\n      0x20\n      add\n        /* \"contracts/TaskManagement.sol\":7124:7133  _priority */\n      dup5\n        /* \"contracts/TaskManagement.sol\":7084:7167  Task(taskCounter, _title, _description, _priority, _dueDate, _assignedTo, false, 0) */\n      0x02\n      dup2\n      gt\n      iszero\n      tag_258\n      jumpi\n      tag_259\n      tag_142\n      jump\t// in\n    tag_259:\n    tag_258:\n      dup2\n      mstore\n      0x20\n      add\n        /* \"contracts/TaskManagement.sol\":7135:7143  _dueDate */\n      dup4\n        /* \"contracts/TaskManagement.sol\":7084:7167  Task(taskCounter, _title, _description, _priority, _dueDate, _assignedTo, false, 0) */\n      dup2\n      mstore\n      0x20\n      add\n        /* \"contracts/TaskManagement.sol\":7145:7156  _assignedTo */\n      dup3\n        /* \"contracts/TaskManagement.sol\":7084:7167  Task(taskCounter, _title, _description, _priority, _dueDate, _assignedTo, false, 0) */\n      0xffffffffffffffffffffffffffffffffffffffff\n      and\n      dup2\n      mstore\n      0x20\n      add\n        /* \"contracts/TaskManagement.sol\":7158:7163  false */\n      0x00\n        /* \"contracts/TaskManagement.sol\":7084:7167  Task(taskCounter, _title, _description, _priority, _dueDate, _assignedTo, false, 0) */\n      iszero\n      iszero\n      dup2\n      mstore\n      0x20\n      add\n        /* \"contracts/TaskManagement.sol\":7165:7166  0 */\n      0x00\n        /* \"contracts/TaskManagement.sol\":7084:7167  Task(taskCounter, _title, _description, _priority, _dueDate, _assignedTo, false, 0) */\n      dup2\n      mstore\n      pop\n        /* \"contracts/TaskManagement.sol\":7063:7068  tasks */\n      0x05\n        /* \"contracts/TaskManagement.sol\":7063:7081  tasks[taskCounter] */\n      0x00\n        /* \"contracts/TaskManagement.sol\":7069:7080  taskCounter */\n      sload(0x04)\n        /* \"contracts/TaskManagement.sol\":7063:7081  tasks[taskCounter] */\n      dup2\n      mstore\n      0x20\n      add\n      swap1\n      dup2\n      mstore\n      0x20\n      add\n      0x00\n      keccak256\n        /* \"contracts/TaskManagement.sol\":7063:7167  tasks[taskCounter] = Task(taskCounter, _title, _description, _priority, _dueDate, _assignedTo, false, 0) */\n      0x00\n      dup3\n      add\n      mload\n      dup2\n      0x00\n      add\n      sstore\n      0x20\n      dup3\n      add\n      mload\n      dup2\n      0x01\n      add\n      swap1\n      dup2\n      tag_260\n      swap2\n      swap1\n      tag_103\n      jump\t// in\n    tag_260:\n      pop\n      0x40\n      dup3\n      add\n      mload\n      dup2\n      0x02\n      add\n      swap1\n      dup2\n      tag_261\n      swap2\n      swap1\n      tag_103\n      jump\t// in\n    tag_261:\n      pop\n      0x60\n      dup3\n      add\n      mload\n      dup2\n      0x03\n      add\n      exp(0x0100, 0x00)\n      dup2\n      sload\n      dup2\n      0xff\n      mul\n      not\n      and\n      swap1\n      dup4\n      0x02\n      dup2\n      gt\n      iszero\n      tag_262\n      jumpi\n      tag_263\n      tag_142\n      jump\t// in\n    tag_263:\n    tag_262:\n      mul\n      or\n      swap1\n      sstore\n      pop\n      0x80\n      dup3\n      add\n      mload\n      dup2\n      0x04\n      add\n      sstore\n      0xa0\n      dup3\n      add\n      mload\n      dup2\n      0x05\n      add\n      exp(0x0100, 0x00)\n      dup2\n      sload\n      dup2\n      0xffffffffffffffffffffffffffffffffffffffff\n      mul\n      not\n      and\n      swap1\n      dup4\n      0xffffffffffffffffffffffffffffffffffffffff\n      and\n      mul\n      or\n      swap1\n      sstore\n      pop\n      0xc0\n      dup3\n      add\n      mload\n      dup2\n      0x05\n      add\n      exp(0x0100, 0x14)\n      dup2\n      sload\n      dup2\n      0xff\n      mul\n      not\n      and\n      swap1\n      dup4\n      iszero\n      iszero\n      mul\n      or\n      swap1\n      sstore\n      pop\n      0xe0\n      dup3\n      add\n      mload\n      dup2\n      0x06\n      add\n      sstore\n      swap1\n      pop\n      pop\n        /* \"contracts/TaskManagement.sol\":7178:7187  userTasks */\n      0x06\n        /* \"contracts/TaskManagement.sol\":7178:7200  userTasks[_assignedTo] */\n      0x00\n        /* \"contracts/TaskManagement.sol\":7188:7199  _assignedTo */\n      dup3\n        /* \"contracts/TaskManagement.sol\":7178:7200  userTasks[_assignedTo] */\n      0xffffffffffffffffffffffffffffffffffffffff\n      and\n      0xffffffffffffffffffffffffffffffffffffffff\n      and\n      dup2\n      mstore\n      0x20\n      add\n      swap1\n      dup2\n      mstore\n      0x20\n      add\n      0x00\n      keccak256\n        /* \"contracts/TaskManagement.sol\":7206:7217  taskCounter */\n      sload(0x04)\n        /* \"contracts/TaskManagement.sol\":7178:7218  userTasks[_assignedTo].push(taskCounter) */\n      swap1\n      dup1\n      0x01\n      dup2\n      sload\n      add\n      dup1\n      dup3\n      sstore\n      dup1\n      swap2\n      pop\n      pop\n      0x01\n      swap1\n      sub\n      swap1\n      0x00\n      mstore\n      keccak256(0x00, 0x20)\n      add\n      0x00\n      swap1\n      swap2\n      swap1\n      swap2\n      swap1\n      swap2\n      pop\n      sstore\n        /* \"contracts/TaskManagement.sol\":7277:7287  msg.sender */\n      caller\n        /* \"contracts/TaskManagement.sol\":7265:7314  TaskCreated(msg.sender, _assignedTo, taskCounter) */\n      0xffffffffffffffffffffffffffffffffffffffff\n      and\n      0x3f9b921f6bb5d577cdf49122202d27f7c50e3cc981c47543dc4a59c00dee5229\n        /* \"contracts/TaskManagement.sol\":7289:7300  _assignedTo */\n      dup3\n        /* \"contracts/TaskManagement.sol\":7302:7313  taskCounter */\n      sload(0x04)\n        /* \"contracts/TaskManagement.sol\":7265:7314  TaskCreated(msg.sender, _assignedTo, taskCounter) */\n      mload(0x40)\n      tag_265\n      swap3\n      swap2\n      swap1\n      tag_266\n      jump\t// in\n    tag_265:\n      mload(0x40)\n      dup1\n      swap2\n      sub\n      swap1\n      log2\n        /* \"contracts/TaskManagement.sol\":7366:7377  taskCounter */\n      0x04\n      0x00\n        /* \"contracts/TaskManagement.sol\":7366:7379  taskCounter++ */\n      dup2\n      sload\n      dup1\n      swap3\n      swap2\n      swap1\n      tag_267\n      swap1\n      tag_268\n      jump\t// in\n    tag_267:\n      swap2\n      swap1\n      pop\n      sstore\n      pop\n        /* \"contracts/TaskManagement.sol\":6480:7387  function createTask(... */\n      pop\n      pop\n      pop\n      pop\n      pop\n      jump\t// out\n        /* \"contracts/TaskManagement.sol\":10916:11290  function verifyTaskStatus(uint _id) public returns (bool) {... */\n    tag_62:\n        /* \"contracts/TaskManagement.sol\":10968:10972  bool */\n      0x00\n        /* \"contracts/TaskManagement.sol\":11027:11028  0 */\n      dup1\n        /* \"contracts/TaskManagement.sol\":10993:11029  dids[msg.sender].owner != address(0) */\n      0xffffffffffffffffffffffffffffffffffffffff\n      and\n        /* \"contracts/TaskManagement.sol\":10993:10997  dids */\n      0x00\n        /* \"contracts/TaskManagement.sol\":10993:11009  dids[msg.sender] */\n      dup1\n        /* \"contracts/TaskManagement.sol\":10998:11008  msg.sender */\n      caller\n        /* \"contracts/TaskManagement.sol\":10993:11009  dids[msg.sender] */\n      0xffffffffffffffffffffffffffffffffffffffff\n      and\n      0xffffffffffffffffffffffffffffffffffffffff\n      and\n      dup2\n      mstore\n      0x20\n      add\n      swap1\n      dup2\n      mstore\n      0x20\n      add\n      0x00\n      keccak256\n        /* \"contracts/TaskManagement.sol\":10993:11015  dids[msg.sender].owner */\n      0x01\n      add\n      0x00\n      swap1\n      sload\n      swap1\n      0x0100\n      exp\n      swap1\n      div\n      0xffffffffffffffffffffffffffffffffffffffff\n      and\n        /* \"contracts/TaskManagement.sol\":10993:11029  dids[msg.sender].owner != address(0) */\n      0xffffffffffffffffffffffffffffffffffffffff\n      and\n      sub\n        /* \"contracts/TaskManagement.sol\":10985:11072  require(dids[msg.sender].owner != address(0), \"No existing DID found for this address\") */\n      tag_270\n      jumpi\n      mload(0x40)\n      0x08c379a000000000000000000000000000000000000000000000000000000000\n      dup2\n      mstore\n      0x04\n      add\n      tag_271\n      swap1\n      tag_95\n      jump\t// in\n    tag_271:\n      mload(0x40)\n      dup1\n      swap2\n      sub\n      swap1\n      revert\n    tag_270:\n        /* \"contracts/TaskManagement.sol\":11124:11125  0 */\n      0x00\n        /* \"contracts/TaskManagement.sol\":11091:11126  tasks[_id].assignedTo != address(0) */\n      0xffffffffffffffffffffffffffffffffffffffff\n      and\n        /* \"contracts/TaskManagement.sol\":11091:11096  tasks */\n      0x05\n        /* \"contracts/TaskManagement.sol\":11091:11101  tasks[_id] */\n      0x00\n        /* \"contracts/TaskManagement.sol\":11097:11100  _id */\n      dup5\n        /* \"contracts/TaskManagement.sol\":11091:11101  tasks[_id] */\n      dup2\n      mstore\n      0x20\n      add\n      swap1\n      dup2\n      mstore\n      0x20\n      add\n      0x00\n      keccak256\n        /* \"contracts/TaskManagement.sol\":11091:11112  tasks[_id].assignedTo */\n      0x05\n      add\n      0x00\n      swap1\n      sload\n      swap1\n      0x0100\n      exp\n      swap1\n      div\n      0xffffffffffffffffffffffffffffffffffffffff\n      and\n        /* \"contracts/TaskManagement.sol\":11091:11126  tasks[_id].assignedTo != address(0) */\n      0xffffffffffffffffffffffffffffffffffffffff\n      and\n      sub\n        /* \"contracts/TaskManagement.sol\":11083:11145  require(tasks[_id].assignedTo != address(0), \"Task not found\") */\n      tag_272\n      jumpi\n      mload(0x40)\n      0x08c379a000000000000000000000000000000000000000000000000000000000\n      dup2\n      mstore\n      0x04\n      add\n      tag_273\n      swap1\n      tag_153\n      jump\t// in\n    tag_273:\n      mload(0x40)\n      dup1\n      swap2\n      sub\n      swap1\n      revert\n    tag_272:\n        /* \"contracts/TaskManagement.sol\":11158:11174  bool isCompleted */\n      0x00\n        /* \"contracts/TaskManagement.sol\":11177:11182  tasks */\n      0x05\n        /* \"contracts/TaskManagement.sol\":11177:11187  tasks[_id] */\n      0x00\n        /* \"contracts/TaskManagement.sol\":11183:11186  _id */\n      dup5\n        /* \"contracts/TaskManagement.sol\":11177:11187  tasks[_id] */\n      dup2\n      mstore\n      0x20\n      add\n      swap1\n      dup2\n      mstore\n      0x20\n      add\n      0x00\n      keccak256\n        /* \"contracts/TaskManagement.sol\":11177:11199  tasks[_id].isCompleted */\n      0x05\n      add\n      0x14\n      swap1\n      sload\n      swap1\n      0x0100\n      exp\n      swap1\n      div\n      0xff\n      and\n        /* \"contracts/TaskManagement.sol\":11158:11199  bool isCompleted = tasks[_id].isCompleted */\n      swap1\n      pop\n        /* \"contracts/TaskManagement.sol\":11236:11239  _id */\n      dup3\n        /* \"contracts/TaskManagement.sol\":11217:11253  TaskStatusVerified(_id, isCompleted) */\n      0x5b1d4634b3c10500ffedc8842916f2444f17b692faca086f941028797de87728\n        /* \"contracts/TaskManagement.sol\":11241:11252  isCompleted */\n      dup3\n        /* \"contracts/TaskManagement.sol\":11217:11253  TaskStatusVerified(_id, isCompleted) */\n      mload(0x40)\n      tag_274\n      swap2\n      swap1\n      tag_35\n      jump\t// in\n    tag_274:\n      mload(0x40)\n      dup1\n      swap2\n      sub\n      swap1\n      log2\n        /* \"contracts/TaskManagement.sol\":11271:11282  isCompleted */\n      dup1\n        /* \"contracts/TaskManagement.sol\":11264:11282  return isCompleted */\n      swap2\n      pop\n      pop\n        /* \"contracts/TaskManagement.sol\":10916:11290  function verifyTaskStatus(uint _id) public returns (bool) {... */\n      swap2\n      swap1\n      pop\n      jump\t// out\n        /* \"contracts/TaskManagement.sol\":7459:8495  function reassignTask(uint _id, address _newAssignee) onlyManager public {... */\n    tag_66:\n        /* \"contracts/TaskManagement.sol\":2046:2062  bytes(\"manager\") */\n      mload(0x40)\n      dup1\n      0x40\n      add\n      0x40\n      mstore\n      dup1\n      0x07\n      dup2\n      mstore\n      0x20\n      add\n      0x6d616e6167657200000000000000000000000000000000000000000000000000\n      dup2\n      mstore\n      pop\n        /* \"contracts/TaskManagement.sol\":2036:2063  keccak256(bytes(\"manager\")) */\n      dup1\n      mload\n      swap1\n      0x20\n      add\n      keccak256\n        /* \"contracts/TaskManagement.sol\":2013:2018  roles */\n      0x01\n        /* \"contracts/TaskManagement.sol\":2013:2030  roles[msg.sender] */\n      0x00\n        /* \"contracts/TaskManagement.sol\":2019:2029  msg.sender */\n      caller\n        /* \"contracts/TaskManagement.sol\":2013:2030  roles[msg.sender] */\n      0xffffffffffffffffffffffffffffffffffffffff\n      and\n      0xffffffffffffffffffffffffffffffffffffffff\n      and\n      dup2\n      mstore\n      0x20\n      add\n      swap1\n      dup2\n      mstore\n      0x20\n      add\n      0x00\n      keccak256\n        /* \"contracts/TaskManagement.sol\":1997:2032  keccak256(bytes(roles[msg.sender])) */\n      mload(0x40)\n      tag_276\n      swap2\n      swap1\n      tag_88\n      jump\t// in\n    tag_276:\n      mload(0x40)\n      dup1\n      swap2\n      sub\n      swap1\n      keccak256\n        /* \"contracts/TaskManagement.sol\":1997:2063  keccak256(bytes(roles[msg.sender])) == keccak256(bytes(\"manager\")) */\n      eq\n        /* \"contracts/TaskManagement.sol\":1989:2087  require(keccak256(bytes(roles[msg.sender])) == keccak256(bytes(\"manager\")), \"Unauthorized action\") */\n      tag_277\n      jumpi\n      mload(0x40)\n      0x08c379a000000000000000000000000000000000000000000000000000000000\n      dup2\n      mstore\n      0x04\n      add\n      tag_278\n      swap1\n      tag_91\n      jump\t// in\n    tag_278:\n      mload(0x40)\n      dup1\n      swap2\n      sub\n      swap1\n      revert\n    tag_277:\n        /* \"contracts/TaskManagement.sol\":7585:7586  0 */\n      0x00\n        /* \"contracts/TaskManagement.sol\":7551:7587  dids[msg.sender].owner != address(0) */\n      0xffffffffffffffffffffffffffffffffffffffff\n      and\n        /* \"contracts/TaskManagement.sol\":7551:7555  dids */\n      0x00\n        /* \"contracts/TaskManagement.sol\":7551:7567  dids[msg.sender] */\n      dup1\n        /* \"contracts/TaskManagement.sol\":7556:7566  msg.sender */\n      caller\n        /* \"contracts/TaskManagement.sol\":7551:7567  dids[msg.sender] */\n      0xffffffffffffffffffffffffffffffffffffffff\n      and\n      0xffffffffffffffffffffffffffffffffffffffff\n      and\n      dup2\n      mstore\n      0x20\n      add\n      swap1\n      dup2\n      mstore\n      0x20\n      add\n      0x00\n      keccak256\n        /* \"contracts/TaskManagement.sol\":7551:7573  dids[msg.sender].owner */\n      0x01\n      add\n      0x00\n      swap1\n      sload\n      swap1\n      0x0100\n      exp\n      swap1\n      div\n      0xffffffffffffffffffffffffffffffffffffffff\n      and\n        /* \"contracts/TaskManagement.sol\":7551:7587  dids[msg.sender].owner != address(0) */\n      0xffffffffffffffffffffffffffffffffffffffff\n      and\n      sub\n        /* \"contracts/TaskManagement.sol\":7543:7630  require(dids[msg.sender].owner != address(0), \"No existing DID found for this address\") */\n      tag_280\n      jumpi\n      mload(0x40)\n      0x08c379a000000000000000000000000000000000000000000000000000000000\n      dup2\n      mstore\n      0x04\n      add\n      tag_281\n      swap1\n      tag_95\n      jump\t// in\n    tag_281:\n      mload(0x40)\n      dup1\n      swap2\n      sub\n      swap1\n      revert\n    tag_280:\n        /* \"contracts/TaskManagement.sol\":7674:7686  _newAssignee */\n      dup1\n        /* \"contracts/TaskManagement.sol\":7649:7686  tasks[_id].assignedTo != _newAssignee */\n      0xffffffffffffffffffffffffffffffffffffffff\n      and\n        /* \"contracts/TaskManagement.sol\":7649:7654  tasks */\n      0x05\n        /* \"contracts/TaskManagement.sol\":7649:7659  tasks[_id] */\n      0x00\n        /* \"contracts/TaskManagement.sol\":7655:7658  _id */\n      dup5\n        /* \"contracts/TaskManagement.sol\":7649:7659  tasks[_id] */\n      dup2\n      mstore\n      0x20\n      add\n      swap1\n      dup2\n      mstore\n      0x20\n      add\n      0x00\n      keccak256\n        /* \"contracts/TaskManagement.sol\":7649:7670  tasks[_id].assignedTo */\n      0x05\n      add\n      0x00\n      swap1\n      sload\n      swap1\n      0x0100\n      exp\n      swap1\n      div\n      0xffffffffffffffffffffffffffffffffffffffff\n      and\n        /* \"contracts/TaskManagement.sol\":7649:7686  tasks[_id].assignedTo != _newAssignee */\n      0xffffffffffffffffffffffffffffffffffffffff\n      and\n      sub\n        /* \"contracts/TaskManagement.sol\":7641:7729  require(tasks[_id].assignedTo != _newAssignee, \"This task already belonged to the user\") */\n      tag_282\n      jumpi\n      mload(0x40)\n      0x08c379a000000000000000000000000000000000000000000000000000000000\n      dup2\n      mstore\n      0x04\n      add\n      tag_283\n      swap1\n      tag_284\n      jump\t// in\n    tag_283:\n      mload(0x40)\n      dup1\n      swap2\n      sub\n      swap1\n      revert\n    tag_282:\n        /* \"contracts/TaskManagement.sol\":7742:7761  address oldAssignee */\n      0x00\n        /* \"contracts/TaskManagement.sol\":7764:7769  tasks */\n      0x05\n        /* \"contracts/TaskManagement.sol\":7764:7774  tasks[_id] */\n      0x00\n        /* \"contracts/TaskManagement.sol\":7770:7773  _id */\n      dup5\n        /* \"contracts/TaskManagement.sol\":7764:7774  tasks[_id] */\n      dup2\n      mstore\n      0x20\n      add\n      swap1\n      dup2\n      mstore\n      0x20\n      add\n      0x00\n      keccak256\n        /* \"contracts/TaskManagement.sol\":7764:7785  tasks[_id].assignedTo */\n      0x05\n      add\n      0x00\n      swap1\n      sload\n      swap1\n      0x0100\n      exp\n      swap1\n      div\n      0xffffffffffffffffffffffffffffffffffffffff\n      and\n        /* \"contracts/TaskManagement.sol\":7742:7785  address oldAssignee = tasks[_id].assignedTo */\n      swap1\n      pop\n        /* \"contracts/TaskManagement.sol\":7854:7866  _newAssignee */\n      dup2\n        /* \"contracts/TaskManagement.sol\":7830:7835  tasks */\n      0x05\n        /* \"contracts/TaskManagement.sol\":7830:7840  tasks[_id] */\n      0x00\n        /* \"contracts/TaskManagement.sol\":7836:7839  _id */\n      dup6\n        /* \"contracts/TaskManagement.sol\":7830:7840  tasks[_id] */\n      dup2\n      mstore\n      0x20\n      add\n      swap1\n      dup2\n      mstore\n      0x20\n      add\n      0x00\n      keccak256\n        /* \"contracts/TaskManagement.sol\":7830:7851  tasks[_id].assignedTo */\n      0x05\n      add\n      0x00\n        /* \"contracts/TaskManagement.sol\":7830:7866  tasks[_id].assignedTo = _newAssignee */\n      0x0100\n      exp\n      dup2\n      sload\n      dup2\n      0xffffffffffffffffffffffffffffffffffffffff\n      mul\n      not\n      and\n      swap1\n      dup4\n      0xffffffffffffffffffffffffffffffffffffffff\n      and\n      mul\n      or\n      swap1\n      sstore\n      pop\n        /* \"contracts/TaskManagement.sol\":7936:7964  uint[] storage previousTasks */\n      0x00\n        /* \"contracts/TaskManagement.sol\":7967:7976  userTasks */\n      0x06\n        /* \"contracts/TaskManagement.sol\":7967:7989  userTasks[oldAssignee] */\n      0x00\n        /* \"contracts/TaskManagement.sol\":7977:7988  oldAssignee */\n      dup4\n        /* \"contracts/TaskManagement.sol\":7967:7989  userTasks[oldAssignee] */\n      0xffffffffffffffffffffffffffffffffffffffff\n      and\n      0xffffffffffffffffffffffffffffffffffffffff\n      and\n      dup2\n      mstore\n      0x20\n      add\n      swap1\n      dup2\n      mstore\n      0x20\n      add\n      0x00\n      keccak256\n        /* \"contracts/TaskManagement.sol\":7936:7989  uint[] storage previousTasks = userTasks[oldAssignee] */\n      swap1\n      pop\n        /* \"contracts/TaskManagement.sol\":8005:8011  uint i */\n      0x00\n        /* \"contracts/TaskManagement.sol\":8000:8324  for (uint i = 0; i < previousTasks.length; i++) {... */\n    tag_285:\n        /* \"contracts/TaskManagement.sol\":8021:8034  previousTasks */\n      dup2\n        /* \"contracts/TaskManagement.sol\":8021:8041  previousTasks.length */\n      dup1\n      sload\n      swap1\n      pop\n        /* \"contracts/TaskManagement.sol\":8017:8018  i */\n      dup2\n        /* \"contracts/TaskManagement.sol\":8017:8041  i < previousTasks.length */\n      lt\n        /* \"contracts/TaskManagement.sol\":8000:8324  for (uint i = 0; i < previousTasks.length; i++) {... */\n      iszero\n      tag_286\n      jumpi\n        /* \"contracts/TaskManagement.sol\":8087:8090  _id */\n      dup5\n        /* \"contracts/TaskManagement.sol\":8067:8080  previousTasks */\n      dup3\n        /* \"contracts/TaskManagement.sol\":8081:8082  i */\n      dup3\n        /* \"contracts/TaskManagement.sol\":8067:8083  previousTasks[i] */\n      dup2\n      sload\n      dup2\n      lt\n      tag_288\n      jumpi\n      tag_289\n      tag_147\n      jump\t// in\n    tag_289:\n    tag_288:\n      swap1\n      0x00\n      mstore\n      keccak256(0x00, 0x20)\n      add\n      sload\n        /* \"contracts/TaskManagement.sol\":8067:8090  previousTasks[i] == _id */\n      sub\n        /* \"contracts/TaskManagement.sol\":8063:8313  if (previousTasks[i] == _id) {... */\n      tag_291\n      jumpi\n        /* \"contracts/TaskManagement.sol\":8196:8209  previousTasks */\n      dup2\n        /* \"contracts/TaskManagement.sol\":8233:8234  1 */\n      0x01\n        /* \"contracts/TaskManagement.sol\":8210:8223  previousTasks */\n      dup4\n        /* \"contracts/TaskManagement.sol\":8210:8230  previousTasks.length */\n      dup1\n      sload\n      swap1\n      pop\n        /* \"contracts/TaskManagement.sol\":8210:8234  previousTasks.length - 1 */\n      tag_292\n      swap2\n      swap1\n      tag_293\n      jump\t// in\n    tag_292:\n        /* \"contracts/TaskManagement.sol\":8196:8235  previousTasks[previousTasks.length - 1] */\n      dup2\n      sload\n      dup2\n      lt\n      tag_294\n      jumpi\n      tag_295\n      tag_147\n      jump\t// in\n    tag_295:\n    tag_294:\n      swap1\n      0x00\n      mstore\n      keccak256(0x00, 0x20)\n      add\n      sload\n        /* \"contracts/TaskManagement.sol\":8177:8190  previousTasks */\n      dup3\n        /* \"contracts/TaskManagement.sol\":8191:8192  i */\n      dup3\n        /* \"contracts/TaskManagement.sol\":8177:8193  previousTasks[i] */\n      dup2\n      sload\n      dup2\n      lt\n      tag_297\n      jumpi\n      tag_298\n      tag_147\n      jump\t// in\n    tag_298:\n    tag_297:\n      swap1\n      0x00\n      mstore\n      keccak256(0x00, 0x20)\n      add\n        /* \"contracts/TaskManagement.sol\":8177:8235  previousTasks[i] = previousTasks[previousTasks.length - 1] */\n      dup2\n      swap1\n      sstore\n      pop\n        /* \"contracts/TaskManagement.sol\":8254:8267  previousTasks */\n      dup2\n        /* \"contracts/TaskManagement.sol\":8254:8273  previousTasks.pop() */\n      dup1\n      sload\n      dup1\n      tag_300\n      jumpi\n      tag_301\n      tag_302\n      jump\t// in\n    tag_301:\n    tag_300:\n      0x01\n      swap1\n      sub\n      dup2\n      dup2\n      swap1\n      0x00\n      mstore\n      keccak256(0x00, 0x20)\n      add\n      0x00\n      swap1\n      sstore\n      swap1\n      sstore\n        /* \"contracts/TaskManagement.sol\":8292:8297  break */\n      jump(tag_286)\n        /* \"contracts/TaskManagement.sol\":8063:8313  if (previousTasks[i] == _id) {... */\n    tag_291:\n        /* \"contracts/TaskManagement.sol\":8043:8046  i++ */\n      dup1\n      dup1\n      0x01\n      add\n      swap2\n      pop\n      pop\n        /* \"contracts/TaskManagement.sol\":8000:8324  for (uint i = 0; i < previousTasks.length; i++) {... */\n      jump(tag_285)\n    tag_286:\n      pop\n        /* \"contracts/TaskManagement.sol\":8383:8392  userTasks */\n      0x06\n        /* \"contracts/TaskManagement.sol\":8383:8406  userTasks[_newAssignee] */\n      0x00\n        /* \"contracts/TaskManagement.sol\":8393:8405  _newAssignee */\n      dup5\n        /* \"contracts/TaskManagement.sol\":8383:8406  userTasks[_newAssignee] */\n      0xffffffffffffffffffffffffffffffffffffffff\n      and\n      0xffffffffffffffffffffffffffffffffffffffff\n      and\n      dup2\n      mstore\n      0x20\n      add\n      swap1\n      dup2\n      mstore\n      0x20\n      add\n      0x00\n      keccak256\n        /* \"contracts/TaskManagement.sol\":8412:8415  _id */\n      dup5\n        /* \"contracts/TaskManagement.sol\":8383:8416  userTasks[_newAssignee].push(_id) */\n      swap1\n      dup1\n      0x01\n      dup2\n      sload\n      add\n      dup1\n      dup3\n      sstore\n      dup1\n      swap2\n      pop\n      pop\n      0x01\n      swap1\n      sub\n      swap1\n      0x00\n      mstore\n      keccak256(0x00, 0x20)\n      add\n      0x00\n      swap1\n      swap2\n      swap1\n      swap2\n      swap1\n      swap2\n      pop\n      sstore\n        /* \"contracts/TaskManagement.sol\":8457:8467  msg.sender */\n      caller\n        /* \"contracts/TaskManagement.sol\":8442:8487  TaskReassigned(msg.sender, _newAssignee, _id) */\n      0xffffffffffffffffffffffffffffffffffffffff\n      and\n      0x0a836a77b7d869c0ecbc2d10f741a9cbdd750caf2459e4b97fac260346e14f32\n        /* \"contracts/TaskManagement.sol\":8469:8481  _newAssignee */\n      dup5\n        /* \"contracts/TaskManagement.sol\":8483:8486  _id */\n      dup7\n        /* \"contracts/TaskManagement.sol\":8442:8487  TaskReassigned(msg.sender, _newAssignee, _id) */\n      mload(0x40)\n      tag_305\n      swap3\n      swap2\n      swap1\n      tag_266\n      jump\t// in\n    tag_305:\n      mload(0x40)\n      dup1\n      swap2\n      sub\n      swap1\n      log2\n        /* \"contracts/TaskManagement.sol\":7532:8495  {... */\n      pop\n      pop\n        /* \"contracts/TaskManagement.sol\":7459:8495  function reassignTask(uint _id, address _newAssignee) onlyManager public {... */\n      pop\n      pop\n      jump\t// out\n        /* \"contracts/TaskManagement.sol\":3565:3987  function assignRole(address _user, string memory _role) onlyManager public {... */\n    tag_69:\n        /* \"contracts/TaskManagement.sol\":2046:2062  bytes(\"manager\") */\n      mload(0x40)\n      dup1\n      0x40\n      add\n      0x40\n      mstore\n      dup1\n      0x07\n      dup2\n      mstore\n      0x20\n      add\n      0x6d616e6167657200000000000000000000000000000000000000000000000000\n      dup2\n      mstore\n      pop\n        /* \"contracts/TaskManagement.sol\":2036:2063  keccak256(bytes(\"manager\")) */\n      dup1\n      mload\n      swap1\n      0x20\n      add\n      keccak256\n        /* \"contracts/TaskManagement.sol\":2013:2018  roles */\n      0x01\n        /* \"contracts/TaskManagement.sol\":2013:2030  roles[msg.sender] */\n      0x00\n        /* \"contracts/TaskManagement.sol\":2019:2029  msg.sender */\n      caller\n        /* \"contracts/TaskManagement.sol\":2013:2030  roles[msg.sender] */\n      0xffffffffffffffffffffffffffffffffffffffff\n      and\n      0xffffffffffffffffffffffffffffffffffffffff\n      and\n      dup2\n      mstore\n      0x20\n      add\n      swap1\n      dup2\n      mstore\n      0x20\n      add\n      0x00\n      keccak256\n        /* \"contracts/TaskManagement.sol\":1997:2032  keccak256(bytes(roles[msg.sender])) */\n      mload(0x40)\n      tag_307\n      swap2\n      swap1\n      tag_88\n      jump\t// in\n    tag_307:\n      mload(0x40)\n      dup1\n      swap2\n      sub\n      swap1\n      keccak256\n        /* \"contracts/TaskManagement.sol\":1997:2063  keccak256(bytes(roles[msg.sender])) == keccak256(bytes(\"manager\")) */\n      eq\n        /* \"contracts/TaskManagement.sol\":1989:2087  require(keccak256(bytes(roles[msg.sender])) == keccak256(bytes(\"manager\")), \"Unauthorized action\") */\n      tag_308\n      jumpi\n      mload(0x40)\n      0x08c379a000000000000000000000000000000000000000000000000000000000\n      dup2\n      mstore\n      0x04\n      add\n      tag_309\n      swap1\n      tag_91\n      jump\t// in\n    tag_309:\n      mload(0x40)\n      dup1\n      swap2\n      sub\n      swap1\n      revert\n    tag_308:\n        /* \"contracts/TaskManagement.sol\":3693:3694  0 */\n      0x00\n        /* \"contracts/TaskManagement.sol\":3659:3695  dids[msg.sender].owner != address(0) */\n      0xffffffffffffffffffffffffffffffffffffffff\n      and\n        /* \"contracts/TaskManagement.sol\":3659:3663  dids */\n      0x00\n        /* \"contracts/TaskManagement.sol\":3659:3675  dids[msg.sender] */\n      dup1\n        /* \"contracts/TaskManagement.sol\":3664:3674  msg.sender */\n      caller\n        /* \"contracts/TaskManagement.sol\":3659:3675  dids[msg.sender] */\n      0xffffffffffffffffffffffffffffffffffffffff\n      and\n      0xffffffffffffffffffffffffffffffffffffffff\n      and\n      dup2\n      mstore\n      0x20\n      add\n      swap1\n      dup2\n      mstore\n      0x20\n      add\n      0x00\n      keccak256\n        /* \"contracts/TaskManagement.sol\":3659:3681  dids[msg.sender].owner */\n      0x01\n      add\n      0x00\n      swap1\n      sload\n      swap1\n      0x0100\n      exp\n      swap1\n      div\n      0xffffffffffffffffffffffffffffffffffffffff\n      and\n        /* \"contracts/TaskManagement.sol\":3659:3695  dids[msg.sender].owner != address(0) */\n      0xffffffffffffffffffffffffffffffffffffffff\n      and\n      sub\n        /* \"contracts/TaskManagement.sol\":3651:3738  require(dids[msg.sender].owner != address(0), \"No existing DID found for this address\") */\n      tag_311\n      jumpi\n      mload(0x40)\n      0x08c379a000000000000000000000000000000000000000000000000000000000\n      dup2\n      mstore\n      0x04\n      add\n      tag_312\n      swap1\n      tag_95\n      jump\t// in\n    tag_312:\n      mload(0x40)\n      dup1\n      swap2\n      sub\n      swap1\n      revert\n    tag_311:\n        /* \"contracts/TaskManagement.sol\":3779:3780  0 */\n      0x00\n        /* \"contracts/TaskManagement.sol\":3763:3768  _role */\n      dup2\n        /* \"contracts/TaskManagement.sol\":3757:3776  bytes(_role).length */\n      mload\n        /* \"contracts/TaskManagement.sol\":3757:3780  bytes(_role).length > 0 */\n      gt\n        /* \"contracts/TaskManagement.sol\":3749:3805  require(bytes(_role).length > 0, \"Role cannot be empty\") */\n      tag_313\n      jumpi\n      mload(0x40)\n      0x08c379a000000000000000000000000000000000000000000000000000000000\n      dup2\n      mstore\n      0x04\n      add\n      tag_314\n      swap1\n      tag_98\n      jump\t// in\n    tag_314:\n      mload(0x40)\n      dup1\n      swap2\n      sub\n      swap1\n      revert\n    tag_313:\n        /* \"contracts/TaskManagement.sol\":3833:3838  _role */\n      dup1\n        /* \"contracts/TaskManagement.sol\":3818:3823  roles */\n      0x01\n        /* \"contracts/TaskManagement.sol\":3818:3830  roles[_user] */\n      0x00\n        /* \"contracts/TaskManagement.sol\":3824:3829  _user */\n      dup5\n        /* \"contracts/TaskManagement.sol\":3818:3830  roles[_user] */\n      0xffffffffffffffffffffffffffffffffffffffff\n      and\n      0xffffffffffffffffffffffffffffffffffffffff\n      and\n      dup2\n      mstore\n      0x20\n      add\n      swap1\n      dup2\n      mstore\n      0x20\n      add\n      0x00\n      keccak256\n        /* \"contracts/TaskManagement.sol\":3818:3838  roles[_user] = _role */\n      swap1\n      dup2\n      tag_315\n      swap2\n      swap1\n      tag_103\n      jump\t// in\n    tag_315:\n      pop\n        /* \"contracts/TaskManagement.sol\":3849:3860  roleHistory */\n      0x02\n        /* \"contracts/TaskManagement.sol\":3849:3867  roleHistory[_user] */\n      0x00\n        /* \"contracts/TaskManagement.sol\":3861:3866  _user */\n      dup4\n        /* \"contracts/TaskManagement.sol\":3849:3867  roleHistory[_user] */\n      0xffffffffffffffffffffffffffffffffffffffff\n      and\n      0xffffffffffffffffffffffffffffffffffffffff\n      and\n      dup2\n      mstore\n      0x20\n      add\n      swap1\n      dup2\n      mstore\n      0x20\n      add\n      0x00\n      keccak256\n        /* \"contracts/TaskManagement.sol\":3873:3878  _role */\n      dup2\n        /* \"contracts/TaskManagement.sol\":3849:3879  roleHistory[_user].push(_role) */\n      swap1\n      dup1\n      0x01\n      dup2\n      sload\n      add\n      dup1\n      dup3\n      sstore\n      dup1\n      swap2\n      pop\n      pop\n      0x01\n      swap1\n      sub\n      swap1\n      0x00\n      mstore\n      keccak256(0x00, 0x20)\n      add\n      0x00\n      swap1\n      swap2\n      swap1\n      swap2\n      swap1\n      swap2\n      pop\n      swap1\n      dup2\n      tag_317\n      swap2\n      swap1\n      tag_103\n      jump\t// in\n    tag_317:\n      pop\n        /* \"contracts/TaskManagement.sol\":3910:3915  _user */\n      dup2\n        /* \"contracts/TaskManagement.sol\":3897:3923  RoleAssigned(_user, _role) */\n      0xffffffffffffffffffffffffffffffffffffffff\n      and\n      0x3565795c2fb8842c21347d277937778bbcfe788b5b4f790fc5e408786cbe9c90\n        /* \"contracts/TaskManagement.sol\":3917:3922  _role */\n      dup3\n        /* \"contracts/TaskManagement.sol\":3897:3923  RoleAssigned(_user, _role) */\n      mload(0x40)\n      tag_318\n      swap2\n      swap1\n      tag_73\n      jump\t// in\n    tag_318:\n      mload(0x40)\n      dup1\n      swap2\n      sub\n      swap1\n      log2\n        /* \"contracts/TaskManagement.sol\":3565:3987  function assignRole(address _user, string memory _role) onlyManager public {... */\n      pop\n      pop\n      jump\t// out\n        /* \"contracts/TaskManagement.sol\":2591:2787  function getDID() public view returns (string memory) {... */\n    tag_71:\n        /* \"contracts/TaskManagement.sol\":2630:2643  string memory */\n      0x60\n        /* \"contracts/TaskManagement.sol\":2698:2699  0 */\n      0x00\n        /* \"contracts/TaskManagement.sol\":2664:2700  dids[msg.sender].owner != address(0) */\n      0xffffffffffffffffffffffffffffffffffffffff\n      and\n        /* \"contracts/TaskManagement.sol\":2664:2668  dids */\n      0x00\n        /* \"contracts/TaskManagement.sol\":2664:2680  dids[msg.sender] */\n      dup1\n        /* \"contracts/TaskManagement.sol\":2669:2679  msg.sender */\n      caller\n        /* \"contracts/TaskManagement.sol\":2664:2680  dids[msg.sender] */\n      0xffffffffffffffffffffffffffffffffffffffff\n      and\n      0xffffffffffffffffffffffffffffffffffffffff\n      and\n      dup2\n      mstore\n      0x20\n      add\n      swap1\n      dup2\n      mstore\n      0x20\n      add\n      0x00\n      keccak256\n        /* \"contracts/TaskManagement.sol\":2664:2686  dids[msg.sender].owner */\n      0x01\n      add\n      0x00\n      swap1\n      sload\n      swap1\n      0x0100\n      exp\n      swap1\n      div\n      0xffffffffffffffffffffffffffffffffffffffff\n      and\n        /* \"contracts/TaskManagement.sol\":2664:2700  dids[msg.sender].owner != address(0) */\n      0xffffffffffffffffffffffffffffffffffffffff\n      and\n      sub\n        /* \"contracts/TaskManagement.sol\":2656:2734  require(dids[msg.sender].owner != address(0), \"No DID found for this address\") */\n      tag_320\n      jumpi\n      mload(0x40)\n      0x08c379a000000000000000000000000000000000000000000000000000000000\n      dup2\n      mstore\n      0x04\n      add\n      tag_321\n      swap1\n      tag_322\n      jump\t// in\n    tag_321:\n      mload(0x40)\n      dup1\n      swap2\n      sub\n      swap1\n      revert\n    tag_320:\n        /* \"contracts/TaskManagement.sol\":2752:2756  dids */\n      0x00\n        /* \"contracts/TaskManagement.sol\":2752:2768  dids[msg.sender] */\n      dup1\n        /* \"contracts/TaskManagement.sol\":2757:2767  msg.sender */\n      caller\n        /* \"contracts/TaskManagement.sol\":2752:2768  dids[msg.sender] */\n      0xffffffffffffffffffffffffffffffffffffffff\n      and\n      0xffffffffffffffffffffffffffffffffffffffff\n      and\n      dup2\n      mstore\n      0x20\n      add\n      swap1\n      dup2\n      mstore\n      0x20\n      add\n      0x00\n      keccak256\n        /* \"contracts/TaskManagement.sol\":2752:2779  dids[msg.sender].identifier */\n      0x00\n      add\n        /* \"contracts/TaskManagement.sol\":2745:2779  return dids[msg.sender].identifier */\n      dup1\n      sload\n      tag_323\n      swap1\n      tag_130\n      jump\t// in\n    tag_323:\n      dup1\n      0x1f\n      add\n      0x20\n      dup1\n      swap2\n      div\n      mul\n      0x20\n      add\n      mload(0x40)\n      swap1\n      dup2\n      add\n      0x40\n      mstore\n      dup1\n      swap3\n      swap2\n      swap1\n      dup2\n      dup2\n      mstore\n      0x20\n      add\n      dup3\n      dup1\n      sload\n      tag_324\n      swap1\n      tag_130\n      jump\t// in\n    tag_324:\n      dup1\n      iszero\n      tag_325\n      jumpi\n      dup1\n      0x1f\n      lt\n      tag_326\n      jumpi\n      0x0100\n      dup1\n      dup4\n      sload\n      div\n      mul\n      dup4\n      mstore\n      swap2\n      0x20\n      add\n      swap2\n      jump(tag_325)\n    tag_326:\n      dup3\n      add\n      swap2\n      swap1\n      0x00\n      mstore\n      keccak256(0x00, 0x20)\n      swap1\n    tag_327:\n      dup2\n      sload\n      dup2\n      mstore\n      swap1\n      0x01\n      add\n      swap1\n      0x20\n      add\n      dup1\n      dup4\n      gt\n      tag_327\n      jumpi\n      dup3\n      swap1\n      sub\n      0x1f\n      and\n      dup3\n      add\n      swap2\n    tag_325:\n      pop\n      pop\n      pop\n      pop\n      pop\n      swap1\n      pop\n        /* \"contracts/TaskManagement.sol\":2591:2787  function getDID() public view returns (string memory) {... */\n      swap1\n      jump\t// out\n        /* \"contracts/TaskManagement.sol\":9996:10490  function completeTask(uint _id) public {... */\n    tag_76:\n        /* \"contracts/TaskManagement.sol\":10088:10089  0 */\n      0x00\n        /* \"contracts/TaskManagement.sol\":10054:10090  dids[msg.sender].owner != address(0) */\n      0xffffffffffffffffffffffffffffffffffffffff\n      and\n        /* \"contracts/TaskManagement.sol\":10054:10058  dids */\n      0x00\n        /* \"contracts/TaskManagement.sol\":10054:10070  dids[msg.sender] */\n      dup1\n        /* \"contracts/TaskManagement.sol\":10059:10069  msg.sender */\n      caller\n        /* \"contracts/TaskManagement.sol\":10054:10070  dids[msg.sender] */\n      0xffffffffffffffffffffffffffffffffffffffff\n      and\n      0xffffffffffffffffffffffffffffffffffffffff\n      and\n      dup2\n      mstore\n      0x20\n      add\n      swap1\n      dup2\n      mstore\n      0x20\n      add\n      0x00\n      keccak256\n        /* \"contracts/TaskManagement.sol\":10054:10076  dids[msg.sender].owner */\n      0x01\n      add\n      0x00\n      swap1\n      sload\n      swap1\n      0x0100\n      exp\n      swap1\n      div\n      0xffffffffffffffffffffffffffffffffffffffff\n      and\n        /* \"contracts/TaskManagement.sol\":10054:10090  dids[msg.sender].owner != address(0) */\n      0xffffffffffffffffffffffffffffffffffffffff\n      and\n      sub\n        /* \"contracts/TaskManagement.sol\":10046:10133  require(dids[msg.sender].owner != address(0), \"No existing DID found for this address\") */\n      tag_329\n      jumpi\n      mload(0x40)\n      0x08c379a000000000000000000000000000000000000000000000000000000000\n      dup2\n      mstore\n      0x04\n      add\n      tag_330\n      swap1\n      tag_95\n      jump\t// in\n    tag_330:\n      mload(0x40)\n      dup1\n      swap2\n      sub\n      swap1\n      revert\n    tag_329:\n        /* \"contracts/TaskManagement.sol\":10166:10171  tasks */\n      0x05\n        /* \"contracts/TaskManagement.sol\":10166:10176  tasks[_id] */\n      0x00\n        /* \"contracts/TaskManagement.sol\":10172:10175  _id */\n      dup3\n        /* \"contracts/TaskManagement.sol\":10166:10176  tasks[_id] */\n      dup2\n      mstore\n      0x20\n      add\n      swap1\n      dup2\n      mstore\n      0x20\n      add\n      0x00\n      keccak256\n        /* \"contracts/TaskManagement.sol\":10166:10187  tasks[_id].assignedTo */\n      0x05\n      add\n      0x00\n      swap1\n      sload\n      swap1\n      0x0100\n      exp\n      swap1\n      div\n      0xffffffffffffffffffffffffffffffffffffffff\n      and\n        /* \"contracts/TaskManagement.sol\":10152:10187  msg.sender == tasks[_id].assignedTo */\n      0xffffffffffffffffffffffffffffffffffffffff\n      and\n        /* \"contracts/TaskManagement.sol\":10152:10162  msg.sender */\n      caller\n        /* \"contracts/TaskManagement.sol\":10152:10187  msg.sender == tasks[_id].assignedTo */\n      0xffffffffffffffffffffffffffffffffffffffff\n      and\n      eq\n        /* \"contracts/TaskManagement.sol\":10144:10206  require(msg.sender == tasks[_id].assignedTo, \"Not authorized\") */\n      tag_331\n      jumpi\n      mload(0x40)\n      0x08c379a000000000000000000000000000000000000000000000000000000000\n      dup2\n      mstore\n      0x04\n      add\n      tag_332\n      swap1\n      tag_184\n      jump\t// in\n    tag_332:\n      mload(0x40)\n      dup1\n      swap2\n      sub\n      swap1\n      revert\n    tag_331:\n        /* \"contracts/TaskManagement.sol\":10226:10231  tasks */\n      0x05\n        /* \"contracts/TaskManagement.sol\":10226:10236  tasks[_id] */\n      0x00\n        /* \"contracts/TaskManagement.sol\":10232:10235  _id */\n      dup3\n        /* \"contracts/TaskManagement.sol\":10226:10236  tasks[_id] */\n      dup2\n      mstore\n      0x20\n      add\n      swap1\n      dup2\n      mstore\n      0x20\n      add\n      0x00\n      keccak256\n        /* \"contracts/TaskManagement.sol\":10226:10248  tasks[_id].isCompleted */\n      0x05\n      add\n      0x14\n      swap1\n      sload\n      swap1\n      0x0100\n      exp\n      swap1\n      div\n      0xff\n      and\n        /* \"contracts/TaskManagement.sol\":10225:10248  !tasks[_id].isCompleted */\n      iszero\n        /* \"contracts/TaskManagement.sol\":10217:10275  require(!tasks[_id].isCompleted, \"Task already completed\") */\n      tag_333\n      jumpi\n      mload(0x40)\n      0x08c379a000000000000000000000000000000000000000000000000000000000\n      dup2\n      mstore\n      0x04\n      add\n      tag_334\n      swap1\n      tag_335\n      jump\t// in\n    tag_334:\n      mload(0x40)\n      dup1\n      swap2\n      sub\n      swap1\n      revert\n    tag_333:\n        /* \"contracts/TaskManagement.sol\":10368:10372  true */\n      0x01\n        /* \"contracts/TaskManagement.sol\":10343:10348  tasks */\n      0x05\n        /* \"contracts/TaskManagement.sol\":10343:10353  tasks[_id] */\n      0x00\n        /* \"contracts/TaskManagement.sol\":10349:10352  _id */\n      dup4\n        /* \"contracts/TaskManagement.sol\":10343:10353  tasks[_id] */\n      dup2\n      mstore\n      0x20\n      add\n      swap1\n      dup2\n      mstore\n      0x20\n      add\n      0x00\n      keccak256\n        /* \"contracts/TaskManagement.sol\":10343:10365  tasks[_id].isCompleted */\n      0x05\n      add\n      0x14\n        /* \"contracts/TaskManagement.sol\":10343:10372  tasks[_id].isCompleted = true */\n      0x0100\n      exp\n      dup2\n      sload\n      dup2\n      0xff\n      mul\n      not\n      and\n      swap1\n      dup4\n      iszero\n      iszero\n      mul\n      or\n      swap1\n      sstore\n      pop\n        /* \"contracts/TaskManagement.sol\":10408:10423  block.timestamp */\n      timestamp\n        /* \"contracts/TaskManagement.sol\":10383:10388  tasks */\n      0x05\n        /* \"contracts/TaskManagement.sol\":10383:10393  tasks[_id] */\n      0x00\n        /* \"contracts/TaskManagement.sol\":10389:10392  _id */\n      dup4\n        /* \"contracts/TaskManagement.sol\":10383:10393  tasks[_id] */\n      dup2\n      mstore\n      0x20\n      add\n      swap1\n      dup2\n      mstore\n      0x20\n      add\n      0x00\n      keccak256\n        /* \"contracts/TaskManagement.sol\":10383:10405  tasks[_id].completedAt */\n      0x06\n      add\n        /* \"contracts/TaskManagement.sol\":10383:10423  tasks[_id].completedAt = block.timestamp */\n      dup2\n      swap1\n      sstore\n      pop\n        /* \"contracts/TaskManagement.sol\":10455:10460  tasks */\n      0x05\n        /* \"contracts/TaskManagement.sol\":10455:10465  tasks[_id] */\n      0x00\n        /* \"contracts/TaskManagement.sol\":10461:10464  _id */\n      dup3\n        /* \"contracts/TaskManagement.sol\":10455:10465  tasks[_id] */\n      dup2\n      mstore\n      0x20\n      add\n      swap1\n      dup2\n      mstore\n      0x20\n      add\n      0x00\n      keccak256\n        /* \"contracts/TaskManagement.sol\":10455:10476  tasks[_id].assignedTo */\n      0x05\n      add\n      0x00\n      swap1\n      sload\n      swap1\n      0x0100\n      exp\n      swap1\n      div\n      0xffffffffffffffffffffffffffffffffffffffff\n      and\n        /* \"contracts/TaskManagement.sol\":10441:10482  TaskCompleted(tasks[_id].assignedTo, _id) */\n      0xffffffffffffffffffffffffffffffffffffffff\n      and\n      0xf684d89bb0f42287bf32838774e4b7f8a60c11804b3c6d1791fa55f306792643\n        /* \"contracts/TaskManagement.sol\":10478:10481  _id */\n      dup3\n        /* \"contracts/TaskManagement.sol\":10441:10482  TaskCompleted(tasks[_id].assignedTo, _id) */\n      mload(0x40)\n      tag_336\n      swap2\n      swap1\n      tag_337\n      jump\t// in\n    tag_336:\n      mload(0x40)\n      dup1\n      swap2\n      sub\n      swap1\n      log2\n        /* \"contracts/TaskManagement.sol\":9996:10490  function completeTask(uint _id) public {... */\n      pop\n      jump\t// out\n        /* \"contracts/TaskManagement.sol\":5662:6472  function verifyRole(address _user, address _issuer, string memory _role) public returns (bool) {... */\n    tag_80:\n        /* \"contracts/TaskManagement.sol\":5751:5755  bool */\n      0x00\n        /* \"contracts/TaskManagement.sol\":5805:5806  0 */\n      dup1\n        /* \"contracts/TaskManagement.sol\":5776:5807  dids[_user].owner != address(0) */\n      0xffffffffffffffffffffffffffffffffffffffff\n      and\n        /* \"contracts/TaskManagement.sol\":5776:5780  dids */\n      0x00\n        /* \"contracts/TaskManagement.sol\":5776:5787  dids[_user] */\n      dup1\n        /* \"contracts/TaskManagement.sol\":5781:5786  _user */\n      dup7\n        /* \"contracts/TaskManagement.sol\":5776:5787  dids[_user] */\n      0xffffffffffffffffffffffffffffffffffffffff\n      and\n      0xffffffffffffffffffffffffffffffffffffffff\n      and\n      dup2\n      mstore\n      0x20\n      add\n      swap1\n      dup2\n      mstore\n      0x20\n      add\n      0x00\n      keccak256\n        /* \"contracts/TaskManagement.sol\":5776:5793  dids[_user].owner */\n      0x01\n      add\n      0x00\n      swap1\n      sload\n      swap1\n      0x0100\n      exp\n      swap1\n      div\n      0xffffffffffffffffffffffffffffffffffffffff\n      and\n        /* \"contracts/TaskManagement.sol\":5776:5807  dids[_user].owner != address(0) */\n      0xffffffffffffffffffffffffffffffffffffffff\n      and\n      sub\n        /* \"contracts/TaskManagement.sol\":5768:5847  require(dids[_user].owner != address(0), \"No existing DID found for this user\") */\n      tag_339\n      jumpi\n      mload(0x40)\n      0x08c379a000000000000000000000000000000000000000000000000000000000\n      dup2\n      mstore\n      0x04\n      add\n      tag_340\n      swap1\n      tag_341\n      jump\t// in\n    tag_340:\n      mload(0x40)\n      dup1\n      swap2\n      sub\n      swap1\n      revert\n    tag_339:\n        /* \"contracts/TaskManagement.sol\":5894:5895  0 */\n      0x00\n        /* \"contracts/TaskManagement.sol\":5866:5877  credentials */\n      0x03\n        /* \"contracts/TaskManagement.sol\":5866:5884  credentials[_user] */\n      0x00\n        /* \"contracts/TaskManagement.sol\":5878:5883  _user */\n      dup7\n        /* \"contracts/TaskManagement.sol\":5866:5884  credentials[_user] */\n      0xffffffffffffffffffffffffffffffffffffffff\n      and\n      0xffffffffffffffffffffffffffffffffffffffff\n      and\n      dup2\n      mstore\n      0x20\n      add\n      swap1\n      dup2\n      mstore\n      0x20\n      add\n      0x00\n      keccak256\n        /* \"contracts/TaskManagement.sol\":5866:5891  credentials[_user].length */\n      dup1\n      sload\n      swap1\n      pop\n        /* \"contracts/TaskManagement.sol\":5866:5895  credentials[_user].length > 0 */\n      gt\n        /* \"contracts/TaskManagement.sol\":5858:5933  require(credentials[_user].length > 0, \"User does not have any credential\") */\n      tag_342\n      jumpi\n      mload(0x40)\n      0x08c379a000000000000000000000000000000000000000000000000000000000\n      dup2\n      mstore\n      0x04\n      add\n      tag_343\n      swap1\n      tag_344\n      jump\t// in\n    tag_343:\n      mload(0x40)\n      dup1\n      swap2\n      sub\n      swap1\n      revert\n    tag_342:\n        /* \"contracts/TaskManagement.sol\":5986:6020  Credential memory latestCredential */\n      0x00\n        /* \"contracts/TaskManagement.sol\":6023:6034  credentials */\n      0x03\n        /* \"contracts/TaskManagement.sol\":6023:6041  credentials[_user] */\n      0x00\n        /* \"contracts/TaskManagement.sol\":6035:6040  _user */\n      dup7\n        /* \"contracts/TaskManagement.sol\":6023:6041  credentials[_user] */\n      0xffffffffffffffffffffffffffffffffffffffff\n      and\n      0xffffffffffffffffffffffffffffffffffffffff\n      and\n      dup2\n      mstore\n      0x20\n      add\n      swap1\n      dup2\n      mstore\n      0x20\n      add\n      0x00\n      keccak256\n        /* \"contracts/TaskManagement.sol\":6070:6071  1 */\n      0x01\n        /* \"contracts/TaskManagement.sol\":6042:6053  credentials */\n      0x03\n        /* \"contracts/TaskManagement.sol\":6042:6060  credentials[_user] */\n      0x00\n        /* \"contracts/TaskManagement.sol\":6054:6059  _user */\n      dup9\n        /* \"contracts/TaskManagement.sol\":6042:6060  credentials[_user] */\n      0xffffffffffffffffffffffffffffffffffffffff\n      and\n      0xffffffffffffffffffffffffffffffffffffffff\n      and\n      dup2\n      mstore\n      0x20\n      add\n      swap1\n      dup2\n      mstore\n      0x20\n      add\n      0x00\n      keccak256\n        /* \"contracts/TaskManagement.sol\":6042:6067  credentials[_user].length */\n      dup1\n      sload\n      swap1\n      pop\n        /* \"contracts/TaskManagement.sol\":6042:6071  credentials[_user].length - 1 */\n      tag_345\n      swap2\n      swap1\n      tag_293\n      jump\t// in\n    tag_345:\n        /* \"contracts/TaskManagement.sol\":6023:6072  credentials[_user][credentials[_user].length - 1] */\n      dup2\n      sload\n      dup2\n      lt\n      tag_346\n      jumpi\n      tag_347\n      tag_147\n      jump\t// in\n    tag_347:\n    tag_346:\n      swap1\n      0x00\n      mstore\n      keccak256(0x00, 0x20)\n      swap1\n      0x04\n      mul\n      add\n        /* \"contracts/TaskManagement.sol\":5986:6072  Credential memory latestCredential = credentials[_user][credentials[_user].length - 1] */\n      mload(0x40)\n      dup1\n      0x80\n      add\n      0x40\n      mstore\n      swap1\n      dup2\n      0x00\n      dup3\n      add\n      0x00\n      swap1\n      sload\n      swap1\n      0x0100\n      exp\n      swap1\n      div\n      0xffffffffffffffffffffffffffffffffffffffff\n      and\n      0xffffffffffffffffffffffffffffffffffffffff\n      and\n      0xffffffffffffffffffffffffffffffffffffffff\n      and\n      dup2\n      mstore\n      0x20\n      add\n      0x01\n      dup3\n      add\n      dup1\n      sload\n      tag_349\n      swap1\n      tag_130\n      jump\t// in\n    tag_349:\n      dup1\n      0x1f\n      add\n      0x20\n      dup1\n      swap2\n      div\n      mul\n      0x20\n      add\n      mload(0x40)\n      swap1\n      dup2\n      add\n      0x40\n      mstore\n      dup1\n      swap3\n      swap2\n      swap1\n      dup2\n      dup2\n      mstore\n      0x20\n      add\n      dup3\n      dup1\n      sload\n      tag_350\n      swap1\n      tag_130\n      jump\t// in\n    tag_350:\n      dup1\n      iszero\n      tag_351\n      jumpi\n      dup1\n      0x1f\n      lt\n      tag_352\n      jumpi\n      0x0100\n      dup1\n      dup4\n      sload\n      div\n      mul\n      dup4\n      mstore\n      swap2\n      0x20\n      add\n      swap2\n      jump(tag_351)\n    tag_352:\n      dup3\n      add\n      swap2\n      swap1\n      0x00\n      mstore\n      keccak256(0x00, 0x20)\n      swap1\n    tag_353:\n      dup2\n      sload\n      dup2\n      mstore\n      swap1\n      0x01\n      add\n      swap1\n      0x20\n      add\n      dup1\n      dup4\n      gt\n      tag_353\n      jumpi\n      dup3\n      swap1\n      sub\n      0x1f\n      and\n      dup3\n      add\n      swap2\n    tag_351:\n      pop\n      pop\n      pop\n      pop\n      pop\n      dup2\n      mstore\n      0x20\n      add\n      0x02\n      dup3\n      add\n      sload\n      dup2\n      mstore\n      0x20\n      add\n      0x03\n      dup3\n      add\n      sload\n      dup2\n      mstore\n      pop\n      pop\n      swap1\n      pop\n        /* \"contracts/TaskManagement.sol\":6134:6156  bytes32 storedRoleHash */\n      0x00\n        /* \"contracts/TaskManagement.sol\":6159:6175  latestCredential */\n      dup2\n        /* \"contracts/TaskManagement.sol\":6159:6184  latestCredential.roleHash */\n      0x40\n      add\n      mload\n        /* \"contracts/TaskManagement.sol\":6134:6184  bytes32 storedRoleHash = latestCredential.roleHash */\n      swap1\n      pop\n        /* \"contracts/TaskManagement.sol\":6240:6256  bytes32 roleHash */\n      0x00\n        /* \"contracts/TaskManagement.sol\":6286:6293  _issuer */\n      dup6\n        /* \"contracts/TaskManagement.sol\":6295:6300  _user */\n      dup8\n        /* \"contracts/TaskManagement.sol\":6302:6307  _role */\n      dup7\n        /* \"contracts/TaskManagement.sol\":6309:6325  latestCredential */\n      dup6\n        /* \"contracts/TaskManagement.sol\":6309:6333  latestCredential.issueAt */\n      0x60\n      add\n      mload\n        /* \"contracts/TaskManagement.sol\":6269:6334  abi.encodePacked(_issuer, _user, _role, latestCredential.issueAt) */\n      add(0x20, mload(0x40))\n      tag_354\n      swap5\n      swap4\n      swap3\n      swap2\n      swap1\n      tag_100\n      jump\t// in\n    tag_354:\n      mload(0x40)\n      0x20\n      dup2\n      dup4\n      sub\n      sub\n      dup2\n      mstore\n      swap1\n      0x40\n      mstore\n        /* \"contracts/TaskManagement.sol\":6259:6335  keccak256(abi.encodePacked(_issuer, _user, _role, latestCredential.issueAt)) */\n      dup1\n      mload\n      swap1\n      0x20\n      add\n      keccak256\n        /* \"contracts/TaskManagement.sol\":6240:6335  bytes32 roleHash = keccak256(abi.encodePacked(_issuer, _user, _role, latestCredential.issueAt)) */\n      swap1\n      pop\n        /* \"contracts/TaskManagement.sol\":6348:6359  bool status */\n      0x00\n        /* \"contracts/TaskManagement.sol\":6380:6388  roleHash */\n      dup2\n        /* \"contracts/TaskManagement.sol\":6362:6376  storedRoleHash */\n      dup4\n        /* \"contracts/TaskManagement.sol\":6362:6388  storedRoleHash == roleHash */\n      eq\n        /* \"contracts/TaskManagement.sol\":6348:6388  bool status = storedRoleHash == roleHash */\n      swap1\n      pop\n        /* \"contracts/TaskManagement.sol\":6417:6424  _issuer */\n      dup7\n        /* \"contracts/TaskManagement.sol\":6404:6440  RoleVerified(_issuer, _role, status) */\n      0xffffffffffffffffffffffffffffffffffffffff\n      and\n      0x743119e0f5c3443022e2e080183ceafc4ccb88f4c29fc6dbdab02412b9935908\n        /* \"contracts/TaskManagement.sol\":6426:6431  _role */\n      dup8\n        /* \"contracts/TaskManagement.sol\":6433:6439  status */\n      dup4\n        /* \"contracts/TaskManagement.sol\":6404:6440  RoleVerified(_issuer, _role, status) */\n      mload(0x40)\n      tag_355\n      swap3\n      swap2\n      swap1\n      tag_356\n      jump\t// in\n    tag_355:\n      mload(0x40)\n      dup1\n      swap2\n      sub\n      swap1\n      log2\n        /* \"contracts/TaskManagement.sol\":6458:6464  status */\n      dup1\n        /* \"contracts/TaskManagement.sol\":6451:6464  return status */\n      swap5\n      pop\n      pop\n      pop\n      pop\n      pop\n        /* \"contracts/TaskManagement.sol\":5662:6472  function verifyRole(address _user, address _issuer, string memory _role) public returns (bool) {... */\n      swap4\n      swap3\n      pop\n      pop\n      pop\n      jump\t// out\n        /* \"contracts/TaskManagement.sol\":5148:5629  function getRole() public view returns (string[] memory) {... */\n    tag_83:\n        /* \"contracts/TaskManagement.sol\":5188:5203  string[] memory */\n      0x60\n        /* \"contracts/TaskManagement.sol\":5258:5259  0 */\n      0x00\n        /* \"contracts/TaskManagement.sol\":5224:5260  dids[msg.sender].owner != address(0) */\n      0xffffffffffffffffffffffffffffffffffffffff\n      and\n        /* \"contracts/TaskManagement.sol\":5224:5228  dids */\n      0x00\n        /* \"contracts/TaskManagement.sol\":5224:5240  dids[msg.sender] */\n      dup1\n        /* \"contracts/TaskManagement.sol\":5229:5239  msg.sender */\n      caller\n        /* \"contracts/TaskManagement.sol\":5224:5240  dids[msg.sender] */\n      0xffffffffffffffffffffffffffffffffffffffff\n      and\n      0xffffffffffffffffffffffffffffffffffffffff\n      and\n      dup2\n      mstore\n      0x20\n      add\n      swap1\n      dup2\n      mstore\n      0x20\n      add\n      0x00\n      keccak256\n        /* \"contracts/TaskManagement.sol\":5224:5246  dids[msg.sender].owner */\n      0x01\n      add\n      0x00\n      swap1\n      sload\n      swap1\n      0x0100\n      exp\n      swap1\n      div\n      0xffffffffffffffffffffffffffffffffffffffff\n      and\n        /* \"contracts/TaskManagement.sol\":5224:5260  dids[msg.sender].owner != address(0) */\n      0xffffffffffffffffffffffffffffffffffffffff\n      and\n      sub\n        /* \"contracts/TaskManagement.sol\":5216:5303  require(dids[msg.sender].owner != address(0), \"No existing DID found for this address\") */\n      tag_358\n      jumpi\n      mload(0x40)\n      0x08c379a000000000000000000000000000000000000000000000000000000000\n      dup2\n      mstore\n      0x04\n      add\n      tag_359\n      swap1\n      tag_95\n      jump\t// in\n    tag_359:\n      mload(0x40)\n      dup1\n      swap2\n      sub\n      swap1\n      revert\n    tag_358:\n        /* \"contracts/TaskManagement.sol\":5349:5374  string[] memory userRoles */\n      0x00\n        /* \"contracts/TaskManagement.sol\":5377:5388  roleHistory */\n      0x02\n        /* \"contracts/TaskManagement.sol\":5377:5400  roleHistory[msg.sender] */\n      0x00\n        /* \"contracts/TaskManagement.sol\":5389:5399  msg.sender */\n      caller\n        /* \"contracts/TaskManagement.sol\":5377:5400  roleHistory[msg.sender] */\n      0xffffffffffffffffffffffffffffffffffffffff\n      and\n      0xffffffffffffffffffffffffffffffffffffffff\n      and\n      dup2\n      mstore\n      0x20\n      add\n      swap1\n      dup2\n      mstore\n      0x20\n      add\n      0x00\n      keccak256\n        /* \"contracts/TaskManagement.sol\":5349:5400  string[] memory userRoles = roleHistory[msg.sender] */\n      dup1\n      sload\n      dup1\n      0x20\n      mul\n      0x20\n      add\n      mload(0x40)\n      swap1\n      dup2\n      add\n      0x40\n      mstore\n      dup1\n      swap3\n      swap2\n      swap1\n      dup2\n      dup2\n      mstore\n      0x20\n      add\n      0x00\n      swap1\n    tag_360:\n      dup3\n      dup3\n      lt\n      iszero\n      tag_361\n      jumpi\n      dup4\n      dup3\n      swap1\n      0x00\n      mstore\n      keccak256(0x00, 0x20)\n      add\n      dup1\n      sload\n      tag_363\n      swap1\n      tag_130\n      jump\t// in\n    tag_363:\n      dup1\n      0x1f\n      add\n      0x20\n      dup1\n      swap2\n      div\n      mul\n      0x20\n      add\n      mload(0x40)\n      swap1\n      dup2\n      add\n      0x40\n      mstore\n      dup1\n      swap3\n      swap2\n      swap1\n      dup2\n      dup2\n      mstore\n      0x20\n      add\n      dup3\n      dup1\n      sload\n      tag_364\n      swap1\n      tag_130\n      jump\t// in\n    tag_364:\n      dup1\n      iszero\n      tag_365\n      jumpi\n      dup1\n      0x1f\n      lt\n      tag_366\n      jumpi\n      0x0100\n      dup1\n      dup4\n      sload\n      div\n      mul\n      dup4\n      mstore\n      swap2\n      0x20\n      add\n      swap2\n      jump(tag_365)\n    tag_366:\n      dup3\n      add\n      swap2\n      swap1\n      0x00\n      mstore\n      keccak256(0x00, 0x20)\n      swap1\n    tag_367:\n      dup2\n      sload\n      dup2\n      mstore\n      swap1\n      0x01\n      add\n      swap1\n      0x20\n      add\n      dup1\n      dup4\n      gt\n      tag_367\n      jumpi\n      dup3\n      swap1\n      sub\n      0x1f\n      and\n      dup3\n      add\n      swap2\n    tag_365:\n      pop\n      pop\n      pop\n      pop\n      pop\n      dup2\n      mstore\n      0x20\n      add\n      swap1\n      0x01\n      add\n      swap1\n      jump(tag_360)\n    tag_361:\n      pop\n      pop\n      pop\n      pop\n      swap1\n      pop\n        /* \"contracts/TaskManagement.sol\":5502:5503  0 */\n      0x00\n        /* \"contracts/TaskManagement.sol\":5483:5492  userRoles */\n      dup2\n        /* \"contracts/TaskManagement.sol\":5483:5499  userRoles.length */\n      mload\n        /* \"contracts/TaskManagement.sol\":5483:5503  userRoles.length > 0 */\n      gt\n        /* \"contracts/TaskManagement.sol\":5475:5539  require(userRoles.length > 0, \"No roles assigned for this user\") */\n      tag_368\n      jumpi\n      mload(0x40)\n      0x08c379a000000000000000000000000000000000000000000000000000000000\n      dup2\n      mstore\n      0x04\n      add\n      tag_369\n      swap1\n      tag_370\n      jump\t// in\n    tag_369:\n      mload(0x40)\n      dup1\n      swap2\n      sub\n      swap1\n      revert\n    tag_368:\n        /* \"contracts/TaskManagement.sol\":5612:5621  userRoles */\n      dup1\n        /* \"contracts/TaskManagement.sol\":5605:5621  return userRoles */\n      swap2\n      pop\n      pop\n        /* \"contracts/TaskManagement.sol\":5148:5629  function getRole() public view returns (string[] memory) {... */\n      swap1\n      jump\t// out\n    tag_125:\n      mload(0x40)\n      dup1\n      0x0100\n      add\n      0x40\n      mstore\n      dup1\n      0x00\n      dup2\n      mstore\n      0x20\n      add\n      0x60\n      dup2\n      mstore\n      0x20\n      add\n      0x60\n      dup2\n      mstore\n      0x20\n      add\n      0x00\n      0x02\n      dup2\n      gt\n      iszero\n      tag_371\n      jumpi\n      tag_372\n      tag_142\n      jump\t// in\n    tag_372:\n    tag_371:\n      dup2\n      mstore\n      0x20\n      add\n      0x00\n      dup2\n      mstore\n      0x20\n      add\n      and(0xffffffffffffffffffffffffffffffffffffffff, 0x00)\n      dup2\n      mstore\n      0x20\n      add\n      iszero(iszero(0x00))\n      dup2\n      mstore\n      0x20\n      add\n      0x00\n      dup2\n      mstore\n      pop\n      swap1\n      jump\t// out\n        /* \"#utility.yul\":7:82   */\n    tag_373:\n        /* \"#utility.yul\":40:46   */\n      0x00\n        /* \"#utility.yul\":73:75   */\n      0x40\n        /* \"#utility.yul\":67:76   */\n      mload\n        /* \"#utility.yul\":57:76   */\n      swap1\n      pop\n        /* \"#utility.yul\":7:82   */\n      swap1\n      jump\t// out\n        /* \"#utility.yul\":88:205   */\n    tag_374:\n        /* \"#utility.yul\":197:198   */\n      0x00\n        /* \"#utility.yul\":194:195   */\n      dup1\n        /* \"#utility.yul\":187:199   */\n      revert\n        /* \"#utility.yul\":211:328   */\n    tag_375:\n        /* \"#utility.yul\":320:321   */\n      0x00\n        /* \"#utility.yul\":317:318   */\n      dup1\n        /* \"#utility.yul\":310:322   */\n      revert\n        /* \"#utility.yul\":334:460   */\n    tag_376:\n        /* \"#utility.yul\":371:378   */\n      0x00\n        /* \"#utility.yul\":411:453   */\n      0xffffffffffffffffffffffffffffffffffffffff\n        /* \"#utility.yul\":404:409   */\n      dup3\n        /* \"#utility.yul\":400:454   */\n      and\n        /* \"#utility.yul\":389:454   */\n      swap1\n      pop\n        /* \"#utility.yul\":334:460   */\n      swap2\n      swap1\n      pop\n      jump\t// out\n        /* \"#utility.yul\":466:562   */\n    tag_377:\n        /* \"#utility.yul\":503:510   */\n      0x00\n        /* \"#utility.yul\":532:556   */\n      tag_501\n        /* \"#utility.yul\":550:555   */\n      dup3\n        /* \"#utility.yul\":532:556   */\n      tag_376\n      jump\t// in\n    tag_501:\n        /* \"#utility.yul\":521:556   */\n      swap1\n      pop\n        /* \"#utility.yul\":466:562   */\n      swap2\n      swap1\n      pop\n      jump\t// out\n        /* \"#utility.yul\":568:690   */\n    tag_378:\n        /* \"#utility.yul\":641:665   */\n      tag_503\n        /* \"#utility.yul\":659:664   */\n      dup2\n        /* \"#utility.yul\":641:665   */\n      tag_377\n      jump\t// in\n    tag_503:\n        /* \"#utility.yul\":634:639   */\n      dup2\n        /* \"#utility.yul\":631:666   */\n      eq\n        /* \"#utility.yul\":621:684   */\n      tag_504\n      jumpi\n        /* \"#utility.yul\":680:681   */\n      0x00\n        /* \"#utility.yul\":677:678   */\n      dup1\n        /* \"#utility.yul\":670:682   */\n      revert\n        /* \"#utility.yul\":621:684   */\n    tag_504:\n        /* \"#utility.yul\":568:690   */\n      pop\n      jump\t// out\n        /* \"#utility.yul\":696:835   */\n    tag_379:\n        /* \"#utility.yul\":742:747   */\n      0x00\n        /* \"#utility.yul\":780:786   */\n      dup2\n        /* \"#utility.yul\":767:787   */\n      calldataload\n        /* \"#utility.yul\":758:787   */\n      swap1\n      pop\n        /* \"#utility.yul\":796:829   */\n      tag_506\n        /* \"#utility.yul\":823:828   */\n      dup2\n        /* \"#utility.yul\":796:829   */\n      tag_378\n      jump\t// in\n    tag_506:\n        /* \"#utility.yul\":696:835   */\n      swap3\n      swap2\n      pop\n      pop\n      jump\t// out\n        /* \"#utility.yul\":841:958   */\n    tag_380:\n        /* \"#utility.yul\":950:951   */\n      0x00\n        /* \"#utility.yul\":947:948   */\n      dup1\n        /* \"#utility.yul\":940:952   */\n      revert\n        /* \"#utility.yul\":964:1081   */\n    tag_381:\n        /* \"#utility.yul\":1073:1074   */\n      0x00\n        /* \"#utility.yul\":1070:1071   */\n      dup1\n        /* \"#utility.yul\":1063:1075   */\n      revert\n        /* \"#utility.yul\":1087:1189   */\n    tag_382:\n        /* \"#utility.yul\":1128:1134   */\n      0x00\n        /* \"#utility.yul\":1179:1181   */\n      0x1f\n        /* \"#utility.yul\":1175:1182   */\n      not\n        /* \"#utility.yul\":1170:1172   */\n      0x1f\n        /* \"#utility.yul\":1163:1168   */\n      dup4\n        /* \"#utility.yul\":1159:1173   */\n      add\n        /* \"#utility.yul\":1155:1183   */\n      and\n        /* \"#utility.yul\":1145:1183   */\n      swap1\n      pop\n        /* \"#utility.yul\":1087:1189   */\n      swap2\n      swap1\n      pop\n      jump\t// out\n        /* \"#utility.yul\":1195:1375   */\n    tag_121:\n        /* \"#utility.yul\":1243:1320   */\n      0x4e487b7100000000000000000000000000000000000000000000000000000000\n        /* \"#utility.yul\":1240:1241   */\n      0x00\n        /* \"#utility.yul\":1233:1321   */\n      mstore\n        /* \"#utility.yul\":1340:1344   */\n      0x41\n        /* \"#utility.yul\":1337:1338   */\n      0x04\n        /* \"#utility.yul\":1330:1345   */\n      mstore\n        /* \"#utility.yul\":1364:1368   */\n      0x24\n        /* \"#utility.yul\":1361:1362   */\n      0x00\n        /* \"#utility.yul\":1354:1369   */\n      revert\n        /* \"#utility.yul\":1381:1662   */\n    tag_383:\n        /* \"#utility.yul\":1464:1491   */\n      tag_512\n        /* \"#utility.yul\":1486:1490   */\n      dup3\n        /* \"#utility.yul\":1464:1491   */\n      tag_382\n      jump\t// in\n    tag_512:\n        /* \"#utility.yul\":1456:1462   */\n      dup2\n        /* \"#utility.yul\":1452:1492   */\n      add\n        /* \"#utility.yul\":1594:1600   */\n      dup2\n        /* \"#utility.yul\":1582:1592   */\n      dup2\n        /* \"#utility.yul\":1579:1601   */\n      lt\n        /* \"#utility.yul\":1558:1576   */\n      0xffffffffffffffff\n        /* \"#utility.yul\":1546:1556   */\n      dup3\n        /* \"#utility.yul\":1543:1577   */\n      gt\n        /* \"#utility.yul\":1540:1602   */\n      or\n        /* \"#utility.yul\":1537:1625   */\n      iszero\n      tag_513\n      jumpi\n        /* \"#utility.yul\":1605:1623   */\n      tag_514\n      tag_121\n      jump\t// in\n    tag_514:\n        /* \"#utility.yul\":1537:1625   */\n    tag_513:\n        /* \"#utility.yul\":1645:1655   */\n      dup1\n        /* \"#utility.yul\":1641:1643   */\n      0x40\n        /* \"#utility.yul\":1634:1656   */\n      mstore\n        /* \"#utility.yul\":1424:1662   */\n      pop\n        /* \"#utility.yul\":1381:1662   */\n      pop\n      pop\n      jump\t// out\n        /* \"#utility.yul\":1668:1797   */\n    tag_384:\n        /* \"#utility.yul\":1702:1708   */\n      0x00\n        /* \"#utility.yul\":1729:1749   */\n      tag_516\n      tag_373\n      jump\t// in\n    tag_516:\n        /* \"#utility.yul\":1719:1749   */\n      swap1\n      pop\n        /* \"#utility.yul\":1758:1791   */\n      tag_517\n        /* \"#utility.yul\":1786:1790   */\n      dup3\n        /* \"#utility.yul\":1778:1784   */\n      dup3\n        /* \"#utility.yul\":1758:1791   */\n      tag_383\n      jump\t// in\n    tag_517:\n        /* \"#utility.yul\":1668:1797   */\n      swap2\n      swap1\n      pop\n      jump\t// out\n        /* \"#utility.yul\":1803:2111   */\n    tag_385:\n        /* \"#utility.yul\":1865:1869   */\n      0x00\n        /* \"#utility.yul\":1955:1973   */\n      0xffffffffffffffff\n        /* \"#utility.yul\":1947:1953   */\n      dup3\n        /* \"#utility.yul\":1944:1974   */\n      gt\n        /* \"#utility.yul\":1941:1997   */\n      iszero\n      tag_519\n      jumpi\n        /* \"#utility.yul\":1977:1995   */\n      tag_520\n      tag_121\n      jump\t// in\n    tag_520:\n        /* \"#utility.yul\":1941:1997   */\n    tag_519:\n        /* \"#utility.yul\":2015:2044   */\n      tag_521\n        /* \"#utility.yul\":2037:2043   */\n      dup3\n        /* \"#utility.yul\":2015:2044   */\n      tag_382\n      jump\t// in\n    tag_521:\n        /* \"#utility.yul\":2007:2044   */\n      swap1\n      pop\n        /* \"#utility.yul\":2099:2103   */\n      0x20\n        /* \"#utility.yul\":2093:2097   */\n      dup2\n        /* \"#utility.yul\":2089:2104   */\n      add\n        /* \"#utility.yul\":2081:2104   */\n      swap1\n      pop\n        /* \"#utility.yul\":1803:2111   */\n      swap2\n      swap1\n      pop\n      jump\t// out\n        /* \"#utility.yul\":2117:2265   */\n    tag_386:\n        /* \"#utility.yul\":2215:2221   */\n      dup3\n        /* \"#utility.yul\":2210:2213   */\n      dup2\n        /* \"#utility.yul\":2205:2208   */\n      dup4\n        /* \"#utility.yul\":2192:2222   */\n      calldatacopy\n        /* \"#utility.yul\":2256:2257   */\n      0x00\n        /* \"#utility.yul\":2247:2253   */\n      dup4\n        /* \"#utility.yul\":2242:2245   */\n      dup4\n        /* \"#utility.yul\":2238:2254   */\n      add\n        /* \"#utility.yul\":2231:2258   */\n      mstore\n        /* \"#utility.yul\":2117:2265   */\n      pop\n      pop\n      pop\n      jump\t// out\n        /* \"#utility.yul\":2271:2696   */\n    tag_387:\n        /* \"#utility.yul\":2349:2354   */\n      0x00\n        /* \"#utility.yul\":2374:2440   */\n      tag_524\n        /* \"#utility.yul\":2390:2439   */\n      tag_525\n        /* \"#utility.yul\":2432:2438   */\n      dup5\n        /* \"#utility.yul\":2390:2439   */\n      tag_385\n      jump\t// in\n    tag_525:\n        /* \"#utility.yul\":2374:2440   */\n      tag_384\n      jump\t// in\n    tag_524:\n        /* \"#utility.yul\":2365:2440   */\n      swap1\n      pop\n        /* \"#utility.yul\":2463:2469   */\n      dup3\n        /* \"#utility.yul\":2456:2461   */\n      dup2\n        /* \"#utility.yul\":2449:2470   */\n      mstore\n        /* \"#utility.yul\":2501:2505   */\n      0x20\n        /* \"#utility.yul\":2494:2499   */\n      dup2\n        /* \"#utility.yul\":2490:2506   */\n      add\n        /* \"#utility.yul\":2539:2542   */\n      dup5\n        /* \"#utility.yul\":2530:2536   */\n      dup5\n        /* \"#utility.yul\":2525:2528   */\n      dup5\n        /* \"#utility.yul\":2521:2537   */\n      add\n        /* \"#utility.yul\":2518:2543   */\n      gt\n        /* \"#utility.yul\":2515:2627   */\n      iszero\n      tag_526\n      jumpi\n        /* \"#utility.yul\":2546:2625   */\n      tag_527\n      tag_381\n      jump\t// in\n    tag_527:\n        /* \"#utility.yul\":2515:2627   */\n    tag_526:\n        /* \"#utility.yul\":2636:2690   */\n      tag_528\n        /* \"#utility.yul\":2683:2689   */\n      dup5\n        /* \"#utility.yul\":2678:2681   */\n      dup3\n        /* \"#utility.yul\":2673:2676   */\n      dup6\n        /* \"#utility.yul\":2636:2690   */\n      tag_386\n      jump\t// in\n    tag_528:\n        /* \"#utility.yul\":2355:2696   */\n      pop\n        /* \"#utility.yul\":2271:2696   */\n      swap4\n      swap3\n      pop\n      pop\n      pop\n      jump\t// out\n        /* \"#utility.yul\":2716:3056   */\n    tag_388:\n        /* \"#utility.yul\":2772:2777   */\n      0x00\n        /* \"#utility.yul\":2821:2824   */\n      dup3\n        /* \"#utility.yul\":2814:2818   */\n      0x1f\n        /* \"#utility.yul\":2806:2812   */\n      dup4\n        /* \"#utility.yul\":2802:2819   */\n      add\n        /* \"#utility.yul\":2798:2825   */\n      slt\n        /* \"#utility.yul\":2788:2910   */\n      tag_530\n      jumpi\n        /* \"#utility.yul\":2829:2908   */\n      tag_531\n      tag_380\n      jump\t// in\n    tag_531:\n        /* \"#utility.yul\":2788:2910   */\n    tag_530:\n        /* \"#utility.yul\":2946:2952   */\n      dup2\n        /* \"#utility.yul\":2933:2953   */\n      calldataload\n        /* \"#utility.yul\":2971:3050   */\n      tag_532\n        /* \"#utility.yul\":3046:3049   */\n      dup5\n        /* \"#utility.yul\":3038:3044   */\n      dup3\n        /* \"#utility.yul\":3031:3035   */\n      0x20\n        /* \"#utility.yul\":3023:3029   */\n      dup7\n        /* \"#utility.yul\":3019:3036   */\n      add\n        /* \"#utility.yul\":2971:3050   */\n      tag_387\n      jump\t// in\n    tag_532:\n        /* \"#utility.yul\":2962:3050   */\n      swap2\n      pop\n        /* \"#utility.yul\":2778:3056   */\n      pop\n        /* \"#utility.yul\":2716:3056   */\n      swap3\n      swap2\n      pop\n      pop\n      jump\t// out\n        /* \"#utility.yul\":3062:3716   */\n    tag_24:\n        /* \"#utility.yul\":3140:3146   */\n      0x00\n        /* \"#utility.yul\":3148:3154   */\n      dup1\n        /* \"#utility.yul\":3197:3199   */\n      0x40\n        /* \"#utility.yul\":3185:3194   */\n      dup4\n        /* \"#utility.yul\":3176:3183   */\n      dup6\n        /* \"#utility.yul\":3172:3195   */\n      sub\n        /* \"#utility.yul\":3168:3200   */\n      slt\n        /* \"#utility.yul\":3165:3284   */\n      iszero\n      tag_534\n      jumpi\n        /* \"#utility.yul\":3203:3282   */\n      tag_535\n      tag_374\n      jump\t// in\n    tag_535:\n        /* \"#utility.yul\":3165:3284   */\n    tag_534:\n        /* \"#utility.yul\":3323:3324   */\n      0x00\n        /* \"#utility.yul\":3348:3401   */\n      tag_536\n        /* \"#utility.yul\":3393:3400   */\n      dup6\n        /* \"#utility.yul\":3384:3390   */\n      dup3\n        /* \"#utility.yul\":3373:3382   */\n      dup7\n        /* \"#utility.yul\":3369:3391   */\n      add\n        /* \"#utility.yul\":3348:3401   */\n      tag_379\n      jump\t// in\n    tag_536:\n        /* \"#utility.yul\":3338:3401   */\n      swap3\n      pop\n        /* \"#utility.yul\":3294:3411   */\n      pop\n        /* \"#utility.yul\":3478:3480   */\n      0x20\n        /* \"#utility.yul\":3467:3476   */\n      dup4\n        /* \"#utility.yul\":3463:3481   */\n      add\n        /* \"#utility.yul\":3450:3482   */\n      calldataload\n        /* \"#utility.yul\":3509:3527   */\n      0xffffffffffffffff\n        /* \"#utility.yul\":3501:3507   */\n      dup2\n        /* \"#utility.yul\":3498:3528   */\n      gt\n        /* \"#utility.yul\":3495:3612   */\n      iszero\n      tag_537\n      jumpi\n        /* \"#utility.yul\":3531:3610   */\n      tag_538\n      tag_375\n      jump\t// in\n    tag_538:\n        /* \"#utility.yul\":3495:3612   */\n    tag_537:\n        /* \"#utility.yul\":3636:3699   */\n      tag_539\n        /* \"#utility.yul\":3691:3698   */\n      dup6\n        /* \"#utility.yul\":3682:3688   */\n      dup3\n        /* \"#utility.yul\":3671:3680   */\n      dup7\n        /* \"#utility.yul\":3667:3689   */\n      add\n        /* \"#utility.yul\":3636:3699   */\n      tag_388\n      jump\t// in\n    tag_539:\n        /* \"#utility.yul\":3626:3699   */\n      swap2\n      pop\n        /* \"#utility.yul\":3421:3709   */\n      pop\n        /* \"#utility.yul\":3062:3716   */\n      swap3\n      pop\n      swap3\n      swap1\n      pop\n      jump\t// out\n        /* \"#utility.yul\":3722:3856   */\n    tag_389:\n        /* \"#utility.yul\":3809:3815   */\n      0x00\n        /* \"#utility.yul\":3843:3848   */\n      dup2\n        /* \"#utility.yul\":3837:3849   */\n      mload\n        /* \"#utility.yul\":3827:3849   */\n      swap1\n      pop\n        /* \"#utility.yul\":3722:3856   */\n      swap2\n      swap1\n      pop\n      jump\t// out\n        /* \"#utility.yul\":3862:4066   */\n    tag_390:\n        /* \"#utility.yul\":3981:3992   */\n      0x00\n        /* \"#utility.yul\":4015:4021   */\n      dup3\n        /* \"#utility.yul\":4010:4013   */\n      dup3\n        /* \"#utility.yul\":4003:4022   */\n      mstore\n        /* \"#utility.yul\":4055:4059   */\n      0x20\n        /* \"#utility.yul\":4050:4053   */\n      dup3\n        /* \"#utility.yul\":4046:4060   */\n      add\n        /* \"#utility.yul\":4031:4060   */\n      swap1\n      pop\n        /* \"#utility.yul\":3862:4066   */\n      swap3\n      swap2\n      pop\n      pop\n      jump\t// out\n        /* \"#utility.yul\":4072:4224   */\n    tag_391:\n        /* \"#utility.yul\":4159:4163   */\n      0x00\n        /* \"#utility.yul\":4182:4185   */\n      dup2\n        /* \"#utility.yul\":4174:4185   */\n      swap1\n      pop\n        /* \"#utility.yul\":4212:4216   */\n      0x20\n        /* \"#utility.yul\":4207:4210   */\n      dup3\n        /* \"#utility.yul\":4203:4217   */\n      add\n        /* \"#utility.yul\":4195:4217   */\n      swap1\n      pop\n        /* \"#utility.yul\":4072:4224   */\n      swap2\n      swap1\n      pop\n      jump\t// out\n        /* \"#utility.yul\":4230:4307   */\n    tag_392:\n        /* \"#utility.yul\":4267:4274   */\n      0x00\n        /* \"#utility.yul\":4296:4301   */\n      dup2\n        /* \"#utility.yul\":4285:4301   */\n      swap1\n      pop\n        /* \"#utility.yul\":4230:4307   */\n      swap2\n      swap1\n      pop\n      jump\t// out\n        /* \"#utility.yul\":4313:4421   */\n    tag_393:\n        /* \"#utility.yul\":4390:4414   */\n      tag_545\n        /* \"#utility.yul\":4408:4413   */\n      dup2\n        /* \"#utility.yul\":4390:4414   */\n      tag_392\n      jump\t// in\n    tag_545:\n        /* \"#utility.yul\":4385:4388   */\n      dup3\n        /* \"#utility.yul\":4378:4415   */\n      mstore\n        /* \"#utility.yul\":4313:4421   */\n      pop\n      pop\n      jump\t// out\n        /* \"#utility.yul\":4427:4526   */\n    tag_394:\n        /* \"#utility.yul\":4479:4485   */\n      0x00\n        /* \"#utility.yul\":4513:4518   */\n      dup2\n        /* \"#utility.yul\":4507:4519   */\n      mload\n        /* \"#utility.yul\":4497:4519   */\n      swap1\n      pop\n        /* \"#utility.yul\":4427:4526   */\n      swap2\n      swap1\n      pop\n      jump\t// out\n        /* \"#utility.yul\":4532:4691   */\n    tag_395:\n        /* \"#utility.yul\":4606:4617   */\n      0x00\n        /* \"#utility.yul\":4640:4646   */\n      dup3\n        /* \"#utility.yul\":4635:4638   */\n      dup3\n        /* \"#utility.yul\":4628:4647   */\n      mstore\n        /* \"#utility.yul\":4680:4684   */\n      0x20\n        /* \"#utility.yul\":4675:4678   */\n      dup3\n        /* \"#utility.yul\":4671:4685   */\n      add\n        /* \"#utility.yul\":4656:4685   */\n      swap1\n      pop\n        /* \"#utility.yul\":4532:4691   */\n      swap3\n      swap2\n      pop\n      pop\n      jump\t// out\n        /* \"#utility.yul\":4697:4836   */\n    tag_396:\n        /* \"#utility.yul\":4786:4792   */\n      dup3\n        /* \"#utility.yul\":4781:4784   */\n      dup2\n        /* \"#utility.yul\":4776:4779   */\n      dup4\n        /* \"#utility.yul\":4770:4793   */\n      mcopy\n        /* \"#utility.yul\":4827:4828   */\n      0x00\n        /* \"#utility.yul\":4818:4824   */\n      dup4\n        /* \"#utility.yul\":4813:4816   */\n      dup4\n        /* \"#utility.yul\":4809:4825   */\n      add\n        /* \"#utility.yul\":4802:4829   */\n      mstore\n        /* \"#utility.yul\":4697:4836   */\n      pop\n      pop\n      pop\n      jump\t// out\n        /* \"#utility.yul\":4842:5199   */\n    tag_397:\n        /* \"#utility.yul\":4920:4923   */\n      0x00\n        /* \"#utility.yul\":4948:4987   */\n      tag_550\n        /* \"#utility.yul\":4981:4986   */\n      dup3\n        /* \"#utility.yul\":4948:4987   */\n      tag_394\n      jump\t// in\n    tag_550:\n        /* \"#utility.yul\":5003:5064   */\n      tag_551\n        /* \"#utility.yul\":5057:5063   */\n      dup2\n        /* \"#utility.yul\":5052:5055   */\n      dup6\n        /* \"#utility.yul\":5003:5064   */\n      tag_395\n      jump\t// in\n    tag_551:\n        /* \"#utility.yul\":4996:5064   */\n      swap4\n      pop\n        /* \"#utility.yul\":5073:5138   */\n      tag_552\n        /* \"#utility.yul\":5131:5137   */\n      dup2\n        /* \"#utility.yul\":5126:5129   */\n      dup6\n        /* \"#utility.yul\":5119:5123   */\n      0x20\n        /* \"#utility.yul\":5112:5117   */\n      dup7\n        /* \"#utility.yul\":5108:5124   */\n      add\n        /* \"#utility.yul\":5073:5138   */\n      tag_396\n      jump\t// in\n    tag_552:\n        /* \"#utility.yul\":5163:5192   */\n      tag_553\n        /* \"#utility.yul\":5185:5191   */\n      dup2\n        /* \"#utility.yul\":5163:5192   */\n      tag_382\n      jump\t// in\n    tag_553:\n        /* \"#utility.yul\":5158:5161   */\n      dup5\n        /* \"#utility.yul\":5154:5193   */\n      add\n        /* \"#utility.yul\":5147:5193   */\n      swap2\n      pop\n        /* \"#utility.yul\":4924:5199   */\n      pop\n        /* \"#utility.yul\":4842:5199   */\n      swap3\n      swap2\n      pop\n      pop\n      jump\t// out\n        /* \"#utility.yul\":5205:5385   */\n    tag_142:\n        /* \"#utility.yul\":5253:5330   */\n      0x4e487b7100000000000000000000000000000000000000000000000000000000\n        /* \"#utility.yul\":5250:5251   */\n      0x00\n        /* \"#utility.yul\":5243:5331   */\n      mstore\n        /* \"#utility.yul\":5350:5354   */\n      0x21\n        /* \"#utility.yul\":5347:5348   */\n      0x04\n        /* \"#utility.yul\":5340:5355   */\n      mstore\n        /* \"#utility.yul\":5374:5378   */\n      0x24\n        /* \"#utility.yul\":5371:5372   */\n      0x00\n        /* \"#utility.yul\":5364:5379   */\n      revert\n        /* \"#utility.yul\":5391:5507   */\n    tag_398:\n        /* \"#utility.yul\":5475:5476   */\n      0x03\n        /* \"#utility.yul\":5468:5473   */\n      dup2\n        /* \"#utility.yul\":5465:5477   */\n      lt\n        /* \"#utility.yul\":5455:5501   */\n      tag_556\n      jumpi\n        /* \"#utility.yul\":5481:5499   */\n      tag_557\n      tag_142\n      jump\t// in\n    tag_557:\n        /* \"#utility.yul\":5455:5501   */\n    tag_556:\n        /* \"#utility.yul\":5391:5507   */\n      pop\n      jump\t// out\n        /* \"#utility.yul\":5513:5646   */\n    tag_399:\n        /* \"#utility.yul\":5561:5568   */\n      0x00\n        /* \"#utility.yul\":5590:5595   */\n      dup2\n        /* \"#utility.yul\":5579:5595   */\n      swap1\n      pop\n        /* \"#utility.yul\":5596:5640   */\n      tag_559\n        /* \"#utility.yul\":5634:5639   */\n      dup3\n        /* \"#utility.yul\":5596:5640   */\n      tag_398\n      jump\t// in\n    tag_559:\n        /* \"#utility.yul\":5513:5646   */\n      swap2\n      swap1\n      pop\n      jump\t// out\n        /* \"#utility.yul\":5652:5785   */\n    tag_400:\n        /* \"#utility.yul\":5711:5720   */\n      0x00\n        /* \"#utility.yul\":5744:5779   */\n      tag_561\n        /* \"#utility.yul\":5773:5778   */\n      dup3\n        /* \"#utility.yul\":5744:5779   */\n      tag_399\n      jump\t// in\n    tag_561:\n        /* \"#utility.yul\":5731:5779   */\n      swap1\n      pop\n        /* \"#utility.yul\":5652:5785   */\n      swap2\n      swap1\n      pop\n      jump\t// out\n        /* \"#utility.yul\":5791:5930   */\n    tag_401:\n        /* \"#utility.yul\":5877:5923   */\n      tag_563\n        /* \"#utility.yul\":5917:5922   */\n      dup2\n        /* \"#utility.yul\":5877:5923   */\n      tag_400\n      jump\t// in\n    tag_563:\n        /* \"#utility.yul\":5872:5875   */\n      dup3\n        /* \"#utility.yul\":5865:5924   */\n      mstore\n        /* \"#utility.yul\":5791:5930   */\n      pop\n      pop\n      jump\t// out\n        /* \"#utility.yul\":5936:6044   */\n    tag_402:\n        /* \"#utility.yul\":6013:6037   */\n      tag_565\n        /* \"#utility.yul\":6031:6036   */\n      dup2\n        /* \"#utility.yul\":6013:6037   */\n      tag_377\n      jump\t// in\n    tag_565:\n        /* \"#utility.yul\":6008:6011   */\n      dup3\n        /* \"#utility.yul\":6001:6038   */\n      mstore\n        /* \"#utility.yul\":5936:6044   */\n      pop\n      pop\n      jump\t// out\n        /* \"#utility.yul\":6050:6140   */\n    tag_403:\n        /* \"#utility.yul\":6084:6091   */\n      0x00\n        /* \"#utility.yul\":6127:6132   */\n      dup2\n        /* \"#utility.yul\":6120:6133   */\n      iszero\n        /* \"#utility.yul\":6113:6134   */\n      iszero\n        /* \"#utility.yul\":6102:6134   */\n      swap1\n      pop\n        /* \"#utility.yul\":6050:6140   */\n      swap2\n      swap1\n      pop\n      jump\t// out\n        /* \"#utility.yul\":6146:6245   */\n    tag_404:\n        /* \"#utility.yul\":6217:6238   */\n      tag_568\n        /* \"#utility.yul\":6232:6237   */\n      dup2\n        /* \"#utility.yul\":6217:6238   */\n      tag_403\n      jump\t// in\n    tag_568:\n        /* \"#utility.yul\":6212:6215   */\n      dup3\n        /* \"#utility.yul\":6205:6239   */\n      mstore\n        /* \"#utility.yul\":6146:6245   */\n      pop\n      pop\n      jump\t// out\n        /* \"#utility.yul\":6315:8054   */\n    tag_405:\n        /* \"#utility.yul\":6414:6417   */\n      0x00\n        /* \"#utility.yul\":6450:6456   */\n      0x0100\n        /* \"#utility.yul\":6445:6448   */\n      dup4\n        /* \"#utility.yul\":6441:6457   */\n      add\n        /* \"#utility.yul\":6537:6541   */\n      0x00\n        /* \"#utility.yul\":6530:6535   */\n      dup4\n        /* \"#utility.yul\":6526:6542   */\n      add\n        /* \"#utility.yul\":6520:6543   */\n      mload\n        /* \"#utility.yul\":6556:6619   */\n      tag_570\n        /* \"#utility.yul\":6613:6617   */\n      0x00\n        /* \"#utility.yul\":6608:6611   */\n      dup7\n        /* \"#utility.yul\":6604:6618   */\n      add\n        /* \"#utility.yul\":6590:6602   */\n      dup3\n        /* \"#utility.yul\":6556:6619   */\n      tag_393\n      jump\t// in\n    tag_570:\n        /* \"#utility.yul\":6467:6629   */\n      pop\n        /* \"#utility.yul\":6712:6716   */\n      0x20\n        /* \"#utility.yul\":6705:6710   */\n      dup4\n        /* \"#utility.yul\":6701:6717   */\n      add\n        /* \"#utility.yul\":6695:6718   */\n      mload\n        /* \"#utility.yul\":6765:6768   */\n      dup5\n        /* \"#utility.yul\":6759:6763   */\n      dup3\n        /* \"#utility.yul\":6755:6769   */\n      sub\n        /* \"#utility.yul\":6748:6752   */\n      0x20\n        /* \"#utility.yul\":6743:6746   */\n      dup7\n        /* \"#utility.yul\":6739:6753   */\n      add\n        /* \"#utility.yul\":6732:6770   */\n      mstore\n        /* \"#utility.yul\":6791:6864   */\n      tag_571\n        /* \"#utility.yul\":6859:6863   */\n      dup3\n        /* \"#utility.yul\":6845:6857   */\n      dup3\n        /* \"#utility.yul\":6791:6864   */\n      tag_397\n      jump\t// in\n    tag_571:\n        /* \"#utility.yul\":6783:6864   */\n      swap2\n      pop\n        /* \"#utility.yul\":6639:6875   */\n      pop\n        /* \"#utility.yul\":6964:6968   */\n      0x40\n        /* \"#utility.yul\":6957:6962   */\n      dup4\n        /* \"#utility.yul\":6953:6969   */\n      add\n        /* \"#utility.yul\":6947:6970   */\n      mload\n        /* \"#utility.yul\":7017:7020   */\n      dup5\n        /* \"#utility.yul\":7011:7015   */\n      dup3\n        /* \"#utility.yul\":7007:7021   */\n      sub\n        /* \"#utility.yul\":7000:7004   */\n      0x40\n        /* \"#utility.yul\":6995:6998   */\n      dup7\n        /* \"#utility.yul\":6991:7005   */\n      add\n        /* \"#utility.yul\":6984:7022   */\n      mstore\n        /* \"#utility.yul\":7043:7116   */\n      tag_572\n        /* \"#utility.yul\":7111:7115   */\n      dup3\n        /* \"#utility.yul\":7097:7109   */\n      dup3\n        /* \"#utility.yul\":7043:7116   */\n      tag_397\n      jump\t// in\n    tag_572:\n        /* \"#utility.yul\":7035:7116   */\n      swap2\n      pop\n        /* \"#utility.yul\":6885:7127   */\n      pop\n        /* \"#utility.yul\":7213:7217   */\n      0x60\n        /* \"#utility.yul\":7206:7211   */\n      dup4\n        /* \"#utility.yul\":7202:7218   */\n      add\n        /* \"#utility.yul\":7196:7219   */\n      mload\n        /* \"#utility.yul\":7232:7304   */\n      tag_573\n        /* \"#utility.yul\":7298:7302   */\n      0x60\n        /* \"#utility.yul\":7293:7296   */\n      dup7\n        /* \"#utility.yul\":7289:7303   */\n      add\n        /* \"#utility.yul\":7275:7287   */\n      dup3\n        /* \"#utility.yul\":7232:7304   */\n      tag_401\n      jump\t// in\n    tag_573:\n        /* \"#utility.yul\":7137:7314   */\n      pop\n        /* \"#utility.yul\":7399:7403   */\n      0x80\n        /* \"#utility.yul\":7392:7397   */\n      dup4\n        /* \"#utility.yul\":7388:7404   */\n      add\n        /* \"#utility.yul\":7382:7405   */\n      mload\n        /* \"#utility.yul\":7418:7481   */\n      tag_574\n        /* \"#utility.yul\":7475:7479   */\n      0x80\n        /* \"#utility.yul\":7470:7473   */\n      dup7\n        /* \"#utility.yul\":7466:7480   */\n      add\n        /* \"#utility.yul\":7452:7464   */\n      dup3\n        /* \"#utility.yul\":7418:7481   */\n      tag_393\n      jump\t// in\n    tag_574:\n        /* \"#utility.yul\":7324:7491   */\n      pop\n        /* \"#utility.yul\":7579:7583   */\n      0xa0\n        /* \"#utility.yul\":7572:7577   */\n      dup4\n        /* \"#utility.yul\":7568:7584   */\n      add\n        /* \"#utility.yul\":7562:7585   */\n      mload\n        /* \"#utility.yul\":7598:7661   */\n      tag_575\n        /* \"#utility.yul\":7655:7659   */\n      0xa0\n        /* \"#utility.yul\":7650:7653   */\n      dup7\n        /* \"#utility.yul\":7646:7660   */\n      add\n        /* \"#utility.yul\":7632:7644   */\n      dup3\n        /* \"#utility.yul\":7598:7661   */\n      tag_402\n      jump\t// in\n    tag_575:\n        /* \"#utility.yul\":7501:7671   */\n      pop\n        /* \"#utility.yul\":7760:7764   */\n      0xc0\n        /* \"#utility.yul\":7753:7758   */\n      dup4\n        /* \"#utility.yul\":7749:7765   */\n      add\n        /* \"#utility.yul\":7743:7766   */\n      mload\n        /* \"#utility.yul\":7779:7836   */\n      tag_576\n        /* \"#utility.yul\":7830:7834   */\n      0xc0\n        /* \"#utility.yul\":7825:7828   */\n      dup7\n        /* \"#utility.yul\":7821:7835   */\n      add\n        /* \"#utility.yul\":7807:7819   */\n      dup3\n        /* \"#utility.yul\":7779:7836   */\n      tag_404\n      jump\t// in\n    tag_576:\n        /* \"#utility.yul\":7681:7846   */\n      pop\n        /* \"#utility.yul\":7935:7939   */\n      0xe0\n        /* \"#utility.yul\":7928:7933   */\n      dup4\n        /* \"#utility.yul\":7924:7940   */\n      add\n        /* \"#utility.yul\":7918:7941   */\n      mload\n        /* \"#utility.yul\":7954:8017   */\n      tag_577\n        /* \"#utility.yul\":8011:8015   */\n      0xe0\n        /* \"#utility.yul\":8006:8009   */\n      dup7\n        /* \"#utility.yul\":8002:8016   */\n      add\n        /* \"#utility.yul\":7988:8000   */\n      dup3\n        /* \"#utility.yul\":7954:8017   */\n      tag_393\n      jump\t// in\n    tag_577:\n        /* \"#utility.yul\":7856:8027   */\n      pop\n        /* \"#utility.yul\":8044:8048   */\n      dup1\n        /* \"#utility.yul\":8037:8048   */\n      swap2\n      pop\n        /* \"#utility.yul\":6419:8054   */\n      pop\n        /* \"#utility.yul\":6315:8054   */\n      swap3\n      swap2\n      pop\n      pop\n      jump\t// out\n        /* \"#utility.yul\":8060:8296   */\n    tag_406:\n        /* \"#utility.yul\":8169:8179   */\n      0x00\n        /* \"#utility.yul\":8204:8290   */\n      tag_579\n        /* \"#utility.yul\":8286:8289   */\n      dup4\n        /* \"#utility.yul\":8278:8284   */\n      dup4\n        /* \"#utility.yul\":8204:8290   */\n      tag_405\n      jump\t// in\n    tag_579:\n        /* \"#utility.yul\":8190:8290   */\n      swap1\n      pop\n        /* \"#utility.yul\":8060:8296   */\n      swap3\n      swap2\n      pop\n      pop\n      jump\t// out\n        /* \"#utility.yul\":8302:8435   */\n    tag_407:\n        /* \"#utility.yul\":8392:8396   */\n      0x00\n        /* \"#utility.yul\":8424:8428   */\n      0x20\n        /* \"#utility.yul\":8419:8422   */\n      dup3\n        /* \"#utility.yul\":8415:8429   */\n      add\n        /* \"#utility.yul\":8407:8429   */\n      swap1\n      pop\n        /* \"#utility.yul\":8302:8435   */\n      swap2\n      swap1\n      pop\n      jump\t// out\n        /* \"#utility.yul\":8509:9580   */\n    tag_408:\n        /* \"#utility.yul\":8668:8671   */\n      0x00\n        /* \"#utility.yul\":8697:8771   */\n      tag_582\n        /* \"#utility.yul\":8765:8770   */\n      dup3\n        /* \"#utility.yul\":8697:8771   */\n      tag_389\n      jump\t// in\n    tag_582:\n        /* \"#utility.yul\":8787:8893   */\n      tag_583\n        /* \"#utility.yul\":8886:8892   */\n      dup2\n        /* \"#utility.yul\":8881:8884   */\n      dup6\n        /* \"#utility.yul\":8787:8893   */\n      tag_390\n      jump\t// in\n    tag_583:\n        /* \"#utility.yul\":8780:8893   */\n      swap4\n      pop\n        /* \"#utility.yul\":8919:8922   */\n      dup4\n        /* \"#utility.yul\":8964:8968   */\n      0x20\n        /* \"#utility.yul\":8956:8962   */\n      dup3\n        /* \"#utility.yul\":8952:8969   */\n      mul\n        /* \"#utility.yul\":8947:8950   */\n      dup6\n        /* \"#utility.yul\":8943:8970   */\n      add\n        /* \"#utility.yul\":8994:9070   */\n      tag_584\n        /* \"#utility.yul\":9064:9069   */\n      dup6\n        /* \"#utility.yul\":8994:9070   */\n      tag_391\n      jump\t// in\n    tag_584:\n        /* \"#utility.yul\":9093:9100   */\n      dup1\n        /* \"#utility.yul\":9124:9125   */\n      0x00\n        /* \"#utility.yul\":9109:9535   */\n    tag_585:\n        /* \"#utility.yul\":9134:9140   */\n      dup6\n        /* \"#utility.yul\":9131:9132   */\n      dup2\n        /* \"#utility.yul\":9128:9141   */\n      lt\n        /* \"#utility.yul\":9109:9535   */\n      iszero\n      tag_587\n      jumpi\n        /* \"#utility.yul\":9205:9214   */\n      dup5\n        /* \"#utility.yul\":9199:9203   */\n      dup5\n        /* \"#utility.yul\":9195:9215   */\n      sub\n        /* \"#utility.yul\":9190:9193   */\n      dup10\n        /* \"#utility.yul\":9183:9216   */\n      mstore\n        /* \"#utility.yul\":9256:9262   */\n      dup2\n        /* \"#utility.yul\":9250:9263   */\n      mload\n        /* \"#utility.yul\":9284:9388   */\n      tag_588\n        /* \"#utility.yul\":9383:9387   */\n      dup6\n        /* \"#utility.yul\":9368:9381   */\n      dup3\n        /* \"#utility.yul\":9284:9388   */\n      tag_406\n      jump\t// in\n    tag_588:\n        /* \"#utility.yul\":9276:9388   */\n      swap5\n      pop\n        /* \"#utility.yul\":9411:9491   */\n      tag_589\n        /* \"#utility.yul\":9484:9490   */\n      dup4\n        /* \"#utility.yul\":9411:9491   */\n      tag_407\n      jump\t// in\n    tag_589:\n        /* \"#utility.yul\":9401:9491   */\n      swap3\n      pop\n        /* \"#utility.yul\":9520:9524   */\n      0x20\n        /* \"#utility.yul\":9515:9518   */\n      dup11\n        /* \"#utility.yul\":9511:9525   */\n      add\n        /* \"#utility.yul\":9504:9525   */\n      swap10\n      pop\n        /* \"#utility.yul\":9169:9535   */\n      pop\n        /* \"#utility.yul\":9156:9157   */\n      0x01\n        /* \"#utility.yul\":9153:9154   */\n      dup2\n        /* \"#utility.yul\":9149:9158   */\n      add\n        /* \"#utility.yul\":9144:9158   */\n      swap1\n      pop\n        /* \"#utility.yul\":9109:9535   */\n      jump(tag_585)\n    tag_587:\n        /* \"#utility.yul\":9113:9127   */\n      pop\n        /* \"#utility.yul\":9551:9555   */\n      dup3\n        /* \"#utility.yul\":9544:9555   */\n      swap8\n      pop\n        /* \"#utility.yul\":9571:9574   */\n      dup8\n        /* \"#utility.yul\":9564:9574   */\n      swap6\n      pop\n        /* \"#utility.yul\":8673:9580   */\n      pop\n      pop\n      pop\n      pop\n      pop\n        /* \"#utility.yul\":8509:9580   */\n      swap3\n      swap2\n      pop\n      pop\n      jump\t// out\n        /* \"#utility.yul\":9586:10039   */\n    tag_29:\n        /* \"#utility.yul\":9769:9773   */\n      0x00\n        /* \"#utility.yul\":9807:9809   */\n      0x20\n        /* \"#utility.yul\":9796:9805   */\n      dup3\n        /* \"#utility.yul\":9792:9810   */\n      add\n        /* \"#utility.yul\":9784:9810   */\n      swap1\n      pop\n        /* \"#utility.yul\":9856:9865   */\n      dup2\n        /* \"#utility.yul\":9850:9854   */\n      dup2\n        /* \"#utility.yul\":9846:9866   */\n      sub\n        /* \"#utility.yul\":9842:9843   */\n      0x00\n        /* \"#utility.yul\":9831:9840   */\n      dup4\n        /* \"#utility.yul\":9827:9844   */\n      add\n        /* \"#utility.yul\":9820:9867   */\n      mstore\n        /* \"#utility.yul\":9884:10032   */\n      tag_591\n        /* \"#utility.yul\":10027:10031   */\n      dup2\n        /* \"#utility.yul\":10018:10024   */\n      dup5\n        /* \"#utility.yul\":9884:10032   */\n      tag_408\n      jump\t// in\n    tag_591:\n        /* \"#utility.yul\":9876:10032   */\n      swap1\n      pop\n        /* \"#utility.yul\":9586:10039   */\n      swap3\n      swap2\n      pop\n      pop\n      jump\t// out\n        /* \"#utility.yul\":10045:10167   */\n    tag_409:\n        /* \"#utility.yul\":10118:10142   */\n      tag_593\n        /* \"#utility.yul\":10136:10141   */\n      dup2\n        /* \"#utility.yul\":10118:10142   */\n      tag_392\n      jump\t// in\n    tag_593:\n        /* \"#utility.yul\":10111:10116   */\n      dup2\n        /* \"#utility.yul\":10108:10143   */\n      eq\n        /* \"#utility.yul\":10098:10161   */\n      tag_594\n      jumpi\n        /* \"#utility.yul\":10157:10158   */\n      0x00\n        /* \"#utility.yul\":10154:10155   */\n      dup1\n        /* \"#utility.yul\":10147:10159   */\n      revert\n        /* \"#utility.yul\":10098:10161   */\n    tag_594:\n        /* \"#utility.yul\":10045:10167   */\n      pop\n      jump\t// out\n        /* \"#utility.yul\":10173:10312   */\n    tag_410:\n        /* \"#utility.yul\":10219:10224   */\n      0x00\n        /* \"#utility.yul\":10257:10263   */\n      dup2\n        /* \"#utility.yul\":10244:10264   */\n      calldataload\n        /* \"#utility.yul\":10235:10264   */\n      swap1\n      pop\n        /* \"#utility.yul\":10273:10306   */\n      tag_596\n        /* \"#utility.yul\":10300:10305   */\n      dup2\n        /* \"#utility.yul\":10273:10306   */\n      tag_409\n      jump\t// in\n    tag_596:\n        /* \"#utility.yul\":10173:10312   */\n      swap3\n      swap2\n      pop\n      pop\n      jump\t// out\n        /* \"#utility.yul\":10318:10647   */\n    tag_32:\n        /* \"#utility.yul\":10377:10383   */\n      0x00\n        /* \"#utility.yul\":10426:10428   */\n      0x20\n        /* \"#utility.yul\":10414:10423   */\n      dup3\n        /* \"#utility.yul\":10405:10412   */\n      dup5\n        /* \"#utility.yul\":10401:10424   */\n      sub\n        /* \"#utility.yul\":10397:10429   */\n      slt\n        /* \"#utility.yul\":10394:10513   */\n      iszero\n      tag_598\n      jumpi\n        /* \"#utility.yul\":10432:10511   */\n      tag_599\n      tag_374\n      jump\t// in\n    tag_599:\n        /* \"#utility.yul\":10394:10513   */\n    tag_598:\n        /* \"#utility.yul\":10552:10553   */\n      0x00\n        /* \"#utility.yul\":10577:10630   */\n      tag_600\n        /* \"#utility.yul\":10622:10629   */\n      dup5\n        /* \"#utility.yul\":10613:10619   */\n      dup3\n        /* \"#utility.yul\":10602:10611   */\n      dup6\n        /* \"#utility.yul\":10598:10620   */\n      add\n        /* \"#utility.yul\":10577:10630   */\n      tag_410\n      jump\t// in\n    tag_600:\n        /* \"#utility.yul\":10567:10630   */\n      swap2\n      pop\n        /* \"#utility.yul\":10523:10640   */\n      pop\n        /* \"#utility.yul\":10318:10647   */\n      swap3\n      swap2\n      pop\n      pop\n      jump\t// out\n        /* \"#utility.yul\":10653:10762   */\n    tag_411:\n        /* \"#utility.yul\":10734:10755   */\n      tag_602\n        /* \"#utility.yul\":10749:10754   */\n      dup2\n        /* \"#utility.yul\":10734:10755   */\n      tag_403\n      jump\t// in\n    tag_602:\n        /* \"#utility.yul\":10729:10732   */\n      dup3\n        /* \"#utility.yul\":10722:10756   */\n      mstore\n        /* \"#utility.yul\":10653:10762   */\n      pop\n      pop\n      jump\t// out\n        /* \"#utility.yul\":10768:10978   */\n    tag_35:\n        /* \"#utility.yul\":10855:10859   */\n      0x00\n        /* \"#utility.yul\":10893:10895   */\n      0x20\n        /* \"#utility.yul\":10882:10891   */\n      dup3\n        /* \"#utility.yul\":10878:10896   */\n      add\n        /* \"#utility.yul\":10870:10896   */\n      swap1\n      pop\n        /* \"#utility.yul\":10906:10971   */\n      tag_604\n        /* \"#utility.yul\":10968:10969   */\n      0x00\n        /* \"#utility.yul\":10957:10966   */\n      dup4\n        /* \"#utility.yul\":10953:10970   */\n      add\n        /* \"#utility.yul\":10944:10950   */\n      dup5\n        /* \"#utility.yul\":10906:10971   */\n      tag_411\n      jump\t// in\n    tag_604:\n        /* \"#utility.yul\":10768:10978   */\n      swap3\n      swap2\n      pop\n      pop\n      jump\t// out\n        /* \"#utility.yul\":10984:11458   */\n    tag_38:\n        /* \"#utility.yul\":11052:11058   */\n      0x00\n        /* \"#utility.yul\":11060:11066   */\n      dup1\n        /* \"#utility.yul\":11109:11111   */\n      0x40\n        /* \"#utility.yul\":11097:11106   */\n      dup4\n        /* \"#utility.yul\":11088:11095   */\n      dup6\n        /* \"#utility.yul\":11084:11107   */\n      sub\n        /* \"#utility.yul\":11080:11112   */\n      slt\n        /* \"#utility.yul\":11077:11196   */\n      iszero\n      tag_606\n      jumpi\n        /* \"#utility.yul\":11115:11194   */\n      tag_607\n      tag_374\n      jump\t// in\n    tag_607:\n        /* \"#utility.yul\":11077:11196   */\n    tag_606:\n        /* \"#utility.yul\":11235:11236   */\n      0x00\n        /* \"#utility.yul\":11260:11313   */\n      tag_608\n        /* \"#utility.yul\":11305:11312   */\n      dup6\n        /* \"#utility.yul\":11296:11302   */\n      dup3\n        /* \"#utility.yul\":11285:11294   */\n      dup7\n        /* \"#utility.yul\":11281:11303   */\n      add\n        /* \"#utility.yul\":11260:11313   */\n      tag_410\n      jump\t// in\n    tag_608:\n        /* \"#utility.yul\":11250:11313   */\n      swap3\n      pop\n        /* \"#utility.yul\":11206:11323   */\n      pop\n        /* \"#utility.yul\":11362:11364   */\n      0x20\n        /* \"#utility.yul\":11388:11441   */\n      tag_609\n        /* \"#utility.yul\":11433:11440   */\n      dup6\n        /* \"#utility.yul\":11424:11430   */\n      dup3\n        /* \"#utility.yul\":11413:11422   */\n      dup7\n        /* \"#utility.yul\":11409:11431   */\n      add\n        /* \"#utility.yul\":11388:11441   */\n      tag_379\n      jump\t// in\n    tag_609:\n        /* \"#utility.yul\":11378:11441   */\n      swap2\n      pop\n        /* \"#utility.yul\":11333:11451   */\n      pop\n        /* \"#utility.yul\":10984:11458   */\n      swap3\n      pop\n      swap3\n      swap1\n      pop\n      jump\t// out\n        /* \"#utility.yul\":11464:11973   */\n    tag_43:\n        /* \"#utility.yul\":11533:11539   */\n      0x00\n        /* \"#utility.yul\":11582:11584   */\n      0x20\n        /* \"#utility.yul\":11570:11579   */\n      dup3\n        /* \"#utility.yul\":11561:11568   */\n      dup5\n        /* \"#utility.yul\":11557:11580   */\n      sub\n        /* \"#utility.yul\":11553:11585   */\n      slt\n        /* \"#utility.yul\":11550:11669   */\n      iszero\n      tag_611\n      jumpi\n        /* \"#utility.yul\":11588:11667   */\n      tag_612\n      tag_374\n      jump\t// in\n    tag_612:\n        /* \"#utility.yul\":11550:11669   */\n    tag_611:\n        /* \"#utility.yul\":11736:11737   */\n      0x00\n        /* \"#utility.yul\":11725:11734   */\n      dup3\n        /* \"#utility.yul\":11721:11738   */\n      add\n        /* \"#utility.yul\":11708:11739   */\n      calldataload\n        /* \"#utility.yul\":11766:11784   */\n      0xffffffffffffffff\n        /* \"#utility.yul\":11758:11764   */\n      dup2\n        /* \"#utility.yul\":11755:11785   */\n      gt\n        /* \"#utility.yul\":11752:11869   */\n      iszero\n      tag_613\n      jumpi\n        /* \"#utility.yul\":11788:11867   */\n      tag_614\n      tag_375\n      jump\t// in\n    tag_614:\n        /* \"#utility.yul\":11752:11869   */\n    tag_613:\n        /* \"#utility.yul\":11893:11956   */\n      tag_615\n        /* \"#utility.yul\":11948:11955   */\n      dup5\n        /* \"#utility.yul\":11939:11945   */\n      dup3\n        /* \"#utility.yul\":11928:11937   */\n      dup6\n        /* \"#utility.yul\":11924:11946   */\n      add\n        /* \"#utility.yul\":11893:11956   */\n      tag_388\n      jump\t// in\n    tag_615:\n        /* \"#utility.yul\":11883:11956   */\n      swap2\n      pop\n        /* \"#utility.yul\":11679:11966   */\n      pop\n        /* \"#utility.yul\":11464:11973   */\n      swap3\n      swap2\n      pop\n      pop\n      jump\t// out\n        /* \"#utility.yul\":12043:13792   */\n    tag_412:\n        /* \"#utility.yul\":12152:12155   */\n      0x00\n        /* \"#utility.yul\":12188:12194   */\n      0x0100\n        /* \"#utility.yul\":12183:12186   */\n      dup4\n        /* \"#utility.yul\":12179:12195   */\n      add\n        /* \"#utility.yul\":12275:12279   */\n      0x00\n        /* \"#utility.yul\":12268:12273   */\n      dup4\n        /* \"#utility.yul\":12264:12280   */\n      add\n        /* \"#utility.yul\":12258:12281   */\n      mload\n        /* \"#utility.yul\":12294:12357   */\n      tag_617\n        /* \"#utility.yul\":12351:12355   */\n      0x00\n        /* \"#utility.yul\":12346:12349   */\n      dup7\n        /* \"#utility.yul\":12342:12356   */\n      add\n        /* \"#utility.yul\":12328:12340   */\n      dup3\n        /* \"#utility.yul\":12294:12357   */\n      tag_393\n      jump\t// in\n    tag_617:\n        /* \"#utility.yul\":12205:12367   */\n      pop\n        /* \"#utility.yul\":12450:12454   */\n      0x20\n        /* \"#utility.yul\":12443:12448   */\n      dup4\n        /* \"#utility.yul\":12439:12455   */\n      add\n        /* \"#utility.yul\":12433:12456   */\n      mload\n        /* \"#utility.yul\":12503:12506   */\n      dup5\n        /* \"#utility.yul\":12497:12501   */\n      dup3\n        /* \"#utility.yul\":12493:12507   */\n      sub\n        /* \"#utility.yul\":12486:12490   */\n      0x20\n        /* \"#utility.yul\":12481:12484   */\n      dup7\n        /* \"#utility.yul\":12477:12491   */\n      add\n        /* \"#utility.yul\":12470:12508   */\n      mstore\n        /* \"#utility.yul\":12529:12602   */\n      tag_618\n        /* \"#utility.yul\":12597:12601   */\n      dup3\n        /* \"#utility.yul\":12583:12595   */\n      dup3\n        /* \"#utility.yul\":12529:12602   */\n      tag_397\n      jump\t// in\n    tag_618:\n        /* \"#utility.yul\":12521:12602   */\n      swap2\n      pop\n        /* \"#utility.yul\":12377:12613   */\n      pop\n        /* \"#utility.yul\":12702:12706   */\n      0x40\n        /* \"#utility.yul\":12695:12700   */\n      dup4\n        /* \"#utility.yul\":12691:12707   */\n      add\n        /* \"#utility.yul\":12685:12708   */\n      mload\n        /* \"#utility.yul\":12755:12758   */\n      dup5\n        /* \"#utility.yul\":12749:12753   */\n      dup3\n        /* \"#utility.yul\":12745:12759   */\n      sub\n        /* \"#utility.yul\":12738:12742   */\n      0x40\n        /* \"#utility.yul\":12733:12736   */\n      dup7\n        /* \"#utility.yul\":12729:12743   */\n      add\n        /* \"#utility.yul\":12722:12760   */\n      mstore\n        /* \"#utility.yul\":12781:12854   */\n      tag_619\n        /* \"#utility.yul\":12849:12853   */\n      dup3\n        /* \"#utility.yul\":12835:12847   */\n      dup3\n        /* \"#utility.yul\":12781:12854   */\n      tag_397\n      jump\t// in\n    tag_619:\n        /* \"#utility.yul\":12773:12854   */\n      swap2\n      pop\n        /* \"#utility.yul\":12623:12865   */\n      pop\n        /* \"#utility.yul\":12951:12955   */\n      0x60\n        /* \"#utility.yul\":12944:12949   */\n      dup4\n        /* \"#utility.yul\":12940:12956   */\n      add\n        /* \"#utility.yul\":12934:12957   */\n      mload\n        /* \"#utility.yul\":12970:13042   */\n      tag_620\n        /* \"#utility.yul\":13036:13040   */\n      0x60\n        /* \"#utility.yul\":13031:13034   */\n      dup7\n        /* \"#utility.yul\":13027:13041   */\n      add\n        /* \"#utility.yul\":13013:13025   */\n      dup3\n        /* \"#utility.yul\":12970:13042   */\n      tag_401\n      jump\t// in\n    tag_620:\n        /* \"#utility.yul\":12875:13052   */\n      pop\n        /* \"#utility.yul\":13137:13141   */\n      0x80\n        /* \"#utility.yul\":13130:13135   */\n      dup4\n        /* \"#utility.yul\":13126:13142   */\n      add\n        /* \"#utility.yul\":13120:13143   */\n      mload\n        /* \"#utility.yul\":13156:13219   */\n      tag_621\n        /* \"#utility.yul\":13213:13217   */\n      0x80\n        /* \"#utility.yul\":13208:13211   */\n      dup7\n        /* \"#utility.yul\":13204:13218   */\n      add\n        /* \"#utility.yul\":13190:13202   */\n      dup3\n        /* \"#utility.yul\":13156:13219   */\n      tag_393\n      jump\t// in\n    tag_621:\n        /* \"#utility.yul\":13062:13229   */\n      pop\n        /* \"#utility.yul\":13317:13321   */\n      0xa0\n        /* \"#utility.yul\":13310:13315   */\n      dup4\n        /* \"#utility.yul\":13306:13322   */\n      add\n        /* \"#utility.yul\":13300:13323   */\n      mload\n        /* \"#utility.yul\":13336:13399   */\n      tag_622\n        /* \"#utility.yul\":13393:13397   */\n      0xa0\n        /* \"#utility.yul\":13388:13391   */\n      dup7\n        /* \"#utility.yul\":13384:13398   */\n      add\n        /* \"#utility.yul\":13370:13382   */\n      dup3\n        /* \"#utility.yul\":13336:13399   */\n      tag_402\n      jump\t// in\n    tag_622:\n        /* \"#utility.yul\":13239:13409   */\n      pop\n        /* \"#utility.yul\":13498:13502   */\n      0xc0\n        /* \"#utility.yul\":13491:13496   */\n      dup4\n        /* \"#utility.yul\":13487:13503   */\n      add\n        /* \"#utility.yul\":13481:13504   */\n      mload\n        /* \"#utility.yul\":13517:13574   */\n      tag_623\n        /* \"#utility.yul\":13568:13572   */\n      0xc0\n        /* \"#utility.yul\":13563:13566   */\n      dup7\n        /* \"#utility.yul\":13559:13573   */\n      add\n        /* \"#utility.yul\":13545:13557   */\n      dup3\n        /* \"#utility.yul\":13517:13574   */\n      tag_404\n      jump\t// in\n    tag_623:\n        /* \"#utility.yul\":13419:13584   */\n      pop\n        /* \"#utility.yul\":13673:13677   */\n      0xe0\n        /* \"#utility.yul\":13666:13671   */\n      dup4\n        /* \"#utility.yul\":13662:13678   */\n      add\n        /* \"#utility.yul\":13656:13679   */\n      mload\n        /* \"#utility.yul\":13692:13755   */\n      tag_624\n        /* \"#utility.yul\":13749:13753   */\n      0xe0\n        /* \"#utility.yul\":13744:13747   */\n      dup7\n        /* \"#utility.yul\":13740:13754   */\n      add\n        /* \"#utility.yul\":13726:13738   */\n      dup3\n        /* \"#utility.yul\":13692:13755   */\n      tag_393\n      jump\t// in\n    tag_624:\n        /* \"#utility.yul\":13594:13765   */\n      pop\n        /* \"#utility.yul\":13782:13786   */\n      dup1\n        /* \"#utility.yul\":13775:13786   */\n      swap2\n      pop\n        /* \"#utility.yul\":12157:13792   */\n      pop\n        /* \"#utility.yul\":12043:13792   */\n      swap3\n      swap2\n      pop\n      pop\n      jump\t// out\n        /* \"#utility.yul\":13798:14151   */\n    tag_49:\n        /* \"#utility.yul\":13931:13935   */\n      0x00\n        /* \"#utility.yul\":13969:13971   */\n      0x20\n        /* \"#utility.yul\":13958:13967   */\n      dup3\n        /* \"#utility.yul\":13954:13972   */\n      add\n        /* \"#utility.yul\":13946:13972   */\n      swap1\n      pop\n        /* \"#utility.yul\":14018:14027   */\n      dup2\n        /* \"#utility.yul\":14012:14016   */\n      dup2\n        /* \"#utility.yul\":14008:14028   */\n      sub\n        /* \"#utility.yul\":14004:14005   */\n      0x00\n        /* \"#utility.yul\":13993:14002   */\n      dup4\n        /* \"#utility.yul\":13989:14006   */\n      add\n        /* \"#utility.yul\":13982:14029   */\n      mstore\n        /* \"#utility.yul\":14046:14144   */\n      tag_626\n        /* \"#utility.yul\":14139:14143   */\n      dup2\n        /* \"#utility.yul\":14130:14136   */\n      dup5\n        /* \"#utility.yul\":14046:14144   */\n      tag_412\n      jump\t// in\n    tag_626:\n        /* \"#utility.yul\":14038:14144   */\n      swap1\n      pop\n        /* \"#utility.yul\":13798:14151   */\n      swap3\n      swap2\n      pop\n      pop\n      jump\t// out\n        /* \"#utility.yul\":14157:14267   */\n    tag_413:\n        /* \"#utility.yul\":14241:14242   */\n      0x03\n        /* \"#utility.yul\":14234:14239   */\n      dup2\n        /* \"#utility.yul\":14231:14243   */\n      lt\n        /* \"#utility.yul\":14221:14261   */\n      tag_628\n      jumpi\n        /* \"#utility.yul\":14257:14258   */\n      0x00\n        /* \"#utility.yul\":14254:14255   */\n      dup1\n        /* \"#utility.yul\":14247:14259   */\n      revert\n        /* \"#utility.yul\":14221:14261   */\n    tag_628:\n        /* \"#utility.yul\":14157:14267   */\n      pop\n      jump\t// out\n        /* \"#utility.yul\":14273:14434   */\n    tag_414:\n        /* \"#utility.yul\":14330:14335   */\n      0x00\n        /* \"#utility.yul\":14368:14374   */\n      dup2\n        /* \"#utility.yul\":14355:14375   */\n      calldataload\n        /* \"#utility.yul\":14346:14375   */\n      swap1\n      pop\n        /* \"#utility.yul\":14384:14428   */\n      tag_630\n        /* \"#utility.yul\":14422:14427   */\n      dup2\n        /* \"#utility.yul\":14384:14428   */\n      tag_413\n      jump\t// in\n    tag_630:\n        /* \"#utility.yul\":14273:14434   */\n      swap3\n      swap2\n      pop\n      pop\n      jump\t// out\n        /* \"#utility.yul\":14440:15733   */\n    tag_58:\n        /* \"#utility.yul\":14566:14572   */\n      0x00\n        /* \"#utility.yul\":14574:14580   */\n      dup1\n        /* \"#utility.yul\":14582:14588   */\n      0x00\n        /* \"#utility.yul\":14590:14596   */\n      dup1\n        /* \"#utility.yul\":14598:14604   */\n      0x00\n        /* \"#utility.yul\":14647:14650   */\n      0xa0\n        /* \"#utility.yul\":14635:14644   */\n      dup7\n        /* \"#utility.yul\":14626:14633   */\n      dup9\n        /* \"#utility.yul\":14622:14645   */\n      sub\n        /* \"#utility.yul\":14618:14651   */\n      slt\n        /* \"#utility.yul\":14615:14735   */\n      iszero\n      tag_632\n      jumpi\n        /* \"#utility.yul\":14654:14733   */\n      tag_633\n      tag_374\n      jump\t// in\n    tag_633:\n        /* \"#utility.yul\":14615:14735   */\n    tag_632:\n        /* \"#utility.yul\":14802:14803   */\n      0x00\n        /* \"#utility.yul\":14791:14800   */\n      dup7\n        /* \"#utility.yul\":14787:14804   */\n      add\n        /* \"#utility.yul\":14774:14805   */\n      calldataload\n        /* \"#utility.yul\":14832:14850   */\n      0xffffffffffffffff\n        /* \"#utility.yul\":14824:14830   */\n      dup2\n        /* \"#utility.yul\":14821:14851   */\n      gt\n        /* \"#utility.yul\":14818:14935   */\n      iszero\n      tag_634\n      jumpi\n        /* \"#utility.yul\":14854:14933   */\n      tag_635\n      tag_375\n      jump\t// in\n    tag_635:\n        /* \"#utility.yul\":14818:14935   */\n    tag_634:\n        /* \"#utility.yul\":14959:15022   */\n      tag_636\n        /* \"#utility.yul\":15014:15021   */\n      dup9\n        /* \"#utility.yul\":15005:15011   */\n      dup3\n        /* \"#utility.yul\":14994:15003   */\n      dup10\n        /* \"#utility.yul\":14990:15012   */\n      add\n        /* \"#utility.yul\":14959:15022   */\n      tag_388\n      jump\t// in\n    tag_636:\n        /* \"#utility.yul\":14949:15022   */\n      swap6\n      pop\n        /* \"#utility.yul\":14745:15032   */\n      pop\n        /* \"#utility.yul\":15099:15101   */\n      0x20\n        /* \"#utility.yul\":15088:15097   */\n      dup7\n        /* \"#utility.yul\":15084:15102   */\n      add\n        /* \"#utility.yul\":15071:15103   */\n      calldataload\n        /* \"#utility.yul\":15130:15148   */\n      0xffffffffffffffff\n        /* \"#utility.yul\":15122:15128   */\n      dup2\n        /* \"#utility.yul\":15119:15149   */\n      gt\n        /* \"#utility.yul\":15116:15233   */\n      iszero\n      tag_637\n      jumpi\n        /* \"#utility.yul\":15152:15231   */\n      tag_638\n      tag_375\n      jump\t// in\n    tag_638:\n        /* \"#utility.yul\":15116:15233   */\n    tag_637:\n        /* \"#utility.yul\":15257:15320   */\n      tag_639\n        /* \"#utility.yul\":15312:15319   */\n      dup9\n        /* \"#utility.yul\":15303:15309   */\n      dup3\n        /* \"#utility.yul\":15292:15301   */\n      dup10\n        /* \"#utility.yul\":15288:15310   */\n      add\n        /* \"#utility.yul\":15257:15320   */\n      tag_388\n      jump\t// in\n    tag_639:\n        /* \"#utility.yul\":15247:15320   */\n      swap5\n      pop\n        /* \"#utility.yul\":15042:15330   */\n      pop\n        /* \"#utility.yul\":15369:15371   */\n      0x40\n        /* \"#utility.yul\":15395:15459   */\n      tag_640\n        /* \"#utility.yul\":15451:15458   */\n      dup9\n        /* \"#utility.yul\":15442:15448   */\n      dup3\n        /* \"#utility.yul\":15431:15440   */\n      dup10\n        /* \"#utility.yul\":15427:15449   */\n      add\n        /* \"#utility.yul\":15395:15459   */\n      tag_414\n      jump\t// in\n    tag_640:\n        /* \"#utility.yul\":15385:15459   */\n      swap4\n      pop\n        /* \"#utility.yul\":15340:15469   */\n      pop\n        /* \"#utility.yul\":15508:15510   */\n      0x60\n        /* \"#utility.yul\":15534:15587   */\n      tag_641\n        /* \"#utility.yul\":15579:15586   */\n      dup9\n        /* \"#utility.yul\":15570:15576   */\n      dup3\n        /* \"#utility.yul\":15559:15568   */\n      dup10\n        /* \"#utility.yul\":15555:15577   */\n      add\n        /* \"#utility.yul\":15534:15587   */\n      tag_410\n      jump\t// in\n    tag_641:\n        /* \"#utility.yul\":15524:15587   */\n      swap3\n      pop\n        /* \"#utility.yul\":15479:15597   */\n      pop\n        /* \"#utility.yul\":15636:15639   */\n      0x80\n        /* \"#utility.yul\":15663:15716   */\n      tag_642\n        /* \"#utility.yul\":15708:15715   */\n      dup9\n        /* \"#utility.yul\":15699:15705   */\n      dup3\n        /* \"#utility.yul\":15688:15697   */\n      dup10\n        /* \"#utility.yul\":15684:15706   */\n      add\n        /* \"#utility.yul\":15663:15716   */\n      tag_379\n      jump\t// in\n    tag_642:\n        /* \"#utility.yul\":15653:15716   */\n      swap2\n      pop\n        /* \"#utility.yul\":15607:15726   */\n      pop\n        /* \"#utility.yul\":14440:15733   */\n      swap3\n      swap6\n      pop\n      swap3\n      swap6\n      swap1\n      swap4\n      pop\n      jump\t// out\n        /* \"#utility.yul\":15739:15908   */\n    tag_415:\n        /* \"#utility.yul\":15823:15834   */\n      0x00\n        /* \"#utility.yul\":15857:15863   */\n      dup3\n        /* \"#utility.yul\":15852:15855   */\n      dup3\n        /* \"#utility.yul\":15845:15864   */\n      mstore\n        /* \"#utility.yul\":15897:15901   */\n      0x20\n        /* \"#utility.yul\":15892:15895   */\n      dup3\n        /* \"#utility.yul\":15888:15902   */\n      add\n        /* \"#utility.yul\":15873:15902   */\n      swap1\n      pop\n        /* \"#utility.yul\":15739:15908   */\n      swap3\n      swap2\n      pop\n      pop\n      jump\t// out\n        /* \"#utility.yul\":15914:16291   */\n    tag_416:\n        /* \"#utility.yul\":16002:16005   */\n      0x00\n        /* \"#utility.yul\":16030:16069   */\n      tag_645\n        /* \"#utility.yul\":16063:16068   */\n      dup3\n        /* \"#utility.yul\":16030:16069   */\n      tag_394\n      jump\t// in\n    tag_645:\n        /* \"#utility.yul\":16085:16156   */\n      tag_646\n        /* \"#utility.yul\":16149:16155   */\n      dup2\n        /* \"#utility.yul\":16144:16147   */\n      dup6\n        /* \"#utility.yul\":16085:16156   */\n      tag_415\n      jump\t// in\n    tag_646:\n        /* \"#utility.yul\":16078:16156   */\n      swap4\n      pop\n        /* \"#utility.yul\":16165:16230   */\n      tag_647\n        /* \"#utility.yul\":16223:16229   */\n      dup2\n        /* \"#utility.yul\":16218:16221   */\n      dup6\n        /* \"#utility.yul\":16211:16215   */\n      0x20\n        /* \"#utility.yul\":16204:16209   */\n      dup7\n        /* \"#utility.yul\":16200:16216   */\n      add\n        /* \"#utility.yul\":16165:16230   */\n      tag_396\n      jump\t// in\n    tag_647:\n        /* \"#utility.yul\":16255:16284   */\n      tag_648\n        /* \"#utility.yul\":16277:16283   */\n      dup2\n        /* \"#utility.yul\":16255:16284   */\n      tag_382\n      jump\t// in\n    tag_648:\n        /* \"#utility.yul\":16250:16253   */\n      dup5\n        /* \"#utility.yul\":16246:16285   */\n      add\n        /* \"#utility.yul\":16239:16285   */\n      swap2\n      pop\n        /* \"#utility.yul\":16006:16291   */\n      pop\n        /* \"#utility.yul\":15914:16291   */\n      swap3\n      swap2\n      pop\n      pop\n      jump\t// out\n        /* \"#utility.yul\":16297:16610   */\n    tag_73:\n        /* \"#utility.yul\":16410:16414   */\n      0x00\n        /* \"#utility.yul\":16448:16450   */\n      0x20\n        /* \"#utility.yul\":16437:16446   */\n      dup3\n        /* \"#utility.yul\":16433:16451   */\n      add\n        /* \"#utility.yul\":16425:16451   */\n      swap1\n      pop\n        /* \"#utility.yul\":16497:16506   */\n      dup2\n        /* \"#utility.yul\":16491:16495   */\n      dup2\n        /* \"#utility.yul\":16487:16507   */\n      sub\n        /* \"#utility.yul\":16483:16484   */\n      0x00\n        /* \"#utility.yul\":16472:16481   */\n      dup4\n        /* \"#utility.yul\":16468:16485   */\n      add\n        /* \"#utility.yul\":16461:16508   */\n      mstore\n        /* \"#utility.yul\":16525:16603   */\n      tag_650\n        /* \"#utility.yul\":16598:16602   */\n      dup2\n        /* \"#utility.yul\":16589:16595   */\n      dup5\n        /* \"#utility.yul\":16525:16603   */\n      tag_416\n      jump\t// in\n    tag_650:\n        /* \"#utility.yul\":16517:16603   */\n      swap1\n      pop\n        /* \"#utility.yul\":16297:16610   */\n      swap3\n      swap2\n      pop\n      pop\n      jump\t// out\n        /* \"#utility.yul\":16616:17415   */\n    tag_79:\n        /* \"#utility.yul\":16703:16709   */\n      0x00\n        /* \"#utility.yul\":16711:16717   */\n      dup1\n        /* \"#utility.yul\":16719:16725   */\n      0x00\n        /* \"#utility.yul\":16768:16770   */\n      0x60\n        /* \"#utility.yul\":16756:16765   */\n      dup5\n        /* \"#utility.yul\":16747:16754   */\n      dup7\n        /* \"#utility.yul\":16743:16766   */\n      sub\n        /* \"#utility.yul\":16739:16771   */\n      slt\n        /* \"#utility.yul\":16736:16855   */\n      iszero\n      tag_652\n      jumpi\n        /* \"#utility.yul\":16774:16853   */\n      tag_653\n      tag_374\n      jump\t// in\n    tag_653:\n        /* \"#utility.yul\":16736:16855   */\n    tag_652:\n        /* \"#utility.yul\":16894:16895   */\n      0x00\n        /* \"#utility.yul\":16919:16972   */\n      tag_654\n        /* \"#utility.yul\":16964:16971   */\n      dup7\n        /* \"#utility.yul\":16955:16961   */\n      dup3\n        /* \"#utility.yul\":16944:16953   */\n      dup8\n        /* \"#utility.yul\":16940:16962   */\n      add\n        /* \"#utility.yul\":16919:16972   */\n      tag_379\n      jump\t// in\n    tag_654:\n        /* \"#utility.yul\":16909:16972   */\n      swap4\n      pop\n        /* \"#utility.yul\":16865:16982   */\n      pop\n        /* \"#utility.yul\":17021:17023   */\n      0x20\n        /* \"#utility.yul\":17047:17100   */\n      tag_655\n        /* \"#utility.yul\":17092:17099   */\n      dup7\n        /* \"#utility.yul\":17083:17089   */\n      dup3\n        /* \"#utility.yul\":17072:17081   */\n      dup8\n        /* \"#utility.yul\":17068:17090   */\n      add\n        /* \"#utility.yul\":17047:17100   */\n      tag_379\n      jump\t// in\n    tag_655:\n        /* \"#utility.yul\":17037:17100   */\n      swap3\n      pop\n        /* \"#utility.yul\":16992:17110   */\n      pop\n        /* \"#utility.yul\":17177:17179   */\n      0x40\n        /* \"#utility.yul\":17166:17175   */\n      dup5\n        /* \"#utility.yul\":17162:17180   */\n      add\n        /* \"#utility.yul\":17149:17181   */\n      calldataload\n        /* \"#utility.yul\":17208:17226   */\n      0xffffffffffffffff\n        /* \"#utility.yul\":17200:17206   */\n      dup2\n        /* \"#utility.yul\":17197:17227   */\n      gt\n        /* \"#utility.yul\":17194:17311   */\n      iszero\n      tag_656\n      jumpi\n        /* \"#utility.yul\":17230:17309   */\n      tag_657\n      tag_375\n      jump\t// in\n    tag_657:\n        /* \"#utility.yul\":17194:17311   */\n    tag_656:\n        /* \"#utility.yul\":17335:17398   */\n      tag_658\n        /* \"#utility.yul\":17390:17397   */\n      dup7\n        /* \"#utility.yul\":17381:17387   */\n      dup3\n        /* \"#utility.yul\":17370:17379   */\n      dup8\n        /* \"#utility.yul\":17366:17388   */\n      add\n        /* \"#utility.yul\":17335:17398   */\n      tag_388\n      jump\t// in\n    tag_658:\n        /* \"#utility.yul\":17325:17398   */\n      swap2\n      pop\n        /* \"#utility.yul\":17120:17408   */\n      pop\n        /* \"#utility.yul\":16616:17415   */\n      swap3\n      pop\n      swap3\n      pop\n      swap3\n      jump\t// out\n        /* \"#utility.yul\":17421:17545   */\n    tag_417:\n        /* \"#utility.yul\":17498:17504   */\n      0x00\n        /* \"#utility.yul\":17532:17537   */\n      dup2\n        /* \"#utility.yul\":17526:17538   */\n      mload\n        /* \"#utility.yul\":17516:17538   */\n      swap1\n      pop\n        /* \"#utility.yul\":17421:17545   */\n      swap2\n      swap1\n      pop\n      jump\t// out\n        /* \"#utility.yul\":17551:17745   */\n    tag_418:\n        /* \"#utility.yul\":17660:17671   */\n      0x00\n        /* \"#utility.yul\":17694:17700   */\n      dup3\n        /* \"#utility.yul\":17689:17692   */\n      dup3\n        /* \"#utility.yul\":17682:17701   */\n      mstore\n        /* \"#utility.yul\":17734:17738   */\n      0x20\n        /* \"#utility.yul\":17729:17732   */\n      dup3\n        /* \"#utility.yul\":17725:17739   */\n      add\n        /* \"#utility.yul\":17710:17739   */\n      swap1\n      pop\n        /* \"#utility.yul\":17551:17745   */\n      swap3\n      swap2\n      pop\n      pop\n      jump\t// out\n        /* \"#utility.yul\":17751:17893   */\n    tag_419:\n        /* \"#utility.yul\":17828:17832   */\n      0x00\n        /* \"#utility.yul\":17851:17854   */\n      dup2\n        /* \"#utility.yul\":17843:17854   */\n      swap1\n      pop\n        /* \"#utility.yul\":17881:17885   */\n      0x20\n        /* \"#utility.yul\":17876:17879   */\n      dup3\n        /* \"#utility.yul\":17872:17886   */\n      add\n        /* \"#utility.yul\":17864:17886   */\n      swap1\n      pop\n        /* \"#utility.yul\":17751:17893   */\n      swap2\n      swap1\n      pop\n      jump\t// out\n        /* \"#utility.yul\":17899:18095   */\n    tag_420:\n        /* \"#utility.yul\":17988:17998   */\n      0x00\n        /* \"#utility.yul\":18023:18089   */\n      tag_663\n        /* \"#utility.yul\":18085:18088   */\n      dup4\n        /* \"#utility.yul\":18077:18083   */\n      dup4\n        /* \"#utility.yul\":18023:18089   */\n      tag_397\n      jump\t// in\n    tag_663:\n        /* \"#utility.yul\":18009:18089   */\n      swap1\n      pop\n        /* \"#utility.yul\":17899:18095   */\n      swap3\n      swap2\n      pop\n      pop\n      jump\t// out\n        /* \"#utility.yul\":18101:18224   */\n    tag_421:\n        /* \"#utility.yul\":18181:18185   */\n      0x00\n        /* \"#utility.yul\":18213:18217   */\n      0x20\n        /* \"#utility.yul\":18208:18211   */\n      dup3\n        /* \"#utility.yul\":18204:18218   */\n      add\n        /* \"#utility.yul\":18196:18218   */\n      swap1\n      pop\n        /* \"#utility.yul\":18101:18224   */\n      swap2\n      swap1\n      pop\n      jump\t// out\n        /* \"#utility.yul\":18258:19249   */\n    tag_422:\n        /* \"#utility.yul\":18397:18400   */\n      0x00\n        /* \"#utility.yul\":18426:18490   */\n      tag_666\n        /* \"#utility.yul\":18484:18489   */\n      dup3\n        /* \"#utility.yul\":18426:18490   */\n      tag_417\n      jump\t// in\n    tag_666:\n        /* \"#utility.yul\":18506:18602   */\n      tag_667\n        /* \"#utility.yul\":18595:18601   */\n      dup2\n        /* \"#utility.yul\":18590:18593   */\n      dup6\n        /* \"#utility.yul\":18506:18602   */\n      tag_418\n      jump\t// in\n    tag_667:\n        /* \"#utility.yul\":18499:18602   */\n      swap4\n      pop\n        /* \"#utility.yul\":18628:18631   */\n      dup4\n        /* \"#utility.yul\":18673:18677   */\n      0x20\n        /* \"#utility.yul\":18665:18671   */\n      dup3\n        /* \"#utility.yul\":18661:18678   */\n      mul\n        /* \"#utility.yul\":18656:18659   */\n      dup6\n        /* \"#utility.yul\":18652:18679   */\n      add\n        /* \"#utility.yul\":18703:18769   */\n      tag_668\n        /* \"#utility.yul\":18763:18768   */\n      dup6\n        /* \"#utility.yul\":18703:18769   */\n      tag_419\n      jump\t// in\n    tag_668:\n        /* \"#utility.yul\":18792:18799   */\n      dup1\n        /* \"#utility.yul\":18823:18824   */\n      0x00\n        /* \"#utility.yul\":18808:19204   */\n    tag_669:\n        /* \"#utility.yul\":18833:18839   */\n      dup6\n        /* \"#utility.yul\":18830:18831   */\n      dup2\n        /* \"#utility.yul\":18827:18840   */\n      lt\n        /* \"#utility.yul\":18808:19204   */\n      iszero\n      tag_671\n      jumpi\n        /* \"#utility.yul\":18904:18913   */\n      dup5\n        /* \"#utility.yul\":18898:18902   */\n      dup5\n        /* \"#utility.yul\":18894:18914   */\n      sub\n        /* \"#utility.yul\":18889:18892   */\n      dup10\n        /* \"#utility.yul\":18882:18915   */\n      mstore\n        /* \"#utility.yul\":18955:18961   */\n      dup2\n        /* \"#utility.yul\":18949:18962   */\n      mload\n        /* \"#utility.yul\":18983:19067   */\n      tag_672\n        /* \"#utility.yul\":19062:19066   */\n      dup6\n        /* \"#utility.yul\":19047:19060   */\n      dup3\n        /* \"#utility.yul\":18983:19067   */\n      tag_420\n      jump\t// in\n    tag_672:\n        /* \"#utility.yul\":18975:19067   */\n      swap5\n      pop\n        /* \"#utility.yul\":19090:19160   */\n      tag_673\n        /* \"#utility.yul\":19153:19159   */\n      dup4\n        /* \"#utility.yul\":19090:19160   */\n      tag_421\n      jump\t// in\n    tag_673:\n        /* \"#utility.yul\":19080:19160   */\n      swap3\n      pop\n        /* \"#utility.yul\":19189:19193   */\n      0x20\n        /* \"#utility.yul\":19184:19187   */\n      dup11\n        /* \"#utility.yul\":19180:19194   */\n      add\n        /* \"#utility.yul\":19173:19194   */\n      swap10\n      pop\n        /* \"#utility.yul\":18868:19204   */\n      pop\n        /* \"#utility.yul\":18855:18856   */\n      0x01\n        /* \"#utility.yul\":18852:18853   */\n      dup2\n        /* \"#utility.yul\":18848:18857   */\n      add\n        /* \"#utility.yul\":18843:18857   */\n      swap1\n      pop\n        /* \"#utility.yul\":18808:19204   */\n      jump(tag_669)\n    tag_671:\n        /* \"#utility.yul\":18812:18826   */\n      pop\n        /* \"#utility.yul\":19220:19224   */\n      dup3\n        /* \"#utility.yul\":19213:19224   */\n      swap8\n      pop\n        /* \"#utility.yul\":19240:19243   */\n      dup8\n        /* \"#utility.yul\":19233:19243   */\n      swap6\n      pop\n        /* \"#utility.yul\":18402:19249   */\n      pop\n      pop\n      pop\n      pop\n      pop\n        /* \"#utility.yul\":18258:19249   */\n      swap3\n      swap2\n      pop\n      pop\n      jump\t// out\n        /* \"#utility.yul\":19255:19668   */\n    tag_85:\n        /* \"#utility.yul\":19418:19422   */\n      0x00\n        /* \"#utility.yul\":19456:19458   */\n      0x20\n        /* \"#utility.yul\":19445:19454   */\n      dup3\n        /* \"#utility.yul\":19441:19459   */\n      add\n        /* \"#utility.yul\":19433:19459   */\n      swap1\n      pop\n        /* \"#utility.yul\":19505:19514   */\n      dup2\n        /* \"#utility.yul\":19499:19503   */\n      dup2\n        /* \"#utility.yul\":19495:19515   */\n      sub\n        /* \"#utility.yul\":19491:19492   */\n      0x00\n        /* \"#utility.yul\":19480:19489   */\n      dup4\n        /* \"#utility.yul\":19476:19493   */\n      add\n        /* \"#utility.yul\":19469:19516   */\n      mstore\n        /* \"#utility.yul\":19533:19661   */\n      tag_675\n        /* \"#utility.yul\":19656:19660   */\n      dup2\n        /* \"#utility.yul\":19647:19653   */\n      dup5\n        /* \"#utility.yul\":19533:19661   */\n      tag_422\n      jump\t// in\n    tag_675:\n        /* \"#utility.yul\":19525:19661   */\n      swap1\n      pop\n        /* \"#utility.yul\":19255:19668   */\n      swap3\n      swap2\n      pop\n      pop\n      jump\t// out\n        /* \"#utility.yul\":19674:19854   */\n    tag_423:\n        /* \"#utility.yul\":19722:19799   */\n      0x4e487b7100000000000000000000000000000000000000000000000000000000\n        /* \"#utility.yul\":19719:19720   */\n      0x00\n        /* \"#utility.yul\":19712:19800   */\n      mstore\n        /* \"#utility.yul\":19819:19823   */\n      0x22\n        /* \"#utility.yul\":19816:19817   */\n      0x04\n        /* \"#utility.yul\":19809:19824   */\n      mstore\n        /* \"#utility.yul\":19843:19847   */\n      0x24\n        /* \"#utility.yul\":19840:19841   */\n      0x00\n        /* \"#utility.yul\":19833:19848   */\n      revert\n        /* \"#utility.yul\":19860:20180   */\n    tag_130:\n        /* \"#utility.yul\":19904:19910   */\n      0x00\n        /* \"#utility.yul\":19941:19942   */\n      0x02\n        /* \"#utility.yul\":19935:19939   */\n      dup3\n        /* \"#utility.yul\":19931:19943   */\n      div\n        /* \"#utility.yul\":19921:19943   */\n      swap1\n      pop\n        /* \"#utility.yul\":19988:19989   */\n      0x01\n        /* \"#utility.yul\":19982:19986   */\n      dup3\n        /* \"#utility.yul\":19978:19990   */\n      and\n        /* \"#utility.yul\":20009:20027   */\n      dup1\n        /* \"#utility.yul\":19999:20080   */\n      tag_678\n      jumpi\n        /* \"#utility.yul\":20065:20069   */\n      0x7f\n        /* \"#utility.yul\":20057:20063   */\n      dup3\n        /* \"#utility.yul\":20053:20070   */\n      and\n        /* \"#utility.yul\":20043:20070   */\n      swap2\n      pop\n        /* \"#utility.yul\":19999:20080   */\n    tag_678:\n        /* \"#utility.yul\":20127:20129   */\n      0x20\n        /* \"#utility.yul\":20119:20125   */\n      dup3\n        /* \"#utility.yul\":20116:20130   */\n      lt\n        /* \"#utility.yul\":20096:20114   */\n      dup2\n        /* \"#utility.yul\":20093:20131   */\n      sub\n        /* \"#utility.yul\":20090:20174   */\n      tag_679\n      jumpi\n        /* \"#utility.yul\":20146:20164   */\n      tag_680\n      tag_423\n      jump\t// in\n    tag_680:\n        /* \"#utility.yul\":20090:20174   */\n    tag_679:\n        /* \"#utility.yul\":19911:20180   */\n      pop\n        /* \"#utility.yul\":19860:20180   */\n      swap2\n      swap1\n      pop\n      jump\t// out\n        /* \"#utility.yul\":20186:20333   */\n    tag_424:\n        /* \"#utility.yul\":20287:20298   */\n      0x00\n        /* \"#utility.yul\":20324:20327   */\n      dup2\n        /* \"#utility.yul\":20309:20327   */\n      swap1\n      pop\n        /* \"#utility.yul\":20186:20333   */\n      swap3\n      swap2\n      pop\n      pop\n      jump\t// out\n        /* \"#utility.yul\":20339:20483   */\n    tag_425:\n        /* \"#utility.yul\":20391:20395   */\n      0x00\n        /* \"#utility.yul\":20414:20417   */\n      dup2\n        /* \"#utility.yul\":20406:20417   */\n      swap1\n      pop\n        /* \"#utility.yul\":20437:20440   */\n      dup2\n        /* \"#utility.yul\":20434:20435   */\n      0x00\n        /* \"#utility.yul\":20427:20441   */\n      mstore\n        /* \"#utility.yul\":20471:20475   */\n      0x20\n        /* \"#utility.yul\":20468:20469   */\n      0x00\n        /* \"#utility.yul\":20458:20476   */\n      keccak256\n        /* \"#utility.yul\":20450:20476   */\n      swap1\n      pop\n        /* \"#utility.yul\":20339:20483   */\n      swap2\n      swap1\n      pop\n      jump\t// out\n        /* \"#utility.yul\":20511:21389   */\n    tag_426:\n        /* \"#utility.yul\":20616:20619   */\n      0x00\n        /* \"#utility.yul\":20653:20658   */\n      dup2\n        /* \"#utility.yul\":20647:20659   */\n      sload\n        /* \"#utility.yul\":20682:20718   */\n      tag_684\n        /* \"#utility.yul\":20708:20717   */\n      dup2\n        /* \"#utility.yul\":20682:20718   */\n      tag_130\n      jump\t// in\n    tag_684:\n        /* \"#utility.yul\":20734:20822   */\n      tag_685\n        /* \"#utility.yul\":20815:20821   */\n      dup2\n        /* \"#utility.yul\":20810:20813   */\n      dup7\n        /* \"#utility.yul\":20734:20822   */\n      tag_424\n      jump\t// in\n    tag_685:\n        /* \"#utility.yul\":20727:20822   */\n      swap5\n      pop\n        /* \"#utility.yul\":20853:20854   */\n      0x01\n        /* \"#utility.yul\":20842:20851   */\n      dup3\n        /* \"#utility.yul\":20838:20855   */\n      and\n        /* \"#utility.yul\":20869:20870   */\n      0x00\n        /* \"#utility.yul\":20864:21030   */\n      dup2\n      eq\n      tag_687\n      jumpi\n        /* \"#utility.yul\":21044:21045   */\n      0x01\n        /* \"#utility.yul\":21039:21383   */\n      dup2\n      eq\n      tag_688\n      jumpi\n        /* \"#utility.yul\":20831:21383   */\n      jump(tag_686)\n        /* \"#utility.yul\":20864:21030   */\n    tag_687:\n        /* \"#utility.yul\":20948:20952   */\n      0xff\n        /* \"#utility.yul\":20944:20953   */\n      not\n        /* \"#utility.yul\":20933:20942   */\n      dup4\n        /* \"#utility.yul\":20929:20954   */\n      and\n        /* \"#utility.yul\":20924:20927   */\n      dup7\n        /* \"#utility.yul\":20917:20955   */\n      mstore\n        /* \"#utility.yul\":21010:21016   */\n      dup2\n        /* \"#utility.yul\":21003:21017   */\n      iszero\n        /* \"#utility.yul\":20996:21018   */\n      iszero\n        /* \"#utility.yul\":20988:20994   */\n      dup3\n        /* \"#utility.yul\":20984:21019   */\n      mul\n        /* \"#utility.yul\":20979:20982   */\n      dup7\n        /* \"#utility.yul\":20975:21020   */\n      add\n        /* \"#utility.yul\":20968:21020   */\n      swap4\n      pop\n        /* \"#utility.yul\":20864:21030   */\n      jump(tag_686)\n        /* \"#utility.yul\":21039:21383   */\n    tag_688:\n        /* \"#utility.yul\":21106:21147   */\n      tag_689\n        /* \"#utility.yul\":21141:21146   */\n      dup6\n        /* \"#utility.yul\":21106:21147   */\n      tag_425\n      jump\t// in\n    tag_689:\n        /* \"#utility.yul\":21169:21170   */\n      0x00\n        /* \"#utility.yul\":21183:21337   */\n    tag_690:\n        /* \"#utility.yul\":21197:21203   */\n      dup4\n        /* \"#utility.yul\":21194:21195   */\n      dup2\n        /* \"#utility.yul\":21191:21204   */\n      lt\n        /* \"#utility.yul\":21183:21337   */\n      iszero\n      tag_692\n      jumpi\n        /* \"#utility.yul\":21271:21278   */\n      dup2\n        /* \"#utility.yul\":21265:21279   */\n      sload\n        /* \"#utility.yul\":21261:21262   */\n      dup2\n        /* \"#utility.yul\":21256:21259   */\n      dup10\n        /* \"#utility.yul\":21252:21263   */\n      add\n        /* \"#utility.yul\":21245:21280   */\n      mstore\n        /* \"#utility.yul\":21321:21322   */\n      0x01\n        /* \"#utility.yul\":21312:21319   */\n      dup3\n        /* \"#utility.yul\":21308:21323   */\n      add\n        /* \"#utility.yul\":21297:21323   */\n      swap2\n      pop\n        /* \"#utility.yul\":21219:21223   */\n      0x20\n        /* \"#utility.yul\":21216:21217   */\n      dup2\n        /* \"#utility.yul\":21212:21224   */\n      add\n        /* \"#utility.yul\":21207:21224   */\n      swap1\n      pop\n        /* \"#utility.yul\":21183:21337   */\n      jump(tag_690)\n    tag_692:\n        /* \"#utility.yul\":21366:21372   */\n      dup4\n        /* \"#utility.yul\":21361:21364   */\n      dup9\n        /* \"#utility.yul\":21357:21373   */\n      add\n        /* \"#utility.yul\":21350:21373   */\n      swap6\n      pop\n        /* \"#utility.yul\":21046:21383   */\n      pop\n      pop\n        /* \"#utility.yul\":20831:21383   */\n    tag_686:\n      pop\n        /* \"#utility.yul\":20620:21389   */\n      pop\n      pop\n        /* \"#utility.yul\":20511:21389   */\n      swap3\n      swap2\n      pop\n      pop\n      jump\t// out\n        /* \"#utility.yul\":21395:21668   */\n    tag_88:\n        /* \"#utility.yul\":21526:21529   */\n      0x00\n        /* \"#utility.yul\":21548:21642   */\n      tag_694\n        /* \"#utility.yul\":21638:21641   */\n      dup3\n        /* \"#utility.yul\":21629:21635   */\n      dup5\n        /* \"#utility.yul\":21548:21642   */\n      tag_426\n      jump\t// in\n    tag_694:\n        /* \"#utility.yul\":21541:21642   */\n      swap2\n      pop\n        /* \"#utility.yul\":21659:21662   */\n      dup2\n        /* \"#utility.yul\":21652:21662   */\n      swap1\n      pop\n        /* \"#utility.yul\":21395:21668   */\n      swap3\n      swap2\n      pop\n      pop\n      jump\t// out\n        /* \"#utility.yul\":21674:21843   */\n    tag_427:\n        /* \"#utility.yul\":21814:21835   */\n      0x556e617574686f72697a656420616374696f6e00000000000000000000000000\n        /* \"#utility.yul\":21810:21811   */\n      0x00\n        /* \"#utility.yul\":21802:21808   */\n      dup3\n        /* \"#utility.yul\":21798:21812   */\n      add\n        /* \"#utility.yul\":21791:21836   */\n      mstore\n        /* \"#utility.yul\":21674:21843   */\n      pop\n      jump\t// out\n        /* \"#utility.yul\":21849:22215   */\n    tag_428:\n        /* \"#utility.yul\":21991:21994   */\n      0x00\n        /* \"#utility.yul\":22012:22079   */\n      tag_697\n        /* \"#utility.yul\":22076:22078   */\n      0x13\n        /* \"#utility.yul\":22071:22074   */\n      dup4\n        /* \"#utility.yul\":22012:22079   */\n      tag_415\n      jump\t// in\n    tag_697:\n        /* \"#utility.yul\":22005:22079   */\n      swap2\n      pop\n        /* \"#utility.yul\":22088:22181   */\n      tag_698\n        /* \"#utility.yul\":22177:22180   */\n      dup3\n        /* \"#utility.yul\":22088:22181   */\n      tag_427\n      jump\t// in\n    tag_698:\n        /* \"#utility.yul\":22206:22208   */\n      0x20\n        /* \"#utility.yul\":22201:22204   */\n      dup3\n        /* \"#utility.yul\":22197:22209   */\n      add\n        /* \"#utility.yul\":22190:22209   */\n      swap1\n      pop\n        /* \"#utility.yul\":21849:22215   */\n      swap2\n      swap1\n      pop\n      jump\t// out\n        /* \"#utility.yul\":22221:22640   */\n    tag_91:\n        /* \"#utility.yul\":22387:22391   */\n      0x00\n        /* \"#utility.yul\":22425:22427   */\n      0x20\n        /* \"#utility.yul\":22414:22423   */\n      dup3\n        /* \"#utility.yul\":22410:22428   */\n      add\n        /* \"#utility.yul\":22402:22428   */\n      swap1\n      pop\n        /* \"#utility.yul\":22474:22483   */\n      dup2\n        /* \"#utility.yul\":22468:22472   */\n      dup2\n        /* \"#utility.yul\":22464:22484   */\n      sub\n        /* \"#utility.yul\":22460:22461   */\n      0x00\n        /* \"#utility.yul\":22449:22458   */\n      dup4\n        /* \"#utility.yul\":22445:22462   */\n      add\n        /* \"#utility.yul\":22438:22485   */\n      mstore\n        /* \"#utility.yul\":22502:22633   */\n      tag_700\n        /* \"#utility.yul\":22628:22632   */\n      dup2\n        /* \"#utility.yul\":22502:22633   */\n      tag_428\n      jump\t// in\n    tag_700:\n        /* \"#utility.yul\":22494:22633   */\n      swap1\n      pop\n        /* \"#utility.yul\":22221:22640   */\n      swap2\n      swap1\n      pop\n      jump\t// out\n        /* \"#utility.yul\":22646:22871   */\n    tag_429:\n        /* \"#utility.yul\":22786:22820   */\n      0x4e6f206578697374696e672044494420666f756e6420666f7220746869732061\n        /* \"#utility.yul\":22782:22783   */\n      0x00\n        /* \"#utility.yul\":22774:22780   */\n      dup3\n        /* \"#utility.yul\":22770:22784   */\n      add\n        /* \"#utility.yul\":22763:22821   */\n      mstore\n        /* \"#utility.yul\":22855:22863   */\n      0x6464726573730000000000000000000000000000000000000000000000000000\n        /* \"#utility.yul\":22850:22852   */\n      0x20\n        /* \"#utility.yul\":22842:22848   */\n      dup3\n        /* \"#utility.yul\":22838:22853   */\n      add\n        /* \"#utility.yul\":22831:22864   */\n      mstore\n        /* \"#utility.yul\":22646:22871   */\n      pop\n      jump\t// out\n        /* \"#utility.yul\":22877:23243   */\n    tag_430:\n        /* \"#utility.yul\":23019:23022   */\n      0x00\n        /* \"#utility.yul\":23040:23107   */\n      tag_703\n        /* \"#utility.yul\":23104:23106   */\n      0x26\n        /* \"#utility.yul\":23099:23102   */\n      dup4\n        /* \"#utility.yul\":23040:23107   */\n      tag_415\n      jump\t// in\n    tag_703:\n        /* \"#utility.yul\":23033:23107   */\n      swap2\n      pop\n        /* \"#utility.yul\":23116:23209   */\n      tag_704\n        /* \"#utility.yul\":23205:23208   */\n      dup3\n        /* \"#utility.yul\":23116:23209   */\n      tag_429\n      jump\t// in\n    tag_704:\n        /* \"#utility.yul\":23234:23236   */\n      0x40\n        /* \"#utility.yul\":23229:23232   */\n      dup3\n        /* \"#utility.yul\":23225:23237   */\n      add\n        /* \"#utility.yul\":23218:23237   */\n      swap1\n      pop\n        /* \"#utility.yul\":22877:23243   */\n      swap2\n      swap1\n      pop\n      jump\t// out\n        /* \"#utility.yul\":23249:23668   */\n    tag_95:\n        /* \"#utility.yul\":23415:23419   */\n      0x00\n        /* \"#utility.yul\":23453:23455   */\n      0x20\n        /* \"#utility.yul\":23442:23451   */\n      dup3\n        /* \"#utility.yul\":23438:23456   */\n      add\n        /* \"#utility.yul\":23430:23456   */\n      swap1\n      pop\n        /* \"#utility.yul\":23502:23511   */\n      dup2\n        /* \"#utility.yul\":23496:23500   */\n      dup2\n        /* \"#utility.yul\":23492:23512   */\n      sub\n        /* \"#utility.yul\":23488:23489   */\n      0x00\n        /* \"#utility.yul\":23477:23486   */\n      dup4\n        /* \"#utility.yul\":23473:23490   */\n      add\n        /* \"#utility.yul\":23466:23513   */\n      mstore\n        /* \"#utility.yul\":23530:23661   */\n      tag_706\n        /* \"#utility.yul\":23656:23660   */\n      dup2\n        /* \"#utility.yul\":23530:23661   */\n      tag_430\n      jump\t// in\n    tag_706:\n        /* \"#utility.yul\":23522:23661   */\n      swap1\n      pop\n        /* \"#utility.yul\":23249:23668   */\n      swap2\n      swap1\n      pop\n      jump\t// out\n        /* \"#utility.yul\":23674:23844   */\n    tag_431:\n        /* \"#utility.yul\":23814:23836   */\n      0x526f6c652063616e6e6f7420626520656d707479000000000000000000000000\n        /* \"#utility.yul\":23810:23811   */\n      0x00\n        /* \"#utility.yul\":23802:23808   */\n      dup3\n        /* \"#utility.yul\":23798:23812   */\n      add\n        /* \"#utility.yul\":23791:23837   */\n      mstore\n        /* \"#utility.yul\":23674:23844   */\n      pop\n      jump\t// out\n        /* \"#utility.yul\":23850:24216   */\n    tag_432:\n        /* \"#utility.yul\":23992:23995   */\n      0x00\n        /* \"#utility.yul\":24013:24080   */\n      tag_709\n        /* \"#utility.yul\":24077:24079   */\n      0x14\n        /* \"#utility.yul\":24072:24075   */\n      dup4\n        /* \"#utility.yul\":24013:24080   */\n      tag_415\n      jump\t// in\n    tag_709:\n        /* \"#utility.yul\":24006:24080   */\n      swap2\n      pop\n        /* \"#utility.yul\":24089:24182   */\n      tag_710\n        /* \"#utility.yul\":24178:24181   */\n      dup3\n        /* \"#utility.yul\":24089:24182   */\n      tag_431\n      jump\t// in\n    tag_710:\n        /* \"#utility.yul\":24207:24209   */\n      0x20\n        /* \"#utility.yul\":24202:24205   */\n      dup3\n        /* \"#utility.yul\":24198:24210   */\n      add\n        /* \"#utility.yul\":24191:24210   */\n      swap1\n      pop\n        /* \"#utility.yul\":23850:24216   */\n      swap2\n      swap1\n      pop\n      jump\t// out\n        /* \"#utility.yul\":24222:24641   */\n    tag_98:\n        /* \"#utility.yul\":24388:24392   */\n      0x00\n        /* \"#utility.yul\":24426:24428   */\n      0x20\n        /* \"#utility.yul\":24415:24424   */\n      dup3\n        /* \"#utility.yul\":24411:24429   */\n      add\n        /* \"#utility.yul\":24403:24429   */\n      swap1\n      pop\n        /* \"#utility.yul\":24475:24484   */\n      dup2\n        /* \"#utility.yul\":24469:24473   */\n      dup2\n        /* \"#utility.yul\":24465:24485   */\n      sub\n        /* \"#utility.yul\":24461:24462   */\n      0x00\n        /* \"#utility.yul\":24450:24459   */\n      dup4\n        /* \"#utility.yul\":24446:24463   */\n      add\n        /* \"#utility.yul\":24439:24486   */\n      mstore\n        /* \"#utility.yul\":24503:24634   */\n      tag_712\n        /* \"#utility.yul\":24629:24633   */\n      dup2\n        /* \"#utility.yul\":24503:24634   */\n      tag_432\n      jump\t// in\n    tag_712:\n        /* \"#utility.yul\":24495:24634   */\n      swap1\n      pop\n        /* \"#utility.yul\":24222:24641   */\n      swap2\n      swap1\n      pop\n      jump\t// out\n        /* \"#utility.yul\":24647:24741   */\n    tag_433:\n        /* \"#utility.yul\":24680:24688   */\n      0x00\n        /* \"#utility.yul\":24728:24733   */\n      dup2\n        /* \"#utility.yul\":24724:24726   */\n      0x60\n        /* \"#utility.yul\":24720:24734   */\n      shl\n        /* \"#utility.yul\":24699:24734   */\n      swap1\n      pop\n        /* \"#utility.yul\":24647:24741   */\n      swap2\n      swap1\n      pop\n      jump\t// out\n        /* \"#utility.yul\":24747:24841   */\n    tag_434:\n        /* \"#utility.yul\":24786:24793   */\n      0x00\n        /* \"#utility.yul\":24815:24835   */\n      tag_715\n        /* \"#utility.yul\":24829:24834   */\n      dup3\n        /* \"#utility.yul\":24815:24835   */\n      tag_433\n      jump\t// in\n    tag_715:\n        /* \"#utility.yul\":24804:24835   */\n      swap1\n      pop\n        /* \"#utility.yul\":24747:24841   */\n      swap2\n      swap1\n      pop\n      jump\t// out\n        /* \"#utility.yul\":24847:24947   */\n    tag_435:\n        /* \"#utility.yul\":24886:24893   */\n      0x00\n        /* \"#utility.yul\":24915:24941   */\n      tag_717\n        /* \"#utility.yul\":24935:24940   */\n      dup3\n        /* \"#utility.yul\":24915:24941   */\n      tag_434\n      jump\t// in\n    tag_717:\n        /* \"#utility.yul\":24904:24941   */\n      swap1\n      pop\n        /* \"#utility.yul\":24847:24947   */\n      swap2\n      swap1\n      pop\n      jump\t// out\n        /* \"#utility.yul\":24953:25110   */\n    tag_436:\n        /* \"#utility.yul\":25058:25103   */\n      tag_719\n        /* \"#utility.yul\":25078:25102   */\n      tag_720\n        /* \"#utility.yul\":25096:25101   */\n      dup3\n        /* \"#utility.yul\":25078:25102   */\n      tag_377\n      jump\t// in\n    tag_720:\n        /* \"#utility.yul\":25058:25103   */\n      tag_435\n      jump\t// in\n    tag_719:\n        /* \"#utility.yul\":25053:25056   */\n      dup3\n        /* \"#utility.yul\":25046:25104   */\n      mstore\n        /* \"#utility.yul\":24953:25110   */\n      pop\n      pop\n      jump\t// out\n        /* \"#utility.yul\":25116:25264   */\n    tag_437:\n        /* \"#utility.yul\":25218:25229   */\n      0x00\n        /* \"#utility.yul\":25255:25258   */\n      dup2\n        /* \"#utility.yul\":25240:25258   */\n      swap1\n      pop\n        /* \"#utility.yul\":25116:25264   */\n      swap3\n      swap2\n      pop\n      pop\n      jump\t// out\n        /* \"#utility.yul\":25270:25660   */\n    tag_438:\n        /* \"#utility.yul\":25376:25379   */\n      0x00\n        /* \"#utility.yul\":25404:25443   */\n      tag_723\n        /* \"#utility.yul\":25437:25442   */\n      dup3\n        /* \"#utility.yul\":25404:25443   */\n      tag_394\n      jump\t// in\n    tag_723:\n        /* \"#utility.yul\":25459:25548   */\n      tag_724\n        /* \"#utility.yul\":25541:25547   */\n      dup2\n        /* \"#utility.yul\":25536:25539   */\n      dup6\n        /* \"#utility.yul\":25459:25548   */\n      tag_437\n      jump\t// in\n    tag_724:\n        /* \"#utility.yul\":25452:25548   */\n      swap4\n      pop\n        /* \"#utility.yul\":25557:25622   */\n      tag_725\n        /* \"#utility.yul\":25615:25621   */\n      dup2\n        /* \"#utility.yul\":25610:25613   */\n      dup6\n        /* \"#utility.yul\":25603:25607   */\n      0x20\n        /* \"#utility.yul\":25596:25601   */\n      dup7\n        /* \"#utility.yul\":25592:25608   */\n      add\n        /* \"#utility.yul\":25557:25622   */\n      tag_396\n      jump\t// in\n    tag_725:\n        /* \"#utility.yul\":25647:25653   */\n      dup1\n        /* \"#utility.yul\":25642:25645   */\n      dup5\n        /* \"#utility.yul\":25638:25654   */\n      add\n        /* \"#utility.yul\":25631:25654   */\n      swap2\n      pop\n        /* \"#utility.yul\":25380:25660   */\n      pop\n        /* \"#utility.yul\":25270:25660   */\n      swap3\n      swap2\n      pop\n      pop\n      jump\t// out\n        /* \"#utility.yul\":25666:25745   */\n    tag_439:\n        /* \"#utility.yul\":25705:25712   */\n      0x00\n        /* \"#utility.yul\":25734:25739   */\n      dup2\n        /* \"#utility.yul\":25723:25739   */\n      swap1\n      pop\n        /* \"#utility.yul\":25666:25745   */\n      swap2\n      swap1\n      pop\n      jump\t// out\n        /* \"#utility.yul\":25751:25908   */\n    tag_440:\n        /* \"#utility.yul\":25856:25901   */\n      tag_728\n        /* \"#utility.yul\":25876:25900   */\n      tag_729\n        /* \"#utility.yul\":25894:25899   */\n      dup3\n        /* \"#utility.yul\":25876:25900   */\n      tag_392\n      jump\t// in\n    tag_729:\n        /* \"#utility.yul\":25856:25901   */\n      tag_439\n      jump\t// in\n    tag_728:\n        /* \"#utility.yul\":25851:25854   */\n      dup3\n        /* \"#utility.yul\":25844:25902   */\n      mstore\n        /* \"#utility.yul\":25751:25908   */\n      pop\n      pop\n      jump\t// out\n        /* \"#utility.yul\":25914:26612   */\n    tag_100:\n        /* \"#utility.yul\":26130:26133   */\n      0x00\n        /* \"#utility.yul\":26145:26220   */\n      tag_731\n        /* \"#utility.yul\":26216:26219   */\n      dup3\n        /* \"#utility.yul\":26207:26213   */\n      dup8\n        /* \"#utility.yul\":26145:26220   */\n      tag_436\n      jump\t// in\n    tag_731:\n        /* \"#utility.yul\":26245:26247   */\n      0x14\n        /* \"#utility.yul\":26240:26243   */\n      dup3\n        /* \"#utility.yul\":26236:26248   */\n      add\n        /* \"#utility.yul\":26229:26248   */\n      swap2\n      pop\n        /* \"#utility.yul\":26258:26333   */\n      tag_732\n        /* \"#utility.yul\":26329:26332   */\n      dup3\n        /* \"#utility.yul\":26320:26326   */\n      dup7\n        /* \"#utility.yul\":26258:26333   */\n      tag_436\n      jump\t// in\n    tag_732:\n        /* \"#utility.yul\":26358:26360   */\n      0x14\n        /* \"#utility.yul\":26353:26356   */\n      dup3\n        /* \"#utility.yul\":26349:26361   */\n      add\n        /* \"#utility.yul\":26342:26361   */\n      swap2\n      pop\n        /* \"#utility.yul\":26378:26473   */\n      tag_733\n        /* \"#utility.yul\":26469:26472   */\n      dup3\n        /* \"#utility.yul\":26460:26466   */\n      dup6\n        /* \"#utility.yul\":26378:26473   */\n      tag_438\n      jump\t// in\n    tag_733:\n        /* \"#utility.yul\":26371:26473   */\n      swap2\n      pop\n        /* \"#utility.yul\":26483:26558   */\n      tag_734\n        /* \"#utility.yul\":26554:26557   */\n      dup3\n        /* \"#utility.yul\":26545:26551   */\n      dup5\n        /* \"#utility.yul\":26483:26558   */\n      tag_440\n      jump\t// in\n    tag_734:\n        /* \"#utility.yul\":26583:26585   */\n      0x20\n        /* \"#utility.yul\":26578:26581   */\n      dup3\n        /* \"#utility.yul\":26574:26586   */\n      add\n        /* \"#utility.yul\":26567:26586   */\n      swap2\n      pop\n        /* \"#utility.yul\":26603:26606   */\n      dup2\n        /* \"#utility.yul\":26596:26606   */\n      swap1\n      pop\n        /* \"#utility.yul\":25914:26612   */\n      swap6\n      swap5\n      pop\n      pop\n      pop\n      pop\n      pop\n      jump\t// out\n        /* \"#utility.yul\":26618:26759   */\n    tag_441:\n        /* \"#utility.yul\":26667:26671   */\n      0x00\n        /* \"#utility.yul\":26690:26693   */\n      dup2\n        /* \"#utility.yul\":26682:26693   */\n      swap1\n      pop\n        /* \"#utility.yul\":26713:26716   */\n      dup2\n        /* \"#utility.yul\":26710:26711   */\n      0x00\n        /* \"#utility.yul\":26703:26717   */\n      mstore\n        /* \"#utility.yul\":26747:26751   */\n      0x20\n        /* \"#utility.yul\":26744:26745   */\n      0x00\n        /* \"#utility.yul\":26734:26752   */\n      keccak256\n        /* \"#utility.yul\":26726:26752   */\n      swap1\n      pop\n        /* \"#utility.yul\":26618:26759   */\n      swap2\n      swap1\n      pop\n      jump\t// out\n        /* \"#utility.yul\":26765:26858   */\n    tag_442:\n        /* \"#utility.yul\":26802:26808   */\n      0x00\n        /* \"#utility.yul\":26849:26851   */\n      0x20\n        /* \"#utility.yul\":26844:26846   */\n      0x1f\n        /* \"#utility.yul\":26837:26842   */\n      dup4\n        /* \"#utility.yul\":26833:26847   */\n      add\n        /* \"#utility.yul\":26829:26852   */\n      div\n        /* \"#utility.yul\":26819:26852   */\n      swap1\n      pop\n        /* \"#utility.yul\":26765:26858   */\n      swap2\n      swap1\n      pop\n      jump\t// out\n        /* \"#utility.yul\":26864:26971   */\n    tag_443:\n        /* \"#utility.yul\":26908:26916   */\n      0x00\n        /* \"#utility.yul\":26958:26963   */\n      dup3\n        /* \"#utility.yul\":26952:26956   */\n      dup3\n        /* \"#utility.yul\":26948:26964   */\n      shl\n        /* \"#utility.yul\":26927:26964   */\n      swap1\n      pop\n        /* \"#utility.yul\":26864:26971   */\n      swap3\n      swap2\n      pop\n      pop\n      jump\t// out\n        /* \"#utility.yul\":26977:27370   */\n    tag_444:\n        /* \"#utility.yul\":27046:27052   */\n      0x00\n        /* \"#utility.yul\":27096:27097   */\n      0x08\n        /* \"#utility.yul\":27084:27094   */\n      dup4\n        /* \"#utility.yul\":27080:27098   */\n      mul\n        /* \"#utility.yul\":27119:27216   */\n      tag_739\n        /* \"#utility.yul\":27149:27215   */\n      0xffffffffffffffffffffffffffffffffffffffffffffffffffffffffffffffff\n        /* \"#utility.yul\":27138:27147   */\n      dup3\n        /* \"#utility.yul\":27119:27216   */\n      tag_443\n      jump\t// in\n    tag_739:\n        /* \"#utility.yul\":27237:27276   */\n      tag_740\n        /* \"#utility.yul\":27267:27275   */\n      dup7\n        /* \"#utility.yul\":27256:27265   */\n      dup4\n        /* \"#utility.yul\":27237:27276   */\n      tag_443\n      jump\t// in\n    tag_740:\n        /* \"#utility.yul\":27225:27276   */\n      swap6\n      pop\n        /* \"#utility.yul\":27309:27313   */\n      dup1\n        /* \"#utility.yul\":27305:27314   */\n      not\n        /* \"#utility.yul\":27298:27303   */\n      dup5\n        /* \"#utility.yul\":27294:27315   */\n      and\n        /* \"#utility.yul\":27285:27315   */\n      swap4\n      pop\n        /* \"#utility.yul\":27358:27362   */\n      dup1\n        /* \"#utility.yul\":27348:27356   */\n      dup7\n        /* \"#utility.yul\":27344:27363   */\n      and\n        /* \"#utility.yul\":27337:27342   */\n      dup5\n        /* \"#utility.yul\":27334:27364   */\n      or\n        /* \"#utility.yul\":27324:27364   */\n      swap3\n      pop\n        /* \"#utility.yul\":27053:27370   */\n      pop\n      pop\n        /* \"#utility.yul\":26977:27370   */\n      swap4\n      swap3\n      pop\n      pop\n      pop\n      jump\t// out\n        /* \"#utility.yul\":27376:27436   */\n    tag_445:\n        /* \"#utility.yul\":27404:27407   */\n      0x00\n        /* \"#utility.yul\":27425:27430   */\n      dup2\n        /* \"#utility.yul\":27418:27430   */\n      swap1\n      pop\n        /* \"#utility.yul\":27376:27436   */\n      swap2\n      swap1\n      pop\n      jump\t// out\n        /* \"#utility.yul\":27442:27584   */\n    tag_446:\n        /* \"#utility.yul\":27492:27501   */\n      0x00\n        /* \"#utility.yul\":27525:27578   */\n      tag_743\n        /* \"#utility.yul\":27543:27577   */\n      tag_744\n        /* \"#utility.yul\":27552:27576   */\n      tag_745\n        /* \"#utility.yul\":27570:27575   */\n      dup5\n        /* \"#utility.yul\":27552:27576   */\n      tag_392\n      jump\t// in\n    tag_745:\n        /* \"#utility.yul\":27543:27577   */\n      tag_445\n      jump\t// in\n    tag_744:\n        /* \"#utility.yul\":27525:27578   */\n      tag_392\n      jump\t// in\n    tag_743:\n        /* \"#utility.yul\":27512:27578   */\n      swap1\n      pop\n        /* \"#utility.yul\":27442:27584   */\n      swap2\n      swap1\n      pop\n      jump\t// out\n        /* \"#utility.yul\":27590:27665   */\n    tag_447:\n        /* \"#utility.yul\":27633:27636   */\n      0x00\n        /* \"#utility.yul\":27654:27659   */\n      dup2\n        /* \"#utility.yul\":27647:27659   */\n      swap1\n      pop\n        /* \"#utility.yul\":27590:27665   */\n      swap2\n      swap1\n      pop\n      jump\t// out\n        /* \"#utility.yul\":27671:27940   */\n    tag_448:\n        /* \"#utility.yul\":27781:27820   */\n      tag_748\n        /* \"#utility.yul\":27812:27819   */\n      dup4\n        /* \"#utility.yul\":27781:27820   */\n      tag_446\n      jump\t// in\n    tag_748:\n        /* \"#utility.yul\":27842:27933   */\n      tag_749\n        /* \"#utility.yul\":27891:27932   */\n      tag_750\n        /* \"#utility.yul\":27915:27931   */\n      dup3\n        /* \"#utility.yul\":27891:27932   */\n      tag_447\n      jump\t// in\n    tag_750:\n        /* \"#utility.yul\":27883:27889   */\n      dup5\n        /* \"#utility.yul\":27876:27880   */\n      dup5\n        /* \"#utility.yul\":27870:27881   */\n      sload\n        /* \"#utility.yul\":27842:27933   */\n      tag_444\n      jump\t// in\n    tag_749:\n        /* \"#utility.yul\":27836:27840   */\n      dup3\n        /* \"#utility.yul\":27829:27934   */\n      sstore\n        /* \"#utility.yul\":27747:27940   */\n      pop\n        /* \"#utility.yul\":27671:27940   */\n      pop\n      pop\n      pop\n      jump\t// out\n        /* \"#utility.yul\":27946:28019   */\n    tag_449:\n        /* \"#utility.yul\":27991:27994   */\n      0x00\n        /* \"#utility.yul\":27946:28019   */\n      swap1\n      jump\t// out\n        /* \"#utility.yul\":28025:28214   */\n    tag_450:\n        /* \"#utility.yul\":28102:28134   */\n      tag_753\n      tag_449\n      jump\t// in\n    tag_753:\n        /* \"#utility.yul\":28143:28208   */\n      tag_754\n        /* \"#utility.yul\":28201:28207   */\n      dup2\n        /* \"#utility.yul\":28193:28199   */\n      dup5\n        /* \"#utility.yul\":28187:28191   */\n      dup5\n        /* \"#utility.yul\":28143:28208   */\n      tag_448\n      jump\t// in\n    tag_754:\n        /* \"#utility.yul\":28078:28214   */\n      pop\n        /* \"#utility.yul\":28025:28214   */\n      pop\n      pop\n      jump\t// out\n        /* \"#utility.yul\":28220:28406   */\n    tag_451:\n        /* \"#utility.yul\":28280:28400   */\n    tag_756:\n        /* \"#utility.yul\":28297:28300   */\n      dup2\n        /* \"#utility.yul\":28290:28295   */\n      dup2\n        /* \"#utility.yul\":28287:28301   */\n      lt\n        /* \"#utility.yul\":28280:28400   */\n      iszero\n      tag_758\n      jumpi\n        /* \"#utility.yul\":28351:28390   */\n      tag_759\n        /* \"#utility.yul\":28388:28389   */\n      0x00\n        /* \"#utility.yul\":28381:28386   */\n      dup3\n        /* \"#utility.yul\":28351:28390   */\n      tag_450\n      jump\t// in\n    tag_759:\n        /* \"#utility.yul\":28324:28325   */\n      0x01\n        /* \"#utility.yul\":28317:28322   */\n      dup2\n        /* \"#utility.yul\":28313:28326   */\n      add\n        /* \"#utility.yul\":28304:28326   */\n      swap1\n      pop\n        /* \"#utility.yul\":28280:28400   */\n      jump(tag_756)\n    tag_758:\n        /* \"#utility.yul\":28220:28406   */\n      pop\n      pop\n      jump\t// out\n        /* \"#utility.yul\":28412:28955   */\n    tag_452:\n        /* \"#utility.yul\":28513:28515   */\n      0x1f\n        /* \"#utility.yul\":28508:28511   */\n      dup3\n        /* \"#utility.yul\":28505:28516   */\n      gt\n        /* \"#utility.yul\":28502:28948   */\n      iszero\n      tag_761\n      jumpi\n        /* \"#utility.yul\":28547:28585   */\n      tag_762\n        /* \"#utility.yul\":28579:28584   */\n      dup2\n        /* \"#utility.yul\":28547:28585   */\n      tag_441\n      jump\t// in\n    tag_762:\n        /* \"#utility.yul\":28631:28660   */\n      tag_763\n        /* \"#utility.yul\":28649:28659   */\n      dup5\n        /* \"#utility.yul\":28631:28660   */\n      tag_442\n      jump\t// in\n    tag_763:\n        /* \"#utility.yul\":28621:28629   */\n      dup2\n        /* \"#utility.yul\":28617:28661   */\n      add\n        /* \"#utility.yul\":28814:28816   */\n      0x20\n        /* \"#utility.yul\":28802:28812   */\n      dup6\n        /* \"#utility.yul\":28799:28817   */\n      lt\n        /* \"#utility.yul\":28796:28845   */\n      iszero\n      tag_764\n      jumpi\n        /* \"#utility.yul\":28835:28843   */\n      dup2\n        /* \"#utility.yul\":28820:28843   */\n      swap1\n      pop\n        /* \"#utility.yul\":28796:28845   */\n    tag_764:\n        /* \"#utility.yul\":28858:28938   */\n      tag_765\n        /* \"#utility.yul\":28914:28936   */\n      tag_766\n        /* \"#utility.yul\":28932:28935   */\n      dup6\n        /* \"#utility.yul\":28914:28936   */\n      tag_442\n      jump\t// in\n    tag_766:\n        /* \"#utility.yul\":28904:28912   */\n      dup4\n        /* \"#utility.yul\":28900:28937   */\n      add\n        /* \"#utility.yul\":28887:28898   */\n      dup3\n        /* \"#utility.yul\":28858:28938   */\n      tag_451\n      jump\t// in\n    tag_765:\n        /* \"#utility.yul\":28517:28948   */\n      pop\n      pop\n        /* \"#utility.yul\":28502:28948   */\n    tag_761:\n        /* \"#utility.yul\":28412:28955   */\n      pop\n      pop\n      pop\n      jump\t// out\n        /* \"#utility.yul\":28961:29078   */\n    tag_453:\n        /* \"#utility.yul\":29015:29023   */\n      0x00\n        /* \"#utility.yul\":29065:29070   */\n      dup3\n        /* \"#utility.yul\":29059:29063   */\n      dup3\n        /* \"#utility.yul\":29055:29071   */\n      shr\n        /* \"#utility.yul\":29034:29071   */\n      swap1\n      pop\n        /* \"#utility.yul\":28961:29078   */\n      swap3\n      swap2\n      pop\n      pop\n      jump\t// out\n        /* \"#utility.yul\":29084:29253   */\n    tag_454:\n        /* \"#utility.yul\":29128:29134   */\n      0x00\n        /* \"#utility.yul\":29161:29212   */\n      tag_769\n        /* \"#utility.yul\":29209:29210   */\n      0x00\n        /* \"#utility.yul\":29205:29211   */\n      not\n        /* \"#utility.yul\":29197:29202   */\n      dup5\n        /* \"#utility.yul\":29194:29195   */\n      0x08\n        /* \"#utility.yul\":29190:29203   */\n      mul\n        /* \"#utility.yul\":29161:29212   */\n      tag_453\n      jump\t// in\n    tag_769:\n        /* \"#utility.yul\":29157:29213   */\n      not\n        /* \"#utility.yul\":29242:29246   */\n      dup1\n        /* \"#utility.yul\":29236:29240   */\n      dup4\n        /* \"#utility.yul\":29232:29247   */\n      and\n        /* \"#utility.yul\":29222:29247   */\n      swap2\n      pop\n        /* \"#utility.yul\":29135:29253   */\n      pop\n        /* \"#utility.yul\":29084:29253   */\n      swap3\n      swap2\n      pop\n      pop\n      jump\t// out\n        /* \"#utility.yul\":29258:29553   */\n    tag_455:\n        /* \"#utility.yul\":29334:29338   */\n      0x00\n        /* \"#utility.yul\":29480:29509   */\n      tag_771\n        /* \"#utility.yul\":29505:29508   */\n      dup4\n        /* \"#utility.yul\":29499:29503   */\n      dup4\n        /* \"#utility.yul\":29480:29509   */\n      tag_454\n      jump\t// in\n    tag_771:\n        /* \"#utility.yul\":29472:29509   */\n      swap2\n      pop\n        /* \"#utility.yul\":29542:29545   */\n      dup3\n        /* \"#utility.yul\":29539:29540   */\n      0x02\n        /* \"#utility.yul\":29535:29546   */\n      mul\n        /* \"#utility.yul\":29529:29533   */\n      dup3\n        /* \"#utility.yul\":29526:29547   */\n      or\n        /* \"#utility.yul\":29518:29547   */\n      swap1\n      pop\n        /* \"#utility.yul\":29258:29553   */\n      swap3\n      swap2\n      pop\n      pop\n      jump\t// out\n        /* \"#utility.yul\":29558:30953   */\n    tag_103:\n        /* \"#utility.yul\":29675:29712   */\n      tag_773\n        /* \"#utility.yul\":29708:29711   */\n      dup3\n        /* \"#utility.yul\":29675:29712   */\n      tag_394\n      jump\t// in\n    tag_773:\n        /* \"#utility.yul\":29777:29795   */\n      0xffffffffffffffff\n        /* \"#utility.yul\":29769:29775   */\n      dup2\n        /* \"#utility.yul\":29766:29796   */\n      gt\n        /* \"#utility.yul\":29763:29819   */\n      iszero\n      tag_774\n      jumpi\n        /* \"#utility.yul\":29799:29817   */\n      tag_775\n      tag_121\n      jump\t// in\n    tag_775:\n        /* \"#utility.yul\":29763:29819   */\n    tag_774:\n        /* \"#utility.yul\":29843:29881   */\n      tag_776\n        /* \"#utility.yul\":29875:29879   */\n      dup3\n        /* \"#utility.yul\":29869:29880   */\n      sload\n        /* \"#utility.yul\":29843:29881   */\n      tag_130\n      jump\t// in\n    tag_776:\n        /* \"#utility.yul\":29928:29995   */\n      tag_777\n        /* \"#utility.yul\":29988:29994   */\n      dup3\n        /* \"#utility.yul\":29980:29986   */\n      dup3\n        /* \"#utility.yul\":29974:29978   */\n      dup6\n        /* \"#utility.yul\":29928:29995   */\n      tag_452\n      jump\t// in\n    tag_777:\n        /* \"#utility.yul\":30022:30023   */\n      0x00\n        /* \"#utility.yul\":30046:30050   */\n      0x20\n        /* \"#utility.yul\":30033:30050   */\n      swap1\n      pop\n        /* \"#utility.yul\":30078:30080   */\n      0x1f\n        /* \"#utility.yul\":30070:30076   */\n      dup4\n        /* \"#utility.yul\":30067:30081   */\n      gt\n        /* \"#utility.yul\":30095:30096   */\n      0x01\n        /* \"#utility.yul\":30090:30708   */\n      dup2\n      eq\n      tag_779\n      jumpi\n        /* \"#utility.yul\":30752:30753   */\n      0x00\n        /* \"#utility.yul\":30769:30775   */\n      dup5\n        /* \"#utility.yul\":30766:30843   */\n      iszero\n      tag_780\n      jumpi\n        /* \"#utility.yul\":30818:30827   */\n      dup3\n        /* \"#utility.yul\":30813:30816   */\n      dup8\n        /* \"#utility.yul\":30809:30828   */\n      add\n        /* \"#utility.yul\":30803:30829   */\n      mload\n        /* \"#utility.yul\":30794:30829   */\n      swap1\n      pop\n        /* \"#utility.yul\":30766:30843   */\n    tag_780:\n        /* \"#utility.yul\":30869:30936   */\n      tag_781\n        /* \"#utility.yul\":30929:30935   */\n      dup6\n        /* \"#utility.yul\":30922:30927   */\n      dup3\n        /* \"#utility.yul\":30869:30936   */\n      tag_455\n      jump\t// in\n    tag_781:\n        /* \"#utility.yul\":30863:30867   */\n      dup7\n        /* \"#utility.yul\":30856:30937   */\n      sstore\n        /* \"#utility.yul\":30725:30947   */\n      pop\n        /* \"#utility.yul\":30060:30947   */\n      jump(tag_778)\n        /* \"#utility.yul\":30090:30708   */\n    tag_779:\n        /* \"#utility.yul\":30142:30146   */\n      0x1f\n        /* \"#utility.yul\":30138:30147   */\n      not\n        /* \"#utility.yul\":30130:30136   */\n      dup5\n        /* \"#utility.yul\":30126:30148   */\n      and\n        /* \"#utility.yul\":30176:30213   */\n      tag_782\n        /* \"#utility.yul\":30208:30212   */\n      dup7\n        /* \"#utility.yul\":30176:30213   */\n      tag_441\n      jump\t// in\n    tag_782:\n        /* \"#utility.yul\":30235:30236   */\n      0x00\n        /* \"#utility.yul\":30249:30457   */\n    tag_783:\n        /* \"#utility.yul\":30263:30270   */\n      dup3\n        /* \"#utility.yul\":30260:30261   */\n      dup2\n        /* \"#utility.yul\":30257:30271   */\n      lt\n        /* \"#utility.yul\":30249:30457   */\n      iszero\n      tag_785\n      jumpi\n        /* \"#utility.yul\":30342:30351   */\n      dup5\n        /* \"#utility.yul\":30337:30340   */\n      dup10\n        /* \"#utility.yul\":30333:30352   */\n      add\n        /* \"#utility.yul\":30327:30353   */\n      mload\n        /* \"#utility.yul\":30319:30325   */\n      dup3\n        /* \"#utility.yul\":30312:30354   */\n      sstore\n        /* \"#utility.yul\":30393:30394   */\n      0x01\n        /* \"#utility.yul\":30385:30391   */\n      dup3\n        /* \"#utility.yul\":30381:30395   */\n      add\n        /* \"#utility.yul\":30371:30395   */\n      swap2\n      pop\n        /* \"#utility.yul\":30440:30442   */\n      0x20\n        /* \"#utility.yul\":30429:30438   */\n      dup6\n        /* \"#utility.yul\":30425:30443   */\n      add\n        /* \"#utility.yul\":30412:30443   */\n      swap5\n      pop\n        /* \"#utility.yul\":30286:30290   */\n      0x20\n        /* \"#utility.yul\":30283:30284   */\n      dup2\n        /* \"#utility.yul\":30279:30291   */\n      add\n        /* \"#utility.yul\":30274:30291   */\n      swap1\n      pop\n        /* \"#utility.yul\":30249:30457   */\n      jump(tag_783)\n    tag_785:\n        /* \"#utility.yul\":30485:30491   */\n      dup7\n        /* \"#utility.yul\":30476:30483   */\n      dup4\n        /* \"#utility.yul\":30473:30492   */\n      lt\n        /* \"#utility.yul\":30470:30649   */\n      iszero\n      tag_786\n      jumpi\n        /* \"#utility.yul\":30543:30552   */\n      dup5\n        /* \"#utility.yul\":30538:30541   */\n      dup10\n        /* \"#utility.yul\":30534:30553   */\n      add\n        /* \"#utility.yul\":30528:30554   */\n      mload\n        /* \"#utility.yul\":30586:30634   */\n      tag_787\n        /* \"#utility.yul\":30628:30632   */\n      0x1f\n        /* \"#utility.yul\":30620:30626   */\n      dup10\n        /* \"#utility.yul\":30616:30633   */\n      and\n        /* \"#utility.yul\":30605:30614   */\n      dup3\n        /* \"#utility.yul\":30586:30634   */\n      tag_454\n      jump\t// in\n    tag_787:\n        /* \"#utility.yul\":30578:30584   */\n      dup4\n        /* \"#utility.yul\":30571:30635   */\n      sstore\n        /* \"#utility.yul\":30493:30649   */\n      pop\n        /* \"#utility.yul\":30470:30649   */\n    tag_786:\n        /* \"#utility.yul\":30695:30696   */\n      0x01\n        /* \"#utility.yul\":30691:30692   */\n      0x02\n        /* \"#utility.yul\":30683:30689   */\n      dup9\n        /* \"#utility.yul\":30679:30693   */\n      mul\n        /* \"#utility.yul\":30675:30697   */\n      add\n        /* \"#utility.yul\":30669:30673   */\n      dup9\n        /* \"#utility.yul\":30662:30698   */\n      sstore\n        /* \"#utility.yul\":30097:30708   */\n      pop\n      pop\n      pop\n        /* \"#utility.yul\":30060:30947   */\n    tag_778:\n      pop\n        /* \"#utility.yul\":29650:30953   */\n      pop\n      pop\n      pop\n        /* \"#utility.yul\":29558:30953   */\n      pop\n      pop\n      jump\t// out\n        /* \"#utility.yul\":30959:31077   */\n    tag_456:\n        /* \"#utility.yul\":31046:31070   */\n      tag_789\n        /* \"#utility.yul\":31064:31069   */\n      dup2\n        /* \"#utility.yul\":31046:31070   */\n      tag_377\n      jump\t// in\n    tag_789:\n        /* \"#utility.yul\":31041:31044   */\n      dup3\n        /* \"#utility.yul\":31034:31071   */\n      mstore\n        /* \"#utility.yul\":30959:31077   */\n      pop\n      pop\n      jump\t// out\n        /* \"#utility.yul\":31083:31160   */\n    tag_457:\n        /* \"#utility.yul\":31120:31127   */\n      0x00\n        /* \"#utility.yul\":31149:31154   */\n      dup2\n        /* \"#utility.yul\":31138:31154   */\n      swap1\n      pop\n        /* \"#utility.yul\":31083:31160   */\n      swap2\n      swap1\n      pop\n      jump\t// out\n        /* \"#utility.yul\":31166:31284   */\n    tag_458:\n        /* \"#utility.yul\":31253:31277   */\n      tag_792\n        /* \"#utility.yul\":31271:31276   */\n      dup2\n        /* \"#utility.yul\":31253:31277   */\n      tag_457\n      jump\t// in\n    tag_792:\n        /* \"#utility.yul\":31248:31251   */\n      dup3\n        /* \"#utility.yul\":31241:31278   */\n      mstore\n        /* \"#utility.yul\":31166:31284   */\n      pop\n      pop\n      jump\t// out\n        /* \"#utility.yul\":31290:31823   */\n    tag_108:\n        /* \"#utility.yul\":31459:31463   */\n      0x00\n        /* \"#utility.yul\":31497:31499   */\n      0x60\n        /* \"#utility.yul\":31486:31495   */\n      dup3\n        /* \"#utility.yul\":31482:31500   */\n      add\n        /* \"#utility.yul\":31474:31500   */\n      swap1\n      pop\n        /* \"#utility.yul\":31510:31581   */\n      tag_794\n        /* \"#utility.yul\":31578:31579   */\n      0x00\n        /* \"#utility.yul\":31567:31576   */\n      dup4\n        /* \"#utility.yul\":31563:31580   */\n      add\n        /* \"#utility.yul\":31554:31560   */\n      dup7\n        /* \"#utility.yul\":31510:31581   */\n      tag_456\n      jump\t// in\n    tag_794:\n        /* \"#utility.yul\":31628:31637   */\n      dup2\n        /* \"#utility.yul\":31622:31626   */\n      dup2\n        /* \"#utility.yul\":31618:31638   */\n      sub\n        /* \"#utility.yul\":31613:31615   */\n      0x20\n        /* \"#utility.yul\":31602:31611   */\n      dup4\n        /* \"#utility.yul\":31598:31616   */\n      add\n        /* \"#utility.yul\":31591:31639   */\n      mstore\n        /* \"#utility.yul\":31656:31734   */\n      tag_795\n        /* \"#utility.yul\":31729:31733   */\n      dup2\n        /* \"#utility.yul\":31720:31726   */\n      dup6\n        /* \"#utility.yul\":31656:31734   */\n      tag_416\n      jump\t// in\n    tag_795:\n        /* \"#utility.yul\":31648:31734   */\n      swap1\n      pop\n        /* \"#utility.yul\":31744:31816   */\n      tag_796\n        /* \"#utility.yul\":31812:31814   */\n      0x40\n        /* \"#utility.yul\":31801:31810   */\n      dup4\n        /* \"#utility.yul\":31797:31815   */\n      add\n        /* \"#utility.yul\":31788:31794   */\n      dup5\n        /* \"#utility.yul\":31744:31816   */\n      tag_458\n      jump\t// in\n    tag_796:\n        /* \"#utility.yul\":31290:31823   */\n      swap5\n      swap4\n      pop\n      pop\n      pop\n      pop\n      jump\t// out\n        /* \"#utility.yul\":31829:32006   */\n    tag_459:\n        /* \"#utility.yul\":31969:31998   */\n      0x4e6f207461736b732068617665206265656e2061737369676e65640000000000\n        /* \"#utility.yul\":31965:31966   */\n      0x00\n        /* \"#utility.yul\":31957:31963   */\n      dup3\n        /* \"#utility.yul\":31953:31967   */\n      add\n        /* \"#utility.yul\":31946:31999   */\n      mstore\n        /* \"#utility.yul\":31829:32006   */\n      pop\n      jump\t// out\n        /* \"#utility.yul\":32012:32378   */\n    tag_460:\n        /* \"#utility.yul\":32154:32157   */\n      0x00\n        /* \"#utility.yul\":32175:32242   */\n      tag_799\n        /* \"#utility.yul\":32239:32241   */\n      0x1b\n        /* \"#utility.yul\":32234:32237   */\n      dup4\n        /* \"#utility.yul\":32175:32242   */\n      tag_415\n      jump\t// in\n    tag_799:\n        /* \"#utility.yul\":32168:32242   */\n      swap2\n      pop\n        /* \"#utility.yul\":32251:32344   */\n      tag_800\n        /* \"#utility.yul\":32340:32343   */\n      dup3\n        /* \"#utility.yul\":32251:32344   */\n      tag_459\n      jump\t// in\n    tag_800:\n        /* \"#utility.yul\":32369:32371   */\n      0x20\n        /* \"#utility.yul\":32364:32367   */\n      dup3\n        /* \"#utility.yul\":32360:32372   */\n      add\n        /* \"#utility.yul\":32353:32372   */\n      swap1\n      pop\n        /* \"#utility.yul\":32012:32378   */\n      swap2\n      swap1\n      pop\n      jump\t// out\n        /* \"#utility.yul\":32384:32803   */\n    tag_118:\n        /* \"#utility.yul\":32550:32554   */\n      0x00\n        /* \"#utility.yul\":32588:32590   */\n      0x20\n        /* \"#utility.yul\":32577:32586   */\n      dup3\n        /* \"#utility.yul\":32573:32591   */\n      add\n        /* \"#utility.yul\":32565:32591   */\n      swap1\n      pop\n        /* \"#utility.yul\":32637:32646   */\n      dup2\n        /* \"#utility.yul\":32631:32635   */\n      dup2\n        /* \"#utility.yul\":32627:32647   */\n      sub\n        /* \"#utility.yul\":32623:32624   */\n      0x00\n        /* \"#utility.yul\":32612:32621   */\n      dup4\n        /* \"#utility.yul\":32608:32625   */\n      add\n        /* \"#utility.yul\":32601:32648   */\n      mstore\n        /* \"#utility.yul\":32665:32796   */\n      tag_802\n        /* \"#utility.yul\":32791:32795   */\n      dup2\n        /* \"#utility.yul\":32665:32796   */\n      tag_460\n      jump\t// in\n    tag_802:\n        /* \"#utility.yul\":32657:32796   */\n      swap1\n      pop\n        /* \"#utility.yul\":32384:32803   */\n      swap2\n      swap1\n      pop\n      jump\t// out\n        /* \"#utility.yul\":32809:32989   */\n    tag_147:\n        /* \"#utility.yul\":32857:32934   */\n      0x4e487b7100000000000000000000000000000000000000000000000000000000\n        /* \"#utility.yul\":32854:32855   */\n      0x00\n        /* \"#utility.yul\":32847:32935   */\n      mstore\n        /* \"#utility.yul\":32954:32958   */\n      0x32\n        /* \"#utility.yul\":32951:32952   */\n      0x04\n        /* \"#utility.yul\":32944:32959   */\n      mstore\n        /* \"#utility.yul\":32978:32982   */\n      0x24\n        /* \"#utility.yul\":32975:32976   */\n      0x00\n        /* \"#utility.yul\":32968:32983   */\n      revert\n        /* \"#utility.yul\":32995:33159   */\n    tag_461:\n        /* \"#utility.yul\":33135:33151   */\n      0x5461736b206e6f7420666f756e64000000000000000000000000000000000000\n        /* \"#utility.yul\":33131:33132   */\n      0x00\n        /* \"#utility.yul\":33123:33129   */\n      dup3\n        /* \"#utility.yul\":33119:33133   */\n      add\n        /* \"#utility.yul\":33112:33152   */\n      mstore\n        /* \"#utility.yul\":32995:33159   */\n      pop\n      jump\t// out\n        /* \"#utility.yul\":33165:33531   */\n    tag_462:\n        /* \"#utility.yul\":33307:33310   */\n      0x00\n        /* \"#utility.yul\":33328:33395   */\n      tag_806\n        /* \"#utility.yul\":33392:33394   */\n      0x0e\n        /* \"#utility.yul\":33387:33390   */\n      dup4\n        /* \"#utility.yul\":33328:33395   */\n      tag_415\n      jump\t// in\n    tag_806:\n        /* \"#utility.yul\":33321:33395   */\n      swap2\n      pop\n        /* \"#utility.yul\":33404:33497   */\n      tag_807\n        /* \"#utility.yul\":33493:33496   */\n      dup3\n        /* \"#utility.yul\":33404:33497   */\n      tag_461\n      jump\t// in\n    tag_807:\n        /* \"#utility.yul\":33522:33524   */\n      0x20\n        /* \"#utility.yul\":33517:33520   */\n      dup3\n        /* \"#utility.yul\":33513:33525   */\n      add\n        /* \"#utility.yul\":33506:33525   */\n      swap1\n      pop\n        /* \"#utility.yul\":33165:33531   */\n      swap2\n      swap1\n      pop\n      jump\t// out\n        /* \"#utility.yul\":33537:33956   */\n    tag_153:\n        /* \"#utility.yul\":33703:33707   */\n      0x00\n        /* \"#utility.yul\":33741:33743   */\n      0x20\n        /* \"#utility.yul\":33730:33739   */\n      dup3\n        /* \"#utility.yul\":33726:33744   */\n      add\n        /* \"#utility.yul\":33718:33744   */\n      swap1\n      pop\n        /* \"#utility.yul\":33790:33799   */\n      dup2\n        /* \"#utility.yul\":33784:33788   */\n      dup2\n        /* \"#utility.yul\":33780:33800   */\n      sub\n        /* \"#utility.yul\":33776:33777   */\n      0x00\n        /* \"#utility.yul\":33765:33774   */\n      dup4\n        /* \"#utility.yul\":33761:33778   */\n      add\n        /* \"#utility.yul\":33754:33801   */\n      mstore\n        /* \"#utility.yul\":33818:33949   */\n      tag_809\n        /* \"#utility.yul\":33944:33948   */\n      dup2\n        /* \"#utility.yul\":33818:33949   */\n      tag_462\n      jump\t// in\n    tag_809:\n        /* \"#utility.yul\":33810:33949   */\n      swap1\n      pop\n        /* \"#utility.yul\":33537:33956   */\n      swap2\n      swap1\n      pop\n      jump\t// out\n        /* \"#utility.yul\":33962:34282   */\n    tag_161:\n        /* \"#utility.yul\":34077:34081   */\n      0x00\n        /* \"#utility.yul\":34115:34117   */\n      0x40\n        /* \"#utility.yul\":34104:34113   */\n      dup3\n        /* \"#utility.yul\":34100:34118   */\n      add\n        /* \"#utility.yul\":34092:34118   */\n      swap1\n      pop\n        /* \"#utility.yul\":34128:34199   */\n      tag_811\n        /* \"#utility.yul\":34196:34197   */\n      0x00\n        /* \"#utility.yul\":34185:34194   */\n      dup4\n        /* \"#utility.yul\":34181:34198   */\n      add\n        /* \"#utility.yul\":34172:34178   */\n      dup6\n        /* \"#utility.yul\":34128:34199   */\n      tag_456\n      jump\t// in\n    tag_811:\n        /* \"#utility.yul\":34209:34275   */\n      tag_812\n        /* \"#utility.yul\":34271:34273   */\n      0x20\n        /* \"#utility.yul\":34260:34269   */\n      dup4\n        /* \"#utility.yul\":34256:34274   */\n      add\n        /* \"#utility.yul\":34247:34253   */\n      dup5\n        /* \"#utility.yul\":34209:34275   */\n      tag_411\n      jump\t// in\n    tag_812:\n        /* \"#utility.yul\":33962:34282   */\n      swap4\n      swap3\n      pop\n      pop\n      pop\n      jump\t// out\n        /* \"#utility.yul\":34288:34468   */\n    tag_463:\n        /* \"#utility.yul\":34428:34460   */\n      0x4e6577206964656e7469666965722063616e6e6f7420626520656d7074790000\n        /* \"#utility.yul\":34424:34425   */\n      0x00\n        /* \"#utility.yul\":34416:34422   */\n      dup3\n        /* \"#utility.yul\":34412:34426   */\n      add\n        /* \"#utility.yul\":34405:34461   */\n      mstore\n        /* \"#utility.yul\":34288:34468   */\n      pop\n      jump\t// out\n        /* \"#utility.yul\":34474:34840   */\n    tag_464:\n        /* \"#utility.yul\":34616:34619   */\n      0x00\n        /* \"#utility.yul\":34637:34704   */\n      tag_815\n        /* \"#utility.yul\":34701:34703   */\n      0x1e\n        /* \"#utility.yul\":34696:34699   */\n      dup4\n        /* \"#utility.yul\":34637:34704   */\n      tag_415\n      jump\t// in\n    tag_815:\n        /* \"#utility.yul\":34630:34704   */\n      swap2\n      pop\n        /* \"#utility.yul\":34713:34806   */\n      tag_816\n        /* \"#utility.yul\":34802:34805   */\n      dup3\n        /* \"#utility.yul\":34713:34806   */\n      tag_463\n      jump\t// in\n    tag_816:\n        /* \"#utility.yul\":34831:34833   */\n      0x20\n        /* \"#utility.yul\":34826:34829   */\n      dup3\n        /* \"#utility.yul\":34822:34834   */\n      add\n        /* \"#utility.yul\":34815:34834   */\n      swap1\n      pop\n        /* \"#utility.yul\":34474:34840   */\n      swap2\n      swap1\n      pop\n      jump\t// out\n        /* \"#utility.yul\":34846:35265   */\n    tag_165:\n        /* \"#utility.yul\":35012:35016   */\n      0x00\n        /* \"#utility.yul\":35050:35052   */\n      0x20\n        /* \"#utility.yul\":35039:35048   */\n      dup3\n        /* \"#utility.yul\":35035:35053   */\n      add\n        /* \"#utility.yul\":35027:35053   */\n      swap1\n      pop\n        /* \"#utility.yul\":35099:35108   */\n      dup2\n        /* \"#utility.yul\":35093:35097   */\n      dup2\n        /* \"#utility.yul\":35089:35109   */\n      sub\n        /* \"#utility.yul\":35085:35086   */\n      0x00\n        /* \"#utility.yul\":35074:35083   */\n      dup4\n        /* \"#utility.yul\":35070:35087   */\n      add\n        /* \"#utility.yul\":35063:35110   */\n      mstore\n        /* \"#utility.yul\":35127:35258   */\n      tag_818\n        /* \"#utility.yul\":35253:35257   */\n      dup2\n        /* \"#utility.yul\":35127:35258   */\n      tag_464\n      jump\t// in\n    tag_818:\n        /* \"#utility.yul\":35119:35258   */\n      swap1\n      pop\n        /* \"#utility.yul\":34846:35265   */\n      swap2\n      swap1\n      pop\n      jump\t// out\n        /* \"#utility.yul\":35271:35443   */\n    tag_465:\n        /* \"#utility.yul\":35411:35435   */\n      0x496e76616c6964206e6577206964656e74696669657200000000000000000000\n        /* \"#utility.yul\":35407:35408   */\n      0x00\n        /* \"#utility.yul\":35399:35405   */\n      dup3\n        /* \"#utility.yul\":35395:35409   */\n      add\n        /* \"#utility.yul\":35388:35436   */\n      mstore\n        /* \"#utility.yul\":35271:35443   */\n      pop\n      jump\t// out\n        /* \"#utility.yul\":35449:35815   */\n    tag_466:\n        /* \"#utility.yul\":35591:35594   */\n      0x00\n        /* \"#utility.yul\":35612:35679   */\n      tag_821\n        /* \"#utility.yul\":35676:35678   */\n      0x16\n        /* \"#utility.yul\":35671:35674   */\n      dup4\n        /* \"#utility.yul\":35612:35679   */\n      tag_415\n      jump\t// in\n    tag_821:\n        /* \"#utility.yul\":35605:35679   */\n      swap2\n      pop\n        /* \"#utility.yul\":35688:35781   */\n      tag_822\n        /* \"#utility.yul\":35777:35780   */\n      dup3\n        /* \"#utility.yul\":35688:35781   */\n      tag_465\n      jump\t// in\n    tag_822:\n        /* \"#utility.yul\":35806:35808   */\n      0x20\n        /* \"#utility.yul\":35801:35804   */\n      dup3\n        /* \"#utility.yul\":35797:35809   */\n      add\n        /* \"#utility.yul\":35790:35809   */\n      swap1\n      pop\n        /* \"#utility.yul\":35449:35815   */\n      swap2\n      swap1\n      pop\n      jump\t// out\n        /* \"#utility.yul\":35821:36240   */\n    tag_171:\n        /* \"#utility.yul\":35987:35991   */\n      0x00\n        /* \"#utility.yul\":36025:36027   */\n      0x20\n        /* \"#utility.yul\":36014:36023   */\n      dup3\n        /* \"#utility.yul\":36010:36028   */\n      add\n        /* \"#utility.yul\":36002:36028   */\n      swap1\n      pop\n        /* \"#utility.yul\":36074:36083   */\n      dup2\n        /* \"#utility.yul\":36068:36072   */\n      dup2\n        /* \"#utility.yul\":36064:36084   */\n      sub\n        /* \"#utility.yul\":36060:36061   */\n      0x00\n        /* \"#utility.yul\":36049:36058   */\n      dup4\n        /* \"#utility.yul\":36045:36062   */\n      add\n        /* \"#utility.yul\":36038:36085   */\n      mstore\n        /* \"#utility.yul\":36102:36233   */\n      tag_824\n        /* \"#utility.yul\":36228:36232   */\n      dup2\n        /* \"#utility.yul\":36102:36233   */\n      tag_466\n      jump\t// in\n    tag_824:\n        /* \"#utility.yul\":36094:36233   */\n      swap1\n      pop\n        /* \"#utility.yul\":35821:36240   */\n      swap2\n      swap1\n      pop\n      jump\t// out\n        /* \"#utility.yul\":36246:36410   */\n    tag_467:\n        /* \"#utility.yul\":36386:36402   */\n      0x4e6f7420617574686f72697a6564000000000000000000000000000000000000\n        /* \"#utility.yul\":36382:36383   */\n      0x00\n        /* \"#utility.yul\":36374:36380   */\n      dup3\n        /* \"#utility.yul\":36370:36384   */\n      add\n        /* \"#utility.yul\":36363:36403   */\n      mstore\n        /* \"#utility.yul\":36246:36410   */\n      pop\n      jump\t// out\n        /* \"#utility.yul\":36416:36782   */\n    tag_468:\n        /* \"#utility.yul\":36558:36561   */\n      0x00\n        /* \"#utility.yul\":36579:36646   */\n      tag_827\n        /* \"#utility.yul\":36643:36645   */\n      0x0e\n        /* \"#utility.yul\":36638:36641   */\n      dup4\n        /* \"#utility.yul\":36579:36646   */\n      tag_415\n      jump\t// in\n    tag_827:\n        /* \"#utility.yul\":36572:36646   */\n      swap2\n      pop\n        /* \"#utility.yul\":36655:36748   */\n      tag_828\n        /* \"#utility.yul\":36744:36747   */\n      dup3\n        /* \"#utility.yul\":36655:36748   */\n      tag_467\n      jump\t// in\n    tag_828:\n        /* \"#utility.yul\":36773:36775   */\n      0x20\n        /* \"#utility.yul\":36768:36771   */\n      dup3\n        /* \"#utility.yul\":36764:36776   */\n      add\n        /* \"#utility.yul\":36757:36776   */\n      swap1\n      pop\n        /* \"#utility.yul\":36416:36782   */\n      swap2\n      swap1\n      pop\n      jump\t// out\n        /* \"#utility.yul\":36788:37207   */\n    tag_184:\n        /* \"#utility.yul\":36954:36958   */\n      0x00\n        /* \"#utility.yul\":36992:36994   */\n      0x20\n        /* \"#utility.yul\":36981:36990   */\n      dup3\n        /* \"#utility.yul\":36977:36995   */\n      add\n        /* \"#utility.yul\":36969:36995   */\n      swap1\n      pop\n        /* \"#utility.yul\":37041:37050   */\n      dup2\n        /* \"#utility.yul\":37035:37039   */\n      dup2\n        /* \"#utility.yul\":37031:37051   */\n      sub\n        /* \"#utility.yul\":37027:37028   */\n      0x00\n        /* \"#utility.yul\":37016:37025   */\n      dup4\n        /* \"#utility.yul\":37012:37029   */\n      add\n        /* \"#utility.yul\":37005:37052   */\n      mstore\n        /* \"#utility.yul\":37069:37200   */\n      tag_830\n        /* \"#utility.yul\":37195:37199   */\n      dup2\n        /* \"#utility.yul\":37069:37200   */\n      tag_468\n      jump\t// in\n    tag_830:\n        /* \"#utility.yul\":37061:37200   */\n      swap1\n      pop\n        /* \"#utility.yul\":36788:37207   */\n      swap2\n      swap1\n      pop\n      jump\t// out\n        /* \"#utility.yul\":37213:37380   */\n    tag_469:\n        /* \"#utility.yul\":37353:37372   */\n      0x596f752068617665206e6f207461736b73000000000000000000000000000000\n        /* \"#utility.yul\":37349:37350   */\n      0x00\n        /* \"#utility.yul\":37341:37347   */\n      dup3\n        /* \"#utility.yul\":37337:37351   */\n      add\n        /* \"#utility.yul\":37330:37373   */\n      mstore\n        /* \"#utility.yul\":37213:37380   */\n      pop\n      jump\t// out\n        /* \"#utility.yul\":37386:37752   */\n    tag_470:\n        /* \"#utility.yul\":37528:37531   */\n      0x00\n        /* \"#utility.yul\":37549:37616   */\n      tag_833\n        /* \"#utility.yul\":37613:37615   */\n      0x11\n        /* \"#utility.yul\":37608:37611   */\n      dup4\n        /* \"#utility.yul\":37549:37616   */\n      tag_415\n      jump\t// in\n    tag_833:\n        /* \"#utility.yul\":37542:37616   */\n      swap2\n      pop\n        /* \"#utility.yul\":37625:37718   */\n      tag_834\n        /* \"#utility.yul\":37714:37717   */\n      dup3\n        /* \"#utility.yul\":37625:37718   */\n      tag_469\n      jump\t// in\n    tag_834:\n        /* \"#utility.yul\":37743:37745   */\n      0x20\n        /* \"#utility.yul\":37738:37741   */\n      dup3\n        /* \"#utility.yul\":37734:37746   */\n      add\n        /* \"#utility.yul\":37727:37746   */\n      swap1\n      pop\n        /* \"#utility.yul\":37386:37752   */\n      swap2\n      swap1\n      pop\n      jump\t// out\n        /* \"#utility.yul\":37758:38177   */\n    tag_206:\n        /* \"#utility.yul\":37924:37928   */\n      0x00\n        /* \"#utility.yul\":37962:37964   */\n      0x20\n        /* \"#utility.yul\":37951:37960   */\n      dup3\n        /* \"#utility.yul\":37947:37965   */\n      add\n        /* \"#utility.yul\":37939:37965   */\n      swap1\n      pop\n        /* \"#utility.yul\":38011:38020   */\n      dup2\n        /* \"#utility.yul\":38005:38009   */\n      dup2\n        /* \"#utility.yul\":38001:38021   */\n      sub\n        /* \"#utility.yul\":37997:37998   */\n      0x00\n        /* \"#utility.yul\":37986:37995   */\n      dup4\n        /* \"#utility.yul\":37982:37999   */\n      add\n        /* \"#utility.yul\":37975:38022   */\n      mstore\n        /* \"#utility.yul\":38039:38170   */\n      tag_836\n        /* \"#utility.yul\":38165:38169   */\n      dup2\n        /* \"#utility.yul\":38039:38170   */\n      tag_470\n      jump\t// in\n    tag_836:\n        /* \"#utility.yul\":38031:38170   */\n      swap1\n      pop\n        /* \"#utility.yul\":37758:38177   */\n      swap2\n      swap1\n      pop\n      jump\t// out\n        /* \"#utility.yul\":38183:38359   */\n    tag_471:\n        /* \"#utility.yul\":38323:38351   */\n      0x4964656e7469666965722063616e6e6f7420626520656d707479000000000000\n        /* \"#utility.yul\":38319:38320   */\n      0x00\n        /* \"#utility.yul\":38311:38317   */\n      dup3\n        /* \"#utility.yul\":38307:38321   */\n      add\n        /* \"#utility.yul\":38300:38352   */\n      mstore\n        /* \"#utility.yul\":38183:38359   */\n      pop\n      jump\t// out\n        /* \"#utility.yul\":38365:38731   */\n    tag_472:\n        /* \"#utility.yul\":38507:38510   */\n      0x00\n        /* \"#utility.yul\":38528:38595   */\n      tag_839\n        /* \"#utility.yul\":38592:38594   */\n      0x1a\n        /* \"#utility.yul\":38587:38590   */\n      dup4\n        /* \"#utility.yul\":38528:38595   */\n      tag_415\n      jump\t// in\n    tag_839:\n        /* \"#utility.yul\":38521:38595   */\n      swap2\n      pop\n        /* \"#utility.yul\":38604:38697   */\n      tag_840\n        /* \"#utility.yul\":38693:38696   */\n      dup3\n        /* \"#utility.yul\":38604:38697   */\n      tag_471\n      jump\t// in\n    tag_840:\n        /* \"#utility.yul\":38722:38724   */\n      0x20\n        /* \"#utility.yul\":38717:38720   */\n      dup3\n        /* \"#utility.yul\":38713:38725   */\n      add\n        /* \"#utility.yul\":38706:38725   */\n      swap1\n      pop\n        /* \"#utility.yul\":38365:38731   */\n      swap2\n      swap1\n      pop\n      jump\t// out\n        /* \"#utility.yul\":38737:39156   */\n    tag_236:\n        /* \"#utility.yul\":38903:38907   */\n      0x00\n        /* \"#utility.yul\":38941:38943   */\n      0x20\n        /* \"#utility.yul\":38930:38939   */\n      dup3\n        /* \"#utility.yul\":38926:38944   */\n      add\n        /* \"#utility.yul\":38918:38944   */\n      swap1\n      pop\n        /* \"#utility.yul\":38990:38999   */\n      dup2\n        /* \"#utility.yul\":38984:38988   */\n      dup2\n        /* \"#utility.yul\":38980:39000   */\n      sub\n        /* \"#utility.yul\":38976:38977   */\n      0x00\n        /* \"#utility.yul\":38965:38974   */\n      dup4\n        /* \"#utility.yul\":38961:38978   */\n      add\n        /* \"#utility.yul\":38954:39001   */\n      mstore\n        /* \"#utility.yul\":39018:39149   */\n      tag_842\n        /* \"#utility.yul\":39144:39148   */\n      dup2\n        /* \"#utility.yul\":39018:39149   */\n      tag_472\n      jump\t// in\n    tag_842:\n        /* \"#utility.yul\":39010:39149   */\n      swap1\n      pop\n        /* \"#utility.yul\":38737:39156   */\n      swap2\n      swap1\n      pop\n      jump\t// out\n        /* \"#utility.yul\":39162:39384   */\n    tag_473:\n        /* \"#utility.yul\":39302:39336   */\n      0x44494420616c72656164792065786973747320666f7220746869732061646472\n        /* \"#utility.yul\":39298:39299   */\n      0x00\n        /* \"#utility.yul\":39290:39296   */\n      dup3\n        /* \"#utility.yul\":39286:39300   */\n      add\n        /* \"#utility.yul\":39279:39337   */\n      mstore\n        /* \"#utility.yul\":39371:39376   */\n      0x6573730000000000000000000000000000000000000000000000000000000000\n        /* \"#utility.yul\":39366:39368   */\n      0x20\n        /* \"#utility.yul\":39358:39364   */\n      dup3\n        /* \"#utility.yul\":39354:39369   */\n      add\n        /* \"#utility.yul\":39347:39377   */\n      mstore\n        /* \"#utility.yul\":39162:39384   */\n      pop\n      jump\t// out\n        /* \"#utility.yul\":39390:39756   */\n    tag_474:\n        /* \"#utility.yul\":39532:39535   */\n      0x00\n        /* \"#utility.yul\":39553:39620   */\n      tag_845\n        /* \"#utility.yul\":39617:39619   */\n      0x23\n        /* \"#utility.yul\":39612:39615   */\n      dup4\n        /* \"#utility.yul\":39553:39620   */\n      tag_415\n      jump\t// in\n    tag_845:\n        /* \"#utility.yul\":39546:39620   */\n      swap2\n      pop\n        /* \"#utility.yul\":39629:39722   */\n      tag_846\n        /* \"#utility.yul\":39718:39721   */\n      dup3\n        /* \"#utility.yul\":39629:39722   */\n      tag_473\n      jump\t// in\n    tag_846:\n        /* \"#utility.yul\":39747:39749   */\n      0x40\n        /* \"#utility.yul\":39742:39745   */\n      dup3\n        /* \"#utility.yul\":39738:39750   */\n      add\n        /* \"#utility.yul\":39731:39750   */\n      swap1\n      pop\n        /* \"#utility.yul\":39390:39756   */\n      swap2\n      swap1\n      pop\n      jump\t// out\n        /* \"#utility.yul\":39762:40181   */\n    tag_239:\n        /* \"#utility.yul\":39928:39932   */\n      0x00\n        /* \"#utility.yul\":39966:39968   */\n      0x20\n        /* \"#utility.yul\":39955:39964   */\n      dup3\n        /* \"#utility.yul\":39951:39969   */\n      add\n        /* \"#utility.yul\":39943:39969   */\n      swap1\n      pop\n        /* \"#utility.yul\":40015:40024   */\n      dup2\n        /* \"#utility.yul\":40009:40013   */\n      dup2\n        /* \"#utility.yul\":40005:40025   */\n      sub\n        /* \"#utility.yul\":40001:40002   */\n      0x00\n        /* \"#utility.yul\":39990:39999   */\n      dup4\n        /* \"#utility.yul\":39986:40003   */\n      add\n        /* \"#utility.yul\":39979:40026   */\n      mstore\n        /* \"#utility.yul\":40043:40174   */\n      tag_848\n        /* \"#utility.yul\":40169:40173   */\n      dup2\n        /* \"#utility.yul\":40043:40174   */\n      tag_474\n      jump\t// in\n    tag_848:\n        /* \"#utility.yul\":40035:40174   */\n      swap1\n      pop\n        /* \"#utility.yul\":39762:40181   */\n      swap2\n      swap1\n      pop\n      jump\t// out\n        /* \"#utility.yul\":40187:40358   */\n    tag_475:\n        /* \"#utility.yul\":40327:40350   */\n      0x5469746c652063616e6e6f7420626520656d7074790000000000000000000000\n        /* \"#utility.yul\":40323:40324   */\n      0x00\n        /* \"#utility.yul\":40315:40321   */\n      dup3\n        /* \"#utility.yul\":40311:40325   */\n      add\n        /* \"#utility.yul\":40304:40351   */\n      mstore\n        /* \"#utility.yul\":40187:40358   */\n      pop\n      jump\t// out\n        /* \"#utility.yul\":40364:40730   */\n    tag_476:\n        /* \"#utility.yul\":40506:40509   */\n      0x00\n        /* \"#utility.yul\":40527:40594   */\n      tag_851\n        /* \"#utility.yul\":40591:40593   */\n      0x15\n        /* \"#utility.yul\":40586:40589   */\n      dup4\n        /* \"#utility.yul\":40527:40594   */\n      tag_415\n      jump\t// in\n    tag_851:\n        /* \"#utility.yul\":40520:40594   */\n      swap2\n      pop\n        /* \"#utility.yul\":40603:40696   */\n      tag_852\n        /* \"#utility.yul\":40692:40695   */\n      dup3\n        /* \"#utility.yul\":40603:40696   */\n      tag_475\n      jump\t// in\n    tag_852:\n        /* \"#utility.yul\":40721:40723   */\n      0x20\n        /* \"#utility.yul\":40716:40719   */\n      dup3\n        /* \"#utility.yul\":40712:40724   */\n      add\n        /* \"#utility.yul\":40705:40724   */\n      swap1\n      pop\n        /* \"#utility.yul\":40364:40730   */\n      swap2\n      swap1\n      pop\n      jump\t// out\n        /* \"#utility.yul\":40736:41155   */\n    tag_251:\n        /* \"#utility.yul\":40902:40906   */\n      0x00\n        /* \"#utility.yul\":40940:40942   */\n      0x20\n        /* \"#utility.yul\":40929:40938   */\n      dup3\n        /* \"#utility.yul\":40925:40943   */\n      add\n        /* \"#utility.yul\":40917:40943   */\n      swap1\n      pop\n        /* \"#utility.yul\":40989:40998   */\n      dup2\n        /* \"#utility.yul\":40983:40987   */\n      dup2\n        /* \"#utility.yul\":40979:40999   */\n      sub\n        /* \"#utility.yul\":40975:40976   */\n      0x00\n        /* \"#utility.yul\":40964:40973   */\n      dup4\n        /* \"#utility.yul\":40960:40977   */\n      add\n        /* \"#utility.yul\":40953:41000   */\n      mstore\n        /* \"#utility.yul\":41017:41148   */\n      tag_854\n        /* \"#utility.yul\":41143:41147   */\n      dup2\n        /* \"#utility.yul\":41017:41148   */\n      tag_476\n      jump\t// in\n    tag_854:\n        /* \"#utility.yul\":41009:41148   */\n      swap1\n      pop\n        /* \"#utility.yul\":40736:41155   */\n      swap2\n      swap1\n      pop\n      jump\t// out\n        /* \"#utility.yul\":41161:41338   */\n    tag_477:\n        /* \"#utility.yul\":41301:41330   */\n      0x4465736372697074696f6e2063616e6e6f7420626520656d7074790000000000\n        /* \"#utility.yul\":41297:41298   */\n      0x00\n        /* \"#utility.yul\":41289:41295   */\n      dup3\n        /* \"#utility.yul\":41285:41299   */\n      add\n        /* \"#utility.yul\":41278:41331   */\n      mstore\n        /* \"#utility.yul\":41161:41338   */\n      pop\n      jump\t// out\n        /* \"#utility.yul\":41344:41710   */\n    tag_478:\n        /* \"#utility.yul\":41486:41489   */\n      0x00\n        /* \"#utility.yul\":41507:41574   */\n      tag_857\n        /* \"#utility.yul\":41571:41573   */\n      0x1b\n        /* \"#utility.yul\":41566:41569   */\n      dup4\n        /* \"#utility.yul\":41507:41574   */\n      tag_415\n      jump\t// in\n    tag_857:\n        /* \"#utility.yul\":41500:41574   */\n      swap2\n      pop\n        /* \"#utility.yul\":41583:41676   */\n      tag_858\n        /* \"#utility.yul\":41672:41675   */\n      dup3\n        /* \"#utility.yul\":41583:41676   */\n      tag_477\n      jump\t// in\n    tag_858:\n        /* \"#utility.yul\":41701:41703   */\n      0x20\n        /* \"#utility.yul\":41696:41699   */\n      dup3\n        /* \"#utility.yul\":41692:41704   */\n      add\n        /* \"#utility.yul\":41685:41704   */\n      swap1\n      pop\n        /* \"#utility.yul\":41344:41710   */\n      swap2\n      swap1\n      pop\n      jump\t// out\n        /* \"#utility.yul\":41716:42135   */\n    tag_254:\n        /* \"#utility.yul\":41882:41886   */\n      0x00\n        /* \"#utility.yul\":41920:41922   */\n      0x20\n        /* \"#utility.yul\":41909:41918   */\n      dup3\n        /* \"#utility.yul\":41905:41923   */\n      add\n        /* \"#utility.yul\":41897:41923   */\n      swap1\n      pop\n        /* \"#utility.yul\":41969:41978   */\n      dup2\n        /* \"#utility.yul\":41963:41967   */\n      dup2\n        /* \"#utility.yul\":41959:41979   */\n      sub\n        /* \"#utility.yul\":41955:41956   */\n      0x00\n        /* \"#utility.yul\":41944:41953   */\n      dup4\n        /* \"#utility.yul\":41940:41957   */\n      add\n        /* \"#utility.yul\":41933:41980   */\n      mstore\n        /* \"#utility.yul\":41997:42128   */\n      tag_860\n        /* \"#utility.yul\":42123:42127   */\n      dup2\n        /* \"#utility.yul\":41997:42128   */\n      tag_478\n      jump\t// in\n    tag_860:\n        /* \"#utility.yul\":41989:42128   */\n      swap1\n      pop\n        /* \"#utility.yul\":41716:42135   */\n      swap2\n      swap1\n      pop\n      jump\t// out\n        /* \"#utility.yul\":42141:42321   */\n    tag_479:\n        /* \"#utility.yul\":42281:42313   */\n      0x4475652064617465206d75737420626520696e20746865206675747572650000\n        /* \"#utility.yul\":42277:42278   */\n      0x00\n        /* \"#utility.yul\":42269:42275   */\n      dup3\n        /* \"#utility.yul\":42265:42279   */\n      add\n        /* \"#utility.yul\":42258:42314   */\n      mstore\n        /* \"#utility.yul\":42141:42321   */\n      pop\n      jump\t// out\n        /* \"#utility.yul\":42327:42693   */\n    tag_480:\n        /* \"#utility.yul\":42469:42472   */\n      0x00\n        /* \"#utility.yul\":42490:42557   */\n      tag_863\n        /* \"#utility.yul\":42554:42556   */\n      0x1e\n        /* \"#utility.yul\":42549:42552   */\n      dup4\n        /* \"#utility.yul\":42490:42557   */\n      tag_415\n      jump\t// in\n    tag_863:\n        /* \"#utility.yul\":42483:42557   */\n      swap2\n      pop\n        /* \"#utility.yul\":42566:42659   */\n      tag_864\n        /* \"#utility.yul\":42655:42658   */\n      dup3\n        /* \"#utility.yul\":42566:42659   */\n      tag_479\n      jump\t// in\n    tag_864:\n        /* \"#utility.yul\":42684:42686   */\n      0x20\n        /* \"#utility.yul\":42679:42682   */\n      dup3\n        /* \"#utility.yul\":42675:42687   */\n      add\n        /* \"#utility.yul\":42668:42687   */\n      swap1\n      pop\n        /* \"#utility.yul\":42327:42693   */\n      swap2\n      swap1\n      pop\n      jump\t// out\n        /* \"#utility.yul\":42699:43118   */\n    tag_257:\n        /* \"#utility.yul\":42865:42869   */\n      0x00\n        /* \"#utility.yul\":42903:42905   */\n      0x20\n        /* \"#utility.yul\":42892:42901   */\n      dup3\n        /* \"#utility.yul\":42888:42906   */\n      add\n        /* \"#utility.yul\":42880:42906   */\n      swap1\n      pop\n        /* \"#utility.yul\":42952:42961   */\n      dup2\n        /* \"#utility.yul\":42946:42950   */\n      dup2\n        /* \"#utility.yul\":42942:42962   */\n      sub\n        /* \"#utility.yul\":42938:42939   */\n      0x00\n        /* \"#utility.yul\":42927:42936   */\n      dup4\n        /* \"#utility.yul\":42923:42940   */\n      add\n        /* \"#utility.yul\":42916:42963   */\n      mstore\n        /* \"#utility.yul\":42980:43111   */\n      tag_866\n        /* \"#utility.yul\":43106:43110   */\n      dup2\n        /* \"#utility.yul\":42980:43111   */\n      tag_480\n      jump\t// in\n    tag_866:\n        /* \"#utility.yul\":42972:43111   */\n      swap1\n      pop\n        /* \"#utility.yul\":42699:43118   */\n      swap2\n      swap1\n      pop\n      jump\t// out\n        /* \"#utility.yul\":43124:43242   */\n    tag_481:\n        /* \"#utility.yul\":43211:43235   */\n      tag_868\n        /* \"#utility.yul\":43229:43234   */\n      dup2\n        /* \"#utility.yul\":43211:43235   */\n      tag_392\n      jump\t// in\n    tag_868:\n        /* \"#utility.yul\":43206:43209   */\n      dup3\n        /* \"#utility.yul\":43199:43236   */\n      mstore\n        /* \"#utility.yul\":43124:43242   */\n      pop\n      pop\n      jump\t// out\n        /* \"#utility.yul\":43248:43580   */\n    tag_266:\n        /* \"#utility.yul\":43369:43373   */\n      0x00\n        /* \"#utility.yul\":43407:43409   */\n      0x40\n        /* \"#utility.yul\":43396:43405   */\n      dup3\n        /* \"#utility.yul\":43392:43410   */\n      add\n        /* \"#utility.yul\":43384:43410   */\n      swap1\n      pop\n        /* \"#utility.yul\":43420:43491   */\n      tag_870\n        /* \"#utility.yul\":43488:43489   */\n      0x00\n        /* \"#utility.yul\":43477:43486   */\n      dup4\n        /* \"#utility.yul\":43473:43490   */\n      add\n        /* \"#utility.yul\":43464:43470   */\n      dup6\n        /* \"#utility.yul\":43420:43491   */\n      tag_456\n      jump\t// in\n    tag_870:\n        /* \"#utility.yul\":43501:43573   */\n      tag_871\n        /* \"#utility.yul\":43569:43571   */\n      0x20\n        /* \"#utility.yul\":43558:43567   */\n      dup4\n        /* \"#utility.yul\":43554:43572   */\n      add\n        /* \"#utility.yul\":43545:43551   */\n      dup5\n        /* \"#utility.yul\":43501:43573   */\n      tag_481\n      jump\t// in\n    tag_871:\n        /* \"#utility.yul\":43248:43580   */\n      swap4\n      swap3\n      pop\n      pop\n      pop\n      jump\t// out\n        /* \"#utility.yul\":43586:43766   */\n    tag_482:\n        /* \"#utility.yul\":43634:43711   */\n      0x4e487b7100000000000000000000000000000000000000000000000000000000\n        /* \"#utility.yul\":43631:43632   */\n      0x00\n        /* \"#utility.yul\":43624:43712   */\n      mstore\n        /* \"#utility.yul\":43731:43735   */\n      0x11\n        /* \"#utility.yul\":43728:43729   */\n      0x04\n        /* \"#utility.yul\":43721:43736   */\n      mstore\n        /* \"#utility.yul\":43755:43759   */\n      0x24\n        /* \"#utility.yul\":43752:43753   */\n      0x00\n        /* \"#utility.yul\":43745:43760   */\n      revert\n        /* \"#utility.yul\":43772:44005   */\n    tag_268:\n        /* \"#utility.yul\":43811:43814   */\n      0x00\n        /* \"#utility.yul\":43834:43858   */\n      tag_874\n        /* \"#utility.yul\":43852:43857   */\n      dup3\n        /* \"#utility.yul\":43834:43858   */\n      tag_392\n      jump\t// in\n    tag_874:\n        /* \"#utility.yul\":43825:43858   */\n      swap2\n      pop\n        /* \"#utility.yul\":43880:43946   */\n      0xffffffffffffffffffffffffffffffffffffffffffffffffffffffffffffffff\n        /* \"#utility.yul\":43873:43878   */\n      dup3\n        /* \"#utility.yul\":43870:43947   */\n      sub\n        /* \"#utility.yul\":43867:43970   */\n      tag_875\n      jumpi\n        /* \"#utility.yul\":43950:43968   */\n      tag_876\n      tag_482\n      jump\t// in\n    tag_876:\n        /* \"#utility.yul\":43867:43970   */\n    tag_875:\n        /* \"#utility.yul\":43997:43998   */\n      0x01\n        /* \"#utility.yul\":43990:43995   */\n      dup3\n        /* \"#utility.yul\":43986:43999   */\n      add\n        /* \"#utility.yul\":43979:43999   */\n      swap1\n      pop\n        /* \"#utility.yul\":43772:44005   */\n      swap2\n      swap1\n      pop\n      jump\t// out\n        /* \"#utility.yul\":44011:44236   */\n    tag_483:\n        /* \"#utility.yul\":44151:44185   */\n      0x54686973207461736b20616c72656164792062656c6f6e67656420746f207468\n        /* \"#utility.yul\":44147:44148   */\n      0x00\n        /* \"#utility.yul\":44139:44145   */\n      dup3\n        /* \"#utility.yul\":44135:44149   */\n      add\n        /* \"#utility.yul\":44128:44186   */\n      mstore\n        /* \"#utility.yul\":44220:44228   */\n      0x6520757365720000000000000000000000000000000000000000000000000000\n        /* \"#utility.yul\":44215:44217   */\n      0x20\n        /* \"#utility.yul\":44207:44213   */\n      dup3\n        /* \"#utility.yul\":44203:44218   */\n      add\n        /* \"#utility.yul\":44196:44229   */\n      mstore\n        /* \"#utility.yul\":44011:44236   */\n      pop\n      jump\t// out\n        /* \"#utility.yul\":44242:44608   */\n    tag_484:\n        /* \"#utility.yul\":44384:44387   */\n      0x00\n        /* \"#utility.yul\":44405:44472   */\n      tag_879\n        /* \"#utility.yul\":44469:44471   */\n      0x26\n        /* \"#utility.yul\":44464:44467   */\n      dup4\n        /* \"#utility.yul\":44405:44472   */\n      tag_415\n      jump\t// in\n    tag_879:\n        /* \"#utility.yul\":44398:44472   */\n      swap2\n      pop\n        /* \"#utility.yul\":44481:44574   */\n      tag_880\n        /* \"#utility.yul\":44570:44573   */\n      dup3\n        /* \"#utility.yul\":44481:44574   */\n      tag_483\n      jump\t// in\n    tag_880:\n        /* \"#utility.yul\":44599:44601   */\n      0x40\n        /* \"#utility.yul\":44594:44597   */\n      dup3\n        /* \"#utility.yul\":44590:44602   */\n      add\n        /* \"#utility.yul\":44583:44602   */\n      swap1\n      pop\n        /* \"#utility.yul\":44242:44608   */\n      swap2\n      swap1\n      pop\n      jump\t// out\n        /* \"#utility.yul\":44614:45033   */\n    tag_284:\n        /* \"#utility.yul\":44780:44784   */\n      0x00\n        /* \"#utility.yul\":44818:44820   */\n      0x20\n        /* \"#utility.yul\":44807:44816   */\n      dup3\n        /* \"#utility.yul\":44803:44821   */\n      add\n        /* \"#utility.yul\":44795:44821   */\n      swap1\n      pop\n        /* \"#utility.yul\":44867:44876   */\n      dup2\n        /* \"#utility.yul\":44861:44865   */\n      dup2\n        /* \"#utility.yul\":44857:44877   */\n      sub\n        /* \"#utility.yul\":44853:44854   */\n      0x00\n        /* \"#utility.yul\":44842:44851   */\n      dup4\n        /* \"#utility.yul\":44838:44855   */\n      add\n        /* \"#utility.yul\":44831:44878   */\n      mstore\n        /* \"#utility.yul\":44895:45026   */\n      tag_882\n        /* \"#utility.yul\":45021:45025   */\n      dup2\n        /* \"#utility.yul\":44895:45026   */\n      tag_484\n      jump\t// in\n    tag_882:\n        /* \"#utility.yul\":44887:45026   */\n      swap1\n      pop\n        /* \"#utility.yul\":44614:45033   */\n      swap2\n      swap1\n      pop\n      jump\t// out\n        /* \"#utility.yul\":45039:45233   */\n    tag_293:\n        /* \"#utility.yul\":45079:45083   */\n      0x00\n        /* \"#utility.yul\":45099:45119   */\n      tag_884\n        /* \"#utility.yul\":45117:45118   */\n      dup3\n        /* \"#utility.yul\":45099:45119   */\n      tag_392\n      jump\t// in\n    tag_884:\n        /* \"#utility.yul\":45094:45119   */\n      swap2\n      pop\n        /* \"#utility.yul\":45133:45153   */\n      tag_885\n        /* \"#utility.yul\":45151:45152   */\n      dup4\n        /* \"#utility.yul\":45133:45153   */\n      tag_392\n      jump\t// in\n    tag_885:\n        /* \"#utility.yul\":45128:45153   */\n      swap3\n      pop\n        /* \"#utility.yul\":45177:45178   */\n      dup3\n        /* \"#utility.yul\":45174:45175   */\n      dup3\n        /* \"#utility.yul\":45170:45179   */\n      sub\n        /* \"#utility.yul\":45162:45179   */\n      swap1\n      pop\n        /* \"#utility.yul\":45201:45202   */\n      dup2\n        /* \"#utility.yul\":45195:45199   */\n      dup2\n        /* \"#utility.yul\":45192:45203   */\n      gt\n        /* \"#utility.yul\":45189:45226   */\n      iszero\n      tag_886\n      jumpi\n        /* \"#utility.yul\":45206:45224   */\n      tag_887\n      tag_482\n      jump\t// in\n    tag_887:\n        /* \"#utility.yul\":45189:45226   */\n    tag_886:\n        /* \"#utility.yul\":45039:45233   */\n      swap3\n      swap2\n      pop\n      pop\n      jump\t// out\n        /* \"#utility.yul\":45239:45419   */\n    tag_302:\n        /* \"#utility.yul\":45287:45364   */\n      0x4e487b7100000000000000000000000000000000000000000000000000000000\n        /* \"#utility.yul\":45284:45285   */\n      0x00\n        /* \"#utility.yul\":45277:45365   */\n      mstore\n        /* \"#utility.yul\":45384:45388   */\n      0x31\n        /* \"#utility.yul\":45381:45382   */\n      0x04\n        /* \"#utility.yul\":45374:45389   */\n      mstore\n        /* \"#utility.yul\":45408:45412   */\n      0x24\n        /* \"#utility.yul\":45405:45406   */\n      0x00\n        /* \"#utility.yul\":45398:45413   */\n      revert\n        /* \"#utility.yul\":45425:45604   */\n    tag_485:\n        /* \"#utility.yul\":45565:45596   */\n      0x4e6f2044494420666f756e6420666f7220746869732061646472657373000000\n        /* \"#utility.yul\":45561:45562   */\n      0x00\n        /* \"#utility.yul\":45553:45559   */\n      dup3\n        /* \"#utility.yul\":45549:45563   */\n      add\n        /* \"#utility.yul\":45542:45597   */\n      mstore\n        /* \"#utility.yul\":45425:45604   */\n      pop\n      jump\t// out\n        /* \"#utility.yul\":45610:45976   */\n    tag_486:\n        /* \"#utility.yul\":45752:45755   */\n      0x00\n        /* \"#utility.yul\":45773:45840   */\n      tag_891\n        /* \"#utility.yul\":45837:45839   */\n      0x1d\n        /* \"#utility.yul\":45832:45835   */\n      dup4\n        /* \"#utility.yul\":45773:45840   */\n      tag_415\n      jump\t// in\n    tag_891:\n        /* \"#utility.yul\":45766:45840   */\n      swap2\n      pop\n        /* \"#utility.yul\":45849:45942   */\n      tag_892\n        /* \"#utility.yul\":45938:45941   */\n      dup3\n        /* \"#utility.yul\":45849:45942   */\n      tag_485\n      jump\t// in\n    tag_892:\n        /* \"#utility.yul\":45967:45969   */\n      0x20\n        /* \"#utility.yul\":45962:45965   */\n      dup3\n        /* \"#utility.yul\":45958:45970   */\n      add\n        /* \"#utility.yul\":45951:45970   */\n      swap1\n      pop\n        /* \"#utility.yul\":45610:45976   */\n      swap2\n      swap1\n      pop\n      jump\t// out\n        /* \"#utility.yul\":45982:46401   */\n    tag_322:\n        /* \"#utility.yul\":46148:46152   */\n      0x00\n        /* \"#utility.yul\":46186:46188   */\n      0x20\n        /* \"#utility.yul\":46175:46184   */\n      dup3\n        /* \"#utility.yul\":46171:46189   */\n      add\n        /* \"#utility.yul\":46163:46189   */\n      swap1\n      pop\n        /* \"#utility.yul\":46235:46244   */\n      dup2\n        /* \"#utility.yul\":46229:46233   */\n      dup2\n        /* \"#utility.yul\":46225:46245   */\n      sub\n        /* \"#utility.yul\":46221:46222   */\n      0x00\n        /* \"#utility.yul\":46210:46219   */\n      dup4\n        /* \"#utility.yul\":46206:46223   */\n      add\n        /* \"#utility.yul\":46199:46246   */\n      mstore\n        /* \"#utility.yul\":46263:46394   */\n      tag_894\n        /* \"#utility.yul\":46389:46393   */\n      dup2\n        /* \"#utility.yul\":46263:46394   */\n      tag_486\n      jump\t// in\n    tag_894:\n        /* \"#utility.yul\":46255:46394   */\n      swap1\n      pop\n        /* \"#utility.yul\":45982:46401   */\n      swap2\n      swap1\n      pop\n      jump\t// out\n        /* \"#utility.yul\":46407:46579   */\n    tag_487:\n        /* \"#utility.yul\":46547:46571   */\n      0x5461736b20616c726561647920636f6d706c6574656400000000000000000000\n        /* \"#utility.yul\":46543:46544   */\n      0x00\n        /* \"#utility.yul\":46535:46541   */\n      dup3\n        /* \"#utility.yul\":46531:46545   */\n      add\n        /* \"#utility.yul\":46524:46572   */\n      mstore\n        /* \"#utility.yul\":46407:46579   */\n      pop\n      jump\t// out\n        /* \"#utility.yul\":46585:46951   */\n    tag_488:\n        /* \"#utility.yul\":46727:46730   */\n      0x00\n        /* \"#utility.yul\":46748:46815   */\n      tag_897\n        /* \"#utility.yul\":46812:46814   */\n      0x16\n        /* \"#utility.yul\":46807:46810   */\n      dup4\n        /* \"#utility.yul\":46748:46815   */\n      tag_415\n      jump\t// in\n    tag_897:\n        /* \"#utility.yul\":46741:46815   */\n      swap2\n      pop\n        /* \"#utility.yul\":46824:46917   */\n      tag_898\n        /* \"#utility.yul\":46913:46916   */\n      dup3\n        /* \"#utility.yul\":46824:46917   */\n      tag_487\n      jump\t// in\n    tag_898:\n        /* \"#utility.yul\":46942:46944   */\n      0x20\n        /* \"#utility.yul\":46937:46940   */\n      dup3\n        /* \"#utility.yul\":46933:46945   */\n      add\n        /* \"#utility.yul\":46926:46945   */\n      swap1\n      pop\n        /* \"#utility.yul\":46585:46951   */\n      swap2\n      swap1\n      pop\n      jump\t// out\n        /* \"#utility.yul\":46957:47376   */\n    tag_335:\n        /* \"#utility.yul\":47123:47127   */\n      0x00\n        /* \"#utility.yul\":47161:47163   */\n      0x20\n        /* \"#utility.yul\":47150:47159   */\n      dup3\n        /* \"#utility.yul\":47146:47164   */\n      add\n        /* \"#utility.yul\":47138:47164   */\n      swap1\n      pop\n        /* \"#utility.yul\":47210:47219   */\n      dup2\n        /* \"#utility.yul\":47204:47208   */\n      dup2\n        /* \"#utility.yul\":47200:47220   */\n      sub\n        /* \"#utility.yul\":47196:47197   */\n      0x00\n        /* \"#utility.yul\":47185:47194   */\n      dup4\n        /* \"#utility.yul\":47181:47198   */\n      add\n        /* \"#utility.yul\":47174:47221   */\n      mstore\n        /* \"#utility.yul\":47238:47369   */\n      tag_900\n        /* \"#utility.yul\":47364:47368   */\n      dup2\n        /* \"#utility.yul\":47238:47369   */\n      tag_488\n      jump\t// in\n    tag_900:\n        /* \"#utility.yul\":47230:47369   */\n      swap1\n      pop\n        /* \"#utility.yul\":46957:47376   */\n      swap2\n      swap1\n      pop\n      jump\t// out\n        /* \"#utility.yul\":47382:47604   */\n    tag_337:\n        /* \"#utility.yul\":47475:47479   */\n      0x00\n        /* \"#utility.yul\":47513:47515   */\n      0x20\n        /* \"#utility.yul\":47502:47511   */\n      dup3\n        /* \"#utility.yul\":47498:47516   */\n      add\n        /* \"#utility.yul\":47490:47516   */\n      swap1\n      pop\n        /* \"#utility.yul\":47526:47597   */\n      tag_902\n        /* \"#utility.yul\":47594:47595   */\n      0x00\n        /* \"#utility.yul\":47583:47592   */\n      dup4\n        /* \"#utility.yul\":47579:47596   */\n      add\n        /* \"#utility.yul\":47570:47576   */\n      dup5\n        /* \"#utility.yul\":47526:47597   */\n      tag_481\n      jump\t// in\n    tag_902:\n        /* \"#utility.yul\":47382:47604   */\n      swap3\n      swap2\n      pop\n      pop\n      jump\t// out\n        /* \"#utility.yul\":47610:47832   */\n    tag_489:\n        /* \"#utility.yul\":47750:47784   */\n      0x4e6f206578697374696e672044494420666f756e6420666f7220746869732075\n        /* \"#utility.yul\":47746:47747   */\n      0x00\n        /* \"#utility.yul\":47738:47744   */\n      dup3\n        /* \"#utility.yul\":47734:47748   */\n      add\n        /* \"#utility.yul\":47727:47785   */\n      mstore\n        /* \"#utility.yul\":47819:47824   */\n      0x7365720000000000000000000000000000000000000000000000000000000000\n        /* \"#utility.yul\":47814:47816   */\n      0x20\n        /* \"#utility.yul\":47806:47812   */\n      dup3\n        /* \"#utility.yul\":47802:47817   */\n      add\n        /* \"#utility.yul\":47795:47825   */\n      mstore\n        /* \"#utility.yul\":47610:47832   */\n      pop\n      jump\t// out\n        /* \"#utility.yul\":47838:48204   */\n    tag_490:\n        /* \"#utility.yul\":47980:47983   */\n      0x00\n        /* \"#utility.yul\":48001:48068   */\n      tag_905\n        /* \"#utility.yul\":48065:48067   */\n      0x23\n        /* \"#utility.yul\":48060:48063   */\n      dup4\n        /* \"#utility.yul\":48001:48068   */\n      tag_415\n      jump\t// in\n    tag_905:\n        /* \"#utility.yul\":47994:48068   */\n      swap2\n      pop\n        /* \"#utility.yul\":48077:48170   */\n      tag_906\n        /* \"#utility.yul\":48166:48169   */\n      dup3\n        /* \"#utility.yul\":48077:48170   */\n      tag_489\n      jump\t// in\n    tag_906:\n        /* \"#utility.yul\":48195:48197   */\n      0x40\n        /* \"#utility.yul\":48190:48193   */\n      dup3\n        /* \"#utility.yul\":48186:48198   */\n      add\n        /* \"#utility.yul\":48179:48198   */\n      swap1\n      pop\n        /* \"#utility.yul\":47838:48204   */\n      swap2\n      swap1\n      pop\n      jump\t// out\n        /* \"#utility.yul\":48210:48629   */\n    tag_341:\n        /* \"#utility.yul\":48376:48380   */\n      0x00\n        /* \"#utility.yul\":48414:48416   */\n      0x20\n        /* \"#utility.yul\":48403:48412   */\n      dup3\n        /* \"#utility.yul\":48399:48417   */\n      add\n        /* \"#utility.yul\":48391:48417   */\n      swap1\n      pop\n        /* \"#utility.yul\":48463:48472   */\n      dup2\n        /* \"#utility.yul\":48457:48461   */\n      dup2\n        /* \"#utility.yul\":48453:48473   */\n      sub\n        /* \"#utility.yul\":48449:48450   */\n      0x00\n        /* \"#utility.yul\":48438:48447   */\n      dup4\n        /* \"#utility.yul\":48434:48451   */\n      add\n        /* \"#utility.yul\":48427:48474   */\n      mstore\n        /* \"#utility.yul\":48491:48622   */\n      tag_908\n        /* \"#utility.yul\":48617:48621   */\n      dup2\n        /* \"#utility.yul\":48491:48622   */\n      tag_490\n      jump\t// in\n    tag_908:\n        /* \"#utility.yul\":48483:48622   */\n      swap1\n      pop\n        /* \"#utility.yul\":48210:48629   */\n      swap2\n      swap1\n      pop\n      jump\t// out\n        /* \"#utility.yul\":48635:48855   */\n    tag_491:\n        /* \"#utility.yul\":48775:48809   */\n      0x5573657220646f6573206e6f74206861766520616e792063726564656e746961\n        /* \"#utility.yul\":48771:48772   */\n      0x00\n        /* \"#utility.yul\":48763:48769   */\n      dup3\n        /* \"#utility.yul\":48759:48773   */\n      add\n        /* \"#utility.yul\":48752:48810   */\n      mstore\n        /* \"#utility.yul\":48844:48847   */\n      0x6c00000000000000000000000000000000000000000000000000000000000000\n        /* \"#utility.yul\":48839:48841   */\n      0x20\n        /* \"#utility.yul\":48831:48837   */\n      dup3\n        /* \"#utility.yul\":48827:48842   */\n      add\n        /* \"#utility.yul\":48820:48848   */\n      mstore\n        /* \"#utility.yul\":48635:48855   */\n      pop\n      jump\t// out\n        /* \"#utility.yul\":48861:49227   */\n    tag_492:\n        /* \"#utility.yul\":49003:49006   */\n      0x00\n        /* \"#utility.yul\":49024:49091   */\n      tag_911\n        /* \"#utility.yul\":49088:49090   */\n      0x21\n        /* \"#utility.yul\":49083:49086   */\n      dup4\n        /* \"#utility.yul\":49024:49091   */\n      tag_415\n      jump\t// in\n    tag_911:\n        /* \"#utility.yul\":49017:49091   */\n      swap2\n      pop\n        /* \"#utility.yul\":49100:49193   */\n      tag_912\n        /* \"#utility.yul\":49189:49192   */\n      dup3\n        /* \"#utility.yul\":49100:49193   */\n      tag_491\n      jump\t// in\n    tag_912:\n        /* \"#utility.yul\":49218:49220   */\n      0x40\n        /* \"#utility.yul\":49213:49216   */\n      dup3\n        /* \"#utility.yul\":49209:49221   */\n      add\n        /* \"#utility.yul\":49202:49221   */\n      swap1\n      pop\n        /* \"#utility.yul\":48861:49227   */\n      swap2\n      swap1\n      pop\n      jump\t// out\n        /* \"#utility.yul\":49233:49652   */\n    tag_344:\n        /* \"#utility.yul\":49399:49403   */\n      0x00\n        /* \"#utility.yul\":49437:49439   */\n      0x20\n        /* \"#utility.yul\":49426:49435   */\n      dup3\n        /* \"#utility.yul\":49422:49440   */\n      add\n        /* \"#utility.yul\":49414:49440   */\n      swap1\n      pop\n        /* \"#utility.yul\":49486:49495   */\n      dup2\n        /* \"#utility.yul\":49480:49484   */\n      dup2\n        /* \"#utility.yul\":49476:49496   */\n      sub\n        /* \"#utility.yul\":49472:49473   */\n      0x00\n        /* \"#utility.yul\":49461:49470   */\n      dup4\n        /* \"#utility.yul\":49457:49474   */\n      add\n        /* \"#utility.yul\":49450:49497   */\n      mstore\n        /* \"#utility.yul\":49514:49645   */\n      tag_914\n        /* \"#utility.yul\":49640:49644   */\n      dup2\n        /* \"#utility.yul\":49514:49645   */\n      tag_492\n      jump\t// in\n    tag_914:\n        /* \"#utility.yul\":49506:49645   */\n      swap1\n      pop\n        /* \"#utility.yul\":49233:49652   */\n      swap2\n      swap1\n      pop\n      jump\t// out\n        /* \"#utility.yul\":49658:50069   */\n    tag_356:\n        /* \"#utility.yul\":49793:49797   */\n      0x00\n        /* \"#utility.yul\":49831:49833   */\n      0x40\n        /* \"#utility.yul\":49820:49829   */\n      dup3\n        /* \"#utility.yul\":49816:49834   */\n      add\n        /* \"#utility.yul\":49808:49834   */\n      swap1\n      pop\n        /* \"#utility.yul\":49880:49889   */\n      dup2\n        /* \"#utility.yul\":49874:49878   */\n      dup2\n        /* \"#utility.yul\":49870:49890   */\n      sub\n        /* \"#utility.yul\":49866:49867   */\n      0x00\n        /* \"#utility.yul\":49855:49864   */\n      dup4\n        /* \"#utility.yul\":49851:49868   */\n      add\n        /* \"#utility.yul\":49844:49891   */\n      mstore\n        /* \"#utility.yul\":49908:49986   */\n      tag_916\n        /* \"#utility.yul\":49981:49985   */\n      dup2\n        /* \"#utility.yul\":49972:49978   */\n      dup6\n        /* \"#utility.yul\":49908:49986   */\n      tag_416\n      jump\t// in\n    tag_916:\n        /* \"#utility.yul\":49900:49986   */\n      swap1\n      pop\n        /* \"#utility.yul\":49996:50062   */\n      tag_917\n        /* \"#utility.yul\":50058:50060   */\n      0x20\n        /* \"#utility.yul\":50047:50056   */\n      dup4\n        /* \"#utility.yul\":50043:50061   */\n      add\n        /* \"#utility.yul\":50034:50040   */\n      dup5\n        /* \"#utility.yul\":49996:50062   */\n      tag_411\n      jump\t// in\n    tag_917:\n        /* \"#utility.yul\":49658:50069   */\n      swap4\n      swap3\n      pop\n      pop\n      pop\n      jump\t// out\n        /* \"#utility.yul\":50075:50256   */\n    tag_493:\n        /* \"#utility.yul\":50215:50248   */\n      0x4e6f20726f6c65732061737369676e656420666f722074686973207573657200\n        /* \"#utility.yul\":50211:50212   */\n      0x00\n        /* \"#utility.yul\":50203:50209   */\n      dup3\n        /* \"#utility.yul\":50199:50213   */\n      add\n        /* \"#utility.yul\":50192:50249   */\n      mstore\n        /* \"#utility.yul\":50075:50256   */\n      pop\n      jump\t// out\n        /* \"#utility.yul\":50262:50628   */\n    tag_494:\n        /* \"#utility.yul\":50404:50407   */\n      0x00\n        /* \"#utility.yul\":50425:50492   */\n      tag_920\n        /* \"#utility.yul\":50489:50491   */\n      0x1f\n        /* \"#utility.yul\":50484:50487   */\n      dup4\n        /* \"#utility.yul\":50425:50492   */\n      tag_415\n      jump\t// in\n    tag_920:\n        /* \"#utility.yul\":50418:50492   */\n      swap2\n      pop\n        /* \"#utility.yul\":50501:50594   */\n      tag_921\n        /* \"#utility.yul\":50590:50593   */\n      dup3\n        /* \"#utility.yul\":50501:50594   */\n      tag_493\n      jump\t// in\n    tag_921:\n        /* \"#utility.yul\":50619:50621   */\n      0x20\n        /* \"#utility.yul\":50614:50617   */\n      dup3\n        /* \"#utility.yul\":50610:50622   */\n      add\n        /* \"#utility.yul\":50603:50622   */\n      swap1\n      pop\n        /* \"#utility.yul\":50262:50628   */\n      swap2\n      swap1\n      pop\n      jump\t// out\n        /* \"#utility.yul\":50634:51053   */\n    tag_370:\n        /* \"#utility.yul\":50800:50804   */\n      0x00\n        /* \"#utility.yul\":50838:50840   */\n      0x20\n        /* \"#utility.yul\":50827:50836   */\n      dup3\n        /* \"#utility.yul\":50823:50841   */\n      add\n        /* \"#utility.yul\":50815:50841   */\n      swap1\n      pop\n        /* \"#utility.yul\":50887:50896   */\n      dup2\n        /* \"#utility.yul\":50881:50885   */\n      dup2\n        /* \"#utility.yul\":50877:50897   */\n      sub\n        /* \"#utility.yul\":50873:50874   */\n      0x00\n        /* \"#utility.yul\":50862:50871   */\n      dup4\n        /* \"#utility.yul\":50858:50875   */\n      add\n        /* \"#utility.yul\":50851:50898   */\n      mstore\n        /* \"#utility.yul\":50915:51046   */\n      tag_923\n        /* \"#utility.yul\":51041:51045   */\n      dup2\n        /* \"#utility.yul\":50915:51046   */\n      tag_494\n      jump\t// in\n    tag_923:\n        /* \"#utility.yul\":50907:51046   */\n      swap1\n      pop\n        /* \"#utility.yul\":50634:51053   */\n      swap2\n      swap1\n      pop\n      jump\t// out\n\n    auxdata: 0xa2646970667358221220fc30d0852eafe356dbd976bbed39c732943186828672e3f327aaacca6b63e93964736f6c634300081a0033\n}\n",
				"bytecode": {
					"linkReferences": {},
					"object": "60806040525f600455348015610013575f80fd5b506040518060400160405280600781526020017f6d616e616765720000000000000000000000000000000000000000000000000081525060015f3373ffffffffffffffffffffffffffffffffffffffff1673ffffffffffffffffffffffffffffffffffffffff1681526020019081526020015f2090816100939190610372565b5060025f3373ffffffffffffffffffffffffffffffffffffffff1673ffffffffffffffffffffffffffffffffffffffff1681526020019081526020015f208060018154018082558091505060019003905f5260205f20015f6040518060400160405280600781526020017f6d616e6167657200000000000000000000000000000000000000000000000000815250909190915090816101329190610372565b50610441565b5f81519050919050565b7f4e487b71000000000000000000000000000000000000000000000000000000005f52604160045260245ffd5b7f4e487b71000000000000000000000000000000000000000000000000000000005f52602260045260245ffd5b5f60028204905060018216806101b357607f821691505b6020821081036101c6576101c561016f565b5b50919050565b5f819050815f5260205f209050919050565b5f6020601f8301049050919050565b5f82821b905092915050565b5f600883026102287fffffffffffffffffffffffffffffffffffffffffffffffffffffffffffffffff826101ed565b61023286836101ed565b95508019841693508086168417925050509392505050565b5f819050919050565b5f819050919050565b5f61027661027161026c8461024a565b610253565b61024a565b9050919050565b5f819050919050565b61028f8361025c565b6102a361029b8261027d565b8484546101f9565b825550505050565b5f90565b6102b76102ab565b6102c2818484610286565b505050565b5b818110156102e5576102da5f826102af565b6001810190506102c8565b5050565b601f82111561032a576102fb816101cc565b610304846101de565b81016020851015610313578190505b61032761031f856101de565b8301826102c7565b50505b505050565b5f82821c905092915050565b5f61034a5f198460080261032f565b1980831691505092915050565b5f610362838361033b565b9150826002028217905092915050565b61037b82610138565b67ffffffffffffffff81111561039457610393610142565b5b61039e825461019c565b6103a98282856102e9565b5f60209050601f8311600181146103da575f84156103c8578287015190505b6103d28582610357565b865550610439565b601f1984166103e8866101cc565b5f5b8281101561040f578489015182556001820191506020850194506020810190506103ea565b8683101561042c5784890151610428601f89168261033b565b8355505b6001600288020188555050505b505050505050565b614d758061044e5f395ff3fe608060405234801561000f575f80fd5b50600436106100fe575f3560e01c80634505e29911610095578063bc9c2d5511610064578063bc9c2d55146102a6578063e1e29558146102c4578063e4f0c22b146102e0578063fde0817414610310576100fe565b80634505e299146102225780636c03a8981461023e5780636f6b07db1461026e578063b7dfcbee1461028a576100fe565b806314c95832116100d157806314c958321461019c5780631d65e77e146101b857806334112f5f146101e85780633457d3e214610206576100fe565b8063022bf9c11461010257806304a87e381461011e578063096f84941461013c578063106682641461016c575b5f80fd5b61011c600480360381019061011791906136a2565b61032e565b005b610126610755565b604051610133919061397f565b60405180910390f35b610156600480360381019061015191906139c9565b610bd2565b6040516101639190613a03565b60405180910390f35b61018660048036038101906101819190613a1c565b610d9b565b6040516101939190613a03565b60405180910390f35b6101b660048036038101906101b19190613a5a565b610fb2565b005b6101d260048036038101906101cd91906139c9565b6111ba565b6040516101df9190613b55565b60405180910390f35b6101f0611672565b6040516101fd919061397f565b60405180910390f35b610220600480360381019061021b9190613a5a565b611ac5565b005b61023c60048036038101906102379190613b98565b611ce9565b005b610258600480360381019061025391906139c9565b612178565b6040516102659190613a03565b60405180910390f35b61028860048036038101906102839190613a1c565b61234c565b005b6102a4600480360381019061029f91906136a2565b6127ba565b005b6102ae612aa2565b6040516102bb9190613c8f565b60405180910390f35b6102de60048036038101906102d991906139c9565b612c3a565b005b6102fa60048036038101906102f59190613caf565b612ed3565b6040516103079190613a03565b60405180910390f35b61031861326f565b6040516103259190613dd6565b60405180910390f35b6040518060400160405280600781526020017f6d616e61676572000000000000000000000000000000000000000000000000008152508051906020012060015f3373ffffffffffffffffffffffffffffffffffffffff1673ffffffffffffffffffffffffffffffffffffffff1681526020019081526020015f206040516103b59190613eef565b6040518091039020146103fd576040517f08c379a00000000000000000000000000000000000000000000000000000000081526004016103f490613f4f565b60405180910390fd5b5f73ffffffffffffffffffffffffffffffffffffffff165f803373ffffffffffffffffffffffffffffffffffffffff1673ffffffffffffffffffffffffffffffffffffffff1681526020019081526020015f206001015f9054906101000a900473ffffffffffffffffffffffffffffffffffffffff1673ffffffffffffffffffffffffffffffffffffffff16036104c9576040517f08c379a00000000000000000000000000000000000000000000000000000000081526004016104c090613fdd565b60405180910390fd5b5f81511161050c576040517f08c379a000000000000000000000000000000000000000000000000000000000815260040161050390614045565b60405180910390fd5b5f338383426040516020016105249493929190614102565b60405160208183030381529060405280519060200120905060035f8473ffffffffffffffffffffffffffffffffffffffff1673ffffffffffffffffffffffffffffffffffffffff1681526020019081526020015f2060405180608001604052803373ffffffffffffffffffffffffffffffffffffffff16815260200184815260200183815260200142815250908060018154018082558091505060019003905f5260205f2090600402015f909190919091505f820151815f015f6101000a81548173ffffffffffffffffffffffffffffffffffffffff021916908373ffffffffffffffffffffffffffffffffffffffff160217905550602082015181600101908161062f91906142e8565b50604082015181600201556060820151816003015550508160015f8573ffffffffffffffffffffffffffffffffffffffff1673ffffffffffffffffffffffffffffffffffffffff1681526020019081526020015f20908161069091906142e8565b5060025f8473ffffffffffffffffffffffffffffffffffffffff1673ffffffffffffffffffffffffffffffffffffffff1681526020019081526020015f2082908060018154018082558091505060019003905f5260205f20015f9091909190915090816106fd91906142e8565b503373ffffffffffffffffffffffffffffffffffffffff167ff4313cb022699889c6eddb590e42342301cdae4824fd424ffdfdeb23d4cdbbe9848484604051610748939291906143de565b60405180910390a2505050565b60606040518060400160405280600781526020017f6d616e61676572000000000000000000000000000000000000000000000000008152508051906020012060015f3373ffffffffffffffffffffffffffffffffffffffff1673ffffffffffffffffffffffffffffffffffffffff1681526020019081526020015f206040516107de9190613eef565b604051809103902014610826576040517f08c379a000000000000000000000000000000000000000000000000000000000815260040161081d90613f4f565b60405180910390fd5b5f73ffffffffffffffffffffffffffffffffffffffff165f803373ffffffffffffffffffffffffffffffffffffffff1673ffffffffffffffffffffffffffffffffffffffff1681526020019081526020015f206001015f9054906101000a900473ffffffffffffffffffffffffffffffffffffffff1673ffffffffffffffffffffffffffffffffffffffff16036108f2576040517f08c379a00000000000000000000000000000000000000000000000000000000081526004016108e990613fdd565b60405180910390fd5b5f60045411610936576040517f08c379a000000000000000000000000000000000000000000000000000000000815260040161092d90614464565b60405180910390fd5b5f60045467ffffffffffffffff8111156109535761095261357e565b5b60405190808252806020026020018201604052801561098c57816020015b610979613492565b8152602001906001900390816109715790505b5090505f5b600454811015610bca5760055f8281526020019081526020015f20604051806101000160405290815f82015481526020016001820180546109d190613e23565b80601f01602080910402602001604051908101604052809291908181526020018280546109fd90613e23565b8015610a485780601f10610a1f57610100808354040283529160200191610a48565b820191905f5260205f20905b815481529060010190602001808311610a2b57829003601f168201915b50505050508152602001600282018054610a6190613e23565b80601f0160208091040260200160405190810160405280929190818152602001828054610a8d90613e23565b8015610ad85780601f10610aaf57610100808354040283529160200191610ad8565b820191905f5260205f20905b815481529060010190602001808311610abb57829003601f168201915b50505050508152602001600382015f9054906101000a900460ff166002811115610b0557610b0461379d565b5b6002811115610b1757610b1661379d565b5b815260200160048201548152602001600582015f9054906101000a900473ffffffffffffffffffffffffffffffffffffffff1673ffffffffffffffffffffffffffffffffffffffff1673ffffffffffffffffffffffffffffffffffffffff1681526020016005820160149054906101000a900460ff16151515158152602001600682015481525050828281518110610bb257610bb1614482565b5b60200260200101819052508080600101915050610991565b508091505090565b5f8073ffffffffffffffffffffffffffffffffffffffff165f803373ffffffffffffffffffffffffffffffffffffffff1673ffffffffffffffffffffffffffffffffffffffff1681526020019081526020015f206001015f9054906101000a900473ffffffffffffffffffffffffffffffffffffffff1673ffffffffffffffffffffffffffffffffffffffff1603610c9f576040517f08c379a0000000000000000000000000000000000000000000000000000000008152600401610c9690613fdd565b60405180910390fd5b5f73ffffffffffffffffffffffffffffffffffffffff1660055f8481526020019081526020015f206005015f9054906101000a900473ffffffffffffffffffffffffffffffffffffffff1673ffffffffffffffffffffffffffffffffffffffff1603610d40576040517f08c379a0000000000000000000000000000000000000000000000000000000008152600401610d37906144f9565b60405180910390fd5b5f4260055f8581526020019081526020015f2060040154119050827f98839d14e1c6921e1109e3f12466427e93a0b41da8e46e903a23a78e3e471dcd82604051610d8a9190613a03565b60405180910390a280915050919050565b5f8073ffffffffffffffffffffffffffffffffffffffff165f803373ffffffffffffffffffffffffffffffffffffffff1673ffffffffffffffffffffffffffffffffffffffff1681526020019081526020015f206001015f9054906101000a900473ffffffffffffffffffffffffffffffffffffffff1673ffffffffffffffffffffffffffffffffffffffff1603610e68576040517f08c379a0000000000000000000000000000000000000000000000000000000008152600401610e5f90613fdd565b60405180910390fd5b5f73ffffffffffffffffffffffffffffffffffffffff1660055f8581526020019081526020015f206005015f9054906101000a900473ffffffffffffffffffffffffffffffffffffffff1673ffffffffffffffffffffffffffffffffffffffff1603610f09576040517f08c379a0000000000000000000000000000000000000000000000000000000008152600401610f00906144f9565b60405180910390fd5b5f8273ffffffffffffffffffffffffffffffffffffffff1660055f8681526020019081526020015f206005015f9054906101000a900473ffffffffffffffffffffffffffffffffffffffff1673ffffffffffffffffffffffffffffffffffffffff16149050837fde182422c60d08a3e491f609a62a1a48fa3876e4cbb962eb9c194de3000951a58483604051610fa0929190614517565b60405180910390a28091505092915050565b5f815111610ff5576040517f08c379a0000000000000000000000000000000000000000000000000000000008152600401610fec90614588565b60405180910390fd5b5f73ffffffffffffffffffffffffffffffffffffffff165f803373ffffffffffffffffffffffffffffffffffffffff1673ffffffffffffffffffffffffffffffffffffffff1681526020019081526020015f206001015f9054906101000a900473ffffffffffffffffffffffffffffffffffffffff1673ffffffffffffffffffffffffffffffffffffffff16036110c1576040517f08c379a00000000000000000000000000000000000000000000000000000000081526004016110b890613fdd565b60405180910390fd5b5f6110ca612aa2565b9050818051906020012081805190602001200361111c576040517f08c379a0000000000000000000000000000000000000000000000000000000008152600401611113906145f0565b60405180910390fd5b815f803373ffffffffffffffffffffffffffffffffffffffff1673ffffffffffffffffffffffffffffffffffffffff1681526020019081526020015f205f01908161116791906142e8565b503373ffffffffffffffffffffffffffffffffffffffff167f1b7934654ba536b6962955e057ce42885353bbaad8c605a5ce0678e632f28410836040516111ae9190613c8f565b60405180910390a25050565b6111c2613492565b5f73ffffffffffffffffffffffffffffffffffffffff165f803373ffffffffffffffffffffffffffffffffffffffff1673ffffffffffffffffffffffffffffffffffffffff1681526020019081526020015f206001015f9054906101000a900473ffffffffffffffffffffffffffffffffffffffff1673ffffffffffffffffffffffffffffffffffffffff160361128e576040517f08c379a000000000000000000000000000000000000000000000000000000000815260040161128590613fdd565b60405180910390fd5b5f73ffffffffffffffffffffffffffffffffffffffff1660055f8481526020019081526020015f206005015f9054906101000a900473ffffffffffffffffffffffffffffffffffffffff1673ffffffffffffffffffffffffffffffffffffffff160361132f576040517f08c379a0000000000000000000000000000000000000000000000000000000008152600401611326906144f9565b60405180910390fd5b60055f8381526020019081526020015f206005015f9054906101000a900473ffffffffffffffffffffffffffffffffffffffff1673ffffffffffffffffffffffffffffffffffffffff163373ffffffffffffffffffffffffffffffffffffffff16148061142857506040518060400160405280600781526020017f6d616e61676572000000000000000000000000000000000000000000000000008152508051906020012060015f3373ffffffffffffffffffffffffffffffffffffffff1673ffffffffffffffffffffffffffffffffffffffff1681526020019081526020015f2060405161141e9190613eef565b6040518091039020145b611467576040517f08c379a000000000000000000000000000000000000000000000000000000000815260040161145e90614658565b60405180910390fd5b60055f8381526020019081526020015f20604051806101000160405290815f820154815260200160018201805461149d90613e23565b80601f01602080910402602001604051908101604052809291908181526020018280546114c990613e23565b80156115145780601f106114eb57610100808354040283529160200191611514565b820191905f5260205f20905b8154815290600101906020018083116114f757829003601f168201915b5050505050815260200160028201805461152d90613e23565b80601f016020809104026020016040519081016040528092919081815260200182805461155990613e23565b80156115a45780601f1061157b576101008083540402835291602001916115a4565b820191905f5260205f20905b81548152906001019060200180831161158757829003601f168201915b50505050508152602001600382015f9054906101000a900460ff1660028111156115d1576115d061379d565b5b60028111156115e3576115e261379d565b5b815260200160048201548152602001600582015f9054906101000a900473ffffffffffffffffffffffffffffffffffffffff1673ffffffffffffffffffffffffffffffffffffffff1673ffffffffffffffffffffffffffffffffffffffff1681526020016005820160149054906101000a900460ff161515151581526020016006820154815250509050919050565b60605f73ffffffffffffffffffffffffffffffffffffffff165f803373ffffffffffffffffffffffffffffffffffffffff1673ffffffffffffffffffffffffffffffffffffffff1681526020019081526020015f206001015f9054906101000a900473ffffffffffffffffffffffffffffffffffffffff1673ffffffffffffffffffffffffffffffffffffffff1603611740576040517f08c379a000000000000000000000000000000000000000000000000000000000815260040161173790613fdd565b60405180910390fd5b5f60065f3373ffffffffffffffffffffffffffffffffffffffff1673ffffffffffffffffffffffffffffffffffffffff1681526020019081526020015f208054806020026020016040519081016040528092919081815260200182805480156117c657602002820191905f5260205f20905b8154815260200190600101908083116117b2575b505050505090505f815111611810576040517f08c379a0000000000000000000000000000000000000000000000000000000008152600401611807906146c0565b60405180910390fd5b5f815167ffffffffffffffff81111561182c5761182b61357e565b5b60405190808252806020026020018201604052801561186557816020015b611852613492565b81526020019060019003908161184a5790505b5090505f5b8251811015611abc5760055f84838151811061188957611888614482565b5b602002602001015181526020019081526020015f20604051806101000160405290815f82015481526020016001820180546118c390613e23565b80601f01602080910402602001604051908101604052809291908181526020018280546118ef90613e23565b801561193a5780601f106119115761010080835404028352916020019161193a565b820191905f5260205f20905b81548152906001019060200180831161191d57829003601f168201915b5050505050815260200160028201805461195390613e23565b80601f016020809104026020016040519081016040528092919081815260200182805461197f90613e23565b80156119ca5780601f106119a1576101008083540402835291602001916119ca565b820191905f5260205f20905b8154815290600101906020018083116119ad57829003601f168201915b50505050508152602001600382015f9054906101000a900460ff1660028111156119f7576119f661379d565b5b6002811115611a0957611a0861379d565b5b815260200160048201548152602001600582015f9054906101000a900473ffffffffffffffffffffffffffffffffffffffff1673ffffffffffffffffffffffffffffffffffffffff1673ffffffffffffffffffffffffffffffffffffffff1681526020016005820160149054906101000a900460ff16151515158152602001600682015481525050828281518110611aa457611aa3614482565b5b6020026020010181905250808060010191505061186a565b50809250505090565b5f815111611b08576040517f08c379a0000000000000000000000000000000000000000000000000000000008152600401611aff90614728565b60405180910390fd5b5f73ffffffffffffffffffffffffffffffffffffffff165f803373ffffffffffffffffffffffffffffffffffffffff1673ffffffffffffffffffffffffffffffffffffffff1681526020019081526020015f206001015f9054906101000a900473ffffffffffffffffffffffffffffffffffffffff1673ffffffffffffffffffffffffffffffffffffffff1614611bd4576040517f08c379a0000000000000000000000000000000000000000000000000000000008152600401611bcb906147b6565b60405180910390fd5b60405180604001604052808281526020013373ffffffffffffffffffffffffffffffffffffffff168152505f803373ffffffffffffffffffffffffffffffffffffffff1673ffffffffffffffffffffffffffffffffffffffff1681526020019081526020015f205f820151815f019081611c4e91906142e8565b506020820151816001015f6101000a81548173ffffffffffffffffffffffffffffffffffffffff021916908373ffffffffffffffffffffffffffffffffffffffff1602179055509050503373ffffffffffffffffffffffffffffffffffffffff167f1b7934654ba536b6962955e057ce42885353bbaad8c605a5ce0678e632f2841082604051611cde9190613c8f565b60405180910390a250565b6040518060400160405280600781526020017f6d616e61676572000000000000000000000000000000000000000000000000008152508051906020012060015f3373ffffffffffffffffffffffffffffffffffffffff1673ffffffffffffffffffffffffffffffffffffffff1681526020019081526020015f20604051611d709190613eef565b604051809103902014611db8576040517f08c379a0000000000000000000000000000000000000000000000000000000008152600401611daf90613f4f565b60405180910390fd5b5f73ffffffffffffffffffffffffffffffffffffffff165f803373ffffffffffffffffffffffffffffffffffffffff1673ffffffffffffffffffffffffffffffffffffffff1681526020019081526020015f206001015f9054906101000a900473ffffffffffffffffffffffffffffffffffffffff1673ffffffffffffffffffffffffffffffffffffffff1603611e84576040517f08c379a0000000000000000000000000000000000000000000000000000000008152600401611e7b90613fdd565b60405180910390fd5b5f855111611ec7576040517f08c379a0000000000000000000000000000000000000000000000000000000008152600401611ebe9061481e565b60405180910390fd5b5f845111611f0a576040517f08c379a0000000000000000000000000000000000000000000000000000000008152600401611f0190614886565b60405180910390fd5b428211611f4c576040517f08c379a0000000000000000000000000000000000000000000000000000000008152600401611f43906148ee565b60405180910390fd5b6040518061010001604052806004548152602001868152602001858152602001846002811115611f7f57611f7e61379d565b5b81526020018381526020018273ffffffffffffffffffffffffffffffffffffffff1681526020015f151581526020015f81525060055f60045481526020019081526020015f205f820151815f01556020820151816001019081611fe291906142e8565b506040820151816002019081611ff891906142e8565b506060820151816003015f6101000a81548160ff021916908360028111156120235761202261379d565b5b02179055506080820151816004015560a0820151816005015f6101000a81548173ffffffffffffffffffffffffffffffffffffffff021916908373ffffffffffffffffffffffffffffffffffffffff16021790555060c08201518160050160146101000a81548160ff02191690831515021790555060e0820151816006015590505060065f8273ffffffffffffffffffffffffffffffffffffffff1673ffffffffffffffffffffffffffffffffffffffff1681526020019081526020015f20600454908060018154018082558091505060019003905f5260205f20015f90919091909150553373ffffffffffffffffffffffffffffffffffffffff167f3f9b921f6bb5d577cdf49122202d27f7c50e3cc981c47543dc4a59c00dee52298260045460405161215292919061491b565b60405180910390a260045f81548092919061216c9061496f565b91905055505050505050565b5f8073ffffffffffffffffffffffffffffffffffffffff165f803373ffffffffffffffffffffffffffffffffffffffff1673ffffffffffffffffffffffffffffffffffffffff1681526020019081526020015f206001015f9054906101000a900473ffffffffffffffffffffffffffffffffffffffff1673ffffffffffffffffffffffffffffffffffffffff1603612245576040517f08c379a000000000000000000000000000000000000000000000000000000000815260040161223c90613fdd565b60405180910390fd5b5f73ffffffffffffffffffffffffffffffffffffffff1660055f8481526020019081526020015f206005015f9054906101000a900473ffffffffffffffffffffffffffffffffffffffff1673ffffffffffffffffffffffffffffffffffffffff16036122e6576040517f08c379a00000000000000000000000000000000000000000000000000000000081526004016122dd906144f9565b60405180910390fd5b5f60055f8481526020019081526020015f2060050160149054906101000a900460ff169050827f5b1d4634b3c10500ffedc8842916f2444f17b692faca086f941028797de877288260405161233b9190613a03565b60405180910390a280915050919050565b6040518060400160405280600781526020017f6d616e61676572000000000000000000000000000000000000000000000000008152508051906020012060015f3373ffffffffffffffffffffffffffffffffffffffff1673ffffffffffffffffffffffffffffffffffffffff1681526020019081526020015f206040516123d39190613eef565b60405180910390201461241b576040517f08c379a000000000000000000000000000000000000000000000000000000000815260040161241290613f4f565b60405180910390fd5b5f73ffffffffffffffffffffffffffffffffffffffff165f803373ffffffffffffffffffffffffffffffffffffffff1673ffffffffffffffffffffffffffffffffffffffff1681526020019081526020015f206001015f9054906101000a900473ffffffffffffffffffffffffffffffffffffffff1673ffffffffffffffffffffffffffffffffffffffff16036124e7576040517f08c379a00000000000000000000000000000000000000000000000000000000081526004016124de90613fdd565b60405180910390fd5b8073ffffffffffffffffffffffffffffffffffffffff1660055f8481526020019081526020015f206005015f9054906101000a900473ffffffffffffffffffffffffffffffffffffffff1673ffffffffffffffffffffffffffffffffffffffff1603612588576040517f08c379a000000000000000000000000000000000000000000000000000000000815260040161257f90614a26565b60405180910390fd5b5f60055f8481526020019081526020015f206005015f9054906101000a900473ffffffffffffffffffffffffffffffffffffffff1690508160055f8581526020019081526020015f206005015f6101000a81548173ffffffffffffffffffffffffffffffffffffffff021916908373ffffffffffffffffffffffffffffffffffffffff1602179055505f60065f8373ffffffffffffffffffffffffffffffffffffffff1673ffffffffffffffffffffffffffffffffffffffff1681526020019081526020015f2090505f5b8180549050811015612702578482828154811061267357612672614482565b5b905f5260205f200154036126f55781600183805490506126939190614a44565b815481106126a4576126a3614482565b5b905f5260205f2001548282815481106126c0576126bf614482565b5b905f5260205f200181905550818054806126dd576126dc614a77565b5b600190038181905f5260205f20015f90559055612702565b8080600101915050612653565b5060065f8473ffffffffffffffffffffffffffffffffffffffff1673ffffffffffffffffffffffffffffffffffffffff1681526020019081526020015f2084908060018154018082558091505060019003905f5260205f20015f90919091909150553373ffffffffffffffffffffffffffffffffffffffff167f0a836a77b7d869c0ecbc2d10f741a9cbdd750caf2459e4b97fac260346e14f3284866040516127ac92919061491b565b60405180910390a250505050565b6040518060400160405280600781526020017f6d616e61676572000000000000000000000000000000000000000000000000008152508051906020012060015f3373ffffffffffffffffffffffffffffffffffffffff1673ffffffffffffffffffffffffffffffffffffffff1681526020019081526020015f206040516128419190613eef565b604051809103902014612889576040517f08c379a000000000000000000000000000000000000000000000000000000000815260040161288090613f4f565b60405180910390fd5b5f73ffffffffffffffffffffffffffffffffffffffff165f803373ffffffffffffffffffffffffffffffffffffffff1673ffffffffffffffffffffffffffffffffffffffff1681526020019081526020015f206001015f9054906101000a900473ffffffffffffffffffffffffffffffffffffffff1673ffffffffffffffffffffffffffffffffffffffff1603612955576040517f08c379a000000000000000000000000000000000000000000000000000000000815260040161294c90613fdd565b60405180910390fd5b5f815111612998576040517f08c379a000000000000000000000000000000000000000000000000000000000815260040161298f90614045565b60405180910390fd5b8060015f8473ffffffffffffffffffffffffffffffffffffffff1673ffffffffffffffffffffffffffffffffffffffff1681526020019081526020015f2090816129e291906142e8565b5060025f8373ffffffffffffffffffffffffffffffffffffffff1673ffffffffffffffffffffffffffffffffffffffff1681526020019081526020015f2081908060018154018082558091505060019003905f5260205f20015f909190919091509081612a4f91906142e8565b508173ffffffffffffffffffffffffffffffffffffffff167f3565795c2fb8842c21347d277937778bbcfe788b5b4f790fc5e408786cbe9c9082604051612a969190613c8f565b60405180910390a25050565b60605f73ffffffffffffffffffffffffffffffffffffffff165f803373ffffffffffffffffffffffffffffffffffffffff1673ffffffffffffffffffffffffffffffffffffffff1681526020019081526020015f206001015f9054906101000a900473ffffffffffffffffffffffffffffffffffffffff1673ffffffffffffffffffffffffffffffffffffffff1603612b70576040517f08c379a0000000000000000000000000000000000000000000000000000000008152600401612b6790614aee565b60405180910390fd5b5f803373ffffffffffffffffffffffffffffffffffffffff1673ffffffffffffffffffffffffffffffffffffffff1681526020019081526020015f205f018054612bb990613e23565b80601f0160208091040260200160405190810160405280929190818152602001828054612be590613e23565b8015612c305780601f10612c0757610100808354040283529160200191612c30565b820191905f5260205f20905b815481529060010190602001808311612c1357829003601f168201915b5050505050905090565b5f73ffffffffffffffffffffffffffffffffffffffff165f803373ffffffffffffffffffffffffffffffffffffffff1673ffffffffffffffffffffffffffffffffffffffff1681526020019081526020015f206001015f9054906101000a900473ffffffffffffffffffffffffffffffffffffffff1673ffffffffffffffffffffffffffffffffffffffff1603612d06576040517f08c379a0000000000000000000000000000000000000000000000000000000008152600401612cfd90613fdd565b60405180910390fd5b60055f8281526020019081526020015f206005015f9054906101000a900473ffffffffffffffffffffffffffffffffffffffff1673ffffffffffffffffffffffffffffffffffffffff163373ffffffffffffffffffffffffffffffffffffffff1614612da7576040517f08c379a0000000000000000000000000000000000000000000000000000000008152600401612d9e90614658565b60405180910390fd5b60055f8281526020019081526020015f2060050160149054906101000a900460ff1615612e09576040517f08c379a0000000000000000000000000000000000000000000000000000000008152600401612e0090614b56565b60405180910390fd5b600160055f8381526020019081526020015f2060050160146101000a81548160ff0219169083151502179055504260055f8381526020019081526020015f206006018190555060055f8281526020019081526020015f206005015f9054906101000a900473ffffffffffffffffffffffffffffffffffffffff1673ffffffffffffffffffffffffffffffffffffffff167ff684d89bb0f42287bf32838774e4b7f8a60c11804b3c6d1791fa55f30679264382604051612ec89190614b74565b60405180910390a250565b5f8073ffffffffffffffffffffffffffffffffffffffff165f808673ffffffffffffffffffffffffffffffffffffffff1673ffffffffffffffffffffffffffffffffffffffff1681526020019081526020015f206001015f9054906101000a900473ffffffffffffffffffffffffffffffffffffffff1673ffffffffffffffffffffffffffffffffffffffff1603612fa0576040517f08c379a0000000000000000000000000000000000000000000000000000000008152600401612f9790614bfd565b60405180910390fd5b5f60035f8673ffffffffffffffffffffffffffffffffffffffff1673ffffffffffffffffffffffffffffffffffffffff1681526020019081526020015f208054905011613022576040517f08c379a000000000000000000000000000000000000000000000000000000000815260040161301990614c8b565b60405180910390fd5b5f60035f8673ffffffffffffffffffffffffffffffffffffffff1673ffffffffffffffffffffffffffffffffffffffff1681526020019081526020015f20600160035f8873ffffffffffffffffffffffffffffffffffffffff1673ffffffffffffffffffffffffffffffffffffffff1681526020019081526020015f20805490506130ad9190614a44565b815481106130be576130bd614482565b5b905f5260205f2090600402016040518060800160405290815f82015f9054906101000a900473ffffffffffffffffffffffffffffffffffffffff1673ffffffffffffffffffffffffffffffffffffffff1673ffffffffffffffffffffffffffffffffffffffff16815260200160018201805461313990613e23565b80601f016020809104026020016040519081016040528092919081815260200182805461316590613e23565b80156131b05780601f10613187576101008083540402835291602001916131b0565b820191905f5260205f20905b81548152906001019060200180831161319357829003601f168201915b505050505081526020016002820154815260200160038201548152505090505f816040015190505f85878685606001516040516020016131f39493929190614102565b6040516020818303038152906040528051906020012090505f81831490508673ffffffffffffffffffffffffffffffffffffffff167f743119e0f5c3443022e2e080183ceafc4ccb88f4c29fc6dbdab02412b99359088783604051613259929190614ca9565b60405180910390a2809450505050509392505050565b60605f73ffffffffffffffffffffffffffffffffffffffff165f803373ffffffffffffffffffffffffffffffffffffffff1673ffffffffffffffffffffffffffffffffffffffff1681526020019081526020015f206001015f9054906101000a900473ffffffffffffffffffffffffffffffffffffffff1673ffffffffffffffffffffffffffffffffffffffff160361333d576040517f08c379a000000000000000000000000000000000000000000000000000000000815260040161333490613fdd565b60405180910390fd5b5f60025f3373ffffffffffffffffffffffffffffffffffffffff1673ffffffffffffffffffffffffffffffffffffffff1681526020019081526020015f20805480602002602001604051908101604052809291908181526020015f905b82821015613442578382905f5260205f200180546133b790613e23565b80601f01602080910402602001604051908101604052809291908181526020018280546133e390613e23565b801561342e5780601f106134055761010080835404028352916020019161342e565b820191905f5260205f20905b81548152906001019060200180831161341157829003601f168201915b50505050508152602001906001019061339a565b5050505090505f81511161348b576040517f08c379a000000000000000000000000000000000000000000000000000000000815260040161348290614d21565b60405180910390fd5b8091505090565b6040518061010001604052805f815260200160608152602001606081526020015f60028111156134c5576134c461379d565b5b81526020015f81526020015f73ffffffffffffffffffffffffffffffffffffffff1681526020015f151581526020015f81525090565b5f604051905090565b5f80fd5b5f80fd5b5f73ffffffffffffffffffffffffffffffffffffffff82169050919050565b5f6135358261350c565b9050919050565b6135458161352b565b811461354f575f80fd5b50565b5f813590506135608161353c565b92915050565b5f80fd5b5f80fd5b5f601f19601f8301169050919050565b7f4e487b71000000000000000000000000000000000000000000000000000000005f52604160045260245ffd5b6135b48261356e565b810181811067ffffffffffffffff821117156135d3576135d261357e565b5b80604052505050565b5f6135e56134fb565b90506135f182826135ab565b919050565b5f67ffffffffffffffff8211156136105761360f61357e565b5b6136198261356e565b9050602081019050919050565b828183375f83830152505050565b5f613646613641846135f6565b6135dc565b9050828152602081018484840111156136625761366161356a565b5b61366d848285613626565b509392505050565b5f82601f83011261368957613688613566565b5b8135613699848260208601613634565b91505092915050565b5f80604083850312156136b8576136b7613504565b5b5f6136c585828601613552565b925050602083013567ffffffffffffffff8111156136e6576136e5613508565b5b6136f285828601613675565b9150509250929050565b5f81519050919050565b5f82825260208201905092915050565b5f819050602082019050919050565b5f819050919050565b61373781613725565b82525050565b5f81519050919050565b5f82825260208201905092915050565b8281835e5f83830152505050565b5f61376f8261373d565b6137798185613747565b9350613789818560208601613757565b6137928161356e565b840191505092915050565b7f4e487b71000000000000000000000000000000000000000000000000000000005f52602160045260245ffd5b600381106137db576137da61379d565b5b50565b5f8190506137eb826137ca565b919050565b5f6137fa826137de565b9050919050565b61380a816137f0565b82525050565b6138198161352b565b82525050565b5f8115159050919050565b6138338161381f565b82525050565b5f61010083015f83015161384f5f86018261372e565b50602083015184820360208601526138678282613765565b915050604083015184820360408601526138818282613765565b91505060608301516138966060860182613801565b5060808301516138a9608086018261372e565b5060a08301516138bc60a0860182613810565b5060c08301516138cf60c086018261382a565b5060e08301516138e260e086018261372e565b508091505092915050565b5f6138f88383613839565b905092915050565b5f602082019050919050565b5f613916826136fc565b6139208185613706565b93508360208202850161393285613716565b805f5b8581101561396d578484038952815161394e85826138ed565b945061395983613900565b925060208a01995050600181019050613935565b50829750879550505050505092915050565b5f6020820190508181035f830152613997818461390c565b905092915050565b6139a881613725565b81146139b2575f80fd5b50565b5f813590506139c38161399f565b92915050565b5f602082840312156139de576139dd613504565b5b5f6139eb848285016139b5565b91505092915050565b6139fd8161381f565b82525050565b5f602082019050613a165f8301846139f4565b92915050565b5f8060408385031215613a3257613a31613504565b5b5f613a3f858286016139b5565b9250506020613a5085828601613552565b9150509250929050565b5f60208284031215613a6f57613a6e613504565b5b5f82013567ffffffffffffffff811115613a8c57613a8b613508565b5b613a9884828501613675565b91505092915050565b5f61010083015f830151613ab75f86018261372e565b5060208301518482036020860152613acf8282613765565b91505060408301518482036040860152613ae98282613765565b9150506060830151613afe6060860182613801565b506080830151613b11608086018261372e565b5060a0830151613b2460a0860182613810565b5060c0830151613b3760c086018261382a565b5060e0830151613b4a60e086018261372e565b508091505092915050565b5f6020820190508181035f830152613b6d8184613aa1565b905092915050565b60038110613b81575f80fd5b50565b5f81359050613b9281613b75565b92915050565b5f805f805f60a08688031215613bb157613bb0613504565b5b5f86013567ffffffffffffffff811115613bce57613bcd613508565b5b613bda88828901613675565b955050602086013567ffffffffffffffff811115613bfb57613bfa613508565b5b613c0788828901613675565b9450506040613c1888828901613b84565b9350506060613c29888289016139b5565b9250506080613c3a88828901613552565b9150509295509295909350565b5f82825260208201905092915050565b5f613c618261373d565b613c6b8185613c47565b9350613c7b818560208601613757565b613c848161356e565b840191505092915050565b5f6020820190508181035f830152613ca78184613c57565b905092915050565b5f805f60608486031215613cc657613cc5613504565b5b5f613cd386828701613552565b9350506020613ce486828701613552565b925050604084013567ffffffffffffffff811115613d0557613d04613508565b5b613d1186828701613675565b9150509250925092565b5f81519050919050565b5f82825260208201905092915050565b5f819050602082019050919050565b5f613d4f8383613765565b905092915050565b5f602082019050919050565b5f613d6d82613d1b565b613d778185613d25565b935083602082028501613d8985613d35565b805f5b85811015613dc45784840389528151613da58582613d44565b9450613db083613d57565b925060208a01995050600181019050613d8c565b50829750879550505050505092915050565b5f6020820190508181035f830152613dee8184613d63565b905092915050565b7f4e487b71000000000000000000000000000000000000000000000000000000005f52602260045260245ffd5b5f6002820490506001821680613e3a57607f821691505b602082108103613e4d57613e4c613df6565b5b50919050565b5f81905092915050565b5f819050815f5260205f209050919050565b5f8154613e7b81613e23565b613e858186613e53565b9450600182165f8114613e9f5760018114613eb457613ee6565b60ff1983168652811515820286019350613ee6565b613ebd85613e5d565b5f5b83811015613ede57815481890152600182019150602081019050613ebf565b838801955050505b50505092915050565b5f613efa8284613e6f565b915081905092915050565b7f556e617574686f72697a656420616374696f6e000000000000000000000000005f82015250565b5f613f39601383613c47565b9150613f4482613f05565b602082019050919050565b5f6020820190508181035f830152613f6681613f2d565b9050919050565b7f4e6f206578697374696e672044494420666f756e6420666f72207468697320615f8201527f6464726573730000000000000000000000000000000000000000000000000000602082015250565b5f613fc7602683613c47565b9150613fd282613f6d565b604082019050919050565b5f6020820190508181035f830152613ff481613fbb565b9050919050565b7f526f6c652063616e6e6f7420626520656d7074790000000000000000000000005f82015250565b5f61402f601483613c47565b915061403a82613ffb565b602082019050919050565b5f6020820190508181035f83015261405c81614023565b9050919050565b5f8160601b9050919050565b5f61407982614063565b9050919050565b5f61408a8261406f565b9050919050565b6140a261409d8261352b565b614080565b82525050565b5f81905092915050565b5f6140bc8261373d565b6140c681856140a8565b93506140d6818560208601613757565b80840191505092915050565b5f819050919050565b6140fc6140f782613725565b6140e2565b82525050565b5f61410d8287614091565b60148201915061411d8286614091565b60148201915061412d82856140b2565b915061413982846140eb565b60208201915081905095945050505050565b5f819050815f5260205f209050919050565b5f6020601f8301049050919050565b5f82821b905092915050565b5f600883026141a77fffffffffffffffffffffffffffffffffffffffffffffffffffffffffffffffff8261416c565b6141b1868361416c565b95508019841693508086168417925050509392505050565b5f819050919050565b5f6141ec6141e76141e284613725565b6141c9565b613725565b9050919050565b5f819050919050565b614205836141d2565b614219614211826141f3565b848454614178565b825550505050565b5f90565b61422d614221565b6142388184846141fc565b505050565b5b8181101561425b576142505f82614225565b60018101905061423e565b5050565b601f8211156142a0576142718161414b565b61427a8461415d565b81016020851015614289578190505b61429d6142958561415d565b83018261423d565b50505b505050565b5f82821c905092915050565b5f6142c05f19846008026142a5565b1980831691505092915050565b5f6142d883836142b1565b9150826002028217905092915050565b6142f18261373d565b67ffffffffffffffff81111561430a5761430961357e565b5b6143148254613e23565b61431f82828561425f565b5f60209050601f831160018114614350575f841561433e578287015190505b61434885826142cd565b8655506143af565b601f19841661435e8661414b565b5f5b8281101561438557848901518255600182019150602085019450602081019050614360565b868310156143a2578489015161439e601f8916826142b1565b8355505b6001600288020188555050505b505050505050565b6143c08161352b565b82525050565b5f819050919050565b6143d8816143c6565b82525050565b5f6060820190506143f15f8301866143b7565b81810360208301526144038185613c57565b905061441260408301846143cf565b949350505050565b7f4e6f207461736b732068617665206265656e2061737369676e656400000000005f82015250565b5f61444e601b83613c47565b91506144598261441a565b602082019050919050565b5f6020820190508181035f83015261447b81614442565b9050919050565b7f4e487b71000000000000000000000000000000000000000000000000000000005f52603260045260245ffd5b7f5461736b206e6f7420666f756e640000000000000000000000000000000000005f82015250565b5f6144e3600e83613c47565b91506144ee826144af565b602082019050919050565b5f6020820190508181035f830152614510816144d7565b9050919050565b5f60408201905061452a5f8301856143b7565b61453760208301846139f4565b9392505050565b7f4e6577206964656e7469666965722063616e6e6f7420626520656d70747900005f82015250565b5f614572601e83613c47565b915061457d8261453e565b602082019050919050565b5f6020820190508181035f83015261459f81614566565b9050919050565b7f496e76616c6964206e6577206964656e746966696572000000000000000000005f82015250565b5f6145da601683613c47565b91506145e5826145a6565b602082019050919050565b5f6020820190508181035f830152614607816145ce565b9050919050565b7f4e6f7420617574686f72697a65640000000000000000000000000000000000005f82015250565b5f614642600e83613c47565b915061464d8261460e565b602082019050919050565b5f6020820190508181035f83015261466f81614636565b9050919050565b7f596f752068617665206e6f207461736b730000000000000000000000000000005f82015250565b5f6146aa601183613c47565b91506146b582614676565b602082019050919050565b5f6020820190508181035f8301526146d78161469e565b9050919050565b7f4964656e7469666965722063616e6e6f7420626520656d7074790000000000005f82015250565b5f614712601a83613c47565b915061471d826146de565b602082019050919050565b5f6020820190508181035f83015261473f81614706565b9050919050565b7f44494420616c72656164792065786973747320666f72207468697320616464725f8201527f6573730000000000000000000000000000000000000000000000000000000000602082015250565b5f6147a0602383613c47565b91506147ab82614746565b604082019050919050565b5f6020820190508181035f8301526147cd81614794565b9050919050565b7f5469746c652063616e6e6f7420626520656d70747900000000000000000000005f82015250565b5f614808601583613c47565b9150614813826147d4565b602082019050919050565b5f6020820190508181035f830152614835816147fc565b9050919050565b7f4465736372697074696f6e2063616e6e6f7420626520656d70747900000000005f82015250565b5f614870601b83613c47565b915061487b8261483c565b602082019050919050565b5f6020820190508181035f83015261489d81614864565b9050919050565b7f4475652064617465206d75737420626520696e207468652066757475726500005f82015250565b5f6148d8601e83613c47565b91506148e3826148a4565b602082019050919050565b5f6020820190508181035f830152614905816148cc565b9050919050565b61491581613725565b82525050565b5f60408201905061492e5f8301856143b7565b61493b602083018461490c565b9392505050565b7f4e487b71000000000000000000000000000000000000000000000000000000005f52601160045260245ffd5b5f61497982613725565b91507fffffffffffffffffffffffffffffffffffffffffffffffffffffffffffffffff82036149ab576149aa614942565b5b600182019050919050565b7f54686973207461736b20616c72656164792062656c6f6e67656420746f2074685f8201527f6520757365720000000000000000000000000000000000000000000000000000602082015250565b5f614a10602683613c47565b9150614a1b826149b6565b604082019050919050565b5f6020820190508181035f830152614a3d81614a04565b9050919050565b5f614a4e82613725565b9150614a5983613725565b9250828203905081811115614a7157614a70614942565b5b92915050565b7f4e487b71000000000000000000000000000000000000000000000000000000005f52603160045260245ffd5b7f4e6f2044494420666f756e6420666f72207468697320616464726573730000005f82015250565b5f614ad8601d83613c47565b9150614ae382614aa4565b602082019050919050565b5f6020820190508181035f830152614b0581614acc565b9050919050565b7f5461736b20616c726561647920636f6d706c65746564000000000000000000005f82015250565b5f614b40601683613c47565b9150614b4b82614b0c565b602082019050919050565b5f6020820190508181035f830152614b6d81614b34565b9050919050565b5f602082019050614b875f83018461490c565b92915050565b7f4e6f206578697374696e672044494420666f756e6420666f72207468697320755f8201527f7365720000000000000000000000000000000000000000000000000000000000602082015250565b5f614be7602383613c47565b9150614bf282614b8d565b604082019050919050565b5f6020820190508181035f830152614c1481614bdb565b9050919050565b7f5573657220646f6573206e6f74206861766520616e792063726564656e7469615f8201527f6c00000000000000000000000000000000000000000000000000000000000000602082015250565b5f614c75602183613c47565b9150614c8082614c1b565b604082019050919050565b5f6020820190508181035f830152614ca281614c69565b9050919050565b5f6040820190508181035f830152614cc18185613c57565b9050614cd060208301846139f4565b9392505050565b7f4e6f20726f6c65732061737369676e656420666f7220746869732075736572005f82015250565b5f614d0b601f83613c47565b9150614d1682614cd7565b602082019050919050565b5f6020820190508181035f830152614d3881614cff565b905091905056fea2646970667358221220fc30d0852eafe356dbd976bbed39c732943186828672e3f327aaacca6b63e93964736f6c634300081a0033",
					"opcodes": "PUSH1 0x80 PUSH1 0x40 MSTORE PUSH0 PUSH1 0x4 SSTORE CALLVALUE DUP1 ISZERO PUSH2 0x13 JUMPI PUSH0 DUP1 REVERT JUMPDEST POP PUSH1 0x40 MLOAD DUP1 PUSH1 0x40 ADD PUSH1 0x40 MSTORE DUP1 PUSH1 0x7 DUP2 MSTORE PUSH1 0x20 ADD PUSH32 0x6D616E6167657200000000000000000000000000000000000000000000000000 DUP2 MSTORE POP PUSH1 0x1 PUSH0 CALLER PUSH20 0xFFFFFFFFFFFFFFFFFFFFFFFFFFFFFFFFFFFFFFFF AND PUSH20 0xFFFFFFFFFFFFFFFFFFFFFFFFFFFFFFFFFFFFFFFF AND DUP2 MSTORE PUSH1 0x20 ADD SWAP1 DUP2 MSTORE PUSH1 0x20 ADD PUSH0 KECCAK256 SWAP1 DUP2 PUSH2 0x93 SWAP2 SWAP1 PUSH2 0x372 JUMP JUMPDEST POP PUSH1 0x2 PUSH0 CALLER PUSH20 0xFFFFFFFFFFFFFFFFFFFFFFFFFFFFFFFFFFFFFFFF AND PUSH20 0xFFFFFFFFFFFFFFFFFFFFFFFFFFFFFFFFFFFFFFFF AND DUP2 MSTORE PUSH1 0x20 ADD SWAP1 DUP2 MSTORE PUSH1 0x20 ADD PUSH0 KECCAK256 DUP1 PUSH1 0x1 DUP2 SLOAD ADD DUP1 DUP3 SSTORE DUP1 SWAP2 POP POP PUSH1 0x1 SWAP1 SUB SWAP1 PUSH0 MSTORE PUSH1 0x20 PUSH0 KECCAK256 ADD PUSH0 PUSH1 0x40 MLOAD DUP1 PUSH1 0x40 ADD PUSH1 0x40 MSTORE DUP1 PUSH1 0x7 DUP2 MSTORE PUSH1 0x20 ADD PUSH32 0x6D616E6167657200000000000000000000000000000000000000000000000000 DUP2 MSTORE POP SWAP1 SWAP2 SWAP1 SWAP2 POP SWAP1 DUP2 PUSH2 0x132 SWAP2 SWAP1 PUSH2 0x372 JUMP JUMPDEST POP PUSH2 0x441 JUMP JUMPDEST PUSH0 DUP2 MLOAD SWAP1 POP SWAP2 SWAP1 POP JUMP JUMPDEST PUSH32 0x4E487B7100000000000000000000000000000000000000000000000000000000 PUSH0 MSTORE PUSH1 0x41 PUSH1 0x4 MSTORE PUSH1 0x24 PUSH0 REVERT JUMPDEST PUSH32 0x4E487B7100000000000000000000000000000000000000000000000000000000 PUSH0 MSTORE PUSH1 0x22 PUSH1 0x4 MSTORE PUSH1 0x24 PUSH0 REVERT JUMPDEST PUSH0 PUSH1 0x2 DUP3 DIV SWAP1 POP PUSH1 0x1 DUP3 AND DUP1 PUSH2 0x1B3 JUMPI PUSH1 0x7F DUP3 AND SWAP2 POP JUMPDEST PUSH1 0x20 DUP3 LT DUP2 SUB PUSH2 0x1C6 JUMPI PUSH2 0x1C5 PUSH2 0x16F JUMP JUMPDEST JUMPDEST POP SWAP2 SWAP1 POP JUMP JUMPDEST PUSH0 DUP2 SWAP1 POP DUP2 PUSH0 MSTORE PUSH1 0x20 PUSH0 KECCAK256 SWAP1 POP SWAP2 SWAP1 POP JUMP JUMPDEST PUSH0 PUSH1 0x20 PUSH1 0x1F DUP4 ADD DIV SWAP1 POP SWAP2 SWAP1 POP JUMP JUMPDEST PUSH0 DUP3 DUP3 SHL SWAP1 POP SWAP3 SWAP2 POP POP JUMP JUMPDEST PUSH0 PUSH1 0x8 DUP4 MUL PUSH2 0x228 PUSH32 0xFFFFFFFFFFFFFFFFFFFFFFFFFFFFFFFFFFFFFFFFFFFFFFFFFFFFFFFFFFFFFFFF DUP3 PUSH2 0x1ED JUMP JUMPDEST PUSH2 0x232 DUP7 DUP4 PUSH2 0x1ED JUMP JUMPDEST SWAP6 POP DUP1 NOT DUP5 AND SWAP4 POP DUP1 DUP7 AND DUP5 OR SWAP3 POP POP POP SWAP4 SWAP3 POP POP POP JUMP JUMPDEST PUSH0 DUP2 SWAP1 POP SWAP2 SWAP1 POP JUMP JUMPDEST PUSH0 DUP2 SWAP1 POP SWAP2 SWAP1 POP JUMP JUMPDEST PUSH0 PUSH2 0x276 PUSH2 0x271 PUSH2 0x26C DUP5 PUSH2 0x24A JUMP JUMPDEST PUSH2 0x253 JUMP JUMPDEST PUSH2 0x24A JUMP JUMPDEST SWAP1 POP SWAP2 SWAP1 POP JUMP JUMPDEST PUSH0 DUP2 SWAP1 POP SWAP2 SWAP1 POP JUMP JUMPDEST PUSH2 0x28F DUP4 PUSH2 0x25C JUMP JUMPDEST PUSH2 0x2A3 PUSH2 0x29B DUP3 PUSH2 0x27D JUMP JUMPDEST DUP5 DUP5 SLOAD PUSH2 0x1F9 JUMP JUMPDEST DUP3 SSTORE POP POP POP POP JUMP JUMPDEST PUSH0 SWAP1 JUMP JUMPDEST PUSH2 0x2B7 PUSH2 0x2AB JUMP JUMPDEST PUSH2 0x2C2 DUP2 DUP5 DUP5 PUSH2 0x286 JUMP JUMPDEST POP POP POP JUMP JUMPDEST JUMPDEST DUP2 DUP2 LT ISZERO PUSH2 0x2E5 JUMPI PUSH2 0x2DA PUSH0 DUP3 PUSH2 0x2AF JUMP JUMPDEST PUSH1 0x1 DUP2 ADD SWAP1 POP PUSH2 0x2C8 JUMP JUMPDEST POP POP JUMP JUMPDEST PUSH1 0x1F DUP3 GT ISZERO PUSH2 0x32A JUMPI PUSH2 0x2FB DUP2 PUSH2 0x1CC JUMP JUMPDEST PUSH2 0x304 DUP5 PUSH2 0x1DE JUMP JUMPDEST DUP2 ADD PUSH1 0x20 DUP6 LT ISZERO PUSH2 0x313 JUMPI DUP2 SWAP1 POP JUMPDEST PUSH2 0x327 PUSH2 0x31F DUP6 PUSH2 0x1DE JUMP JUMPDEST DUP4 ADD DUP3 PUSH2 0x2C7 JUMP JUMPDEST POP POP JUMPDEST POP POP POP JUMP JUMPDEST PUSH0 DUP3 DUP3 SHR SWAP1 POP SWAP3 SWAP2 POP POP JUMP JUMPDEST PUSH0 PUSH2 0x34A PUSH0 NOT DUP5 PUSH1 0x8 MUL PUSH2 0x32F JUMP JUMPDEST NOT DUP1 DUP4 AND SWAP2 POP POP SWAP3 SWAP2 POP POP JUMP JUMPDEST PUSH0 PUSH2 0x362 DUP4 DUP4 PUSH2 0x33B JUMP JUMPDEST SWAP2 POP DUP3 PUSH1 0x2 MUL DUP3 OR SWAP1 POP SWAP3 SWAP2 POP POP JUMP JUMPDEST PUSH2 0x37B DUP3 PUSH2 0x138 JUMP JUMPDEST PUSH8 0xFFFFFFFFFFFFFFFF DUP2 GT ISZERO PUSH2 0x394 JUMPI PUSH2 0x393 PUSH2 0x142 JUMP JUMPDEST JUMPDEST PUSH2 0x39E DUP3 SLOAD PUSH2 0x19C JUMP JUMPDEST PUSH2 0x3A9 DUP3 DUP3 DUP6 PUSH2 0x2E9 JUMP JUMPDEST PUSH0 PUSH1 0x20 SWAP1 POP PUSH1 0x1F DUP4 GT PUSH1 0x1 DUP2 EQ PUSH2 0x3DA JUMPI PUSH0 DUP5 ISZERO PUSH2 0x3C8 JUMPI DUP3 DUP8 ADD MLOAD SWAP1 POP JUMPDEST PUSH2 0x3D2 DUP6 DUP3 PUSH2 0x357 JUMP JUMPDEST DUP7 SSTORE POP PUSH2 0x439 JUMP JUMPDEST PUSH1 0x1F NOT DUP5 AND PUSH2 0x3E8 DUP7 PUSH2 0x1CC JUMP JUMPDEST PUSH0 JUMPDEST DUP3 DUP2 LT ISZERO PUSH2 0x40F JUMPI DUP5 DUP10 ADD MLOAD DUP3 SSTORE PUSH1 0x1 DUP3 ADD SWAP2 POP PUSH1 0x20 DUP6 ADD SWAP5 POP PUSH1 0x20 DUP2 ADD SWAP1 POP PUSH2 0x3EA JUMP JUMPDEST DUP7 DUP4 LT ISZERO PUSH2 0x42C JUMPI DUP5 DUP10 ADD MLOAD PUSH2 0x428 PUSH1 0x1F DUP10 AND DUP3 PUSH2 0x33B JUMP JUMPDEST DUP4 SSTORE POP JUMPDEST PUSH1 0x1 PUSH1 0x2 DUP9 MUL ADD DUP9 SSTORE POP POP POP JUMPDEST POP POP POP POP POP POP JUMP JUMPDEST PUSH2 0x4D75 DUP1 PUSH2 0x44E PUSH0 CODECOPY PUSH0 RETURN INVALID PUSH1 0x80 PUSH1 0x40 MSTORE CALLVALUE DUP1 ISZERO PUSH2 0xF JUMPI PUSH0 DUP1 REVERT JUMPDEST POP PUSH1 0x4 CALLDATASIZE LT PUSH2 0xFE JUMPI PUSH0 CALLDATALOAD PUSH1 0xE0 SHR DUP1 PUSH4 0x4505E299 GT PUSH2 0x95 JUMPI DUP1 PUSH4 0xBC9C2D55 GT PUSH2 0x64 JUMPI DUP1 PUSH4 0xBC9C2D55 EQ PUSH2 0x2A6 JUMPI DUP1 PUSH4 0xE1E29558 EQ PUSH2 0x2C4 JUMPI DUP1 PUSH4 0xE4F0C22B EQ PUSH2 0x2E0 JUMPI DUP1 PUSH4 0xFDE08174 EQ PUSH2 0x310 JUMPI PUSH2 0xFE JUMP JUMPDEST DUP1 PUSH4 0x4505E299 EQ PUSH2 0x222 JUMPI DUP1 PUSH4 0x6C03A898 EQ PUSH2 0x23E JUMPI DUP1 PUSH4 0x6F6B07DB EQ PUSH2 0x26E JUMPI DUP1 PUSH4 0xB7DFCBEE EQ PUSH2 0x28A JUMPI PUSH2 0xFE JUMP JUMPDEST DUP1 PUSH4 0x14C95832 GT PUSH2 0xD1 JUMPI DUP1 PUSH4 0x14C95832 EQ PUSH2 0x19C JUMPI DUP1 PUSH4 0x1D65E77E EQ PUSH2 0x1B8 JUMPI DUP1 PUSH4 0x34112F5F EQ PUSH2 0x1E8 JUMPI DUP1 PUSH4 0x3457D3E2 EQ PUSH2 0x206 JUMPI PUSH2 0xFE JUMP JUMPDEST DUP1 PUSH4 0x22BF9C1 EQ PUSH2 0x102 JUMPI DUP1 PUSH4 0x4A87E38 EQ PUSH2 0x11E JUMPI DUP1 PUSH4 0x96F8494 EQ PUSH2 0x13C JUMPI DUP1 PUSH4 0x10668264 EQ PUSH2 0x16C JUMPI JUMPDEST PUSH0 DUP1 REVERT JUMPDEST PUSH2 0x11C PUSH1 0x4 DUP1 CALLDATASIZE SUB DUP2 ADD SWAP1 PUSH2 0x117 SWAP2 SWAP1 PUSH2 0x36A2 JUMP JUMPDEST PUSH2 0x32E JUMP JUMPDEST STOP JUMPDEST PUSH2 0x126 PUSH2 0x755 JUMP JUMPDEST PUSH1 0x40 MLOAD PUSH2 0x133 SWAP2 SWAP1 PUSH2 0x397F JUMP JUMPDEST PUSH1 0x40 MLOAD DUP1 SWAP2 SUB SWAP1 RETURN JUMPDEST PUSH2 0x156 PUSH1 0x4 DUP1 CALLDATASIZE SUB DUP2 ADD SWAP1 PUSH2 0x151 SWAP2 SWAP1 PUSH2 0x39C9 JUMP JUMPDEST PUSH2 0xBD2 JUMP JUMPDEST PUSH1 0x40 MLOAD PUSH2 0x163 SWAP2 SWAP1 PUSH2 0x3A03 JUMP JUMPDEST PUSH1 0x40 MLOAD DUP1 SWAP2 SUB SWAP1 RETURN JUMPDEST PUSH2 0x186 PUSH1 0x4 DUP1 CALLDATASIZE SUB DUP2 ADD SWAP1 PUSH2 0x181 SWAP2 SWAP1 PUSH2 0x3A1C JUMP JUMPDEST PUSH2 0xD9B JUMP JUMPDEST PUSH1 0x40 MLOAD PUSH2 0x193 SWAP2 SWAP1 PUSH2 0x3A03 JUMP JUMPDEST PUSH1 0x40 MLOAD DUP1 SWAP2 SUB SWAP1 RETURN JUMPDEST PUSH2 0x1B6 PUSH1 0x4 DUP1 CALLDATASIZE SUB DUP2 ADD SWAP1 PUSH2 0x1B1 SWAP2 SWAP1 PUSH2 0x3A5A JUMP JUMPDEST PUSH2 0xFB2 JUMP JUMPDEST STOP JUMPDEST PUSH2 0x1D2 PUSH1 0x4 DUP1 CALLDATASIZE SUB DUP2 ADD SWAP1 PUSH2 0x1CD SWAP2 SWAP1 PUSH2 0x39C9 JUMP JUMPDEST PUSH2 0x11BA JUMP JUMPDEST PUSH1 0x40 MLOAD PUSH2 0x1DF SWAP2 SWAP1 PUSH2 0x3B55 JUMP JUMPDEST PUSH1 0x40 MLOAD DUP1 SWAP2 SUB SWAP1 RETURN JUMPDEST PUSH2 0x1F0 PUSH2 0x1672 JUMP JUMPDEST PUSH1 0x40 MLOAD PUSH2 0x1FD SWAP2 SWAP1 PUSH2 0x397F JUMP JUMPDEST PUSH1 0x40 MLOAD DUP1 SWAP2 SUB SWAP1 RETURN JUMPDEST PUSH2 0x220 PUSH1 0x4 DUP1 CALLDATASIZE SUB DUP2 ADD SWAP1 PUSH2 0x21B SWAP2 SWAP1 PUSH2 0x3A5A JUMP JUMPDEST PUSH2 0x1AC5 JUMP JUMPDEST STOP JUMPDEST PUSH2 0x23C PUSH1 0x4 DUP1 CALLDATASIZE SUB DUP2 ADD SWAP1 PUSH2 0x237 SWAP2 SWAP1 PUSH2 0x3B98 JUMP JUMPDEST PUSH2 0x1CE9 JUMP JUMPDEST STOP JUMPDEST PUSH2 0x258 PUSH1 0x4 DUP1 CALLDATASIZE SUB DUP2 ADD SWAP1 PUSH2 0x253 SWAP2 SWAP1 PUSH2 0x39C9 JUMP JUMPDEST PUSH2 0x2178 JUMP JUMPDEST PUSH1 0x40 MLOAD PUSH2 0x265 SWAP2 SWAP1 PUSH2 0x3A03 JUMP JUMPDEST PUSH1 0x40 MLOAD DUP1 SWAP2 SUB SWAP1 RETURN JUMPDEST PUSH2 0x288 PUSH1 0x4 DUP1 CALLDATASIZE SUB DUP2 ADD SWAP1 PUSH2 0x283 SWAP2 SWAP1 PUSH2 0x3A1C JUMP JUMPDEST PUSH2 0x234C JUMP JUMPDEST STOP JUMPDEST PUSH2 0x2A4 PUSH1 0x4 DUP1 CALLDATASIZE SUB DUP2 ADD SWAP1 PUSH2 0x29F SWAP2 SWAP1 PUSH2 0x36A2 JUMP JUMPDEST PUSH2 0x27BA JUMP JUMPDEST STOP JUMPDEST PUSH2 0x2AE PUSH2 0x2AA2 JUMP JUMPDEST PUSH1 0x40 MLOAD PUSH2 0x2BB SWAP2 SWAP1 PUSH2 0x3C8F JUMP JUMPDEST PUSH1 0x40 MLOAD DUP1 SWAP2 SUB SWAP1 RETURN JUMPDEST PUSH2 0x2DE PUSH1 0x4 DUP1 CALLDATASIZE SUB DUP2 ADD SWAP1 PUSH2 0x2D9 SWAP2 SWAP1 PUSH2 0x39C9 JUMP JUMPDEST PUSH2 0x2C3A JUMP JUMPDEST STOP JUMPDEST PUSH2 0x2FA PUSH1 0x4 DUP1 CALLDATASIZE SUB DUP2 ADD SWAP1 PUSH2 0x2F5 SWAP2 SWAP1 PUSH2 0x3CAF JUMP JUMPDEST PUSH2 0x2ED3 JUMP JUMPDEST PUSH1 0x40 MLOAD PUSH2 0x307 SWAP2 SWAP1 PUSH2 0x3A03 JUMP JUMPDEST PUSH1 0x40 MLOAD DUP1 SWAP2 SUB SWAP1 RETURN JUMPDEST PUSH2 0x318 PUSH2 0x326F JUMP JUMPDEST PUSH1 0x40 MLOAD PUSH2 0x325 SWAP2 SWAP1 PUSH2 0x3DD6 JUMP JUMPDEST PUSH1 0x40 MLOAD DUP1 SWAP2 SUB SWAP1 RETURN JUMPDEST PUSH1 0x40 MLOAD DUP1 PUSH1 0x40 ADD PUSH1 0x40 MSTORE DUP1 PUSH1 0x7 DUP2 MSTORE PUSH1 0x20 ADD PUSH32 0x6D616E6167657200000000000000000000000000000000000000000000000000 DUP2 MSTORE POP DUP1 MLOAD SWAP1 PUSH1 0x20 ADD KECCAK256 PUSH1 0x1 PUSH0 CALLER PUSH20 0xFFFFFFFFFFFFFFFFFFFFFFFFFFFFFFFFFFFFFFFF AND PUSH20 0xFFFFFFFFFFFFFFFFFFFFFFFFFFFFFFFFFFFFFFFF AND DUP2 MSTORE PUSH1 0x20 ADD SWAP1 DUP2 MSTORE PUSH1 0x20 ADD PUSH0 KECCAK256 PUSH1 0x40 MLOAD PUSH2 0x3B5 SWAP2 SWAP1 PUSH2 0x3EEF JUMP JUMPDEST PUSH1 0x40 MLOAD DUP1 SWAP2 SUB SWAP1 KECCAK256 EQ PUSH2 0x3FD JUMPI PUSH1 0x40 MLOAD PUSH32 0x8C379A000000000000000000000000000000000000000000000000000000000 DUP2 MSTORE PUSH1 0x4 ADD PUSH2 0x3F4 SWAP1 PUSH2 0x3F4F JUMP JUMPDEST PUSH1 0x40 MLOAD DUP1 SWAP2 SUB SWAP1 REVERT JUMPDEST PUSH0 PUSH20 0xFFFFFFFFFFFFFFFFFFFFFFFFFFFFFFFFFFFFFFFF AND PUSH0 DUP1 CALLER PUSH20 0xFFFFFFFFFFFFFFFFFFFFFFFFFFFFFFFFFFFFFFFF AND PUSH20 0xFFFFFFFFFFFFFFFFFFFFFFFFFFFFFFFFFFFFFFFF AND DUP2 MSTORE PUSH1 0x20 ADD SWAP1 DUP2 MSTORE PUSH1 0x20 ADD PUSH0 KECCAK256 PUSH1 0x1 ADD PUSH0 SWAP1 SLOAD SWAP1 PUSH2 0x100 EXP SWAP1 DIV PUSH20 0xFFFFFFFFFFFFFFFFFFFFFFFFFFFFFFFFFFFFFFFF AND PUSH20 0xFFFFFFFFFFFFFFFFFFFFFFFFFFFFFFFFFFFFFFFF AND SUB PUSH2 0x4C9 JUMPI PUSH1 0x40 MLOAD PUSH32 0x8C379A000000000000000000000000000000000000000000000000000000000 DUP2 MSTORE PUSH1 0x4 ADD PUSH2 0x4C0 SWAP1 PUSH2 0x3FDD JUMP JUMPDEST PUSH1 0x40 MLOAD DUP1 SWAP2 SUB SWAP1 REVERT JUMPDEST PUSH0 DUP2 MLOAD GT PUSH2 0x50C JUMPI PUSH1 0x40 MLOAD PUSH32 0x8C379A000000000000000000000000000000000000000000000000000000000 DUP2 MSTORE PUSH1 0x4 ADD PUSH2 0x503 SWAP1 PUSH2 0x4045 JUMP JUMPDEST PUSH1 0x40 MLOAD DUP1 SWAP2 SUB SWAP1 REVERT JUMPDEST PUSH0 CALLER DUP4 DUP4 TIMESTAMP PUSH1 0x40 MLOAD PUSH1 0x20 ADD PUSH2 0x524 SWAP5 SWAP4 SWAP3 SWAP2 SWAP1 PUSH2 0x4102 JUMP JUMPDEST PUSH1 0x40 MLOAD PUSH1 0x20 DUP2 DUP4 SUB SUB DUP2 MSTORE SWAP1 PUSH1 0x40 MSTORE DUP1 MLOAD SWAP1 PUSH1 0x20 ADD KECCAK256 SWAP1 POP PUSH1 0x3 PUSH0 DUP5 PUSH20 0xFFFFFFFFFFFFFFFFFFFFFFFFFFFFFFFFFFFFFFFF AND PUSH20 0xFFFFFFFFFFFFFFFFFFFFFFFFFFFFFFFFFFFFFFFF AND DUP2 MSTORE PUSH1 0x20 ADD SWAP1 DUP2 MSTORE PUSH1 0x20 ADD PUSH0 KECCAK256 PUSH1 0x40 MLOAD DUP1 PUSH1 0x80 ADD PUSH1 0x40 MSTORE DUP1 CALLER PUSH20 0xFFFFFFFFFFFFFFFFFFFFFFFFFFFFFFFFFFFFFFFF AND DUP2 MSTORE PUSH1 0x20 ADD DUP5 DUP2 MSTORE PUSH1 0x20 ADD DUP4 DUP2 MSTORE PUSH1 0x20 ADD TIMESTAMP DUP2 MSTORE POP SWAP1 DUP1 PUSH1 0x1 DUP2 SLOAD ADD DUP1 DUP3 SSTORE DUP1 SWAP2 POP POP PUSH1 0x1 SWAP1 SUB SWAP1 PUSH0 MSTORE PUSH1 0x20 PUSH0 KECCAK256 SWAP1 PUSH1 0x4 MUL ADD PUSH0 SWAP1 SWAP2 SWAP1 SWAP2 SWAP1 SWAP2 POP PUSH0 DUP3 ADD MLOAD DUP2 PUSH0 ADD PUSH0 PUSH2 0x100 EXP DUP2 SLOAD DUP2 PUSH20 0xFFFFFFFFFFFFFFFFFFFFFFFFFFFFFFFFFFFFFFFF MUL NOT AND SWAP1 DUP4 PUSH20 0xFFFFFFFFFFFFFFFFFFFFFFFFFFFFFFFFFFFFFFFF AND MUL OR SWAP1 SSTORE POP PUSH1 0x20 DUP3 ADD MLOAD DUP2 PUSH1 0x1 ADD SWAP1 DUP2 PUSH2 0x62F SWAP2 SWAP1 PUSH2 0x42E8 JUMP JUMPDEST POP PUSH1 0x40 DUP3 ADD MLOAD DUP2 PUSH1 0x2 ADD SSTORE PUSH1 0x60 DUP3 ADD MLOAD DUP2 PUSH1 0x3 ADD SSTORE POP POP DUP2 PUSH1 0x1 PUSH0 DUP6 PUSH20 0xFFFFFFFFFFFFFFFFFFFFFFFFFFFFFFFFFFFFFFFF AND PUSH20 0xFFFFFFFFFFFFFFFFFFFFFFFFFFFFFFFFFFFFFFFF AND DUP2 MSTORE PUSH1 0x20 ADD SWAP1 DUP2 MSTORE PUSH1 0x20 ADD PUSH0 KECCAK256 SWAP1 DUP2 PUSH2 0x690 SWAP2 SWAP1 PUSH2 0x42E8 JUMP JUMPDEST POP PUSH1 0x2 PUSH0 DUP5 PUSH20 0xFFFFFFFFFFFFFFFFFFFFFFFFFFFFFFFFFFFFFFFF AND PUSH20 0xFFFFFFFFFFFFFFFFFFFFFFFFFFFFFFFFFFFFFFFF AND DUP2 MSTORE PUSH1 0x20 ADD SWAP1 DUP2 MSTORE PUSH1 0x20 ADD PUSH0 KECCAK256 DUP3 SWAP1 DUP1 PUSH1 0x1 DUP2 SLOAD ADD DUP1 DUP3 SSTORE DUP1 SWAP2 POP POP PUSH1 0x1 SWAP1 SUB SWAP1 PUSH0 MSTORE PUSH1 0x20 PUSH0 KECCAK256 ADD PUSH0 SWAP1 SWAP2 SWAP1 SWAP2 SWAP1 SWAP2 POP SWAP1 DUP2 PUSH2 0x6FD SWAP2 SWAP1 PUSH2 0x42E8 JUMP JUMPDEST POP CALLER PUSH20 0xFFFFFFFFFFFFFFFFFFFFFFFFFFFFFFFFFFFFFFFF AND PUSH32 0xF4313CB022699889C6EDDB590E42342301CDAE4824FD424FFDFDEB23D4CDBBE9 DUP5 DUP5 DUP5 PUSH1 0x40 MLOAD PUSH2 0x748 SWAP4 SWAP3 SWAP2 SWAP1 PUSH2 0x43DE JUMP JUMPDEST PUSH1 0x40 MLOAD DUP1 SWAP2 SUB SWAP1 LOG2 POP POP POP JUMP JUMPDEST PUSH1 0x60 PUSH1 0x40 MLOAD DUP1 PUSH1 0x40 ADD PUSH1 0x40 MSTORE DUP1 PUSH1 0x7 DUP2 MSTORE PUSH1 0x20 ADD PUSH32 0x6D616E6167657200000000000000000000000000000000000000000000000000 DUP2 MSTORE POP DUP1 MLOAD SWAP1 PUSH1 0x20 ADD KECCAK256 PUSH1 0x1 PUSH0 CALLER PUSH20 0xFFFFFFFFFFFFFFFFFFFFFFFFFFFFFFFFFFFFFFFF AND PUSH20 0xFFFFFFFFFFFFFFFFFFFFFFFFFFFFFFFFFFFFFFFF AND DUP2 MSTORE PUSH1 0x20 ADD SWAP1 DUP2 MSTORE PUSH1 0x20 ADD PUSH0 KECCAK256 PUSH1 0x40 MLOAD PUSH2 0x7DE SWAP2 SWAP1 PUSH2 0x3EEF JUMP JUMPDEST PUSH1 0x40 MLOAD DUP1 SWAP2 SUB SWAP1 KECCAK256 EQ PUSH2 0x826 JUMPI PUSH1 0x40 MLOAD PUSH32 0x8C379A000000000000000000000000000000000000000000000000000000000 DUP2 MSTORE PUSH1 0x4 ADD PUSH2 0x81D SWAP1 PUSH2 0x3F4F JUMP JUMPDEST PUSH1 0x40 MLOAD DUP1 SWAP2 SUB SWAP1 REVERT JUMPDEST PUSH0 PUSH20 0xFFFFFFFFFFFFFFFFFFFFFFFFFFFFFFFFFFFFFFFF AND PUSH0 DUP1 CALLER PUSH20 0xFFFFFFFFFFFFFFFFFFFFFFFFFFFFFFFFFFFFFFFF AND PUSH20 0xFFFFFFFFFFFFFFFFFFFFFFFFFFFFFFFFFFFFFFFF AND DUP2 MSTORE PUSH1 0x20 ADD SWAP1 DUP2 MSTORE PUSH1 0x20 ADD PUSH0 KECCAK256 PUSH1 0x1 ADD PUSH0 SWAP1 SLOAD SWAP1 PUSH2 0x100 EXP SWAP1 DIV PUSH20 0xFFFFFFFFFFFFFFFFFFFFFFFFFFFFFFFFFFFFFFFF AND PUSH20 0xFFFFFFFFFFFFFFFFFFFFFFFFFFFFFFFFFFFFFFFF AND SUB PUSH2 0x8F2 JUMPI PUSH1 0x40 MLOAD PUSH32 0x8C379A000000000000000000000000000000000000000000000000000000000 DUP2 MSTORE PUSH1 0x4 ADD PUSH2 0x8E9 SWAP1 PUSH2 0x3FDD JUMP JUMPDEST PUSH1 0x40 MLOAD DUP1 SWAP2 SUB SWAP1 REVERT JUMPDEST PUSH0 PUSH1 0x4 SLOAD GT PUSH2 0x936 JUMPI PUSH1 0x40 MLOAD PUSH32 0x8C379A000000000000000000000000000000000000000000000000000000000 DUP2 MSTORE PUSH1 0x4 ADD PUSH2 0x92D SWAP1 PUSH2 0x4464 JUMP JUMPDEST PUSH1 0x40 MLOAD DUP1 SWAP2 SUB SWAP1 REVERT JUMPDEST PUSH0 PUSH1 0x4 SLOAD PUSH8 0xFFFFFFFFFFFFFFFF DUP2 GT ISZERO PUSH2 0x953 JUMPI PUSH2 0x952 PUSH2 0x357E JUMP JUMPDEST JUMPDEST PUSH1 0x40 MLOAD SWAP1 DUP1 DUP3 MSTORE DUP1 PUSH1 0x20 MUL PUSH1 0x20 ADD DUP3 ADD PUSH1 0x40 MSTORE DUP1 ISZERO PUSH2 0x98C JUMPI DUP2 PUSH1 0x20 ADD JUMPDEST PUSH2 0x979 PUSH2 0x3492 JUMP JUMPDEST DUP2 MSTORE PUSH1 0x20 ADD SWAP1 PUSH1 0x1 SWAP1 SUB SWAP1 DUP2 PUSH2 0x971 JUMPI SWAP1 POP JUMPDEST POP SWAP1 POP PUSH0 JUMPDEST PUSH1 0x4 SLOAD DUP2 LT ISZERO PUSH2 0xBCA JUMPI PUSH1 0x5 PUSH0 DUP3 DUP2 MSTORE PUSH1 0x20 ADD SWAP1 DUP2 MSTORE PUSH1 0x20 ADD PUSH0 KECCAK256 PUSH1 0x40 MLOAD DUP1 PUSH2 0x100 ADD PUSH1 0x40 MSTORE SWAP1 DUP2 PUSH0 DUP3 ADD SLOAD DUP2 MSTORE PUSH1 0x20 ADD PUSH1 0x1 DUP3 ADD DUP1 SLOAD PUSH2 0x9D1 SWAP1 PUSH2 0x3E23 JUMP JUMPDEST DUP1 PUSH1 0x1F ADD PUSH1 0x20 DUP1 SWAP2 DIV MUL PUSH1 0x20 ADD PUSH1 0x40 MLOAD SWAP1 DUP2 ADD PUSH1 0x40 MSTORE DUP1 SWAP3 SWAP2 SWAP1 DUP2 DUP2 MSTORE PUSH1 0x20 ADD DUP3 DUP1 SLOAD PUSH2 0x9FD SWAP1 PUSH2 0x3E23 JUMP JUMPDEST DUP1 ISZERO PUSH2 0xA48 JUMPI DUP1 PUSH1 0x1F LT PUSH2 0xA1F JUMPI PUSH2 0x100 DUP1 DUP4 SLOAD DIV MUL DUP4 MSTORE SWAP2 PUSH1 0x20 ADD SWAP2 PUSH2 0xA48 JUMP JUMPDEST DUP3 ADD SWAP2 SWAP1 PUSH0 MSTORE PUSH1 0x20 PUSH0 KECCAK256 SWAP1 JUMPDEST DUP2 SLOAD DUP2 MSTORE SWAP1 PUSH1 0x1 ADD SWAP1 PUSH1 0x20 ADD DUP1 DUP4 GT PUSH2 0xA2B JUMPI DUP3 SWAP1 SUB PUSH1 0x1F AND DUP3 ADD SWAP2 JUMPDEST POP POP POP POP POP DUP2 MSTORE PUSH1 0x20 ADD PUSH1 0x2 DUP3 ADD DUP1 SLOAD PUSH2 0xA61 SWAP1 PUSH2 0x3E23 JUMP JUMPDEST DUP1 PUSH1 0x1F ADD PUSH1 0x20 DUP1 SWAP2 DIV MUL PUSH1 0x20 ADD PUSH1 0x40 MLOAD SWAP1 DUP2 ADD PUSH1 0x40 MSTORE DUP1 SWAP3 SWAP2 SWAP1 DUP2 DUP2 MSTORE PUSH1 0x20 ADD DUP3 DUP1 SLOAD PUSH2 0xA8D SWAP1 PUSH2 0x3E23 JUMP JUMPDEST DUP1 ISZERO PUSH2 0xAD8 JUMPI DUP1 PUSH1 0x1F LT PUSH2 0xAAF JUMPI PUSH2 0x100 DUP1 DUP4 SLOAD DIV MUL DUP4 MSTORE SWAP2 PUSH1 0x20 ADD SWAP2 PUSH2 0xAD8 JUMP JUMPDEST DUP3 ADD SWAP2 SWAP1 PUSH0 MSTORE PUSH1 0x20 PUSH0 KECCAK256 SWAP1 JUMPDEST DUP2 SLOAD DUP2 MSTORE SWAP1 PUSH1 0x1 ADD SWAP1 PUSH1 0x20 ADD DUP1 DUP4 GT PUSH2 0xABB JUMPI DUP3 SWAP1 SUB PUSH1 0x1F AND DUP3 ADD SWAP2 JUMPDEST POP POP POP POP POP DUP2 MSTORE PUSH1 0x20 ADD PUSH1 0x3 DUP3 ADD PUSH0 SWAP1 SLOAD SWAP1 PUSH2 0x100 EXP SWAP1 DIV PUSH1 0xFF AND PUSH1 0x2 DUP2 GT ISZERO PUSH2 0xB05 JUMPI PUSH2 0xB04 PUSH2 0x379D JUMP JUMPDEST JUMPDEST PUSH1 0x2 DUP2 GT ISZERO PUSH2 0xB17 JUMPI PUSH2 0xB16 PUSH2 0x379D JUMP JUMPDEST JUMPDEST DUP2 MSTORE PUSH1 0x20 ADD PUSH1 0x4 DUP3 ADD SLOAD DUP2 MSTORE PUSH1 0x20 ADD PUSH1 0x5 DUP3 ADD PUSH0 SWAP1 SLOAD SWAP1 PUSH2 0x100 EXP SWAP1 DIV PUSH20 0xFFFFFFFFFFFFFFFFFFFFFFFFFFFFFFFFFFFFFFFF AND PUSH20 0xFFFFFFFFFFFFFFFFFFFFFFFFFFFFFFFFFFFFFFFF AND PUSH20 0xFFFFFFFFFFFFFFFFFFFFFFFFFFFFFFFFFFFFFFFF AND DUP2 MSTORE PUSH1 0x20 ADD PUSH1 0x5 DUP3 ADD PUSH1 0x14 SWAP1 SLOAD SWAP1 PUSH2 0x100 EXP SWAP1 DIV PUSH1 0xFF AND ISZERO ISZERO ISZERO ISZERO DUP2 MSTORE PUSH1 0x20 ADD PUSH1 0x6 DUP3 ADD SLOAD DUP2 MSTORE POP POP DUP3 DUP3 DUP2 MLOAD DUP2 LT PUSH2 0xBB2 JUMPI PUSH2 0xBB1 PUSH2 0x4482 JUMP JUMPDEST JUMPDEST PUSH1 0x20 MUL PUSH1 0x20 ADD ADD DUP2 SWAP1 MSTORE POP DUP1 DUP1 PUSH1 0x1 ADD SWAP2 POP POP PUSH2 0x991 JUMP JUMPDEST POP DUP1 SWAP2 POP POP SWAP1 JUMP JUMPDEST PUSH0 DUP1 PUSH20 0xFFFFFFFFFFFFFFFFFFFFFFFFFFFFFFFFFFFFFFFF AND PUSH0 DUP1 CALLER PUSH20 0xFFFFFFFFFFFFFFFFFFFFFFFFFFFFFFFFFFFFFFFF AND PUSH20 0xFFFFFFFFFFFFFFFFFFFFFFFFFFFFFFFFFFFFFFFF AND DUP2 MSTORE PUSH1 0x20 ADD SWAP1 DUP2 MSTORE PUSH1 0x20 ADD PUSH0 KECCAK256 PUSH1 0x1 ADD PUSH0 SWAP1 SLOAD SWAP1 PUSH2 0x100 EXP SWAP1 DIV PUSH20 0xFFFFFFFFFFFFFFFFFFFFFFFFFFFFFFFFFFFFFFFF AND PUSH20 0xFFFFFFFFFFFFFFFFFFFFFFFFFFFFFFFFFFFFFFFF AND SUB PUSH2 0xC9F JUMPI PUSH1 0x40 MLOAD PUSH32 0x8C379A000000000000000000000000000000000000000000000000000000000 DUP2 MSTORE PUSH1 0x4 ADD PUSH2 0xC96 SWAP1 PUSH2 0x3FDD JUMP JUMPDEST PUSH1 0x40 MLOAD DUP1 SWAP2 SUB SWAP1 REVERT JUMPDEST PUSH0 PUSH20 0xFFFFFFFFFFFFFFFFFFFFFFFFFFFFFFFFFFFFFFFF AND PUSH1 0x5 PUSH0 DUP5 DUP2 MSTORE PUSH1 0x20 ADD SWAP1 DUP2 MSTORE PUSH1 0x20 ADD PUSH0 KECCAK256 PUSH1 0x5 ADD PUSH0 SWAP1 SLOAD SWAP1 PUSH2 0x100 EXP SWAP1 DIV PUSH20 0xFFFFFFFFFFFFFFFFFFFFFFFFFFFFFFFFFFFFFFFF AND PUSH20 0xFFFFFFFFFFFFFFFFFFFFFFFFFFFFFFFFFFFFFFFF AND SUB PUSH2 0xD40 JUMPI PUSH1 0x40 MLOAD PUSH32 0x8C379A000000000000000000000000000000000000000000000000000000000 DUP2 MSTORE PUSH1 0x4 ADD PUSH2 0xD37 SWAP1 PUSH2 0x44F9 JUMP JUMPDEST PUSH1 0x40 MLOAD DUP1 SWAP2 SUB SWAP1 REVERT JUMPDEST PUSH0 TIMESTAMP PUSH1 0x5 PUSH0 DUP6 DUP2 MSTORE PUSH1 0x20 ADD SWAP1 DUP2 MSTORE PUSH1 0x20 ADD PUSH0 KECCAK256 PUSH1 0x4 ADD SLOAD GT SWAP1 POP DUP3 PUSH32 0x98839D14E1C6921E1109E3F12466427E93A0B41DA8E46E903A23A78E3E471DCD DUP3 PUSH1 0x40 MLOAD PUSH2 0xD8A SWAP2 SWAP1 PUSH2 0x3A03 JUMP JUMPDEST PUSH1 0x40 MLOAD DUP1 SWAP2 SUB SWAP1 LOG2 DUP1 SWAP2 POP POP SWAP2 SWAP1 POP JUMP JUMPDEST PUSH0 DUP1 PUSH20 0xFFFFFFFFFFFFFFFFFFFFFFFFFFFFFFFFFFFFFFFF AND PUSH0 DUP1 CALLER PUSH20 0xFFFFFFFFFFFFFFFFFFFFFFFFFFFFFFFFFFFFFFFF AND PUSH20 0xFFFFFFFFFFFFFFFFFFFFFFFFFFFFFFFFFFFFFFFF AND DUP2 MSTORE PUSH1 0x20 ADD SWAP1 DUP2 MSTORE PUSH1 0x20 ADD PUSH0 KECCAK256 PUSH1 0x1 ADD PUSH0 SWAP1 SLOAD SWAP1 PUSH2 0x100 EXP SWAP1 DIV PUSH20 0xFFFFFFFFFFFFFFFFFFFFFFFFFFFFFFFFFFFFFFFF AND PUSH20 0xFFFFFFFFFFFFFFFFFFFFFFFFFFFFFFFFFFFFFFFF AND SUB PUSH2 0xE68 JUMPI PUSH1 0x40 MLOAD PUSH32 0x8C379A000000000000000000000000000000000000000000000000000000000 DUP2 MSTORE PUSH1 0x4 ADD PUSH2 0xE5F SWAP1 PUSH2 0x3FDD JUMP JUMPDEST PUSH1 0x40 MLOAD DUP1 SWAP2 SUB SWAP1 REVERT JUMPDEST PUSH0 PUSH20 0xFFFFFFFFFFFFFFFFFFFFFFFFFFFFFFFFFFFFFFFF AND PUSH1 0x5 PUSH0 DUP6 DUP2 MSTORE PUSH1 0x20 ADD SWAP1 DUP2 MSTORE PUSH1 0x20 ADD PUSH0 KECCAK256 PUSH1 0x5 ADD PUSH0 SWAP1 SLOAD SWAP1 PUSH2 0x100 EXP SWAP1 DIV PUSH20 0xFFFFFFFFFFFFFFFFFFFFFFFFFFFFFFFFFFFFFFFF AND PUSH20 0xFFFFFFFFFFFFFFFFFFFFFFFFFFFFFFFFFFFFFFFF AND SUB PUSH2 0xF09 JUMPI PUSH1 0x40 MLOAD PUSH32 0x8C379A000000000000000000000000000000000000000000000000000000000 DUP2 MSTORE PUSH1 0x4 ADD PUSH2 0xF00 SWAP1 PUSH2 0x44F9 JUMP JUMPDEST PUSH1 0x40 MLOAD DUP1 SWAP2 SUB SWAP1 REVERT JUMPDEST PUSH0 DUP3 PUSH20 0xFFFFFFFFFFFFFFFFFFFFFFFFFFFFFFFFFFFFFFFF AND PUSH1 0x5 PUSH0 DUP7 DUP2 MSTORE PUSH1 0x20 ADD SWAP1 DUP2 MSTORE PUSH1 0x20 ADD PUSH0 KECCAK256 PUSH1 0x5 ADD PUSH0 SWAP1 SLOAD SWAP1 PUSH2 0x100 EXP SWAP1 DIV PUSH20 0xFFFFFFFFFFFFFFFFFFFFFFFFFFFFFFFFFFFFFFFF AND PUSH20 0xFFFFFFFFFFFFFFFFFFFFFFFFFFFFFFFFFFFFFFFF AND EQ SWAP1 POP DUP4 PUSH32 0xDE182422C60D08A3E491F609A62A1A48FA3876E4CBB962EB9C194DE3000951A5 DUP5 DUP4 PUSH1 0x40 MLOAD PUSH2 0xFA0 SWAP3 SWAP2 SWAP1 PUSH2 0x4517 JUMP JUMPDEST PUSH1 0x40 MLOAD DUP1 SWAP2 SUB SWAP1 LOG2 DUP1 SWAP2 POP POP SWAP3 SWAP2 POP POP JUMP JUMPDEST PUSH0 DUP2 MLOAD GT PUSH2 0xFF5 JUMPI PUSH1 0x40 MLOAD PUSH32 0x8C379A000000000000000000000000000000000000000000000000000000000 DUP2 MSTORE PUSH1 0x4 ADD PUSH2 0xFEC SWAP1 PUSH2 0x4588 JUMP JUMPDEST PUSH1 0x40 MLOAD DUP1 SWAP2 SUB SWAP1 REVERT JUMPDEST PUSH0 PUSH20 0xFFFFFFFFFFFFFFFFFFFFFFFFFFFFFFFFFFFFFFFF AND PUSH0 DUP1 CALLER PUSH20 0xFFFFFFFFFFFFFFFFFFFFFFFFFFFFFFFFFFFFFFFF AND PUSH20 0xFFFFFFFFFFFFFFFFFFFFFFFFFFFFFFFFFFFFFFFF AND DUP2 MSTORE PUSH1 0x20 ADD SWAP1 DUP2 MSTORE PUSH1 0x20 ADD PUSH0 KECCAK256 PUSH1 0x1 ADD PUSH0 SWAP1 SLOAD SWAP1 PUSH2 0x100 EXP SWAP1 DIV PUSH20 0xFFFFFFFFFFFFFFFFFFFFFFFFFFFFFFFFFFFFFFFF AND PUSH20 0xFFFFFFFFFFFFFFFFFFFFFFFFFFFFFFFFFFFFFFFF AND SUB PUSH2 0x10C1 JUMPI PUSH1 0x40 MLOAD PUSH32 0x8C379A000000000000000000000000000000000000000000000000000000000 DUP2 MSTORE PUSH1 0x4 ADD PUSH2 0x10B8 SWAP1 PUSH2 0x3FDD JUMP JUMPDEST PUSH1 0x40 MLOAD DUP1 SWAP2 SUB SWAP1 REVERT JUMPDEST PUSH0 PUSH2 0x10CA PUSH2 0x2AA2 JUMP JUMPDEST SWAP1 POP DUP2 DUP1 MLOAD SWAP1 PUSH1 0x20 ADD KECCAK256 DUP2 DUP1 MLOAD SWAP1 PUSH1 0x20 ADD KECCAK256 SUB PUSH2 0x111C JUMPI PUSH1 0x40 MLOAD PUSH32 0x8C379A000000000000000000000000000000000000000000000000000000000 DUP2 MSTORE PUSH1 0x4 ADD PUSH2 0x1113 SWAP1 PUSH2 0x45F0 JUMP JUMPDEST PUSH1 0x40 MLOAD DUP1 SWAP2 SUB SWAP1 REVERT JUMPDEST DUP2 PUSH0 DUP1 CALLER PUSH20 0xFFFFFFFFFFFFFFFFFFFFFFFFFFFFFFFFFFFFFFFF AND PUSH20 0xFFFFFFFFFFFFFFFFFFFFFFFFFFFFFFFFFFFFFFFF AND DUP2 MSTORE PUSH1 0x20 ADD SWAP1 DUP2 MSTORE PUSH1 0x20 ADD PUSH0 KECCAK256 PUSH0 ADD SWAP1 DUP2 PUSH2 0x1167 SWAP2 SWAP1 PUSH2 0x42E8 JUMP JUMPDEST POP CALLER PUSH20 0xFFFFFFFFFFFFFFFFFFFFFFFFFFFFFFFFFFFFFFFF AND PUSH32 0x1B7934654BA536B6962955E057CE42885353BBAAD8C605A5CE0678E632F28410 DUP4 PUSH1 0x40 MLOAD PUSH2 0x11AE SWAP2 SWAP1 PUSH2 0x3C8F JUMP JUMPDEST PUSH1 0x40 MLOAD DUP1 SWAP2 SUB SWAP1 LOG2 POP POP JUMP JUMPDEST PUSH2 0x11C2 PUSH2 0x3492 JUMP JUMPDEST PUSH0 PUSH20 0xFFFFFFFFFFFFFFFFFFFFFFFFFFFFFFFFFFFFFFFF AND PUSH0 DUP1 CALLER PUSH20 0xFFFFFFFFFFFFFFFFFFFFFFFFFFFFFFFFFFFFFFFF AND PUSH20 0xFFFFFFFFFFFFFFFFFFFFFFFFFFFFFFFFFFFFFFFF AND DUP2 MSTORE PUSH1 0x20 ADD SWAP1 DUP2 MSTORE PUSH1 0x20 ADD PUSH0 KECCAK256 PUSH1 0x1 ADD PUSH0 SWAP1 SLOAD SWAP1 PUSH2 0x100 EXP SWAP1 DIV PUSH20 0xFFFFFFFFFFFFFFFFFFFFFFFFFFFFFFFFFFFFFFFF AND PUSH20 0xFFFFFFFFFFFFFFFFFFFFFFFFFFFFFFFFFFFFFFFF AND SUB PUSH2 0x128E JUMPI PUSH1 0x40 MLOAD PUSH32 0x8C379A000000000000000000000000000000000000000000000000000000000 DUP2 MSTORE PUSH1 0x4 ADD PUSH2 0x1285 SWAP1 PUSH2 0x3FDD JUMP JUMPDEST PUSH1 0x40 MLOAD DUP1 SWAP2 SUB SWAP1 REVERT JUMPDEST PUSH0 PUSH20 0xFFFFFFFFFFFFFFFFFFFFFFFFFFFFFFFFFFFFFFFF AND PUSH1 0x5 PUSH0 DUP5 DUP2 MSTORE PUSH1 0x20 ADD SWAP1 DUP2 MSTORE PUSH1 0x20 ADD PUSH0 KECCAK256 PUSH1 0x5 ADD PUSH0 SWAP1 SLOAD SWAP1 PUSH2 0x100 EXP SWAP1 DIV PUSH20 0xFFFFFFFFFFFFFFFFFFFFFFFFFFFFFFFFFFFFFFFF AND PUSH20 0xFFFFFFFFFFFFFFFFFFFFFFFFFFFFFFFFFFFFFFFF AND SUB PUSH2 0x132F JUMPI PUSH1 0x40 MLOAD PUSH32 0x8C379A000000000000000000000000000000000000000000000000000000000 DUP2 MSTORE PUSH1 0x4 ADD PUSH2 0x1326 SWAP1 PUSH2 0x44F9 JUMP JUMPDEST PUSH1 0x40 MLOAD DUP1 SWAP2 SUB SWAP1 REVERT JUMPDEST PUSH1 0x5 PUSH0 DUP4 DUP2 MSTORE PUSH1 0x20 ADD SWAP1 DUP2 MSTORE PUSH1 0x20 ADD PUSH0 KECCAK256 PUSH1 0x5 ADD PUSH0 SWAP1 SLOAD SWAP1 PUSH2 0x100 EXP SWAP1 DIV PUSH20 0xFFFFFFFFFFFFFFFFFFFFFFFFFFFFFFFFFFFFFFFF AND PUSH20 0xFFFFFFFFFFFFFFFFFFFFFFFFFFFFFFFFFFFFFFFF AND CALLER PUSH20 0xFFFFFFFFFFFFFFFFFFFFFFFFFFFFFFFFFFFFFFFF AND EQ DUP1 PUSH2 0x1428 JUMPI POP PUSH1 0x40 MLOAD DUP1 PUSH1 0x40 ADD PUSH1 0x40 MSTORE DUP1 PUSH1 0x7 DUP2 MSTORE PUSH1 0x20 ADD PUSH32 0x6D616E6167657200000000000000000000000000000000000000000000000000 DUP2 MSTORE POP DUP1 MLOAD SWAP1 PUSH1 0x20 ADD KECCAK256 PUSH1 0x1 PUSH0 CALLER PUSH20 0xFFFFFFFFFFFFFFFFFFFFFFFFFFFFFFFFFFFFFFFF AND PUSH20 0xFFFFFFFFFFFFFFFFFFFFFFFFFFFFFFFFFFFFFFFF AND DUP2 MSTORE PUSH1 0x20 ADD SWAP1 DUP2 MSTORE PUSH1 0x20 ADD PUSH0 KECCAK256 PUSH1 0x40 MLOAD PUSH2 0x141E SWAP2 SWAP1 PUSH2 0x3EEF JUMP JUMPDEST PUSH1 0x40 MLOAD DUP1 SWAP2 SUB SWAP1 KECCAK256 EQ JUMPDEST PUSH2 0x1467 JUMPI PUSH1 0x40 MLOAD PUSH32 0x8C379A000000000000000000000000000000000000000000000000000000000 DUP2 MSTORE PUSH1 0x4 ADD PUSH2 0x145E SWAP1 PUSH2 0x4658 JUMP JUMPDEST PUSH1 0x40 MLOAD DUP1 SWAP2 SUB SWAP1 REVERT JUMPDEST PUSH1 0x5 PUSH0 DUP4 DUP2 MSTORE PUSH1 0x20 ADD SWAP1 DUP2 MSTORE PUSH1 0x20 ADD PUSH0 KECCAK256 PUSH1 0x40 MLOAD DUP1 PUSH2 0x100 ADD PUSH1 0x40 MSTORE SWAP1 DUP2 PUSH0 DUP3 ADD SLOAD DUP2 MSTORE PUSH1 0x20 ADD PUSH1 0x1 DUP3 ADD DUP1 SLOAD PUSH2 0x149D SWAP1 PUSH2 0x3E23 JUMP JUMPDEST DUP1 PUSH1 0x1F ADD PUSH1 0x20 DUP1 SWAP2 DIV MUL PUSH1 0x20 ADD PUSH1 0x40 MLOAD SWAP1 DUP2 ADD PUSH1 0x40 MSTORE DUP1 SWAP3 SWAP2 SWAP1 DUP2 DUP2 MSTORE PUSH1 0x20 ADD DUP3 DUP1 SLOAD PUSH2 0x14C9 SWAP1 PUSH2 0x3E23 JUMP JUMPDEST DUP1 ISZERO PUSH2 0x1514 JUMPI DUP1 PUSH1 0x1F LT PUSH2 0x14EB JUMPI PUSH2 0x100 DUP1 DUP4 SLOAD DIV MUL DUP4 MSTORE SWAP2 PUSH1 0x20 ADD SWAP2 PUSH2 0x1514 JUMP JUMPDEST DUP3 ADD SWAP2 SWAP1 PUSH0 MSTORE PUSH1 0x20 PUSH0 KECCAK256 SWAP1 JUMPDEST DUP2 SLOAD DUP2 MSTORE SWAP1 PUSH1 0x1 ADD SWAP1 PUSH1 0x20 ADD DUP1 DUP4 GT PUSH2 0x14F7 JUMPI DUP3 SWAP1 SUB PUSH1 0x1F AND DUP3 ADD SWAP2 JUMPDEST POP POP POP POP POP DUP2 MSTORE PUSH1 0x20 ADD PUSH1 0x2 DUP3 ADD DUP1 SLOAD PUSH2 0x152D SWAP1 PUSH2 0x3E23 JUMP JUMPDEST DUP1 PUSH1 0x1F ADD PUSH1 0x20 DUP1 SWAP2 DIV MUL PUSH1 0x20 ADD PUSH1 0x40 MLOAD SWAP1 DUP2 ADD PUSH1 0x40 MSTORE DUP1 SWAP3 SWAP2 SWAP1 DUP2 DUP2 MSTORE PUSH1 0x20 ADD DUP3 DUP1 SLOAD PUSH2 0x1559 SWAP1 PUSH2 0x3E23 JUMP JUMPDEST DUP1 ISZERO PUSH2 0x15A4 JUMPI DUP1 PUSH1 0x1F LT PUSH2 0x157B JUMPI PUSH2 0x100 DUP1 DUP4 SLOAD DIV MUL DUP4 MSTORE SWAP2 PUSH1 0x20 ADD SWAP2 PUSH2 0x15A4 JUMP JUMPDEST DUP3 ADD SWAP2 SWAP1 PUSH0 MSTORE PUSH1 0x20 PUSH0 KECCAK256 SWAP1 JUMPDEST DUP2 SLOAD DUP2 MSTORE SWAP1 PUSH1 0x1 ADD SWAP1 PUSH1 0x20 ADD DUP1 DUP4 GT PUSH2 0x1587 JUMPI DUP3 SWAP1 SUB PUSH1 0x1F AND DUP3 ADD SWAP2 JUMPDEST POP POP POP POP POP DUP2 MSTORE PUSH1 0x20 ADD PUSH1 0x3 DUP3 ADD PUSH0 SWAP1 SLOAD SWAP1 PUSH2 0x100 EXP SWAP1 DIV PUSH1 0xFF AND PUSH1 0x2 DUP2 GT ISZERO PUSH2 0x15D1 JUMPI PUSH2 0x15D0 PUSH2 0x379D JUMP JUMPDEST JUMPDEST PUSH1 0x2 DUP2 GT ISZERO PUSH2 0x15E3 JUMPI PUSH2 0x15E2 PUSH2 0x379D JUMP JUMPDEST JUMPDEST DUP2 MSTORE PUSH1 0x20 ADD PUSH1 0x4 DUP3 ADD SLOAD DUP2 MSTORE PUSH1 0x20 ADD PUSH1 0x5 DUP3 ADD PUSH0 SWAP1 SLOAD SWAP1 PUSH2 0x100 EXP SWAP1 DIV PUSH20 0xFFFFFFFFFFFFFFFFFFFFFFFFFFFFFFFFFFFFFFFF AND PUSH20 0xFFFFFFFFFFFFFFFFFFFFFFFFFFFFFFFFFFFFFFFF AND PUSH20 0xFFFFFFFFFFFFFFFFFFFFFFFFFFFFFFFFFFFFFFFF AND DUP2 MSTORE PUSH1 0x20 ADD PUSH1 0x5 DUP3 ADD PUSH1 0x14 SWAP1 SLOAD SWAP1 PUSH2 0x100 EXP SWAP1 DIV PUSH1 0xFF AND ISZERO ISZERO ISZERO ISZERO DUP2 MSTORE PUSH1 0x20 ADD PUSH1 0x6 DUP3 ADD SLOAD DUP2 MSTORE POP POP SWAP1 POP SWAP2 SWAP1 POP JUMP JUMPDEST PUSH1 0x60 PUSH0 PUSH20 0xFFFFFFFFFFFFFFFFFFFFFFFFFFFFFFFFFFFFFFFF AND PUSH0 DUP1 CALLER PUSH20 0xFFFFFFFFFFFFFFFFFFFFFFFFFFFFFFFFFFFFFFFF AND PUSH20 0xFFFFFFFFFFFFFFFFFFFFFFFFFFFFFFFFFFFFFFFF AND DUP2 MSTORE PUSH1 0x20 ADD SWAP1 DUP2 MSTORE PUSH1 0x20 ADD PUSH0 KECCAK256 PUSH1 0x1 ADD PUSH0 SWAP1 SLOAD SWAP1 PUSH2 0x100 EXP SWAP1 DIV PUSH20 0xFFFFFFFFFFFFFFFFFFFFFFFFFFFFFFFFFFFFFFFF AND PUSH20 0xFFFFFFFFFFFFFFFFFFFFFFFFFFFFFFFFFFFFFFFF AND SUB PUSH2 0x1740 JUMPI PUSH1 0x40 MLOAD PUSH32 0x8C379A000000000000000000000000000000000000000000000000000000000 DUP2 MSTORE PUSH1 0x4 ADD PUSH2 0x1737 SWAP1 PUSH2 0x3FDD JUMP JUMPDEST PUSH1 0x40 MLOAD DUP1 SWAP2 SUB SWAP1 REVERT JUMPDEST PUSH0 PUSH1 0x6 PUSH0 CALLER PUSH20 0xFFFFFFFFFFFFFFFFFFFFFFFFFFFFFFFFFFFFFFFF AND PUSH20 0xFFFFFFFFFFFFFFFFFFFFFFFFFFFFFFFFFFFFFFFF AND DUP2 MSTORE PUSH1 0x20 ADD SWAP1 DUP2 MSTORE PUSH1 0x20 ADD PUSH0 KECCAK256 DUP1 SLOAD DUP1 PUSH1 0x20 MUL PUSH1 0x20 ADD PUSH1 0x40 MLOAD SWAP1 DUP2 ADD PUSH1 0x40 MSTORE DUP1 SWAP3 SWAP2 SWAP1 DUP2 DUP2 MSTORE PUSH1 0x20 ADD DUP3 DUP1 SLOAD DUP1 ISZERO PUSH2 0x17C6 JUMPI PUSH1 0x20 MUL DUP3 ADD SWAP2 SWAP1 PUSH0 MSTORE PUSH1 0x20 PUSH0 KECCAK256 SWAP1 JUMPDEST DUP2 SLOAD DUP2 MSTORE PUSH1 0x20 ADD SWAP1 PUSH1 0x1 ADD SWAP1 DUP1 DUP4 GT PUSH2 0x17B2 JUMPI JUMPDEST POP POP POP POP POP SWAP1 POP PUSH0 DUP2 MLOAD GT PUSH2 0x1810 JUMPI PUSH1 0x40 MLOAD PUSH32 0x8C379A000000000000000000000000000000000000000000000000000000000 DUP2 MSTORE PUSH1 0x4 ADD PUSH2 0x1807 SWAP1 PUSH2 0x46C0 JUMP JUMPDEST PUSH1 0x40 MLOAD DUP1 SWAP2 SUB SWAP1 REVERT JUMPDEST PUSH0 DUP2 MLOAD PUSH8 0xFFFFFFFFFFFFFFFF DUP2 GT ISZERO PUSH2 0x182C JUMPI PUSH2 0x182B PUSH2 0x357E JUMP JUMPDEST JUMPDEST PUSH1 0x40 MLOAD SWAP1 DUP1 DUP3 MSTORE DUP1 PUSH1 0x20 MUL PUSH1 0x20 ADD DUP3 ADD PUSH1 0x40 MSTORE DUP1 ISZERO PUSH2 0x1865 JUMPI DUP2 PUSH1 0x20 ADD JUMPDEST PUSH2 0x1852 PUSH2 0x3492 JUMP JUMPDEST DUP2 MSTORE PUSH1 0x20 ADD SWAP1 PUSH1 0x1 SWAP1 SUB SWAP1 DUP2 PUSH2 0x184A JUMPI SWAP1 POP JUMPDEST POP SWAP1 POP PUSH0 JUMPDEST DUP3 MLOAD DUP2 LT ISZERO PUSH2 0x1ABC JUMPI PUSH1 0x5 PUSH0 DUP5 DUP4 DUP2 MLOAD DUP2 LT PUSH2 0x1889 JUMPI PUSH2 0x1888 PUSH2 0x4482 JUMP JUMPDEST JUMPDEST PUSH1 0x20 MUL PUSH1 0x20 ADD ADD MLOAD DUP2 MSTORE PUSH1 0x20 ADD SWAP1 DUP2 MSTORE PUSH1 0x20 ADD PUSH0 KECCAK256 PUSH1 0x40 MLOAD DUP1 PUSH2 0x100 ADD PUSH1 0x40 MSTORE SWAP1 DUP2 PUSH0 DUP3 ADD SLOAD DUP2 MSTORE PUSH1 0x20 ADD PUSH1 0x1 DUP3 ADD DUP1 SLOAD PUSH2 0x18C3 SWAP1 PUSH2 0x3E23 JUMP JUMPDEST DUP1 PUSH1 0x1F ADD PUSH1 0x20 DUP1 SWAP2 DIV MUL PUSH1 0x20 ADD PUSH1 0x40 MLOAD SWAP1 DUP2 ADD PUSH1 0x40 MSTORE DUP1 SWAP3 SWAP2 SWAP1 DUP2 DUP2 MSTORE PUSH1 0x20 ADD DUP3 DUP1 SLOAD PUSH2 0x18EF SWAP1 PUSH2 0x3E23 JUMP JUMPDEST DUP1 ISZERO PUSH2 0x193A JUMPI DUP1 PUSH1 0x1F LT PUSH2 0x1911 JUMPI PUSH2 0x100 DUP1 DUP4 SLOAD DIV MUL DUP4 MSTORE SWAP2 PUSH1 0x20 ADD SWAP2 PUSH2 0x193A JUMP JUMPDEST DUP3 ADD SWAP2 SWAP1 PUSH0 MSTORE PUSH1 0x20 PUSH0 KECCAK256 SWAP1 JUMPDEST DUP2 SLOAD DUP2 MSTORE SWAP1 PUSH1 0x1 ADD SWAP1 PUSH1 0x20 ADD DUP1 DUP4 GT PUSH2 0x191D JUMPI DUP3 SWAP1 SUB PUSH1 0x1F AND DUP3 ADD SWAP2 JUMPDEST POP POP POP POP POP DUP2 MSTORE PUSH1 0x20 ADD PUSH1 0x2 DUP3 ADD DUP1 SLOAD PUSH2 0x1953 SWAP1 PUSH2 0x3E23 JUMP JUMPDEST DUP1 PUSH1 0x1F ADD PUSH1 0x20 DUP1 SWAP2 DIV MUL PUSH1 0x20 ADD PUSH1 0x40 MLOAD SWAP1 DUP2 ADD PUSH1 0x40 MSTORE DUP1 SWAP3 SWAP2 SWAP1 DUP2 DUP2 MSTORE PUSH1 0x20 ADD DUP3 DUP1 SLOAD PUSH2 0x197F SWAP1 PUSH2 0x3E23 JUMP JUMPDEST DUP1 ISZERO PUSH2 0x19CA JUMPI DUP1 PUSH1 0x1F LT PUSH2 0x19A1 JUMPI PUSH2 0x100 DUP1 DUP4 SLOAD DIV MUL DUP4 MSTORE SWAP2 PUSH1 0x20 ADD SWAP2 PUSH2 0x19CA JUMP JUMPDEST DUP3 ADD SWAP2 SWAP1 PUSH0 MSTORE PUSH1 0x20 PUSH0 KECCAK256 SWAP1 JUMPDEST DUP2 SLOAD DUP2 MSTORE SWAP1 PUSH1 0x1 ADD SWAP1 PUSH1 0x20 ADD DUP1 DUP4 GT PUSH2 0x19AD JUMPI DUP3 SWAP1 SUB PUSH1 0x1F AND DUP3 ADD SWAP2 JUMPDEST POP POP POP POP POP DUP2 MSTORE PUSH1 0x20 ADD PUSH1 0x3 DUP3 ADD PUSH0 SWAP1 SLOAD SWAP1 PUSH2 0x100 EXP SWAP1 DIV PUSH1 0xFF AND PUSH1 0x2 DUP2 GT ISZERO PUSH2 0x19F7 JUMPI PUSH2 0x19F6 PUSH2 0x379D JUMP JUMPDEST JUMPDEST PUSH1 0x2 DUP2 GT ISZERO PUSH2 0x1A09 JUMPI PUSH2 0x1A08 PUSH2 0x379D JUMP JUMPDEST JUMPDEST DUP2 MSTORE PUSH1 0x20 ADD PUSH1 0x4 DUP3 ADD SLOAD DUP2 MSTORE PUSH1 0x20 ADD PUSH1 0x5 DUP3 ADD PUSH0 SWAP1 SLOAD SWAP1 PUSH2 0x100 EXP SWAP1 DIV PUSH20 0xFFFFFFFFFFFFFFFFFFFFFFFFFFFFFFFFFFFFFFFF AND PUSH20 0xFFFFFFFFFFFFFFFFFFFFFFFFFFFFFFFFFFFFFFFF AND PUSH20 0xFFFFFFFFFFFFFFFFFFFFFFFFFFFFFFFFFFFFFFFF AND DUP2 MSTORE PUSH1 0x20 ADD PUSH1 0x5 DUP3 ADD PUSH1 0x14 SWAP1 SLOAD SWAP1 PUSH2 0x100 EXP SWAP1 DIV PUSH1 0xFF AND ISZERO ISZERO ISZERO ISZERO DUP2 MSTORE PUSH1 0x20 ADD PUSH1 0x6 DUP3 ADD SLOAD DUP2 MSTORE POP POP DUP3 DUP3 DUP2 MLOAD DUP2 LT PUSH2 0x1AA4 JUMPI PUSH2 0x1AA3 PUSH2 0x4482 JUMP JUMPDEST JUMPDEST PUSH1 0x20 MUL PUSH1 0x20 ADD ADD DUP2 SWAP1 MSTORE POP DUP1 DUP1 PUSH1 0x1 ADD SWAP2 POP POP PUSH2 0x186A JUMP JUMPDEST POP DUP1 SWAP3 POP POP POP SWAP1 JUMP JUMPDEST PUSH0 DUP2 MLOAD GT PUSH2 0x1B08 JUMPI PUSH1 0x40 MLOAD PUSH32 0x8C379A000000000000000000000000000000000000000000000000000000000 DUP2 MSTORE PUSH1 0x4 ADD PUSH2 0x1AFF SWAP1 PUSH2 0x4728 JUMP JUMPDEST PUSH1 0x40 MLOAD DUP1 SWAP2 SUB SWAP1 REVERT JUMPDEST PUSH0 PUSH20 0xFFFFFFFFFFFFFFFFFFFFFFFFFFFFFFFFFFFFFFFF AND PUSH0 DUP1 CALLER PUSH20 0xFFFFFFFFFFFFFFFFFFFFFFFFFFFFFFFFFFFFFFFF AND PUSH20 0xFFFFFFFFFFFFFFFFFFFFFFFFFFFFFFFFFFFFFFFF AND DUP2 MSTORE PUSH1 0x20 ADD SWAP1 DUP2 MSTORE PUSH1 0x20 ADD PUSH0 KECCAK256 PUSH1 0x1 ADD PUSH0 SWAP1 SLOAD SWAP1 PUSH2 0x100 EXP SWAP1 DIV PUSH20 0xFFFFFFFFFFFFFFFFFFFFFFFFFFFFFFFFFFFFFFFF AND PUSH20 0xFFFFFFFFFFFFFFFFFFFFFFFFFFFFFFFFFFFFFFFF AND EQ PUSH2 0x1BD4 JUMPI PUSH1 0x40 MLOAD PUSH32 0x8C379A000000000000000000000000000000000000000000000000000000000 DUP2 MSTORE PUSH1 0x4 ADD PUSH2 0x1BCB SWAP1 PUSH2 0x47B6 JUMP JUMPDEST PUSH1 0x40 MLOAD DUP1 SWAP2 SUB SWAP1 REVERT JUMPDEST PUSH1 0x40 MLOAD DUP1 PUSH1 0x40 ADD PUSH1 0x40 MSTORE DUP1 DUP3 DUP2 MSTORE PUSH1 0x20 ADD CALLER PUSH20 0xFFFFFFFFFFFFFFFFFFFFFFFFFFFFFFFFFFFFFFFF AND DUP2 MSTORE POP PUSH0 DUP1 CALLER PUSH20 0xFFFFFFFFFFFFFFFFFFFFFFFFFFFFFFFFFFFFFFFF AND PUSH20 0xFFFFFFFFFFFFFFFFFFFFFFFFFFFFFFFFFFFFFFFF AND DUP2 MSTORE PUSH1 0x20 ADD SWAP1 DUP2 MSTORE PUSH1 0x20 ADD PUSH0 KECCAK256 PUSH0 DUP3 ADD MLOAD DUP2 PUSH0 ADD SWAP1 DUP2 PUSH2 0x1C4E SWAP2 SWAP1 PUSH2 0x42E8 JUMP JUMPDEST POP PUSH1 0x20 DUP3 ADD MLOAD DUP2 PUSH1 0x1 ADD PUSH0 PUSH2 0x100 EXP DUP2 SLOAD DUP2 PUSH20 0xFFFFFFFFFFFFFFFFFFFFFFFFFFFFFFFFFFFFFFFF MUL NOT AND SWAP1 DUP4 PUSH20 0xFFFFFFFFFFFFFFFFFFFFFFFFFFFFFFFFFFFFFFFF AND MUL OR SWAP1 SSTORE POP SWAP1 POP POP CALLER PUSH20 0xFFFFFFFFFFFFFFFFFFFFFFFFFFFFFFFFFFFFFFFF AND PUSH32 0x1B7934654BA536B6962955E057CE42885353BBAAD8C605A5CE0678E632F28410 DUP3 PUSH1 0x40 MLOAD PUSH2 0x1CDE SWAP2 SWAP1 PUSH2 0x3C8F JUMP JUMPDEST PUSH1 0x40 MLOAD DUP1 SWAP2 SUB SWAP1 LOG2 POP JUMP JUMPDEST PUSH1 0x40 MLOAD DUP1 PUSH1 0x40 ADD PUSH1 0x40 MSTORE DUP1 PUSH1 0x7 DUP2 MSTORE PUSH1 0x20 ADD PUSH32 0x6D616E6167657200000000000000000000000000000000000000000000000000 DUP2 MSTORE POP DUP1 MLOAD SWAP1 PUSH1 0x20 ADD KECCAK256 PUSH1 0x1 PUSH0 CALLER PUSH20 0xFFFFFFFFFFFFFFFFFFFFFFFFFFFFFFFFFFFFFFFF AND PUSH20 0xFFFFFFFFFFFFFFFFFFFFFFFFFFFFFFFFFFFFFFFF AND DUP2 MSTORE PUSH1 0x20 ADD SWAP1 DUP2 MSTORE PUSH1 0x20 ADD PUSH0 KECCAK256 PUSH1 0x40 MLOAD PUSH2 0x1D70 SWAP2 SWAP1 PUSH2 0x3EEF JUMP JUMPDEST PUSH1 0x40 MLOAD DUP1 SWAP2 SUB SWAP1 KECCAK256 EQ PUSH2 0x1DB8 JUMPI PUSH1 0x40 MLOAD PUSH32 0x8C379A000000000000000000000000000000000000000000000000000000000 DUP2 MSTORE PUSH1 0x4 ADD PUSH2 0x1DAF SWAP1 PUSH2 0x3F4F JUMP JUMPDEST PUSH1 0x40 MLOAD DUP1 SWAP2 SUB SWAP1 REVERT JUMPDEST PUSH0 PUSH20 0xFFFFFFFFFFFFFFFFFFFFFFFFFFFFFFFFFFFFFFFF AND PUSH0 DUP1 CALLER PUSH20 0xFFFFFFFFFFFFFFFFFFFFFFFFFFFFFFFFFFFFFFFF AND PUSH20 0xFFFFFFFFFFFFFFFFFFFFFFFFFFFFFFFFFFFFFFFF AND DUP2 MSTORE PUSH1 0x20 ADD SWAP1 DUP2 MSTORE PUSH1 0x20 ADD PUSH0 KECCAK256 PUSH1 0x1 ADD PUSH0 SWAP1 SLOAD SWAP1 PUSH2 0x100 EXP SWAP1 DIV PUSH20 0xFFFFFFFFFFFFFFFFFFFFFFFFFFFFFFFFFFFFFFFF AND PUSH20 0xFFFFFFFFFFFFFFFFFFFFFFFFFFFFFFFFFFFFFFFF AND SUB PUSH2 0x1E84 JUMPI PUSH1 0x40 MLOAD PUSH32 0x8C379A000000000000000000000000000000000000000000000000000000000 DUP2 MSTORE PUSH1 0x4 ADD PUSH2 0x1E7B SWAP1 PUSH2 0x3FDD JUMP JUMPDEST PUSH1 0x40 MLOAD DUP1 SWAP2 SUB SWAP1 REVERT JUMPDEST PUSH0 DUP6 MLOAD GT PUSH2 0x1EC7 JUMPI PUSH1 0x40 MLOAD PUSH32 0x8C379A000000000000000000000000000000000000000000000000000000000 DUP2 MSTORE PUSH1 0x4 ADD PUSH2 0x1EBE SWAP1 PUSH2 0x481E JUMP JUMPDEST PUSH1 0x40 MLOAD DUP1 SWAP2 SUB SWAP1 REVERT JUMPDEST PUSH0 DUP5 MLOAD GT PUSH2 0x1F0A JUMPI PUSH1 0x40 MLOAD PUSH32 0x8C379A000000000000000000000000000000000000000000000000000000000 DUP2 MSTORE PUSH1 0x4 ADD PUSH2 0x1F01 SWAP1 PUSH2 0x4886 JUMP JUMPDEST PUSH1 0x40 MLOAD DUP1 SWAP2 SUB SWAP1 REVERT JUMPDEST TIMESTAMP DUP3 GT PUSH2 0x1F4C JUMPI PUSH1 0x40 MLOAD PUSH32 0x8C379A000000000000000000000000000000000000000000000000000000000 DUP2 MSTORE PUSH1 0x4 ADD PUSH2 0x1F43 SWAP1 PUSH2 0x48EE JUMP JUMPDEST PUSH1 0x40 MLOAD DUP1 SWAP2 SUB SWAP1 REVERT JUMPDEST PUSH1 0x40 MLOAD DUP1 PUSH2 0x100 ADD PUSH1 0x40 MSTORE DUP1 PUSH1 0x4 SLOAD DUP2 MSTORE PUSH1 0x20 ADD DUP7 DUP2 MSTORE PUSH1 0x20 ADD DUP6 DUP2 MSTORE PUSH1 0x20 ADD DUP5 PUSH1 0x2 DUP2 GT ISZERO PUSH2 0x1F7F JUMPI PUSH2 0x1F7E PUSH2 0x379D JUMP JUMPDEST JUMPDEST DUP2 MSTORE PUSH1 0x20 ADD DUP4 DUP2 MSTORE PUSH1 0x20 ADD DUP3 PUSH20 0xFFFFFFFFFFFFFFFFFFFFFFFFFFFFFFFFFFFFFFFF AND DUP2 MSTORE PUSH1 0x20 ADD PUSH0 ISZERO ISZERO DUP2 MSTORE PUSH1 0x20 ADD PUSH0 DUP2 MSTORE POP PUSH1 0x5 PUSH0 PUSH1 0x4 SLOAD DUP2 MSTORE PUSH1 0x20 ADD SWAP1 DUP2 MSTORE PUSH1 0x20 ADD PUSH0 KECCAK256 PUSH0 DUP3 ADD MLOAD DUP2 PUSH0 ADD SSTORE PUSH1 0x20 DUP3 ADD MLOAD DUP2 PUSH1 0x1 ADD SWAP1 DUP2 PUSH2 0x1FE2 SWAP2 SWAP1 PUSH2 0x42E8 JUMP JUMPDEST POP PUSH1 0x40 DUP3 ADD MLOAD DUP2 PUSH1 0x2 ADD SWAP1 DUP2 PUSH2 0x1FF8 SWAP2 SWAP1 PUSH2 0x42E8 JUMP JUMPDEST POP PUSH1 0x60 DUP3 ADD MLOAD DUP2 PUSH1 0x3 ADD PUSH0 PUSH2 0x100 EXP DUP2 SLOAD DUP2 PUSH1 0xFF MUL NOT AND SWAP1 DUP4 PUSH1 0x2 DUP2 GT ISZERO PUSH2 0x2023 JUMPI PUSH2 0x2022 PUSH2 0x379D JUMP JUMPDEST JUMPDEST MUL OR SWAP1 SSTORE POP PUSH1 0x80 DUP3 ADD MLOAD DUP2 PUSH1 0x4 ADD SSTORE PUSH1 0xA0 DUP3 ADD MLOAD DUP2 PUSH1 0x5 ADD PUSH0 PUSH2 0x100 EXP DUP2 SLOAD DUP2 PUSH20 0xFFFFFFFFFFFFFFFFFFFFFFFFFFFFFFFFFFFFFFFF MUL NOT AND SWAP1 DUP4 PUSH20 0xFFFFFFFFFFFFFFFFFFFFFFFFFFFFFFFFFFFFFFFF AND MUL OR SWAP1 SSTORE POP PUSH1 0xC0 DUP3 ADD MLOAD DUP2 PUSH1 0x5 ADD PUSH1 0x14 PUSH2 0x100 EXP DUP2 SLOAD DUP2 PUSH1 0xFF MUL NOT AND SWAP1 DUP4 ISZERO ISZERO MUL OR SWAP1 SSTORE POP PUSH1 0xE0 DUP3 ADD MLOAD DUP2 PUSH1 0x6 ADD SSTORE SWAP1 POP POP PUSH1 0x6 PUSH0 DUP3 PUSH20 0xFFFFFFFFFFFFFFFFFFFFFFFFFFFFFFFFFFFFFFFF AND PUSH20 0xFFFFFFFFFFFFFFFFFFFFFFFFFFFFFFFFFFFFFFFF AND DUP2 MSTORE PUSH1 0x20 ADD SWAP1 DUP2 MSTORE PUSH1 0x20 ADD PUSH0 KECCAK256 PUSH1 0x4 SLOAD SWAP1 DUP1 PUSH1 0x1 DUP2 SLOAD ADD DUP1 DUP3 SSTORE DUP1 SWAP2 POP POP PUSH1 0x1 SWAP1 SUB SWAP1 PUSH0 MSTORE PUSH1 0x20 PUSH0 KECCAK256 ADD PUSH0 SWAP1 SWAP2 SWAP1 SWAP2 SWAP1 SWAP2 POP SSTORE CALLER PUSH20 0xFFFFFFFFFFFFFFFFFFFFFFFFFFFFFFFFFFFFFFFF AND PUSH32 0x3F9B921F6BB5D577CDF49122202D27F7C50E3CC981C47543DC4A59C00DEE5229 DUP3 PUSH1 0x4 SLOAD PUSH1 0x40 MLOAD PUSH2 0x2152 SWAP3 SWAP2 SWAP1 PUSH2 0x491B JUMP JUMPDEST PUSH1 0x40 MLOAD DUP1 SWAP2 SUB SWAP1 LOG2 PUSH1 0x4 PUSH0 DUP2 SLOAD DUP1 SWAP3 SWAP2 SWAP1 PUSH2 0x216C SWAP1 PUSH2 0x496F JUMP JUMPDEST SWAP2 SWAP1 POP SSTORE POP POP POP POP POP POP JUMP JUMPDEST PUSH0 DUP1 PUSH20 0xFFFFFFFFFFFFFFFFFFFFFFFFFFFFFFFFFFFFFFFF AND PUSH0 DUP1 CALLER PUSH20 0xFFFFFFFFFFFFFFFFFFFFFFFFFFFFFFFFFFFFFFFF AND PUSH20 0xFFFFFFFFFFFFFFFFFFFFFFFFFFFFFFFFFFFFFFFF AND DUP2 MSTORE PUSH1 0x20 ADD SWAP1 DUP2 MSTORE PUSH1 0x20 ADD PUSH0 KECCAK256 PUSH1 0x1 ADD PUSH0 SWAP1 SLOAD SWAP1 PUSH2 0x100 EXP SWAP1 DIV PUSH20 0xFFFFFFFFFFFFFFFFFFFFFFFFFFFFFFFFFFFFFFFF AND PUSH20 0xFFFFFFFFFFFFFFFFFFFFFFFFFFFFFFFFFFFFFFFF AND SUB PUSH2 0x2245 JUMPI PUSH1 0x40 MLOAD PUSH32 0x8C379A000000000000000000000000000000000000000000000000000000000 DUP2 MSTORE PUSH1 0x4 ADD PUSH2 0x223C SWAP1 PUSH2 0x3FDD JUMP JUMPDEST PUSH1 0x40 MLOAD DUP1 SWAP2 SUB SWAP1 REVERT JUMPDEST PUSH0 PUSH20 0xFFFFFFFFFFFFFFFFFFFFFFFFFFFFFFFFFFFFFFFF AND PUSH1 0x5 PUSH0 DUP5 DUP2 MSTORE PUSH1 0x20 ADD SWAP1 DUP2 MSTORE PUSH1 0x20 ADD PUSH0 KECCAK256 PUSH1 0x5 ADD PUSH0 SWAP1 SLOAD SWAP1 PUSH2 0x100 EXP SWAP1 DIV PUSH20 0xFFFFFFFFFFFFFFFFFFFFFFFFFFFFFFFFFFFFFFFF AND PUSH20 0xFFFFFFFFFFFFFFFFFFFFFFFFFFFFFFFFFFFFFFFF AND SUB PUSH2 0x22E6 JUMPI PUSH1 0x40 MLOAD PUSH32 0x8C379A000000000000000000000000000000000000000000000000000000000 DUP2 MSTORE PUSH1 0x4 ADD PUSH2 0x22DD SWAP1 PUSH2 0x44F9 JUMP JUMPDEST PUSH1 0x40 MLOAD DUP1 SWAP2 SUB SWAP1 REVERT JUMPDEST PUSH0 PUSH1 0x5 PUSH0 DUP5 DUP2 MSTORE PUSH1 0x20 ADD SWAP1 DUP2 MSTORE PUSH1 0x20 ADD PUSH0 KECCAK256 PUSH1 0x5 ADD PUSH1 0x14 SWAP1 SLOAD SWAP1 PUSH2 0x100 EXP SWAP1 DIV PUSH1 0xFF AND SWAP1 POP DUP3 PUSH32 0x5B1D4634B3C10500FFEDC8842916F2444F17B692FACA086F941028797DE87728 DUP3 PUSH1 0x40 MLOAD PUSH2 0x233B SWAP2 SWAP1 PUSH2 0x3A03 JUMP JUMPDEST PUSH1 0x40 MLOAD DUP1 SWAP2 SUB SWAP1 LOG2 DUP1 SWAP2 POP POP SWAP2 SWAP1 POP JUMP JUMPDEST PUSH1 0x40 MLOAD DUP1 PUSH1 0x40 ADD PUSH1 0x40 MSTORE DUP1 PUSH1 0x7 DUP2 MSTORE PUSH1 0x20 ADD PUSH32 0x6D616E6167657200000000000000000000000000000000000000000000000000 DUP2 MSTORE POP DUP1 MLOAD SWAP1 PUSH1 0x20 ADD KECCAK256 PUSH1 0x1 PUSH0 CALLER PUSH20 0xFFFFFFFFFFFFFFFFFFFFFFFFFFFFFFFFFFFFFFFF AND PUSH20 0xFFFFFFFFFFFFFFFFFFFFFFFFFFFFFFFFFFFFFFFF AND DUP2 MSTORE PUSH1 0x20 ADD SWAP1 DUP2 MSTORE PUSH1 0x20 ADD PUSH0 KECCAK256 PUSH1 0x40 MLOAD PUSH2 0x23D3 SWAP2 SWAP1 PUSH2 0x3EEF JUMP JUMPDEST PUSH1 0x40 MLOAD DUP1 SWAP2 SUB SWAP1 KECCAK256 EQ PUSH2 0x241B JUMPI PUSH1 0x40 MLOAD PUSH32 0x8C379A000000000000000000000000000000000000000000000000000000000 DUP2 MSTORE PUSH1 0x4 ADD PUSH2 0x2412 SWAP1 PUSH2 0x3F4F JUMP JUMPDEST PUSH1 0x40 MLOAD DUP1 SWAP2 SUB SWAP1 REVERT JUMPDEST PUSH0 PUSH20 0xFFFFFFFFFFFFFFFFFFFFFFFFFFFFFFFFFFFFFFFF AND PUSH0 DUP1 CALLER PUSH20 0xFFFFFFFFFFFFFFFFFFFFFFFFFFFFFFFFFFFFFFFF AND PUSH20 0xFFFFFFFFFFFFFFFFFFFFFFFFFFFFFFFFFFFFFFFF AND DUP2 MSTORE PUSH1 0x20 ADD SWAP1 DUP2 MSTORE PUSH1 0x20 ADD PUSH0 KECCAK256 PUSH1 0x1 ADD PUSH0 SWAP1 SLOAD SWAP1 PUSH2 0x100 EXP SWAP1 DIV PUSH20 0xFFFFFFFFFFFFFFFFFFFFFFFFFFFFFFFFFFFFFFFF AND PUSH20 0xFFFFFFFFFFFFFFFFFFFFFFFFFFFFFFFFFFFFFFFF AND SUB PUSH2 0x24E7 JUMPI PUSH1 0x40 MLOAD PUSH32 0x8C379A000000000000000000000000000000000000000000000000000000000 DUP2 MSTORE PUSH1 0x4 ADD PUSH2 0x24DE SWAP1 PUSH2 0x3FDD JUMP JUMPDEST PUSH1 0x40 MLOAD DUP1 SWAP2 SUB SWAP1 REVERT JUMPDEST DUP1 PUSH20 0xFFFFFFFFFFFFFFFFFFFFFFFFFFFFFFFFFFFFFFFF AND PUSH1 0x5 PUSH0 DUP5 DUP2 MSTORE PUSH1 0x20 ADD SWAP1 DUP2 MSTORE PUSH1 0x20 ADD PUSH0 KECCAK256 PUSH1 0x5 ADD PUSH0 SWAP1 SLOAD SWAP1 PUSH2 0x100 EXP SWAP1 DIV PUSH20 0xFFFFFFFFFFFFFFFFFFFFFFFFFFFFFFFFFFFFFFFF AND PUSH20 0xFFFFFFFFFFFFFFFFFFFFFFFFFFFFFFFFFFFFFFFF AND SUB PUSH2 0x2588 JUMPI PUSH1 0x40 MLOAD PUSH32 0x8C379A000000000000000000000000000000000000000000000000000000000 DUP2 MSTORE PUSH1 0x4 ADD PUSH2 0x257F SWAP1 PUSH2 0x4A26 JUMP JUMPDEST PUSH1 0x40 MLOAD DUP1 SWAP2 SUB SWAP1 REVERT JUMPDEST PUSH0 PUSH1 0x5 PUSH0 DUP5 DUP2 MSTORE PUSH1 0x20 ADD SWAP1 DUP2 MSTORE PUSH1 0x20 ADD PUSH0 KECCAK256 PUSH1 0x5 ADD PUSH0 SWAP1 SLOAD SWAP1 PUSH2 0x100 EXP SWAP1 DIV PUSH20 0xFFFFFFFFFFFFFFFFFFFFFFFFFFFFFFFFFFFFFFFF AND SWAP1 POP DUP2 PUSH1 0x5 PUSH0 DUP6 DUP2 MSTORE PUSH1 0x20 ADD SWAP1 DUP2 MSTORE PUSH1 0x20 ADD PUSH0 KECCAK256 PUSH1 0x5 ADD PUSH0 PUSH2 0x100 EXP DUP2 SLOAD DUP2 PUSH20 0xFFFFFFFFFFFFFFFFFFFFFFFFFFFFFFFFFFFFFFFF MUL NOT AND SWAP1 DUP4 PUSH20 0xFFFFFFFFFFFFFFFFFFFFFFFFFFFFFFFFFFFFFFFF AND MUL OR SWAP1 SSTORE POP PUSH0 PUSH1 0x6 PUSH0 DUP4 PUSH20 0xFFFFFFFFFFFFFFFFFFFFFFFFFFFFFFFFFFFFFFFF AND PUSH20 0xFFFFFFFFFFFFFFFFFFFFFFFFFFFFFFFFFFFFFFFF AND DUP2 MSTORE PUSH1 0x20 ADD SWAP1 DUP2 MSTORE PUSH1 0x20 ADD PUSH0 KECCAK256 SWAP1 POP PUSH0 JUMPDEST DUP2 DUP1 SLOAD SWAP1 POP DUP2 LT ISZERO PUSH2 0x2702 JUMPI DUP5 DUP3 DUP3 DUP2 SLOAD DUP2 LT PUSH2 0x2673 JUMPI PUSH2 0x2672 PUSH2 0x4482 JUMP JUMPDEST JUMPDEST SWAP1 PUSH0 MSTORE PUSH1 0x20 PUSH0 KECCAK256 ADD SLOAD SUB PUSH2 0x26F5 JUMPI DUP2 PUSH1 0x1 DUP4 DUP1 SLOAD SWAP1 POP PUSH2 0x2693 SWAP2 SWAP1 PUSH2 0x4A44 JUMP JUMPDEST DUP2 SLOAD DUP2 LT PUSH2 0x26A4 JUMPI PUSH2 0x26A3 PUSH2 0x4482 JUMP JUMPDEST JUMPDEST SWAP1 PUSH0 MSTORE PUSH1 0x20 PUSH0 KECCAK256 ADD SLOAD DUP3 DUP3 DUP2 SLOAD DUP2 LT PUSH2 0x26C0 JUMPI PUSH2 0x26BF PUSH2 0x4482 JUMP JUMPDEST JUMPDEST SWAP1 PUSH0 MSTORE PUSH1 0x20 PUSH0 KECCAK256 ADD DUP2 SWAP1 SSTORE POP DUP2 DUP1 SLOAD DUP1 PUSH2 0x26DD JUMPI PUSH2 0x26DC PUSH2 0x4A77 JUMP JUMPDEST JUMPDEST PUSH1 0x1 SWAP1 SUB DUP2 DUP2 SWAP1 PUSH0 MSTORE PUSH1 0x20 PUSH0 KECCAK256 ADD PUSH0 SWAP1 SSTORE SWAP1 SSTORE PUSH2 0x2702 JUMP JUMPDEST DUP1 DUP1 PUSH1 0x1 ADD SWAP2 POP POP PUSH2 0x2653 JUMP JUMPDEST POP PUSH1 0x6 PUSH0 DUP5 PUSH20 0xFFFFFFFFFFFFFFFFFFFFFFFFFFFFFFFFFFFFFFFF AND PUSH20 0xFFFFFFFFFFFFFFFFFFFFFFFFFFFFFFFFFFFFFFFF AND DUP2 MSTORE PUSH1 0x20 ADD SWAP1 DUP2 MSTORE PUSH1 0x20 ADD PUSH0 KECCAK256 DUP5 SWAP1 DUP1 PUSH1 0x1 DUP2 SLOAD ADD DUP1 DUP3 SSTORE DUP1 SWAP2 POP POP PUSH1 0x1 SWAP1 SUB SWAP1 PUSH0 MSTORE PUSH1 0x20 PUSH0 KECCAK256 ADD PUSH0 SWAP1 SWAP2 SWAP1 SWAP2 SWAP1 SWAP2 POP SSTORE CALLER PUSH20 0xFFFFFFFFFFFFFFFFFFFFFFFFFFFFFFFFFFFFFFFF AND PUSH32 0xA836A77B7D869C0ECBC2D10F741A9CBDD750CAF2459E4B97FAC260346E14F32 DUP5 DUP7 PUSH1 0x40 MLOAD PUSH2 0x27AC SWAP3 SWAP2 SWAP1 PUSH2 0x491B JUMP JUMPDEST PUSH1 0x40 MLOAD DUP1 SWAP2 SUB SWAP1 LOG2 POP POP POP POP JUMP JUMPDEST PUSH1 0x40 MLOAD DUP1 PUSH1 0x40 ADD PUSH1 0x40 MSTORE DUP1 PUSH1 0x7 DUP2 MSTORE PUSH1 0x20 ADD PUSH32 0x6D616E6167657200000000000000000000000000000000000000000000000000 DUP2 MSTORE POP DUP1 MLOAD SWAP1 PUSH1 0x20 ADD KECCAK256 PUSH1 0x1 PUSH0 CALLER PUSH20 0xFFFFFFFFFFFFFFFFFFFFFFFFFFFFFFFFFFFFFFFF AND PUSH20 0xFFFFFFFFFFFFFFFFFFFFFFFFFFFFFFFFFFFFFFFF AND DUP2 MSTORE PUSH1 0x20 ADD SWAP1 DUP2 MSTORE PUSH1 0x20 ADD PUSH0 KECCAK256 PUSH1 0x40 MLOAD PUSH2 0x2841 SWAP2 SWAP1 PUSH2 0x3EEF JUMP JUMPDEST PUSH1 0x40 MLOAD DUP1 SWAP2 SUB SWAP1 KECCAK256 EQ PUSH2 0x2889 JUMPI PUSH1 0x40 MLOAD PUSH32 0x8C379A000000000000000000000000000000000000000000000000000000000 DUP2 MSTORE PUSH1 0x4 ADD PUSH2 0x2880 SWAP1 PUSH2 0x3F4F JUMP JUMPDEST PUSH1 0x40 MLOAD DUP1 SWAP2 SUB SWAP1 REVERT JUMPDEST PUSH0 PUSH20 0xFFFFFFFFFFFFFFFFFFFFFFFFFFFFFFFFFFFFFFFF AND PUSH0 DUP1 CALLER PUSH20 0xFFFFFFFFFFFFFFFFFFFFFFFFFFFFFFFFFFFFFFFF AND PUSH20 0xFFFFFFFFFFFFFFFFFFFFFFFFFFFFFFFFFFFFFFFF AND DUP2 MSTORE PUSH1 0x20 ADD SWAP1 DUP2 MSTORE PUSH1 0x20 ADD PUSH0 KECCAK256 PUSH1 0x1 ADD PUSH0 SWAP1 SLOAD SWAP1 PUSH2 0x100 EXP SWAP1 DIV PUSH20 0xFFFFFFFFFFFFFFFFFFFFFFFFFFFFFFFFFFFFFFFF AND PUSH20 0xFFFFFFFFFFFFFFFFFFFFFFFFFFFFFFFFFFFFFFFF AND SUB PUSH2 0x2955 JUMPI PUSH1 0x40 MLOAD PUSH32 0x8C379A000000000000000000000000000000000000000000000000000000000 DUP2 MSTORE PUSH1 0x4 ADD PUSH2 0x294C SWAP1 PUSH2 0x3FDD JUMP JUMPDEST PUSH1 0x40 MLOAD DUP1 SWAP2 SUB SWAP1 REVERT JUMPDEST PUSH0 DUP2 MLOAD GT PUSH2 0x2998 JUMPI PUSH1 0x40 MLOAD PUSH32 0x8C379A000000000000000000000000000000000000000000000000000000000 DUP2 MSTORE PUSH1 0x4 ADD PUSH2 0x298F SWAP1 PUSH2 0x4045 JUMP JUMPDEST PUSH1 0x40 MLOAD DUP1 SWAP2 SUB SWAP1 REVERT JUMPDEST DUP1 PUSH1 0x1 PUSH0 DUP5 PUSH20 0xFFFFFFFFFFFFFFFFFFFFFFFFFFFFFFFFFFFFFFFF AND PUSH20 0xFFFFFFFFFFFFFFFFFFFFFFFFFFFFFFFFFFFFFFFF AND DUP2 MSTORE PUSH1 0x20 ADD SWAP1 DUP2 MSTORE PUSH1 0x20 ADD PUSH0 KECCAK256 SWAP1 DUP2 PUSH2 0x29E2 SWAP2 SWAP1 PUSH2 0x42E8 JUMP JUMPDEST POP PUSH1 0x2 PUSH0 DUP4 PUSH20 0xFFFFFFFFFFFFFFFFFFFFFFFFFFFFFFFFFFFFFFFF AND PUSH20 0xFFFFFFFFFFFFFFFFFFFFFFFFFFFFFFFFFFFFFFFF AND DUP2 MSTORE PUSH1 0x20 ADD SWAP1 DUP2 MSTORE PUSH1 0x20 ADD PUSH0 KECCAK256 DUP2 SWAP1 DUP1 PUSH1 0x1 DUP2 SLOAD ADD DUP1 DUP3 SSTORE DUP1 SWAP2 POP POP PUSH1 0x1 SWAP1 SUB SWAP1 PUSH0 MSTORE PUSH1 0x20 PUSH0 KECCAK256 ADD PUSH0 SWAP1 SWAP2 SWAP1 SWAP2 SWAP1 SWAP2 POP SWAP1 DUP2 PUSH2 0x2A4F SWAP2 SWAP1 PUSH2 0x42E8 JUMP JUMPDEST POP DUP2 PUSH20 0xFFFFFFFFFFFFFFFFFFFFFFFFFFFFFFFFFFFFFFFF AND PUSH32 0x3565795C2FB8842C21347D277937778BBCFE788B5B4F790FC5E408786CBE9C90 DUP3 PUSH1 0x40 MLOAD PUSH2 0x2A96 SWAP2 SWAP1 PUSH2 0x3C8F JUMP JUMPDEST PUSH1 0x40 MLOAD DUP1 SWAP2 SUB SWAP1 LOG2 POP POP JUMP JUMPDEST PUSH1 0x60 PUSH0 PUSH20 0xFFFFFFFFFFFFFFFFFFFFFFFFFFFFFFFFFFFFFFFF AND PUSH0 DUP1 CALLER PUSH20 0xFFFFFFFFFFFFFFFFFFFFFFFFFFFFFFFFFFFFFFFF AND PUSH20 0xFFFFFFFFFFFFFFFFFFFFFFFFFFFFFFFFFFFFFFFF AND DUP2 MSTORE PUSH1 0x20 ADD SWAP1 DUP2 MSTORE PUSH1 0x20 ADD PUSH0 KECCAK256 PUSH1 0x1 ADD PUSH0 SWAP1 SLOAD SWAP1 PUSH2 0x100 EXP SWAP1 DIV PUSH20 0xFFFFFFFFFFFFFFFFFFFFFFFFFFFFFFFFFFFFFFFF AND PUSH20 0xFFFFFFFFFFFFFFFFFFFFFFFFFFFFFFFFFFFFFFFF AND SUB PUSH2 0x2B70 JUMPI PUSH1 0x40 MLOAD PUSH32 0x8C379A000000000000000000000000000000000000000000000000000000000 DUP2 MSTORE PUSH1 0x4 ADD PUSH2 0x2B67 SWAP1 PUSH2 0x4AEE JUMP JUMPDEST PUSH1 0x40 MLOAD DUP1 SWAP2 SUB SWAP1 REVERT JUMPDEST PUSH0 DUP1 CALLER PUSH20 0xFFFFFFFFFFFFFFFFFFFFFFFFFFFFFFFFFFFFFFFF AND PUSH20 0xFFFFFFFFFFFFFFFFFFFFFFFFFFFFFFFFFFFFFFFF AND DUP2 MSTORE PUSH1 0x20 ADD SWAP1 DUP2 MSTORE PUSH1 0x20 ADD PUSH0 KECCAK256 PUSH0 ADD DUP1 SLOAD PUSH2 0x2BB9 SWAP1 PUSH2 0x3E23 JUMP JUMPDEST DUP1 PUSH1 0x1F ADD PUSH1 0x20 DUP1 SWAP2 DIV MUL PUSH1 0x20 ADD PUSH1 0x40 MLOAD SWAP1 DUP2 ADD PUSH1 0x40 MSTORE DUP1 SWAP3 SWAP2 SWAP1 DUP2 DUP2 MSTORE PUSH1 0x20 ADD DUP3 DUP1 SLOAD PUSH2 0x2BE5 SWAP1 PUSH2 0x3E23 JUMP JUMPDEST DUP1 ISZERO PUSH2 0x2C30 JUMPI DUP1 PUSH1 0x1F LT PUSH2 0x2C07 JUMPI PUSH2 0x100 DUP1 DUP4 SLOAD DIV MUL DUP4 MSTORE SWAP2 PUSH1 0x20 ADD SWAP2 PUSH2 0x2C30 JUMP JUMPDEST DUP3 ADD SWAP2 SWAP1 PUSH0 MSTORE PUSH1 0x20 PUSH0 KECCAK256 SWAP1 JUMPDEST DUP2 SLOAD DUP2 MSTORE SWAP1 PUSH1 0x1 ADD SWAP1 PUSH1 0x20 ADD DUP1 DUP4 GT PUSH2 0x2C13 JUMPI DUP3 SWAP1 SUB PUSH1 0x1F AND DUP3 ADD SWAP2 JUMPDEST POP POP POP POP POP SWAP1 POP SWAP1 JUMP JUMPDEST PUSH0 PUSH20 0xFFFFFFFFFFFFFFFFFFFFFFFFFFFFFFFFFFFFFFFF AND PUSH0 DUP1 CALLER PUSH20 0xFFFFFFFFFFFFFFFFFFFFFFFFFFFFFFFFFFFFFFFF AND PUSH20 0xFFFFFFFFFFFFFFFFFFFFFFFFFFFFFFFFFFFFFFFF AND DUP2 MSTORE PUSH1 0x20 ADD SWAP1 DUP2 MSTORE PUSH1 0x20 ADD PUSH0 KECCAK256 PUSH1 0x1 ADD PUSH0 SWAP1 SLOAD SWAP1 PUSH2 0x100 EXP SWAP1 DIV PUSH20 0xFFFFFFFFFFFFFFFFFFFFFFFFFFFFFFFFFFFFFFFF AND PUSH20 0xFFFFFFFFFFFFFFFFFFFFFFFFFFFFFFFFFFFFFFFF AND SUB PUSH2 0x2D06 JUMPI PUSH1 0x40 MLOAD PUSH32 0x8C379A000000000000000000000000000000000000000000000000000000000 DUP2 MSTORE PUSH1 0x4 ADD PUSH2 0x2CFD SWAP1 PUSH2 0x3FDD JUMP JUMPDEST PUSH1 0x40 MLOAD DUP1 SWAP2 SUB SWAP1 REVERT JUMPDEST PUSH1 0x5 PUSH0 DUP3 DUP2 MSTORE PUSH1 0x20 ADD SWAP1 DUP2 MSTORE PUSH1 0x20 ADD PUSH0 KECCAK256 PUSH1 0x5 ADD PUSH0 SWAP1 SLOAD SWAP1 PUSH2 0x100 EXP SWAP1 DIV PUSH20 0xFFFFFFFFFFFFFFFFFFFFFFFFFFFFFFFFFFFFFFFF AND PUSH20 0xFFFFFFFFFFFFFFFFFFFFFFFFFFFFFFFFFFFFFFFF AND CALLER PUSH20 0xFFFFFFFFFFFFFFFFFFFFFFFFFFFFFFFFFFFFFFFF AND EQ PUSH2 0x2DA7 JUMPI PUSH1 0x40 MLOAD PUSH32 0x8C379A000000000000000000000000000000000000000000000000000000000 DUP2 MSTORE PUSH1 0x4 ADD PUSH2 0x2D9E SWAP1 PUSH2 0x4658 JUMP JUMPDEST PUSH1 0x40 MLOAD DUP1 SWAP2 SUB SWAP1 REVERT JUMPDEST PUSH1 0x5 PUSH0 DUP3 DUP2 MSTORE PUSH1 0x20 ADD SWAP1 DUP2 MSTORE PUSH1 0x20 ADD PUSH0 KECCAK256 PUSH1 0x5 ADD PUSH1 0x14 SWAP1 SLOAD SWAP1 PUSH2 0x100 EXP SWAP1 DIV PUSH1 0xFF AND ISZERO PUSH2 0x2E09 JUMPI PUSH1 0x40 MLOAD PUSH32 0x8C379A000000000000000000000000000000000000000000000000000000000 DUP2 MSTORE PUSH1 0x4 ADD PUSH2 0x2E00 SWAP1 PUSH2 0x4B56 JUMP JUMPDEST PUSH1 0x40 MLOAD DUP1 SWAP2 SUB SWAP1 REVERT JUMPDEST PUSH1 0x1 PUSH1 0x5 PUSH0 DUP4 DUP2 MSTORE PUSH1 0x20 ADD SWAP1 DUP2 MSTORE PUSH1 0x20 ADD PUSH0 KECCAK256 PUSH1 0x5 ADD PUSH1 0x14 PUSH2 0x100 EXP DUP2 SLOAD DUP2 PUSH1 0xFF MUL NOT AND SWAP1 DUP4 ISZERO ISZERO MUL OR SWAP1 SSTORE POP TIMESTAMP PUSH1 0x5 PUSH0 DUP4 DUP2 MSTORE PUSH1 0x20 ADD SWAP1 DUP2 MSTORE PUSH1 0x20 ADD PUSH0 KECCAK256 PUSH1 0x6 ADD DUP2 SWAP1 SSTORE POP PUSH1 0x5 PUSH0 DUP3 DUP2 MSTORE PUSH1 0x20 ADD SWAP1 DUP2 MSTORE PUSH1 0x20 ADD PUSH0 KECCAK256 PUSH1 0x5 ADD PUSH0 SWAP1 SLOAD SWAP1 PUSH2 0x100 EXP SWAP1 DIV PUSH20 0xFFFFFFFFFFFFFFFFFFFFFFFFFFFFFFFFFFFFFFFF AND PUSH20 0xFFFFFFFFFFFFFFFFFFFFFFFFFFFFFFFFFFFFFFFF AND PUSH32 0xF684D89BB0F42287BF32838774E4B7F8A60C11804B3C6D1791FA55F306792643 DUP3 PUSH1 0x40 MLOAD PUSH2 0x2EC8 SWAP2 SWAP1 PUSH2 0x4B74 JUMP JUMPDEST PUSH1 0x40 MLOAD DUP1 SWAP2 SUB SWAP1 LOG2 POP JUMP JUMPDEST PUSH0 DUP1 PUSH20 0xFFFFFFFFFFFFFFFFFFFFFFFFFFFFFFFFFFFFFFFF AND PUSH0 DUP1 DUP7 PUSH20 0xFFFFFFFFFFFFFFFFFFFFFFFFFFFFFFFFFFFFFFFF AND PUSH20 0xFFFFFFFFFFFFFFFFFFFFFFFFFFFFFFFFFFFFFFFF AND DUP2 MSTORE PUSH1 0x20 ADD SWAP1 DUP2 MSTORE PUSH1 0x20 ADD PUSH0 KECCAK256 PUSH1 0x1 ADD PUSH0 SWAP1 SLOAD SWAP1 PUSH2 0x100 EXP SWAP1 DIV PUSH20 0xFFFFFFFFFFFFFFFFFFFFFFFFFFFFFFFFFFFFFFFF AND PUSH20 0xFFFFFFFFFFFFFFFFFFFFFFFFFFFFFFFFFFFFFFFF AND SUB PUSH2 0x2FA0 JUMPI PUSH1 0x40 MLOAD PUSH32 0x8C379A000000000000000000000000000000000000000000000000000000000 DUP2 MSTORE PUSH1 0x4 ADD PUSH2 0x2F97 SWAP1 PUSH2 0x4BFD JUMP JUMPDEST PUSH1 0x40 MLOAD DUP1 SWAP2 SUB SWAP1 REVERT JUMPDEST PUSH0 PUSH1 0x3 PUSH0 DUP7 PUSH20 0xFFFFFFFFFFFFFFFFFFFFFFFFFFFFFFFFFFFFFFFF AND PUSH20 0xFFFFFFFFFFFFFFFFFFFFFFFFFFFFFFFFFFFFFFFF AND DUP2 MSTORE PUSH1 0x20 ADD SWAP1 DUP2 MSTORE PUSH1 0x20 ADD PUSH0 KECCAK256 DUP1 SLOAD SWAP1 POP GT PUSH2 0x3022 JUMPI PUSH1 0x40 MLOAD PUSH32 0x8C379A000000000000000000000000000000000000000000000000000000000 DUP2 MSTORE PUSH1 0x4 ADD PUSH2 0x3019 SWAP1 PUSH2 0x4C8B JUMP JUMPDEST PUSH1 0x40 MLOAD DUP1 SWAP2 SUB SWAP1 REVERT JUMPDEST PUSH0 PUSH1 0x3 PUSH0 DUP7 PUSH20 0xFFFFFFFFFFFFFFFFFFFFFFFFFFFFFFFFFFFFFFFF AND PUSH20 0xFFFFFFFFFFFFFFFFFFFFFFFFFFFFFFFFFFFFFFFF AND DUP2 MSTORE PUSH1 0x20 ADD SWAP1 DUP2 MSTORE PUSH1 0x20 ADD PUSH0 KECCAK256 PUSH1 0x1 PUSH1 0x3 PUSH0 DUP9 PUSH20 0xFFFFFFFFFFFFFFFFFFFFFFFFFFFFFFFFFFFFFFFF AND PUSH20 0xFFFFFFFFFFFFFFFFFFFFFFFFFFFFFFFFFFFFFFFF AND DUP2 MSTORE PUSH1 0x20 ADD SWAP1 DUP2 MSTORE PUSH1 0x20 ADD PUSH0 KECCAK256 DUP1 SLOAD SWAP1 POP PUSH2 0x30AD SWAP2 SWAP1 PUSH2 0x4A44 JUMP JUMPDEST DUP2 SLOAD DUP2 LT PUSH2 0x30BE JUMPI PUSH2 0x30BD PUSH2 0x4482 JUMP JUMPDEST JUMPDEST SWAP1 PUSH0 MSTORE PUSH1 0x20 PUSH0 KECCAK256 SWAP1 PUSH1 0x4 MUL ADD PUSH1 0x40 MLOAD DUP1 PUSH1 0x80 ADD PUSH1 0x40 MSTORE SWAP1 DUP2 PUSH0 DUP3 ADD PUSH0 SWAP1 SLOAD SWAP1 PUSH2 0x100 EXP SWAP1 DIV PUSH20 0xFFFFFFFFFFFFFFFFFFFFFFFFFFFFFFFFFFFFFFFF AND PUSH20 0xFFFFFFFFFFFFFFFFFFFFFFFFFFFFFFFFFFFFFFFF AND PUSH20 0xFFFFFFFFFFFFFFFFFFFFFFFFFFFFFFFFFFFFFFFF AND DUP2 MSTORE PUSH1 0x20 ADD PUSH1 0x1 DUP3 ADD DUP1 SLOAD PUSH2 0x3139 SWAP1 PUSH2 0x3E23 JUMP JUMPDEST DUP1 PUSH1 0x1F ADD PUSH1 0x20 DUP1 SWAP2 DIV MUL PUSH1 0x20 ADD PUSH1 0x40 MLOAD SWAP1 DUP2 ADD PUSH1 0x40 MSTORE DUP1 SWAP3 SWAP2 SWAP1 DUP2 DUP2 MSTORE PUSH1 0x20 ADD DUP3 DUP1 SLOAD PUSH2 0x3165 SWAP1 PUSH2 0x3E23 JUMP JUMPDEST DUP1 ISZERO PUSH2 0x31B0 JUMPI DUP1 PUSH1 0x1F LT PUSH2 0x3187 JUMPI PUSH2 0x100 DUP1 DUP4 SLOAD DIV MUL DUP4 MSTORE SWAP2 PUSH1 0x20 ADD SWAP2 PUSH2 0x31B0 JUMP JUMPDEST DUP3 ADD SWAP2 SWAP1 PUSH0 MSTORE PUSH1 0x20 PUSH0 KECCAK256 SWAP1 JUMPDEST DUP2 SLOAD DUP2 MSTORE SWAP1 PUSH1 0x1 ADD SWAP1 PUSH1 0x20 ADD DUP1 DUP4 GT PUSH2 0x3193 JUMPI DUP3 SWAP1 SUB PUSH1 0x1F AND DUP3 ADD SWAP2 JUMPDEST POP POP POP POP POP DUP2 MSTORE PUSH1 0x20 ADD PUSH1 0x2 DUP3 ADD SLOAD DUP2 MSTORE PUSH1 0x20 ADD PUSH1 0x3 DUP3 ADD SLOAD DUP2 MSTORE POP POP SWAP1 POP PUSH0 DUP2 PUSH1 0x40 ADD MLOAD SWAP1 POP PUSH0 DUP6 DUP8 DUP7 DUP6 PUSH1 0x60 ADD MLOAD PUSH1 0x40 MLOAD PUSH1 0x20 ADD PUSH2 0x31F3 SWAP5 SWAP4 SWAP3 SWAP2 SWAP1 PUSH2 0x4102 JUMP JUMPDEST PUSH1 0x40 MLOAD PUSH1 0x20 DUP2 DUP4 SUB SUB DUP2 MSTORE SWAP1 PUSH1 0x40 MSTORE DUP1 MLOAD SWAP1 PUSH1 0x20 ADD KECCAK256 SWAP1 POP PUSH0 DUP2 DUP4 EQ SWAP1 POP DUP7 PUSH20 0xFFFFFFFFFFFFFFFFFFFFFFFFFFFFFFFFFFFFFFFF AND PUSH32 0x743119E0F5C3443022E2E080183CEAFC4CCB88F4C29FC6DBDAB02412B9935908 DUP8 DUP4 PUSH1 0x40 MLOAD PUSH2 0x3259 SWAP3 SWAP2 SWAP1 PUSH2 0x4CA9 JUMP JUMPDEST PUSH1 0x40 MLOAD DUP1 SWAP2 SUB SWAP1 LOG2 DUP1 SWAP5 POP POP POP POP POP SWAP4 SWAP3 POP POP POP JUMP JUMPDEST PUSH1 0x60 PUSH0 PUSH20 0xFFFFFFFFFFFFFFFFFFFFFFFFFFFFFFFFFFFFFFFF AND PUSH0 DUP1 CALLER PUSH20 0xFFFFFFFFFFFFFFFFFFFFFFFFFFFFFFFFFFFFFFFF AND PUSH20 0xFFFFFFFFFFFFFFFFFFFFFFFFFFFFFFFFFFFFFFFF AND DUP2 MSTORE PUSH1 0x20 ADD SWAP1 DUP2 MSTORE PUSH1 0x20 ADD PUSH0 KECCAK256 PUSH1 0x1 ADD PUSH0 SWAP1 SLOAD SWAP1 PUSH2 0x100 EXP SWAP1 DIV PUSH20 0xFFFFFFFFFFFFFFFFFFFFFFFFFFFFFFFFFFFFFFFF AND PUSH20 0xFFFFFFFFFFFFFFFFFFFFFFFFFFFFFFFFFFFFFFFF AND SUB PUSH2 0x333D JUMPI PUSH1 0x40 MLOAD PUSH32 0x8C379A000000000000000000000000000000000000000000000000000000000 DUP2 MSTORE PUSH1 0x4 ADD PUSH2 0x3334 SWAP1 PUSH2 0x3FDD JUMP JUMPDEST PUSH1 0x40 MLOAD DUP1 SWAP2 SUB SWAP1 REVERT JUMPDEST PUSH0 PUSH1 0x2 PUSH0 CALLER PUSH20 0xFFFFFFFFFFFFFFFFFFFFFFFFFFFFFFFFFFFFFFFF AND PUSH20 0xFFFFFFFFFFFFFFFFFFFFFFFFFFFFFFFFFFFFFFFF AND DUP2 MSTORE PUSH1 0x20 ADD SWAP1 DUP2 MSTORE PUSH1 0x20 ADD PUSH0 KECCAK256 DUP1 SLOAD DUP1 PUSH1 0x20 MUL PUSH1 0x20 ADD PUSH1 0x40 MLOAD SWAP1 DUP2 ADD PUSH1 0x40 MSTORE DUP1 SWAP3 SWAP2 SWAP1 DUP2 DUP2 MSTORE PUSH1 0x20 ADD PUSH0 SWAP1 JUMPDEST DUP3 DUP3 LT ISZERO PUSH2 0x3442 JUMPI DUP4 DUP3 SWAP1 PUSH0 MSTORE PUSH1 0x20 PUSH0 KECCAK256 ADD DUP1 SLOAD PUSH2 0x33B7 SWAP1 PUSH2 0x3E23 JUMP JUMPDEST DUP1 PUSH1 0x1F ADD PUSH1 0x20 DUP1 SWAP2 DIV MUL PUSH1 0x20 ADD PUSH1 0x40 MLOAD SWAP1 DUP2 ADD PUSH1 0x40 MSTORE DUP1 SWAP3 SWAP2 SWAP1 DUP2 DUP2 MSTORE PUSH1 0x20 ADD DUP3 DUP1 SLOAD PUSH2 0x33E3 SWAP1 PUSH2 0x3E23 JUMP JUMPDEST DUP1 ISZERO PUSH2 0x342E JUMPI DUP1 PUSH1 0x1F LT PUSH2 0x3405 JUMPI PUSH2 0x100 DUP1 DUP4 SLOAD DIV MUL DUP4 MSTORE SWAP2 PUSH1 0x20 ADD SWAP2 PUSH2 0x342E JUMP JUMPDEST DUP3 ADD SWAP2 SWAP1 PUSH0 MSTORE PUSH1 0x20 PUSH0 KECCAK256 SWAP1 JUMPDEST DUP2 SLOAD DUP2 MSTORE SWAP1 PUSH1 0x1 ADD SWAP1 PUSH1 0x20 ADD DUP1 DUP4 GT PUSH2 0x3411 JUMPI DUP3 SWAP1 SUB PUSH1 0x1F AND DUP3 ADD SWAP2 JUMPDEST POP POP POP POP POP DUP2 MSTORE PUSH1 0x20 ADD SWAP1 PUSH1 0x1 ADD SWAP1 PUSH2 0x339A JUMP JUMPDEST POP POP POP POP SWAP1 POP PUSH0 DUP2 MLOAD GT PUSH2 0x348B JUMPI PUSH1 0x40 MLOAD PUSH32 0x8C379A000000000000000000000000000000000000000000000000000000000 DUP2 MSTORE PUSH1 0x4 ADD PUSH2 0x3482 SWAP1 PUSH2 0x4D21 JUMP JUMPDEST PUSH1 0x40 MLOAD DUP1 SWAP2 SUB SWAP1 REVERT JUMPDEST DUP1 SWAP2 POP POP SWAP1 JUMP JUMPDEST PUSH1 0x40 MLOAD DUP1 PUSH2 0x100 ADD PUSH1 0x40 MSTORE DUP1 PUSH0 DUP2 MSTORE PUSH1 0x20 ADD PUSH1 0x60 DUP2 MSTORE PUSH1 0x20 ADD PUSH1 0x60 DUP2 MSTORE PUSH1 0x20 ADD PUSH0 PUSH1 0x2 DUP2 GT ISZERO PUSH2 0x34C5 JUMPI PUSH2 0x34C4 PUSH2 0x379D JUMP JUMPDEST JUMPDEST DUP2 MSTORE PUSH1 0x20 ADD PUSH0 DUP2 MSTORE PUSH1 0x20 ADD PUSH0 PUSH20 0xFFFFFFFFFFFFFFFFFFFFFFFFFFFFFFFFFFFFFFFF AND DUP2 MSTORE PUSH1 0x20 ADD PUSH0 ISZERO ISZERO DUP2 MSTORE PUSH1 0x20 ADD PUSH0 DUP2 MSTORE POP SWAP1 JUMP JUMPDEST PUSH0 PUSH1 0x40 MLOAD SWAP1 POP SWAP1 JUMP JUMPDEST PUSH0 DUP1 REVERT JUMPDEST PUSH0 DUP1 REVERT JUMPDEST PUSH0 PUSH20 0xFFFFFFFFFFFFFFFFFFFFFFFFFFFFFFFFFFFFFFFF DUP3 AND SWAP1 POP SWAP2 SWAP1 POP JUMP JUMPDEST PUSH0 PUSH2 0x3535 DUP3 PUSH2 0x350C JUMP JUMPDEST SWAP1 POP SWAP2 SWAP1 POP JUMP JUMPDEST PUSH2 0x3545 DUP2 PUSH2 0x352B JUMP JUMPDEST DUP2 EQ PUSH2 0x354F JUMPI PUSH0 DUP1 REVERT JUMPDEST POP JUMP JUMPDEST PUSH0 DUP2 CALLDATALOAD SWAP1 POP PUSH2 0x3560 DUP2 PUSH2 0x353C JUMP JUMPDEST SWAP3 SWAP2 POP POP JUMP JUMPDEST PUSH0 DUP1 REVERT JUMPDEST PUSH0 DUP1 REVERT JUMPDEST PUSH0 PUSH1 0x1F NOT PUSH1 0x1F DUP4 ADD AND SWAP1 POP SWAP2 SWAP1 POP JUMP JUMPDEST PUSH32 0x4E487B7100000000000000000000000000000000000000000000000000000000 PUSH0 MSTORE PUSH1 0x41 PUSH1 0x4 MSTORE PUSH1 0x24 PUSH0 REVERT JUMPDEST PUSH2 0x35B4 DUP3 PUSH2 0x356E JUMP JUMPDEST DUP2 ADD DUP2 DUP2 LT PUSH8 0xFFFFFFFFFFFFFFFF DUP3 GT OR ISZERO PUSH2 0x35D3 JUMPI PUSH2 0x35D2 PUSH2 0x357E JUMP JUMPDEST JUMPDEST DUP1 PUSH1 0x40 MSTORE POP POP POP JUMP JUMPDEST PUSH0 PUSH2 0x35E5 PUSH2 0x34FB JUMP JUMPDEST SWAP1 POP PUSH2 0x35F1 DUP3 DUP3 PUSH2 0x35AB JUMP JUMPDEST SWAP2 SWAP1 POP JUMP JUMPDEST PUSH0 PUSH8 0xFFFFFFFFFFFFFFFF DUP3 GT ISZERO PUSH2 0x3610 JUMPI PUSH2 0x360F PUSH2 0x357E JUMP JUMPDEST JUMPDEST PUSH2 0x3619 DUP3 PUSH2 0x356E JUMP JUMPDEST SWAP1 POP PUSH1 0x20 DUP2 ADD SWAP1 POP SWAP2 SWAP1 POP JUMP JUMPDEST DUP3 DUP2 DUP4 CALLDATACOPY PUSH0 DUP4 DUP4 ADD MSTORE POP POP POP JUMP JUMPDEST PUSH0 PUSH2 0x3646 PUSH2 0x3641 DUP5 PUSH2 0x35F6 JUMP JUMPDEST PUSH2 0x35DC JUMP JUMPDEST SWAP1 POP DUP3 DUP2 MSTORE PUSH1 0x20 DUP2 ADD DUP5 DUP5 DUP5 ADD GT ISZERO PUSH2 0x3662 JUMPI PUSH2 0x3661 PUSH2 0x356A JUMP JUMPDEST JUMPDEST PUSH2 0x366D DUP5 DUP3 DUP6 PUSH2 0x3626 JUMP JUMPDEST POP SWAP4 SWAP3 POP POP POP JUMP JUMPDEST PUSH0 DUP3 PUSH1 0x1F DUP4 ADD SLT PUSH2 0x3689 JUMPI PUSH2 0x3688 PUSH2 0x3566 JUMP JUMPDEST JUMPDEST DUP2 CALLDATALOAD PUSH2 0x3699 DUP5 DUP3 PUSH1 0x20 DUP7 ADD PUSH2 0x3634 JUMP JUMPDEST SWAP2 POP POP SWAP3 SWAP2 POP POP JUMP JUMPDEST PUSH0 DUP1 PUSH1 0x40 DUP4 DUP6 SUB SLT ISZERO PUSH2 0x36B8 JUMPI PUSH2 0x36B7 PUSH2 0x3504 JUMP JUMPDEST JUMPDEST PUSH0 PUSH2 0x36C5 DUP6 DUP3 DUP7 ADD PUSH2 0x3552 JUMP JUMPDEST SWAP3 POP POP PUSH1 0x20 DUP4 ADD CALLDATALOAD PUSH8 0xFFFFFFFFFFFFFFFF DUP2 GT ISZERO PUSH2 0x36E6 JUMPI PUSH2 0x36E5 PUSH2 0x3508 JUMP JUMPDEST JUMPDEST PUSH2 0x36F2 DUP6 DUP3 DUP7 ADD PUSH2 0x3675 JUMP JUMPDEST SWAP2 POP POP SWAP3 POP SWAP3 SWAP1 POP JUMP JUMPDEST PUSH0 DUP2 MLOAD SWAP1 POP SWAP2 SWAP1 POP JUMP JUMPDEST PUSH0 DUP3 DUP3 MSTORE PUSH1 0x20 DUP3 ADD SWAP1 POP SWAP3 SWAP2 POP POP JUMP JUMPDEST PUSH0 DUP2 SWAP1 POP PUSH1 0x20 DUP3 ADD SWAP1 POP SWAP2 SWAP1 POP JUMP JUMPDEST PUSH0 DUP2 SWAP1 POP SWAP2 SWAP1 POP JUMP JUMPDEST PUSH2 0x3737 DUP2 PUSH2 0x3725 JUMP JUMPDEST DUP3 MSTORE POP POP JUMP JUMPDEST PUSH0 DUP2 MLOAD SWAP1 POP SWAP2 SWAP1 POP JUMP JUMPDEST PUSH0 DUP3 DUP3 MSTORE PUSH1 0x20 DUP3 ADD SWAP1 POP SWAP3 SWAP2 POP POP JUMP JUMPDEST DUP3 DUP2 DUP4 MCOPY PUSH0 DUP4 DUP4 ADD MSTORE POP POP POP JUMP JUMPDEST PUSH0 PUSH2 0x376F DUP3 PUSH2 0x373D JUMP JUMPDEST PUSH2 0x3779 DUP2 DUP6 PUSH2 0x3747 JUMP JUMPDEST SWAP4 POP PUSH2 0x3789 DUP2 DUP6 PUSH1 0x20 DUP7 ADD PUSH2 0x3757 JUMP JUMPDEST PUSH2 0x3792 DUP2 PUSH2 0x356E JUMP JUMPDEST DUP5 ADD SWAP2 POP POP SWAP3 SWAP2 POP POP JUMP JUMPDEST PUSH32 0x4E487B7100000000000000000000000000000000000000000000000000000000 PUSH0 MSTORE PUSH1 0x21 PUSH1 0x4 MSTORE PUSH1 0x24 PUSH0 REVERT JUMPDEST PUSH1 0x3 DUP2 LT PUSH2 0x37DB JUMPI PUSH2 0x37DA PUSH2 0x379D JUMP JUMPDEST JUMPDEST POP JUMP JUMPDEST PUSH0 DUP2 SWAP1 POP PUSH2 0x37EB DUP3 PUSH2 0x37CA JUMP JUMPDEST SWAP2 SWAP1 POP JUMP JUMPDEST PUSH0 PUSH2 0x37FA DUP3 PUSH2 0x37DE JUMP JUMPDEST SWAP1 POP SWAP2 SWAP1 POP JUMP JUMPDEST PUSH2 0x380A DUP2 PUSH2 0x37F0 JUMP JUMPDEST DUP3 MSTORE POP POP JUMP JUMPDEST PUSH2 0x3819 DUP2 PUSH2 0x352B JUMP JUMPDEST DUP3 MSTORE POP POP JUMP JUMPDEST PUSH0 DUP2 ISZERO ISZERO SWAP1 POP SWAP2 SWAP1 POP JUMP JUMPDEST PUSH2 0x3833 DUP2 PUSH2 0x381F JUMP JUMPDEST DUP3 MSTORE POP POP JUMP JUMPDEST PUSH0 PUSH2 0x100 DUP4 ADD PUSH0 DUP4 ADD MLOAD PUSH2 0x384F PUSH0 DUP7 ADD DUP3 PUSH2 0x372E JUMP JUMPDEST POP PUSH1 0x20 DUP4 ADD MLOAD DUP5 DUP3 SUB PUSH1 0x20 DUP7 ADD MSTORE PUSH2 0x3867 DUP3 DUP3 PUSH2 0x3765 JUMP JUMPDEST SWAP2 POP POP PUSH1 0x40 DUP4 ADD MLOAD DUP5 DUP3 SUB PUSH1 0x40 DUP7 ADD MSTORE PUSH2 0x3881 DUP3 DUP3 PUSH2 0x3765 JUMP JUMPDEST SWAP2 POP POP PUSH1 0x60 DUP4 ADD MLOAD PUSH2 0x3896 PUSH1 0x60 DUP7 ADD DUP3 PUSH2 0x3801 JUMP JUMPDEST POP PUSH1 0x80 DUP4 ADD MLOAD PUSH2 0x38A9 PUSH1 0x80 DUP7 ADD DUP3 PUSH2 0x372E JUMP JUMPDEST POP PUSH1 0xA0 DUP4 ADD MLOAD PUSH2 0x38BC PUSH1 0xA0 DUP7 ADD DUP3 PUSH2 0x3810 JUMP JUMPDEST POP PUSH1 0xC0 DUP4 ADD MLOAD PUSH2 0x38CF PUSH1 0xC0 DUP7 ADD DUP3 PUSH2 0x382A JUMP JUMPDEST POP PUSH1 0xE0 DUP4 ADD MLOAD PUSH2 0x38E2 PUSH1 0xE0 DUP7 ADD DUP3 PUSH2 0x372E JUMP JUMPDEST POP DUP1 SWAP2 POP POP SWAP3 SWAP2 POP POP JUMP JUMPDEST PUSH0 PUSH2 0x38F8 DUP4 DUP4 PUSH2 0x3839 JUMP JUMPDEST SWAP1 POP SWAP3 SWAP2 POP POP JUMP JUMPDEST PUSH0 PUSH1 0x20 DUP3 ADD SWAP1 POP SWAP2 SWAP1 POP JUMP JUMPDEST PUSH0 PUSH2 0x3916 DUP3 PUSH2 0x36FC JUMP JUMPDEST PUSH2 0x3920 DUP2 DUP6 PUSH2 0x3706 JUMP JUMPDEST SWAP4 POP DUP4 PUSH1 0x20 DUP3 MUL DUP6 ADD PUSH2 0x3932 DUP6 PUSH2 0x3716 JUMP JUMPDEST DUP1 PUSH0 JUMPDEST DUP6 DUP2 LT ISZERO PUSH2 0x396D JUMPI DUP5 DUP5 SUB DUP10 MSTORE DUP2 MLOAD PUSH2 0x394E DUP6 DUP3 PUSH2 0x38ED JUMP JUMPDEST SWAP5 POP PUSH2 0x3959 DUP4 PUSH2 0x3900 JUMP JUMPDEST SWAP3 POP PUSH1 0x20 DUP11 ADD SWAP10 POP POP PUSH1 0x1 DUP2 ADD SWAP1 POP PUSH2 0x3935 JUMP JUMPDEST POP DUP3 SWAP8 POP DUP8 SWAP6 POP POP POP POP POP POP SWAP3 SWAP2 POP POP JUMP JUMPDEST PUSH0 PUSH1 0x20 DUP3 ADD SWAP1 POP DUP2 DUP2 SUB PUSH0 DUP4 ADD MSTORE PUSH2 0x3997 DUP2 DUP5 PUSH2 0x390C JUMP JUMPDEST SWAP1 POP SWAP3 SWAP2 POP POP JUMP JUMPDEST PUSH2 0x39A8 DUP2 PUSH2 0x3725 JUMP JUMPDEST DUP2 EQ PUSH2 0x39B2 JUMPI PUSH0 DUP1 REVERT JUMPDEST POP JUMP JUMPDEST PUSH0 DUP2 CALLDATALOAD SWAP1 POP PUSH2 0x39C3 DUP2 PUSH2 0x399F JUMP JUMPDEST SWAP3 SWAP2 POP POP JUMP JUMPDEST PUSH0 PUSH1 0x20 DUP3 DUP5 SUB SLT ISZERO PUSH2 0x39DE JUMPI PUSH2 0x39DD PUSH2 0x3504 JUMP JUMPDEST JUMPDEST PUSH0 PUSH2 0x39EB DUP5 DUP3 DUP6 ADD PUSH2 0x39B5 JUMP JUMPDEST SWAP2 POP POP SWAP3 SWAP2 POP POP JUMP JUMPDEST PUSH2 0x39FD DUP2 PUSH2 0x381F JUMP JUMPDEST DUP3 MSTORE POP POP JUMP JUMPDEST PUSH0 PUSH1 0x20 DUP3 ADD SWAP1 POP PUSH2 0x3A16 PUSH0 DUP4 ADD DUP5 PUSH2 0x39F4 JUMP JUMPDEST SWAP3 SWAP2 POP POP JUMP JUMPDEST PUSH0 DUP1 PUSH1 0x40 DUP4 DUP6 SUB SLT ISZERO PUSH2 0x3A32 JUMPI PUSH2 0x3A31 PUSH2 0x3504 JUMP JUMPDEST JUMPDEST PUSH0 PUSH2 0x3A3F DUP6 DUP3 DUP7 ADD PUSH2 0x39B5 JUMP JUMPDEST SWAP3 POP POP PUSH1 0x20 PUSH2 0x3A50 DUP6 DUP3 DUP7 ADD PUSH2 0x3552 JUMP JUMPDEST SWAP2 POP POP SWAP3 POP SWAP3 SWAP1 POP JUMP JUMPDEST PUSH0 PUSH1 0x20 DUP3 DUP5 SUB SLT ISZERO PUSH2 0x3A6F JUMPI PUSH2 0x3A6E PUSH2 0x3504 JUMP JUMPDEST JUMPDEST PUSH0 DUP3 ADD CALLDATALOAD PUSH8 0xFFFFFFFFFFFFFFFF DUP2 GT ISZERO PUSH2 0x3A8C JUMPI PUSH2 0x3A8B PUSH2 0x3508 JUMP JUMPDEST JUMPDEST PUSH2 0x3A98 DUP5 DUP3 DUP6 ADD PUSH2 0x3675 JUMP JUMPDEST SWAP2 POP POP SWAP3 SWAP2 POP POP JUMP JUMPDEST PUSH0 PUSH2 0x100 DUP4 ADD PUSH0 DUP4 ADD MLOAD PUSH2 0x3AB7 PUSH0 DUP7 ADD DUP3 PUSH2 0x372E JUMP JUMPDEST POP PUSH1 0x20 DUP4 ADD MLOAD DUP5 DUP3 SUB PUSH1 0x20 DUP7 ADD MSTORE PUSH2 0x3ACF DUP3 DUP3 PUSH2 0x3765 JUMP JUMPDEST SWAP2 POP POP PUSH1 0x40 DUP4 ADD MLOAD DUP5 DUP3 SUB PUSH1 0x40 DUP7 ADD MSTORE PUSH2 0x3AE9 DUP3 DUP3 PUSH2 0x3765 JUMP JUMPDEST SWAP2 POP POP PUSH1 0x60 DUP4 ADD MLOAD PUSH2 0x3AFE PUSH1 0x60 DUP7 ADD DUP3 PUSH2 0x3801 JUMP JUMPDEST POP PUSH1 0x80 DUP4 ADD MLOAD PUSH2 0x3B11 PUSH1 0x80 DUP7 ADD DUP3 PUSH2 0x372E JUMP JUMPDEST POP PUSH1 0xA0 DUP4 ADD MLOAD PUSH2 0x3B24 PUSH1 0xA0 DUP7 ADD DUP3 PUSH2 0x3810 JUMP JUMPDEST POP PUSH1 0xC0 DUP4 ADD MLOAD PUSH2 0x3B37 PUSH1 0xC0 DUP7 ADD DUP3 PUSH2 0x382A JUMP JUMPDEST POP PUSH1 0xE0 DUP4 ADD MLOAD PUSH2 0x3B4A PUSH1 0xE0 DUP7 ADD DUP3 PUSH2 0x372E JUMP JUMPDEST POP DUP1 SWAP2 POP POP SWAP3 SWAP2 POP POP JUMP JUMPDEST PUSH0 PUSH1 0x20 DUP3 ADD SWAP1 POP DUP2 DUP2 SUB PUSH0 DUP4 ADD MSTORE PUSH2 0x3B6D DUP2 DUP5 PUSH2 0x3AA1 JUMP JUMPDEST SWAP1 POP SWAP3 SWAP2 POP POP JUMP JUMPDEST PUSH1 0x3 DUP2 LT PUSH2 0x3B81 JUMPI PUSH0 DUP1 REVERT JUMPDEST POP JUMP JUMPDEST PUSH0 DUP2 CALLDATALOAD SWAP1 POP PUSH2 0x3B92 DUP2 PUSH2 0x3B75 JUMP JUMPDEST SWAP3 SWAP2 POP POP JUMP JUMPDEST PUSH0 DUP1 PUSH0 DUP1 PUSH0 PUSH1 0xA0 DUP7 DUP9 SUB SLT ISZERO PUSH2 0x3BB1 JUMPI PUSH2 0x3BB0 PUSH2 0x3504 JUMP JUMPDEST JUMPDEST PUSH0 DUP7 ADD CALLDATALOAD PUSH8 0xFFFFFFFFFFFFFFFF DUP2 GT ISZERO PUSH2 0x3BCE JUMPI PUSH2 0x3BCD PUSH2 0x3508 JUMP JUMPDEST JUMPDEST PUSH2 0x3BDA DUP9 DUP3 DUP10 ADD PUSH2 0x3675 JUMP JUMPDEST SWAP6 POP POP PUSH1 0x20 DUP7 ADD CALLDATALOAD PUSH8 0xFFFFFFFFFFFFFFFF DUP2 GT ISZERO PUSH2 0x3BFB JUMPI PUSH2 0x3BFA PUSH2 0x3508 JUMP JUMPDEST JUMPDEST PUSH2 0x3C07 DUP9 DUP3 DUP10 ADD PUSH2 0x3675 JUMP JUMPDEST SWAP5 POP POP PUSH1 0x40 PUSH2 0x3C18 DUP9 DUP3 DUP10 ADD PUSH2 0x3B84 JUMP JUMPDEST SWAP4 POP POP PUSH1 0x60 PUSH2 0x3C29 DUP9 DUP3 DUP10 ADD PUSH2 0x39B5 JUMP JUMPDEST SWAP3 POP POP PUSH1 0x80 PUSH2 0x3C3A DUP9 DUP3 DUP10 ADD PUSH2 0x3552 JUMP JUMPDEST SWAP2 POP POP SWAP3 SWAP6 POP SWAP3 SWAP6 SWAP1 SWAP4 POP JUMP JUMPDEST PUSH0 DUP3 DUP3 MSTORE PUSH1 0x20 DUP3 ADD SWAP1 POP SWAP3 SWAP2 POP POP JUMP JUMPDEST PUSH0 PUSH2 0x3C61 DUP3 PUSH2 0x373D JUMP JUMPDEST PUSH2 0x3C6B DUP2 DUP6 PUSH2 0x3C47 JUMP JUMPDEST SWAP4 POP PUSH2 0x3C7B DUP2 DUP6 PUSH1 0x20 DUP7 ADD PUSH2 0x3757 JUMP JUMPDEST PUSH2 0x3C84 DUP2 PUSH2 0x356E JUMP JUMPDEST DUP5 ADD SWAP2 POP POP SWAP3 SWAP2 POP POP JUMP JUMPDEST PUSH0 PUSH1 0x20 DUP3 ADD SWAP1 POP DUP2 DUP2 SUB PUSH0 DUP4 ADD MSTORE PUSH2 0x3CA7 DUP2 DUP5 PUSH2 0x3C57 JUMP JUMPDEST SWAP1 POP SWAP3 SWAP2 POP POP JUMP JUMPDEST PUSH0 DUP1 PUSH0 PUSH1 0x60 DUP5 DUP7 SUB SLT ISZERO PUSH2 0x3CC6 JUMPI PUSH2 0x3CC5 PUSH2 0x3504 JUMP JUMPDEST JUMPDEST PUSH0 PUSH2 0x3CD3 DUP7 DUP3 DUP8 ADD PUSH2 0x3552 JUMP JUMPDEST SWAP4 POP POP PUSH1 0x20 PUSH2 0x3CE4 DUP7 DUP3 DUP8 ADD PUSH2 0x3552 JUMP JUMPDEST SWAP3 POP POP PUSH1 0x40 DUP5 ADD CALLDATALOAD PUSH8 0xFFFFFFFFFFFFFFFF DUP2 GT ISZERO PUSH2 0x3D05 JUMPI PUSH2 0x3D04 PUSH2 0x3508 JUMP JUMPDEST JUMPDEST PUSH2 0x3D11 DUP7 DUP3 DUP8 ADD PUSH2 0x3675 JUMP JUMPDEST SWAP2 POP POP SWAP3 POP SWAP3 POP SWAP3 JUMP JUMPDEST PUSH0 DUP2 MLOAD SWAP1 POP SWAP2 SWAP1 POP JUMP JUMPDEST PUSH0 DUP3 DUP3 MSTORE PUSH1 0x20 DUP3 ADD SWAP1 POP SWAP3 SWAP2 POP POP JUMP JUMPDEST PUSH0 DUP2 SWAP1 POP PUSH1 0x20 DUP3 ADD SWAP1 POP SWAP2 SWAP1 POP JUMP JUMPDEST PUSH0 PUSH2 0x3D4F DUP4 DUP4 PUSH2 0x3765 JUMP JUMPDEST SWAP1 POP SWAP3 SWAP2 POP POP JUMP JUMPDEST PUSH0 PUSH1 0x20 DUP3 ADD SWAP1 POP SWAP2 SWAP1 POP JUMP JUMPDEST PUSH0 PUSH2 0x3D6D DUP3 PUSH2 0x3D1B JUMP JUMPDEST PUSH2 0x3D77 DUP2 DUP6 PUSH2 0x3D25 JUMP JUMPDEST SWAP4 POP DUP4 PUSH1 0x20 DUP3 MUL DUP6 ADD PUSH2 0x3D89 DUP6 PUSH2 0x3D35 JUMP JUMPDEST DUP1 PUSH0 JUMPDEST DUP6 DUP2 LT ISZERO PUSH2 0x3DC4 JUMPI DUP5 DUP5 SUB DUP10 MSTORE DUP2 MLOAD PUSH2 0x3DA5 DUP6 DUP3 PUSH2 0x3D44 JUMP JUMPDEST SWAP5 POP PUSH2 0x3DB0 DUP4 PUSH2 0x3D57 JUMP JUMPDEST SWAP3 POP PUSH1 0x20 DUP11 ADD SWAP10 POP POP PUSH1 0x1 DUP2 ADD SWAP1 POP PUSH2 0x3D8C JUMP JUMPDEST POP DUP3 SWAP8 POP DUP8 SWAP6 POP POP POP POP POP POP SWAP3 SWAP2 POP POP JUMP JUMPDEST PUSH0 PUSH1 0x20 DUP3 ADD SWAP1 POP DUP2 DUP2 SUB PUSH0 DUP4 ADD MSTORE PUSH2 0x3DEE DUP2 DUP5 PUSH2 0x3D63 JUMP JUMPDEST SWAP1 POP SWAP3 SWAP2 POP POP JUMP JUMPDEST PUSH32 0x4E487B7100000000000000000000000000000000000000000000000000000000 PUSH0 MSTORE PUSH1 0x22 PUSH1 0x4 MSTORE PUSH1 0x24 PUSH0 REVERT JUMPDEST PUSH0 PUSH1 0x2 DUP3 DIV SWAP1 POP PUSH1 0x1 DUP3 AND DUP1 PUSH2 0x3E3A JUMPI PUSH1 0x7F DUP3 AND SWAP2 POP JUMPDEST PUSH1 0x20 DUP3 LT DUP2 SUB PUSH2 0x3E4D JUMPI PUSH2 0x3E4C PUSH2 0x3DF6 JUMP JUMPDEST JUMPDEST POP SWAP2 SWAP1 POP JUMP JUMPDEST PUSH0 DUP2 SWAP1 POP SWAP3 SWAP2 POP POP JUMP JUMPDEST PUSH0 DUP2 SWAP1 POP DUP2 PUSH0 MSTORE PUSH1 0x20 PUSH0 KECCAK256 SWAP1 POP SWAP2 SWAP1 POP JUMP JUMPDEST PUSH0 DUP2 SLOAD PUSH2 0x3E7B DUP2 PUSH2 0x3E23 JUMP JUMPDEST PUSH2 0x3E85 DUP2 DUP7 PUSH2 0x3E53 JUMP JUMPDEST SWAP5 POP PUSH1 0x1 DUP3 AND PUSH0 DUP2 EQ PUSH2 0x3E9F JUMPI PUSH1 0x1 DUP2 EQ PUSH2 0x3EB4 JUMPI PUSH2 0x3EE6 JUMP JUMPDEST PUSH1 0xFF NOT DUP4 AND DUP7 MSTORE DUP2 ISZERO ISZERO DUP3 MUL DUP7 ADD SWAP4 POP PUSH2 0x3EE6 JUMP JUMPDEST PUSH2 0x3EBD DUP6 PUSH2 0x3E5D JUMP JUMPDEST PUSH0 JUMPDEST DUP4 DUP2 LT ISZERO PUSH2 0x3EDE JUMPI DUP2 SLOAD DUP2 DUP10 ADD MSTORE PUSH1 0x1 DUP3 ADD SWAP2 POP PUSH1 0x20 DUP2 ADD SWAP1 POP PUSH2 0x3EBF JUMP JUMPDEST DUP4 DUP9 ADD SWAP6 POP POP POP JUMPDEST POP POP POP SWAP3 SWAP2 POP POP JUMP JUMPDEST PUSH0 PUSH2 0x3EFA DUP3 DUP5 PUSH2 0x3E6F JUMP JUMPDEST SWAP2 POP DUP2 SWAP1 POP SWAP3 SWAP2 POP POP JUMP JUMPDEST PUSH32 0x556E617574686F72697A656420616374696F6E00000000000000000000000000 PUSH0 DUP3 ADD MSTORE POP JUMP JUMPDEST PUSH0 PUSH2 0x3F39 PUSH1 0x13 DUP4 PUSH2 0x3C47 JUMP JUMPDEST SWAP2 POP PUSH2 0x3F44 DUP3 PUSH2 0x3F05 JUMP JUMPDEST PUSH1 0x20 DUP3 ADD SWAP1 POP SWAP2 SWAP1 POP JUMP JUMPDEST PUSH0 PUSH1 0x20 DUP3 ADD SWAP1 POP DUP2 DUP2 SUB PUSH0 DUP4 ADD MSTORE PUSH2 0x3F66 DUP2 PUSH2 0x3F2D JUMP JUMPDEST SWAP1 POP SWAP2 SWAP1 POP JUMP JUMPDEST PUSH32 0x4E6F206578697374696E672044494420666F756E6420666F7220746869732061 PUSH0 DUP3 ADD MSTORE PUSH32 0x6464726573730000000000000000000000000000000000000000000000000000 PUSH1 0x20 DUP3 ADD MSTORE POP JUMP JUMPDEST PUSH0 PUSH2 0x3FC7 PUSH1 0x26 DUP4 PUSH2 0x3C47 JUMP JUMPDEST SWAP2 POP PUSH2 0x3FD2 DUP3 PUSH2 0x3F6D JUMP JUMPDEST PUSH1 0x40 DUP3 ADD SWAP1 POP SWAP2 SWAP1 POP JUMP JUMPDEST PUSH0 PUSH1 0x20 DUP3 ADD SWAP1 POP DUP2 DUP2 SUB PUSH0 DUP4 ADD MSTORE PUSH2 0x3FF4 DUP2 PUSH2 0x3FBB JUMP JUMPDEST SWAP1 POP SWAP2 SWAP1 POP JUMP JUMPDEST PUSH32 0x526F6C652063616E6E6F7420626520656D707479000000000000000000000000 PUSH0 DUP3 ADD MSTORE POP JUMP JUMPDEST PUSH0 PUSH2 0x402F PUSH1 0x14 DUP4 PUSH2 0x3C47 JUMP JUMPDEST SWAP2 POP PUSH2 0x403A DUP3 PUSH2 0x3FFB JUMP JUMPDEST PUSH1 0x20 DUP3 ADD SWAP1 POP SWAP2 SWAP1 POP JUMP JUMPDEST PUSH0 PUSH1 0x20 DUP3 ADD SWAP1 POP DUP2 DUP2 SUB PUSH0 DUP4 ADD MSTORE PUSH2 0x405C DUP2 PUSH2 0x4023 JUMP JUMPDEST SWAP1 POP SWAP2 SWAP1 POP JUMP JUMPDEST PUSH0 DUP2 PUSH1 0x60 SHL SWAP1 POP SWAP2 SWAP1 POP JUMP JUMPDEST PUSH0 PUSH2 0x4079 DUP3 PUSH2 0x4063 JUMP JUMPDEST SWAP1 POP SWAP2 SWAP1 POP JUMP JUMPDEST PUSH0 PUSH2 0x408A DUP3 PUSH2 0x406F JUMP JUMPDEST SWAP1 POP SWAP2 SWAP1 POP JUMP JUMPDEST PUSH2 0x40A2 PUSH2 0x409D DUP3 PUSH2 0x352B JUMP JUMPDEST PUSH2 0x4080 JUMP JUMPDEST DUP3 MSTORE POP POP JUMP JUMPDEST PUSH0 DUP2 SWAP1 POP SWAP3 SWAP2 POP POP JUMP JUMPDEST PUSH0 PUSH2 0x40BC DUP3 PUSH2 0x373D JUMP JUMPDEST PUSH2 0x40C6 DUP2 DUP6 PUSH2 0x40A8 JUMP JUMPDEST SWAP4 POP PUSH2 0x40D6 DUP2 DUP6 PUSH1 0x20 DUP7 ADD PUSH2 0x3757 JUMP JUMPDEST DUP1 DUP5 ADD SWAP2 POP POP SWAP3 SWAP2 POP POP JUMP JUMPDEST PUSH0 DUP2 SWAP1 POP SWAP2 SWAP1 POP JUMP JUMPDEST PUSH2 0x40FC PUSH2 0x40F7 DUP3 PUSH2 0x3725 JUMP JUMPDEST PUSH2 0x40E2 JUMP JUMPDEST DUP3 MSTORE POP POP JUMP JUMPDEST PUSH0 PUSH2 0x410D DUP3 DUP8 PUSH2 0x4091 JUMP JUMPDEST PUSH1 0x14 DUP3 ADD SWAP2 POP PUSH2 0x411D DUP3 DUP7 PUSH2 0x4091 JUMP JUMPDEST PUSH1 0x14 DUP3 ADD SWAP2 POP PUSH2 0x412D DUP3 DUP6 PUSH2 0x40B2 JUMP JUMPDEST SWAP2 POP PUSH2 0x4139 DUP3 DUP5 PUSH2 0x40EB JUMP JUMPDEST PUSH1 0x20 DUP3 ADD SWAP2 POP DUP2 SWAP1 POP SWAP6 SWAP5 POP POP POP POP POP JUMP JUMPDEST PUSH0 DUP2 SWAP1 POP DUP2 PUSH0 MSTORE PUSH1 0x20 PUSH0 KECCAK256 SWAP1 POP SWAP2 SWAP1 POP JUMP JUMPDEST PUSH0 PUSH1 0x20 PUSH1 0x1F DUP4 ADD DIV SWAP1 POP SWAP2 SWAP1 POP JUMP JUMPDEST PUSH0 DUP3 DUP3 SHL SWAP1 POP SWAP3 SWAP2 POP POP JUMP JUMPDEST PUSH0 PUSH1 0x8 DUP4 MUL PUSH2 0x41A7 PUSH32 0xFFFFFFFFFFFFFFFFFFFFFFFFFFFFFFFFFFFFFFFFFFFFFFFFFFFFFFFFFFFFFFFF DUP3 PUSH2 0x416C JUMP JUMPDEST PUSH2 0x41B1 DUP7 DUP4 PUSH2 0x416C JUMP JUMPDEST SWAP6 POP DUP1 NOT DUP5 AND SWAP4 POP DUP1 DUP7 AND DUP5 OR SWAP3 POP POP POP SWAP4 SWAP3 POP POP POP JUMP JUMPDEST PUSH0 DUP2 SWAP1 POP SWAP2 SWAP1 POP JUMP JUMPDEST PUSH0 PUSH2 0x41EC PUSH2 0x41E7 PUSH2 0x41E2 DUP5 PUSH2 0x3725 JUMP JUMPDEST PUSH2 0x41C9 JUMP JUMPDEST PUSH2 0x3725 JUMP JUMPDEST SWAP1 POP SWAP2 SWAP1 POP JUMP JUMPDEST PUSH0 DUP2 SWAP1 POP SWAP2 SWAP1 POP JUMP JUMPDEST PUSH2 0x4205 DUP4 PUSH2 0x41D2 JUMP JUMPDEST PUSH2 0x4219 PUSH2 0x4211 DUP3 PUSH2 0x41F3 JUMP JUMPDEST DUP5 DUP5 SLOAD PUSH2 0x4178 JUMP JUMPDEST DUP3 SSTORE POP POP POP POP JUMP JUMPDEST PUSH0 SWAP1 JUMP JUMPDEST PUSH2 0x422D PUSH2 0x4221 JUMP JUMPDEST PUSH2 0x4238 DUP2 DUP5 DUP5 PUSH2 0x41FC JUMP JUMPDEST POP POP POP JUMP JUMPDEST JUMPDEST DUP2 DUP2 LT ISZERO PUSH2 0x425B JUMPI PUSH2 0x4250 PUSH0 DUP3 PUSH2 0x4225 JUMP JUMPDEST PUSH1 0x1 DUP2 ADD SWAP1 POP PUSH2 0x423E JUMP JUMPDEST POP POP JUMP JUMPDEST PUSH1 0x1F DUP3 GT ISZERO PUSH2 0x42A0 JUMPI PUSH2 0x4271 DUP2 PUSH2 0x414B JUMP JUMPDEST PUSH2 0x427A DUP5 PUSH2 0x415D JUMP JUMPDEST DUP2 ADD PUSH1 0x20 DUP6 LT ISZERO PUSH2 0x4289 JUMPI DUP2 SWAP1 POP JUMPDEST PUSH2 0x429D PUSH2 0x4295 DUP6 PUSH2 0x415D JUMP JUMPDEST DUP4 ADD DUP3 PUSH2 0x423D JUMP JUMPDEST POP POP JUMPDEST POP POP POP JUMP JUMPDEST PUSH0 DUP3 DUP3 SHR SWAP1 POP SWAP3 SWAP2 POP POP JUMP JUMPDEST PUSH0 PUSH2 0x42C0 PUSH0 NOT DUP5 PUSH1 0x8 MUL PUSH2 0x42A5 JUMP JUMPDEST NOT DUP1 DUP4 AND SWAP2 POP POP SWAP3 SWAP2 POP POP JUMP JUMPDEST PUSH0 PUSH2 0x42D8 DUP4 DUP4 PUSH2 0x42B1 JUMP JUMPDEST SWAP2 POP DUP3 PUSH1 0x2 MUL DUP3 OR SWAP1 POP SWAP3 SWAP2 POP POP JUMP JUMPDEST PUSH2 0x42F1 DUP3 PUSH2 0x373D JUMP JUMPDEST PUSH8 0xFFFFFFFFFFFFFFFF DUP2 GT ISZERO PUSH2 0x430A JUMPI PUSH2 0x4309 PUSH2 0x357E JUMP JUMPDEST JUMPDEST PUSH2 0x4314 DUP3 SLOAD PUSH2 0x3E23 JUMP JUMPDEST PUSH2 0x431F DUP3 DUP3 DUP6 PUSH2 0x425F JUMP JUMPDEST PUSH0 PUSH1 0x20 SWAP1 POP PUSH1 0x1F DUP4 GT PUSH1 0x1 DUP2 EQ PUSH2 0x4350 JUMPI PUSH0 DUP5 ISZERO PUSH2 0x433E JUMPI DUP3 DUP8 ADD MLOAD SWAP1 POP JUMPDEST PUSH2 0x4348 DUP6 DUP3 PUSH2 0x42CD JUMP JUMPDEST DUP7 SSTORE POP PUSH2 0x43AF JUMP JUMPDEST PUSH1 0x1F NOT DUP5 AND PUSH2 0x435E DUP7 PUSH2 0x414B JUMP JUMPDEST PUSH0 JUMPDEST DUP3 DUP2 LT ISZERO PUSH2 0x4385 JUMPI DUP5 DUP10 ADD MLOAD DUP3 SSTORE PUSH1 0x1 DUP3 ADD SWAP2 POP PUSH1 0x20 DUP6 ADD SWAP5 POP PUSH1 0x20 DUP2 ADD SWAP1 POP PUSH2 0x4360 JUMP JUMPDEST DUP7 DUP4 LT ISZERO PUSH2 0x43A2 JUMPI DUP5 DUP10 ADD MLOAD PUSH2 0x439E PUSH1 0x1F DUP10 AND DUP3 PUSH2 0x42B1 JUMP JUMPDEST DUP4 SSTORE POP JUMPDEST PUSH1 0x1 PUSH1 0x2 DUP9 MUL ADD DUP9 SSTORE POP POP POP JUMPDEST POP POP POP POP POP POP JUMP JUMPDEST PUSH2 0x43C0 DUP2 PUSH2 0x352B JUMP JUMPDEST DUP3 MSTORE POP POP JUMP JUMPDEST PUSH0 DUP2 SWAP1 POP SWAP2 SWAP1 POP JUMP JUMPDEST PUSH2 0x43D8 DUP2 PUSH2 0x43C6 JUMP JUMPDEST DUP3 MSTORE POP POP JUMP JUMPDEST PUSH0 PUSH1 0x60 DUP3 ADD SWAP1 POP PUSH2 0x43F1 PUSH0 DUP4 ADD DUP7 PUSH2 0x43B7 JUMP JUMPDEST DUP2 DUP2 SUB PUSH1 0x20 DUP4 ADD MSTORE PUSH2 0x4403 DUP2 DUP6 PUSH2 0x3C57 JUMP JUMPDEST SWAP1 POP PUSH2 0x4412 PUSH1 0x40 DUP4 ADD DUP5 PUSH2 0x43CF JUMP JUMPDEST SWAP5 SWAP4 POP POP POP POP JUMP JUMPDEST PUSH32 0x4E6F207461736B732068617665206265656E2061737369676E65640000000000 PUSH0 DUP3 ADD MSTORE POP JUMP JUMPDEST PUSH0 PUSH2 0x444E PUSH1 0x1B DUP4 PUSH2 0x3C47 JUMP JUMPDEST SWAP2 POP PUSH2 0x4459 DUP3 PUSH2 0x441A JUMP JUMPDEST PUSH1 0x20 DUP3 ADD SWAP1 POP SWAP2 SWAP1 POP JUMP JUMPDEST PUSH0 PUSH1 0x20 DUP3 ADD SWAP1 POP DUP2 DUP2 SUB PUSH0 DUP4 ADD MSTORE PUSH2 0x447B DUP2 PUSH2 0x4442 JUMP JUMPDEST SWAP1 POP SWAP2 SWAP1 POP JUMP JUMPDEST PUSH32 0x4E487B7100000000000000000000000000000000000000000000000000000000 PUSH0 MSTORE PUSH1 0x32 PUSH1 0x4 MSTORE PUSH1 0x24 PUSH0 REVERT JUMPDEST PUSH32 0x5461736B206E6F7420666F756E64000000000000000000000000000000000000 PUSH0 DUP3 ADD MSTORE POP JUMP JUMPDEST PUSH0 PUSH2 0x44E3 PUSH1 0xE DUP4 PUSH2 0x3C47 JUMP JUMPDEST SWAP2 POP PUSH2 0x44EE DUP3 PUSH2 0x44AF JUMP JUMPDEST PUSH1 0x20 DUP3 ADD SWAP1 POP SWAP2 SWAP1 POP JUMP JUMPDEST PUSH0 PUSH1 0x20 DUP3 ADD SWAP1 POP DUP2 DUP2 SUB PUSH0 DUP4 ADD MSTORE PUSH2 0x4510 DUP2 PUSH2 0x44D7 JUMP JUMPDEST SWAP1 POP SWAP2 SWAP1 POP JUMP JUMPDEST PUSH0 PUSH1 0x40 DUP3 ADD SWAP1 POP PUSH2 0x452A PUSH0 DUP4 ADD DUP6 PUSH2 0x43B7 JUMP JUMPDEST PUSH2 0x4537 PUSH1 0x20 DUP4 ADD DUP5 PUSH2 0x39F4 JUMP JUMPDEST SWAP4 SWAP3 POP POP POP JUMP JUMPDEST PUSH32 0x4E6577206964656E7469666965722063616E6E6F7420626520656D7074790000 PUSH0 DUP3 ADD MSTORE POP JUMP JUMPDEST PUSH0 PUSH2 0x4572 PUSH1 0x1E DUP4 PUSH2 0x3C47 JUMP JUMPDEST SWAP2 POP PUSH2 0x457D DUP3 PUSH2 0x453E JUMP JUMPDEST PUSH1 0x20 DUP3 ADD SWAP1 POP SWAP2 SWAP1 POP JUMP JUMPDEST PUSH0 PUSH1 0x20 DUP3 ADD SWAP1 POP DUP2 DUP2 SUB PUSH0 DUP4 ADD MSTORE PUSH2 0x459F DUP2 PUSH2 0x4566 JUMP JUMPDEST SWAP1 POP SWAP2 SWAP1 POP JUMP JUMPDEST PUSH32 0x496E76616C6964206E6577206964656E74696669657200000000000000000000 PUSH0 DUP3 ADD MSTORE POP JUMP JUMPDEST PUSH0 PUSH2 0x45DA PUSH1 0x16 DUP4 PUSH2 0x3C47 JUMP JUMPDEST SWAP2 POP PUSH2 0x45E5 DUP3 PUSH2 0x45A6 JUMP JUMPDEST PUSH1 0x20 DUP3 ADD SWAP1 POP SWAP2 SWAP1 POP JUMP JUMPDEST PUSH0 PUSH1 0x20 DUP3 ADD SWAP1 POP DUP2 DUP2 SUB PUSH0 DUP4 ADD MSTORE PUSH2 0x4607 DUP2 PUSH2 0x45CE JUMP JUMPDEST SWAP1 POP SWAP2 SWAP1 POP JUMP JUMPDEST PUSH32 0x4E6F7420617574686F72697A6564000000000000000000000000000000000000 PUSH0 DUP3 ADD MSTORE POP JUMP JUMPDEST PUSH0 PUSH2 0x4642 PUSH1 0xE DUP4 PUSH2 0x3C47 JUMP JUMPDEST SWAP2 POP PUSH2 0x464D DUP3 PUSH2 0x460E JUMP JUMPDEST PUSH1 0x20 DUP3 ADD SWAP1 POP SWAP2 SWAP1 POP JUMP JUMPDEST PUSH0 PUSH1 0x20 DUP3 ADD SWAP1 POP DUP2 DUP2 SUB PUSH0 DUP4 ADD MSTORE PUSH2 0x466F DUP2 PUSH2 0x4636 JUMP JUMPDEST SWAP1 POP SWAP2 SWAP1 POP JUMP JUMPDEST PUSH32 0x596F752068617665206E6F207461736B73000000000000000000000000000000 PUSH0 DUP3 ADD MSTORE POP JUMP JUMPDEST PUSH0 PUSH2 0x46AA PUSH1 0x11 DUP4 PUSH2 0x3C47 JUMP JUMPDEST SWAP2 POP PUSH2 0x46B5 DUP3 PUSH2 0x4676 JUMP JUMPDEST PUSH1 0x20 DUP3 ADD SWAP1 POP SWAP2 SWAP1 POP JUMP JUMPDEST PUSH0 PUSH1 0x20 DUP3 ADD SWAP1 POP DUP2 DUP2 SUB PUSH0 DUP4 ADD MSTORE PUSH2 0x46D7 DUP2 PUSH2 0x469E JUMP JUMPDEST SWAP1 POP SWAP2 SWAP1 POP JUMP JUMPDEST PUSH32 0x4964656E7469666965722063616E6E6F7420626520656D707479000000000000 PUSH0 DUP3 ADD MSTORE POP JUMP JUMPDEST PUSH0 PUSH2 0x4712 PUSH1 0x1A DUP4 PUSH2 0x3C47 JUMP JUMPDEST SWAP2 POP PUSH2 0x471D DUP3 PUSH2 0x46DE JUMP JUMPDEST PUSH1 0x20 DUP3 ADD SWAP1 POP SWAP2 SWAP1 POP JUMP JUMPDEST PUSH0 PUSH1 0x20 DUP3 ADD SWAP1 POP DUP2 DUP2 SUB PUSH0 DUP4 ADD MSTORE PUSH2 0x473F DUP2 PUSH2 0x4706 JUMP JUMPDEST SWAP1 POP SWAP2 SWAP1 POP JUMP JUMPDEST PUSH32 0x44494420616C72656164792065786973747320666F7220746869732061646472 PUSH0 DUP3 ADD MSTORE PUSH32 0x6573730000000000000000000000000000000000000000000000000000000000 PUSH1 0x20 DUP3 ADD MSTORE POP JUMP JUMPDEST PUSH0 PUSH2 0x47A0 PUSH1 0x23 DUP4 PUSH2 0x3C47 JUMP JUMPDEST SWAP2 POP PUSH2 0x47AB DUP3 PUSH2 0x4746 JUMP JUMPDEST PUSH1 0x40 DUP3 ADD SWAP1 POP SWAP2 SWAP1 POP JUMP JUMPDEST PUSH0 PUSH1 0x20 DUP3 ADD SWAP1 POP DUP2 DUP2 SUB PUSH0 DUP4 ADD MSTORE PUSH2 0x47CD DUP2 PUSH2 0x4794 JUMP JUMPDEST SWAP1 POP SWAP2 SWAP1 POP JUMP JUMPDEST PUSH32 0x5469746C652063616E6E6F7420626520656D7074790000000000000000000000 PUSH0 DUP3 ADD MSTORE POP JUMP JUMPDEST PUSH0 PUSH2 0x4808 PUSH1 0x15 DUP4 PUSH2 0x3C47 JUMP JUMPDEST SWAP2 POP PUSH2 0x4813 DUP3 PUSH2 0x47D4 JUMP JUMPDEST PUSH1 0x20 DUP3 ADD SWAP1 POP SWAP2 SWAP1 POP JUMP JUMPDEST PUSH0 PUSH1 0x20 DUP3 ADD SWAP1 POP DUP2 DUP2 SUB PUSH0 DUP4 ADD MSTORE PUSH2 0x4835 DUP2 PUSH2 0x47FC JUMP JUMPDEST SWAP1 POP SWAP2 SWAP1 POP JUMP JUMPDEST PUSH32 0x4465736372697074696F6E2063616E6E6F7420626520656D7074790000000000 PUSH0 DUP3 ADD MSTORE POP JUMP JUMPDEST PUSH0 PUSH2 0x4870 PUSH1 0x1B DUP4 PUSH2 0x3C47 JUMP JUMPDEST SWAP2 POP PUSH2 0x487B DUP3 PUSH2 0x483C JUMP JUMPDEST PUSH1 0x20 DUP3 ADD SWAP1 POP SWAP2 SWAP1 POP JUMP JUMPDEST PUSH0 PUSH1 0x20 DUP3 ADD SWAP1 POP DUP2 DUP2 SUB PUSH0 DUP4 ADD MSTORE PUSH2 0x489D DUP2 PUSH2 0x4864 JUMP JUMPDEST SWAP1 POP SWAP2 SWAP1 POP JUMP JUMPDEST PUSH32 0x4475652064617465206D75737420626520696E20746865206675747572650000 PUSH0 DUP3 ADD MSTORE POP JUMP JUMPDEST PUSH0 PUSH2 0x48D8 PUSH1 0x1E DUP4 PUSH2 0x3C47 JUMP JUMPDEST SWAP2 POP PUSH2 0x48E3 DUP3 PUSH2 0x48A4 JUMP JUMPDEST PUSH1 0x20 DUP3 ADD SWAP1 POP SWAP2 SWAP1 POP JUMP JUMPDEST PUSH0 PUSH1 0x20 DUP3 ADD SWAP1 POP DUP2 DUP2 SUB PUSH0 DUP4 ADD MSTORE PUSH2 0x4905 DUP2 PUSH2 0x48CC JUMP JUMPDEST SWAP1 POP SWAP2 SWAP1 POP JUMP JUMPDEST PUSH2 0x4915 DUP2 PUSH2 0x3725 JUMP JUMPDEST DUP3 MSTORE POP POP JUMP JUMPDEST PUSH0 PUSH1 0x40 DUP3 ADD SWAP1 POP PUSH2 0x492E PUSH0 DUP4 ADD DUP6 PUSH2 0x43B7 JUMP JUMPDEST PUSH2 0x493B PUSH1 0x20 DUP4 ADD DUP5 PUSH2 0x490C JUMP JUMPDEST SWAP4 SWAP3 POP POP POP JUMP JUMPDEST PUSH32 0x4E487B7100000000000000000000000000000000000000000000000000000000 PUSH0 MSTORE PUSH1 0x11 PUSH1 0x4 MSTORE PUSH1 0x24 PUSH0 REVERT JUMPDEST PUSH0 PUSH2 0x4979 DUP3 PUSH2 0x3725 JUMP JUMPDEST SWAP2 POP PUSH32 0xFFFFFFFFFFFFFFFFFFFFFFFFFFFFFFFFFFFFFFFFFFFFFFFFFFFFFFFFFFFFFFFF DUP3 SUB PUSH2 0x49AB JUMPI PUSH2 0x49AA PUSH2 0x4942 JUMP JUMPDEST JUMPDEST PUSH1 0x1 DUP3 ADD SWAP1 POP SWAP2 SWAP1 POP JUMP JUMPDEST PUSH32 0x54686973207461736B20616C72656164792062656C6F6E67656420746F207468 PUSH0 DUP3 ADD MSTORE PUSH32 0x6520757365720000000000000000000000000000000000000000000000000000 PUSH1 0x20 DUP3 ADD MSTORE POP JUMP JUMPDEST PUSH0 PUSH2 0x4A10 PUSH1 0x26 DUP4 PUSH2 0x3C47 JUMP JUMPDEST SWAP2 POP PUSH2 0x4A1B DUP3 PUSH2 0x49B6 JUMP JUMPDEST PUSH1 0x40 DUP3 ADD SWAP1 POP SWAP2 SWAP1 POP JUMP JUMPDEST PUSH0 PUSH1 0x20 DUP3 ADD SWAP1 POP DUP2 DUP2 SUB PUSH0 DUP4 ADD MSTORE PUSH2 0x4A3D DUP2 PUSH2 0x4A04 JUMP JUMPDEST SWAP1 POP SWAP2 SWAP1 POP JUMP JUMPDEST PUSH0 PUSH2 0x4A4E DUP3 PUSH2 0x3725 JUMP JUMPDEST SWAP2 POP PUSH2 0x4A59 DUP4 PUSH2 0x3725 JUMP JUMPDEST SWAP3 POP DUP3 DUP3 SUB SWAP1 POP DUP2 DUP2 GT ISZERO PUSH2 0x4A71 JUMPI PUSH2 0x4A70 PUSH2 0x4942 JUMP JUMPDEST JUMPDEST SWAP3 SWAP2 POP POP JUMP JUMPDEST PUSH32 0x4E487B7100000000000000000000000000000000000000000000000000000000 PUSH0 MSTORE PUSH1 0x31 PUSH1 0x4 MSTORE PUSH1 0x24 PUSH0 REVERT JUMPDEST PUSH32 0x4E6F2044494420666F756E6420666F7220746869732061646472657373000000 PUSH0 DUP3 ADD MSTORE POP JUMP JUMPDEST PUSH0 PUSH2 0x4AD8 PUSH1 0x1D DUP4 PUSH2 0x3C47 JUMP JUMPDEST SWAP2 POP PUSH2 0x4AE3 DUP3 PUSH2 0x4AA4 JUMP JUMPDEST PUSH1 0x20 DUP3 ADD SWAP1 POP SWAP2 SWAP1 POP JUMP JUMPDEST PUSH0 PUSH1 0x20 DUP3 ADD SWAP1 POP DUP2 DUP2 SUB PUSH0 DUP4 ADD MSTORE PUSH2 0x4B05 DUP2 PUSH2 0x4ACC JUMP JUMPDEST SWAP1 POP SWAP2 SWAP1 POP JUMP JUMPDEST PUSH32 0x5461736B20616C726561647920636F6D706C6574656400000000000000000000 PUSH0 DUP3 ADD MSTORE POP JUMP JUMPDEST PUSH0 PUSH2 0x4B40 PUSH1 0x16 DUP4 PUSH2 0x3C47 JUMP JUMPDEST SWAP2 POP PUSH2 0x4B4B DUP3 PUSH2 0x4B0C JUMP JUMPDEST PUSH1 0x20 DUP3 ADD SWAP1 POP SWAP2 SWAP1 POP JUMP JUMPDEST PUSH0 PUSH1 0x20 DUP3 ADD SWAP1 POP DUP2 DUP2 SUB PUSH0 DUP4 ADD MSTORE PUSH2 0x4B6D DUP2 PUSH2 0x4B34 JUMP JUMPDEST SWAP1 POP SWAP2 SWAP1 POP JUMP JUMPDEST PUSH0 PUSH1 0x20 DUP3 ADD SWAP1 POP PUSH2 0x4B87 PUSH0 DUP4 ADD DUP5 PUSH2 0x490C JUMP JUMPDEST SWAP3 SWAP2 POP POP JUMP JUMPDEST PUSH32 0x4E6F206578697374696E672044494420666F756E6420666F7220746869732075 PUSH0 DUP3 ADD MSTORE PUSH32 0x7365720000000000000000000000000000000000000000000000000000000000 PUSH1 0x20 DUP3 ADD MSTORE POP JUMP JUMPDEST PUSH0 PUSH2 0x4BE7 PUSH1 0x23 DUP4 PUSH2 0x3C47 JUMP JUMPDEST SWAP2 POP PUSH2 0x4BF2 DUP3 PUSH2 0x4B8D JUMP JUMPDEST PUSH1 0x40 DUP3 ADD SWAP1 POP SWAP2 SWAP1 POP JUMP JUMPDEST PUSH0 PUSH1 0x20 DUP3 ADD SWAP1 POP DUP2 DUP2 SUB PUSH0 DUP4 ADD MSTORE PUSH2 0x4C14 DUP2 PUSH2 0x4BDB JUMP JUMPDEST SWAP1 POP SWAP2 SWAP1 POP JUMP JUMPDEST PUSH32 0x5573657220646F6573206E6F74206861766520616E792063726564656E746961 PUSH0 DUP3 ADD MSTORE PUSH32 0x6C00000000000000000000000000000000000000000000000000000000000000 PUSH1 0x20 DUP3 ADD MSTORE POP JUMP JUMPDEST PUSH0 PUSH2 0x4C75 PUSH1 0x21 DUP4 PUSH2 0x3C47 JUMP JUMPDEST SWAP2 POP PUSH2 0x4C80 DUP3 PUSH2 0x4C1B JUMP JUMPDEST PUSH1 0x40 DUP3 ADD SWAP1 POP SWAP2 SWAP1 POP JUMP JUMPDEST PUSH0 PUSH1 0x20 DUP3 ADD SWAP1 POP DUP2 DUP2 SUB PUSH0 DUP4 ADD MSTORE PUSH2 0x4CA2 DUP2 PUSH2 0x4C69 JUMP JUMPDEST SWAP1 POP SWAP2 SWAP1 POP JUMP JUMPDEST PUSH0 PUSH1 0x40 DUP3 ADD SWAP1 POP DUP2 DUP2 SUB PUSH0 DUP4 ADD MSTORE PUSH2 0x4CC1 DUP2 DUP6 PUSH2 0x3C57 JUMP JUMPDEST SWAP1 POP PUSH2 0x4CD0 PUSH1 0x20 DUP4 ADD DUP5 PUSH2 0x39F4 JUMP JUMPDEST SWAP4 SWAP3 POP POP POP JUMP JUMPDEST PUSH32 0x4E6F20726F6C65732061737369676E656420666F722074686973207573657200 PUSH0 DUP3 ADD MSTORE POP JUMP JUMPDEST PUSH0 PUSH2 0x4D0B PUSH1 0x1F DUP4 PUSH2 0x3C47 JUMP JUMPDEST SWAP2 POP PUSH2 0x4D16 DUP3 PUSH2 0x4CD7 JUMP JUMPDEST PUSH1 0x20 DUP3 ADD SWAP1 POP SWAP2 SWAP1 POP JUMP JUMPDEST PUSH0 PUSH1 0x20 DUP3 ADD SWAP1 POP DUP2 DUP2 SUB PUSH0 DUP4 ADD MSTORE PUSH2 0x4D38 DUP2 PUSH2 0x4CFF JUMP JUMPDEST SWAP1 POP SWAP2 SWAP1 POP JUMP INVALID LOG2 PUSH5 0x6970667358 0x22 SLT KECCAK256 0xFC ADDRESS 0xD0 DUP6 0x2E 0xAF 0xE3 JUMP 0xDB 0xD9 PUSH23 0xBBED39C732943186828672E3F327AAACCA6B63E9396473 PUSH16 0x6C634300081A00330000000000000000 "
				},
				"gasEstimates": {
					"creation": {
						"codeDepositCost": "3965800",
						"executionCost": "infinite",
						"totalCost": "infinite"
					},
					"external": {
						"assignRole(address,string)": "infinite",
						"completeTask(uint256)": "infinite",
						"createDID(string)": "infinite",
						"createTask(string,string,uint8,uint256,address)": "infinite",
						"getDID()": "infinite",
						"getRole()": "infinite",
						"getTask(uint256)": "infinite",
						"getTasks()": "infinite",
						"getUserTasks()": "infinite",
						"issueRole(address,string)": "infinite",
						"reassignTask(uint256,address)": "infinite",
						"updateDID(string)": "infinite",
						"verifyRole(address,address,string)": "infinite",
						"verifyTaskDueDate(uint256)": "infinite",
						"verifyTaskOwnership(uint256,address)": "infinite",
						"verifyTaskStatus(uint256)": "infinite"
					}
				},
				"methodIdentifiers": {
					"assignRole(address,string)": "b7dfcbee",
					"completeTask(uint256)": "e1e29558",
					"createDID(string)": "3457d3e2",
					"createTask(string,string,uint8,uint256,address)": "4505e299",
					"getDID()": "bc9c2d55",
					"getRole()": "fde08174",
					"getTask(uint256)": "1d65e77e",
					"getTasks()": "04a87e38",
					"getUserTasks()": "34112f5f",
					"issueRole(address,string)": "022bf9c1",
					"reassignTask(uint256,address)": "6f6b07db",
					"updateDID(string)": "14c95832",
					"verifyRole(address,address,string)": "e4f0c22b",
					"verifyTaskDueDate(uint256)": "096f8494",
					"verifyTaskOwnership(uint256,address)": "10668264",
					"verifyTaskStatus(uint256)": "6c03a898"
				}
			},
			"storageLayout": {
				"storage": [
					{
						"astId": 43,
						"contract": "contracts/TaskManagement.sol:TaskManagement",
						"label": "dids",
						"offset": 0,
						"slot": "0",
						"type": "t_mapping(t_address,t_struct(DID)7_storage)"
					},
					{
						"astId": 47,
						"contract": "contracts/TaskManagement.sol:TaskManagement",
						"label": "roles",
						"offset": 0,
						"slot": "1",
						"type": "t_mapping(t_address,t_string_storage)"
					},
					{
						"astId": 52,
						"contract": "contracts/TaskManagement.sol:TaskManagement",
						"label": "roleHistory",
						"offset": 0,
						"slot": "2",
						"type": "t_mapping(t_address,t_array(t_string_storage)dyn_storage)"
					},
					{
						"astId": 58,
						"contract": "contracts/TaskManagement.sol:TaskManagement",
						"label": "credentials",
						"offset": 0,
						"slot": "3",
						"type": "t_mapping(t_address,t_array(t_struct(Credential)38_storage)dyn_storage)"
					},
					{
						"astId": 61,
						"contract": "contracts/TaskManagement.sol:TaskManagement",
						"label": "taskCounter",
						"offset": 0,
						"slot": "4",
						"type": "t_uint256"
					},
					{
						"astId": 66,
						"contract": "contracts/TaskManagement.sol:TaskManagement",
						"label": "tasks",
						"offset": 0,
						"slot": "5",
						"type": "t_mapping(t_uint256,t_struct(Task)29_storage)"
					},
					{
						"astId": 71,
						"contract": "contracts/TaskManagement.sol:TaskManagement",
						"label": "userTasks",
						"offset": 0,
						"slot": "6",
						"type": "t_mapping(t_address,t_array(t_uint256)dyn_storage)"
					}
				],
				"types": {
					"t_address": {
						"encoding": "inplace",
						"label": "address",
						"numberOfBytes": "20"
					},
					"t_array(t_string_storage)dyn_storage": {
						"base": "t_string_storage",
						"encoding": "dynamic_array",
						"label": "string[]",
						"numberOfBytes": "32"
					},
					"t_array(t_struct(Credential)38_storage)dyn_storage": {
						"base": "t_struct(Credential)38_storage",
						"encoding": "dynamic_array",
						"label": "struct TaskManagement.Credential[]",
						"numberOfBytes": "32"
					},
					"t_array(t_uint256)dyn_storage": {
						"base": "t_uint256",
						"encoding": "dynamic_array",
						"label": "uint256[]",
						"numberOfBytes": "32"
					},
					"t_bool": {
						"encoding": "inplace",
						"label": "bool",
						"numberOfBytes": "1"
					},
					"t_bytes32": {
						"encoding": "inplace",
						"label": "bytes32",
						"numberOfBytes": "32"
					},
					"t_enum(Priority)11": {
						"encoding": "inplace",
						"label": "enum TaskManagement.Priority",
						"numberOfBytes": "1"
					},
					"t_mapping(t_address,t_array(t_string_storage)dyn_storage)": {
						"encoding": "mapping",
						"key": "t_address",
						"label": "mapping(address => string[])",
						"numberOfBytes": "32",
						"value": "t_array(t_string_storage)dyn_storage"
					},
					"t_mapping(t_address,t_array(t_struct(Credential)38_storage)dyn_storage)": {
						"encoding": "mapping",
						"key": "t_address",
						"label": "mapping(address => struct TaskManagement.Credential[])",
						"numberOfBytes": "32",
						"value": "t_array(t_struct(Credential)38_storage)dyn_storage"
					},
					"t_mapping(t_address,t_array(t_uint256)dyn_storage)": {
						"encoding": "mapping",
						"key": "t_address",
						"label": "mapping(address => uint256[])",
						"numberOfBytes": "32",
						"value": "t_array(t_uint256)dyn_storage"
					},
					"t_mapping(t_address,t_string_storage)": {
						"encoding": "mapping",
						"key": "t_address",
						"label": "mapping(address => string)",
						"numberOfBytes": "32",
						"value": "t_string_storage"
					},
					"t_mapping(t_address,t_struct(DID)7_storage)": {
						"encoding": "mapping",
						"key": "t_address",
						"label": "mapping(address => struct TaskManagement.DID)",
						"numberOfBytes": "32",
						"value": "t_struct(DID)7_storage"
					},
					"t_mapping(t_uint256,t_struct(Task)29_storage)": {
						"encoding": "mapping",
						"key": "t_uint256",
						"label": "mapping(uint256 => struct TaskManagement.Task)",
						"numberOfBytes": "32",
						"value": "t_struct(Task)29_storage"
					},
					"t_string_storage": {
						"encoding": "bytes",
						"label": "string",
						"numberOfBytes": "32"
					},
					"t_struct(Credential)38_storage": {
						"encoding": "inplace",
						"label": "struct TaskManagement.Credential",
						"members": [
							{
								"astId": 31,
								"contract": "contracts/TaskManagement.sol:TaskManagement",
								"label": "issuer",
								"offset": 0,
								"slot": "0",
								"type": "t_address"
							},
							{
								"astId": 33,
								"contract": "contracts/TaskManagement.sol:TaskManagement",
								"label": "role",
								"offset": 0,
								"slot": "1",
								"type": "t_string_storage"
							},
							{
								"astId": 35,
								"contract": "contracts/TaskManagement.sol:TaskManagement",
								"label": "roleHash",
								"offset": 0,
								"slot": "2",
								"type": "t_bytes32"
							},
							{
								"astId": 37,
								"contract": "contracts/TaskManagement.sol:TaskManagement",
								"label": "issueAt",
								"offset": 0,
								"slot": "3",
								"type": "t_uint256"
							}
						],
						"numberOfBytes": "128"
					},
					"t_struct(DID)7_storage": {
						"encoding": "inplace",
						"label": "struct TaskManagement.DID",
						"members": [
							{
								"astId": 4,
								"contract": "contracts/TaskManagement.sol:TaskManagement",
								"label": "identifier",
								"offset": 0,
								"slot": "0",
								"type": "t_string_storage"
							},
							{
								"astId": 6,
								"contract": "contracts/TaskManagement.sol:TaskManagement",
								"label": "owner",
								"offset": 0,
								"slot": "1",
								"type": "t_address"
							}
						],
						"numberOfBytes": "64"
					},
					"t_struct(Task)29_storage": {
						"encoding": "inplace",
						"label": "struct TaskManagement.Task",
						"members": [
							{
								"astId": 13,
								"contract": "contracts/TaskManagement.sol:TaskManagement",
								"label": "id",
								"offset": 0,
								"slot": "0",
								"type": "t_uint256"
							},
							{
								"astId": 15,
								"contract": "contracts/TaskManagement.sol:TaskManagement",
								"label": "title",
								"offset": 0,
								"slot": "1",
								"type": "t_string_storage"
							},
							{
								"astId": 17,
								"contract": "contracts/TaskManagement.sol:TaskManagement",
								"label": "description",
								"offset": 0,
								"slot": "2",
								"type": "t_string_storage"
							},
							{
								"astId": 20,
								"contract": "contracts/TaskManagement.sol:TaskManagement",
								"label": "priority",
								"offset": 0,
								"slot": "3",
								"type": "t_enum(Priority)11"
							},
							{
								"astId": 22,
								"contract": "contracts/TaskManagement.sol:TaskManagement",
								"label": "dueDate",
								"offset": 0,
								"slot": "4",
								"type": "t_uint256"
							},
							{
								"astId": 24,
								"contract": "contracts/TaskManagement.sol:TaskManagement",
								"label": "assignedTo",
								"offset": 0,
								"slot": "5",
								"type": "t_address"
							},
							{
								"astId": 26,
								"contract": "contracts/TaskManagement.sol:TaskManagement",
								"label": "isCompleted",
								"offset": 20,
								"slot": "5",
								"type": "t_bool"
							},
							{
								"astId": 28,
								"contract": "contracts/TaskManagement.sol:TaskManagement",
								"label": "completedAt",
								"offset": 0,
								"slot": "6",
								"type": "t_uint256"
							}
						],
						"numberOfBytes": "224"
					},
					"t_uint256": {
						"encoding": "inplace",
						"label": "uint256",
						"numberOfBytes": "32"
					}
				}
			},
			"userdoc": {
				"kind": "user",
				"methods": {},
				"version": 1
			}
		}
	}
}