{
	"contracts/TaskManagement.sol": {
		"TaskManagement": {
			"abi": [
				{
					"inputs": [],
					"stateMutability": "nonpayable",
					"type": "constructor"
				},
				{
					"anonymous": false,
					"inputs": [
						{
							"indexed": true,
							"internalType": "address",
							"name": "owner",
							"type": "address"
						},
						{
							"indexed": false,
							"internalType": "string",
							"name": "identifier",
							"type": "string"
						}
					],
					"name": "DIDCreated",
					"type": "event"
				},
				{
					"anonymous": false,
					"inputs": [
						{
							"indexed": true,
							"internalType": "address",
							"name": "user",
							"type": "address"
						},
						{
							"indexed": false,
							"internalType": "string",
							"name": "role",
							"type": "string"
						}
					],
					"name": "RoleAssigned",
					"type": "event"
				},
				{
					"anonymous": false,
					"inputs": [
						{
							"indexed": true,
							"internalType": "address",
							"name": "issuer",
							"type": "address"
						},
						{
							"indexed": false,
							"internalType": "address",
							"name": "user",
							"type": "address"
						},
						{
							"indexed": false,
							"internalType": "string",
							"name": "role",
							"type": "string"
						},
						{
							"indexed": false,
							"internalType": "bytes32",
							"name": "roleHash",
							"type": "bytes32"
						}
					],
					"name": "RoleIssued",
					"type": "event"
				},
				{
					"anonymous": false,
					"inputs": [
						{
							"indexed": true,
							"internalType": "address",
							"name": "issuer",
							"type": "address"
						},
						{
							"indexed": false,
							"internalType": "string",
							"name": "role",
							"type": "string"
						},
						{
							"indexed": false,
							"internalType": "bool",
							"name": "status",
							"type": "bool"
						}
					],
					"name": "RoleVerified",
					"type": "event"
				},
				{
					"anonymous": false,
					"inputs": [
						{
							"indexed": true,
							"internalType": "address",
							"name": "assignee",
							"type": "address"
						},
						{
							"indexed": false,
							"internalType": "uint256",
							"name": "id",
							"type": "uint256"
						}
					],
					"name": "TaskCompleted",
					"type": "event"
				},
				{
					"anonymous": false,
					"inputs": [
						{
							"indexed": true,
							"internalType": "address",
							"name": "issuer",
							"type": "address"
						},
						{
							"indexed": false,
							"internalType": "address",
							"name": "assignee",
							"type": "address"
						},
						{
							"indexed": false,
							"internalType": "uint256",
							"name": "id",
							"type": "uint256"
						}
					],
					"name": "TaskCreated",
					"type": "event"
				},
				{
					"anonymous": false,
					"inputs": [
						{
							"indexed": true,
							"internalType": "uint256",
							"name": "id",
							"type": "uint256"
						},
						{
							"indexed": false,
							"internalType": "bool",
							"name": "isValid",
							"type": "bool"
						}
					],
					"name": "TaskDueDateVerified",
					"type": "event"
				},
				{
					"anonymous": false,
					"inputs": [
						{
							"indexed": true,
							"internalType": "uint256",
							"name": "id",
							"type": "uint256"
						},
						{
							"indexed": false,
							"internalType": "address",
							"name": "assignee",
							"type": "address"
						},
						{
							"indexed": false,
							"internalType": "bool",
							"name": "isOwner",
							"type": "bool"
						}
					],
					"name": "TaskOwnershipVerified",
					"type": "event"
				},
				{
					"anonymous": false,
					"inputs": [
						{
							"indexed": true,
							"internalType": "address",
							"name": "issuer",
							"type": "address"
						},
						{
							"indexed": false,
							"internalType": "address",
							"name": "newAssignee",
							"type": "address"
						},
						{
							"indexed": false,
							"internalType": "uint256",
							"name": "id",
							"type": "uint256"
						}
					],
					"name": "TaskReassigned",
					"type": "event"
				},
				{
					"anonymous": false,
					"inputs": [
						{
							"indexed": true,
							"internalType": "uint256",
							"name": "id",
							"type": "uint256"
						},
						{
							"indexed": false,
							"internalType": "bool",
							"name": "isComplete",
							"type": "bool"
						}
					],
					"name": "TaskStatusVerified",
					"type": "event"
				},
				{
					"inputs": [
						{
							"internalType": "address",
							"name": "_user",
							"type": "address"
						},
						{
							"internalType": "string",
							"name": "_role",
							"type": "string"
						}
					],
					"name": "assignRole",
					"outputs": [],
					"stateMutability": "nonpayable",
					"type": "function"
				},
				{
					"inputs": [
						{
							"internalType": "uint256",
							"name": "_id",
							"type": "uint256"
						}
					],
					"name": "completeTask",
					"outputs": [],
					"stateMutability": "nonpayable",
					"type": "function"
				},
				{
					"inputs": [
						{
							"internalType": "string",
							"name": "_identifier",
							"type": "string"
						}
					],
					"name": "createDID",
					"outputs": [],
					"stateMutability": "nonpayable",
					"type": "function"
				},
				{
					"inputs": [
						{
							"internalType": "string",
							"name": "_title",
							"type": "string"
						},
						{
							"internalType": "string",
							"name": "_description",
							"type": "string"
						},
						{
							"internalType": "enum TaskManagement.Priority",
							"name": "_priority",
							"type": "uint8"
						},
						{
							"internalType": "uint256",
							"name": "_dueDate",
							"type": "uint256"
						},
						{
							"internalType": "address",
							"name": "_assignedTo",
							"type": "address"
						}
					],
					"name": "createTask",
					"outputs": [],
					"stateMutability": "nonpayable",
					"type": "function"
				},
				{
					"inputs": [],
					"name": "getDID",
					"outputs": [
						{
							"internalType": "string",
							"name": "",
							"type": "string"
						}
					],
					"stateMutability": "view",
					"type": "function"
				},
				{
					"inputs": [],
					"name": "getRole",
					"outputs": [
						{
							"internalType": "string[]",
							"name": "",
							"type": "string[]"
						}
					],
					"stateMutability": "view",
					"type": "function"
				},
				{
					"inputs": [
						{
							"internalType": "uint256",
							"name": "_id",
							"type": "uint256"
						}
					],
					"name": "getTask",
					"outputs": [
						{
							"components": [
								{
									"internalType": "uint256",
									"name": "id",
									"type": "uint256"
								},
								{
									"internalType": "string",
									"name": "title",
									"type": "string"
								},
								{
									"internalType": "string",
									"name": "description",
									"type": "string"
								},
								{
									"internalType": "enum TaskManagement.Priority",
									"name": "priority",
									"type": "uint8"
								},
								{
									"internalType": "uint256",
									"name": "dueDate",
									"type": "uint256"
								},
								{
									"internalType": "address",
									"name": "assignedTo",
									"type": "address"
								},
								{
									"internalType": "bool",
									"name": "isCompleted",
									"type": "bool"
								},
								{
									"internalType": "uint256",
									"name": "completedAt",
									"type": "uint256"
								}
							],
							"internalType": "struct TaskManagement.Task",
							"name": "",
							"type": "tuple"
						}
					],
					"stateMutability": "view",
					"type": "function"
				},
				{
					"inputs": [],
					"name": "getTasks",
					"outputs": [
						{
							"components": [
								{
									"internalType": "uint256",
									"name": "id",
									"type": "uint256"
								},
								{
									"internalType": "string",
									"name": "title",
									"type": "string"
								},
								{
									"internalType": "string",
									"name": "description",
									"type": "string"
								},
								{
									"internalType": "enum TaskManagement.Priority",
									"name": "priority",
									"type": "uint8"
								},
								{
									"internalType": "uint256",
									"name": "dueDate",
									"type": "uint256"
								},
								{
									"internalType": "address",
									"name": "assignedTo",
									"type": "address"
								},
								{
									"internalType": "bool",
									"name": "isCompleted",
									"type": "bool"
								},
								{
									"internalType": "uint256",
									"name": "completedAt",
									"type": "uint256"
								}
							],
							"internalType": "struct TaskManagement.Task[]",
							"name": "",
							"type": "tuple[]"
						}
					],
					"stateMutability": "view",
					"type": "function"
				},
				{
					"inputs": [],
					"name": "getUserTasks",
					"outputs": [
						{
							"components": [
								{
									"internalType": "uint256",
									"name": "id",
									"type": "uint256"
								},
								{
									"internalType": "string",
									"name": "title",
									"type": "string"
								},
								{
									"internalType": "string",
									"name": "description",
									"type": "string"
								},
								{
									"internalType": "enum TaskManagement.Priority",
									"name": "priority",
									"type": "uint8"
								},
								{
									"internalType": "uint256",
									"name": "dueDate",
									"type": "uint256"
								},
								{
									"internalType": "address",
									"name": "assignedTo",
									"type": "address"
								},
								{
									"internalType": "bool",
									"name": "isCompleted",
									"type": "bool"
								},
								{
									"internalType": "uint256",
									"name": "completedAt",
									"type": "uint256"
								}
							],
							"internalType": "struct TaskManagement.Task[]",
							"name": "",
							"type": "tuple[]"
						}
					],
					"stateMutability": "view",
					"type": "function"
				},
				{
					"inputs": [
						{
							"internalType": "address",
							"name": "_user",
							"type": "address"
						},
						{
							"internalType": "string",
							"name": "_role",
							"type": "string"
						}
					],
					"name": "issueRole",
					"outputs": [],
					"stateMutability": "nonpayable",
					"type": "function"
				},
				{
					"inputs": [
						{
							"internalType": "uint256",
							"name": "_id",
							"type": "uint256"
						},
						{
							"internalType": "address",
							"name": "_newAssignee",
							"type": "address"
						}
					],
					"name": "reassignTask",
					"outputs": [],
					"stateMutability": "nonpayable",
					"type": "function"
				},
				{
					"inputs": [
						{
							"internalType": "string",
							"name": "_newIdentifier",
							"type": "string"
						}
					],
					"name": "updateDID",
					"outputs": [],
					"stateMutability": "nonpayable",
					"type": "function"
				},
				{
					"inputs": [
						{
							"internalType": "address",
							"name": "_user",
							"type": "address"
						},
						{
							"internalType": "address",
							"name": "_issuer",
							"type": "address"
						},
						{
							"internalType": "string",
							"name": "_role",
							"type": "string"
						}
					],
					"name": "verifyRole",
					"outputs": [
						{
							"internalType": "bool",
							"name": "",
							"type": "bool"
						}
					],
					"stateMutability": "nonpayable",
					"type": "function"
				},
				{
					"inputs": [
						{
							"internalType": "uint256",
							"name": "_id",
							"type": "uint256"
						}
					],
					"name": "verifyTaskDueDate",
					"outputs": [
						{
							"internalType": "bool",
							"name": "",
							"type": "bool"
						}
					],
					"stateMutability": "nonpayable",
					"type": "function"
				},
				{
					"inputs": [
						{
							"internalType": "uint256",
							"name": "_id",
							"type": "uint256"
						},
						{
							"internalType": "address",
							"name": "_assignee",
							"type": "address"
						}
					],
					"name": "verifyTaskOwnership",
					"outputs": [
						{
							"internalType": "bool",
							"name": "",
							"type": "bool"
						}
					],
					"stateMutability": "nonpayable",
					"type": "function"
				},
				{
					"inputs": [
						{
							"internalType": "uint256",
							"name": "_id",
							"type": "uint256"
						}
					],
					"name": "verifyTaskStatus",
					"outputs": [
						{
							"internalType": "bool",
							"name": "",
							"type": "bool"
						}
					],
					"stateMutability": "nonpayable",
					"type": "function"
				}
			],
			"devdoc": {
				"details": "Contract to create and manage Tasks  Authors: - Kong Phirom - Hul Sambath - Prak Pichey - Him Ronald - Chhim Kakada",
				"kind": "dev",
				"methods": {},
				"title": "TaskManagement",
				"version": 1
			},
			"evm": {
				"assembly": "    /* \"contracts/TaskManagement.sol\":249:11779  contract TaskManagement {... */\n  mstore(0x40, 0x80)\n    /* \"contracts/TaskManagement.sol\":1004:1005  0 */\n  0x00\n    /* \"contracts/TaskManagement.sol\":977:1005  uint private taskCounter = 0 */\n  0x04\n  sstore\n    /* \"contracts/TaskManagement.sol\":2115:2227  constructor() {... */\n  callvalue\n  dup1\n  iszero\n  tag_1\n  jumpi\n  0x00\n  dup1\n  revert\ntag_1:\n  pop\n    /* \"contracts/TaskManagement.sol\":2140:2169  roles[msg.sender] = \"manager\" */\n  mload(0x40)\n  dup1\n  0x40\n  add\n  0x40\n  mstore\n  dup1\n  0x07\n  dup2\n  mstore\n  0x20\n  add\n  0x6d616e6167657200000000000000000000000000000000000000000000000000\n  dup2\n  mstore\n  pop\n    /* \"contracts/TaskManagement.sol\":2140:2145  roles */\n  0x01\n    /* \"contracts/TaskManagement.sol\":2140:2157  roles[msg.sender] */\n  0x00\n    /* \"contracts/TaskManagement.sol\":2146:2156  msg.sender */\n  caller\n    /* \"contracts/TaskManagement.sol\":2140:2157  roles[msg.sender] */\n  0xffffffffffffffffffffffffffffffffffffffff\n  and\n  0xffffffffffffffffffffffffffffffffffffffff\n  and\n  dup2\n  mstore\n  0x20\n  add\n  swap1\n  dup2\n  mstore\n  0x20\n  add\n  0x00\n  keccak256\n    /* \"contracts/TaskManagement.sol\":2140:2169  roles[msg.sender] = \"manager\" */\n  swap1\n  dup2\n  tag_4\n  swap2\n  swap1\n  tag_5\n  jump\t// in\ntag_4:\n  pop\n    /* \"contracts/TaskManagement.sol\":2180:2191  roleHistory */\n  0x02\n    /* \"contracts/TaskManagement.sol\":2180:2203  roleHistory[msg.sender] */\n  0x00\n    /* \"contracts/TaskManagement.sol\":2192:2202  msg.sender */\n  caller\n    /* \"contracts/TaskManagement.sol\":2180:2203  roleHistory[msg.sender] */\n  0xffffffffffffffffffffffffffffffffffffffff\n  and\n  0xffffffffffffffffffffffffffffffffffffffff\n  and\n  dup2\n  mstore\n  0x20\n  add\n  swap1\n  dup2\n  mstore\n  0x20\n  add\n  0x00\n  keccak256\n    /* \"contracts/TaskManagement.sol\":2180:2219  roleHistory[msg.sender].push(\"manager\") */\n  dup1\n  0x01\n  dup2\n  sload\n  add\n  dup1\n  dup3\n  sstore\n  dup1\n  swap2\n  pop\n  pop\n  0x01\n  swap1\n  sub\n  swap1\n  0x00\n  mstore\n  keccak256(0x00, 0x20)\n  add\n  0x00\n  mload(0x40)\n  dup1\n  0x40\n  add\n  0x40\n  mstore\n  dup1\n  0x07\n  dup2\n  mstore\n  0x20\n  add\n  0x6d616e6167657200000000000000000000000000000000000000000000000000\n  dup2\n  mstore\n  pop\n  swap1\n  swap2\n  swap1\n  swap2\n  pop\n  swap1\n  dup2\n  tag_7\n  swap2\n  swap1\n  tag_5\n  jump\t// in\ntag_7:\n  pop\n    /* \"contracts/TaskManagement.sol\":249:11779  contract TaskManagement {... */\n  jump(tag_8)\n    /* \"#utility.yul\":7:106   */\ntag_9:\n    /* \"#utility.yul\":59:65   */\n  0x00\n    /* \"#utility.yul\":93:98   */\n  dup2\n    /* \"#utility.yul\":87:99   */\n  mload\n    /* \"#utility.yul\":77:99   */\n  swap1\n  pop\n    /* \"#utility.yul\":7:106   */\n  swap2\n  swap1\n  pop\n  jump\t// out\n    /* \"#utility.yul\":112:292   */\ntag_10:\n    /* \"#utility.yul\":160:237   */\n  0x4e487b7100000000000000000000000000000000000000000000000000000000\n    /* \"#utility.yul\":157:158   */\n  0x00\n    /* \"#utility.yul\":150:238   */\n  mstore\n    /* \"#utility.yul\":257:261   */\n  0x41\n    /* \"#utility.yul\":254:255   */\n  0x04\n    /* \"#utility.yul\":247:262   */\n  mstore\n    /* \"#utility.yul\":281:285   */\n  0x24\n    /* \"#utility.yul\":278:279   */\n  0x00\n    /* \"#utility.yul\":271:286   */\n  revert\n    /* \"#utility.yul\":298:478   */\ntag_11:\n    /* \"#utility.yul\":346:423   */\n  0x4e487b7100000000000000000000000000000000000000000000000000000000\n    /* \"#utility.yul\":343:344   */\n  0x00\n    /* \"#utility.yul\":336:424   */\n  mstore\n    /* \"#utility.yul\":443:447   */\n  0x22\n    /* \"#utility.yul\":440:441   */\n  0x04\n    /* \"#utility.yul\":433:448   */\n  mstore\n    /* \"#utility.yul\":467:471   */\n  0x24\n    /* \"#utility.yul\":464:465   */\n  0x00\n    /* \"#utility.yul\":457:472   */\n  revert\n    /* \"#utility.yul\":484:804   */\ntag_12:\n    /* \"#utility.yul\":528:534   */\n  0x00\n    /* \"#utility.yul\":565:566   */\n  0x02\n    /* \"#utility.yul\":559:563   */\n  dup3\n    /* \"#utility.yul\":555:567   */\n  div\n    /* \"#utility.yul\":545:567   */\n  swap1\n  pop\n    /* \"#utility.yul\":612:613   */\n  0x01\n    /* \"#utility.yul\":606:610   */\n  dup3\n    /* \"#utility.yul\":602:614   */\n  and\n    /* \"#utility.yul\":633:651   */\n  dup1\n    /* \"#utility.yul\":623:704   */\n  tag_34\n  jumpi\n    /* \"#utility.yul\":689:693   */\n  0x7f\n    /* \"#utility.yul\":681:687   */\n  dup3\n    /* \"#utility.yul\":677:694   */\n  and\n    /* \"#utility.yul\":667:694   */\n  swap2\n  pop\n    /* \"#utility.yul\":623:704   */\ntag_34:\n    /* \"#utility.yul\":751:753   */\n  0x20\n    /* \"#utility.yul\":743:749   */\n  dup3\n    /* \"#utility.yul\":740:754   */\n  lt\n    /* \"#utility.yul\":720:738   */\n  dup2\n    /* \"#utility.yul\":717:755   */\n  sub\n    /* \"#utility.yul\":714:798   */\n  tag_35\n  jumpi\n    /* \"#utility.yul\":770:788   */\n  tag_36\n  tag_11\n  jump\t// in\ntag_36:\n    /* \"#utility.yul\":714:798   */\ntag_35:\n    /* \"#utility.yul\":535:804   */\n  pop\n    /* \"#utility.yul\":484:804   */\n  swap2\n  swap1\n  pop\n  jump\t// out\n    /* \"#utility.yul\":810:951   */\ntag_13:\n    /* \"#utility.yul\":859:863   */\n  0x00\n    /* \"#utility.yul\":882:885   */\n  dup2\n    /* \"#utility.yul\":874:885   */\n  swap1\n  pop\n    /* \"#utility.yul\":905:908   */\n  dup2\n    /* \"#utility.yul\":902:903   */\n  0x00\n    /* \"#utility.yul\":895:909   */\n  mstore\n    /* \"#utility.yul\":939:943   */\n  0x20\n    /* \"#utility.yul\":936:937   */\n  0x00\n    /* \"#utility.yul\":926:944   */\n  keccak256\n    /* \"#utility.yul\":918:944   */\n  swap1\n  pop\n    /* \"#utility.yul\":810:951   */\n  swap2\n  swap1\n  pop\n  jump\t// out\n    /* \"#utility.yul\":957:1050   */\ntag_14:\n    /* \"#utility.yul\":994:1000   */\n  0x00\n    /* \"#utility.yul\":1041:1043   */\n  0x20\n    /* \"#utility.yul\":1036:1038   */\n  0x1f\n    /* \"#utility.yul\":1029:1034   */\n  dup4\n    /* \"#utility.yul\":1025:1039   */\n  add\n    /* \"#utility.yul\":1021:1044   */\n  div\n    /* \"#utility.yul\":1011:1044   */\n  swap1\n  pop\n    /* \"#utility.yul\":957:1050   */\n  swap2\n  swap1\n  pop\n  jump\t// out\n    /* \"#utility.yul\":1056:1163   */\ntag_15:\n    /* \"#utility.yul\":1100:1108   */\n  0x00\n    /* \"#utility.yul\":1150:1155   */\n  dup3\n    /* \"#utility.yul\":1144:1148   */\n  dup3\n    /* \"#utility.yul\":1140:1156   */\n  shl\n    /* \"#utility.yul\":1119:1156   */\n  swap1\n  pop\n    /* \"#utility.yul\":1056:1163   */\n  swap3\n  swap2\n  pop\n  pop\n  jump\t// out\n    /* \"#utility.yul\":1169:1562   */\ntag_16:\n    /* \"#utility.yul\":1238:1244   */\n  0x00\n    /* \"#utility.yul\":1288:1289   */\n  0x08\n    /* \"#utility.yul\":1276:1286   */\n  dup4\n    /* \"#utility.yul\":1272:1290   */\n  mul\n    /* \"#utility.yul\":1311:1408   */\n  tag_41\n    /* \"#utility.yul\":1341:1407   */\n  0xffffffffffffffffffffffffffffffffffffffffffffffffffffffffffffffff\n    /* \"#utility.yul\":1330:1339   */\n  dup3\n    /* \"#utility.yul\":1311:1408   */\n  tag_15\n  jump\t// in\ntag_41:\n    /* \"#utility.yul\":1429:1468   */\n  tag_42\n    /* \"#utility.yul\":1459:1467   */\n  dup7\n    /* \"#utility.yul\":1448:1457   */\n  dup4\n    /* \"#utility.yul\":1429:1468   */\n  tag_15\n  jump\t// in\ntag_42:\n    /* \"#utility.yul\":1417:1468   */\n  swap6\n  pop\n    /* \"#utility.yul\":1501:1505   */\n  dup1\n    /* \"#utility.yul\":1497:1506   */\n  not\n    /* \"#utility.yul\":1490:1495   */\n  dup5\n    /* \"#utility.yul\":1486:1507   */\n  and\n    /* \"#utility.yul\":1477:1507   */\n  swap4\n  pop\n    /* \"#utility.yul\":1550:1554   */\n  dup1\n    /* \"#utility.yul\":1540:1548   */\n  dup7\n    /* \"#utility.yul\":1536:1555   */\n  and\n    /* \"#utility.yul\":1529:1534   */\n  dup5\n    /* \"#utility.yul\":1526:1556   */\n  or\n    /* \"#utility.yul\":1516:1556   */\n  swap3\n  pop\n    /* \"#utility.yul\":1245:1562   */\n  pop\n  pop\n    /* \"#utility.yul\":1169:1562   */\n  swap4\n  swap3\n  pop\n  pop\n  pop\n  jump\t// out\n    /* \"#utility.yul\":1568:1645   */\ntag_17:\n    /* \"#utility.yul\":1605:1612   */\n  0x00\n    /* \"#utility.yul\":1634:1639   */\n  dup2\n    /* \"#utility.yul\":1623:1639   */\n  swap1\n  pop\n    /* \"#utility.yul\":1568:1645   */\n  swap2\n  swap1\n  pop\n  jump\t// out\n    /* \"#utility.yul\":1651:1711   */\ntag_18:\n    /* \"#utility.yul\":1679:1682   */\n  0x00\n    /* \"#utility.yul\":1700:1705   */\n  dup2\n    /* \"#utility.yul\":1693:1705   */\n  swap1\n  pop\n    /* \"#utility.yul\":1651:1711   */\n  swap2\n  swap1\n  pop\n  jump\t// out\n    /* \"#utility.yul\":1717:1859   */\ntag_19:\n    /* \"#utility.yul\":1767:1776   */\n  0x00\n    /* \"#utility.yul\":1800:1853   */\n  tag_46\n    /* \"#utility.yul\":1818:1852   */\n  tag_47\n    /* \"#utility.yul\":1827:1851   */\n  tag_48\n    /* \"#utility.yul\":1845:1850   */\n  dup5\n    /* \"#utility.yul\":1827:1851   */\n  tag_17\n  jump\t// in\ntag_48:\n    /* \"#utility.yul\":1818:1852   */\n  tag_18\n  jump\t// in\ntag_47:\n    /* \"#utility.yul\":1800:1853   */\n  tag_17\n  jump\t// in\ntag_46:\n    /* \"#utility.yul\":1787:1853   */\n  swap1\n  pop\n    /* \"#utility.yul\":1717:1859   */\n  swap2\n  swap1\n  pop\n  jump\t// out\n    /* \"#utility.yul\":1865:1940   */\ntag_20:\n    /* \"#utility.yul\":1908:1911   */\n  0x00\n    /* \"#utility.yul\":1929:1934   */\n  dup2\n    /* \"#utility.yul\":1922:1934   */\n  swap1\n  pop\n    /* \"#utility.yul\":1865:1940   */\n  swap2\n  swap1\n  pop\n  jump\t// out\n    /* \"#utility.yul\":1946:2215   */\ntag_21:\n    /* \"#utility.yul\":2056:2095   */\n  tag_51\n    /* \"#utility.yul\":2087:2094   */\n  dup4\n    /* \"#utility.yul\":2056:2095   */\n  tag_19\n  jump\t// in\ntag_51:\n    /* \"#utility.yul\":2117:2208   */\n  tag_52\n    /* \"#utility.yul\":2166:2207   */\n  tag_53\n    /* \"#utility.yul\":2190:2206   */\n  dup3\n    /* \"#utility.yul\":2166:2207   */\n  tag_20\n  jump\t// in\ntag_53:\n    /* \"#utility.yul\":2158:2164   */\n  dup5\n    /* \"#utility.yul\":2151:2155   */\n  dup5\n    /* \"#utility.yul\":2145:2156   */\n  sload\n    /* \"#utility.yul\":2117:2208   */\n  tag_16\n  jump\t// in\ntag_52:\n    /* \"#utility.yul\":2111:2115   */\n  dup3\n    /* \"#utility.yul\":2104:2209   */\n  sstore\n    /* \"#utility.yul\":2022:2215   */\n  pop\n    /* \"#utility.yul\":1946:2215   */\n  pop\n  pop\n  pop\n  jump\t// out\n    /* \"#utility.yul\":2221:2294   */\ntag_22:\n    /* \"#utility.yul\":2266:2269   */\n  0x00\n    /* \"#utility.yul\":2221:2294   */\n  swap1\n  jump\t// out\n    /* \"#utility.yul\":2300:2489   */\ntag_23:\n    /* \"#utility.yul\":2377:2409   */\n  tag_56\n  tag_22\n  jump\t// in\ntag_56:\n    /* \"#utility.yul\":2418:2483   */\n  tag_57\n    /* \"#utility.yul\":2476:2482   */\n  dup2\n    /* \"#utility.yul\":2468:2474   */\n  dup5\n    /* \"#utility.yul\":2462:2466   */\n  dup5\n    /* \"#utility.yul\":2418:2483   */\n  tag_21\n  jump\t// in\ntag_57:\n    /* \"#utility.yul\":2353:2489   */\n  pop\n    /* \"#utility.yul\":2300:2489   */\n  pop\n  pop\n  jump\t// out\n    /* \"#utility.yul\":2495:2681   */\ntag_24:\n    /* \"#utility.yul\":2555:2675   */\ntag_59:\n    /* \"#utility.yul\":2572:2575   */\n  dup2\n    /* \"#utility.yul\":2565:2570   */\n  dup2\n    /* \"#utility.yul\":2562:2576   */\n  lt\n    /* \"#utility.yul\":2555:2675   */\n  iszero\n  tag_61\n  jumpi\n    /* \"#utility.yul\":2626:2665   */\n  tag_62\n    /* \"#utility.yul\":2663:2664   */\n  0x00\n    /* \"#utility.yul\":2656:2661   */\n  dup3\n    /* \"#utility.yul\":2626:2665   */\n  tag_23\n  jump\t// in\ntag_62:\n    /* \"#utility.yul\":2599:2600   */\n  0x01\n    /* \"#utility.yul\":2592:2597   */\n  dup2\n    /* \"#utility.yul\":2588:2601   */\n  add\n    /* \"#utility.yul\":2579:2601   */\n  swap1\n  pop\n    /* \"#utility.yul\":2555:2675   */\n  jump(tag_59)\ntag_61:\n    /* \"#utility.yul\":2495:2681   */\n  pop\n  pop\n  jump\t// out\n    /* \"#utility.yul\":2687:3230   */\ntag_25:\n    /* \"#utility.yul\":2788:2790   */\n  0x1f\n    /* \"#utility.yul\":2783:2786   */\n  dup3\n    /* \"#utility.yul\":2780:2791   */\n  gt\n    /* \"#utility.yul\":2777:3223   */\n  iszero\n  tag_64\n  jumpi\n    /* \"#utility.yul\":2822:2860   */\n  tag_65\n    /* \"#utility.yul\":2854:2859   */\n  dup2\n    /* \"#utility.yul\":2822:2860   */\n  tag_13\n  jump\t// in\ntag_65:\n    /* \"#utility.yul\":2906:2935   */\n  tag_66\n    /* \"#utility.yul\":2924:2934   */\n  dup5\n    /* \"#utility.yul\":2906:2935   */\n  tag_14\n  jump\t// in\ntag_66:\n    /* \"#utility.yul\":2896:2904   */\n  dup2\n    /* \"#utility.yul\":2892:2936   */\n  add\n    /* \"#utility.yul\":3089:3091   */\n  0x20\n    /* \"#utility.yul\":3077:3087   */\n  dup6\n    /* \"#utility.yul\":3074:3092   */\n  lt\n    /* \"#utility.yul\":3071:3120   */\n  iszero\n  tag_67\n  jumpi\n    /* \"#utility.yul\":3110:3118   */\n  dup2\n    /* \"#utility.yul\":3095:3118   */\n  swap1\n  pop\n    /* \"#utility.yul\":3071:3120   */\ntag_67:\n    /* \"#utility.yul\":3133:3213   */\n  tag_68\n    /* \"#utility.yul\":3189:3211   */\n  tag_69\n    /* \"#utility.yul\":3207:3210   */\n  dup6\n    /* \"#utility.yul\":3189:3211   */\n  tag_14\n  jump\t// in\ntag_69:\n    /* \"#utility.yul\":3179:3187   */\n  dup4\n    /* \"#utility.yul\":3175:3212   */\n  add\n    /* \"#utility.yul\":3162:3173   */\n  dup3\n    /* \"#utility.yul\":3133:3213   */\n  tag_24\n  jump\t// in\ntag_68:\n    /* \"#utility.yul\":2792:3223   */\n  pop\n  pop\n    /* \"#utility.yul\":2777:3223   */\ntag_64:\n    /* \"#utility.yul\":2687:3230   */\n  pop\n  pop\n  pop\n  jump\t// out\n    /* \"#utility.yul\":3236:3353   */\ntag_26:\n    /* \"#utility.yul\":3290:3298   */\n  0x00\n    /* \"#utility.yul\":3340:3345   */\n  dup3\n    /* \"#utility.yul\":3334:3338   */\n  dup3\n    /* \"#utility.yul\":3330:3346   */\n  shr\n    /* \"#utility.yul\":3309:3346   */\n  swap1\n  pop\n    /* \"#utility.yul\":3236:3353   */\n  swap3\n  swap2\n  pop\n  pop\n  jump\t// out\n    /* \"#utility.yul\":3359:3528   */\ntag_27:\n    /* \"#utility.yul\":3403:3409   */\n  0x00\n    /* \"#utility.yul\":3436:3487   */\n  tag_72\n    /* \"#utility.yul\":3484:3485   */\n  0x00\n    /* \"#utility.yul\":3480:3486   */\n  not\n    /* \"#utility.yul\":3472:3477   */\n  dup5\n    /* \"#utility.yul\":3469:3470   */\n  0x08\n    /* \"#utility.yul\":3465:3478   */\n  mul\n    /* \"#utility.yul\":3436:3487   */\n  tag_26\n  jump\t// in\ntag_72:\n    /* \"#utility.yul\":3432:3488   */\n  not\n    /* \"#utility.yul\":3517:3521   */\n  dup1\n    /* \"#utility.yul\":3511:3515   */\n  dup4\n    /* \"#utility.yul\":3507:3522   */\n  and\n    /* \"#utility.yul\":3497:3522   */\n  swap2\n  pop\n    /* \"#utility.yul\":3410:3528   */\n  pop\n    /* \"#utility.yul\":3359:3528   */\n  swap3\n  swap2\n  pop\n  pop\n  jump\t// out\n    /* \"#utility.yul\":3533:3828   */\ntag_28:\n    /* \"#utility.yul\":3609:3613   */\n  0x00\n    /* \"#utility.yul\":3755:3784   */\n  tag_74\n    /* \"#utility.yul\":3780:3783   */\n  dup4\n    /* \"#utility.yul\":3774:3778   */\n  dup4\n    /* \"#utility.yul\":3755:3784   */\n  tag_27\n  jump\t// in\ntag_74:\n    /* \"#utility.yul\":3747:3784   */\n  swap2\n  pop\n    /* \"#utility.yul\":3817:3820   */\n  dup3\n    /* \"#utility.yul\":3814:3815   */\n  0x02\n    /* \"#utility.yul\":3810:3821   */\n  mul\n    /* \"#utility.yul\":3804:3808   */\n  dup3\n    /* \"#utility.yul\":3801:3822   */\n  or\n    /* \"#utility.yul\":3793:3822   */\n  swap1\n  pop\n    /* \"#utility.yul\":3533:3828   */\n  swap3\n  swap2\n  pop\n  pop\n  jump\t// out\n    /* \"#utility.yul\":3833:5228   */\ntag_5:\n    /* \"#utility.yul\":3950:3987   */\n  tag_76\n    /* \"#utility.yul\":3983:3986   */\n  dup3\n    /* \"#utility.yul\":3950:3987   */\n  tag_9\n  jump\t// in\ntag_76:\n    /* \"#utility.yul\":4052:4070   */\n  0xffffffffffffffff\n    /* \"#utility.yul\":4044:4050   */\n  dup2\n    /* \"#utility.yul\":4041:4071   */\n  gt\n    /* \"#utility.yul\":4038:4094   */\n  iszero\n  tag_77\n  jumpi\n    /* \"#utility.yul\":4074:4092   */\n  tag_78\n  tag_10\n  jump\t// in\ntag_78:\n    /* \"#utility.yul\":4038:4094   */\ntag_77:\n    /* \"#utility.yul\":4118:4156   */\n  tag_79\n    /* \"#utility.yul\":4150:4154   */\n  dup3\n    /* \"#utility.yul\":4144:4155   */\n  sload\n    /* \"#utility.yul\":4118:4156   */\n  tag_12\n  jump\t// in\ntag_79:\n    /* \"#utility.yul\":4203:4270   */\n  tag_80\n    /* \"#utility.yul\":4263:4269   */\n  dup3\n    /* \"#utility.yul\":4255:4261   */\n  dup3\n    /* \"#utility.yul\":4249:4253   */\n  dup6\n    /* \"#utility.yul\":4203:4270   */\n  tag_25\n  jump\t// in\ntag_80:\n    /* \"#utility.yul\":4297:4298   */\n  0x00\n    /* \"#utility.yul\":4321:4325   */\n  0x20\n    /* \"#utility.yul\":4308:4325   */\n  swap1\n  pop\n    /* \"#utility.yul\":4353:4355   */\n  0x1f\n    /* \"#utility.yul\":4345:4351   */\n  dup4\n    /* \"#utility.yul\":4342:4356   */\n  gt\n    /* \"#utility.yul\":4370:4371   */\n  0x01\n    /* \"#utility.yul\":4365:4983   */\n  dup2\n  eq\n  tag_82\n  jumpi\n    /* \"#utility.yul\":5027:5028   */\n  0x00\n    /* \"#utility.yul\":5044:5050   */\n  dup5\n    /* \"#utility.yul\":5041:5118   */\n  iszero\n  tag_83\n  jumpi\n    /* \"#utility.yul\":5093:5102   */\n  dup3\n    /* \"#utility.yul\":5088:5091   */\n  dup8\n    /* \"#utility.yul\":5084:5103   */\n  add\n    /* \"#utility.yul\":5078:5104   */\n  mload\n    /* \"#utility.yul\":5069:5104   */\n  swap1\n  pop\n    /* \"#utility.yul\":5041:5118   */\ntag_83:\n    /* \"#utility.yul\":5144:5211   */\n  tag_84\n    /* \"#utility.yul\":5204:5210   */\n  dup6\n    /* \"#utility.yul\":5197:5202   */\n  dup3\n    /* \"#utility.yul\":5144:5211   */\n  tag_28\n  jump\t// in\ntag_84:\n    /* \"#utility.yul\":5138:5142   */\n  dup7\n    /* \"#utility.yul\":5131:5212   */\n  sstore\n    /* \"#utility.yul\":5000:5222   */\n  pop\n    /* \"#utility.yul\":4335:5222   */\n  jump(tag_81)\n    /* \"#utility.yul\":4365:4983   */\ntag_82:\n    /* \"#utility.yul\":4417:4421   */\n  0x1f\n    /* \"#utility.yul\":4413:4422   */\n  not\n    /* \"#utility.yul\":4405:4411   */\n  dup5\n    /* \"#utility.yul\":4401:4423   */\n  and\n    /* \"#utility.yul\":4451:4488   */\n  tag_85\n    /* \"#utility.yul\":4483:4487   */\n  dup7\n    /* \"#utility.yul\":4451:4488   */\n  tag_13\n  jump\t// in\ntag_85:\n    /* \"#utility.yul\":4510:4511   */\n  0x00\n    /* \"#utility.yul\":4524:4732   */\ntag_86:\n    /* \"#utility.yul\":4538:4545   */\n  dup3\n    /* \"#utility.yul\":4535:4536   */\n  dup2\n    /* \"#utility.yul\":4532:4546   */\n  lt\n    /* \"#utility.yul\":4524:4732   */\n  iszero\n  tag_88\n  jumpi\n    /* \"#utility.yul\":4617:4626   */\n  dup5\n    /* \"#utility.yul\":4612:4615   */\n  dup10\n    /* \"#utility.yul\":4608:4627   */\n  add\n    /* \"#utility.yul\":4602:4628   */\n  mload\n    /* \"#utility.yul\":4594:4600   */\n  dup3\n    /* \"#utility.yul\":4587:4629   */\n  sstore\n    /* \"#utility.yul\":4668:4669   */\n  0x01\n    /* \"#utility.yul\":4660:4666   */\n  dup3\n    /* \"#utility.yul\":4656:4670   */\n  add\n    /* \"#utility.yul\":4646:4670   */\n  swap2\n  pop\n    /* \"#utility.yul\":4715:4717   */\n  0x20\n    /* \"#utility.yul\":4704:4713   */\n  dup6\n    /* \"#utility.yul\":4700:4718   */\n  add\n    /* \"#utility.yul\":4687:4718   */\n  swap5\n  pop\n    /* \"#utility.yul\":4561:4565   */\n  0x20\n    /* \"#utility.yul\":4558:4559   */\n  dup2\n    /* \"#utility.yul\":4554:4566   */\n  add\n    /* \"#utility.yul\":4549:4566   */\n  swap1\n  pop\n    /* \"#utility.yul\":4524:4732   */\n  jump(tag_86)\ntag_88:\n    /* \"#utility.yul\":4760:4766   */\n  dup7\n    /* \"#utility.yul\":4751:4758   */\n  dup4\n    /* \"#utility.yul\":4748:4767   */\n  lt\n    /* \"#utility.yul\":4745:4924   */\n  iszero\n  tag_89\n  jumpi\n    /* \"#utility.yul\":4818:4827   */\n  dup5\n    /* \"#utility.yul\":4813:4816   */\n  dup10\n    /* \"#utility.yul\":4809:4828   */\n  add\n    /* \"#utility.yul\":4803:4829   */\n  mload\n    /* \"#utility.yul\":4861:4909   */\n  tag_90\n    /* \"#utility.yul\":4903:4907   */\n  0x1f\n    /* \"#utility.yul\":4895:4901   */\n  dup10\n    /* \"#utility.yul\":4891:4908   */\n  and\n    /* \"#utility.yul\":4880:4889   */\n  dup3\n    /* \"#utility.yul\":4861:4909   */\n  tag_27\n  jump\t// in\ntag_90:\n    /* \"#utility.yul\":4853:4859   */\n  dup4\n    /* \"#utility.yul\":4846:4910   */\n  sstore\n    /* \"#utility.yul\":4768:4924   */\n  pop\n    /* \"#utility.yul\":4745:4924   */\ntag_89:\n    /* \"#utility.yul\":4970:4971   */\n  0x01\n    /* \"#utility.yul\":4966:4967   */\n  0x02\n    /* \"#utility.yul\":4958:4964   */\n  dup9\n    /* \"#utility.yul\":4954:4968   */\n  mul\n    /* \"#utility.yul\":4950:4972   */\n  add\n    /* \"#utility.yul\":4944:4948   */\n  dup9\n    /* \"#utility.yul\":4937:4973   */\n  sstore\n    /* \"#utility.yul\":4372:4983   */\n  pop\n  pop\n  pop\n    /* \"#utility.yul\":4335:5222   */\ntag_81:\n  pop\n    /* \"#utility.yul\":3925:5228   */\n  pop\n  pop\n  pop\n    /* \"#utility.yul\":3833:5228   */\n  pop\n  pop\n  jump\t// out\n    /* \"contracts/TaskManagement.sol\":249:11779  contract TaskManagement {... */\ntag_8:\n  dataSize(sub_0)\n  dup1\n  dataOffset(sub_0)\n  0x00\n  codecopy\n  0x00\n  return\nstop\n\nsub_0: assembly {\n        /* \"contracts/TaskManagement.sol\":249:11779  contract TaskManagement {... */\n      mstore(0x40, 0x80)\n      callvalue\n      dup1\n      iszero\n      tag_1\n      jumpi\n      0x00\n      dup1\n      revert\n    tag_1:\n      pop\n      jumpi(tag_2, lt(calldatasize, 0x04))\n      shr(0xe0, calldataload(0x00))\n      dup1\n      0x4505e299\n      gt\n      tag_19\n      jumpi\n      dup1\n      0xbc9c2d55\n      gt\n      tag_20\n      jumpi\n      dup1\n      0xbc9c2d55\n      eq\n      tag_15\n      jumpi\n      dup1\n      0xe1e29558\n      eq\n      tag_16\n      jumpi\n      dup1\n      0xe4f0c22b\n      eq\n      tag_17\n      jumpi\n      dup1\n      0xfde08174\n      eq\n      tag_18\n      jumpi\n      jump(tag_2)\n    tag_20:\n      dup1\n      0x4505e299\n      eq\n      tag_11\n      jumpi\n      dup1\n      0x6c03a898\n      eq\n      tag_12\n      jumpi\n      dup1\n      0x6f6b07db\n      eq\n      tag_13\n      jumpi\n      dup1\n      0xb7dfcbee\n      eq\n      tag_14\n      jumpi\n      jump(tag_2)\n    tag_19:\n      dup1\n      0x14c95832\n      gt\n      tag_21\n      jumpi\n      dup1\n      0x14c95832\n      eq\n      tag_7\n      jumpi\n      dup1\n      0x1d65e77e\n      eq\n      tag_8\n      jumpi\n      dup1\n      0x34112f5f\n      eq\n      tag_9\n      jumpi\n      dup1\n      0x3457d3e2\n      eq\n      tag_10\n      jumpi\n      jump(tag_2)\n    tag_21:\n      dup1\n      0x022bf9c1\n      eq\n      tag_3\n      jumpi\n      dup1\n      0x04a87e38\n      eq\n      tag_4\n      jumpi\n      dup1\n      0x096f8494\n      eq\n      tag_5\n      jumpi\n      dup1\n      0x10668264\n      eq\n      tag_6\n      jumpi\n    tag_2:\n      0x00\n      dup1\n      revert\n        /* \"contracts/TaskManagement.sol\":4131:5015  function issueRole(address _user, string memory _role) onlyManager public {... */\n    tag_3:\n      tag_22\n      0x04\n      dup1\n      calldatasize\n      sub\n      dup2\n      add\n      swap1\n      tag_23\n      swap2\n      swap1\n      tag_24\n      jump\t// in\n    tag_23:\n      tag_25\n      jump\t// in\n    tag_22:\n      stop\n        /* \"contracts/TaskManagement.sol\":8641:9084  function getTasks() onlyManager public view returns (Task[] memory) {... */\n    tag_4:\n      tag_26\n      tag_27\n      jump\t// in\n    tag_26:\n      mload(0x40)\n      tag_28\n      swap2\n      swap1\n      tag_29\n      jump\t// in\n    tag_28:\n      mload(0x40)\n      dup1\n      swap2\n      sub\n      swap1\n      return\n        /* \"contracts/TaskManagement.sol\":11398:11776  function verifyTaskDueDate(uint _id) public returns (bool) {... */\n    tag_5:\n      tag_30\n      0x04\n      dup1\n      calldatasize\n      sub\n      dup2\n      add\n      swap1\n      tag_31\n      swap2\n      swap1\n      tag_32\n      jump\t// in\n    tag_31:\n      tag_33\n      jump\t// in\n    tag_30:\n      mload(0x40)\n      tag_34\n      swap2\n      swap1\n      tag_35\n      jump\t// in\n    tag_34:\n      mload(0x40)\n      dup1\n      swap2\n      sub\n      swap1\n      return\n        /* \"contracts/TaskManagement.sol\":10598:11008  function verifyTaskOwnership(uint _id, address _assignee) public returns (bool) {... */\n    tag_6:\n      tag_36\n      0x04\n      dup1\n      calldatasize\n      sub\n      dup2\n      add\n      swap1\n      tag_37\n      swap2\n      swap1\n      tag_38\n      jump\t// in\n    tag_37:\n      tag_39\n      jump\t// in\n    tag_36:\n      mload(0x40)\n      tag_40\n      swap2\n      swap1\n      tag_35\n      jump\t// in\n    tag_40:\n      mload(0x40)\n      dup1\n      swap2\n      sub\n      swap1\n      return\n        /* \"contracts/TaskManagement.sol\":2795:3508  function updateDID(string memory _newIdentifier) public {... */\n    tag_7:\n      tag_41\n      0x04\n      dup1\n      calldatasize\n      sub\n      dup2\n      add\n      swap1\n      tag_42\n      swap2\n      swap1\n      tag_43\n      jump\t// in\n    tag_42:\n      tag_44\n      jump\t// in\n    tag_41:\n      stop\n        /* \"contracts/TaskManagement.sol\":9641:10088  function getTask(uint _id) public view returns (... */\n    tag_8:\n      tag_45\n      0x04\n      dup1\n      calldatasize\n      sub\n      dup2\n      add\n      swap1\n      tag_46\n      swap2\n      swap1\n      tag_32\n      jump\t// in\n    tag_46:\n      tag_47\n      jump\t// in\n    tag_45:\n      mload(0x40)\n      tag_48\n      swap2\n      swap1\n      tag_49\n      jump\t// in\n    tag_48:\n      mload(0x40)\n      dup1\n      swap2\n      sub\n      swap1\n      return\n        /* \"contracts/TaskManagement.sol\":9130:9633  function getUserTasks() public view returns (Task[] memory) {... */\n    tag_9:\n      tag_50\n      tag_51\n      jump\t// in\n    tag_50:\n      mload(0x40)\n      tag_52\n      swap2\n      swap1\n      tag_29\n      jump\t// in\n    tag_52:\n      mload(0x40)\n      dup1\n      swap2\n      sub\n      swap1\n      return\n        /* \"contracts/TaskManagement.sol\":2235:2583  function createDID(string memory _identifier) public {... */\n    tag_10:\n      tag_53\n      0x04\n      dup1\n      calldatasize\n      sub\n      dup2\n      add\n      swap1\n      tag_54\n      swap2\n      swap1\n      tag_43\n      jump\t// in\n    tag_54:\n      tag_55\n      jump\t// in\n    tag_53:\n      stop\n        /* \"contracts/TaskManagement.sol\":6480:7487  function createTask(... */\n    tag_11:\n      tag_56\n      0x04\n      dup1\n      calldatasize\n      sub\n      dup2\n      add\n      swap1\n      tag_57\n      swap2\n      swap1\n      tag_58\n      jump\t// in\n    tag_57:\n      tag_59\n      jump\t// in\n    tag_56:\n      stop\n        /* \"contracts/TaskManagement.sol\":11016:11390  function verifyTaskStatus(uint _id) public returns (bool) {... */\n    tag_12:\n      tag_60\n      0x04\n      dup1\n      calldatasize\n      sub\n      dup2\n      add\n      swap1\n      tag_61\n      swap2\n      swap1\n      tag_32\n      jump\t// in\n    tag_61:\n      tag_62\n      jump\t// in\n    tag_60:\n      mload(0x40)\n      tag_63\n      swap2\n      swap1\n      tag_35\n      jump\t// in\n    tag_63:\n      mload(0x40)\n      dup1\n      swap2\n      sub\n      swap1\n      return\n        /* \"contracts/TaskManagement.sol\":7559:8595  function reassignTask(uint _id, address _newAssignee) onlyManager public {... */\n    tag_13:\n      tag_64\n      0x04\n      dup1\n      calldatasize\n      sub\n      dup2\n      add\n      swap1\n      tag_65\n      swap2\n      swap1\n      tag_38\n      jump\t// in\n    tag_65:\n      tag_66\n      jump\t// in\n    tag_64:\n      stop\n        /* \"contracts/TaskManagement.sol\":3565:3987  function assignRole(address _user, string memory _role) onlyManager public {... */\n    tag_14:\n      tag_67\n      0x04\n      dup1\n      calldatasize\n      sub\n      dup2\n      add\n      swap1\n      tag_68\n      swap2\n      swap1\n      tag_24\n      jump\t// in\n    tag_68:\n      tag_69\n      jump\t// in\n    tag_67:\n      stop\n        /* \"contracts/TaskManagement.sol\":2591:2787  function getDID() public view returns (string memory) {... */\n    tag_15:\n      tag_70\n      tag_71\n      jump\t// in\n    tag_70:\n      mload(0x40)\n      tag_72\n      swap2\n      swap1\n      tag_73\n      jump\t// in\n    tag_72:\n      mload(0x40)\n      dup1\n      swap2\n      sub\n      swap1\n      return\n        /* \"contracts/TaskManagement.sol\":10096:10590  function completeTask(uint _id) public {... */\n    tag_16:\n      tag_74\n      0x04\n      dup1\n      calldatasize\n      sub\n      dup2\n      add\n      swap1\n      tag_75\n      swap2\n      swap1\n      tag_32\n      jump\t// in\n    tag_75:\n      tag_76\n      jump\t// in\n    tag_74:\n      stop\n        /* \"contracts/TaskManagement.sol\":5662:6472  function verifyRole(address _user, address _issuer, string memory _role) public returns (bool) {... */\n    tag_17:\n      tag_77\n      0x04\n      dup1\n      calldatasize\n      sub\n      dup2\n      add\n      swap1\n      tag_78\n      swap2\n      swap1\n      tag_79\n      jump\t// in\n    tag_78:\n      tag_80\n      jump\t// in\n    tag_77:\n      mload(0x40)\n      tag_81\n      swap2\n      swap1\n      tag_35\n      jump\t// in\n    tag_81:\n      mload(0x40)\n      dup1\n      swap2\n      sub\n      swap1\n      return\n        /* \"contracts/TaskManagement.sol\":5148:5629  function getRole() public view returns (string[] memory) {... */\n    tag_18:\n      tag_82\n      tag_83\n      jump\t// in\n    tag_82:\n      mload(0x40)\n      tag_84\n      swap2\n      swap1\n      tag_85\n      jump\t// in\n    tag_84:\n      mload(0x40)\n      dup1\n      swap2\n      sub\n      swap1\n      return\n        /* \"contracts/TaskManagement.sol\":4131:5015  function issueRole(address _user, string memory _role) onlyManager public {... */\n    tag_25:\n        /* \"contracts/TaskManagement.sol\":2046:2062  bytes(\"manager\") */\n      mload(0x40)\n      dup1\n      0x40\n      add\n      0x40\n      mstore\n      dup1\n      0x07\n      dup2\n      mstore\n      0x20\n      add\n      0x6d616e6167657200000000000000000000000000000000000000000000000000\n      dup2\n      mstore\n      pop\n        /* \"contracts/TaskManagement.sol\":2036:2063  keccak256(bytes(\"manager\")) */\n      dup1\n      mload\n      swap1\n      0x20\n      add\n      keccak256\n        /* \"contracts/TaskManagement.sol\":2013:2018  roles */\n      0x01\n        /* \"contracts/TaskManagement.sol\":2013:2030  roles[msg.sender] */\n      0x00\n        /* \"contracts/TaskManagement.sol\":2019:2029  msg.sender */\n      caller\n        /* \"contracts/TaskManagement.sol\":2013:2030  roles[msg.sender] */\n      0xffffffffffffffffffffffffffffffffffffffff\n      and\n      0xffffffffffffffffffffffffffffffffffffffff\n      and\n      dup2\n      mstore\n      0x20\n      add\n      swap1\n      dup2\n      mstore\n      0x20\n      add\n      0x00\n      keccak256\n        /* \"contracts/TaskManagement.sol\":1997:2032  keccak256(bytes(roles[msg.sender])) */\n      mload(0x40)\n      tag_87\n      swap2\n      swap1\n      tag_88\n      jump\t// in\n    tag_87:\n      mload(0x40)\n      dup1\n      swap2\n      sub\n      swap1\n      keccak256\n        /* \"contracts/TaskManagement.sol\":1997:2063  keccak256(bytes(roles[msg.sender])) == keccak256(bytes(\"manager\")) */\n      eq\n        /* \"contracts/TaskManagement.sol\":1989:2087  require(keccak256(bytes(roles[msg.sender])) == keccak256(bytes(\"manager\")), \"Unauthorized action\") */\n      tag_89\n      jumpi\n      mload(0x40)\n      0x08c379a000000000000000000000000000000000000000000000000000000000\n      dup2\n      mstore\n      0x04\n      add\n      tag_90\n      swap1\n      tag_91\n      jump\t// in\n    tag_90:\n      mload(0x40)\n      dup1\n      swap2\n      sub\n      swap1\n      revert\n    tag_89:\n        /* \"contracts/TaskManagement.sol\":4317:4318  0 */\n      0x00\n        /* \"contracts/TaskManagement.sol\":4283:4319  dids[msg.sender].owner != address(0) */\n      0xffffffffffffffffffffffffffffffffffffffff\n      and\n        /* \"contracts/TaskManagement.sol\":4283:4287  dids */\n      0x00\n        /* \"contracts/TaskManagement.sol\":4283:4299  dids[msg.sender] */\n      dup1\n        /* \"contracts/TaskManagement.sol\":4288:4298  msg.sender */\n      caller\n        /* \"contracts/TaskManagement.sol\":4283:4299  dids[msg.sender] */\n      0xffffffffffffffffffffffffffffffffffffffff\n      and\n      0xffffffffffffffffffffffffffffffffffffffff\n      and\n      dup2\n      mstore\n      0x20\n      add\n      swap1\n      dup2\n      mstore\n      0x20\n      add\n      0x00\n      keccak256\n        /* \"contracts/TaskManagement.sol\":4283:4305  dids[msg.sender].owner */\n      0x01\n      add\n      0x00\n      swap1\n      sload\n      swap1\n      0x0100\n      exp\n      swap1\n      div\n      0xffffffffffffffffffffffffffffffffffffffff\n      and\n        /* \"contracts/TaskManagement.sol\":4283:4319  dids[msg.sender].owner != address(0) */\n      0xffffffffffffffffffffffffffffffffffffffff\n      and\n      sub\n        /* \"contracts/TaskManagement.sol\":4275:4362  require(dids[msg.sender].owner != address(0), \"No existing DID found for this address\") */\n      tag_93\n      jumpi\n      mload(0x40)\n      0x08c379a000000000000000000000000000000000000000000000000000000000\n      dup2\n      mstore\n      0x04\n      add\n      tag_94\n      swap1\n      tag_95\n      jump\t// in\n    tag_94:\n      mload(0x40)\n      dup1\n      swap2\n      sub\n      swap1\n      revert\n    tag_93:\n        /* \"contracts/TaskManagement.sol\":4403:4404  0 */\n      0x00\n        /* \"contracts/TaskManagement.sol\":4387:4392  _role */\n      dup2\n        /* \"contracts/TaskManagement.sol\":4381:4400  bytes(_role).length */\n      mload\n        /* \"contracts/TaskManagement.sol\":4381:4404  bytes(_role).length > 0 */\n      gt\n        /* \"contracts/TaskManagement.sol\":4373:4429  require(bytes(_role).length > 0, \"Role cannot be empty\") */\n      tag_96\n      jumpi\n      mload(0x40)\n      0x08c379a000000000000000000000000000000000000000000000000000000000\n      dup2\n      mstore\n      0x04\n      add\n      tag_97\n      swap1\n      tag_98\n      jump\t// in\n    tag_97:\n      mload(0x40)\n      dup1\n      swap2\n      sub\n      swap1\n      revert\n    tag_96:\n        /* \"contracts/TaskManagement.sol\":4482:4498  bytes32 roleHash */\n      0x00\n        /* \"contracts/TaskManagement.sol\":4528:4538  msg.sender */\n      caller\n        /* \"contracts/TaskManagement.sol\":4540:4545  _user */\n      dup4\n        /* \"contracts/TaskManagement.sol\":4547:4552  _role */\n      dup4\n        /* \"contracts/TaskManagement.sol\":4554:4569  block.timestamp */\n      timestamp\n        /* \"contracts/TaskManagement.sol\":4511:4570  abi.encodePacked(msg.sender, _user, _role, block.timestamp) */\n      add(0x20, mload(0x40))\n      tag_99\n      swap5\n      swap4\n      swap3\n      swap2\n      swap1\n      tag_100\n      jump\t// in\n    tag_99:\n      mload(0x40)\n      0x20\n      dup2\n      dup4\n      sub\n      sub\n      dup2\n      mstore\n      swap1\n      0x40\n      mstore\n        /* \"contracts/TaskManagement.sol\":4501:4571  keccak256(abi.encodePacked(msg.sender, _user, _role, block.timestamp)) */\n      dup1\n      mload\n      swap1\n      0x20\n      add\n      keccak256\n        /* \"contracts/TaskManagement.sol\":4482:4571  bytes32 roleHash = keccak256(abi.encodePacked(msg.sender, _user, _role, block.timestamp)) */\n      swap1\n      pop\n        /* \"contracts/TaskManagement.sol\":4668:4679  credentials */\n      0x03\n        /* \"contracts/TaskManagement.sol\":4668:4686  credentials[_user] */\n      0x00\n        /* \"contracts/TaskManagement.sol\":4680:4685  _user */\n      dup5\n        /* \"contracts/TaskManagement.sol\":4668:4686  credentials[_user] */\n      0xffffffffffffffffffffffffffffffffffffffff\n      and\n      0xffffffffffffffffffffffffffffffffffffffff\n      and\n      dup2\n      mstore\n      0x20\n      add\n      swap1\n      dup2\n      mstore\n      0x20\n      add\n      0x00\n      keccak256\n        /* \"contracts/TaskManagement.sol\":4692:4811  Credential(... */\n      mload(0x40)\n      dup1\n      0x80\n      add\n      0x40\n      mstore\n      dup1\n        /* \"contracts/TaskManagement.sol\":4717:4727  msg.sender */\n      caller\n        /* \"contracts/TaskManagement.sol\":4692:4811  Credential(... */\n      0xffffffffffffffffffffffffffffffffffffffff\n      and\n      dup2\n      mstore\n      0x20\n      add\n        /* \"contracts/TaskManagement.sol\":4742:4747  _role */\n      dup5\n        /* \"contracts/TaskManagement.sol\":4692:4811  Credential(... */\n      dup2\n      mstore\n      0x20\n      add\n        /* \"contracts/TaskManagement.sol\":4762:4770  roleHash */\n      dup4\n        /* \"contracts/TaskManagement.sol\":4692:4811  Credential(... */\n      dup2\n      mstore\n      0x20\n      add\n        /* \"contracts/TaskManagement.sol\":4785:4800  block.timestamp */\n      timestamp\n        /* \"contracts/TaskManagement.sol\":4692:4811  Credential(... */\n      dup2\n      mstore\n      pop\n        /* \"contracts/TaskManagement.sol\":4668:4812  credentials[_user].push(Credential(... */\n      swap1\n      dup1\n      0x01\n      dup2\n      sload\n      add\n      dup1\n      dup3\n      sstore\n      dup1\n      swap2\n      pop\n      pop\n      0x01\n      swap1\n      sub\n      swap1\n      0x00\n      mstore\n      keccak256(0x00, 0x20)\n      swap1\n      0x04\n      mul\n      add\n      0x00\n      swap1\n      swap2\n      swap1\n      swap2\n      swap1\n      swap2\n      pop\n      0x00\n      dup3\n      add\n      mload\n      dup2\n      0x00\n      add\n      exp(0x0100, 0x00)\n      dup2\n      sload\n      dup2\n      0xffffffffffffffffffffffffffffffffffffffff\n      mul\n      not\n      and\n      swap1\n      dup4\n      0xffffffffffffffffffffffffffffffffffffffff\n      and\n      mul\n      or\n      swap1\n      sstore\n      pop\n      0x20\n      dup3\n      add\n      mload\n      dup2\n      0x01\n      add\n      swap1\n      dup2\n      tag_102\n      swap2\n      swap1\n      tag_103\n      jump\t// in\n    tag_102:\n      pop\n      0x40\n      dup3\n      add\n      mload\n      dup2\n      0x02\n      add\n      sstore\n      0x60\n      dup3\n      add\n      mload\n      dup2\n      0x03\n      add\n      sstore\n      pop\n      pop\n        /* \"contracts/TaskManagement.sol\":4838:4843  _role */\n      dup2\n        /* \"contracts/TaskManagement.sol\":4823:4828  roles */\n      0x01\n        /* \"contracts/TaskManagement.sol\":4823:4835  roles[_user] */\n      0x00\n        /* \"contracts/TaskManagement.sol\":4829:4834  _user */\n      dup6\n        /* \"contracts/TaskManagement.sol\":4823:4835  roles[_user] */\n      0xffffffffffffffffffffffffffffffffffffffff\n      and\n      0xffffffffffffffffffffffffffffffffffffffff\n      and\n      dup2\n      mstore\n      0x20\n      add\n      swap1\n      dup2\n      mstore\n      0x20\n      add\n      0x00\n      keccak256\n        /* \"contracts/TaskManagement.sol\":4823:4843  roles[_user] = _role */\n      swap1\n      dup2\n      tag_104\n      swap2\n      swap1\n      tag_103\n      jump\t// in\n    tag_104:\n      pop\n        /* \"contracts/TaskManagement.sol\":4854:4865  roleHistory */\n      0x02\n        /* \"contracts/TaskManagement.sol\":4854:4872  roleHistory[_user] */\n      0x00\n        /* \"contracts/TaskManagement.sol\":4866:4871  _user */\n      dup5\n        /* \"contracts/TaskManagement.sol\":4854:4872  roleHistory[_user] */\n      0xffffffffffffffffffffffffffffffffffffffff\n      and\n      0xffffffffffffffffffffffffffffffffffffffff\n      and\n      dup2\n      mstore\n      0x20\n      add\n      swap1\n      dup2\n      mstore\n      0x20\n      add\n      0x00\n      keccak256\n        /* \"contracts/TaskManagement.sol\":4878:4883  _role */\n      dup3\n        /* \"contracts/TaskManagement.sol\":4854:4884  roleHistory[_user].push(_role) */\n      swap1\n      dup1\n      0x01\n      dup2\n      sload\n      add\n      dup1\n      dup3\n      sstore\n      dup1\n      swap2\n      pop\n      pop\n      0x01\n      swap1\n      sub\n      swap1\n      0x00\n      mstore\n      keccak256(0x00, 0x20)\n      add\n      0x00\n      swap1\n      swap2\n      swap1\n      swap2\n      swap1\n      swap2\n      pop\n      swap1\n      dup2\n      tag_106\n      swap2\n      swap1\n      tag_103\n      jump\t// in\n    tag_106:\n      pop\n        /* \"contracts/TaskManagement.sol\":4913:4923  msg.sender */\n      caller\n        /* \"contracts/TaskManagement.sol\":4902:4948  RoleIssued(msg.sender, _user, _role, roleHash) */\n      0xffffffffffffffffffffffffffffffffffffffff\n      and\n      0xf4313cb022699889c6eddb590e42342301cdae4824fd424ffdfdeb23d4cdbbe9\n        /* \"contracts/TaskManagement.sol\":4925:4930  _user */\n      dup5\n        /* \"contracts/TaskManagement.sol\":4932:4937  _role */\n      dup5\n        /* \"contracts/TaskManagement.sol\":4939:4947  roleHash */\n      dup5\n        /* \"contracts/TaskManagement.sol\":4902:4948  RoleIssued(msg.sender, _user, _role, roleHash) */\n      mload(0x40)\n      tag_107\n      swap4\n      swap3\n      swap2\n      swap1\n      tag_108\n      jump\t// in\n    tag_107:\n      mload(0x40)\n      dup1\n      swap2\n      sub\n      swap1\n      log2\n        /* \"contracts/TaskManagement.sol\":4205:5015  {... */\n      pop\n        /* \"contracts/TaskManagement.sol\":4131:5015  function issueRole(address _user, string memory _role) onlyManager public {... */\n      pop\n      pop\n      jump\t// out\n        /* \"contracts/TaskManagement.sol\":8641:9084  function getTasks() onlyManager public view returns (Task[] memory) {... */\n    tag_27:\n        /* \"contracts/TaskManagement.sol\":8694:8707  Task[] memory */\n      0x60\n        /* \"contracts/TaskManagement.sol\":2046:2062  bytes(\"manager\") */\n      mload(0x40)\n      dup1\n      0x40\n      add\n      0x40\n      mstore\n      dup1\n      0x07\n      dup2\n      mstore\n      0x20\n      add\n      0x6d616e6167657200000000000000000000000000000000000000000000000000\n      dup2\n      mstore\n      pop\n        /* \"contracts/TaskManagement.sol\":2036:2063  keccak256(bytes(\"manager\")) */\n      dup1\n      mload\n      swap1\n      0x20\n      add\n      keccak256\n        /* \"contracts/TaskManagement.sol\":2013:2018  roles */\n      0x01\n        /* \"contracts/TaskManagement.sol\":2013:2030  roles[msg.sender] */\n      0x00\n        /* \"contracts/TaskManagement.sol\":2019:2029  msg.sender */\n      caller\n        /* \"contracts/TaskManagement.sol\":2013:2030  roles[msg.sender] */\n      0xffffffffffffffffffffffffffffffffffffffff\n      and\n      0xffffffffffffffffffffffffffffffffffffffff\n      and\n      dup2\n      mstore\n      0x20\n      add\n      swap1\n      dup2\n      mstore\n      0x20\n      add\n      0x00\n      keccak256\n        /* \"contracts/TaskManagement.sol\":1997:2032  keccak256(bytes(roles[msg.sender])) */\n      mload(0x40)\n      tag_110\n      swap2\n      swap1\n      tag_88\n      jump\t// in\n    tag_110:\n      mload(0x40)\n      dup1\n      swap2\n      sub\n      swap1\n      keccak256\n        /* \"contracts/TaskManagement.sol\":1997:2063  keccak256(bytes(roles[msg.sender])) == keccak256(bytes(\"manager\")) */\n      eq\n        /* \"contracts/TaskManagement.sol\":1989:2087  require(keccak256(bytes(roles[msg.sender])) == keccak256(bytes(\"manager\")), \"Unauthorized action\") */\n      tag_111\n      jumpi\n      mload(0x40)\n      0x08c379a000000000000000000000000000000000000000000000000000000000\n      dup2\n      mstore\n      0x04\n      add\n      tag_112\n      swap1\n      tag_91\n      jump\t// in\n    tag_112:\n      mload(0x40)\n      dup1\n      swap2\n      sub\n      swap1\n      revert\n    tag_111:\n        /* \"contracts/TaskManagement.sol\":8762:8763  0 */\n      0x00\n        /* \"contracts/TaskManagement.sol\":8728:8764  dids[msg.sender].owner != address(0) */\n      0xffffffffffffffffffffffffffffffffffffffff\n      and\n        /* \"contracts/TaskManagement.sol\":8728:8732  dids */\n      0x00\n        /* \"contracts/TaskManagement.sol\":8728:8744  dids[msg.sender] */\n      dup1\n        /* \"contracts/TaskManagement.sol\":8733:8743  msg.sender */\n      caller\n        /* \"contracts/TaskManagement.sol\":8728:8744  dids[msg.sender] */\n      0xffffffffffffffffffffffffffffffffffffffff\n      and\n      0xffffffffffffffffffffffffffffffffffffffff\n      and\n      dup2\n      mstore\n      0x20\n      add\n      swap1\n      dup2\n      mstore\n      0x20\n      add\n      0x00\n      keccak256\n        /* \"contracts/TaskManagement.sol\":8728:8750  dids[msg.sender].owner */\n      0x01\n      add\n      0x00\n      swap1\n      sload\n      swap1\n      0x0100\n      exp\n      swap1\n      div\n      0xffffffffffffffffffffffffffffffffffffffff\n      and\n        /* \"contracts/TaskManagement.sol\":8728:8764  dids[msg.sender].owner != address(0) */\n      0xffffffffffffffffffffffffffffffffffffffff\n      and\n      sub\n        /* \"contracts/TaskManagement.sol\":8720:8807  require(dids[msg.sender].owner != address(0), \"No existing DID found for this address\") */\n      tag_114\n      jumpi\n      mload(0x40)\n      0x08c379a000000000000000000000000000000000000000000000000000000000\n      dup2\n      mstore\n      0x04\n      add\n      tag_115\n      swap1\n      tag_95\n      jump\t// in\n    tag_115:\n      mload(0x40)\n      dup1\n      swap2\n      sub\n      swap1\n      revert\n    tag_114:\n        /* \"contracts/TaskManagement.sol\":8840:8841  0 */\n      0x00\n        /* \"contracts/TaskManagement.sol\":8826:8837  taskCounter */\n      sload(0x04)\n        /* \"contracts/TaskManagement.sol\":8826:8841  taskCounter > 0 */\n      gt\n        /* \"contracts/TaskManagement.sol\":8818:8873  require(taskCounter > 0, \"No tasks have been assigned\") */\n      tag_116\n      jumpi\n      mload(0x40)\n      0x08c379a000000000000000000000000000000000000000000000000000000000\n      dup2\n      mstore\n      0x04\n      add\n      tag_117\n      swap1\n      tag_118\n      jump\t// in\n    tag_117:\n      mload(0x40)\n      dup1\n      swap2\n      sub\n      swap1\n      revert\n    tag_116:\n        /* \"contracts/TaskManagement.sol\":8886:8910  Task[] memory tasksArray */\n      0x00\n        /* \"contracts/TaskManagement.sol\":8924:8935  taskCounter */\n      sload(0x04)\n        /* \"contracts/TaskManagement.sol\":8913:8936  new Task[](taskCounter) */\n      0xffffffffffffffff\n      dup2\n      gt\n      iszero\n      tag_119\n      jumpi\n      tag_120\n      tag_121\n      jump\t// in\n    tag_120:\n    tag_119:\n      mload(0x40)\n      swap1\n      dup1\n      dup3\n      mstore\n      dup1\n      0x20\n      mul\n      0x20\n      add\n      dup3\n      add\n      0x40\n      mstore\n      dup1\n      iszero\n      tag_122\n      jumpi\n      dup2\n      0x20\n      add\n    tag_123:\n      tag_124\n      tag_125\n      jump\t// in\n    tag_124:\n      dup2\n      mstore\n      0x20\n      add\n      swap1\n      0x01\n      swap1\n      sub\n      swap1\n      dup2\n      tag_123\n      jumpi\n      swap1\n      pop\n    tag_122:\n      pop\n        /* \"contracts/TaskManagement.sol\":8886:8936  Task[] memory tasksArray = new Task[](taskCounter) */\n      swap1\n      pop\n        /* \"contracts/TaskManagement.sol\":8952:8958  uint i */\n      0x00\n        /* \"contracts/TaskManagement.sol\":8947:9047  for (uint i = 0; i < taskCounter; i++) ... */\n    tag_126:\n        /* \"contracts/TaskManagement.sol\":8968:8979  taskCounter */\n      sload(0x04)\n        /* \"contracts/TaskManagement.sol\":8964:8965  i */\n      dup2\n        /* \"contracts/TaskManagement.sol\":8964:8979  i < taskCounter */\n      lt\n        /* \"contracts/TaskManagement.sol\":8947:9047  for (uint i = 0; i < taskCounter; i++) ... */\n      iszero\n      tag_127\n      jumpi\n        /* \"contracts/TaskManagement.sol\":9027:9032  tasks */\n      0x05\n        /* \"contracts/TaskManagement.sol\":9027:9035  tasks[i] */\n      0x00\n        /* \"contracts/TaskManagement.sol\":9033:9034  i */\n      dup3\n        /* \"contracts/TaskManagement.sol\":9027:9035  tasks[i] */\n      dup2\n      mstore\n      0x20\n      add\n      swap1\n      dup2\n      mstore\n      0x20\n      add\n      0x00\n      keccak256\n        /* \"contracts/TaskManagement.sol\":9011:9035  tasksArray[i] = tasks[i] */\n      mload(0x40)\n      dup1\n      0x0100\n      add\n      0x40\n      mstore\n      swap1\n      dup2\n      0x00\n      dup3\n      add\n      sload\n      dup2\n      mstore\n      0x20\n      add\n      0x01\n      dup3\n      add\n      dup1\n      sload\n      tag_129\n      swap1\n      tag_130\n      jump\t// in\n    tag_129:\n      dup1\n      0x1f\n      add\n      0x20\n      dup1\n      swap2\n      div\n      mul\n      0x20\n      add\n      mload(0x40)\n      swap1\n      dup2\n      add\n      0x40\n      mstore\n      dup1\n      swap3\n      swap2\n      swap1\n      dup2\n      dup2\n      mstore\n      0x20\n      add\n      dup3\n      dup1\n      sload\n      tag_131\n      swap1\n      tag_130\n      jump\t// in\n    tag_131:\n      dup1\n      iszero\n      tag_132\n      jumpi\n      dup1\n      0x1f\n      lt\n      tag_133\n      jumpi\n      0x0100\n      dup1\n      dup4\n      sload\n      div\n      mul\n      dup4\n      mstore\n      swap2\n      0x20\n      add\n      swap2\n      jump(tag_132)\n    tag_133:\n      dup3\n      add\n      swap2\n      swap1\n      0x00\n      mstore\n      keccak256(0x00, 0x20)\n      swap1\n    tag_134:\n      dup2\n      sload\n      dup2\n      mstore\n      swap1\n      0x01\n      add\n      swap1\n      0x20\n      add\n      dup1\n      dup4\n      gt\n      tag_134\n      jumpi\n      dup3\n      swap1\n      sub\n      0x1f\n      and\n      dup3\n      add\n      swap2\n    tag_132:\n      pop\n      pop\n      pop\n      pop\n      pop\n      dup2\n      mstore\n      0x20\n      add\n      0x02\n      dup3\n      add\n      dup1\n      sload\n      tag_135\n      swap1\n      tag_130\n      jump\t// in\n    tag_135:\n      dup1\n      0x1f\n      add\n      0x20\n      dup1\n      swap2\n      div\n      mul\n      0x20\n      add\n      mload(0x40)\n      swap1\n      dup2\n      add\n      0x40\n      mstore\n      dup1\n      swap3\n      swap2\n      swap1\n      dup2\n      dup2\n      mstore\n      0x20\n      add\n      dup3\n      dup1\n      sload\n      tag_136\n      swap1\n      tag_130\n      jump\t// in\n    tag_136:\n      dup1\n      iszero\n      tag_137\n      jumpi\n      dup1\n      0x1f\n      lt\n      tag_138\n      jumpi\n      0x0100\n      dup1\n      dup4\n      sload\n      div\n      mul\n      dup4\n      mstore\n      swap2\n      0x20\n      add\n      swap2\n      jump(tag_137)\n    tag_138:\n      dup3\n      add\n      swap2\n      swap1\n      0x00\n      mstore\n      keccak256(0x00, 0x20)\n      swap1\n    tag_139:\n      dup2\n      sload\n      dup2\n      mstore\n      swap1\n      0x01\n      add\n      swap1\n      0x20\n      add\n      dup1\n      dup4\n      gt\n      tag_139\n      jumpi\n      dup3\n      swap1\n      sub\n      0x1f\n      and\n      dup3\n      add\n      swap2\n    tag_137:\n      pop\n      pop\n      pop\n      pop\n      pop\n      dup2\n      mstore\n      0x20\n      add\n      0x03\n      dup3\n      add\n      0x00\n      swap1\n      sload\n      swap1\n      0x0100\n      exp\n      swap1\n      div\n      0xff\n      and\n      0x02\n      dup2\n      gt\n      iszero\n      tag_140\n      jumpi\n      tag_141\n      tag_142\n      jump\t// in\n    tag_141:\n    tag_140:\n      0x02\n      dup2\n      gt\n      iszero\n      tag_143\n      jumpi\n      tag_144\n      tag_142\n      jump\t// in\n    tag_144:\n    tag_143:\n      dup2\n      mstore\n      0x20\n      add\n      0x04\n      dup3\n      add\n      sload\n      dup2\n      mstore\n      0x20\n      add\n      0x05\n      dup3\n      add\n      0x00\n      swap1\n      sload\n      swap1\n      0x0100\n      exp\n      swap1\n      div\n      0xffffffffffffffffffffffffffffffffffffffff\n      and\n      0xffffffffffffffffffffffffffffffffffffffff\n      and\n      0xffffffffffffffffffffffffffffffffffffffff\n      and\n      dup2\n      mstore\n      0x20\n      add\n      0x05\n      dup3\n      add\n      0x14\n      swap1\n      sload\n      swap1\n      0x0100\n      exp\n      swap1\n      div\n      0xff\n      and\n      iszero\n      iszero\n      iszero\n      iszero\n      dup2\n      mstore\n      0x20\n      add\n      0x06\n      dup3\n      add\n      sload\n      dup2\n      mstore\n      pop\n      pop\n        /* \"contracts/TaskManagement.sol\":9011:9021  tasksArray */\n      dup3\n        /* \"contracts/TaskManagement.sol\":9022:9023  i */\n      dup3\n        /* \"contracts/TaskManagement.sol\":9011:9024  tasksArray[i] */\n      dup2\n      mload\n      dup2\n      lt\n      tag_145\n      jumpi\n      tag_146\n      tag_147\n      jump\t// in\n    tag_146:\n    tag_145:\n      0x20\n      mul\n      0x20\n      add\n      add\n        /* \"contracts/TaskManagement.sol\":9011:9035  tasksArray[i] = tasks[i] */\n      dup2\n      swap1\n      mstore\n      pop\n        /* \"contracts/TaskManagement.sol\":8981:8984  i++ */\n      dup1\n      dup1\n      0x01\n      add\n      swap2\n      pop\n      pop\n        /* \"contracts/TaskManagement.sol\":8947:9047  for (uint i = 0; i < taskCounter; i++) ... */\n      jump(tag_126)\n    tag_127:\n      pop\n        /* \"contracts/TaskManagement.sol\":9066:9076  tasksArray */\n      dup1\n        /* \"contracts/TaskManagement.sol\":9059:9076  return tasksArray */\n      swap2\n      pop\n      pop\n        /* \"contracts/TaskManagement.sol\":8641:9084  function getTasks() onlyManager public view returns (Task[] memory) {... */\n      swap1\n      jump\t// out\n        /* \"contracts/TaskManagement.sol\":11398:11776  function verifyTaskDueDate(uint _id) public returns (bool) {... */\n    tag_33:\n        /* \"contracts/TaskManagement.sol\":11451:11455  bool */\n      0x00\n        /* \"contracts/TaskManagement.sol\":11510:11511  0 */\n      dup1\n        /* \"contracts/TaskManagement.sol\":11476:11512  dids[msg.sender].owner != address(0) */\n      0xffffffffffffffffffffffffffffffffffffffff\n      and\n        /* \"contracts/TaskManagement.sol\":11476:11480  dids */\n      0x00\n        /* \"contracts/TaskManagement.sol\":11476:11492  dids[msg.sender] */\n      dup1\n        /* \"contracts/TaskManagement.sol\":11481:11491  msg.sender */\n      caller\n        /* \"contracts/TaskManagement.sol\":11476:11492  dids[msg.sender] */\n      0xffffffffffffffffffffffffffffffffffffffff\n      and\n      0xffffffffffffffffffffffffffffffffffffffff\n      and\n      dup2\n      mstore\n      0x20\n      add\n      swap1\n      dup2\n      mstore\n      0x20\n      add\n      0x00\n      keccak256\n        /* \"contracts/TaskManagement.sol\":11476:11498  dids[msg.sender].owner */\n      0x01\n      add\n      0x00\n      swap1\n      sload\n      swap1\n      0x0100\n      exp\n      swap1\n      div\n      0xffffffffffffffffffffffffffffffffffffffff\n      and\n        /* \"contracts/TaskManagement.sol\":11476:11512  dids[msg.sender].owner != address(0) */\n      0xffffffffffffffffffffffffffffffffffffffff\n      and\n      sub\n        /* \"contracts/TaskManagement.sol\":11468:11555  require(dids[msg.sender].owner != address(0), \"No existing DID found for this address\") */\n      tag_149\n      jumpi\n      mload(0x40)\n      0x08c379a000000000000000000000000000000000000000000000000000000000\n      dup2\n      mstore\n      0x04\n      add\n      tag_150\n      swap1\n      tag_95\n      jump\t// in\n    tag_150:\n      mload(0x40)\n      dup1\n      swap2\n      sub\n      swap1\n      revert\n    tag_149:\n        /* \"contracts/TaskManagement.sol\":11607:11608  0 */\n      0x00\n        /* \"contracts/TaskManagement.sol\":11574:11609  tasks[_id].assignedTo != address(0) */\n      0xffffffffffffffffffffffffffffffffffffffff\n      and\n        /* \"contracts/TaskManagement.sol\":11574:11579  tasks */\n      0x05\n        /* \"contracts/TaskManagement.sol\":11574:11584  tasks[_id] */\n      0x00\n        /* \"contracts/TaskManagement.sol\":11580:11583  _id */\n      dup5\n        /* \"contracts/TaskManagement.sol\":11574:11584  tasks[_id] */\n      dup2\n      mstore\n      0x20\n      add\n      swap1\n      dup2\n      mstore\n      0x20\n      add\n      0x00\n      keccak256\n        /* \"contracts/TaskManagement.sol\":11574:11595  tasks[_id].assignedTo */\n      0x05\n      add\n      0x00\n      swap1\n      sload\n      swap1\n      0x0100\n      exp\n      swap1\n      div\n      0xffffffffffffffffffffffffffffffffffffffff\n      and\n        /* \"contracts/TaskManagement.sol\":11574:11609  tasks[_id].assignedTo != address(0) */\n      0xffffffffffffffffffffffffffffffffffffffff\n      and\n      sub\n        /* \"contracts/TaskManagement.sol\":11566:11628  require(tasks[_id].assignedTo != address(0), \"Task not found\") */\n      tag_151\n      jumpi\n      mload(0x40)\n      0x08c379a000000000000000000000000000000000000000000000000000000000\n      dup2\n      mstore\n      0x04\n      add\n      tag_152\n      swap1\n      tag_153\n      jump\t// in\n    tag_152:\n      mload(0x40)\n      dup1\n      swap2\n      sub\n      swap1\n      revert\n    tag_151:\n        /* \"contracts/TaskManagement.sol\":11641:11653  bool isValid */\n      0x00\n        /* \"contracts/TaskManagement.sol\":11677:11692  block.timestamp */\n      timestamp\n        /* \"contracts/TaskManagement.sol\":11656:11661  tasks */\n      0x05\n        /* \"contracts/TaskManagement.sol\":11656:11666  tasks[_id] */\n      0x00\n        /* \"contracts/TaskManagement.sol\":11662:11665  _id */\n      dup6\n        /* \"contracts/TaskManagement.sol\":11656:11666  tasks[_id] */\n      dup2\n      mstore\n      0x20\n      add\n      swap1\n      dup2\n      mstore\n      0x20\n      add\n      0x00\n      keccak256\n        /* \"contracts/TaskManagement.sol\":11656:11674  tasks[_id].dueDate */\n      0x04\n      add\n      sload\n        /* \"contracts/TaskManagement.sol\":11656:11692  tasks[_id].dueDate > block.timestamp */\n      gt\n        /* \"contracts/TaskManagement.sol\":11641:11692  bool isValid = tasks[_id].dueDate > block.timestamp */\n      swap1\n      pop\n        /* \"contracts/TaskManagement.sol\":11730:11733  _id */\n      dup3\n        /* \"contracts/TaskManagement.sol\":11710:11743  TaskDueDateVerified(_id, isValid) */\n      0x98839d14e1c6921e1109e3f12466427e93a0b41da8e46e903a23a78e3e471dcd\n        /* \"contracts/TaskManagement.sol\":11735:11742  isValid */\n      dup3\n        /* \"contracts/TaskManagement.sol\":11710:11743  TaskDueDateVerified(_id, isValid) */\n      mload(0x40)\n      tag_154\n      swap2\n      swap1\n      tag_35\n      jump\t// in\n    tag_154:\n      mload(0x40)\n      dup1\n      swap2\n      sub\n      swap1\n      log2\n        /* \"contracts/TaskManagement.sol\":11761:11768  isValid */\n      dup1\n        /* \"contracts/TaskManagement.sol\":11754:11768  return isValid */\n      swap2\n      pop\n      pop\n        /* \"contracts/TaskManagement.sol\":11398:11776  function verifyTaskDueDate(uint _id) public returns (bool) {... */\n      swap2\n      swap1\n      pop\n      jump\t// out\n        /* \"contracts/TaskManagement.sol\":10598:11008  function verifyTaskOwnership(uint _id, address _assignee) public returns (bool) {... */\n    tag_39:\n        /* \"contracts/TaskManagement.sol\":10672:10676  bool */\n      0x00\n        /* \"contracts/TaskManagement.sol\":10731:10732  0 */\n      dup1\n        /* \"contracts/TaskManagement.sol\":10697:10733  dids[msg.sender].owner != address(0) */\n      0xffffffffffffffffffffffffffffffffffffffff\n      and\n        /* \"contracts/TaskManagement.sol\":10697:10701  dids */\n      0x00\n        /* \"contracts/TaskManagement.sol\":10697:10713  dids[msg.sender] */\n      dup1\n        /* \"contracts/TaskManagement.sol\":10702:10712  msg.sender */\n      caller\n        /* \"contracts/TaskManagement.sol\":10697:10713  dids[msg.sender] */\n      0xffffffffffffffffffffffffffffffffffffffff\n      and\n      0xffffffffffffffffffffffffffffffffffffffff\n      and\n      dup2\n      mstore\n      0x20\n      add\n      swap1\n      dup2\n      mstore\n      0x20\n      add\n      0x00\n      keccak256\n        /* \"contracts/TaskManagement.sol\":10697:10719  dids[msg.sender].owner */\n      0x01\n      add\n      0x00\n      swap1\n      sload\n      swap1\n      0x0100\n      exp\n      swap1\n      div\n      0xffffffffffffffffffffffffffffffffffffffff\n      and\n        /* \"contracts/TaskManagement.sol\":10697:10733  dids[msg.sender].owner != address(0) */\n      0xffffffffffffffffffffffffffffffffffffffff\n      and\n      sub\n        /* \"contracts/TaskManagement.sol\":10689:10776  require(dids[msg.sender].owner != address(0), \"No existing DID found for this address\") */\n      tag_156\n      jumpi\n      mload(0x40)\n      0x08c379a000000000000000000000000000000000000000000000000000000000\n      dup2\n      mstore\n      0x04\n      add\n      tag_157\n      swap1\n      tag_95\n      jump\t// in\n    tag_157:\n      mload(0x40)\n      dup1\n      swap2\n      sub\n      swap1\n      revert\n    tag_156:\n        /* \"contracts/TaskManagement.sol\":10828:10829  0 */\n      0x00\n        /* \"contracts/TaskManagement.sol\":10795:10830  tasks[_id].assignedTo != address(0) */\n      0xffffffffffffffffffffffffffffffffffffffff\n      and\n        /* \"contracts/TaskManagement.sol\":10795:10800  tasks */\n      0x05\n        /* \"contracts/TaskManagement.sol\":10795:10805  tasks[_id] */\n      0x00\n        /* \"contracts/TaskManagement.sol\":10801:10804  _id */\n      dup6\n        /* \"contracts/TaskManagement.sol\":10795:10805  tasks[_id] */\n      dup2\n      mstore\n      0x20\n      add\n      swap1\n      dup2\n      mstore\n      0x20\n      add\n      0x00\n      keccak256\n        /* \"contracts/TaskManagement.sol\":10795:10816  tasks[_id].assignedTo */\n      0x05\n      add\n      0x00\n      swap1\n      sload\n      swap1\n      0x0100\n      exp\n      swap1\n      div\n      0xffffffffffffffffffffffffffffffffffffffff\n      and\n        /* \"contracts/TaskManagement.sol\":10795:10830  tasks[_id].assignedTo != address(0) */\n      0xffffffffffffffffffffffffffffffffffffffff\n      and\n      sub\n        /* \"contracts/TaskManagement.sol\":10787:10849  require(tasks[_id].assignedTo != address(0), \"Task not found\") */\n      tag_158\n      jumpi\n      mload(0x40)\n      0x08c379a000000000000000000000000000000000000000000000000000000000\n      dup2\n      mstore\n      0x04\n      add\n      tag_159\n      swap1\n      tag_153\n      jump\t// in\n    tag_159:\n      mload(0x40)\n      dup1\n      swap2\n      sub\n      swap1\n      revert\n    tag_158:\n        /* \"contracts/TaskManagement.sol\":10862:10874  bool isOwner */\n      0x00\n        /* \"contracts/TaskManagement.sol\":10902:10911  _assignee */\n      dup3\n        /* \"contracts/TaskManagement.sol\":10877:10911  tasks[_id].assignedTo == _assignee */\n      0xffffffffffffffffffffffffffffffffffffffff\n      and\n        /* \"contracts/TaskManagement.sol\":10877:10882  tasks */\n      0x05\n        /* \"contracts/TaskManagement.sol\":10877:10887  tasks[_id] */\n      0x00\n        /* \"contracts/TaskManagement.sol\":10883:10886  _id */\n      dup7\n        /* \"contracts/TaskManagement.sol\":10877:10887  tasks[_id] */\n      dup2\n      mstore\n      0x20\n      add\n      swap1\n      dup2\n      mstore\n      0x20\n      add\n      0x00\n      keccak256\n        /* \"contracts/TaskManagement.sol\":10877:10898  tasks[_id].assignedTo */\n      0x05\n      add\n      0x00\n      swap1\n      sload\n      swap1\n      0x0100\n      exp\n      swap1\n      div\n      0xffffffffffffffffffffffffffffffffffffffff\n      and\n        /* \"contracts/TaskManagement.sol\":10877:10911  tasks[_id].assignedTo == _assignee */\n      0xffffffffffffffffffffffffffffffffffffffff\n      and\n      eq\n        /* \"contracts/TaskManagement.sol\":10862:10911  bool isOwner = tasks[_id].assignedTo == _assignee */\n      swap1\n      pop\n        /* \"contracts/TaskManagement.sol\":10951:10954  _id */\n      dup4\n        /* \"contracts/TaskManagement.sol\":10929:10975  TaskOwnershipVerified(_id, _assignee, isOwner) */\n      0xde182422c60d08a3e491f609a62a1a48fa3876e4cbb962eb9c194de3000951a5\n        /* \"contracts/TaskManagement.sol\":10956:10965  _assignee */\n      dup5\n        /* \"contracts/TaskManagement.sol\":10967:10974  isOwner */\n      dup4\n        /* \"contracts/TaskManagement.sol\":10929:10975  TaskOwnershipVerified(_id, _assignee, isOwner) */\n      mload(0x40)\n      tag_160\n      swap3\n      swap2\n      swap1\n      tag_161\n      jump\t// in\n    tag_160:\n      mload(0x40)\n      dup1\n      swap2\n      sub\n      swap1\n      log2\n        /* \"contracts/TaskManagement.sol\":10993:11000  isOwner */\n      dup1\n        /* \"contracts/TaskManagement.sol\":10986:11000  return isOwner */\n      swap2\n      pop\n      pop\n        /* \"contracts/TaskManagement.sol\":10598:11008  function verifyTaskOwnership(uint _id, address _assignee) public returns (bool) {... */\n      swap3\n      swap2\n      pop\n      pop\n      jump\t// out\n        /* \"contracts/TaskManagement.sol\":2795:3508  function updateDID(string memory _newIdentifier) public {... */\n    tag_44:\n        /* \"contracts/TaskManagement.sol\":2901:2902  0 */\n      0x00\n        /* \"contracts/TaskManagement.sol\":2876:2890  _newIdentifier */\n      dup2\n        /* \"contracts/TaskManagement.sol\":2870:2898  bytes(_newIdentifier).length */\n      mload\n        /* \"contracts/TaskManagement.sol\":2870:2902  bytes(_newIdentifier).length > 0 */\n      gt\n        /* \"contracts/TaskManagement.sol\":2862:2937  require(bytes(_newIdentifier).length > 0, \"New identifier cannot be empty\") */\n      tag_163\n      jumpi\n      mload(0x40)\n      0x08c379a000000000000000000000000000000000000000000000000000000000\n      dup2\n      mstore\n      0x04\n      add\n      tag_164\n      swap1\n      tag_165\n      jump\t// in\n    tag_164:\n      mload(0x40)\n      dup1\n      swap2\n      sub\n      swap1\n      revert\n    tag_163:\n        /* \"contracts/TaskManagement.sol\":2990:2991  0 */\n      0x00\n        /* \"contracts/TaskManagement.sol\":2956:2992  dids[msg.sender].owner != address(0) */\n      0xffffffffffffffffffffffffffffffffffffffff\n      and\n        /* \"contracts/TaskManagement.sol\":2956:2960  dids */\n      0x00\n        /* \"contracts/TaskManagement.sol\":2956:2972  dids[msg.sender] */\n      dup1\n        /* \"contracts/TaskManagement.sol\":2961:2971  msg.sender */\n      caller\n        /* \"contracts/TaskManagement.sol\":2956:2972  dids[msg.sender] */\n      0xffffffffffffffffffffffffffffffffffffffff\n      and\n      0xffffffffffffffffffffffffffffffffffffffff\n      and\n      dup2\n      mstore\n      0x20\n      add\n      swap1\n      dup2\n      mstore\n      0x20\n      add\n      0x00\n      keccak256\n        /* \"contracts/TaskManagement.sol\":2956:2978  dids[msg.sender].owner */\n      0x01\n      add\n      0x00\n      swap1\n      sload\n      swap1\n      0x0100\n      exp\n      swap1\n      div\n      0xffffffffffffffffffffffffffffffffffffffff\n      and\n        /* \"contracts/TaskManagement.sol\":2956:2992  dids[msg.sender].owner != address(0) */\n      0xffffffffffffffffffffffffffffffffffffffff\n      and\n      sub\n        /* \"contracts/TaskManagement.sol\":2948:3035  require(dids[msg.sender].owner != address(0), \"No existing DID found for this address\") */\n      tag_166\n      jumpi\n      mload(0x40)\n      0x08c379a000000000000000000000000000000000000000000000000000000000\n      dup2\n      mstore\n      0x04\n      add\n      tag_167\n      swap1\n      tag_95\n      jump\t// in\n    tag_167:\n      mload(0x40)\n      dup1\n      swap2\n      sub\n      swap1\n      revert\n    tag_166:\n        /* \"contracts/TaskManagement.sol\":3124:3151  string memory oldIdentifier */\n      0x00\n        /* \"contracts/TaskManagement.sol\":3154:3162  getDID() */\n      tag_168\n        /* \"contracts/TaskManagement.sol\":3154:3160  getDID */\n      tag_71\n        /* \"contracts/TaskManagement.sol\":3154:3162  getDID() */\n      jump\t// in\n    tag_168:\n        /* \"contracts/TaskManagement.sol\":3124:3162  string memory oldIdentifier = getDID() */\n      swap1\n      pop\n        /* \"contracts/TaskManagement.sol\":3232:3246  _newIdentifier */\n      dup2\n        /* \"contracts/TaskManagement.sol\":3216:3248  keccak256(bytes(_newIdentifier)) */\n      dup1\n      mload\n      swap1\n      0x20\n      add\n      keccak256\n        /* \"contracts/TaskManagement.sol\":3197:3210  oldIdentifier */\n      dup2\n        /* \"contracts/TaskManagement.sol\":3181:3212  keccak256(bytes(oldIdentifier)) */\n      dup1\n      mload\n      swap1\n      0x20\n      add\n      keccak256\n        /* \"contracts/TaskManagement.sol\":3181:3248  keccak256(bytes(oldIdentifier)) != keccak256(bytes(_newIdentifier)) */\n      sub\n        /* \"contracts/TaskManagement.sol\":3173:3275  require(keccak256(bytes(oldIdentifier)) != keccak256(bytes(_newIdentifier)), \"Invalid new identifier\") */\n      tag_169\n      jumpi\n      mload(0x40)\n      0x08c379a000000000000000000000000000000000000000000000000000000000\n      dup2\n      mstore\n      0x04\n      add\n      tag_170\n      swap1\n      tag_171\n      jump\t// in\n    tag_170:\n      mload(0x40)\n      dup1\n      swap2\n      sub\n      swap1\n      revert\n    tag_169:\n        /* \"contracts/TaskManagement.sol\":3377:3391  _newIdentifier */\n      dup2\n        /* \"contracts/TaskManagement.sol\":3347:3351  dids */\n      0x00\n        /* \"contracts/TaskManagement.sol\":3347:3363  dids[msg.sender] */\n      dup1\n        /* \"contracts/TaskManagement.sol\":3352:3362  msg.sender */\n      caller\n        /* \"contracts/TaskManagement.sol\":3347:3363  dids[msg.sender] */\n      0xffffffffffffffffffffffffffffffffffffffff\n      and\n      0xffffffffffffffffffffffffffffffffffffffff\n      and\n      dup2\n      mstore\n      0x20\n      add\n      swap1\n      dup2\n      mstore\n      0x20\n      add\n      0x00\n      keccak256\n        /* \"contracts/TaskManagement.sol\":3347:3374  dids[msg.sender].identifier */\n      0x00\n      add\n        /* \"contracts/TaskManagement.sol\":3347:3391  dids[msg.sender].identifier = _newIdentifier */\n      swap1\n      dup2\n      tag_172\n      swap2\n      swap1\n      tag_103\n      jump\t// in\n    tag_172:\n      pop\n        /* \"contracts/TaskManagement.sol\":3473:3483  msg.sender */\n      caller\n        /* \"contracts/TaskManagement.sol\":3462:3500  DIDCreated(msg.sender, _newIdentifier) */\n      0xffffffffffffffffffffffffffffffffffffffff\n      and\n      0x1b7934654ba536b6962955e057ce42885353bbaad8c605a5ce0678e632f28410\n        /* \"contracts/TaskManagement.sol\":3485:3499  _newIdentifier */\n      dup4\n        /* \"contracts/TaskManagement.sol\":3462:3500  DIDCreated(msg.sender, _newIdentifier) */\n      mload(0x40)\n      tag_173\n      swap2\n      swap1\n      tag_73\n      jump\t// in\n    tag_173:\n      mload(0x40)\n      dup1\n      swap2\n      sub\n      swap1\n      log2\n        /* \"contracts/TaskManagement.sol\":2851:3508  {... */\n      pop\n        /* \"contracts/TaskManagement.sol\":2795:3508  function updateDID(string memory _newIdentifier) public {... */\n      pop\n      jump\t// out\n        /* \"contracts/TaskManagement.sol\":9641:10088  function getTask(uint _id) public view returns (... */\n    tag_47:\n        /* \"contracts/TaskManagement.sol\":9699:9710  Task memory */\n      tag_174\n      tag_125\n      jump\t// in\n    tag_174:\n        /* \"contracts/TaskManagement.sol\":9771:9772  0 */\n      0x00\n        /* \"contracts/TaskManagement.sol\":9737:9773  dids[msg.sender].owner != address(0) */\n      0xffffffffffffffffffffffffffffffffffffffff\n      and\n        /* \"contracts/TaskManagement.sol\":9737:9741  dids */\n      0x00\n        /* \"contracts/TaskManagement.sol\":9737:9753  dids[msg.sender] */\n      dup1\n        /* \"contracts/TaskManagement.sol\":9742:9752  msg.sender */\n      caller\n        /* \"contracts/TaskManagement.sol\":9737:9753  dids[msg.sender] */\n      0xffffffffffffffffffffffffffffffffffffffff\n      and\n      0xffffffffffffffffffffffffffffffffffffffff\n      and\n      dup2\n      mstore\n      0x20\n      add\n      swap1\n      dup2\n      mstore\n      0x20\n      add\n      0x00\n      keccak256\n        /* \"contracts/TaskManagement.sol\":9737:9759  dids[msg.sender].owner */\n      0x01\n      add\n      0x00\n      swap1\n      sload\n      swap1\n      0x0100\n      exp\n      swap1\n      div\n      0xffffffffffffffffffffffffffffffffffffffff\n      and\n        /* \"contracts/TaskManagement.sol\":9737:9773  dids[msg.sender].owner != address(0) */\n      0xffffffffffffffffffffffffffffffffffffffff\n      and\n      sub\n        /* \"contracts/TaskManagement.sol\":9729:9816  require(dids[msg.sender].owner != address(0), \"No existing DID found for this address\") */\n      tag_176\n      jumpi\n      mload(0x40)\n      0x08c379a000000000000000000000000000000000000000000000000000000000\n      dup2\n      mstore\n      0x04\n      add\n      tag_177\n      swap1\n      tag_95\n      jump\t// in\n    tag_177:\n      mload(0x40)\n      dup1\n      swap2\n      sub\n      swap1\n      revert\n    tag_176:\n        /* \"contracts/TaskManagement.sol\":9868:9869  0 */\n      0x00\n        /* \"contracts/TaskManagement.sol\":9835:9870  tasks[_id].assignedTo != address(0) */\n      0xffffffffffffffffffffffffffffffffffffffff\n      and\n        /* \"contracts/TaskManagement.sol\":9835:9840  tasks */\n      0x05\n        /* \"contracts/TaskManagement.sol\":9835:9845  tasks[_id] */\n      0x00\n        /* \"contracts/TaskManagement.sol\":9841:9844  _id */\n      dup5\n        /* \"contracts/TaskManagement.sol\":9835:9845  tasks[_id] */\n      dup2\n      mstore\n      0x20\n      add\n      swap1\n      dup2\n      mstore\n      0x20\n      add\n      0x00\n      keccak256\n        /* \"contracts/TaskManagement.sol\":9835:9856  tasks[_id].assignedTo */\n      0x05\n      add\n      0x00\n      swap1\n      sload\n      swap1\n      0x0100\n      exp\n      swap1\n      div\n      0xffffffffffffffffffffffffffffffffffffffff\n      and\n        /* \"contracts/TaskManagement.sol\":9835:9870  tasks[_id].assignedTo != address(0) */\n      0xffffffffffffffffffffffffffffffffffffffff\n      and\n      sub\n        /* \"contracts/TaskManagement.sol\":9827:9889  require(tasks[_id].assignedTo != address(0), \"Task not found\") */\n      tag_178\n      jumpi\n      mload(0x40)\n      0x08c379a000000000000000000000000000000000000000000000000000000000\n      dup2\n      mstore\n      0x04\n      add\n      tag_179\n      swap1\n      tag_153\n      jump\t// in\n    tag_179:\n      mload(0x40)\n      dup1\n      swap2\n      sub\n      swap1\n      revert\n    tag_178:\n        /* \"contracts/TaskManagement.sol\":9922:9927  tasks */\n      0x05\n        /* \"contracts/TaskManagement.sol\":9922:9932  tasks[_id] */\n      0x00\n        /* \"contracts/TaskManagement.sol\":9928:9931  _id */\n      dup4\n        /* \"contracts/TaskManagement.sol\":9922:9932  tasks[_id] */\n      dup2\n      mstore\n      0x20\n      add\n      swap1\n      dup2\n      mstore\n      0x20\n      add\n      0x00\n      keccak256\n        /* \"contracts/TaskManagement.sol\":9922:9943  tasks[_id].assignedTo */\n      0x05\n      add\n      0x00\n      swap1\n      sload\n      swap1\n      0x0100\n      exp\n      swap1\n      div\n      0xffffffffffffffffffffffffffffffffffffffff\n      and\n        /* \"contracts/TaskManagement.sol\":9908:9943  msg.sender == tasks[_id].assignedTo */\n      0xffffffffffffffffffffffffffffffffffffffff\n      and\n        /* \"contracts/TaskManagement.sol\":9908:9918  msg.sender */\n      caller\n        /* \"contracts/TaskManagement.sol\":9908:9943  msg.sender == tasks[_id].assignedTo */\n      0xffffffffffffffffffffffffffffffffffffffff\n      and\n      eq\n        /* \"contracts/TaskManagement.sol\":9908:10031  msg.sender == tasks[_id].assignedTo || ... */\n      dup1\n      tag_180\n      jumpi\n      pop\n        /* \"contracts/TaskManagement.sol\":10014:10030  bytes(\"manager\") */\n      mload(0x40)\n      dup1\n      0x40\n      add\n      0x40\n      mstore\n      dup1\n      0x07\n      dup2\n      mstore\n      0x20\n      add\n      0x6d616e6167657200000000000000000000000000000000000000000000000000\n      dup2\n      mstore\n      pop\n        /* \"contracts/TaskManagement.sol\":10004:10031  keccak256(bytes(\"manager\")) */\n      dup1\n      mload\n      swap1\n      0x20\n      add\n      keccak256\n        /* \"contracts/TaskManagement.sol\":9981:9986  roles */\n      0x01\n        /* \"contracts/TaskManagement.sol\":9981:9998  roles[msg.sender] */\n      0x00\n        /* \"contracts/TaskManagement.sol\":9987:9997  msg.sender */\n      caller\n        /* \"contracts/TaskManagement.sol\":9981:9998  roles[msg.sender] */\n      0xffffffffffffffffffffffffffffffffffffffff\n      and\n      0xffffffffffffffffffffffffffffffffffffffff\n      and\n      dup2\n      mstore\n      0x20\n      add\n      swap1\n      dup2\n      mstore\n      0x20\n      add\n      0x00\n      keccak256\n        /* \"contracts/TaskManagement.sol\":9965:10000  keccak256(bytes(roles[msg.sender])) */\n      mload(0x40)\n      tag_181\n      swap2\n      swap1\n      tag_88\n      jump\t// in\n    tag_181:\n      mload(0x40)\n      dup1\n      swap2\n      sub\n      swap1\n      keccak256\n        /* \"contracts/TaskManagement.sol\":9965:10031  keccak256(bytes(roles[msg.sender])) == keccak256(bytes(\"manager\")) */\n      eq\n        /* \"contracts/TaskManagement.sol\":9908:10031  msg.sender == tasks[_id].assignedTo || ... */\n    tag_180:\n        /* \"contracts/TaskManagement.sol\":9900:10050  require(msg.sender == tasks[_id].assignedTo || ... */\n      tag_182\n      jumpi\n      mload(0x40)\n      0x08c379a000000000000000000000000000000000000000000000000000000000\n      dup2\n      mstore\n      0x04\n      add\n      tag_183\n      swap1\n      tag_184\n      jump\t// in\n    tag_183:\n      mload(0x40)\n      dup1\n      swap2\n      sub\n      swap1\n      revert\n    tag_182:\n        /* \"contracts/TaskManagement.sol\":10070:10075  tasks */\n      0x05\n        /* \"contracts/TaskManagement.sol\":10070:10080  tasks[_id] */\n      0x00\n        /* \"contracts/TaskManagement.sol\":10076:10079  _id */\n      dup4\n        /* \"contracts/TaskManagement.sol\":10070:10080  tasks[_id] */\n      dup2\n      mstore\n      0x20\n      add\n      swap1\n      dup2\n      mstore\n      0x20\n      add\n      0x00\n      keccak256\n        /* \"contracts/TaskManagement.sol\":10063:10080  return tasks[_id] */\n      mload(0x40)\n      dup1\n      0x0100\n      add\n      0x40\n      mstore\n      swap1\n      dup2\n      0x00\n      dup3\n      add\n      sload\n      dup2\n      mstore\n      0x20\n      add\n      0x01\n      dup3\n      add\n      dup1\n      sload\n      tag_185\n      swap1\n      tag_130\n      jump\t// in\n    tag_185:\n      dup1\n      0x1f\n      add\n      0x20\n      dup1\n      swap2\n      div\n      mul\n      0x20\n      add\n      mload(0x40)\n      swap1\n      dup2\n      add\n      0x40\n      mstore\n      dup1\n      swap3\n      swap2\n      swap1\n      dup2\n      dup2\n      mstore\n      0x20\n      add\n      dup3\n      dup1\n      sload\n      tag_186\n      swap1\n      tag_130\n      jump\t// in\n    tag_186:\n      dup1\n      iszero\n      tag_187\n      jumpi\n      dup1\n      0x1f\n      lt\n      tag_188\n      jumpi\n      0x0100\n      dup1\n      dup4\n      sload\n      div\n      mul\n      dup4\n      mstore\n      swap2\n      0x20\n      add\n      swap2\n      jump(tag_187)\n    tag_188:\n      dup3\n      add\n      swap2\n      swap1\n      0x00\n      mstore\n      keccak256(0x00, 0x20)\n      swap1\n    tag_189:\n      dup2\n      sload\n      dup2\n      mstore\n      swap1\n      0x01\n      add\n      swap1\n      0x20\n      add\n      dup1\n      dup4\n      gt\n      tag_189\n      jumpi\n      dup3\n      swap1\n      sub\n      0x1f\n      and\n      dup3\n      add\n      swap2\n    tag_187:\n      pop\n      pop\n      pop\n      pop\n      pop\n      dup2\n      mstore\n      0x20\n      add\n      0x02\n      dup3\n      add\n      dup1\n      sload\n      tag_190\n      swap1\n      tag_130\n      jump\t// in\n    tag_190:\n      dup1\n      0x1f\n      add\n      0x20\n      dup1\n      swap2\n      div\n      mul\n      0x20\n      add\n      mload(0x40)\n      swap1\n      dup2\n      add\n      0x40\n      mstore\n      dup1\n      swap3\n      swap2\n      swap1\n      dup2\n      dup2\n      mstore\n      0x20\n      add\n      dup3\n      dup1\n      sload\n      tag_191\n      swap1\n      tag_130\n      jump\t// in\n    tag_191:\n      dup1\n      iszero\n      tag_192\n      jumpi\n      dup1\n      0x1f\n      lt\n      tag_193\n      jumpi\n      0x0100\n      dup1\n      dup4\n      sload\n      div\n      mul\n      dup4\n      mstore\n      swap2\n      0x20\n      add\n      swap2\n      jump(tag_192)\n    tag_193:\n      dup3\n      add\n      swap2\n      swap1\n      0x00\n      mstore\n      keccak256(0x00, 0x20)\n      swap1\n    tag_194:\n      dup2\n      sload\n      dup2\n      mstore\n      swap1\n      0x01\n      add\n      swap1\n      0x20\n      add\n      dup1\n      dup4\n      gt\n      tag_194\n      jumpi\n      dup3\n      swap1\n      sub\n      0x1f\n      and\n      dup3\n      add\n      swap2\n    tag_192:\n      pop\n      pop\n      pop\n      pop\n      pop\n      dup2\n      mstore\n      0x20\n      add\n      0x03\n      dup3\n      add\n      0x00\n      swap1\n      sload\n      swap1\n      0x0100\n      exp\n      swap1\n      div\n      0xff\n      and\n      0x02\n      dup2\n      gt\n      iszero\n      tag_195\n      jumpi\n      tag_196\n      tag_142\n      jump\t// in\n    tag_196:\n    tag_195:\n      0x02\n      dup2\n      gt\n      iszero\n      tag_197\n      jumpi\n      tag_198\n      tag_142\n      jump\t// in\n    tag_198:\n    tag_197:\n      dup2\n      mstore\n      0x20\n      add\n      0x04\n      dup3\n      add\n      sload\n      dup2\n      mstore\n      0x20\n      add\n      0x05\n      dup3\n      add\n      0x00\n      swap1\n      sload\n      swap1\n      0x0100\n      exp\n      swap1\n      div\n      0xffffffffffffffffffffffffffffffffffffffff\n      and\n      0xffffffffffffffffffffffffffffffffffffffff\n      and\n      0xffffffffffffffffffffffffffffffffffffffff\n      and\n      dup2\n      mstore\n      0x20\n      add\n      0x05\n      dup3\n      add\n      0x14\n      swap1\n      sload\n      swap1\n      0x0100\n      exp\n      swap1\n      div\n      0xff\n      and\n      iszero\n      iszero\n      iszero\n      iszero\n      dup2\n      mstore\n      0x20\n      add\n      0x06\n      dup3\n      add\n      sload\n      dup2\n      mstore\n      pop\n      pop\n      swap1\n      pop\n        /* \"contracts/TaskManagement.sol\":9641:10088  function getTask(uint _id) public view returns (... */\n      swap2\n      swap1\n      pop\n      jump\t// out\n        /* \"contracts/TaskManagement.sol\":9130:9633  function getUserTasks() public view returns (Task[] memory) {... */\n    tag_51:\n        /* \"contracts/TaskManagement.sol\":9175:9188  Task[] memory */\n      0x60\n        /* \"contracts/TaskManagement.sol\":9243:9244  0 */\n      0x00\n        /* \"contracts/TaskManagement.sol\":9209:9245  dids[msg.sender].owner != address(0) */\n      0xffffffffffffffffffffffffffffffffffffffff\n      and\n        /* \"contracts/TaskManagement.sol\":9209:9213  dids */\n      0x00\n        /* \"contracts/TaskManagement.sol\":9209:9225  dids[msg.sender] */\n      dup1\n        /* \"contracts/TaskManagement.sol\":9214:9224  msg.sender */\n      caller\n        /* \"contracts/TaskManagement.sol\":9209:9225  dids[msg.sender] */\n      0xffffffffffffffffffffffffffffffffffffffff\n      and\n      0xffffffffffffffffffffffffffffffffffffffff\n      and\n      dup2\n      mstore\n      0x20\n      add\n      swap1\n      dup2\n      mstore\n      0x20\n      add\n      0x00\n      keccak256\n        /* \"contracts/TaskManagement.sol\":9209:9231  dids[msg.sender].owner */\n      0x01\n      add\n      0x00\n      swap1\n      sload\n      swap1\n      0x0100\n      exp\n      swap1\n      div\n      0xffffffffffffffffffffffffffffffffffffffff\n      and\n        /* \"contracts/TaskManagement.sol\":9209:9245  dids[msg.sender].owner != address(0) */\n      0xffffffffffffffffffffffffffffffffffffffff\n      and\n      sub\n        /* \"contracts/TaskManagement.sol\":9201:9288  require(dids[msg.sender].owner != address(0), \"No existing DID found for this address\") */\n      tag_200\n      jumpi\n      mload(0x40)\n      0x08c379a000000000000000000000000000000000000000000000000000000000\n      dup2\n      mstore\n      0x04\n      add\n      tag_201\n      swap1\n      tag_95\n      jump\t// in\n    tag_201:\n      mload(0x40)\n      dup1\n      swap2\n      sub\n      swap1\n      revert\n    tag_200:\n        /* \"contracts/TaskManagement.sol\":9301:9322  uint[] memory taskIds */\n      0x00\n        /* \"contracts/TaskManagement.sol\":9325:9334  userTasks */\n      0x06\n        /* \"contracts/TaskManagement.sol\":9325:9346  userTasks[msg.sender] */\n      0x00\n        /* \"contracts/TaskManagement.sol\":9335:9345  msg.sender */\n      caller\n        /* \"contracts/TaskManagement.sol\":9325:9346  userTasks[msg.sender] */\n      0xffffffffffffffffffffffffffffffffffffffff\n      and\n      0xffffffffffffffffffffffffffffffffffffffff\n      and\n      dup2\n      mstore\n      0x20\n      add\n      swap1\n      dup2\n      mstore\n      0x20\n      add\n      0x00\n      keccak256\n        /* \"contracts/TaskManagement.sol\":9301:9346  uint[] memory taskIds = userTasks[msg.sender] */\n      dup1\n      sload\n      dup1\n      0x20\n      mul\n      0x20\n      add\n      mload(0x40)\n      swap1\n      dup2\n      add\n      0x40\n      mstore\n      dup1\n      swap3\n      swap2\n      swap1\n      dup2\n      dup2\n      mstore\n      0x20\n      add\n      dup3\n      dup1\n      sload\n      dup1\n      iszero\n      tag_202\n      jumpi\n      0x20\n      mul\n      dup3\n      add\n      swap2\n      swap1\n      0x00\n      mstore\n      keccak256(0x00, 0x20)\n      swap1\n    tag_203:\n      dup2\n      sload\n      dup2\n      mstore\n      0x20\n      add\n      swap1\n      0x01\n      add\n      swap1\n      dup1\n      dup4\n      gt\n      tag_203\n      jumpi\n    tag_202:\n      pop\n      pop\n      pop\n      pop\n      pop\n      swap1\n      pop\n        /* \"contracts/TaskManagement.sol\":9382:9383  0 */\n      0x00\n        /* \"contracts/TaskManagement.sol\":9365:9372  taskIds */\n      dup2\n        /* \"contracts/TaskManagement.sol\":9365:9379  taskIds.length */\n      mload\n        /* \"contracts/TaskManagement.sol\":9365:9383  taskIds.length > 0 */\n      gt\n        /* \"contracts/TaskManagement.sol\":9357:9405  require(taskIds.length > 0, \"You have no tasks\") */\n      tag_204\n      jumpi\n      mload(0x40)\n      0x08c379a000000000000000000000000000000000000000000000000000000000\n      dup2\n      mstore\n      0x04\n      add\n      tag_205\n      swap1\n      tag_206\n      jump\t// in\n    tag_205:\n      mload(0x40)\n      dup1\n      swap2\n      sub\n      swap1\n      revert\n    tag_204:\n        /* \"contracts/TaskManagement.sol\":9418:9446  Task[] memory userTasksArray */\n      0x00\n        /* \"contracts/TaskManagement.sol\":9460:9467  taskIds */\n      dup2\n        /* \"contracts/TaskManagement.sol\":9460:9474  taskIds.length */\n      mload\n        /* \"contracts/TaskManagement.sol\":9449:9475  new Task[](taskIds.length) */\n      0xffffffffffffffff\n      dup2\n      gt\n      iszero\n      tag_207\n      jumpi\n      tag_208\n      tag_121\n      jump\t// in\n    tag_208:\n    tag_207:\n      mload(0x40)\n      swap1\n      dup1\n      dup3\n      mstore\n      dup1\n      0x20\n      mul\n      0x20\n      add\n      dup3\n      add\n      0x40\n      mstore\n      dup1\n      iszero\n      tag_209\n      jumpi\n      dup2\n      0x20\n      add\n    tag_210:\n      tag_211\n      tag_125\n      jump\t// in\n    tag_211:\n      dup2\n      mstore\n      0x20\n      add\n      swap1\n      0x01\n      swap1\n      sub\n      swap1\n      dup2\n      tag_210\n      jumpi\n      swap1\n      pop\n    tag_209:\n      pop\n        /* \"contracts/TaskManagement.sol\":9418:9475  Task[] memory userTasksArray = new Task[](taskIds.length) */\n      swap1\n      pop\n        /* \"contracts/TaskManagement.sol\":9491:9497  uint i */\n      0x00\n        /* \"contracts/TaskManagement.sol\":9486:9592  for (uint i = 0; i < taskIds.length; i++) {... */\n    tag_212:\n        /* \"contracts/TaskManagement.sol\":9507:9514  taskIds */\n      dup3\n        /* \"contracts/TaskManagement.sol\":9507:9521  taskIds.length */\n      mload\n        /* \"contracts/TaskManagement.sol\":9503:9504  i */\n      dup2\n        /* \"contracts/TaskManagement.sol\":9503:9521  i < taskIds.length */\n      lt\n        /* \"contracts/TaskManagement.sol\":9486:9592  for (uint i = 0; i < taskIds.length; i++) {... */\n      iszero\n      tag_213\n      jumpi\n        /* \"contracts/TaskManagement.sol\":9563:9568  tasks */\n      0x05\n        /* \"contracts/TaskManagement.sol\":9563:9580  tasks[taskIds[i]] */\n      0x00\n        /* \"contracts/TaskManagement.sol\":9569:9576  taskIds */\n      dup5\n        /* \"contracts/TaskManagement.sol\":9577:9578  i */\n      dup4\n        /* \"contracts/TaskManagement.sol\":9569:9579  taskIds[i] */\n      dup2\n      mload\n      dup2\n      lt\n      tag_215\n      jumpi\n      tag_216\n      tag_147\n      jump\t// in\n    tag_216:\n    tag_215:\n      0x20\n      mul\n      0x20\n      add\n      add\n      mload\n        /* \"contracts/TaskManagement.sol\":9563:9580  tasks[taskIds[i]] */\n      dup2\n      mstore\n      0x20\n      add\n      swap1\n      dup2\n      mstore\n      0x20\n      add\n      0x00\n      keccak256\n        /* \"contracts/TaskManagement.sol\":9543:9580  userTasksArray[i] = tasks[taskIds[i]] */\n      mload(0x40)\n      dup1\n      0x0100\n      add\n      0x40\n      mstore\n      swap1\n      dup2\n      0x00\n      dup3\n      add\n      sload\n      dup2\n      mstore\n      0x20\n      add\n      0x01\n      dup3\n      add\n      dup1\n      sload\n      tag_217\n      swap1\n      tag_130\n      jump\t// in\n    tag_217:\n      dup1\n      0x1f\n      add\n      0x20\n      dup1\n      swap2\n      div\n      mul\n      0x20\n      add\n      mload(0x40)\n      swap1\n      dup2\n      add\n      0x40\n      mstore\n      dup1\n      swap3\n      swap2\n      swap1\n      dup2\n      dup2\n      mstore\n      0x20\n      add\n      dup3\n      dup1\n      sload\n      tag_218\n      swap1\n      tag_130\n      jump\t// in\n    tag_218:\n      dup1\n      iszero\n      tag_219\n      jumpi\n      dup1\n      0x1f\n      lt\n      tag_220\n      jumpi\n      0x0100\n      dup1\n      dup4\n      sload\n      div\n      mul\n      dup4\n      mstore\n      swap2\n      0x20\n      add\n      swap2\n      jump(tag_219)\n    tag_220:\n      dup3\n      add\n      swap2\n      swap1\n      0x00\n      mstore\n      keccak256(0x00, 0x20)\n      swap1\n    tag_221:\n      dup2\n      sload\n      dup2\n      mstore\n      swap1\n      0x01\n      add\n      swap1\n      0x20\n      add\n      dup1\n      dup4\n      gt\n      tag_221\n      jumpi\n      dup3\n      swap1\n      sub\n      0x1f\n      and\n      dup3\n      add\n      swap2\n    tag_219:\n      pop\n      pop\n      pop\n      pop\n      pop\n      dup2\n      mstore\n      0x20\n      add\n      0x02\n      dup3\n      add\n      dup1\n      sload\n      tag_222\n      swap1\n      tag_130\n      jump\t// in\n    tag_222:\n      dup1\n      0x1f\n      add\n      0x20\n      dup1\n      swap2\n      div\n      mul\n      0x20\n      add\n      mload(0x40)\n      swap1\n      dup2\n      add\n      0x40\n      mstore\n      dup1\n      swap3\n      swap2\n      swap1\n      dup2\n      dup2\n      mstore\n      0x20\n      add\n      dup3\n      dup1\n      sload\n      tag_223\n      swap1\n      tag_130\n      jump\t// in\n    tag_223:\n      dup1\n      iszero\n      tag_224\n      jumpi\n      dup1\n      0x1f\n      lt\n      tag_225\n      jumpi\n      0x0100\n      dup1\n      dup4\n      sload\n      div\n      mul\n      dup4\n      mstore\n      swap2\n      0x20\n      add\n      swap2\n      jump(tag_224)\n    tag_225:\n      dup3\n      add\n      swap2\n      swap1\n      0x00\n      mstore\n      keccak256(0x00, 0x20)\n      swap1\n    tag_226:\n      dup2\n      sload\n      dup2\n      mstore\n      swap1\n      0x01\n      add\n      swap1\n      0x20\n      add\n      dup1\n      dup4\n      gt\n      tag_226\n      jumpi\n      dup3\n      swap1\n      sub\n      0x1f\n      and\n      dup3\n      add\n      swap2\n    tag_224:\n      pop\n      pop\n      pop\n      pop\n      pop\n      dup2\n      mstore\n      0x20\n      add\n      0x03\n      dup3\n      add\n      0x00\n      swap1\n      sload\n      swap1\n      0x0100\n      exp\n      swap1\n      div\n      0xff\n      and\n      0x02\n      dup2\n      gt\n      iszero\n      tag_227\n      jumpi\n      tag_228\n      tag_142\n      jump\t// in\n    tag_228:\n    tag_227:\n      0x02\n      dup2\n      gt\n      iszero\n      tag_229\n      jumpi\n      tag_230\n      tag_142\n      jump\t// in\n    tag_230:\n    tag_229:\n      dup2\n      mstore\n      0x20\n      add\n      0x04\n      dup3\n      add\n      sload\n      dup2\n      mstore\n      0x20\n      add\n      0x05\n      dup3\n      add\n      0x00\n      swap1\n      sload\n      swap1\n      0x0100\n      exp\n      swap1\n      div\n      0xffffffffffffffffffffffffffffffffffffffff\n      and\n      0xffffffffffffffffffffffffffffffffffffffff\n      and\n      0xffffffffffffffffffffffffffffffffffffffff\n      and\n      dup2\n      mstore\n      0x20\n      add\n      0x05\n      dup3\n      add\n      0x14\n      swap1\n      sload\n      swap1\n      0x0100\n      exp\n      swap1\n      div\n      0xff\n      and\n      iszero\n      iszero\n      iszero\n      iszero\n      dup2\n      mstore\n      0x20\n      add\n      0x06\n      dup3\n      add\n      sload\n      dup2\n      mstore\n      pop\n      pop\n        /* \"contracts/TaskManagement.sol\":9543:9557  userTasksArray */\n      dup3\n        /* \"contracts/TaskManagement.sol\":9558:9559  i */\n      dup3\n        /* \"contracts/TaskManagement.sol\":9543:9560  userTasksArray[i] */\n      dup2\n      mload\n      dup2\n      lt\n      tag_231\n      jumpi\n      tag_232\n      tag_147\n      jump\t// in\n    tag_232:\n    tag_231:\n      0x20\n      mul\n      0x20\n      add\n      add\n        /* \"contracts/TaskManagement.sol\":9543:9580  userTasksArray[i] = tasks[taskIds[i]] */\n      dup2\n      swap1\n      mstore\n      pop\n        /* \"contracts/TaskManagement.sol\":9523:9526  i++ */\n      dup1\n      dup1\n      0x01\n      add\n      swap2\n      pop\n      pop\n        /* \"contracts/TaskManagement.sol\":9486:9592  for (uint i = 0; i < taskIds.length; i++) {... */\n      jump(tag_212)\n    tag_213:\n      pop\n        /* \"contracts/TaskManagement.sol\":9611:9625  userTasksArray */\n      dup1\n        /* \"contracts/TaskManagement.sol\":9604:9625  return userTasksArray */\n      swap3\n      pop\n      pop\n      pop\n        /* \"contracts/TaskManagement.sol\":9130:9633  function getUserTasks() public view returns (Task[] memory) {... */\n      swap1\n      jump\t// out\n        /* \"contracts/TaskManagement.sol\":2235:2583  function createDID(string memory _identifier) public {... */\n    tag_55:\n        /* \"contracts/TaskManagement.sol\":2335:2336  0 */\n      0x00\n        /* \"contracts/TaskManagement.sol\":2313:2324  _identifier */\n      dup2\n        /* \"contracts/TaskManagement.sol\":2307:2332  bytes(_identifier).length */\n      mload\n        /* \"contracts/TaskManagement.sol\":2307:2336  bytes(_identifier).length > 0 */\n      gt\n        /* \"contracts/TaskManagement.sol\":2299:2367  require(bytes(_identifier).length > 0, \"Identifier cannot be empty\") */\n      tag_234\n      jumpi\n      mload(0x40)\n      0x08c379a000000000000000000000000000000000000000000000000000000000\n      dup2\n      mstore\n      0x04\n      add\n      tag_235\n      swap1\n      tag_236\n      jump\t// in\n    tag_235:\n      mload(0x40)\n      dup1\n      swap2\n      sub\n      swap1\n      revert\n    tag_234:\n        /* \"contracts/TaskManagement.sol\":2420:2421  0 */\n      0x00\n        /* \"contracts/TaskManagement.sol\":2386:2422  dids[msg.sender].owner == address(0) */\n      0xffffffffffffffffffffffffffffffffffffffff\n      and\n        /* \"contracts/TaskManagement.sol\":2386:2390  dids */\n      0x00\n        /* \"contracts/TaskManagement.sol\":2386:2402  dids[msg.sender] */\n      dup1\n        /* \"contracts/TaskManagement.sol\":2391:2401  msg.sender */\n      caller\n        /* \"contracts/TaskManagement.sol\":2386:2402  dids[msg.sender] */\n      0xffffffffffffffffffffffffffffffffffffffff\n      and\n      0xffffffffffffffffffffffffffffffffffffffff\n      and\n      dup2\n      mstore\n      0x20\n      add\n      swap1\n      dup2\n      mstore\n      0x20\n      add\n      0x00\n      keccak256\n        /* \"contracts/TaskManagement.sol\":2386:2408  dids[msg.sender].owner */\n      0x01\n      add\n      0x00\n      swap1\n      sload\n      swap1\n      0x0100\n      exp\n      swap1\n      div\n      0xffffffffffffffffffffffffffffffffffffffff\n      and\n        /* \"contracts/TaskManagement.sol\":2386:2422  dids[msg.sender].owner == address(0) */\n      0xffffffffffffffffffffffffffffffffffffffff\n      and\n      eq\n        /* \"contracts/TaskManagement.sol\":2378:2462  require(dids[msg.sender].owner == address(0), \"DID already exists for this address\") */\n      tag_237\n      jumpi\n      mload(0x40)\n      0x08c379a000000000000000000000000000000000000000000000000000000000\n      dup2\n      mstore\n      0x04\n      add\n      tag_238\n      swap1\n      tag_239\n      jump\t// in\n    tag_238:\n      mload(0x40)\n      dup1\n      swap2\n      sub\n      swap1\n      revert\n    tag_237:\n        /* \"contracts/TaskManagement.sol\":2494:2522  DID(_identifier, msg.sender) */\n      mload(0x40)\n      dup1\n      0x40\n      add\n      0x40\n      mstore\n      dup1\n        /* \"contracts/TaskManagement.sol\":2498:2509  _identifier */\n      dup3\n        /* \"contracts/TaskManagement.sol\":2494:2522  DID(_identifier, msg.sender) */\n      dup2\n      mstore\n      0x20\n      add\n        /* \"contracts/TaskManagement.sol\":2511:2521  msg.sender */\n      caller\n        /* \"contracts/TaskManagement.sol\":2494:2522  DID(_identifier, msg.sender) */\n      0xffffffffffffffffffffffffffffffffffffffff\n      and\n      dup2\n      mstore\n      pop\n        /* \"contracts/TaskManagement.sol\":2475:2479  dids */\n      0x00\n        /* \"contracts/TaskManagement.sol\":2475:2491  dids[msg.sender] */\n      dup1\n        /* \"contracts/TaskManagement.sol\":2480:2490  msg.sender */\n      caller\n        /* \"contracts/TaskManagement.sol\":2475:2491  dids[msg.sender] */\n      0xffffffffffffffffffffffffffffffffffffffff\n      and\n      0xffffffffffffffffffffffffffffffffffffffff\n      and\n      dup2\n      mstore\n      0x20\n      add\n      swap1\n      dup2\n      mstore\n      0x20\n      add\n      0x00\n      keccak256\n        /* \"contracts/TaskManagement.sol\":2475:2522  dids[msg.sender] = DID(_identifier, msg.sender) */\n      0x00\n      dup3\n      add\n      mload\n      dup2\n      0x00\n      add\n      swap1\n      dup2\n      tag_240\n      swap2\n      swap1\n      tag_103\n      jump\t// in\n    tag_240:\n      pop\n      0x20\n      dup3\n      add\n      mload\n      dup2\n      0x01\n      add\n      exp(0x0100, 0x00)\n      dup2\n      sload\n      dup2\n      0xffffffffffffffffffffffffffffffffffffffff\n      mul\n      not\n      and\n      swap1\n      dup4\n      0xffffffffffffffffffffffffffffffffffffffff\n      and\n      mul\n      or\n      swap1\n      sstore\n      pop\n      swap1\n      pop\n      pop\n        /* \"contracts/TaskManagement.sol\":2551:2561  msg.sender */\n      caller\n        /* \"contracts/TaskManagement.sol\":2540:2575  DIDCreated(msg.sender, _identifier) */\n      0xffffffffffffffffffffffffffffffffffffffff\n      and\n      0x1b7934654ba536b6962955e057ce42885353bbaad8c605a5ce0678e632f28410\n        /* \"contracts/TaskManagement.sol\":2563:2574  _identifier */\n      dup3\n        /* \"contracts/TaskManagement.sol\":2540:2575  DIDCreated(msg.sender, _identifier) */\n      mload(0x40)\n      tag_241\n      swap2\n      swap1\n      tag_73\n      jump\t// in\n    tag_241:\n      mload(0x40)\n      dup1\n      swap2\n      sub\n      swap1\n      log2\n        /* \"contracts/TaskManagement.sol\":2235:2583  function createDID(string memory _identifier) public {... */\n      pop\n      jump\t// out\n        /* \"contracts/TaskManagement.sol\":6480:7487  function createTask(... */\n    tag_59:\n        /* \"contracts/TaskManagement.sol\":2046:2062  bytes(\"manager\") */\n      mload(0x40)\n      dup1\n      0x40\n      add\n      0x40\n      mstore\n      dup1\n      0x07\n      dup2\n      mstore\n      0x20\n      add\n      0x6d616e6167657200000000000000000000000000000000000000000000000000\n      dup2\n      mstore\n      pop\n        /* \"contracts/TaskManagement.sol\":2036:2063  keccak256(bytes(\"manager\")) */\n      dup1\n      mload\n      swap1\n      0x20\n      add\n      keccak256\n        /* \"contracts/TaskManagement.sol\":2013:2018  roles */\n      0x01\n        /* \"contracts/TaskManagement.sol\":2013:2030  roles[msg.sender] */\n      0x00\n        /* \"contracts/TaskManagement.sol\":2019:2029  msg.sender */\n      caller\n        /* \"contracts/TaskManagement.sol\":2013:2030  roles[msg.sender] */\n      0xffffffffffffffffffffffffffffffffffffffff\n      and\n      0xffffffffffffffffffffffffffffffffffffffff\n      and\n      dup2\n      mstore\n      0x20\n      add\n      swap1\n      dup2\n      mstore\n      0x20\n      add\n      0x00\n      keccak256\n        /* \"contracts/TaskManagement.sol\":1997:2032  keccak256(bytes(roles[msg.sender])) */\n      mload(0x40)\n      tag_243\n      swap2\n      swap1\n      tag_88\n      jump\t// in\n    tag_243:\n      mload(0x40)\n      dup1\n      swap2\n      sub\n      swap1\n      keccak256\n        /* \"contracts/TaskManagement.sol\":1997:2063  keccak256(bytes(roles[msg.sender])) == keccak256(bytes(\"manager\")) */\n      eq\n        /* \"contracts/TaskManagement.sol\":1989:2087  require(keccak256(bytes(roles[msg.sender])) == keccak256(bytes(\"manager\")), \"Unauthorized action\") */\n      tag_244\n      jumpi\n      mload(0x40)\n      0x08c379a000000000000000000000000000000000000000000000000000000000\n      dup2\n      mstore\n      0x04\n      add\n      tag_245\n      swap1\n      tag_91\n      jump\t// in\n    tag_245:\n      mload(0x40)\n      dup1\n      swap2\n      sub\n      swap1\n      revert\n    tag_244:\n        /* \"contracts/TaskManagement.sol\":6730:6731  0 */\n      0x00\n        /* \"contracts/TaskManagement.sol\":6696:6732  dids[msg.sender].owner != address(0) */\n      0xffffffffffffffffffffffffffffffffffffffff\n      and\n        /* \"contracts/TaskManagement.sol\":6696:6700  dids */\n      0x00\n        /* \"contracts/TaskManagement.sol\":6696:6712  dids[msg.sender] */\n      dup1\n        /* \"contracts/TaskManagement.sol\":6701:6711  msg.sender */\n      caller\n        /* \"contracts/TaskManagement.sol\":6696:6712  dids[msg.sender] */\n      0xffffffffffffffffffffffffffffffffffffffff\n      and\n      0xffffffffffffffffffffffffffffffffffffffff\n      and\n      dup2\n      mstore\n      0x20\n      add\n      swap1\n      dup2\n      mstore\n      0x20\n      add\n      0x00\n      keccak256\n        /* \"contracts/TaskManagement.sol\":6696:6718  dids[msg.sender].owner */\n      0x01\n      add\n      0x00\n      swap1\n      sload\n      swap1\n      0x0100\n      exp\n      swap1\n      div\n      0xffffffffffffffffffffffffffffffffffffffff\n      and\n        /* \"contracts/TaskManagement.sol\":6696:6732  dids[msg.sender].owner != address(0) */\n      0xffffffffffffffffffffffffffffffffffffffff\n      and\n      sub\n        /* \"contracts/TaskManagement.sol\":6688:6775  require(dids[msg.sender].owner != address(0), \"No existing DID found for this address\") */\n      tag_247\n      jumpi\n      mload(0x40)\n      0x08c379a000000000000000000000000000000000000000000000000000000000\n      dup2\n      mstore\n      0x04\n      add\n      tag_248\n      swap1\n      tag_95\n      jump\t// in\n    tag_248:\n      mload(0x40)\n      dup1\n      swap2\n      sub\n      swap1\n      revert\n    tag_247:\n        /* \"contracts/TaskManagement.sol\":6817:6818  0 */\n      0x00\n        /* \"contracts/TaskManagement.sol\":6800:6806  _title */\n      dup6\n        /* \"contracts/TaskManagement.sol\":6794:6814  bytes(_title).length */\n      mload\n        /* \"contracts/TaskManagement.sol\":6794:6818  bytes(_title).length > 0 */\n      gt\n        /* \"contracts/TaskManagement.sol\":6786:6844  require(bytes(_title).length > 0, \"Title cannot be empty\") */\n      tag_249\n      jumpi\n      mload(0x40)\n      0x08c379a000000000000000000000000000000000000000000000000000000000\n      dup2\n      mstore\n      0x04\n      add\n      tag_250\n      swap1\n      tag_251\n      jump\t// in\n    tag_250:\n      mload(0x40)\n      dup1\n      swap2\n      sub\n      swap1\n      revert\n    tag_249:\n        /* \"contracts/TaskManagement.sol\":6892:6893  0 */\n      0x00\n        /* \"contracts/TaskManagement.sol\":6869:6881  _description */\n      dup5\n        /* \"contracts/TaskManagement.sol\":6863:6889  bytes(_description).length */\n      mload\n        /* \"contracts/TaskManagement.sol\":6863:6893  bytes(_description).length > 0 */\n      gt\n        /* \"contracts/TaskManagement.sol\":6855:6925  require(bytes(_description).length > 0, \"Description cannot be empty\") */\n      tag_252\n      jumpi\n      mload(0x40)\n      0x08c379a000000000000000000000000000000000000000000000000000000000\n      dup2\n      mstore\n      0x04\n      add\n      tag_253\n      swap1\n      tag_254\n      jump\t// in\n    tag_253:\n      mload(0x40)\n      dup1\n      swap2\n      sub\n      swap1\n      revert\n    tag_252:\n        /* \"contracts/TaskManagement.sol\":6957:6970  Priority.High */\n      0x02\n        /* \"contracts/TaskManagement.sol\":6944:6970  _priority <= Priority.High */\n      dup1\n      dup2\n      gt\n      iszero\n      tag_255\n      jumpi\n      tag_256\n      tag_142\n      jump\t// in\n    tag_256:\n    tag_255:\n        /* \"contracts/TaskManagement.sol\":6944:6953  _priority */\n      dup4\n        /* \"contracts/TaskManagement.sol\":6944:6970  _priority <= Priority.High */\n      0x02\n      dup2\n      gt\n      iszero\n      tag_257\n      jumpi\n      tag_258\n      tag_142\n      jump\t// in\n    tag_258:\n    tag_257:\n      gt\n      iszero\n        /* \"contracts/TaskManagement.sol\":6936:7025  require(_priority <= Priority.High, \"Priority out of range (Low: 0, Medium: 1, High: 2)\") */\n      tag_259\n      jumpi\n      mload(0x40)\n      0x08c379a000000000000000000000000000000000000000000000000000000000\n      dup2\n      mstore\n      0x04\n      add\n      tag_260\n      swap1\n      tag_261\n      jump\t// in\n    tag_260:\n      mload(0x40)\n      dup1\n      swap2\n      sub\n      swap1\n      revert\n    tag_259:\n        /* \"contracts/TaskManagement.sol\":7055:7070  block.timestamp */\n      timestamp\n        /* \"contracts/TaskManagement.sol\":7044:7052  _dueDate */\n      dup3\n        /* \"contracts/TaskManagement.sol\":7044:7070  _dueDate > block.timestamp */\n      gt\n        /* \"contracts/TaskManagement.sol\":7036:7105  require(_dueDate > block.timestamp, \"Due date must be in the future\") */\n      tag_262\n      jumpi\n      mload(0x40)\n      0x08c379a000000000000000000000000000000000000000000000000000000000\n      dup2\n      mstore\n      0x04\n      add\n      tag_263\n      swap1\n      tag_264\n      jump\t// in\n    tag_263:\n      mload(0x40)\n      dup1\n      swap2\n      sub\n      swap1\n      revert\n    tag_262:\n        /* \"contracts/TaskManagement.sol\":7184:7267  Task(taskCounter, _title, _description, _priority, _dueDate, _assignedTo, false, 0) */\n      mload(0x40)\n      dup1\n      0x0100\n      add\n      0x40\n      mstore\n      dup1\n        /* \"contracts/TaskManagement.sol\":7189:7200  taskCounter */\n      sload(0x04)\n        /* \"contracts/TaskManagement.sol\":7184:7267  Task(taskCounter, _title, _description, _priority, _dueDate, _assignedTo, false, 0) */\n      dup2\n      mstore\n      0x20\n      add\n        /* \"contracts/TaskManagement.sol\":7202:7208  _title */\n      dup7\n        /* \"contracts/TaskManagement.sol\":7184:7267  Task(taskCounter, _title, _description, _priority, _dueDate, _assignedTo, false, 0) */\n      dup2\n      mstore\n      0x20\n      add\n        /* \"contracts/TaskManagement.sol\":7210:7222  _description */\n      dup6\n        /* \"contracts/TaskManagement.sol\":7184:7267  Task(taskCounter, _title, _description, _priority, _dueDate, _assignedTo, false, 0) */\n      dup2\n      mstore\n      0x20\n      add\n        /* \"contracts/TaskManagement.sol\":7224:7233  _priority */\n      dup5\n        /* \"contracts/TaskManagement.sol\":7184:7267  Task(taskCounter, _title, _description, _priority, _dueDate, _assignedTo, false, 0) */\n      0x02\n      dup2\n      gt\n      iszero\n      tag_265\n      jumpi\n      tag_266\n      tag_142\n      jump\t// in\n    tag_266:\n    tag_265:\n      dup2\n      mstore\n      0x20\n      add\n        /* \"contracts/TaskManagement.sol\":7235:7243  _dueDate */\n      dup4\n        /* \"contracts/TaskManagement.sol\":7184:7267  Task(taskCounter, _title, _description, _priority, _dueDate, _assignedTo, false, 0) */\n      dup2\n      mstore\n      0x20\n      add\n        /* \"contracts/TaskManagement.sol\":7245:7256  _assignedTo */\n      dup3\n        /* \"contracts/TaskManagement.sol\":7184:7267  Task(taskCounter, _title, _description, _priority, _dueDate, _assignedTo, false, 0) */\n      0xffffffffffffffffffffffffffffffffffffffff\n      and\n      dup2\n      mstore\n      0x20\n      add\n        /* \"contracts/TaskManagement.sol\":7258:7263  false */\n      0x00\n        /* \"contracts/TaskManagement.sol\":7184:7267  Task(taskCounter, _title, _description, _priority, _dueDate, _assignedTo, false, 0) */\n      iszero\n      iszero\n      dup2\n      mstore\n      0x20\n      add\n        /* \"contracts/TaskManagement.sol\":7265:7266  0 */\n      0x00\n        /* \"contracts/TaskManagement.sol\":7184:7267  Task(taskCounter, _title, _description, _priority, _dueDate, _assignedTo, false, 0) */\n      dup2\n      mstore\n      pop\n        /* \"contracts/TaskManagement.sol\":7163:7168  tasks */\n      0x05\n        /* \"contracts/TaskManagement.sol\":7163:7181  tasks[taskCounter] */\n      0x00\n        /* \"contracts/TaskManagement.sol\":7169:7180  taskCounter */\n      sload(0x04)\n        /* \"contracts/TaskManagement.sol\":7163:7181  tasks[taskCounter] */\n      dup2\n      mstore\n      0x20\n      add\n      swap1\n      dup2\n      mstore\n      0x20\n      add\n      0x00\n      keccak256\n        /* \"contracts/TaskManagement.sol\":7163:7267  tasks[taskCounter] = Task(taskCounter, _title, _description, _priority, _dueDate, _assignedTo, false, 0) */\n      0x00\n      dup3\n      add\n      mload\n      dup2\n      0x00\n      add\n      sstore\n      0x20\n      dup3\n      add\n      mload\n      dup2\n      0x01\n      add\n      swap1\n      dup2\n      tag_267\n      swap2\n      swap1\n      tag_103\n      jump\t// in\n    tag_267:\n      pop\n      0x40\n      dup3\n      add\n      mload\n      dup2\n      0x02\n      add\n      swap1\n      dup2\n      tag_268\n      swap2\n      swap1\n      tag_103\n      jump\t// in\n    tag_268:\n      pop\n      0x60\n      dup3\n      add\n      mload\n      dup2\n      0x03\n      add\n      exp(0x0100, 0x00)\n      dup2\n      sload\n      dup2\n      0xff\n      mul\n      not\n      and\n      swap1\n      dup4\n      0x02\n      dup2\n      gt\n      iszero\n      tag_269\n      jumpi\n      tag_270\n      tag_142\n      jump\t// in\n    tag_270:\n    tag_269:\n      mul\n      or\n      swap1\n      sstore\n      pop\n      0x80\n      dup3\n      add\n      mload\n      dup2\n      0x04\n      add\n      sstore\n      0xa0\n      dup3\n      add\n      mload\n      dup2\n      0x05\n      add\n      exp(0x0100, 0x00)\n      dup2\n      sload\n      dup2\n      0xffffffffffffffffffffffffffffffffffffffff\n      mul\n      not\n      and\n      swap1\n      dup4\n      0xffffffffffffffffffffffffffffffffffffffff\n      and\n      mul\n      or\n      swap1\n      sstore\n      pop\n      0xc0\n      dup3\n      add\n      mload\n      dup2\n      0x05\n      add\n      exp(0x0100, 0x14)\n      dup2\n      sload\n      dup2\n      0xff\n      mul\n      not\n      and\n      swap1\n      dup4\n      iszero\n      iszero\n      mul\n      or\n      swap1\n      sstore\n      pop\n      0xe0\n      dup3\n      add\n      mload\n      dup2\n      0x06\n      add\n      sstore\n      swap1\n      pop\n      pop\n        /* \"contracts/TaskManagement.sol\":7278:7287  userTasks */\n      0x06\n        /* \"contracts/TaskManagement.sol\":7278:7300  userTasks[_assignedTo] */\n      0x00\n        /* \"contracts/TaskManagement.sol\":7288:7299  _assignedTo */\n      dup3\n        /* \"contracts/TaskManagement.sol\":7278:7300  userTasks[_assignedTo] */\n      0xffffffffffffffffffffffffffffffffffffffff\n      and\n      0xffffffffffffffffffffffffffffffffffffffff\n      and\n      dup2\n      mstore\n      0x20\n      add\n      swap1\n      dup2\n      mstore\n      0x20\n      add\n      0x00\n      keccak256\n        /* \"contracts/TaskManagement.sol\":7306:7317  taskCounter */\n      sload(0x04)\n        /* \"contracts/TaskManagement.sol\":7278:7318  userTasks[_assignedTo].push(taskCounter) */\n      swap1\n      dup1\n      0x01\n      dup2\n      sload\n      add\n      dup1\n      dup3\n      sstore\n      dup1\n      swap2\n      pop\n      pop\n      0x01\n      swap1\n      sub\n      swap1\n      0x00\n      mstore\n      keccak256(0x00, 0x20)\n      add\n      0x00\n      swap1\n      swap2\n      swap1\n      swap2\n      swap1\n      swap2\n      pop\n      sstore\n        /* \"contracts/TaskManagement.sol\":7377:7387  msg.sender */\n      caller\n        /* \"contracts/TaskManagement.sol\":7365:7414  TaskCreated(msg.sender, _assignedTo, taskCounter) */\n      0xffffffffffffffffffffffffffffffffffffffff\n      and\n      0x3f9b921f6bb5d577cdf49122202d27f7c50e3cc981c47543dc4a59c00dee5229\n        /* \"contracts/TaskManagement.sol\":7389:7400  _assignedTo */\n      dup3\n        /* \"contracts/TaskManagement.sol\":7402:7413  taskCounter */\n      sload(0x04)\n        /* \"contracts/TaskManagement.sol\":7365:7414  TaskCreated(msg.sender, _assignedTo, taskCounter) */\n      mload(0x40)\n      tag_272\n      swap3\n      swap2\n      swap1\n      tag_273\n      jump\t// in\n    tag_272:\n      mload(0x40)\n      dup1\n      swap2\n      sub\n      swap1\n      log2\n        /* \"contracts/TaskManagement.sol\":7466:7477  taskCounter */\n      0x04\n      0x00\n        /* \"contracts/TaskManagement.sol\":7466:7479  taskCounter++ */\n      dup2\n      sload\n      dup1\n      swap3\n      swap2\n      swap1\n      tag_274\n      swap1\n      tag_275\n      jump\t// in\n    tag_274:\n      swap2\n      swap1\n      pop\n      sstore\n      pop\n        /* \"contracts/TaskManagement.sol\":6480:7487  function createTask(... */\n      pop\n      pop\n      pop\n      pop\n      pop\n      jump\t// out\n        /* \"contracts/TaskManagement.sol\":11016:11390  function verifyTaskStatus(uint _id) public returns (bool) {... */\n    tag_62:\n        /* \"contracts/TaskManagement.sol\":11068:11072  bool */\n      0x00\n        /* \"contracts/TaskManagement.sol\":11127:11128  0 */\n      dup1\n        /* \"contracts/TaskManagement.sol\":11093:11129  dids[msg.sender].owner != address(0) */\n      0xffffffffffffffffffffffffffffffffffffffff\n      and\n        /* \"contracts/TaskManagement.sol\":11093:11097  dids */\n      0x00\n        /* \"contracts/TaskManagement.sol\":11093:11109  dids[msg.sender] */\n      dup1\n        /* \"contracts/TaskManagement.sol\":11098:11108  msg.sender */\n      caller\n        /* \"contracts/TaskManagement.sol\":11093:11109  dids[msg.sender] */\n      0xffffffffffffffffffffffffffffffffffffffff\n      and\n      0xffffffffffffffffffffffffffffffffffffffff\n      and\n      dup2\n      mstore\n      0x20\n      add\n      swap1\n      dup2\n      mstore\n      0x20\n      add\n      0x00\n      keccak256\n        /* \"contracts/TaskManagement.sol\":11093:11115  dids[msg.sender].owner */\n      0x01\n      add\n      0x00\n      swap1\n      sload\n      swap1\n      0x0100\n      exp\n      swap1\n      div\n      0xffffffffffffffffffffffffffffffffffffffff\n      and\n        /* \"contracts/TaskManagement.sol\":11093:11129  dids[msg.sender].owner != address(0) */\n      0xffffffffffffffffffffffffffffffffffffffff\n      and\n      sub\n        /* \"contracts/TaskManagement.sol\":11085:11172  require(dids[msg.sender].owner != address(0), \"No existing DID found for this address\") */\n      tag_277\n      jumpi\n      mload(0x40)\n      0x08c379a000000000000000000000000000000000000000000000000000000000\n      dup2\n      mstore\n      0x04\n      add\n      tag_278\n      swap1\n      tag_95\n      jump\t// in\n    tag_278:\n      mload(0x40)\n      dup1\n      swap2\n      sub\n      swap1\n      revert\n    tag_277:\n        /* \"contracts/TaskManagement.sol\":11224:11225  0 */\n      0x00\n        /* \"contracts/TaskManagement.sol\":11191:11226  tasks[_id].assignedTo != address(0) */\n      0xffffffffffffffffffffffffffffffffffffffff\n      and\n        /* \"contracts/TaskManagement.sol\":11191:11196  tasks */\n      0x05\n        /* \"contracts/TaskManagement.sol\":11191:11201  tasks[_id] */\n      0x00\n        /* \"contracts/TaskManagement.sol\":11197:11200  _id */\n      dup5\n        /* \"contracts/TaskManagement.sol\":11191:11201  tasks[_id] */\n      dup2\n      mstore\n      0x20\n      add\n      swap1\n      dup2\n      mstore\n      0x20\n      add\n      0x00\n      keccak256\n        /* \"contracts/TaskManagement.sol\":11191:11212  tasks[_id].assignedTo */\n      0x05\n      add\n      0x00\n      swap1\n      sload\n      swap1\n      0x0100\n      exp\n      swap1\n      div\n      0xffffffffffffffffffffffffffffffffffffffff\n      and\n        /* \"contracts/TaskManagement.sol\":11191:11226  tasks[_id].assignedTo != address(0) */\n      0xffffffffffffffffffffffffffffffffffffffff\n      and\n      sub\n        /* \"contracts/TaskManagement.sol\":11183:11245  require(tasks[_id].assignedTo != address(0), \"Task not found\") */\n      tag_279\n      jumpi\n      mload(0x40)\n      0x08c379a000000000000000000000000000000000000000000000000000000000\n      dup2\n      mstore\n      0x04\n      add\n      tag_280\n      swap1\n      tag_153\n      jump\t// in\n    tag_280:\n      mload(0x40)\n      dup1\n      swap2\n      sub\n      swap1\n      revert\n    tag_279:\n        /* \"contracts/TaskManagement.sol\":11258:11274  bool isCompleted */\n      0x00\n        /* \"contracts/TaskManagement.sol\":11277:11282  tasks */\n      0x05\n        /* \"contracts/TaskManagement.sol\":11277:11287  tasks[_id] */\n      0x00\n        /* \"contracts/TaskManagement.sol\":11283:11286  _id */\n      dup5\n        /* \"contracts/TaskManagement.sol\":11277:11287  tasks[_id] */\n      dup2\n      mstore\n      0x20\n      add\n      swap1\n      dup2\n      mstore\n      0x20\n      add\n      0x00\n      keccak256\n        /* \"contracts/TaskManagement.sol\":11277:11299  tasks[_id].isCompleted */\n      0x05\n      add\n      0x14\n      swap1\n      sload\n      swap1\n      0x0100\n      exp\n      swap1\n      div\n      0xff\n      and\n        /* \"contracts/TaskManagement.sol\":11258:11299  bool isCompleted = tasks[_id].isCompleted */\n      swap1\n      pop\n        /* \"contracts/TaskManagement.sol\":11336:11339  _id */\n      dup3\n        /* \"contracts/TaskManagement.sol\":11317:11353  TaskStatusVerified(_id, isCompleted) */\n      0x5b1d4634b3c10500ffedc8842916f2444f17b692faca086f941028797de87728\n        /* \"contracts/TaskManagement.sol\":11341:11352  isCompleted */\n      dup3\n        /* \"contracts/TaskManagement.sol\":11317:11353  TaskStatusVerified(_id, isCompleted) */\n      mload(0x40)\n      tag_281\n      swap2\n      swap1\n      tag_35\n      jump\t// in\n    tag_281:\n      mload(0x40)\n      dup1\n      swap2\n      sub\n      swap1\n      log2\n        /* \"contracts/TaskManagement.sol\":11371:11382  isCompleted */\n      dup1\n        /* \"contracts/TaskManagement.sol\":11364:11382  return isCompleted */\n      swap2\n      pop\n      pop\n        /* \"contracts/TaskManagement.sol\":11016:11390  function verifyTaskStatus(uint _id) public returns (bool) {... */\n      swap2\n      swap1\n      pop\n      jump\t// out\n        /* \"contracts/TaskManagement.sol\":7559:8595  function reassignTask(uint _id, address _newAssignee) onlyManager public {... */\n    tag_66:\n        /* \"contracts/TaskManagement.sol\":2046:2062  bytes(\"manager\") */\n      mload(0x40)\n      dup1\n      0x40\n      add\n      0x40\n      mstore\n      dup1\n      0x07\n      dup2\n      mstore\n      0x20\n      add\n      0x6d616e6167657200000000000000000000000000000000000000000000000000\n      dup2\n      mstore\n      pop\n        /* \"contracts/TaskManagement.sol\":2036:2063  keccak256(bytes(\"manager\")) */\n      dup1\n      mload\n      swap1\n      0x20\n      add\n      keccak256\n        /* \"contracts/TaskManagement.sol\":2013:2018  roles */\n      0x01\n        /* \"contracts/TaskManagement.sol\":2013:2030  roles[msg.sender] */\n      0x00\n        /* \"contracts/TaskManagement.sol\":2019:2029  msg.sender */\n      caller\n        /* \"contracts/TaskManagement.sol\":2013:2030  roles[msg.sender] */\n      0xffffffffffffffffffffffffffffffffffffffff\n      and\n      0xffffffffffffffffffffffffffffffffffffffff\n      and\n      dup2\n      mstore\n      0x20\n      add\n      swap1\n      dup2\n      mstore\n      0x20\n      add\n      0x00\n      keccak256\n        /* \"contracts/TaskManagement.sol\":1997:2032  keccak256(bytes(roles[msg.sender])) */\n      mload(0x40)\n      tag_283\n      swap2\n      swap1\n      tag_88\n      jump\t// in\n    tag_283:\n      mload(0x40)\n      dup1\n      swap2\n      sub\n      swap1\n      keccak256\n        /* \"contracts/TaskManagement.sol\":1997:2063  keccak256(bytes(roles[msg.sender])) == keccak256(bytes(\"manager\")) */\n      eq\n        /* \"contracts/TaskManagement.sol\":1989:2087  require(keccak256(bytes(roles[msg.sender])) == keccak256(bytes(\"manager\")), \"Unauthorized action\") */\n      tag_284\n      jumpi\n      mload(0x40)\n      0x08c379a000000000000000000000000000000000000000000000000000000000\n      dup2\n      mstore\n      0x04\n      add\n      tag_285\n      swap1\n      tag_91\n      jump\t// in\n    tag_285:\n      mload(0x40)\n      dup1\n      swap2\n      sub\n      swap1\n      revert\n    tag_284:\n        /* \"contracts/TaskManagement.sol\":7685:7686  0 */\n      0x00\n        /* \"contracts/TaskManagement.sol\":7651:7687  dids[msg.sender].owner != address(0) */\n      0xffffffffffffffffffffffffffffffffffffffff\n      and\n        /* \"contracts/TaskManagement.sol\":7651:7655  dids */\n      0x00\n        /* \"contracts/TaskManagement.sol\":7651:7667  dids[msg.sender] */\n      dup1\n        /* \"contracts/TaskManagement.sol\":7656:7666  msg.sender */\n      caller\n        /* \"contracts/TaskManagement.sol\":7651:7667  dids[msg.sender] */\n      0xffffffffffffffffffffffffffffffffffffffff\n      and\n      0xffffffffffffffffffffffffffffffffffffffff\n      and\n      dup2\n      mstore\n      0x20\n      add\n      swap1\n      dup2\n      mstore\n      0x20\n      add\n      0x00\n      keccak256\n        /* \"contracts/TaskManagement.sol\":7651:7673  dids[msg.sender].owner */\n      0x01\n      add\n      0x00\n      swap1\n      sload\n      swap1\n      0x0100\n      exp\n      swap1\n      div\n      0xffffffffffffffffffffffffffffffffffffffff\n      and\n        /* \"contracts/TaskManagement.sol\":7651:7687  dids[msg.sender].owner != address(0) */\n      0xffffffffffffffffffffffffffffffffffffffff\n      and\n      sub\n        /* \"contracts/TaskManagement.sol\":7643:7730  require(dids[msg.sender].owner != address(0), \"No existing DID found for this address\") */\n      tag_287\n      jumpi\n      mload(0x40)\n      0x08c379a000000000000000000000000000000000000000000000000000000000\n      dup2\n      mstore\n      0x04\n      add\n      tag_288\n      swap1\n      tag_95\n      jump\t// in\n    tag_288:\n      mload(0x40)\n      dup1\n      swap2\n      sub\n      swap1\n      revert\n    tag_287:\n        /* \"contracts/TaskManagement.sol\":7774:7786  _newAssignee */\n      dup1\n        /* \"contracts/TaskManagement.sol\":7749:7786  tasks[_id].assignedTo != _newAssignee */\n      0xffffffffffffffffffffffffffffffffffffffff\n      and\n        /* \"contracts/TaskManagement.sol\":7749:7754  tasks */\n      0x05\n        /* \"contracts/TaskManagement.sol\":7749:7759  tasks[_id] */\n      0x00\n        /* \"contracts/TaskManagement.sol\":7755:7758  _id */\n      dup5\n        /* \"contracts/TaskManagement.sol\":7749:7759  tasks[_id] */\n      dup2\n      mstore\n      0x20\n      add\n      swap1\n      dup2\n      mstore\n      0x20\n      add\n      0x00\n      keccak256\n        /* \"contracts/TaskManagement.sol\":7749:7770  tasks[_id].assignedTo */\n      0x05\n      add\n      0x00\n      swap1\n      sload\n      swap1\n      0x0100\n      exp\n      swap1\n      div\n      0xffffffffffffffffffffffffffffffffffffffff\n      and\n        /* \"contracts/TaskManagement.sol\":7749:7786  tasks[_id].assignedTo != _newAssignee */\n      0xffffffffffffffffffffffffffffffffffffffff\n      and\n      sub\n        /* \"contracts/TaskManagement.sol\":7741:7829  require(tasks[_id].assignedTo != _newAssignee, \"This task already belonged to the user\") */\n      tag_289\n      jumpi\n      mload(0x40)\n      0x08c379a000000000000000000000000000000000000000000000000000000000\n      dup2\n      mstore\n      0x04\n      add\n      tag_290\n      swap1\n      tag_291\n      jump\t// in\n    tag_290:\n      mload(0x40)\n      dup1\n      swap2\n      sub\n      swap1\n      revert\n    tag_289:\n        /* \"contracts/TaskManagement.sol\":7842:7861  address oldAssignee */\n      0x00\n        /* \"contracts/TaskManagement.sol\":7864:7869  tasks */\n      0x05\n        /* \"contracts/TaskManagement.sol\":7864:7874  tasks[_id] */\n      0x00\n        /* \"contracts/TaskManagement.sol\":7870:7873  _id */\n      dup5\n        /* \"contracts/TaskManagement.sol\":7864:7874  tasks[_id] */\n      dup2\n      mstore\n      0x20\n      add\n      swap1\n      dup2\n      mstore\n      0x20\n      add\n      0x00\n      keccak256\n        /* \"contracts/TaskManagement.sol\":7864:7885  tasks[_id].assignedTo */\n      0x05\n      add\n      0x00\n      swap1\n      sload\n      swap1\n      0x0100\n      exp\n      swap1\n      div\n      0xffffffffffffffffffffffffffffffffffffffff\n      and\n        /* \"contracts/TaskManagement.sol\":7842:7885  address oldAssignee = tasks[_id].assignedTo */\n      swap1\n      pop\n        /* \"contracts/TaskManagement.sol\":7954:7966  _newAssignee */\n      dup2\n        /* \"contracts/TaskManagement.sol\":7930:7935  tasks */\n      0x05\n        /* \"contracts/TaskManagement.sol\":7930:7940  tasks[_id] */\n      0x00\n        /* \"contracts/TaskManagement.sol\":7936:7939  _id */\n      dup6\n        /* \"contracts/TaskManagement.sol\":7930:7940  tasks[_id] */\n      dup2\n      mstore\n      0x20\n      add\n      swap1\n      dup2\n      mstore\n      0x20\n      add\n      0x00\n      keccak256\n        /* \"contracts/TaskManagement.sol\":7930:7951  tasks[_id].assignedTo */\n      0x05\n      add\n      0x00\n        /* \"contracts/TaskManagement.sol\":7930:7966  tasks[_id].assignedTo = _newAssignee */\n      0x0100\n      exp\n      dup2\n      sload\n      dup2\n      0xffffffffffffffffffffffffffffffffffffffff\n      mul\n      not\n      and\n      swap1\n      dup4\n      0xffffffffffffffffffffffffffffffffffffffff\n      and\n      mul\n      or\n      swap1\n      sstore\n      pop\n        /* \"contracts/TaskManagement.sol\":8036:8064  uint[] storage previousTasks */\n      0x00\n        /* \"contracts/TaskManagement.sol\":8067:8076  userTasks */\n      0x06\n        /* \"contracts/TaskManagement.sol\":8067:8089  userTasks[oldAssignee] */\n      0x00\n        /* \"contracts/TaskManagement.sol\":8077:8088  oldAssignee */\n      dup4\n        /* \"contracts/TaskManagement.sol\":8067:8089  userTasks[oldAssignee] */\n      0xffffffffffffffffffffffffffffffffffffffff\n      and\n      0xffffffffffffffffffffffffffffffffffffffff\n      and\n      dup2\n      mstore\n      0x20\n      add\n      swap1\n      dup2\n      mstore\n      0x20\n      add\n      0x00\n      keccak256\n        /* \"contracts/TaskManagement.sol\":8036:8089  uint[] storage previousTasks = userTasks[oldAssignee] */\n      swap1\n      pop\n        /* \"contracts/TaskManagement.sol\":8105:8111  uint i */\n      0x00\n        /* \"contracts/TaskManagement.sol\":8100:8424  for (uint i = 0; i < previousTasks.length; i++) {... */\n    tag_292:\n        /* \"contracts/TaskManagement.sol\":8121:8134  previousTasks */\n      dup2\n        /* \"contracts/TaskManagement.sol\":8121:8141  previousTasks.length */\n      dup1\n      sload\n      swap1\n      pop\n        /* \"contracts/TaskManagement.sol\":8117:8118  i */\n      dup2\n        /* \"contracts/TaskManagement.sol\":8117:8141  i < previousTasks.length */\n      lt\n        /* \"contracts/TaskManagement.sol\":8100:8424  for (uint i = 0; i < previousTasks.length; i++) {... */\n      iszero\n      tag_293\n      jumpi\n        /* \"contracts/TaskManagement.sol\":8187:8190  _id */\n      dup5\n        /* \"contracts/TaskManagement.sol\":8167:8180  previousTasks */\n      dup3\n        /* \"contracts/TaskManagement.sol\":8181:8182  i */\n      dup3\n        /* \"contracts/TaskManagement.sol\":8167:8183  previousTasks[i] */\n      dup2\n      sload\n      dup2\n      lt\n      tag_295\n      jumpi\n      tag_296\n      tag_147\n      jump\t// in\n    tag_296:\n    tag_295:\n      swap1\n      0x00\n      mstore\n      keccak256(0x00, 0x20)\n      add\n      sload\n        /* \"contracts/TaskManagement.sol\":8167:8190  previousTasks[i] == _id */\n      sub\n        /* \"contracts/TaskManagement.sol\":8163:8413  if (previousTasks[i] == _id) {... */\n      tag_298\n      jumpi\n        /* \"contracts/TaskManagement.sol\":8296:8309  previousTasks */\n      dup2\n        /* \"contracts/TaskManagement.sol\":8333:8334  1 */\n      0x01\n        /* \"contracts/TaskManagement.sol\":8310:8323  previousTasks */\n      dup4\n        /* \"contracts/TaskManagement.sol\":8310:8330  previousTasks.length */\n      dup1\n      sload\n      swap1\n      pop\n        /* \"contracts/TaskManagement.sol\":8310:8334  previousTasks.length - 1 */\n      tag_299\n      swap2\n      swap1\n      tag_300\n      jump\t// in\n    tag_299:\n        /* \"contracts/TaskManagement.sol\":8296:8335  previousTasks[previousTasks.length - 1] */\n      dup2\n      sload\n      dup2\n      lt\n      tag_301\n      jumpi\n      tag_302\n      tag_147\n      jump\t// in\n    tag_302:\n    tag_301:\n      swap1\n      0x00\n      mstore\n      keccak256(0x00, 0x20)\n      add\n      sload\n        /* \"contracts/TaskManagement.sol\":8277:8290  previousTasks */\n      dup3\n        /* \"contracts/TaskManagement.sol\":8291:8292  i */\n      dup3\n        /* \"contracts/TaskManagement.sol\":8277:8293  previousTasks[i] */\n      dup2\n      sload\n      dup2\n      lt\n      tag_304\n      jumpi\n      tag_305\n      tag_147\n      jump\t// in\n    tag_305:\n    tag_304:\n      swap1\n      0x00\n      mstore\n      keccak256(0x00, 0x20)\n      add\n        /* \"contracts/TaskManagement.sol\":8277:8335  previousTasks[i] = previousTasks[previousTasks.length - 1] */\n      dup2\n      swap1\n      sstore\n      pop\n        /* \"contracts/TaskManagement.sol\":8354:8367  previousTasks */\n      dup2\n        /* \"contracts/TaskManagement.sol\":8354:8373  previousTasks.pop() */\n      dup1\n      sload\n      dup1\n      tag_307\n      jumpi\n      tag_308\n      tag_309\n      jump\t// in\n    tag_308:\n    tag_307:\n      0x01\n      swap1\n      sub\n      dup2\n      dup2\n      swap1\n      0x00\n      mstore\n      keccak256(0x00, 0x20)\n      add\n      0x00\n      swap1\n      sstore\n      swap1\n      sstore\n        /* \"contracts/TaskManagement.sol\":8392:8397  break */\n      jump(tag_293)\n        /* \"contracts/TaskManagement.sol\":8163:8413  if (previousTasks[i] == _id) {... */\n    tag_298:\n        /* \"contracts/TaskManagement.sol\":8143:8146  i++ */\n      dup1\n      dup1\n      0x01\n      add\n      swap2\n      pop\n      pop\n        /* \"contracts/TaskManagement.sol\":8100:8424  for (uint i = 0; i < previousTasks.length; i++) {... */\n      jump(tag_292)\n    tag_293:\n      pop\n        /* \"contracts/TaskManagement.sol\":8483:8492  userTasks */\n      0x06\n        /* \"contracts/TaskManagement.sol\":8483:8506  userTasks[_newAssignee] */\n      0x00\n        /* \"contracts/TaskManagement.sol\":8493:8505  _newAssignee */\n      dup5\n        /* \"contracts/TaskManagement.sol\":8483:8506  userTasks[_newAssignee] */\n      0xffffffffffffffffffffffffffffffffffffffff\n      and\n      0xffffffffffffffffffffffffffffffffffffffff\n      and\n      dup2\n      mstore\n      0x20\n      add\n      swap1\n      dup2\n      mstore\n      0x20\n      add\n      0x00\n      keccak256\n        /* \"contracts/TaskManagement.sol\":8512:8515  _id */\n      dup5\n        /* \"contracts/TaskManagement.sol\":8483:8516  userTasks[_newAssignee].push(_id) */\n      swap1\n      dup1\n      0x01\n      dup2\n      sload\n      add\n      dup1\n      dup3\n      sstore\n      dup1\n      swap2\n      pop\n      pop\n      0x01\n      swap1\n      sub\n      swap1\n      0x00\n      mstore\n      keccak256(0x00, 0x20)\n      add\n      0x00\n      swap1\n      swap2\n      swap1\n      swap2\n      swap1\n      swap2\n      pop\n      sstore\n        /* \"contracts/TaskManagement.sol\":8557:8567  msg.sender */\n      caller\n        /* \"contracts/TaskManagement.sol\":8542:8587  TaskReassigned(msg.sender, _newAssignee, _id) */\n      0xffffffffffffffffffffffffffffffffffffffff\n      and\n      0x0a836a77b7d869c0ecbc2d10f741a9cbdd750caf2459e4b97fac260346e14f32\n        /* \"contracts/TaskManagement.sol\":8569:8581  _newAssignee */\n      dup5\n        /* \"contracts/TaskManagement.sol\":8583:8586  _id */\n      dup7\n        /* \"contracts/TaskManagement.sol\":8542:8587  TaskReassigned(msg.sender, _newAssignee, _id) */\n      mload(0x40)\n      tag_312\n      swap3\n      swap2\n      swap1\n      tag_273\n      jump\t// in\n    tag_312:\n      mload(0x40)\n      dup1\n      swap2\n      sub\n      swap1\n      log2\n        /* \"contracts/TaskManagement.sol\":7632:8595  {... */\n      pop\n      pop\n        /* \"contracts/TaskManagement.sol\":7559:8595  function reassignTask(uint _id, address _newAssignee) onlyManager public {... */\n      pop\n      pop\n      jump\t// out\n        /* \"contracts/TaskManagement.sol\":3565:3987  function assignRole(address _user, string memory _role) onlyManager public {... */\n    tag_69:\n        /* \"contracts/TaskManagement.sol\":2046:2062  bytes(\"manager\") */\n      mload(0x40)\n      dup1\n      0x40\n      add\n      0x40\n      mstore\n      dup1\n      0x07\n      dup2\n      mstore\n      0x20\n      add\n      0x6d616e6167657200000000000000000000000000000000000000000000000000\n      dup2\n      mstore\n      pop\n        /* \"contracts/TaskManagement.sol\":2036:2063  keccak256(bytes(\"manager\")) */\n      dup1\n      mload\n      swap1\n      0x20\n      add\n      keccak256\n        /* \"contracts/TaskManagement.sol\":2013:2018  roles */\n      0x01\n        /* \"contracts/TaskManagement.sol\":2013:2030  roles[msg.sender] */\n      0x00\n        /* \"contracts/TaskManagement.sol\":2019:2029  msg.sender */\n      caller\n        /* \"contracts/TaskManagement.sol\":2013:2030  roles[msg.sender] */\n      0xffffffffffffffffffffffffffffffffffffffff\n      and\n      0xffffffffffffffffffffffffffffffffffffffff\n      and\n      dup2\n      mstore\n      0x20\n      add\n      swap1\n      dup2\n      mstore\n      0x20\n      add\n      0x00\n      keccak256\n        /* \"contracts/TaskManagement.sol\":1997:2032  keccak256(bytes(roles[msg.sender])) */\n      mload(0x40)\n      tag_314\n      swap2\n      swap1\n      tag_88\n      jump\t// in\n    tag_314:\n      mload(0x40)\n      dup1\n      swap2\n      sub\n      swap1\n      keccak256\n        /* \"contracts/TaskManagement.sol\":1997:2063  keccak256(bytes(roles[msg.sender])) == keccak256(bytes(\"manager\")) */\n      eq\n        /* \"contracts/TaskManagement.sol\":1989:2087  require(keccak256(bytes(roles[msg.sender])) == keccak256(bytes(\"manager\")), \"Unauthorized action\") */\n      tag_315\n      jumpi\n      mload(0x40)\n      0x08c379a000000000000000000000000000000000000000000000000000000000\n      dup2\n      mstore\n      0x04\n      add\n      tag_316\n      swap1\n      tag_91\n      jump\t// in\n    tag_316:\n      mload(0x40)\n      dup1\n      swap2\n      sub\n      swap1\n      revert\n    tag_315:\n        /* \"contracts/TaskManagement.sol\":3693:3694  0 */\n      0x00\n        /* \"contracts/TaskManagement.sol\":3659:3695  dids[msg.sender].owner != address(0) */\n      0xffffffffffffffffffffffffffffffffffffffff\n      and\n        /* \"contracts/TaskManagement.sol\":3659:3663  dids */\n      0x00\n        /* \"contracts/TaskManagement.sol\":3659:3675  dids[msg.sender] */\n      dup1\n        /* \"contracts/TaskManagement.sol\":3664:3674  msg.sender */\n      caller\n        /* \"contracts/TaskManagement.sol\":3659:3675  dids[msg.sender] */\n      0xffffffffffffffffffffffffffffffffffffffff\n      and\n      0xffffffffffffffffffffffffffffffffffffffff\n      and\n      dup2\n      mstore\n      0x20\n      add\n      swap1\n      dup2\n      mstore\n      0x20\n      add\n      0x00\n      keccak256\n        /* \"contracts/TaskManagement.sol\":3659:3681  dids[msg.sender].owner */\n      0x01\n      add\n      0x00\n      swap1\n      sload\n      swap1\n      0x0100\n      exp\n      swap1\n      div\n      0xffffffffffffffffffffffffffffffffffffffff\n      and\n        /* \"contracts/TaskManagement.sol\":3659:3695  dids[msg.sender].owner != address(0) */\n      0xffffffffffffffffffffffffffffffffffffffff\n      and\n      sub\n        /* \"contracts/TaskManagement.sol\":3651:3738  require(dids[msg.sender].owner != address(0), \"No existing DID found for this address\") */\n      tag_318\n      jumpi\n      mload(0x40)\n      0x08c379a000000000000000000000000000000000000000000000000000000000\n      dup2\n      mstore\n      0x04\n      add\n      tag_319\n      swap1\n      tag_95\n      jump\t// in\n    tag_319:\n      mload(0x40)\n      dup1\n      swap2\n      sub\n      swap1\n      revert\n    tag_318:\n        /* \"contracts/TaskManagement.sol\":3779:3780  0 */\n      0x00\n        /* \"contracts/TaskManagement.sol\":3763:3768  _role */\n      dup2\n        /* \"contracts/TaskManagement.sol\":3757:3776  bytes(_role).length */\n      mload\n        /* \"contracts/TaskManagement.sol\":3757:3780  bytes(_role).length > 0 */\n      gt\n        /* \"contracts/TaskManagement.sol\":3749:3805  require(bytes(_role).length > 0, \"Role cannot be empty\") */\n      tag_320\n      jumpi\n      mload(0x40)\n      0x08c379a000000000000000000000000000000000000000000000000000000000\n      dup2\n      mstore\n      0x04\n      add\n      tag_321\n      swap1\n      tag_98\n      jump\t// in\n    tag_321:\n      mload(0x40)\n      dup1\n      swap2\n      sub\n      swap1\n      revert\n    tag_320:\n        /* \"contracts/TaskManagement.sol\":3833:3838  _role */\n      dup1\n        /* \"contracts/TaskManagement.sol\":3818:3823  roles */\n      0x01\n        /* \"contracts/TaskManagement.sol\":3818:3830  roles[_user] */\n      0x00\n        /* \"contracts/TaskManagement.sol\":3824:3829  _user */\n      dup5\n        /* \"contracts/TaskManagement.sol\":3818:3830  roles[_user] */\n      0xffffffffffffffffffffffffffffffffffffffff\n      and\n      0xffffffffffffffffffffffffffffffffffffffff\n      and\n      dup2\n      mstore\n      0x20\n      add\n      swap1\n      dup2\n      mstore\n      0x20\n      add\n      0x00\n      keccak256\n        /* \"contracts/TaskManagement.sol\":3818:3838  roles[_user] = _role */\n      swap1\n      dup2\n      tag_322\n      swap2\n      swap1\n      tag_103\n      jump\t// in\n    tag_322:\n      pop\n        /* \"contracts/TaskManagement.sol\":3849:3860  roleHistory */\n      0x02\n        /* \"contracts/TaskManagement.sol\":3849:3867  roleHistory[_user] */\n      0x00\n        /* \"contracts/TaskManagement.sol\":3861:3866  _user */\n      dup4\n        /* \"contracts/TaskManagement.sol\":3849:3867  roleHistory[_user] */\n      0xffffffffffffffffffffffffffffffffffffffff\n      and\n      0xffffffffffffffffffffffffffffffffffffffff\n      and\n      dup2\n      mstore\n      0x20\n      add\n      swap1\n      dup2\n      mstore\n      0x20\n      add\n      0x00\n      keccak256\n        /* \"contracts/TaskManagement.sol\":3873:3878  _role */\n      dup2\n        /* \"contracts/TaskManagement.sol\":3849:3879  roleHistory[_user].push(_role) */\n      swap1\n      dup1\n      0x01\n      dup2\n      sload\n      add\n      dup1\n      dup3\n      sstore\n      dup1\n      swap2\n      pop\n      pop\n      0x01\n      swap1\n      sub\n      swap1\n      0x00\n      mstore\n      keccak256(0x00, 0x20)\n      add\n      0x00\n      swap1\n      swap2\n      swap1\n      swap2\n      swap1\n      swap2\n      pop\n      swap1\n      dup2\n      tag_324\n      swap2\n      swap1\n      tag_103\n      jump\t// in\n    tag_324:\n      pop\n        /* \"contracts/TaskManagement.sol\":3910:3915  _user */\n      dup2\n        /* \"contracts/TaskManagement.sol\":3897:3923  RoleAssigned(_user, _role) */\n      0xffffffffffffffffffffffffffffffffffffffff\n      and\n      0x3565795c2fb8842c21347d277937778bbcfe788b5b4f790fc5e408786cbe9c90\n        /* \"contracts/TaskManagement.sol\":3917:3922  _role */\n      dup3\n        /* \"contracts/TaskManagement.sol\":3897:3923  RoleAssigned(_user, _role) */\n      mload(0x40)\n      tag_325\n      swap2\n      swap1\n      tag_73\n      jump\t// in\n    tag_325:\n      mload(0x40)\n      dup1\n      swap2\n      sub\n      swap1\n      log2\n        /* \"contracts/TaskManagement.sol\":3565:3987  function assignRole(address _user, string memory _role) onlyManager public {... */\n      pop\n      pop\n      jump\t// out\n        /* \"contracts/TaskManagement.sol\":2591:2787  function getDID() public view returns (string memory) {... */\n    tag_71:\n        /* \"contracts/TaskManagement.sol\":2630:2643  string memory */\n      0x60\n        /* \"contracts/TaskManagement.sol\":2698:2699  0 */\n      0x00\n        /* \"contracts/TaskManagement.sol\":2664:2700  dids[msg.sender].owner != address(0) */\n      0xffffffffffffffffffffffffffffffffffffffff\n      and\n        /* \"contracts/TaskManagement.sol\":2664:2668  dids */\n      0x00\n        /* \"contracts/TaskManagement.sol\":2664:2680  dids[msg.sender] */\n      dup1\n        /* \"contracts/TaskManagement.sol\":2669:2679  msg.sender */\n      caller\n        /* \"contracts/TaskManagement.sol\":2664:2680  dids[msg.sender] */\n      0xffffffffffffffffffffffffffffffffffffffff\n      and\n      0xffffffffffffffffffffffffffffffffffffffff\n      and\n      dup2\n      mstore\n      0x20\n      add\n      swap1\n      dup2\n      mstore\n      0x20\n      add\n      0x00\n      keccak256\n        /* \"contracts/TaskManagement.sol\":2664:2686  dids[msg.sender].owner */\n      0x01\n      add\n      0x00\n      swap1\n      sload\n      swap1\n      0x0100\n      exp\n      swap1\n      div\n      0xffffffffffffffffffffffffffffffffffffffff\n      and\n        /* \"contracts/TaskManagement.sol\":2664:2700  dids[msg.sender].owner != address(0) */\n      0xffffffffffffffffffffffffffffffffffffffff\n      and\n      sub\n        /* \"contracts/TaskManagement.sol\":2656:2734  require(dids[msg.sender].owner != address(0), \"No DID found for this address\") */\n      tag_327\n      jumpi\n      mload(0x40)\n      0x08c379a000000000000000000000000000000000000000000000000000000000\n      dup2\n      mstore\n      0x04\n      add\n      tag_328\n      swap1\n      tag_329\n      jump\t// in\n    tag_328:\n      mload(0x40)\n      dup1\n      swap2\n      sub\n      swap1\n      revert\n    tag_327:\n        /* \"contracts/TaskManagement.sol\":2752:2756  dids */\n      0x00\n        /* \"contracts/TaskManagement.sol\":2752:2768  dids[msg.sender] */\n      dup1\n        /* \"contracts/TaskManagement.sol\":2757:2767  msg.sender */\n      caller\n        /* \"contracts/TaskManagement.sol\":2752:2768  dids[msg.sender] */\n      0xffffffffffffffffffffffffffffffffffffffff\n      and\n      0xffffffffffffffffffffffffffffffffffffffff\n      and\n      dup2\n      mstore\n      0x20\n      add\n      swap1\n      dup2\n      mstore\n      0x20\n      add\n      0x00\n      keccak256\n        /* \"contracts/TaskManagement.sol\":2752:2779  dids[msg.sender].identifier */\n      0x00\n      add\n        /* \"contracts/TaskManagement.sol\":2745:2779  return dids[msg.sender].identifier */\n      dup1\n      sload\n      tag_330\n      swap1\n      tag_130\n      jump\t// in\n    tag_330:\n      dup1\n      0x1f\n      add\n      0x20\n      dup1\n      swap2\n      div\n      mul\n      0x20\n      add\n      mload(0x40)\n      swap1\n      dup2\n      add\n      0x40\n      mstore\n      dup1\n      swap3\n      swap2\n      swap1\n      dup2\n      dup2\n      mstore\n      0x20\n      add\n      dup3\n      dup1\n      sload\n      tag_331\n      swap1\n      tag_130\n      jump\t// in\n    tag_331:\n      dup1\n      iszero\n      tag_332\n      jumpi\n      dup1\n      0x1f\n      lt\n      tag_333\n      jumpi\n      0x0100\n      dup1\n      dup4\n      sload\n      div\n      mul\n      dup4\n      mstore\n      swap2\n      0x20\n      add\n      swap2\n      jump(tag_332)\n    tag_333:\n      dup3\n      add\n      swap2\n      swap1\n      0x00\n      mstore\n      keccak256(0x00, 0x20)\n      swap1\n    tag_334:\n      dup2\n      sload\n      dup2\n      mstore\n      swap1\n      0x01\n      add\n      swap1\n      0x20\n      add\n      dup1\n      dup4\n      gt\n      tag_334\n      jumpi\n      dup3\n      swap1\n      sub\n      0x1f\n      and\n      dup3\n      add\n      swap2\n    tag_332:\n      pop\n      pop\n      pop\n      pop\n      pop\n      swap1\n      pop\n        /* \"contracts/TaskManagement.sol\":2591:2787  function getDID() public view returns (string memory) {... */\n      swap1\n      jump\t// out\n        /* \"contracts/TaskManagement.sol\":10096:10590  function completeTask(uint _id) public {... */\n    tag_76:\n        /* \"contracts/TaskManagement.sol\":10188:10189  0 */\n      0x00\n        /* \"contracts/TaskManagement.sol\":10154:10190  dids[msg.sender].owner != address(0) */\n      0xffffffffffffffffffffffffffffffffffffffff\n      and\n        /* \"contracts/TaskManagement.sol\":10154:10158  dids */\n      0x00\n        /* \"contracts/TaskManagement.sol\":10154:10170  dids[msg.sender] */\n      dup1\n        /* \"contracts/TaskManagement.sol\":10159:10169  msg.sender */\n      caller\n        /* \"contracts/TaskManagement.sol\":10154:10170  dids[msg.sender] */\n      0xffffffffffffffffffffffffffffffffffffffff\n      and\n      0xffffffffffffffffffffffffffffffffffffffff\n      and\n      dup2\n      mstore\n      0x20\n      add\n      swap1\n      dup2\n      mstore\n      0x20\n      add\n      0x00\n      keccak256\n        /* \"contracts/TaskManagement.sol\":10154:10176  dids[msg.sender].owner */\n      0x01\n      add\n      0x00\n      swap1\n      sload\n      swap1\n      0x0100\n      exp\n      swap1\n      div\n      0xffffffffffffffffffffffffffffffffffffffff\n      and\n        /* \"contracts/TaskManagement.sol\":10154:10190  dids[msg.sender].owner != address(0) */\n      0xffffffffffffffffffffffffffffffffffffffff\n      and\n      sub\n        /* \"contracts/TaskManagement.sol\":10146:10233  require(dids[msg.sender].owner != address(0), \"No existing DID found for this address\") */\n      tag_336\n      jumpi\n      mload(0x40)\n      0x08c379a000000000000000000000000000000000000000000000000000000000\n      dup2\n      mstore\n      0x04\n      add\n      tag_337\n      swap1\n      tag_95\n      jump\t// in\n    tag_337:\n      mload(0x40)\n      dup1\n      swap2\n      sub\n      swap1\n      revert\n    tag_336:\n        /* \"contracts/TaskManagement.sol\":10266:10271  tasks */\n      0x05\n        /* \"contracts/TaskManagement.sol\":10266:10276  tasks[_id] */\n      0x00\n        /* \"contracts/TaskManagement.sol\":10272:10275  _id */\n      dup3\n        /* \"contracts/TaskManagement.sol\":10266:10276  tasks[_id] */\n      dup2\n      mstore\n      0x20\n      add\n      swap1\n      dup2\n      mstore\n      0x20\n      add\n      0x00\n      keccak256\n        /* \"contracts/TaskManagement.sol\":10266:10287  tasks[_id].assignedTo */\n      0x05\n      add\n      0x00\n      swap1\n      sload\n      swap1\n      0x0100\n      exp\n      swap1\n      div\n      0xffffffffffffffffffffffffffffffffffffffff\n      and\n        /* \"contracts/TaskManagement.sol\":10252:10287  msg.sender == tasks[_id].assignedTo */\n      0xffffffffffffffffffffffffffffffffffffffff\n      and\n        /* \"contracts/TaskManagement.sol\":10252:10262  msg.sender */\n      caller\n        /* \"contracts/TaskManagement.sol\":10252:10287  msg.sender == tasks[_id].assignedTo */\n      0xffffffffffffffffffffffffffffffffffffffff\n      and\n      eq\n        /* \"contracts/TaskManagement.sol\":10244:10306  require(msg.sender == tasks[_id].assignedTo, \"Not authorized\") */\n      tag_338\n      jumpi\n      mload(0x40)\n      0x08c379a000000000000000000000000000000000000000000000000000000000\n      dup2\n      mstore\n      0x04\n      add\n      tag_339\n      swap1\n      tag_184\n      jump\t// in\n    tag_339:\n      mload(0x40)\n      dup1\n      swap2\n      sub\n      swap1\n      revert\n    tag_338:\n        /* \"contracts/TaskManagement.sol\":10326:10331  tasks */\n      0x05\n        /* \"contracts/TaskManagement.sol\":10326:10336  tasks[_id] */\n      0x00\n        /* \"contracts/TaskManagement.sol\":10332:10335  _id */\n      dup3\n        /* \"contracts/TaskManagement.sol\":10326:10336  tasks[_id] */\n      dup2\n      mstore\n      0x20\n      add\n      swap1\n      dup2\n      mstore\n      0x20\n      add\n      0x00\n      keccak256\n        /* \"contracts/TaskManagement.sol\":10326:10348  tasks[_id].isCompleted */\n      0x05\n      add\n      0x14\n      swap1\n      sload\n      swap1\n      0x0100\n      exp\n      swap1\n      div\n      0xff\n      and\n        /* \"contracts/TaskManagement.sol\":10325:10348  !tasks[_id].isCompleted */\n      iszero\n        /* \"contracts/TaskManagement.sol\":10317:10375  require(!tasks[_id].isCompleted, \"Task already completed\") */\n      tag_340\n      jumpi\n      mload(0x40)\n      0x08c379a000000000000000000000000000000000000000000000000000000000\n      dup2\n      mstore\n      0x04\n      add\n      tag_341\n      swap1\n      tag_342\n      jump\t// in\n    tag_341:\n      mload(0x40)\n      dup1\n      swap2\n      sub\n      swap1\n      revert\n    tag_340:\n        /* \"contracts/TaskManagement.sol\":10468:10472  true */\n      0x01\n        /* \"contracts/TaskManagement.sol\":10443:10448  tasks */\n      0x05\n        /* \"contracts/TaskManagement.sol\":10443:10453  tasks[_id] */\n      0x00\n        /* \"contracts/TaskManagement.sol\":10449:10452  _id */\n      dup4\n        /* \"contracts/TaskManagement.sol\":10443:10453  tasks[_id] */\n      dup2\n      mstore\n      0x20\n      add\n      swap1\n      dup2\n      mstore\n      0x20\n      add\n      0x00\n      keccak256\n        /* \"contracts/TaskManagement.sol\":10443:10465  tasks[_id].isCompleted */\n      0x05\n      add\n      0x14\n        /* \"contracts/TaskManagement.sol\":10443:10472  tasks[_id].isCompleted = true */\n      0x0100\n      exp\n      dup2\n      sload\n      dup2\n      0xff\n      mul\n      not\n      and\n      swap1\n      dup4\n      iszero\n      iszero\n      mul\n      or\n      swap1\n      sstore\n      pop\n        /* \"contracts/TaskManagement.sol\":10508:10523  block.timestamp */\n      timestamp\n        /* \"contracts/TaskManagement.sol\":10483:10488  tasks */\n      0x05\n        /* \"contracts/TaskManagement.sol\":10483:10493  tasks[_id] */\n      0x00\n        /* \"contracts/TaskManagement.sol\":10489:10492  _id */\n      dup4\n        /* \"contracts/TaskManagement.sol\":10483:10493  tasks[_id] */\n      dup2\n      mstore\n      0x20\n      add\n      swap1\n      dup2\n      mstore\n      0x20\n      add\n      0x00\n      keccak256\n        /* \"contracts/TaskManagement.sol\":10483:10505  tasks[_id].completedAt */\n      0x06\n      add\n        /* \"contracts/TaskManagement.sol\":10483:10523  tasks[_id].completedAt = block.timestamp */\n      dup2\n      swap1\n      sstore\n      pop\n        /* \"contracts/TaskManagement.sol\":10555:10560  tasks */\n      0x05\n        /* \"contracts/TaskManagement.sol\":10555:10565  tasks[_id] */\n      0x00\n        /* \"contracts/TaskManagement.sol\":10561:10564  _id */\n      dup3\n        /* \"contracts/TaskManagement.sol\":10555:10565  tasks[_id] */\n      dup2\n      mstore\n      0x20\n      add\n      swap1\n      dup2\n      mstore\n      0x20\n      add\n      0x00\n      keccak256\n        /* \"contracts/TaskManagement.sol\":10555:10576  tasks[_id].assignedTo */\n      0x05\n      add\n      0x00\n      swap1\n      sload\n      swap1\n      0x0100\n      exp\n      swap1\n      div\n      0xffffffffffffffffffffffffffffffffffffffff\n      and\n        /* \"contracts/TaskManagement.sol\":10541:10582  TaskCompleted(tasks[_id].assignedTo, _id) */\n      0xffffffffffffffffffffffffffffffffffffffff\n      and\n      0xf684d89bb0f42287bf32838774e4b7f8a60c11804b3c6d1791fa55f306792643\n        /* \"contracts/TaskManagement.sol\":10578:10581  _id */\n      dup3\n        /* \"contracts/TaskManagement.sol\":10541:10582  TaskCompleted(tasks[_id].assignedTo, _id) */\n      mload(0x40)\n      tag_343\n      swap2\n      swap1\n      tag_344\n      jump\t// in\n    tag_343:\n      mload(0x40)\n      dup1\n      swap2\n      sub\n      swap1\n      log2\n        /* \"contracts/TaskManagement.sol\":10096:10590  function completeTask(uint _id) public {... */\n      pop\n      jump\t// out\n        /* \"contracts/TaskManagement.sol\":5662:6472  function verifyRole(address _user, address _issuer, string memory _role) public returns (bool) {... */\n    tag_80:\n        /* \"contracts/TaskManagement.sol\":5751:5755  bool */\n      0x00\n        /* \"contracts/TaskManagement.sol\":5805:5806  0 */\n      dup1\n        /* \"contracts/TaskManagement.sol\":5776:5807  dids[_user].owner != address(0) */\n      0xffffffffffffffffffffffffffffffffffffffff\n      and\n        /* \"contracts/TaskManagement.sol\":5776:5780  dids */\n      0x00\n        /* \"contracts/TaskManagement.sol\":5776:5787  dids[_user] */\n      dup1\n        /* \"contracts/TaskManagement.sol\":5781:5786  _user */\n      dup7\n        /* \"contracts/TaskManagement.sol\":5776:5787  dids[_user] */\n      0xffffffffffffffffffffffffffffffffffffffff\n      and\n      0xffffffffffffffffffffffffffffffffffffffff\n      and\n      dup2\n      mstore\n      0x20\n      add\n      swap1\n      dup2\n      mstore\n      0x20\n      add\n      0x00\n      keccak256\n        /* \"contracts/TaskManagement.sol\":5776:5793  dids[_user].owner */\n      0x01\n      add\n      0x00\n      swap1\n      sload\n      swap1\n      0x0100\n      exp\n      swap1\n      div\n      0xffffffffffffffffffffffffffffffffffffffff\n      and\n        /* \"contracts/TaskManagement.sol\":5776:5807  dids[_user].owner != address(0) */\n      0xffffffffffffffffffffffffffffffffffffffff\n      and\n      sub\n        /* \"contracts/TaskManagement.sol\":5768:5847  require(dids[_user].owner != address(0), \"No existing DID found for this user\") */\n      tag_346\n      jumpi\n      mload(0x40)\n      0x08c379a000000000000000000000000000000000000000000000000000000000\n      dup2\n      mstore\n      0x04\n      add\n      tag_347\n      swap1\n      tag_348\n      jump\t// in\n    tag_347:\n      mload(0x40)\n      dup1\n      swap2\n      sub\n      swap1\n      revert\n    tag_346:\n        /* \"contracts/TaskManagement.sol\":5894:5895  0 */\n      0x00\n        /* \"contracts/TaskManagement.sol\":5866:5877  credentials */\n      0x03\n        /* \"contracts/TaskManagement.sol\":5866:5884  credentials[_user] */\n      0x00\n        /* \"contracts/TaskManagement.sol\":5878:5883  _user */\n      dup7\n        /* \"contracts/TaskManagement.sol\":5866:5884  credentials[_user] */\n      0xffffffffffffffffffffffffffffffffffffffff\n      and\n      0xffffffffffffffffffffffffffffffffffffffff\n      and\n      dup2\n      mstore\n      0x20\n      add\n      swap1\n      dup2\n      mstore\n      0x20\n      add\n      0x00\n      keccak256\n        /* \"contracts/TaskManagement.sol\":5866:5891  credentials[_user].length */\n      dup1\n      sload\n      swap1\n      pop\n        /* \"contracts/TaskManagement.sol\":5866:5895  credentials[_user].length > 0 */\n      gt\n        /* \"contracts/TaskManagement.sol\":5858:5933  require(credentials[_user].length > 0, \"User does not have any credential\") */\n      tag_349\n      jumpi\n      mload(0x40)\n      0x08c379a000000000000000000000000000000000000000000000000000000000\n      dup2\n      mstore\n      0x04\n      add\n      tag_350\n      swap1\n      tag_351\n      jump\t// in\n    tag_350:\n      mload(0x40)\n      dup1\n      swap2\n      sub\n      swap1\n      revert\n    tag_349:\n        /* \"contracts/TaskManagement.sol\":5986:6020  Credential memory latestCredential */\n      0x00\n        /* \"contracts/TaskManagement.sol\":6023:6034  credentials */\n      0x03\n        /* \"contracts/TaskManagement.sol\":6023:6041  credentials[_user] */\n      0x00\n        /* \"contracts/TaskManagement.sol\":6035:6040  _user */\n      dup7\n        /* \"contracts/TaskManagement.sol\":6023:6041  credentials[_user] */\n      0xffffffffffffffffffffffffffffffffffffffff\n      and\n      0xffffffffffffffffffffffffffffffffffffffff\n      and\n      dup2\n      mstore\n      0x20\n      add\n      swap1\n      dup2\n      mstore\n      0x20\n      add\n      0x00\n      keccak256\n        /* \"contracts/TaskManagement.sol\":6070:6071  1 */\n      0x01\n        /* \"contracts/TaskManagement.sol\":6042:6053  credentials */\n      0x03\n        /* \"contracts/TaskManagement.sol\":6042:6060  credentials[_user] */\n      0x00\n        /* \"contracts/TaskManagement.sol\":6054:6059  _user */\n      dup9\n        /* \"contracts/TaskManagement.sol\":6042:6060  credentials[_user] */\n      0xffffffffffffffffffffffffffffffffffffffff\n      and\n      0xffffffffffffffffffffffffffffffffffffffff\n      and\n      dup2\n      mstore\n      0x20\n      add\n      swap1\n      dup2\n      mstore\n      0x20\n      add\n      0x00\n      keccak256\n        /* \"contracts/TaskManagement.sol\":6042:6067  credentials[_user].length */\n      dup1\n      sload\n      swap1\n      pop\n        /* \"contracts/TaskManagement.sol\":6042:6071  credentials[_user].length - 1 */\n      tag_352\n      swap2\n      swap1\n      tag_300\n      jump\t// in\n    tag_352:\n        /* \"contracts/TaskManagement.sol\":6023:6072  credentials[_user][credentials[_user].length - 1] */\n      dup2\n      sload\n      dup2\n      lt\n      tag_353\n      jumpi\n      tag_354\n      tag_147\n      jump\t// in\n    tag_354:\n    tag_353:\n      swap1\n      0x00\n      mstore\n      keccak256(0x00, 0x20)\n      swap1\n      0x04\n      mul\n      add\n        /* \"contracts/TaskManagement.sol\":5986:6072  Credential memory latestCredential = credentials[_user][credentials[_user].length - 1] */\n      mload(0x40)\n      dup1\n      0x80\n      add\n      0x40\n      mstore\n      swap1\n      dup2\n      0x00\n      dup3\n      add\n      0x00\n      swap1\n      sload\n      swap1\n      0x0100\n      exp\n      swap1\n      div\n      0xffffffffffffffffffffffffffffffffffffffff\n      and\n      0xffffffffffffffffffffffffffffffffffffffff\n      and\n      0xffffffffffffffffffffffffffffffffffffffff\n      and\n      dup2\n      mstore\n      0x20\n      add\n      0x01\n      dup3\n      add\n      dup1\n      sload\n      tag_356\n      swap1\n      tag_130\n      jump\t// in\n    tag_356:\n      dup1\n      0x1f\n      add\n      0x20\n      dup1\n      swap2\n      div\n      mul\n      0x20\n      add\n      mload(0x40)\n      swap1\n      dup2\n      add\n      0x40\n      mstore\n      dup1\n      swap3\n      swap2\n      swap1\n      dup2\n      dup2\n      mstore\n      0x20\n      add\n      dup3\n      dup1\n      sload\n      tag_357\n      swap1\n      tag_130\n      jump\t// in\n    tag_357:\n      dup1\n      iszero\n      tag_358\n      jumpi\n      dup1\n      0x1f\n      lt\n      tag_359\n      jumpi\n      0x0100\n      dup1\n      dup4\n      sload\n      div\n      mul\n      dup4\n      mstore\n      swap2\n      0x20\n      add\n      swap2\n      jump(tag_358)\n    tag_359:\n      dup3\n      add\n      swap2\n      swap1\n      0x00\n      mstore\n      keccak256(0x00, 0x20)\n      swap1\n    tag_360:\n      dup2\n      sload\n      dup2\n      mstore\n      swap1\n      0x01\n      add\n      swap1\n      0x20\n      add\n      dup1\n      dup4\n      gt\n      tag_360\n      jumpi\n      dup3\n      swap1\n      sub\n      0x1f\n      and\n      dup3\n      add\n      swap2\n    tag_358:\n      pop\n      pop\n      pop\n      pop\n      pop\n      dup2\n      mstore\n      0x20\n      add\n      0x02\n      dup3\n      add\n      sload\n      dup2\n      mstore\n      0x20\n      add\n      0x03\n      dup3\n      add\n      sload\n      dup2\n      mstore\n      pop\n      pop\n      swap1\n      pop\n        /* \"contracts/TaskManagement.sol\":6134:6156  bytes32 storedRoleHash */\n      0x00\n        /* \"contracts/TaskManagement.sol\":6159:6175  latestCredential */\n      dup2\n        /* \"contracts/TaskManagement.sol\":6159:6184  latestCredential.roleHash */\n      0x40\n      add\n      mload\n        /* \"contracts/TaskManagement.sol\":6134:6184  bytes32 storedRoleHash = latestCredential.roleHash */\n      swap1\n      pop\n        /* \"contracts/TaskManagement.sol\":6240:6256  bytes32 roleHash */\n      0x00\n        /* \"contracts/TaskManagement.sol\":6286:6293  _issuer */\n      dup6\n        /* \"contracts/TaskManagement.sol\":6295:6300  _user */\n      dup8\n        /* \"contracts/TaskManagement.sol\":6302:6307  _role */\n      dup7\n        /* \"contracts/TaskManagement.sol\":6309:6325  latestCredential */\n      dup6\n        /* \"contracts/TaskManagement.sol\":6309:6333  latestCredential.issueAt */\n      0x60\n      add\n      mload\n        /* \"contracts/TaskManagement.sol\":6269:6334  abi.encodePacked(_issuer, _user, _role, latestCredential.issueAt) */\n      add(0x20, mload(0x40))\n      tag_361\n      swap5\n      swap4\n      swap3\n      swap2\n      swap1\n      tag_100\n      jump\t// in\n    tag_361:\n      mload(0x40)\n      0x20\n      dup2\n      dup4\n      sub\n      sub\n      dup2\n      mstore\n      swap1\n      0x40\n      mstore\n        /* \"contracts/TaskManagement.sol\":6259:6335  keccak256(abi.encodePacked(_issuer, _user, _role, latestCredential.issueAt)) */\n      dup1\n      mload\n      swap1\n      0x20\n      add\n      keccak256\n        /* \"contracts/TaskManagement.sol\":6240:6335  bytes32 roleHash = keccak256(abi.encodePacked(_issuer, _user, _role, latestCredential.issueAt)) */\n      swap1\n      pop\n        /* \"contracts/TaskManagement.sol\":6348:6359  bool status */\n      0x00\n        /* \"contracts/TaskManagement.sol\":6380:6388  roleHash */\n      dup2\n        /* \"contracts/TaskManagement.sol\":6362:6376  storedRoleHash */\n      dup4\n        /* \"contracts/TaskManagement.sol\":6362:6388  storedRoleHash == roleHash */\n      eq\n        /* \"contracts/TaskManagement.sol\":6348:6388  bool status = storedRoleHash == roleHash */\n      swap1\n      pop\n        /* \"contracts/TaskManagement.sol\":6417:6424  _issuer */\n      dup7\n        /* \"contracts/TaskManagement.sol\":6404:6440  RoleVerified(_issuer, _role, status) */\n      0xffffffffffffffffffffffffffffffffffffffff\n      and\n      0x743119e0f5c3443022e2e080183ceafc4ccb88f4c29fc6dbdab02412b9935908\n        /* \"contracts/TaskManagement.sol\":6426:6431  _role */\n      dup8\n        /* \"contracts/TaskManagement.sol\":6433:6439  status */\n      dup4\n        /* \"contracts/TaskManagement.sol\":6404:6440  RoleVerified(_issuer, _role, status) */\n      mload(0x40)\n      tag_362\n      swap3\n      swap2\n      swap1\n      tag_363\n      jump\t// in\n    tag_362:\n      mload(0x40)\n      dup1\n      swap2\n      sub\n      swap1\n      log2\n        /* \"contracts/TaskManagement.sol\":6458:6464  status */\n      dup1\n        /* \"contracts/TaskManagement.sol\":6451:6464  return status */\n      swap5\n      pop\n      pop\n      pop\n      pop\n      pop\n        /* \"contracts/TaskManagement.sol\":5662:6472  function verifyRole(address _user, address _issuer, string memory _role) public returns (bool) {... */\n      swap4\n      swap3\n      pop\n      pop\n      pop\n      jump\t// out\n        /* \"contracts/TaskManagement.sol\":5148:5629  function getRole() public view returns (string[] memory) {... */\n    tag_83:\n        /* \"contracts/TaskManagement.sol\":5188:5203  string[] memory */\n      0x60\n        /* \"contracts/TaskManagement.sol\":5258:5259  0 */\n      0x00\n        /* \"contracts/TaskManagement.sol\":5224:5260  dids[msg.sender].owner != address(0) */\n      0xffffffffffffffffffffffffffffffffffffffff\n      and\n        /* \"contracts/TaskManagement.sol\":5224:5228  dids */\n      0x00\n        /* \"contracts/TaskManagement.sol\":5224:5240  dids[msg.sender] */\n      dup1\n        /* \"contracts/TaskManagement.sol\":5229:5239  msg.sender */\n      caller\n        /* \"contracts/TaskManagement.sol\":5224:5240  dids[msg.sender] */\n      0xffffffffffffffffffffffffffffffffffffffff\n      and\n      0xffffffffffffffffffffffffffffffffffffffff\n      and\n      dup2\n      mstore\n      0x20\n      add\n      swap1\n      dup2\n      mstore\n      0x20\n      add\n      0x00\n      keccak256\n        /* \"contracts/TaskManagement.sol\":5224:5246  dids[msg.sender].owner */\n      0x01\n      add\n      0x00\n      swap1\n      sload\n      swap1\n      0x0100\n      exp\n      swap1\n      div\n      0xffffffffffffffffffffffffffffffffffffffff\n      and\n        /* \"contracts/TaskManagement.sol\":5224:5260  dids[msg.sender].owner != address(0) */\n      0xffffffffffffffffffffffffffffffffffffffff\n      and\n      sub\n        /* \"contracts/TaskManagement.sol\":5216:5303  require(dids[msg.sender].owner != address(0), \"No existing DID found for this address\") */\n      tag_365\n      jumpi\n      mload(0x40)\n      0x08c379a000000000000000000000000000000000000000000000000000000000\n      dup2\n      mstore\n      0x04\n      add\n      tag_366\n      swap1\n      tag_95\n      jump\t// in\n    tag_366:\n      mload(0x40)\n      dup1\n      swap2\n      sub\n      swap1\n      revert\n    tag_365:\n        /* \"contracts/TaskManagement.sol\":5349:5374  string[] memory userRoles */\n      0x00\n        /* \"contracts/TaskManagement.sol\":5377:5388  roleHistory */\n      0x02\n        /* \"contracts/TaskManagement.sol\":5377:5400  roleHistory[msg.sender] */\n      0x00\n        /* \"contracts/TaskManagement.sol\":5389:5399  msg.sender */\n      caller\n        /* \"contracts/TaskManagement.sol\":5377:5400  roleHistory[msg.sender] */\n      0xffffffffffffffffffffffffffffffffffffffff\n      and\n      0xffffffffffffffffffffffffffffffffffffffff\n      and\n      dup2\n      mstore\n      0x20\n      add\n      swap1\n      dup2\n      mstore\n      0x20\n      add\n      0x00\n      keccak256\n        /* \"contracts/TaskManagement.sol\":5349:5400  string[] memory userRoles = roleHistory[msg.sender] */\n      dup1\n      sload\n      dup1\n      0x20\n      mul\n      0x20\n      add\n      mload(0x40)\n      swap1\n      dup2\n      add\n      0x40\n      mstore\n      dup1\n      swap3\n      swap2\n      swap1\n      dup2\n      dup2\n      mstore\n      0x20\n      add\n      0x00\n      swap1\n    tag_367:\n      dup3\n      dup3\n      lt\n      iszero\n      tag_368\n      jumpi\n      dup4\n      dup3\n      swap1\n      0x00\n      mstore\n      keccak256(0x00, 0x20)\n      add\n      dup1\n      sload\n      tag_370\n      swap1\n      tag_130\n      jump\t// in\n    tag_370:\n      dup1\n      0x1f\n      add\n      0x20\n      dup1\n      swap2\n      div\n      mul\n      0x20\n      add\n      mload(0x40)\n      swap1\n      dup2\n      add\n      0x40\n      mstore\n      dup1\n      swap3\n      swap2\n      swap1\n      dup2\n      dup2\n      mstore\n      0x20\n      add\n      dup3\n      dup1\n      sload\n      tag_371\n      swap1\n      tag_130\n      jump\t// in\n    tag_371:\n      dup1\n      iszero\n      tag_372\n      jumpi\n      dup1\n      0x1f\n      lt\n      tag_373\n      jumpi\n      0x0100\n      dup1\n      dup4\n      sload\n      div\n      mul\n      dup4\n      mstore\n      swap2\n      0x20\n      add\n      swap2\n      jump(tag_372)\n    tag_373:\n      dup3\n      add\n      swap2\n      swap1\n      0x00\n      mstore\n      keccak256(0x00, 0x20)\n      swap1\n    tag_374:\n      dup2\n      sload\n      dup2\n      mstore\n      swap1\n      0x01\n      add\n      swap1\n      0x20\n      add\n      dup1\n      dup4\n      gt\n      tag_374\n      jumpi\n      dup3\n      swap1\n      sub\n      0x1f\n      and\n      dup3\n      add\n      swap2\n    tag_372:\n      pop\n      pop\n      pop\n      pop\n      pop\n      dup2\n      mstore\n      0x20\n      add\n      swap1\n      0x01\n      add\n      swap1\n      jump(tag_367)\n    tag_368:\n      pop\n      pop\n      pop\n      pop\n      swap1\n      pop\n        /* \"contracts/TaskManagement.sol\":5502:5503  0 */\n      0x00\n        /* \"contracts/TaskManagement.sol\":5483:5492  userRoles */\n      dup2\n        /* \"contracts/TaskManagement.sol\":5483:5499  userRoles.length */\n      mload\n        /* \"contracts/TaskManagement.sol\":5483:5503  userRoles.length > 0 */\n      gt\n        /* \"contracts/TaskManagement.sol\":5475:5539  require(userRoles.length > 0, \"No roles assigned for this user\") */\n      tag_375\n      jumpi\n      mload(0x40)\n      0x08c379a000000000000000000000000000000000000000000000000000000000\n      dup2\n      mstore\n      0x04\n      add\n      tag_376\n      swap1\n      tag_377\n      jump\t// in\n    tag_376:\n      mload(0x40)\n      dup1\n      swap2\n      sub\n      swap1\n      revert\n    tag_375:\n        /* \"contracts/TaskManagement.sol\":5612:5621  userRoles */\n      dup1\n        /* \"contracts/TaskManagement.sol\":5605:5621  return userRoles */\n      swap2\n      pop\n      pop\n        /* \"contracts/TaskManagement.sol\":5148:5629  function getRole() public view returns (string[] memory) {... */\n      swap1\n      jump\t// out\n    tag_125:\n      mload(0x40)\n      dup1\n      0x0100\n      add\n      0x40\n      mstore\n      dup1\n      0x00\n      dup2\n      mstore\n      0x20\n      add\n      0x60\n      dup2\n      mstore\n      0x20\n      add\n      0x60\n      dup2\n      mstore\n      0x20\n      add\n      0x00\n      0x02\n      dup2\n      gt\n      iszero\n      tag_378\n      jumpi\n      tag_379\n      tag_142\n      jump\t// in\n    tag_379:\n    tag_378:\n      dup2\n      mstore\n      0x20\n      add\n      0x00\n      dup2\n      mstore\n      0x20\n      add\n      and(0xffffffffffffffffffffffffffffffffffffffff, 0x00)\n      dup2\n      mstore\n      0x20\n      add\n      iszero(iszero(0x00))\n      dup2\n      mstore\n      0x20\n      add\n      0x00\n      dup2\n      mstore\n      pop\n      swap1\n      jump\t// out\n        /* \"#utility.yul\":7:82   */\n    tag_380:\n        /* \"#utility.yul\":40:46   */\n      0x00\n        /* \"#utility.yul\":73:75   */\n      0x40\n        /* \"#utility.yul\":67:76   */\n      mload\n        /* \"#utility.yul\":57:76   */\n      swap1\n      pop\n        /* \"#utility.yul\":7:82   */\n      swap1\n      jump\t// out\n        /* \"#utility.yul\":88:205   */\n    tag_381:\n        /* \"#utility.yul\":197:198   */\n      0x00\n        /* \"#utility.yul\":194:195   */\n      dup1\n        /* \"#utility.yul\":187:199   */\n      revert\n        /* \"#utility.yul\":211:328   */\n    tag_382:\n        /* \"#utility.yul\":320:321   */\n      0x00\n        /* \"#utility.yul\":317:318   */\n      dup1\n        /* \"#utility.yul\":310:322   */\n      revert\n        /* \"#utility.yul\":334:460   */\n    tag_383:\n        /* \"#utility.yul\":371:378   */\n      0x00\n        /* \"#utility.yul\":411:453   */\n      0xffffffffffffffffffffffffffffffffffffffff\n        /* \"#utility.yul\":404:409   */\n      dup3\n        /* \"#utility.yul\":400:454   */\n      and\n        /* \"#utility.yul\":389:454   */\n      swap1\n      pop\n        /* \"#utility.yul\":334:460   */\n      swap2\n      swap1\n      pop\n      jump\t// out\n        /* \"#utility.yul\":466:562   */\n    tag_384:\n        /* \"#utility.yul\":503:510   */\n      0x00\n        /* \"#utility.yul\":532:556   */\n      tag_510\n        /* \"#utility.yul\":550:555   */\n      dup3\n        /* \"#utility.yul\":532:556   */\n      tag_383\n      jump\t// in\n    tag_510:\n        /* \"#utility.yul\":521:556   */\n      swap1\n      pop\n        /* \"#utility.yul\":466:562   */\n      swap2\n      swap1\n      pop\n      jump\t// out\n        /* \"#utility.yul\":568:690   */\n    tag_385:\n        /* \"#utility.yul\":641:665   */\n      tag_512\n        /* \"#utility.yul\":659:664   */\n      dup2\n        /* \"#utility.yul\":641:665   */\n      tag_384\n      jump\t// in\n    tag_512:\n        /* \"#utility.yul\":634:639   */\n      dup2\n        /* \"#utility.yul\":631:666   */\n      eq\n        /* \"#utility.yul\":621:684   */\n      tag_513\n      jumpi\n        /* \"#utility.yul\":680:681   */\n      0x00\n        /* \"#utility.yul\":677:678   */\n      dup1\n        /* \"#utility.yul\":670:682   */\n      revert\n        /* \"#utility.yul\":621:684   */\n    tag_513:\n        /* \"#utility.yul\":568:690   */\n      pop\n      jump\t// out\n        /* \"#utility.yul\":696:835   */\n    tag_386:\n        /* \"#utility.yul\":742:747   */\n      0x00\n        /* \"#utility.yul\":780:786   */\n      dup2\n        /* \"#utility.yul\":767:787   */\n      calldataload\n        /* \"#utility.yul\":758:787   */\n      swap1\n      pop\n        /* \"#utility.yul\":796:829   */\n      tag_515\n        /* \"#utility.yul\":823:828   */\n      dup2\n        /* \"#utility.yul\":796:829   */\n      tag_385\n      jump\t// in\n    tag_515:\n        /* \"#utility.yul\":696:835   */\n      swap3\n      swap2\n      pop\n      pop\n      jump\t// out\n        /* \"#utility.yul\":841:958   */\n    tag_387:\n        /* \"#utility.yul\":950:951   */\n      0x00\n        /* \"#utility.yul\":947:948   */\n      dup1\n        /* \"#utility.yul\":940:952   */\n      revert\n        /* \"#utility.yul\":964:1081   */\n    tag_388:\n        /* \"#utility.yul\":1073:1074   */\n      0x00\n        /* \"#utility.yul\":1070:1071   */\n      dup1\n        /* \"#utility.yul\":1063:1075   */\n      revert\n        /* \"#utility.yul\":1087:1189   */\n    tag_389:\n        /* \"#utility.yul\":1128:1134   */\n      0x00\n        /* \"#utility.yul\":1179:1181   */\n      0x1f\n        /* \"#utility.yul\":1175:1182   */\n      not\n        /* \"#utility.yul\":1170:1172   */\n      0x1f\n        /* \"#utility.yul\":1163:1168   */\n      dup4\n        /* \"#utility.yul\":1159:1173   */\n      add\n        /* \"#utility.yul\":1155:1183   */\n      and\n        /* \"#utility.yul\":1145:1183   */\n      swap1\n      pop\n        /* \"#utility.yul\":1087:1189   */\n      swap2\n      swap1\n      pop\n      jump\t// out\n        /* \"#utility.yul\":1195:1375   */\n    tag_121:\n        /* \"#utility.yul\":1243:1320   */\n      0x4e487b7100000000000000000000000000000000000000000000000000000000\n        /* \"#utility.yul\":1240:1241   */\n      0x00\n        /* \"#utility.yul\":1233:1321   */\n      mstore\n        /* \"#utility.yul\":1340:1344   */\n      0x41\n        /* \"#utility.yul\":1337:1338   */\n      0x04\n        /* \"#utility.yul\":1330:1345   */\n      mstore\n        /* \"#utility.yul\":1364:1368   */\n      0x24\n        /* \"#utility.yul\":1361:1362   */\n      0x00\n        /* \"#utility.yul\":1354:1369   */\n      revert\n        /* \"#utility.yul\":1381:1662   */\n    tag_390:\n        /* \"#utility.yul\":1464:1491   */\n      tag_521\n        /* \"#utility.yul\":1486:1490   */\n      dup3\n        /* \"#utility.yul\":1464:1491   */\n      tag_389\n      jump\t// in\n    tag_521:\n        /* \"#utility.yul\":1456:1462   */\n      dup2\n        /* \"#utility.yul\":1452:1492   */\n      add\n        /* \"#utility.yul\":1594:1600   */\n      dup2\n        /* \"#utility.yul\":1582:1592   */\n      dup2\n        /* \"#utility.yul\":1579:1601   */\n      lt\n        /* \"#utility.yul\":1558:1576   */\n      0xffffffffffffffff\n        /* \"#utility.yul\":1546:1556   */\n      dup3\n        /* \"#utility.yul\":1543:1577   */\n      gt\n        /* \"#utility.yul\":1540:1602   */\n      or\n        /* \"#utility.yul\":1537:1625   */\n      iszero\n      tag_522\n      jumpi\n        /* \"#utility.yul\":1605:1623   */\n      tag_523\n      tag_121\n      jump\t// in\n    tag_523:\n        /* \"#utility.yul\":1537:1625   */\n    tag_522:\n        /* \"#utility.yul\":1645:1655   */\n      dup1\n        /* \"#utility.yul\":1641:1643   */\n      0x40\n        /* \"#utility.yul\":1634:1656   */\n      mstore\n        /* \"#utility.yul\":1424:1662   */\n      pop\n        /* \"#utility.yul\":1381:1662   */\n      pop\n      pop\n      jump\t// out\n        /* \"#utility.yul\":1668:1797   */\n    tag_391:\n        /* \"#utility.yul\":1702:1708   */\n      0x00\n        /* \"#utility.yul\":1729:1749   */\n      tag_525\n      tag_380\n      jump\t// in\n    tag_525:\n        /* \"#utility.yul\":1719:1749   */\n      swap1\n      pop\n        /* \"#utility.yul\":1758:1791   */\n      tag_526\n        /* \"#utility.yul\":1786:1790   */\n      dup3\n        /* \"#utility.yul\":1778:1784   */\n      dup3\n        /* \"#utility.yul\":1758:1791   */\n      tag_390\n      jump\t// in\n    tag_526:\n        /* \"#utility.yul\":1668:1797   */\n      swap2\n      swap1\n      pop\n      jump\t// out\n        /* \"#utility.yul\":1803:2111   */\n    tag_392:\n        /* \"#utility.yul\":1865:1869   */\n      0x00\n        /* \"#utility.yul\":1955:1973   */\n      0xffffffffffffffff\n        /* \"#utility.yul\":1947:1953   */\n      dup3\n        /* \"#utility.yul\":1944:1974   */\n      gt\n        /* \"#utility.yul\":1941:1997   */\n      iszero\n      tag_528\n      jumpi\n        /* \"#utility.yul\":1977:1995   */\n      tag_529\n      tag_121\n      jump\t// in\n    tag_529:\n        /* \"#utility.yul\":1941:1997   */\n    tag_528:\n        /* \"#utility.yul\":2015:2044   */\n      tag_530\n        /* \"#utility.yul\":2037:2043   */\n      dup3\n        /* \"#utility.yul\":2015:2044   */\n      tag_389\n      jump\t// in\n    tag_530:\n        /* \"#utility.yul\":2007:2044   */\n      swap1\n      pop\n        /* \"#utility.yul\":2099:2103   */\n      0x20\n        /* \"#utility.yul\":2093:2097   */\n      dup2\n        /* \"#utility.yul\":2089:2104   */\n      add\n        /* \"#utility.yul\":2081:2104   */\n      swap1\n      pop\n        /* \"#utility.yul\":1803:2111   */\n      swap2\n      swap1\n      pop\n      jump\t// out\n        /* \"#utility.yul\":2117:2265   */\n    tag_393:\n        /* \"#utility.yul\":2215:2221   */\n      dup3\n        /* \"#utility.yul\":2210:2213   */\n      dup2\n        /* \"#utility.yul\":2205:2208   */\n      dup4\n        /* \"#utility.yul\":2192:2222   */\n      calldatacopy\n        /* \"#utility.yul\":2256:2257   */\n      0x00\n        /* \"#utility.yul\":2247:2253   */\n      dup4\n        /* \"#utility.yul\":2242:2245   */\n      dup4\n        /* \"#utility.yul\":2238:2254   */\n      add\n        /* \"#utility.yul\":2231:2258   */\n      mstore\n        /* \"#utility.yul\":2117:2265   */\n      pop\n      pop\n      pop\n      jump\t// out\n        /* \"#utility.yul\":2271:2696   */\n    tag_394:\n        /* \"#utility.yul\":2349:2354   */\n      0x00\n        /* \"#utility.yul\":2374:2440   */\n      tag_533\n        /* \"#utility.yul\":2390:2439   */\n      tag_534\n        /* \"#utility.yul\":2432:2438   */\n      dup5\n        /* \"#utility.yul\":2390:2439   */\n      tag_392\n      jump\t// in\n    tag_534:\n        /* \"#utility.yul\":2374:2440   */\n      tag_391\n      jump\t// in\n    tag_533:\n        /* \"#utility.yul\":2365:2440   */\n      swap1\n      pop\n        /* \"#utility.yul\":2463:2469   */\n      dup3\n        /* \"#utility.yul\":2456:2461   */\n      dup2\n        /* \"#utility.yul\":2449:2470   */\n      mstore\n        /* \"#utility.yul\":2501:2505   */\n      0x20\n        /* \"#utility.yul\":2494:2499   */\n      dup2\n        /* \"#utility.yul\":2490:2506   */\n      add\n        /* \"#utility.yul\":2539:2542   */\n      dup5\n        /* \"#utility.yul\":2530:2536   */\n      dup5\n        /* \"#utility.yul\":2525:2528   */\n      dup5\n        /* \"#utility.yul\":2521:2537   */\n      add\n        /* \"#utility.yul\":2518:2543   */\n      gt\n        /* \"#utility.yul\":2515:2627   */\n      iszero\n      tag_535\n      jumpi\n        /* \"#utility.yul\":2546:2625   */\n      tag_536\n      tag_388\n      jump\t// in\n    tag_536:\n        /* \"#utility.yul\":2515:2627   */\n    tag_535:\n        /* \"#utility.yul\":2636:2690   */\n      tag_537\n        /* \"#utility.yul\":2683:2689   */\n      dup5\n        /* \"#utility.yul\":2678:2681   */\n      dup3\n        /* \"#utility.yul\":2673:2676   */\n      dup6\n        /* \"#utility.yul\":2636:2690   */\n      tag_393\n      jump\t// in\n    tag_537:\n        /* \"#utility.yul\":2355:2696   */\n      pop\n        /* \"#utility.yul\":2271:2696   */\n      swap4\n      swap3\n      pop\n      pop\n      pop\n      jump\t// out\n        /* \"#utility.yul\":2716:3056   */\n    tag_395:\n        /* \"#utility.yul\":2772:2777   */\n      0x00\n        /* \"#utility.yul\":2821:2824   */\n      dup3\n        /* \"#utility.yul\":2814:2818   */\n      0x1f\n        /* \"#utility.yul\":2806:2812   */\n      dup4\n        /* \"#utility.yul\":2802:2819   */\n      add\n        /* \"#utility.yul\":2798:2825   */\n      slt\n        /* \"#utility.yul\":2788:2910   */\n      tag_539\n      jumpi\n        /* \"#utility.yul\":2829:2908   */\n      tag_540\n      tag_387\n      jump\t// in\n    tag_540:\n        /* \"#utility.yul\":2788:2910   */\n    tag_539:\n        /* \"#utility.yul\":2946:2952   */\n      dup2\n        /* \"#utility.yul\":2933:2953   */\n      calldataload\n        /* \"#utility.yul\":2971:3050   */\n      tag_541\n        /* \"#utility.yul\":3046:3049   */\n      dup5\n        /* \"#utility.yul\":3038:3044   */\n      dup3\n        /* \"#utility.yul\":3031:3035   */\n      0x20\n        /* \"#utility.yul\":3023:3029   */\n      dup7\n        /* \"#utility.yul\":3019:3036   */\n      add\n        /* \"#utility.yul\":2971:3050   */\n      tag_394\n      jump\t// in\n    tag_541:\n        /* \"#utility.yul\":2962:3050   */\n      swap2\n      pop\n        /* \"#utility.yul\":2778:3056   */\n      pop\n        /* \"#utility.yul\":2716:3056   */\n      swap3\n      swap2\n      pop\n      pop\n      jump\t// out\n        /* \"#utility.yul\":3062:3716   */\n    tag_24:\n        /* \"#utility.yul\":3140:3146   */\n      0x00\n        /* \"#utility.yul\":3148:3154   */\n      dup1\n        /* \"#utility.yul\":3197:3199   */\n      0x40\n        /* \"#utility.yul\":3185:3194   */\n      dup4\n        /* \"#utility.yul\":3176:3183   */\n      dup6\n        /* \"#utility.yul\":3172:3195   */\n      sub\n        /* \"#utility.yul\":3168:3200   */\n      slt\n        /* \"#utility.yul\":3165:3284   */\n      iszero\n      tag_543\n      jumpi\n        /* \"#utility.yul\":3203:3282   */\n      tag_544\n      tag_381\n      jump\t// in\n    tag_544:\n        /* \"#utility.yul\":3165:3284   */\n    tag_543:\n        /* \"#utility.yul\":3323:3324   */\n      0x00\n        /* \"#utility.yul\":3348:3401   */\n      tag_545\n        /* \"#utility.yul\":3393:3400   */\n      dup6\n        /* \"#utility.yul\":3384:3390   */\n      dup3\n        /* \"#utility.yul\":3373:3382   */\n      dup7\n        /* \"#utility.yul\":3369:3391   */\n      add\n        /* \"#utility.yul\":3348:3401   */\n      tag_386\n      jump\t// in\n    tag_545:\n        /* \"#utility.yul\":3338:3401   */\n      swap3\n      pop\n        /* \"#utility.yul\":3294:3411   */\n      pop\n        /* \"#utility.yul\":3478:3480   */\n      0x20\n        /* \"#utility.yul\":3467:3476   */\n      dup4\n        /* \"#utility.yul\":3463:3481   */\n      add\n        /* \"#utility.yul\":3450:3482   */\n      calldataload\n        /* \"#utility.yul\":3509:3527   */\n      0xffffffffffffffff\n        /* \"#utility.yul\":3501:3507   */\n      dup2\n        /* \"#utility.yul\":3498:3528   */\n      gt\n        /* \"#utility.yul\":3495:3612   */\n      iszero\n      tag_546\n      jumpi\n        /* \"#utility.yul\":3531:3610   */\n      tag_547\n      tag_382\n      jump\t// in\n    tag_547:\n        /* \"#utility.yul\":3495:3612   */\n    tag_546:\n        /* \"#utility.yul\":3636:3699   */\n      tag_548\n        /* \"#utility.yul\":3691:3698   */\n      dup6\n        /* \"#utility.yul\":3682:3688   */\n      dup3\n        /* \"#utility.yul\":3671:3680   */\n      dup7\n        /* \"#utility.yul\":3667:3689   */\n      add\n        /* \"#utility.yul\":3636:3699   */\n      tag_395\n      jump\t// in\n    tag_548:\n        /* \"#utility.yul\":3626:3699   */\n      swap2\n      pop\n        /* \"#utility.yul\":3421:3709   */\n      pop\n        /* \"#utility.yul\":3062:3716   */\n      swap3\n      pop\n      swap3\n      swap1\n      pop\n      jump\t// out\n        /* \"#utility.yul\":3722:3856   */\n    tag_396:\n        /* \"#utility.yul\":3809:3815   */\n      0x00\n        /* \"#utility.yul\":3843:3848   */\n      dup2\n        /* \"#utility.yul\":3837:3849   */\n      mload\n        /* \"#utility.yul\":3827:3849   */\n      swap1\n      pop\n        /* \"#utility.yul\":3722:3856   */\n      swap2\n      swap1\n      pop\n      jump\t// out\n        /* \"#utility.yul\":3862:4066   */\n    tag_397:\n        /* \"#utility.yul\":3981:3992   */\n      0x00\n        /* \"#utility.yul\":4015:4021   */\n      dup3\n        /* \"#utility.yul\":4010:4013   */\n      dup3\n        /* \"#utility.yul\":4003:4022   */\n      mstore\n        /* \"#utility.yul\":4055:4059   */\n      0x20\n        /* \"#utility.yul\":4050:4053   */\n      dup3\n        /* \"#utility.yul\":4046:4060   */\n      add\n        /* \"#utility.yul\":4031:4060   */\n      swap1\n      pop\n        /* \"#utility.yul\":3862:4066   */\n      swap3\n      swap2\n      pop\n      pop\n      jump\t// out\n        /* \"#utility.yul\":4072:4224   */\n    tag_398:\n        /* \"#utility.yul\":4159:4163   */\n      0x00\n        /* \"#utility.yul\":4182:4185   */\n      dup2\n        /* \"#utility.yul\":4174:4185   */\n      swap1\n      pop\n        /* \"#utility.yul\":4212:4216   */\n      0x20\n        /* \"#utility.yul\":4207:4210   */\n      dup3\n        /* \"#utility.yul\":4203:4217   */\n      add\n        /* \"#utility.yul\":4195:4217   */\n      swap1\n      pop\n        /* \"#utility.yul\":4072:4224   */\n      swap2\n      swap1\n      pop\n      jump\t// out\n        /* \"#utility.yul\":4230:4307   */\n    tag_399:\n        /* \"#utility.yul\":4267:4274   */\n      0x00\n        /* \"#utility.yul\":4296:4301   */\n      dup2\n        /* \"#utility.yul\":4285:4301   */\n      swap1\n      pop\n        /* \"#utility.yul\":4230:4307   */\n      swap2\n      swap1\n      pop\n      jump\t// out\n        /* \"#utility.yul\":4313:4421   */\n    tag_400:\n        /* \"#utility.yul\":4390:4414   */\n      tag_554\n        /* \"#utility.yul\":4408:4413   */\n      dup2\n        /* \"#utility.yul\":4390:4414   */\n      tag_399\n      jump\t// in\n    tag_554:\n        /* \"#utility.yul\":4385:4388   */\n      dup3\n        /* \"#utility.yul\":4378:4415   */\n      mstore\n        /* \"#utility.yul\":4313:4421   */\n      pop\n      pop\n      jump\t// out\n        /* \"#utility.yul\":4427:4526   */\n    tag_401:\n        /* \"#utility.yul\":4479:4485   */\n      0x00\n        /* \"#utility.yul\":4513:4518   */\n      dup2\n        /* \"#utility.yul\":4507:4519   */\n      mload\n        /* \"#utility.yul\":4497:4519   */\n      swap1\n      pop\n        /* \"#utility.yul\":4427:4526   */\n      swap2\n      swap1\n      pop\n      jump\t// out\n        /* \"#utility.yul\":4532:4691   */\n    tag_402:\n        /* \"#utility.yul\":4606:4617   */\n      0x00\n        /* \"#utility.yul\":4640:4646   */\n      dup3\n        /* \"#utility.yul\":4635:4638   */\n      dup3\n        /* \"#utility.yul\":4628:4647   */\n      mstore\n        /* \"#utility.yul\":4680:4684   */\n      0x20\n        /* \"#utility.yul\":4675:4678   */\n      dup3\n        /* \"#utility.yul\":4671:4685   */\n      add\n        /* \"#utility.yul\":4656:4685   */\n      swap1\n      pop\n        /* \"#utility.yul\":4532:4691   */\n      swap3\n      swap2\n      pop\n      pop\n      jump\t// out\n        /* \"#utility.yul\":4697:4836   */\n    tag_403:\n        /* \"#utility.yul\":4786:4792   */\n      dup3\n        /* \"#utility.yul\":4781:4784   */\n      dup2\n        /* \"#utility.yul\":4776:4779   */\n      dup4\n        /* \"#utility.yul\":4770:4793   */\n      mcopy\n        /* \"#utility.yul\":4827:4828   */\n      0x00\n        /* \"#utility.yul\":4818:4824   */\n      dup4\n        /* \"#utility.yul\":4813:4816   */\n      dup4\n        /* \"#utility.yul\":4809:4825   */\n      add\n        /* \"#utility.yul\":4802:4829   */\n      mstore\n        /* \"#utility.yul\":4697:4836   */\n      pop\n      pop\n      pop\n      jump\t// out\n        /* \"#utility.yul\":4842:5199   */\n    tag_404:\n        /* \"#utility.yul\":4920:4923   */\n      0x00\n        /* \"#utility.yul\":4948:4987   */\n      tag_559\n        /* \"#utility.yul\":4981:4986   */\n      dup3\n        /* \"#utility.yul\":4948:4987   */\n      tag_401\n      jump\t// in\n    tag_559:\n        /* \"#utility.yul\":5003:5064   */\n      tag_560\n        /* \"#utility.yul\":5057:5063   */\n      dup2\n        /* \"#utility.yul\":5052:5055   */\n      dup6\n        /* \"#utility.yul\":5003:5064   */\n      tag_402\n      jump\t// in\n    tag_560:\n        /* \"#utility.yul\":4996:5064   */\n      swap4\n      pop\n        /* \"#utility.yul\":5073:5138   */\n      tag_561\n        /* \"#utility.yul\":5131:5137   */\n      dup2\n        /* \"#utility.yul\":5126:5129   */\n      dup6\n        /* \"#utility.yul\":5119:5123   */\n      0x20\n        /* \"#utility.yul\":5112:5117   */\n      dup7\n        /* \"#utility.yul\":5108:5124   */\n      add\n        /* \"#utility.yul\":5073:5138   */\n      tag_403\n      jump\t// in\n    tag_561:\n        /* \"#utility.yul\":5163:5192   */\n      tag_562\n        /* \"#utility.yul\":5185:5191   */\n      dup2\n        /* \"#utility.yul\":5163:5192   */\n      tag_389\n      jump\t// in\n    tag_562:\n        /* \"#utility.yul\":5158:5161   */\n      dup5\n        /* \"#utility.yul\":5154:5193   */\n      add\n        /* \"#utility.yul\":5147:5193   */\n      swap2\n      pop\n        /* \"#utility.yul\":4924:5199   */\n      pop\n        /* \"#utility.yul\":4842:5199   */\n      swap3\n      swap2\n      pop\n      pop\n      jump\t// out\n        /* \"#utility.yul\":5205:5385   */\n    tag_142:\n        /* \"#utility.yul\":5253:5330   */\n      0x4e487b7100000000000000000000000000000000000000000000000000000000\n        /* \"#utility.yul\":5250:5251   */\n      0x00\n        /* \"#utility.yul\":5243:5331   */\n      mstore\n        /* \"#utility.yul\":5350:5354   */\n      0x21\n        /* \"#utility.yul\":5347:5348   */\n      0x04\n        /* \"#utility.yul\":5340:5355   */\n      mstore\n        /* \"#utility.yul\":5374:5378   */\n      0x24\n        /* \"#utility.yul\":5371:5372   */\n      0x00\n        /* \"#utility.yul\":5364:5379   */\n      revert\n        /* \"#utility.yul\":5391:5507   */\n    tag_405:\n        /* \"#utility.yul\":5475:5476   */\n      0x03\n        /* \"#utility.yul\":5468:5473   */\n      dup2\n        /* \"#utility.yul\":5465:5477   */\n      lt\n        /* \"#utility.yul\":5455:5501   */\n      tag_565\n      jumpi\n        /* \"#utility.yul\":5481:5499   */\n      tag_566\n      tag_142\n      jump\t// in\n    tag_566:\n        /* \"#utility.yul\":5455:5501   */\n    tag_565:\n        /* \"#utility.yul\":5391:5507   */\n      pop\n      jump\t// out\n        /* \"#utility.yul\":5513:5646   */\n    tag_406:\n        /* \"#utility.yul\":5561:5568   */\n      0x00\n        /* \"#utility.yul\":5590:5595   */\n      dup2\n        /* \"#utility.yul\":5579:5595   */\n      swap1\n      pop\n        /* \"#utility.yul\":5596:5640   */\n      tag_568\n        /* \"#utility.yul\":5634:5639   */\n      dup3\n        /* \"#utility.yul\":5596:5640   */\n      tag_405\n      jump\t// in\n    tag_568:\n        /* \"#utility.yul\":5513:5646   */\n      swap2\n      swap1\n      pop\n      jump\t// out\n        /* \"#utility.yul\":5652:5785   */\n    tag_407:\n        /* \"#utility.yul\":5711:5720   */\n      0x00\n        /* \"#utility.yul\":5744:5779   */\n      tag_570\n        /* \"#utility.yul\":5773:5778   */\n      dup3\n        /* \"#utility.yul\":5744:5779   */\n      tag_406\n      jump\t// in\n    tag_570:\n        /* \"#utility.yul\":5731:5779   */\n      swap1\n      pop\n        /* \"#utility.yul\":5652:5785   */\n      swap2\n      swap1\n      pop\n      jump\t// out\n        /* \"#utility.yul\":5791:5930   */\n    tag_408:\n        /* \"#utility.yul\":5877:5923   */\n      tag_572\n        /* \"#utility.yul\":5917:5922   */\n      dup2\n        /* \"#utility.yul\":5877:5923   */\n      tag_407\n      jump\t// in\n    tag_572:\n        /* \"#utility.yul\":5872:5875   */\n      dup3\n        /* \"#utility.yul\":5865:5924   */\n      mstore\n        /* \"#utility.yul\":5791:5930   */\n      pop\n      pop\n      jump\t// out\n        /* \"#utility.yul\":5936:6044   */\n    tag_409:\n        /* \"#utility.yul\":6013:6037   */\n      tag_574\n        /* \"#utility.yul\":6031:6036   */\n      dup2\n        /* \"#utility.yul\":6013:6037   */\n      tag_384\n      jump\t// in\n    tag_574:\n        /* \"#utility.yul\":6008:6011   */\n      dup3\n        /* \"#utility.yul\":6001:6038   */\n      mstore\n        /* \"#utility.yul\":5936:6044   */\n      pop\n      pop\n      jump\t// out\n        /* \"#utility.yul\":6050:6140   */\n    tag_410:\n        /* \"#utility.yul\":6084:6091   */\n      0x00\n        /* \"#utility.yul\":6127:6132   */\n      dup2\n        /* \"#utility.yul\":6120:6133   */\n      iszero\n        /* \"#utility.yul\":6113:6134   */\n      iszero\n        /* \"#utility.yul\":6102:6134   */\n      swap1\n      pop\n        /* \"#utility.yul\":6050:6140   */\n      swap2\n      swap1\n      pop\n      jump\t// out\n        /* \"#utility.yul\":6146:6245   */\n    tag_411:\n        /* \"#utility.yul\":6217:6238   */\n      tag_577\n        /* \"#utility.yul\":6232:6237   */\n      dup2\n        /* \"#utility.yul\":6217:6238   */\n      tag_410\n      jump\t// in\n    tag_577:\n        /* \"#utility.yul\":6212:6215   */\n      dup3\n        /* \"#utility.yul\":6205:6239   */\n      mstore\n        /* \"#utility.yul\":6146:6245   */\n      pop\n      pop\n      jump\t// out\n        /* \"#utility.yul\":6315:8054   */\n    tag_412:\n        /* \"#utility.yul\":6414:6417   */\n      0x00\n        /* \"#utility.yul\":6450:6456   */\n      0x0100\n        /* \"#utility.yul\":6445:6448   */\n      dup4\n        /* \"#utility.yul\":6441:6457   */\n      add\n        /* \"#utility.yul\":6537:6541   */\n      0x00\n        /* \"#utility.yul\":6530:6535   */\n      dup4\n        /* \"#utility.yul\":6526:6542   */\n      add\n        /* \"#utility.yul\":6520:6543   */\n      mload\n        /* \"#utility.yul\":6556:6619   */\n      tag_579\n        /* \"#utility.yul\":6613:6617   */\n      0x00\n        /* \"#utility.yul\":6608:6611   */\n      dup7\n        /* \"#utility.yul\":6604:6618   */\n      add\n        /* \"#utility.yul\":6590:6602   */\n      dup3\n        /* \"#utility.yul\":6556:6619   */\n      tag_400\n      jump\t// in\n    tag_579:\n        /* \"#utility.yul\":6467:6629   */\n      pop\n        /* \"#utility.yul\":6712:6716   */\n      0x20\n        /* \"#utility.yul\":6705:6710   */\n      dup4\n        /* \"#utility.yul\":6701:6717   */\n      add\n        /* \"#utility.yul\":6695:6718   */\n      mload\n        /* \"#utility.yul\":6765:6768   */\n      dup5\n        /* \"#utility.yul\":6759:6763   */\n      dup3\n        /* \"#utility.yul\":6755:6769   */\n      sub\n        /* \"#utility.yul\":6748:6752   */\n      0x20\n        /* \"#utility.yul\":6743:6746   */\n      dup7\n        /* \"#utility.yul\":6739:6753   */\n      add\n        /* \"#utility.yul\":6732:6770   */\n      mstore\n        /* \"#utility.yul\":6791:6864   */\n      tag_580\n        /* \"#utility.yul\":6859:6863   */\n      dup3\n        /* \"#utility.yul\":6845:6857   */\n      dup3\n        /* \"#utility.yul\":6791:6864   */\n      tag_404\n      jump\t// in\n    tag_580:\n        /* \"#utility.yul\":6783:6864   */\n      swap2\n      pop\n        /* \"#utility.yul\":6639:6875   */\n      pop\n        /* \"#utility.yul\":6964:6968   */\n      0x40\n        /* \"#utility.yul\":6957:6962   */\n      dup4\n        /* \"#utility.yul\":6953:6969   */\n      add\n        /* \"#utility.yul\":6947:6970   */\n      mload\n        /* \"#utility.yul\":7017:7020   */\n      dup5\n        /* \"#utility.yul\":7011:7015   */\n      dup3\n        /* \"#utility.yul\":7007:7021   */\n      sub\n        /* \"#utility.yul\":7000:7004   */\n      0x40\n        /* \"#utility.yul\":6995:6998   */\n      dup7\n        /* \"#utility.yul\":6991:7005   */\n      add\n        /* \"#utility.yul\":6984:7022   */\n      mstore\n        /* \"#utility.yul\":7043:7116   */\n      tag_581\n        /* \"#utility.yul\":7111:7115   */\n      dup3\n        /* \"#utility.yul\":7097:7109   */\n      dup3\n        /* \"#utility.yul\":7043:7116   */\n      tag_404\n      jump\t// in\n    tag_581:\n        /* \"#utility.yul\":7035:7116   */\n      swap2\n      pop\n        /* \"#utility.yul\":6885:7127   */\n      pop\n        /* \"#utility.yul\":7213:7217   */\n      0x60\n        /* \"#utility.yul\":7206:7211   */\n      dup4\n        /* \"#utility.yul\":7202:7218   */\n      add\n        /* \"#utility.yul\":7196:7219   */\n      mload\n        /* \"#utility.yul\":7232:7304   */\n      tag_582\n        /* \"#utility.yul\":7298:7302   */\n      0x60\n        /* \"#utility.yul\":7293:7296   */\n      dup7\n        /* \"#utility.yul\":7289:7303   */\n      add\n        /* \"#utility.yul\":7275:7287   */\n      dup3\n        /* \"#utility.yul\":7232:7304   */\n      tag_408\n      jump\t// in\n    tag_582:\n        /* \"#utility.yul\":7137:7314   */\n      pop\n        /* \"#utility.yul\":7399:7403   */\n      0x80\n        /* \"#utility.yul\":7392:7397   */\n      dup4\n        /* \"#utility.yul\":7388:7404   */\n      add\n        /* \"#utility.yul\":7382:7405   */\n      mload\n        /* \"#utility.yul\":7418:7481   */\n      tag_583\n        /* \"#utility.yul\":7475:7479   */\n      0x80\n        /* \"#utility.yul\":7470:7473   */\n      dup7\n        /* \"#utility.yul\":7466:7480   */\n      add\n        /* \"#utility.yul\":7452:7464   */\n      dup3\n        /* \"#utility.yul\":7418:7481   */\n      tag_400\n      jump\t// in\n    tag_583:\n        /* \"#utility.yul\":7324:7491   */\n      pop\n        /* \"#utility.yul\":7579:7583   */\n      0xa0\n        /* \"#utility.yul\":7572:7577   */\n      dup4\n        /* \"#utility.yul\":7568:7584   */\n      add\n        /* \"#utility.yul\":7562:7585   */\n      mload\n        /* \"#utility.yul\":7598:7661   */\n      tag_584\n        /* \"#utility.yul\":7655:7659   */\n      0xa0\n        /* \"#utility.yul\":7650:7653   */\n      dup7\n        /* \"#utility.yul\":7646:7660   */\n      add\n        /* \"#utility.yul\":7632:7644   */\n      dup3\n        /* \"#utility.yul\":7598:7661   */\n      tag_409\n      jump\t// in\n    tag_584:\n        /* \"#utility.yul\":7501:7671   */\n      pop\n        /* \"#utility.yul\":7760:7764   */\n      0xc0\n        /* \"#utility.yul\":7753:7758   */\n      dup4\n        /* \"#utility.yul\":7749:7765   */\n      add\n        /* \"#utility.yul\":7743:7766   */\n      mload\n        /* \"#utility.yul\":7779:7836   */\n      tag_585\n        /* \"#utility.yul\":7830:7834   */\n      0xc0\n        /* \"#utility.yul\":7825:7828   */\n      dup7\n        /* \"#utility.yul\":7821:7835   */\n      add\n        /* \"#utility.yul\":7807:7819   */\n      dup3\n        /* \"#utility.yul\":7779:7836   */\n      tag_411\n      jump\t// in\n    tag_585:\n        /* \"#utility.yul\":7681:7846   */\n      pop\n        /* \"#utility.yul\":7935:7939   */\n      0xe0\n        /* \"#utility.yul\":7928:7933   */\n      dup4\n        /* \"#utility.yul\":7924:7940   */\n      add\n        /* \"#utility.yul\":7918:7941   */\n      mload\n        /* \"#utility.yul\":7954:8017   */\n      tag_586\n        /* \"#utility.yul\":8011:8015   */\n      0xe0\n        /* \"#utility.yul\":8006:8009   */\n      dup7\n        /* \"#utility.yul\":8002:8016   */\n      add\n        /* \"#utility.yul\":7988:8000   */\n      dup3\n        /* \"#utility.yul\":7954:8017   */\n      tag_400\n      jump\t// in\n    tag_586:\n        /* \"#utility.yul\":7856:8027   */\n      pop\n        /* \"#utility.yul\":8044:8048   */\n      dup1\n        /* \"#utility.yul\":8037:8048   */\n      swap2\n      pop\n        /* \"#utility.yul\":6419:8054   */\n      pop\n        /* \"#utility.yul\":6315:8054   */\n      swap3\n      swap2\n      pop\n      pop\n      jump\t// out\n        /* \"#utility.yul\":8060:8296   */\n    tag_413:\n        /* \"#utility.yul\":8169:8179   */\n      0x00\n        /* \"#utility.yul\":8204:8290   */\n      tag_588\n        /* \"#utility.yul\":8286:8289   */\n      dup4\n        /* \"#utility.yul\":8278:8284   */\n      dup4\n        /* \"#utility.yul\":8204:8290   */\n      tag_412\n      jump\t// in\n    tag_588:\n        /* \"#utility.yul\":8190:8290   */\n      swap1\n      pop\n        /* \"#utility.yul\":8060:8296   */\n      swap3\n      swap2\n      pop\n      pop\n      jump\t// out\n        /* \"#utility.yul\":8302:8435   */\n    tag_414:\n        /* \"#utility.yul\":8392:8396   */\n      0x00\n        /* \"#utility.yul\":8424:8428   */\n      0x20\n        /* \"#utility.yul\":8419:8422   */\n      dup3\n        /* \"#utility.yul\":8415:8429   */\n      add\n        /* \"#utility.yul\":8407:8429   */\n      swap1\n      pop\n        /* \"#utility.yul\":8302:8435   */\n      swap2\n      swap1\n      pop\n      jump\t// out\n        /* \"#utility.yul\":8509:9580   */\n    tag_415:\n        /* \"#utility.yul\":8668:8671   */\n      0x00\n        /* \"#utility.yul\":8697:8771   */\n      tag_591\n        /* \"#utility.yul\":8765:8770   */\n      dup3\n        /* \"#utility.yul\":8697:8771   */\n      tag_396\n      jump\t// in\n    tag_591:\n        /* \"#utility.yul\":8787:8893   */\n      tag_592\n        /* \"#utility.yul\":8886:8892   */\n      dup2\n        /* \"#utility.yul\":8881:8884   */\n      dup6\n        /* \"#utility.yul\":8787:8893   */\n      tag_397\n      jump\t// in\n    tag_592:\n        /* \"#utility.yul\":8780:8893   */\n      swap4\n      pop\n        /* \"#utility.yul\":8919:8922   */\n      dup4\n        /* \"#utility.yul\":8964:8968   */\n      0x20\n        /* \"#utility.yul\":8956:8962   */\n      dup3\n        /* \"#utility.yul\":8952:8969   */\n      mul\n        /* \"#utility.yul\":8947:8950   */\n      dup6\n        /* \"#utility.yul\":8943:8970   */\n      add\n        /* \"#utility.yul\":8994:9070   */\n      tag_593\n        /* \"#utility.yul\":9064:9069   */\n      dup6\n        /* \"#utility.yul\":8994:9070   */\n      tag_398\n      jump\t// in\n    tag_593:\n        /* \"#utility.yul\":9093:9100   */\n      dup1\n        /* \"#utility.yul\":9124:9125   */\n      0x00\n        /* \"#utility.yul\":9109:9535   */\n    tag_594:\n        /* \"#utility.yul\":9134:9140   */\n      dup6\n        /* \"#utility.yul\":9131:9132   */\n      dup2\n        /* \"#utility.yul\":9128:9141   */\n      lt\n        /* \"#utility.yul\":9109:9535   */\n      iszero\n      tag_596\n      jumpi\n        /* \"#utility.yul\":9205:9214   */\n      dup5\n        /* \"#utility.yul\":9199:9203   */\n      dup5\n        /* \"#utility.yul\":9195:9215   */\n      sub\n        /* \"#utility.yul\":9190:9193   */\n      dup10\n        /* \"#utility.yul\":9183:9216   */\n      mstore\n        /* \"#utility.yul\":9256:9262   */\n      dup2\n        /* \"#utility.yul\":9250:9263   */\n      mload\n        /* \"#utility.yul\":9284:9388   */\n      tag_597\n        /* \"#utility.yul\":9383:9387   */\n      dup6\n        /* \"#utility.yul\":9368:9381   */\n      dup3\n        /* \"#utility.yul\":9284:9388   */\n      tag_413\n      jump\t// in\n    tag_597:\n        /* \"#utility.yul\":9276:9388   */\n      swap5\n      pop\n        /* \"#utility.yul\":9411:9491   */\n      tag_598\n        /* \"#utility.yul\":9484:9490   */\n      dup4\n        /* \"#utility.yul\":9411:9491   */\n      tag_414\n      jump\t// in\n    tag_598:\n        /* \"#utility.yul\":9401:9491   */\n      swap3\n      pop\n        /* \"#utility.yul\":9520:9524   */\n      0x20\n        /* \"#utility.yul\":9515:9518   */\n      dup11\n        /* \"#utility.yul\":9511:9525   */\n      add\n        /* \"#utility.yul\":9504:9525   */\n      swap10\n      pop\n        /* \"#utility.yul\":9169:9535   */\n      pop\n        /* \"#utility.yul\":9156:9157   */\n      0x01\n        /* \"#utility.yul\":9153:9154   */\n      dup2\n        /* \"#utility.yul\":9149:9158   */\n      add\n        /* \"#utility.yul\":9144:9158   */\n      swap1\n      pop\n        /* \"#utility.yul\":9109:9535   */\n      jump(tag_594)\n    tag_596:\n        /* \"#utility.yul\":9113:9127   */\n      pop\n        /* \"#utility.yul\":9551:9555   */\n      dup3\n        /* \"#utility.yul\":9544:9555   */\n      swap8\n      pop\n        /* \"#utility.yul\":9571:9574   */\n      dup8\n        /* \"#utility.yul\":9564:9574   */\n      swap6\n      pop\n        /* \"#utility.yul\":8673:9580   */\n      pop\n      pop\n      pop\n      pop\n      pop\n        /* \"#utility.yul\":8509:9580   */\n      swap3\n      swap2\n      pop\n      pop\n      jump\t// out\n        /* \"#utility.yul\":9586:10039   */\n    tag_29:\n        /* \"#utility.yul\":9769:9773   */\n      0x00\n        /* \"#utility.yul\":9807:9809   */\n      0x20\n        /* \"#utility.yul\":9796:9805   */\n      dup3\n        /* \"#utility.yul\":9792:9810   */\n      add\n        /* \"#utility.yul\":9784:9810   */\n      swap1\n      pop\n        /* \"#utility.yul\":9856:9865   */\n      dup2\n        /* \"#utility.yul\":9850:9854   */\n      dup2\n        /* \"#utility.yul\":9846:9866   */\n      sub\n        /* \"#utility.yul\":9842:9843   */\n      0x00\n        /* \"#utility.yul\":9831:9840   */\n      dup4\n        /* \"#utility.yul\":9827:9844   */\n      add\n        /* \"#utility.yul\":9820:9867   */\n      mstore\n        /* \"#utility.yul\":9884:10032   */\n      tag_600\n        /* \"#utility.yul\":10027:10031   */\n      dup2\n        /* \"#utility.yul\":10018:10024   */\n      dup5\n        /* \"#utility.yul\":9884:10032   */\n      tag_415\n      jump\t// in\n    tag_600:\n        /* \"#utility.yul\":9876:10032   */\n      swap1\n      pop\n        /* \"#utility.yul\":9586:10039   */\n      swap3\n      swap2\n      pop\n      pop\n      jump\t// out\n        /* \"#utility.yul\":10045:10167   */\n    tag_416:\n        /* \"#utility.yul\":10118:10142   */\n      tag_602\n        /* \"#utility.yul\":10136:10141   */\n      dup2\n        /* \"#utility.yul\":10118:10142   */\n      tag_399\n      jump\t// in\n    tag_602:\n        /* \"#utility.yul\":10111:10116   */\n      dup2\n        /* \"#utility.yul\":10108:10143   */\n      eq\n        /* \"#utility.yul\":10098:10161   */\n      tag_603\n      jumpi\n        /* \"#utility.yul\":10157:10158   */\n      0x00\n        /* \"#utility.yul\":10154:10155   */\n      dup1\n        /* \"#utility.yul\":10147:10159   */\n      revert\n        /* \"#utility.yul\":10098:10161   */\n    tag_603:\n        /* \"#utility.yul\":10045:10167   */\n      pop\n      jump\t// out\n        /* \"#utility.yul\":10173:10312   */\n    tag_417:\n        /* \"#utility.yul\":10219:10224   */\n      0x00\n        /* \"#utility.yul\":10257:10263   */\n      dup2\n        /* \"#utility.yul\":10244:10264   */\n      calldataload\n        /* \"#utility.yul\":10235:10264   */\n      swap1\n      pop\n        /* \"#utility.yul\":10273:10306   */\n      tag_605\n        /* \"#utility.yul\":10300:10305   */\n      dup2\n        /* \"#utility.yul\":10273:10306   */\n      tag_416\n      jump\t// in\n    tag_605:\n        /* \"#utility.yul\":10173:10312   */\n      swap3\n      swap2\n      pop\n      pop\n      jump\t// out\n        /* \"#utility.yul\":10318:10647   */\n    tag_32:\n        /* \"#utility.yul\":10377:10383   */\n      0x00\n        /* \"#utility.yul\":10426:10428   */\n      0x20\n        /* \"#utility.yul\":10414:10423   */\n      dup3\n        /* \"#utility.yul\":10405:10412   */\n      dup5\n        /* \"#utility.yul\":10401:10424   */\n      sub\n        /* \"#utility.yul\":10397:10429   */\n      slt\n        /* \"#utility.yul\":10394:10513   */\n      iszero\n      tag_607\n      jumpi\n        /* \"#utility.yul\":10432:10511   */\n      tag_608\n      tag_381\n      jump\t// in\n    tag_608:\n        /* \"#utility.yul\":10394:10513   */\n    tag_607:\n        /* \"#utility.yul\":10552:10553   */\n      0x00\n        /* \"#utility.yul\":10577:10630   */\n      tag_609\n        /* \"#utility.yul\":10622:10629   */\n      dup5\n        /* \"#utility.yul\":10613:10619   */\n      dup3\n        /* \"#utility.yul\":10602:10611   */\n      dup6\n        /* \"#utility.yul\":10598:10620   */\n      add\n        /* \"#utility.yul\":10577:10630   */\n      tag_417\n      jump\t// in\n    tag_609:\n        /* \"#utility.yul\":10567:10630   */\n      swap2\n      pop\n        /* \"#utility.yul\":10523:10640   */\n      pop\n        /* \"#utility.yul\":10318:10647   */\n      swap3\n      swap2\n      pop\n      pop\n      jump\t// out\n        /* \"#utility.yul\":10653:10762   */\n    tag_418:\n        /* \"#utility.yul\":10734:10755   */\n      tag_611\n        /* \"#utility.yul\":10749:10754   */\n      dup2\n        /* \"#utility.yul\":10734:10755   */\n      tag_410\n      jump\t// in\n    tag_611:\n        /* \"#utility.yul\":10729:10732   */\n      dup3\n        /* \"#utility.yul\":10722:10756   */\n      mstore\n        /* \"#utility.yul\":10653:10762   */\n      pop\n      pop\n      jump\t// out\n        /* \"#utility.yul\":10768:10978   */\n    tag_35:\n        /* \"#utility.yul\":10855:10859   */\n      0x00\n        /* \"#utility.yul\":10893:10895   */\n      0x20\n        /* \"#utility.yul\":10882:10891   */\n      dup3\n        /* \"#utility.yul\":10878:10896   */\n      add\n        /* \"#utility.yul\":10870:10896   */\n      swap1\n      pop\n        /* \"#utility.yul\":10906:10971   */\n      tag_613\n        /* \"#utility.yul\":10968:10969   */\n      0x00\n        /* \"#utility.yul\":10957:10966   */\n      dup4\n        /* \"#utility.yul\":10953:10970   */\n      add\n        /* \"#utility.yul\":10944:10950   */\n      dup5\n        /* \"#utility.yul\":10906:10971   */\n      tag_418\n      jump\t// in\n    tag_613:\n        /* \"#utility.yul\":10768:10978   */\n      swap3\n      swap2\n      pop\n      pop\n      jump\t// out\n        /* \"#utility.yul\":10984:11458   */\n    tag_38:\n        /* \"#utility.yul\":11052:11058   */\n      0x00\n        /* \"#utility.yul\":11060:11066   */\n      dup1\n        /* \"#utility.yul\":11109:11111   */\n      0x40\n        /* \"#utility.yul\":11097:11106   */\n      dup4\n        /* \"#utility.yul\":11088:11095   */\n      dup6\n        /* \"#utility.yul\":11084:11107   */\n      sub\n        /* \"#utility.yul\":11080:11112   */\n      slt\n        /* \"#utility.yul\":11077:11196   */\n      iszero\n      tag_615\n      jumpi\n        /* \"#utility.yul\":11115:11194   */\n      tag_616\n      tag_381\n      jump\t// in\n    tag_616:\n        /* \"#utility.yul\":11077:11196   */\n    tag_615:\n        /* \"#utility.yul\":11235:11236   */\n      0x00\n        /* \"#utility.yul\":11260:11313   */\n      tag_617\n        /* \"#utility.yul\":11305:11312   */\n      dup6\n        /* \"#utility.yul\":11296:11302   */\n      dup3\n        /* \"#utility.yul\":11285:11294   */\n      dup7\n        /* \"#utility.yul\":11281:11303   */\n      add\n        /* \"#utility.yul\":11260:11313   */\n      tag_417\n      jump\t// in\n    tag_617:\n        /* \"#utility.yul\":11250:11313   */\n      swap3\n      pop\n        /* \"#utility.yul\":11206:11323   */\n      pop\n        /* \"#utility.yul\":11362:11364   */\n      0x20\n        /* \"#utility.yul\":11388:11441   */\n      tag_618\n        /* \"#utility.yul\":11433:11440   */\n      dup6\n        /* \"#utility.yul\":11424:11430   */\n      dup3\n        /* \"#utility.yul\":11413:11422   */\n      dup7\n        /* \"#utility.yul\":11409:11431   */\n      add\n        /* \"#utility.yul\":11388:11441   */\n      tag_386\n      jump\t// in\n    tag_618:\n        /* \"#utility.yul\":11378:11441   */\n      swap2\n      pop\n        /* \"#utility.yul\":11333:11451   */\n      pop\n        /* \"#utility.yul\":10984:11458   */\n      swap3\n      pop\n      swap3\n      swap1\n      pop\n      jump\t// out\n        /* \"#utility.yul\":11464:11973   */\n    tag_43:\n        /* \"#utility.yul\":11533:11539   */\n      0x00\n        /* \"#utility.yul\":11582:11584   */\n      0x20\n        /* \"#utility.yul\":11570:11579   */\n      dup3\n        /* \"#utility.yul\":11561:11568   */\n      dup5\n        /* \"#utility.yul\":11557:11580   */\n      sub\n        /* \"#utility.yul\":11553:11585   */\n      slt\n        /* \"#utility.yul\":11550:11669   */\n      iszero\n      tag_620\n      jumpi\n        /* \"#utility.yul\":11588:11667   */\n      tag_621\n      tag_381\n      jump\t// in\n    tag_621:\n        /* \"#utility.yul\":11550:11669   */\n    tag_620:\n        /* \"#utility.yul\":11736:11737   */\n      0x00\n        /* \"#utility.yul\":11725:11734   */\n      dup3\n        /* \"#utility.yul\":11721:11738   */\n      add\n        /* \"#utility.yul\":11708:11739   */\n      calldataload\n        /* \"#utility.yul\":11766:11784   */\n      0xffffffffffffffff\n        /* \"#utility.yul\":11758:11764   */\n      dup2\n        /* \"#utility.yul\":11755:11785   */\n      gt\n        /* \"#utility.yul\":11752:11869   */\n      iszero\n      tag_622\n      jumpi\n        /* \"#utility.yul\":11788:11867   */\n      tag_623\n      tag_382\n      jump\t// in\n    tag_623:\n        /* \"#utility.yul\":11752:11869   */\n    tag_622:\n        /* \"#utility.yul\":11893:11956   */\n      tag_624\n        /* \"#utility.yul\":11948:11955   */\n      dup5\n        /* \"#utility.yul\":11939:11945   */\n      dup3\n        /* \"#utility.yul\":11928:11937   */\n      dup6\n        /* \"#utility.yul\":11924:11946   */\n      add\n        /* \"#utility.yul\":11893:11956   */\n      tag_395\n      jump\t// in\n    tag_624:\n        /* \"#utility.yul\":11883:11956   */\n      swap2\n      pop\n        /* \"#utility.yul\":11679:11966   */\n      pop\n        /* \"#utility.yul\":11464:11973   */\n      swap3\n      swap2\n      pop\n      pop\n      jump\t// out\n        /* \"#utility.yul\":12043:13792   */\n    tag_419:\n        /* \"#utility.yul\":12152:12155   */\n      0x00\n        /* \"#utility.yul\":12188:12194   */\n      0x0100\n        /* \"#utility.yul\":12183:12186   */\n      dup4\n        /* \"#utility.yul\":12179:12195   */\n      add\n        /* \"#utility.yul\":12275:12279   */\n      0x00\n        /* \"#utility.yul\":12268:12273   */\n      dup4\n        /* \"#utility.yul\":12264:12280   */\n      add\n        /* \"#utility.yul\":12258:12281   */\n      mload\n        /* \"#utility.yul\":12294:12357   */\n      tag_626\n        /* \"#utility.yul\":12351:12355   */\n      0x00\n        /* \"#utility.yul\":12346:12349   */\n      dup7\n        /* \"#utility.yul\":12342:12356   */\n      add\n        /* \"#utility.yul\":12328:12340   */\n      dup3\n        /* \"#utility.yul\":12294:12357   */\n      tag_400\n      jump\t// in\n    tag_626:\n        /* \"#utility.yul\":12205:12367   */\n      pop\n        /* \"#utility.yul\":12450:12454   */\n      0x20\n        /* \"#utility.yul\":12443:12448   */\n      dup4\n        /* \"#utility.yul\":12439:12455   */\n      add\n        /* \"#utility.yul\":12433:12456   */\n      mload\n        /* \"#utility.yul\":12503:12506   */\n      dup5\n        /* \"#utility.yul\":12497:12501   */\n      dup3\n        /* \"#utility.yul\":12493:12507   */\n      sub\n        /* \"#utility.yul\":12486:12490   */\n      0x20\n        /* \"#utility.yul\":12481:12484   */\n      dup7\n        /* \"#utility.yul\":12477:12491   */\n      add\n        /* \"#utility.yul\":12470:12508   */\n      mstore\n        /* \"#utility.yul\":12529:12602   */\n      tag_627\n        /* \"#utility.yul\":12597:12601   */\n      dup3\n        /* \"#utility.yul\":12583:12595   */\n      dup3\n        /* \"#utility.yul\":12529:12602   */\n      tag_404\n      jump\t// in\n    tag_627:\n        /* \"#utility.yul\":12521:12602   */\n      swap2\n      pop\n        /* \"#utility.yul\":12377:12613   */\n      pop\n        /* \"#utility.yul\":12702:12706   */\n      0x40\n        /* \"#utility.yul\":12695:12700   */\n      dup4\n        /* \"#utility.yul\":12691:12707   */\n      add\n        /* \"#utility.yul\":12685:12708   */\n      mload\n        /* \"#utility.yul\":12755:12758   */\n      dup5\n        /* \"#utility.yul\":12749:12753   */\n      dup3\n        /* \"#utility.yul\":12745:12759   */\n      sub\n        /* \"#utility.yul\":12738:12742   */\n      0x40\n        /* \"#utility.yul\":12733:12736   */\n      dup7\n        /* \"#utility.yul\":12729:12743   */\n      add\n        /* \"#utility.yul\":12722:12760   */\n      mstore\n        /* \"#utility.yul\":12781:12854   */\n      tag_628\n        /* \"#utility.yul\":12849:12853   */\n      dup3\n        /* \"#utility.yul\":12835:12847   */\n      dup3\n        /* \"#utility.yul\":12781:12854   */\n      tag_404\n      jump\t// in\n    tag_628:\n        /* \"#utility.yul\":12773:12854   */\n      swap2\n      pop\n        /* \"#utility.yul\":12623:12865   */\n      pop\n        /* \"#utility.yul\":12951:12955   */\n      0x60\n        /* \"#utility.yul\":12944:12949   */\n      dup4\n        /* \"#utility.yul\":12940:12956   */\n      add\n        /* \"#utility.yul\":12934:12957   */\n      mload\n        /* \"#utility.yul\":12970:13042   */\n      tag_629\n        /* \"#utility.yul\":13036:13040   */\n      0x60\n        /* \"#utility.yul\":13031:13034   */\n      dup7\n        /* \"#utility.yul\":13027:13041   */\n      add\n        /* \"#utility.yul\":13013:13025   */\n      dup3\n        /* \"#utility.yul\":12970:13042   */\n      tag_408\n      jump\t// in\n    tag_629:\n        /* \"#utility.yul\":12875:13052   */\n      pop\n        /* \"#utility.yul\":13137:13141   */\n      0x80\n        /* \"#utility.yul\":13130:13135   */\n      dup4\n        /* \"#utility.yul\":13126:13142   */\n      add\n        /* \"#utility.yul\":13120:13143   */\n      mload\n        /* \"#utility.yul\":13156:13219   */\n      tag_630\n        /* \"#utility.yul\":13213:13217   */\n      0x80\n        /* \"#utility.yul\":13208:13211   */\n      dup7\n        /* \"#utility.yul\":13204:13218   */\n      add\n        /* \"#utility.yul\":13190:13202   */\n      dup3\n        /* \"#utility.yul\":13156:13219   */\n      tag_400\n      jump\t// in\n    tag_630:\n        /* \"#utility.yul\":13062:13229   */\n      pop\n        /* \"#utility.yul\":13317:13321   */\n      0xa0\n        /* \"#utility.yul\":13310:13315   */\n      dup4\n        /* \"#utility.yul\":13306:13322   */\n      add\n        /* \"#utility.yul\":13300:13323   */\n      mload\n        /* \"#utility.yul\":13336:13399   */\n      tag_631\n        /* \"#utility.yul\":13393:13397   */\n      0xa0\n        /* \"#utility.yul\":13388:13391   */\n      dup7\n        /* \"#utility.yul\":13384:13398   */\n      add\n        /* \"#utility.yul\":13370:13382   */\n      dup3\n        /* \"#utility.yul\":13336:13399   */\n      tag_409\n      jump\t// in\n    tag_631:\n        /* \"#utility.yul\":13239:13409   */\n      pop\n        /* \"#utility.yul\":13498:13502   */\n      0xc0\n        /* \"#utility.yul\":13491:13496   */\n      dup4\n        /* \"#utility.yul\":13487:13503   */\n      add\n        /* \"#utility.yul\":13481:13504   */\n      mload\n        /* \"#utility.yul\":13517:13574   */\n      tag_632\n        /* \"#utility.yul\":13568:13572   */\n      0xc0\n        /* \"#utility.yul\":13563:13566   */\n      dup7\n        /* \"#utility.yul\":13559:13573   */\n      add\n        /* \"#utility.yul\":13545:13557   */\n      dup3\n        /* \"#utility.yul\":13517:13574   */\n      tag_411\n      jump\t// in\n    tag_632:\n        /* \"#utility.yul\":13419:13584   */\n      pop\n        /* \"#utility.yul\":13673:13677   */\n      0xe0\n        /* \"#utility.yul\":13666:13671   */\n      dup4\n        /* \"#utility.yul\":13662:13678   */\n      add\n        /* \"#utility.yul\":13656:13679   */\n      mload\n        /* \"#utility.yul\":13692:13755   */\n      tag_633\n        /* \"#utility.yul\":13749:13753   */\n      0xe0\n        /* \"#utility.yul\":13744:13747   */\n      dup7\n        /* \"#utility.yul\":13740:13754   */\n      add\n        /* \"#utility.yul\":13726:13738   */\n      dup3\n        /* \"#utility.yul\":13692:13755   */\n      tag_400\n      jump\t// in\n    tag_633:\n        /* \"#utility.yul\":13594:13765   */\n      pop\n        /* \"#utility.yul\":13782:13786   */\n      dup1\n        /* \"#utility.yul\":13775:13786   */\n      swap2\n      pop\n        /* \"#utility.yul\":12157:13792   */\n      pop\n        /* \"#utility.yul\":12043:13792   */\n      swap3\n      swap2\n      pop\n      pop\n      jump\t// out\n        /* \"#utility.yul\":13798:14151   */\n    tag_49:\n        /* \"#utility.yul\":13931:13935   */\n      0x00\n        /* \"#utility.yul\":13969:13971   */\n      0x20\n        /* \"#utility.yul\":13958:13967   */\n      dup3\n        /* \"#utility.yul\":13954:13972   */\n      add\n        /* \"#utility.yul\":13946:13972   */\n      swap1\n      pop\n        /* \"#utility.yul\":14018:14027   */\n      dup2\n        /* \"#utility.yul\":14012:14016   */\n      dup2\n        /* \"#utility.yul\":14008:14028   */\n      sub\n        /* \"#utility.yul\":14004:14005   */\n      0x00\n        /* \"#utility.yul\":13993:14002   */\n      dup4\n        /* \"#utility.yul\":13989:14006   */\n      add\n        /* \"#utility.yul\":13982:14029   */\n      mstore\n        /* \"#utility.yul\":14046:14144   */\n      tag_635\n        /* \"#utility.yul\":14139:14143   */\n      dup2\n        /* \"#utility.yul\":14130:14136   */\n      dup5\n        /* \"#utility.yul\":14046:14144   */\n      tag_419\n      jump\t// in\n    tag_635:\n        /* \"#utility.yul\":14038:14144   */\n      swap1\n      pop\n        /* \"#utility.yul\":13798:14151   */\n      swap3\n      swap2\n      pop\n      pop\n      jump\t// out\n        /* \"#utility.yul\":14157:14267   */\n    tag_420:\n        /* \"#utility.yul\":14241:14242   */\n      0x03\n        /* \"#utility.yul\":14234:14239   */\n      dup2\n        /* \"#utility.yul\":14231:14243   */\n      lt\n        /* \"#utility.yul\":14221:14261   */\n      tag_637\n      jumpi\n        /* \"#utility.yul\":14257:14258   */\n      0x00\n        /* \"#utility.yul\":14254:14255   */\n      dup1\n        /* \"#utility.yul\":14247:14259   */\n      revert\n        /* \"#utility.yul\":14221:14261   */\n    tag_637:\n        /* \"#utility.yul\":14157:14267   */\n      pop\n      jump\t// out\n        /* \"#utility.yul\":14273:14434   */\n    tag_421:\n        /* \"#utility.yul\":14330:14335   */\n      0x00\n        /* \"#utility.yul\":14368:14374   */\n      dup2\n        /* \"#utility.yul\":14355:14375   */\n      calldataload\n        /* \"#utility.yul\":14346:14375   */\n      swap1\n      pop\n        /* \"#utility.yul\":14384:14428   */\n      tag_639\n        /* \"#utility.yul\":14422:14427   */\n      dup2\n        /* \"#utility.yul\":14384:14428   */\n      tag_420\n      jump\t// in\n    tag_639:\n        /* \"#utility.yul\":14273:14434   */\n      swap3\n      swap2\n      pop\n      pop\n      jump\t// out\n        /* \"#utility.yul\":14440:15733   */\n    tag_58:\n        /* \"#utility.yul\":14566:14572   */\n      0x00\n        /* \"#utility.yul\":14574:14580   */\n      dup1\n        /* \"#utility.yul\":14582:14588   */\n      0x00\n        /* \"#utility.yul\":14590:14596   */\n      dup1\n        /* \"#utility.yul\":14598:14604   */\n      0x00\n        /* \"#utility.yul\":14647:14650   */\n      0xa0\n        /* \"#utility.yul\":14635:14644   */\n      dup7\n        /* \"#utility.yul\":14626:14633   */\n      dup9\n        /* \"#utility.yul\":14622:14645   */\n      sub\n        /* \"#utility.yul\":14618:14651   */\n      slt\n        /* \"#utility.yul\":14615:14735   */\n      iszero\n      tag_641\n      jumpi\n        /* \"#utility.yul\":14654:14733   */\n      tag_642\n      tag_381\n      jump\t// in\n    tag_642:\n        /* \"#utility.yul\":14615:14735   */\n    tag_641:\n        /* \"#utility.yul\":14802:14803   */\n      0x00\n        /* \"#utility.yul\":14791:14800   */\n      dup7\n        /* \"#utility.yul\":14787:14804   */\n      add\n        /* \"#utility.yul\":14774:14805   */\n      calldataload\n        /* \"#utility.yul\":14832:14850   */\n      0xffffffffffffffff\n        /* \"#utility.yul\":14824:14830   */\n      dup2\n        /* \"#utility.yul\":14821:14851   */\n      gt\n        /* \"#utility.yul\":14818:14935   */\n      iszero\n      tag_643\n      jumpi\n        /* \"#utility.yul\":14854:14933   */\n      tag_644\n      tag_382\n      jump\t// in\n    tag_644:\n        /* \"#utility.yul\":14818:14935   */\n    tag_643:\n        /* \"#utility.yul\":14959:15022   */\n      tag_645\n        /* \"#utility.yul\":15014:15021   */\n      dup9\n        /* \"#utility.yul\":15005:15011   */\n      dup3\n        /* \"#utility.yul\":14994:15003   */\n      dup10\n        /* \"#utility.yul\":14990:15012   */\n      add\n        /* \"#utility.yul\":14959:15022   */\n      tag_395\n      jump\t// in\n    tag_645:\n        /* \"#utility.yul\":14949:15022   */\n      swap6\n      pop\n        /* \"#utility.yul\":14745:15032   */\n      pop\n        /* \"#utility.yul\":15099:15101   */\n      0x20\n        /* \"#utility.yul\":15088:15097   */\n      dup7\n        /* \"#utility.yul\":15084:15102   */\n      add\n        /* \"#utility.yul\":15071:15103   */\n      calldataload\n        /* \"#utility.yul\":15130:15148   */\n      0xffffffffffffffff\n        /* \"#utility.yul\":15122:15128   */\n      dup2\n        /* \"#utility.yul\":15119:15149   */\n      gt\n        /* \"#utility.yul\":15116:15233   */\n      iszero\n      tag_646\n      jumpi\n        /* \"#utility.yul\":15152:15231   */\n      tag_647\n      tag_382\n      jump\t// in\n    tag_647:\n        /* \"#utility.yul\":15116:15233   */\n    tag_646:\n        /* \"#utility.yul\":15257:15320   */\n      tag_648\n        /* \"#utility.yul\":15312:15319   */\n      dup9\n        /* \"#utility.yul\":15303:15309   */\n      dup3\n        /* \"#utility.yul\":15292:15301   */\n      dup10\n        /* \"#utility.yul\":15288:15310   */\n      add\n        /* \"#utility.yul\":15257:15320   */\n      tag_395\n      jump\t// in\n    tag_648:\n        /* \"#utility.yul\":15247:15320   */\n      swap5\n      pop\n        /* \"#utility.yul\":15042:15330   */\n      pop\n        /* \"#utility.yul\":15369:15371   */\n      0x40\n        /* \"#utility.yul\":15395:15459   */\n      tag_649\n        /* \"#utility.yul\":15451:15458   */\n      dup9\n        /* \"#utility.yul\":15442:15448   */\n      dup3\n        /* \"#utility.yul\":15431:15440   */\n      dup10\n        /* \"#utility.yul\":15427:15449   */\n      add\n        /* \"#utility.yul\":15395:15459   */\n      tag_421\n      jump\t// in\n    tag_649:\n        /* \"#utility.yul\":15385:15459   */\n      swap4\n      pop\n        /* \"#utility.yul\":15340:15469   */\n      pop\n        /* \"#utility.yul\":15508:15510   */\n      0x60\n        /* \"#utility.yul\":15534:15587   */\n      tag_650\n        /* \"#utility.yul\":15579:15586   */\n      dup9\n        /* \"#utility.yul\":15570:15576   */\n      dup3\n        /* \"#utility.yul\":15559:15568   */\n      dup10\n        /* \"#utility.yul\":15555:15577   */\n      add\n        /* \"#utility.yul\":15534:15587   */\n      tag_417\n      jump\t// in\n    tag_650:\n        /* \"#utility.yul\":15524:15587   */\n      swap3\n      pop\n        /* \"#utility.yul\":15479:15597   */\n      pop\n        /* \"#utility.yul\":15636:15639   */\n      0x80\n        /* \"#utility.yul\":15663:15716   */\n      tag_651\n        /* \"#utility.yul\":15708:15715   */\n      dup9\n        /* \"#utility.yul\":15699:15705   */\n      dup3\n        /* \"#utility.yul\":15688:15697   */\n      dup10\n        /* \"#utility.yul\":15684:15706   */\n      add\n        /* \"#utility.yul\":15663:15716   */\n      tag_386\n      jump\t// in\n    tag_651:\n        /* \"#utility.yul\":15653:15716   */\n      swap2\n      pop\n        /* \"#utility.yul\":15607:15726   */\n      pop\n        /* \"#utility.yul\":14440:15733   */\n      swap3\n      swap6\n      pop\n      swap3\n      swap6\n      swap1\n      swap4\n      pop\n      jump\t// out\n        /* \"#utility.yul\":15739:15908   */\n    tag_422:\n        /* \"#utility.yul\":15823:15834   */\n      0x00\n        /* \"#utility.yul\":15857:15863   */\n      dup3\n        /* \"#utility.yul\":15852:15855   */\n      dup3\n        /* \"#utility.yul\":15845:15864   */\n      mstore\n        /* \"#utility.yul\":15897:15901   */\n      0x20\n        /* \"#utility.yul\":15892:15895   */\n      dup3\n        /* \"#utility.yul\":15888:15902   */\n      add\n        /* \"#utility.yul\":15873:15902   */\n      swap1\n      pop\n        /* \"#utility.yul\":15739:15908   */\n      swap3\n      swap2\n      pop\n      pop\n      jump\t// out\n        /* \"#utility.yul\":15914:16291   */\n    tag_423:\n        /* \"#utility.yul\":16002:16005   */\n      0x00\n        /* \"#utility.yul\":16030:16069   */\n      tag_654\n        /* \"#utility.yul\":16063:16068   */\n      dup3\n        /* \"#utility.yul\":16030:16069   */\n      tag_401\n      jump\t// in\n    tag_654:\n        /* \"#utility.yul\":16085:16156   */\n      tag_655\n        /* \"#utility.yul\":16149:16155   */\n      dup2\n        /* \"#utility.yul\":16144:16147   */\n      dup6\n        /* \"#utility.yul\":16085:16156   */\n      tag_422\n      jump\t// in\n    tag_655:\n        /* \"#utility.yul\":16078:16156   */\n      swap4\n      pop\n        /* \"#utility.yul\":16165:16230   */\n      tag_656\n        /* \"#utility.yul\":16223:16229   */\n      dup2\n        /* \"#utility.yul\":16218:16221   */\n      dup6\n        /* \"#utility.yul\":16211:16215   */\n      0x20\n        /* \"#utility.yul\":16204:16209   */\n      dup7\n        /* \"#utility.yul\":16200:16216   */\n      add\n        /* \"#utility.yul\":16165:16230   */\n      tag_403\n      jump\t// in\n    tag_656:\n        /* \"#utility.yul\":16255:16284   */\n      tag_657\n        /* \"#utility.yul\":16277:16283   */\n      dup2\n        /* \"#utility.yul\":16255:16284   */\n      tag_389\n      jump\t// in\n    tag_657:\n        /* \"#utility.yul\":16250:16253   */\n      dup5\n        /* \"#utility.yul\":16246:16285   */\n      add\n        /* \"#utility.yul\":16239:16285   */\n      swap2\n      pop\n        /* \"#utility.yul\":16006:16291   */\n      pop\n        /* \"#utility.yul\":15914:16291   */\n      swap3\n      swap2\n      pop\n      pop\n      jump\t// out\n        /* \"#utility.yul\":16297:16610   */\n    tag_73:\n        /* \"#utility.yul\":16410:16414   */\n      0x00\n        /* \"#utility.yul\":16448:16450   */\n      0x20\n        /* \"#utility.yul\":16437:16446   */\n      dup3\n        /* \"#utility.yul\":16433:16451   */\n      add\n        /* \"#utility.yul\":16425:16451   */\n      swap1\n      pop\n        /* \"#utility.yul\":16497:16506   */\n      dup2\n        /* \"#utility.yul\":16491:16495   */\n      dup2\n        /* \"#utility.yul\":16487:16507   */\n      sub\n        /* \"#utility.yul\":16483:16484   */\n      0x00\n        /* \"#utility.yul\":16472:16481   */\n      dup4\n        /* \"#utility.yul\":16468:16485   */\n      add\n        /* \"#utility.yul\":16461:16508   */\n      mstore\n        /* \"#utility.yul\":16525:16603   */\n      tag_659\n        /* \"#utility.yul\":16598:16602   */\n      dup2\n        /* \"#utility.yul\":16589:16595   */\n      dup5\n        /* \"#utility.yul\":16525:16603   */\n      tag_423\n      jump\t// in\n    tag_659:\n        /* \"#utility.yul\":16517:16603   */\n      swap1\n      pop\n        /* \"#utility.yul\":16297:16610   */\n      swap3\n      swap2\n      pop\n      pop\n      jump\t// out\n        /* \"#utility.yul\":16616:17415   */\n    tag_79:\n        /* \"#utility.yul\":16703:16709   */\n      0x00\n        /* \"#utility.yul\":16711:16717   */\n      dup1\n        /* \"#utility.yul\":16719:16725   */\n      0x00\n        /* \"#utility.yul\":16768:16770   */\n      0x60\n        /* \"#utility.yul\":16756:16765   */\n      dup5\n        /* \"#utility.yul\":16747:16754   */\n      dup7\n        /* \"#utility.yul\":16743:16766   */\n      sub\n        /* \"#utility.yul\":16739:16771   */\n      slt\n        /* \"#utility.yul\":16736:16855   */\n      iszero\n      tag_661\n      jumpi\n        /* \"#utility.yul\":16774:16853   */\n      tag_662\n      tag_381\n      jump\t// in\n    tag_662:\n        /* \"#utility.yul\":16736:16855   */\n    tag_661:\n        /* \"#utility.yul\":16894:16895   */\n      0x00\n        /* \"#utility.yul\":16919:16972   */\n      tag_663\n        /* \"#utility.yul\":16964:16971   */\n      dup7\n        /* \"#utility.yul\":16955:16961   */\n      dup3\n        /* \"#utility.yul\":16944:16953   */\n      dup8\n        /* \"#utility.yul\":16940:16962   */\n      add\n        /* \"#utility.yul\":16919:16972   */\n      tag_386\n      jump\t// in\n    tag_663:\n        /* \"#utility.yul\":16909:16972   */\n      swap4\n      pop\n        /* \"#utility.yul\":16865:16982   */\n      pop\n        /* \"#utility.yul\":17021:17023   */\n      0x20\n        /* \"#utility.yul\":17047:17100   */\n      tag_664\n        /* \"#utility.yul\":17092:17099   */\n      dup7\n        /* \"#utility.yul\":17083:17089   */\n      dup3\n        /* \"#utility.yul\":17072:17081   */\n      dup8\n        /* \"#utility.yul\":17068:17090   */\n      add\n        /* \"#utility.yul\":17047:17100   */\n      tag_386\n      jump\t// in\n    tag_664:\n        /* \"#utility.yul\":17037:17100   */\n      swap3\n      pop\n        /* \"#utility.yul\":16992:17110   */\n      pop\n        /* \"#utility.yul\":17177:17179   */\n      0x40\n        /* \"#utility.yul\":17166:17175   */\n      dup5\n        /* \"#utility.yul\":17162:17180   */\n      add\n        /* \"#utility.yul\":17149:17181   */\n      calldataload\n        /* \"#utility.yul\":17208:17226   */\n      0xffffffffffffffff\n        /* \"#utility.yul\":17200:17206   */\n      dup2\n        /* \"#utility.yul\":17197:17227   */\n      gt\n        /* \"#utility.yul\":17194:17311   */\n      iszero\n      tag_665\n      jumpi\n        /* \"#utility.yul\":17230:17309   */\n      tag_666\n      tag_382\n      jump\t// in\n    tag_666:\n        /* \"#utility.yul\":17194:17311   */\n    tag_665:\n        /* \"#utility.yul\":17335:17398   */\n      tag_667\n        /* \"#utility.yul\":17390:17397   */\n      dup7\n        /* \"#utility.yul\":17381:17387   */\n      dup3\n        /* \"#utility.yul\":17370:17379   */\n      dup8\n        /* \"#utility.yul\":17366:17388   */\n      add\n        /* \"#utility.yul\":17335:17398   */\n      tag_395\n      jump\t// in\n    tag_667:\n        /* \"#utility.yul\":17325:17398   */\n      swap2\n      pop\n        /* \"#utility.yul\":17120:17408   */\n      pop\n        /* \"#utility.yul\":16616:17415   */\n      swap3\n      pop\n      swap3\n      pop\n      swap3\n      jump\t// out\n        /* \"#utility.yul\":17421:17545   */\n    tag_424:\n        /* \"#utility.yul\":17498:17504   */\n      0x00\n        /* \"#utility.yul\":17532:17537   */\n      dup2\n        /* \"#utility.yul\":17526:17538   */\n      mload\n        /* \"#utility.yul\":17516:17538   */\n      swap1\n      pop\n        /* \"#utility.yul\":17421:17545   */\n      swap2\n      swap1\n      pop\n      jump\t// out\n        /* \"#utility.yul\":17551:17745   */\n    tag_425:\n        /* \"#utility.yul\":17660:17671   */\n      0x00\n        /* \"#utility.yul\":17694:17700   */\n      dup3\n        /* \"#utility.yul\":17689:17692   */\n      dup3\n        /* \"#utility.yul\":17682:17701   */\n      mstore\n        /* \"#utility.yul\":17734:17738   */\n      0x20\n        /* \"#utility.yul\":17729:17732   */\n      dup3\n        /* \"#utility.yul\":17725:17739   */\n      add\n        /* \"#utility.yul\":17710:17739   */\n      swap1\n      pop\n        /* \"#utility.yul\":17551:17745   */\n      swap3\n      swap2\n      pop\n      pop\n      jump\t// out\n        /* \"#utility.yul\":17751:17893   */\n    tag_426:\n        /* \"#utility.yul\":17828:17832   */\n      0x00\n        /* \"#utility.yul\":17851:17854   */\n      dup2\n        /* \"#utility.yul\":17843:17854   */\n      swap1\n      pop\n        /* \"#utility.yul\":17881:17885   */\n      0x20\n        /* \"#utility.yul\":17876:17879   */\n      dup3\n        /* \"#utility.yul\":17872:17886   */\n      add\n        /* \"#utility.yul\":17864:17886   */\n      swap1\n      pop\n        /* \"#utility.yul\":17751:17893   */\n      swap2\n      swap1\n      pop\n      jump\t// out\n        /* \"#utility.yul\":17899:18095   */\n    tag_427:\n        /* \"#utility.yul\":17988:17998   */\n      0x00\n        /* \"#utility.yul\":18023:18089   */\n      tag_672\n        /* \"#utility.yul\":18085:18088   */\n      dup4\n        /* \"#utility.yul\":18077:18083   */\n      dup4\n        /* \"#utility.yul\":18023:18089   */\n      tag_404\n      jump\t// in\n    tag_672:\n        /* \"#utility.yul\":18009:18089   */\n      swap1\n      pop\n        /* \"#utility.yul\":17899:18095   */\n      swap3\n      swap2\n      pop\n      pop\n      jump\t// out\n        /* \"#utility.yul\":18101:18224   */\n    tag_428:\n        /* \"#utility.yul\":18181:18185   */\n      0x00\n        /* \"#utility.yul\":18213:18217   */\n      0x20\n        /* \"#utility.yul\":18208:18211   */\n      dup3\n        /* \"#utility.yul\":18204:18218   */\n      add\n        /* \"#utility.yul\":18196:18218   */\n      swap1\n      pop\n        /* \"#utility.yul\":18101:18224   */\n      swap2\n      swap1\n      pop\n      jump\t// out\n        /* \"#utility.yul\":18258:19249   */\n    tag_429:\n        /* \"#utility.yul\":18397:18400   */\n      0x00\n        /* \"#utility.yul\":18426:18490   */\n      tag_675\n        /* \"#utility.yul\":18484:18489   */\n      dup3\n        /* \"#utility.yul\":18426:18490   */\n      tag_424\n      jump\t// in\n    tag_675:\n        /* \"#utility.yul\":18506:18602   */\n      tag_676\n        /* \"#utility.yul\":18595:18601   */\n      dup2\n        /* \"#utility.yul\":18590:18593   */\n      dup6\n        /* \"#utility.yul\":18506:18602   */\n      tag_425\n      jump\t// in\n    tag_676:\n        /* \"#utility.yul\":18499:18602   */\n      swap4\n      pop\n        /* \"#utility.yul\":18628:18631   */\n      dup4\n        /* \"#utility.yul\":18673:18677   */\n      0x20\n        /* \"#utility.yul\":18665:18671   */\n      dup3\n        /* \"#utility.yul\":18661:18678   */\n      mul\n        /* \"#utility.yul\":18656:18659   */\n      dup6\n        /* \"#utility.yul\":18652:18679   */\n      add\n        /* \"#utility.yul\":18703:18769   */\n      tag_677\n        /* \"#utility.yul\":18763:18768   */\n      dup6\n        /* \"#utility.yul\":18703:18769   */\n      tag_426\n      jump\t// in\n    tag_677:\n        /* \"#utility.yul\":18792:18799   */\n      dup1\n        /* \"#utility.yul\":18823:18824   */\n      0x00\n        /* \"#utility.yul\":18808:19204   */\n    tag_678:\n        /* \"#utility.yul\":18833:18839   */\n      dup6\n        /* \"#utility.yul\":18830:18831   */\n      dup2\n        /* \"#utility.yul\":18827:18840   */\n      lt\n        /* \"#utility.yul\":18808:19204   */\n      iszero\n      tag_680\n      jumpi\n        /* \"#utility.yul\":18904:18913   */\n      dup5\n        /* \"#utility.yul\":18898:18902   */\n      dup5\n        /* \"#utility.yul\":18894:18914   */\n      sub\n        /* \"#utility.yul\":18889:18892   */\n      dup10\n        /* \"#utility.yul\":18882:18915   */\n      mstore\n        /* \"#utility.yul\":18955:18961   */\n      dup2\n        /* \"#utility.yul\":18949:18962   */\n      mload\n        /* \"#utility.yul\":18983:19067   */\n      tag_681\n        /* \"#utility.yul\":19062:19066   */\n      dup6\n        /* \"#utility.yul\":19047:19060   */\n      dup3\n        /* \"#utility.yul\":18983:19067   */\n      tag_427\n      jump\t// in\n    tag_681:\n        /* \"#utility.yul\":18975:19067   */\n      swap5\n      pop\n        /* \"#utility.yul\":19090:19160   */\n      tag_682\n        /* \"#utility.yul\":19153:19159   */\n      dup4\n        /* \"#utility.yul\":19090:19160   */\n      tag_428\n      jump\t// in\n    tag_682:\n        /* \"#utility.yul\":19080:19160   */\n      swap3\n      pop\n        /* \"#utility.yul\":19189:19193   */\n      0x20\n        /* \"#utility.yul\":19184:19187   */\n      dup11\n        /* \"#utility.yul\":19180:19194   */\n      add\n        /* \"#utility.yul\":19173:19194   */\n      swap10\n      pop\n        /* \"#utility.yul\":18868:19204   */\n      pop\n        /* \"#utility.yul\":18855:18856   */\n      0x01\n        /* \"#utility.yul\":18852:18853   */\n      dup2\n        /* \"#utility.yul\":18848:18857   */\n      add\n        /* \"#utility.yul\":18843:18857   */\n      swap1\n      pop\n        /* \"#utility.yul\":18808:19204   */\n      jump(tag_678)\n    tag_680:\n        /* \"#utility.yul\":18812:18826   */\n      pop\n        /* \"#utility.yul\":19220:19224   */\n      dup3\n        /* \"#utility.yul\":19213:19224   */\n      swap8\n      pop\n        /* \"#utility.yul\":19240:19243   */\n      dup8\n        /* \"#utility.yul\":19233:19243   */\n      swap6\n      pop\n        /* \"#utility.yul\":18402:19249   */\n      pop\n      pop\n      pop\n      pop\n      pop\n        /* \"#utility.yul\":18258:19249   */\n      swap3\n      swap2\n      pop\n      pop\n      jump\t// out\n        /* \"#utility.yul\":19255:19668   */\n    tag_85:\n        /* \"#utility.yul\":19418:19422   */\n      0x00\n        /* \"#utility.yul\":19456:19458   */\n      0x20\n        /* \"#utility.yul\":19445:19454   */\n      dup3\n        /* \"#utility.yul\":19441:19459   */\n      add\n        /* \"#utility.yul\":19433:19459   */\n      swap1\n      pop\n        /* \"#utility.yul\":19505:19514   */\n      dup2\n        /* \"#utility.yul\":19499:19503   */\n      dup2\n        /* \"#utility.yul\":19495:19515   */\n      sub\n        /* \"#utility.yul\":19491:19492   */\n      0x00\n        /* \"#utility.yul\":19480:19489   */\n      dup4\n        /* \"#utility.yul\":19476:19493   */\n      add\n        /* \"#utility.yul\":19469:19516   */\n      mstore\n        /* \"#utility.yul\":19533:19661   */\n      tag_684\n        /* \"#utility.yul\":19656:19660   */\n      dup2\n        /* \"#utility.yul\":19647:19653   */\n      dup5\n        /* \"#utility.yul\":19533:19661   */\n      tag_429\n      jump\t// in\n    tag_684:\n        /* \"#utility.yul\":19525:19661   */\n      swap1\n      pop\n        /* \"#utility.yul\":19255:19668   */\n      swap3\n      swap2\n      pop\n      pop\n      jump\t// out\n        /* \"#utility.yul\":19674:19854   */\n    tag_430:\n        /* \"#utility.yul\":19722:19799   */\n      0x4e487b7100000000000000000000000000000000000000000000000000000000\n        /* \"#utility.yul\":19719:19720   */\n      0x00\n        /* \"#utility.yul\":19712:19800   */\n      mstore\n        /* \"#utility.yul\":19819:19823   */\n      0x22\n        /* \"#utility.yul\":19816:19817   */\n      0x04\n        /* \"#utility.yul\":19809:19824   */\n      mstore\n        /* \"#utility.yul\":19843:19847   */\n      0x24\n        /* \"#utility.yul\":19840:19841   */\n      0x00\n        /* \"#utility.yul\":19833:19848   */\n      revert\n        /* \"#utility.yul\":19860:20180   */\n    tag_130:\n        /* \"#utility.yul\":19904:19910   */\n      0x00\n        /* \"#utility.yul\":19941:19942   */\n      0x02\n        /* \"#utility.yul\":19935:19939   */\n      dup3\n        /* \"#utility.yul\":19931:19943   */\n      div\n        /* \"#utility.yul\":19921:19943   */\n      swap1\n      pop\n        /* \"#utility.yul\":19988:19989   */\n      0x01\n        /* \"#utility.yul\":19982:19986   */\n      dup3\n        /* \"#utility.yul\":19978:19990   */\n      and\n        /* \"#utility.yul\":20009:20027   */\n      dup1\n        /* \"#utility.yul\":19999:20080   */\n      tag_687\n      jumpi\n        /* \"#utility.yul\":20065:20069   */\n      0x7f\n        /* \"#utility.yul\":20057:20063   */\n      dup3\n        /* \"#utility.yul\":20053:20070   */\n      and\n        /* \"#utility.yul\":20043:20070   */\n      swap2\n      pop\n        /* \"#utility.yul\":19999:20080   */\n    tag_687:\n        /* \"#utility.yul\":20127:20129   */\n      0x20\n        /* \"#utility.yul\":20119:20125   */\n      dup3\n        /* \"#utility.yul\":20116:20130   */\n      lt\n        /* \"#utility.yul\":20096:20114   */\n      dup2\n        /* \"#utility.yul\":20093:20131   */\n      sub\n        /* \"#utility.yul\":20090:20174   */\n      tag_688\n      jumpi\n        /* \"#utility.yul\":20146:20164   */\n      tag_689\n      tag_430\n      jump\t// in\n    tag_689:\n        /* \"#utility.yul\":20090:20174   */\n    tag_688:\n        /* \"#utility.yul\":19911:20180   */\n      pop\n        /* \"#utility.yul\":19860:20180   */\n      swap2\n      swap1\n      pop\n      jump\t// out\n        /* \"#utility.yul\":20186:20333   */\n    tag_431:\n        /* \"#utility.yul\":20287:20298   */\n      0x00\n        /* \"#utility.yul\":20324:20327   */\n      dup2\n        /* \"#utility.yul\":20309:20327   */\n      swap1\n      pop\n        /* \"#utility.yul\":20186:20333   */\n      swap3\n      swap2\n      pop\n      pop\n      jump\t// out\n        /* \"#utility.yul\":20339:20483   */\n    tag_432:\n        /* \"#utility.yul\":20391:20395   */\n      0x00\n        /* \"#utility.yul\":20414:20417   */\n      dup2\n        /* \"#utility.yul\":20406:20417   */\n      swap1\n      pop\n        /* \"#utility.yul\":20437:20440   */\n      dup2\n        /* \"#utility.yul\":20434:20435   */\n      0x00\n        /* \"#utility.yul\":20427:20441   */\n      mstore\n        /* \"#utility.yul\":20471:20475   */\n      0x20\n        /* \"#utility.yul\":20468:20469   */\n      0x00\n        /* \"#utility.yul\":20458:20476   */\n      keccak256\n        /* \"#utility.yul\":20450:20476   */\n      swap1\n      pop\n        /* \"#utility.yul\":20339:20483   */\n      swap2\n      swap1\n      pop\n      jump\t// out\n        /* \"#utility.yul\":20511:21389   */\n    tag_433:\n        /* \"#utility.yul\":20616:20619   */\n      0x00\n        /* \"#utility.yul\":20653:20658   */\n      dup2\n        /* \"#utility.yul\":20647:20659   */\n      sload\n        /* \"#utility.yul\":20682:20718   */\n      tag_693\n        /* \"#utility.yul\":20708:20717   */\n      dup2\n        /* \"#utility.yul\":20682:20718   */\n      tag_130\n      jump\t// in\n    tag_693:\n        /* \"#utility.yul\":20734:20822   */\n      tag_694\n        /* \"#utility.yul\":20815:20821   */\n      dup2\n        /* \"#utility.yul\":20810:20813   */\n      dup7\n        /* \"#utility.yul\":20734:20822   */\n      tag_431\n      jump\t// in\n    tag_694:\n        /* \"#utility.yul\":20727:20822   */\n      swap5\n      pop\n        /* \"#utility.yul\":20853:20854   */\n      0x01\n        /* \"#utility.yul\":20842:20851   */\n      dup3\n        /* \"#utility.yul\":20838:20855   */\n      and\n        /* \"#utility.yul\":20869:20870   */\n      0x00\n        /* \"#utility.yul\":20864:21030   */\n      dup2\n      eq\n      tag_696\n      jumpi\n        /* \"#utility.yul\":21044:21045   */\n      0x01\n        /* \"#utility.yul\":21039:21383   */\n      dup2\n      eq\n      tag_697\n      jumpi\n        /* \"#utility.yul\":20831:21383   */\n      jump(tag_695)\n        /* \"#utility.yul\":20864:21030   */\n    tag_696:\n        /* \"#utility.yul\":20948:20952   */\n      0xff\n        /* \"#utility.yul\":20944:20953   */\n      not\n        /* \"#utility.yul\":20933:20942   */\n      dup4\n        /* \"#utility.yul\":20929:20954   */\n      and\n        /* \"#utility.yul\":20924:20927   */\n      dup7\n        /* \"#utility.yul\":20917:20955   */\n      mstore\n        /* \"#utility.yul\":21010:21016   */\n      dup2\n        /* \"#utility.yul\":21003:21017   */\n      iszero\n        /* \"#utility.yul\":20996:21018   */\n      iszero\n        /* \"#utility.yul\":20988:20994   */\n      dup3\n        /* \"#utility.yul\":20984:21019   */\n      mul\n        /* \"#utility.yul\":20979:20982   */\n      dup7\n        /* \"#utility.yul\":20975:21020   */\n      add\n        /* \"#utility.yul\":20968:21020   */\n      swap4\n      pop\n        /* \"#utility.yul\":20864:21030   */\n      jump(tag_695)\n        /* \"#utility.yul\":21039:21383   */\n    tag_697:\n        /* \"#utility.yul\":21106:21147   */\n      tag_698\n        /* \"#utility.yul\":21141:21146   */\n      dup6\n        /* \"#utility.yul\":21106:21147   */\n      tag_432\n      jump\t// in\n    tag_698:\n        /* \"#utility.yul\":21169:21170   */\n      0x00\n        /* \"#utility.yul\":21183:21337   */\n    tag_699:\n        /* \"#utility.yul\":21197:21203   */\n      dup4\n        /* \"#utility.yul\":21194:21195   */\n      dup2\n        /* \"#utility.yul\":21191:21204   */\n      lt\n        /* \"#utility.yul\":21183:21337   */\n      iszero\n      tag_701\n      jumpi\n        /* \"#utility.yul\":21271:21278   */\n      dup2\n        /* \"#utility.yul\":21265:21279   */\n      sload\n        /* \"#utility.yul\":21261:21262   */\n      dup2\n        /* \"#utility.yul\":21256:21259   */\n      dup10\n        /* \"#utility.yul\":21252:21263   */\n      add\n        /* \"#utility.yul\":21245:21280   */\n      mstore\n        /* \"#utility.yul\":21321:21322   */\n      0x01\n        /* \"#utility.yul\":21312:21319   */\n      dup3\n        /* \"#utility.yul\":21308:21323   */\n      add\n        /* \"#utility.yul\":21297:21323   */\n      swap2\n      pop\n        /* \"#utility.yul\":21219:21223   */\n      0x20\n        /* \"#utility.yul\":21216:21217   */\n      dup2\n        /* \"#utility.yul\":21212:21224   */\n      add\n        /* \"#utility.yul\":21207:21224   */\n      swap1\n      pop\n        /* \"#utility.yul\":21183:21337   */\n      jump(tag_699)\n    tag_701:\n        /* \"#utility.yul\":21366:21372   */\n      dup4\n        /* \"#utility.yul\":21361:21364   */\n      dup9\n        /* \"#utility.yul\":21357:21373   */\n      add\n        /* \"#utility.yul\":21350:21373   */\n      swap6\n      pop\n        /* \"#utility.yul\":21046:21383   */\n      pop\n      pop\n        /* \"#utility.yul\":20831:21383   */\n    tag_695:\n      pop\n        /* \"#utility.yul\":20620:21389   */\n      pop\n      pop\n        /* \"#utility.yul\":20511:21389   */\n      swap3\n      swap2\n      pop\n      pop\n      jump\t// out\n        /* \"#utility.yul\":21395:21668   */\n    tag_88:\n        /* \"#utility.yul\":21526:21529   */\n      0x00\n        /* \"#utility.yul\":21548:21642   */\n      tag_703\n        /* \"#utility.yul\":21638:21641   */\n      dup3\n        /* \"#utility.yul\":21629:21635   */\n      dup5\n        /* \"#utility.yul\":21548:21642   */\n      tag_433\n      jump\t// in\n    tag_703:\n        /* \"#utility.yul\":21541:21642   */\n      swap2\n      pop\n        /* \"#utility.yul\":21659:21662   */\n      dup2\n        /* \"#utility.yul\":21652:21662   */\n      swap1\n      pop\n        /* \"#utility.yul\":21395:21668   */\n      swap3\n      swap2\n      pop\n      pop\n      jump\t// out\n        /* \"#utility.yul\":21674:21843   */\n    tag_434:\n        /* \"#utility.yul\":21814:21835   */\n      0x556e617574686f72697a656420616374696f6e00000000000000000000000000\n        /* \"#utility.yul\":21810:21811   */\n      0x00\n        /* \"#utility.yul\":21802:21808   */\n      dup3\n        /* \"#utility.yul\":21798:21812   */\n      add\n        /* \"#utility.yul\":21791:21836   */\n      mstore\n        /* \"#utility.yul\":21674:21843   */\n      pop\n      jump\t// out\n        /* \"#utility.yul\":21849:22215   */\n    tag_435:\n        /* \"#utility.yul\":21991:21994   */\n      0x00\n        /* \"#utility.yul\":22012:22079   */\n      tag_706\n        /* \"#utility.yul\":22076:22078   */\n      0x13\n        /* \"#utility.yul\":22071:22074   */\n      dup4\n        /* \"#utility.yul\":22012:22079   */\n      tag_422\n      jump\t// in\n    tag_706:\n        /* \"#utility.yul\":22005:22079   */\n      swap2\n      pop\n        /* \"#utility.yul\":22088:22181   */\n      tag_707\n        /* \"#utility.yul\":22177:22180   */\n      dup3\n        /* \"#utility.yul\":22088:22181   */\n      tag_434\n      jump\t// in\n    tag_707:\n        /* \"#utility.yul\":22206:22208   */\n      0x20\n        /* \"#utility.yul\":22201:22204   */\n      dup3\n        /* \"#utility.yul\":22197:22209   */\n      add\n        /* \"#utility.yul\":22190:22209   */\n      swap1\n      pop\n        /* \"#utility.yul\":21849:22215   */\n      swap2\n      swap1\n      pop\n      jump\t// out\n        /* \"#utility.yul\":22221:22640   */\n    tag_91:\n        /* \"#utility.yul\":22387:22391   */\n      0x00\n        /* \"#utility.yul\":22425:22427   */\n      0x20\n        /* \"#utility.yul\":22414:22423   */\n      dup3\n        /* \"#utility.yul\":22410:22428   */\n      add\n        /* \"#utility.yul\":22402:22428   */\n      swap1\n      pop\n        /* \"#utility.yul\":22474:22483   */\n      dup2\n        /* \"#utility.yul\":22468:22472   */\n      dup2\n        /* \"#utility.yul\":22464:22484   */\n      sub\n        /* \"#utility.yul\":22460:22461   */\n      0x00\n        /* \"#utility.yul\":22449:22458   */\n      dup4\n        /* \"#utility.yul\":22445:22462   */\n      add\n        /* \"#utility.yul\":22438:22485   */\n      mstore\n        /* \"#utility.yul\":22502:22633   */\n      tag_709\n        /* \"#utility.yul\":22628:22632   */\n      dup2\n        /* \"#utility.yul\":22502:22633   */\n      tag_435\n      jump\t// in\n    tag_709:\n        /* \"#utility.yul\":22494:22633   */\n      swap1\n      pop\n        /* \"#utility.yul\":22221:22640   */\n      swap2\n      swap1\n      pop\n      jump\t// out\n        /* \"#utility.yul\":22646:22871   */\n    tag_436:\n        /* \"#utility.yul\":22786:22820   */\n      0x4e6f206578697374696e672044494420666f756e6420666f7220746869732061\n        /* \"#utility.yul\":22782:22783   */\n      0x00\n        /* \"#utility.yul\":22774:22780   */\n      dup3\n        /* \"#utility.yul\":22770:22784   */\n      add\n        /* \"#utility.yul\":22763:22821   */\n      mstore\n        /* \"#utility.yul\":22855:22863   */\n      0x6464726573730000000000000000000000000000000000000000000000000000\n        /* \"#utility.yul\":22850:22852   */\n      0x20\n        /* \"#utility.yul\":22842:22848   */\n      dup3\n        /* \"#utility.yul\":22838:22853   */\n      add\n        /* \"#utility.yul\":22831:22864   */\n      mstore\n        /* \"#utility.yul\":22646:22871   */\n      pop\n      jump\t// out\n        /* \"#utility.yul\":22877:23243   */\n    tag_437:\n        /* \"#utility.yul\":23019:23022   */\n      0x00\n        /* \"#utility.yul\":23040:23107   */\n      tag_712\n        /* \"#utility.yul\":23104:23106   */\n      0x26\n        /* \"#utility.yul\":23099:23102   */\n      dup4\n        /* \"#utility.yul\":23040:23107   */\n      tag_422\n      jump\t// in\n    tag_712:\n        /* \"#utility.yul\":23033:23107   */\n      swap2\n      pop\n        /* \"#utility.yul\":23116:23209   */\n      tag_713\n        /* \"#utility.yul\":23205:23208   */\n      dup3\n        /* \"#utility.yul\":23116:23209   */\n      tag_436\n      jump\t// in\n    tag_713:\n        /* \"#utility.yul\":23234:23236   */\n      0x40\n        /* \"#utility.yul\":23229:23232   */\n      dup3\n        /* \"#utility.yul\":23225:23237   */\n      add\n        /* \"#utility.yul\":23218:23237   */\n      swap1\n      pop\n        /* \"#utility.yul\":22877:23243   */\n      swap2\n      swap1\n      pop\n      jump\t// out\n        /* \"#utility.yul\":23249:23668   */\n    tag_95:\n        /* \"#utility.yul\":23415:23419   */\n      0x00\n        /* \"#utility.yul\":23453:23455   */\n      0x20\n        /* \"#utility.yul\":23442:23451   */\n      dup3\n        /* \"#utility.yul\":23438:23456   */\n      add\n        /* \"#utility.yul\":23430:23456   */\n      swap1\n      pop\n        /* \"#utility.yul\":23502:23511   */\n      dup2\n        /* \"#utility.yul\":23496:23500   */\n      dup2\n        /* \"#utility.yul\":23492:23512   */\n      sub\n        /* \"#utility.yul\":23488:23489   */\n      0x00\n        /* \"#utility.yul\":23477:23486   */\n      dup4\n        /* \"#utility.yul\":23473:23490   */\n      add\n        /* \"#utility.yul\":23466:23513   */\n      mstore\n        /* \"#utility.yul\":23530:23661   */\n      tag_715\n        /* \"#utility.yul\":23656:23660   */\n      dup2\n        /* \"#utility.yul\":23530:23661   */\n      tag_437\n      jump\t// in\n    tag_715:\n        /* \"#utility.yul\":23522:23661   */\n      swap1\n      pop\n        /* \"#utility.yul\":23249:23668   */\n      swap2\n      swap1\n      pop\n      jump\t// out\n        /* \"#utility.yul\":23674:23844   */\n    tag_438:\n        /* \"#utility.yul\":23814:23836   */\n      0x526f6c652063616e6e6f7420626520656d707479000000000000000000000000\n        /* \"#utility.yul\":23810:23811   */\n      0x00\n        /* \"#utility.yul\":23802:23808   */\n      dup3\n        /* \"#utility.yul\":23798:23812   */\n      add\n        /* \"#utility.yul\":23791:23837   */\n      mstore\n        /* \"#utility.yul\":23674:23844   */\n      pop\n      jump\t// out\n        /* \"#utility.yul\":23850:24216   */\n    tag_439:\n        /* \"#utility.yul\":23992:23995   */\n      0x00\n        /* \"#utility.yul\":24013:24080   */\n      tag_718\n        /* \"#utility.yul\":24077:24079   */\n      0x14\n        /* \"#utility.yul\":24072:24075   */\n      dup4\n        /* \"#utility.yul\":24013:24080   */\n      tag_422\n      jump\t// in\n    tag_718:\n        /* \"#utility.yul\":24006:24080   */\n      swap2\n      pop\n        /* \"#utility.yul\":24089:24182   */\n      tag_719\n        /* \"#utility.yul\":24178:24181   */\n      dup3\n        /* \"#utility.yul\":24089:24182   */\n      tag_438\n      jump\t// in\n    tag_719:\n        /* \"#utility.yul\":24207:24209   */\n      0x20\n        /* \"#utility.yul\":24202:24205   */\n      dup3\n        /* \"#utility.yul\":24198:24210   */\n      add\n        /* \"#utility.yul\":24191:24210   */\n      swap1\n      pop\n        /* \"#utility.yul\":23850:24216   */\n      swap2\n      swap1\n      pop\n      jump\t// out\n        /* \"#utility.yul\":24222:24641   */\n    tag_98:\n        /* \"#utility.yul\":24388:24392   */\n      0x00\n        /* \"#utility.yul\":24426:24428   */\n      0x20\n        /* \"#utility.yul\":24415:24424   */\n      dup3\n        /* \"#utility.yul\":24411:24429   */\n      add\n        /* \"#utility.yul\":24403:24429   */\n      swap1\n      pop\n        /* \"#utility.yul\":24475:24484   */\n      dup2\n        /* \"#utility.yul\":24469:24473   */\n      dup2\n        /* \"#utility.yul\":24465:24485   */\n      sub\n        /* \"#utility.yul\":24461:24462   */\n      0x00\n        /* \"#utility.yul\":24450:24459   */\n      dup4\n        /* \"#utility.yul\":24446:24463   */\n      add\n        /* \"#utility.yul\":24439:24486   */\n      mstore\n        /* \"#utility.yul\":24503:24634   */\n      tag_721\n        /* \"#utility.yul\":24629:24633   */\n      dup2\n        /* \"#utility.yul\":24503:24634   */\n      tag_439\n      jump\t// in\n    tag_721:\n        /* \"#utility.yul\":24495:24634   */\n      swap1\n      pop\n        /* \"#utility.yul\":24222:24641   */\n      swap2\n      swap1\n      pop\n      jump\t// out\n        /* \"#utility.yul\":24647:24741   */\n    tag_440:\n        /* \"#utility.yul\":24680:24688   */\n      0x00\n        /* \"#utility.yul\":24728:24733   */\n      dup2\n        /* \"#utility.yul\":24724:24726   */\n      0x60\n        /* \"#utility.yul\":24720:24734   */\n      shl\n        /* \"#utility.yul\":24699:24734   */\n      swap1\n      pop\n        /* \"#utility.yul\":24647:24741   */\n      swap2\n      swap1\n      pop\n      jump\t// out\n        /* \"#utility.yul\":24747:24841   */\n    tag_441:\n        /* \"#utility.yul\":24786:24793   */\n      0x00\n        /* \"#utility.yul\":24815:24835   */\n      tag_724\n        /* \"#utility.yul\":24829:24834   */\n      dup3\n        /* \"#utility.yul\":24815:24835   */\n      tag_440\n      jump\t// in\n    tag_724:\n        /* \"#utility.yul\":24804:24835   */\n      swap1\n      pop\n        /* \"#utility.yul\":24747:24841   */\n      swap2\n      swap1\n      pop\n      jump\t// out\n        /* \"#utility.yul\":24847:24947   */\n    tag_442:\n        /* \"#utility.yul\":24886:24893   */\n      0x00\n        /* \"#utility.yul\":24915:24941   */\n      tag_726\n        /* \"#utility.yul\":24935:24940   */\n      dup3\n        /* \"#utility.yul\":24915:24941   */\n      tag_441\n      jump\t// in\n    tag_726:\n        /* \"#utility.yul\":24904:24941   */\n      swap1\n      pop\n        /* \"#utility.yul\":24847:24947   */\n      swap2\n      swap1\n      pop\n      jump\t// out\n        /* \"#utility.yul\":24953:25110   */\n    tag_443:\n        /* \"#utility.yul\":25058:25103   */\n      tag_728\n        /* \"#utility.yul\":25078:25102   */\n      tag_729\n        /* \"#utility.yul\":25096:25101   */\n      dup3\n        /* \"#utility.yul\":25078:25102   */\n      tag_384\n      jump\t// in\n    tag_729:\n        /* \"#utility.yul\":25058:25103   */\n      tag_442\n      jump\t// in\n    tag_728:\n        /* \"#utility.yul\":25053:25056   */\n      dup3\n        /* \"#utility.yul\":25046:25104   */\n      mstore\n        /* \"#utility.yul\":24953:25110   */\n      pop\n      pop\n      jump\t// out\n        /* \"#utility.yul\":25116:25264   */\n    tag_444:\n        /* \"#utility.yul\":25218:25229   */\n      0x00\n        /* \"#utility.yul\":25255:25258   */\n      dup2\n        /* \"#utility.yul\":25240:25258   */\n      swap1\n      pop\n        /* \"#utility.yul\":25116:25264   */\n      swap3\n      swap2\n      pop\n      pop\n      jump\t// out\n        /* \"#utility.yul\":25270:25660   */\n    tag_445:\n        /* \"#utility.yul\":25376:25379   */\n      0x00\n        /* \"#utility.yul\":25404:25443   */\n      tag_732\n        /* \"#utility.yul\":25437:25442   */\n      dup3\n        /* \"#utility.yul\":25404:25443   */\n      tag_401\n      jump\t// in\n    tag_732:\n        /* \"#utility.yul\":25459:25548   */\n      tag_733\n        /* \"#utility.yul\":25541:25547   */\n      dup2\n        /* \"#utility.yul\":25536:25539   */\n      dup6\n        /* \"#utility.yul\":25459:25548   */\n      tag_444\n      jump\t// in\n    tag_733:\n        /* \"#utility.yul\":25452:25548   */\n      swap4\n      pop\n        /* \"#utility.yul\":25557:25622   */\n      tag_734\n        /* \"#utility.yul\":25615:25621   */\n      dup2\n        /* \"#utility.yul\":25610:25613   */\n      dup6\n        /* \"#utility.yul\":25603:25607   */\n      0x20\n        /* \"#utility.yul\":25596:25601   */\n      dup7\n        /* \"#utility.yul\":25592:25608   */\n      add\n        /* \"#utility.yul\":25557:25622   */\n      tag_403\n      jump\t// in\n    tag_734:\n        /* \"#utility.yul\":25647:25653   */\n      dup1\n        /* \"#utility.yul\":25642:25645   */\n      dup5\n        /* \"#utility.yul\":25638:25654   */\n      add\n        /* \"#utility.yul\":25631:25654   */\n      swap2\n      pop\n        /* \"#utility.yul\":25380:25660   */\n      pop\n        /* \"#utility.yul\":25270:25660   */\n      swap3\n      swap2\n      pop\n      pop\n      jump\t// out\n        /* \"#utility.yul\":25666:25745   */\n    tag_446:\n        /* \"#utility.yul\":25705:25712   */\n      0x00\n        /* \"#utility.yul\":25734:25739   */\n      dup2\n        /* \"#utility.yul\":25723:25739   */\n      swap1\n      pop\n        /* \"#utility.yul\":25666:25745   */\n      swap2\n      swap1\n      pop\n      jump\t// out\n        /* \"#utility.yul\":25751:25908   */\n    tag_447:\n        /* \"#utility.yul\":25856:25901   */\n      tag_737\n        /* \"#utility.yul\":25876:25900   */\n      tag_738\n        /* \"#utility.yul\":25894:25899   */\n      dup3\n        /* \"#utility.yul\":25876:25900   */\n      tag_399\n      jump\t// in\n    tag_738:\n        /* \"#utility.yul\":25856:25901   */\n      tag_446\n      jump\t// in\n    tag_737:\n        /* \"#utility.yul\":25851:25854   */\n      dup3\n        /* \"#utility.yul\":25844:25902   */\n      mstore\n        /* \"#utility.yul\":25751:25908   */\n      pop\n      pop\n      jump\t// out\n        /* \"#utility.yul\":25914:26612   */\n    tag_100:\n        /* \"#utility.yul\":26130:26133   */\n      0x00\n        /* \"#utility.yul\":26145:26220   */\n      tag_740\n        /* \"#utility.yul\":26216:26219   */\n      dup3\n        /* \"#utility.yul\":26207:26213   */\n      dup8\n        /* \"#utility.yul\":26145:26220   */\n      tag_443\n      jump\t// in\n    tag_740:\n        /* \"#utility.yul\":26245:26247   */\n      0x14\n        /* \"#utility.yul\":26240:26243   */\n      dup3\n        /* \"#utility.yul\":26236:26248   */\n      add\n        /* \"#utility.yul\":26229:26248   */\n      swap2\n      pop\n        /* \"#utility.yul\":26258:26333   */\n      tag_741\n        /* \"#utility.yul\":26329:26332   */\n      dup3\n        /* \"#utility.yul\":26320:26326   */\n      dup7\n        /* \"#utility.yul\":26258:26333   */\n      tag_443\n      jump\t// in\n    tag_741:\n        /* \"#utility.yul\":26358:26360   */\n      0x14\n        /* \"#utility.yul\":26353:26356   */\n      dup3\n        /* \"#utility.yul\":26349:26361   */\n      add\n        /* \"#utility.yul\":26342:26361   */\n      swap2\n      pop\n        /* \"#utility.yul\":26378:26473   */\n      tag_742\n        /* \"#utility.yul\":26469:26472   */\n      dup3\n        /* \"#utility.yul\":26460:26466   */\n      dup6\n        /* \"#utility.yul\":26378:26473   */\n      tag_445\n      jump\t// in\n    tag_742:\n        /* \"#utility.yul\":26371:26473   */\n      swap2\n      pop\n        /* \"#utility.yul\":26483:26558   */\n      tag_743\n        /* \"#utility.yul\":26554:26557   */\n      dup3\n        /* \"#utility.yul\":26545:26551   */\n      dup5\n        /* \"#utility.yul\":26483:26558   */\n      tag_447\n      jump\t// in\n    tag_743:\n        /* \"#utility.yul\":26583:26585   */\n      0x20\n        /* \"#utility.yul\":26578:26581   */\n      dup3\n        /* \"#utility.yul\":26574:26586   */\n      add\n        /* \"#utility.yul\":26567:26586   */\n      swap2\n      pop\n        /* \"#utility.yul\":26603:26606   */\n      dup2\n        /* \"#utility.yul\":26596:26606   */\n      swap1\n      pop\n        /* \"#utility.yul\":25914:26612   */\n      swap6\n      swap5\n      pop\n      pop\n      pop\n      pop\n      pop\n      jump\t// out\n        /* \"#utility.yul\":26618:26759   */\n    tag_448:\n        /* \"#utility.yul\":26667:26671   */\n      0x00\n        /* \"#utility.yul\":26690:26693   */\n      dup2\n        /* \"#utility.yul\":26682:26693   */\n      swap1\n      pop\n        /* \"#utility.yul\":26713:26716   */\n      dup2\n        /* \"#utility.yul\":26710:26711   */\n      0x00\n        /* \"#utility.yul\":26703:26717   */\n      mstore\n        /* \"#utility.yul\":26747:26751   */\n      0x20\n        /* \"#utility.yul\":26744:26745   */\n      0x00\n        /* \"#utility.yul\":26734:26752   */\n      keccak256\n        /* \"#utility.yul\":26726:26752   */\n      swap1\n      pop\n        /* \"#utility.yul\":26618:26759   */\n      swap2\n      swap1\n      pop\n      jump\t// out\n        /* \"#utility.yul\":26765:26858   */\n    tag_449:\n        /* \"#utility.yul\":26802:26808   */\n      0x00\n        /* \"#utility.yul\":26849:26851   */\n      0x20\n        /* \"#utility.yul\":26844:26846   */\n      0x1f\n        /* \"#utility.yul\":26837:26842   */\n      dup4\n        /* \"#utility.yul\":26833:26847   */\n      add\n        /* \"#utility.yul\":26829:26852   */\n      div\n        /* \"#utility.yul\":26819:26852   */\n      swap1\n      pop\n        /* \"#utility.yul\":26765:26858   */\n      swap2\n      swap1\n      pop\n      jump\t// out\n        /* \"#utility.yul\":26864:26971   */\n    tag_450:\n        /* \"#utility.yul\":26908:26916   */\n      0x00\n        /* \"#utility.yul\":26958:26963   */\n      dup3\n        /* \"#utility.yul\":26952:26956   */\n      dup3\n        /* \"#utility.yul\":26948:26964   */\n      shl\n        /* \"#utility.yul\":26927:26964   */\n      swap1\n      pop\n        /* \"#utility.yul\":26864:26971   */\n      swap3\n      swap2\n      pop\n      pop\n      jump\t// out\n        /* \"#utility.yul\":26977:27370   */\n    tag_451:\n        /* \"#utility.yul\":27046:27052   */\n      0x00\n        /* \"#utility.yul\":27096:27097   */\n      0x08\n        /* \"#utility.yul\":27084:27094   */\n      dup4\n        /* \"#utility.yul\":27080:27098   */\n      mul\n        /* \"#utility.yul\":27119:27216   */\n      tag_748\n        /* \"#utility.yul\":27149:27215   */\n      0xffffffffffffffffffffffffffffffffffffffffffffffffffffffffffffffff\n        /* \"#utility.yul\":27138:27147   */\n      dup3\n        /* \"#utility.yul\":27119:27216   */\n      tag_450\n      jump\t// in\n    tag_748:\n        /* \"#utility.yul\":27237:27276   */\n      tag_749\n        /* \"#utility.yul\":27267:27275   */\n      dup7\n        /* \"#utility.yul\":27256:27265   */\n      dup4\n        /* \"#utility.yul\":27237:27276   */\n      tag_450\n      jump\t// in\n    tag_749:\n        /* \"#utility.yul\":27225:27276   */\n      swap6\n      pop\n        /* \"#utility.yul\":27309:27313   */\n      dup1\n        /* \"#utility.yul\":27305:27314   */\n      not\n        /* \"#utility.yul\":27298:27303   */\n      dup5\n        /* \"#utility.yul\":27294:27315   */\n      and\n        /* \"#utility.yul\":27285:27315   */\n      swap4\n      pop\n        /* \"#utility.yul\":27358:27362   */\n      dup1\n        /* \"#utility.yul\":27348:27356   */\n      dup7\n        /* \"#utility.yul\":27344:27363   */\n      and\n        /* \"#utility.yul\":27337:27342   */\n      dup5\n        /* \"#utility.yul\":27334:27364   */\n      or\n        /* \"#utility.yul\":27324:27364   */\n      swap3\n      pop\n        /* \"#utility.yul\":27053:27370   */\n      pop\n      pop\n        /* \"#utility.yul\":26977:27370   */\n      swap4\n      swap3\n      pop\n      pop\n      pop\n      jump\t// out\n        /* \"#utility.yul\":27376:27436   */\n    tag_452:\n        /* \"#utility.yul\":27404:27407   */\n      0x00\n        /* \"#utility.yul\":27425:27430   */\n      dup2\n        /* \"#utility.yul\":27418:27430   */\n      swap1\n      pop\n        /* \"#utility.yul\":27376:27436   */\n      swap2\n      swap1\n      pop\n      jump\t// out\n        /* \"#utility.yul\":27442:27584   */\n    tag_453:\n        /* \"#utility.yul\":27492:27501   */\n      0x00\n        /* \"#utility.yul\":27525:27578   */\n      tag_752\n        /* \"#utility.yul\":27543:27577   */\n      tag_753\n        /* \"#utility.yul\":27552:27576   */\n      tag_754\n        /* \"#utility.yul\":27570:27575   */\n      dup5\n        /* \"#utility.yul\":27552:27576   */\n      tag_399\n      jump\t// in\n    tag_754:\n        /* \"#utility.yul\":27543:27577   */\n      tag_452\n      jump\t// in\n    tag_753:\n        /* \"#utility.yul\":27525:27578   */\n      tag_399\n      jump\t// in\n    tag_752:\n        /* \"#utility.yul\":27512:27578   */\n      swap1\n      pop\n        /* \"#utility.yul\":27442:27584   */\n      swap2\n      swap1\n      pop\n      jump\t// out\n        /* \"#utility.yul\":27590:27665   */\n    tag_454:\n        /* \"#utility.yul\":27633:27636   */\n      0x00\n        /* \"#utility.yul\":27654:27659   */\n      dup2\n        /* \"#utility.yul\":27647:27659   */\n      swap1\n      pop\n        /* \"#utility.yul\":27590:27665   */\n      swap2\n      swap1\n      pop\n      jump\t// out\n        /* \"#utility.yul\":27671:27940   */\n    tag_455:\n        /* \"#utility.yul\":27781:27820   */\n      tag_757\n        /* \"#utility.yul\":27812:27819   */\n      dup4\n        /* \"#utility.yul\":27781:27820   */\n      tag_453\n      jump\t// in\n    tag_757:\n        /* \"#utility.yul\":27842:27933   */\n      tag_758\n        /* \"#utility.yul\":27891:27932   */\n      tag_759\n        /* \"#utility.yul\":27915:27931   */\n      dup3\n        /* \"#utility.yul\":27891:27932   */\n      tag_454\n      jump\t// in\n    tag_759:\n        /* \"#utility.yul\":27883:27889   */\n      dup5\n        /* \"#utility.yul\":27876:27880   */\n      dup5\n        /* \"#utility.yul\":27870:27881   */\n      sload\n        /* \"#utility.yul\":27842:27933   */\n      tag_451\n      jump\t// in\n    tag_758:\n        /* \"#utility.yul\":27836:27840   */\n      dup3\n        /* \"#utility.yul\":27829:27934   */\n      sstore\n        /* \"#utility.yul\":27747:27940   */\n      pop\n        /* \"#utility.yul\":27671:27940   */\n      pop\n      pop\n      pop\n      jump\t// out\n        /* \"#utility.yul\":27946:28019   */\n    tag_456:\n        /* \"#utility.yul\":27991:27994   */\n      0x00\n        /* \"#utility.yul\":27946:28019   */\n      swap1\n      jump\t// out\n        /* \"#utility.yul\":28025:28214   */\n    tag_457:\n        /* \"#utility.yul\":28102:28134   */\n      tag_762\n      tag_456\n      jump\t// in\n    tag_762:\n        /* \"#utility.yul\":28143:28208   */\n      tag_763\n        /* \"#utility.yul\":28201:28207   */\n      dup2\n        /* \"#utility.yul\":28193:28199   */\n      dup5\n        /* \"#utility.yul\":28187:28191   */\n      dup5\n        /* \"#utility.yul\":28143:28208   */\n      tag_455\n      jump\t// in\n    tag_763:\n        /* \"#utility.yul\":28078:28214   */\n      pop\n        /* \"#utility.yul\":28025:28214   */\n      pop\n      pop\n      jump\t// out\n        /* \"#utility.yul\":28220:28406   */\n    tag_458:\n        /* \"#utility.yul\":28280:28400   */\n    tag_765:\n        /* \"#utility.yul\":28297:28300   */\n      dup2\n        /* \"#utility.yul\":28290:28295   */\n      dup2\n        /* \"#utility.yul\":28287:28301   */\n      lt\n        /* \"#utility.yul\":28280:28400   */\n      iszero\n      tag_767\n      jumpi\n        /* \"#utility.yul\":28351:28390   */\n      tag_768\n        /* \"#utility.yul\":28388:28389   */\n      0x00\n        /* \"#utility.yul\":28381:28386   */\n      dup3\n        /* \"#utility.yul\":28351:28390   */\n      tag_457\n      jump\t// in\n    tag_768:\n        /* \"#utility.yul\":28324:28325   */\n      0x01\n        /* \"#utility.yul\":28317:28322   */\n      dup2\n        /* \"#utility.yul\":28313:28326   */\n      add\n        /* \"#utility.yul\":28304:28326   */\n      swap1\n      pop\n        /* \"#utility.yul\":28280:28400   */\n      jump(tag_765)\n    tag_767:\n        /* \"#utility.yul\":28220:28406   */\n      pop\n      pop\n      jump\t// out\n        /* \"#utility.yul\":28412:28955   */\n    tag_459:\n        /* \"#utility.yul\":28513:28515   */\n      0x1f\n        /* \"#utility.yul\":28508:28511   */\n      dup3\n        /* \"#utility.yul\":28505:28516   */\n      gt\n        /* \"#utility.yul\":28502:28948   */\n      iszero\n      tag_770\n      jumpi\n        /* \"#utility.yul\":28547:28585   */\n      tag_771\n        /* \"#utility.yul\":28579:28584   */\n      dup2\n        /* \"#utility.yul\":28547:28585   */\n      tag_448\n      jump\t// in\n    tag_771:\n        /* \"#utility.yul\":28631:28660   */\n      tag_772\n        /* \"#utility.yul\":28649:28659   */\n      dup5\n        /* \"#utility.yul\":28631:28660   */\n      tag_449\n      jump\t// in\n    tag_772:\n        /* \"#utility.yul\":28621:28629   */\n      dup2\n        /* \"#utility.yul\":28617:28661   */\n      add\n        /* \"#utility.yul\":28814:28816   */\n      0x20\n        /* \"#utility.yul\":28802:28812   */\n      dup6\n        /* \"#utility.yul\":28799:28817   */\n      lt\n        /* \"#utility.yul\":28796:28845   */\n      iszero\n      tag_773\n      jumpi\n        /* \"#utility.yul\":28835:28843   */\n      dup2\n        /* \"#utility.yul\":28820:28843   */\n      swap1\n      pop\n        /* \"#utility.yul\":28796:28845   */\n    tag_773:\n        /* \"#utility.yul\":28858:28938   */\n      tag_774\n        /* \"#utility.yul\":28914:28936   */\n      tag_775\n        /* \"#utility.yul\":28932:28935   */\n      dup6\n        /* \"#utility.yul\":28914:28936   */\n      tag_449\n      jump\t// in\n    tag_775:\n        /* \"#utility.yul\":28904:28912   */\n      dup4\n        /* \"#utility.yul\":28900:28937   */\n      add\n        /* \"#utility.yul\":28887:28898   */\n      dup3\n        /* \"#utility.yul\":28858:28938   */\n      tag_458\n      jump\t// in\n    tag_774:\n        /* \"#utility.yul\":28517:28948   */\n      pop\n      pop\n        /* \"#utility.yul\":28502:28948   */\n    tag_770:\n        /* \"#utility.yul\":28412:28955   */\n      pop\n      pop\n      pop\n      jump\t// out\n        /* \"#utility.yul\":28961:29078   */\n    tag_460:\n        /* \"#utility.yul\":29015:29023   */\n      0x00\n        /* \"#utility.yul\":29065:29070   */\n      dup3\n        /* \"#utility.yul\":29059:29063   */\n      dup3\n        /* \"#utility.yul\":29055:29071   */\n      shr\n        /* \"#utility.yul\":29034:29071   */\n      swap1\n      pop\n        /* \"#utility.yul\":28961:29078   */\n      swap3\n      swap2\n      pop\n      pop\n      jump\t// out\n        /* \"#utility.yul\":29084:29253   */\n    tag_461:\n        /* \"#utility.yul\":29128:29134   */\n      0x00\n        /* \"#utility.yul\":29161:29212   */\n      tag_778\n        /* \"#utility.yul\":29209:29210   */\n      0x00\n        /* \"#utility.yul\":29205:29211   */\n      not\n        /* \"#utility.yul\":29197:29202   */\n      dup5\n        /* \"#utility.yul\":29194:29195   */\n      0x08\n        /* \"#utility.yul\":29190:29203   */\n      mul\n        /* \"#utility.yul\":29161:29212   */\n      tag_460\n      jump\t// in\n    tag_778:\n        /* \"#utility.yul\":29157:29213   */\n      not\n        /* \"#utility.yul\":29242:29246   */\n      dup1\n        /* \"#utility.yul\":29236:29240   */\n      dup4\n        /* \"#utility.yul\":29232:29247   */\n      and\n        /* \"#utility.yul\":29222:29247   */\n      swap2\n      pop\n        /* \"#utility.yul\":29135:29253   */\n      pop\n        /* \"#utility.yul\":29084:29253   */\n      swap3\n      swap2\n      pop\n      pop\n      jump\t// out\n        /* \"#utility.yul\":29258:29553   */\n    tag_462:\n        /* \"#utility.yul\":29334:29338   */\n      0x00\n        /* \"#utility.yul\":29480:29509   */\n      tag_780\n        /* \"#utility.yul\":29505:29508   */\n      dup4\n        /* \"#utility.yul\":29499:29503   */\n      dup4\n        /* \"#utility.yul\":29480:29509   */\n      tag_461\n      jump\t// in\n    tag_780:\n        /* \"#utility.yul\":29472:29509   */\n      swap2\n      pop\n        /* \"#utility.yul\":29542:29545   */\n      dup3\n        /* \"#utility.yul\":29539:29540   */\n      0x02\n        /* \"#utility.yul\":29535:29546   */\n      mul\n        /* \"#utility.yul\":29529:29533   */\n      dup3\n        /* \"#utility.yul\":29526:29547   */\n      or\n        /* \"#utility.yul\":29518:29547   */\n      swap1\n      pop\n        /* \"#utility.yul\":29258:29553   */\n      swap3\n      swap2\n      pop\n      pop\n      jump\t// out\n        /* \"#utility.yul\":29558:30953   */\n    tag_103:\n        /* \"#utility.yul\":29675:29712   */\n      tag_782\n        /* \"#utility.yul\":29708:29711   */\n      dup3\n        /* \"#utility.yul\":29675:29712   */\n      tag_401\n      jump\t// in\n    tag_782:\n        /* \"#utility.yul\":29777:29795   */\n      0xffffffffffffffff\n        /* \"#utility.yul\":29769:29775   */\n      dup2\n        /* \"#utility.yul\":29766:29796   */\n      gt\n        /* \"#utility.yul\":29763:29819   */\n      iszero\n      tag_783\n      jumpi\n        /* \"#utility.yul\":29799:29817   */\n      tag_784\n      tag_121\n      jump\t// in\n    tag_784:\n        /* \"#utility.yul\":29763:29819   */\n    tag_783:\n        /* \"#utility.yul\":29843:29881   */\n      tag_785\n        /* \"#utility.yul\":29875:29879   */\n      dup3\n        /* \"#utility.yul\":29869:29880   */\n      sload\n        /* \"#utility.yul\":29843:29881   */\n      tag_130\n      jump\t// in\n    tag_785:\n        /* \"#utility.yul\":29928:29995   */\n      tag_786\n        /* \"#utility.yul\":29988:29994   */\n      dup3\n        /* \"#utility.yul\":29980:29986   */\n      dup3\n        /* \"#utility.yul\":29974:29978   */\n      dup6\n        /* \"#utility.yul\":29928:29995   */\n      tag_459\n      jump\t// in\n    tag_786:\n        /* \"#utility.yul\":30022:30023   */\n      0x00\n        /* \"#utility.yul\":30046:30050   */\n      0x20\n        /* \"#utility.yul\":30033:30050   */\n      swap1\n      pop\n        /* \"#utility.yul\":30078:30080   */\n      0x1f\n        /* \"#utility.yul\":30070:30076   */\n      dup4\n        /* \"#utility.yul\":30067:30081   */\n      gt\n        /* \"#utility.yul\":30095:30096   */\n      0x01\n        /* \"#utility.yul\":30090:30708   */\n      dup2\n      eq\n      tag_788\n      jumpi\n        /* \"#utility.yul\":30752:30753   */\n      0x00\n        /* \"#utility.yul\":30769:30775   */\n      dup5\n        /* \"#utility.yul\":30766:30843   */\n      iszero\n      tag_789\n      jumpi\n        /* \"#utility.yul\":30818:30827   */\n      dup3\n        /* \"#utility.yul\":30813:30816   */\n      dup8\n        /* \"#utility.yul\":30809:30828   */\n      add\n        /* \"#utility.yul\":30803:30829   */\n      mload\n        /* \"#utility.yul\":30794:30829   */\n      swap1\n      pop\n        /* \"#utility.yul\":30766:30843   */\n    tag_789:\n        /* \"#utility.yul\":30869:30936   */\n      tag_790\n        /* \"#utility.yul\":30929:30935   */\n      dup6\n        /* \"#utility.yul\":30922:30927   */\n      dup3\n        /* \"#utility.yul\":30869:30936   */\n      tag_462\n      jump\t// in\n    tag_790:\n        /* \"#utility.yul\":30863:30867   */\n      dup7\n        /* \"#utility.yul\":30856:30937   */\n      sstore\n        /* \"#utility.yul\":30725:30947   */\n      pop\n        /* \"#utility.yul\":30060:30947   */\n      jump(tag_787)\n        /* \"#utility.yul\":30090:30708   */\n    tag_788:\n        /* \"#utility.yul\":30142:30146   */\n      0x1f\n        /* \"#utility.yul\":30138:30147   */\n      not\n        /* \"#utility.yul\":30130:30136   */\n      dup5\n        /* \"#utility.yul\":30126:30148   */\n      and\n        /* \"#utility.yul\":30176:30213   */\n      tag_791\n        /* \"#utility.yul\":30208:30212   */\n      dup7\n        /* \"#utility.yul\":30176:30213   */\n      tag_448\n      jump\t// in\n    tag_791:\n        /* \"#utility.yul\":30235:30236   */\n      0x00\n        /* \"#utility.yul\":30249:30457   */\n    tag_792:\n        /* \"#utility.yul\":30263:30270   */\n      dup3\n        /* \"#utility.yul\":30260:30261   */\n      dup2\n        /* \"#utility.yul\":30257:30271   */\n      lt\n        /* \"#utility.yul\":30249:30457   */\n      iszero\n      tag_794\n      jumpi\n        /* \"#utility.yul\":30342:30351   */\n      dup5\n        /* \"#utility.yul\":30337:30340   */\n      dup10\n        /* \"#utility.yul\":30333:30352   */\n      add\n        /* \"#utility.yul\":30327:30353   */\n      mload\n        /* \"#utility.yul\":30319:30325   */\n      dup3\n        /* \"#utility.yul\":30312:30354   */\n      sstore\n        /* \"#utility.yul\":30393:30394   */\n      0x01\n        /* \"#utility.yul\":30385:30391   */\n      dup3\n        /* \"#utility.yul\":30381:30395   */\n      add\n        /* \"#utility.yul\":30371:30395   */\n      swap2\n      pop\n        /* \"#utility.yul\":30440:30442   */\n      0x20\n        /* \"#utility.yul\":30429:30438   */\n      dup6\n        /* \"#utility.yul\":30425:30443   */\n      add\n        /* \"#utility.yul\":30412:30443   */\n      swap5\n      pop\n        /* \"#utility.yul\":30286:30290   */\n      0x20\n        /* \"#utility.yul\":30283:30284   */\n      dup2\n        /* \"#utility.yul\":30279:30291   */\n      add\n        /* \"#utility.yul\":30274:30291   */\n      swap1\n      pop\n        /* \"#utility.yul\":30249:30457   */\n      jump(tag_792)\n    tag_794:\n        /* \"#utility.yul\":30485:30491   */\n      dup7\n        /* \"#utility.yul\":30476:30483   */\n      dup4\n        /* \"#utility.yul\":30473:30492   */\n      lt\n        /* \"#utility.yul\":30470:30649   */\n      iszero\n      tag_795\n      jumpi\n        /* \"#utility.yul\":30543:30552   */\n      dup5\n        /* \"#utility.yul\":30538:30541   */\n      dup10\n        /* \"#utility.yul\":30534:30553   */\n      add\n        /* \"#utility.yul\":30528:30554   */\n      mload\n        /* \"#utility.yul\":30586:30634   */\n      tag_796\n        /* \"#utility.yul\":30628:30632   */\n      0x1f\n        /* \"#utility.yul\":30620:30626   */\n      dup10\n        /* \"#utility.yul\":30616:30633   */\n      and\n        /* \"#utility.yul\":30605:30614   */\n      dup3\n        /* \"#utility.yul\":30586:30634   */\n      tag_461\n      jump\t// in\n    tag_796:\n        /* \"#utility.yul\":30578:30584   */\n      dup4\n        /* \"#utility.yul\":30571:30635   */\n      sstore\n        /* \"#utility.yul\":30493:30649   */\n      pop\n        /* \"#utility.yul\":30470:30649   */\n    tag_795:\n        /* \"#utility.yul\":30695:30696   */\n      0x01\n        /* \"#utility.yul\":30691:30692   */\n      0x02\n        /* \"#utility.yul\":30683:30689   */\n      dup9\n        /* \"#utility.yul\":30679:30693   */\n      mul\n        /* \"#utility.yul\":30675:30697   */\n      add\n        /* \"#utility.yul\":30669:30673   */\n      dup9\n        /* \"#utility.yul\":30662:30698   */\n      sstore\n        /* \"#utility.yul\":30097:30708   */\n      pop\n      pop\n      pop\n        /* \"#utility.yul\":30060:30947   */\n    tag_787:\n      pop\n        /* \"#utility.yul\":29650:30953   */\n      pop\n      pop\n      pop\n        /* \"#utility.yul\":29558:30953   */\n      pop\n      pop\n      jump\t// out\n        /* \"#utility.yul\":30959:31077   */\n    tag_463:\n        /* \"#utility.yul\":31046:31070   */\n      tag_798\n        /* \"#utility.yul\":31064:31069   */\n      dup2\n        /* \"#utility.yul\":31046:31070   */\n      tag_384\n      jump\t// in\n    tag_798:\n        /* \"#utility.yul\":31041:31044   */\n      dup3\n        /* \"#utility.yul\":31034:31071   */\n      mstore\n        /* \"#utility.yul\":30959:31077   */\n      pop\n      pop\n      jump\t// out\n        /* \"#utility.yul\":31083:31160   */\n    tag_464:\n        /* \"#utility.yul\":31120:31127   */\n      0x00\n        /* \"#utility.yul\":31149:31154   */\n      dup2\n        /* \"#utility.yul\":31138:31154   */\n      swap1\n      pop\n        /* \"#utility.yul\":31083:31160   */\n      swap2\n      swap1\n      pop\n      jump\t// out\n        /* \"#utility.yul\":31166:31284   */\n    tag_465:\n        /* \"#utility.yul\":31253:31277   */\n      tag_801\n        /* \"#utility.yul\":31271:31276   */\n      dup2\n        /* \"#utility.yul\":31253:31277   */\n      tag_464\n      jump\t// in\n    tag_801:\n        /* \"#utility.yul\":31248:31251   */\n      dup3\n        /* \"#utility.yul\":31241:31278   */\n      mstore\n        /* \"#utility.yul\":31166:31284   */\n      pop\n      pop\n      jump\t// out\n        /* \"#utility.yul\":31290:31823   */\n    tag_108:\n        /* \"#utility.yul\":31459:31463   */\n      0x00\n        /* \"#utility.yul\":31497:31499   */\n      0x60\n        /* \"#utility.yul\":31486:31495   */\n      dup3\n        /* \"#utility.yul\":31482:31500   */\n      add\n        /* \"#utility.yul\":31474:31500   */\n      swap1\n      pop\n        /* \"#utility.yul\":31510:31581   */\n      tag_803\n        /* \"#utility.yul\":31578:31579   */\n      0x00\n        /* \"#utility.yul\":31567:31576   */\n      dup4\n        /* \"#utility.yul\":31563:31580   */\n      add\n        /* \"#utility.yul\":31554:31560   */\n      dup7\n        /* \"#utility.yul\":31510:31581   */\n      tag_463\n      jump\t// in\n    tag_803:\n        /* \"#utility.yul\":31628:31637   */\n      dup2\n        /* \"#utility.yul\":31622:31626   */\n      dup2\n        /* \"#utility.yul\":31618:31638   */\n      sub\n        /* \"#utility.yul\":31613:31615   */\n      0x20\n        /* \"#utility.yul\":31602:31611   */\n      dup4\n        /* \"#utility.yul\":31598:31616   */\n      add\n        /* \"#utility.yul\":31591:31639   */\n      mstore\n        /* \"#utility.yul\":31656:31734   */\n      tag_804\n        /* \"#utility.yul\":31729:31733   */\n      dup2\n        /* \"#utility.yul\":31720:31726   */\n      dup6\n        /* \"#utility.yul\":31656:31734   */\n      tag_423\n      jump\t// in\n    tag_804:\n        /* \"#utility.yul\":31648:31734   */\n      swap1\n      pop\n        /* \"#utility.yul\":31744:31816   */\n      tag_805\n        /* \"#utility.yul\":31812:31814   */\n      0x40\n        /* \"#utility.yul\":31801:31810   */\n      dup4\n        /* \"#utility.yul\":31797:31815   */\n      add\n        /* \"#utility.yul\":31788:31794   */\n      dup5\n        /* \"#utility.yul\":31744:31816   */\n      tag_465\n      jump\t// in\n    tag_805:\n        /* \"#utility.yul\":31290:31823   */\n      swap5\n      swap4\n      pop\n      pop\n      pop\n      pop\n      jump\t// out\n        /* \"#utility.yul\":31829:32006   */\n    tag_466:\n        /* \"#utility.yul\":31969:31998   */\n      0x4e6f207461736b732068617665206265656e2061737369676e65640000000000\n        /* \"#utility.yul\":31965:31966   */\n      0x00\n        /* \"#utility.yul\":31957:31963   */\n      dup3\n        /* \"#utility.yul\":31953:31967   */\n      add\n        /* \"#utility.yul\":31946:31999   */\n      mstore\n        /* \"#utility.yul\":31829:32006   */\n      pop\n      jump\t// out\n        /* \"#utility.yul\":32012:32378   */\n    tag_467:\n        /* \"#utility.yul\":32154:32157   */\n      0x00\n        /* \"#utility.yul\":32175:32242   */\n      tag_808\n        /* \"#utility.yul\":32239:32241   */\n      0x1b\n        /* \"#utility.yul\":32234:32237   */\n      dup4\n        /* \"#utility.yul\":32175:32242   */\n      tag_422\n      jump\t// in\n    tag_808:\n        /* \"#utility.yul\":32168:32242   */\n      swap2\n      pop\n        /* \"#utility.yul\":32251:32344   */\n      tag_809\n        /* \"#utility.yul\":32340:32343   */\n      dup3\n        /* \"#utility.yul\":32251:32344   */\n      tag_466\n      jump\t// in\n    tag_809:\n        /* \"#utility.yul\":32369:32371   */\n      0x20\n        /* \"#utility.yul\":32364:32367   */\n      dup3\n        /* \"#utility.yul\":32360:32372   */\n      add\n        /* \"#utility.yul\":32353:32372   */\n      swap1\n      pop\n        /* \"#utility.yul\":32012:32378   */\n      swap2\n      swap1\n      pop\n      jump\t// out\n        /* \"#utility.yul\":32384:32803   */\n    tag_118:\n        /* \"#utility.yul\":32550:32554   */\n      0x00\n        /* \"#utility.yul\":32588:32590   */\n      0x20\n        /* \"#utility.yul\":32577:32586   */\n      dup3\n        /* \"#utility.yul\":32573:32591   */\n      add\n        /* \"#utility.yul\":32565:32591   */\n      swap1\n      pop\n        /* \"#utility.yul\":32637:32646   */\n      dup2\n        /* \"#utility.yul\":32631:32635   */\n      dup2\n        /* \"#utility.yul\":32627:32647   */\n      sub\n        /* \"#utility.yul\":32623:32624   */\n      0x00\n        /* \"#utility.yul\":32612:32621   */\n      dup4\n        /* \"#utility.yul\":32608:32625   */\n      add\n        /* \"#utility.yul\":32601:32648   */\n      mstore\n        /* \"#utility.yul\":32665:32796   */\n      tag_811\n        /* \"#utility.yul\":32791:32795   */\n      dup2\n        /* \"#utility.yul\":32665:32796   */\n      tag_467\n      jump\t// in\n    tag_811:\n        /* \"#utility.yul\":32657:32796   */\n      swap1\n      pop\n        /* \"#utility.yul\":32384:32803   */\n      swap2\n      swap1\n      pop\n      jump\t// out\n        /* \"#utility.yul\":32809:32989   */\n    tag_147:\n        /* \"#utility.yul\":32857:32934   */\n      0x4e487b7100000000000000000000000000000000000000000000000000000000\n        /* \"#utility.yul\":32854:32855   */\n      0x00\n        /* \"#utility.yul\":32847:32935   */\n      mstore\n        /* \"#utility.yul\":32954:32958   */\n      0x32\n        /* \"#utility.yul\":32951:32952   */\n      0x04\n        /* \"#utility.yul\":32944:32959   */\n      mstore\n        /* \"#utility.yul\":32978:32982   */\n      0x24\n        /* \"#utility.yul\":32975:32976   */\n      0x00\n        /* \"#utility.yul\":32968:32983   */\n      revert\n        /* \"#utility.yul\":32995:33159   */\n    tag_468:\n        /* \"#utility.yul\":33135:33151   */\n      0x5461736b206e6f7420666f756e64000000000000000000000000000000000000\n        /* \"#utility.yul\":33131:33132   */\n      0x00\n        /* \"#utility.yul\":33123:33129   */\n      dup3\n        /* \"#utility.yul\":33119:33133   */\n      add\n        /* \"#utility.yul\":33112:33152   */\n      mstore\n        /* \"#utility.yul\":32995:33159   */\n      pop\n      jump\t// out\n        /* \"#utility.yul\":33165:33531   */\n    tag_469:\n        /* \"#utility.yul\":33307:33310   */\n      0x00\n        /* \"#utility.yul\":33328:33395   */\n      tag_815\n        /* \"#utility.yul\":33392:33394   */\n      0x0e\n        /* \"#utility.yul\":33387:33390   */\n      dup4\n        /* \"#utility.yul\":33328:33395   */\n      tag_422\n      jump\t// in\n    tag_815:\n        /* \"#utility.yul\":33321:33395   */\n      swap2\n      pop\n        /* \"#utility.yul\":33404:33497   */\n      tag_816\n        /* \"#utility.yul\":33493:33496   */\n      dup3\n        /* \"#utility.yul\":33404:33497   */\n      tag_468\n      jump\t// in\n    tag_816:\n        /* \"#utility.yul\":33522:33524   */\n      0x20\n        /* \"#utility.yul\":33517:33520   */\n      dup3\n        /* \"#utility.yul\":33513:33525   */\n      add\n        /* \"#utility.yul\":33506:33525   */\n      swap1\n      pop\n        /* \"#utility.yul\":33165:33531   */\n      swap2\n      swap1\n      pop\n      jump\t// out\n        /* \"#utility.yul\":33537:33956   */\n    tag_153:\n        /* \"#utility.yul\":33703:33707   */\n      0x00\n        /* \"#utility.yul\":33741:33743   */\n      0x20\n        /* \"#utility.yul\":33730:33739   */\n      dup3\n        /* \"#utility.yul\":33726:33744   */\n      add\n        /* \"#utility.yul\":33718:33744   */\n      swap1\n      pop\n        /* \"#utility.yul\":33790:33799   */\n      dup2\n        /* \"#utility.yul\":33784:33788   */\n      dup2\n        /* \"#utility.yul\":33780:33800   */\n      sub\n        /* \"#utility.yul\":33776:33777   */\n      0x00\n        /* \"#utility.yul\":33765:33774   */\n      dup4\n        /* \"#utility.yul\":33761:33778   */\n      add\n        /* \"#utility.yul\":33754:33801   */\n      mstore\n        /* \"#utility.yul\":33818:33949   */\n      tag_818\n        /* \"#utility.yul\":33944:33948   */\n      dup2\n        /* \"#utility.yul\":33818:33949   */\n      tag_469\n      jump\t// in\n    tag_818:\n        /* \"#utility.yul\":33810:33949   */\n      swap1\n      pop\n        /* \"#utility.yul\":33537:33956   */\n      swap2\n      swap1\n      pop\n      jump\t// out\n        /* \"#utility.yul\":33962:34282   */\n    tag_161:\n        /* \"#utility.yul\":34077:34081   */\n      0x00\n        /* \"#utility.yul\":34115:34117   */\n      0x40\n        /* \"#utility.yul\":34104:34113   */\n      dup3\n        /* \"#utility.yul\":34100:34118   */\n      add\n        /* \"#utility.yul\":34092:34118   */\n      swap1\n      pop\n        /* \"#utility.yul\":34128:34199   */\n      tag_820\n        /* \"#utility.yul\":34196:34197   */\n      0x00\n        /* \"#utility.yul\":34185:34194   */\n      dup4\n        /* \"#utility.yul\":34181:34198   */\n      add\n        /* \"#utility.yul\":34172:34178   */\n      dup6\n        /* \"#utility.yul\":34128:34199   */\n      tag_463\n      jump\t// in\n    tag_820:\n        /* \"#utility.yul\":34209:34275   */\n      tag_821\n        /* \"#utility.yul\":34271:34273   */\n      0x20\n        /* \"#utility.yul\":34260:34269   */\n      dup4\n        /* \"#utility.yul\":34256:34274   */\n      add\n        /* \"#utility.yul\":34247:34253   */\n      dup5\n        /* \"#utility.yul\":34209:34275   */\n      tag_418\n      jump\t// in\n    tag_821:\n        /* \"#utility.yul\":33962:34282   */\n      swap4\n      swap3\n      pop\n      pop\n      pop\n      jump\t// out\n        /* \"#utility.yul\":34288:34468   */\n    tag_470:\n        /* \"#utility.yul\":34428:34460   */\n      0x4e6577206964656e7469666965722063616e6e6f7420626520656d7074790000\n        /* \"#utility.yul\":34424:34425   */\n      0x00\n        /* \"#utility.yul\":34416:34422   */\n      dup3\n        /* \"#utility.yul\":34412:34426   */\n      add\n        /* \"#utility.yul\":34405:34461   */\n      mstore\n        /* \"#utility.yul\":34288:34468   */\n      pop\n      jump\t// out\n        /* \"#utility.yul\":34474:34840   */\n    tag_471:\n        /* \"#utility.yul\":34616:34619   */\n      0x00\n        /* \"#utility.yul\":34637:34704   */\n      tag_824\n        /* \"#utility.yul\":34701:34703   */\n      0x1e\n        /* \"#utility.yul\":34696:34699   */\n      dup4\n        /* \"#utility.yul\":34637:34704   */\n      tag_422\n      jump\t// in\n    tag_824:\n        /* \"#utility.yul\":34630:34704   */\n      swap2\n      pop\n        /* \"#utility.yul\":34713:34806   */\n      tag_825\n        /* \"#utility.yul\":34802:34805   */\n      dup3\n        /* \"#utility.yul\":34713:34806   */\n      tag_470\n      jump\t// in\n    tag_825:\n        /* \"#utility.yul\":34831:34833   */\n      0x20\n        /* \"#utility.yul\":34826:34829   */\n      dup3\n        /* \"#utility.yul\":34822:34834   */\n      add\n        /* \"#utility.yul\":34815:34834   */\n      swap1\n      pop\n        /* \"#utility.yul\":34474:34840   */\n      swap2\n      swap1\n      pop\n      jump\t// out\n        /* \"#utility.yul\":34846:35265   */\n    tag_165:\n        /* \"#utility.yul\":35012:35016   */\n      0x00\n        /* \"#utility.yul\":35050:35052   */\n      0x20\n        /* \"#utility.yul\":35039:35048   */\n      dup3\n        /* \"#utility.yul\":35035:35053   */\n      add\n        /* \"#utility.yul\":35027:35053   */\n      swap1\n      pop\n        /* \"#utility.yul\":35099:35108   */\n      dup2\n        /* \"#utility.yul\":35093:35097   */\n      dup2\n        /* \"#utility.yul\":35089:35109   */\n      sub\n        /* \"#utility.yul\":35085:35086   */\n      0x00\n        /* \"#utility.yul\":35074:35083   */\n      dup4\n        /* \"#utility.yul\":35070:35087   */\n      add\n        /* \"#utility.yul\":35063:35110   */\n      mstore\n        /* \"#utility.yul\":35127:35258   */\n      tag_827\n        /* \"#utility.yul\":35253:35257   */\n      dup2\n        /* \"#utility.yul\":35127:35258   */\n      tag_471\n      jump\t// in\n    tag_827:\n        /* \"#utility.yul\":35119:35258   */\n      swap1\n      pop\n        /* \"#utility.yul\":34846:35265   */\n      swap2\n      swap1\n      pop\n      jump\t// out\n        /* \"#utility.yul\":35271:35443   */\n    tag_472:\n        /* \"#utility.yul\":35411:35435   */\n      0x496e76616c6964206e6577206964656e74696669657200000000000000000000\n        /* \"#utility.yul\":35407:35408   */\n      0x00\n        /* \"#utility.yul\":35399:35405   */\n      dup3\n        /* \"#utility.yul\":35395:35409   */\n      add\n        /* \"#utility.yul\":35388:35436   */\n      mstore\n        /* \"#utility.yul\":35271:35443   */\n      pop\n      jump\t// out\n        /* \"#utility.yul\":35449:35815   */\n    tag_473:\n        /* \"#utility.yul\":35591:35594   */\n      0x00\n        /* \"#utility.yul\":35612:35679   */\n      tag_830\n        /* \"#utility.yul\":35676:35678   */\n      0x16\n        /* \"#utility.yul\":35671:35674   */\n      dup4\n        /* \"#utility.yul\":35612:35679   */\n      tag_422\n      jump\t// in\n    tag_830:\n        /* \"#utility.yul\":35605:35679   */\n      swap2\n      pop\n        /* \"#utility.yul\":35688:35781   */\n      tag_831\n        /* \"#utility.yul\":35777:35780   */\n      dup3\n        /* \"#utility.yul\":35688:35781   */\n      tag_472\n      jump\t// in\n    tag_831:\n        /* \"#utility.yul\":35806:35808   */\n      0x20\n        /* \"#utility.yul\":35801:35804   */\n      dup3\n        /* \"#utility.yul\":35797:35809   */\n      add\n        /* \"#utility.yul\":35790:35809   */\n      swap1\n      pop\n        /* \"#utility.yul\":35449:35815   */\n      swap2\n      swap1\n      pop\n      jump\t// out\n        /* \"#utility.yul\":35821:36240   */\n    tag_171:\n        /* \"#utility.yul\":35987:35991   */\n      0x00\n        /* \"#utility.yul\":36025:36027   */\n      0x20\n        /* \"#utility.yul\":36014:36023   */\n      dup3\n        /* \"#utility.yul\":36010:36028   */\n      add\n        /* \"#utility.yul\":36002:36028   */\n      swap1\n      pop\n        /* \"#utility.yul\":36074:36083   */\n      dup2\n        /* \"#utility.yul\":36068:36072   */\n      dup2\n        /* \"#utility.yul\":36064:36084   */\n      sub\n        /* \"#utility.yul\":36060:36061   */\n      0x00\n        /* \"#utility.yul\":36049:36058   */\n      dup4\n        /* \"#utility.yul\":36045:36062   */\n      add\n        /* \"#utility.yul\":36038:36085   */\n      mstore\n        /* \"#utility.yul\":36102:36233   */\n      tag_833\n        /* \"#utility.yul\":36228:36232   */\n      dup2\n        /* \"#utility.yul\":36102:36233   */\n      tag_473\n      jump\t// in\n    tag_833:\n        /* \"#utility.yul\":36094:36233   */\n      swap1\n      pop\n        /* \"#utility.yul\":35821:36240   */\n      swap2\n      swap1\n      pop\n      jump\t// out\n        /* \"#utility.yul\":36246:36410   */\n    tag_474:\n        /* \"#utility.yul\":36386:36402   */\n      0x4e6f7420617574686f72697a6564000000000000000000000000000000000000\n        /* \"#utility.yul\":36382:36383   */\n      0x00\n        /* \"#utility.yul\":36374:36380   */\n      dup3\n        /* \"#utility.yul\":36370:36384   */\n      add\n        /* \"#utility.yul\":36363:36403   */\n      mstore\n        /* \"#utility.yul\":36246:36410   */\n      pop\n      jump\t// out\n        /* \"#utility.yul\":36416:36782   */\n    tag_475:\n        /* \"#utility.yul\":36558:36561   */\n      0x00\n        /* \"#utility.yul\":36579:36646   */\n      tag_836\n        /* \"#utility.yul\":36643:36645   */\n      0x0e\n        /* \"#utility.yul\":36638:36641   */\n      dup4\n        /* \"#utility.yul\":36579:36646   */\n      tag_422\n      jump\t// in\n    tag_836:\n        /* \"#utility.yul\":36572:36646   */\n      swap2\n      pop\n        /* \"#utility.yul\":36655:36748   */\n      tag_837\n        /* \"#utility.yul\":36744:36747   */\n      dup3\n        /* \"#utility.yul\":36655:36748   */\n      tag_474\n      jump\t// in\n    tag_837:\n        /* \"#utility.yul\":36773:36775   */\n      0x20\n        /* \"#utility.yul\":36768:36771   */\n      dup3\n        /* \"#utility.yul\":36764:36776   */\n      add\n        /* \"#utility.yul\":36757:36776   */\n      swap1\n      pop\n        /* \"#utility.yul\":36416:36782   */\n      swap2\n      swap1\n      pop\n      jump\t// out\n        /* \"#utility.yul\":36788:37207   */\n    tag_184:\n        /* \"#utility.yul\":36954:36958   */\n      0x00\n        /* \"#utility.yul\":36992:36994   */\n      0x20\n        /* \"#utility.yul\":36981:36990   */\n      dup3\n        /* \"#utility.yul\":36977:36995   */\n      add\n        /* \"#utility.yul\":36969:36995   */\n      swap1\n      pop\n        /* \"#utility.yul\":37041:37050   */\n      dup2\n        /* \"#utility.yul\":37035:37039   */\n      dup2\n        /* \"#utility.yul\":37031:37051   */\n      sub\n        /* \"#utility.yul\":37027:37028   */\n      0x00\n        /* \"#utility.yul\":37016:37025   */\n      dup4\n        /* \"#utility.yul\":37012:37029   */\n      add\n        /* \"#utility.yul\":37005:37052   */\n      mstore\n        /* \"#utility.yul\":37069:37200   */\n      tag_839\n        /* \"#utility.yul\":37195:37199   */\n      dup2\n        /* \"#utility.yul\":37069:37200   */\n      tag_475\n      jump\t// in\n    tag_839:\n        /* \"#utility.yul\":37061:37200   */\n      swap1\n      pop\n        /* \"#utility.yul\":36788:37207   */\n      swap2\n      swap1\n      pop\n      jump\t// out\n        /* \"#utility.yul\":37213:37380   */\n    tag_476:\n        /* \"#utility.yul\":37353:37372   */\n      0x596f752068617665206e6f207461736b73000000000000000000000000000000\n        /* \"#utility.yul\":37349:37350   */\n      0x00\n        /* \"#utility.yul\":37341:37347   */\n      dup3\n        /* \"#utility.yul\":37337:37351   */\n      add\n        /* \"#utility.yul\":37330:37373   */\n      mstore\n        /* \"#utility.yul\":37213:37380   */\n      pop\n      jump\t// out\n        /* \"#utility.yul\":37386:37752   */\n    tag_477:\n        /* \"#utility.yul\":37528:37531   */\n      0x00\n        /* \"#utility.yul\":37549:37616   */\n      tag_842\n        /* \"#utility.yul\":37613:37615   */\n      0x11\n        /* \"#utility.yul\":37608:37611   */\n      dup4\n        /* \"#utility.yul\":37549:37616   */\n      tag_422\n      jump\t// in\n    tag_842:\n        /* \"#utility.yul\":37542:37616   */\n      swap2\n      pop\n        /* \"#utility.yul\":37625:37718   */\n      tag_843\n        /* \"#utility.yul\":37714:37717   */\n      dup3\n        /* \"#utility.yul\":37625:37718   */\n      tag_476\n      jump\t// in\n    tag_843:\n        /* \"#utility.yul\":37743:37745   */\n      0x20\n        /* \"#utility.yul\":37738:37741   */\n      dup3\n        /* \"#utility.yul\":37734:37746   */\n      add\n        /* \"#utility.yul\":37727:37746   */\n      swap1\n      pop\n        /* \"#utility.yul\":37386:37752   */\n      swap2\n      swap1\n      pop\n      jump\t// out\n        /* \"#utility.yul\":37758:38177   */\n    tag_206:\n        /* \"#utility.yul\":37924:37928   */\n      0x00\n        /* \"#utility.yul\":37962:37964   */\n      0x20\n        /* \"#utility.yul\":37951:37960   */\n      dup3\n        /* \"#utility.yul\":37947:37965   */\n      add\n        /* \"#utility.yul\":37939:37965   */\n      swap1\n      pop\n        /* \"#utility.yul\":38011:38020   */\n      dup2\n        /* \"#utility.yul\":38005:38009   */\n      dup2\n        /* \"#utility.yul\":38001:38021   */\n      sub\n        /* \"#utility.yul\":37997:37998   */\n      0x00\n        /* \"#utility.yul\":37986:37995   */\n      dup4\n        /* \"#utility.yul\":37982:37999   */\n      add\n        /* \"#utility.yul\":37975:38022   */\n      mstore\n        /* \"#utility.yul\":38039:38170   */\n      tag_845\n        /* \"#utility.yul\":38165:38169   */\n      dup2\n        /* \"#utility.yul\":38039:38170   */\n      tag_477\n      jump\t// in\n    tag_845:\n        /* \"#utility.yul\":38031:38170   */\n      swap1\n      pop\n        /* \"#utility.yul\":37758:38177   */\n      swap2\n      swap1\n      pop\n      jump\t// out\n        /* \"#utility.yul\":38183:38359   */\n    tag_478:\n        /* \"#utility.yul\":38323:38351   */\n      0x4964656e7469666965722063616e6e6f7420626520656d707479000000000000\n        /* \"#utility.yul\":38319:38320   */\n      0x00\n        /* \"#utility.yul\":38311:38317   */\n      dup3\n        /* \"#utility.yul\":38307:38321   */\n      add\n        /* \"#utility.yul\":38300:38352   */\n      mstore\n        /* \"#utility.yul\":38183:38359   */\n      pop\n      jump\t// out\n        /* \"#utility.yul\":38365:38731   */\n    tag_479:\n        /* \"#utility.yul\":38507:38510   */\n      0x00\n        /* \"#utility.yul\":38528:38595   */\n      tag_848\n        /* \"#utility.yul\":38592:38594   */\n      0x1a\n        /* \"#utility.yul\":38587:38590   */\n      dup4\n        /* \"#utility.yul\":38528:38595   */\n      tag_422\n      jump\t// in\n    tag_848:\n        /* \"#utility.yul\":38521:38595   */\n      swap2\n      pop\n        /* \"#utility.yul\":38604:38697   */\n      tag_849\n        /* \"#utility.yul\":38693:38696   */\n      dup3\n        /* \"#utility.yul\":38604:38697   */\n      tag_478\n      jump\t// in\n    tag_849:\n        /* \"#utility.yul\":38722:38724   */\n      0x20\n        /* \"#utility.yul\":38717:38720   */\n      dup3\n        /* \"#utility.yul\":38713:38725   */\n      add\n        /* \"#utility.yul\":38706:38725   */\n      swap1\n      pop\n        /* \"#utility.yul\":38365:38731   */\n      swap2\n      swap1\n      pop\n      jump\t// out\n        /* \"#utility.yul\":38737:39156   */\n    tag_236:\n        /* \"#utility.yul\":38903:38907   */\n      0x00\n        /* \"#utility.yul\":38941:38943   */\n      0x20\n        /* \"#utility.yul\":38930:38939   */\n      dup3\n        /* \"#utility.yul\":38926:38944   */\n      add\n        /* \"#utility.yul\":38918:38944   */\n      swap1\n      pop\n        /* \"#utility.yul\":38990:38999   */\n      dup2\n        /* \"#utility.yul\":38984:38988   */\n      dup2\n        /* \"#utility.yul\":38980:39000   */\n      sub\n        /* \"#utility.yul\":38976:38977   */\n      0x00\n        /* \"#utility.yul\":38965:38974   */\n      dup4\n        /* \"#utility.yul\":38961:38978   */\n      add\n        /* \"#utility.yul\":38954:39001   */\n      mstore\n        /* \"#utility.yul\":39018:39149   */\n      tag_851\n        /* \"#utility.yul\":39144:39148   */\n      dup2\n        /* \"#utility.yul\":39018:39149   */\n      tag_479\n      jump\t// in\n    tag_851:\n        /* \"#utility.yul\":39010:39149   */\n      swap1\n      pop\n        /* \"#utility.yul\":38737:39156   */\n      swap2\n      swap1\n      pop\n      jump\t// out\n        /* \"#utility.yul\":39162:39384   */\n    tag_480:\n        /* \"#utility.yul\":39302:39336   */\n      0x44494420616c72656164792065786973747320666f7220746869732061646472\n        /* \"#utility.yul\":39298:39299   */\n      0x00\n        /* \"#utility.yul\":39290:39296   */\n      dup3\n        /* \"#utility.yul\":39286:39300   */\n      add\n        /* \"#utility.yul\":39279:39337   */\n      mstore\n        /* \"#utility.yul\":39371:39376   */\n      0x6573730000000000000000000000000000000000000000000000000000000000\n        /* \"#utility.yul\":39366:39368   */\n      0x20\n        /* \"#utility.yul\":39358:39364   */\n      dup3\n        /* \"#utility.yul\":39354:39369   */\n      add\n        /* \"#utility.yul\":39347:39377   */\n      mstore\n        /* \"#utility.yul\":39162:39384   */\n      pop\n      jump\t// out\n        /* \"#utility.yul\":39390:39756   */\n    tag_481:\n        /* \"#utility.yul\":39532:39535   */\n      0x00\n        /* \"#utility.yul\":39553:39620   */\n      tag_854\n        /* \"#utility.yul\":39617:39619   */\n      0x23\n        /* \"#utility.yul\":39612:39615   */\n      dup4\n        /* \"#utility.yul\":39553:39620   */\n      tag_422\n      jump\t// in\n    tag_854:\n        /* \"#utility.yul\":39546:39620   */\n      swap2\n      pop\n        /* \"#utility.yul\":39629:39722   */\n      tag_855\n        /* \"#utility.yul\":39718:39721   */\n      dup3\n        /* \"#utility.yul\":39629:39722   */\n      tag_480\n      jump\t// in\n    tag_855:\n        /* \"#utility.yul\":39747:39749   */\n      0x40\n        /* \"#utility.yul\":39742:39745   */\n      dup3\n        /* \"#utility.yul\":39738:39750   */\n      add\n        /* \"#utility.yul\":39731:39750   */\n      swap1\n      pop\n        /* \"#utility.yul\":39390:39756   */\n      swap2\n      swap1\n      pop\n      jump\t// out\n        /* \"#utility.yul\":39762:40181   */\n    tag_239:\n        /* \"#utility.yul\":39928:39932   */\n      0x00\n        /* \"#utility.yul\":39966:39968   */\n      0x20\n        /* \"#utility.yul\":39955:39964   */\n      dup3\n        /* \"#utility.yul\":39951:39969   */\n      add\n        /* \"#utility.yul\":39943:39969   */\n      swap1\n      pop\n        /* \"#utility.yul\":40015:40024   */\n      dup2\n        /* \"#utility.yul\":40009:40013   */\n      dup2\n        /* \"#utility.yul\":40005:40025   */\n      sub\n        /* \"#utility.yul\":40001:40002   */\n      0x00\n        /* \"#utility.yul\":39990:39999   */\n      dup4\n        /* \"#utility.yul\":39986:40003   */\n      add\n        /* \"#utility.yul\":39979:40026   */\n      mstore\n        /* \"#utility.yul\":40043:40174   */\n      tag_857\n        /* \"#utility.yul\":40169:40173   */\n      dup2\n        /* \"#utility.yul\":40043:40174   */\n      tag_481\n      jump\t// in\n    tag_857:\n        /* \"#utility.yul\":40035:40174   */\n      swap1\n      pop\n        /* \"#utility.yul\":39762:40181   */\n      swap2\n      swap1\n      pop\n      jump\t// out\n        /* \"#utility.yul\":40187:40358   */\n    tag_482:\n        /* \"#utility.yul\":40327:40350   */\n      0x5469746c652063616e6e6f7420626520656d7074790000000000000000000000\n        /* \"#utility.yul\":40323:40324   */\n      0x00\n        /* \"#utility.yul\":40315:40321   */\n      dup3\n        /* \"#utility.yul\":40311:40325   */\n      add\n        /* \"#utility.yul\":40304:40351   */\n      mstore\n        /* \"#utility.yul\":40187:40358   */\n      pop\n      jump\t// out\n        /* \"#utility.yul\":40364:40730   */\n    tag_483:\n        /* \"#utility.yul\":40506:40509   */\n      0x00\n        /* \"#utility.yul\":40527:40594   */\n      tag_860\n        /* \"#utility.yul\":40591:40593   */\n      0x15\n        /* \"#utility.yul\":40586:40589   */\n      dup4\n        /* \"#utility.yul\":40527:40594   */\n      tag_422\n      jump\t// in\n    tag_860:\n        /* \"#utility.yul\":40520:40594   */\n      swap2\n      pop\n        /* \"#utility.yul\":40603:40696   */\n      tag_861\n        /* \"#utility.yul\":40692:40695   */\n      dup3\n        /* \"#utility.yul\":40603:40696   */\n      tag_482\n      jump\t// in\n    tag_861:\n        /* \"#utility.yul\":40721:40723   */\n      0x20\n        /* \"#utility.yul\":40716:40719   */\n      dup3\n        /* \"#utility.yul\":40712:40724   */\n      add\n        /* \"#utility.yul\":40705:40724   */\n      swap1\n      pop\n        /* \"#utility.yul\":40364:40730   */\n      swap2\n      swap1\n      pop\n      jump\t// out\n        /* \"#utility.yul\":40736:41155   */\n    tag_251:\n        /* \"#utility.yul\":40902:40906   */\n      0x00\n        /* \"#utility.yul\":40940:40942   */\n      0x20\n        /* \"#utility.yul\":40929:40938   */\n      dup3\n        /* \"#utility.yul\":40925:40943   */\n      add\n        /* \"#utility.yul\":40917:40943   */\n      swap1\n      pop\n        /* \"#utility.yul\":40989:40998   */\n      dup2\n        /* \"#utility.yul\":40983:40987   */\n      dup2\n        /* \"#utility.yul\":40979:40999   */\n      sub\n        /* \"#utility.yul\":40975:40976   */\n      0x00\n        /* \"#utility.yul\":40964:40973   */\n      dup4\n        /* \"#utility.yul\":40960:40977   */\n      add\n        /* \"#utility.yul\":40953:41000   */\n      mstore\n        /* \"#utility.yul\":41017:41148   */\n      tag_863\n        /* \"#utility.yul\":41143:41147   */\n      dup2\n        /* \"#utility.yul\":41017:41148   */\n      tag_483\n      jump\t// in\n    tag_863:\n        /* \"#utility.yul\":41009:41148   */\n      swap1\n      pop\n        /* \"#utility.yul\":40736:41155   */\n      swap2\n      swap1\n      pop\n      jump\t// out\n        /* \"#utility.yul\":41161:41338   */\n    tag_484:\n        /* \"#utility.yul\":41301:41330   */\n      0x4465736372697074696f6e2063616e6e6f7420626520656d7074790000000000\n        /* \"#utility.yul\":41297:41298   */\n      0x00\n        /* \"#utility.yul\":41289:41295   */\n      dup3\n        /* \"#utility.yul\":41285:41299   */\n      add\n        /* \"#utility.yul\":41278:41331   */\n      mstore\n        /* \"#utility.yul\":41161:41338   */\n      pop\n      jump\t// out\n        /* \"#utility.yul\":41344:41710   */\n    tag_485:\n        /* \"#utility.yul\":41486:41489   */\n      0x00\n        /* \"#utility.yul\":41507:41574   */\n      tag_866\n        /* \"#utility.yul\":41571:41573   */\n      0x1b\n        /* \"#utility.yul\":41566:41569   */\n      dup4\n        /* \"#utility.yul\":41507:41574   */\n      tag_422\n      jump\t// in\n    tag_866:\n        /* \"#utility.yul\":41500:41574   */\n      swap2\n      pop\n        /* \"#utility.yul\":41583:41676   */\n      tag_867\n        /* \"#utility.yul\":41672:41675   */\n      dup3\n        /* \"#utility.yul\":41583:41676   */\n      tag_484\n      jump\t// in\n    tag_867:\n        /* \"#utility.yul\":41701:41703   */\n      0x20\n        /* \"#utility.yul\":41696:41699   */\n      dup3\n        /* \"#utility.yul\":41692:41704   */\n      add\n        /* \"#utility.yul\":41685:41704   */\n      swap1\n      pop\n        /* \"#utility.yul\":41344:41710   */\n      swap2\n      swap1\n      pop\n      jump\t// out\n        /* \"#utility.yul\":41716:42135   */\n    tag_254:\n        /* \"#utility.yul\":41882:41886   */\n      0x00\n        /* \"#utility.yul\":41920:41922   */\n      0x20\n        /* \"#utility.yul\":41909:41918   */\n      dup3\n        /* \"#utility.yul\":41905:41923   */\n      add\n        /* \"#utility.yul\":41897:41923   */\n      swap1\n      pop\n        /* \"#utility.yul\":41969:41978   */\n      dup2\n        /* \"#utility.yul\":41963:41967   */\n      dup2\n        /* \"#utility.yul\":41959:41979   */\n      sub\n        /* \"#utility.yul\":41955:41956   */\n      0x00\n        /* \"#utility.yul\":41944:41953   */\n      dup4\n        /* \"#utility.yul\":41940:41957   */\n      add\n        /* \"#utility.yul\":41933:41980   */\n      mstore\n        /* \"#utility.yul\":41997:42128   */\n      tag_869\n        /* \"#utility.yul\":42123:42127   */\n      dup2\n        /* \"#utility.yul\":41997:42128   */\n      tag_485\n      jump\t// in\n    tag_869:\n        /* \"#utility.yul\":41989:42128   */\n      swap1\n      pop\n        /* \"#utility.yul\":41716:42135   */\n      swap2\n      swap1\n      pop\n      jump\t// out\n        /* \"#utility.yul\":42141:42378   */\n    tag_486:\n        /* \"#utility.yul\":42281:42315   */\n      0x5072696f72697479206f7574206f662072616e676520284c6f773a20302c204d\n        /* \"#utility.yul\":42277:42278   */\n      0x00\n        /* \"#utility.yul\":42269:42275   */\n      dup3\n        /* \"#utility.yul\":42265:42279   */\n      add\n        /* \"#utility.yul\":42258:42316   */\n      mstore\n        /* \"#utility.yul\":42350:42370   */\n      0x656469756d3a20312c20486967683a2032290000000000000000000000000000\n        /* \"#utility.yul\":42345:42347   */\n      0x20\n        /* \"#utility.yul\":42337:42343   */\n      dup3\n        /* \"#utility.yul\":42333:42348   */\n      add\n        /* \"#utility.yul\":42326:42371   */\n      mstore\n        /* \"#utility.yul\":42141:42378   */\n      pop\n      jump\t// out\n        /* \"#utility.yul\":42384:42750   */\n    tag_487:\n        /* \"#utility.yul\":42526:42529   */\n      0x00\n        /* \"#utility.yul\":42547:42614   */\n      tag_872\n        /* \"#utility.yul\":42611:42613   */\n      0x32\n        /* \"#utility.yul\":42606:42609   */\n      dup4\n        /* \"#utility.yul\":42547:42614   */\n      tag_422\n      jump\t// in\n    tag_872:\n        /* \"#utility.yul\":42540:42614   */\n      swap2\n      pop\n        /* \"#utility.yul\":42623:42716   */\n      tag_873\n        /* \"#utility.yul\":42712:42715   */\n      dup3\n        /* \"#utility.yul\":42623:42716   */\n      tag_486\n      jump\t// in\n    tag_873:\n        /* \"#utility.yul\":42741:42743   */\n      0x40\n        /* \"#utility.yul\":42736:42739   */\n      dup3\n        /* \"#utility.yul\":42732:42744   */\n      add\n        /* \"#utility.yul\":42725:42744   */\n      swap1\n      pop\n        /* \"#utility.yul\":42384:42750   */\n      swap2\n      swap1\n      pop\n      jump\t// out\n        /* \"#utility.yul\":42756:43175   */\n    tag_261:\n        /* \"#utility.yul\":42922:42926   */\n      0x00\n        /* \"#utility.yul\":42960:42962   */\n      0x20\n        /* \"#utility.yul\":42949:42958   */\n      dup3\n        /* \"#utility.yul\":42945:42963   */\n      add\n        /* \"#utility.yul\":42937:42963   */\n      swap1\n      pop\n        /* \"#utility.yul\":43009:43018   */\n      dup2\n        /* \"#utility.yul\":43003:43007   */\n      dup2\n        /* \"#utility.yul\":42999:43019   */\n      sub\n        /* \"#utility.yul\":42995:42996   */\n      0x00\n        /* \"#utility.yul\":42984:42993   */\n      dup4\n        /* \"#utility.yul\":42980:42997   */\n      add\n        /* \"#utility.yul\":42973:43020   */\n      mstore\n        /* \"#utility.yul\":43037:43168   */\n      tag_875\n        /* \"#utility.yul\":43163:43167   */\n      dup2\n        /* \"#utility.yul\":43037:43168   */\n      tag_487\n      jump\t// in\n    tag_875:\n        /* \"#utility.yul\":43029:43168   */\n      swap1\n      pop\n        /* \"#utility.yul\":42756:43175   */\n      swap2\n      swap1\n      pop\n      jump\t// out\n        /* \"#utility.yul\":43181:43361   */\n    tag_488:\n        /* \"#utility.yul\":43321:43353   */\n      0x4475652064617465206d75737420626520696e20746865206675747572650000\n        /* \"#utility.yul\":43317:43318   */\n      0x00\n        /* \"#utility.yul\":43309:43315   */\n      dup3\n        /* \"#utility.yul\":43305:43319   */\n      add\n        /* \"#utility.yul\":43298:43354   */\n      mstore\n        /* \"#utility.yul\":43181:43361   */\n      pop\n      jump\t// out\n        /* \"#utility.yul\":43367:43733   */\n    tag_489:\n        /* \"#utility.yul\":43509:43512   */\n      0x00\n        /* \"#utility.yul\":43530:43597   */\n      tag_878\n        /* \"#utility.yul\":43594:43596   */\n      0x1e\n        /* \"#utility.yul\":43589:43592   */\n      dup4\n        /* \"#utility.yul\":43530:43597   */\n      tag_422\n      jump\t// in\n    tag_878:\n        /* \"#utility.yul\":43523:43597   */\n      swap2\n      pop\n        /* \"#utility.yul\":43606:43699   */\n      tag_879\n        /* \"#utility.yul\":43695:43698   */\n      dup3\n        /* \"#utility.yul\":43606:43699   */\n      tag_488\n      jump\t// in\n    tag_879:\n        /* \"#utility.yul\":43724:43726   */\n      0x20\n        /* \"#utility.yul\":43719:43722   */\n      dup3\n        /* \"#utility.yul\":43715:43727   */\n      add\n        /* \"#utility.yul\":43708:43727   */\n      swap1\n      pop\n        /* \"#utility.yul\":43367:43733   */\n      swap2\n      swap1\n      pop\n      jump\t// out\n        /* \"#utility.yul\":43739:44158   */\n    tag_264:\n        /* \"#utility.yul\":43905:43909   */\n      0x00\n        /* \"#utility.yul\":43943:43945   */\n      0x20\n        /* \"#utility.yul\":43932:43941   */\n      dup3\n        /* \"#utility.yul\":43928:43946   */\n      add\n        /* \"#utility.yul\":43920:43946   */\n      swap1\n      pop\n        /* \"#utility.yul\":43992:44001   */\n      dup2\n        /* \"#utility.yul\":43986:43990   */\n      dup2\n        /* \"#utility.yul\":43982:44002   */\n      sub\n        /* \"#utility.yul\":43978:43979   */\n      0x00\n        /* \"#utility.yul\":43967:43976   */\n      dup4\n        /* \"#utility.yul\":43963:43980   */\n      add\n        /* \"#utility.yul\":43956:44003   */\n      mstore\n        /* \"#utility.yul\":44020:44151   */\n      tag_881\n        /* \"#utility.yul\":44146:44150   */\n      dup2\n        /* \"#utility.yul\":44020:44151   */\n      tag_489\n      jump\t// in\n    tag_881:\n        /* \"#utility.yul\":44012:44151   */\n      swap1\n      pop\n        /* \"#utility.yul\":43739:44158   */\n      swap2\n      swap1\n      pop\n      jump\t// out\n        /* \"#utility.yul\":44164:44282   */\n    tag_490:\n        /* \"#utility.yul\":44251:44275   */\n      tag_883\n        /* \"#utility.yul\":44269:44274   */\n      dup2\n        /* \"#utility.yul\":44251:44275   */\n      tag_399\n      jump\t// in\n    tag_883:\n        /* \"#utility.yul\":44246:44249   */\n      dup3\n        /* \"#utility.yul\":44239:44276   */\n      mstore\n        /* \"#utility.yul\":44164:44282   */\n      pop\n      pop\n      jump\t// out\n        /* \"#utility.yul\":44288:44620   */\n    tag_273:\n        /* \"#utility.yul\":44409:44413   */\n      0x00\n        /* \"#utility.yul\":44447:44449   */\n      0x40\n        /* \"#utility.yul\":44436:44445   */\n      dup3\n        /* \"#utility.yul\":44432:44450   */\n      add\n        /* \"#utility.yul\":44424:44450   */\n      swap1\n      pop\n        /* \"#utility.yul\":44460:44531   */\n      tag_885\n        /* \"#utility.yul\":44528:44529   */\n      0x00\n        /* \"#utility.yul\":44517:44526   */\n      dup4\n        /* \"#utility.yul\":44513:44530   */\n      add\n        /* \"#utility.yul\":44504:44510   */\n      dup6\n        /* \"#utility.yul\":44460:44531   */\n      tag_463\n      jump\t// in\n    tag_885:\n        /* \"#utility.yul\":44541:44613   */\n      tag_886\n        /* \"#utility.yul\":44609:44611   */\n      0x20\n        /* \"#utility.yul\":44598:44607   */\n      dup4\n        /* \"#utility.yul\":44594:44612   */\n      add\n        /* \"#utility.yul\":44585:44591   */\n      dup5\n        /* \"#utility.yul\":44541:44613   */\n      tag_490\n      jump\t// in\n    tag_886:\n        /* \"#utility.yul\":44288:44620   */\n      swap4\n      swap3\n      pop\n      pop\n      pop\n      jump\t// out\n        /* \"#utility.yul\":44626:44806   */\n    tag_491:\n        /* \"#utility.yul\":44674:44751   */\n      0x4e487b7100000000000000000000000000000000000000000000000000000000\n        /* \"#utility.yul\":44671:44672   */\n      0x00\n        /* \"#utility.yul\":44664:44752   */\n      mstore\n        /* \"#utility.yul\":44771:44775   */\n      0x11\n        /* \"#utility.yul\":44768:44769   */\n      0x04\n        /* \"#utility.yul\":44761:44776   */\n      mstore\n        /* \"#utility.yul\":44795:44799   */\n      0x24\n        /* \"#utility.yul\":44792:44793   */\n      0x00\n        /* \"#utility.yul\":44785:44800   */\n      revert\n        /* \"#utility.yul\":44812:45045   */\n    tag_275:\n        /* \"#utility.yul\":44851:44854   */\n      0x00\n        /* \"#utility.yul\":44874:44898   */\n      tag_889\n        /* \"#utility.yul\":44892:44897   */\n      dup3\n        /* \"#utility.yul\":44874:44898   */\n      tag_399\n      jump\t// in\n    tag_889:\n        /* \"#utility.yul\":44865:44898   */\n      swap2\n      pop\n        /* \"#utility.yul\":44920:44986   */\n      0xffffffffffffffffffffffffffffffffffffffffffffffffffffffffffffffff\n        /* \"#utility.yul\":44913:44918   */\n      dup3\n        /* \"#utility.yul\":44910:44987   */\n      sub\n        /* \"#utility.yul\":44907:45010   */\n      tag_890\n      jumpi\n        /* \"#utility.yul\":44990:45008   */\n      tag_891\n      tag_491\n      jump\t// in\n    tag_891:\n        /* \"#utility.yul\":44907:45010   */\n    tag_890:\n        /* \"#utility.yul\":45037:45038   */\n      0x01\n        /* \"#utility.yul\":45030:45035   */\n      dup3\n        /* \"#utility.yul\":45026:45039   */\n      add\n        /* \"#utility.yul\":45019:45039   */\n      swap1\n      pop\n        /* \"#utility.yul\":44812:45045   */\n      swap2\n      swap1\n      pop\n      jump\t// out\n        /* \"#utility.yul\":45051:45276   */\n    tag_492:\n        /* \"#utility.yul\":45191:45225   */\n      0x54686973207461736b20616c72656164792062656c6f6e67656420746f207468\n        /* \"#utility.yul\":45187:45188   */\n      0x00\n        /* \"#utility.yul\":45179:45185   */\n      dup3\n        /* \"#utility.yul\":45175:45189   */\n      add\n        /* \"#utility.yul\":45168:45226   */\n      mstore\n        /* \"#utility.yul\":45260:45268   */\n      0x6520757365720000000000000000000000000000000000000000000000000000\n        /* \"#utility.yul\":45255:45257   */\n      0x20\n        /* \"#utility.yul\":45247:45253   */\n      dup3\n        /* \"#utility.yul\":45243:45258   */\n      add\n        /* \"#utility.yul\":45236:45269   */\n      mstore\n        /* \"#utility.yul\":45051:45276   */\n      pop\n      jump\t// out\n        /* \"#utility.yul\":45282:45648   */\n    tag_493:\n        /* \"#utility.yul\":45424:45427   */\n      0x00\n        /* \"#utility.yul\":45445:45512   */\n      tag_894\n        /* \"#utility.yul\":45509:45511   */\n      0x26\n        /* \"#utility.yul\":45504:45507   */\n      dup4\n        /* \"#utility.yul\":45445:45512   */\n      tag_422\n      jump\t// in\n    tag_894:\n        /* \"#utility.yul\":45438:45512   */\n      swap2\n      pop\n        /* \"#utility.yul\":45521:45614   */\n      tag_895\n        /* \"#utility.yul\":45610:45613   */\n      dup3\n        /* \"#utility.yul\":45521:45614   */\n      tag_492\n      jump\t// in\n    tag_895:\n        /* \"#utility.yul\":45639:45641   */\n      0x40\n        /* \"#utility.yul\":45634:45637   */\n      dup3\n        /* \"#utility.yul\":45630:45642   */\n      add\n        /* \"#utility.yul\":45623:45642   */\n      swap1\n      pop\n        /* \"#utility.yul\":45282:45648   */\n      swap2\n      swap1\n      pop\n      jump\t// out\n        /* \"#utility.yul\":45654:46073   */\n    tag_291:\n        /* \"#utility.yul\":45820:45824   */\n      0x00\n        /* \"#utility.yul\":45858:45860   */\n      0x20\n        /* \"#utility.yul\":45847:45856   */\n      dup3\n        /* \"#utility.yul\":45843:45861   */\n      add\n        /* \"#utility.yul\":45835:45861   */\n      swap1\n      pop\n        /* \"#utility.yul\":45907:45916   */\n      dup2\n        /* \"#utility.yul\":45901:45905   */\n      dup2\n        /* \"#utility.yul\":45897:45917   */\n      sub\n        /* \"#utility.yul\":45893:45894   */\n      0x00\n        /* \"#utility.yul\":45882:45891   */\n      dup4\n        /* \"#utility.yul\":45878:45895   */\n      add\n        /* \"#utility.yul\":45871:45918   */\n      mstore\n        /* \"#utility.yul\":45935:46066   */\n      tag_897\n        /* \"#utility.yul\":46061:46065   */\n      dup2\n        /* \"#utility.yul\":45935:46066   */\n      tag_493\n      jump\t// in\n    tag_897:\n        /* \"#utility.yul\":45927:46066   */\n      swap1\n      pop\n        /* \"#utility.yul\":45654:46073   */\n      swap2\n      swap1\n      pop\n      jump\t// out\n        /* \"#utility.yul\":46079:46273   */\n    tag_300:\n        /* \"#utility.yul\":46119:46123   */\n      0x00\n        /* \"#utility.yul\":46139:46159   */\n      tag_899\n        /* \"#utility.yul\":46157:46158   */\n      dup3\n        /* \"#utility.yul\":46139:46159   */\n      tag_399\n      jump\t// in\n    tag_899:\n        /* \"#utility.yul\":46134:46159   */\n      swap2\n      pop\n        /* \"#utility.yul\":46173:46193   */\n      tag_900\n        /* \"#utility.yul\":46191:46192   */\n      dup4\n        /* \"#utility.yul\":46173:46193   */\n      tag_399\n      jump\t// in\n    tag_900:\n        /* \"#utility.yul\":46168:46193   */\n      swap3\n      pop\n        /* \"#utility.yul\":46217:46218   */\n      dup3\n        /* \"#utility.yul\":46214:46215   */\n      dup3\n        /* \"#utility.yul\":46210:46219   */\n      sub\n        /* \"#utility.yul\":46202:46219   */\n      swap1\n      pop\n        /* \"#utility.yul\":46241:46242   */\n      dup2\n        /* \"#utility.yul\":46235:46239   */\n      dup2\n        /* \"#utility.yul\":46232:46243   */\n      gt\n        /* \"#utility.yul\":46229:46266   */\n      iszero\n      tag_901\n      jumpi\n        /* \"#utility.yul\":46246:46264   */\n      tag_902\n      tag_491\n      jump\t// in\n    tag_902:\n        /* \"#utility.yul\":46229:46266   */\n    tag_901:\n        /* \"#utility.yul\":46079:46273   */\n      swap3\n      swap2\n      pop\n      pop\n      jump\t// out\n        /* \"#utility.yul\":46279:46459   */\n    tag_309:\n        /* \"#utility.yul\":46327:46404   */\n      0x4e487b7100000000000000000000000000000000000000000000000000000000\n        /* \"#utility.yul\":46324:46325   */\n      0x00\n        /* \"#utility.yul\":46317:46405   */\n      mstore\n        /* \"#utility.yul\":46424:46428   */\n      0x31\n        /* \"#utility.yul\":46421:46422   */\n      0x04\n        /* \"#utility.yul\":46414:46429   */\n      mstore\n        /* \"#utility.yul\":46448:46452   */\n      0x24\n        /* \"#utility.yul\":46445:46446   */\n      0x00\n        /* \"#utility.yul\":46438:46453   */\n      revert\n        /* \"#utility.yul\":46465:46644   */\n    tag_494:\n        /* \"#utility.yul\":46605:46636   */\n      0x4e6f2044494420666f756e6420666f7220746869732061646472657373000000\n        /* \"#utility.yul\":46601:46602   */\n      0x00\n        /* \"#utility.yul\":46593:46599   */\n      dup3\n        /* \"#utility.yul\":46589:46603   */\n      add\n        /* \"#utility.yul\":46582:46637   */\n      mstore\n        /* \"#utility.yul\":46465:46644   */\n      pop\n      jump\t// out\n        /* \"#utility.yul\":46650:47016   */\n    tag_495:\n        /* \"#utility.yul\":46792:46795   */\n      0x00\n        /* \"#utility.yul\":46813:46880   */\n      tag_906\n        /* \"#utility.yul\":46877:46879   */\n      0x1d\n        /* \"#utility.yul\":46872:46875   */\n      dup4\n        /* \"#utility.yul\":46813:46880   */\n      tag_422\n      jump\t// in\n    tag_906:\n        /* \"#utility.yul\":46806:46880   */\n      swap2\n      pop\n        /* \"#utility.yul\":46889:46982   */\n      tag_907\n        /* \"#utility.yul\":46978:46981   */\n      dup3\n        /* \"#utility.yul\":46889:46982   */\n      tag_494\n      jump\t// in\n    tag_907:\n        /* \"#utility.yul\":47007:47009   */\n      0x20\n        /* \"#utility.yul\":47002:47005   */\n      dup3\n        /* \"#utility.yul\":46998:47010   */\n      add\n        /* \"#utility.yul\":46991:47010   */\n      swap1\n      pop\n        /* \"#utility.yul\":46650:47016   */\n      swap2\n      swap1\n      pop\n      jump\t// out\n        /* \"#utility.yul\":47022:47441   */\n    tag_329:\n        /* \"#utility.yul\":47188:47192   */\n      0x00\n        /* \"#utility.yul\":47226:47228   */\n      0x20\n        /* \"#utility.yul\":47215:47224   */\n      dup3\n        /* \"#utility.yul\":47211:47229   */\n      add\n        /* \"#utility.yul\":47203:47229   */\n      swap1\n      pop\n        /* \"#utility.yul\":47275:47284   */\n      dup2\n        /* \"#utility.yul\":47269:47273   */\n      dup2\n        /* \"#utility.yul\":47265:47285   */\n      sub\n        /* \"#utility.yul\":47261:47262   */\n      0x00\n        /* \"#utility.yul\":47250:47259   */\n      dup4\n        /* \"#utility.yul\":47246:47263   */\n      add\n        /* \"#utility.yul\":47239:47286   */\n      mstore\n        /* \"#utility.yul\":47303:47434   */\n      tag_909\n        /* \"#utility.yul\":47429:47433   */\n      dup2\n        /* \"#utility.yul\":47303:47434   */\n      tag_495\n      jump\t// in\n    tag_909:\n        /* \"#utility.yul\":47295:47434   */\n      swap1\n      pop\n        /* \"#utility.yul\":47022:47441   */\n      swap2\n      swap1\n      pop\n      jump\t// out\n        /* \"#utility.yul\":47447:47619   */\n    tag_496:\n        /* \"#utility.yul\":47587:47611   */\n      0x5461736b20616c726561647920636f6d706c6574656400000000000000000000\n        /* \"#utility.yul\":47583:47584   */\n      0x00\n        /* \"#utility.yul\":47575:47581   */\n      dup3\n        /* \"#utility.yul\":47571:47585   */\n      add\n        /* \"#utility.yul\":47564:47612   */\n      mstore\n        /* \"#utility.yul\":47447:47619   */\n      pop\n      jump\t// out\n        /* \"#utility.yul\":47625:47991   */\n    tag_497:\n        /* \"#utility.yul\":47767:47770   */\n      0x00\n        /* \"#utility.yul\":47788:47855   */\n      tag_912\n        /* \"#utility.yul\":47852:47854   */\n      0x16\n        /* \"#utility.yul\":47847:47850   */\n      dup4\n        /* \"#utility.yul\":47788:47855   */\n      tag_422\n      jump\t// in\n    tag_912:\n        /* \"#utility.yul\":47781:47855   */\n      swap2\n      pop\n        /* \"#utility.yul\":47864:47957   */\n      tag_913\n        /* \"#utility.yul\":47953:47956   */\n      dup3\n        /* \"#utility.yul\":47864:47957   */\n      tag_496\n      jump\t// in\n    tag_913:\n        /* \"#utility.yul\":47982:47984   */\n      0x20\n        /* \"#utility.yul\":47977:47980   */\n      dup3\n        /* \"#utility.yul\":47973:47985   */\n      add\n        /* \"#utility.yul\":47966:47985   */\n      swap1\n      pop\n        /* \"#utility.yul\":47625:47991   */\n      swap2\n      swap1\n      pop\n      jump\t// out\n        /* \"#utility.yul\":47997:48416   */\n    tag_342:\n        /* \"#utility.yul\":48163:48167   */\n      0x00\n        /* \"#utility.yul\":48201:48203   */\n      0x20\n        /* \"#utility.yul\":48190:48199   */\n      dup3\n        /* \"#utility.yul\":48186:48204   */\n      add\n        /* \"#utility.yul\":48178:48204   */\n      swap1\n      pop\n        /* \"#utility.yul\":48250:48259   */\n      dup2\n        /* \"#utility.yul\":48244:48248   */\n      dup2\n        /* \"#utility.yul\":48240:48260   */\n      sub\n        /* \"#utility.yul\":48236:48237   */\n      0x00\n        /* \"#utility.yul\":48225:48234   */\n      dup4\n        /* \"#utility.yul\":48221:48238   */\n      add\n        /* \"#utility.yul\":48214:48261   */\n      mstore\n        /* \"#utility.yul\":48278:48409   */\n      tag_915\n        /* \"#utility.yul\":48404:48408   */\n      dup2\n        /* \"#utility.yul\":48278:48409   */\n      tag_497\n      jump\t// in\n    tag_915:\n        /* \"#utility.yul\":48270:48409   */\n      swap1\n      pop\n        /* \"#utility.yul\":47997:48416   */\n      swap2\n      swap1\n      pop\n      jump\t// out\n        /* \"#utility.yul\":48422:48644   */\n    tag_344:\n        /* \"#utility.yul\":48515:48519   */\n      0x00\n        /* \"#utility.yul\":48553:48555   */\n      0x20\n        /* \"#utility.yul\":48542:48551   */\n      dup3\n        /* \"#utility.yul\":48538:48556   */\n      add\n        /* \"#utility.yul\":48530:48556   */\n      swap1\n      pop\n        /* \"#utility.yul\":48566:48637   */\n      tag_917\n        /* \"#utility.yul\":48634:48635   */\n      0x00\n        /* \"#utility.yul\":48623:48632   */\n      dup4\n        /* \"#utility.yul\":48619:48636   */\n      add\n        /* \"#utility.yul\":48610:48616   */\n      dup5\n        /* \"#utility.yul\":48566:48637   */\n      tag_490\n      jump\t// in\n    tag_917:\n        /* \"#utility.yul\":48422:48644   */\n      swap3\n      swap2\n      pop\n      pop\n      jump\t// out\n        /* \"#utility.yul\":48650:48872   */\n    tag_498:\n        /* \"#utility.yul\":48790:48824   */\n      0x4e6f206578697374696e672044494420666f756e6420666f7220746869732075\n        /* \"#utility.yul\":48786:48787   */\n      0x00\n        /* \"#utility.yul\":48778:48784   */\n      dup3\n        /* \"#utility.yul\":48774:48788   */\n      add\n        /* \"#utility.yul\":48767:48825   */\n      mstore\n        /* \"#utility.yul\":48859:48864   */\n      0x7365720000000000000000000000000000000000000000000000000000000000\n        /* \"#utility.yul\":48854:48856   */\n      0x20\n        /* \"#utility.yul\":48846:48852   */\n      dup3\n        /* \"#utility.yul\":48842:48857   */\n      add\n        /* \"#utility.yul\":48835:48865   */\n      mstore\n        /* \"#utility.yul\":48650:48872   */\n      pop\n      jump\t// out\n        /* \"#utility.yul\":48878:49244   */\n    tag_499:\n        /* \"#utility.yul\":49020:49023   */\n      0x00\n        /* \"#utility.yul\":49041:49108   */\n      tag_920\n        /* \"#utility.yul\":49105:49107   */\n      0x23\n        /* \"#utility.yul\":49100:49103   */\n      dup4\n        /* \"#utility.yul\":49041:49108   */\n      tag_422\n      jump\t// in\n    tag_920:\n        /* \"#utility.yul\":49034:49108   */\n      swap2\n      pop\n        /* \"#utility.yul\":49117:49210   */\n      tag_921\n        /* \"#utility.yul\":49206:49209   */\n      dup3\n        /* \"#utility.yul\":49117:49210   */\n      tag_498\n      jump\t// in\n    tag_921:\n        /* \"#utility.yul\":49235:49237   */\n      0x40\n        /* \"#utility.yul\":49230:49233   */\n      dup3\n        /* \"#utility.yul\":49226:49238   */\n      add\n        /* \"#utility.yul\":49219:49238   */\n      swap1\n      pop\n        /* \"#utility.yul\":48878:49244   */\n      swap2\n      swap1\n      pop\n      jump\t// out\n        /* \"#utility.yul\":49250:49669   */\n    tag_348:\n        /* \"#utility.yul\":49416:49420   */\n      0x00\n        /* \"#utility.yul\":49454:49456   */\n      0x20\n        /* \"#utility.yul\":49443:49452   */\n      dup3\n        /* \"#utility.yul\":49439:49457   */\n      add\n        /* \"#utility.yul\":49431:49457   */\n      swap1\n      pop\n        /* \"#utility.yul\":49503:49512   */\n      dup2\n        /* \"#utility.yul\":49497:49501   */\n      dup2\n        /* \"#utility.yul\":49493:49513   */\n      sub\n        /* \"#utility.yul\":49489:49490   */\n      0x00\n        /* \"#utility.yul\":49478:49487   */\n      dup4\n        /* \"#utility.yul\":49474:49491   */\n      add\n        /* \"#utility.yul\":49467:49514   */\n      mstore\n        /* \"#utility.yul\":49531:49662   */\n      tag_923\n        /* \"#utility.yul\":49657:49661   */\n      dup2\n        /* \"#utility.yul\":49531:49662   */\n      tag_499\n      jump\t// in\n    tag_923:\n        /* \"#utility.yul\":49523:49662   */\n      swap1\n      pop\n        /* \"#utility.yul\":49250:49669   */\n      swap2\n      swap1\n      pop\n      jump\t// out\n        /* \"#utility.yul\":49675:49895   */\n    tag_500:\n        /* \"#utility.yul\":49815:49849   */\n      0x5573657220646f6573206e6f74206861766520616e792063726564656e746961\n        /* \"#utility.yul\":49811:49812   */\n      0x00\n        /* \"#utility.yul\":49803:49809   */\n      dup3\n        /* \"#utility.yul\":49799:49813   */\n      add\n        /* \"#utility.yul\":49792:49850   */\n      mstore\n        /* \"#utility.yul\":49884:49887   */\n      0x6c00000000000000000000000000000000000000000000000000000000000000\n        /* \"#utility.yul\":49879:49881   */\n      0x20\n        /* \"#utility.yul\":49871:49877   */\n      dup3\n        /* \"#utility.yul\":49867:49882   */\n      add\n        /* \"#utility.yul\":49860:49888   */\n      mstore\n        /* \"#utility.yul\":49675:49895   */\n      pop\n      jump\t// out\n        /* \"#utility.yul\":49901:50267   */\n    tag_501:\n        /* \"#utility.yul\":50043:50046   */\n      0x00\n        /* \"#utility.yul\":50064:50131   */\n      tag_926\n        /* \"#utility.yul\":50128:50130   */\n      0x21\n        /* \"#utility.yul\":50123:50126   */\n      dup4\n        /* \"#utility.yul\":50064:50131   */\n      tag_422\n      jump\t// in\n    tag_926:\n        /* \"#utility.yul\":50057:50131   */\n      swap2\n      pop\n        /* \"#utility.yul\":50140:50233   */\n      tag_927\n        /* \"#utility.yul\":50229:50232   */\n      dup3\n        /* \"#utility.yul\":50140:50233   */\n      tag_500\n      jump\t// in\n    tag_927:\n        /* \"#utility.yul\":50258:50260   */\n      0x40\n        /* \"#utility.yul\":50253:50256   */\n      dup3\n        /* \"#utility.yul\":50249:50261   */\n      add\n        /* \"#utility.yul\":50242:50261   */\n      swap1\n      pop\n        /* \"#utility.yul\":49901:50267   */\n      swap2\n      swap1\n      pop\n      jump\t// out\n        /* \"#utility.yul\":50273:50692   */\n    tag_351:\n        /* \"#utility.yul\":50439:50443   */\n      0x00\n        /* \"#utility.yul\":50477:50479   */\n      0x20\n        /* \"#utility.yul\":50466:50475   */\n      dup3\n        /* \"#utility.yul\":50462:50480   */\n      add\n        /* \"#utility.yul\":50454:50480   */\n      swap1\n      pop\n        /* \"#utility.yul\":50526:50535   */\n      dup2\n        /* \"#utility.yul\":50520:50524   */\n      dup2\n        /* \"#utility.yul\":50516:50536   */\n      sub\n        /* \"#utility.yul\":50512:50513   */\n      0x00\n        /* \"#utility.yul\":50501:50510   */\n      dup4\n        /* \"#utility.yul\":50497:50514   */\n      add\n        /* \"#utility.yul\":50490:50537   */\n      mstore\n        /* \"#utility.yul\":50554:50685   */\n      tag_929\n        /* \"#utility.yul\":50680:50684   */\n      dup2\n        /* \"#utility.yul\":50554:50685   */\n      tag_501\n      jump\t// in\n    tag_929:\n        /* \"#utility.yul\":50546:50685   */\n      swap1\n      pop\n        /* \"#utility.yul\":50273:50692   */\n      swap2\n      swap1\n      pop\n      jump\t// out\n        /* \"#utility.yul\":50698:51109   */\n    tag_363:\n        /* \"#utility.yul\":50833:50837   */\n      0x00\n        /* \"#utility.yul\":50871:50873   */\n      0x40\n        /* \"#utility.yul\":50860:50869   */\n      dup3\n        /* \"#utility.yul\":50856:50874   */\n      add\n        /* \"#utility.yul\":50848:50874   */\n      swap1\n      pop\n        /* \"#utility.yul\":50920:50929   */\n      dup2\n        /* \"#utility.yul\":50914:50918   */\n      dup2\n        /* \"#utility.yul\":50910:50930   */\n      sub\n        /* \"#utility.yul\":50906:50907   */\n      0x00\n        /* \"#utility.yul\":50895:50904   */\n      dup4\n        /* \"#utility.yul\":50891:50908   */\n      add\n        /* \"#utility.yul\":50884:50931   */\n      mstore\n        /* \"#utility.yul\":50948:51026   */\n      tag_931\n        /* \"#utility.yul\":51021:51025   */\n      dup2\n        /* \"#utility.yul\":51012:51018   */\n      dup6\n        /* \"#utility.yul\":50948:51026   */\n      tag_423\n      jump\t// in\n    tag_931:\n        /* \"#utility.yul\":50940:51026   */\n      swap1\n      pop\n        /* \"#utility.yul\":51036:51102   */\n      tag_932\n        /* \"#utility.yul\":51098:51100   */\n      0x20\n        /* \"#utility.yul\":51087:51096   */\n      dup4\n        /* \"#utility.yul\":51083:51101   */\n      add\n        /* \"#utility.yul\":51074:51080   */\n      dup5\n        /* \"#utility.yul\":51036:51102   */\n      tag_418\n      jump\t// in\n    tag_932:\n        /* \"#utility.yul\":50698:51109   */\n      swap4\n      swap3\n      pop\n      pop\n      pop\n      jump\t// out\n        /* \"#utility.yul\":51115:51296   */\n    tag_502:\n        /* \"#utility.yul\":51255:51288   */\n      0x4e6f20726f6c65732061737369676e656420666f722074686973207573657200\n        /* \"#utility.yul\":51251:51252   */\n      0x00\n        /* \"#utility.yul\":51243:51249   */\n      dup3\n        /* \"#utility.yul\":51239:51253   */\n      add\n        /* \"#utility.yul\":51232:51289   */\n      mstore\n        /* \"#utility.yul\":51115:51296   */\n      pop\n      jump\t// out\n        /* \"#utility.yul\":51302:51668   */\n    tag_503:\n        /* \"#utility.yul\":51444:51447   */\n      0x00\n        /* \"#utility.yul\":51465:51532   */\n      tag_935\n        /* \"#utility.yul\":51529:51531   */\n      0x1f\n        /* \"#utility.yul\":51524:51527   */\n      dup4\n        /* \"#utility.yul\":51465:51532   */\n      tag_422\n      jump\t// in\n    tag_935:\n        /* \"#utility.yul\":51458:51532   */\n      swap2\n      pop\n        /* \"#utility.yul\":51541:51634   */\n      tag_936\n        /* \"#utility.yul\":51630:51633   */\n      dup3\n        /* \"#utility.yul\":51541:51634   */\n      tag_502\n      jump\t// in\n    tag_936:\n        /* \"#utility.yul\":51659:51661   */\n      0x20\n        /* \"#utility.yul\":51654:51657   */\n      dup3\n        /* \"#utility.yul\":51650:51662   */\n      add\n        /* \"#utility.yul\":51643:51662   */\n      swap1\n      pop\n        /* \"#utility.yul\":51302:51668   */\n      swap2\n      swap1\n      pop\n      jump\t// out\n        /* \"#utility.yul\":51674:52093   */\n    tag_377:\n        /* \"#utility.yul\":51840:51844   */\n      0x00\n        /* \"#utility.yul\":51878:51880   */\n      0x20\n        /* \"#utility.yul\":51867:51876   */\n      dup3\n        /* \"#utility.yul\":51863:51881   */\n      add\n        /* \"#utility.yul\":51855:51881   */\n      swap1\n      pop\n        /* \"#utility.yul\":51927:51936   */\n      dup2\n        /* \"#utility.yul\":51921:51925   */\n      dup2\n        /* \"#utility.yul\":51917:51937   */\n      sub\n        /* \"#utility.yul\":51913:51914   */\n      0x00\n        /* \"#utility.yul\":51902:51911   */\n      dup4\n        /* \"#utility.yul\":51898:51915   */\n      add\n        /* \"#utility.yul\":51891:51938   */\n      mstore\n        /* \"#utility.yul\":51955:52086   */\n      tag_938\n        /* \"#utility.yul\":52081:52085   */\n      dup2\n        /* \"#utility.yul\":51955:52086   */\n      tag_503\n      jump\t// in\n    tag_938:\n        /* \"#utility.yul\":51947:52086   */\n      swap1\n      pop\n        /* \"#utility.yul\":51674:52093   */\n      swap2\n      swap1\n      pop\n      jump\t// out\n\n    auxdata: 0xa26469706673582212201d8df872a862e1c20098c027c4672fa3a491878ee42d35cab49530b965f8699e64736f6c634300081a0033\n}\n",
				"bytecode": {
					"linkReferences": {},
					"object": "60806040525f600455348015610013575f80fd5b506040518060400160405280600781526020017f6d616e616765720000000000000000000000000000000000000000000000000081525060015f3373ffffffffffffffffffffffffffffffffffffffff1673ffffffffffffffffffffffffffffffffffffffff1681526020019081526020015f2090816100939190610372565b5060025f3373ffffffffffffffffffffffffffffffffffffffff1673ffffffffffffffffffffffffffffffffffffffff1681526020019081526020015f208060018154018082558091505060019003905f5260205f20015f6040518060400160405280600781526020017f6d616e6167657200000000000000000000000000000000000000000000000000815250909190915090816101329190610372565b50610441565b5f81519050919050565b7f4e487b71000000000000000000000000000000000000000000000000000000005f52604160045260245ffd5b7f4e487b71000000000000000000000000000000000000000000000000000000005f52602260045260245ffd5b5f60028204905060018216806101b357607f821691505b6020821081036101c6576101c561016f565b5b50919050565b5f819050815f5260205f209050919050565b5f6020601f8301049050919050565b5f82821b905092915050565b5f600883026102287fffffffffffffffffffffffffffffffffffffffffffffffffffffffffffffffff826101ed565b61023286836101ed565b95508019841693508086168417925050509392505050565b5f819050919050565b5f819050919050565b5f61027661027161026c8461024a565b610253565b61024a565b9050919050565b5f819050919050565b61028f8361025c565b6102a361029b8261027d565b8484546101f9565b825550505050565b5f90565b6102b76102ab565b6102c2818484610286565b505050565b5b818110156102e5576102da5f826102af565b6001810190506102c8565b5050565b601f82111561032a576102fb816101cc565b610304846101de565b81016020851015610313578190505b61032761031f856101de565b8301826102c7565b50505b505050565b5f82821c905092915050565b5f61034a5f198460080261032f565b1980831691505092915050565b5f610362838361033b565b9150826002028217905092915050565b61037b82610138565b67ffffffffffffffff81111561039457610393610142565b5b61039e825461019c565b6103a98282856102e9565b5f60209050601f8311600181146103da575f84156103c8578287015190505b6103d28582610357565b865550610439565b601f1984166103e8866101cc565b5f5b8281101561040f578489015182556001820191506020850194506020810190506103ea565b8683101561042c5784890151610428601f89168261033b565b8355505b6001600288020188555050505b505050505050565b614e6a8061044e5f395ff3fe608060405234801561000f575f80fd5b50600436106100fe575f3560e01c80634505e29911610095578063bc9c2d5511610064578063bc9c2d55146102a6578063e1e29558146102c4578063e4f0c22b146102e0578063fde0817414610310576100fe565b80634505e299146102225780636c03a8981461023e5780636f6b07db1461026e578063b7dfcbee1461028a576100fe565b806314c95832116100d157806314c958321461019c5780631d65e77e146101b857806334112f5f146101e85780633457d3e214610206576100fe565b8063022bf9c11461010257806304a87e381461011e578063096f84941461013c578063106682641461016c575b5f80fd5b61011c60048036038101906101179190613709565b61032e565b005b610126610755565b60405161013391906139e6565b60405180910390f35b61015660048036038101906101519190613a30565b610bd2565b6040516101639190613a6a565b60405180910390f35b61018660048036038101906101819190613a83565b610d9b565b6040516101939190613a6a565b60405180910390f35b6101b660048036038101906101b19190613ac1565b610fb2565b005b6101d260048036038101906101cd9190613a30565b6111ba565b6040516101df9190613bbc565b60405180910390f35b6101f0611672565b6040516101fd91906139e6565b60405180910390f35b610220600480360381019061021b9190613ac1565b611ac5565b005b61023c60048036038101906102379190613bff565b611ce9565b005b61025860048036038101906102539190613a30565b6121df565b6040516102659190613a6a565b60405180910390f35b61028860048036038101906102839190613a83565b6123b3565b005b6102a4600480360381019061029f9190613709565b612821565b005b6102ae612b09565b6040516102bb9190613cf6565b60405180910390f35b6102de60048036038101906102d99190613a30565b612ca1565b005b6102fa60048036038101906102f59190613d16565b612f3a565b6040516103079190613a6a565b60405180910390f35b6103186132d6565b6040516103259190613e3d565b60405180910390f35b6040518060400160405280600781526020017f6d616e61676572000000000000000000000000000000000000000000000000008152508051906020012060015f3373ffffffffffffffffffffffffffffffffffffffff1673ffffffffffffffffffffffffffffffffffffffff1681526020019081526020015f206040516103b59190613f56565b6040518091039020146103fd576040517f08c379a00000000000000000000000000000000000000000000000000000000081526004016103f490613fb6565b60405180910390fd5b5f73ffffffffffffffffffffffffffffffffffffffff165f803373ffffffffffffffffffffffffffffffffffffffff1673ffffffffffffffffffffffffffffffffffffffff1681526020019081526020015f206001015f9054906101000a900473ffffffffffffffffffffffffffffffffffffffff1673ffffffffffffffffffffffffffffffffffffffff16036104c9576040517f08c379a00000000000000000000000000000000000000000000000000000000081526004016104c090614044565b60405180910390fd5b5f81511161050c576040517f08c379a0000000000000000000000000000000000000000000000000000000008152600401610503906140ac565b60405180910390fd5b5f338383426040516020016105249493929190614169565b60405160208183030381529060405280519060200120905060035f8473ffffffffffffffffffffffffffffffffffffffff1673ffffffffffffffffffffffffffffffffffffffff1681526020019081526020015f2060405180608001604052803373ffffffffffffffffffffffffffffffffffffffff16815260200184815260200183815260200142815250908060018154018082558091505060019003905f5260205f2090600402015f909190919091505f820151815f015f6101000a81548173ffffffffffffffffffffffffffffffffffffffff021916908373ffffffffffffffffffffffffffffffffffffffff160217905550602082015181600101908161062f919061434f565b50604082015181600201556060820151816003015550508160015f8573ffffffffffffffffffffffffffffffffffffffff1673ffffffffffffffffffffffffffffffffffffffff1681526020019081526020015f209081610690919061434f565b5060025f8473ffffffffffffffffffffffffffffffffffffffff1673ffffffffffffffffffffffffffffffffffffffff1681526020019081526020015f2082908060018154018082558091505060019003905f5260205f20015f9091909190915090816106fd919061434f565b503373ffffffffffffffffffffffffffffffffffffffff167ff4313cb022699889c6eddb590e42342301cdae4824fd424ffdfdeb23d4cdbbe984848460405161074893929190614445565b60405180910390a2505050565b60606040518060400160405280600781526020017f6d616e61676572000000000000000000000000000000000000000000000000008152508051906020012060015f3373ffffffffffffffffffffffffffffffffffffffff1673ffffffffffffffffffffffffffffffffffffffff1681526020019081526020015f206040516107de9190613f56565b604051809103902014610826576040517f08c379a000000000000000000000000000000000000000000000000000000000815260040161081d90613fb6565b60405180910390fd5b5f73ffffffffffffffffffffffffffffffffffffffff165f803373ffffffffffffffffffffffffffffffffffffffff1673ffffffffffffffffffffffffffffffffffffffff1681526020019081526020015f206001015f9054906101000a900473ffffffffffffffffffffffffffffffffffffffff1673ffffffffffffffffffffffffffffffffffffffff16036108f2576040517f08c379a00000000000000000000000000000000000000000000000000000000081526004016108e990614044565b60405180910390fd5b5f60045411610936576040517f08c379a000000000000000000000000000000000000000000000000000000000815260040161092d906144cb565b60405180910390fd5b5f60045467ffffffffffffffff811115610953576109526135e5565b5b60405190808252806020026020018201604052801561098c57816020015b6109796134f9565b8152602001906001900390816109715790505b5090505f5b600454811015610bca5760055f8281526020019081526020015f20604051806101000160405290815f82015481526020016001820180546109d190613e8a565b80601f01602080910402602001604051908101604052809291908181526020018280546109fd90613e8a565b8015610a485780601f10610a1f57610100808354040283529160200191610a48565b820191905f5260205f20905b815481529060010190602001808311610a2b57829003601f168201915b50505050508152602001600282018054610a6190613e8a565b80601f0160208091040260200160405190810160405280929190818152602001828054610a8d90613e8a565b8015610ad85780601f10610aaf57610100808354040283529160200191610ad8565b820191905f5260205f20905b815481529060010190602001808311610abb57829003601f168201915b50505050508152602001600382015f9054906101000a900460ff166002811115610b0557610b04613804565b5b6002811115610b1757610b16613804565b5b815260200160048201548152602001600582015f9054906101000a900473ffffffffffffffffffffffffffffffffffffffff1673ffffffffffffffffffffffffffffffffffffffff1673ffffffffffffffffffffffffffffffffffffffff1681526020016005820160149054906101000a900460ff16151515158152602001600682015481525050828281518110610bb257610bb16144e9565b5b60200260200101819052508080600101915050610991565b508091505090565b5f8073ffffffffffffffffffffffffffffffffffffffff165f803373ffffffffffffffffffffffffffffffffffffffff1673ffffffffffffffffffffffffffffffffffffffff1681526020019081526020015f206001015f9054906101000a900473ffffffffffffffffffffffffffffffffffffffff1673ffffffffffffffffffffffffffffffffffffffff1603610c9f576040517f08c379a0000000000000000000000000000000000000000000000000000000008152600401610c9690614044565b60405180910390fd5b5f73ffffffffffffffffffffffffffffffffffffffff1660055f8481526020019081526020015f206005015f9054906101000a900473ffffffffffffffffffffffffffffffffffffffff1673ffffffffffffffffffffffffffffffffffffffff1603610d40576040517f08c379a0000000000000000000000000000000000000000000000000000000008152600401610d3790614560565b60405180910390fd5b5f4260055f8581526020019081526020015f2060040154119050827f98839d14e1c6921e1109e3f12466427e93a0b41da8e46e903a23a78e3e471dcd82604051610d8a9190613a6a565b60405180910390a280915050919050565b5f8073ffffffffffffffffffffffffffffffffffffffff165f803373ffffffffffffffffffffffffffffffffffffffff1673ffffffffffffffffffffffffffffffffffffffff1681526020019081526020015f206001015f9054906101000a900473ffffffffffffffffffffffffffffffffffffffff1673ffffffffffffffffffffffffffffffffffffffff1603610e68576040517f08c379a0000000000000000000000000000000000000000000000000000000008152600401610e5f90614044565b60405180910390fd5b5f73ffffffffffffffffffffffffffffffffffffffff1660055f8581526020019081526020015f206005015f9054906101000a900473ffffffffffffffffffffffffffffffffffffffff1673ffffffffffffffffffffffffffffffffffffffff1603610f09576040517f08c379a0000000000000000000000000000000000000000000000000000000008152600401610f0090614560565b60405180910390fd5b5f8273ffffffffffffffffffffffffffffffffffffffff1660055f8681526020019081526020015f206005015f9054906101000a900473ffffffffffffffffffffffffffffffffffffffff1673ffffffffffffffffffffffffffffffffffffffff16149050837fde182422c60d08a3e491f609a62a1a48fa3876e4cbb962eb9c194de3000951a58483604051610fa092919061457e565b60405180910390a28091505092915050565b5f815111610ff5576040517f08c379a0000000000000000000000000000000000000000000000000000000008152600401610fec906145ef565b60405180910390fd5b5f73ffffffffffffffffffffffffffffffffffffffff165f803373ffffffffffffffffffffffffffffffffffffffff1673ffffffffffffffffffffffffffffffffffffffff1681526020019081526020015f206001015f9054906101000a900473ffffffffffffffffffffffffffffffffffffffff1673ffffffffffffffffffffffffffffffffffffffff16036110c1576040517f08c379a00000000000000000000000000000000000000000000000000000000081526004016110b890614044565b60405180910390fd5b5f6110ca612b09565b9050818051906020012081805190602001200361111c576040517f08c379a000000000000000000000000000000000000000000000000000000000815260040161111390614657565b60405180910390fd5b815f803373ffffffffffffffffffffffffffffffffffffffff1673ffffffffffffffffffffffffffffffffffffffff1681526020019081526020015f205f019081611167919061434f565b503373ffffffffffffffffffffffffffffffffffffffff167f1b7934654ba536b6962955e057ce42885353bbaad8c605a5ce0678e632f28410836040516111ae9190613cf6565b60405180910390a25050565b6111c26134f9565b5f73ffffffffffffffffffffffffffffffffffffffff165f803373ffffffffffffffffffffffffffffffffffffffff1673ffffffffffffffffffffffffffffffffffffffff1681526020019081526020015f206001015f9054906101000a900473ffffffffffffffffffffffffffffffffffffffff1673ffffffffffffffffffffffffffffffffffffffff160361128e576040517f08c379a000000000000000000000000000000000000000000000000000000000815260040161128590614044565b60405180910390fd5b5f73ffffffffffffffffffffffffffffffffffffffff1660055f8481526020019081526020015f206005015f9054906101000a900473ffffffffffffffffffffffffffffffffffffffff1673ffffffffffffffffffffffffffffffffffffffff160361132f576040517f08c379a000000000000000000000000000000000000000000000000000000000815260040161132690614560565b60405180910390fd5b60055f8381526020019081526020015f206005015f9054906101000a900473ffffffffffffffffffffffffffffffffffffffff1673ffffffffffffffffffffffffffffffffffffffff163373ffffffffffffffffffffffffffffffffffffffff16148061142857506040518060400160405280600781526020017f6d616e61676572000000000000000000000000000000000000000000000000008152508051906020012060015f3373ffffffffffffffffffffffffffffffffffffffff1673ffffffffffffffffffffffffffffffffffffffff1681526020019081526020015f2060405161141e9190613f56565b6040518091039020145b611467576040517f08c379a000000000000000000000000000000000000000000000000000000000815260040161145e906146bf565b60405180910390fd5b60055f8381526020019081526020015f20604051806101000160405290815f820154815260200160018201805461149d90613e8a565b80601f01602080910402602001604051908101604052809291908181526020018280546114c990613e8a565b80156115145780601f106114eb57610100808354040283529160200191611514565b820191905f5260205f20905b8154815290600101906020018083116114f757829003601f168201915b5050505050815260200160028201805461152d90613e8a565b80601f016020809104026020016040519081016040528092919081815260200182805461155990613e8a565b80156115a45780601f1061157b576101008083540402835291602001916115a4565b820191905f5260205f20905b81548152906001019060200180831161158757829003601f168201915b50505050508152602001600382015f9054906101000a900460ff1660028111156115d1576115d0613804565b5b60028111156115e3576115e2613804565b5b815260200160048201548152602001600582015f9054906101000a900473ffffffffffffffffffffffffffffffffffffffff1673ffffffffffffffffffffffffffffffffffffffff1673ffffffffffffffffffffffffffffffffffffffff1681526020016005820160149054906101000a900460ff161515151581526020016006820154815250509050919050565b60605f73ffffffffffffffffffffffffffffffffffffffff165f803373ffffffffffffffffffffffffffffffffffffffff1673ffffffffffffffffffffffffffffffffffffffff1681526020019081526020015f206001015f9054906101000a900473ffffffffffffffffffffffffffffffffffffffff1673ffffffffffffffffffffffffffffffffffffffff1603611740576040517f08c379a000000000000000000000000000000000000000000000000000000000815260040161173790614044565b60405180910390fd5b5f60065f3373ffffffffffffffffffffffffffffffffffffffff1673ffffffffffffffffffffffffffffffffffffffff1681526020019081526020015f208054806020026020016040519081016040528092919081815260200182805480156117c657602002820191905f5260205f20905b8154815260200190600101908083116117b2575b505050505090505f815111611810576040517f08c379a000000000000000000000000000000000000000000000000000000000815260040161180790614727565b60405180910390fd5b5f815167ffffffffffffffff81111561182c5761182b6135e5565b5b60405190808252806020026020018201604052801561186557816020015b6118526134f9565b81526020019060019003908161184a5790505b5090505f5b8251811015611abc5760055f848381518110611889576118886144e9565b5b602002602001015181526020019081526020015f20604051806101000160405290815f82015481526020016001820180546118c390613e8a565b80601f01602080910402602001604051908101604052809291908181526020018280546118ef90613e8a565b801561193a5780601f106119115761010080835404028352916020019161193a565b820191905f5260205f20905b81548152906001019060200180831161191d57829003601f168201915b5050505050815260200160028201805461195390613e8a565b80601f016020809104026020016040519081016040528092919081815260200182805461197f90613e8a565b80156119ca5780601f106119a1576101008083540402835291602001916119ca565b820191905f5260205f20905b8154815290600101906020018083116119ad57829003601f168201915b50505050508152602001600382015f9054906101000a900460ff1660028111156119f7576119f6613804565b5b6002811115611a0957611a08613804565b5b815260200160048201548152602001600582015f9054906101000a900473ffffffffffffffffffffffffffffffffffffffff1673ffffffffffffffffffffffffffffffffffffffff1673ffffffffffffffffffffffffffffffffffffffff1681526020016005820160149054906101000a900460ff16151515158152602001600682015481525050828281518110611aa457611aa36144e9565b5b6020026020010181905250808060010191505061186a565b50809250505090565b5f815111611b08576040517f08c379a0000000000000000000000000000000000000000000000000000000008152600401611aff9061478f565b60405180910390fd5b5f73ffffffffffffffffffffffffffffffffffffffff165f803373ffffffffffffffffffffffffffffffffffffffff1673ffffffffffffffffffffffffffffffffffffffff1681526020019081526020015f206001015f9054906101000a900473ffffffffffffffffffffffffffffffffffffffff1673ffffffffffffffffffffffffffffffffffffffff1614611bd4576040517f08c379a0000000000000000000000000000000000000000000000000000000008152600401611bcb9061481d565b60405180910390fd5b60405180604001604052808281526020013373ffffffffffffffffffffffffffffffffffffffff168152505f803373ffffffffffffffffffffffffffffffffffffffff1673ffffffffffffffffffffffffffffffffffffffff1681526020019081526020015f205f820151815f019081611c4e919061434f565b506020820151816001015f6101000a81548173ffffffffffffffffffffffffffffffffffffffff021916908373ffffffffffffffffffffffffffffffffffffffff1602179055509050503373ffffffffffffffffffffffffffffffffffffffff167f1b7934654ba536b6962955e057ce42885353bbaad8c605a5ce0678e632f2841082604051611cde9190613cf6565b60405180910390a250565b6040518060400160405280600781526020017f6d616e61676572000000000000000000000000000000000000000000000000008152508051906020012060015f3373ffffffffffffffffffffffffffffffffffffffff1673ffffffffffffffffffffffffffffffffffffffff1681526020019081526020015f20604051611d709190613f56565b604051809103902014611db8576040517f08c379a0000000000000000000000000000000000000000000000000000000008152600401611daf90613fb6565b60405180910390fd5b5f73ffffffffffffffffffffffffffffffffffffffff165f803373ffffffffffffffffffffffffffffffffffffffff1673ffffffffffffffffffffffffffffffffffffffff1681526020019081526020015f206001015f9054906101000a900473ffffffffffffffffffffffffffffffffffffffff1673ffffffffffffffffffffffffffffffffffffffff1603611e84576040517f08c379a0000000000000000000000000000000000000000000000000000000008152600401611e7b90614044565b60405180910390fd5b5f855111611ec7576040517f08c379a0000000000000000000000000000000000000000000000000000000008152600401611ebe90614885565b60405180910390fd5b5f845111611f0a576040517f08c379a0000000000000000000000000000000000000000000000000000000008152600401611f01906148ed565b60405180910390fd5b600280811115611f1d57611f1c613804565b5b836002811115611f3057611f2f613804565b5b1115611f71576040517f08c379a0000000000000000000000000000000000000000000000000000000008152600401611f689061497b565b60405180910390fd5b428211611fb3576040517f08c379a0000000000000000000000000000000000000000000000000000000008152600401611faa906149e3565b60405180910390fd5b6040518061010001604052806004548152602001868152602001858152602001846002811115611fe657611fe5613804565b5b81526020018381526020018273ffffffffffffffffffffffffffffffffffffffff1681526020015f151581526020015f81525060055f60045481526020019081526020015f205f820151815f01556020820151816001019081612049919061434f565b50604082015181600201908161205f919061434f565b506060820151816003015f6101000a81548160ff0219169083600281111561208a57612089613804565b5b02179055506080820151816004015560a0820151816005015f6101000a81548173ffffffffffffffffffffffffffffffffffffffff021916908373ffffffffffffffffffffffffffffffffffffffff16021790555060c08201518160050160146101000a81548160ff02191690831515021790555060e0820151816006015590505060065f8273ffffffffffffffffffffffffffffffffffffffff1673ffffffffffffffffffffffffffffffffffffffff1681526020019081526020015f20600454908060018154018082558091505060019003905f5260205f20015f90919091909150553373ffffffffffffffffffffffffffffffffffffffff167f3f9b921f6bb5d577cdf49122202d27f7c50e3cc981c47543dc4a59c00dee5229826004546040516121b9929190614a10565b60405180910390a260045f8154809291906121d390614a64565b91905055505050505050565b5f8073ffffffffffffffffffffffffffffffffffffffff165f803373ffffffffffffffffffffffffffffffffffffffff1673ffffffffffffffffffffffffffffffffffffffff1681526020019081526020015f206001015f9054906101000a900473ffffffffffffffffffffffffffffffffffffffff1673ffffffffffffffffffffffffffffffffffffffff16036122ac576040517f08c379a00000000000000000000000000000000000000000000000000000000081526004016122a390614044565b60405180910390fd5b5f73ffffffffffffffffffffffffffffffffffffffff1660055f8481526020019081526020015f206005015f9054906101000a900473ffffffffffffffffffffffffffffffffffffffff1673ffffffffffffffffffffffffffffffffffffffff160361234d576040517f08c379a000000000000000000000000000000000000000000000000000000000815260040161234490614560565b60405180910390fd5b5f60055f8481526020019081526020015f2060050160149054906101000a900460ff169050827f5b1d4634b3c10500ffedc8842916f2444f17b692faca086f941028797de87728826040516123a29190613a6a565b60405180910390a280915050919050565b6040518060400160405280600781526020017f6d616e61676572000000000000000000000000000000000000000000000000008152508051906020012060015f3373ffffffffffffffffffffffffffffffffffffffff1673ffffffffffffffffffffffffffffffffffffffff1681526020019081526020015f2060405161243a9190613f56565b604051809103902014612482576040517f08c379a000000000000000000000000000000000000000000000000000000000815260040161247990613fb6565b60405180910390fd5b5f73ffffffffffffffffffffffffffffffffffffffff165f803373ffffffffffffffffffffffffffffffffffffffff1673ffffffffffffffffffffffffffffffffffffffff1681526020019081526020015f206001015f9054906101000a900473ffffffffffffffffffffffffffffffffffffffff1673ffffffffffffffffffffffffffffffffffffffff160361254e576040517f08c379a000000000000000000000000000000000000000000000000000000000815260040161254590614044565b60405180910390fd5b8073ffffffffffffffffffffffffffffffffffffffff1660055f8481526020019081526020015f206005015f9054906101000a900473ffffffffffffffffffffffffffffffffffffffff1673ffffffffffffffffffffffffffffffffffffffff16036125ef576040517f08c379a00000000000000000000000000000000000000000000000000000000081526004016125e690614b1b565b60405180910390fd5b5f60055f8481526020019081526020015f206005015f9054906101000a900473ffffffffffffffffffffffffffffffffffffffff1690508160055f8581526020019081526020015f206005015f6101000a81548173ffffffffffffffffffffffffffffffffffffffff021916908373ffffffffffffffffffffffffffffffffffffffff1602179055505f60065f8373ffffffffffffffffffffffffffffffffffffffff1673ffffffffffffffffffffffffffffffffffffffff1681526020019081526020015f2090505f5b818054905081101561276957848282815481106126da576126d96144e9565b5b905f5260205f2001540361275c5781600183805490506126fa9190614b39565b8154811061270b5761270a6144e9565b5b905f5260205f200154828281548110612727576127266144e9565b5b905f5260205f2001819055508180548061274457612743614b6c565b5b600190038181905f5260205f20015f90559055612769565b80806001019150506126ba565b5060065f8473ffffffffffffffffffffffffffffffffffffffff1673ffffffffffffffffffffffffffffffffffffffff1681526020019081526020015f2084908060018154018082558091505060019003905f5260205f20015f90919091909150553373ffffffffffffffffffffffffffffffffffffffff167f0a836a77b7d869c0ecbc2d10f741a9cbdd750caf2459e4b97fac260346e14f328486604051612813929190614a10565b60405180910390a250505050565b6040518060400160405280600781526020017f6d616e61676572000000000000000000000000000000000000000000000000008152508051906020012060015f3373ffffffffffffffffffffffffffffffffffffffff1673ffffffffffffffffffffffffffffffffffffffff1681526020019081526020015f206040516128a89190613f56565b6040518091039020146128f0576040517f08c379a00000000000000000000000000000000000000000000000000000000081526004016128e790613fb6565b60405180910390fd5b5f73ffffffffffffffffffffffffffffffffffffffff165f803373ffffffffffffffffffffffffffffffffffffffff1673ffffffffffffffffffffffffffffffffffffffff1681526020019081526020015f206001015f9054906101000a900473ffffffffffffffffffffffffffffffffffffffff1673ffffffffffffffffffffffffffffffffffffffff16036129bc576040517f08c379a00000000000000000000000000000000000000000000000000000000081526004016129b390614044565b60405180910390fd5b5f8151116129ff576040517f08c379a00000000000000000000000000000000000000000000000000000000081526004016129f6906140ac565b60405180910390fd5b8060015f8473ffffffffffffffffffffffffffffffffffffffff1673ffffffffffffffffffffffffffffffffffffffff1681526020019081526020015f209081612a49919061434f565b5060025f8373ffffffffffffffffffffffffffffffffffffffff1673ffffffffffffffffffffffffffffffffffffffff1681526020019081526020015f2081908060018154018082558091505060019003905f5260205f20015f909190919091509081612ab6919061434f565b508173ffffffffffffffffffffffffffffffffffffffff167f3565795c2fb8842c21347d277937778bbcfe788b5b4f790fc5e408786cbe9c9082604051612afd9190613cf6565b60405180910390a25050565b60605f73ffffffffffffffffffffffffffffffffffffffff165f803373ffffffffffffffffffffffffffffffffffffffff1673ffffffffffffffffffffffffffffffffffffffff1681526020019081526020015f206001015f9054906101000a900473ffffffffffffffffffffffffffffffffffffffff1673ffffffffffffffffffffffffffffffffffffffff1603612bd7576040517f08c379a0000000000000000000000000000000000000000000000000000000008152600401612bce90614be3565b60405180910390fd5b5f803373ffffffffffffffffffffffffffffffffffffffff1673ffffffffffffffffffffffffffffffffffffffff1681526020019081526020015f205f018054612c2090613e8a565b80601f0160208091040260200160405190810160405280929190818152602001828054612c4c90613e8a565b8015612c975780601f10612c6e57610100808354040283529160200191612c97565b820191905f5260205f20905b815481529060010190602001808311612c7a57829003601f168201915b5050505050905090565b5f73ffffffffffffffffffffffffffffffffffffffff165f803373ffffffffffffffffffffffffffffffffffffffff1673ffffffffffffffffffffffffffffffffffffffff1681526020019081526020015f206001015f9054906101000a900473ffffffffffffffffffffffffffffffffffffffff1673ffffffffffffffffffffffffffffffffffffffff1603612d6d576040517f08c379a0000000000000000000000000000000000000000000000000000000008152600401612d6490614044565b60405180910390fd5b60055f8281526020019081526020015f206005015f9054906101000a900473ffffffffffffffffffffffffffffffffffffffff1673ffffffffffffffffffffffffffffffffffffffff163373ffffffffffffffffffffffffffffffffffffffff1614612e0e576040517f08c379a0000000000000000000000000000000000000000000000000000000008152600401612e05906146bf565b60405180910390fd5b60055f8281526020019081526020015f2060050160149054906101000a900460ff1615612e70576040517f08c379a0000000000000000000000000000000000000000000000000000000008152600401612e6790614c4b565b60405180910390fd5b600160055f8381526020019081526020015f2060050160146101000a81548160ff0219169083151502179055504260055f8381526020019081526020015f206006018190555060055f8281526020019081526020015f206005015f9054906101000a900473ffffffffffffffffffffffffffffffffffffffff1673ffffffffffffffffffffffffffffffffffffffff167ff684d89bb0f42287bf32838774e4b7f8a60c11804b3c6d1791fa55f30679264382604051612f2f9190614c69565b60405180910390a250565b5f8073ffffffffffffffffffffffffffffffffffffffff165f808673ffffffffffffffffffffffffffffffffffffffff1673ffffffffffffffffffffffffffffffffffffffff1681526020019081526020015f206001015f9054906101000a900473ffffffffffffffffffffffffffffffffffffffff1673ffffffffffffffffffffffffffffffffffffffff1603613007576040517f08c379a0000000000000000000000000000000000000000000000000000000008152600401612ffe90614cf2565b60405180910390fd5b5f60035f8673ffffffffffffffffffffffffffffffffffffffff1673ffffffffffffffffffffffffffffffffffffffff1681526020019081526020015f208054905011613089576040517f08c379a000000000000000000000000000000000000000000000000000000000815260040161308090614d80565b60405180910390fd5b5f60035f8673ffffffffffffffffffffffffffffffffffffffff1673ffffffffffffffffffffffffffffffffffffffff1681526020019081526020015f20600160035f8873ffffffffffffffffffffffffffffffffffffffff1673ffffffffffffffffffffffffffffffffffffffff1681526020019081526020015f20805490506131149190614b39565b81548110613125576131246144e9565b5b905f5260205f2090600402016040518060800160405290815f82015f9054906101000a900473ffffffffffffffffffffffffffffffffffffffff1673ffffffffffffffffffffffffffffffffffffffff1673ffffffffffffffffffffffffffffffffffffffff1681526020016001820180546131a090613e8a565b80601f01602080910402602001604051908101604052809291908181526020018280546131cc90613e8a565b80156132175780601f106131ee57610100808354040283529160200191613217565b820191905f5260205f20905b8154815290600101906020018083116131fa57829003601f168201915b505050505081526020016002820154815260200160038201548152505090505f816040015190505f858786856060015160405160200161325a9493929190614169565b6040516020818303038152906040528051906020012090505f81831490508673ffffffffffffffffffffffffffffffffffffffff167f743119e0f5c3443022e2e080183ceafc4ccb88f4c29fc6dbdab02412b993590887836040516132c0929190614d9e565b60405180910390a2809450505050509392505050565b60605f73ffffffffffffffffffffffffffffffffffffffff165f803373ffffffffffffffffffffffffffffffffffffffff1673ffffffffffffffffffffffffffffffffffffffff1681526020019081526020015f206001015f9054906101000a900473ffffffffffffffffffffffffffffffffffffffff1673ffffffffffffffffffffffffffffffffffffffff16036133a4576040517f08c379a000000000000000000000000000000000000000000000000000000000815260040161339b90614044565b60405180910390fd5b5f60025f3373ffffffffffffffffffffffffffffffffffffffff1673ffffffffffffffffffffffffffffffffffffffff1681526020019081526020015f20805480602002602001604051908101604052809291908181526020015f905b828210156134a9578382905f5260205f2001805461341e90613e8a565b80601f016020809104026020016040519081016040528092919081815260200182805461344a90613e8a565b80156134955780601f1061346c57610100808354040283529160200191613495565b820191905f5260205f20905b81548152906001019060200180831161347857829003601f168201915b505050505081526020019060010190613401565b5050505090505f8151116134f2576040517f08c379a00000000000000000000000000000000000000000000000000000000081526004016134e990614e16565b60405180910390fd5b8091505090565b6040518061010001604052805f815260200160608152602001606081526020015f600281111561352c5761352b613804565b5b81526020015f81526020015f73ffffffffffffffffffffffffffffffffffffffff1681526020015f151581526020015f81525090565b5f604051905090565b5f80fd5b5f80fd5b5f73ffffffffffffffffffffffffffffffffffffffff82169050919050565b5f61359c82613573565b9050919050565b6135ac81613592565b81146135b6575f80fd5b50565b5f813590506135c7816135a3565b92915050565b5f80fd5b5f80fd5b5f601f19601f8301169050919050565b7f4e487b71000000000000000000000000000000000000000000000000000000005f52604160045260245ffd5b61361b826135d5565b810181811067ffffffffffffffff8211171561363a576136396135e5565b5b80604052505050565b5f61364c613562565b90506136588282613612565b919050565b5f67ffffffffffffffff821115613677576136766135e5565b5b613680826135d5565b9050602081019050919050565b828183375f83830152505050565b5f6136ad6136a88461365d565b613643565b9050828152602081018484840111156136c9576136c86135d1565b5b6136d484828561368d565b509392505050565b5f82601f8301126136f0576136ef6135cd565b5b813561370084826020860161369b565b91505092915050565b5f806040838503121561371f5761371e61356b565b5b5f61372c858286016135b9565b925050602083013567ffffffffffffffff81111561374d5761374c61356f565b5b613759858286016136dc565b9150509250929050565b5f81519050919050565b5f82825260208201905092915050565b5f819050602082019050919050565b5f819050919050565b61379e8161378c565b82525050565b5f81519050919050565b5f82825260208201905092915050565b8281835e5f83830152505050565b5f6137d6826137a4565b6137e081856137ae565b93506137f08185602086016137be565b6137f9816135d5565b840191505092915050565b7f4e487b71000000000000000000000000000000000000000000000000000000005f52602160045260245ffd5b6003811061384257613841613804565b5b50565b5f81905061385282613831565b919050565b5f61386182613845565b9050919050565b61387181613857565b82525050565b61388081613592565b82525050565b5f8115159050919050565b61389a81613886565b82525050565b5f61010083015f8301516138b65f860182613795565b50602083015184820360208601526138ce82826137cc565b915050604083015184820360408601526138e882826137cc565b91505060608301516138fd6060860182613868565b5060808301516139106080860182613795565b5060a083015161392360a0860182613877565b5060c083015161393660c0860182613891565b5060e083015161394960e0860182613795565b508091505092915050565b5f61395f83836138a0565b905092915050565b5f602082019050919050565b5f61397d82613763565b613987818561376d565b9350836020820285016139998561377d565b805f5b858110156139d457848403895281516139b58582613954565b94506139c083613967565b925060208a0199505060018101905061399c565b50829750879550505050505092915050565b5f6020820190508181035f8301526139fe8184613973565b905092915050565b613a0f8161378c565b8114613a19575f80fd5b50565b5f81359050613a2a81613a06565b92915050565b5f60208284031215613a4557613a4461356b565b5b5f613a5284828501613a1c565b91505092915050565b613a6481613886565b82525050565b5f602082019050613a7d5f830184613a5b565b92915050565b5f8060408385031215613a9957613a9861356b565b5b5f613aa685828601613a1c565b9250506020613ab7858286016135b9565b9150509250929050565b5f60208284031215613ad657613ad561356b565b5b5f82013567ffffffffffffffff811115613af357613af261356f565b5b613aff848285016136dc565b91505092915050565b5f61010083015f830151613b1e5f860182613795565b5060208301518482036020860152613b3682826137cc565b91505060408301518482036040860152613b5082826137cc565b9150506060830151613b656060860182613868565b506080830151613b786080860182613795565b5060a0830151613b8b60a0860182613877565b5060c0830151613b9e60c0860182613891565b5060e0830151613bb160e0860182613795565b508091505092915050565b5f6020820190508181035f830152613bd48184613b08565b905092915050565b60038110613be8575f80fd5b50565b5f81359050613bf981613bdc565b92915050565b5f805f805f60a08688031215613c1857613c1761356b565b5b5f86013567ffffffffffffffff811115613c3557613c3461356f565b5b613c41888289016136dc565b955050602086013567ffffffffffffffff811115613c6257613c6161356f565b5b613c6e888289016136dc565b9450506040613c7f88828901613beb565b9350506060613c9088828901613a1c565b9250506080613ca1888289016135b9565b9150509295509295909350565b5f82825260208201905092915050565b5f613cc8826137a4565b613cd28185613cae565b9350613ce28185602086016137be565b613ceb816135d5565b840191505092915050565b5f6020820190508181035f830152613d0e8184613cbe565b905092915050565b5f805f60608486031215613d2d57613d2c61356b565b5b5f613d3a868287016135b9565b9350506020613d4b868287016135b9565b925050604084013567ffffffffffffffff811115613d6c57613d6b61356f565b5b613d78868287016136dc565b9150509250925092565b5f81519050919050565b5f82825260208201905092915050565b5f819050602082019050919050565b5f613db683836137cc565b905092915050565b5f602082019050919050565b5f613dd482613d82565b613dde8185613d8c565b935083602082028501613df085613d9c565b805f5b85811015613e2b5784840389528151613e0c8582613dab565b9450613e1783613dbe565b925060208a01995050600181019050613df3565b50829750879550505050505092915050565b5f6020820190508181035f830152613e558184613dca565b905092915050565b7f4e487b71000000000000000000000000000000000000000000000000000000005f52602260045260245ffd5b5f6002820490506001821680613ea157607f821691505b602082108103613eb457613eb3613e5d565b5b50919050565b5f81905092915050565b5f819050815f5260205f209050919050565b5f8154613ee281613e8a565b613eec8186613eba565b9450600182165f8114613f065760018114613f1b57613f4d565b60ff1983168652811515820286019350613f4d565b613f2485613ec4565b5f5b83811015613f4557815481890152600182019150602081019050613f26565b838801955050505b50505092915050565b5f613f618284613ed6565b915081905092915050565b7f556e617574686f72697a656420616374696f6e000000000000000000000000005f82015250565b5f613fa0601383613cae565b9150613fab82613f6c565b602082019050919050565b5f6020820190508181035f830152613fcd81613f94565b9050919050565b7f4e6f206578697374696e672044494420666f756e6420666f72207468697320615f8201527f6464726573730000000000000000000000000000000000000000000000000000602082015250565b5f61402e602683613cae565b915061403982613fd4565b604082019050919050565b5f6020820190508181035f83015261405b81614022565b9050919050565b7f526f6c652063616e6e6f7420626520656d7074790000000000000000000000005f82015250565b5f614096601483613cae565b91506140a182614062565b602082019050919050565b5f6020820190508181035f8301526140c38161408a565b9050919050565b5f8160601b9050919050565b5f6140e0826140ca565b9050919050565b5f6140f1826140d6565b9050919050565b61410961410482613592565b6140e7565b82525050565b5f81905092915050565b5f614123826137a4565b61412d818561410f565b935061413d8185602086016137be565b80840191505092915050565b5f819050919050565b61416361415e8261378c565b614149565b82525050565b5f61417482876140f8565b60148201915061418482866140f8565b6014820191506141948285614119565b91506141a08284614152565b60208201915081905095945050505050565b5f819050815f5260205f209050919050565b5f6020601f8301049050919050565b5f82821b905092915050565b5f6008830261420e7fffffffffffffffffffffffffffffffffffffffffffffffffffffffffffffffff826141d3565b61421886836141d3565b95508019841693508086168417925050509392505050565b5f819050919050565b5f61425361424e6142498461378c565b614230565b61378c565b9050919050565b5f819050919050565b61426c83614239565b6142806142788261425a565b8484546141df565b825550505050565b5f90565b614294614288565b61429f818484614263565b505050565b5b818110156142c2576142b75f8261428c565b6001810190506142a5565b5050565b601f821115614307576142d8816141b2565b6142e1846141c4565b810160208510156142f0578190505b6143046142fc856141c4565b8301826142a4565b50505b505050565b5f82821c905092915050565b5f6143275f198460080261430c565b1980831691505092915050565b5f61433f8383614318565b9150826002028217905092915050565b614358826137a4565b67ffffffffffffffff811115614371576143706135e5565b5b61437b8254613e8a565b6143868282856142c6565b5f60209050601f8311600181146143b7575f84156143a5578287015190505b6143af8582614334565b865550614416565b601f1984166143c5866141b2565b5f5b828110156143ec578489015182556001820191506020850194506020810190506143c7565b868310156144095784890151614405601f891682614318565b8355505b6001600288020188555050505b505050505050565b61442781613592565b82525050565b5f819050919050565b61443f8161442d565b82525050565b5f6060820190506144585f83018661441e565b818103602083015261446a8185613cbe565b90506144796040830184614436565b949350505050565b7f4e6f207461736b732068617665206265656e2061737369676e656400000000005f82015250565b5f6144b5601b83613cae565b91506144c082614481565b602082019050919050565b5f6020820190508181035f8301526144e2816144a9565b9050919050565b7f4e487b71000000000000000000000000000000000000000000000000000000005f52603260045260245ffd5b7f5461736b206e6f7420666f756e640000000000000000000000000000000000005f82015250565b5f61454a600e83613cae565b915061455582614516565b602082019050919050565b5f6020820190508181035f8301526145778161453e565b9050919050565b5f6040820190506145915f83018561441e565b61459e6020830184613a5b565b9392505050565b7f4e6577206964656e7469666965722063616e6e6f7420626520656d70747900005f82015250565b5f6145d9601e83613cae565b91506145e4826145a5565b602082019050919050565b5f6020820190508181035f830152614606816145cd565b9050919050565b7f496e76616c6964206e6577206964656e746966696572000000000000000000005f82015250565b5f614641601683613cae565b915061464c8261460d565b602082019050919050565b5f6020820190508181035f83015261466e81614635565b9050919050565b7f4e6f7420617574686f72697a65640000000000000000000000000000000000005f82015250565b5f6146a9600e83613cae565b91506146b482614675565b602082019050919050565b5f6020820190508181035f8301526146d68161469d565b9050919050565b7f596f752068617665206e6f207461736b730000000000000000000000000000005f82015250565b5f614711601183613cae565b915061471c826146dd565b602082019050919050565b5f6020820190508181035f83015261473e81614705565b9050919050565b7f4964656e7469666965722063616e6e6f7420626520656d7074790000000000005f82015250565b5f614779601a83613cae565b915061478482614745565b602082019050919050565b5f6020820190508181035f8301526147a68161476d565b9050919050565b7f44494420616c72656164792065786973747320666f72207468697320616464725f8201527f6573730000000000000000000000000000000000000000000000000000000000602082015250565b5f614807602383613cae565b9150614812826147ad565b604082019050919050565b5f6020820190508181035f830152614834816147fb565b9050919050565b7f5469746c652063616e6e6f7420626520656d70747900000000000000000000005f82015250565b5f61486f601583613cae565b915061487a8261483b565b602082019050919050565b5f6020820190508181035f83015261489c81614863565b9050919050565b7f4465736372697074696f6e2063616e6e6f7420626520656d70747900000000005f82015250565b5f6148d7601b83613cae565b91506148e2826148a3565b602082019050919050565b5f6020820190508181035f830152614904816148cb565b9050919050565b7f5072696f72697479206f7574206f662072616e676520284c6f773a20302c204d5f8201527f656469756d3a20312c20486967683a2032290000000000000000000000000000602082015250565b5f614965603283613cae565b91506149708261490b565b604082019050919050565b5f6020820190508181035f83015261499281614959565b9050919050565b7f4475652064617465206d75737420626520696e207468652066757475726500005f82015250565b5f6149cd601e83613cae565b91506149d882614999565b602082019050919050565b5f6020820190508181035f8301526149fa816149c1565b9050919050565b614a0a8161378c565b82525050565b5f604082019050614a235f83018561441e565b614a306020830184614a01565b9392505050565b7f4e487b71000000000000000000000000000000000000000000000000000000005f52601160045260245ffd5b5f614a6e8261378c565b91507fffffffffffffffffffffffffffffffffffffffffffffffffffffffffffffffff8203614aa057614a9f614a37565b5b600182019050919050565b7f54686973207461736b20616c72656164792062656c6f6e67656420746f2074685f8201527f6520757365720000000000000000000000000000000000000000000000000000602082015250565b5f614b05602683613cae565b9150614b1082614aab565b604082019050919050565b5f6020820190508181035f830152614b3281614af9565b9050919050565b5f614b438261378c565b9150614b4e8361378c565b9250828203905081811115614b6657614b65614a37565b5b92915050565b7f4e487b71000000000000000000000000000000000000000000000000000000005f52603160045260245ffd5b7f4e6f2044494420666f756e6420666f72207468697320616464726573730000005f82015250565b5f614bcd601d83613cae565b9150614bd882614b99565b602082019050919050565b5f6020820190508181035f830152614bfa81614bc1565b9050919050565b7f5461736b20616c726561647920636f6d706c65746564000000000000000000005f82015250565b5f614c35601683613cae565b9150614c4082614c01565b602082019050919050565b5f6020820190508181035f830152614c6281614c29565b9050919050565b5f602082019050614c7c5f830184614a01565b92915050565b7f4e6f206578697374696e672044494420666f756e6420666f72207468697320755f8201527f7365720000000000000000000000000000000000000000000000000000000000602082015250565b5f614cdc602383613cae565b9150614ce782614c82565b604082019050919050565b5f6020820190508181035f830152614d0981614cd0565b9050919050565b7f5573657220646f6573206e6f74206861766520616e792063726564656e7469615f8201527f6c00000000000000000000000000000000000000000000000000000000000000602082015250565b5f614d6a602183613cae565b9150614d7582614d10565b604082019050919050565b5f6020820190508181035f830152614d9781614d5e565b9050919050565b5f6040820190508181035f830152614db68185613cbe565b9050614dc56020830184613a5b565b9392505050565b7f4e6f20726f6c65732061737369676e656420666f7220746869732075736572005f82015250565b5f614e00601f83613cae565b9150614e0b82614dcc565b602082019050919050565b5f6020820190508181035f830152614e2d81614df4565b905091905056fea26469706673582212201d8df872a862e1c20098c027c4672fa3a491878ee42d35cab49530b965f8699e64736f6c634300081a0033",
					"opcodes": "PUSH1 0x80 PUSH1 0x40 MSTORE PUSH0 PUSH1 0x4 SSTORE CALLVALUE DUP1 ISZERO PUSH2 0x13 JUMPI PUSH0 DUP1 REVERT JUMPDEST POP PUSH1 0x40 MLOAD DUP1 PUSH1 0x40 ADD PUSH1 0x40 MSTORE DUP1 PUSH1 0x7 DUP2 MSTORE PUSH1 0x20 ADD PUSH32 0x6D616E6167657200000000000000000000000000000000000000000000000000 DUP2 MSTORE POP PUSH1 0x1 PUSH0 CALLER PUSH20 0xFFFFFFFFFFFFFFFFFFFFFFFFFFFFFFFFFFFFFFFF AND PUSH20 0xFFFFFFFFFFFFFFFFFFFFFFFFFFFFFFFFFFFFFFFF AND DUP2 MSTORE PUSH1 0x20 ADD SWAP1 DUP2 MSTORE PUSH1 0x20 ADD PUSH0 KECCAK256 SWAP1 DUP2 PUSH2 0x93 SWAP2 SWAP1 PUSH2 0x372 JUMP JUMPDEST POP PUSH1 0x2 PUSH0 CALLER PUSH20 0xFFFFFFFFFFFFFFFFFFFFFFFFFFFFFFFFFFFFFFFF AND PUSH20 0xFFFFFFFFFFFFFFFFFFFFFFFFFFFFFFFFFFFFFFFF AND DUP2 MSTORE PUSH1 0x20 ADD SWAP1 DUP2 MSTORE PUSH1 0x20 ADD PUSH0 KECCAK256 DUP1 PUSH1 0x1 DUP2 SLOAD ADD DUP1 DUP3 SSTORE DUP1 SWAP2 POP POP PUSH1 0x1 SWAP1 SUB SWAP1 PUSH0 MSTORE PUSH1 0x20 PUSH0 KECCAK256 ADD PUSH0 PUSH1 0x40 MLOAD DUP1 PUSH1 0x40 ADD PUSH1 0x40 MSTORE DUP1 PUSH1 0x7 DUP2 MSTORE PUSH1 0x20 ADD PUSH32 0x6D616E6167657200000000000000000000000000000000000000000000000000 DUP2 MSTORE POP SWAP1 SWAP2 SWAP1 SWAP2 POP SWAP1 DUP2 PUSH2 0x132 SWAP2 SWAP1 PUSH2 0x372 JUMP JUMPDEST POP PUSH2 0x441 JUMP JUMPDEST PUSH0 DUP2 MLOAD SWAP1 POP SWAP2 SWAP1 POP JUMP JUMPDEST PUSH32 0x4E487B7100000000000000000000000000000000000000000000000000000000 PUSH0 MSTORE PUSH1 0x41 PUSH1 0x4 MSTORE PUSH1 0x24 PUSH0 REVERT JUMPDEST PUSH32 0x4E487B7100000000000000000000000000000000000000000000000000000000 PUSH0 MSTORE PUSH1 0x22 PUSH1 0x4 MSTORE PUSH1 0x24 PUSH0 REVERT JUMPDEST PUSH0 PUSH1 0x2 DUP3 DIV SWAP1 POP PUSH1 0x1 DUP3 AND DUP1 PUSH2 0x1B3 JUMPI PUSH1 0x7F DUP3 AND SWAP2 POP JUMPDEST PUSH1 0x20 DUP3 LT DUP2 SUB PUSH2 0x1C6 JUMPI PUSH2 0x1C5 PUSH2 0x16F JUMP JUMPDEST JUMPDEST POP SWAP2 SWAP1 POP JUMP JUMPDEST PUSH0 DUP2 SWAP1 POP DUP2 PUSH0 MSTORE PUSH1 0x20 PUSH0 KECCAK256 SWAP1 POP SWAP2 SWAP1 POP JUMP JUMPDEST PUSH0 PUSH1 0x20 PUSH1 0x1F DUP4 ADD DIV SWAP1 POP SWAP2 SWAP1 POP JUMP JUMPDEST PUSH0 DUP3 DUP3 SHL SWAP1 POP SWAP3 SWAP2 POP POP JUMP JUMPDEST PUSH0 PUSH1 0x8 DUP4 MUL PUSH2 0x228 PUSH32 0xFFFFFFFFFFFFFFFFFFFFFFFFFFFFFFFFFFFFFFFFFFFFFFFFFFFFFFFFFFFFFFFF DUP3 PUSH2 0x1ED JUMP JUMPDEST PUSH2 0x232 DUP7 DUP4 PUSH2 0x1ED JUMP JUMPDEST SWAP6 POP DUP1 NOT DUP5 AND SWAP4 POP DUP1 DUP7 AND DUP5 OR SWAP3 POP POP POP SWAP4 SWAP3 POP POP POP JUMP JUMPDEST PUSH0 DUP2 SWAP1 POP SWAP2 SWAP1 POP JUMP JUMPDEST PUSH0 DUP2 SWAP1 POP SWAP2 SWAP1 POP JUMP JUMPDEST PUSH0 PUSH2 0x276 PUSH2 0x271 PUSH2 0x26C DUP5 PUSH2 0x24A JUMP JUMPDEST PUSH2 0x253 JUMP JUMPDEST PUSH2 0x24A JUMP JUMPDEST SWAP1 POP SWAP2 SWAP1 POP JUMP JUMPDEST PUSH0 DUP2 SWAP1 POP SWAP2 SWAP1 POP JUMP JUMPDEST PUSH2 0x28F DUP4 PUSH2 0x25C JUMP JUMPDEST PUSH2 0x2A3 PUSH2 0x29B DUP3 PUSH2 0x27D JUMP JUMPDEST DUP5 DUP5 SLOAD PUSH2 0x1F9 JUMP JUMPDEST DUP3 SSTORE POP POP POP POP JUMP JUMPDEST PUSH0 SWAP1 JUMP JUMPDEST PUSH2 0x2B7 PUSH2 0x2AB JUMP JUMPDEST PUSH2 0x2C2 DUP2 DUP5 DUP5 PUSH2 0x286 JUMP JUMPDEST POP POP POP JUMP JUMPDEST JUMPDEST DUP2 DUP2 LT ISZERO PUSH2 0x2E5 JUMPI PUSH2 0x2DA PUSH0 DUP3 PUSH2 0x2AF JUMP JUMPDEST PUSH1 0x1 DUP2 ADD SWAP1 POP PUSH2 0x2C8 JUMP JUMPDEST POP POP JUMP JUMPDEST PUSH1 0x1F DUP3 GT ISZERO PUSH2 0x32A JUMPI PUSH2 0x2FB DUP2 PUSH2 0x1CC JUMP JUMPDEST PUSH2 0x304 DUP5 PUSH2 0x1DE JUMP JUMPDEST DUP2 ADD PUSH1 0x20 DUP6 LT ISZERO PUSH2 0x313 JUMPI DUP2 SWAP1 POP JUMPDEST PUSH2 0x327 PUSH2 0x31F DUP6 PUSH2 0x1DE JUMP JUMPDEST DUP4 ADD DUP3 PUSH2 0x2C7 JUMP JUMPDEST POP POP JUMPDEST POP POP POP JUMP JUMPDEST PUSH0 DUP3 DUP3 SHR SWAP1 POP SWAP3 SWAP2 POP POP JUMP JUMPDEST PUSH0 PUSH2 0x34A PUSH0 NOT DUP5 PUSH1 0x8 MUL PUSH2 0x32F JUMP JUMPDEST NOT DUP1 DUP4 AND SWAP2 POP POP SWAP3 SWAP2 POP POP JUMP JUMPDEST PUSH0 PUSH2 0x362 DUP4 DUP4 PUSH2 0x33B JUMP JUMPDEST SWAP2 POP DUP3 PUSH1 0x2 MUL DUP3 OR SWAP1 POP SWAP3 SWAP2 POP POP JUMP JUMPDEST PUSH2 0x37B DUP3 PUSH2 0x138 JUMP JUMPDEST PUSH8 0xFFFFFFFFFFFFFFFF DUP2 GT ISZERO PUSH2 0x394 JUMPI PUSH2 0x393 PUSH2 0x142 JUMP JUMPDEST JUMPDEST PUSH2 0x39E DUP3 SLOAD PUSH2 0x19C JUMP JUMPDEST PUSH2 0x3A9 DUP3 DUP3 DUP6 PUSH2 0x2E9 JUMP JUMPDEST PUSH0 PUSH1 0x20 SWAP1 POP PUSH1 0x1F DUP4 GT PUSH1 0x1 DUP2 EQ PUSH2 0x3DA JUMPI PUSH0 DUP5 ISZERO PUSH2 0x3C8 JUMPI DUP3 DUP8 ADD MLOAD SWAP1 POP JUMPDEST PUSH2 0x3D2 DUP6 DUP3 PUSH2 0x357 JUMP JUMPDEST DUP7 SSTORE POP PUSH2 0x439 JUMP JUMPDEST PUSH1 0x1F NOT DUP5 AND PUSH2 0x3E8 DUP7 PUSH2 0x1CC JUMP JUMPDEST PUSH0 JUMPDEST DUP3 DUP2 LT ISZERO PUSH2 0x40F JUMPI DUP5 DUP10 ADD MLOAD DUP3 SSTORE PUSH1 0x1 DUP3 ADD SWAP2 POP PUSH1 0x20 DUP6 ADD SWAP5 POP PUSH1 0x20 DUP2 ADD SWAP1 POP PUSH2 0x3EA JUMP JUMPDEST DUP7 DUP4 LT ISZERO PUSH2 0x42C JUMPI DUP5 DUP10 ADD MLOAD PUSH2 0x428 PUSH1 0x1F DUP10 AND DUP3 PUSH2 0x33B JUMP JUMPDEST DUP4 SSTORE POP JUMPDEST PUSH1 0x1 PUSH1 0x2 DUP9 MUL ADD DUP9 SSTORE POP POP POP JUMPDEST POP POP POP POP POP POP JUMP JUMPDEST PUSH2 0x4E6A DUP1 PUSH2 0x44E PUSH0 CODECOPY PUSH0 RETURN INVALID PUSH1 0x80 PUSH1 0x40 MSTORE CALLVALUE DUP1 ISZERO PUSH2 0xF JUMPI PUSH0 DUP1 REVERT JUMPDEST POP PUSH1 0x4 CALLDATASIZE LT PUSH2 0xFE JUMPI PUSH0 CALLDATALOAD PUSH1 0xE0 SHR DUP1 PUSH4 0x4505E299 GT PUSH2 0x95 JUMPI DUP1 PUSH4 0xBC9C2D55 GT PUSH2 0x64 JUMPI DUP1 PUSH4 0xBC9C2D55 EQ PUSH2 0x2A6 JUMPI DUP1 PUSH4 0xE1E29558 EQ PUSH2 0x2C4 JUMPI DUP1 PUSH4 0xE4F0C22B EQ PUSH2 0x2E0 JUMPI DUP1 PUSH4 0xFDE08174 EQ PUSH2 0x310 JUMPI PUSH2 0xFE JUMP JUMPDEST DUP1 PUSH4 0x4505E299 EQ PUSH2 0x222 JUMPI DUP1 PUSH4 0x6C03A898 EQ PUSH2 0x23E JUMPI DUP1 PUSH4 0x6F6B07DB EQ PUSH2 0x26E JUMPI DUP1 PUSH4 0xB7DFCBEE EQ PUSH2 0x28A JUMPI PUSH2 0xFE JUMP JUMPDEST DUP1 PUSH4 0x14C95832 GT PUSH2 0xD1 JUMPI DUP1 PUSH4 0x14C95832 EQ PUSH2 0x19C JUMPI DUP1 PUSH4 0x1D65E77E EQ PUSH2 0x1B8 JUMPI DUP1 PUSH4 0x34112F5F EQ PUSH2 0x1E8 JUMPI DUP1 PUSH4 0x3457D3E2 EQ PUSH2 0x206 JUMPI PUSH2 0xFE JUMP JUMPDEST DUP1 PUSH4 0x22BF9C1 EQ PUSH2 0x102 JUMPI DUP1 PUSH4 0x4A87E38 EQ PUSH2 0x11E JUMPI DUP1 PUSH4 0x96F8494 EQ PUSH2 0x13C JUMPI DUP1 PUSH4 0x10668264 EQ PUSH2 0x16C JUMPI JUMPDEST PUSH0 DUP1 REVERT JUMPDEST PUSH2 0x11C PUSH1 0x4 DUP1 CALLDATASIZE SUB DUP2 ADD SWAP1 PUSH2 0x117 SWAP2 SWAP1 PUSH2 0x3709 JUMP JUMPDEST PUSH2 0x32E JUMP JUMPDEST STOP JUMPDEST PUSH2 0x126 PUSH2 0x755 JUMP JUMPDEST PUSH1 0x40 MLOAD PUSH2 0x133 SWAP2 SWAP1 PUSH2 0x39E6 JUMP JUMPDEST PUSH1 0x40 MLOAD DUP1 SWAP2 SUB SWAP1 RETURN JUMPDEST PUSH2 0x156 PUSH1 0x4 DUP1 CALLDATASIZE SUB DUP2 ADD SWAP1 PUSH2 0x151 SWAP2 SWAP1 PUSH2 0x3A30 JUMP JUMPDEST PUSH2 0xBD2 JUMP JUMPDEST PUSH1 0x40 MLOAD PUSH2 0x163 SWAP2 SWAP1 PUSH2 0x3A6A JUMP JUMPDEST PUSH1 0x40 MLOAD DUP1 SWAP2 SUB SWAP1 RETURN JUMPDEST PUSH2 0x186 PUSH1 0x4 DUP1 CALLDATASIZE SUB DUP2 ADD SWAP1 PUSH2 0x181 SWAP2 SWAP1 PUSH2 0x3A83 JUMP JUMPDEST PUSH2 0xD9B JUMP JUMPDEST PUSH1 0x40 MLOAD PUSH2 0x193 SWAP2 SWAP1 PUSH2 0x3A6A JUMP JUMPDEST PUSH1 0x40 MLOAD DUP1 SWAP2 SUB SWAP1 RETURN JUMPDEST PUSH2 0x1B6 PUSH1 0x4 DUP1 CALLDATASIZE SUB DUP2 ADD SWAP1 PUSH2 0x1B1 SWAP2 SWAP1 PUSH2 0x3AC1 JUMP JUMPDEST PUSH2 0xFB2 JUMP JUMPDEST STOP JUMPDEST PUSH2 0x1D2 PUSH1 0x4 DUP1 CALLDATASIZE SUB DUP2 ADD SWAP1 PUSH2 0x1CD SWAP2 SWAP1 PUSH2 0x3A30 JUMP JUMPDEST PUSH2 0x11BA JUMP JUMPDEST PUSH1 0x40 MLOAD PUSH2 0x1DF SWAP2 SWAP1 PUSH2 0x3BBC JUMP JUMPDEST PUSH1 0x40 MLOAD DUP1 SWAP2 SUB SWAP1 RETURN JUMPDEST PUSH2 0x1F0 PUSH2 0x1672 JUMP JUMPDEST PUSH1 0x40 MLOAD PUSH2 0x1FD SWAP2 SWAP1 PUSH2 0x39E6 JUMP JUMPDEST PUSH1 0x40 MLOAD DUP1 SWAP2 SUB SWAP1 RETURN JUMPDEST PUSH2 0x220 PUSH1 0x4 DUP1 CALLDATASIZE SUB DUP2 ADD SWAP1 PUSH2 0x21B SWAP2 SWAP1 PUSH2 0x3AC1 JUMP JUMPDEST PUSH2 0x1AC5 JUMP JUMPDEST STOP JUMPDEST PUSH2 0x23C PUSH1 0x4 DUP1 CALLDATASIZE SUB DUP2 ADD SWAP1 PUSH2 0x237 SWAP2 SWAP1 PUSH2 0x3BFF JUMP JUMPDEST PUSH2 0x1CE9 JUMP JUMPDEST STOP JUMPDEST PUSH2 0x258 PUSH1 0x4 DUP1 CALLDATASIZE SUB DUP2 ADD SWAP1 PUSH2 0x253 SWAP2 SWAP1 PUSH2 0x3A30 JUMP JUMPDEST PUSH2 0x21DF JUMP JUMPDEST PUSH1 0x40 MLOAD PUSH2 0x265 SWAP2 SWAP1 PUSH2 0x3A6A JUMP JUMPDEST PUSH1 0x40 MLOAD DUP1 SWAP2 SUB SWAP1 RETURN JUMPDEST PUSH2 0x288 PUSH1 0x4 DUP1 CALLDATASIZE SUB DUP2 ADD SWAP1 PUSH2 0x283 SWAP2 SWAP1 PUSH2 0x3A83 JUMP JUMPDEST PUSH2 0x23B3 JUMP JUMPDEST STOP JUMPDEST PUSH2 0x2A4 PUSH1 0x4 DUP1 CALLDATASIZE SUB DUP2 ADD SWAP1 PUSH2 0x29F SWAP2 SWAP1 PUSH2 0x3709 JUMP JUMPDEST PUSH2 0x2821 JUMP JUMPDEST STOP JUMPDEST PUSH2 0x2AE PUSH2 0x2B09 JUMP JUMPDEST PUSH1 0x40 MLOAD PUSH2 0x2BB SWAP2 SWAP1 PUSH2 0x3CF6 JUMP JUMPDEST PUSH1 0x40 MLOAD DUP1 SWAP2 SUB SWAP1 RETURN JUMPDEST PUSH2 0x2DE PUSH1 0x4 DUP1 CALLDATASIZE SUB DUP2 ADD SWAP1 PUSH2 0x2D9 SWAP2 SWAP1 PUSH2 0x3A30 JUMP JUMPDEST PUSH2 0x2CA1 JUMP JUMPDEST STOP JUMPDEST PUSH2 0x2FA PUSH1 0x4 DUP1 CALLDATASIZE SUB DUP2 ADD SWAP1 PUSH2 0x2F5 SWAP2 SWAP1 PUSH2 0x3D16 JUMP JUMPDEST PUSH2 0x2F3A JUMP JUMPDEST PUSH1 0x40 MLOAD PUSH2 0x307 SWAP2 SWAP1 PUSH2 0x3A6A JUMP JUMPDEST PUSH1 0x40 MLOAD DUP1 SWAP2 SUB SWAP1 RETURN JUMPDEST PUSH2 0x318 PUSH2 0x32D6 JUMP JUMPDEST PUSH1 0x40 MLOAD PUSH2 0x325 SWAP2 SWAP1 PUSH2 0x3E3D JUMP JUMPDEST PUSH1 0x40 MLOAD DUP1 SWAP2 SUB SWAP1 RETURN JUMPDEST PUSH1 0x40 MLOAD DUP1 PUSH1 0x40 ADD PUSH1 0x40 MSTORE DUP1 PUSH1 0x7 DUP2 MSTORE PUSH1 0x20 ADD PUSH32 0x6D616E6167657200000000000000000000000000000000000000000000000000 DUP2 MSTORE POP DUP1 MLOAD SWAP1 PUSH1 0x20 ADD KECCAK256 PUSH1 0x1 PUSH0 CALLER PUSH20 0xFFFFFFFFFFFFFFFFFFFFFFFFFFFFFFFFFFFFFFFF AND PUSH20 0xFFFFFFFFFFFFFFFFFFFFFFFFFFFFFFFFFFFFFFFF AND DUP2 MSTORE PUSH1 0x20 ADD SWAP1 DUP2 MSTORE PUSH1 0x20 ADD PUSH0 KECCAK256 PUSH1 0x40 MLOAD PUSH2 0x3B5 SWAP2 SWAP1 PUSH2 0x3F56 JUMP JUMPDEST PUSH1 0x40 MLOAD DUP1 SWAP2 SUB SWAP1 KECCAK256 EQ PUSH2 0x3FD JUMPI PUSH1 0x40 MLOAD PUSH32 0x8C379A000000000000000000000000000000000000000000000000000000000 DUP2 MSTORE PUSH1 0x4 ADD PUSH2 0x3F4 SWAP1 PUSH2 0x3FB6 JUMP JUMPDEST PUSH1 0x40 MLOAD DUP1 SWAP2 SUB SWAP1 REVERT JUMPDEST PUSH0 PUSH20 0xFFFFFFFFFFFFFFFFFFFFFFFFFFFFFFFFFFFFFFFF AND PUSH0 DUP1 CALLER PUSH20 0xFFFFFFFFFFFFFFFFFFFFFFFFFFFFFFFFFFFFFFFF AND PUSH20 0xFFFFFFFFFFFFFFFFFFFFFFFFFFFFFFFFFFFFFFFF AND DUP2 MSTORE PUSH1 0x20 ADD SWAP1 DUP2 MSTORE PUSH1 0x20 ADD PUSH0 KECCAK256 PUSH1 0x1 ADD PUSH0 SWAP1 SLOAD SWAP1 PUSH2 0x100 EXP SWAP1 DIV PUSH20 0xFFFFFFFFFFFFFFFFFFFFFFFFFFFFFFFFFFFFFFFF AND PUSH20 0xFFFFFFFFFFFFFFFFFFFFFFFFFFFFFFFFFFFFFFFF AND SUB PUSH2 0x4C9 JUMPI PUSH1 0x40 MLOAD PUSH32 0x8C379A000000000000000000000000000000000000000000000000000000000 DUP2 MSTORE PUSH1 0x4 ADD PUSH2 0x4C0 SWAP1 PUSH2 0x4044 JUMP JUMPDEST PUSH1 0x40 MLOAD DUP1 SWAP2 SUB SWAP1 REVERT JUMPDEST PUSH0 DUP2 MLOAD GT PUSH2 0x50C JUMPI PUSH1 0x40 MLOAD PUSH32 0x8C379A000000000000000000000000000000000000000000000000000000000 DUP2 MSTORE PUSH1 0x4 ADD PUSH2 0x503 SWAP1 PUSH2 0x40AC JUMP JUMPDEST PUSH1 0x40 MLOAD DUP1 SWAP2 SUB SWAP1 REVERT JUMPDEST PUSH0 CALLER DUP4 DUP4 TIMESTAMP PUSH1 0x40 MLOAD PUSH1 0x20 ADD PUSH2 0x524 SWAP5 SWAP4 SWAP3 SWAP2 SWAP1 PUSH2 0x4169 JUMP JUMPDEST PUSH1 0x40 MLOAD PUSH1 0x20 DUP2 DUP4 SUB SUB DUP2 MSTORE SWAP1 PUSH1 0x40 MSTORE DUP1 MLOAD SWAP1 PUSH1 0x20 ADD KECCAK256 SWAP1 POP PUSH1 0x3 PUSH0 DUP5 PUSH20 0xFFFFFFFFFFFFFFFFFFFFFFFFFFFFFFFFFFFFFFFF AND PUSH20 0xFFFFFFFFFFFFFFFFFFFFFFFFFFFFFFFFFFFFFFFF AND DUP2 MSTORE PUSH1 0x20 ADD SWAP1 DUP2 MSTORE PUSH1 0x20 ADD PUSH0 KECCAK256 PUSH1 0x40 MLOAD DUP1 PUSH1 0x80 ADD PUSH1 0x40 MSTORE DUP1 CALLER PUSH20 0xFFFFFFFFFFFFFFFFFFFFFFFFFFFFFFFFFFFFFFFF AND DUP2 MSTORE PUSH1 0x20 ADD DUP5 DUP2 MSTORE PUSH1 0x20 ADD DUP4 DUP2 MSTORE PUSH1 0x20 ADD TIMESTAMP DUP2 MSTORE POP SWAP1 DUP1 PUSH1 0x1 DUP2 SLOAD ADD DUP1 DUP3 SSTORE DUP1 SWAP2 POP POP PUSH1 0x1 SWAP1 SUB SWAP1 PUSH0 MSTORE PUSH1 0x20 PUSH0 KECCAK256 SWAP1 PUSH1 0x4 MUL ADD PUSH0 SWAP1 SWAP2 SWAP1 SWAP2 SWAP1 SWAP2 POP PUSH0 DUP3 ADD MLOAD DUP2 PUSH0 ADD PUSH0 PUSH2 0x100 EXP DUP2 SLOAD DUP2 PUSH20 0xFFFFFFFFFFFFFFFFFFFFFFFFFFFFFFFFFFFFFFFF MUL NOT AND SWAP1 DUP4 PUSH20 0xFFFFFFFFFFFFFFFFFFFFFFFFFFFFFFFFFFFFFFFF AND MUL OR SWAP1 SSTORE POP PUSH1 0x20 DUP3 ADD MLOAD DUP2 PUSH1 0x1 ADD SWAP1 DUP2 PUSH2 0x62F SWAP2 SWAP1 PUSH2 0x434F JUMP JUMPDEST POP PUSH1 0x40 DUP3 ADD MLOAD DUP2 PUSH1 0x2 ADD SSTORE PUSH1 0x60 DUP3 ADD MLOAD DUP2 PUSH1 0x3 ADD SSTORE POP POP DUP2 PUSH1 0x1 PUSH0 DUP6 PUSH20 0xFFFFFFFFFFFFFFFFFFFFFFFFFFFFFFFFFFFFFFFF AND PUSH20 0xFFFFFFFFFFFFFFFFFFFFFFFFFFFFFFFFFFFFFFFF AND DUP2 MSTORE PUSH1 0x20 ADD SWAP1 DUP2 MSTORE PUSH1 0x20 ADD PUSH0 KECCAK256 SWAP1 DUP2 PUSH2 0x690 SWAP2 SWAP1 PUSH2 0x434F JUMP JUMPDEST POP PUSH1 0x2 PUSH0 DUP5 PUSH20 0xFFFFFFFFFFFFFFFFFFFFFFFFFFFFFFFFFFFFFFFF AND PUSH20 0xFFFFFFFFFFFFFFFFFFFFFFFFFFFFFFFFFFFFFFFF AND DUP2 MSTORE PUSH1 0x20 ADD SWAP1 DUP2 MSTORE PUSH1 0x20 ADD PUSH0 KECCAK256 DUP3 SWAP1 DUP1 PUSH1 0x1 DUP2 SLOAD ADD DUP1 DUP3 SSTORE DUP1 SWAP2 POP POP PUSH1 0x1 SWAP1 SUB SWAP1 PUSH0 MSTORE PUSH1 0x20 PUSH0 KECCAK256 ADD PUSH0 SWAP1 SWAP2 SWAP1 SWAP2 SWAP1 SWAP2 POP SWAP1 DUP2 PUSH2 0x6FD SWAP2 SWAP1 PUSH2 0x434F JUMP JUMPDEST POP CALLER PUSH20 0xFFFFFFFFFFFFFFFFFFFFFFFFFFFFFFFFFFFFFFFF AND PUSH32 0xF4313CB022699889C6EDDB590E42342301CDAE4824FD424FFDFDEB23D4CDBBE9 DUP5 DUP5 DUP5 PUSH1 0x40 MLOAD PUSH2 0x748 SWAP4 SWAP3 SWAP2 SWAP1 PUSH2 0x4445 JUMP JUMPDEST PUSH1 0x40 MLOAD DUP1 SWAP2 SUB SWAP1 LOG2 POP POP POP JUMP JUMPDEST PUSH1 0x60 PUSH1 0x40 MLOAD DUP1 PUSH1 0x40 ADD PUSH1 0x40 MSTORE DUP1 PUSH1 0x7 DUP2 MSTORE PUSH1 0x20 ADD PUSH32 0x6D616E6167657200000000000000000000000000000000000000000000000000 DUP2 MSTORE POP DUP1 MLOAD SWAP1 PUSH1 0x20 ADD KECCAK256 PUSH1 0x1 PUSH0 CALLER PUSH20 0xFFFFFFFFFFFFFFFFFFFFFFFFFFFFFFFFFFFFFFFF AND PUSH20 0xFFFFFFFFFFFFFFFFFFFFFFFFFFFFFFFFFFFFFFFF AND DUP2 MSTORE PUSH1 0x20 ADD SWAP1 DUP2 MSTORE PUSH1 0x20 ADD PUSH0 KECCAK256 PUSH1 0x40 MLOAD PUSH2 0x7DE SWAP2 SWAP1 PUSH2 0x3F56 JUMP JUMPDEST PUSH1 0x40 MLOAD DUP1 SWAP2 SUB SWAP1 KECCAK256 EQ PUSH2 0x826 JUMPI PUSH1 0x40 MLOAD PUSH32 0x8C379A000000000000000000000000000000000000000000000000000000000 DUP2 MSTORE PUSH1 0x4 ADD PUSH2 0x81D SWAP1 PUSH2 0x3FB6 JUMP JUMPDEST PUSH1 0x40 MLOAD DUP1 SWAP2 SUB SWAP1 REVERT JUMPDEST PUSH0 PUSH20 0xFFFFFFFFFFFFFFFFFFFFFFFFFFFFFFFFFFFFFFFF AND PUSH0 DUP1 CALLER PUSH20 0xFFFFFFFFFFFFFFFFFFFFFFFFFFFFFFFFFFFFFFFF AND PUSH20 0xFFFFFFFFFFFFFFFFFFFFFFFFFFFFFFFFFFFFFFFF AND DUP2 MSTORE PUSH1 0x20 ADD SWAP1 DUP2 MSTORE PUSH1 0x20 ADD PUSH0 KECCAK256 PUSH1 0x1 ADD PUSH0 SWAP1 SLOAD SWAP1 PUSH2 0x100 EXP SWAP1 DIV PUSH20 0xFFFFFFFFFFFFFFFFFFFFFFFFFFFFFFFFFFFFFFFF AND PUSH20 0xFFFFFFFFFFFFFFFFFFFFFFFFFFFFFFFFFFFFFFFF AND SUB PUSH2 0x8F2 JUMPI PUSH1 0x40 MLOAD PUSH32 0x8C379A000000000000000000000000000000000000000000000000000000000 DUP2 MSTORE PUSH1 0x4 ADD PUSH2 0x8E9 SWAP1 PUSH2 0x4044 JUMP JUMPDEST PUSH1 0x40 MLOAD DUP1 SWAP2 SUB SWAP1 REVERT JUMPDEST PUSH0 PUSH1 0x4 SLOAD GT PUSH2 0x936 JUMPI PUSH1 0x40 MLOAD PUSH32 0x8C379A000000000000000000000000000000000000000000000000000000000 DUP2 MSTORE PUSH1 0x4 ADD PUSH2 0x92D SWAP1 PUSH2 0x44CB JUMP JUMPDEST PUSH1 0x40 MLOAD DUP1 SWAP2 SUB SWAP1 REVERT JUMPDEST PUSH0 PUSH1 0x4 SLOAD PUSH8 0xFFFFFFFFFFFFFFFF DUP2 GT ISZERO PUSH2 0x953 JUMPI PUSH2 0x952 PUSH2 0x35E5 JUMP JUMPDEST JUMPDEST PUSH1 0x40 MLOAD SWAP1 DUP1 DUP3 MSTORE DUP1 PUSH1 0x20 MUL PUSH1 0x20 ADD DUP3 ADD PUSH1 0x40 MSTORE DUP1 ISZERO PUSH2 0x98C JUMPI DUP2 PUSH1 0x20 ADD JUMPDEST PUSH2 0x979 PUSH2 0x34F9 JUMP JUMPDEST DUP2 MSTORE PUSH1 0x20 ADD SWAP1 PUSH1 0x1 SWAP1 SUB SWAP1 DUP2 PUSH2 0x971 JUMPI SWAP1 POP JUMPDEST POP SWAP1 POP PUSH0 JUMPDEST PUSH1 0x4 SLOAD DUP2 LT ISZERO PUSH2 0xBCA JUMPI PUSH1 0x5 PUSH0 DUP3 DUP2 MSTORE PUSH1 0x20 ADD SWAP1 DUP2 MSTORE PUSH1 0x20 ADD PUSH0 KECCAK256 PUSH1 0x40 MLOAD DUP1 PUSH2 0x100 ADD PUSH1 0x40 MSTORE SWAP1 DUP2 PUSH0 DUP3 ADD SLOAD DUP2 MSTORE PUSH1 0x20 ADD PUSH1 0x1 DUP3 ADD DUP1 SLOAD PUSH2 0x9D1 SWAP1 PUSH2 0x3E8A JUMP JUMPDEST DUP1 PUSH1 0x1F ADD PUSH1 0x20 DUP1 SWAP2 DIV MUL PUSH1 0x20 ADD PUSH1 0x40 MLOAD SWAP1 DUP2 ADD PUSH1 0x40 MSTORE DUP1 SWAP3 SWAP2 SWAP1 DUP2 DUP2 MSTORE PUSH1 0x20 ADD DUP3 DUP1 SLOAD PUSH2 0x9FD SWAP1 PUSH2 0x3E8A JUMP JUMPDEST DUP1 ISZERO PUSH2 0xA48 JUMPI DUP1 PUSH1 0x1F LT PUSH2 0xA1F JUMPI PUSH2 0x100 DUP1 DUP4 SLOAD DIV MUL DUP4 MSTORE SWAP2 PUSH1 0x20 ADD SWAP2 PUSH2 0xA48 JUMP JUMPDEST DUP3 ADD SWAP2 SWAP1 PUSH0 MSTORE PUSH1 0x20 PUSH0 KECCAK256 SWAP1 JUMPDEST DUP2 SLOAD DUP2 MSTORE SWAP1 PUSH1 0x1 ADD SWAP1 PUSH1 0x20 ADD DUP1 DUP4 GT PUSH2 0xA2B JUMPI DUP3 SWAP1 SUB PUSH1 0x1F AND DUP3 ADD SWAP2 JUMPDEST POP POP POP POP POP DUP2 MSTORE PUSH1 0x20 ADD PUSH1 0x2 DUP3 ADD DUP1 SLOAD PUSH2 0xA61 SWAP1 PUSH2 0x3E8A JUMP JUMPDEST DUP1 PUSH1 0x1F ADD PUSH1 0x20 DUP1 SWAP2 DIV MUL PUSH1 0x20 ADD PUSH1 0x40 MLOAD SWAP1 DUP2 ADD PUSH1 0x40 MSTORE DUP1 SWAP3 SWAP2 SWAP1 DUP2 DUP2 MSTORE PUSH1 0x20 ADD DUP3 DUP1 SLOAD PUSH2 0xA8D SWAP1 PUSH2 0x3E8A JUMP JUMPDEST DUP1 ISZERO PUSH2 0xAD8 JUMPI DUP1 PUSH1 0x1F LT PUSH2 0xAAF JUMPI PUSH2 0x100 DUP1 DUP4 SLOAD DIV MUL DUP4 MSTORE SWAP2 PUSH1 0x20 ADD SWAP2 PUSH2 0xAD8 JUMP JUMPDEST DUP3 ADD SWAP2 SWAP1 PUSH0 MSTORE PUSH1 0x20 PUSH0 KECCAK256 SWAP1 JUMPDEST DUP2 SLOAD DUP2 MSTORE SWAP1 PUSH1 0x1 ADD SWAP1 PUSH1 0x20 ADD DUP1 DUP4 GT PUSH2 0xABB JUMPI DUP3 SWAP1 SUB PUSH1 0x1F AND DUP3 ADD SWAP2 JUMPDEST POP POP POP POP POP DUP2 MSTORE PUSH1 0x20 ADD PUSH1 0x3 DUP3 ADD PUSH0 SWAP1 SLOAD SWAP1 PUSH2 0x100 EXP SWAP1 DIV PUSH1 0xFF AND PUSH1 0x2 DUP2 GT ISZERO PUSH2 0xB05 JUMPI PUSH2 0xB04 PUSH2 0x3804 JUMP JUMPDEST JUMPDEST PUSH1 0x2 DUP2 GT ISZERO PUSH2 0xB17 JUMPI PUSH2 0xB16 PUSH2 0x3804 JUMP JUMPDEST JUMPDEST DUP2 MSTORE PUSH1 0x20 ADD PUSH1 0x4 DUP3 ADD SLOAD DUP2 MSTORE PUSH1 0x20 ADD PUSH1 0x5 DUP3 ADD PUSH0 SWAP1 SLOAD SWAP1 PUSH2 0x100 EXP SWAP1 DIV PUSH20 0xFFFFFFFFFFFFFFFFFFFFFFFFFFFFFFFFFFFFFFFF AND PUSH20 0xFFFFFFFFFFFFFFFFFFFFFFFFFFFFFFFFFFFFFFFF AND PUSH20 0xFFFFFFFFFFFFFFFFFFFFFFFFFFFFFFFFFFFFFFFF AND DUP2 MSTORE PUSH1 0x20 ADD PUSH1 0x5 DUP3 ADD PUSH1 0x14 SWAP1 SLOAD SWAP1 PUSH2 0x100 EXP SWAP1 DIV PUSH1 0xFF AND ISZERO ISZERO ISZERO ISZERO DUP2 MSTORE PUSH1 0x20 ADD PUSH1 0x6 DUP3 ADD SLOAD DUP2 MSTORE POP POP DUP3 DUP3 DUP2 MLOAD DUP2 LT PUSH2 0xBB2 JUMPI PUSH2 0xBB1 PUSH2 0x44E9 JUMP JUMPDEST JUMPDEST PUSH1 0x20 MUL PUSH1 0x20 ADD ADD DUP2 SWAP1 MSTORE POP DUP1 DUP1 PUSH1 0x1 ADD SWAP2 POP POP PUSH2 0x991 JUMP JUMPDEST POP DUP1 SWAP2 POP POP SWAP1 JUMP JUMPDEST PUSH0 DUP1 PUSH20 0xFFFFFFFFFFFFFFFFFFFFFFFFFFFFFFFFFFFFFFFF AND PUSH0 DUP1 CALLER PUSH20 0xFFFFFFFFFFFFFFFFFFFFFFFFFFFFFFFFFFFFFFFF AND PUSH20 0xFFFFFFFFFFFFFFFFFFFFFFFFFFFFFFFFFFFFFFFF AND DUP2 MSTORE PUSH1 0x20 ADD SWAP1 DUP2 MSTORE PUSH1 0x20 ADD PUSH0 KECCAK256 PUSH1 0x1 ADD PUSH0 SWAP1 SLOAD SWAP1 PUSH2 0x100 EXP SWAP1 DIV PUSH20 0xFFFFFFFFFFFFFFFFFFFFFFFFFFFFFFFFFFFFFFFF AND PUSH20 0xFFFFFFFFFFFFFFFFFFFFFFFFFFFFFFFFFFFFFFFF AND SUB PUSH2 0xC9F JUMPI PUSH1 0x40 MLOAD PUSH32 0x8C379A000000000000000000000000000000000000000000000000000000000 DUP2 MSTORE PUSH1 0x4 ADD PUSH2 0xC96 SWAP1 PUSH2 0x4044 JUMP JUMPDEST PUSH1 0x40 MLOAD DUP1 SWAP2 SUB SWAP1 REVERT JUMPDEST PUSH0 PUSH20 0xFFFFFFFFFFFFFFFFFFFFFFFFFFFFFFFFFFFFFFFF AND PUSH1 0x5 PUSH0 DUP5 DUP2 MSTORE PUSH1 0x20 ADD SWAP1 DUP2 MSTORE PUSH1 0x20 ADD PUSH0 KECCAK256 PUSH1 0x5 ADD PUSH0 SWAP1 SLOAD SWAP1 PUSH2 0x100 EXP SWAP1 DIV PUSH20 0xFFFFFFFFFFFFFFFFFFFFFFFFFFFFFFFFFFFFFFFF AND PUSH20 0xFFFFFFFFFFFFFFFFFFFFFFFFFFFFFFFFFFFFFFFF AND SUB PUSH2 0xD40 JUMPI PUSH1 0x40 MLOAD PUSH32 0x8C379A000000000000000000000000000000000000000000000000000000000 DUP2 MSTORE PUSH1 0x4 ADD PUSH2 0xD37 SWAP1 PUSH2 0x4560 JUMP JUMPDEST PUSH1 0x40 MLOAD DUP1 SWAP2 SUB SWAP1 REVERT JUMPDEST PUSH0 TIMESTAMP PUSH1 0x5 PUSH0 DUP6 DUP2 MSTORE PUSH1 0x20 ADD SWAP1 DUP2 MSTORE PUSH1 0x20 ADD PUSH0 KECCAK256 PUSH1 0x4 ADD SLOAD GT SWAP1 POP DUP3 PUSH32 0x98839D14E1C6921E1109E3F12466427E93A0B41DA8E46E903A23A78E3E471DCD DUP3 PUSH1 0x40 MLOAD PUSH2 0xD8A SWAP2 SWAP1 PUSH2 0x3A6A JUMP JUMPDEST PUSH1 0x40 MLOAD DUP1 SWAP2 SUB SWAP1 LOG2 DUP1 SWAP2 POP POP SWAP2 SWAP1 POP JUMP JUMPDEST PUSH0 DUP1 PUSH20 0xFFFFFFFFFFFFFFFFFFFFFFFFFFFFFFFFFFFFFFFF AND PUSH0 DUP1 CALLER PUSH20 0xFFFFFFFFFFFFFFFFFFFFFFFFFFFFFFFFFFFFFFFF AND PUSH20 0xFFFFFFFFFFFFFFFFFFFFFFFFFFFFFFFFFFFFFFFF AND DUP2 MSTORE PUSH1 0x20 ADD SWAP1 DUP2 MSTORE PUSH1 0x20 ADD PUSH0 KECCAK256 PUSH1 0x1 ADD PUSH0 SWAP1 SLOAD SWAP1 PUSH2 0x100 EXP SWAP1 DIV PUSH20 0xFFFFFFFFFFFFFFFFFFFFFFFFFFFFFFFFFFFFFFFF AND PUSH20 0xFFFFFFFFFFFFFFFFFFFFFFFFFFFFFFFFFFFFFFFF AND SUB PUSH2 0xE68 JUMPI PUSH1 0x40 MLOAD PUSH32 0x8C379A000000000000000000000000000000000000000000000000000000000 DUP2 MSTORE PUSH1 0x4 ADD PUSH2 0xE5F SWAP1 PUSH2 0x4044 JUMP JUMPDEST PUSH1 0x40 MLOAD DUP1 SWAP2 SUB SWAP1 REVERT JUMPDEST PUSH0 PUSH20 0xFFFFFFFFFFFFFFFFFFFFFFFFFFFFFFFFFFFFFFFF AND PUSH1 0x5 PUSH0 DUP6 DUP2 MSTORE PUSH1 0x20 ADD SWAP1 DUP2 MSTORE PUSH1 0x20 ADD PUSH0 KECCAK256 PUSH1 0x5 ADD PUSH0 SWAP1 SLOAD SWAP1 PUSH2 0x100 EXP SWAP1 DIV PUSH20 0xFFFFFFFFFFFFFFFFFFFFFFFFFFFFFFFFFFFFFFFF AND PUSH20 0xFFFFFFFFFFFFFFFFFFFFFFFFFFFFFFFFFFFFFFFF AND SUB PUSH2 0xF09 JUMPI PUSH1 0x40 MLOAD PUSH32 0x8C379A000000000000000000000000000000000000000000000000000000000 DUP2 MSTORE PUSH1 0x4 ADD PUSH2 0xF00 SWAP1 PUSH2 0x4560 JUMP JUMPDEST PUSH1 0x40 MLOAD DUP1 SWAP2 SUB SWAP1 REVERT JUMPDEST PUSH0 DUP3 PUSH20 0xFFFFFFFFFFFFFFFFFFFFFFFFFFFFFFFFFFFFFFFF AND PUSH1 0x5 PUSH0 DUP7 DUP2 MSTORE PUSH1 0x20 ADD SWAP1 DUP2 MSTORE PUSH1 0x20 ADD PUSH0 KECCAK256 PUSH1 0x5 ADD PUSH0 SWAP1 SLOAD SWAP1 PUSH2 0x100 EXP SWAP1 DIV PUSH20 0xFFFFFFFFFFFFFFFFFFFFFFFFFFFFFFFFFFFFFFFF AND PUSH20 0xFFFFFFFFFFFFFFFFFFFFFFFFFFFFFFFFFFFFFFFF AND EQ SWAP1 POP DUP4 PUSH32 0xDE182422C60D08A3E491F609A62A1A48FA3876E4CBB962EB9C194DE3000951A5 DUP5 DUP4 PUSH1 0x40 MLOAD PUSH2 0xFA0 SWAP3 SWAP2 SWAP1 PUSH2 0x457E JUMP JUMPDEST PUSH1 0x40 MLOAD DUP1 SWAP2 SUB SWAP1 LOG2 DUP1 SWAP2 POP POP SWAP3 SWAP2 POP POP JUMP JUMPDEST PUSH0 DUP2 MLOAD GT PUSH2 0xFF5 JUMPI PUSH1 0x40 MLOAD PUSH32 0x8C379A000000000000000000000000000000000000000000000000000000000 DUP2 MSTORE PUSH1 0x4 ADD PUSH2 0xFEC SWAP1 PUSH2 0x45EF JUMP JUMPDEST PUSH1 0x40 MLOAD DUP1 SWAP2 SUB SWAP1 REVERT JUMPDEST PUSH0 PUSH20 0xFFFFFFFFFFFFFFFFFFFFFFFFFFFFFFFFFFFFFFFF AND PUSH0 DUP1 CALLER PUSH20 0xFFFFFFFFFFFFFFFFFFFFFFFFFFFFFFFFFFFFFFFF AND PUSH20 0xFFFFFFFFFFFFFFFFFFFFFFFFFFFFFFFFFFFFFFFF AND DUP2 MSTORE PUSH1 0x20 ADD SWAP1 DUP2 MSTORE PUSH1 0x20 ADD PUSH0 KECCAK256 PUSH1 0x1 ADD PUSH0 SWAP1 SLOAD SWAP1 PUSH2 0x100 EXP SWAP1 DIV PUSH20 0xFFFFFFFFFFFFFFFFFFFFFFFFFFFFFFFFFFFFFFFF AND PUSH20 0xFFFFFFFFFFFFFFFFFFFFFFFFFFFFFFFFFFFFFFFF AND SUB PUSH2 0x10C1 JUMPI PUSH1 0x40 MLOAD PUSH32 0x8C379A000000000000000000000000000000000000000000000000000000000 DUP2 MSTORE PUSH1 0x4 ADD PUSH2 0x10B8 SWAP1 PUSH2 0x4044 JUMP JUMPDEST PUSH1 0x40 MLOAD DUP1 SWAP2 SUB SWAP1 REVERT JUMPDEST PUSH0 PUSH2 0x10CA PUSH2 0x2B09 JUMP JUMPDEST SWAP1 POP DUP2 DUP1 MLOAD SWAP1 PUSH1 0x20 ADD KECCAK256 DUP2 DUP1 MLOAD SWAP1 PUSH1 0x20 ADD KECCAK256 SUB PUSH2 0x111C JUMPI PUSH1 0x40 MLOAD PUSH32 0x8C379A000000000000000000000000000000000000000000000000000000000 DUP2 MSTORE PUSH1 0x4 ADD PUSH2 0x1113 SWAP1 PUSH2 0x4657 JUMP JUMPDEST PUSH1 0x40 MLOAD DUP1 SWAP2 SUB SWAP1 REVERT JUMPDEST DUP2 PUSH0 DUP1 CALLER PUSH20 0xFFFFFFFFFFFFFFFFFFFFFFFFFFFFFFFFFFFFFFFF AND PUSH20 0xFFFFFFFFFFFFFFFFFFFFFFFFFFFFFFFFFFFFFFFF AND DUP2 MSTORE PUSH1 0x20 ADD SWAP1 DUP2 MSTORE PUSH1 0x20 ADD PUSH0 KECCAK256 PUSH0 ADD SWAP1 DUP2 PUSH2 0x1167 SWAP2 SWAP1 PUSH2 0x434F JUMP JUMPDEST POP CALLER PUSH20 0xFFFFFFFFFFFFFFFFFFFFFFFFFFFFFFFFFFFFFFFF AND PUSH32 0x1B7934654BA536B6962955E057CE42885353BBAAD8C605A5CE0678E632F28410 DUP4 PUSH1 0x40 MLOAD PUSH2 0x11AE SWAP2 SWAP1 PUSH2 0x3CF6 JUMP JUMPDEST PUSH1 0x40 MLOAD DUP1 SWAP2 SUB SWAP1 LOG2 POP POP JUMP JUMPDEST PUSH2 0x11C2 PUSH2 0x34F9 JUMP JUMPDEST PUSH0 PUSH20 0xFFFFFFFFFFFFFFFFFFFFFFFFFFFFFFFFFFFFFFFF AND PUSH0 DUP1 CALLER PUSH20 0xFFFFFFFFFFFFFFFFFFFFFFFFFFFFFFFFFFFFFFFF AND PUSH20 0xFFFFFFFFFFFFFFFFFFFFFFFFFFFFFFFFFFFFFFFF AND DUP2 MSTORE PUSH1 0x20 ADD SWAP1 DUP2 MSTORE PUSH1 0x20 ADD PUSH0 KECCAK256 PUSH1 0x1 ADD PUSH0 SWAP1 SLOAD SWAP1 PUSH2 0x100 EXP SWAP1 DIV PUSH20 0xFFFFFFFFFFFFFFFFFFFFFFFFFFFFFFFFFFFFFFFF AND PUSH20 0xFFFFFFFFFFFFFFFFFFFFFFFFFFFFFFFFFFFFFFFF AND SUB PUSH2 0x128E JUMPI PUSH1 0x40 MLOAD PUSH32 0x8C379A000000000000000000000000000000000000000000000000000000000 DUP2 MSTORE PUSH1 0x4 ADD PUSH2 0x1285 SWAP1 PUSH2 0x4044 JUMP JUMPDEST PUSH1 0x40 MLOAD DUP1 SWAP2 SUB SWAP1 REVERT JUMPDEST PUSH0 PUSH20 0xFFFFFFFFFFFFFFFFFFFFFFFFFFFFFFFFFFFFFFFF AND PUSH1 0x5 PUSH0 DUP5 DUP2 MSTORE PUSH1 0x20 ADD SWAP1 DUP2 MSTORE PUSH1 0x20 ADD PUSH0 KECCAK256 PUSH1 0x5 ADD PUSH0 SWAP1 SLOAD SWAP1 PUSH2 0x100 EXP SWAP1 DIV PUSH20 0xFFFFFFFFFFFFFFFFFFFFFFFFFFFFFFFFFFFFFFFF AND PUSH20 0xFFFFFFFFFFFFFFFFFFFFFFFFFFFFFFFFFFFFFFFF AND SUB PUSH2 0x132F JUMPI PUSH1 0x40 MLOAD PUSH32 0x8C379A000000000000000000000000000000000000000000000000000000000 DUP2 MSTORE PUSH1 0x4 ADD PUSH2 0x1326 SWAP1 PUSH2 0x4560 JUMP JUMPDEST PUSH1 0x40 MLOAD DUP1 SWAP2 SUB SWAP1 REVERT JUMPDEST PUSH1 0x5 PUSH0 DUP4 DUP2 MSTORE PUSH1 0x20 ADD SWAP1 DUP2 MSTORE PUSH1 0x20 ADD PUSH0 KECCAK256 PUSH1 0x5 ADD PUSH0 SWAP1 SLOAD SWAP1 PUSH2 0x100 EXP SWAP1 DIV PUSH20 0xFFFFFFFFFFFFFFFFFFFFFFFFFFFFFFFFFFFFFFFF AND PUSH20 0xFFFFFFFFFFFFFFFFFFFFFFFFFFFFFFFFFFFFFFFF AND CALLER PUSH20 0xFFFFFFFFFFFFFFFFFFFFFFFFFFFFFFFFFFFFFFFF AND EQ DUP1 PUSH2 0x1428 JUMPI POP PUSH1 0x40 MLOAD DUP1 PUSH1 0x40 ADD PUSH1 0x40 MSTORE DUP1 PUSH1 0x7 DUP2 MSTORE PUSH1 0x20 ADD PUSH32 0x6D616E6167657200000000000000000000000000000000000000000000000000 DUP2 MSTORE POP DUP1 MLOAD SWAP1 PUSH1 0x20 ADD KECCAK256 PUSH1 0x1 PUSH0 CALLER PUSH20 0xFFFFFFFFFFFFFFFFFFFFFFFFFFFFFFFFFFFFFFFF AND PUSH20 0xFFFFFFFFFFFFFFFFFFFFFFFFFFFFFFFFFFFFFFFF AND DUP2 MSTORE PUSH1 0x20 ADD SWAP1 DUP2 MSTORE PUSH1 0x20 ADD PUSH0 KECCAK256 PUSH1 0x40 MLOAD PUSH2 0x141E SWAP2 SWAP1 PUSH2 0x3F56 JUMP JUMPDEST PUSH1 0x40 MLOAD DUP1 SWAP2 SUB SWAP1 KECCAK256 EQ JUMPDEST PUSH2 0x1467 JUMPI PUSH1 0x40 MLOAD PUSH32 0x8C379A000000000000000000000000000000000000000000000000000000000 DUP2 MSTORE PUSH1 0x4 ADD PUSH2 0x145E SWAP1 PUSH2 0x46BF JUMP JUMPDEST PUSH1 0x40 MLOAD DUP1 SWAP2 SUB SWAP1 REVERT JUMPDEST PUSH1 0x5 PUSH0 DUP4 DUP2 MSTORE PUSH1 0x20 ADD SWAP1 DUP2 MSTORE PUSH1 0x20 ADD PUSH0 KECCAK256 PUSH1 0x40 MLOAD DUP1 PUSH2 0x100 ADD PUSH1 0x40 MSTORE SWAP1 DUP2 PUSH0 DUP3 ADD SLOAD DUP2 MSTORE PUSH1 0x20 ADD PUSH1 0x1 DUP3 ADD DUP1 SLOAD PUSH2 0x149D SWAP1 PUSH2 0x3E8A JUMP JUMPDEST DUP1 PUSH1 0x1F ADD PUSH1 0x20 DUP1 SWAP2 DIV MUL PUSH1 0x20 ADD PUSH1 0x40 MLOAD SWAP1 DUP2 ADD PUSH1 0x40 MSTORE DUP1 SWAP3 SWAP2 SWAP1 DUP2 DUP2 MSTORE PUSH1 0x20 ADD DUP3 DUP1 SLOAD PUSH2 0x14C9 SWAP1 PUSH2 0x3E8A JUMP JUMPDEST DUP1 ISZERO PUSH2 0x1514 JUMPI DUP1 PUSH1 0x1F LT PUSH2 0x14EB JUMPI PUSH2 0x100 DUP1 DUP4 SLOAD DIV MUL DUP4 MSTORE SWAP2 PUSH1 0x20 ADD SWAP2 PUSH2 0x1514 JUMP JUMPDEST DUP3 ADD SWAP2 SWAP1 PUSH0 MSTORE PUSH1 0x20 PUSH0 KECCAK256 SWAP1 JUMPDEST DUP2 SLOAD DUP2 MSTORE SWAP1 PUSH1 0x1 ADD SWAP1 PUSH1 0x20 ADD DUP1 DUP4 GT PUSH2 0x14F7 JUMPI DUP3 SWAP1 SUB PUSH1 0x1F AND DUP3 ADD SWAP2 JUMPDEST POP POP POP POP POP DUP2 MSTORE PUSH1 0x20 ADD PUSH1 0x2 DUP3 ADD DUP1 SLOAD PUSH2 0x152D SWAP1 PUSH2 0x3E8A JUMP JUMPDEST DUP1 PUSH1 0x1F ADD PUSH1 0x20 DUP1 SWAP2 DIV MUL PUSH1 0x20 ADD PUSH1 0x40 MLOAD SWAP1 DUP2 ADD PUSH1 0x40 MSTORE DUP1 SWAP3 SWAP2 SWAP1 DUP2 DUP2 MSTORE PUSH1 0x20 ADD DUP3 DUP1 SLOAD PUSH2 0x1559 SWAP1 PUSH2 0x3E8A JUMP JUMPDEST DUP1 ISZERO PUSH2 0x15A4 JUMPI DUP1 PUSH1 0x1F LT PUSH2 0x157B JUMPI PUSH2 0x100 DUP1 DUP4 SLOAD DIV MUL DUP4 MSTORE SWAP2 PUSH1 0x20 ADD SWAP2 PUSH2 0x15A4 JUMP JUMPDEST DUP3 ADD SWAP2 SWAP1 PUSH0 MSTORE PUSH1 0x20 PUSH0 KECCAK256 SWAP1 JUMPDEST DUP2 SLOAD DUP2 MSTORE SWAP1 PUSH1 0x1 ADD SWAP1 PUSH1 0x20 ADD DUP1 DUP4 GT PUSH2 0x1587 JUMPI DUP3 SWAP1 SUB PUSH1 0x1F AND DUP3 ADD SWAP2 JUMPDEST POP POP POP POP POP DUP2 MSTORE PUSH1 0x20 ADD PUSH1 0x3 DUP3 ADD PUSH0 SWAP1 SLOAD SWAP1 PUSH2 0x100 EXP SWAP1 DIV PUSH1 0xFF AND PUSH1 0x2 DUP2 GT ISZERO PUSH2 0x15D1 JUMPI PUSH2 0x15D0 PUSH2 0x3804 JUMP JUMPDEST JUMPDEST PUSH1 0x2 DUP2 GT ISZERO PUSH2 0x15E3 JUMPI PUSH2 0x15E2 PUSH2 0x3804 JUMP JUMPDEST JUMPDEST DUP2 MSTORE PUSH1 0x20 ADD PUSH1 0x4 DUP3 ADD SLOAD DUP2 MSTORE PUSH1 0x20 ADD PUSH1 0x5 DUP3 ADD PUSH0 SWAP1 SLOAD SWAP1 PUSH2 0x100 EXP SWAP1 DIV PUSH20 0xFFFFFFFFFFFFFFFFFFFFFFFFFFFFFFFFFFFFFFFF AND PUSH20 0xFFFFFFFFFFFFFFFFFFFFFFFFFFFFFFFFFFFFFFFF AND PUSH20 0xFFFFFFFFFFFFFFFFFFFFFFFFFFFFFFFFFFFFFFFF AND DUP2 MSTORE PUSH1 0x20 ADD PUSH1 0x5 DUP3 ADD PUSH1 0x14 SWAP1 SLOAD SWAP1 PUSH2 0x100 EXP SWAP1 DIV PUSH1 0xFF AND ISZERO ISZERO ISZERO ISZERO DUP2 MSTORE PUSH1 0x20 ADD PUSH1 0x6 DUP3 ADD SLOAD DUP2 MSTORE POP POP SWAP1 POP SWAP2 SWAP1 POP JUMP JUMPDEST PUSH1 0x60 PUSH0 PUSH20 0xFFFFFFFFFFFFFFFFFFFFFFFFFFFFFFFFFFFFFFFF AND PUSH0 DUP1 CALLER PUSH20 0xFFFFFFFFFFFFFFFFFFFFFFFFFFFFFFFFFFFFFFFF AND PUSH20 0xFFFFFFFFFFFFFFFFFFFFFFFFFFFFFFFFFFFFFFFF AND DUP2 MSTORE PUSH1 0x20 ADD SWAP1 DUP2 MSTORE PUSH1 0x20 ADD PUSH0 KECCAK256 PUSH1 0x1 ADD PUSH0 SWAP1 SLOAD SWAP1 PUSH2 0x100 EXP SWAP1 DIV PUSH20 0xFFFFFFFFFFFFFFFFFFFFFFFFFFFFFFFFFFFFFFFF AND PUSH20 0xFFFFFFFFFFFFFFFFFFFFFFFFFFFFFFFFFFFFFFFF AND SUB PUSH2 0x1740 JUMPI PUSH1 0x40 MLOAD PUSH32 0x8C379A000000000000000000000000000000000000000000000000000000000 DUP2 MSTORE PUSH1 0x4 ADD PUSH2 0x1737 SWAP1 PUSH2 0x4044 JUMP JUMPDEST PUSH1 0x40 MLOAD DUP1 SWAP2 SUB SWAP1 REVERT JUMPDEST PUSH0 PUSH1 0x6 PUSH0 CALLER PUSH20 0xFFFFFFFFFFFFFFFFFFFFFFFFFFFFFFFFFFFFFFFF AND PUSH20 0xFFFFFFFFFFFFFFFFFFFFFFFFFFFFFFFFFFFFFFFF AND DUP2 MSTORE PUSH1 0x20 ADD SWAP1 DUP2 MSTORE PUSH1 0x20 ADD PUSH0 KECCAK256 DUP1 SLOAD DUP1 PUSH1 0x20 MUL PUSH1 0x20 ADD PUSH1 0x40 MLOAD SWAP1 DUP2 ADD PUSH1 0x40 MSTORE DUP1 SWAP3 SWAP2 SWAP1 DUP2 DUP2 MSTORE PUSH1 0x20 ADD DUP3 DUP1 SLOAD DUP1 ISZERO PUSH2 0x17C6 JUMPI PUSH1 0x20 MUL DUP3 ADD SWAP2 SWAP1 PUSH0 MSTORE PUSH1 0x20 PUSH0 KECCAK256 SWAP1 JUMPDEST DUP2 SLOAD DUP2 MSTORE PUSH1 0x20 ADD SWAP1 PUSH1 0x1 ADD SWAP1 DUP1 DUP4 GT PUSH2 0x17B2 JUMPI JUMPDEST POP POP POP POP POP SWAP1 POP PUSH0 DUP2 MLOAD GT PUSH2 0x1810 JUMPI PUSH1 0x40 MLOAD PUSH32 0x8C379A000000000000000000000000000000000000000000000000000000000 DUP2 MSTORE PUSH1 0x4 ADD PUSH2 0x1807 SWAP1 PUSH2 0x4727 JUMP JUMPDEST PUSH1 0x40 MLOAD DUP1 SWAP2 SUB SWAP1 REVERT JUMPDEST PUSH0 DUP2 MLOAD PUSH8 0xFFFFFFFFFFFFFFFF DUP2 GT ISZERO PUSH2 0x182C JUMPI PUSH2 0x182B PUSH2 0x35E5 JUMP JUMPDEST JUMPDEST PUSH1 0x40 MLOAD SWAP1 DUP1 DUP3 MSTORE DUP1 PUSH1 0x20 MUL PUSH1 0x20 ADD DUP3 ADD PUSH1 0x40 MSTORE DUP1 ISZERO PUSH2 0x1865 JUMPI DUP2 PUSH1 0x20 ADD JUMPDEST PUSH2 0x1852 PUSH2 0x34F9 JUMP JUMPDEST DUP2 MSTORE PUSH1 0x20 ADD SWAP1 PUSH1 0x1 SWAP1 SUB SWAP1 DUP2 PUSH2 0x184A JUMPI SWAP1 POP JUMPDEST POP SWAP1 POP PUSH0 JUMPDEST DUP3 MLOAD DUP2 LT ISZERO PUSH2 0x1ABC JUMPI PUSH1 0x5 PUSH0 DUP5 DUP4 DUP2 MLOAD DUP2 LT PUSH2 0x1889 JUMPI PUSH2 0x1888 PUSH2 0x44E9 JUMP JUMPDEST JUMPDEST PUSH1 0x20 MUL PUSH1 0x20 ADD ADD MLOAD DUP2 MSTORE PUSH1 0x20 ADD SWAP1 DUP2 MSTORE PUSH1 0x20 ADD PUSH0 KECCAK256 PUSH1 0x40 MLOAD DUP1 PUSH2 0x100 ADD PUSH1 0x40 MSTORE SWAP1 DUP2 PUSH0 DUP3 ADD SLOAD DUP2 MSTORE PUSH1 0x20 ADD PUSH1 0x1 DUP3 ADD DUP1 SLOAD PUSH2 0x18C3 SWAP1 PUSH2 0x3E8A JUMP JUMPDEST DUP1 PUSH1 0x1F ADD PUSH1 0x20 DUP1 SWAP2 DIV MUL PUSH1 0x20 ADD PUSH1 0x40 MLOAD SWAP1 DUP2 ADD PUSH1 0x40 MSTORE DUP1 SWAP3 SWAP2 SWAP1 DUP2 DUP2 MSTORE PUSH1 0x20 ADD DUP3 DUP1 SLOAD PUSH2 0x18EF SWAP1 PUSH2 0x3E8A JUMP JUMPDEST DUP1 ISZERO PUSH2 0x193A JUMPI DUP1 PUSH1 0x1F LT PUSH2 0x1911 JUMPI PUSH2 0x100 DUP1 DUP4 SLOAD DIV MUL DUP4 MSTORE SWAP2 PUSH1 0x20 ADD SWAP2 PUSH2 0x193A JUMP JUMPDEST DUP3 ADD SWAP2 SWAP1 PUSH0 MSTORE PUSH1 0x20 PUSH0 KECCAK256 SWAP1 JUMPDEST DUP2 SLOAD DUP2 MSTORE SWAP1 PUSH1 0x1 ADD SWAP1 PUSH1 0x20 ADD DUP1 DUP4 GT PUSH2 0x191D JUMPI DUP3 SWAP1 SUB PUSH1 0x1F AND DUP3 ADD SWAP2 JUMPDEST POP POP POP POP POP DUP2 MSTORE PUSH1 0x20 ADD PUSH1 0x2 DUP3 ADD DUP1 SLOAD PUSH2 0x1953 SWAP1 PUSH2 0x3E8A JUMP JUMPDEST DUP1 PUSH1 0x1F ADD PUSH1 0x20 DUP1 SWAP2 DIV MUL PUSH1 0x20 ADD PUSH1 0x40 MLOAD SWAP1 DUP2 ADD PUSH1 0x40 MSTORE DUP1 SWAP3 SWAP2 SWAP1 DUP2 DUP2 MSTORE PUSH1 0x20 ADD DUP3 DUP1 SLOAD PUSH2 0x197F SWAP1 PUSH2 0x3E8A JUMP JUMPDEST DUP1 ISZERO PUSH2 0x19CA JUMPI DUP1 PUSH1 0x1F LT PUSH2 0x19A1 JUMPI PUSH2 0x100 DUP1 DUP4 SLOAD DIV MUL DUP4 MSTORE SWAP2 PUSH1 0x20 ADD SWAP2 PUSH2 0x19CA JUMP JUMPDEST DUP3 ADD SWAP2 SWAP1 PUSH0 MSTORE PUSH1 0x20 PUSH0 KECCAK256 SWAP1 JUMPDEST DUP2 SLOAD DUP2 MSTORE SWAP1 PUSH1 0x1 ADD SWAP1 PUSH1 0x20 ADD DUP1 DUP4 GT PUSH2 0x19AD JUMPI DUP3 SWAP1 SUB PUSH1 0x1F AND DUP3 ADD SWAP2 JUMPDEST POP POP POP POP POP DUP2 MSTORE PUSH1 0x20 ADD PUSH1 0x3 DUP3 ADD PUSH0 SWAP1 SLOAD SWAP1 PUSH2 0x100 EXP SWAP1 DIV PUSH1 0xFF AND PUSH1 0x2 DUP2 GT ISZERO PUSH2 0x19F7 JUMPI PUSH2 0x19F6 PUSH2 0x3804 JUMP JUMPDEST JUMPDEST PUSH1 0x2 DUP2 GT ISZERO PUSH2 0x1A09 JUMPI PUSH2 0x1A08 PUSH2 0x3804 JUMP JUMPDEST JUMPDEST DUP2 MSTORE PUSH1 0x20 ADD PUSH1 0x4 DUP3 ADD SLOAD DUP2 MSTORE PUSH1 0x20 ADD PUSH1 0x5 DUP3 ADD PUSH0 SWAP1 SLOAD SWAP1 PUSH2 0x100 EXP SWAP1 DIV PUSH20 0xFFFFFFFFFFFFFFFFFFFFFFFFFFFFFFFFFFFFFFFF AND PUSH20 0xFFFFFFFFFFFFFFFFFFFFFFFFFFFFFFFFFFFFFFFF AND PUSH20 0xFFFFFFFFFFFFFFFFFFFFFFFFFFFFFFFFFFFFFFFF AND DUP2 MSTORE PUSH1 0x20 ADD PUSH1 0x5 DUP3 ADD PUSH1 0x14 SWAP1 SLOAD SWAP1 PUSH2 0x100 EXP SWAP1 DIV PUSH1 0xFF AND ISZERO ISZERO ISZERO ISZERO DUP2 MSTORE PUSH1 0x20 ADD PUSH1 0x6 DUP3 ADD SLOAD DUP2 MSTORE POP POP DUP3 DUP3 DUP2 MLOAD DUP2 LT PUSH2 0x1AA4 JUMPI PUSH2 0x1AA3 PUSH2 0x44E9 JUMP JUMPDEST JUMPDEST PUSH1 0x20 MUL PUSH1 0x20 ADD ADD DUP2 SWAP1 MSTORE POP DUP1 DUP1 PUSH1 0x1 ADD SWAP2 POP POP PUSH2 0x186A JUMP JUMPDEST POP DUP1 SWAP3 POP POP POP SWAP1 JUMP JUMPDEST PUSH0 DUP2 MLOAD GT PUSH2 0x1B08 JUMPI PUSH1 0x40 MLOAD PUSH32 0x8C379A000000000000000000000000000000000000000000000000000000000 DUP2 MSTORE PUSH1 0x4 ADD PUSH2 0x1AFF SWAP1 PUSH2 0x478F JUMP JUMPDEST PUSH1 0x40 MLOAD DUP1 SWAP2 SUB SWAP1 REVERT JUMPDEST PUSH0 PUSH20 0xFFFFFFFFFFFFFFFFFFFFFFFFFFFFFFFFFFFFFFFF AND PUSH0 DUP1 CALLER PUSH20 0xFFFFFFFFFFFFFFFFFFFFFFFFFFFFFFFFFFFFFFFF AND PUSH20 0xFFFFFFFFFFFFFFFFFFFFFFFFFFFFFFFFFFFFFFFF AND DUP2 MSTORE PUSH1 0x20 ADD SWAP1 DUP2 MSTORE PUSH1 0x20 ADD PUSH0 KECCAK256 PUSH1 0x1 ADD PUSH0 SWAP1 SLOAD SWAP1 PUSH2 0x100 EXP SWAP1 DIV PUSH20 0xFFFFFFFFFFFFFFFFFFFFFFFFFFFFFFFFFFFFFFFF AND PUSH20 0xFFFFFFFFFFFFFFFFFFFFFFFFFFFFFFFFFFFFFFFF AND EQ PUSH2 0x1BD4 JUMPI PUSH1 0x40 MLOAD PUSH32 0x8C379A000000000000000000000000000000000000000000000000000000000 DUP2 MSTORE PUSH1 0x4 ADD PUSH2 0x1BCB SWAP1 PUSH2 0x481D JUMP JUMPDEST PUSH1 0x40 MLOAD DUP1 SWAP2 SUB SWAP1 REVERT JUMPDEST PUSH1 0x40 MLOAD DUP1 PUSH1 0x40 ADD PUSH1 0x40 MSTORE DUP1 DUP3 DUP2 MSTORE PUSH1 0x20 ADD CALLER PUSH20 0xFFFFFFFFFFFFFFFFFFFFFFFFFFFFFFFFFFFFFFFF AND DUP2 MSTORE POP PUSH0 DUP1 CALLER PUSH20 0xFFFFFFFFFFFFFFFFFFFFFFFFFFFFFFFFFFFFFFFF AND PUSH20 0xFFFFFFFFFFFFFFFFFFFFFFFFFFFFFFFFFFFFFFFF AND DUP2 MSTORE PUSH1 0x20 ADD SWAP1 DUP2 MSTORE PUSH1 0x20 ADD PUSH0 KECCAK256 PUSH0 DUP3 ADD MLOAD DUP2 PUSH0 ADD SWAP1 DUP2 PUSH2 0x1C4E SWAP2 SWAP1 PUSH2 0x434F JUMP JUMPDEST POP PUSH1 0x20 DUP3 ADD MLOAD DUP2 PUSH1 0x1 ADD PUSH0 PUSH2 0x100 EXP DUP2 SLOAD DUP2 PUSH20 0xFFFFFFFFFFFFFFFFFFFFFFFFFFFFFFFFFFFFFFFF MUL NOT AND SWAP1 DUP4 PUSH20 0xFFFFFFFFFFFFFFFFFFFFFFFFFFFFFFFFFFFFFFFF AND MUL OR SWAP1 SSTORE POP SWAP1 POP POP CALLER PUSH20 0xFFFFFFFFFFFFFFFFFFFFFFFFFFFFFFFFFFFFFFFF AND PUSH32 0x1B7934654BA536B6962955E057CE42885353BBAAD8C605A5CE0678E632F28410 DUP3 PUSH1 0x40 MLOAD PUSH2 0x1CDE SWAP2 SWAP1 PUSH2 0x3CF6 JUMP JUMPDEST PUSH1 0x40 MLOAD DUP1 SWAP2 SUB SWAP1 LOG2 POP JUMP JUMPDEST PUSH1 0x40 MLOAD DUP1 PUSH1 0x40 ADD PUSH1 0x40 MSTORE DUP1 PUSH1 0x7 DUP2 MSTORE PUSH1 0x20 ADD PUSH32 0x6D616E6167657200000000000000000000000000000000000000000000000000 DUP2 MSTORE POP DUP1 MLOAD SWAP1 PUSH1 0x20 ADD KECCAK256 PUSH1 0x1 PUSH0 CALLER PUSH20 0xFFFFFFFFFFFFFFFFFFFFFFFFFFFFFFFFFFFFFFFF AND PUSH20 0xFFFFFFFFFFFFFFFFFFFFFFFFFFFFFFFFFFFFFFFF AND DUP2 MSTORE PUSH1 0x20 ADD SWAP1 DUP2 MSTORE PUSH1 0x20 ADD PUSH0 KECCAK256 PUSH1 0x40 MLOAD PUSH2 0x1D70 SWAP2 SWAP1 PUSH2 0x3F56 JUMP JUMPDEST PUSH1 0x40 MLOAD DUP1 SWAP2 SUB SWAP1 KECCAK256 EQ PUSH2 0x1DB8 JUMPI PUSH1 0x40 MLOAD PUSH32 0x8C379A000000000000000000000000000000000000000000000000000000000 DUP2 MSTORE PUSH1 0x4 ADD PUSH2 0x1DAF SWAP1 PUSH2 0x3FB6 JUMP JUMPDEST PUSH1 0x40 MLOAD DUP1 SWAP2 SUB SWAP1 REVERT JUMPDEST PUSH0 PUSH20 0xFFFFFFFFFFFFFFFFFFFFFFFFFFFFFFFFFFFFFFFF AND PUSH0 DUP1 CALLER PUSH20 0xFFFFFFFFFFFFFFFFFFFFFFFFFFFFFFFFFFFFFFFF AND PUSH20 0xFFFFFFFFFFFFFFFFFFFFFFFFFFFFFFFFFFFFFFFF AND DUP2 MSTORE PUSH1 0x20 ADD SWAP1 DUP2 MSTORE PUSH1 0x20 ADD PUSH0 KECCAK256 PUSH1 0x1 ADD PUSH0 SWAP1 SLOAD SWAP1 PUSH2 0x100 EXP SWAP1 DIV PUSH20 0xFFFFFFFFFFFFFFFFFFFFFFFFFFFFFFFFFFFFFFFF AND PUSH20 0xFFFFFFFFFFFFFFFFFFFFFFFFFFFFFFFFFFFFFFFF AND SUB PUSH2 0x1E84 JUMPI PUSH1 0x40 MLOAD PUSH32 0x8C379A000000000000000000000000000000000000000000000000000000000 DUP2 MSTORE PUSH1 0x4 ADD PUSH2 0x1E7B SWAP1 PUSH2 0x4044 JUMP JUMPDEST PUSH1 0x40 MLOAD DUP1 SWAP2 SUB SWAP1 REVERT JUMPDEST PUSH0 DUP6 MLOAD GT PUSH2 0x1EC7 JUMPI PUSH1 0x40 MLOAD PUSH32 0x8C379A000000000000000000000000000000000000000000000000000000000 DUP2 MSTORE PUSH1 0x4 ADD PUSH2 0x1EBE SWAP1 PUSH2 0x4885 JUMP JUMPDEST PUSH1 0x40 MLOAD DUP1 SWAP2 SUB SWAP1 REVERT JUMPDEST PUSH0 DUP5 MLOAD GT PUSH2 0x1F0A JUMPI PUSH1 0x40 MLOAD PUSH32 0x8C379A000000000000000000000000000000000000000000000000000000000 DUP2 MSTORE PUSH1 0x4 ADD PUSH2 0x1F01 SWAP1 PUSH2 0x48ED JUMP JUMPDEST PUSH1 0x40 MLOAD DUP1 SWAP2 SUB SWAP1 REVERT JUMPDEST PUSH1 0x2 DUP1 DUP2 GT ISZERO PUSH2 0x1F1D JUMPI PUSH2 0x1F1C PUSH2 0x3804 JUMP JUMPDEST JUMPDEST DUP4 PUSH1 0x2 DUP2 GT ISZERO PUSH2 0x1F30 JUMPI PUSH2 0x1F2F PUSH2 0x3804 JUMP JUMPDEST JUMPDEST GT ISZERO PUSH2 0x1F71 JUMPI PUSH1 0x40 MLOAD PUSH32 0x8C379A000000000000000000000000000000000000000000000000000000000 DUP2 MSTORE PUSH1 0x4 ADD PUSH2 0x1F68 SWAP1 PUSH2 0x497B JUMP JUMPDEST PUSH1 0x40 MLOAD DUP1 SWAP2 SUB SWAP1 REVERT JUMPDEST TIMESTAMP DUP3 GT PUSH2 0x1FB3 JUMPI PUSH1 0x40 MLOAD PUSH32 0x8C379A000000000000000000000000000000000000000000000000000000000 DUP2 MSTORE PUSH1 0x4 ADD PUSH2 0x1FAA SWAP1 PUSH2 0x49E3 JUMP JUMPDEST PUSH1 0x40 MLOAD DUP1 SWAP2 SUB SWAP1 REVERT JUMPDEST PUSH1 0x40 MLOAD DUP1 PUSH2 0x100 ADD PUSH1 0x40 MSTORE DUP1 PUSH1 0x4 SLOAD DUP2 MSTORE PUSH1 0x20 ADD DUP7 DUP2 MSTORE PUSH1 0x20 ADD DUP6 DUP2 MSTORE PUSH1 0x20 ADD DUP5 PUSH1 0x2 DUP2 GT ISZERO PUSH2 0x1FE6 JUMPI PUSH2 0x1FE5 PUSH2 0x3804 JUMP JUMPDEST JUMPDEST DUP2 MSTORE PUSH1 0x20 ADD DUP4 DUP2 MSTORE PUSH1 0x20 ADD DUP3 PUSH20 0xFFFFFFFFFFFFFFFFFFFFFFFFFFFFFFFFFFFFFFFF AND DUP2 MSTORE PUSH1 0x20 ADD PUSH0 ISZERO ISZERO DUP2 MSTORE PUSH1 0x20 ADD PUSH0 DUP2 MSTORE POP PUSH1 0x5 PUSH0 PUSH1 0x4 SLOAD DUP2 MSTORE PUSH1 0x20 ADD SWAP1 DUP2 MSTORE PUSH1 0x20 ADD PUSH0 KECCAK256 PUSH0 DUP3 ADD MLOAD DUP2 PUSH0 ADD SSTORE PUSH1 0x20 DUP3 ADD MLOAD DUP2 PUSH1 0x1 ADD SWAP1 DUP2 PUSH2 0x2049 SWAP2 SWAP1 PUSH2 0x434F JUMP JUMPDEST POP PUSH1 0x40 DUP3 ADD MLOAD DUP2 PUSH1 0x2 ADD SWAP1 DUP2 PUSH2 0x205F SWAP2 SWAP1 PUSH2 0x434F JUMP JUMPDEST POP PUSH1 0x60 DUP3 ADD MLOAD DUP2 PUSH1 0x3 ADD PUSH0 PUSH2 0x100 EXP DUP2 SLOAD DUP2 PUSH1 0xFF MUL NOT AND SWAP1 DUP4 PUSH1 0x2 DUP2 GT ISZERO PUSH2 0x208A JUMPI PUSH2 0x2089 PUSH2 0x3804 JUMP JUMPDEST JUMPDEST MUL OR SWAP1 SSTORE POP PUSH1 0x80 DUP3 ADD MLOAD DUP2 PUSH1 0x4 ADD SSTORE PUSH1 0xA0 DUP3 ADD MLOAD DUP2 PUSH1 0x5 ADD PUSH0 PUSH2 0x100 EXP DUP2 SLOAD DUP2 PUSH20 0xFFFFFFFFFFFFFFFFFFFFFFFFFFFFFFFFFFFFFFFF MUL NOT AND SWAP1 DUP4 PUSH20 0xFFFFFFFFFFFFFFFFFFFFFFFFFFFFFFFFFFFFFFFF AND MUL OR SWAP1 SSTORE POP PUSH1 0xC0 DUP3 ADD MLOAD DUP2 PUSH1 0x5 ADD PUSH1 0x14 PUSH2 0x100 EXP DUP2 SLOAD DUP2 PUSH1 0xFF MUL NOT AND SWAP1 DUP4 ISZERO ISZERO MUL OR SWAP1 SSTORE POP PUSH1 0xE0 DUP3 ADD MLOAD DUP2 PUSH1 0x6 ADD SSTORE SWAP1 POP POP PUSH1 0x6 PUSH0 DUP3 PUSH20 0xFFFFFFFFFFFFFFFFFFFFFFFFFFFFFFFFFFFFFFFF AND PUSH20 0xFFFFFFFFFFFFFFFFFFFFFFFFFFFFFFFFFFFFFFFF AND DUP2 MSTORE PUSH1 0x20 ADD SWAP1 DUP2 MSTORE PUSH1 0x20 ADD PUSH0 KECCAK256 PUSH1 0x4 SLOAD SWAP1 DUP1 PUSH1 0x1 DUP2 SLOAD ADD DUP1 DUP3 SSTORE DUP1 SWAP2 POP POP PUSH1 0x1 SWAP1 SUB SWAP1 PUSH0 MSTORE PUSH1 0x20 PUSH0 KECCAK256 ADD PUSH0 SWAP1 SWAP2 SWAP1 SWAP2 SWAP1 SWAP2 POP SSTORE CALLER PUSH20 0xFFFFFFFFFFFFFFFFFFFFFFFFFFFFFFFFFFFFFFFF AND PUSH32 0x3F9B921F6BB5D577CDF49122202D27F7C50E3CC981C47543DC4A59C00DEE5229 DUP3 PUSH1 0x4 SLOAD PUSH1 0x40 MLOAD PUSH2 0x21B9 SWAP3 SWAP2 SWAP1 PUSH2 0x4A10 JUMP JUMPDEST PUSH1 0x40 MLOAD DUP1 SWAP2 SUB SWAP1 LOG2 PUSH1 0x4 PUSH0 DUP2 SLOAD DUP1 SWAP3 SWAP2 SWAP1 PUSH2 0x21D3 SWAP1 PUSH2 0x4A64 JUMP JUMPDEST SWAP2 SWAP1 POP SSTORE POP POP POP POP POP POP JUMP JUMPDEST PUSH0 DUP1 PUSH20 0xFFFFFFFFFFFFFFFFFFFFFFFFFFFFFFFFFFFFFFFF AND PUSH0 DUP1 CALLER PUSH20 0xFFFFFFFFFFFFFFFFFFFFFFFFFFFFFFFFFFFFFFFF AND PUSH20 0xFFFFFFFFFFFFFFFFFFFFFFFFFFFFFFFFFFFFFFFF AND DUP2 MSTORE PUSH1 0x20 ADD SWAP1 DUP2 MSTORE PUSH1 0x20 ADD PUSH0 KECCAK256 PUSH1 0x1 ADD PUSH0 SWAP1 SLOAD SWAP1 PUSH2 0x100 EXP SWAP1 DIV PUSH20 0xFFFFFFFFFFFFFFFFFFFFFFFFFFFFFFFFFFFFFFFF AND PUSH20 0xFFFFFFFFFFFFFFFFFFFFFFFFFFFFFFFFFFFFFFFF AND SUB PUSH2 0x22AC JUMPI PUSH1 0x40 MLOAD PUSH32 0x8C379A000000000000000000000000000000000000000000000000000000000 DUP2 MSTORE PUSH1 0x4 ADD PUSH2 0x22A3 SWAP1 PUSH2 0x4044 JUMP JUMPDEST PUSH1 0x40 MLOAD DUP1 SWAP2 SUB SWAP1 REVERT JUMPDEST PUSH0 PUSH20 0xFFFFFFFFFFFFFFFFFFFFFFFFFFFFFFFFFFFFFFFF AND PUSH1 0x5 PUSH0 DUP5 DUP2 MSTORE PUSH1 0x20 ADD SWAP1 DUP2 MSTORE PUSH1 0x20 ADD PUSH0 KECCAK256 PUSH1 0x5 ADD PUSH0 SWAP1 SLOAD SWAP1 PUSH2 0x100 EXP SWAP1 DIV PUSH20 0xFFFFFFFFFFFFFFFFFFFFFFFFFFFFFFFFFFFFFFFF AND PUSH20 0xFFFFFFFFFFFFFFFFFFFFFFFFFFFFFFFFFFFFFFFF AND SUB PUSH2 0x234D JUMPI PUSH1 0x40 MLOAD PUSH32 0x8C379A000000000000000000000000000000000000000000000000000000000 DUP2 MSTORE PUSH1 0x4 ADD PUSH2 0x2344 SWAP1 PUSH2 0x4560 JUMP JUMPDEST PUSH1 0x40 MLOAD DUP1 SWAP2 SUB SWAP1 REVERT JUMPDEST PUSH0 PUSH1 0x5 PUSH0 DUP5 DUP2 MSTORE PUSH1 0x20 ADD SWAP1 DUP2 MSTORE PUSH1 0x20 ADD PUSH0 KECCAK256 PUSH1 0x5 ADD PUSH1 0x14 SWAP1 SLOAD SWAP1 PUSH2 0x100 EXP SWAP1 DIV PUSH1 0xFF AND SWAP1 POP DUP3 PUSH32 0x5B1D4634B3C10500FFEDC8842916F2444F17B692FACA086F941028797DE87728 DUP3 PUSH1 0x40 MLOAD PUSH2 0x23A2 SWAP2 SWAP1 PUSH2 0x3A6A JUMP JUMPDEST PUSH1 0x40 MLOAD DUP1 SWAP2 SUB SWAP1 LOG2 DUP1 SWAP2 POP POP SWAP2 SWAP1 POP JUMP JUMPDEST PUSH1 0x40 MLOAD DUP1 PUSH1 0x40 ADD PUSH1 0x40 MSTORE DUP1 PUSH1 0x7 DUP2 MSTORE PUSH1 0x20 ADD PUSH32 0x6D616E6167657200000000000000000000000000000000000000000000000000 DUP2 MSTORE POP DUP1 MLOAD SWAP1 PUSH1 0x20 ADD KECCAK256 PUSH1 0x1 PUSH0 CALLER PUSH20 0xFFFFFFFFFFFFFFFFFFFFFFFFFFFFFFFFFFFFFFFF AND PUSH20 0xFFFFFFFFFFFFFFFFFFFFFFFFFFFFFFFFFFFFFFFF AND DUP2 MSTORE PUSH1 0x20 ADD SWAP1 DUP2 MSTORE PUSH1 0x20 ADD PUSH0 KECCAK256 PUSH1 0x40 MLOAD PUSH2 0x243A SWAP2 SWAP1 PUSH2 0x3F56 JUMP JUMPDEST PUSH1 0x40 MLOAD DUP1 SWAP2 SUB SWAP1 KECCAK256 EQ PUSH2 0x2482 JUMPI PUSH1 0x40 MLOAD PUSH32 0x8C379A000000000000000000000000000000000000000000000000000000000 DUP2 MSTORE PUSH1 0x4 ADD PUSH2 0x2479 SWAP1 PUSH2 0x3FB6 JUMP JUMPDEST PUSH1 0x40 MLOAD DUP1 SWAP2 SUB SWAP1 REVERT JUMPDEST PUSH0 PUSH20 0xFFFFFFFFFFFFFFFFFFFFFFFFFFFFFFFFFFFFFFFF AND PUSH0 DUP1 CALLER PUSH20 0xFFFFFFFFFFFFFFFFFFFFFFFFFFFFFFFFFFFFFFFF AND PUSH20 0xFFFFFFFFFFFFFFFFFFFFFFFFFFFFFFFFFFFFFFFF AND DUP2 MSTORE PUSH1 0x20 ADD SWAP1 DUP2 MSTORE PUSH1 0x20 ADD PUSH0 KECCAK256 PUSH1 0x1 ADD PUSH0 SWAP1 SLOAD SWAP1 PUSH2 0x100 EXP SWAP1 DIV PUSH20 0xFFFFFFFFFFFFFFFFFFFFFFFFFFFFFFFFFFFFFFFF AND PUSH20 0xFFFFFFFFFFFFFFFFFFFFFFFFFFFFFFFFFFFFFFFF AND SUB PUSH2 0x254E JUMPI PUSH1 0x40 MLOAD PUSH32 0x8C379A000000000000000000000000000000000000000000000000000000000 DUP2 MSTORE PUSH1 0x4 ADD PUSH2 0x2545 SWAP1 PUSH2 0x4044 JUMP JUMPDEST PUSH1 0x40 MLOAD DUP1 SWAP2 SUB SWAP1 REVERT JUMPDEST DUP1 PUSH20 0xFFFFFFFFFFFFFFFFFFFFFFFFFFFFFFFFFFFFFFFF AND PUSH1 0x5 PUSH0 DUP5 DUP2 MSTORE PUSH1 0x20 ADD SWAP1 DUP2 MSTORE PUSH1 0x20 ADD PUSH0 KECCAK256 PUSH1 0x5 ADD PUSH0 SWAP1 SLOAD SWAP1 PUSH2 0x100 EXP SWAP1 DIV PUSH20 0xFFFFFFFFFFFFFFFFFFFFFFFFFFFFFFFFFFFFFFFF AND PUSH20 0xFFFFFFFFFFFFFFFFFFFFFFFFFFFFFFFFFFFFFFFF AND SUB PUSH2 0x25EF JUMPI PUSH1 0x40 MLOAD PUSH32 0x8C379A000000000000000000000000000000000000000000000000000000000 DUP2 MSTORE PUSH1 0x4 ADD PUSH2 0x25E6 SWAP1 PUSH2 0x4B1B JUMP JUMPDEST PUSH1 0x40 MLOAD DUP1 SWAP2 SUB SWAP1 REVERT JUMPDEST PUSH0 PUSH1 0x5 PUSH0 DUP5 DUP2 MSTORE PUSH1 0x20 ADD SWAP1 DUP2 MSTORE PUSH1 0x20 ADD PUSH0 KECCAK256 PUSH1 0x5 ADD PUSH0 SWAP1 SLOAD SWAP1 PUSH2 0x100 EXP SWAP1 DIV PUSH20 0xFFFFFFFFFFFFFFFFFFFFFFFFFFFFFFFFFFFFFFFF AND SWAP1 POP DUP2 PUSH1 0x5 PUSH0 DUP6 DUP2 MSTORE PUSH1 0x20 ADD SWAP1 DUP2 MSTORE PUSH1 0x20 ADD PUSH0 KECCAK256 PUSH1 0x5 ADD PUSH0 PUSH2 0x100 EXP DUP2 SLOAD DUP2 PUSH20 0xFFFFFFFFFFFFFFFFFFFFFFFFFFFFFFFFFFFFFFFF MUL NOT AND SWAP1 DUP4 PUSH20 0xFFFFFFFFFFFFFFFFFFFFFFFFFFFFFFFFFFFFFFFF AND MUL OR SWAP1 SSTORE POP PUSH0 PUSH1 0x6 PUSH0 DUP4 PUSH20 0xFFFFFFFFFFFFFFFFFFFFFFFFFFFFFFFFFFFFFFFF AND PUSH20 0xFFFFFFFFFFFFFFFFFFFFFFFFFFFFFFFFFFFFFFFF AND DUP2 MSTORE PUSH1 0x20 ADD SWAP1 DUP2 MSTORE PUSH1 0x20 ADD PUSH0 KECCAK256 SWAP1 POP PUSH0 JUMPDEST DUP2 DUP1 SLOAD SWAP1 POP DUP2 LT ISZERO PUSH2 0x2769 JUMPI DUP5 DUP3 DUP3 DUP2 SLOAD DUP2 LT PUSH2 0x26DA JUMPI PUSH2 0x26D9 PUSH2 0x44E9 JUMP JUMPDEST JUMPDEST SWAP1 PUSH0 MSTORE PUSH1 0x20 PUSH0 KECCAK256 ADD SLOAD SUB PUSH2 0x275C JUMPI DUP2 PUSH1 0x1 DUP4 DUP1 SLOAD SWAP1 POP PUSH2 0x26FA SWAP2 SWAP1 PUSH2 0x4B39 JUMP JUMPDEST DUP2 SLOAD DUP2 LT PUSH2 0x270B JUMPI PUSH2 0x270A PUSH2 0x44E9 JUMP JUMPDEST JUMPDEST SWAP1 PUSH0 MSTORE PUSH1 0x20 PUSH0 KECCAK256 ADD SLOAD DUP3 DUP3 DUP2 SLOAD DUP2 LT PUSH2 0x2727 JUMPI PUSH2 0x2726 PUSH2 0x44E9 JUMP JUMPDEST JUMPDEST SWAP1 PUSH0 MSTORE PUSH1 0x20 PUSH0 KECCAK256 ADD DUP2 SWAP1 SSTORE POP DUP2 DUP1 SLOAD DUP1 PUSH2 0x2744 JUMPI PUSH2 0x2743 PUSH2 0x4B6C JUMP JUMPDEST JUMPDEST PUSH1 0x1 SWAP1 SUB DUP2 DUP2 SWAP1 PUSH0 MSTORE PUSH1 0x20 PUSH0 KECCAK256 ADD PUSH0 SWAP1 SSTORE SWAP1 SSTORE PUSH2 0x2769 JUMP JUMPDEST DUP1 DUP1 PUSH1 0x1 ADD SWAP2 POP POP PUSH2 0x26BA JUMP JUMPDEST POP PUSH1 0x6 PUSH0 DUP5 PUSH20 0xFFFFFFFFFFFFFFFFFFFFFFFFFFFFFFFFFFFFFFFF AND PUSH20 0xFFFFFFFFFFFFFFFFFFFFFFFFFFFFFFFFFFFFFFFF AND DUP2 MSTORE PUSH1 0x20 ADD SWAP1 DUP2 MSTORE PUSH1 0x20 ADD PUSH0 KECCAK256 DUP5 SWAP1 DUP1 PUSH1 0x1 DUP2 SLOAD ADD DUP1 DUP3 SSTORE DUP1 SWAP2 POP POP PUSH1 0x1 SWAP1 SUB SWAP1 PUSH0 MSTORE PUSH1 0x20 PUSH0 KECCAK256 ADD PUSH0 SWAP1 SWAP2 SWAP1 SWAP2 SWAP1 SWAP2 POP SSTORE CALLER PUSH20 0xFFFFFFFFFFFFFFFFFFFFFFFFFFFFFFFFFFFFFFFF AND PUSH32 0xA836A77B7D869C0ECBC2D10F741A9CBDD750CAF2459E4B97FAC260346E14F32 DUP5 DUP7 PUSH1 0x40 MLOAD PUSH2 0x2813 SWAP3 SWAP2 SWAP1 PUSH2 0x4A10 JUMP JUMPDEST PUSH1 0x40 MLOAD DUP1 SWAP2 SUB SWAP1 LOG2 POP POP POP POP JUMP JUMPDEST PUSH1 0x40 MLOAD DUP1 PUSH1 0x40 ADD PUSH1 0x40 MSTORE DUP1 PUSH1 0x7 DUP2 MSTORE PUSH1 0x20 ADD PUSH32 0x6D616E6167657200000000000000000000000000000000000000000000000000 DUP2 MSTORE POP DUP1 MLOAD SWAP1 PUSH1 0x20 ADD KECCAK256 PUSH1 0x1 PUSH0 CALLER PUSH20 0xFFFFFFFFFFFFFFFFFFFFFFFFFFFFFFFFFFFFFFFF AND PUSH20 0xFFFFFFFFFFFFFFFFFFFFFFFFFFFFFFFFFFFFFFFF AND DUP2 MSTORE PUSH1 0x20 ADD SWAP1 DUP2 MSTORE PUSH1 0x20 ADD PUSH0 KECCAK256 PUSH1 0x40 MLOAD PUSH2 0x28A8 SWAP2 SWAP1 PUSH2 0x3F56 JUMP JUMPDEST PUSH1 0x40 MLOAD DUP1 SWAP2 SUB SWAP1 KECCAK256 EQ PUSH2 0x28F0 JUMPI PUSH1 0x40 MLOAD PUSH32 0x8C379A000000000000000000000000000000000000000000000000000000000 DUP2 MSTORE PUSH1 0x4 ADD PUSH2 0x28E7 SWAP1 PUSH2 0x3FB6 JUMP JUMPDEST PUSH1 0x40 MLOAD DUP1 SWAP2 SUB SWAP1 REVERT JUMPDEST PUSH0 PUSH20 0xFFFFFFFFFFFFFFFFFFFFFFFFFFFFFFFFFFFFFFFF AND PUSH0 DUP1 CALLER PUSH20 0xFFFFFFFFFFFFFFFFFFFFFFFFFFFFFFFFFFFFFFFF AND PUSH20 0xFFFFFFFFFFFFFFFFFFFFFFFFFFFFFFFFFFFFFFFF AND DUP2 MSTORE PUSH1 0x20 ADD SWAP1 DUP2 MSTORE PUSH1 0x20 ADD PUSH0 KECCAK256 PUSH1 0x1 ADD PUSH0 SWAP1 SLOAD SWAP1 PUSH2 0x100 EXP SWAP1 DIV PUSH20 0xFFFFFFFFFFFFFFFFFFFFFFFFFFFFFFFFFFFFFFFF AND PUSH20 0xFFFFFFFFFFFFFFFFFFFFFFFFFFFFFFFFFFFFFFFF AND SUB PUSH2 0x29BC JUMPI PUSH1 0x40 MLOAD PUSH32 0x8C379A000000000000000000000000000000000000000000000000000000000 DUP2 MSTORE PUSH1 0x4 ADD PUSH2 0x29B3 SWAP1 PUSH2 0x4044 JUMP JUMPDEST PUSH1 0x40 MLOAD DUP1 SWAP2 SUB SWAP1 REVERT JUMPDEST PUSH0 DUP2 MLOAD GT PUSH2 0x29FF JUMPI PUSH1 0x40 MLOAD PUSH32 0x8C379A000000000000000000000000000000000000000000000000000000000 DUP2 MSTORE PUSH1 0x4 ADD PUSH2 0x29F6 SWAP1 PUSH2 0x40AC JUMP JUMPDEST PUSH1 0x40 MLOAD DUP1 SWAP2 SUB SWAP1 REVERT JUMPDEST DUP1 PUSH1 0x1 PUSH0 DUP5 PUSH20 0xFFFFFFFFFFFFFFFFFFFFFFFFFFFFFFFFFFFFFFFF AND PUSH20 0xFFFFFFFFFFFFFFFFFFFFFFFFFFFFFFFFFFFFFFFF AND DUP2 MSTORE PUSH1 0x20 ADD SWAP1 DUP2 MSTORE PUSH1 0x20 ADD PUSH0 KECCAK256 SWAP1 DUP2 PUSH2 0x2A49 SWAP2 SWAP1 PUSH2 0x434F JUMP JUMPDEST POP PUSH1 0x2 PUSH0 DUP4 PUSH20 0xFFFFFFFFFFFFFFFFFFFFFFFFFFFFFFFFFFFFFFFF AND PUSH20 0xFFFFFFFFFFFFFFFFFFFFFFFFFFFFFFFFFFFFFFFF AND DUP2 MSTORE PUSH1 0x20 ADD SWAP1 DUP2 MSTORE PUSH1 0x20 ADD PUSH0 KECCAK256 DUP2 SWAP1 DUP1 PUSH1 0x1 DUP2 SLOAD ADD DUP1 DUP3 SSTORE DUP1 SWAP2 POP POP PUSH1 0x1 SWAP1 SUB SWAP1 PUSH0 MSTORE PUSH1 0x20 PUSH0 KECCAK256 ADD PUSH0 SWAP1 SWAP2 SWAP1 SWAP2 SWAP1 SWAP2 POP SWAP1 DUP2 PUSH2 0x2AB6 SWAP2 SWAP1 PUSH2 0x434F JUMP JUMPDEST POP DUP2 PUSH20 0xFFFFFFFFFFFFFFFFFFFFFFFFFFFFFFFFFFFFFFFF AND PUSH32 0x3565795C2FB8842C21347D277937778BBCFE788B5B4F790FC5E408786CBE9C90 DUP3 PUSH1 0x40 MLOAD PUSH2 0x2AFD SWAP2 SWAP1 PUSH2 0x3CF6 JUMP JUMPDEST PUSH1 0x40 MLOAD DUP1 SWAP2 SUB SWAP1 LOG2 POP POP JUMP JUMPDEST PUSH1 0x60 PUSH0 PUSH20 0xFFFFFFFFFFFFFFFFFFFFFFFFFFFFFFFFFFFFFFFF AND PUSH0 DUP1 CALLER PUSH20 0xFFFFFFFFFFFFFFFFFFFFFFFFFFFFFFFFFFFFFFFF AND PUSH20 0xFFFFFFFFFFFFFFFFFFFFFFFFFFFFFFFFFFFFFFFF AND DUP2 MSTORE PUSH1 0x20 ADD SWAP1 DUP2 MSTORE PUSH1 0x20 ADD PUSH0 KECCAK256 PUSH1 0x1 ADD PUSH0 SWAP1 SLOAD SWAP1 PUSH2 0x100 EXP SWAP1 DIV PUSH20 0xFFFFFFFFFFFFFFFFFFFFFFFFFFFFFFFFFFFFFFFF AND PUSH20 0xFFFFFFFFFFFFFFFFFFFFFFFFFFFFFFFFFFFFFFFF AND SUB PUSH2 0x2BD7 JUMPI PUSH1 0x40 MLOAD PUSH32 0x8C379A000000000000000000000000000000000000000000000000000000000 DUP2 MSTORE PUSH1 0x4 ADD PUSH2 0x2BCE SWAP1 PUSH2 0x4BE3 JUMP JUMPDEST PUSH1 0x40 MLOAD DUP1 SWAP2 SUB SWAP1 REVERT JUMPDEST PUSH0 DUP1 CALLER PUSH20 0xFFFFFFFFFFFFFFFFFFFFFFFFFFFFFFFFFFFFFFFF AND PUSH20 0xFFFFFFFFFFFFFFFFFFFFFFFFFFFFFFFFFFFFFFFF AND DUP2 MSTORE PUSH1 0x20 ADD SWAP1 DUP2 MSTORE PUSH1 0x20 ADD PUSH0 KECCAK256 PUSH0 ADD DUP1 SLOAD PUSH2 0x2C20 SWAP1 PUSH2 0x3E8A JUMP JUMPDEST DUP1 PUSH1 0x1F ADD PUSH1 0x20 DUP1 SWAP2 DIV MUL PUSH1 0x20 ADD PUSH1 0x40 MLOAD SWAP1 DUP2 ADD PUSH1 0x40 MSTORE DUP1 SWAP3 SWAP2 SWAP1 DUP2 DUP2 MSTORE PUSH1 0x20 ADD DUP3 DUP1 SLOAD PUSH2 0x2C4C SWAP1 PUSH2 0x3E8A JUMP JUMPDEST DUP1 ISZERO PUSH2 0x2C97 JUMPI DUP1 PUSH1 0x1F LT PUSH2 0x2C6E JUMPI PUSH2 0x100 DUP1 DUP4 SLOAD DIV MUL DUP4 MSTORE SWAP2 PUSH1 0x20 ADD SWAP2 PUSH2 0x2C97 JUMP JUMPDEST DUP3 ADD SWAP2 SWAP1 PUSH0 MSTORE PUSH1 0x20 PUSH0 KECCAK256 SWAP1 JUMPDEST DUP2 SLOAD DUP2 MSTORE SWAP1 PUSH1 0x1 ADD SWAP1 PUSH1 0x20 ADD DUP1 DUP4 GT PUSH2 0x2C7A JUMPI DUP3 SWAP1 SUB PUSH1 0x1F AND DUP3 ADD SWAP2 JUMPDEST POP POP POP POP POP SWAP1 POP SWAP1 JUMP JUMPDEST PUSH0 PUSH20 0xFFFFFFFFFFFFFFFFFFFFFFFFFFFFFFFFFFFFFFFF AND PUSH0 DUP1 CALLER PUSH20 0xFFFFFFFFFFFFFFFFFFFFFFFFFFFFFFFFFFFFFFFF AND PUSH20 0xFFFFFFFFFFFFFFFFFFFFFFFFFFFFFFFFFFFFFFFF AND DUP2 MSTORE PUSH1 0x20 ADD SWAP1 DUP2 MSTORE PUSH1 0x20 ADD PUSH0 KECCAK256 PUSH1 0x1 ADD PUSH0 SWAP1 SLOAD SWAP1 PUSH2 0x100 EXP SWAP1 DIV PUSH20 0xFFFFFFFFFFFFFFFFFFFFFFFFFFFFFFFFFFFFFFFF AND PUSH20 0xFFFFFFFFFFFFFFFFFFFFFFFFFFFFFFFFFFFFFFFF AND SUB PUSH2 0x2D6D JUMPI PUSH1 0x40 MLOAD PUSH32 0x8C379A000000000000000000000000000000000000000000000000000000000 DUP2 MSTORE PUSH1 0x4 ADD PUSH2 0x2D64 SWAP1 PUSH2 0x4044 JUMP JUMPDEST PUSH1 0x40 MLOAD DUP1 SWAP2 SUB SWAP1 REVERT JUMPDEST PUSH1 0x5 PUSH0 DUP3 DUP2 MSTORE PUSH1 0x20 ADD SWAP1 DUP2 MSTORE PUSH1 0x20 ADD PUSH0 KECCAK256 PUSH1 0x5 ADD PUSH0 SWAP1 SLOAD SWAP1 PUSH2 0x100 EXP SWAP1 DIV PUSH20 0xFFFFFFFFFFFFFFFFFFFFFFFFFFFFFFFFFFFFFFFF AND PUSH20 0xFFFFFFFFFFFFFFFFFFFFFFFFFFFFFFFFFFFFFFFF AND CALLER PUSH20 0xFFFFFFFFFFFFFFFFFFFFFFFFFFFFFFFFFFFFFFFF AND EQ PUSH2 0x2E0E JUMPI PUSH1 0x40 MLOAD PUSH32 0x8C379A000000000000000000000000000000000000000000000000000000000 DUP2 MSTORE PUSH1 0x4 ADD PUSH2 0x2E05 SWAP1 PUSH2 0x46BF JUMP JUMPDEST PUSH1 0x40 MLOAD DUP1 SWAP2 SUB SWAP1 REVERT JUMPDEST PUSH1 0x5 PUSH0 DUP3 DUP2 MSTORE PUSH1 0x20 ADD SWAP1 DUP2 MSTORE PUSH1 0x20 ADD PUSH0 KECCAK256 PUSH1 0x5 ADD PUSH1 0x14 SWAP1 SLOAD SWAP1 PUSH2 0x100 EXP SWAP1 DIV PUSH1 0xFF AND ISZERO PUSH2 0x2E70 JUMPI PUSH1 0x40 MLOAD PUSH32 0x8C379A000000000000000000000000000000000000000000000000000000000 DUP2 MSTORE PUSH1 0x4 ADD PUSH2 0x2E67 SWAP1 PUSH2 0x4C4B JUMP JUMPDEST PUSH1 0x40 MLOAD DUP1 SWAP2 SUB SWAP1 REVERT JUMPDEST PUSH1 0x1 PUSH1 0x5 PUSH0 DUP4 DUP2 MSTORE PUSH1 0x20 ADD SWAP1 DUP2 MSTORE PUSH1 0x20 ADD PUSH0 KECCAK256 PUSH1 0x5 ADD PUSH1 0x14 PUSH2 0x100 EXP DUP2 SLOAD DUP2 PUSH1 0xFF MUL NOT AND SWAP1 DUP4 ISZERO ISZERO MUL OR SWAP1 SSTORE POP TIMESTAMP PUSH1 0x5 PUSH0 DUP4 DUP2 MSTORE PUSH1 0x20 ADD SWAP1 DUP2 MSTORE PUSH1 0x20 ADD PUSH0 KECCAK256 PUSH1 0x6 ADD DUP2 SWAP1 SSTORE POP PUSH1 0x5 PUSH0 DUP3 DUP2 MSTORE PUSH1 0x20 ADD SWAP1 DUP2 MSTORE PUSH1 0x20 ADD PUSH0 KECCAK256 PUSH1 0x5 ADD PUSH0 SWAP1 SLOAD SWAP1 PUSH2 0x100 EXP SWAP1 DIV PUSH20 0xFFFFFFFFFFFFFFFFFFFFFFFFFFFFFFFFFFFFFFFF AND PUSH20 0xFFFFFFFFFFFFFFFFFFFFFFFFFFFFFFFFFFFFFFFF AND PUSH32 0xF684D89BB0F42287BF32838774E4B7F8A60C11804B3C6D1791FA55F306792643 DUP3 PUSH1 0x40 MLOAD PUSH2 0x2F2F SWAP2 SWAP1 PUSH2 0x4C69 JUMP JUMPDEST PUSH1 0x40 MLOAD DUP1 SWAP2 SUB SWAP1 LOG2 POP JUMP JUMPDEST PUSH0 DUP1 PUSH20 0xFFFFFFFFFFFFFFFFFFFFFFFFFFFFFFFFFFFFFFFF AND PUSH0 DUP1 DUP7 PUSH20 0xFFFFFFFFFFFFFFFFFFFFFFFFFFFFFFFFFFFFFFFF AND PUSH20 0xFFFFFFFFFFFFFFFFFFFFFFFFFFFFFFFFFFFFFFFF AND DUP2 MSTORE PUSH1 0x20 ADD SWAP1 DUP2 MSTORE PUSH1 0x20 ADD PUSH0 KECCAK256 PUSH1 0x1 ADD PUSH0 SWAP1 SLOAD SWAP1 PUSH2 0x100 EXP SWAP1 DIV PUSH20 0xFFFFFFFFFFFFFFFFFFFFFFFFFFFFFFFFFFFFFFFF AND PUSH20 0xFFFFFFFFFFFFFFFFFFFFFFFFFFFFFFFFFFFFFFFF AND SUB PUSH2 0x3007 JUMPI PUSH1 0x40 MLOAD PUSH32 0x8C379A000000000000000000000000000000000000000000000000000000000 DUP2 MSTORE PUSH1 0x4 ADD PUSH2 0x2FFE SWAP1 PUSH2 0x4CF2 JUMP JUMPDEST PUSH1 0x40 MLOAD DUP1 SWAP2 SUB SWAP1 REVERT JUMPDEST PUSH0 PUSH1 0x3 PUSH0 DUP7 PUSH20 0xFFFFFFFFFFFFFFFFFFFFFFFFFFFFFFFFFFFFFFFF AND PUSH20 0xFFFFFFFFFFFFFFFFFFFFFFFFFFFFFFFFFFFFFFFF AND DUP2 MSTORE PUSH1 0x20 ADD SWAP1 DUP2 MSTORE PUSH1 0x20 ADD PUSH0 KECCAK256 DUP1 SLOAD SWAP1 POP GT PUSH2 0x3089 JUMPI PUSH1 0x40 MLOAD PUSH32 0x8C379A000000000000000000000000000000000000000000000000000000000 DUP2 MSTORE PUSH1 0x4 ADD PUSH2 0x3080 SWAP1 PUSH2 0x4D80 JUMP JUMPDEST PUSH1 0x40 MLOAD DUP1 SWAP2 SUB SWAP1 REVERT JUMPDEST PUSH0 PUSH1 0x3 PUSH0 DUP7 PUSH20 0xFFFFFFFFFFFFFFFFFFFFFFFFFFFFFFFFFFFFFFFF AND PUSH20 0xFFFFFFFFFFFFFFFFFFFFFFFFFFFFFFFFFFFFFFFF AND DUP2 MSTORE PUSH1 0x20 ADD SWAP1 DUP2 MSTORE PUSH1 0x20 ADD PUSH0 KECCAK256 PUSH1 0x1 PUSH1 0x3 PUSH0 DUP9 PUSH20 0xFFFFFFFFFFFFFFFFFFFFFFFFFFFFFFFFFFFFFFFF AND PUSH20 0xFFFFFFFFFFFFFFFFFFFFFFFFFFFFFFFFFFFFFFFF AND DUP2 MSTORE PUSH1 0x20 ADD SWAP1 DUP2 MSTORE PUSH1 0x20 ADD PUSH0 KECCAK256 DUP1 SLOAD SWAP1 POP PUSH2 0x3114 SWAP2 SWAP1 PUSH2 0x4B39 JUMP JUMPDEST DUP2 SLOAD DUP2 LT PUSH2 0x3125 JUMPI PUSH2 0x3124 PUSH2 0x44E9 JUMP JUMPDEST JUMPDEST SWAP1 PUSH0 MSTORE PUSH1 0x20 PUSH0 KECCAK256 SWAP1 PUSH1 0x4 MUL ADD PUSH1 0x40 MLOAD DUP1 PUSH1 0x80 ADD PUSH1 0x40 MSTORE SWAP1 DUP2 PUSH0 DUP3 ADD PUSH0 SWAP1 SLOAD SWAP1 PUSH2 0x100 EXP SWAP1 DIV PUSH20 0xFFFFFFFFFFFFFFFFFFFFFFFFFFFFFFFFFFFFFFFF AND PUSH20 0xFFFFFFFFFFFFFFFFFFFFFFFFFFFFFFFFFFFFFFFF AND PUSH20 0xFFFFFFFFFFFFFFFFFFFFFFFFFFFFFFFFFFFFFFFF AND DUP2 MSTORE PUSH1 0x20 ADD PUSH1 0x1 DUP3 ADD DUP1 SLOAD PUSH2 0x31A0 SWAP1 PUSH2 0x3E8A JUMP JUMPDEST DUP1 PUSH1 0x1F ADD PUSH1 0x20 DUP1 SWAP2 DIV MUL PUSH1 0x20 ADD PUSH1 0x40 MLOAD SWAP1 DUP2 ADD PUSH1 0x40 MSTORE DUP1 SWAP3 SWAP2 SWAP1 DUP2 DUP2 MSTORE PUSH1 0x20 ADD DUP3 DUP1 SLOAD PUSH2 0x31CC SWAP1 PUSH2 0x3E8A JUMP JUMPDEST DUP1 ISZERO PUSH2 0x3217 JUMPI DUP1 PUSH1 0x1F LT PUSH2 0x31EE JUMPI PUSH2 0x100 DUP1 DUP4 SLOAD DIV MUL DUP4 MSTORE SWAP2 PUSH1 0x20 ADD SWAP2 PUSH2 0x3217 JUMP JUMPDEST DUP3 ADD SWAP2 SWAP1 PUSH0 MSTORE PUSH1 0x20 PUSH0 KECCAK256 SWAP1 JUMPDEST DUP2 SLOAD DUP2 MSTORE SWAP1 PUSH1 0x1 ADD SWAP1 PUSH1 0x20 ADD DUP1 DUP4 GT PUSH2 0x31FA JUMPI DUP3 SWAP1 SUB PUSH1 0x1F AND DUP3 ADD SWAP2 JUMPDEST POP POP POP POP POP DUP2 MSTORE PUSH1 0x20 ADD PUSH1 0x2 DUP3 ADD SLOAD DUP2 MSTORE PUSH1 0x20 ADD PUSH1 0x3 DUP3 ADD SLOAD DUP2 MSTORE POP POP SWAP1 POP PUSH0 DUP2 PUSH1 0x40 ADD MLOAD SWAP1 POP PUSH0 DUP6 DUP8 DUP7 DUP6 PUSH1 0x60 ADD MLOAD PUSH1 0x40 MLOAD PUSH1 0x20 ADD PUSH2 0x325A SWAP5 SWAP4 SWAP3 SWAP2 SWAP1 PUSH2 0x4169 JUMP JUMPDEST PUSH1 0x40 MLOAD PUSH1 0x20 DUP2 DUP4 SUB SUB DUP2 MSTORE SWAP1 PUSH1 0x40 MSTORE DUP1 MLOAD SWAP1 PUSH1 0x20 ADD KECCAK256 SWAP1 POP PUSH0 DUP2 DUP4 EQ SWAP1 POP DUP7 PUSH20 0xFFFFFFFFFFFFFFFFFFFFFFFFFFFFFFFFFFFFFFFF AND PUSH32 0x743119E0F5C3443022E2E080183CEAFC4CCB88F4C29FC6DBDAB02412B9935908 DUP8 DUP4 PUSH1 0x40 MLOAD PUSH2 0x32C0 SWAP3 SWAP2 SWAP1 PUSH2 0x4D9E JUMP JUMPDEST PUSH1 0x40 MLOAD DUP1 SWAP2 SUB SWAP1 LOG2 DUP1 SWAP5 POP POP POP POP POP SWAP4 SWAP3 POP POP POP JUMP JUMPDEST PUSH1 0x60 PUSH0 PUSH20 0xFFFFFFFFFFFFFFFFFFFFFFFFFFFFFFFFFFFFFFFF AND PUSH0 DUP1 CALLER PUSH20 0xFFFFFFFFFFFFFFFFFFFFFFFFFFFFFFFFFFFFFFFF AND PUSH20 0xFFFFFFFFFFFFFFFFFFFFFFFFFFFFFFFFFFFFFFFF AND DUP2 MSTORE PUSH1 0x20 ADD SWAP1 DUP2 MSTORE PUSH1 0x20 ADD PUSH0 KECCAK256 PUSH1 0x1 ADD PUSH0 SWAP1 SLOAD SWAP1 PUSH2 0x100 EXP SWAP1 DIV PUSH20 0xFFFFFFFFFFFFFFFFFFFFFFFFFFFFFFFFFFFFFFFF AND PUSH20 0xFFFFFFFFFFFFFFFFFFFFFFFFFFFFFFFFFFFFFFFF AND SUB PUSH2 0x33A4 JUMPI PUSH1 0x40 MLOAD PUSH32 0x8C379A000000000000000000000000000000000000000000000000000000000 DUP2 MSTORE PUSH1 0x4 ADD PUSH2 0x339B SWAP1 PUSH2 0x4044 JUMP JUMPDEST PUSH1 0x40 MLOAD DUP1 SWAP2 SUB SWAP1 REVERT JUMPDEST PUSH0 PUSH1 0x2 PUSH0 CALLER PUSH20 0xFFFFFFFFFFFFFFFFFFFFFFFFFFFFFFFFFFFFFFFF AND PUSH20 0xFFFFFFFFFFFFFFFFFFFFFFFFFFFFFFFFFFFFFFFF AND DUP2 MSTORE PUSH1 0x20 ADD SWAP1 DUP2 MSTORE PUSH1 0x20 ADD PUSH0 KECCAK256 DUP1 SLOAD DUP1 PUSH1 0x20 MUL PUSH1 0x20 ADD PUSH1 0x40 MLOAD SWAP1 DUP2 ADD PUSH1 0x40 MSTORE DUP1 SWAP3 SWAP2 SWAP1 DUP2 DUP2 MSTORE PUSH1 0x20 ADD PUSH0 SWAP1 JUMPDEST DUP3 DUP3 LT ISZERO PUSH2 0x34A9 JUMPI DUP4 DUP3 SWAP1 PUSH0 MSTORE PUSH1 0x20 PUSH0 KECCAK256 ADD DUP1 SLOAD PUSH2 0x341E SWAP1 PUSH2 0x3E8A JUMP JUMPDEST DUP1 PUSH1 0x1F ADD PUSH1 0x20 DUP1 SWAP2 DIV MUL PUSH1 0x20 ADD PUSH1 0x40 MLOAD SWAP1 DUP2 ADD PUSH1 0x40 MSTORE DUP1 SWAP3 SWAP2 SWAP1 DUP2 DUP2 MSTORE PUSH1 0x20 ADD DUP3 DUP1 SLOAD PUSH2 0x344A SWAP1 PUSH2 0x3E8A JUMP JUMPDEST DUP1 ISZERO PUSH2 0x3495 JUMPI DUP1 PUSH1 0x1F LT PUSH2 0x346C JUMPI PUSH2 0x100 DUP1 DUP4 SLOAD DIV MUL DUP4 MSTORE SWAP2 PUSH1 0x20 ADD SWAP2 PUSH2 0x3495 JUMP JUMPDEST DUP3 ADD SWAP2 SWAP1 PUSH0 MSTORE PUSH1 0x20 PUSH0 KECCAK256 SWAP1 JUMPDEST DUP2 SLOAD DUP2 MSTORE SWAP1 PUSH1 0x1 ADD SWAP1 PUSH1 0x20 ADD DUP1 DUP4 GT PUSH2 0x3478 JUMPI DUP3 SWAP1 SUB PUSH1 0x1F AND DUP3 ADD SWAP2 JUMPDEST POP POP POP POP POP DUP2 MSTORE PUSH1 0x20 ADD SWAP1 PUSH1 0x1 ADD SWAP1 PUSH2 0x3401 JUMP JUMPDEST POP POP POP POP SWAP1 POP PUSH0 DUP2 MLOAD GT PUSH2 0x34F2 JUMPI PUSH1 0x40 MLOAD PUSH32 0x8C379A000000000000000000000000000000000000000000000000000000000 DUP2 MSTORE PUSH1 0x4 ADD PUSH2 0x34E9 SWAP1 PUSH2 0x4E16 JUMP JUMPDEST PUSH1 0x40 MLOAD DUP1 SWAP2 SUB SWAP1 REVERT JUMPDEST DUP1 SWAP2 POP POP SWAP1 JUMP JUMPDEST PUSH1 0x40 MLOAD DUP1 PUSH2 0x100 ADD PUSH1 0x40 MSTORE DUP1 PUSH0 DUP2 MSTORE PUSH1 0x20 ADD PUSH1 0x60 DUP2 MSTORE PUSH1 0x20 ADD PUSH1 0x60 DUP2 MSTORE PUSH1 0x20 ADD PUSH0 PUSH1 0x2 DUP2 GT ISZERO PUSH2 0x352C JUMPI PUSH2 0x352B PUSH2 0x3804 JUMP JUMPDEST JUMPDEST DUP2 MSTORE PUSH1 0x20 ADD PUSH0 DUP2 MSTORE PUSH1 0x20 ADD PUSH0 PUSH20 0xFFFFFFFFFFFFFFFFFFFFFFFFFFFFFFFFFFFFFFFF AND DUP2 MSTORE PUSH1 0x20 ADD PUSH0 ISZERO ISZERO DUP2 MSTORE PUSH1 0x20 ADD PUSH0 DUP2 MSTORE POP SWAP1 JUMP JUMPDEST PUSH0 PUSH1 0x40 MLOAD SWAP1 POP SWAP1 JUMP JUMPDEST PUSH0 DUP1 REVERT JUMPDEST PUSH0 DUP1 REVERT JUMPDEST PUSH0 PUSH20 0xFFFFFFFFFFFFFFFFFFFFFFFFFFFFFFFFFFFFFFFF DUP3 AND SWAP1 POP SWAP2 SWAP1 POP JUMP JUMPDEST PUSH0 PUSH2 0x359C DUP3 PUSH2 0x3573 JUMP JUMPDEST SWAP1 POP SWAP2 SWAP1 POP JUMP JUMPDEST PUSH2 0x35AC DUP2 PUSH2 0x3592 JUMP JUMPDEST DUP2 EQ PUSH2 0x35B6 JUMPI PUSH0 DUP1 REVERT JUMPDEST POP JUMP JUMPDEST PUSH0 DUP2 CALLDATALOAD SWAP1 POP PUSH2 0x35C7 DUP2 PUSH2 0x35A3 JUMP JUMPDEST SWAP3 SWAP2 POP POP JUMP JUMPDEST PUSH0 DUP1 REVERT JUMPDEST PUSH0 DUP1 REVERT JUMPDEST PUSH0 PUSH1 0x1F NOT PUSH1 0x1F DUP4 ADD AND SWAP1 POP SWAP2 SWAP1 POP JUMP JUMPDEST PUSH32 0x4E487B7100000000000000000000000000000000000000000000000000000000 PUSH0 MSTORE PUSH1 0x41 PUSH1 0x4 MSTORE PUSH1 0x24 PUSH0 REVERT JUMPDEST PUSH2 0x361B DUP3 PUSH2 0x35D5 JUMP JUMPDEST DUP2 ADD DUP2 DUP2 LT PUSH8 0xFFFFFFFFFFFFFFFF DUP3 GT OR ISZERO PUSH2 0x363A JUMPI PUSH2 0x3639 PUSH2 0x35E5 JUMP JUMPDEST JUMPDEST DUP1 PUSH1 0x40 MSTORE POP POP POP JUMP JUMPDEST PUSH0 PUSH2 0x364C PUSH2 0x3562 JUMP JUMPDEST SWAP1 POP PUSH2 0x3658 DUP3 DUP3 PUSH2 0x3612 JUMP JUMPDEST SWAP2 SWAP1 POP JUMP JUMPDEST PUSH0 PUSH8 0xFFFFFFFFFFFFFFFF DUP3 GT ISZERO PUSH2 0x3677 JUMPI PUSH2 0x3676 PUSH2 0x35E5 JUMP JUMPDEST JUMPDEST PUSH2 0x3680 DUP3 PUSH2 0x35D5 JUMP JUMPDEST SWAP1 POP PUSH1 0x20 DUP2 ADD SWAP1 POP SWAP2 SWAP1 POP JUMP JUMPDEST DUP3 DUP2 DUP4 CALLDATACOPY PUSH0 DUP4 DUP4 ADD MSTORE POP POP POP JUMP JUMPDEST PUSH0 PUSH2 0x36AD PUSH2 0x36A8 DUP5 PUSH2 0x365D JUMP JUMPDEST PUSH2 0x3643 JUMP JUMPDEST SWAP1 POP DUP3 DUP2 MSTORE PUSH1 0x20 DUP2 ADD DUP5 DUP5 DUP5 ADD GT ISZERO PUSH2 0x36C9 JUMPI PUSH2 0x36C8 PUSH2 0x35D1 JUMP JUMPDEST JUMPDEST PUSH2 0x36D4 DUP5 DUP3 DUP6 PUSH2 0x368D JUMP JUMPDEST POP SWAP4 SWAP3 POP POP POP JUMP JUMPDEST PUSH0 DUP3 PUSH1 0x1F DUP4 ADD SLT PUSH2 0x36F0 JUMPI PUSH2 0x36EF PUSH2 0x35CD JUMP JUMPDEST JUMPDEST DUP2 CALLDATALOAD PUSH2 0x3700 DUP5 DUP3 PUSH1 0x20 DUP7 ADD PUSH2 0x369B JUMP JUMPDEST SWAP2 POP POP SWAP3 SWAP2 POP POP JUMP JUMPDEST PUSH0 DUP1 PUSH1 0x40 DUP4 DUP6 SUB SLT ISZERO PUSH2 0x371F JUMPI PUSH2 0x371E PUSH2 0x356B JUMP JUMPDEST JUMPDEST PUSH0 PUSH2 0x372C DUP6 DUP3 DUP7 ADD PUSH2 0x35B9 JUMP JUMPDEST SWAP3 POP POP PUSH1 0x20 DUP4 ADD CALLDATALOAD PUSH8 0xFFFFFFFFFFFFFFFF DUP2 GT ISZERO PUSH2 0x374D JUMPI PUSH2 0x374C PUSH2 0x356F JUMP JUMPDEST JUMPDEST PUSH2 0x3759 DUP6 DUP3 DUP7 ADD PUSH2 0x36DC JUMP JUMPDEST SWAP2 POP POP SWAP3 POP SWAP3 SWAP1 POP JUMP JUMPDEST PUSH0 DUP2 MLOAD SWAP1 POP SWAP2 SWAP1 POP JUMP JUMPDEST PUSH0 DUP3 DUP3 MSTORE PUSH1 0x20 DUP3 ADD SWAP1 POP SWAP3 SWAP2 POP POP JUMP JUMPDEST PUSH0 DUP2 SWAP1 POP PUSH1 0x20 DUP3 ADD SWAP1 POP SWAP2 SWAP1 POP JUMP JUMPDEST PUSH0 DUP2 SWAP1 POP SWAP2 SWAP1 POP JUMP JUMPDEST PUSH2 0x379E DUP2 PUSH2 0x378C JUMP JUMPDEST DUP3 MSTORE POP POP JUMP JUMPDEST PUSH0 DUP2 MLOAD SWAP1 POP SWAP2 SWAP1 POP JUMP JUMPDEST PUSH0 DUP3 DUP3 MSTORE PUSH1 0x20 DUP3 ADD SWAP1 POP SWAP3 SWAP2 POP POP JUMP JUMPDEST DUP3 DUP2 DUP4 MCOPY PUSH0 DUP4 DUP4 ADD MSTORE POP POP POP JUMP JUMPDEST PUSH0 PUSH2 0x37D6 DUP3 PUSH2 0x37A4 JUMP JUMPDEST PUSH2 0x37E0 DUP2 DUP6 PUSH2 0x37AE JUMP JUMPDEST SWAP4 POP PUSH2 0x37F0 DUP2 DUP6 PUSH1 0x20 DUP7 ADD PUSH2 0x37BE JUMP JUMPDEST PUSH2 0x37F9 DUP2 PUSH2 0x35D5 JUMP JUMPDEST DUP5 ADD SWAP2 POP POP SWAP3 SWAP2 POP POP JUMP JUMPDEST PUSH32 0x4E487B7100000000000000000000000000000000000000000000000000000000 PUSH0 MSTORE PUSH1 0x21 PUSH1 0x4 MSTORE PUSH1 0x24 PUSH0 REVERT JUMPDEST PUSH1 0x3 DUP2 LT PUSH2 0x3842 JUMPI PUSH2 0x3841 PUSH2 0x3804 JUMP JUMPDEST JUMPDEST POP JUMP JUMPDEST PUSH0 DUP2 SWAP1 POP PUSH2 0x3852 DUP3 PUSH2 0x3831 JUMP JUMPDEST SWAP2 SWAP1 POP JUMP JUMPDEST PUSH0 PUSH2 0x3861 DUP3 PUSH2 0x3845 JUMP JUMPDEST SWAP1 POP SWAP2 SWAP1 POP JUMP JUMPDEST PUSH2 0x3871 DUP2 PUSH2 0x3857 JUMP JUMPDEST DUP3 MSTORE POP POP JUMP JUMPDEST PUSH2 0x3880 DUP2 PUSH2 0x3592 JUMP JUMPDEST DUP3 MSTORE POP POP JUMP JUMPDEST PUSH0 DUP2 ISZERO ISZERO SWAP1 POP SWAP2 SWAP1 POP JUMP JUMPDEST PUSH2 0x389A DUP2 PUSH2 0x3886 JUMP JUMPDEST DUP3 MSTORE POP POP JUMP JUMPDEST PUSH0 PUSH2 0x100 DUP4 ADD PUSH0 DUP4 ADD MLOAD PUSH2 0x38B6 PUSH0 DUP7 ADD DUP3 PUSH2 0x3795 JUMP JUMPDEST POP PUSH1 0x20 DUP4 ADD MLOAD DUP5 DUP3 SUB PUSH1 0x20 DUP7 ADD MSTORE PUSH2 0x38CE DUP3 DUP3 PUSH2 0x37CC JUMP JUMPDEST SWAP2 POP POP PUSH1 0x40 DUP4 ADD MLOAD DUP5 DUP3 SUB PUSH1 0x40 DUP7 ADD MSTORE PUSH2 0x38E8 DUP3 DUP3 PUSH2 0x37CC JUMP JUMPDEST SWAP2 POP POP PUSH1 0x60 DUP4 ADD MLOAD PUSH2 0x38FD PUSH1 0x60 DUP7 ADD DUP3 PUSH2 0x3868 JUMP JUMPDEST POP PUSH1 0x80 DUP4 ADD MLOAD PUSH2 0x3910 PUSH1 0x80 DUP7 ADD DUP3 PUSH2 0x3795 JUMP JUMPDEST POP PUSH1 0xA0 DUP4 ADD MLOAD PUSH2 0x3923 PUSH1 0xA0 DUP7 ADD DUP3 PUSH2 0x3877 JUMP JUMPDEST POP PUSH1 0xC0 DUP4 ADD MLOAD PUSH2 0x3936 PUSH1 0xC0 DUP7 ADD DUP3 PUSH2 0x3891 JUMP JUMPDEST POP PUSH1 0xE0 DUP4 ADD MLOAD PUSH2 0x3949 PUSH1 0xE0 DUP7 ADD DUP3 PUSH2 0x3795 JUMP JUMPDEST POP DUP1 SWAP2 POP POP SWAP3 SWAP2 POP POP JUMP JUMPDEST PUSH0 PUSH2 0x395F DUP4 DUP4 PUSH2 0x38A0 JUMP JUMPDEST SWAP1 POP SWAP3 SWAP2 POP POP JUMP JUMPDEST PUSH0 PUSH1 0x20 DUP3 ADD SWAP1 POP SWAP2 SWAP1 POP JUMP JUMPDEST PUSH0 PUSH2 0x397D DUP3 PUSH2 0x3763 JUMP JUMPDEST PUSH2 0x3987 DUP2 DUP6 PUSH2 0x376D JUMP JUMPDEST SWAP4 POP DUP4 PUSH1 0x20 DUP3 MUL DUP6 ADD PUSH2 0x3999 DUP6 PUSH2 0x377D JUMP JUMPDEST DUP1 PUSH0 JUMPDEST DUP6 DUP2 LT ISZERO PUSH2 0x39D4 JUMPI DUP5 DUP5 SUB DUP10 MSTORE DUP2 MLOAD PUSH2 0x39B5 DUP6 DUP3 PUSH2 0x3954 JUMP JUMPDEST SWAP5 POP PUSH2 0x39C0 DUP4 PUSH2 0x3967 JUMP JUMPDEST SWAP3 POP PUSH1 0x20 DUP11 ADD SWAP10 POP POP PUSH1 0x1 DUP2 ADD SWAP1 POP PUSH2 0x399C JUMP JUMPDEST POP DUP3 SWAP8 POP DUP8 SWAP6 POP POP POP POP POP POP SWAP3 SWAP2 POP POP JUMP JUMPDEST PUSH0 PUSH1 0x20 DUP3 ADD SWAP1 POP DUP2 DUP2 SUB PUSH0 DUP4 ADD MSTORE PUSH2 0x39FE DUP2 DUP5 PUSH2 0x3973 JUMP JUMPDEST SWAP1 POP SWAP3 SWAP2 POP POP JUMP JUMPDEST PUSH2 0x3A0F DUP2 PUSH2 0x378C JUMP JUMPDEST DUP2 EQ PUSH2 0x3A19 JUMPI PUSH0 DUP1 REVERT JUMPDEST POP JUMP JUMPDEST PUSH0 DUP2 CALLDATALOAD SWAP1 POP PUSH2 0x3A2A DUP2 PUSH2 0x3A06 JUMP JUMPDEST SWAP3 SWAP2 POP POP JUMP JUMPDEST PUSH0 PUSH1 0x20 DUP3 DUP5 SUB SLT ISZERO PUSH2 0x3A45 JUMPI PUSH2 0x3A44 PUSH2 0x356B JUMP JUMPDEST JUMPDEST PUSH0 PUSH2 0x3A52 DUP5 DUP3 DUP6 ADD PUSH2 0x3A1C JUMP JUMPDEST SWAP2 POP POP SWAP3 SWAP2 POP POP JUMP JUMPDEST PUSH2 0x3A64 DUP2 PUSH2 0x3886 JUMP JUMPDEST DUP3 MSTORE POP POP JUMP JUMPDEST PUSH0 PUSH1 0x20 DUP3 ADD SWAP1 POP PUSH2 0x3A7D PUSH0 DUP4 ADD DUP5 PUSH2 0x3A5B JUMP JUMPDEST SWAP3 SWAP2 POP POP JUMP JUMPDEST PUSH0 DUP1 PUSH1 0x40 DUP4 DUP6 SUB SLT ISZERO PUSH2 0x3A99 JUMPI PUSH2 0x3A98 PUSH2 0x356B JUMP JUMPDEST JUMPDEST PUSH0 PUSH2 0x3AA6 DUP6 DUP3 DUP7 ADD PUSH2 0x3A1C JUMP JUMPDEST SWAP3 POP POP PUSH1 0x20 PUSH2 0x3AB7 DUP6 DUP3 DUP7 ADD PUSH2 0x35B9 JUMP JUMPDEST SWAP2 POP POP SWAP3 POP SWAP3 SWAP1 POP JUMP JUMPDEST PUSH0 PUSH1 0x20 DUP3 DUP5 SUB SLT ISZERO PUSH2 0x3AD6 JUMPI PUSH2 0x3AD5 PUSH2 0x356B JUMP JUMPDEST JUMPDEST PUSH0 DUP3 ADD CALLDATALOAD PUSH8 0xFFFFFFFFFFFFFFFF DUP2 GT ISZERO PUSH2 0x3AF3 JUMPI PUSH2 0x3AF2 PUSH2 0x356F JUMP JUMPDEST JUMPDEST PUSH2 0x3AFF DUP5 DUP3 DUP6 ADD PUSH2 0x36DC JUMP JUMPDEST SWAP2 POP POP SWAP3 SWAP2 POP POP JUMP JUMPDEST PUSH0 PUSH2 0x100 DUP4 ADD PUSH0 DUP4 ADD MLOAD PUSH2 0x3B1E PUSH0 DUP7 ADD DUP3 PUSH2 0x3795 JUMP JUMPDEST POP PUSH1 0x20 DUP4 ADD MLOAD DUP5 DUP3 SUB PUSH1 0x20 DUP7 ADD MSTORE PUSH2 0x3B36 DUP3 DUP3 PUSH2 0x37CC JUMP JUMPDEST SWAP2 POP POP PUSH1 0x40 DUP4 ADD MLOAD DUP5 DUP3 SUB PUSH1 0x40 DUP7 ADD MSTORE PUSH2 0x3B50 DUP3 DUP3 PUSH2 0x37CC JUMP JUMPDEST SWAP2 POP POP PUSH1 0x60 DUP4 ADD MLOAD PUSH2 0x3B65 PUSH1 0x60 DUP7 ADD DUP3 PUSH2 0x3868 JUMP JUMPDEST POP PUSH1 0x80 DUP4 ADD MLOAD PUSH2 0x3B78 PUSH1 0x80 DUP7 ADD DUP3 PUSH2 0x3795 JUMP JUMPDEST POP PUSH1 0xA0 DUP4 ADD MLOAD PUSH2 0x3B8B PUSH1 0xA0 DUP7 ADD DUP3 PUSH2 0x3877 JUMP JUMPDEST POP PUSH1 0xC0 DUP4 ADD MLOAD PUSH2 0x3B9E PUSH1 0xC0 DUP7 ADD DUP3 PUSH2 0x3891 JUMP JUMPDEST POP PUSH1 0xE0 DUP4 ADD MLOAD PUSH2 0x3BB1 PUSH1 0xE0 DUP7 ADD DUP3 PUSH2 0x3795 JUMP JUMPDEST POP DUP1 SWAP2 POP POP SWAP3 SWAP2 POP POP JUMP JUMPDEST PUSH0 PUSH1 0x20 DUP3 ADD SWAP1 POP DUP2 DUP2 SUB PUSH0 DUP4 ADD MSTORE PUSH2 0x3BD4 DUP2 DUP5 PUSH2 0x3B08 JUMP JUMPDEST SWAP1 POP SWAP3 SWAP2 POP POP JUMP JUMPDEST PUSH1 0x3 DUP2 LT PUSH2 0x3BE8 JUMPI PUSH0 DUP1 REVERT JUMPDEST POP JUMP JUMPDEST PUSH0 DUP2 CALLDATALOAD SWAP1 POP PUSH2 0x3BF9 DUP2 PUSH2 0x3BDC JUMP JUMPDEST SWAP3 SWAP2 POP POP JUMP JUMPDEST PUSH0 DUP1 PUSH0 DUP1 PUSH0 PUSH1 0xA0 DUP7 DUP9 SUB SLT ISZERO PUSH2 0x3C18 JUMPI PUSH2 0x3C17 PUSH2 0x356B JUMP JUMPDEST JUMPDEST PUSH0 DUP7 ADD CALLDATALOAD PUSH8 0xFFFFFFFFFFFFFFFF DUP2 GT ISZERO PUSH2 0x3C35 JUMPI PUSH2 0x3C34 PUSH2 0x356F JUMP JUMPDEST JUMPDEST PUSH2 0x3C41 DUP9 DUP3 DUP10 ADD PUSH2 0x36DC JUMP JUMPDEST SWAP6 POP POP PUSH1 0x20 DUP7 ADD CALLDATALOAD PUSH8 0xFFFFFFFFFFFFFFFF DUP2 GT ISZERO PUSH2 0x3C62 JUMPI PUSH2 0x3C61 PUSH2 0x356F JUMP JUMPDEST JUMPDEST PUSH2 0x3C6E DUP9 DUP3 DUP10 ADD PUSH2 0x36DC JUMP JUMPDEST SWAP5 POP POP PUSH1 0x40 PUSH2 0x3C7F DUP9 DUP3 DUP10 ADD PUSH2 0x3BEB JUMP JUMPDEST SWAP4 POP POP PUSH1 0x60 PUSH2 0x3C90 DUP9 DUP3 DUP10 ADD PUSH2 0x3A1C JUMP JUMPDEST SWAP3 POP POP PUSH1 0x80 PUSH2 0x3CA1 DUP9 DUP3 DUP10 ADD PUSH2 0x35B9 JUMP JUMPDEST SWAP2 POP POP SWAP3 SWAP6 POP SWAP3 SWAP6 SWAP1 SWAP4 POP JUMP JUMPDEST PUSH0 DUP3 DUP3 MSTORE PUSH1 0x20 DUP3 ADD SWAP1 POP SWAP3 SWAP2 POP POP JUMP JUMPDEST PUSH0 PUSH2 0x3CC8 DUP3 PUSH2 0x37A4 JUMP JUMPDEST PUSH2 0x3CD2 DUP2 DUP6 PUSH2 0x3CAE JUMP JUMPDEST SWAP4 POP PUSH2 0x3CE2 DUP2 DUP6 PUSH1 0x20 DUP7 ADD PUSH2 0x37BE JUMP JUMPDEST PUSH2 0x3CEB DUP2 PUSH2 0x35D5 JUMP JUMPDEST DUP5 ADD SWAP2 POP POP SWAP3 SWAP2 POP POP JUMP JUMPDEST PUSH0 PUSH1 0x20 DUP3 ADD SWAP1 POP DUP2 DUP2 SUB PUSH0 DUP4 ADD MSTORE PUSH2 0x3D0E DUP2 DUP5 PUSH2 0x3CBE JUMP JUMPDEST SWAP1 POP SWAP3 SWAP2 POP POP JUMP JUMPDEST PUSH0 DUP1 PUSH0 PUSH1 0x60 DUP5 DUP7 SUB SLT ISZERO PUSH2 0x3D2D JUMPI PUSH2 0x3D2C PUSH2 0x356B JUMP JUMPDEST JUMPDEST PUSH0 PUSH2 0x3D3A DUP7 DUP3 DUP8 ADD PUSH2 0x35B9 JUMP JUMPDEST SWAP4 POP POP PUSH1 0x20 PUSH2 0x3D4B DUP7 DUP3 DUP8 ADD PUSH2 0x35B9 JUMP JUMPDEST SWAP3 POP POP PUSH1 0x40 DUP5 ADD CALLDATALOAD PUSH8 0xFFFFFFFFFFFFFFFF DUP2 GT ISZERO PUSH2 0x3D6C JUMPI PUSH2 0x3D6B PUSH2 0x356F JUMP JUMPDEST JUMPDEST PUSH2 0x3D78 DUP7 DUP3 DUP8 ADD PUSH2 0x36DC JUMP JUMPDEST SWAP2 POP POP SWAP3 POP SWAP3 POP SWAP3 JUMP JUMPDEST PUSH0 DUP2 MLOAD SWAP1 POP SWAP2 SWAP1 POP JUMP JUMPDEST PUSH0 DUP3 DUP3 MSTORE PUSH1 0x20 DUP3 ADD SWAP1 POP SWAP3 SWAP2 POP POP JUMP JUMPDEST PUSH0 DUP2 SWAP1 POP PUSH1 0x20 DUP3 ADD SWAP1 POP SWAP2 SWAP1 POP JUMP JUMPDEST PUSH0 PUSH2 0x3DB6 DUP4 DUP4 PUSH2 0x37CC JUMP JUMPDEST SWAP1 POP SWAP3 SWAP2 POP POP JUMP JUMPDEST PUSH0 PUSH1 0x20 DUP3 ADD SWAP1 POP SWAP2 SWAP1 POP JUMP JUMPDEST PUSH0 PUSH2 0x3DD4 DUP3 PUSH2 0x3D82 JUMP JUMPDEST PUSH2 0x3DDE DUP2 DUP6 PUSH2 0x3D8C JUMP JUMPDEST SWAP4 POP DUP4 PUSH1 0x20 DUP3 MUL DUP6 ADD PUSH2 0x3DF0 DUP6 PUSH2 0x3D9C JUMP JUMPDEST DUP1 PUSH0 JUMPDEST DUP6 DUP2 LT ISZERO PUSH2 0x3E2B JUMPI DUP5 DUP5 SUB DUP10 MSTORE DUP2 MLOAD PUSH2 0x3E0C DUP6 DUP3 PUSH2 0x3DAB JUMP JUMPDEST SWAP5 POP PUSH2 0x3E17 DUP4 PUSH2 0x3DBE JUMP JUMPDEST SWAP3 POP PUSH1 0x20 DUP11 ADD SWAP10 POP POP PUSH1 0x1 DUP2 ADD SWAP1 POP PUSH2 0x3DF3 JUMP JUMPDEST POP DUP3 SWAP8 POP DUP8 SWAP6 POP POP POP POP POP POP SWAP3 SWAP2 POP POP JUMP JUMPDEST PUSH0 PUSH1 0x20 DUP3 ADD SWAP1 POP DUP2 DUP2 SUB PUSH0 DUP4 ADD MSTORE PUSH2 0x3E55 DUP2 DUP5 PUSH2 0x3DCA JUMP JUMPDEST SWAP1 POP SWAP3 SWAP2 POP POP JUMP JUMPDEST PUSH32 0x4E487B7100000000000000000000000000000000000000000000000000000000 PUSH0 MSTORE PUSH1 0x22 PUSH1 0x4 MSTORE PUSH1 0x24 PUSH0 REVERT JUMPDEST PUSH0 PUSH1 0x2 DUP3 DIV SWAP1 POP PUSH1 0x1 DUP3 AND DUP1 PUSH2 0x3EA1 JUMPI PUSH1 0x7F DUP3 AND SWAP2 POP JUMPDEST PUSH1 0x20 DUP3 LT DUP2 SUB PUSH2 0x3EB4 JUMPI PUSH2 0x3EB3 PUSH2 0x3E5D JUMP JUMPDEST JUMPDEST POP SWAP2 SWAP1 POP JUMP JUMPDEST PUSH0 DUP2 SWAP1 POP SWAP3 SWAP2 POP POP JUMP JUMPDEST PUSH0 DUP2 SWAP1 POP DUP2 PUSH0 MSTORE PUSH1 0x20 PUSH0 KECCAK256 SWAP1 POP SWAP2 SWAP1 POP JUMP JUMPDEST PUSH0 DUP2 SLOAD PUSH2 0x3EE2 DUP2 PUSH2 0x3E8A JUMP JUMPDEST PUSH2 0x3EEC DUP2 DUP7 PUSH2 0x3EBA JUMP JUMPDEST SWAP5 POP PUSH1 0x1 DUP3 AND PUSH0 DUP2 EQ PUSH2 0x3F06 JUMPI PUSH1 0x1 DUP2 EQ PUSH2 0x3F1B JUMPI PUSH2 0x3F4D JUMP JUMPDEST PUSH1 0xFF NOT DUP4 AND DUP7 MSTORE DUP2 ISZERO ISZERO DUP3 MUL DUP7 ADD SWAP4 POP PUSH2 0x3F4D JUMP JUMPDEST PUSH2 0x3F24 DUP6 PUSH2 0x3EC4 JUMP JUMPDEST PUSH0 JUMPDEST DUP4 DUP2 LT ISZERO PUSH2 0x3F45 JUMPI DUP2 SLOAD DUP2 DUP10 ADD MSTORE PUSH1 0x1 DUP3 ADD SWAP2 POP PUSH1 0x20 DUP2 ADD SWAP1 POP PUSH2 0x3F26 JUMP JUMPDEST DUP4 DUP9 ADD SWAP6 POP POP POP JUMPDEST POP POP POP SWAP3 SWAP2 POP POP JUMP JUMPDEST PUSH0 PUSH2 0x3F61 DUP3 DUP5 PUSH2 0x3ED6 JUMP JUMPDEST SWAP2 POP DUP2 SWAP1 POP SWAP3 SWAP2 POP POP JUMP JUMPDEST PUSH32 0x556E617574686F72697A656420616374696F6E00000000000000000000000000 PUSH0 DUP3 ADD MSTORE POP JUMP JUMPDEST PUSH0 PUSH2 0x3FA0 PUSH1 0x13 DUP4 PUSH2 0x3CAE JUMP JUMPDEST SWAP2 POP PUSH2 0x3FAB DUP3 PUSH2 0x3F6C JUMP JUMPDEST PUSH1 0x20 DUP3 ADD SWAP1 POP SWAP2 SWAP1 POP JUMP JUMPDEST PUSH0 PUSH1 0x20 DUP3 ADD SWAP1 POP DUP2 DUP2 SUB PUSH0 DUP4 ADD MSTORE PUSH2 0x3FCD DUP2 PUSH2 0x3F94 JUMP JUMPDEST SWAP1 POP SWAP2 SWAP1 POP JUMP JUMPDEST PUSH32 0x4E6F206578697374696E672044494420666F756E6420666F7220746869732061 PUSH0 DUP3 ADD MSTORE PUSH32 0x6464726573730000000000000000000000000000000000000000000000000000 PUSH1 0x20 DUP3 ADD MSTORE POP JUMP JUMPDEST PUSH0 PUSH2 0x402E PUSH1 0x26 DUP4 PUSH2 0x3CAE JUMP JUMPDEST SWAP2 POP PUSH2 0x4039 DUP3 PUSH2 0x3FD4 JUMP JUMPDEST PUSH1 0x40 DUP3 ADD SWAP1 POP SWAP2 SWAP1 POP JUMP JUMPDEST PUSH0 PUSH1 0x20 DUP3 ADD SWAP1 POP DUP2 DUP2 SUB PUSH0 DUP4 ADD MSTORE PUSH2 0x405B DUP2 PUSH2 0x4022 JUMP JUMPDEST SWAP1 POP SWAP2 SWAP1 POP JUMP JUMPDEST PUSH32 0x526F6C652063616E6E6F7420626520656D707479000000000000000000000000 PUSH0 DUP3 ADD MSTORE POP JUMP JUMPDEST PUSH0 PUSH2 0x4096 PUSH1 0x14 DUP4 PUSH2 0x3CAE JUMP JUMPDEST SWAP2 POP PUSH2 0x40A1 DUP3 PUSH2 0x4062 JUMP JUMPDEST PUSH1 0x20 DUP3 ADD SWAP1 POP SWAP2 SWAP1 POP JUMP JUMPDEST PUSH0 PUSH1 0x20 DUP3 ADD SWAP1 POP DUP2 DUP2 SUB PUSH0 DUP4 ADD MSTORE PUSH2 0x40C3 DUP2 PUSH2 0x408A JUMP JUMPDEST SWAP1 POP SWAP2 SWAP1 POP JUMP JUMPDEST PUSH0 DUP2 PUSH1 0x60 SHL SWAP1 POP SWAP2 SWAP1 POP JUMP JUMPDEST PUSH0 PUSH2 0x40E0 DUP3 PUSH2 0x40CA JUMP JUMPDEST SWAP1 POP SWAP2 SWAP1 POP JUMP JUMPDEST PUSH0 PUSH2 0x40F1 DUP3 PUSH2 0x40D6 JUMP JUMPDEST SWAP1 POP SWAP2 SWAP1 POP JUMP JUMPDEST PUSH2 0x4109 PUSH2 0x4104 DUP3 PUSH2 0x3592 JUMP JUMPDEST PUSH2 0x40E7 JUMP JUMPDEST DUP3 MSTORE POP POP JUMP JUMPDEST PUSH0 DUP2 SWAP1 POP SWAP3 SWAP2 POP POP JUMP JUMPDEST PUSH0 PUSH2 0x4123 DUP3 PUSH2 0x37A4 JUMP JUMPDEST PUSH2 0x412D DUP2 DUP6 PUSH2 0x410F JUMP JUMPDEST SWAP4 POP PUSH2 0x413D DUP2 DUP6 PUSH1 0x20 DUP7 ADD PUSH2 0x37BE JUMP JUMPDEST DUP1 DUP5 ADD SWAP2 POP POP SWAP3 SWAP2 POP POP JUMP JUMPDEST PUSH0 DUP2 SWAP1 POP SWAP2 SWAP1 POP JUMP JUMPDEST PUSH2 0x4163 PUSH2 0x415E DUP3 PUSH2 0x378C JUMP JUMPDEST PUSH2 0x4149 JUMP JUMPDEST DUP3 MSTORE POP POP JUMP JUMPDEST PUSH0 PUSH2 0x4174 DUP3 DUP8 PUSH2 0x40F8 JUMP JUMPDEST PUSH1 0x14 DUP3 ADD SWAP2 POP PUSH2 0x4184 DUP3 DUP7 PUSH2 0x40F8 JUMP JUMPDEST PUSH1 0x14 DUP3 ADD SWAP2 POP PUSH2 0x4194 DUP3 DUP6 PUSH2 0x4119 JUMP JUMPDEST SWAP2 POP PUSH2 0x41A0 DUP3 DUP5 PUSH2 0x4152 JUMP JUMPDEST PUSH1 0x20 DUP3 ADD SWAP2 POP DUP2 SWAP1 POP SWAP6 SWAP5 POP POP POP POP POP JUMP JUMPDEST PUSH0 DUP2 SWAP1 POP DUP2 PUSH0 MSTORE PUSH1 0x20 PUSH0 KECCAK256 SWAP1 POP SWAP2 SWAP1 POP JUMP JUMPDEST PUSH0 PUSH1 0x20 PUSH1 0x1F DUP4 ADD DIV SWAP1 POP SWAP2 SWAP1 POP JUMP JUMPDEST PUSH0 DUP3 DUP3 SHL SWAP1 POP SWAP3 SWAP2 POP POP JUMP JUMPDEST PUSH0 PUSH1 0x8 DUP4 MUL PUSH2 0x420E PUSH32 0xFFFFFFFFFFFFFFFFFFFFFFFFFFFFFFFFFFFFFFFFFFFFFFFFFFFFFFFFFFFFFFFF DUP3 PUSH2 0x41D3 JUMP JUMPDEST PUSH2 0x4218 DUP7 DUP4 PUSH2 0x41D3 JUMP JUMPDEST SWAP6 POP DUP1 NOT DUP5 AND SWAP4 POP DUP1 DUP7 AND DUP5 OR SWAP3 POP POP POP SWAP4 SWAP3 POP POP POP JUMP JUMPDEST PUSH0 DUP2 SWAP1 POP SWAP2 SWAP1 POP JUMP JUMPDEST PUSH0 PUSH2 0x4253 PUSH2 0x424E PUSH2 0x4249 DUP5 PUSH2 0x378C JUMP JUMPDEST PUSH2 0x4230 JUMP JUMPDEST PUSH2 0x378C JUMP JUMPDEST SWAP1 POP SWAP2 SWAP1 POP JUMP JUMPDEST PUSH0 DUP2 SWAP1 POP SWAP2 SWAP1 POP JUMP JUMPDEST PUSH2 0x426C DUP4 PUSH2 0x4239 JUMP JUMPDEST PUSH2 0x4280 PUSH2 0x4278 DUP3 PUSH2 0x425A JUMP JUMPDEST DUP5 DUP5 SLOAD PUSH2 0x41DF JUMP JUMPDEST DUP3 SSTORE POP POP POP POP JUMP JUMPDEST PUSH0 SWAP1 JUMP JUMPDEST PUSH2 0x4294 PUSH2 0x4288 JUMP JUMPDEST PUSH2 0x429F DUP2 DUP5 DUP5 PUSH2 0x4263 JUMP JUMPDEST POP POP POP JUMP JUMPDEST JUMPDEST DUP2 DUP2 LT ISZERO PUSH2 0x42C2 JUMPI PUSH2 0x42B7 PUSH0 DUP3 PUSH2 0x428C JUMP JUMPDEST PUSH1 0x1 DUP2 ADD SWAP1 POP PUSH2 0x42A5 JUMP JUMPDEST POP POP JUMP JUMPDEST PUSH1 0x1F DUP3 GT ISZERO PUSH2 0x4307 JUMPI PUSH2 0x42D8 DUP2 PUSH2 0x41B2 JUMP JUMPDEST PUSH2 0x42E1 DUP5 PUSH2 0x41C4 JUMP JUMPDEST DUP2 ADD PUSH1 0x20 DUP6 LT ISZERO PUSH2 0x42F0 JUMPI DUP2 SWAP1 POP JUMPDEST PUSH2 0x4304 PUSH2 0x42FC DUP6 PUSH2 0x41C4 JUMP JUMPDEST DUP4 ADD DUP3 PUSH2 0x42A4 JUMP JUMPDEST POP POP JUMPDEST POP POP POP JUMP JUMPDEST PUSH0 DUP3 DUP3 SHR SWAP1 POP SWAP3 SWAP2 POP POP JUMP JUMPDEST PUSH0 PUSH2 0x4327 PUSH0 NOT DUP5 PUSH1 0x8 MUL PUSH2 0x430C JUMP JUMPDEST NOT DUP1 DUP4 AND SWAP2 POP POP SWAP3 SWAP2 POP POP JUMP JUMPDEST PUSH0 PUSH2 0x433F DUP4 DUP4 PUSH2 0x4318 JUMP JUMPDEST SWAP2 POP DUP3 PUSH1 0x2 MUL DUP3 OR SWAP1 POP SWAP3 SWAP2 POP POP JUMP JUMPDEST PUSH2 0x4358 DUP3 PUSH2 0x37A4 JUMP JUMPDEST PUSH8 0xFFFFFFFFFFFFFFFF DUP2 GT ISZERO PUSH2 0x4371 JUMPI PUSH2 0x4370 PUSH2 0x35E5 JUMP JUMPDEST JUMPDEST PUSH2 0x437B DUP3 SLOAD PUSH2 0x3E8A JUMP JUMPDEST PUSH2 0x4386 DUP3 DUP3 DUP6 PUSH2 0x42C6 JUMP JUMPDEST PUSH0 PUSH1 0x20 SWAP1 POP PUSH1 0x1F DUP4 GT PUSH1 0x1 DUP2 EQ PUSH2 0x43B7 JUMPI PUSH0 DUP5 ISZERO PUSH2 0x43A5 JUMPI DUP3 DUP8 ADD MLOAD SWAP1 POP JUMPDEST PUSH2 0x43AF DUP6 DUP3 PUSH2 0x4334 JUMP JUMPDEST DUP7 SSTORE POP PUSH2 0x4416 JUMP JUMPDEST PUSH1 0x1F NOT DUP5 AND PUSH2 0x43C5 DUP7 PUSH2 0x41B2 JUMP JUMPDEST PUSH0 JUMPDEST DUP3 DUP2 LT ISZERO PUSH2 0x43EC JUMPI DUP5 DUP10 ADD MLOAD DUP3 SSTORE PUSH1 0x1 DUP3 ADD SWAP2 POP PUSH1 0x20 DUP6 ADD SWAP5 POP PUSH1 0x20 DUP2 ADD SWAP1 POP PUSH2 0x43C7 JUMP JUMPDEST DUP7 DUP4 LT ISZERO PUSH2 0x4409 JUMPI DUP5 DUP10 ADD MLOAD PUSH2 0x4405 PUSH1 0x1F DUP10 AND DUP3 PUSH2 0x4318 JUMP JUMPDEST DUP4 SSTORE POP JUMPDEST PUSH1 0x1 PUSH1 0x2 DUP9 MUL ADD DUP9 SSTORE POP POP POP JUMPDEST POP POP POP POP POP POP JUMP JUMPDEST PUSH2 0x4427 DUP2 PUSH2 0x3592 JUMP JUMPDEST DUP3 MSTORE POP POP JUMP JUMPDEST PUSH0 DUP2 SWAP1 POP SWAP2 SWAP1 POP JUMP JUMPDEST PUSH2 0x443F DUP2 PUSH2 0x442D JUMP JUMPDEST DUP3 MSTORE POP POP JUMP JUMPDEST PUSH0 PUSH1 0x60 DUP3 ADD SWAP1 POP PUSH2 0x4458 PUSH0 DUP4 ADD DUP7 PUSH2 0x441E JUMP JUMPDEST DUP2 DUP2 SUB PUSH1 0x20 DUP4 ADD MSTORE PUSH2 0x446A DUP2 DUP6 PUSH2 0x3CBE JUMP JUMPDEST SWAP1 POP PUSH2 0x4479 PUSH1 0x40 DUP4 ADD DUP5 PUSH2 0x4436 JUMP JUMPDEST SWAP5 SWAP4 POP POP POP POP JUMP JUMPDEST PUSH32 0x4E6F207461736B732068617665206265656E2061737369676E65640000000000 PUSH0 DUP3 ADD MSTORE POP JUMP JUMPDEST PUSH0 PUSH2 0x44B5 PUSH1 0x1B DUP4 PUSH2 0x3CAE JUMP JUMPDEST SWAP2 POP PUSH2 0x44C0 DUP3 PUSH2 0x4481 JUMP JUMPDEST PUSH1 0x20 DUP3 ADD SWAP1 POP SWAP2 SWAP1 POP JUMP JUMPDEST PUSH0 PUSH1 0x20 DUP3 ADD SWAP1 POP DUP2 DUP2 SUB PUSH0 DUP4 ADD MSTORE PUSH2 0x44E2 DUP2 PUSH2 0x44A9 JUMP JUMPDEST SWAP1 POP SWAP2 SWAP1 POP JUMP JUMPDEST PUSH32 0x4E487B7100000000000000000000000000000000000000000000000000000000 PUSH0 MSTORE PUSH1 0x32 PUSH1 0x4 MSTORE PUSH1 0x24 PUSH0 REVERT JUMPDEST PUSH32 0x5461736B206E6F7420666F756E64000000000000000000000000000000000000 PUSH0 DUP3 ADD MSTORE POP JUMP JUMPDEST PUSH0 PUSH2 0x454A PUSH1 0xE DUP4 PUSH2 0x3CAE JUMP JUMPDEST SWAP2 POP PUSH2 0x4555 DUP3 PUSH2 0x4516 JUMP JUMPDEST PUSH1 0x20 DUP3 ADD SWAP1 POP SWAP2 SWAP1 POP JUMP JUMPDEST PUSH0 PUSH1 0x20 DUP3 ADD SWAP1 POP DUP2 DUP2 SUB PUSH0 DUP4 ADD MSTORE PUSH2 0x4577 DUP2 PUSH2 0x453E JUMP JUMPDEST SWAP1 POP SWAP2 SWAP1 POP JUMP JUMPDEST PUSH0 PUSH1 0x40 DUP3 ADD SWAP1 POP PUSH2 0x4591 PUSH0 DUP4 ADD DUP6 PUSH2 0x441E JUMP JUMPDEST PUSH2 0x459E PUSH1 0x20 DUP4 ADD DUP5 PUSH2 0x3A5B JUMP JUMPDEST SWAP4 SWAP3 POP POP POP JUMP JUMPDEST PUSH32 0x4E6577206964656E7469666965722063616E6E6F7420626520656D7074790000 PUSH0 DUP3 ADD MSTORE POP JUMP JUMPDEST PUSH0 PUSH2 0x45D9 PUSH1 0x1E DUP4 PUSH2 0x3CAE JUMP JUMPDEST SWAP2 POP PUSH2 0x45E4 DUP3 PUSH2 0x45A5 JUMP JUMPDEST PUSH1 0x20 DUP3 ADD SWAP1 POP SWAP2 SWAP1 POP JUMP JUMPDEST PUSH0 PUSH1 0x20 DUP3 ADD SWAP1 POP DUP2 DUP2 SUB PUSH0 DUP4 ADD MSTORE PUSH2 0x4606 DUP2 PUSH2 0x45CD JUMP JUMPDEST SWAP1 POP SWAP2 SWAP1 POP JUMP JUMPDEST PUSH32 0x496E76616C6964206E6577206964656E74696669657200000000000000000000 PUSH0 DUP3 ADD MSTORE POP JUMP JUMPDEST PUSH0 PUSH2 0x4641 PUSH1 0x16 DUP4 PUSH2 0x3CAE JUMP JUMPDEST SWAP2 POP PUSH2 0x464C DUP3 PUSH2 0x460D JUMP JUMPDEST PUSH1 0x20 DUP3 ADD SWAP1 POP SWAP2 SWAP1 POP JUMP JUMPDEST PUSH0 PUSH1 0x20 DUP3 ADD SWAP1 POP DUP2 DUP2 SUB PUSH0 DUP4 ADD MSTORE PUSH2 0x466E DUP2 PUSH2 0x4635 JUMP JUMPDEST SWAP1 POP SWAP2 SWAP1 POP JUMP JUMPDEST PUSH32 0x4E6F7420617574686F72697A6564000000000000000000000000000000000000 PUSH0 DUP3 ADD MSTORE POP JUMP JUMPDEST PUSH0 PUSH2 0x46A9 PUSH1 0xE DUP4 PUSH2 0x3CAE JUMP JUMPDEST SWAP2 POP PUSH2 0x46B4 DUP3 PUSH2 0x4675 JUMP JUMPDEST PUSH1 0x20 DUP3 ADD SWAP1 POP SWAP2 SWAP1 POP JUMP JUMPDEST PUSH0 PUSH1 0x20 DUP3 ADD SWAP1 POP DUP2 DUP2 SUB PUSH0 DUP4 ADD MSTORE PUSH2 0x46D6 DUP2 PUSH2 0x469D JUMP JUMPDEST SWAP1 POP SWAP2 SWAP1 POP JUMP JUMPDEST PUSH32 0x596F752068617665206E6F207461736B73000000000000000000000000000000 PUSH0 DUP3 ADD MSTORE POP JUMP JUMPDEST PUSH0 PUSH2 0x4711 PUSH1 0x11 DUP4 PUSH2 0x3CAE JUMP JUMPDEST SWAP2 POP PUSH2 0x471C DUP3 PUSH2 0x46DD JUMP JUMPDEST PUSH1 0x20 DUP3 ADD SWAP1 POP SWAP2 SWAP1 POP JUMP JUMPDEST PUSH0 PUSH1 0x20 DUP3 ADD SWAP1 POP DUP2 DUP2 SUB PUSH0 DUP4 ADD MSTORE PUSH2 0x473E DUP2 PUSH2 0x4705 JUMP JUMPDEST SWAP1 POP SWAP2 SWAP1 POP JUMP JUMPDEST PUSH32 0x4964656E7469666965722063616E6E6F7420626520656D707479000000000000 PUSH0 DUP3 ADD MSTORE POP JUMP JUMPDEST PUSH0 PUSH2 0x4779 PUSH1 0x1A DUP4 PUSH2 0x3CAE JUMP JUMPDEST SWAP2 POP PUSH2 0x4784 DUP3 PUSH2 0x4745 JUMP JUMPDEST PUSH1 0x20 DUP3 ADD SWAP1 POP SWAP2 SWAP1 POP JUMP JUMPDEST PUSH0 PUSH1 0x20 DUP3 ADD SWAP1 POP DUP2 DUP2 SUB PUSH0 DUP4 ADD MSTORE PUSH2 0x47A6 DUP2 PUSH2 0x476D JUMP JUMPDEST SWAP1 POP SWAP2 SWAP1 POP JUMP JUMPDEST PUSH32 0x44494420616C72656164792065786973747320666F7220746869732061646472 PUSH0 DUP3 ADD MSTORE PUSH32 0x6573730000000000000000000000000000000000000000000000000000000000 PUSH1 0x20 DUP3 ADD MSTORE POP JUMP JUMPDEST PUSH0 PUSH2 0x4807 PUSH1 0x23 DUP4 PUSH2 0x3CAE JUMP JUMPDEST SWAP2 POP PUSH2 0x4812 DUP3 PUSH2 0x47AD JUMP JUMPDEST PUSH1 0x40 DUP3 ADD SWAP1 POP SWAP2 SWAP1 POP JUMP JUMPDEST PUSH0 PUSH1 0x20 DUP3 ADD SWAP1 POP DUP2 DUP2 SUB PUSH0 DUP4 ADD MSTORE PUSH2 0x4834 DUP2 PUSH2 0x47FB JUMP JUMPDEST SWAP1 POP SWAP2 SWAP1 POP JUMP JUMPDEST PUSH32 0x5469746C652063616E6E6F7420626520656D7074790000000000000000000000 PUSH0 DUP3 ADD MSTORE POP JUMP JUMPDEST PUSH0 PUSH2 0x486F PUSH1 0x15 DUP4 PUSH2 0x3CAE JUMP JUMPDEST SWAP2 POP PUSH2 0x487A DUP3 PUSH2 0x483B JUMP JUMPDEST PUSH1 0x20 DUP3 ADD SWAP1 POP SWAP2 SWAP1 POP JUMP JUMPDEST PUSH0 PUSH1 0x20 DUP3 ADD SWAP1 POP DUP2 DUP2 SUB PUSH0 DUP4 ADD MSTORE PUSH2 0x489C DUP2 PUSH2 0x4863 JUMP JUMPDEST SWAP1 POP SWAP2 SWAP1 POP JUMP JUMPDEST PUSH32 0x4465736372697074696F6E2063616E6E6F7420626520656D7074790000000000 PUSH0 DUP3 ADD MSTORE POP JUMP JUMPDEST PUSH0 PUSH2 0x48D7 PUSH1 0x1B DUP4 PUSH2 0x3CAE JUMP JUMPDEST SWAP2 POP PUSH2 0x48E2 DUP3 PUSH2 0x48A3 JUMP JUMPDEST PUSH1 0x20 DUP3 ADD SWAP1 POP SWAP2 SWAP1 POP JUMP JUMPDEST PUSH0 PUSH1 0x20 DUP3 ADD SWAP1 POP DUP2 DUP2 SUB PUSH0 DUP4 ADD MSTORE PUSH2 0x4904 DUP2 PUSH2 0x48CB JUMP JUMPDEST SWAP1 POP SWAP2 SWAP1 POP JUMP JUMPDEST PUSH32 0x5072696F72697479206F7574206F662072616E676520284C6F773A20302C204D PUSH0 DUP3 ADD MSTORE PUSH32 0x656469756D3A20312C20486967683A2032290000000000000000000000000000 PUSH1 0x20 DUP3 ADD MSTORE POP JUMP JUMPDEST PUSH0 PUSH2 0x4965 PUSH1 0x32 DUP4 PUSH2 0x3CAE JUMP JUMPDEST SWAP2 POP PUSH2 0x4970 DUP3 PUSH2 0x490B JUMP JUMPDEST PUSH1 0x40 DUP3 ADD SWAP1 POP SWAP2 SWAP1 POP JUMP JUMPDEST PUSH0 PUSH1 0x20 DUP3 ADD SWAP1 POP DUP2 DUP2 SUB PUSH0 DUP4 ADD MSTORE PUSH2 0x4992 DUP2 PUSH2 0x4959 JUMP JUMPDEST SWAP1 POP SWAP2 SWAP1 POP JUMP JUMPDEST PUSH32 0x4475652064617465206D75737420626520696E20746865206675747572650000 PUSH0 DUP3 ADD MSTORE POP JUMP JUMPDEST PUSH0 PUSH2 0x49CD PUSH1 0x1E DUP4 PUSH2 0x3CAE JUMP JUMPDEST SWAP2 POP PUSH2 0x49D8 DUP3 PUSH2 0x4999 JUMP JUMPDEST PUSH1 0x20 DUP3 ADD SWAP1 POP SWAP2 SWAP1 POP JUMP JUMPDEST PUSH0 PUSH1 0x20 DUP3 ADD SWAP1 POP DUP2 DUP2 SUB PUSH0 DUP4 ADD MSTORE PUSH2 0x49FA DUP2 PUSH2 0x49C1 JUMP JUMPDEST SWAP1 POP SWAP2 SWAP1 POP JUMP JUMPDEST PUSH2 0x4A0A DUP2 PUSH2 0x378C JUMP JUMPDEST DUP3 MSTORE POP POP JUMP JUMPDEST PUSH0 PUSH1 0x40 DUP3 ADD SWAP1 POP PUSH2 0x4A23 PUSH0 DUP4 ADD DUP6 PUSH2 0x441E JUMP JUMPDEST PUSH2 0x4A30 PUSH1 0x20 DUP4 ADD DUP5 PUSH2 0x4A01 JUMP JUMPDEST SWAP4 SWAP3 POP POP POP JUMP JUMPDEST PUSH32 0x4E487B7100000000000000000000000000000000000000000000000000000000 PUSH0 MSTORE PUSH1 0x11 PUSH1 0x4 MSTORE PUSH1 0x24 PUSH0 REVERT JUMPDEST PUSH0 PUSH2 0x4A6E DUP3 PUSH2 0x378C JUMP JUMPDEST SWAP2 POP PUSH32 0xFFFFFFFFFFFFFFFFFFFFFFFFFFFFFFFFFFFFFFFFFFFFFFFFFFFFFFFFFFFFFFFF DUP3 SUB PUSH2 0x4AA0 JUMPI PUSH2 0x4A9F PUSH2 0x4A37 JUMP JUMPDEST JUMPDEST PUSH1 0x1 DUP3 ADD SWAP1 POP SWAP2 SWAP1 POP JUMP JUMPDEST PUSH32 0x54686973207461736B20616C72656164792062656C6F6E67656420746F207468 PUSH0 DUP3 ADD MSTORE PUSH32 0x6520757365720000000000000000000000000000000000000000000000000000 PUSH1 0x20 DUP3 ADD MSTORE POP JUMP JUMPDEST PUSH0 PUSH2 0x4B05 PUSH1 0x26 DUP4 PUSH2 0x3CAE JUMP JUMPDEST SWAP2 POP PUSH2 0x4B10 DUP3 PUSH2 0x4AAB JUMP JUMPDEST PUSH1 0x40 DUP3 ADD SWAP1 POP SWAP2 SWAP1 POP JUMP JUMPDEST PUSH0 PUSH1 0x20 DUP3 ADD SWAP1 POP DUP2 DUP2 SUB PUSH0 DUP4 ADD MSTORE PUSH2 0x4B32 DUP2 PUSH2 0x4AF9 JUMP JUMPDEST SWAP1 POP SWAP2 SWAP1 POP JUMP JUMPDEST PUSH0 PUSH2 0x4B43 DUP3 PUSH2 0x378C JUMP JUMPDEST SWAP2 POP PUSH2 0x4B4E DUP4 PUSH2 0x378C JUMP JUMPDEST SWAP3 POP DUP3 DUP3 SUB SWAP1 POP DUP2 DUP2 GT ISZERO PUSH2 0x4B66 JUMPI PUSH2 0x4B65 PUSH2 0x4A37 JUMP JUMPDEST JUMPDEST SWAP3 SWAP2 POP POP JUMP JUMPDEST PUSH32 0x4E487B7100000000000000000000000000000000000000000000000000000000 PUSH0 MSTORE PUSH1 0x31 PUSH1 0x4 MSTORE PUSH1 0x24 PUSH0 REVERT JUMPDEST PUSH32 0x4E6F2044494420666F756E6420666F7220746869732061646472657373000000 PUSH0 DUP3 ADD MSTORE POP JUMP JUMPDEST PUSH0 PUSH2 0x4BCD PUSH1 0x1D DUP4 PUSH2 0x3CAE JUMP JUMPDEST SWAP2 POP PUSH2 0x4BD8 DUP3 PUSH2 0x4B99 JUMP JUMPDEST PUSH1 0x20 DUP3 ADD SWAP1 POP SWAP2 SWAP1 POP JUMP JUMPDEST PUSH0 PUSH1 0x20 DUP3 ADD SWAP1 POP DUP2 DUP2 SUB PUSH0 DUP4 ADD MSTORE PUSH2 0x4BFA DUP2 PUSH2 0x4BC1 JUMP JUMPDEST SWAP1 POP SWAP2 SWAP1 POP JUMP JUMPDEST PUSH32 0x5461736B20616C726561647920636F6D706C6574656400000000000000000000 PUSH0 DUP3 ADD MSTORE POP JUMP JUMPDEST PUSH0 PUSH2 0x4C35 PUSH1 0x16 DUP4 PUSH2 0x3CAE JUMP JUMPDEST SWAP2 POP PUSH2 0x4C40 DUP3 PUSH2 0x4C01 JUMP JUMPDEST PUSH1 0x20 DUP3 ADD SWAP1 POP SWAP2 SWAP1 POP JUMP JUMPDEST PUSH0 PUSH1 0x20 DUP3 ADD SWAP1 POP DUP2 DUP2 SUB PUSH0 DUP4 ADD MSTORE PUSH2 0x4C62 DUP2 PUSH2 0x4C29 JUMP JUMPDEST SWAP1 POP SWAP2 SWAP1 POP JUMP JUMPDEST PUSH0 PUSH1 0x20 DUP3 ADD SWAP1 POP PUSH2 0x4C7C PUSH0 DUP4 ADD DUP5 PUSH2 0x4A01 JUMP JUMPDEST SWAP3 SWAP2 POP POP JUMP JUMPDEST PUSH32 0x4E6F206578697374696E672044494420666F756E6420666F7220746869732075 PUSH0 DUP3 ADD MSTORE PUSH32 0x7365720000000000000000000000000000000000000000000000000000000000 PUSH1 0x20 DUP3 ADD MSTORE POP JUMP JUMPDEST PUSH0 PUSH2 0x4CDC PUSH1 0x23 DUP4 PUSH2 0x3CAE JUMP JUMPDEST SWAP2 POP PUSH2 0x4CE7 DUP3 PUSH2 0x4C82 JUMP JUMPDEST PUSH1 0x40 DUP3 ADD SWAP1 POP SWAP2 SWAP1 POP JUMP JUMPDEST PUSH0 PUSH1 0x20 DUP3 ADD SWAP1 POP DUP2 DUP2 SUB PUSH0 DUP4 ADD MSTORE PUSH2 0x4D09 DUP2 PUSH2 0x4CD0 JUMP JUMPDEST SWAP1 POP SWAP2 SWAP1 POP JUMP JUMPDEST PUSH32 0x5573657220646F6573206E6F74206861766520616E792063726564656E746961 PUSH0 DUP3 ADD MSTORE PUSH32 0x6C00000000000000000000000000000000000000000000000000000000000000 PUSH1 0x20 DUP3 ADD MSTORE POP JUMP JUMPDEST PUSH0 PUSH2 0x4D6A PUSH1 0x21 DUP4 PUSH2 0x3CAE JUMP JUMPDEST SWAP2 POP PUSH2 0x4D75 DUP3 PUSH2 0x4D10 JUMP JUMPDEST PUSH1 0x40 DUP3 ADD SWAP1 POP SWAP2 SWAP1 POP JUMP JUMPDEST PUSH0 PUSH1 0x20 DUP3 ADD SWAP1 POP DUP2 DUP2 SUB PUSH0 DUP4 ADD MSTORE PUSH2 0x4D97 DUP2 PUSH2 0x4D5E JUMP JUMPDEST SWAP1 POP SWAP2 SWAP1 POP JUMP JUMPDEST PUSH0 PUSH1 0x40 DUP3 ADD SWAP1 POP DUP2 DUP2 SUB PUSH0 DUP4 ADD MSTORE PUSH2 0x4DB6 DUP2 DUP6 PUSH2 0x3CBE JUMP JUMPDEST SWAP1 POP PUSH2 0x4DC5 PUSH1 0x20 DUP4 ADD DUP5 PUSH2 0x3A5B JUMP JUMPDEST SWAP4 SWAP3 POP POP POP JUMP JUMPDEST PUSH32 0x4E6F20726F6C65732061737369676E656420666F722074686973207573657200 PUSH0 DUP3 ADD MSTORE POP JUMP JUMPDEST PUSH0 PUSH2 0x4E00 PUSH1 0x1F DUP4 PUSH2 0x3CAE JUMP JUMPDEST SWAP2 POP PUSH2 0x4E0B DUP3 PUSH2 0x4DCC JUMP JUMPDEST PUSH1 0x20 DUP3 ADD SWAP1 POP SWAP2 SWAP1 POP JUMP JUMPDEST PUSH0 PUSH1 0x20 DUP3 ADD SWAP1 POP DUP2 DUP2 SUB PUSH0 DUP4 ADD MSTORE PUSH2 0x4E2D DUP2 PUSH2 0x4DF4 JUMP JUMPDEST SWAP1 POP SWAP2 SWAP1 POP JUMP INVALID LOG2 PUSH5 0x6970667358 0x22 SLT KECCAK256 SAR DUP14 0xF8 PUSH19 0xA862E1C20098C027C4672FA3A491878EE42D35 0xCA 0xB4 SWAP6 ADDRESS 0xB9 PUSH6 0xF8699E64736F PUSH13 0x634300081A0033000000000000 "
				},
				"gasEstimates": {
					"creation": {
						"codeDepositCost": "4014800",
						"executionCost": "infinite",
						"totalCost": "infinite"
					},
					"external": {
						"assignRole(address,string)": "infinite",
						"completeTask(uint256)": "infinite",
						"createDID(string)": "infinite",
						"createTask(string,string,uint8,uint256,address)": "infinite",
						"getDID()": "infinite",
						"getRole()": "infinite",
						"getTask(uint256)": "infinite",
						"getTasks()": "infinite",
						"getUserTasks()": "infinite",
						"issueRole(address,string)": "infinite",
						"reassignTask(uint256,address)": "infinite",
						"updateDID(string)": "infinite",
						"verifyRole(address,address,string)": "infinite",
						"verifyTaskDueDate(uint256)": "infinite",
						"verifyTaskOwnership(uint256,address)": "infinite",
						"verifyTaskStatus(uint256)": "infinite"
					}
				},
				"methodIdentifiers": {
					"assignRole(address,string)": "b7dfcbee",
					"completeTask(uint256)": "e1e29558",
					"createDID(string)": "3457d3e2",
					"createTask(string,string,uint8,uint256,address)": "4505e299",
					"getDID()": "bc9c2d55",
					"getRole()": "fde08174",
					"getTask(uint256)": "1d65e77e",
					"getTasks()": "04a87e38",
					"getUserTasks()": "34112f5f",
					"issueRole(address,string)": "022bf9c1",
					"reassignTask(uint256,address)": "6f6b07db",
					"updateDID(string)": "14c95832",
					"verifyRole(address,address,string)": "e4f0c22b",
					"verifyTaskDueDate(uint256)": "096f8494",
					"verifyTaskOwnership(uint256,address)": "10668264",
					"verifyTaskStatus(uint256)": "6c03a898"
				}
			},
			"storageLayout": {
				"storage": [
					{
						"astId": 43,
						"contract": "contracts/TaskManagement.sol:TaskManagement",
						"label": "dids",
						"offset": 0,
						"slot": "0",
						"type": "t_mapping(t_address,t_struct(DID)7_storage)"
					},
					{
						"astId": 47,
						"contract": "contracts/TaskManagement.sol:TaskManagement",
						"label": "roles",
						"offset": 0,
						"slot": "1",
						"type": "t_mapping(t_address,t_string_storage)"
					},
					{
						"astId": 52,
						"contract": "contracts/TaskManagement.sol:TaskManagement",
						"label": "roleHistory",
						"offset": 0,
						"slot": "2",
						"type": "t_mapping(t_address,t_array(t_string_storage)dyn_storage)"
					},
					{
						"astId": 58,
						"contract": "contracts/TaskManagement.sol:TaskManagement",
						"label": "credentials",
						"offset": 0,
						"slot": "3",
						"type": "t_mapping(t_address,t_array(t_struct(Credential)38_storage)dyn_storage)"
					},
					{
						"astId": 61,
						"contract": "contracts/TaskManagement.sol:TaskManagement",
						"label": "taskCounter",
						"offset": 0,
						"slot": "4",
						"type": "t_uint256"
					},
					{
						"astId": 66,
						"contract": "contracts/TaskManagement.sol:TaskManagement",
						"label": "tasks",
						"offset": 0,
						"slot": "5",
						"type": "t_mapping(t_uint256,t_struct(Task)29_storage)"
					},
					{
						"astId": 71,
						"contract": "contracts/TaskManagement.sol:TaskManagement",
						"label": "userTasks",
						"offset": 0,
						"slot": "6",
						"type": "t_mapping(t_address,t_array(t_uint256)dyn_storage)"
					}
				],
				"types": {
					"t_address": {
						"encoding": "inplace",
						"label": "address",
						"numberOfBytes": "20"
					},
					"t_array(t_string_storage)dyn_storage": {
						"base": "t_string_storage",
						"encoding": "dynamic_array",
						"label": "string[]",
						"numberOfBytes": "32"
					},
					"t_array(t_struct(Credential)38_storage)dyn_storage": {
						"base": "t_struct(Credential)38_storage",
						"encoding": "dynamic_array",
						"label": "struct TaskManagement.Credential[]",
						"numberOfBytes": "32"
					},
					"t_array(t_uint256)dyn_storage": {
						"base": "t_uint256",
						"encoding": "dynamic_array",
						"label": "uint256[]",
						"numberOfBytes": "32"
					},
					"t_bool": {
						"encoding": "inplace",
						"label": "bool",
						"numberOfBytes": "1"
					},
					"t_bytes32": {
						"encoding": "inplace",
						"label": "bytes32",
						"numberOfBytes": "32"
					},
					"t_enum(Priority)11": {
						"encoding": "inplace",
						"label": "enum TaskManagement.Priority",
						"numberOfBytes": "1"
					},
					"t_mapping(t_address,t_array(t_string_storage)dyn_storage)": {
						"encoding": "mapping",
						"key": "t_address",
						"label": "mapping(address => string[])",
						"numberOfBytes": "32",
						"value": "t_array(t_string_storage)dyn_storage"
					},
					"t_mapping(t_address,t_array(t_struct(Credential)38_storage)dyn_storage)": {
						"encoding": "mapping",
						"key": "t_address",
						"label": "mapping(address => struct TaskManagement.Credential[])",
						"numberOfBytes": "32",
						"value": "t_array(t_struct(Credential)38_storage)dyn_storage"
					},
					"t_mapping(t_address,t_array(t_uint256)dyn_storage)": {
						"encoding": "mapping",
						"key": "t_address",
						"label": "mapping(address => uint256[])",
						"numberOfBytes": "32",
						"value": "t_array(t_uint256)dyn_storage"
					},
					"t_mapping(t_address,t_string_storage)": {
						"encoding": "mapping",
						"key": "t_address",
						"label": "mapping(address => string)",
						"numberOfBytes": "32",
						"value": "t_string_storage"
					},
					"t_mapping(t_address,t_struct(DID)7_storage)": {
						"encoding": "mapping",
						"key": "t_address",
						"label": "mapping(address => struct TaskManagement.DID)",
						"numberOfBytes": "32",
						"value": "t_struct(DID)7_storage"
					},
					"t_mapping(t_uint256,t_struct(Task)29_storage)": {
						"encoding": "mapping",
						"key": "t_uint256",
						"label": "mapping(uint256 => struct TaskManagement.Task)",
						"numberOfBytes": "32",
						"value": "t_struct(Task)29_storage"
					},
					"t_string_storage": {
						"encoding": "bytes",
						"label": "string",
						"numberOfBytes": "32"
					},
					"t_struct(Credential)38_storage": {
						"encoding": "inplace",
						"label": "struct TaskManagement.Credential",
						"members": [
							{
								"astId": 31,
								"contract": "contracts/TaskManagement.sol:TaskManagement",
								"label": "issuer",
								"offset": 0,
								"slot": "0",
								"type": "t_address"
							},
							{
								"astId": 33,
								"contract": "contracts/TaskManagement.sol:TaskManagement",
								"label": "role",
								"offset": 0,
								"slot": "1",
								"type": "t_string_storage"
							},
							{
								"astId": 35,
								"contract": "contracts/TaskManagement.sol:TaskManagement",
								"label": "roleHash",
								"offset": 0,
								"slot": "2",
								"type": "t_bytes32"
							},
							{
								"astId": 37,
								"contract": "contracts/TaskManagement.sol:TaskManagement",
								"label": "issueAt",
								"offset": 0,
								"slot": "3",
								"type": "t_uint256"
							}
						],
						"numberOfBytes": "128"
					},
					"t_struct(DID)7_storage": {
						"encoding": "inplace",
						"label": "struct TaskManagement.DID",
						"members": [
							{
								"astId": 4,
								"contract": "contracts/TaskManagement.sol:TaskManagement",
								"label": "identifier",
								"offset": 0,
								"slot": "0",
								"type": "t_string_storage"
							},
							{
								"astId": 6,
								"contract": "contracts/TaskManagement.sol:TaskManagement",
								"label": "owner",
								"offset": 0,
								"slot": "1",
								"type": "t_address"
							}
						],
						"numberOfBytes": "64"
					},
					"t_struct(Task)29_storage": {
						"encoding": "inplace",
						"label": "struct TaskManagement.Task",
						"members": [
							{
								"astId": 13,
								"contract": "contracts/TaskManagement.sol:TaskManagement",
								"label": "id",
								"offset": 0,
								"slot": "0",
								"type": "t_uint256"
							},
							{
								"astId": 15,
								"contract": "contracts/TaskManagement.sol:TaskManagement",
								"label": "title",
								"offset": 0,
								"slot": "1",
								"type": "t_string_storage"
							},
							{
								"astId": 17,
								"contract": "contracts/TaskManagement.sol:TaskManagement",
								"label": "description",
								"offset": 0,
								"slot": "2",
								"type": "t_string_storage"
							},
							{
								"astId": 20,
								"contract": "contracts/TaskManagement.sol:TaskManagement",
								"label": "priority",
								"offset": 0,
								"slot": "3",
								"type": "t_enum(Priority)11"
							},
							{
								"astId": 22,
								"contract": "contracts/TaskManagement.sol:TaskManagement",
								"label": "dueDate",
								"offset": 0,
								"slot": "4",
								"type": "t_uint256"
							},
							{
								"astId": 24,
								"contract": "contracts/TaskManagement.sol:TaskManagement",
								"label": "assignedTo",
								"offset": 0,
								"slot": "5",
								"type": "t_address"
							},
							{
								"astId": 26,
								"contract": "contracts/TaskManagement.sol:TaskManagement",
								"label": "isCompleted",
								"offset": 20,
								"slot": "5",
								"type": "t_bool"
							},
							{
								"astId": 28,
								"contract": "contracts/TaskManagement.sol:TaskManagement",
								"label": "completedAt",
								"offset": 0,
								"slot": "6",
								"type": "t_uint256"
							}
						],
						"numberOfBytes": "224"
					},
					"t_uint256": {
						"encoding": "inplace",
						"label": "uint256",
						"numberOfBytes": "32"
					}
				}
			},
			"userdoc": {
				"kind": "user",
				"methods": {},
				"version": 1
			}
		}
	}
}