{
	"contracts/TaskManagement.sol": {
		"TaskManagement": {
			"abi": [
				{
					"inputs": [],
					"stateMutability": "nonpayable",
					"type": "constructor"
				},
				{
					"anonymous": false,
					"inputs": [
						{
							"indexed": true,
							"internalType": "address",
							"name": "owner",
							"type": "address"
						},
						{
							"indexed": false,
							"internalType": "string",
							"name": "identifier",
							"type": "string"
						}
					],
					"name": "DIDCreated",
					"type": "event"
				},
				{
					"anonymous": false,
					"inputs": [
						{
							"indexed": true,
							"internalType": "address",
							"name": "user",
							"type": "address"
						},
						{
							"indexed": false,
							"internalType": "string",
							"name": "role",
							"type": "string"
						}
					],
					"name": "RoleAssigned",
					"type": "event"
				},
				{
					"anonymous": false,
					"inputs": [
						{
							"indexed": true,
							"internalType": "address",
							"name": "issuer",
							"type": "address"
						},
						{
							"indexed": false,
							"internalType": "address",
							"name": "user",
							"type": "address"
						},
						{
							"indexed": false,
							"internalType": "string",
							"name": "role",
							"type": "string"
						},
						{
							"indexed": false,
							"internalType": "bytes32",
							"name": "roleHash",
							"type": "bytes32"
						}
					],
					"name": "RoleIssued",
					"type": "event"
				},
				{
					"anonymous": false,
					"inputs": [
						{
							"indexed": true,
							"internalType": "address",
							"name": "assignee",
							"type": "address"
						},
						{
							"indexed": false,
							"internalType": "uint256",
							"name": "taskID",
							"type": "uint256"
						}
					],
					"name": "TaskCompleted",
					"type": "event"
				},
				{
					"anonymous": false,
					"inputs": [
						{
							"indexed": true,
							"internalType": "address",
							"name": "assignee",
							"type": "address"
						},
						{
							"indexed": false,
							"internalType": "uint256",
							"name": "taskID",
							"type": "uint256"
						},
						{
							"indexed": false,
							"internalType": "string",
							"name": "taskName",
							"type": "string"
						}
					],
					"name": "TaskCreated",
					"type": "event"
				},
				{
					"inputs": [
						{
							"internalType": "address",
							"name": "_user",
							"type": "address"
						},
						{
							"internalType": "string",
							"name": "_role",
							"type": "string"
						}
					],
					"name": "assignRole",
					"outputs": [],
					"stateMutability": "nonpayable",
					"type": "function"
				},
				{
					"inputs": [
						{
							"internalType": "uint256",
							"name": "_taskId",
							"type": "uint256"
						}
					],
					"name": "completeTask",
					"outputs": [],
					"stateMutability": "nonpayable",
					"type": "function"
				},
				{
					"inputs": [
						{
							"internalType": "string",
							"name": "_identifier",
							"type": "string"
						}
					],
					"name": "createDID",
					"outputs": [],
					"stateMutability": "nonpayable",
					"type": "function"
				},
				{
					"inputs": [
						{
							"internalType": "string",
							"name": "_name",
							"type": "string"
						},
						{
							"internalType": "string",
							"name": "_description",
							"type": "string"
						},
						{
							"internalType": "uint256",
							"name": "_priority",
							"type": "uint256"
						},
						{
							"internalType": "uint256",
							"name": "_dueDate",
							"type": "uint256"
						},
						{
							"internalType": "address",
							"name": "_assignedTo",
							"type": "address"
						}
					],
					"name": "createTask",
					"outputs": [],
					"stateMutability": "nonpayable",
					"type": "function"
				},
				{
					"inputs": [],
					"name": "getDID",
					"outputs": [
						{
							"internalType": "string",
							"name": "",
							"type": "string"
						}
					],
					"stateMutability": "view",
					"type": "function"
				},
				{
					"inputs": [],
					"name": "getRole",
					"outputs": [
						{
							"internalType": "string[]",
							"name": "",
							"type": "string[]"
						}
					],
					"stateMutability": "view",
					"type": "function"
				},
				{
					"inputs": [
						{
							"internalType": "uint256",
							"name": "_id",
							"type": "uint256"
						}
					],
					"name": "getTask",
					"outputs": [
						{
							"components": [
								{
									"internalType": "uint256",
									"name": "id",
									"type": "uint256"
								},
								{
									"internalType": "string",
									"name": "name",
									"type": "string"
								},
								{
									"internalType": "string",
									"name": "description",
									"type": "string"
								},
								{
									"internalType": "uint256",
									"name": "priority",
									"type": "uint256"
								},
								{
									"internalType": "uint256",
									"name": "dueDate",
									"type": "uint256"
								},
								{
									"internalType": "address",
									"name": "assignedTo",
									"type": "address"
								},
								{
									"internalType": "bool",
									"name": "isCompleted",
									"type": "bool"
								},
								{
									"internalType": "uint256",
									"name": "completedAt",
									"type": "uint256"
								}
							],
							"internalType": "struct TaskManagement.Task",
							"name": "",
							"type": "tuple"
						}
					],
					"stateMutability": "view",
					"type": "function"
				},
				{
					"inputs": [],
					"name": "getTasks",
					"outputs": [
						{
							"components": [
								{
									"internalType": "uint256",
									"name": "id",
									"type": "uint256"
								},
								{
									"internalType": "string",
									"name": "name",
									"type": "string"
								},
								{
									"internalType": "string",
									"name": "description",
									"type": "string"
								},
								{
									"internalType": "uint256",
									"name": "priority",
									"type": "uint256"
								},
								{
									"internalType": "uint256",
									"name": "dueDate",
									"type": "uint256"
								},
								{
									"internalType": "address",
									"name": "assignedTo",
									"type": "address"
								},
								{
									"internalType": "bool",
									"name": "isCompleted",
									"type": "bool"
								},
								{
									"internalType": "uint256",
									"name": "completedAt",
									"type": "uint256"
								}
							],
							"internalType": "struct TaskManagement.Task[]",
							"name": "",
							"type": "tuple[]"
						}
					],
					"stateMutability": "view",
					"type": "function"
				},
				{
					"inputs": [
						{
							"internalType": "address",
							"name": "_user",
							"type": "address"
						},
						{
							"internalType": "string",
							"name": "_role",
							"type": "string"
						}
					],
					"name": "issueRole",
					"outputs": [],
					"stateMutability": "nonpayable",
					"type": "function"
				},
				{
					"inputs": [],
					"name": "taskCounter",
					"outputs": [
						{
							"internalType": "uint256",
							"name": "",
							"type": "uint256"
						}
					],
					"stateMutability": "view",
					"type": "function"
				},
				{
					"inputs": [
						{
							"internalType": "uint256",
							"name": "",
							"type": "uint256"
						}
					],
					"name": "tasks",
					"outputs": [
						{
							"internalType": "uint256",
							"name": "id",
							"type": "uint256"
						},
						{
							"internalType": "string",
							"name": "name",
							"type": "string"
						},
						{
							"internalType": "string",
							"name": "description",
							"type": "string"
						},
						{
							"internalType": "uint256",
							"name": "priority",
							"type": "uint256"
						},
						{
							"internalType": "uint256",
							"name": "dueDate",
							"type": "uint256"
						},
						{
							"internalType": "address",
							"name": "assignedTo",
							"type": "address"
						},
						{
							"internalType": "bool",
							"name": "isCompleted",
							"type": "bool"
						},
						{
							"internalType": "uint256",
							"name": "completedAt",
							"type": "uint256"
						}
					],
					"stateMutability": "view",
					"type": "function"
				},
				{
					"inputs": [
						{
							"internalType": "string",
							"name": "_newIdentifier",
							"type": "string"
						}
					],
					"name": "updateDID",
					"outputs": [],
					"stateMutability": "nonpayable",
					"type": "function"
				}
			],
			"devdoc": {
				"kind": "dev",
				"methods": {},
				"version": 1
			},
			"evm": {
				"assembly": "    /* \"contracts/TaskManagement.sol\":60:6991  contract TaskManagement {... */\n  mstore(0x40, 0x80)\n    /* \"contracts/TaskManagement.sol\":555:556  0 */\n  0x00\n    /* \"contracts/TaskManagement.sol\":529:556  uint public taskCounter = 0 */\n  dup1\n  sstore\n    /* \"contracts/TaskManagement.sol\":1389:1501  constructor() {... */\n  callvalue\n  dup1\n  iszero\n  tag_1\n  jumpi\n  0x00\n  dup1\n  revert\ntag_1:\n  pop\n    /* \"contracts/TaskManagement.sol\":1414:1443  roles[msg.sender] = \"manager\" */\n  mload(0x40)\n  dup1\n  0x40\n  add\n  0x40\n  mstore\n  dup1\n  0x07\n  dup2\n  mstore\n  0x20\n  add\n  0x6d616e6167657200000000000000000000000000000000000000000000000000\n  dup2\n  mstore\n  pop\n    /* \"contracts/TaskManagement.sol\":1414:1419  roles */\n  0x02\n    /* \"contracts/TaskManagement.sol\":1414:1431  roles[msg.sender] */\n  0x00\n    /* \"contracts/TaskManagement.sol\":1420:1430  msg.sender */\n  caller\n    /* \"contracts/TaskManagement.sol\":1414:1431  roles[msg.sender] */\n  0xffffffffffffffffffffffffffffffffffffffff\n  and\n  0xffffffffffffffffffffffffffffffffffffffff\n  and\n  dup2\n  mstore\n  0x20\n  add\n  swap1\n  dup2\n  mstore\n  0x20\n  add\n  0x00\n  keccak256\n    /* \"contracts/TaskManagement.sol\":1414:1443  roles[msg.sender] = \"manager\" */\n  swap1\n  dup2\n  tag_4\n  swap2\n  swap1\n  tag_5\n  jump\t// in\ntag_4:\n  pop\n    /* \"contracts/TaskManagement.sol\":1454:1465  roleHistory */\n  0x03\n    /* \"contracts/TaskManagement.sol\":1454:1477  roleHistory[msg.sender] */\n  0x00\n    /* \"contracts/TaskManagement.sol\":1466:1476  msg.sender */\n  caller\n    /* \"contracts/TaskManagement.sol\":1454:1477  roleHistory[msg.sender] */\n  0xffffffffffffffffffffffffffffffffffffffff\n  and\n  0xffffffffffffffffffffffffffffffffffffffff\n  and\n  dup2\n  mstore\n  0x20\n  add\n  swap1\n  dup2\n  mstore\n  0x20\n  add\n  0x00\n  keccak256\n    /* \"contracts/TaskManagement.sol\":1454:1493  roleHistory[msg.sender].push(\"manager\") */\n  dup1\n  0x01\n  dup2\n  sload\n  add\n  dup1\n  dup3\n  sstore\n  dup1\n  swap2\n  pop\n  pop\n  0x01\n  swap1\n  sub\n  swap1\n  0x00\n  mstore\n  keccak256(0x00, 0x20)\n  add\n  0x00\n  mload(0x40)\n  dup1\n  0x40\n  add\n  0x40\n  mstore\n  dup1\n  0x07\n  dup2\n  mstore\n  0x20\n  add\n  0x6d616e6167657200000000000000000000000000000000000000000000000000\n  dup2\n  mstore\n  pop\n  swap1\n  swap2\n  swap1\n  swap2\n  pop\n  swap1\n  dup2\n  tag_7\n  swap2\n  swap1\n  tag_5\n  jump\t// in\ntag_7:\n  pop\n    /* \"contracts/TaskManagement.sol\":60:6991  contract TaskManagement {... */\n  jump(tag_8)\n    /* \"#utility.yul\":7:106   */\ntag_9:\n    /* \"#utility.yul\":59:65   */\n  0x00\n    /* \"#utility.yul\":93:98   */\n  dup2\n    /* \"#utility.yul\":87:99   */\n  mload\n    /* \"#utility.yul\":77:99   */\n  swap1\n  pop\n    /* \"#utility.yul\":7:106   */\n  swap2\n  swap1\n  pop\n  jump\t// out\n    /* \"#utility.yul\":112:292   */\ntag_10:\n    /* \"#utility.yul\":160:237   */\n  0x4e487b7100000000000000000000000000000000000000000000000000000000\n    /* \"#utility.yul\":157:158   */\n  0x00\n    /* \"#utility.yul\":150:238   */\n  mstore\n    /* \"#utility.yul\":257:261   */\n  0x41\n    /* \"#utility.yul\":254:255   */\n  0x04\n    /* \"#utility.yul\":247:262   */\n  mstore\n    /* \"#utility.yul\":281:285   */\n  0x24\n    /* \"#utility.yul\":278:279   */\n  0x00\n    /* \"#utility.yul\":271:286   */\n  revert\n    /* \"#utility.yul\":298:478   */\ntag_11:\n    /* \"#utility.yul\":346:423   */\n  0x4e487b7100000000000000000000000000000000000000000000000000000000\n    /* \"#utility.yul\":343:344   */\n  0x00\n    /* \"#utility.yul\":336:424   */\n  mstore\n    /* \"#utility.yul\":443:447   */\n  0x22\n    /* \"#utility.yul\":440:441   */\n  0x04\n    /* \"#utility.yul\":433:448   */\n  mstore\n    /* \"#utility.yul\":467:471   */\n  0x24\n    /* \"#utility.yul\":464:465   */\n  0x00\n    /* \"#utility.yul\":457:472   */\n  revert\n    /* \"#utility.yul\":484:804   */\ntag_12:\n    /* \"#utility.yul\":528:534   */\n  0x00\n    /* \"#utility.yul\":565:566   */\n  0x02\n    /* \"#utility.yul\":559:563   */\n  dup3\n    /* \"#utility.yul\":555:567   */\n  div\n    /* \"#utility.yul\":545:567   */\n  swap1\n  pop\n    /* \"#utility.yul\":612:613   */\n  0x01\n    /* \"#utility.yul\":606:610   */\n  dup3\n    /* \"#utility.yul\":602:614   */\n  and\n    /* \"#utility.yul\":633:651   */\n  dup1\n    /* \"#utility.yul\":623:704   */\n  tag_34\n  jumpi\n    /* \"#utility.yul\":689:693   */\n  0x7f\n    /* \"#utility.yul\":681:687   */\n  dup3\n    /* \"#utility.yul\":677:694   */\n  and\n    /* \"#utility.yul\":667:694   */\n  swap2\n  pop\n    /* \"#utility.yul\":623:704   */\ntag_34:\n    /* \"#utility.yul\":751:753   */\n  0x20\n    /* \"#utility.yul\":743:749   */\n  dup3\n    /* \"#utility.yul\":740:754   */\n  lt\n    /* \"#utility.yul\":720:738   */\n  dup2\n    /* \"#utility.yul\":717:755   */\n  sub\n    /* \"#utility.yul\":714:798   */\n  tag_35\n  jumpi\n    /* \"#utility.yul\":770:788   */\n  tag_36\n  tag_11\n  jump\t// in\ntag_36:\n    /* \"#utility.yul\":714:798   */\ntag_35:\n    /* \"#utility.yul\":535:804   */\n  pop\n    /* \"#utility.yul\":484:804   */\n  swap2\n  swap1\n  pop\n  jump\t// out\n    /* \"#utility.yul\":810:951   */\ntag_13:\n    /* \"#utility.yul\":859:863   */\n  0x00\n    /* \"#utility.yul\":882:885   */\n  dup2\n    /* \"#utility.yul\":874:885   */\n  swap1\n  pop\n    /* \"#utility.yul\":905:908   */\n  dup2\n    /* \"#utility.yul\":902:903   */\n  0x00\n    /* \"#utility.yul\":895:909   */\n  mstore\n    /* \"#utility.yul\":939:943   */\n  0x20\n    /* \"#utility.yul\":936:937   */\n  0x00\n    /* \"#utility.yul\":926:944   */\n  keccak256\n    /* \"#utility.yul\":918:944   */\n  swap1\n  pop\n    /* \"#utility.yul\":810:951   */\n  swap2\n  swap1\n  pop\n  jump\t// out\n    /* \"#utility.yul\":957:1050   */\ntag_14:\n    /* \"#utility.yul\":994:1000   */\n  0x00\n    /* \"#utility.yul\":1041:1043   */\n  0x20\n    /* \"#utility.yul\":1036:1038   */\n  0x1f\n    /* \"#utility.yul\":1029:1034   */\n  dup4\n    /* \"#utility.yul\":1025:1039   */\n  add\n    /* \"#utility.yul\":1021:1044   */\n  div\n    /* \"#utility.yul\":1011:1044   */\n  swap1\n  pop\n    /* \"#utility.yul\":957:1050   */\n  swap2\n  swap1\n  pop\n  jump\t// out\n    /* \"#utility.yul\":1056:1163   */\ntag_15:\n    /* \"#utility.yul\":1100:1108   */\n  0x00\n    /* \"#utility.yul\":1150:1155   */\n  dup3\n    /* \"#utility.yul\":1144:1148   */\n  dup3\n    /* \"#utility.yul\":1140:1156   */\n  shl\n    /* \"#utility.yul\":1119:1156   */\n  swap1\n  pop\n    /* \"#utility.yul\":1056:1163   */\n  swap3\n  swap2\n  pop\n  pop\n  jump\t// out\n    /* \"#utility.yul\":1169:1562   */\ntag_16:\n    /* \"#utility.yul\":1238:1244   */\n  0x00\n    /* \"#utility.yul\":1288:1289   */\n  0x08\n    /* \"#utility.yul\":1276:1286   */\n  dup4\n    /* \"#utility.yul\":1272:1290   */\n  mul\n    /* \"#utility.yul\":1311:1408   */\n  tag_41\n    /* \"#utility.yul\":1341:1407   */\n  0xffffffffffffffffffffffffffffffffffffffffffffffffffffffffffffffff\n    /* \"#utility.yul\":1330:1339   */\n  dup3\n    /* \"#utility.yul\":1311:1408   */\n  tag_15\n  jump\t// in\ntag_41:\n    /* \"#utility.yul\":1429:1468   */\n  tag_42\n    /* \"#utility.yul\":1459:1467   */\n  dup7\n    /* \"#utility.yul\":1448:1457   */\n  dup4\n    /* \"#utility.yul\":1429:1468   */\n  tag_15\n  jump\t// in\ntag_42:\n    /* \"#utility.yul\":1417:1468   */\n  swap6\n  pop\n    /* \"#utility.yul\":1501:1505   */\n  dup1\n    /* \"#utility.yul\":1497:1506   */\n  not\n    /* \"#utility.yul\":1490:1495   */\n  dup5\n    /* \"#utility.yul\":1486:1507   */\n  and\n    /* \"#utility.yul\":1477:1507   */\n  swap4\n  pop\n    /* \"#utility.yul\":1550:1554   */\n  dup1\n    /* \"#utility.yul\":1540:1548   */\n  dup7\n    /* \"#utility.yul\":1536:1555   */\n  and\n    /* \"#utility.yul\":1529:1534   */\n  dup5\n    /* \"#utility.yul\":1526:1556   */\n  or\n    /* \"#utility.yul\":1516:1556   */\n  swap3\n  pop\n    /* \"#utility.yul\":1245:1562   */\n  pop\n  pop\n    /* \"#utility.yul\":1169:1562   */\n  swap4\n  swap3\n  pop\n  pop\n  pop\n  jump\t// out\n    /* \"#utility.yul\":1568:1645   */\ntag_17:\n    /* \"#utility.yul\":1605:1612   */\n  0x00\n    /* \"#utility.yul\":1634:1639   */\n  dup2\n    /* \"#utility.yul\":1623:1639   */\n  swap1\n  pop\n    /* \"#utility.yul\":1568:1645   */\n  swap2\n  swap1\n  pop\n  jump\t// out\n    /* \"#utility.yul\":1651:1711   */\ntag_18:\n    /* \"#utility.yul\":1679:1682   */\n  0x00\n    /* \"#utility.yul\":1700:1705   */\n  dup2\n    /* \"#utility.yul\":1693:1705   */\n  swap1\n  pop\n    /* \"#utility.yul\":1651:1711   */\n  swap2\n  swap1\n  pop\n  jump\t// out\n    /* \"#utility.yul\":1717:1859   */\ntag_19:\n    /* \"#utility.yul\":1767:1776   */\n  0x00\n    /* \"#utility.yul\":1800:1853   */\n  tag_46\n    /* \"#utility.yul\":1818:1852   */\n  tag_47\n    /* \"#utility.yul\":1827:1851   */\n  tag_48\n    /* \"#utility.yul\":1845:1850   */\n  dup5\n    /* \"#utility.yul\":1827:1851   */\n  tag_17\n  jump\t// in\ntag_48:\n    /* \"#utility.yul\":1818:1852   */\n  tag_18\n  jump\t// in\ntag_47:\n    /* \"#utility.yul\":1800:1853   */\n  tag_17\n  jump\t// in\ntag_46:\n    /* \"#utility.yul\":1787:1853   */\n  swap1\n  pop\n    /* \"#utility.yul\":1717:1859   */\n  swap2\n  swap1\n  pop\n  jump\t// out\n    /* \"#utility.yul\":1865:1940   */\ntag_20:\n    /* \"#utility.yul\":1908:1911   */\n  0x00\n    /* \"#utility.yul\":1929:1934   */\n  dup2\n    /* \"#utility.yul\":1922:1934   */\n  swap1\n  pop\n    /* \"#utility.yul\":1865:1940   */\n  swap2\n  swap1\n  pop\n  jump\t// out\n    /* \"#utility.yul\":1946:2215   */\ntag_21:\n    /* \"#utility.yul\":2056:2095   */\n  tag_51\n    /* \"#utility.yul\":2087:2094   */\n  dup4\n    /* \"#utility.yul\":2056:2095   */\n  tag_19\n  jump\t// in\ntag_51:\n    /* \"#utility.yul\":2117:2208   */\n  tag_52\n    /* \"#utility.yul\":2166:2207   */\n  tag_53\n    /* \"#utility.yul\":2190:2206   */\n  dup3\n    /* \"#utility.yul\":2166:2207   */\n  tag_20\n  jump\t// in\ntag_53:\n    /* \"#utility.yul\":2158:2164   */\n  dup5\n    /* \"#utility.yul\":2151:2155   */\n  dup5\n    /* \"#utility.yul\":2145:2156   */\n  sload\n    /* \"#utility.yul\":2117:2208   */\n  tag_16\n  jump\t// in\ntag_52:\n    /* \"#utility.yul\":2111:2115   */\n  dup3\n    /* \"#utility.yul\":2104:2209   */\n  sstore\n    /* \"#utility.yul\":2022:2215   */\n  pop\n    /* \"#utility.yul\":1946:2215   */\n  pop\n  pop\n  pop\n  jump\t// out\n    /* \"#utility.yul\":2221:2294   */\ntag_22:\n    /* \"#utility.yul\":2266:2269   */\n  0x00\n    /* \"#utility.yul\":2221:2294   */\n  swap1\n  jump\t// out\n    /* \"#utility.yul\":2300:2489   */\ntag_23:\n    /* \"#utility.yul\":2377:2409   */\n  tag_56\n  tag_22\n  jump\t// in\ntag_56:\n    /* \"#utility.yul\":2418:2483   */\n  tag_57\n    /* \"#utility.yul\":2476:2482   */\n  dup2\n    /* \"#utility.yul\":2468:2474   */\n  dup5\n    /* \"#utility.yul\":2462:2466   */\n  dup5\n    /* \"#utility.yul\":2418:2483   */\n  tag_21\n  jump\t// in\ntag_57:\n    /* \"#utility.yul\":2353:2489   */\n  pop\n    /* \"#utility.yul\":2300:2489   */\n  pop\n  pop\n  jump\t// out\n    /* \"#utility.yul\":2495:2681   */\ntag_24:\n    /* \"#utility.yul\":2555:2675   */\ntag_59:\n    /* \"#utility.yul\":2572:2575   */\n  dup2\n    /* \"#utility.yul\":2565:2570   */\n  dup2\n    /* \"#utility.yul\":2562:2576   */\n  lt\n    /* \"#utility.yul\":2555:2675   */\n  iszero\n  tag_61\n  jumpi\n    /* \"#utility.yul\":2626:2665   */\n  tag_62\n    /* \"#utility.yul\":2663:2664   */\n  0x00\n    /* \"#utility.yul\":2656:2661   */\n  dup3\n    /* \"#utility.yul\":2626:2665   */\n  tag_23\n  jump\t// in\ntag_62:\n    /* \"#utility.yul\":2599:2600   */\n  0x01\n    /* \"#utility.yul\":2592:2597   */\n  dup2\n    /* \"#utility.yul\":2588:2601   */\n  add\n    /* \"#utility.yul\":2579:2601   */\n  swap1\n  pop\n    /* \"#utility.yul\":2555:2675   */\n  jump(tag_59)\ntag_61:\n    /* \"#utility.yul\":2495:2681   */\n  pop\n  pop\n  jump\t// out\n    /* \"#utility.yul\":2687:3230   */\ntag_25:\n    /* \"#utility.yul\":2788:2790   */\n  0x1f\n    /* \"#utility.yul\":2783:2786   */\n  dup3\n    /* \"#utility.yul\":2780:2791   */\n  gt\n    /* \"#utility.yul\":2777:3223   */\n  iszero\n  tag_64\n  jumpi\n    /* \"#utility.yul\":2822:2860   */\n  tag_65\n    /* \"#utility.yul\":2854:2859   */\n  dup2\n    /* \"#utility.yul\":2822:2860   */\n  tag_13\n  jump\t// in\ntag_65:\n    /* \"#utility.yul\":2906:2935   */\n  tag_66\n    /* \"#utility.yul\":2924:2934   */\n  dup5\n    /* \"#utility.yul\":2906:2935   */\n  tag_14\n  jump\t// in\ntag_66:\n    /* \"#utility.yul\":2896:2904   */\n  dup2\n    /* \"#utility.yul\":2892:2936   */\n  add\n    /* \"#utility.yul\":3089:3091   */\n  0x20\n    /* \"#utility.yul\":3077:3087   */\n  dup6\n    /* \"#utility.yul\":3074:3092   */\n  lt\n    /* \"#utility.yul\":3071:3120   */\n  iszero\n  tag_67\n  jumpi\n    /* \"#utility.yul\":3110:3118   */\n  dup2\n    /* \"#utility.yul\":3095:3118   */\n  swap1\n  pop\n    /* \"#utility.yul\":3071:3120   */\ntag_67:\n    /* \"#utility.yul\":3133:3213   */\n  tag_68\n    /* \"#utility.yul\":3189:3211   */\n  tag_69\n    /* \"#utility.yul\":3207:3210   */\n  dup6\n    /* \"#utility.yul\":3189:3211   */\n  tag_14\n  jump\t// in\ntag_69:\n    /* \"#utility.yul\":3179:3187   */\n  dup4\n    /* \"#utility.yul\":3175:3212   */\n  add\n    /* \"#utility.yul\":3162:3173   */\n  dup3\n    /* \"#utility.yul\":3133:3213   */\n  tag_24\n  jump\t// in\ntag_68:\n    /* \"#utility.yul\":2792:3223   */\n  pop\n  pop\n    /* \"#utility.yul\":2777:3223   */\ntag_64:\n    /* \"#utility.yul\":2687:3230   */\n  pop\n  pop\n  pop\n  jump\t// out\n    /* \"#utility.yul\":3236:3353   */\ntag_26:\n    /* \"#utility.yul\":3290:3298   */\n  0x00\n    /* \"#utility.yul\":3340:3345   */\n  dup3\n    /* \"#utility.yul\":3334:3338   */\n  dup3\n    /* \"#utility.yul\":3330:3346   */\n  shr\n    /* \"#utility.yul\":3309:3346   */\n  swap1\n  pop\n    /* \"#utility.yul\":3236:3353   */\n  swap3\n  swap2\n  pop\n  pop\n  jump\t// out\n    /* \"#utility.yul\":3359:3528   */\ntag_27:\n    /* \"#utility.yul\":3403:3409   */\n  0x00\n    /* \"#utility.yul\":3436:3487   */\n  tag_72\n    /* \"#utility.yul\":3484:3485   */\n  0x00\n    /* \"#utility.yul\":3480:3486   */\n  not\n    /* \"#utility.yul\":3472:3477   */\n  dup5\n    /* \"#utility.yul\":3469:3470   */\n  0x08\n    /* \"#utility.yul\":3465:3478   */\n  mul\n    /* \"#utility.yul\":3436:3487   */\n  tag_26\n  jump\t// in\ntag_72:\n    /* \"#utility.yul\":3432:3488   */\n  not\n    /* \"#utility.yul\":3517:3521   */\n  dup1\n    /* \"#utility.yul\":3511:3515   */\n  dup4\n    /* \"#utility.yul\":3507:3522   */\n  and\n    /* \"#utility.yul\":3497:3522   */\n  swap2\n  pop\n    /* \"#utility.yul\":3410:3528   */\n  pop\n    /* \"#utility.yul\":3359:3528   */\n  swap3\n  swap2\n  pop\n  pop\n  jump\t// out\n    /* \"#utility.yul\":3533:3828   */\ntag_28:\n    /* \"#utility.yul\":3609:3613   */\n  0x00\n    /* \"#utility.yul\":3755:3784   */\n  tag_74\n    /* \"#utility.yul\":3780:3783   */\n  dup4\n    /* \"#utility.yul\":3774:3778   */\n  dup4\n    /* \"#utility.yul\":3755:3784   */\n  tag_27\n  jump\t// in\ntag_74:\n    /* \"#utility.yul\":3747:3784   */\n  swap2\n  pop\n    /* \"#utility.yul\":3817:3820   */\n  dup3\n    /* \"#utility.yul\":3814:3815   */\n  0x02\n    /* \"#utility.yul\":3810:3821   */\n  mul\n    /* \"#utility.yul\":3804:3808   */\n  dup3\n    /* \"#utility.yul\":3801:3822   */\n  or\n    /* \"#utility.yul\":3793:3822   */\n  swap1\n  pop\n    /* \"#utility.yul\":3533:3828   */\n  swap3\n  swap2\n  pop\n  pop\n  jump\t// out\n    /* \"#utility.yul\":3833:5228   */\ntag_5:\n    /* \"#utility.yul\":3950:3987   */\n  tag_76\n    /* \"#utility.yul\":3983:3986   */\n  dup3\n    /* \"#utility.yul\":3950:3987   */\n  tag_9\n  jump\t// in\ntag_76:\n    /* \"#utility.yul\":4052:4070   */\n  0xffffffffffffffff\n    /* \"#utility.yul\":4044:4050   */\n  dup2\n    /* \"#utility.yul\":4041:4071   */\n  gt\n    /* \"#utility.yul\":4038:4094   */\n  iszero\n  tag_77\n  jumpi\n    /* \"#utility.yul\":4074:4092   */\n  tag_78\n  tag_10\n  jump\t// in\ntag_78:\n    /* \"#utility.yul\":4038:4094   */\ntag_77:\n    /* \"#utility.yul\":4118:4156   */\n  tag_79\n    /* \"#utility.yul\":4150:4154   */\n  dup3\n    /* \"#utility.yul\":4144:4155   */\n  sload\n    /* \"#utility.yul\":4118:4156   */\n  tag_12\n  jump\t// in\ntag_79:\n    /* \"#utility.yul\":4203:4270   */\n  tag_80\n    /* \"#utility.yul\":4263:4269   */\n  dup3\n    /* \"#utility.yul\":4255:4261   */\n  dup3\n    /* \"#utility.yul\":4249:4253   */\n  dup6\n    /* \"#utility.yul\":4203:4270   */\n  tag_25\n  jump\t// in\ntag_80:\n    /* \"#utility.yul\":4297:4298   */\n  0x00\n    /* \"#utility.yul\":4321:4325   */\n  0x20\n    /* \"#utility.yul\":4308:4325   */\n  swap1\n  pop\n    /* \"#utility.yul\":4353:4355   */\n  0x1f\n    /* \"#utility.yul\":4345:4351   */\n  dup4\n    /* \"#utility.yul\":4342:4356   */\n  gt\n    /* \"#utility.yul\":4370:4371   */\n  0x01\n    /* \"#utility.yul\":4365:4983   */\n  dup2\n  eq\n  tag_82\n  jumpi\n    /* \"#utility.yul\":5027:5028   */\n  0x00\n    /* \"#utility.yul\":5044:5050   */\n  dup5\n    /* \"#utility.yul\":5041:5118   */\n  iszero\n  tag_83\n  jumpi\n    /* \"#utility.yul\":5093:5102   */\n  dup3\n    /* \"#utility.yul\":5088:5091   */\n  dup8\n    /* \"#utility.yul\":5084:5103   */\n  add\n    /* \"#utility.yul\":5078:5104   */\n  mload\n    /* \"#utility.yul\":5069:5104   */\n  swap1\n  pop\n    /* \"#utility.yul\":5041:5118   */\ntag_83:\n    /* \"#utility.yul\":5144:5211   */\n  tag_84\n    /* \"#utility.yul\":5204:5210   */\n  dup6\n    /* \"#utility.yul\":5197:5202   */\n  dup3\n    /* \"#utility.yul\":5144:5211   */\n  tag_28\n  jump\t// in\ntag_84:\n    /* \"#utility.yul\":5138:5142   */\n  dup7\n    /* \"#utility.yul\":5131:5212   */\n  sstore\n    /* \"#utility.yul\":5000:5222   */\n  pop\n    /* \"#utility.yul\":4335:5222   */\n  jump(tag_81)\n    /* \"#utility.yul\":4365:4983   */\ntag_82:\n    /* \"#utility.yul\":4417:4421   */\n  0x1f\n    /* \"#utility.yul\":4413:4422   */\n  not\n    /* \"#utility.yul\":4405:4411   */\n  dup5\n    /* \"#utility.yul\":4401:4423   */\n  and\n    /* \"#utility.yul\":4451:4488   */\n  tag_85\n    /* \"#utility.yul\":4483:4487   */\n  dup7\n    /* \"#utility.yul\":4451:4488   */\n  tag_13\n  jump\t// in\ntag_85:\n    /* \"#utility.yul\":4510:4511   */\n  0x00\n    /* \"#utility.yul\":4524:4732   */\ntag_86:\n    /* \"#utility.yul\":4538:4545   */\n  dup3\n    /* \"#utility.yul\":4535:4536   */\n  dup2\n    /* \"#utility.yul\":4532:4546   */\n  lt\n    /* \"#utility.yul\":4524:4732   */\n  iszero\n  tag_88\n  jumpi\n    /* \"#utility.yul\":4617:4626   */\n  dup5\n    /* \"#utility.yul\":4612:4615   */\n  dup10\n    /* \"#utility.yul\":4608:4627   */\n  add\n    /* \"#utility.yul\":4602:4628   */\n  mload\n    /* \"#utility.yul\":4594:4600   */\n  dup3\n    /* \"#utility.yul\":4587:4629   */\n  sstore\n    /* \"#utility.yul\":4668:4669   */\n  0x01\n    /* \"#utility.yul\":4660:4666   */\n  dup3\n    /* \"#utility.yul\":4656:4670   */\n  add\n    /* \"#utility.yul\":4646:4670   */\n  swap2\n  pop\n    /* \"#utility.yul\":4715:4717   */\n  0x20\n    /* \"#utility.yul\":4704:4713   */\n  dup6\n    /* \"#utility.yul\":4700:4718   */\n  add\n    /* \"#utility.yul\":4687:4718   */\n  swap5\n  pop\n    /* \"#utility.yul\":4561:4565   */\n  0x20\n    /* \"#utility.yul\":4558:4559   */\n  dup2\n    /* \"#utility.yul\":4554:4566   */\n  add\n    /* \"#utility.yul\":4549:4566   */\n  swap1\n  pop\n    /* \"#utility.yul\":4524:4732   */\n  jump(tag_86)\ntag_88:\n    /* \"#utility.yul\":4760:4766   */\n  dup7\n    /* \"#utility.yul\":4751:4758   */\n  dup4\n    /* \"#utility.yul\":4748:4767   */\n  lt\n    /* \"#utility.yul\":4745:4924   */\n  iszero\n  tag_89\n  jumpi\n    /* \"#utility.yul\":4818:4827   */\n  dup5\n    /* \"#utility.yul\":4813:4816   */\n  dup10\n    /* \"#utility.yul\":4809:4828   */\n  add\n    /* \"#utility.yul\":4803:4829   */\n  mload\n    /* \"#utility.yul\":4861:4909   */\n  tag_90\n    /* \"#utility.yul\":4903:4907   */\n  0x1f\n    /* \"#utility.yul\":4895:4901   */\n  dup10\n    /* \"#utility.yul\":4891:4908   */\n  and\n    /* \"#utility.yul\":4880:4889   */\n  dup3\n    /* \"#utility.yul\":4861:4909   */\n  tag_27\n  jump\t// in\ntag_90:\n    /* \"#utility.yul\":4853:4859   */\n  dup4\n    /* \"#utility.yul\":4846:4910   */\n  sstore\n    /* \"#utility.yul\":4768:4924   */\n  pop\n    /* \"#utility.yul\":4745:4924   */\ntag_89:\n    /* \"#utility.yul\":4970:4971   */\n  0x01\n    /* \"#utility.yul\":4966:4967   */\n  0x02\n    /* \"#utility.yul\":4958:4964   */\n  dup9\n    /* \"#utility.yul\":4954:4968   */\n  mul\n    /* \"#utility.yul\":4950:4972   */\n  add\n    /* \"#utility.yul\":4944:4948   */\n  dup9\n    /* \"#utility.yul\":4937:4973   */\n  sstore\n    /* \"#utility.yul\":4372:4983   */\n  pop\n  pop\n  pop\n    /* \"#utility.yul\":4335:5222   */\ntag_81:\n  pop\n    /* \"#utility.yul\":3925:5228   */\n  pop\n  pop\n  pop\n    /* \"#utility.yul\":3833:5228   */\n  pop\n  pop\n  jump\t// out\n    /* \"contracts/TaskManagement.sol\":60:6991  contract TaskManagement {... */\ntag_8:\n  dataSize(sub_0)\n  dup1\n  dataOffset(sub_0)\n  0x00\n  codecopy\n  0x00\n  return\nstop\n\nsub_0: assembly {\n        /* \"contracts/TaskManagement.sol\":60:6991  contract TaskManagement {... */\n      mstore(0x40, 0x80)\n      callvalue\n      dup1\n      iszero\n      tag_1\n      jumpi\n      0x00\n      dup1\n      revert\n    tag_1:\n      pop\n      jumpi(tag_2, lt(calldatasize, 0x04))\n      shr(0xe0, calldataload(0x00))\n      dup1\n      0x58671730\n      gt\n      tag_15\n      jumpi\n      dup1\n      0x58671730\n      eq\n      tag_9\n      jumpi\n      dup1\n      0x8d977672\n      eq\n      tag_10\n      jumpi\n      dup1\n      0xb7dfcbee\n      eq\n      tag_11\n      jumpi\n      dup1\n      0xbc9c2d55\n      eq\n      tag_12\n      jumpi\n      dup1\n      0xe1e29558\n      eq\n      tag_13\n      jumpi\n      dup1\n      0xfde08174\n      eq\n      tag_14\n      jumpi\n      jump(tag_2)\n    tag_15:\n      dup1\n      0x022bf9c1\n      eq\n      tag_3\n      jumpi\n      dup1\n      0x04a87e38\n      eq\n      tag_4\n      jumpi\n      dup1\n      0x0c79586b\n      eq\n      tag_5\n      jumpi\n      dup1\n      0x14c95832\n      eq\n      tag_6\n      jumpi\n      dup1\n      0x1d65e77e\n      eq\n      tag_7\n      jumpi\n      dup1\n      0x3457d3e2\n      eq\n      tag_8\n      jumpi\n    tag_2:\n      0x00\n      dup1\n      revert\n        /* \"contracts/TaskManagement.sol\":3405:4258  function issueRole(address _user, string memory _role) onlyManager public {... */\n    tag_3:\n      tag_16\n      0x04\n      dup1\n      calldatasize\n      sub\n      dup2\n      add\n      swap1\n      tag_17\n      swap2\n      swap1\n      tag_18\n      jump\t// in\n    tag_17:\n      tag_19\n      jump\t// in\n    tag_16:\n      stop\n        /* \"contracts/TaskManagement.sol\":4880:5369  function getTasks() public view returns (Task[] memory) {... */\n    tag_4:\n      tag_20\n      tag_21\n      jump\t// in\n    tag_20:\n      mload(0x40)\n      tag_22\n      swap2\n      swap1\n      tag_23\n      jump\t// in\n    tag_22:\n      mload(0x40)\n      dup1\n      swap2\n      sub\n      swap1\n      return\n        /* \"contracts/TaskManagement.sol\":5699:6428  function createTask(... */\n    tag_5:\n      tag_24\n      0x04\n      dup1\n      calldatasize\n      sub\n      dup2\n      add\n      swap1\n      tag_25\n      swap2\n      swap1\n      tag_26\n      jump\t// in\n    tag_25:\n      tag_27\n      jump\t// in\n    tag_24:\n      stop\n        /* \"contracts/TaskManagement.sol\":2069:2782  function updateDID(string memory _newIdentifier) public {... */\n    tag_6:\n      tag_28\n      0x04\n      dup1\n      calldatasize\n      sub\n      dup2\n      add\n      swap1\n      tag_29\n      swap2\n      swap1\n      tag_30\n      jump\t// in\n    tag_29:\n      tag_31\n      jump\t// in\n    tag_28:\n      stop\n        /* \"contracts/TaskManagement.sol\":5377:5691  function getTask(uint _id) public view returns (... */\n    tag_7:\n      tag_32\n      0x04\n      dup1\n      calldatasize\n      sub\n      dup2\n      add\n      swap1\n      tag_33\n      swap2\n      swap1\n      tag_34\n      jump\t// in\n    tag_33:\n      tag_35\n      jump\t// in\n    tag_32:\n      mload(0x40)\n      tag_36\n      swap2\n      swap1\n      tag_37\n      jump\t// in\n    tag_36:\n      mload(0x40)\n      dup1\n      swap2\n      sub\n      swap1\n      return\n        /* \"contracts/TaskManagement.sol\":1509:1857  function createDID(string memory _identifier) public {... */\n    tag_8:\n      tag_38\n      0x04\n      dup1\n      calldatasize\n      sub\n      dup2\n      add\n      swap1\n      tag_39\n      swap2\n      swap1\n      tag_30\n      jump\t// in\n    tag_39:\n      tag_40\n      jump\t// in\n    tag_38:\n      stop\n        /* \"contracts/TaskManagement.sol\":529:556  uint public taskCounter = 0 */\n    tag_9:\n      tag_41\n      tag_42\n      jump\t// in\n    tag_41:\n      mload(0x40)\n      tag_43\n      swap2\n      swap1\n      tag_44\n      jump\t// in\n    tag_43:\n      mload(0x40)\n      dup1\n      swap2\n      sub\n      swap1\n      return\n        /* \"contracts/TaskManagement.sol\":768:802  mapping(uint => Task) public tasks */\n    tag_10:\n      tag_45\n      0x04\n      dup1\n      calldatasize\n      sub\n      dup2\n      add\n      swap1\n      tag_46\n      swap2\n      swap1\n      tag_34\n      jump\t// in\n    tag_46:\n      tag_47\n      jump\t// in\n    tag_45:\n      mload(0x40)\n      tag_48\n      swap9\n      swap8\n      swap7\n      swap6\n      swap5\n      swap4\n      swap3\n      swap2\n      swap1\n      tag_49\n      jump\t// in\n    tag_48:\n      mload(0x40)\n      dup1\n      swap2\n      sub\n      swap1\n      return\n        /* \"contracts/TaskManagement.sol\":2839:3261  function assignRole(address _user, string memory _role) onlyManager public {... */\n    tag_11:\n      tag_50\n      0x04\n      dup1\n      calldatasize\n      sub\n      dup2\n      add\n      swap1\n      tag_51\n      swap2\n      swap1\n      tag_18\n      jump\t// in\n    tag_51:\n      tag_52\n      jump\t// in\n    tag_50:\n      stop\n        /* \"contracts/TaskManagement.sol\":1865:2061  function getDID() public view returns (string memory) {... */\n    tag_12:\n      tag_53\n      tag_54\n      jump\t// in\n    tag_53:\n      mload(0x40)\n      tag_55\n      swap2\n      swap1\n      tag_56\n      jump\t// in\n    tag_55:\n      mload(0x40)\n      dup1\n      swap2\n      sub\n      swap1\n      return\n        /* \"contracts/TaskManagement.sol\":6436:6988  function completeTask(uint _taskId) public {... */\n    tag_13:\n      tag_57\n      0x04\n      dup1\n      calldatasize\n      sub\n      dup2\n      add\n      swap1\n      tag_58\n      swap2\n      swap1\n      tag_34\n      jump\t// in\n    tag_58:\n      tag_59\n      jump\t// in\n    tag_57:\n      stop\n        /* \"contracts/TaskManagement.sol\":4391:4872  function getRole() public view returns (string[] memory) {... */\n    tag_14:\n      tag_60\n      tag_61\n      jump\t// in\n    tag_60:\n      mload(0x40)\n      tag_62\n      swap2\n      swap1\n      tag_63\n      jump\t// in\n    tag_62:\n      mload(0x40)\n      dup1\n      swap2\n      sub\n      swap1\n      return\n        /* \"contracts/TaskManagement.sol\":3405:4258  function issueRole(address _user, string memory _role) onlyManager public {... */\n    tag_19:\n        /* \"contracts/TaskManagement.sol\":1320:1336  bytes(\"manager\") */\n      mload(0x40)\n      dup1\n      0x40\n      add\n      0x40\n      mstore\n      dup1\n      0x07\n      dup2\n      mstore\n      0x20\n      add\n      0x6d616e6167657200000000000000000000000000000000000000000000000000\n      dup2\n      mstore\n      pop\n        /* \"contracts/TaskManagement.sol\":1310:1337  keccak256(bytes(\"manager\")) */\n      dup1\n      mload\n      swap1\n      0x20\n      add\n      keccak256\n        /* \"contracts/TaskManagement.sol\":1287:1292  roles */\n      0x02\n        /* \"contracts/TaskManagement.sol\":1287:1304  roles[msg.sender] */\n      0x00\n        /* \"contracts/TaskManagement.sol\":1293:1303  msg.sender */\n      caller\n        /* \"contracts/TaskManagement.sol\":1287:1304  roles[msg.sender] */\n      0xffffffffffffffffffffffffffffffffffffffff\n      and\n      0xffffffffffffffffffffffffffffffffffffffff\n      and\n      dup2\n      mstore\n      0x20\n      add\n      swap1\n      dup2\n      mstore\n      0x20\n      add\n      0x00\n      keccak256\n        /* \"contracts/TaskManagement.sol\":1271:1306  keccak256(bytes(roles[msg.sender])) */\n      mload(0x40)\n      tag_65\n      swap2\n      swap1\n      tag_66\n      jump\t// in\n    tag_65:\n      mload(0x40)\n      dup1\n      swap2\n      sub\n      swap1\n      keccak256\n        /* \"contracts/TaskManagement.sol\":1271:1337  keccak256(bytes(roles[msg.sender])) == keccak256(bytes(\"manager\")) */\n      eq\n        /* \"contracts/TaskManagement.sol\":1263:1361  require(keccak256(bytes(roles[msg.sender])) == keccak256(bytes(\"manager\")), \"Unauthorized action\") */\n      tag_67\n      jumpi\n      mload(0x40)\n      0x08c379a000000000000000000000000000000000000000000000000000000000\n      dup2\n      mstore\n      0x04\n      add\n      tag_68\n      swap1\n      tag_69\n      jump\t// in\n    tag_68:\n      mload(0x40)\n      dup1\n      swap2\n      sub\n      swap1\n      revert\n    tag_67:\n        /* \"contracts/TaskManagement.sol\":3591:3592  0 */\n      0x00\n        /* \"contracts/TaskManagement.sol\":3557:3593  dids[msg.sender].owner != address(0) */\n      0xffffffffffffffffffffffffffffffffffffffff\n      and\n        /* \"contracts/TaskManagement.sol\":3557:3561  dids */\n      0x01\n        /* \"contracts/TaskManagement.sol\":3557:3573  dids[msg.sender] */\n      0x00\n        /* \"contracts/TaskManagement.sol\":3562:3572  msg.sender */\n      caller\n        /* \"contracts/TaskManagement.sol\":3557:3573  dids[msg.sender] */\n      0xffffffffffffffffffffffffffffffffffffffff\n      and\n      0xffffffffffffffffffffffffffffffffffffffff\n      and\n      dup2\n      mstore\n      0x20\n      add\n      swap1\n      dup2\n      mstore\n      0x20\n      add\n      0x00\n      keccak256\n        /* \"contracts/TaskManagement.sol\":3557:3579  dids[msg.sender].owner */\n      0x01\n      add\n      0x00\n      swap1\n      sload\n      swap1\n      0x0100\n      exp\n      swap1\n      div\n      0xffffffffffffffffffffffffffffffffffffffff\n      and\n        /* \"contracts/TaskManagement.sol\":3557:3593  dids[msg.sender].owner != address(0) */\n      0xffffffffffffffffffffffffffffffffffffffff\n      and\n      sub\n        /* \"contracts/TaskManagement.sol\":3549:3636  require(dids[msg.sender].owner != address(0), \"No existing DID found for this address\") */\n      tag_71\n      jumpi\n      mload(0x40)\n      0x08c379a000000000000000000000000000000000000000000000000000000000\n      dup2\n      mstore\n      0x04\n      add\n      tag_72\n      swap1\n      tag_73\n      jump\t// in\n    tag_72:\n      mload(0x40)\n      dup1\n      swap2\n      sub\n      swap1\n      revert\n    tag_71:\n        /* \"contracts/TaskManagement.sol\":3677:3678  0 */\n      0x00\n        /* \"contracts/TaskManagement.sol\":3661:3666  _role */\n      dup2\n        /* \"contracts/TaskManagement.sol\":3655:3674  bytes(_role).length */\n      mload\n        /* \"contracts/TaskManagement.sol\":3655:3678  bytes(_role).length > 0 */\n      gt\n        /* \"contracts/TaskManagement.sol\":3647:3703  require(bytes(_role).length > 0, \"Role cannot be empty\") */\n      tag_74\n      jumpi\n      mload(0x40)\n      0x08c379a000000000000000000000000000000000000000000000000000000000\n      dup2\n      mstore\n      0x04\n      add\n      tag_75\n      swap1\n      tag_76\n      jump\t// in\n    tag_75:\n      mload(0x40)\n      dup1\n      swap2\n      sub\n      swap1\n      revert\n    tag_74:\n        /* \"contracts/TaskManagement.sol\":3756:3772  bytes32 roleHash */\n      0x00\n        /* \"contracts/TaskManagement.sol\":3802:3812  msg.sender */\n      caller\n        /* \"contracts/TaskManagement.sol\":3814:3819  _user */\n      dup4\n        /* \"contracts/TaskManagement.sol\":3821:3826  _role */\n      dup4\n        /* \"contracts/TaskManagement.sol\":3828:3843  block.timestamp */\n      timestamp\n        /* \"contracts/TaskManagement.sol\":3785:3844  abi.encodePacked(msg.sender, _user, _role, block.timestamp) */\n      add(0x20, mload(0x40))\n      tag_77\n      swap5\n      swap4\n      swap3\n      swap2\n      swap1\n      tag_78\n      jump\t// in\n    tag_77:\n      mload(0x40)\n      0x20\n      dup2\n      dup4\n      sub\n      sub\n      dup2\n      mstore\n      swap1\n      0x40\n      mstore\n        /* \"contracts/TaskManagement.sol\":3775:3845  keccak256(abi.encodePacked(msg.sender, _user, _role, block.timestamp)) */\n      dup1\n      mload\n      swap1\n      0x20\n      add\n      keccak256\n        /* \"contracts/TaskManagement.sol\":3756:3845  bytes32 roleHash = keccak256(abi.encodePacked(msg.sender, _user, _role, block.timestamp)) */\n      swap1\n      pop\n        /* \"contracts/TaskManagement.sol\":3942:3953  credentials */\n      0x04\n        /* \"contracts/TaskManagement.sol\":3942:3960  credentials[_user] */\n      0x00\n        /* \"contracts/TaskManagement.sol\":3954:3959  _user */\n      dup5\n        /* \"contracts/TaskManagement.sol\":3942:3960  credentials[_user] */\n      0xffffffffffffffffffffffffffffffffffffffff\n      and\n      0xffffffffffffffffffffffffffffffffffffffff\n      and\n      dup2\n      mstore\n      0x20\n      add\n      swap1\n      dup2\n      mstore\n      0x20\n      add\n      0x00\n      keccak256\n        /* \"contracts/TaskManagement.sol\":3966:4085  Credential(... */\n      mload(0x40)\n      dup1\n      0x80\n      add\n      0x40\n      mstore\n      dup1\n        /* \"contracts/TaskManagement.sol\":3991:4001  msg.sender */\n      caller\n        /* \"contracts/TaskManagement.sol\":3966:4085  Credential(... */\n      0xffffffffffffffffffffffffffffffffffffffff\n      and\n      dup2\n      mstore\n      0x20\n      add\n        /* \"contracts/TaskManagement.sol\":4016:4021  _role */\n      dup5\n        /* \"contracts/TaskManagement.sol\":3966:4085  Credential(... */\n      dup2\n      mstore\n      0x20\n      add\n        /* \"contracts/TaskManagement.sol\":4036:4044  roleHash */\n      dup4\n        /* \"contracts/TaskManagement.sol\":3966:4085  Credential(... */\n      dup2\n      mstore\n      0x20\n      add\n        /* \"contracts/TaskManagement.sol\":4059:4074  block.timestamp */\n      timestamp\n        /* \"contracts/TaskManagement.sol\":3966:4085  Credential(... */\n      dup2\n      mstore\n      pop\n        /* \"contracts/TaskManagement.sol\":3942:4086  credentials[_user].push(Credential(... */\n      swap1\n      dup1\n      0x01\n      dup2\n      sload\n      add\n      dup1\n      dup3\n      sstore\n      dup1\n      swap2\n      pop\n      pop\n      0x01\n      swap1\n      sub\n      swap1\n      0x00\n      mstore\n      keccak256(0x00, 0x20)\n      swap1\n      0x04\n      mul\n      add\n      0x00\n      swap1\n      swap2\n      swap1\n      swap2\n      swap1\n      swap2\n      pop\n      0x00\n      dup3\n      add\n      mload\n      dup2\n      0x00\n      add\n      exp(0x0100, 0x00)\n      dup2\n      sload\n      dup2\n      0xffffffffffffffffffffffffffffffffffffffff\n      mul\n      not\n      and\n      swap1\n      dup4\n      0xffffffffffffffffffffffffffffffffffffffff\n      and\n      mul\n      or\n      swap1\n      sstore\n      pop\n      0x20\n      dup3\n      add\n      mload\n      dup2\n      0x01\n      add\n      swap1\n      dup2\n      tag_80\n      swap2\n      swap1\n      tag_81\n      jump\t// in\n    tag_80:\n      pop\n      0x40\n      dup3\n      add\n      mload\n      dup2\n      0x02\n      add\n      sstore\n      0x60\n      dup3\n      add\n      mload\n      dup2\n      0x03\n      add\n      sstore\n      pop\n      pop\n        /* \"contracts/TaskManagement.sol\":4097:4108  roleHistory */\n      0x03\n        /* \"contracts/TaskManagement.sol\":4097:4115  roleHistory[_user] */\n      0x00\n        /* \"contracts/TaskManagement.sol\":4109:4114  _user */\n      dup5\n        /* \"contracts/TaskManagement.sol\":4097:4115  roleHistory[_user] */\n      0xffffffffffffffffffffffffffffffffffffffff\n      and\n      0xffffffffffffffffffffffffffffffffffffffff\n      and\n      dup2\n      mstore\n      0x20\n      add\n      swap1\n      dup2\n      mstore\n      0x20\n      add\n      0x00\n      keccak256\n        /* \"contracts/TaskManagement.sol\":4121:4126  _role */\n      dup3\n        /* \"contracts/TaskManagement.sol\":4097:4127  roleHistory[_user].push(_role) */\n      swap1\n      dup1\n      0x01\n      dup2\n      sload\n      add\n      dup1\n      dup3\n      sstore\n      dup1\n      swap2\n      pop\n      pop\n      0x01\n      swap1\n      sub\n      swap1\n      0x00\n      mstore\n      keccak256(0x00, 0x20)\n      add\n      0x00\n      swap1\n      swap2\n      swap1\n      swap2\n      swap1\n      swap2\n      pop\n      swap1\n      dup2\n      tag_83\n      swap2\n      swap1\n      tag_81\n      jump\t// in\n    tag_83:\n      pop\n        /* \"contracts/TaskManagement.sol\":4156:4166  msg.sender */\n      caller\n        /* \"contracts/TaskManagement.sol\":4145:4191  RoleIssued(msg.sender, _user, _role, roleHash) */\n      0xffffffffffffffffffffffffffffffffffffffff\n      and\n      0xf4313cb022699889c6eddb590e42342301cdae4824fd424ffdfdeb23d4cdbbe9\n        /* \"contracts/TaskManagement.sol\":4168:4173  _user */\n      dup5\n        /* \"contracts/TaskManagement.sol\":4175:4180  _role */\n      dup5\n        /* \"contracts/TaskManagement.sol\":4182:4190  roleHash */\n      dup5\n        /* \"contracts/TaskManagement.sol\":4145:4191  RoleIssued(msg.sender, _user, _role, roleHash) */\n      mload(0x40)\n      tag_84\n      swap4\n      swap3\n      swap2\n      swap1\n      tag_85\n      jump\t// in\n    tag_84:\n      mload(0x40)\n      dup1\n      swap2\n      sub\n      swap1\n      log2\n        /* \"contracts/TaskManagement.sol\":3479:4258  {... */\n      pop\n        /* \"contracts/TaskManagement.sol\":3405:4258  function issueRole(address _user, string memory _role) onlyManager public {... */\n      pop\n      pop\n      jump\t// out\n        /* \"contracts/TaskManagement.sol\":4880:5369  function getTasks() public view returns (Task[] memory) {... */\n    tag_21:\n        /* \"contracts/TaskManagement.sol\":4921:4934  Task[] memory */\n      0x60\n        /* \"contracts/TaskManagement.sol\":4989:4990  0 */\n      0x00\n        /* \"contracts/TaskManagement.sol\":4955:4991  dids[msg.sender].owner == address(0) */\n      0xffffffffffffffffffffffffffffffffffffffff\n      and\n        /* \"contracts/TaskManagement.sol\":4955:4959  dids */\n      0x01\n        /* \"contracts/TaskManagement.sol\":4955:4971  dids[msg.sender] */\n      0x00\n        /* \"contracts/TaskManagement.sol\":4960:4970  msg.sender */\n      caller\n        /* \"contracts/TaskManagement.sol\":4955:4971  dids[msg.sender] */\n      0xffffffffffffffffffffffffffffffffffffffff\n      and\n      0xffffffffffffffffffffffffffffffffffffffff\n      and\n      dup2\n      mstore\n      0x20\n      add\n      swap1\n      dup2\n      mstore\n      0x20\n      add\n      0x00\n      keccak256\n        /* \"contracts/TaskManagement.sol\":4955:4977  dids[msg.sender].owner */\n      0x01\n      add\n      0x00\n      swap1\n      sload\n      swap1\n      0x0100\n      exp\n      swap1\n      div\n      0xffffffffffffffffffffffffffffffffffffffff\n      and\n        /* \"contracts/TaskManagement.sol\":4955:4991  dids[msg.sender].owner == address(0) */\n      0xffffffffffffffffffffffffffffffffffffffff\n      and\n      eq\n        /* \"contracts/TaskManagement.sol\":4947:5031  require(dids[msg.sender].owner == address(0), \"DID already exists for this address\") */\n      tag_87\n      jumpi\n      mload(0x40)\n      0x08c379a000000000000000000000000000000000000000000000000000000000\n      dup2\n      mstore\n      0x04\n      add\n      tag_88\n      swap1\n      tag_89\n      jump\t// in\n    tag_88:\n      mload(0x40)\n      dup1\n      swap2\n      sub\n      swap1\n      revert\n    tag_87:\n        /* \"contracts/TaskManagement.sol\":5044:5067  Task[] memory userTasks */\n      0x00\n        /* \"contracts/TaskManagement.sol\":5081:5092  taskCounter */\n      dup1\n      sload\n        /* \"contracts/TaskManagement.sol\":5070:5093  new Task[](taskCounter) */\n      0xffffffffffffffff\n      dup2\n      gt\n      iszero\n      tag_90\n      jumpi\n      tag_91\n      tag_92\n      jump\t// in\n    tag_91:\n    tag_90:\n      mload(0x40)\n      swap1\n      dup1\n      dup3\n      mstore\n      dup1\n      0x20\n      mul\n      0x20\n      add\n      dup3\n      add\n      0x40\n      mstore\n      dup1\n      iszero\n      tag_93\n      jumpi\n      dup2\n      0x20\n      add\n    tag_94:\n      tag_95\n      tag_96\n      jump\t// in\n    tag_95:\n      dup2\n      mstore\n      0x20\n      add\n      swap1\n      0x01\n      swap1\n      sub\n      swap1\n      dup2\n      tag_94\n      jumpi\n      swap1\n      pop\n    tag_93:\n      pop\n        /* \"contracts/TaskManagement.sol\":5044:5093  Task[] memory userTasks = new Task[](taskCounter) */\n      swap1\n      pop\n        /* \"contracts/TaskManagement.sol\":5104:5114  uint index */\n      0x00\n        /* \"contracts/TaskManagement.sol\":5136:5142  uint i */\n      dup1\n        /* \"contracts/TaskManagement.sol\":5131:5333  for (uint i = 0; i < taskCounter; i++) ... */\n    tag_97:\n        /* \"contracts/TaskManagement.sol\":5152:5163  taskCounter */\n      sload(0x00)\n        /* \"contracts/TaskManagement.sol\":5148:5149  i */\n      dup2\n        /* \"contracts/TaskManagement.sol\":5148:5163  i < taskCounter */\n      lt\n        /* \"contracts/TaskManagement.sol\":5131:5333  for (uint i = 0; i < taskCounter; i++) ... */\n      iszero\n      tag_98\n      jumpi\n        /* \"contracts/TaskManagement.sol\":5213:5218  tasks */\n      0x05\n        /* \"contracts/TaskManagement.sol\":5213:5221  tasks[i] */\n      0x00\n        /* \"contracts/TaskManagement.sol\":5219:5220  i */\n      dup3\n        /* \"contracts/TaskManagement.sol\":5213:5221  tasks[i] */\n      dup2\n      mstore\n      0x20\n      add\n      swap1\n      dup2\n      mstore\n      0x20\n      add\n      0x00\n      keccak256\n        /* \"contracts/TaskManagement.sol\":5213:5232  tasks[i].assignedTo */\n      0x05\n      add\n      0x00\n      swap1\n      sload\n      swap1\n      0x0100\n      exp\n      swap1\n      div\n      0xffffffffffffffffffffffffffffffffffffffff\n      and\n        /* \"contracts/TaskManagement.sol\":5199:5232  msg.sender == tasks[i].assignedTo */\n      0xffffffffffffffffffffffffffffffffffffffff\n      and\n        /* \"contracts/TaskManagement.sol\":5199:5209  msg.sender */\n      caller\n        /* \"contracts/TaskManagement.sol\":5199:5232  msg.sender == tasks[i].assignedTo */\n      0xffffffffffffffffffffffffffffffffffffffff\n      and\n      sub\n        /* \"contracts/TaskManagement.sol\":5195:5322  if (msg.sender == tasks[i].assignedTo) {... */\n      tag_100\n      jumpi\n        /* \"contracts/TaskManagement.sol\":5272:5277  tasks */\n      0x05\n        /* \"contracts/TaskManagement.sol\":5272:5280  tasks[i] */\n      0x00\n        /* \"contracts/TaskManagement.sol\":5278:5279  i */\n      dup3\n        /* \"contracts/TaskManagement.sol\":5272:5280  tasks[i] */\n      dup2\n      mstore\n      0x20\n      add\n      swap1\n      dup2\n      mstore\n      0x20\n      add\n      0x00\n      keccak256\n        /* \"contracts/TaskManagement.sol\":5253:5280  userTasks[index] = tasks[i] */\n      mload(0x40)\n      dup1\n      0x0100\n      add\n      0x40\n      mstore\n      swap1\n      dup2\n      0x00\n      dup3\n      add\n      sload\n      dup2\n      mstore\n      0x20\n      add\n      0x01\n      dup3\n      add\n      dup1\n      sload\n      tag_101\n      swap1\n      tag_102\n      jump\t// in\n    tag_101:\n      dup1\n      0x1f\n      add\n      0x20\n      dup1\n      swap2\n      div\n      mul\n      0x20\n      add\n      mload(0x40)\n      swap1\n      dup2\n      add\n      0x40\n      mstore\n      dup1\n      swap3\n      swap2\n      swap1\n      dup2\n      dup2\n      mstore\n      0x20\n      add\n      dup3\n      dup1\n      sload\n      tag_103\n      swap1\n      tag_102\n      jump\t// in\n    tag_103:\n      dup1\n      iszero\n      tag_104\n      jumpi\n      dup1\n      0x1f\n      lt\n      tag_105\n      jumpi\n      0x0100\n      dup1\n      dup4\n      sload\n      div\n      mul\n      dup4\n      mstore\n      swap2\n      0x20\n      add\n      swap2\n      jump(tag_104)\n    tag_105:\n      dup3\n      add\n      swap2\n      swap1\n      0x00\n      mstore\n      keccak256(0x00, 0x20)\n      swap1\n    tag_106:\n      dup2\n      sload\n      dup2\n      mstore\n      swap1\n      0x01\n      add\n      swap1\n      0x20\n      add\n      dup1\n      dup4\n      gt\n      tag_106\n      jumpi\n      dup3\n      swap1\n      sub\n      0x1f\n      and\n      dup3\n      add\n      swap2\n    tag_104:\n      pop\n      pop\n      pop\n      pop\n      pop\n      dup2\n      mstore\n      0x20\n      add\n      0x02\n      dup3\n      add\n      dup1\n      sload\n      tag_107\n      swap1\n      tag_102\n      jump\t// in\n    tag_107:\n      dup1\n      0x1f\n      add\n      0x20\n      dup1\n      swap2\n      div\n      mul\n      0x20\n      add\n      mload(0x40)\n      swap1\n      dup2\n      add\n      0x40\n      mstore\n      dup1\n      swap3\n      swap2\n      swap1\n      dup2\n      dup2\n      mstore\n      0x20\n      add\n      dup3\n      dup1\n      sload\n      tag_108\n      swap1\n      tag_102\n      jump\t// in\n    tag_108:\n      dup1\n      iszero\n      tag_109\n      jumpi\n      dup1\n      0x1f\n      lt\n      tag_110\n      jumpi\n      0x0100\n      dup1\n      dup4\n      sload\n      div\n      mul\n      dup4\n      mstore\n      swap2\n      0x20\n      add\n      swap2\n      jump(tag_109)\n    tag_110:\n      dup3\n      add\n      swap2\n      swap1\n      0x00\n      mstore\n      keccak256(0x00, 0x20)\n      swap1\n    tag_111:\n      dup2\n      sload\n      dup2\n      mstore\n      swap1\n      0x01\n      add\n      swap1\n      0x20\n      add\n      dup1\n      dup4\n      gt\n      tag_111\n      jumpi\n      dup3\n      swap1\n      sub\n      0x1f\n      and\n      dup3\n      add\n      swap2\n    tag_109:\n      pop\n      pop\n      pop\n      pop\n      pop\n      dup2\n      mstore\n      0x20\n      add\n      0x03\n      dup3\n      add\n      sload\n      dup2\n      mstore\n      0x20\n      add\n      0x04\n      dup3\n      add\n      sload\n      dup2\n      mstore\n      0x20\n      add\n      0x05\n      dup3\n      add\n      0x00\n      swap1\n      sload\n      swap1\n      0x0100\n      exp\n      swap1\n      div\n      0xffffffffffffffffffffffffffffffffffffffff\n      and\n      0xffffffffffffffffffffffffffffffffffffffff\n      and\n      0xffffffffffffffffffffffffffffffffffffffff\n      and\n      dup2\n      mstore\n      0x20\n      add\n      0x05\n      dup3\n      add\n      0x14\n      swap1\n      sload\n      swap1\n      0x0100\n      exp\n      swap1\n      div\n      0xff\n      and\n      iszero\n      iszero\n      iszero\n      iszero\n      dup2\n      mstore\n      0x20\n      add\n      0x06\n      dup3\n      add\n      sload\n      dup2\n      mstore\n      pop\n      pop\n        /* \"contracts/TaskManagement.sol\":5253:5262  userTasks */\n      dup4\n        /* \"contracts/TaskManagement.sol\":5263:5268  index */\n      dup4\n        /* \"contracts/TaskManagement.sol\":5253:5269  userTasks[index] */\n      dup2\n      mload\n      dup2\n      lt\n      tag_112\n      jumpi\n      tag_113\n      tag_114\n      jump\t// in\n    tag_113:\n    tag_112:\n      0x20\n      mul\n      0x20\n      add\n      add\n        /* \"contracts/TaskManagement.sol\":5253:5280  userTasks[index] = tasks[i] */\n      dup2\n      swap1\n      mstore\n      pop\n        /* \"contracts/TaskManagement.sol\":5299:5306  index++ */\n      dup2\n      dup1\n      tag_115\n      swap1\n      tag_116\n      jump\t// in\n    tag_115:\n      swap3\n      pop\n      pop\n        /* \"contracts/TaskManagement.sol\":5195:5322  if (msg.sender == tasks[i].assignedTo) {... */\n    tag_100:\n        /* \"contracts/TaskManagement.sol\":5165:5168  i++ */\n      dup1\n      dup1\n      0x01\n      add\n      swap2\n      pop\n      pop\n        /* \"contracts/TaskManagement.sol\":5131:5333  for (uint i = 0; i < taskCounter; i++) ... */\n      jump(tag_97)\n    tag_98:\n      pop\n        /* \"contracts/TaskManagement.sol\":5352:5361  userTasks */\n      dup2\n        /* \"contracts/TaskManagement.sol\":5345:5361  return userTasks */\n      swap3\n      pop\n      pop\n      pop\n        /* \"contracts/TaskManagement.sol\":4880:5369  function getTasks() public view returns (Task[] memory) {... */\n      swap1\n      jump\t// out\n        /* \"contracts/TaskManagement.sol\":5699:6428  function createTask(... */\n    tag_27:\n        /* \"contracts/TaskManagement.sol\":1320:1336  bytes(\"manager\") */\n      mload(0x40)\n      dup1\n      0x40\n      add\n      0x40\n      mstore\n      dup1\n      0x07\n      dup2\n      mstore\n      0x20\n      add\n      0x6d616e6167657200000000000000000000000000000000000000000000000000\n      dup2\n      mstore\n      pop\n        /* \"contracts/TaskManagement.sol\":1310:1337  keccak256(bytes(\"manager\")) */\n      dup1\n      mload\n      swap1\n      0x20\n      add\n      keccak256\n        /* \"contracts/TaskManagement.sol\":1287:1292  roles */\n      0x02\n        /* \"contracts/TaskManagement.sol\":1287:1304  roles[msg.sender] */\n      0x00\n        /* \"contracts/TaskManagement.sol\":1293:1303  msg.sender */\n      caller\n        /* \"contracts/TaskManagement.sol\":1287:1304  roles[msg.sender] */\n      0xffffffffffffffffffffffffffffffffffffffff\n      and\n      0xffffffffffffffffffffffffffffffffffffffff\n      and\n      dup2\n      mstore\n      0x20\n      add\n      swap1\n      dup2\n      mstore\n      0x20\n      add\n      0x00\n      keccak256\n        /* \"contracts/TaskManagement.sol\":1271:1306  keccak256(bytes(roles[msg.sender])) */\n      mload(0x40)\n      tag_118\n      swap2\n      swap1\n      tag_66\n      jump\t// in\n    tag_118:\n      mload(0x40)\n      dup1\n      swap2\n      sub\n      swap1\n      keccak256\n        /* \"contracts/TaskManagement.sol\":1271:1337  keccak256(bytes(roles[msg.sender])) == keccak256(bytes(\"manager\")) */\n      eq\n        /* \"contracts/TaskManagement.sol\":1263:1361  require(keccak256(bytes(roles[msg.sender])) == keccak256(bytes(\"manager\")), \"Unauthorized action\") */\n      tag_119\n      jumpi\n      mload(0x40)\n      0x08c379a000000000000000000000000000000000000000000000000000000000\n      dup2\n      mstore\n      0x04\n      add\n      tag_120\n      swap1\n      tag_69\n      jump\t// in\n    tag_120:\n      mload(0x40)\n      dup1\n      swap2\n      sub\n      swap1\n      revert\n    tag_119:\n        /* \"contracts/TaskManagement.sol\":5944:5945  0 */\n      0x00\n        /* \"contracts/TaskManagement.sol\":5910:5946  dids[msg.sender].owner == address(0) */\n      0xffffffffffffffffffffffffffffffffffffffff\n      and\n        /* \"contracts/TaskManagement.sol\":5910:5914  dids */\n      0x01\n        /* \"contracts/TaskManagement.sol\":5910:5926  dids[msg.sender] */\n      0x00\n        /* \"contracts/TaskManagement.sol\":5915:5925  msg.sender */\n      caller\n        /* \"contracts/TaskManagement.sol\":5910:5926  dids[msg.sender] */\n      0xffffffffffffffffffffffffffffffffffffffff\n      and\n      0xffffffffffffffffffffffffffffffffffffffff\n      and\n      dup2\n      mstore\n      0x20\n      add\n      swap1\n      dup2\n      mstore\n      0x20\n      add\n      0x00\n      keccak256\n        /* \"contracts/TaskManagement.sol\":5910:5932  dids[msg.sender].owner */\n      0x01\n      add\n      0x00\n      swap1\n      sload\n      swap1\n      0x0100\n      exp\n      swap1\n      div\n      0xffffffffffffffffffffffffffffffffffffffff\n      and\n        /* \"contracts/TaskManagement.sol\":5910:5946  dids[msg.sender].owner == address(0) */\n      0xffffffffffffffffffffffffffffffffffffffff\n      and\n      eq\n        /* \"contracts/TaskManagement.sol\":5902:5986  require(dids[msg.sender].owner == address(0), \"DID already exists for this address\") */\n      tag_122\n      jumpi\n      mload(0x40)\n      0x08c379a000000000000000000000000000000000000000000000000000000000\n      dup2\n      mstore\n      0x04\n      add\n      tag_123\n      swap1\n      tag_89\n      jump\t// in\n    tag_123:\n      mload(0x40)\n      dup1\n      swap2\n      sub\n      swap1\n      revert\n    tag_122:\n        /* \"contracts/TaskManagement.sol\":6027:6028  0 */\n      0x00\n        /* \"contracts/TaskManagement.sol\":6011:6016  _name */\n      dup6\n        /* \"contracts/TaskManagement.sol\":6005:6024  bytes(_name).length */\n      mload\n        /* \"contracts/TaskManagement.sol\":6005:6028  bytes(_name).length > 0 */\n      gt\n        /* \"contracts/TaskManagement.sol\":5997:6053  require(bytes(_name).length > 0, \"Name cannot be empty\") */\n      tag_124\n      jumpi\n      mload(0x40)\n      0x08c379a000000000000000000000000000000000000000000000000000000000\n      dup2\n      mstore\n      0x04\n      add\n      tag_125\n      swap1\n      tag_126\n      jump\t// in\n    tag_125:\n      mload(0x40)\n      dup1\n      swap2\n      sub\n      swap1\n      revert\n    tag_124:\n        /* \"contracts/TaskManagement.sol\":6101:6102  0 */\n      0x00\n        /* \"contracts/TaskManagement.sol\":6078:6090  _description */\n      dup5\n        /* \"contracts/TaskManagement.sol\":6072:6098  bytes(_description).length */\n      mload\n        /* \"contracts/TaskManagement.sol\":6072:6102  bytes(_description).length > 0 */\n      gt\n        /* \"contracts/TaskManagement.sol\":6064:6134  require(bytes(_description).length > 0, \"Description cannot be empty\") */\n      tag_127\n      jumpi\n      mload(0x40)\n      0x08c379a000000000000000000000000000000000000000000000000000000000\n      dup2\n      mstore\n      0x04\n      add\n      tag_128\n      swap1\n      tag_129\n      jump\t// in\n    tag_128:\n      mload(0x40)\n      dup1\n      swap2\n      sub\n      swap1\n      revert\n    tag_127:\n        /* \"contracts/TaskManagement.sol\":6213:6295  Task(taskCounter, _name, _description, _priority, _dueDate, _assignedTo, false, 0) */\n      mload(0x40)\n      dup1\n      0x0100\n      add\n      0x40\n      mstore\n      dup1\n        /* \"contracts/TaskManagement.sol\":6218:6229  taskCounter */\n      sload(0x00)\n        /* \"contracts/TaskManagement.sol\":6213:6295  Task(taskCounter, _name, _description, _priority, _dueDate, _assignedTo, false, 0) */\n      dup2\n      mstore\n      0x20\n      add\n        /* \"contracts/TaskManagement.sol\":6231:6236  _name */\n      dup7\n        /* \"contracts/TaskManagement.sol\":6213:6295  Task(taskCounter, _name, _description, _priority, _dueDate, _assignedTo, false, 0) */\n      dup2\n      mstore\n      0x20\n      add\n        /* \"contracts/TaskManagement.sol\":6238:6250  _description */\n      dup6\n        /* \"contracts/TaskManagement.sol\":6213:6295  Task(taskCounter, _name, _description, _priority, _dueDate, _assignedTo, false, 0) */\n      dup2\n      mstore\n      0x20\n      add\n        /* \"contracts/TaskManagement.sol\":6252:6261  _priority */\n      dup5\n        /* \"contracts/TaskManagement.sol\":6213:6295  Task(taskCounter, _name, _description, _priority, _dueDate, _assignedTo, false, 0) */\n      dup2\n      mstore\n      0x20\n      add\n        /* \"contracts/TaskManagement.sol\":6263:6271  _dueDate */\n      dup4\n        /* \"contracts/TaskManagement.sol\":6213:6295  Task(taskCounter, _name, _description, _priority, _dueDate, _assignedTo, false, 0) */\n      dup2\n      mstore\n      0x20\n      add\n        /* \"contracts/TaskManagement.sol\":6273:6284  _assignedTo */\n      dup3\n        /* \"contracts/TaskManagement.sol\":6213:6295  Task(taskCounter, _name, _description, _priority, _dueDate, _assignedTo, false, 0) */\n      0xffffffffffffffffffffffffffffffffffffffff\n      and\n      dup2\n      mstore\n      0x20\n      add\n        /* \"contracts/TaskManagement.sol\":6286:6291  false */\n      0x00\n        /* \"contracts/TaskManagement.sol\":6213:6295  Task(taskCounter, _name, _description, _priority, _dueDate, _assignedTo, false, 0) */\n      iszero\n      iszero\n      dup2\n      mstore\n      0x20\n      add\n        /* \"contracts/TaskManagement.sol\":6293:6294  0 */\n      0x00\n        /* \"contracts/TaskManagement.sol\":6213:6295  Task(taskCounter, _name, _description, _priority, _dueDate, _assignedTo, false, 0) */\n      dup2\n      mstore\n      pop\n        /* \"contracts/TaskManagement.sol\":6192:6197  tasks */\n      0x05\n        /* \"contracts/TaskManagement.sol\":6192:6210  tasks[taskCounter] */\n      0x00\n        /* \"contracts/TaskManagement.sol\":6198:6209  taskCounter */\n      dup1\n      sload\n        /* \"contracts/TaskManagement.sol\":6192:6210  tasks[taskCounter] */\n      dup2\n      mstore\n      0x20\n      add\n      swap1\n      dup2\n      mstore\n      0x20\n      add\n      0x00\n      keccak256\n        /* \"contracts/TaskManagement.sol\":6192:6295  tasks[taskCounter] = Task(taskCounter, _name, _description, _priority, _dueDate, _assignedTo, false, 0) */\n      0x00\n      dup3\n      add\n      mload\n      dup2\n      0x00\n      add\n      sstore\n      0x20\n      dup3\n      add\n      mload\n      dup2\n      0x01\n      add\n      swap1\n      dup2\n      tag_130\n      swap2\n      swap1\n      tag_81\n      jump\t// in\n    tag_130:\n      pop\n      0x40\n      dup3\n      add\n      mload\n      dup2\n      0x02\n      add\n      swap1\n      dup2\n      tag_131\n      swap2\n      swap1\n      tag_81\n      jump\t// in\n    tag_131:\n      pop\n      0x60\n      dup3\n      add\n      mload\n      dup2\n      0x03\n      add\n      sstore\n      0x80\n      dup3\n      add\n      mload\n      dup2\n      0x04\n      add\n      sstore\n      0xa0\n      dup3\n      add\n      mload\n      dup2\n      0x05\n      add\n      exp(0x0100, 0x00)\n      dup2\n      sload\n      dup2\n      0xffffffffffffffffffffffffffffffffffffffff\n      mul\n      not\n      and\n      swap1\n      dup4\n      0xffffffffffffffffffffffffffffffffffffffff\n      and\n      mul\n      or\n      swap1\n      sstore\n      pop\n      0xc0\n      dup3\n      add\n      mload\n      dup2\n      0x05\n      add\n      exp(0x0100, 0x14)\n      dup2\n      sload\n      dup2\n      0xff\n      mul\n      not\n      and\n      swap1\n      dup4\n      iszero\n      iszero\n      mul\n      or\n      swap1\n      sstore\n      pop\n      0xe0\n      dup3\n      add\n      mload\n      dup2\n      0x06\n      add\n      sstore\n      swap1\n      pop\n      pop\n        /* \"contracts/TaskManagement.sol\":6323:6334  _assignedTo */\n      dup1\n        /* \"contracts/TaskManagement.sol\":6311:6355  TaskCreated(_assignedTo, taskCounter, _name) */\n      0xffffffffffffffffffffffffffffffffffffffff\n      and\n      0xa211005f5319202ee7ab6815fc340564635fb1eee9bc5a55aa10048c5b471dc4\n        /* \"contracts/TaskManagement.sol\":6336:6347  taskCounter */\n      sload(0x00)\n        /* \"contracts/TaskManagement.sol\":6349:6354  _name */\n      dup8\n        /* \"contracts/TaskManagement.sol\":6311:6355  TaskCreated(_assignedTo, taskCounter, _name) */\n      mload(0x40)\n      tag_132\n      swap3\n      swap2\n      swap1\n      tag_133\n      jump\t// in\n    tag_132:\n      mload(0x40)\n      dup1\n      swap2\n      sub\n      swap1\n      log2\n        /* \"contracts/TaskManagement.sol\":6407:6418  taskCounter */\n      0x00\n      dup1\n        /* \"contracts/TaskManagement.sol\":6407:6420  taskCounter++ */\n      dup2\n      sload\n      dup1\n      swap3\n      swap2\n      swap1\n      tag_134\n      swap1\n      tag_116\n      jump\t// in\n    tag_134:\n      swap2\n      swap1\n      pop\n      sstore\n      pop\n        /* \"contracts/TaskManagement.sol\":5699:6428  function createTask(... */\n      pop\n      pop\n      pop\n      pop\n      pop\n      jump\t// out\n        /* \"contracts/TaskManagement.sol\":2069:2782  function updateDID(string memory _newIdentifier) public {... */\n    tag_31:\n        /* \"contracts/TaskManagement.sol\":2175:2176  0 */\n      0x00\n        /* \"contracts/TaskManagement.sol\":2150:2164  _newIdentifier */\n      dup2\n        /* \"contracts/TaskManagement.sol\":2144:2172  bytes(_newIdentifier).length */\n      mload\n        /* \"contracts/TaskManagement.sol\":2144:2176  bytes(_newIdentifier).length > 0 */\n      gt\n        /* \"contracts/TaskManagement.sol\":2136:2211  require(bytes(_newIdentifier).length > 0, \"New identifier cannot be empty\") */\n      tag_136\n      jumpi\n      mload(0x40)\n      0x08c379a000000000000000000000000000000000000000000000000000000000\n      dup2\n      mstore\n      0x04\n      add\n      tag_137\n      swap1\n      tag_138\n      jump\t// in\n    tag_137:\n      mload(0x40)\n      dup1\n      swap2\n      sub\n      swap1\n      revert\n    tag_136:\n        /* \"contracts/TaskManagement.sol\":2264:2265  0 */\n      0x00\n        /* \"contracts/TaskManagement.sol\":2230:2266  dids[msg.sender].owner != address(0) */\n      0xffffffffffffffffffffffffffffffffffffffff\n      and\n        /* \"contracts/TaskManagement.sol\":2230:2234  dids */\n      0x01\n        /* \"contracts/TaskManagement.sol\":2230:2246  dids[msg.sender] */\n      0x00\n        /* \"contracts/TaskManagement.sol\":2235:2245  msg.sender */\n      caller\n        /* \"contracts/TaskManagement.sol\":2230:2246  dids[msg.sender] */\n      0xffffffffffffffffffffffffffffffffffffffff\n      and\n      0xffffffffffffffffffffffffffffffffffffffff\n      and\n      dup2\n      mstore\n      0x20\n      add\n      swap1\n      dup2\n      mstore\n      0x20\n      add\n      0x00\n      keccak256\n        /* \"contracts/TaskManagement.sol\":2230:2252  dids[msg.sender].owner */\n      0x01\n      add\n      0x00\n      swap1\n      sload\n      swap1\n      0x0100\n      exp\n      swap1\n      div\n      0xffffffffffffffffffffffffffffffffffffffff\n      and\n        /* \"contracts/TaskManagement.sol\":2230:2266  dids[msg.sender].owner != address(0) */\n      0xffffffffffffffffffffffffffffffffffffffff\n      and\n      sub\n        /* \"contracts/TaskManagement.sol\":2222:2309  require(dids[msg.sender].owner != address(0), \"No existing DID found for this address\") */\n      tag_139\n      jumpi\n      mload(0x40)\n      0x08c379a000000000000000000000000000000000000000000000000000000000\n      dup2\n      mstore\n      0x04\n      add\n      tag_140\n      swap1\n      tag_73\n      jump\t// in\n    tag_140:\n      mload(0x40)\n      dup1\n      swap2\n      sub\n      swap1\n      revert\n    tag_139:\n        /* \"contracts/TaskManagement.sol\":2398:2425  string memory oldIdentifier */\n      0x00\n        /* \"contracts/TaskManagement.sol\":2428:2436  getDID() */\n      tag_141\n        /* \"contracts/TaskManagement.sol\":2428:2434  getDID */\n      tag_54\n        /* \"contracts/TaskManagement.sol\":2428:2436  getDID() */\n      jump\t// in\n    tag_141:\n        /* \"contracts/TaskManagement.sol\":2398:2436  string memory oldIdentifier = getDID() */\n      swap1\n      pop\n        /* \"contracts/TaskManagement.sol\":2506:2520  _newIdentifier */\n      dup2\n        /* \"contracts/TaskManagement.sol\":2490:2522  keccak256(bytes(_newIdentifier)) */\n      dup1\n      mload\n      swap1\n      0x20\n      add\n      keccak256\n        /* \"contracts/TaskManagement.sol\":2471:2484  oldIdentifier */\n      dup2\n        /* \"contracts/TaskManagement.sol\":2455:2486  keccak256(bytes(oldIdentifier)) */\n      dup1\n      mload\n      swap1\n      0x20\n      add\n      keccak256\n        /* \"contracts/TaskManagement.sol\":2455:2522  keccak256(bytes(oldIdentifier)) != keccak256(bytes(_newIdentifier)) */\n      sub\n        /* \"contracts/TaskManagement.sol\":2447:2549  require(keccak256(bytes(oldIdentifier)) != keccak256(bytes(_newIdentifier)), \"Invalid new identifier\") */\n      tag_142\n      jumpi\n      mload(0x40)\n      0x08c379a000000000000000000000000000000000000000000000000000000000\n      dup2\n      mstore\n      0x04\n      add\n      tag_143\n      swap1\n      tag_144\n      jump\t// in\n    tag_143:\n      mload(0x40)\n      dup1\n      swap2\n      sub\n      swap1\n      revert\n    tag_142:\n        /* \"contracts/TaskManagement.sol\":2651:2665  _newIdentifier */\n      dup2\n        /* \"contracts/TaskManagement.sol\":2621:2625  dids */\n      0x01\n        /* \"contracts/TaskManagement.sol\":2621:2637  dids[msg.sender] */\n      0x00\n        /* \"contracts/TaskManagement.sol\":2626:2636  msg.sender */\n      caller\n        /* \"contracts/TaskManagement.sol\":2621:2637  dids[msg.sender] */\n      0xffffffffffffffffffffffffffffffffffffffff\n      and\n      0xffffffffffffffffffffffffffffffffffffffff\n      and\n      dup2\n      mstore\n      0x20\n      add\n      swap1\n      dup2\n      mstore\n      0x20\n      add\n      0x00\n      keccak256\n        /* \"contracts/TaskManagement.sol\":2621:2648  dids[msg.sender].identifier */\n      0x00\n      add\n        /* \"contracts/TaskManagement.sol\":2621:2665  dids[msg.sender].identifier = _newIdentifier */\n      swap1\n      dup2\n      tag_145\n      swap2\n      swap1\n      tag_81\n      jump\t// in\n    tag_145:\n      pop\n        /* \"contracts/TaskManagement.sol\":2747:2757  msg.sender */\n      caller\n        /* \"contracts/TaskManagement.sol\":2736:2774  DIDCreated(msg.sender, _newIdentifier) */\n      0xffffffffffffffffffffffffffffffffffffffff\n      and\n      0x1b7934654ba536b6962955e057ce42885353bbaad8c605a5ce0678e632f28410\n        /* \"contracts/TaskManagement.sol\":2759:2773  _newIdentifier */\n      dup4\n        /* \"contracts/TaskManagement.sol\":2736:2774  DIDCreated(msg.sender, _newIdentifier) */\n      mload(0x40)\n      tag_146\n      swap2\n      swap1\n      tag_56\n      jump\t// in\n    tag_146:\n      mload(0x40)\n      dup1\n      swap2\n      sub\n      swap1\n      log2\n        /* \"contracts/TaskManagement.sol\":2125:2782  {... */\n      pop\n        /* \"contracts/TaskManagement.sol\":2069:2782  function updateDID(string memory _newIdentifier) public {... */\n      pop\n      jump\t// out\n        /* \"contracts/TaskManagement.sol\":5377:5691  function getTask(uint _id) public view returns (... */\n    tag_35:\n        /* \"contracts/TaskManagement.sol\":5435:5446  Task memory */\n      tag_147\n      tag_96\n      jump\t// in\n    tag_147:\n        /* \"contracts/TaskManagement.sol\":5507:5508  0 */\n      0x00\n        /* \"contracts/TaskManagement.sol\":5473:5509  dids[msg.sender].owner == address(0) */\n      0xffffffffffffffffffffffffffffffffffffffff\n      and\n        /* \"contracts/TaskManagement.sol\":5473:5477  dids */\n      0x01\n        /* \"contracts/TaskManagement.sol\":5473:5489  dids[msg.sender] */\n      0x00\n        /* \"contracts/TaskManagement.sol\":5478:5488  msg.sender */\n      caller\n        /* \"contracts/TaskManagement.sol\":5473:5489  dids[msg.sender] */\n      0xffffffffffffffffffffffffffffffffffffffff\n      and\n      0xffffffffffffffffffffffffffffffffffffffff\n      and\n      dup2\n      mstore\n      0x20\n      add\n      swap1\n      dup2\n      mstore\n      0x20\n      add\n      0x00\n      keccak256\n        /* \"contracts/TaskManagement.sol\":5473:5495  dids[msg.sender].owner */\n      0x01\n      add\n      0x00\n      swap1\n      sload\n      swap1\n      0x0100\n      exp\n      swap1\n      div\n      0xffffffffffffffffffffffffffffffffffffffff\n      and\n        /* \"contracts/TaskManagement.sol\":5473:5509  dids[msg.sender].owner == address(0) */\n      0xffffffffffffffffffffffffffffffffffffffff\n      and\n      eq\n        /* \"contracts/TaskManagement.sol\":5465:5549  require(dids[msg.sender].owner == address(0), \"DID already exists for this address\") */\n      tag_149\n      jumpi\n      mload(0x40)\n      0x08c379a000000000000000000000000000000000000000000000000000000000\n      dup2\n      mstore\n      0x04\n      add\n      tag_150\n      swap1\n      tag_89\n      jump\t// in\n    tag_150:\n      mload(0x40)\n      dup1\n      swap2\n      sub\n      swap1\n      revert\n    tag_149:\n        /* \"contracts/TaskManagement.sol\":5562:5579  Task storage task */\n      0x00\n        /* \"contracts/TaskManagement.sol\":5582:5587  tasks */\n      0x05\n        /* \"contracts/TaskManagement.sol\":5582:5592  tasks[_id] */\n      0x00\n        /* \"contracts/TaskManagement.sol\":5588:5591  _id */\n      dup5\n        /* \"contracts/TaskManagement.sol\":5582:5592  tasks[_id] */\n      dup2\n      mstore\n      0x20\n      add\n      swap1\n      dup2\n      mstore\n      0x20\n      add\n      0x00\n      keccak256\n        /* \"contracts/TaskManagement.sol\":5562:5592  Task storage task = tasks[_id] */\n      swap1\n      pop\n        /* \"contracts/TaskManagement.sol\":5625:5629  task */\n      dup1\n        /* \"contracts/TaskManagement.sol\":5625:5640  task.assignedTo */\n      0x05\n      add\n      0x00\n      swap1\n      sload\n      swap1\n      0x0100\n      exp\n      swap1\n      div\n      0xffffffffffffffffffffffffffffffffffffffff\n      and\n        /* \"contracts/TaskManagement.sol\":5611:5640  msg.sender == task.assignedTo */\n      0xffffffffffffffffffffffffffffffffffffffff\n      and\n        /* \"contracts/TaskManagement.sol\":5611:5621  msg.sender */\n      caller\n        /* \"contracts/TaskManagement.sol\":5611:5640  msg.sender == task.assignedTo */\n      0xffffffffffffffffffffffffffffffffffffffff\n      and\n      eq\n        /* \"contracts/TaskManagement.sol\":5603:5659  require(msg.sender == task.assignedTo, \"Not authorized\") */\n      tag_151\n      jumpi\n      mload(0x40)\n      0x08c379a000000000000000000000000000000000000000000000000000000000\n      dup2\n      mstore\n      0x04\n      add\n      tag_152\n      swap1\n      tag_153\n      jump\t// in\n    tag_152:\n      mload(0x40)\n      dup1\n      swap2\n      sub\n      swap1\n      revert\n    tag_151:\n        /* \"contracts/TaskManagement.sol\":5679:5683  task */\n      dup1\n        /* \"contracts/TaskManagement.sol\":5672:5683  return task */\n      mload(0x40)\n      dup1\n      0x0100\n      add\n      0x40\n      mstore\n      swap1\n      dup2\n      0x00\n      dup3\n      add\n      sload\n      dup2\n      mstore\n      0x20\n      add\n      0x01\n      dup3\n      add\n      dup1\n      sload\n      tag_154\n      swap1\n      tag_102\n      jump\t// in\n    tag_154:\n      dup1\n      0x1f\n      add\n      0x20\n      dup1\n      swap2\n      div\n      mul\n      0x20\n      add\n      mload(0x40)\n      swap1\n      dup2\n      add\n      0x40\n      mstore\n      dup1\n      swap3\n      swap2\n      swap1\n      dup2\n      dup2\n      mstore\n      0x20\n      add\n      dup3\n      dup1\n      sload\n      tag_155\n      swap1\n      tag_102\n      jump\t// in\n    tag_155:\n      dup1\n      iszero\n      tag_156\n      jumpi\n      dup1\n      0x1f\n      lt\n      tag_157\n      jumpi\n      0x0100\n      dup1\n      dup4\n      sload\n      div\n      mul\n      dup4\n      mstore\n      swap2\n      0x20\n      add\n      swap2\n      jump(tag_156)\n    tag_157:\n      dup3\n      add\n      swap2\n      swap1\n      0x00\n      mstore\n      keccak256(0x00, 0x20)\n      swap1\n    tag_158:\n      dup2\n      sload\n      dup2\n      mstore\n      swap1\n      0x01\n      add\n      swap1\n      0x20\n      add\n      dup1\n      dup4\n      gt\n      tag_158\n      jumpi\n      dup3\n      swap1\n      sub\n      0x1f\n      and\n      dup3\n      add\n      swap2\n    tag_156:\n      pop\n      pop\n      pop\n      pop\n      pop\n      dup2\n      mstore\n      0x20\n      add\n      0x02\n      dup3\n      add\n      dup1\n      sload\n      tag_159\n      swap1\n      tag_102\n      jump\t// in\n    tag_159:\n      dup1\n      0x1f\n      add\n      0x20\n      dup1\n      swap2\n      div\n      mul\n      0x20\n      add\n      mload(0x40)\n      swap1\n      dup2\n      add\n      0x40\n      mstore\n      dup1\n      swap3\n      swap2\n      swap1\n      dup2\n      dup2\n      mstore\n      0x20\n      add\n      dup3\n      dup1\n      sload\n      tag_160\n      swap1\n      tag_102\n      jump\t// in\n    tag_160:\n      dup1\n      iszero\n      tag_161\n      jumpi\n      dup1\n      0x1f\n      lt\n      tag_162\n      jumpi\n      0x0100\n      dup1\n      dup4\n      sload\n      div\n      mul\n      dup4\n      mstore\n      swap2\n      0x20\n      add\n      swap2\n      jump(tag_161)\n    tag_162:\n      dup3\n      add\n      swap2\n      swap1\n      0x00\n      mstore\n      keccak256(0x00, 0x20)\n      swap1\n    tag_163:\n      dup2\n      sload\n      dup2\n      mstore\n      swap1\n      0x01\n      add\n      swap1\n      0x20\n      add\n      dup1\n      dup4\n      gt\n      tag_163\n      jumpi\n      dup3\n      swap1\n      sub\n      0x1f\n      and\n      dup3\n      add\n      swap2\n    tag_161:\n      pop\n      pop\n      pop\n      pop\n      pop\n      dup2\n      mstore\n      0x20\n      add\n      0x03\n      dup3\n      add\n      sload\n      dup2\n      mstore\n      0x20\n      add\n      0x04\n      dup3\n      add\n      sload\n      dup2\n      mstore\n      0x20\n      add\n      0x05\n      dup3\n      add\n      0x00\n      swap1\n      sload\n      swap1\n      0x0100\n      exp\n      swap1\n      div\n      0xffffffffffffffffffffffffffffffffffffffff\n      and\n      0xffffffffffffffffffffffffffffffffffffffff\n      and\n      0xffffffffffffffffffffffffffffffffffffffff\n      and\n      dup2\n      mstore\n      0x20\n      add\n      0x05\n      dup3\n      add\n      0x14\n      swap1\n      sload\n      swap1\n      0x0100\n      exp\n      swap1\n      div\n      0xff\n      and\n      iszero\n      iszero\n      iszero\n      iszero\n      dup2\n      mstore\n      0x20\n      add\n      0x06\n      dup3\n      add\n      sload\n      dup2\n      mstore\n      pop\n      pop\n      swap2\n      pop\n      pop\n        /* \"contracts/TaskManagement.sol\":5377:5691  function getTask(uint _id) public view returns (... */\n      swap2\n      swap1\n      pop\n      jump\t// out\n        /* \"contracts/TaskManagement.sol\":1509:1857  function createDID(string memory _identifier) public {... */\n    tag_40:\n        /* \"contracts/TaskManagement.sol\":1609:1610  0 */\n      0x00\n        /* \"contracts/TaskManagement.sol\":1587:1598  _identifier */\n      dup2\n        /* \"contracts/TaskManagement.sol\":1581:1606  bytes(_identifier).length */\n      mload\n        /* \"contracts/TaskManagement.sol\":1581:1610  bytes(_identifier).length > 0 */\n      gt\n        /* \"contracts/TaskManagement.sol\":1573:1641  require(bytes(_identifier).length > 0, \"Identifier cannot be empty\") */\n      tag_165\n      jumpi\n      mload(0x40)\n      0x08c379a000000000000000000000000000000000000000000000000000000000\n      dup2\n      mstore\n      0x04\n      add\n      tag_166\n      swap1\n      tag_167\n      jump\t// in\n    tag_166:\n      mload(0x40)\n      dup1\n      swap2\n      sub\n      swap1\n      revert\n    tag_165:\n        /* \"contracts/TaskManagement.sol\":1694:1695  0 */\n      0x00\n        /* \"contracts/TaskManagement.sol\":1660:1696  dids[msg.sender].owner == address(0) */\n      0xffffffffffffffffffffffffffffffffffffffff\n      and\n        /* \"contracts/TaskManagement.sol\":1660:1664  dids */\n      0x01\n        /* \"contracts/TaskManagement.sol\":1660:1676  dids[msg.sender] */\n      0x00\n        /* \"contracts/TaskManagement.sol\":1665:1675  msg.sender */\n      caller\n        /* \"contracts/TaskManagement.sol\":1660:1676  dids[msg.sender] */\n      0xffffffffffffffffffffffffffffffffffffffff\n      and\n      0xffffffffffffffffffffffffffffffffffffffff\n      and\n      dup2\n      mstore\n      0x20\n      add\n      swap1\n      dup2\n      mstore\n      0x20\n      add\n      0x00\n      keccak256\n        /* \"contracts/TaskManagement.sol\":1660:1682  dids[msg.sender].owner */\n      0x01\n      add\n      0x00\n      swap1\n      sload\n      swap1\n      0x0100\n      exp\n      swap1\n      div\n      0xffffffffffffffffffffffffffffffffffffffff\n      and\n        /* \"contracts/TaskManagement.sol\":1660:1696  dids[msg.sender].owner == address(0) */\n      0xffffffffffffffffffffffffffffffffffffffff\n      and\n      eq\n        /* \"contracts/TaskManagement.sol\":1652:1736  require(dids[msg.sender].owner == address(0), \"DID already exists for this address\") */\n      tag_168\n      jumpi\n      mload(0x40)\n      0x08c379a000000000000000000000000000000000000000000000000000000000\n      dup2\n      mstore\n      0x04\n      add\n      tag_169\n      swap1\n      tag_89\n      jump\t// in\n    tag_169:\n      mload(0x40)\n      dup1\n      swap2\n      sub\n      swap1\n      revert\n    tag_168:\n        /* \"contracts/TaskManagement.sol\":1768:1796  DID(_identifier, msg.sender) */\n      mload(0x40)\n      dup1\n      0x40\n      add\n      0x40\n      mstore\n      dup1\n        /* \"contracts/TaskManagement.sol\":1772:1783  _identifier */\n      dup3\n        /* \"contracts/TaskManagement.sol\":1768:1796  DID(_identifier, msg.sender) */\n      dup2\n      mstore\n      0x20\n      add\n        /* \"contracts/TaskManagement.sol\":1785:1795  msg.sender */\n      caller\n        /* \"contracts/TaskManagement.sol\":1768:1796  DID(_identifier, msg.sender) */\n      0xffffffffffffffffffffffffffffffffffffffff\n      and\n      dup2\n      mstore\n      pop\n        /* \"contracts/TaskManagement.sol\":1749:1753  dids */\n      0x01\n        /* \"contracts/TaskManagement.sol\":1749:1765  dids[msg.sender] */\n      0x00\n        /* \"contracts/TaskManagement.sol\":1754:1764  msg.sender */\n      caller\n        /* \"contracts/TaskManagement.sol\":1749:1765  dids[msg.sender] */\n      0xffffffffffffffffffffffffffffffffffffffff\n      and\n      0xffffffffffffffffffffffffffffffffffffffff\n      and\n      dup2\n      mstore\n      0x20\n      add\n      swap1\n      dup2\n      mstore\n      0x20\n      add\n      0x00\n      keccak256\n        /* \"contracts/TaskManagement.sol\":1749:1796  dids[msg.sender] = DID(_identifier, msg.sender) */\n      0x00\n      dup3\n      add\n      mload\n      dup2\n      0x00\n      add\n      swap1\n      dup2\n      tag_170\n      swap2\n      swap1\n      tag_81\n      jump\t// in\n    tag_170:\n      pop\n      0x20\n      dup3\n      add\n      mload\n      dup2\n      0x01\n      add\n      exp(0x0100, 0x00)\n      dup2\n      sload\n      dup2\n      0xffffffffffffffffffffffffffffffffffffffff\n      mul\n      not\n      and\n      swap1\n      dup4\n      0xffffffffffffffffffffffffffffffffffffffff\n      and\n      mul\n      or\n      swap1\n      sstore\n      pop\n      swap1\n      pop\n      pop\n        /* \"contracts/TaskManagement.sol\":1825:1835  msg.sender */\n      caller\n        /* \"contracts/TaskManagement.sol\":1814:1849  DIDCreated(msg.sender, _identifier) */\n      0xffffffffffffffffffffffffffffffffffffffff\n      and\n      0x1b7934654ba536b6962955e057ce42885353bbaad8c605a5ce0678e632f28410\n        /* \"contracts/TaskManagement.sol\":1837:1848  _identifier */\n      dup3\n        /* \"contracts/TaskManagement.sol\":1814:1849  DIDCreated(msg.sender, _identifier) */\n      mload(0x40)\n      tag_171\n      swap2\n      swap1\n      tag_56\n      jump\t// in\n    tag_171:\n      mload(0x40)\n      dup1\n      swap2\n      sub\n      swap1\n      log2\n        /* \"contracts/TaskManagement.sol\":1509:1857  function createDID(string memory _identifier) public {... */\n      pop\n      jump\t// out\n        /* \"contracts/TaskManagement.sol\":529:556  uint public taskCounter = 0 */\n    tag_42:\n      sload(0x00)\n      dup2\n      jump\t// out\n        /* \"contracts/TaskManagement.sol\":768:802  mapping(uint => Task) public tasks */\n    tag_47:\n      mstore(0x20, 0x05)\n      dup1\n      0x00\n      mstore\n      keccak256(0x00, 0x40)\n      0x00\n      swap2\n      pop\n      swap1\n      pop\n      dup1\n      0x00\n      add\n      sload\n      swap1\n      dup1\n      0x01\n      add\n      dup1\n      sload\n      tag_172\n      swap1\n      tag_102\n      jump\t// in\n    tag_172:\n      dup1\n      0x1f\n      add\n      0x20\n      dup1\n      swap2\n      div\n      mul\n      0x20\n      add\n      mload(0x40)\n      swap1\n      dup2\n      add\n      0x40\n      mstore\n      dup1\n      swap3\n      swap2\n      swap1\n      dup2\n      dup2\n      mstore\n      0x20\n      add\n      dup3\n      dup1\n      sload\n      tag_173\n      swap1\n      tag_102\n      jump\t// in\n    tag_173:\n      dup1\n      iszero\n      tag_174\n      jumpi\n      dup1\n      0x1f\n      lt\n      tag_175\n      jumpi\n      0x0100\n      dup1\n      dup4\n      sload\n      div\n      mul\n      dup4\n      mstore\n      swap2\n      0x20\n      add\n      swap2\n      jump(tag_174)\n    tag_175:\n      dup3\n      add\n      swap2\n      swap1\n      0x00\n      mstore\n      keccak256(0x00, 0x20)\n      swap1\n    tag_176:\n      dup2\n      sload\n      dup2\n      mstore\n      swap1\n      0x01\n      add\n      swap1\n      0x20\n      add\n      dup1\n      dup4\n      gt\n      tag_176\n      jumpi\n      dup3\n      swap1\n      sub\n      0x1f\n      and\n      dup3\n      add\n      swap2\n    tag_174:\n      pop\n      pop\n      pop\n      pop\n      pop\n      swap1\n      dup1\n      0x02\n      add\n      dup1\n      sload\n      tag_177\n      swap1\n      tag_102\n      jump\t// in\n    tag_177:\n      dup1\n      0x1f\n      add\n      0x20\n      dup1\n      swap2\n      div\n      mul\n      0x20\n      add\n      mload(0x40)\n      swap1\n      dup2\n      add\n      0x40\n      mstore\n      dup1\n      swap3\n      swap2\n      swap1\n      dup2\n      dup2\n      mstore\n      0x20\n      add\n      dup3\n      dup1\n      sload\n      tag_178\n      swap1\n      tag_102\n      jump\t// in\n    tag_178:\n      dup1\n      iszero\n      tag_179\n      jumpi\n      dup1\n      0x1f\n      lt\n      tag_180\n      jumpi\n      0x0100\n      dup1\n      dup4\n      sload\n      div\n      mul\n      dup4\n      mstore\n      swap2\n      0x20\n      add\n      swap2\n      jump(tag_179)\n    tag_180:\n      dup3\n      add\n      swap2\n      swap1\n      0x00\n      mstore\n      keccak256(0x00, 0x20)\n      swap1\n    tag_181:\n      dup2\n      sload\n      dup2\n      mstore\n      swap1\n      0x01\n      add\n      swap1\n      0x20\n      add\n      dup1\n      dup4\n      gt\n      tag_181\n      jumpi\n      dup3\n      swap1\n      sub\n      0x1f\n      and\n      dup3\n      add\n      swap2\n    tag_179:\n      pop\n      pop\n      pop\n      pop\n      pop\n      swap1\n      dup1\n      0x03\n      add\n      sload\n      swap1\n      dup1\n      0x04\n      add\n      sload\n      swap1\n      dup1\n      0x05\n      add\n      0x00\n      swap1\n      sload\n      swap1\n      0x0100\n      exp\n      swap1\n      div\n      0xffffffffffffffffffffffffffffffffffffffff\n      and\n      swap1\n      dup1\n      0x05\n      add\n      0x14\n      swap1\n      sload\n      swap1\n      0x0100\n      exp\n      swap1\n      div\n      0xff\n      and\n      swap1\n      dup1\n      0x06\n      add\n      sload\n      swap1\n      pop\n      dup9\n      jump\t// out\n        /* \"contracts/TaskManagement.sol\":2839:3261  function assignRole(address _user, string memory _role) onlyManager public {... */\n    tag_52:\n        /* \"contracts/TaskManagement.sol\":1320:1336  bytes(\"manager\") */\n      mload(0x40)\n      dup1\n      0x40\n      add\n      0x40\n      mstore\n      dup1\n      0x07\n      dup2\n      mstore\n      0x20\n      add\n      0x6d616e6167657200000000000000000000000000000000000000000000000000\n      dup2\n      mstore\n      pop\n        /* \"contracts/TaskManagement.sol\":1310:1337  keccak256(bytes(\"manager\")) */\n      dup1\n      mload\n      swap1\n      0x20\n      add\n      keccak256\n        /* \"contracts/TaskManagement.sol\":1287:1292  roles */\n      0x02\n        /* \"contracts/TaskManagement.sol\":1287:1304  roles[msg.sender] */\n      0x00\n        /* \"contracts/TaskManagement.sol\":1293:1303  msg.sender */\n      caller\n        /* \"contracts/TaskManagement.sol\":1287:1304  roles[msg.sender] */\n      0xffffffffffffffffffffffffffffffffffffffff\n      and\n      0xffffffffffffffffffffffffffffffffffffffff\n      and\n      dup2\n      mstore\n      0x20\n      add\n      swap1\n      dup2\n      mstore\n      0x20\n      add\n      0x00\n      keccak256\n        /* \"contracts/TaskManagement.sol\":1271:1306  keccak256(bytes(roles[msg.sender])) */\n      mload(0x40)\n      tag_183\n      swap2\n      swap1\n      tag_66\n      jump\t// in\n    tag_183:\n      mload(0x40)\n      dup1\n      swap2\n      sub\n      swap1\n      keccak256\n        /* \"contracts/TaskManagement.sol\":1271:1337  keccak256(bytes(roles[msg.sender])) == keccak256(bytes(\"manager\")) */\n      eq\n        /* \"contracts/TaskManagement.sol\":1263:1361  require(keccak256(bytes(roles[msg.sender])) == keccak256(bytes(\"manager\")), \"Unauthorized action\") */\n      tag_184\n      jumpi\n      mload(0x40)\n      0x08c379a000000000000000000000000000000000000000000000000000000000\n      dup2\n      mstore\n      0x04\n      add\n      tag_185\n      swap1\n      tag_69\n      jump\t// in\n    tag_185:\n      mload(0x40)\n      dup1\n      swap2\n      sub\n      swap1\n      revert\n    tag_184:\n        /* \"contracts/TaskManagement.sol\":2967:2968  0 */\n      0x00\n        /* \"contracts/TaskManagement.sol\":2933:2969  dids[msg.sender].owner != address(0) */\n      0xffffffffffffffffffffffffffffffffffffffff\n      and\n        /* \"contracts/TaskManagement.sol\":2933:2937  dids */\n      0x01\n        /* \"contracts/TaskManagement.sol\":2933:2949  dids[msg.sender] */\n      0x00\n        /* \"contracts/TaskManagement.sol\":2938:2948  msg.sender */\n      caller\n        /* \"contracts/TaskManagement.sol\":2933:2949  dids[msg.sender] */\n      0xffffffffffffffffffffffffffffffffffffffff\n      and\n      0xffffffffffffffffffffffffffffffffffffffff\n      and\n      dup2\n      mstore\n      0x20\n      add\n      swap1\n      dup2\n      mstore\n      0x20\n      add\n      0x00\n      keccak256\n        /* \"contracts/TaskManagement.sol\":2933:2955  dids[msg.sender].owner */\n      0x01\n      add\n      0x00\n      swap1\n      sload\n      swap1\n      0x0100\n      exp\n      swap1\n      div\n      0xffffffffffffffffffffffffffffffffffffffff\n      and\n        /* \"contracts/TaskManagement.sol\":2933:2969  dids[msg.sender].owner != address(0) */\n      0xffffffffffffffffffffffffffffffffffffffff\n      and\n      sub\n        /* \"contracts/TaskManagement.sol\":2925:3012  require(dids[msg.sender].owner != address(0), \"No existing DID found for this address\") */\n      tag_187\n      jumpi\n      mload(0x40)\n      0x08c379a000000000000000000000000000000000000000000000000000000000\n      dup2\n      mstore\n      0x04\n      add\n      tag_188\n      swap1\n      tag_73\n      jump\t// in\n    tag_188:\n      mload(0x40)\n      dup1\n      swap2\n      sub\n      swap1\n      revert\n    tag_187:\n        /* \"contracts/TaskManagement.sol\":3053:3054  0 */\n      0x00\n        /* \"contracts/TaskManagement.sol\":3037:3042  _role */\n      dup2\n        /* \"contracts/TaskManagement.sol\":3031:3050  bytes(_role).length */\n      mload\n        /* \"contracts/TaskManagement.sol\":3031:3054  bytes(_role).length > 0 */\n      gt\n        /* \"contracts/TaskManagement.sol\":3023:3079  require(bytes(_role).length > 0, \"Role cannot be empty\") */\n      tag_189\n      jumpi\n      mload(0x40)\n      0x08c379a000000000000000000000000000000000000000000000000000000000\n      dup2\n      mstore\n      0x04\n      add\n      tag_190\n      swap1\n      tag_76\n      jump\t// in\n    tag_190:\n      mload(0x40)\n      dup1\n      swap2\n      sub\n      swap1\n      revert\n    tag_189:\n        /* \"contracts/TaskManagement.sol\":3107:3112  _role */\n      dup1\n        /* \"contracts/TaskManagement.sol\":3092:3097  roles */\n      0x02\n        /* \"contracts/TaskManagement.sol\":3092:3104  roles[_user] */\n      0x00\n        /* \"contracts/TaskManagement.sol\":3098:3103  _user */\n      dup5\n        /* \"contracts/TaskManagement.sol\":3092:3104  roles[_user] */\n      0xffffffffffffffffffffffffffffffffffffffff\n      and\n      0xffffffffffffffffffffffffffffffffffffffff\n      and\n      dup2\n      mstore\n      0x20\n      add\n      swap1\n      dup2\n      mstore\n      0x20\n      add\n      0x00\n      keccak256\n        /* \"contracts/TaskManagement.sol\":3092:3112  roles[_user] = _role */\n      swap1\n      dup2\n      tag_191\n      swap2\n      swap1\n      tag_81\n      jump\t// in\n    tag_191:\n      pop\n        /* \"contracts/TaskManagement.sol\":3123:3134  roleHistory */\n      0x03\n        /* \"contracts/TaskManagement.sol\":3123:3141  roleHistory[_user] */\n      0x00\n        /* \"contracts/TaskManagement.sol\":3135:3140  _user */\n      dup4\n        /* \"contracts/TaskManagement.sol\":3123:3141  roleHistory[_user] */\n      0xffffffffffffffffffffffffffffffffffffffff\n      and\n      0xffffffffffffffffffffffffffffffffffffffff\n      and\n      dup2\n      mstore\n      0x20\n      add\n      swap1\n      dup2\n      mstore\n      0x20\n      add\n      0x00\n      keccak256\n        /* \"contracts/TaskManagement.sol\":3147:3152  _role */\n      dup2\n        /* \"contracts/TaskManagement.sol\":3123:3153  roleHistory[_user].push(_role) */\n      swap1\n      dup1\n      0x01\n      dup2\n      sload\n      add\n      dup1\n      dup3\n      sstore\n      dup1\n      swap2\n      pop\n      pop\n      0x01\n      swap1\n      sub\n      swap1\n      0x00\n      mstore\n      keccak256(0x00, 0x20)\n      add\n      0x00\n      swap1\n      swap2\n      swap1\n      swap2\n      swap1\n      swap2\n      pop\n      swap1\n      dup2\n      tag_193\n      swap2\n      swap1\n      tag_81\n      jump\t// in\n    tag_193:\n      pop\n        /* \"contracts/TaskManagement.sol\":3184:3189  _user */\n      dup2\n        /* \"contracts/TaskManagement.sol\":3171:3197  RoleAssigned(_user, _role) */\n      0xffffffffffffffffffffffffffffffffffffffff\n      and\n      0x3565795c2fb8842c21347d277937778bbcfe788b5b4f790fc5e408786cbe9c90\n        /* \"contracts/TaskManagement.sol\":3191:3196  _role */\n      dup3\n        /* \"contracts/TaskManagement.sol\":3171:3197  RoleAssigned(_user, _role) */\n      mload(0x40)\n      tag_194\n      swap2\n      swap1\n      tag_56\n      jump\t// in\n    tag_194:\n      mload(0x40)\n      dup1\n      swap2\n      sub\n      swap1\n      log2\n        /* \"contracts/TaskManagement.sol\":2839:3261  function assignRole(address _user, string memory _role) onlyManager public {... */\n      pop\n      pop\n      jump\t// out\n        /* \"contracts/TaskManagement.sol\":1865:2061  function getDID() public view returns (string memory) {... */\n    tag_54:\n        /* \"contracts/TaskManagement.sol\":1904:1917  string memory */\n      0x60\n        /* \"contracts/TaskManagement.sol\":1972:1973  0 */\n      0x00\n        /* \"contracts/TaskManagement.sol\":1938:1974  dids[msg.sender].owner != address(0) */\n      0xffffffffffffffffffffffffffffffffffffffff\n      and\n        /* \"contracts/TaskManagement.sol\":1938:1942  dids */\n      0x01\n        /* \"contracts/TaskManagement.sol\":1938:1954  dids[msg.sender] */\n      0x00\n        /* \"contracts/TaskManagement.sol\":1943:1953  msg.sender */\n      caller\n        /* \"contracts/TaskManagement.sol\":1938:1954  dids[msg.sender] */\n      0xffffffffffffffffffffffffffffffffffffffff\n      and\n      0xffffffffffffffffffffffffffffffffffffffff\n      and\n      dup2\n      mstore\n      0x20\n      add\n      swap1\n      dup2\n      mstore\n      0x20\n      add\n      0x00\n      keccak256\n        /* \"contracts/TaskManagement.sol\":1938:1960  dids[msg.sender].owner */\n      0x01\n      add\n      0x00\n      swap1\n      sload\n      swap1\n      0x0100\n      exp\n      swap1\n      div\n      0xffffffffffffffffffffffffffffffffffffffff\n      and\n        /* \"contracts/TaskManagement.sol\":1938:1974  dids[msg.sender].owner != address(0) */\n      0xffffffffffffffffffffffffffffffffffffffff\n      and\n      sub\n        /* \"contracts/TaskManagement.sol\":1930:2008  require(dids[msg.sender].owner != address(0), \"No DID found for this address\") */\n      tag_196\n      jumpi\n      mload(0x40)\n      0x08c379a000000000000000000000000000000000000000000000000000000000\n      dup2\n      mstore\n      0x04\n      add\n      tag_197\n      swap1\n      tag_198\n      jump\t// in\n    tag_197:\n      mload(0x40)\n      dup1\n      swap2\n      sub\n      swap1\n      revert\n    tag_196:\n        /* \"contracts/TaskManagement.sol\":2026:2030  dids */\n      0x01\n        /* \"contracts/TaskManagement.sol\":2026:2042  dids[msg.sender] */\n      0x00\n        /* \"contracts/TaskManagement.sol\":2031:2041  msg.sender */\n      caller\n        /* \"contracts/TaskManagement.sol\":2026:2042  dids[msg.sender] */\n      0xffffffffffffffffffffffffffffffffffffffff\n      and\n      0xffffffffffffffffffffffffffffffffffffffff\n      and\n      dup2\n      mstore\n      0x20\n      add\n      swap1\n      dup2\n      mstore\n      0x20\n      add\n      0x00\n      keccak256\n        /* \"contracts/TaskManagement.sol\":2026:2053  dids[msg.sender].identifier */\n      0x00\n      add\n        /* \"contracts/TaskManagement.sol\":2019:2053  return dids[msg.sender].identifier */\n      dup1\n      sload\n      tag_199\n      swap1\n      tag_102\n      jump\t// in\n    tag_199:\n      dup1\n      0x1f\n      add\n      0x20\n      dup1\n      swap2\n      div\n      mul\n      0x20\n      add\n      mload(0x40)\n      swap1\n      dup2\n      add\n      0x40\n      mstore\n      dup1\n      swap3\n      swap2\n      swap1\n      dup2\n      dup2\n      mstore\n      0x20\n      add\n      dup3\n      dup1\n      sload\n      tag_200\n      swap1\n      tag_102\n      jump\t// in\n    tag_200:\n      dup1\n      iszero\n      tag_201\n      jumpi\n      dup1\n      0x1f\n      lt\n      tag_202\n      jumpi\n      0x0100\n      dup1\n      dup4\n      sload\n      div\n      mul\n      dup4\n      mstore\n      swap2\n      0x20\n      add\n      swap2\n      jump(tag_201)\n    tag_202:\n      dup3\n      add\n      swap2\n      swap1\n      0x00\n      mstore\n      keccak256(0x00, 0x20)\n      swap1\n    tag_203:\n      dup2\n      sload\n      dup2\n      mstore\n      swap1\n      0x01\n      add\n      swap1\n      0x20\n      add\n      dup1\n      dup4\n      gt\n      tag_203\n      jumpi\n      dup3\n      swap1\n      sub\n      0x1f\n      and\n      dup3\n      add\n      swap2\n    tag_201:\n      pop\n      pop\n      pop\n      pop\n      pop\n      swap1\n      pop\n        /* \"contracts/TaskManagement.sol\":1865:2061  function getDID() public view returns (string memory) {... */\n      swap1\n      jump\t// out\n        /* \"contracts/TaskManagement.sol\":6436:6988  function completeTask(uint _taskId) public {... */\n    tag_59:\n        /* \"contracts/TaskManagement.sol\":6532:6533  0 */\n      0x00\n        /* \"contracts/TaskManagement.sol\":6498:6534  dids[msg.sender].owner == address(0) */\n      0xffffffffffffffffffffffffffffffffffffffff\n      and\n        /* \"contracts/TaskManagement.sol\":6498:6502  dids */\n      0x01\n        /* \"contracts/TaskManagement.sol\":6498:6514  dids[msg.sender] */\n      0x00\n        /* \"contracts/TaskManagement.sol\":6503:6513  msg.sender */\n      caller\n        /* \"contracts/TaskManagement.sol\":6498:6514  dids[msg.sender] */\n      0xffffffffffffffffffffffffffffffffffffffff\n      and\n      0xffffffffffffffffffffffffffffffffffffffff\n      and\n      dup2\n      mstore\n      0x20\n      add\n      swap1\n      dup2\n      mstore\n      0x20\n      add\n      0x00\n      keccak256\n        /* \"contracts/TaskManagement.sol\":6498:6520  dids[msg.sender].owner */\n      0x01\n      add\n      0x00\n      swap1\n      sload\n      swap1\n      0x0100\n      exp\n      swap1\n      div\n      0xffffffffffffffffffffffffffffffffffffffff\n      and\n        /* \"contracts/TaskManagement.sol\":6498:6534  dids[msg.sender].owner == address(0) */\n      0xffffffffffffffffffffffffffffffffffffffff\n      and\n      eq\n        /* \"contracts/TaskManagement.sol\":6490:6574  require(dids[msg.sender].owner == address(0), \"DID already exists for this address\") */\n      tag_205\n      jumpi\n      mload(0x40)\n      0x08c379a000000000000000000000000000000000000000000000000000000000\n      dup2\n      mstore\n      0x04\n      add\n      tag_206\n      swap1\n      tag_89\n      jump\t// in\n    tag_206:\n      mload(0x40)\n      dup1\n      swap2\n      sub\n      swap1\n      revert\n    tag_205:\n        /* \"contracts/TaskManagement.sol\":6623:6640  Task storage task */\n      0x00\n        /* \"contracts/TaskManagement.sol\":6643:6648  tasks */\n      0x05\n        /* \"contracts/TaskManagement.sol\":6643:6657  tasks[_taskId] */\n      0x00\n        /* \"contracts/TaskManagement.sol\":6649:6656  _taskId */\n      dup4\n        /* \"contracts/TaskManagement.sol\":6643:6657  tasks[_taskId] */\n      dup2\n      mstore\n      0x20\n      add\n      swap1\n      dup2\n      mstore\n      0x20\n      add\n      0x00\n      keccak256\n        /* \"contracts/TaskManagement.sol\":6623:6657  Task storage task = tasks[_taskId] */\n      swap1\n      pop\n        /* \"contracts/TaskManagement.sol\":6690:6694  task */\n      dup1\n        /* \"contracts/TaskManagement.sol\":6690:6705  task.assignedTo */\n      0x05\n      add\n      0x00\n      swap1\n      sload\n      swap1\n      0x0100\n      exp\n      swap1\n      div\n      0xffffffffffffffffffffffffffffffffffffffff\n      and\n        /* \"contracts/TaskManagement.sol\":6676:6705  msg.sender == task.assignedTo */\n      0xffffffffffffffffffffffffffffffffffffffff\n      and\n        /* \"contracts/TaskManagement.sol\":6676:6686  msg.sender */\n      caller\n        /* \"contracts/TaskManagement.sol\":6676:6705  msg.sender == task.assignedTo */\n      0xffffffffffffffffffffffffffffffffffffffff\n      and\n      eq\n        /* \"contracts/TaskManagement.sol\":6668:6724  require(msg.sender == task.assignedTo, \"Not authorized\") */\n      tag_207\n      jumpi\n      mload(0x40)\n      0x08c379a000000000000000000000000000000000000000000000000000000000\n      dup2\n      mstore\n      0x04\n      add\n      tag_208\n      swap1\n      tag_153\n      jump\t// in\n    tag_208:\n      mload(0x40)\n      dup1\n      swap2\n      sub\n      swap1\n      revert\n    tag_207:\n        /* \"contracts/TaskManagement.sol\":6744:6748  task */\n      dup1\n        /* \"contracts/TaskManagement.sol\":6744:6760  task.isCompleted */\n      0x05\n      add\n      0x14\n      swap1\n      sload\n      swap1\n      0x0100\n      exp\n      swap1\n      div\n      0xff\n      and\n        /* \"contracts/TaskManagement.sol\":6743:6760  !task.isCompleted */\n      iszero\n        /* \"contracts/TaskManagement.sol\":6735:6787  require(!task.isCompleted, \"Task already completed\") */\n      tag_209\n      jumpi\n      mload(0x40)\n      0x08c379a000000000000000000000000000000000000000000000000000000000\n      dup2\n      mstore\n      0x04\n      add\n      tag_210\n      swap1\n      tag_211\n      jump\t// in\n    tag_210:\n      mload(0x40)\n      dup1\n      swap2\n      sub\n      swap1\n      revert\n    tag_209:\n        /* \"contracts/TaskManagement.sol\":6874:6878  true */\n      0x01\n        /* \"contracts/TaskManagement.sol\":6855:6859  task */\n      dup2\n        /* \"contracts/TaskManagement.sol\":6855:6871  task.isCompleted */\n      0x05\n      add\n      0x14\n        /* \"contracts/TaskManagement.sol\":6855:6878  task.isCompleted = true */\n      0x0100\n      exp\n      dup2\n      sload\n      dup2\n      0xff\n      mul\n      not\n      and\n      swap1\n      dup4\n      iszero\n      iszero\n      mul\n      or\n      swap1\n      sstore\n      pop\n        /* \"contracts/TaskManagement.sol\":6908:6923  block.timestamp */\n      timestamp\n        /* \"contracts/TaskManagement.sol\":6889:6893  task */\n      dup2\n        /* \"contracts/TaskManagement.sol\":6889:6905  task.completedAt */\n      0x06\n      add\n        /* \"contracts/TaskManagement.sol\":6889:6923  task.completedAt = block.timestamp */\n      dup2\n      swap1\n      sstore\n      pop\n        /* \"contracts/TaskManagement.sol\":6955:6959  task */\n      dup1\n        /* \"contracts/TaskManagement.sol\":6955:6970  task.assignedTo */\n      0x05\n      add\n      0x00\n      swap1\n      sload\n      swap1\n      0x0100\n      exp\n      swap1\n      div\n      0xffffffffffffffffffffffffffffffffffffffff\n      and\n        /* \"contracts/TaskManagement.sol\":6941:6980  TaskCompleted(task.assignedTo, task.id) */\n      0xffffffffffffffffffffffffffffffffffffffff\n      and\n      0xf684d89bb0f42287bf32838774e4b7f8a60c11804b3c6d1791fa55f306792643\n        /* \"contracts/TaskManagement.sol\":6972:6976  task */\n      dup3\n        /* \"contracts/TaskManagement.sol\":6972:6979  task.id */\n      0x00\n      add\n      sload\n        /* \"contracts/TaskManagement.sol\":6941:6980  TaskCompleted(task.assignedTo, task.id) */\n      mload(0x40)\n      tag_212\n      swap2\n      swap1\n      tag_44\n      jump\t// in\n    tag_212:\n      mload(0x40)\n      dup1\n      swap2\n      sub\n      swap1\n      log2\n        /* \"contracts/TaskManagement.sol\":6479:6988  {... */\n      pop\n        /* \"contracts/TaskManagement.sol\":6436:6988  function completeTask(uint _taskId) public {... */\n      pop\n      jump\t// out\n        /* \"contracts/TaskManagement.sol\":4391:4872  function getRole() public view returns (string[] memory) {... */\n    tag_61:\n        /* \"contracts/TaskManagement.sol\":4431:4446  string[] memory */\n      0x60\n        /* \"contracts/TaskManagement.sol\":4501:4502  0 */\n      0x00\n        /* \"contracts/TaskManagement.sol\":4467:4503  dids[msg.sender].owner != address(0) */\n      0xffffffffffffffffffffffffffffffffffffffff\n      and\n        /* \"contracts/TaskManagement.sol\":4467:4471  dids */\n      0x01\n        /* \"contracts/TaskManagement.sol\":4467:4483  dids[msg.sender] */\n      0x00\n        /* \"contracts/TaskManagement.sol\":4472:4482  msg.sender */\n      caller\n        /* \"contracts/TaskManagement.sol\":4467:4483  dids[msg.sender] */\n      0xffffffffffffffffffffffffffffffffffffffff\n      and\n      0xffffffffffffffffffffffffffffffffffffffff\n      and\n      dup2\n      mstore\n      0x20\n      add\n      swap1\n      dup2\n      mstore\n      0x20\n      add\n      0x00\n      keccak256\n        /* \"contracts/TaskManagement.sol\":4467:4489  dids[msg.sender].owner */\n      0x01\n      add\n      0x00\n      swap1\n      sload\n      swap1\n      0x0100\n      exp\n      swap1\n      div\n      0xffffffffffffffffffffffffffffffffffffffff\n      and\n        /* \"contracts/TaskManagement.sol\":4467:4503  dids[msg.sender].owner != address(0) */\n      0xffffffffffffffffffffffffffffffffffffffff\n      and\n      sub\n        /* \"contracts/TaskManagement.sol\":4459:4546  require(dids[msg.sender].owner != address(0), \"No existing DID found for this address\") */\n      tag_214\n      jumpi\n      mload(0x40)\n      0x08c379a000000000000000000000000000000000000000000000000000000000\n      dup2\n      mstore\n      0x04\n      add\n      tag_215\n      swap1\n      tag_73\n      jump\t// in\n    tag_215:\n      mload(0x40)\n      dup1\n      swap2\n      sub\n      swap1\n      revert\n    tag_214:\n        /* \"contracts/TaskManagement.sol\":4592:4617  string[] memory userRoles */\n      0x00\n        /* \"contracts/TaskManagement.sol\":4620:4631  roleHistory */\n      0x03\n        /* \"contracts/TaskManagement.sol\":4620:4643  roleHistory[msg.sender] */\n      0x00\n        /* \"contracts/TaskManagement.sol\":4632:4642  msg.sender */\n      caller\n        /* \"contracts/TaskManagement.sol\":4620:4643  roleHistory[msg.sender] */\n      0xffffffffffffffffffffffffffffffffffffffff\n      and\n      0xffffffffffffffffffffffffffffffffffffffff\n      and\n      dup2\n      mstore\n      0x20\n      add\n      swap1\n      dup2\n      mstore\n      0x20\n      add\n      0x00\n      keccak256\n        /* \"contracts/TaskManagement.sol\":4592:4643  string[] memory userRoles = roleHistory[msg.sender] */\n      dup1\n      sload\n      dup1\n      0x20\n      mul\n      0x20\n      add\n      mload(0x40)\n      swap1\n      dup2\n      add\n      0x40\n      mstore\n      dup1\n      swap3\n      swap2\n      swap1\n      dup2\n      dup2\n      mstore\n      0x20\n      add\n      0x00\n      swap1\n    tag_216:\n      dup3\n      dup3\n      lt\n      iszero\n      tag_217\n      jumpi\n      dup4\n      dup3\n      swap1\n      0x00\n      mstore\n      keccak256(0x00, 0x20)\n      add\n      dup1\n      sload\n      tag_219\n      swap1\n      tag_102\n      jump\t// in\n    tag_219:\n      dup1\n      0x1f\n      add\n      0x20\n      dup1\n      swap2\n      div\n      mul\n      0x20\n      add\n      mload(0x40)\n      swap1\n      dup2\n      add\n      0x40\n      mstore\n      dup1\n      swap3\n      swap2\n      swap1\n      dup2\n      dup2\n      mstore\n      0x20\n      add\n      dup3\n      dup1\n      sload\n      tag_220\n      swap1\n      tag_102\n      jump\t// in\n    tag_220:\n      dup1\n      iszero\n      tag_221\n      jumpi\n      dup1\n      0x1f\n      lt\n      tag_222\n      jumpi\n      0x0100\n      dup1\n      dup4\n      sload\n      div\n      mul\n      dup4\n      mstore\n      swap2\n      0x20\n      add\n      swap2\n      jump(tag_221)\n    tag_222:\n      dup3\n      add\n      swap2\n      swap1\n      0x00\n      mstore\n      keccak256(0x00, 0x20)\n      swap1\n    tag_223:\n      dup2\n      sload\n      dup2\n      mstore\n      swap1\n      0x01\n      add\n      swap1\n      0x20\n      add\n      dup1\n      dup4\n      gt\n      tag_223\n      jumpi\n      dup3\n      swap1\n      sub\n      0x1f\n      and\n      dup3\n      add\n      swap2\n    tag_221:\n      pop\n      pop\n      pop\n      pop\n      pop\n      dup2\n      mstore\n      0x20\n      add\n      swap1\n      0x01\n      add\n      swap1\n      jump(tag_216)\n    tag_217:\n      pop\n      pop\n      pop\n      pop\n      swap1\n      pop\n        /* \"contracts/TaskManagement.sol\":4745:4746  0 */\n      0x00\n        /* \"contracts/TaskManagement.sol\":4726:4735  userRoles */\n      dup2\n        /* \"contracts/TaskManagement.sol\":4726:4742  userRoles.length */\n      mload\n        /* \"contracts/TaskManagement.sol\":4726:4746  userRoles.length > 0 */\n      gt\n        /* \"contracts/TaskManagement.sol\":4718:4782  require(userRoles.length > 0, \"No roles assigned for this user\") */\n      tag_224\n      jumpi\n      mload(0x40)\n      0x08c379a000000000000000000000000000000000000000000000000000000000\n      dup2\n      mstore\n      0x04\n      add\n      tag_225\n      swap1\n      tag_226\n      jump\t// in\n    tag_225:\n      mload(0x40)\n      dup1\n      swap2\n      sub\n      swap1\n      revert\n    tag_224:\n        /* \"contracts/TaskManagement.sol\":4855:4864  userRoles */\n      dup1\n        /* \"contracts/TaskManagement.sol\":4848:4864  return userRoles */\n      swap2\n      pop\n      pop\n        /* \"contracts/TaskManagement.sol\":4391:4872  function getRole() public view returns (string[] memory) {... */\n      swap1\n      jump\t// out\n    tag_96:\n      mload(0x40)\n      dup1\n      0x0100\n      add\n      0x40\n      mstore\n      dup1\n      0x00\n      dup2\n      mstore\n      0x20\n      add\n      0x60\n      dup2\n      mstore\n      0x20\n      add\n      0x60\n      dup2\n      mstore\n      0x20\n      add\n      0x00\n      dup2\n      mstore\n      0x20\n      add\n      0x00\n      dup2\n      mstore\n      0x20\n      add\n      and(0xffffffffffffffffffffffffffffffffffffffff, 0x00)\n      dup2\n      mstore\n      0x20\n      add\n      iszero(iszero(0x00))\n      dup2\n      mstore\n      0x20\n      add\n      0x00\n      dup2\n      mstore\n      pop\n      swap1\n      jump\t// out\n        /* \"#utility.yul\":7:82   */\n    tag_227:\n        /* \"#utility.yul\":40:46   */\n      0x00\n        /* \"#utility.yul\":73:75   */\n      0x40\n        /* \"#utility.yul\":67:76   */\n      mload\n        /* \"#utility.yul\":57:76   */\n      swap1\n      pop\n        /* \"#utility.yul\":7:82   */\n      swap1\n      jump\t// out\n        /* \"#utility.yul\":88:205   */\n    tag_228:\n        /* \"#utility.yul\":197:198   */\n      0x00\n        /* \"#utility.yul\":194:195   */\n      dup1\n        /* \"#utility.yul\":187:199   */\n      revert\n        /* \"#utility.yul\":211:328   */\n    tag_229:\n        /* \"#utility.yul\":320:321   */\n      0x00\n        /* \"#utility.yul\":317:318   */\n      dup1\n        /* \"#utility.yul\":310:322   */\n      revert\n        /* \"#utility.yul\":334:460   */\n    tag_230:\n        /* \"#utility.yul\":371:378   */\n      0x00\n        /* \"#utility.yul\":411:453   */\n      0xffffffffffffffffffffffffffffffffffffffff\n        /* \"#utility.yul\":404:409   */\n      dup3\n        /* \"#utility.yul\":400:454   */\n      and\n        /* \"#utility.yul\":389:454   */\n      swap1\n      pop\n        /* \"#utility.yul\":334:460   */\n      swap2\n      swap1\n      pop\n      jump\t// out\n        /* \"#utility.yul\":466:562   */\n    tag_231:\n        /* \"#utility.yul\":503:510   */\n      0x00\n        /* \"#utility.yul\":532:556   */\n      tag_335\n        /* \"#utility.yul\":550:555   */\n      dup3\n        /* \"#utility.yul\":532:556   */\n      tag_230\n      jump\t// in\n    tag_335:\n        /* \"#utility.yul\":521:556   */\n      swap1\n      pop\n        /* \"#utility.yul\":466:562   */\n      swap2\n      swap1\n      pop\n      jump\t// out\n        /* \"#utility.yul\":568:690   */\n    tag_232:\n        /* \"#utility.yul\":641:665   */\n      tag_337\n        /* \"#utility.yul\":659:664   */\n      dup2\n        /* \"#utility.yul\":641:665   */\n      tag_231\n      jump\t// in\n    tag_337:\n        /* \"#utility.yul\":634:639   */\n      dup2\n        /* \"#utility.yul\":631:666   */\n      eq\n        /* \"#utility.yul\":621:684   */\n      tag_338\n      jumpi\n        /* \"#utility.yul\":680:681   */\n      0x00\n        /* \"#utility.yul\":677:678   */\n      dup1\n        /* \"#utility.yul\":670:682   */\n      revert\n        /* \"#utility.yul\":621:684   */\n    tag_338:\n        /* \"#utility.yul\":568:690   */\n      pop\n      jump\t// out\n        /* \"#utility.yul\":696:835   */\n    tag_233:\n        /* \"#utility.yul\":742:747   */\n      0x00\n        /* \"#utility.yul\":780:786   */\n      dup2\n        /* \"#utility.yul\":767:787   */\n      calldataload\n        /* \"#utility.yul\":758:787   */\n      swap1\n      pop\n        /* \"#utility.yul\":796:829   */\n      tag_340\n        /* \"#utility.yul\":823:828   */\n      dup2\n        /* \"#utility.yul\":796:829   */\n      tag_232\n      jump\t// in\n    tag_340:\n        /* \"#utility.yul\":696:835   */\n      swap3\n      swap2\n      pop\n      pop\n      jump\t// out\n        /* \"#utility.yul\":841:958   */\n    tag_234:\n        /* \"#utility.yul\":950:951   */\n      0x00\n        /* \"#utility.yul\":947:948   */\n      dup1\n        /* \"#utility.yul\":940:952   */\n      revert\n        /* \"#utility.yul\":964:1081   */\n    tag_235:\n        /* \"#utility.yul\":1073:1074   */\n      0x00\n        /* \"#utility.yul\":1070:1071   */\n      dup1\n        /* \"#utility.yul\":1063:1075   */\n      revert\n        /* \"#utility.yul\":1087:1189   */\n    tag_236:\n        /* \"#utility.yul\":1128:1134   */\n      0x00\n        /* \"#utility.yul\":1179:1181   */\n      0x1f\n        /* \"#utility.yul\":1175:1182   */\n      not\n        /* \"#utility.yul\":1170:1172   */\n      0x1f\n        /* \"#utility.yul\":1163:1168   */\n      dup4\n        /* \"#utility.yul\":1159:1173   */\n      add\n        /* \"#utility.yul\":1155:1183   */\n      and\n        /* \"#utility.yul\":1145:1183   */\n      swap1\n      pop\n        /* \"#utility.yul\":1087:1189   */\n      swap2\n      swap1\n      pop\n      jump\t// out\n        /* \"#utility.yul\":1195:1375   */\n    tag_92:\n        /* \"#utility.yul\":1243:1320   */\n      0x4e487b7100000000000000000000000000000000000000000000000000000000\n        /* \"#utility.yul\":1240:1241   */\n      0x00\n        /* \"#utility.yul\":1233:1321   */\n      mstore\n        /* \"#utility.yul\":1340:1344   */\n      0x41\n        /* \"#utility.yul\":1337:1338   */\n      0x04\n        /* \"#utility.yul\":1330:1345   */\n      mstore\n        /* \"#utility.yul\":1364:1368   */\n      0x24\n        /* \"#utility.yul\":1361:1362   */\n      0x00\n        /* \"#utility.yul\":1354:1369   */\n      revert\n        /* \"#utility.yul\":1381:1662   */\n    tag_237:\n        /* \"#utility.yul\":1464:1491   */\n      tag_346\n        /* \"#utility.yul\":1486:1490   */\n      dup3\n        /* \"#utility.yul\":1464:1491   */\n      tag_236\n      jump\t// in\n    tag_346:\n        /* \"#utility.yul\":1456:1462   */\n      dup2\n        /* \"#utility.yul\":1452:1492   */\n      add\n        /* \"#utility.yul\":1594:1600   */\n      dup2\n        /* \"#utility.yul\":1582:1592   */\n      dup2\n        /* \"#utility.yul\":1579:1601   */\n      lt\n        /* \"#utility.yul\":1558:1576   */\n      0xffffffffffffffff\n        /* \"#utility.yul\":1546:1556   */\n      dup3\n        /* \"#utility.yul\":1543:1577   */\n      gt\n        /* \"#utility.yul\":1540:1602   */\n      or\n        /* \"#utility.yul\":1537:1625   */\n      iszero\n      tag_347\n      jumpi\n        /* \"#utility.yul\":1605:1623   */\n      tag_348\n      tag_92\n      jump\t// in\n    tag_348:\n        /* \"#utility.yul\":1537:1625   */\n    tag_347:\n        /* \"#utility.yul\":1645:1655   */\n      dup1\n        /* \"#utility.yul\":1641:1643   */\n      0x40\n        /* \"#utility.yul\":1634:1656   */\n      mstore\n        /* \"#utility.yul\":1424:1662   */\n      pop\n        /* \"#utility.yul\":1381:1662   */\n      pop\n      pop\n      jump\t// out\n        /* \"#utility.yul\":1668:1797   */\n    tag_238:\n        /* \"#utility.yul\":1702:1708   */\n      0x00\n        /* \"#utility.yul\":1729:1749   */\n      tag_350\n      tag_227\n      jump\t// in\n    tag_350:\n        /* \"#utility.yul\":1719:1749   */\n      swap1\n      pop\n        /* \"#utility.yul\":1758:1791   */\n      tag_351\n        /* \"#utility.yul\":1786:1790   */\n      dup3\n        /* \"#utility.yul\":1778:1784   */\n      dup3\n        /* \"#utility.yul\":1758:1791   */\n      tag_237\n      jump\t// in\n    tag_351:\n        /* \"#utility.yul\":1668:1797   */\n      swap2\n      swap1\n      pop\n      jump\t// out\n        /* \"#utility.yul\":1803:2111   */\n    tag_239:\n        /* \"#utility.yul\":1865:1869   */\n      0x00\n        /* \"#utility.yul\":1955:1973   */\n      0xffffffffffffffff\n        /* \"#utility.yul\":1947:1953   */\n      dup3\n        /* \"#utility.yul\":1944:1974   */\n      gt\n        /* \"#utility.yul\":1941:1997   */\n      iszero\n      tag_353\n      jumpi\n        /* \"#utility.yul\":1977:1995   */\n      tag_354\n      tag_92\n      jump\t// in\n    tag_354:\n        /* \"#utility.yul\":1941:1997   */\n    tag_353:\n        /* \"#utility.yul\":2015:2044   */\n      tag_355\n        /* \"#utility.yul\":2037:2043   */\n      dup3\n        /* \"#utility.yul\":2015:2044   */\n      tag_236\n      jump\t// in\n    tag_355:\n        /* \"#utility.yul\":2007:2044   */\n      swap1\n      pop\n        /* \"#utility.yul\":2099:2103   */\n      0x20\n        /* \"#utility.yul\":2093:2097   */\n      dup2\n        /* \"#utility.yul\":2089:2104   */\n      add\n        /* \"#utility.yul\":2081:2104   */\n      swap1\n      pop\n        /* \"#utility.yul\":1803:2111   */\n      swap2\n      swap1\n      pop\n      jump\t// out\n        /* \"#utility.yul\":2117:2265   */\n    tag_240:\n        /* \"#utility.yul\":2215:2221   */\n      dup3\n        /* \"#utility.yul\":2210:2213   */\n      dup2\n        /* \"#utility.yul\":2205:2208   */\n      dup4\n        /* \"#utility.yul\":2192:2222   */\n      calldatacopy\n        /* \"#utility.yul\":2256:2257   */\n      0x00\n        /* \"#utility.yul\":2247:2253   */\n      dup4\n        /* \"#utility.yul\":2242:2245   */\n      dup4\n        /* \"#utility.yul\":2238:2254   */\n      add\n        /* \"#utility.yul\":2231:2258   */\n      mstore\n        /* \"#utility.yul\":2117:2265   */\n      pop\n      pop\n      pop\n      jump\t// out\n        /* \"#utility.yul\":2271:2696   */\n    tag_241:\n        /* \"#utility.yul\":2349:2354   */\n      0x00\n        /* \"#utility.yul\":2374:2440   */\n      tag_358\n        /* \"#utility.yul\":2390:2439   */\n      tag_359\n        /* \"#utility.yul\":2432:2438   */\n      dup5\n        /* \"#utility.yul\":2390:2439   */\n      tag_239\n      jump\t// in\n    tag_359:\n        /* \"#utility.yul\":2374:2440   */\n      tag_238\n      jump\t// in\n    tag_358:\n        /* \"#utility.yul\":2365:2440   */\n      swap1\n      pop\n        /* \"#utility.yul\":2463:2469   */\n      dup3\n        /* \"#utility.yul\":2456:2461   */\n      dup2\n        /* \"#utility.yul\":2449:2470   */\n      mstore\n        /* \"#utility.yul\":2501:2505   */\n      0x20\n        /* \"#utility.yul\":2494:2499   */\n      dup2\n        /* \"#utility.yul\":2490:2506   */\n      add\n        /* \"#utility.yul\":2539:2542   */\n      dup5\n        /* \"#utility.yul\":2530:2536   */\n      dup5\n        /* \"#utility.yul\":2525:2528   */\n      dup5\n        /* \"#utility.yul\":2521:2537   */\n      add\n        /* \"#utility.yul\":2518:2543   */\n      gt\n        /* \"#utility.yul\":2515:2627   */\n      iszero\n      tag_360\n      jumpi\n        /* \"#utility.yul\":2546:2625   */\n      tag_361\n      tag_235\n      jump\t// in\n    tag_361:\n        /* \"#utility.yul\":2515:2627   */\n    tag_360:\n        /* \"#utility.yul\":2636:2690   */\n      tag_362\n        /* \"#utility.yul\":2683:2689   */\n      dup5\n        /* \"#utility.yul\":2678:2681   */\n      dup3\n        /* \"#utility.yul\":2673:2676   */\n      dup6\n        /* \"#utility.yul\":2636:2690   */\n      tag_240\n      jump\t// in\n    tag_362:\n        /* \"#utility.yul\":2355:2696   */\n      pop\n        /* \"#utility.yul\":2271:2696   */\n      swap4\n      swap3\n      pop\n      pop\n      pop\n      jump\t// out\n        /* \"#utility.yul\":2716:3056   */\n    tag_242:\n        /* \"#utility.yul\":2772:2777   */\n      0x00\n        /* \"#utility.yul\":2821:2824   */\n      dup3\n        /* \"#utility.yul\":2814:2818   */\n      0x1f\n        /* \"#utility.yul\":2806:2812   */\n      dup4\n        /* \"#utility.yul\":2802:2819   */\n      add\n        /* \"#utility.yul\":2798:2825   */\n      slt\n        /* \"#utility.yul\":2788:2910   */\n      tag_364\n      jumpi\n        /* \"#utility.yul\":2829:2908   */\n      tag_365\n      tag_234\n      jump\t// in\n    tag_365:\n        /* \"#utility.yul\":2788:2910   */\n    tag_364:\n        /* \"#utility.yul\":2946:2952   */\n      dup2\n        /* \"#utility.yul\":2933:2953   */\n      calldataload\n        /* \"#utility.yul\":2971:3050   */\n      tag_366\n        /* \"#utility.yul\":3046:3049   */\n      dup5\n        /* \"#utility.yul\":3038:3044   */\n      dup3\n        /* \"#utility.yul\":3031:3035   */\n      0x20\n        /* \"#utility.yul\":3023:3029   */\n      dup7\n        /* \"#utility.yul\":3019:3036   */\n      add\n        /* \"#utility.yul\":2971:3050   */\n      tag_241\n      jump\t// in\n    tag_366:\n        /* \"#utility.yul\":2962:3050   */\n      swap2\n      pop\n        /* \"#utility.yul\":2778:3056   */\n      pop\n        /* \"#utility.yul\":2716:3056   */\n      swap3\n      swap2\n      pop\n      pop\n      jump\t// out\n        /* \"#utility.yul\":3062:3716   */\n    tag_18:\n        /* \"#utility.yul\":3140:3146   */\n      0x00\n        /* \"#utility.yul\":3148:3154   */\n      dup1\n        /* \"#utility.yul\":3197:3199   */\n      0x40\n        /* \"#utility.yul\":3185:3194   */\n      dup4\n        /* \"#utility.yul\":3176:3183   */\n      dup6\n        /* \"#utility.yul\":3172:3195   */\n      sub\n        /* \"#utility.yul\":3168:3200   */\n      slt\n        /* \"#utility.yul\":3165:3284   */\n      iszero\n      tag_368\n      jumpi\n        /* \"#utility.yul\":3203:3282   */\n      tag_369\n      tag_228\n      jump\t// in\n    tag_369:\n        /* \"#utility.yul\":3165:3284   */\n    tag_368:\n        /* \"#utility.yul\":3323:3324   */\n      0x00\n        /* \"#utility.yul\":3348:3401   */\n      tag_370\n        /* \"#utility.yul\":3393:3400   */\n      dup6\n        /* \"#utility.yul\":3384:3390   */\n      dup3\n        /* \"#utility.yul\":3373:3382   */\n      dup7\n        /* \"#utility.yul\":3369:3391   */\n      add\n        /* \"#utility.yul\":3348:3401   */\n      tag_233\n      jump\t// in\n    tag_370:\n        /* \"#utility.yul\":3338:3401   */\n      swap3\n      pop\n        /* \"#utility.yul\":3294:3411   */\n      pop\n        /* \"#utility.yul\":3478:3480   */\n      0x20\n        /* \"#utility.yul\":3467:3476   */\n      dup4\n        /* \"#utility.yul\":3463:3481   */\n      add\n        /* \"#utility.yul\":3450:3482   */\n      calldataload\n        /* \"#utility.yul\":3509:3527   */\n      0xffffffffffffffff\n        /* \"#utility.yul\":3501:3507   */\n      dup2\n        /* \"#utility.yul\":3498:3528   */\n      gt\n        /* \"#utility.yul\":3495:3612   */\n      iszero\n      tag_371\n      jumpi\n        /* \"#utility.yul\":3531:3610   */\n      tag_372\n      tag_229\n      jump\t// in\n    tag_372:\n        /* \"#utility.yul\":3495:3612   */\n    tag_371:\n        /* \"#utility.yul\":3636:3699   */\n      tag_373\n        /* \"#utility.yul\":3691:3698   */\n      dup6\n        /* \"#utility.yul\":3682:3688   */\n      dup3\n        /* \"#utility.yul\":3671:3680   */\n      dup7\n        /* \"#utility.yul\":3667:3689   */\n      add\n        /* \"#utility.yul\":3636:3699   */\n      tag_242\n      jump\t// in\n    tag_373:\n        /* \"#utility.yul\":3626:3699   */\n      swap2\n      pop\n        /* \"#utility.yul\":3421:3709   */\n      pop\n        /* \"#utility.yul\":3062:3716   */\n      swap3\n      pop\n      swap3\n      swap1\n      pop\n      jump\t// out\n        /* \"#utility.yul\":3722:3856   */\n    tag_243:\n        /* \"#utility.yul\":3809:3815   */\n      0x00\n        /* \"#utility.yul\":3843:3848   */\n      dup2\n        /* \"#utility.yul\":3837:3849   */\n      mload\n        /* \"#utility.yul\":3827:3849   */\n      swap1\n      pop\n        /* \"#utility.yul\":3722:3856   */\n      swap2\n      swap1\n      pop\n      jump\t// out\n        /* \"#utility.yul\":3862:4066   */\n    tag_244:\n        /* \"#utility.yul\":3981:3992   */\n      0x00\n        /* \"#utility.yul\":4015:4021   */\n      dup3\n        /* \"#utility.yul\":4010:4013   */\n      dup3\n        /* \"#utility.yul\":4003:4022   */\n      mstore\n        /* \"#utility.yul\":4055:4059   */\n      0x20\n        /* \"#utility.yul\":4050:4053   */\n      dup3\n        /* \"#utility.yul\":4046:4060   */\n      add\n        /* \"#utility.yul\":4031:4060   */\n      swap1\n      pop\n        /* \"#utility.yul\":3862:4066   */\n      swap3\n      swap2\n      pop\n      pop\n      jump\t// out\n        /* \"#utility.yul\":4072:4224   */\n    tag_245:\n        /* \"#utility.yul\":4159:4163   */\n      0x00\n        /* \"#utility.yul\":4182:4185   */\n      dup2\n        /* \"#utility.yul\":4174:4185   */\n      swap1\n      pop\n        /* \"#utility.yul\":4212:4216   */\n      0x20\n        /* \"#utility.yul\":4207:4210   */\n      dup3\n        /* \"#utility.yul\":4203:4217   */\n      add\n        /* \"#utility.yul\":4195:4217   */\n      swap1\n      pop\n        /* \"#utility.yul\":4072:4224   */\n      swap2\n      swap1\n      pop\n      jump\t// out\n        /* \"#utility.yul\":4230:4307   */\n    tag_246:\n        /* \"#utility.yul\":4267:4274   */\n      0x00\n        /* \"#utility.yul\":4296:4301   */\n      dup2\n        /* \"#utility.yul\":4285:4301   */\n      swap1\n      pop\n        /* \"#utility.yul\":4230:4307   */\n      swap2\n      swap1\n      pop\n      jump\t// out\n        /* \"#utility.yul\":4313:4421   */\n    tag_247:\n        /* \"#utility.yul\":4390:4414   */\n      tag_379\n        /* \"#utility.yul\":4408:4413   */\n      dup2\n        /* \"#utility.yul\":4390:4414   */\n      tag_246\n      jump\t// in\n    tag_379:\n        /* \"#utility.yul\":4385:4388   */\n      dup3\n        /* \"#utility.yul\":4378:4415   */\n      mstore\n        /* \"#utility.yul\":4313:4421   */\n      pop\n      pop\n      jump\t// out\n        /* \"#utility.yul\":4427:4526   */\n    tag_248:\n        /* \"#utility.yul\":4479:4485   */\n      0x00\n        /* \"#utility.yul\":4513:4518   */\n      dup2\n        /* \"#utility.yul\":4507:4519   */\n      mload\n        /* \"#utility.yul\":4497:4519   */\n      swap1\n      pop\n        /* \"#utility.yul\":4427:4526   */\n      swap2\n      swap1\n      pop\n      jump\t// out\n        /* \"#utility.yul\":4532:4691   */\n    tag_249:\n        /* \"#utility.yul\":4606:4617   */\n      0x00\n        /* \"#utility.yul\":4640:4646   */\n      dup3\n        /* \"#utility.yul\":4635:4638   */\n      dup3\n        /* \"#utility.yul\":4628:4647   */\n      mstore\n        /* \"#utility.yul\":4680:4684   */\n      0x20\n        /* \"#utility.yul\":4675:4678   */\n      dup3\n        /* \"#utility.yul\":4671:4685   */\n      add\n        /* \"#utility.yul\":4656:4685   */\n      swap1\n      pop\n        /* \"#utility.yul\":4532:4691   */\n      swap3\n      swap2\n      pop\n      pop\n      jump\t// out\n        /* \"#utility.yul\":4697:4836   */\n    tag_250:\n        /* \"#utility.yul\":4786:4792   */\n      dup3\n        /* \"#utility.yul\":4781:4784   */\n      dup2\n        /* \"#utility.yul\":4776:4779   */\n      dup4\n        /* \"#utility.yul\":4770:4793   */\n      mcopy\n        /* \"#utility.yul\":4827:4828   */\n      0x00\n        /* \"#utility.yul\":4818:4824   */\n      dup4\n        /* \"#utility.yul\":4813:4816   */\n      dup4\n        /* \"#utility.yul\":4809:4825   */\n      add\n        /* \"#utility.yul\":4802:4829   */\n      mstore\n        /* \"#utility.yul\":4697:4836   */\n      pop\n      pop\n      pop\n      jump\t// out\n        /* \"#utility.yul\":4842:5199   */\n    tag_251:\n        /* \"#utility.yul\":4920:4923   */\n      0x00\n        /* \"#utility.yul\":4948:4987   */\n      tag_384\n        /* \"#utility.yul\":4981:4986   */\n      dup3\n        /* \"#utility.yul\":4948:4987   */\n      tag_248\n      jump\t// in\n    tag_384:\n        /* \"#utility.yul\":5003:5064   */\n      tag_385\n        /* \"#utility.yul\":5057:5063   */\n      dup2\n        /* \"#utility.yul\":5052:5055   */\n      dup6\n        /* \"#utility.yul\":5003:5064   */\n      tag_249\n      jump\t// in\n    tag_385:\n        /* \"#utility.yul\":4996:5064   */\n      swap4\n      pop\n        /* \"#utility.yul\":5073:5138   */\n      tag_386\n        /* \"#utility.yul\":5131:5137   */\n      dup2\n        /* \"#utility.yul\":5126:5129   */\n      dup6\n        /* \"#utility.yul\":5119:5123   */\n      0x20\n        /* \"#utility.yul\":5112:5117   */\n      dup7\n        /* \"#utility.yul\":5108:5124   */\n      add\n        /* \"#utility.yul\":5073:5138   */\n      tag_250\n      jump\t// in\n    tag_386:\n        /* \"#utility.yul\":5163:5192   */\n      tag_387\n        /* \"#utility.yul\":5185:5191   */\n      dup2\n        /* \"#utility.yul\":5163:5192   */\n      tag_236\n      jump\t// in\n    tag_387:\n        /* \"#utility.yul\":5158:5161   */\n      dup5\n        /* \"#utility.yul\":5154:5193   */\n      add\n        /* \"#utility.yul\":5147:5193   */\n      swap2\n      pop\n        /* \"#utility.yul\":4924:5199   */\n      pop\n        /* \"#utility.yul\":4842:5199   */\n      swap3\n      swap2\n      pop\n      pop\n      jump\t// out\n        /* \"#utility.yul\":5205:5313   */\n    tag_252:\n        /* \"#utility.yul\":5282:5306   */\n      tag_389\n        /* \"#utility.yul\":5300:5305   */\n      dup2\n        /* \"#utility.yul\":5282:5306   */\n      tag_231\n      jump\t// in\n    tag_389:\n        /* \"#utility.yul\":5277:5280   */\n      dup3\n        /* \"#utility.yul\":5270:5307   */\n      mstore\n        /* \"#utility.yul\":5205:5313   */\n      pop\n      pop\n      jump\t// out\n        /* \"#utility.yul\":5319:5409   */\n    tag_253:\n        /* \"#utility.yul\":5353:5360   */\n      0x00\n        /* \"#utility.yul\":5396:5401   */\n      dup2\n        /* \"#utility.yul\":5389:5402   */\n      iszero\n        /* \"#utility.yul\":5382:5403   */\n      iszero\n        /* \"#utility.yul\":5371:5403   */\n      swap1\n      pop\n        /* \"#utility.yul\":5319:5409   */\n      swap2\n      swap1\n      pop\n      jump\t// out\n        /* \"#utility.yul\":5415:5514   */\n    tag_254:\n        /* \"#utility.yul\":5486:5507   */\n      tag_392\n        /* \"#utility.yul\":5501:5506   */\n      dup2\n        /* \"#utility.yul\":5486:5507   */\n      tag_253\n      jump\t// in\n    tag_392:\n        /* \"#utility.yul\":5481:5484   */\n      dup3\n        /* \"#utility.yul\":5474:5508   */\n      mstore\n        /* \"#utility.yul\":5415:5514   */\n      pop\n      pop\n      jump\t// out\n        /* \"#utility.yul\":5584:7313   */\n    tag_255:\n        /* \"#utility.yul\":5683:5686   */\n      0x00\n        /* \"#utility.yul\":5719:5725   */\n      0x0100\n        /* \"#utility.yul\":5714:5717   */\n      dup4\n        /* \"#utility.yul\":5710:5726   */\n      add\n        /* \"#utility.yul\":5806:5810   */\n      0x00\n        /* \"#utility.yul\":5799:5804   */\n      dup4\n        /* \"#utility.yul\":5795:5811   */\n      add\n        /* \"#utility.yul\":5789:5812   */\n      mload\n        /* \"#utility.yul\":5825:5888   */\n      tag_394\n        /* \"#utility.yul\":5882:5886   */\n      0x00\n        /* \"#utility.yul\":5877:5880   */\n      dup7\n        /* \"#utility.yul\":5873:5887   */\n      add\n        /* \"#utility.yul\":5859:5871   */\n      dup3\n        /* \"#utility.yul\":5825:5888   */\n      tag_247\n      jump\t// in\n    tag_394:\n        /* \"#utility.yul\":5736:5898   */\n      pop\n        /* \"#utility.yul\":5980:5984   */\n      0x20\n        /* \"#utility.yul\":5973:5978   */\n      dup4\n        /* \"#utility.yul\":5969:5985   */\n      add\n        /* \"#utility.yul\":5963:5986   */\n      mload\n        /* \"#utility.yul\":6033:6036   */\n      dup5\n        /* \"#utility.yul\":6027:6031   */\n      dup3\n        /* \"#utility.yul\":6023:6037   */\n      sub\n        /* \"#utility.yul\":6016:6020   */\n      0x20\n        /* \"#utility.yul\":6011:6014   */\n      dup7\n        /* \"#utility.yul\":6007:6021   */\n      add\n        /* \"#utility.yul\":6000:6038   */\n      mstore\n        /* \"#utility.yul\":6059:6132   */\n      tag_395\n        /* \"#utility.yul\":6127:6131   */\n      dup3\n        /* \"#utility.yul\":6113:6125   */\n      dup3\n        /* \"#utility.yul\":6059:6132   */\n      tag_251\n      jump\t// in\n    tag_395:\n        /* \"#utility.yul\":6051:6132   */\n      swap2\n      pop\n        /* \"#utility.yul\":5908:6143   */\n      pop\n        /* \"#utility.yul\":6232:6236   */\n      0x40\n        /* \"#utility.yul\":6225:6230   */\n      dup4\n        /* \"#utility.yul\":6221:6237   */\n      add\n        /* \"#utility.yul\":6215:6238   */\n      mload\n        /* \"#utility.yul\":6285:6288   */\n      dup5\n        /* \"#utility.yul\":6279:6283   */\n      dup3\n        /* \"#utility.yul\":6275:6289   */\n      sub\n        /* \"#utility.yul\":6268:6272   */\n      0x40\n        /* \"#utility.yul\":6263:6266   */\n      dup7\n        /* \"#utility.yul\":6259:6273   */\n      add\n        /* \"#utility.yul\":6252:6290   */\n      mstore\n        /* \"#utility.yul\":6311:6384   */\n      tag_396\n        /* \"#utility.yul\":6379:6383   */\n      dup3\n        /* \"#utility.yul\":6365:6377   */\n      dup3\n        /* \"#utility.yul\":6311:6384   */\n      tag_251\n      jump\t// in\n    tag_396:\n        /* \"#utility.yul\":6303:6384   */\n      swap2\n      pop\n        /* \"#utility.yul\":6153:6395   */\n      pop\n        /* \"#utility.yul\":6481:6485   */\n      0x60\n        /* \"#utility.yul\":6474:6479   */\n      dup4\n        /* \"#utility.yul\":6470:6486   */\n      add\n        /* \"#utility.yul\":6464:6487   */\n      mload\n        /* \"#utility.yul\":6500:6563   */\n      tag_397\n        /* \"#utility.yul\":6557:6561   */\n      0x60\n        /* \"#utility.yul\":6552:6555   */\n      dup7\n        /* \"#utility.yul\":6548:6562   */\n      add\n        /* \"#utility.yul\":6534:6546   */\n      dup3\n        /* \"#utility.yul\":6500:6563   */\n      tag_247\n      jump\t// in\n    tag_397:\n        /* \"#utility.yul\":6405:6573   */\n      pop\n        /* \"#utility.yul\":6658:6662   */\n      0x80\n        /* \"#utility.yul\":6651:6656   */\n      dup4\n        /* \"#utility.yul\":6647:6663   */\n      add\n        /* \"#utility.yul\":6641:6664   */\n      mload\n        /* \"#utility.yul\":6677:6740   */\n      tag_398\n        /* \"#utility.yul\":6734:6738   */\n      0x80\n        /* \"#utility.yul\":6729:6732   */\n      dup7\n        /* \"#utility.yul\":6725:6739   */\n      add\n        /* \"#utility.yul\":6711:6723   */\n      dup3\n        /* \"#utility.yul\":6677:6740   */\n      tag_247\n      jump\t// in\n    tag_398:\n        /* \"#utility.yul\":6583:6750   */\n      pop\n        /* \"#utility.yul\":6838:6842   */\n      0xa0\n        /* \"#utility.yul\":6831:6836   */\n      dup4\n        /* \"#utility.yul\":6827:6843   */\n      add\n        /* \"#utility.yul\":6821:6844   */\n      mload\n        /* \"#utility.yul\":6857:6920   */\n      tag_399\n        /* \"#utility.yul\":6914:6918   */\n      0xa0\n        /* \"#utility.yul\":6909:6912   */\n      dup7\n        /* \"#utility.yul\":6905:6919   */\n      add\n        /* \"#utility.yul\":6891:6903   */\n      dup3\n        /* \"#utility.yul\":6857:6920   */\n      tag_252\n      jump\t// in\n    tag_399:\n        /* \"#utility.yul\":6760:6930   */\n      pop\n        /* \"#utility.yul\":7019:7023   */\n      0xc0\n        /* \"#utility.yul\":7012:7017   */\n      dup4\n        /* \"#utility.yul\":7008:7024   */\n      add\n        /* \"#utility.yul\":7002:7025   */\n      mload\n        /* \"#utility.yul\":7038:7095   */\n      tag_400\n        /* \"#utility.yul\":7089:7093   */\n      0xc0\n        /* \"#utility.yul\":7084:7087   */\n      dup7\n        /* \"#utility.yul\":7080:7094   */\n      add\n        /* \"#utility.yul\":7066:7078   */\n      dup3\n        /* \"#utility.yul\":7038:7095   */\n      tag_254\n      jump\t// in\n    tag_400:\n        /* \"#utility.yul\":6940:7105   */\n      pop\n        /* \"#utility.yul\":7194:7198   */\n      0xe0\n        /* \"#utility.yul\":7187:7192   */\n      dup4\n        /* \"#utility.yul\":7183:7199   */\n      add\n        /* \"#utility.yul\":7177:7200   */\n      mload\n        /* \"#utility.yul\":7213:7276   */\n      tag_401\n        /* \"#utility.yul\":7270:7274   */\n      0xe0\n        /* \"#utility.yul\":7265:7268   */\n      dup7\n        /* \"#utility.yul\":7261:7275   */\n      add\n        /* \"#utility.yul\":7247:7259   */\n      dup3\n        /* \"#utility.yul\":7213:7276   */\n      tag_247\n      jump\t// in\n    tag_401:\n        /* \"#utility.yul\":7115:7286   */\n      pop\n        /* \"#utility.yul\":7303:7307   */\n      dup1\n        /* \"#utility.yul\":7296:7307   */\n      swap2\n      pop\n        /* \"#utility.yul\":5688:7313   */\n      pop\n        /* \"#utility.yul\":5584:7313   */\n      swap3\n      swap2\n      pop\n      pop\n      jump\t// out\n        /* \"#utility.yul\":7319:7555   */\n    tag_256:\n        /* \"#utility.yul\":7428:7438   */\n      0x00\n        /* \"#utility.yul\":7463:7549   */\n      tag_403\n        /* \"#utility.yul\":7545:7548   */\n      dup4\n        /* \"#utility.yul\":7537:7543   */\n      dup4\n        /* \"#utility.yul\":7463:7549   */\n      tag_255\n      jump\t// in\n    tag_403:\n        /* \"#utility.yul\":7449:7549   */\n      swap1\n      pop\n        /* \"#utility.yul\":7319:7555   */\n      swap3\n      swap2\n      pop\n      pop\n      jump\t// out\n        /* \"#utility.yul\":7561:7694   */\n    tag_257:\n        /* \"#utility.yul\":7651:7655   */\n      0x00\n        /* \"#utility.yul\":7683:7687   */\n      0x20\n        /* \"#utility.yul\":7678:7681   */\n      dup3\n        /* \"#utility.yul\":7674:7688   */\n      add\n        /* \"#utility.yul\":7666:7688   */\n      swap1\n      pop\n        /* \"#utility.yul\":7561:7694   */\n      swap2\n      swap1\n      pop\n      jump\t// out\n        /* \"#utility.yul\":7768:8839   */\n    tag_258:\n        /* \"#utility.yul\":7927:7930   */\n      0x00\n        /* \"#utility.yul\":7956:8030   */\n      tag_406\n        /* \"#utility.yul\":8024:8029   */\n      dup3\n        /* \"#utility.yul\":7956:8030   */\n      tag_243\n      jump\t// in\n    tag_406:\n        /* \"#utility.yul\":8046:8152   */\n      tag_407\n        /* \"#utility.yul\":8145:8151   */\n      dup2\n        /* \"#utility.yul\":8140:8143   */\n      dup6\n        /* \"#utility.yul\":8046:8152   */\n      tag_244\n      jump\t// in\n    tag_407:\n        /* \"#utility.yul\":8039:8152   */\n      swap4\n      pop\n        /* \"#utility.yul\":8178:8181   */\n      dup4\n        /* \"#utility.yul\":8223:8227   */\n      0x20\n        /* \"#utility.yul\":8215:8221   */\n      dup3\n        /* \"#utility.yul\":8211:8228   */\n      mul\n        /* \"#utility.yul\":8206:8209   */\n      dup6\n        /* \"#utility.yul\":8202:8229   */\n      add\n        /* \"#utility.yul\":8253:8329   */\n      tag_408\n        /* \"#utility.yul\":8323:8328   */\n      dup6\n        /* \"#utility.yul\":8253:8329   */\n      tag_245\n      jump\t// in\n    tag_408:\n        /* \"#utility.yul\":8352:8359   */\n      dup1\n        /* \"#utility.yul\":8383:8384   */\n      0x00\n        /* \"#utility.yul\":8368:8794   */\n    tag_409:\n        /* \"#utility.yul\":8393:8399   */\n      dup6\n        /* \"#utility.yul\":8390:8391   */\n      dup2\n        /* \"#utility.yul\":8387:8400   */\n      lt\n        /* \"#utility.yul\":8368:8794   */\n      iszero\n      tag_411\n      jumpi\n        /* \"#utility.yul\":8464:8473   */\n      dup5\n        /* \"#utility.yul\":8458:8462   */\n      dup5\n        /* \"#utility.yul\":8454:8474   */\n      sub\n        /* \"#utility.yul\":8449:8452   */\n      dup10\n        /* \"#utility.yul\":8442:8475   */\n      mstore\n        /* \"#utility.yul\":8515:8521   */\n      dup2\n        /* \"#utility.yul\":8509:8522   */\n      mload\n        /* \"#utility.yul\":8543:8647   */\n      tag_412\n        /* \"#utility.yul\":8642:8646   */\n      dup6\n        /* \"#utility.yul\":8627:8640   */\n      dup3\n        /* \"#utility.yul\":8543:8647   */\n      tag_256\n      jump\t// in\n    tag_412:\n        /* \"#utility.yul\":8535:8647   */\n      swap5\n      pop\n        /* \"#utility.yul\":8670:8750   */\n      tag_413\n        /* \"#utility.yul\":8743:8749   */\n      dup4\n        /* \"#utility.yul\":8670:8750   */\n      tag_257\n      jump\t// in\n    tag_413:\n        /* \"#utility.yul\":8660:8750   */\n      swap3\n      pop\n        /* \"#utility.yul\":8779:8783   */\n      0x20\n        /* \"#utility.yul\":8774:8777   */\n      dup11\n        /* \"#utility.yul\":8770:8784   */\n      add\n        /* \"#utility.yul\":8763:8784   */\n      swap10\n      pop\n        /* \"#utility.yul\":8428:8794   */\n      pop\n        /* \"#utility.yul\":8415:8416   */\n      0x01\n        /* \"#utility.yul\":8412:8413   */\n      dup2\n        /* \"#utility.yul\":8408:8417   */\n      add\n        /* \"#utility.yul\":8403:8417   */\n      swap1\n      pop\n        /* \"#utility.yul\":8368:8794   */\n      jump(tag_409)\n    tag_411:\n        /* \"#utility.yul\":8372:8386   */\n      pop\n        /* \"#utility.yul\":8810:8814   */\n      dup3\n        /* \"#utility.yul\":8803:8814   */\n      swap8\n      pop\n        /* \"#utility.yul\":8830:8833   */\n      dup8\n        /* \"#utility.yul\":8823:8833   */\n      swap6\n      pop\n        /* \"#utility.yul\":7932:8839   */\n      pop\n      pop\n      pop\n      pop\n      pop\n        /* \"#utility.yul\":7768:8839   */\n      swap3\n      swap2\n      pop\n      pop\n      jump\t// out\n        /* \"#utility.yul\":8845:9298   */\n    tag_23:\n        /* \"#utility.yul\":9028:9032   */\n      0x00\n        /* \"#utility.yul\":9066:9068   */\n      0x20\n        /* \"#utility.yul\":9055:9064   */\n      dup3\n        /* \"#utility.yul\":9051:9069   */\n      add\n        /* \"#utility.yul\":9043:9069   */\n      swap1\n      pop\n        /* \"#utility.yul\":9115:9124   */\n      dup2\n        /* \"#utility.yul\":9109:9113   */\n      dup2\n        /* \"#utility.yul\":9105:9125   */\n      sub\n        /* \"#utility.yul\":9101:9102   */\n      0x00\n        /* \"#utility.yul\":9090:9099   */\n      dup4\n        /* \"#utility.yul\":9086:9103   */\n      add\n        /* \"#utility.yul\":9079:9126   */\n      mstore\n        /* \"#utility.yul\":9143:9291   */\n      tag_415\n        /* \"#utility.yul\":9286:9290   */\n      dup2\n        /* \"#utility.yul\":9277:9283   */\n      dup5\n        /* \"#utility.yul\":9143:9291   */\n      tag_258\n      jump\t// in\n    tag_415:\n        /* \"#utility.yul\":9135:9291   */\n      swap1\n      pop\n        /* \"#utility.yul\":8845:9298   */\n      swap3\n      swap2\n      pop\n      pop\n      jump\t// out\n        /* \"#utility.yul\":9304:9426   */\n    tag_259:\n        /* \"#utility.yul\":9377:9401   */\n      tag_417\n        /* \"#utility.yul\":9395:9400   */\n      dup2\n        /* \"#utility.yul\":9377:9401   */\n      tag_246\n      jump\t// in\n    tag_417:\n        /* \"#utility.yul\":9370:9375   */\n      dup2\n        /* \"#utility.yul\":9367:9402   */\n      eq\n        /* \"#utility.yul\":9357:9420   */\n      tag_418\n      jumpi\n        /* \"#utility.yul\":9416:9417   */\n      0x00\n        /* \"#utility.yul\":9413:9414   */\n      dup1\n        /* \"#utility.yul\":9406:9418   */\n      revert\n        /* \"#utility.yul\":9357:9420   */\n    tag_418:\n        /* \"#utility.yul\":9304:9426   */\n      pop\n      jump\t// out\n        /* \"#utility.yul\":9432:9571   */\n    tag_260:\n        /* \"#utility.yul\":9478:9483   */\n      0x00\n        /* \"#utility.yul\":9516:9522   */\n      dup2\n        /* \"#utility.yul\":9503:9523   */\n      calldataload\n        /* \"#utility.yul\":9494:9523   */\n      swap1\n      pop\n        /* \"#utility.yul\":9532:9565   */\n      tag_420\n        /* \"#utility.yul\":9559:9564   */\n      dup2\n        /* \"#utility.yul\":9532:9565   */\n      tag_259\n      jump\t// in\n    tag_420:\n        /* \"#utility.yul\":9432:9571   */\n      swap3\n      swap2\n      pop\n      pop\n      jump\t// out\n        /* \"#utility.yul\":9577:10848   */\n    tag_26:\n        /* \"#utility.yul\":9692:9698   */\n      0x00\n        /* \"#utility.yul\":9700:9706   */\n      dup1\n        /* \"#utility.yul\":9708:9714   */\n      0x00\n        /* \"#utility.yul\":9716:9722   */\n      dup1\n        /* \"#utility.yul\":9724:9730   */\n      0x00\n        /* \"#utility.yul\":9773:9776   */\n      0xa0\n        /* \"#utility.yul\":9761:9770   */\n      dup7\n        /* \"#utility.yul\":9752:9759   */\n      dup9\n        /* \"#utility.yul\":9748:9771   */\n      sub\n        /* \"#utility.yul\":9744:9777   */\n      slt\n        /* \"#utility.yul\":9741:9861   */\n      iszero\n      tag_422\n      jumpi\n        /* \"#utility.yul\":9780:9859   */\n      tag_423\n      tag_228\n      jump\t// in\n    tag_423:\n        /* \"#utility.yul\":9741:9861   */\n    tag_422:\n        /* \"#utility.yul\":9928:9929   */\n      0x00\n        /* \"#utility.yul\":9917:9926   */\n      dup7\n        /* \"#utility.yul\":9913:9930   */\n      add\n        /* \"#utility.yul\":9900:9931   */\n      calldataload\n        /* \"#utility.yul\":9958:9976   */\n      0xffffffffffffffff\n        /* \"#utility.yul\":9950:9956   */\n      dup2\n        /* \"#utility.yul\":9947:9977   */\n      gt\n        /* \"#utility.yul\":9944:10061   */\n      iszero\n      tag_424\n      jumpi\n        /* \"#utility.yul\":9980:10059   */\n      tag_425\n      tag_229\n      jump\t// in\n    tag_425:\n        /* \"#utility.yul\":9944:10061   */\n    tag_424:\n        /* \"#utility.yul\":10085:10148   */\n      tag_426\n        /* \"#utility.yul\":10140:10147   */\n      dup9\n        /* \"#utility.yul\":10131:10137   */\n      dup3\n        /* \"#utility.yul\":10120:10129   */\n      dup10\n        /* \"#utility.yul\":10116:10138   */\n      add\n        /* \"#utility.yul\":10085:10148   */\n      tag_242\n      jump\t// in\n    tag_426:\n        /* \"#utility.yul\":10075:10148   */\n      swap6\n      pop\n        /* \"#utility.yul\":9871:10158   */\n      pop\n        /* \"#utility.yul\":10225:10227   */\n      0x20\n        /* \"#utility.yul\":10214:10223   */\n      dup7\n        /* \"#utility.yul\":10210:10228   */\n      add\n        /* \"#utility.yul\":10197:10229   */\n      calldataload\n        /* \"#utility.yul\":10256:10274   */\n      0xffffffffffffffff\n        /* \"#utility.yul\":10248:10254   */\n      dup2\n        /* \"#utility.yul\":10245:10275   */\n      gt\n        /* \"#utility.yul\":10242:10359   */\n      iszero\n      tag_427\n      jumpi\n        /* \"#utility.yul\":10278:10357   */\n      tag_428\n      tag_229\n      jump\t// in\n    tag_428:\n        /* \"#utility.yul\":10242:10359   */\n    tag_427:\n        /* \"#utility.yul\":10383:10446   */\n      tag_429\n        /* \"#utility.yul\":10438:10445   */\n      dup9\n        /* \"#utility.yul\":10429:10435   */\n      dup3\n        /* \"#utility.yul\":10418:10427   */\n      dup10\n        /* \"#utility.yul\":10414:10436   */\n      add\n        /* \"#utility.yul\":10383:10446   */\n      tag_242\n      jump\t// in\n    tag_429:\n        /* \"#utility.yul\":10373:10446   */\n      swap5\n      pop\n        /* \"#utility.yul\":10168:10456   */\n      pop\n        /* \"#utility.yul\":10495:10497   */\n      0x40\n        /* \"#utility.yul\":10521:10574   */\n      tag_430\n        /* \"#utility.yul\":10566:10573   */\n      dup9\n        /* \"#utility.yul\":10557:10563   */\n      dup3\n        /* \"#utility.yul\":10546:10555   */\n      dup10\n        /* \"#utility.yul\":10542:10564   */\n      add\n        /* \"#utility.yul\":10521:10574   */\n      tag_260\n      jump\t// in\n    tag_430:\n        /* \"#utility.yul\":10511:10574   */\n      swap4\n      pop\n        /* \"#utility.yul\":10466:10584   */\n      pop\n        /* \"#utility.yul\":10623:10625   */\n      0x60\n        /* \"#utility.yul\":10649:10702   */\n      tag_431\n        /* \"#utility.yul\":10694:10701   */\n      dup9\n        /* \"#utility.yul\":10685:10691   */\n      dup3\n        /* \"#utility.yul\":10674:10683   */\n      dup10\n        /* \"#utility.yul\":10670:10692   */\n      add\n        /* \"#utility.yul\":10649:10702   */\n      tag_260\n      jump\t// in\n    tag_431:\n        /* \"#utility.yul\":10639:10702   */\n      swap3\n      pop\n        /* \"#utility.yul\":10594:10712   */\n      pop\n        /* \"#utility.yul\":10751:10754   */\n      0x80\n        /* \"#utility.yul\":10778:10831   */\n      tag_432\n        /* \"#utility.yul\":10823:10830   */\n      dup9\n        /* \"#utility.yul\":10814:10820   */\n      dup3\n        /* \"#utility.yul\":10803:10812   */\n      dup10\n        /* \"#utility.yul\":10799:10821   */\n      add\n        /* \"#utility.yul\":10778:10831   */\n      tag_233\n      jump\t// in\n    tag_432:\n        /* \"#utility.yul\":10768:10831   */\n      swap2\n      pop\n        /* \"#utility.yul\":10722:10841   */\n      pop\n        /* \"#utility.yul\":9577:10848   */\n      swap3\n      swap6\n      pop\n      swap3\n      swap6\n      swap1\n      swap4\n      pop\n      jump\t// out\n        /* \"#utility.yul\":10854:11363   */\n    tag_30:\n        /* \"#utility.yul\":10923:10929   */\n      0x00\n        /* \"#utility.yul\":10972:10974   */\n      0x20\n        /* \"#utility.yul\":10960:10969   */\n      dup3\n        /* \"#utility.yul\":10951:10958   */\n      dup5\n        /* \"#utility.yul\":10947:10970   */\n      sub\n        /* \"#utility.yul\":10943:10975   */\n      slt\n        /* \"#utility.yul\":10940:11059   */\n      iszero\n      tag_434\n      jumpi\n        /* \"#utility.yul\":10978:11057   */\n      tag_435\n      tag_228\n      jump\t// in\n    tag_435:\n        /* \"#utility.yul\":10940:11059   */\n    tag_434:\n        /* \"#utility.yul\":11126:11127   */\n      0x00\n        /* \"#utility.yul\":11115:11124   */\n      dup3\n        /* \"#utility.yul\":11111:11128   */\n      add\n        /* \"#utility.yul\":11098:11129   */\n      calldataload\n        /* \"#utility.yul\":11156:11174   */\n      0xffffffffffffffff\n        /* \"#utility.yul\":11148:11154   */\n      dup2\n        /* \"#utility.yul\":11145:11175   */\n      gt\n        /* \"#utility.yul\":11142:11259   */\n      iszero\n      tag_436\n      jumpi\n        /* \"#utility.yul\":11178:11257   */\n      tag_437\n      tag_229\n      jump\t// in\n    tag_437:\n        /* \"#utility.yul\":11142:11259   */\n    tag_436:\n        /* \"#utility.yul\":11283:11346   */\n      tag_438\n        /* \"#utility.yul\":11338:11345   */\n      dup5\n        /* \"#utility.yul\":11329:11335   */\n      dup3\n        /* \"#utility.yul\":11318:11327   */\n      dup6\n        /* \"#utility.yul\":11314:11336   */\n      add\n        /* \"#utility.yul\":11283:11346   */\n      tag_242\n      jump\t// in\n    tag_438:\n        /* \"#utility.yul\":11273:11346   */\n      swap2\n      pop\n        /* \"#utility.yul\":11069:11356   */\n      pop\n        /* \"#utility.yul\":10854:11363   */\n      swap3\n      swap2\n      pop\n      pop\n      jump\t// out\n        /* \"#utility.yul\":11369:11698   */\n    tag_34:\n        /* \"#utility.yul\":11428:11434   */\n      0x00\n        /* \"#utility.yul\":11477:11479   */\n      0x20\n        /* \"#utility.yul\":11465:11474   */\n      dup3\n        /* \"#utility.yul\":11456:11463   */\n      dup5\n        /* \"#utility.yul\":11452:11475   */\n      sub\n        /* \"#utility.yul\":11448:11480   */\n      slt\n        /* \"#utility.yul\":11445:11564   */\n      iszero\n      tag_440\n      jumpi\n        /* \"#utility.yul\":11483:11562   */\n      tag_441\n      tag_228\n      jump\t// in\n    tag_441:\n        /* \"#utility.yul\":11445:11564   */\n    tag_440:\n        /* \"#utility.yul\":11603:11604   */\n      0x00\n        /* \"#utility.yul\":11628:11681   */\n      tag_442\n        /* \"#utility.yul\":11673:11680   */\n      dup5\n        /* \"#utility.yul\":11664:11670   */\n      dup3\n        /* \"#utility.yul\":11653:11662   */\n      dup6\n        /* \"#utility.yul\":11649:11671   */\n      add\n        /* \"#utility.yul\":11628:11681   */\n      tag_260\n      jump\t// in\n    tag_442:\n        /* \"#utility.yul\":11618:11681   */\n      swap2\n      pop\n        /* \"#utility.yul\":11574:11691   */\n      pop\n        /* \"#utility.yul\":11369:11698   */\n      swap3\n      swap2\n      pop\n      pop\n      jump\t// out\n        /* \"#utility.yul\":11768:13507   */\n    tag_261:\n        /* \"#utility.yul\":11877:11880   */\n      0x00\n        /* \"#utility.yul\":11913:11919   */\n      0x0100\n        /* \"#utility.yul\":11908:11911   */\n      dup4\n        /* \"#utility.yul\":11904:11920   */\n      add\n        /* \"#utility.yul\":12000:12004   */\n      0x00\n        /* \"#utility.yul\":11993:11998   */\n      dup4\n        /* \"#utility.yul\":11989:12005   */\n      add\n        /* \"#utility.yul\":11983:12006   */\n      mload\n        /* \"#utility.yul\":12019:12082   */\n      tag_444\n        /* \"#utility.yul\":12076:12080   */\n      0x00\n        /* \"#utility.yul\":12071:12074   */\n      dup7\n        /* \"#utility.yul\":12067:12081   */\n      add\n        /* \"#utility.yul\":12053:12065   */\n      dup3\n        /* \"#utility.yul\":12019:12082   */\n      tag_247\n      jump\t// in\n    tag_444:\n        /* \"#utility.yul\":11930:12092   */\n      pop\n        /* \"#utility.yul\":12174:12178   */\n      0x20\n        /* \"#utility.yul\":12167:12172   */\n      dup4\n        /* \"#utility.yul\":12163:12179   */\n      add\n        /* \"#utility.yul\":12157:12180   */\n      mload\n        /* \"#utility.yul\":12227:12230   */\n      dup5\n        /* \"#utility.yul\":12221:12225   */\n      dup3\n        /* \"#utility.yul\":12217:12231   */\n      sub\n        /* \"#utility.yul\":12210:12214   */\n      0x20\n        /* \"#utility.yul\":12205:12208   */\n      dup7\n        /* \"#utility.yul\":12201:12215   */\n      add\n        /* \"#utility.yul\":12194:12232   */\n      mstore\n        /* \"#utility.yul\":12253:12326   */\n      tag_445\n        /* \"#utility.yul\":12321:12325   */\n      dup3\n        /* \"#utility.yul\":12307:12319   */\n      dup3\n        /* \"#utility.yul\":12253:12326   */\n      tag_251\n      jump\t// in\n    tag_445:\n        /* \"#utility.yul\":12245:12326   */\n      swap2\n      pop\n        /* \"#utility.yul\":12102:12337   */\n      pop\n        /* \"#utility.yul\":12426:12430   */\n      0x40\n        /* \"#utility.yul\":12419:12424   */\n      dup4\n        /* \"#utility.yul\":12415:12431   */\n      add\n        /* \"#utility.yul\":12409:12432   */\n      mload\n        /* \"#utility.yul\":12479:12482   */\n      dup5\n        /* \"#utility.yul\":12473:12477   */\n      dup3\n        /* \"#utility.yul\":12469:12483   */\n      sub\n        /* \"#utility.yul\":12462:12466   */\n      0x40\n        /* \"#utility.yul\":12457:12460   */\n      dup7\n        /* \"#utility.yul\":12453:12467   */\n      add\n        /* \"#utility.yul\":12446:12484   */\n      mstore\n        /* \"#utility.yul\":12505:12578   */\n      tag_446\n        /* \"#utility.yul\":12573:12577   */\n      dup3\n        /* \"#utility.yul\":12559:12571   */\n      dup3\n        /* \"#utility.yul\":12505:12578   */\n      tag_251\n      jump\t// in\n    tag_446:\n        /* \"#utility.yul\":12497:12578   */\n      swap2\n      pop\n        /* \"#utility.yul\":12347:12589   */\n      pop\n        /* \"#utility.yul\":12675:12679   */\n      0x60\n        /* \"#utility.yul\":12668:12673   */\n      dup4\n        /* \"#utility.yul\":12664:12680   */\n      add\n        /* \"#utility.yul\":12658:12681   */\n      mload\n        /* \"#utility.yul\":12694:12757   */\n      tag_447\n        /* \"#utility.yul\":12751:12755   */\n      0x60\n        /* \"#utility.yul\":12746:12749   */\n      dup7\n        /* \"#utility.yul\":12742:12756   */\n      add\n        /* \"#utility.yul\":12728:12740   */\n      dup3\n        /* \"#utility.yul\":12694:12757   */\n      tag_247\n      jump\t// in\n    tag_447:\n        /* \"#utility.yul\":12599:12767   */\n      pop\n        /* \"#utility.yul\":12852:12856   */\n      0x80\n        /* \"#utility.yul\":12845:12850   */\n      dup4\n        /* \"#utility.yul\":12841:12857   */\n      add\n        /* \"#utility.yul\":12835:12858   */\n      mload\n        /* \"#utility.yul\":12871:12934   */\n      tag_448\n        /* \"#utility.yul\":12928:12932   */\n      0x80\n        /* \"#utility.yul\":12923:12926   */\n      dup7\n        /* \"#utility.yul\":12919:12933   */\n      add\n        /* \"#utility.yul\":12905:12917   */\n      dup3\n        /* \"#utility.yul\":12871:12934   */\n      tag_247\n      jump\t// in\n    tag_448:\n        /* \"#utility.yul\":12777:12944   */\n      pop\n        /* \"#utility.yul\":13032:13036   */\n      0xa0\n        /* \"#utility.yul\":13025:13030   */\n      dup4\n        /* \"#utility.yul\":13021:13037   */\n      add\n        /* \"#utility.yul\":13015:13038   */\n      mload\n        /* \"#utility.yul\":13051:13114   */\n      tag_449\n        /* \"#utility.yul\":13108:13112   */\n      0xa0\n        /* \"#utility.yul\":13103:13106   */\n      dup7\n        /* \"#utility.yul\":13099:13113   */\n      add\n        /* \"#utility.yul\":13085:13097   */\n      dup3\n        /* \"#utility.yul\":13051:13114   */\n      tag_252\n      jump\t// in\n    tag_449:\n        /* \"#utility.yul\":12954:13124   */\n      pop\n        /* \"#utility.yul\":13213:13217   */\n      0xc0\n        /* \"#utility.yul\":13206:13211   */\n      dup4\n        /* \"#utility.yul\":13202:13218   */\n      add\n        /* \"#utility.yul\":13196:13219   */\n      mload\n        /* \"#utility.yul\":13232:13289   */\n      tag_450\n        /* \"#utility.yul\":13283:13287   */\n      0xc0\n        /* \"#utility.yul\":13278:13281   */\n      dup7\n        /* \"#utility.yul\":13274:13288   */\n      add\n        /* \"#utility.yul\":13260:13272   */\n      dup3\n        /* \"#utility.yul\":13232:13289   */\n      tag_254\n      jump\t// in\n    tag_450:\n        /* \"#utility.yul\":13134:13299   */\n      pop\n        /* \"#utility.yul\":13388:13392   */\n      0xe0\n        /* \"#utility.yul\":13381:13386   */\n      dup4\n        /* \"#utility.yul\":13377:13393   */\n      add\n        /* \"#utility.yul\":13371:13394   */\n      mload\n        /* \"#utility.yul\":13407:13470   */\n      tag_451\n        /* \"#utility.yul\":13464:13468   */\n      0xe0\n        /* \"#utility.yul\":13459:13462   */\n      dup7\n        /* \"#utility.yul\":13455:13469   */\n      add\n        /* \"#utility.yul\":13441:13453   */\n      dup3\n        /* \"#utility.yul\":13407:13470   */\n      tag_247\n      jump\t// in\n    tag_451:\n        /* \"#utility.yul\":13309:13480   */\n      pop\n        /* \"#utility.yul\":13497:13501   */\n      dup1\n        /* \"#utility.yul\":13490:13501   */\n      swap2\n      pop\n        /* \"#utility.yul\":11882:13507   */\n      pop\n        /* \"#utility.yul\":11768:13507   */\n      swap3\n      swap2\n      pop\n      pop\n      jump\t// out\n        /* \"#utility.yul\":13513:13866   */\n    tag_37:\n        /* \"#utility.yul\":13646:13650   */\n      0x00\n        /* \"#utility.yul\":13684:13686   */\n      0x20\n        /* \"#utility.yul\":13673:13682   */\n      dup3\n        /* \"#utility.yul\":13669:13687   */\n      add\n        /* \"#utility.yul\":13661:13687   */\n      swap1\n      pop\n        /* \"#utility.yul\":13733:13742   */\n      dup2\n        /* \"#utility.yul\":13727:13731   */\n      dup2\n        /* \"#utility.yul\":13723:13743   */\n      sub\n        /* \"#utility.yul\":13719:13720   */\n      0x00\n        /* \"#utility.yul\":13708:13717   */\n      dup4\n        /* \"#utility.yul\":13704:13721   */\n      add\n        /* \"#utility.yul\":13697:13744   */\n      mstore\n        /* \"#utility.yul\":13761:13859   */\n      tag_453\n        /* \"#utility.yul\":13854:13858   */\n      dup2\n        /* \"#utility.yul\":13845:13851   */\n      dup5\n        /* \"#utility.yul\":13761:13859   */\n      tag_261\n      jump\t// in\n    tag_453:\n        /* \"#utility.yul\":13753:13859   */\n      swap1\n      pop\n        /* \"#utility.yul\":13513:13866   */\n      swap3\n      swap2\n      pop\n      pop\n      jump\t// out\n        /* \"#utility.yul\":13872:13990   */\n    tag_262:\n        /* \"#utility.yul\":13959:13983   */\n      tag_455\n        /* \"#utility.yul\":13977:13982   */\n      dup2\n        /* \"#utility.yul\":13959:13983   */\n      tag_246\n      jump\t// in\n    tag_455:\n        /* \"#utility.yul\":13954:13957   */\n      dup3\n        /* \"#utility.yul\":13947:13984   */\n      mstore\n        /* \"#utility.yul\":13872:13990   */\n      pop\n      pop\n      jump\t// out\n        /* \"#utility.yul\":13996:14218   */\n    tag_44:\n        /* \"#utility.yul\":14089:14093   */\n      0x00\n        /* \"#utility.yul\":14127:14129   */\n      0x20\n        /* \"#utility.yul\":14116:14125   */\n      dup3\n        /* \"#utility.yul\":14112:14130   */\n      add\n        /* \"#utility.yul\":14104:14130   */\n      swap1\n      pop\n        /* \"#utility.yul\":14140:14211   */\n      tag_457\n        /* \"#utility.yul\":14208:14209   */\n      0x00\n        /* \"#utility.yul\":14197:14206   */\n      dup4\n        /* \"#utility.yul\":14193:14210   */\n      add\n        /* \"#utility.yul\":14184:14190   */\n      dup5\n        /* \"#utility.yul\":14140:14211   */\n      tag_262\n      jump\t// in\n    tag_457:\n        /* \"#utility.yul\":13996:14218   */\n      swap3\n      swap2\n      pop\n      pop\n      jump\t// out\n        /* \"#utility.yul\":14224:14393   */\n    tag_263:\n        /* \"#utility.yul\":14308:14319   */\n      0x00\n        /* \"#utility.yul\":14342:14348   */\n      dup3\n        /* \"#utility.yul\":14337:14340   */\n      dup3\n        /* \"#utility.yul\":14330:14349   */\n      mstore\n        /* \"#utility.yul\":14382:14386   */\n      0x20\n        /* \"#utility.yul\":14377:14380   */\n      dup3\n        /* \"#utility.yul\":14373:14387   */\n      add\n        /* \"#utility.yul\":14358:14387   */\n      swap1\n      pop\n        /* \"#utility.yul\":14224:14393   */\n      swap3\n      swap2\n      pop\n      pop\n      jump\t// out\n        /* \"#utility.yul\":14399:14776   */\n    tag_264:\n        /* \"#utility.yul\":14487:14490   */\n      0x00\n        /* \"#utility.yul\":14515:14554   */\n      tag_460\n        /* \"#utility.yul\":14548:14553   */\n      dup3\n        /* \"#utility.yul\":14515:14554   */\n      tag_248\n      jump\t// in\n    tag_460:\n        /* \"#utility.yul\":14570:14641   */\n      tag_461\n        /* \"#utility.yul\":14634:14640   */\n      dup2\n        /* \"#utility.yul\":14629:14632   */\n      dup6\n        /* \"#utility.yul\":14570:14641   */\n      tag_263\n      jump\t// in\n    tag_461:\n        /* \"#utility.yul\":14563:14641   */\n      swap4\n      pop\n        /* \"#utility.yul\":14650:14715   */\n      tag_462\n        /* \"#utility.yul\":14708:14714   */\n      dup2\n        /* \"#utility.yul\":14703:14706   */\n      dup6\n        /* \"#utility.yul\":14696:14700   */\n      0x20\n        /* \"#utility.yul\":14689:14694   */\n      dup7\n        /* \"#utility.yul\":14685:14701   */\n      add\n        /* \"#utility.yul\":14650:14715   */\n      tag_250\n      jump\t// in\n    tag_462:\n        /* \"#utility.yul\":14740:14769   */\n      tag_463\n        /* \"#utility.yul\":14762:14768   */\n      dup2\n        /* \"#utility.yul\":14740:14769   */\n      tag_236\n      jump\t// in\n    tag_463:\n        /* \"#utility.yul\":14735:14738   */\n      dup5\n        /* \"#utility.yul\":14731:14770   */\n      add\n        /* \"#utility.yul\":14724:14770   */\n      swap2\n      pop\n        /* \"#utility.yul\":14491:14776   */\n      pop\n        /* \"#utility.yul\":14399:14776   */\n      swap3\n      swap2\n      pop\n      pop\n      jump\t// out\n        /* \"#utility.yul\":14782:14900   */\n    tag_265:\n        /* \"#utility.yul\":14869:14893   */\n      tag_465\n        /* \"#utility.yul\":14887:14892   */\n      dup2\n        /* \"#utility.yul\":14869:14893   */\n      tag_231\n      jump\t// in\n    tag_465:\n        /* \"#utility.yul\":14864:14867   */\n      dup3\n        /* \"#utility.yul\":14857:14894   */\n      mstore\n        /* \"#utility.yul\":14782:14900   */\n      pop\n      pop\n      jump\t// out\n        /* \"#utility.yul\":14906:15015   */\n    tag_266:\n        /* \"#utility.yul\":14987:15008   */\n      tag_467\n        /* \"#utility.yul\":15002:15007   */\n      dup2\n        /* \"#utility.yul\":14987:15008   */\n      tag_253\n      jump\t// in\n    tag_467:\n        /* \"#utility.yul\":14982:14985   */\n      dup3\n        /* \"#utility.yul\":14975:15009   */\n      mstore\n        /* \"#utility.yul\":14906:15015   */\n      pop\n      pop\n      jump\t// out\n        /* \"#utility.yul\":15021:16188   */\n    tag_49:\n        /* \"#utility.yul\":15344:15348   */\n      0x00\n        /* \"#utility.yul\":15382:15385   */\n      0x0100\n        /* \"#utility.yul\":15371:15380   */\n      dup3\n        /* \"#utility.yul\":15367:15386   */\n      add\n        /* \"#utility.yul\":15359:15386   */\n      swap1\n      pop\n        /* \"#utility.yul\":15396:15467   */\n      tag_469\n        /* \"#utility.yul\":15464:15465   */\n      0x00\n        /* \"#utility.yul\":15453:15462   */\n      dup4\n        /* \"#utility.yul\":15449:15466   */\n      add\n        /* \"#utility.yul\":15440:15446   */\n      dup12\n        /* \"#utility.yul\":15396:15467   */\n      tag_262\n      jump\t// in\n    tag_469:\n        /* \"#utility.yul\":15514:15523   */\n      dup2\n        /* \"#utility.yul\":15508:15512   */\n      dup2\n        /* \"#utility.yul\":15504:15524   */\n      sub\n        /* \"#utility.yul\":15499:15501   */\n      0x20\n        /* \"#utility.yul\":15488:15497   */\n      dup4\n        /* \"#utility.yul\":15484:15502   */\n      add\n        /* \"#utility.yul\":15477:15525   */\n      mstore\n        /* \"#utility.yul\":15542:15620   */\n      tag_470\n        /* \"#utility.yul\":15615:15619   */\n      dup2\n        /* \"#utility.yul\":15606:15612   */\n      dup11\n        /* \"#utility.yul\":15542:15620   */\n      tag_264\n      jump\t// in\n    tag_470:\n        /* \"#utility.yul\":15534:15620   */\n      swap1\n      pop\n        /* \"#utility.yul\":15667:15676   */\n      dup2\n        /* \"#utility.yul\":15661:15665   */\n      dup2\n        /* \"#utility.yul\":15657:15677   */\n      sub\n        /* \"#utility.yul\":15652:15654   */\n      0x40\n        /* \"#utility.yul\":15641:15650   */\n      dup4\n        /* \"#utility.yul\":15637:15655   */\n      add\n        /* \"#utility.yul\":15630:15678   */\n      mstore\n        /* \"#utility.yul\":15695:15773   */\n      tag_471\n        /* \"#utility.yul\":15768:15772   */\n      dup2\n        /* \"#utility.yul\":15759:15765   */\n      dup10\n        /* \"#utility.yul\":15695:15773   */\n      tag_264\n      jump\t// in\n    tag_471:\n        /* \"#utility.yul\":15687:15773   */\n      swap1\n      pop\n        /* \"#utility.yul\":15783:15855   */\n      tag_472\n        /* \"#utility.yul\":15851:15853   */\n      0x60\n        /* \"#utility.yul\":15840:15849   */\n      dup4\n        /* \"#utility.yul\":15836:15854   */\n      add\n        /* \"#utility.yul\":15827:15833   */\n      dup9\n        /* \"#utility.yul\":15783:15855   */\n      tag_262\n      jump\t// in\n    tag_472:\n        /* \"#utility.yul\":15865:15938   */\n      tag_473\n        /* \"#utility.yul\":15933:15936   */\n      0x80\n        /* \"#utility.yul\":15922:15931   */\n      dup4\n        /* \"#utility.yul\":15918:15937   */\n      add\n        /* \"#utility.yul\":15909:15915   */\n      dup8\n        /* \"#utility.yul\":15865:15938   */\n      tag_262\n      jump\t// in\n    tag_473:\n        /* \"#utility.yul\":15948:16021   */\n      tag_474\n        /* \"#utility.yul\":16016:16019   */\n      0xa0\n        /* \"#utility.yul\":16005:16014   */\n      dup4\n        /* \"#utility.yul\":16001:16020   */\n      add\n        /* \"#utility.yul\":15992:15998   */\n      dup7\n        /* \"#utility.yul\":15948:16021   */\n      tag_265\n      jump\t// in\n    tag_474:\n        /* \"#utility.yul\":16031:16098   */\n      tag_475\n        /* \"#utility.yul\":16093:16096   */\n      0xc0\n        /* \"#utility.yul\":16082:16091   */\n      dup4\n        /* \"#utility.yul\":16078:16097   */\n      add\n        /* \"#utility.yul\":16069:16075   */\n      dup6\n        /* \"#utility.yul\":16031:16098   */\n      tag_266\n      jump\t// in\n    tag_475:\n        /* \"#utility.yul\":16108:16181   */\n      tag_476\n        /* \"#utility.yul\":16176:16179   */\n      0xe0\n        /* \"#utility.yul\":16165:16174   */\n      dup4\n        /* \"#utility.yul\":16161:16180   */\n      add\n        /* \"#utility.yul\":16152:16158   */\n      dup5\n        /* \"#utility.yul\":16108:16181   */\n      tag_262\n      jump\t// in\n    tag_476:\n        /* \"#utility.yul\":15021:16188   */\n      swap10\n      swap9\n      pop\n      pop\n      pop\n      pop\n      pop\n      pop\n      pop\n      pop\n      pop\n      jump\t// out\n        /* \"#utility.yul\":16194:16507   */\n    tag_56:\n        /* \"#utility.yul\":16307:16311   */\n      0x00\n        /* \"#utility.yul\":16345:16347   */\n      0x20\n        /* \"#utility.yul\":16334:16343   */\n      dup3\n        /* \"#utility.yul\":16330:16348   */\n      add\n        /* \"#utility.yul\":16322:16348   */\n      swap1\n      pop\n        /* \"#utility.yul\":16394:16403   */\n      dup2\n        /* \"#utility.yul\":16388:16392   */\n      dup2\n        /* \"#utility.yul\":16384:16404   */\n      sub\n        /* \"#utility.yul\":16380:16381   */\n      0x00\n        /* \"#utility.yul\":16369:16378   */\n      dup4\n        /* \"#utility.yul\":16365:16382   */\n      add\n        /* \"#utility.yul\":16358:16405   */\n      mstore\n        /* \"#utility.yul\":16422:16500   */\n      tag_478\n        /* \"#utility.yul\":16495:16499   */\n      dup2\n        /* \"#utility.yul\":16486:16492   */\n      dup5\n        /* \"#utility.yul\":16422:16500   */\n      tag_264\n      jump\t// in\n    tag_478:\n        /* \"#utility.yul\":16414:16500   */\n      swap1\n      pop\n        /* \"#utility.yul\":16194:16507   */\n      swap3\n      swap2\n      pop\n      pop\n      jump\t// out\n        /* \"#utility.yul\":16513:16637   */\n    tag_267:\n        /* \"#utility.yul\":16590:16596   */\n      0x00\n        /* \"#utility.yul\":16624:16629   */\n      dup2\n        /* \"#utility.yul\":16618:16630   */\n      mload\n        /* \"#utility.yul\":16608:16630   */\n      swap1\n      pop\n        /* \"#utility.yul\":16513:16637   */\n      swap2\n      swap1\n      pop\n      jump\t// out\n        /* \"#utility.yul\":16643:16837   */\n    tag_268:\n        /* \"#utility.yul\":16752:16763   */\n      0x00\n        /* \"#utility.yul\":16786:16792   */\n      dup3\n        /* \"#utility.yul\":16781:16784   */\n      dup3\n        /* \"#utility.yul\":16774:16793   */\n      mstore\n        /* \"#utility.yul\":16826:16830   */\n      0x20\n        /* \"#utility.yul\":16821:16824   */\n      dup3\n        /* \"#utility.yul\":16817:16831   */\n      add\n        /* \"#utility.yul\":16802:16831   */\n      swap1\n      pop\n        /* \"#utility.yul\":16643:16837   */\n      swap3\n      swap2\n      pop\n      pop\n      jump\t// out\n        /* \"#utility.yul\":16843:16985   */\n    tag_269:\n        /* \"#utility.yul\":16920:16924   */\n      0x00\n        /* \"#utility.yul\":16943:16946   */\n      dup2\n        /* \"#utility.yul\":16935:16946   */\n      swap1\n      pop\n        /* \"#utility.yul\":16973:16977   */\n      0x20\n        /* \"#utility.yul\":16968:16971   */\n      dup3\n        /* \"#utility.yul\":16964:16978   */\n      add\n        /* \"#utility.yul\":16956:16978   */\n      swap1\n      pop\n        /* \"#utility.yul\":16843:16985   */\n      swap2\n      swap1\n      pop\n      jump\t// out\n        /* \"#utility.yul\":16991:17187   */\n    tag_270:\n        /* \"#utility.yul\":17080:17090   */\n      0x00\n        /* \"#utility.yul\":17115:17181   */\n      tag_483\n        /* \"#utility.yul\":17177:17180   */\n      dup4\n        /* \"#utility.yul\":17169:17175   */\n      dup4\n        /* \"#utility.yul\":17115:17181   */\n      tag_251\n      jump\t// in\n    tag_483:\n        /* \"#utility.yul\":17101:17181   */\n      swap1\n      pop\n        /* \"#utility.yul\":16991:17187   */\n      swap3\n      swap2\n      pop\n      pop\n      jump\t// out\n        /* \"#utility.yul\":17193:17316   */\n    tag_271:\n        /* \"#utility.yul\":17273:17277   */\n      0x00\n        /* \"#utility.yul\":17305:17309   */\n      0x20\n        /* \"#utility.yul\":17300:17303   */\n      dup3\n        /* \"#utility.yul\":17296:17310   */\n      add\n        /* \"#utility.yul\":17288:17310   */\n      swap1\n      pop\n        /* \"#utility.yul\":17193:17316   */\n      swap2\n      swap1\n      pop\n      jump\t// out\n        /* \"#utility.yul\":17350:18341   */\n    tag_272:\n        /* \"#utility.yul\":17489:17492   */\n      0x00\n        /* \"#utility.yul\":17518:17582   */\n      tag_486\n        /* \"#utility.yul\":17576:17581   */\n      dup3\n        /* \"#utility.yul\":17518:17582   */\n      tag_267\n      jump\t// in\n    tag_486:\n        /* \"#utility.yul\":17598:17694   */\n      tag_487\n        /* \"#utility.yul\":17687:17693   */\n      dup2\n        /* \"#utility.yul\":17682:17685   */\n      dup6\n        /* \"#utility.yul\":17598:17694   */\n      tag_268\n      jump\t// in\n    tag_487:\n        /* \"#utility.yul\":17591:17694   */\n      swap4\n      pop\n        /* \"#utility.yul\":17720:17723   */\n      dup4\n        /* \"#utility.yul\":17765:17769   */\n      0x20\n        /* \"#utility.yul\":17757:17763   */\n      dup3\n        /* \"#utility.yul\":17753:17770   */\n      mul\n        /* \"#utility.yul\":17748:17751   */\n      dup6\n        /* \"#utility.yul\":17744:17771   */\n      add\n        /* \"#utility.yul\":17795:17861   */\n      tag_488\n        /* \"#utility.yul\":17855:17860   */\n      dup6\n        /* \"#utility.yul\":17795:17861   */\n      tag_269\n      jump\t// in\n    tag_488:\n        /* \"#utility.yul\":17884:17891   */\n      dup1\n        /* \"#utility.yul\":17915:17916   */\n      0x00\n        /* \"#utility.yul\":17900:18296   */\n    tag_489:\n        /* \"#utility.yul\":17925:17931   */\n      dup6\n        /* \"#utility.yul\":17922:17923   */\n      dup2\n        /* \"#utility.yul\":17919:17932   */\n      lt\n        /* \"#utility.yul\":17900:18296   */\n      iszero\n      tag_491\n      jumpi\n        /* \"#utility.yul\":17996:18005   */\n      dup5\n        /* \"#utility.yul\":17990:17994   */\n      dup5\n        /* \"#utility.yul\":17986:18006   */\n      sub\n        /* \"#utility.yul\":17981:17984   */\n      dup10\n        /* \"#utility.yul\":17974:18007   */\n      mstore\n        /* \"#utility.yul\":18047:18053   */\n      dup2\n        /* \"#utility.yul\":18041:18054   */\n      mload\n        /* \"#utility.yul\":18075:18159   */\n      tag_492\n        /* \"#utility.yul\":18154:18158   */\n      dup6\n        /* \"#utility.yul\":18139:18152   */\n      dup3\n        /* \"#utility.yul\":18075:18159   */\n      tag_270\n      jump\t// in\n    tag_492:\n        /* \"#utility.yul\":18067:18159   */\n      swap5\n      pop\n        /* \"#utility.yul\":18182:18252   */\n      tag_493\n        /* \"#utility.yul\":18245:18251   */\n      dup4\n        /* \"#utility.yul\":18182:18252   */\n      tag_271\n      jump\t// in\n    tag_493:\n        /* \"#utility.yul\":18172:18252   */\n      swap3\n      pop\n        /* \"#utility.yul\":18281:18285   */\n      0x20\n        /* \"#utility.yul\":18276:18279   */\n      dup11\n        /* \"#utility.yul\":18272:18286   */\n      add\n        /* \"#utility.yul\":18265:18286   */\n      swap10\n      pop\n        /* \"#utility.yul\":17960:18296   */\n      pop\n        /* \"#utility.yul\":17947:17948   */\n      0x01\n        /* \"#utility.yul\":17944:17945   */\n      dup2\n        /* \"#utility.yul\":17940:17949   */\n      add\n        /* \"#utility.yul\":17935:17949   */\n      swap1\n      pop\n        /* \"#utility.yul\":17900:18296   */\n      jump(tag_489)\n    tag_491:\n        /* \"#utility.yul\":17904:17918   */\n      pop\n        /* \"#utility.yul\":18312:18316   */\n      dup3\n        /* \"#utility.yul\":18305:18316   */\n      swap8\n      pop\n        /* \"#utility.yul\":18332:18335   */\n      dup8\n        /* \"#utility.yul\":18325:18335   */\n      swap6\n      pop\n        /* \"#utility.yul\":17494:18341   */\n      pop\n      pop\n      pop\n      pop\n      pop\n        /* \"#utility.yul\":17350:18341   */\n      swap3\n      swap2\n      pop\n      pop\n      jump\t// out\n        /* \"#utility.yul\":18347:18760   */\n    tag_63:\n        /* \"#utility.yul\":18510:18514   */\n      0x00\n        /* \"#utility.yul\":18548:18550   */\n      0x20\n        /* \"#utility.yul\":18537:18546   */\n      dup3\n        /* \"#utility.yul\":18533:18551   */\n      add\n        /* \"#utility.yul\":18525:18551   */\n      swap1\n      pop\n        /* \"#utility.yul\":18597:18606   */\n      dup2\n        /* \"#utility.yul\":18591:18595   */\n      dup2\n        /* \"#utility.yul\":18587:18607   */\n      sub\n        /* \"#utility.yul\":18583:18584   */\n      0x00\n        /* \"#utility.yul\":18572:18581   */\n      dup4\n        /* \"#utility.yul\":18568:18585   */\n      add\n        /* \"#utility.yul\":18561:18608   */\n      mstore\n        /* \"#utility.yul\":18625:18753   */\n      tag_495\n        /* \"#utility.yul\":18748:18752   */\n      dup2\n        /* \"#utility.yul\":18739:18745   */\n      dup5\n        /* \"#utility.yul\":18625:18753   */\n      tag_272\n      jump\t// in\n    tag_495:\n        /* \"#utility.yul\":18617:18753   */\n      swap1\n      pop\n        /* \"#utility.yul\":18347:18760   */\n      swap3\n      swap2\n      pop\n      pop\n      jump\t// out\n        /* \"#utility.yul\":18766:18946   */\n    tag_273:\n        /* \"#utility.yul\":18814:18891   */\n      0x4e487b7100000000000000000000000000000000000000000000000000000000\n        /* \"#utility.yul\":18811:18812   */\n      0x00\n        /* \"#utility.yul\":18804:18892   */\n      mstore\n        /* \"#utility.yul\":18911:18915   */\n      0x22\n        /* \"#utility.yul\":18908:18909   */\n      0x04\n        /* \"#utility.yul\":18901:18916   */\n      mstore\n        /* \"#utility.yul\":18935:18939   */\n      0x24\n        /* \"#utility.yul\":18932:18933   */\n      0x00\n        /* \"#utility.yul\":18925:18940   */\n      revert\n        /* \"#utility.yul\":18952:19272   */\n    tag_102:\n        /* \"#utility.yul\":18996:19002   */\n      0x00\n        /* \"#utility.yul\":19033:19034   */\n      0x02\n        /* \"#utility.yul\":19027:19031   */\n      dup3\n        /* \"#utility.yul\":19023:19035   */\n      div\n        /* \"#utility.yul\":19013:19035   */\n      swap1\n      pop\n        /* \"#utility.yul\":19080:19081   */\n      0x01\n        /* \"#utility.yul\":19074:19078   */\n      dup3\n        /* \"#utility.yul\":19070:19082   */\n      and\n        /* \"#utility.yul\":19101:19119   */\n      dup1\n        /* \"#utility.yul\":19091:19172   */\n      tag_498\n      jumpi\n        /* \"#utility.yul\":19157:19161   */\n      0x7f\n        /* \"#utility.yul\":19149:19155   */\n      dup3\n        /* \"#utility.yul\":19145:19162   */\n      and\n        /* \"#utility.yul\":19135:19162   */\n      swap2\n      pop\n        /* \"#utility.yul\":19091:19172   */\n    tag_498:\n        /* \"#utility.yul\":19219:19221   */\n      0x20\n        /* \"#utility.yul\":19211:19217   */\n      dup3\n        /* \"#utility.yul\":19208:19222   */\n      lt\n        /* \"#utility.yul\":19188:19206   */\n      dup2\n        /* \"#utility.yul\":19185:19223   */\n      sub\n        /* \"#utility.yul\":19182:19266   */\n      tag_499\n      jumpi\n        /* \"#utility.yul\":19238:19256   */\n      tag_500\n      tag_273\n      jump\t// in\n    tag_500:\n        /* \"#utility.yul\":19182:19266   */\n    tag_499:\n        /* \"#utility.yul\":19003:19272   */\n      pop\n        /* \"#utility.yul\":18952:19272   */\n      swap2\n      swap1\n      pop\n      jump\t// out\n        /* \"#utility.yul\":19278:19425   */\n    tag_274:\n        /* \"#utility.yul\":19379:19390   */\n      0x00\n        /* \"#utility.yul\":19416:19419   */\n      dup2\n        /* \"#utility.yul\":19401:19419   */\n      swap1\n      pop\n        /* \"#utility.yul\":19278:19425   */\n      swap3\n      swap2\n      pop\n      pop\n      jump\t// out\n        /* \"#utility.yul\":19431:19575   */\n    tag_275:\n        /* \"#utility.yul\":19483:19487   */\n      0x00\n        /* \"#utility.yul\":19506:19509   */\n      dup2\n        /* \"#utility.yul\":19498:19509   */\n      swap1\n      pop\n        /* \"#utility.yul\":19529:19532   */\n      dup2\n        /* \"#utility.yul\":19526:19527   */\n      0x00\n        /* \"#utility.yul\":19519:19533   */\n      mstore\n        /* \"#utility.yul\":19563:19567   */\n      0x20\n        /* \"#utility.yul\":19560:19561   */\n      0x00\n        /* \"#utility.yul\":19550:19568   */\n      keccak256\n        /* \"#utility.yul\":19542:19568   */\n      swap1\n      pop\n        /* \"#utility.yul\":19431:19575   */\n      swap2\n      swap1\n      pop\n      jump\t// out\n        /* \"#utility.yul\":19603:20481   */\n    tag_276:\n        /* \"#utility.yul\":19708:19711   */\n      0x00\n        /* \"#utility.yul\":19745:19750   */\n      dup2\n        /* \"#utility.yul\":19739:19751   */\n      sload\n        /* \"#utility.yul\":19774:19810   */\n      tag_504\n        /* \"#utility.yul\":19800:19809   */\n      dup2\n        /* \"#utility.yul\":19774:19810   */\n      tag_102\n      jump\t// in\n    tag_504:\n        /* \"#utility.yul\":19826:19914   */\n      tag_505\n        /* \"#utility.yul\":19907:19913   */\n      dup2\n        /* \"#utility.yul\":19902:19905   */\n      dup7\n        /* \"#utility.yul\":19826:19914   */\n      tag_274\n      jump\t// in\n    tag_505:\n        /* \"#utility.yul\":19819:19914   */\n      swap5\n      pop\n        /* \"#utility.yul\":19945:19946   */\n      0x01\n        /* \"#utility.yul\":19934:19943   */\n      dup3\n        /* \"#utility.yul\":19930:19947   */\n      and\n        /* \"#utility.yul\":19961:19962   */\n      0x00\n        /* \"#utility.yul\":19956:20122   */\n      dup2\n      eq\n      tag_507\n      jumpi\n        /* \"#utility.yul\":20136:20137   */\n      0x01\n        /* \"#utility.yul\":20131:20475   */\n      dup2\n      eq\n      tag_508\n      jumpi\n        /* \"#utility.yul\":19923:20475   */\n      jump(tag_506)\n        /* \"#utility.yul\":19956:20122   */\n    tag_507:\n        /* \"#utility.yul\":20040:20044   */\n      0xff\n        /* \"#utility.yul\":20036:20045   */\n      not\n        /* \"#utility.yul\":20025:20034   */\n      dup4\n        /* \"#utility.yul\":20021:20046   */\n      and\n        /* \"#utility.yul\":20016:20019   */\n      dup7\n        /* \"#utility.yul\":20009:20047   */\n      mstore\n        /* \"#utility.yul\":20102:20108   */\n      dup2\n        /* \"#utility.yul\":20095:20109   */\n      iszero\n        /* \"#utility.yul\":20088:20110   */\n      iszero\n        /* \"#utility.yul\":20080:20086   */\n      dup3\n        /* \"#utility.yul\":20076:20111   */\n      mul\n        /* \"#utility.yul\":20071:20074   */\n      dup7\n        /* \"#utility.yul\":20067:20112   */\n      add\n        /* \"#utility.yul\":20060:20112   */\n      swap4\n      pop\n        /* \"#utility.yul\":19956:20122   */\n      jump(tag_506)\n        /* \"#utility.yul\":20131:20475   */\n    tag_508:\n        /* \"#utility.yul\":20198:20239   */\n      tag_509\n        /* \"#utility.yul\":20233:20238   */\n      dup6\n        /* \"#utility.yul\":20198:20239   */\n      tag_275\n      jump\t// in\n    tag_509:\n        /* \"#utility.yul\":20261:20262   */\n      0x00\n        /* \"#utility.yul\":20275:20429   */\n    tag_510:\n        /* \"#utility.yul\":20289:20295   */\n      dup4\n        /* \"#utility.yul\":20286:20287   */\n      dup2\n        /* \"#utility.yul\":20283:20296   */\n      lt\n        /* \"#utility.yul\":20275:20429   */\n      iszero\n      tag_512\n      jumpi\n        /* \"#utility.yul\":20363:20370   */\n      dup2\n        /* \"#utility.yul\":20357:20371   */\n      sload\n        /* \"#utility.yul\":20353:20354   */\n      dup2\n        /* \"#utility.yul\":20348:20351   */\n      dup10\n        /* \"#utility.yul\":20344:20355   */\n      add\n        /* \"#utility.yul\":20337:20372   */\n      mstore\n        /* \"#utility.yul\":20413:20414   */\n      0x01\n        /* \"#utility.yul\":20404:20411   */\n      dup3\n        /* \"#utility.yul\":20400:20415   */\n      add\n        /* \"#utility.yul\":20389:20415   */\n      swap2\n      pop\n        /* \"#utility.yul\":20311:20315   */\n      0x20\n        /* \"#utility.yul\":20308:20309   */\n      dup2\n        /* \"#utility.yul\":20304:20316   */\n      add\n        /* \"#utility.yul\":20299:20316   */\n      swap1\n      pop\n        /* \"#utility.yul\":20275:20429   */\n      jump(tag_510)\n    tag_512:\n        /* \"#utility.yul\":20458:20464   */\n      dup4\n        /* \"#utility.yul\":20453:20456   */\n      dup9\n        /* \"#utility.yul\":20449:20465   */\n      add\n        /* \"#utility.yul\":20442:20465   */\n      swap6\n      pop\n        /* \"#utility.yul\":20138:20475   */\n      pop\n      pop\n        /* \"#utility.yul\":19923:20475   */\n    tag_506:\n      pop\n        /* \"#utility.yul\":19712:20481   */\n      pop\n      pop\n        /* \"#utility.yul\":19603:20481   */\n      swap3\n      swap2\n      pop\n      pop\n      jump\t// out\n        /* \"#utility.yul\":20487:20760   */\n    tag_66:\n        /* \"#utility.yul\":20618:20621   */\n      0x00\n        /* \"#utility.yul\":20640:20734   */\n      tag_514\n        /* \"#utility.yul\":20730:20733   */\n      dup3\n        /* \"#utility.yul\":20721:20727   */\n      dup5\n        /* \"#utility.yul\":20640:20734   */\n      tag_276\n      jump\t// in\n    tag_514:\n        /* \"#utility.yul\":20633:20734   */\n      swap2\n      pop\n        /* \"#utility.yul\":20751:20754   */\n      dup2\n        /* \"#utility.yul\":20744:20754   */\n      swap1\n      pop\n        /* \"#utility.yul\":20487:20760   */\n      swap3\n      swap2\n      pop\n      pop\n      jump\t// out\n        /* \"#utility.yul\":20766:20935   */\n    tag_277:\n        /* \"#utility.yul\":20906:20927   */\n      0x556e617574686f72697a656420616374696f6e00000000000000000000000000\n        /* \"#utility.yul\":20902:20903   */\n      0x00\n        /* \"#utility.yul\":20894:20900   */\n      dup3\n        /* \"#utility.yul\":20890:20904   */\n      add\n        /* \"#utility.yul\":20883:20928   */\n      mstore\n        /* \"#utility.yul\":20766:20935   */\n      pop\n      jump\t// out\n        /* \"#utility.yul\":20941:21307   */\n    tag_278:\n        /* \"#utility.yul\":21083:21086   */\n      0x00\n        /* \"#utility.yul\":21104:21171   */\n      tag_517\n        /* \"#utility.yul\":21168:21170   */\n      0x13\n        /* \"#utility.yul\":21163:21166   */\n      dup4\n        /* \"#utility.yul\":21104:21171   */\n      tag_263\n      jump\t// in\n    tag_517:\n        /* \"#utility.yul\":21097:21171   */\n      swap2\n      pop\n        /* \"#utility.yul\":21180:21273   */\n      tag_518\n        /* \"#utility.yul\":21269:21272   */\n      dup3\n        /* \"#utility.yul\":21180:21273   */\n      tag_277\n      jump\t// in\n    tag_518:\n        /* \"#utility.yul\":21298:21300   */\n      0x20\n        /* \"#utility.yul\":21293:21296   */\n      dup3\n        /* \"#utility.yul\":21289:21301   */\n      add\n        /* \"#utility.yul\":21282:21301   */\n      swap1\n      pop\n        /* \"#utility.yul\":20941:21307   */\n      swap2\n      swap1\n      pop\n      jump\t// out\n        /* \"#utility.yul\":21313:21732   */\n    tag_69:\n        /* \"#utility.yul\":21479:21483   */\n      0x00\n        /* \"#utility.yul\":21517:21519   */\n      0x20\n        /* \"#utility.yul\":21506:21515   */\n      dup3\n        /* \"#utility.yul\":21502:21520   */\n      add\n        /* \"#utility.yul\":21494:21520   */\n      swap1\n      pop\n        /* \"#utility.yul\":21566:21575   */\n      dup2\n        /* \"#utility.yul\":21560:21564   */\n      dup2\n        /* \"#utility.yul\":21556:21576   */\n      sub\n        /* \"#utility.yul\":21552:21553   */\n      0x00\n        /* \"#utility.yul\":21541:21550   */\n      dup4\n        /* \"#utility.yul\":21537:21554   */\n      add\n        /* \"#utility.yul\":21530:21577   */\n      mstore\n        /* \"#utility.yul\":21594:21725   */\n      tag_520\n        /* \"#utility.yul\":21720:21724   */\n      dup2\n        /* \"#utility.yul\":21594:21725   */\n      tag_278\n      jump\t// in\n    tag_520:\n        /* \"#utility.yul\":21586:21725   */\n      swap1\n      pop\n        /* \"#utility.yul\":21313:21732   */\n      swap2\n      swap1\n      pop\n      jump\t// out\n        /* \"#utility.yul\":21738:21963   */\n    tag_279:\n        /* \"#utility.yul\":21878:21912   */\n      0x4e6f206578697374696e672044494420666f756e6420666f7220746869732061\n        /* \"#utility.yul\":21874:21875   */\n      0x00\n        /* \"#utility.yul\":21866:21872   */\n      dup3\n        /* \"#utility.yul\":21862:21876   */\n      add\n        /* \"#utility.yul\":21855:21913   */\n      mstore\n        /* \"#utility.yul\":21947:21955   */\n      0x6464726573730000000000000000000000000000000000000000000000000000\n        /* \"#utility.yul\":21942:21944   */\n      0x20\n        /* \"#utility.yul\":21934:21940   */\n      dup3\n        /* \"#utility.yul\":21930:21945   */\n      add\n        /* \"#utility.yul\":21923:21956   */\n      mstore\n        /* \"#utility.yul\":21738:21963   */\n      pop\n      jump\t// out\n        /* \"#utility.yul\":21969:22335   */\n    tag_280:\n        /* \"#utility.yul\":22111:22114   */\n      0x00\n        /* \"#utility.yul\":22132:22199   */\n      tag_523\n        /* \"#utility.yul\":22196:22198   */\n      0x26\n        /* \"#utility.yul\":22191:22194   */\n      dup4\n        /* \"#utility.yul\":22132:22199   */\n      tag_263\n      jump\t// in\n    tag_523:\n        /* \"#utility.yul\":22125:22199   */\n      swap2\n      pop\n        /* \"#utility.yul\":22208:22301   */\n      tag_524\n        /* \"#utility.yul\":22297:22300   */\n      dup3\n        /* \"#utility.yul\":22208:22301   */\n      tag_279\n      jump\t// in\n    tag_524:\n        /* \"#utility.yul\":22326:22328   */\n      0x40\n        /* \"#utility.yul\":22321:22324   */\n      dup3\n        /* \"#utility.yul\":22317:22329   */\n      add\n        /* \"#utility.yul\":22310:22329   */\n      swap1\n      pop\n        /* \"#utility.yul\":21969:22335   */\n      swap2\n      swap1\n      pop\n      jump\t// out\n        /* \"#utility.yul\":22341:22760   */\n    tag_73:\n        /* \"#utility.yul\":22507:22511   */\n      0x00\n        /* \"#utility.yul\":22545:22547   */\n      0x20\n        /* \"#utility.yul\":22534:22543   */\n      dup3\n        /* \"#utility.yul\":22530:22548   */\n      add\n        /* \"#utility.yul\":22522:22548   */\n      swap1\n      pop\n        /* \"#utility.yul\":22594:22603   */\n      dup2\n        /* \"#utility.yul\":22588:22592   */\n      dup2\n        /* \"#utility.yul\":22584:22604   */\n      sub\n        /* \"#utility.yul\":22580:22581   */\n      0x00\n        /* \"#utility.yul\":22569:22578   */\n      dup4\n        /* \"#utility.yul\":22565:22582   */\n      add\n        /* \"#utility.yul\":22558:22605   */\n      mstore\n        /* \"#utility.yul\":22622:22753   */\n      tag_526\n        /* \"#utility.yul\":22748:22752   */\n      dup2\n        /* \"#utility.yul\":22622:22753   */\n      tag_280\n      jump\t// in\n    tag_526:\n        /* \"#utility.yul\":22614:22753   */\n      swap1\n      pop\n        /* \"#utility.yul\":22341:22760   */\n      swap2\n      swap1\n      pop\n      jump\t// out\n        /* \"#utility.yul\":22766:22936   */\n    tag_281:\n        /* \"#utility.yul\":22906:22928   */\n      0x526f6c652063616e6e6f7420626520656d707479000000000000000000000000\n        /* \"#utility.yul\":22902:22903   */\n      0x00\n        /* \"#utility.yul\":22894:22900   */\n      dup3\n        /* \"#utility.yul\":22890:22904   */\n      add\n        /* \"#utility.yul\":22883:22929   */\n      mstore\n        /* \"#utility.yul\":22766:22936   */\n      pop\n      jump\t// out\n        /* \"#utility.yul\":22942:23308   */\n    tag_282:\n        /* \"#utility.yul\":23084:23087   */\n      0x00\n        /* \"#utility.yul\":23105:23172   */\n      tag_529\n        /* \"#utility.yul\":23169:23171   */\n      0x14\n        /* \"#utility.yul\":23164:23167   */\n      dup4\n        /* \"#utility.yul\":23105:23172   */\n      tag_263\n      jump\t// in\n    tag_529:\n        /* \"#utility.yul\":23098:23172   */\n      swap2\n      pop\n        /* \"#utility.yul\":23181:23274   */\n      tag_530\n        /* \"#utility.yul\":23270:23273   */\n      dup3\n        /* \"#utility.yul\":23181:23274   */\n      tag_281\n      jump\t// in\n    tag_530:\n        /* \"#utility.yul\":23299:23301   */\n      0x20\n        /* \"#utility.yul\":23294:23297   */\n      dup3\n        /* \"#utility.yul\":23290:23302   */\n      add\n        /* \"#utility.yul\":23283:23302   */\n      swap1\n      pop\n        /* \"#utility.yul\":22942:23308   */\n      swap2\n      swap1\n      pop\n      jump\t// out\n        /* \"#utility.yul\":23314:23733   */\n    tag_76:\n        /* \"#utility.yul\":23480:23484   */\n      0x00\n        /* \"#utility.yul\":23518:23520   */\n      0x20\n        /* \"#utility.yul\":23507:23516   */\n      dup3\n        /* \"#utility.yul\":23503:23521   */\n      add\n        /* \"#utility.yul\":23495:23521   */\n      swap1\n      pop\n        /* \"#utility.yul\":23567:23576   */\n      dup2\n        /* \"#utility.yul\":23561:23565   */\n      dup2\n        /* \"#utility.yul\":23557:23577   */\n      sub\n        /* \"#utility.yul\":23553:23554   */\n      0x00\n        /* \"#utility.yul\":23542:23551   */\n      dup4\n        /* \"#utility.yul\":23538:23555   */\n      add\n        /* \"#utility.yul\":23531:23578   */\n      mstore\n        /* \"#utility.yul\":23595:23726   */\n      tag_532\n        /* \"#utility.yul\":23721:23725   */\n      dup2\n        /* \"#utility.yul\":23595:23726   */\n      tag_282\n      jump\t// in\n    tag_532:\n        /* \"#utility.yul\":23587:23726   */\n      swap1\n      pop\n        /* \"#utility.yul\":23314:23733   */\n      swap2\n      swap1\n      pop\n      jump\t// out\n        /* \"#utility.yul\":23739:23833   */\n    tag_283:\n        /* \"#utility.yul\":23772:23780   */\n      0x00\n        /* \"#utility.yul\":23820:23825   */\n      dup2\n        /* \"#utility.yul\":23816:23818   */\n      0x60\n        /* \"#utility.yul\":23812:23826   */\n      shl\n        /* \"#utility.yul\":23791:23826   */\n      swap1\n      pop\n        /* \"#utility.yul\":23739:23833   */\n      swap2\n      swap1\n      pop\n      jump\t// out\n        /* \"#utility.yul\":23839:23933   */\n    tag_284:\n        /* \"#utility.yul\":23878:23885   */\n      0x00\n        /* \"#utility.yul\":23907:23927   */\n      tag_535\n        /* \"#utility.yul\":23921:23926   */\n      dup3\n        /* \"#utility.yul\":23907:23927   */\n      tag_283\n      jump\t// in\n    tag_535:\n        /* \"#utility.yul\":23896:23927   */\n      swap1\n      pop\n        /* \"#utility.yul\":23839:23933   */\n      swap2\n      swap1\n      pop\n      jump\t// out\n        /* \"#utility.yul\":23939:24039   */\n    tag_285:\n        /* \"#utility.yul\":23978:23985   */\n      0x00\n        /* \"#utility.yul\":24007:24033   */\n      tag_537\n        /* \"#utility.yul\":24027:24032   */\n      dup3\n        /* \"#utility.yul\":24007:24033   */\n      tag_284\n      jump\t// in\n    tag_537:\n        /* \"#utility.yul\":23996:24033   */\n      swap1\n      pop\n        /* \"#utility.yul\":23939:24039   */\n      swap2\n      swap1\n      pop\n      jump\t// out\n        /* \"#utility.yul\":24045:24202   */\n    tag_286:\n        /* \"#utility.yul\":24150:24195   */\n      tag_539\n        /* \"#utility.yul\":24170:24194   */\n      tag_540\n        /* \"#utility.yul\":24188:24193   */\n      dup3\n        /* \"#utility.yul\":24170:24194   */\n      tag_231\n      jump\t// in\n    tag_540:\n        /* \"#utility.yul\":24150:24195   */\n      tag_285\n      jump\t// in\n    tag_539:\n        /* \"#utility.yul\":24145:24148   */\n      dup3\n        /* \"#utility.yul\":24138:24196   */\n      mstore\n        /* \"#utility.yul\":24045:24202   */\n      pop\n      pop\n      jump\t// out\n        /* \"#utility.yul\":24208:24356   */\n    tag_287:\n        /* \"#utility.yul\":24310:24321   */\n      0x00\n        /* \"#utility.yul\":24347:24350   */\n      dup2\n        /* \"#utility.yul\":24332:24350   */\n      swap1\n      pop\n        /* \"#utility.yul\":24208:24356   */\n      swap3\n      swap2\n      pop\n      pop\n      jump\t// out\n        /* \"#utility.yul\":24362:24752   */\n    tag_288:\n        /* \"#utility.yul\":24468:24471   */\n      0x00\n        /* \"#utility.yul\":24496:24535   */\n      tag_543\n        /* \"#utility.yul\":24529:24534   */\n      dup3\n        /* \"#utility.yul\":24496:24535   */\n      tag_248\n      jump\t// in\n    tag_543:\n        /* \"#utility.yul\":24551:24640   */\n      tag_544\n        /* \"#utility.yul\":24633:24639   */\n      dup2\n        /* \"#utility.yul\":24628:24631   */\n      dup6\n        /* \"#utility.yul\":24551:24640   */\n      tag_287\n      jump\t// in\n    tag_544:\n        /* \"#utility.yul\":24544:24640   */\n      swap4\n      pop\n        /* \"#utility.yul\":24649:24714   */\n      tag_545\n        /* \"#utility.yul\":24707:24713   */\n      dup2\n        /* \"#utility.yul\":24702:24705   */\n      dup6\n        /* \"#utility.yul\":24695:24699   */\n      0x20\n        /* \"#utility.yul\":24688:24693   */\n      dup7\n        /* \"#utility.yul\":24684:24700   */\n      add\n        /* \"#utility.yul\":24649:24714   */\n      tag_250\n      jump\t// in\n    tag_545:\n        /* \"#utility.yul\":24739:24745   */\n      dup1\n        /* \"#utility.yul\":24734:24737   */\n      dup5\n        /* \"#utility.yul\":24730:24746   */\n      add\n        /* \"#utility.yul\":24723:24746   */\n      swap2\n      pop\n        /* \"#utility.yul\":24472:24752   */\n      pop\n        /* \"#utility.yul\":24362:24752   */\n      swap3\n      swap2\n      pop\n      pop\n      jump\t// out\n        /* \"#utility.yul\":24758:24837   */\n    tag_289:\n        /* \"#utility.yul\":24797:24804   */\n      0x00\n        /* \"#utility.yul\":24826:24831   */\n      dup2\n        /* \"#utility.yul\":24815:24831   */\n      swap1\n      pop\n        /* \"#utility.yul\":24758:24837   */\n      swap2\n      swap1\n      pop\n      jump\t// out\n        /* \"#utility.yul\":24843:25000   */\n    tag_290:\n        /* \"#utility.yul\":24948:24993   */\n      tag_548\n        /* \"#utility.yul\":24968:24992   */\n      tag_549\n        /* \"#utility.yul\":24986:24991   */\n      dup3\n        /* \"#utility.yul\":24968:24992   */\n      tag_246\n      jump\t// in\n    tag_549:\n        /* \"#utility.yul\":24948:24993   */\n      tag_289\n      jump\t// in\n    tag_548:\n        /* \"#utility.yul\":24943:24946   */\n      dup3\n        /* \"#utility.yul\":24936:24994   */\n      mstore\n        /* \"#utility.yul\":24843:25000   */\n      pop\n      pop\n      jump\t// out\n        /* \"#utility.yul\":25006:25704   */\n    tag_78:\n        /* \"#utility.yul\":25222:25225   */\n      0x00\n        /* \"#utility.yul\":25237:25312   */\n      tag_551\n        /* \"#utility.yul\":25308:25311   */\n      dup3\n        /* \"#utility.yul\":25299:25305   */\n      dup8\n        /* \"#utility.yul\":25237:25312   */\n      tag_286\n      jump\t// in\n    tag_551:\n        /* \"#utility.yul\":25337:25339   */\n      0x14\n        /* \"#utility.yul\":25332:25335   */\n      dup3\n        /* \"#utility.yul\":25328:25340   */\n      add\n        /* \"#utility.yul\":25321:25340   */\n      swap2\n      pop\n        /* \"#utility.yul\":25350:25425   */\n      tag_552\n        /* \"#utility.yul\":25421:25424   */\n      dup3\n        /* \"#utility.yul\":25412:25418   */\n      dup7\n        /* \"#utility.yul\":25350:25425   */\n      tag_286\n      jump\t// in\n    tag_552:\n        /* \"#utility.yul\":25450:25452   */\n      0x14\n        /* \"#utility.yul\":25445:25448   */\n      dup3\n        /* \"#utility.yul\":25441:25453   */\n      add\n        /* \"#utility.yul\":25434:25453   */\n      swap2\n      pop\n        /* \"#utility.yul\":25470:25565   */\n      tag_553\n        /* \"#utility.yul\":25561:25564   */\n      dup3\n        /* \"#utility.yul\":25552:25558   */\n      dup6\n        /* \"#utility.yul\":25470:25565   */\n      tag_288\n      jump\t// in\n    tag_553:\n        /* \"#utility.yul\":25463:25565   */\n      swap2\n      pop\n        /* \"#utility.yul\":25575:25650   */\n      tag_554\n        /* \"#utility.yul\":25646:25649   */\n      dup3\n        /* \"#utility.yul\":25637:25643   */\n      dup5\n        /* \"#utility.yul\":25575:25650   */\n      tag_290\n      jump\t// in\n    tag_554:\n        /* \"#utility.yul\":25675:25677   */\n      0x20\n        /* \"#utility.yul\":25670:25673   */\n      dup3\n        /* \"#utility.yul\":25666:25678   */\n      add\n        /* \"#utility.yul\":25659:25678   */\n      swap2\n      pop\n        /* \"#utility.yul\":25695:25698   */\n      dup2\n        /* \"#utility.yul\":25688:25698   */\n      swap1\n      pop\n        /* \"#utility.yul\":25006:25704   */\n      swap6\n      swap5\n      pop\n      pop\n      pop\n      pop\n      pop\n      jump\t// out\n        /* \"#utility.yul\":25710:25851   */\n    tag_291:\n        /* \"#utility.yul\":25759:25763   */\n      0x00\n        /* \"#utility.yul\":25782:25785   */\n      dup2\n        /* \"#utility.yul\":25774:25785   */\n      swap1\n      pop\n        /* \"#utility.yul\":25805:25808   */\n      dup2\n        /* \"#utility.yul\":25802:25803   */\n      0x00\n        /* \"#utility.yul\":25795:25809   */\n      mstore\n        /* \"#utility.yul\":25839:25843   */\n      0x20\n        /* \"#utility.yul\":25836:25837   */\n      0x00\n        /* \"#utility.yul\":25826:25844   */\n      keccak256\n        /* \"#utility.yul\":25818:25844   */\n      swap1\n      pop\n        /* \"#utility.yul\":25710:25851   */\n      swap2\n      swap1\n      pop\n      jump\t// out\n        /* \"#utility.yul\":25857:25950   */\n    tag_292:\n        /* \"#utility.yul\":25894:25900   */\n      0x00\n        /* \"#utility.yul\":25941:25943   */\n      0x20\n        /* \"#utility.yul\":25936:25938   */\n      0x1f\n        /* \"#utility.yul\":25929:25934   */\n      dup4\n        /* \"#utility.yul\":25925:25939   */\n      add\n        /* \"#utility.yul\":25921:25944   */\n      div\n        /* \"#utility.yul\":25911:25944   */\n      swap1\n      pop\n        /* \"#utility.yul\":25857:25950   */\n      swap2\n      swap1\n      pop\n      jump\t// out\n        /* \"#utility.yul\":25956:26063   */\n    tag_293:\n        /* \"#utility.yul\":26000:26008   */\n      0x00\n        /* \"#utility.yul\":26050:26055   */\n      dup3\n        /* \"#utility.yul\":26044:26048   */\n      dup3\n        /* \"#utility.yul\":26040:26056   */\n      shl\n        /* \"#utility.yul\":26019:26056   */\n      swap1\n      pop\n        /* \"#utility.yul\":25956:26063   */\n      swap3\n      swap2\n      pop\n      pop\n      jump\t// out\n        /* \"#utility.yul\":26069:26462   */\n    tag_294:\n        /* \"#utility.yul\":26138:26144   */\n      0x00\n        /* \"#utility.yul\":26188:26189   */\n      0x08\n        /* \"#utility.yul\":26176:26186   */\n      dup4\n        /* \"#utility.yul\":26172:26190   */\n      mul\n        /* \"#utility.yul\":26211:26308   */\n      tag_559\n        /* \"#utility.yul\":26241:26307   */\n      0xffffffffffffffffffffffffffffffffffffffffffffffffffffffffffffffff\n        /* \"#utility.yul\":26230:26239   */\n      dup3\n        /* \"#utility.yul\":26211:26308   */\n      tag_293\n      jump\t// in\n    tag_559:\n        /* \"#utility.yul\":26329:26368   */\n      tag_560\n        /* \"#utility.yul\":26359:26367   */\n      dup7\n        /* \"#utility.yul\":26348:26357   */\n      dup4\n        /* \"#utility.yul\":26329:26368   */\n      tag_293\n      jump\t// in\n    tag_560:\n        /* \"#utility.yul\":26317:26368   */\n      swap6\n      pop\n        /* \"#utility.yul\":26401:26405   */\n      dup1\n        /* \"#utility.yul\":26397:26406   */\n      not\n        /* \"#utility.yul\":26390:26395   */\n      dup5\n        /* \"#utility.yul\":26386:26407   */\n      and\n        /* \"#utility.yul\":26377:26407   */\n      swap4\n      pop\n        /* \"#utility.yul\":26450:26454   */\n      dup1\n        /* \"#utility.yul\":26440:26448   */\n      dup7\n        /* \"#utility.yul\":26436:26455   */\n      and\n        /* \"#utility.yul\":26429:26434   */\n      dup5\n        /* \"#utility.yul\":26426:26456   */\n      or\n        /* \"#utility.yul\":26416:26456   */\n      swap3\n      pop\n        /* \"#utility.yul\":26145:26462   */\n      pop\n      pop\n        /* \"#utility.yul\":26069:26462   */\n      swap4\n      swap3\n      pop\n      pop\n      pop\n      jump\t// out\n        /* \"#utility.yul\":26468:26528   */\n    tag_295:\n        /* \"#utility.yul\":26496:26499   */\n      0x00\n        /* \"#utility.yul\":26517:26522   */\n      dup2\n        /* \"#utility.yul\":26510:26522   */\n      swap1\n      pop\n        /* \"#utility.yul\":26468:26528   */\n      swap2\n      swap1\n      pop\n      jump\t// out\n        /* \"#utility.yul\":26534:26676   */\n    tag_296:\n        /* \"#utility.yul\":26584:26593   */\n      0x00\n        /* \"#utility.yul\":26617:26670   */\n      tag_563\n        /* \"#utility.yul\":26635:26669   */\n      tag_564\n        /* \"#utility.yul\":26644:26668   */\n      tag_565\n        /* \"#utility.yul\":26662:26667   */\n      dup5\n        /* \"#utility.yul\":26644:26668   */\n      tag_246\n      jump\t// in\n    tag_565:\n        /* \"#utility.yul\":26635:26669   */\n      tag_295\n      jump\t// in\n    tag_564:\n        /* \"#utility.yul\":26617:26670   */\n      tag_246\n      jump\t// in\n    tag_563:\n        /* \"#utility.yul\":26604:26670   */\n      swap1\n      pop\n        /* \"#utility.yul\":26534:26676   */\n      swap2\n      swap1\n      pop\n      jump\t// out\n        /* \"#utility.yul\":26682:26757   */\n    tag_297:\n        /* \"#utility.yul\":26725:26728   */\n      0x00\n        /* \"#utility.yul\":26746:26751   */\n      dup2\n        /* \"#utility.yul\":26739:26751   */\n      swap1\n      pop\n        /* \"#utility.yul\":26682:26757   */\n      swap2\n      swap1\n      pop\n      jump\t// out\n        /* \"#utility.yul\":26763:27032   */\n    tag_298:\n        /* \"#utility.yul\":26873:26912   */\n      tag_568\n        /* \"#utility.yul\":26904:26911   */\n      dup4\n        /* \"#utility.yul\":26873:26912   */\n      tag_296\n      jump\t// in\n    tag_568:\n        /* \"#utility.yul\":26934:27025   */\n      tag_569\n        /* \"#utility.yul\":26983:27024   */\n      tag_570\n        /* \"#utility.yul\":27007:27023   */\n      dup3\n        /* \"#utility.yul\":26983:27024   */\n      tag_297\n      jump\t// in\n    tag_570:\n        /* \"#utility.yul\":26975:26981   */\n      dup5\n        /* \"#utility.yul\":26968:26972   */\n      dup5\n        /* \"#utility.yul\":26962:26973   */\n      sload\n        /* \"#utility.yul\":26934:27025   */\n      tag_294\n      jump\t// in\n    tag_569:\n        /* \"#utility.yul\":26928:26932   */\n      dup3\n        /* \"#utility.yul\":26921:27026   */\n      sstore\n        /* \"#utility.yul\":26839:27032   */\n      pop\n        /* \"#utility.yul\":26763:27032   */\n      pop\n      pop\n      pop\n      jump\t// out\n        /* \"#utility.yul\":27038:27111   */\n    tag_299:\n        /* \"#utility.yul\":27083:27086   */\n      0x00\n        /* \"#utility.yul\":27038:27111   */\n      swap1\n      jump\t// out\n        /* \"#utility.yul\":27117:27306   */\n    tag_300:\n        /* \"#utility.yul\":27194:27226   */\n      tag_573\n      tag_299\n      jump\t// in\n    tag_573:\n        /* \"#utility.yul\":27235:27300   */\n      tag_574\n        /* \"#utility.yul\":27293:27299   */\n      dup2\n        /* \"#utility.yul\":27285:27291   */\n      dup5\n        /* \"#utility.yul\":27279:27283   */\n      dup5\n        /* \"#utility.yul\":27235:27300   */\n      tag_298\n      jump\t// in\n    tag_574:\n        /* \"#utility.yul\":27170:27306   */\n      pop\n        /* \"#utility.yul\":27117:27306   */\n      pop\n      pop\n      jump\t// out\n        /* \"#utility.yul\":27312:27498   */\n    tag_301:\n        /* \"#utility.yul\":27372:27492   */\n    tag_576:\n        /* \"#utility.yul\":27389:27392   */\n      dup2\n        /* \"#utility.yul\":27382:27387   */\n      dup2\n        /* \"#utility.yul\":27379:27393   */\n      lt\n        /* \"#utility.yul\":27372:27492   */\n      iszero\n      tag_578\n      jumpi\n        /* \"#utility.yul\":27443:27482   */\n      tag_579\n        /* \"#utility.yul\":27480:27481   */\n      0x00\n        /* \"#utility.yul\":27473:27478   */\n      dup3\n        /* \"#utility.yul\":27443:27482   */\n      tag_300\n      jump\t// in\n    tag_579:\n        /* \"#utility.yul\":27416:27417   */\n      0x01\n        /* \"#utility.yul\":27409:27414   */\n      dup2\n        /* \"#utility.yul\":27405:27418   */\n      add\n        /* \"#utility.yul\":27396:27418   */\n      swap1\n      pop\n        /* \"#utility.yul\":27372:27492   */\n      jump(tag_576)\n    tag_578:\n        /* \"#utility.yul\":27312:27498   */\n      pop\n      pop\n      jump\t// out\n        /* \"#utility.yul\":27504:28047   */\n    tag_302:\n        /* \"#utility.yul\":27605:27607   */\n      0x1f\n        /* \"#utility.yul\":27600:27603   */\n      dup3\n        /* \"#utility.yul\":27597:27608   */\n      gt\n        /* \"#utility.yul\":27594:28040   */\n      iszero\n      tag_581\n      jumpi\n        /* \"#utility.yul\":27639:27677   */\n      tag_582\n        /* \"#utility.yul\":27671:27676   */\n      dup2\n        /* \"#utility.yul\":27639:27677   */\n      tag_291\n      jump\t// in\n    tag_582:\n        /* \"#utility.yul\":27723:27752   */\n      tag_583\n        /* \"#utility.yul\":27741:27751   */\n      dup5\n        /* \"#utility.yul\":27723:27752   */\n      tag_292\n      jump\t// in\n    tag_583:\n        /* \"#utility.yul\":27713:27721   */\n      dup2\n        /* \"#utility.yul\":27709:27753   */\n      add\n        /* \"#utility.yul\":27906:27908   */\n      0x20\n        /* \"#utility.yul\":27894:27904   */\n      dup6\n        /* \"#utility.yul\":27891:27909   */\n      lt\n        /* \"#utility.yul\":27888:27937   */\n      iszero\n      tag_584\n      jumpi\n        /* \"#utility.yul\":27927:27935   */\n      dup2\n        /* \"#utility.yul\":27912:27935   */\n      swap1\n      pop\n        /* \"#utility.yul\":27888:27937   */\n    tag_584:\n        /* \"#utility.yul\":27950:28030   */\n      tag_585\n        /* \"#utility.yul\":28006:28028   */\n      tag_586\n        /* \"#utility.yul\":28024:28027   */\n      dup6\n        /* \"#utility.yul\":28006:28028   */\n      tag_292\n      jump\t// in\n    tag_586:\n        /* \"#utility.yul\":27996:28004   */\n      dup4\n        /* \"#utility.yul\":27992:28029   */\n      add\n        /* \"#utility.yul\":27979:27990   */\n      dup3\n        /* \"#utility.yul\":27950:28030   */\n      tag_301\n      jump\t// in\n    tag_585:\n        /* \"#utility.yul\":27609:28040   */\n      pop\n      pop\n        /* \"#utility.yul\":27594:28040   */\n    tag_581:\n        /* \"#utility.yul\":27504:28047   */\n      pop\n      pop\n      pop\n      jump\t// out\n        /* \"#utility.yul\":28053:28170   */\n    tag_303:\n        /* \"#utility.yul\":28107:28115   */\n      0x00\n        /* \"#utility.yul\":28157:28162   */\n      dup3\n        /* \"#utility.yul\":28151:28155   */\n      dup3\n        /* \"#utility.yul\":28147:28163   */\n      shr\n        /* \"#utility.yul\":28126:28163   */\n      swap1\n      pop\n        /* \"#utility.yul\":28053:28170   */\n      swap3\n      swap2\n      pop\n      pop\n      jump\t// out\n        /* \"#utility.yul\":28176:28345   */\n    tag_304:\n        /* \"#utility.yul\":28220:28226   */\n      0x00\n        /* \"#utility.yul\":28253:28304   */\n      tag_589\n        /* \"#utility.yul\":28301:28302   */\n      0x00\n        /* \"#utility.yul\":28297:28303   */\n      not\n        /* \"#utility.yul\":28289:28294   */\n      dup5\n        /* \"#utility.yul\":28286:28287   */\n      0x08\n        /* \"#utility.yul\":28282:28295   */\n      mul\n        /* \"#utility.yul\":28253:28304   */\n      tag_303\n      jump\t// in\n    tag_589:\n        /* \"#utility.yul\":28249:28305   */\n      not\n        /* \"#utility.yul\":28334:28338   */\n      dup1\n        /* \"#utility.yul\":28328:28332   */\n      dup4\n        /* \"#utility.yul\":28324:28339   */\n      and\n        /* \"#utility.yul\":28314:28339   */\n      swap2\n      pop\n        /* \"#utility.yul\":28227:28345   */\n      pop\n        /* \"#utility.yul\":28176:28345   */\n      swap3\n      swap2\n      pop\n      pop\n      jump\t// out\n        /* \"#utility.yul\":28350:28645   */\n    tag_305:\n        /* \"#utility.yul\":28426:28430   */\n      0x00\n        /* \"#utility.yul\":28572:28601   */\n      tag_591\n        /* \"#utility.yul\":28597:28600   */\n      dup4\n        /* \"#utility.yul\":28591:28595   */\n      dup4\n        /* \"#utility.yul\":28572:28601   */\n      tag_304\n      jump\t// in\n    tag_591:\n        /* \"#utility.yul\":28564:28601   */\n      swap2\n      pop\n        /* \"#utility.yul\":28634:28637   */\n      dup3\n        /* \"#utility.yul\":28631:28632   */\n      0x02\n        /* \"#utility.yul\":28627:28638   */\n      mul\n        /* \"#utility.yul\":28621:28625   */\n      dup3\n        /* \"#utility.yul\":28618:28639   */\n      or\n        /* \"#utility.yul\":28610:28639   */\n      swap1\n      pop\n        /* \"#utility.yul\":28350:28645   */\n      swap3\n      swap2\n      pop\n      pop\n      jump\t// out\n        /* \"#utility.yul\":28650:30045   */\n    tag_81:\n        /* \"#utility.yul\":28767:28804   */\n      tag_593\n        /* \"#utility.yul\":28800:28803   */\n      dup3\n        /* \"#utility.yul\":28767:28804   */\n      tag_248\n      jump\t// in\n    tag_593:\n        /* \"#utility.yul\":28869:28887   */\n      0xffffffffffffffff\n        /* \"#utility.yul\":28861:28867   */\n      dup2\n        /* \"#utility.yul\":28858:28888   */\n      gt\n        /* \"#utility.yul\":28855:28911   */\n      iszero\n      tag_594\n      jumpi\n        /* \"#utility.yul\":28891:28909   */\n      tag_595\n      tag_92\n      jump\t// in\n    tag_595:\n        /* \"#utility.yul\":28855:28911   */\n    tag_594:\n        /* \"#utility.yul\":28935:28973   */\n      tag_596\n        /* \"#utility.yul\":28967:28971   */\n      dup3\n        /* \"#utility.yul\":28961:28972   */\n      sload\n        /* \"#utility.yul\":28935:28973   */\n      tag_102\n      jump\t// in\n    tag_596:\n        /* \"#utility.yul\":29020:29087   */\n      tag_597\n        /* \"#utility.yul\":29080:29086   */\n      dup3\n        /* \"#utility.yul\":29072:29078   */\n      dup3\n        /* \"#utility.yul\":29066:29070   */\n      dup6\n        /* \"#utility.yul\":29020:29087   */\n      tag_302\n      jump\t// in\n    tag_597:\n        /* \"#utility.yul\":29114:29115   */\n      0x00\n        /* \"#utility.yul\":29138:29142   */\n      0x20\n        /* \"#utility.yul\":29125:29142   */\n      swap1\n      pop\n        /* \"#utility.yul\":29170:29172   */\n      0x1f\n        /* \"#utility.yul\":29162:29168   */\n      dup4\n        /* \"#utility.yul\":29159:29173   */\n      gt\n        /* \"#utility.yul\":29187:29188   */\n      0x01\n        /* \"#utility.yul\":29182:29800   */\n      dup2\n      eq\n      tag_599\n      jumpi\n        /* \"#utility.yul\":29844:29845   */\n      0x00\n        /* \"#utility.yul\":29861:29867   */\n      dup5\n        /* \"#utility.yul\":29858:29935   */\n      iszero\n      tag_600\n      jumpi\n        /* \"#utility.yul\":29910:29919   */\n      dup3\n        /* \"#utility.yul\":29905:29908   */\n      dup8\n        /* \"#utility.yul\":29901:29920   */\n      add\n        /* \"#utility.yul\":29895:29921   */\n      mload\n        /* \"#utility.yul\":29886:29921   */\n      swap1\n      pop\n        /* \"#utility.yul\":29858:29935   */\n    tag_600:\n        /* \"#utility.yul\":29961:30028   */\n      tag_601\n        /* \"#utility.yul\":30021:30027   */\n      dup6\n        /* \"#utility.yul\":30014:30019   */\n      dup3\n        /* \"#utility.yul\":29961:30028   */\n      tag_305\n      jump\t// in\n    tag_601:\n        /* \"#utility.yul\":29955:29959   */\n      dup7\n        /* \"#utility.yul\":29948:30029   */\n      sstore\n        /* \"#utility.yul\":29817:30039   */\n      pop\n        /* \"#utility.yul\":29152:30039   */\n      jump(tag_598)\n        /* \"#utility.yul\":29182:29800   */\n    tag_599:\n        /* \"#utility.yul\":29234:29238   */\n      0x1f\n        /* \"#utility.yul\":29230:29239   */\n      not\n        /* \"#utility.yul\":29222:29228   */\n      dup5\n        /* \"#utility.yul\":29218:29240   */\n      and\n        /* \"#utility.yul\":29268:29305   */\n      tag_602\n        /* \"#utility.yul\":29300:29304   */\n      dup7\n        /* \"#utility.yul\":29268:29305   */\n      tag_291\n      jump\t// in\n    tag_602:\n        /* \"#utility.yul\":29327:29328   */\n      0x00\n        /* \"#utility.yul\":29341:29549   */\n    tag_603:\n        /* \"#utility.yul\":29355:29362   */\n      dup3\n        /* \"#utility.yul\":29352:29353   */\n      dup2\n        /* \"#utility.yul\":29349:29363   */\n      lt\n        /* \"#utility.yul\":29341:29549   */\n      iszero\n      tag_605\n      jumpi\n        /* \"#utility.yul\":29434:29443   */\n      dup5\n        /* \"#utility.yul\":29429:29432   */\n      dup10\n        /* \"#utility.yul\":29425:29444   */\n      add\n        /* \"#utility.yul\":29419:29445   */\n      mload\n        /* \"#utility.yul\":29411:29417   */\n      dup3\n        /* \"#utility.yul\":29404:29446   */\n      sstore\n        /* \"#utility.yul\":29485:29486   */\n      0x01\n        /* \"#utility.yul\":29477:29483   */\n      dup3\n        /* \"#utility.yul\":29473:29487   */\n      add\n        /* \"#utility.yul\":29463:29487   */\n      swap2\n      pop\n        /* \"#utility.yul\":29532:29534   */\n      0x20\n        /* \"#utility.yul\":29521:29530   */\n      dup6\n        /* \"#utility.yul\":29517:29535   */\n      add\n        /* \"#utility.yul\":29504:29535   */\n      swap5\n      pop\n        /* \"#utility.yul\":29378:29382   */\n      0x20\n        /* \"#utility.yul\":29375:29376   */\n      dup2\n        /* \"#utility.yul\":29371:29383   */\n      add\n        /* \"#utility.yul\":29366:29383   */\n      swap1\n      pop\n        /* \"#utility.yul\":29341:29549   */\n      jump(tag_603)\n    tag_605:\n        /* \"#utility.yul\":29577:29583   */\n      dup7\n        /* \"#utility.yul\":29568:29575   */\n      dup4\n        /* \"#utility.yul\":29565:29584   */\n      lt\n        /* \"#utility.yul\":29562:29741   */\n      iszero\n      tag_606\n      jumpi\n        /* \"#utility.yul\":29635:29644   */\n      dup5\n        /* \"#utility.yul\":29630:29633   */\n      dup10\n        /* \"#utility.yul\":29626:29645   */\n      add\n        /* \"#utility.yul\":29620:29646   */\n      mload\n        /* \"#utility.yul\":29678:29726   */\n      tag_607\n        /* \"#utility.yul\":29720:29724   */\n      0x1f\n        /* \"#utility.yul\":29712:29718   */\n      dup10\n        /* \"#utility.yul\":29708:29725   */\n      and\n        /* \"#utility.yul\":29697:29706   */\n      dup3\n        /* \"#utility.yul\":29678:29726   */\n      tag_304\n      jump\t// in\n    tag_607:\n        /* \"#utility.yul\":29670:29676   */\n      dup4\n        /* \"#utility.yul\":29663:29727   */\n      sstore\n        /* \"#utility.yul\":29585:29741   */\n      pop\n        /* \"#utility.yul\":29562:29741   */\n    tag_606:\n        /* \"#utility.yul\":29787:29788   */\n      0x01\n        /* \"#utility.yul\":29783:29784   */\n      0x02\n        /* \"#utility.yul\":29775:29781   */\n      dup9\n        /* \"#utility.yul\":29771:29785   */\n      mul\n        /* \"#utility.yul\":29767:29789   */\n      add\n        /* \"#utility.yul\":29761:29765   */\n      dup9\n        /* \"#utility.yul\":29754:29790   */\n      sstore\n        /* \"#utility.yul\":29189:29800   */\n      pop\n      pop\n      pop\n        /* \"#utility.yul\":29152:30039   */\n    tag_598:\n      pop\n        /* \"#utility.yul\":28742:30045   */\n      pop\n      pop\n      pop\n        /* \"#utility.yul\":28650:30045   */\n      pop\n      pop\n      jump\t// out\n        /* \"#utility.yul\":30051:30128   */\n    tag_306:\n        /* \"#utility.yul\":30088:30095   */\n      0x00\n        /* \"#utility.yul\":30117:30122   */\n      dup2\n        /* \"#utility.yul\":30106:30122   */\n      swap1\n      pop\n        /* \"#utility.yul\":30051:30128   */\n      swap2\n      swap1\n      pop\n      jump\t// out\n        /* \"#utility.yul\":30134:30252   */\n    tag_307:\n        /* \"#utility.yul\":30221:30245   */\n      tag_610\n        /* \"#utility.yul\":30239:30244   */\n      dup2\n        /* \"#utility.yul\":30221:30245   */\n      tag_306\n      jump\t// in\n    tag_610:\n        /* \"#utility.yul\":30216:30219   */\n      dup3\n        /* \"#utility.yul\":30209:30246   */\n      mstore\n        /* \"#utility.yul\":30134:30252   */\n      pop\n      pop\n      jump\t// out\n        /* \"#utility.yul\":30258:30791   */\n    tag_85:\n        /* \"#utility.yul\":30427:30431   */\n      0x00\n        /* \"#utility.yul\":30465:30467   */\n      0x60\n        /* \"#utility.yul\":30454:30463   */\n      dup3\n        /* \"#utility.yul\":30450:30468   */\n      add\n        /* \"#utility.yul\":30442:30468   */\n      swap1\n      pop\n        /* \"#utility.yul\":30478:30549   */\n      tag_612\n        /* \"#utility.yul\":30546:30547   */\n      0x00\n        /* \"#utility.yul\":30535:30544   */\n      dup4\n        /* \"#utility.yul\":30531:30548   */\n      add\n        /* \"#utility.yul\":30522:30528   */\n      dup7\n        /* \"#utility.yul\":30478:30549   */\n      tag_265\n      jump\t// in\n    tag_612:\n        /* \"#utility.yul\":30596:30605   */\n      dup2\n        /* \"#utility.yul\":30590:30594   */\n      dup2\n        /* \"#utility.yul\":30586:30606   */\n      sub\n        /* \"#utility.yul\":30581:30583   */\n      0x20\n        /* \"#utility.yul\":30570:30579   */\n      dup4\n        /* \"#utility.yul\":30566:30584   */\n      add\n        /* \"#utility.yul\":30559:30607   */\n      mstore\n        /* \"#utility.yul\":30624:30702   */\n      tag_613\n        /* \"#utility.yul\":30697:30701   */\n      dup2\n        /* \"#utility.yul\":30688:30694   */\n      dup6\n        /* \"#utility.yul\":30624:30702   */\n      tag_264\n      jump\t// in\n    tag_613:\n        /* \"#utility.yul\":30616:30702   */\n      swap1\n      pop\n        /* \"#utility.yul\":30712:30784   */\n      tag_614\n        /* \"#utility.yul\":30780:30782   */\n      0x40\n        /* \"#utility.yul\":30769:30778   */\n      dup4\n        /* \"#utility.yul\":30765:30783   */\n      add\n        /* \"#utility.yul\":30756:30762   */\n      dup5\n        /* \"#utility.yul\":30712:30784   */\n      tag_307\n      jump\t// in\n    tag_614:\n        /* \"#utility.yul\":30258:30791   */\n      swap5\n      swap4\n      pop\n      pop\n      pop\n      pop\n      jump\t// out\n        /* \"#utility.yul\":30797:31019   */\n    tag_308:\n        /* \"#utility.yul\":30937:30971   */\n      0x44494420616c72656164792065786973747320666f7220746869732061646472\n        /* \"#utility.yul\":30933:30934   */\n      0x00\n        /* \"#utility.yul\":30925:30931   */\n      dup3\n        /* \"#utility.yul\":30921:30935   */\n      add\n        /* \"#utility.yul\":30914:30972   */\n      mstore\n        /* \"#utility.yul\":31006:31011   */\n      0x6573730000000000000000000000000000000000000000000000000000000000\n        /* \"#utility.yul\":31001:31003   */\n      0x20\n        /* \"#utility.yul\":30993:30999   */\n      dup3\n        /* \"#utility.yul\":30989:31004   */\n      add\n        /* \"#utility.yul\":30982:31012   */\n      mstore\n        /* \"#utility.yul\":30797:31019   */\n      pop\n      jump\t// out\n        /* \"#utility.yul\":31025:31391   */\n    tag_309:\n        /* \"#utility.yul\":31167:31170   */\n      0x00\n        /* \"#utility.yul\":31188:31255   */\n      tag_617\n        /* \"#utility.yul\":31252:31254   */\n      0x23\n        /* \"#utility.yul\":31247:31250   */\n      dup4\n        /* \"#utility.yul\":31188:31255   */\n      tag_263\n      jump\t// in\n    tag_617:\n        /* \"#utility.yul\":31181:31255   */\n      swap2\n      pop\n        /* \"#utility.yul\":31264:31357   */\n      tag_618\n        /* \"#utility.yul\":31353:31356   */\n      dup3\n        /* \"#utility.yul\":31264:31357   */\n      tag_308\n      jump\t// in\n    tag_618:\n        /* \"#utility.yul\":31382:31384   */\n      0x40\n        /* \"#utility.yul\":31377:31380   */\n      dup3\n        /* \"#utility.yul\":31373:31385   */\n      add\n        /* \"#utility.yul\":31366:31385   */\n      swap1\n      pop\n        /* \"#utility.yul\":31025:31391   */\n      swap2\n      swap1\n      pop\n      jump\t// out\n        /* \"#utility.yul\":31397:31816   */\n    tag_89:\n        /* \"#utility.yul\":31563:31567   */\n      0x00\n        /* \"#utility.yul\":31601:31603   */\n      0x20\n        /* \"#utility.yul\":31590:31599   */\n      dup3\n        /* \"#utility.yul\":31586:31604   */\n      add\n        /* \"#utility.yul\":31578:31604   */\n      swap1\n      pop\n        /* \"#utility.yul\":31650:31659   */\n      dup2\n        /* \"#utility.yul\":31644:31648   */\n      dup2\n        /* \"#utility.yul\":31640:31660   */\n      sub\n        /* \"#utility.yul\":31636:31637   */\n      0x00\n        /* \"#utility.yul\":31625:31634   */\n      dup4\n        /* \"#utility.yul\":31621:31638   */\n      add\n        /* \"#utility.yul\":31614:31661   */\n      mstore\n        /* \"#utility.yul\":31678:31809   */\n      tag_620\n        /* \"#utility.yul\":31804:31808   */\n      dup2\n        /* \"#utility.yul\":31678:31809   */\n      tag_309\n      jump\t// in\n    tag_620:\n        /* \"#utility.yul\":31670:31809   */\n      swap1\n      pop\n        /* \"#utility.yul\":31397:31816   */\n      swap2\n      swap1\n      pop\n      jump\t// out\n        /* \"#utility.yul\":31822:32002   */\n    tag_114:\n        /* \"#utility.yul\":31870:31947   */\n      0x4e487b7100000000000000000000000000000000000000000000000000000000\n        /* \"#utility.yul\":31867:31868   */\n      0x00\n        /* \"#utility.yul\":31860:31948   */\n      mstore\n        /* \"#utility.yul\":31967:31971   */\n      0x32\n        /* \"#utility.yul\":31964:31965   */\n      0x04\n        /* \"#utility.yul\":31957:31972   */\n      mstore\n        /* \"#utility.yul\":31991:31995   */\n      0x24\n        /* \"#utility.yul\":31988:31989   */\n      0x00\n        /* \"#utility.yul\":31981:31996   */\n      revert\n        /* \"#utility.yul\":32008:32188   */\n    tag_310:\n        /* \"#utility.yul\":32056:32133   */\n      0x4e487b7100000000000000000000000000000000000000000000000000000000\n        /* \"#utility.yul\":32053:32054   */\n      0x00\n        /* \"#utility.yul\":32046:32134   */\n      mstore\n        /* \"#utility.yul\":32153:32157   */\n      0x11\n        /* \"#utility.yul\":32150:32151   */\n      0x04\n        /* \"#utility.yul\":32143:32158   */\n      mstore\n        /* \"#utility.yul\":32177:32181   */\n      0x24\n        /* \"#utility.yul\":32174:32175   */\n      0x00\n        /* \"#utility.yul\":32167:32182   */\n      revert\n        /* \"#utility.yul\":32194:32427   */\n    tag_116:\n        /* \"#utility.yul\":32233:32236   */\n      0x00\n        /* \"#utility.yul\":32256:32280   */\n      tag_624\n        /* \"#utility.yul\":32274:32279   */\n      dup3\n        /* \"#utility.yul\":32256:32280   */\n      tag_246\n      jump\t// in\n    tag_624:\n        /* \"#utility.yul\":32247:32280   */\n      swap2\n      pop\n        /* \"#utility.yul\":32302:32368   */\n      0xffffffffffffffffffffffffffffffffffffffffffffffffffffffffffffffff\n        /* \"#utility.yul\":32295:32300   */\n      dup3\n        /* \"#utility.yul\":32292:32369   */\n      sub\n        /* \"#utility.yul\":32289:32392   */\n      tag_625\n      jumpi\n        /* \"#utility.yul\":32372:32390   */\n      tag_626\n      tag_310\n      jump\t// in\n    tag_626:\n        /* \"#utility.yul\":32289:32392   */\n    tag_625:\n        /* \"#utility.yul\":32419:32420   */\n      0x01\n        /* \"#utility.yul\":32412:32417   */\n      dup3\n        /* \"#utility.yul\":32408:32421   */\n      add\n        /* \"#utility.yul\":32401:32421   */\n      swap1\n      pop\n        /* \"#utility.yul\":32194:32427   */\n      swap2\n      swap1\n      pop\n      jump\t// out\n        /* \"#utility.yul\":32433:32603   */\n    tag_311:\n        /* \"#utility.yul\":32573:32595   */\n      0x4e616d652063616e6e6f7420626520656d707479000000000000000000000000\n        /* \"#utility.yul\":32569:32570   */\n      0x00\n        /* \"#utility.yul\":32561:32567   */\n      dup3\n        /* \"#utility.yul\":32557:32571   */\n      add\n        /* \"#utility.yul\":32550:32596   */\n      mstore\n        /* \"#utility.yul\":32433:32603   */\n      pop\n      jump\t// out\n        /* \"#utility.yul\":32609:32975   */\n    tag_312:\n        /* \"#utility.yul\":32751:32754   */\n      0x00\n        /* \"#utility.yul\":32772:32839   */\n      tag_629\n        /* \"#utility.yul\":32836:32838   */\n      0x14\n        /* \"#utility.yul\":32831:32834   */\n      dup4\n        /* \"#utility.yul\":32772:32839   */\n      tag_263\n      jump\t// in\n    tag_629:\n        /* \"#utility.yul\":32765:32839   */\n      swap2\n      pop\n        /* \"#utility.yul\":32848:32941   */\n      tag_630\n        /* \"#utility.yul\":32937:32940   */\n      dup3\n        /* \"#utility.yul\":32848:32941   */\n      tag_311\n      jump\t// in\n    tag_630:\n        /* \"#utility.yul\":32966:32968   */\n      0x20\n        /* \"#utility.yul\":32961:32964   */\n      dup3\n        /* \"#utility.yul\":32957:32969   */\n      add\n        /* \"#utility.yul\":32950:32969   */\n      swap1\n      pop\n        /* \"#utility.yul\":32609:32975   */\n      swap2\n      swap1\n      pop\n      jump\t// out\n        /* \"#utility.yul\":32981:33400   */\n    tag_126:\n        /* \"#utility.yul\":33147:33151   */\n      0x00\n        /* \"#utility.yul\":33185:33187   */\n      0x20\n        /* \"#utility.yul\":33174:33183   */\n      dup3\n        /* \"#utility.yul\":33170:33188   */\n      add\n        /* \"#utility.yul\":33162:33188   */\n      swap1\n      pop\n        /* \"#utility.yul\":33234:33243   */\n      dup2\n        /* \"#utility.yul\":33228:33232   */\n      dup2\n        /* \"#utility.yul\":33224:33244   */\n      sub\n        /* \"#utility.yul\":33220:33221   */\n      0x00\n        /* \"#utility.yul\":33209:33218   */\n      dup4\n        /* \"#utility.yul\":33205:33222   */\n      add\n        /* \"#utility.yul\":33198:33245   */\n      mstore\n        /* \"#utility.yul\":33262:33393   */\n      tag_632\n        /* \"#utility.yul\":33388:33392   */\n      dup2\n        /* \"#utility.yul\":33262:33393   */\n      tag_312\n      jump\t// in\n    tag_632:\n        /* \"#utility.yul\":33254:33393   */\n      swap1\n      pop\n        /* \"#utility.yul\":32981:33400   */\n      swap2\n      swap1\n      pop\n      jump\t// out\n        /* \"#utility.yul\":33406:33583   */\n    tag_313:\n        /* \"#utility.yul\":33546:33575   */\n      0x4465736372697074696f6e2063616e6e6f7420626520656d7074790000000000\n        /* \"#utility.yul\":33542:33543   */\n      0x00\n        /* \"#utility.yul\":33534:33540   */\n      dup3\n        /* \"#utility.yul\":33530:33544   */\n      add\n        /* \"#utility.yul\":33523:33576   */\n      mstore\n        /* \"#utility.yul\":33406:33583   */\n      pop\n      jump\t// out\n        /* \"#utility.yul\":33589:33955   */\n    tag_314:\n        /* \"#utility.yul\":33731:33734   */\n      0x00\n        /* \"#utility.yul\":33752:33819   */\n      tag_635\n        /* \"#utility.yul\":33816:33818   */\n      0x1b\n        /* \"#utility.yul\":33811:33814   */\n      dup4\n        /* \"#utility.yul\":33752:33819   */\n      tag_263\n      jump\t// in\n    tag_635:\n        /* \"#utility.yul\":33745:33819   */\n      swap2\n      pop\n        /* \"#utility.yul\":33828:33921   */\n      tag_636\n        /* \"#utility.yul\":33917:33920   */\n      dup3\n        /* \"#utility.yul\":33828:33921   */\n      tag_313\n      jump\t// in\n    tag_636:\n        /* \"#utility.yul\":33946:33948   */\n      0x20\n        /* \"#utility.yul\":33941:33944   */\n      dup3\n        /* \"#utility.yul\":33937:33949   */\n      add\n        /* \"#utility.yul\":33930:33949   */\n      swap1\n      pop\n        /* \"#utility.yul\":33589:33955   */\n      swap2\n      swap1\n      pop\n      jump\t// out\n        /* \"#utility.yul\":33961:34380   */\n    tag_129:\n        /* \"#utility.yul\":34127:34131   */\n      0x00\n        /* \"#utility.yul\":34165:34167   */\n      0x20\n        /* \"#utility.yul\":34154:34163   */\n      dup3\n        /* \"#utility.yul\":34150:34168   */\n      add\n        /* \"#utility.yul\":34142:34168   */\n      swap1\n      pop\n        /* \"#utility.yul\":34214:34223   */\n      dup2\n        /* \"#utility.yul\":34208:34212   */\n      dup2\n        /* \"#utility.yul\":34204:34224   */\n      sub\n        /* \"#utility.yul\":34200:34201   */\n      0x00\n        /* \"#utility.yul\":34189:34198   */\n      dup4\n        /* \"#utility.yul\":34185:34202   */\n      add\n        /* \"#utility.yul\":34178:34225   */\n      mstore\n        /* \"#utility.yul\":34242:34373   */\n      tag_638\n        /* \"#utility.yul\":34368:34372   */\n      dup2\n        /* \"#utility.yul\":34242:34373   */\n      tag_314\n      jump\t// in\n    tag_638:\n        /* \"#utility.yul\":34234:34373   */\n      swap1\n      pop\n        /* \"#utility.yul\":33961:34380   */\n      swap2\n      swap1\n      pop\n      jump\t// out\n        /* \"#utility.yul\":34386:34809   */\n    tag_133:\n        /* \"#utility.yul\":34527:34531   */\n      0x00\n        /* \"#utility.yul\":34565:34567   */\n      0x40\n        /* \"#utility.yul\":34554:34563   */\n      dup3\n        /* \"#utility.yul\":34550:34568   */\n      add\n        /* \"#utility.yul\":34542:34568   */\n      swap1\n      pop\n        /* \"#utility.yul\":34578:34649   */\n      tag_640\n        /* \"#utility.yul\":34646:34647   */\n      0x00\n        /* \"#utility.yul\":34635:34644   */\n      dup4\n        /* \"#utility.yul\":34631:34648   */\n      add\n        /* \"#utility.yul\":34622:34628   */\n      dup6\n        /* \"#utility.yul\":34578:34649   */\n      tag_262\n      jump\t// in\n    tag_640:\n        /* \"#utility.yul\":34696:34705   */\n      dup2\n        /* \"#utility.yul\":34690:34694   */\n      dup2\n        /* \"#utility.yul\":34686:34706   */\n      sub\n        /* \"#utility.yul\":34681:34683   */\n      0x20\n        /* \"#utility.yul\":34670:34679   */\n      dup4\n        /* \"#utility.yul\":34666:34684   */\n      add\n        /* \"#utility.yul\":34659:34707   */\n      mstore\n        /* \"#utility.yul\":34724:34802   */\n      tag_641\n        /* \"#utility.yul\":34797:34801   */\n      dup2\n        /* \"#utility.yul\":34788:34794   */\n      dup5\n        /* \"#utility.yul\":34724:34802   */\n      tag_264\n      jump\t// in\n    tag_641:\n        /* \"#utility.yul\":34716:34802   */\n      swap1\n      pop\n        /* \"#utility.yul\":34386:34809   */\n      swap4\n      swap3\n      pop\n      pop\n      pop\n      jump\t// out\n        /* \"#utility.yul\":34815:34995   */\n    tag_315:\n        /* \"#utility.yul\":34955:34987   */\n      0x4e6577206964656e7469666965722063616e6e6f7420626520656d7074790000\n        /* \"#utility.yul\":34951:34952   */\n      0x00\n        /* \"#utility.yul\":34943:34949   */\n      dup3\n        /* \"#utility.yul\":34939:34953   */\n      add\n        /* \"#utility.yul\":34932:34988   */\n      mstore\n        /* \"#utility.yul\":34815:34995   */\n      pop\n      jump\t// out\n        /* \"#utility.yul\":35001:35367   */\n    tag_316:\n        /* \"#utility.yul\":35143:35146   */\n      0x00\n        /* \"#utility.yul\":35164:35231   */\n      tag_644\n        /* \"#utility.yul\":35228:35230   */\n      0x1e\n        /* \"#utility.yul\":35223:35226   */\n      dup4\n        /* \"#utility.yul\":35164:35231   */\n      tag_263\n      jump\t// in\n    tag_644:\n        /* \"#utility.yul\":35157:35231   */\n      swap2\n      pop\n        /* \"#utility.yul\":35240:35333   */\n      tag_645\n        /* \"#utility.yul\":35329:35332   */\n      dup3\n        /* \"#utility.yul\":35240:35333   */\n      tag_315\n      jump\t// in\n    tag_645:\n        /* \"#utility.yul\":35358:35360   */\n      0x20\n        /* \"#utility.yul\":35353:35356   */\n      dup3\n        /* \"#utility.yul\":35349:35361   */\n      add\n        /* \"#utility.yul\":35342:35361   */\n      swap1\n      pop\n        /* \"#utility.yul\":35001:35367   */\n      swap2\n      swap1\n      pop\n      jump\t// out\n        /* \"#utility.yul\":35373:35792   */\n    tag_138:\n        /* \"#utility.yul\":35539:35543   */\n      0x00\n        /* \"#utility.yul\":35577:35579   */\n      0x20\n        /* \"#utility.yul\":35566:35575   */\n      dup3\n        /* \"#utility.yul\":35562:35580   */\n      add\n        /* \"#utility.yul\":35554:35580   */\n      swap1\n      pop\n        /* \"#utility.yul\":35626:35635   */\n      dup2\n        /* \"#utility.yul\":35620:35624   */\n      dup2\n        /* \"#utility.yul\":35616:35636   */\n      sub\n        /* \"#utility.yul\":35612:35613   */\n      0x00\n        /* \"#utility.yul\":35601:35610   */\n      dup4\n        /* \"#utility.yul\":35597:35614   */\n      add\n        /* \"#utility.yul\":35590:35637   */\n      mstore\n        /* \"#utility.yul\":35654:35785   */\n      tag_647\n        /* \"#utility.yul\":35780:35784   */\n      dup2\n        /* \"#utility.yul\":35654:35785   */\n      tag_316\n      jump\t// in\n    tag_647:\n        /* \"#utility.yul\":35646:35785   */\n      swap1\n      pop\n        /* \"#utility.yul\":35373:35792   */\n      swap2\n      swap1\n      pop\n      jump\t// out\n        /* \"#utility.yul\":35798:35970   */\n    tag_317:\n        /* \"#utility.yul\":35938:35962   */\n      0x496e76616c6964206e6577206964656e74696669657200000000000000000000\n        /* \"#utility.yul\":35934:35935   */\n      0x00\n        /* \"#utility.yul\":35926:35932   */\n      dup3\n        /* \"#utility.yul\":35922:35936   */\n      add\n        /* \"#utility.yul\":35915:35963   */\n      mstore\n        /* \"#utility.yul\":35798:35970   */\n      pop\n      jump\t// out\n        /* \"#utility.yul\":35976:36342   */\n    tag_318:\n        /* \"#utility.yul\":36118:36121   */\n      0x00\n        /* \"#utility.yul\":36139:36206   */\n      tag_650\n        /* \"#utility.yul\":36203:36205   */\n      0x16\n        /* \"#utility.yul\":36198:36201   */\n      dup4\n        /* \"#utility.yul\":36139:36206   */\n      tag_263\n      jump\t// in\n    tag_650:\n        /* \"#utility.yul\":36132:36206   */\n      swap2\n      pop\n        /* \"#utility.yul\":36215:36308   */\n      tag_651\n        /* \"#utility.yul\":36304:36307   */\n      dup3\n        /* \"#utility.yul\":36215:36308   */\n      tag_317\n      jump\t// in\n    tag_651:\n        /* \"#utility.yul\":36333:36335   */\n      0x20\n        /* \"#utility.yul\":36328:36331   */\n      dup3\n        /* \"#utility.yul\":36324:36336   */\n      add\n        /* \"#utility.yul\":36317:36336   */\n      swap1\n      pop\n        /* \"#utility.yul\":35976:36342   */\n      swap2\n      swap1\n      pop\n      jump\t// out\n        /* \"#utility.yul\":36348:36767   */\n    tag_144:\n        /* \"#utility.yul\":36514:36518   */\n      0x00\n        /* \"#utility.yul\":36552:36554   */\n      0x20\n        /* \"#utility.yul\":36541:36550   */\n      dup3\n        /* \"#utility.yul\":36537:36555   */\n      add\n        /* \"#utility.yul\":36529:36555   */\n      swap1\n      pop\n        /* \"#utility.yul\":36601:36610   */\n      dup2\n        /* \"#utility.yul\":36595:36599   */\n      dup2\n        /* \"#utility.yul\":36591:36611   */\n      sub\n        /* \"#utility.yul\":36587:36588   */\n      0x00\n        /* \"#utility.yul\":36576:36585   */\n      dup4\n        /* \"#utility.yul\":36572:36589   */\n      add\n        /* \"#utility.yul\":36565:36612   */\n      mstore\n        /* \"#utility.yul\":36629:36760   */\n      tag_653\n        /* \"#utility.yul\":36755:36759   */\n      dup2\n        /* \"#utility.yul\":36629:36760   */\n      tag_318\n      jump\t// in\n    tag_653:\n        /* \"#utility.yul\":36621:36760   */\n      swap1\n      pop\n        /* \"#utility.yul\":36348:36767   */\n      swap2\n      swap1\n      pop\n      jump\t// out\n        /* \"#utility.yul\":36773:36937   */\n    tag_319:\n        /* \"#utility.yul\":36913:36929   */\n      0x4e6f7420617574686f72697a6564000000000000000000000000000000000000\n        /* \"#utility.yul\":36909:36910   */\n      0x00\n        /* \"#utility.yul\":36901:36907   */\n      dup3\n        /* \"#utility.yul\":36897:36911   */\n      add\n        /* \"#utility.yul\":36890:36930   */\n      mstore\n        /* \"#utility.yul\":36773:36937   */\n      pop\n      jump\t// out\n        /* \"#utility.yul\":36943:37309   */\n    tag_320:\n        /* \"#utility.yul\":37085:37088   */\n      0x00\n        /* \"#utility.yul\":37106:37173   */\n      tag_656\n        /* \"#utility.yul\":37170:37172   */\n      0x0e\n        /* \"#utility.yul\":37165:37168   */\n      dup4\n        /* \"#utility.yul\":37106:37173   */\n      tag_263\n      jump\t// in\n    tag_656:\n        /* \"#utility.yul\":37099:37173   */\n      swap2\n      pop\n        /* \"#utility.yul\":37182:37275   */\n      tag_657\n        /* \"#utility.yul\":37271:37274   */\n      dup3\n        /* \"#utility.yul\":37182:37275   */\n      tag_319\n      jump\t// in\n    tag_657:\n        /* \"#utility.yul\":37300:37302   */\n      0x20\n        /* \"#utility.yul\":37295:37298   */\n      dup3\n        /* \"#utility.yul\":37291:37303   */\n      add\n        /* \"#utility.yul\":37284:37303   */\n      swap1\n      pop\n        /* \"#utility.yul\":36943:37309   */\n      swap2\n      swap1\n      pop\n      jump\t// out\n        /* \"#utility.yul\":37315:37734   */\n    tag_153:\n        /* \"#utility.yul\":37481:37485   */\n      0x00\n        /* \"#utility.yul\":37519:37521   */\n      0x20\n        /* \"#utility.yul\":37508:37517   */\n      dup3\n        /* \"#utility.yul\":37504:37522   */\n      add\n        /* \"#utility.yul\":37496:37522   */\n      swap1\n      pop\n        /* \"#utility.yul\":37568:37577   */\n      dup2\n        /* \"#utility.yul\":37562:37566   */\n      dup2\n        /* \"#utility.yul\":37558:37578   */\n      sub\n        /* \"#utility.yul\":37554:37555   */\n      0x00\n        /* \"#utility.yul\":37543:37552   */\n      dup4\n        /* \"#utility.yul\":37539:37556   */\n      add\n        /* \"#utility.yul\":37532:37579   */\n      mstore\n        /* \"#utility.yul\":37596:37727   */\n      tag_659\n        /* \"#utility.yul\":37722:37726   */\n      dup2\n        /* \"#utility.yul\":37596:37727   */\n      tag_320\n      jump\t// in\n    tag_659:\n        /* \"#utility.yul\":37588:37727   */\n      swap1\n      pop\n        /* \"#utility.yul\":37315:37734   */\n      swap2\n      swap1\n      pop\n      jump\t// out\n        /* \"#utility.yul\":37740:37916   */\n    tag_321:\n        /* \"#utility.yul\":37880:37908   */\n      0x4964656e7469666965722063616e6e6f7420626520656d707479000000000000\n        /* \"#utility.yul\":37876:37877   */\n      0x00\n        /* \"#utility.yul\":37868:37874   */\n      dup3\n        /* \"#utility.yul\":37864:37878   */\n      add\n        /* \"#utility.yul\":37857:37909   */\n      mstore\n        /* \"#utility.yul\":37740:37916   */\n      pop\n      jump\t// out\n        /* \"#utility.yul\":37922:38288   */\n    tag_322:\n        /* \"#utility.yul\":38064:38067   */\n      0x00\n        /* \"#utility.yul\":38085:38152   */\n      tag_662\n        /* \"#utility.yul\":38149:38151   */\n      0x1a\n        /* \"#utility.yul\":38144:38147   */\n      dup4\n        /* \"#utility.yul\":38085:38152   */\n      tag_263\n      jump\t// in\n    tag_662:\n        /* \"#utility.yul\":38078:38152   */\n      swap2\n      pop\n        /* \"#utility.yul\":38161:38254   */\n      tag_663\n        /* \"#utility.yul\":38250:38253   */\n      dup3\n        /* \"#utility.yul\":38161:38254   */\n      tag_321\n      jump\t// in\n    tag_663:\n        /* \"#utility.yul\":38279:38281   */\n      0x20\n        /* \"#utility.yul\":38274:38277   */\n      dup3\n        /* \"#utility.yul\":38270:38282   */\n      add\n        /* \"#utility.yul\":38263:38282   */\n      swap1\n      pop\n        /* \"#utility.yul\":37922:38288   */\n      swap2\n      swap1\n      pop\n      jump\t// out\n        /* \"#utility.yul\":38294:38713   */\n    tag_167:\n        /* \"#utility.yul\":38460:38464   */\n      0x00\n        /* \"#utility.yul\":38498:38500   */\n      0x20\n        /* \"#utility.yul\":38487:38496   */\n      dup3\n        /* \"#utility.yul\":38483:38501   */\n      add\n        /* \"#utility.yul\":38475:38501   */\n      swap1\n      pop\n        /* \"#utility.yul\":38547:38556   */\n      dup2\n        /* \"#utility.yul\":38541:38545   */\n      dup2\n        /* \"#utility.yul\":38537:38557   */\n      sub\n        /* \"#utility.yul\":38533:38534   */\n      0x00\n        /* \"#utility.yul\":38522:38531   */\n      dup4\n        /* \"#utility.yul\":38518:38535   */\n      add\n        /* \"#utility.yul\":38511:38558   */\n      mstore\n        /* \"#utility.yul\":38575:38706   */\n      tag_665\n        /* \"#utility.yul\":38701:38705   */\n      dup2\n        /* \"#utility.yul\":38575:38706   */\n      tag_322\n      jump\t// in\n    tag_665:\n        /* \"#utility.yul\":38567:38706   */\n      swap1\n      pop\n        /* \"#utility.yul\":38294:38713   */\n      swap2\n      swap1\n      pop\n      jump\t// out\n        /* \"#utility.yul\":38719:38898   */\n    tag_323:\n        /* \"#utility.yul\":38859:38890   */\n      0x4e6f2044494420666f756e6420666f7220746869732061646472657373000000\n        /* \"#utility.yul\":38855:38856   */\n      0x00\n        /* \"#utility.yul\":38847:38853   */\n      dup3\n        /* \"#utility.yul\":38843:38857   */\n      add\n        /* \"#utility.yul\":38836:38891   */\n      mstore\n        /* \"#utility.yul\":38719:38898   */\n      pop\n      jump\t// out\n        /* \"#utility.yul\":38904:39270   */\n    tag_324:\n        /* \"#utility.yul\":39046:39049   */\n      0x00\n        /* \"#utility.yul\":39067:39134   */\n      tag_668\n        /* \"#utility.yul\":39131:39133   */\n      0x1d\n        /* \"#utility.yul\":39126:39129   */\n      dup4\n        /* \"#utility.yul\":39067:39134   */\n      tag_263\n      jump\t// in\n    tag_668:\n        /* \"#utility.yul\":39060:39134   */\n      swap2\n      pop\n        /* \"#utility.yul\":39143:39236   */\n      tag_669\n        /* \"#utility.yul\":39232:39235   */\n      dup3\n        /* \"#utility.yul\":39143:39236   */\n      tag_323\n      jump\t// in\n    tag_669:\n        /* \"#utility.yul\":39261:39263   */\n      0x20\n        /* \"#utility.yul\":39256:39259   */\n      dup3\n        /* \"#utility.yul\":39252:39264   */\n      add\n        /* \"#utility.yul\":39245:39264   */\n      swap1\n      pop\n        /* \"#utility.yul\":38904:39270   */\n      swap2\n      swap1\n      pop\n      jump\t// out\n        /* \"#utility.yul\":39276:39695   */\n    tag_198:\n        /* \"#utility.yul\":39442:39446   */\n      0x00\n        /* \"#utility.yul\":39480:39482   */\n      0x20\n        /* \"#utility.yul\":39469:39478   */\n      dup3\n        /* \"#utility.yul\":39465:39483   */\n      add\n        /* \"#utility.yul\":39457:39483   */\n      swap1\n      pop\n        /* \"#utility.yul\":39529:39538   */\n      dup2\n        /* \"#utility.yul\":39523:39527   */\n      dup2\n        /* \"#utility.yul\":39519:39539   */\n      sub\n        /* \"#utility.yul\":39515:39516   */\n      0x00\n        /* \"#utility.yul\":39504:39513   */\n      dup4\n        /* \"#utility.yul\":39500:39517   */\n      add\n        /* \"#utility.yul\":39493:39540   */\n      mstore\n        /* \"#utility.yul\":39557:39688   */\n      tag_671\n        /* \"#utility.yul\":39683:39687   */\n      dup2\n        /* \"#utility.yul\":39557:39688   */\n      tag_324\n      jump\t// in\n    tag_671:\n        /* \"#utility.yul\":39549:39688   */\n      swap1\n      pop\n        /* \"#utility.yul\":39276:39695   */\n      swap2\n      swap1\n      pop\n      jump\t// out\n        /* \"#utility.yul\":39701:39873   */\n    tag_325:\n        /* \"#utility.yul\":39841:39865   */\n      0x5461736b20616c726561647920636f6d706c6574656400000000000000000000\n        /* \"#utility.yul\":39837:39838   */\n      0x00\n        /* \"#utility.yul\":39829:39835   */\n      dup3\n        /* \"#utility.yul\":39825:39839   */\n      add\n        /* \"#utility.yul\":39818:39866   */\n      mstore\n        /* \"#utility.yul\":39701:39873   */\n      pop\n      jump\t// out\n        /* \"#utility.yul\":39879:40245   */\n    tag_326:\n        /* \"#utility.yul\":40021:40024   */\n      0x00\n        /* \"#utility.yul\":40042:40109   */\n      tag_674\n        /* \"#utility.yul\":40106:40108   */\n      0x16\n        /* \"#utility.yul\":40101:40104   */\n      dup4\n        /* \"#utility.yul\":40042:40109   */\n      tag_263\n      jump\t// in\n    tag_674:\n        /* \"#utility.yul\":40035:40109   */\n      swap2\n      pop\n        /* \"#utility.yul\":40118:40211   */\n      tag_675\n        /* \"#utility.yul\":40207:40210   */\n      dup3\n        /* \"#utility.yul\":40118:40211   */\n      tag_325\n      jump\t// in\n    tag_675:\n        /* \"#utility.yul\":40236:40238   */\n      0x20\n        /* \"#utility.yul\":40231:40234   */\n      dup3\n        /* \"#utility.yul\":40227:40239   */\n      add\n        /* \"#utility.yul\":40220:40239   */\n      swap1\n      pop\n        /* \"#utility.yul\":39879:40245   */\n      swap2\n      swap1\n      pop\n      jump\t// out\n        /* \"#utility.yul\":40251:40670   */\n    tag_211:\n        /* \"#utility.yul\":40417:40421   */\n      0x00\n        /* \"#utility.yul\":40455:40457   */\n      0x20\n        /* \"#utility.yul\":40444:40453   */\n      dup3\n        /* \"#utility.yul\":40440:40458   */\n      add\n        /* \"#utility.yul\":40432:40458   */\n      swap1\n      pop\n        /* \"#utility.yul\":40504:40513   */\n      dup2\n        /* \"#utility.yul\":40498:40502   */\n      dup2\n        /* \"#utility.yul\":40494:40514   */\n      sub\n        /* \"#utility.yul\":40490:40491   */\n      0x00\n        /* \"#utility.yul\":40479:40488   */\n      dup4\n        /* \"#utility.yul\":40475:40492   */\n      add\n        /* \"#utility.yul\":40468:40515   */\n      mstore\n        /* \"#utility.yul\":40532:40663   */\n      tag_677\n        /* \"#utility.yul\":40658:40662   */\n      dup2\n        /* \"#utility.yul\":40532:40663   */\n      tag_326\n      jump\t// in\n    tag_677:\n        /* \"#utility.yul\":40524:40663   */\n      swap1\n      pop\n        /* \"#utility.yul\":40251:40670   */\n      swap2\n      swap1\n      pop\n      jump\t// out\n        /* \"#utility.yul\":40676:40857   */\n    tag_327:\n        /* \"#utility.yul\":40816:40849   */\n      0x4e6f20726f6c65732061737369676e656420666f722074686973207573657200\n        /* \"#utility.yul\":40812:40813   */\n      0x00\n        /* \"#utility.yul\":40804:40810   */\n      dup3\n        /* \"#utility.yul\":40800:40814   */\n      add\n        /* \"#utility.yul\":40793:40850   */\n      mstore\n        /* \"#utility.yul\":40676:40857   */\n      pop\n      jump\t// out\n        /* \"#utility.yul\":40863:41229   */\n    tag_328:\n        /* \"#utility.yul\":41005:41008   */\n      0x00\n        /* \"#utility.yul\":41026:41093   */\n      tag_680\n        /* \"#utility.yul\":41090:41092   */\n      0x1f\n        /* \"#utility.yul\":41085:41088   */\n      dup4\n        /* \"#utility.yul\":41026:41093   */\n      tag_263\n      jump\t// in\n    tag_680:\n        /* \"#utility.yul\":41019:41093   */\n      swap2\n      pop\n        /* \"#utility.yul\":41102:41195   */\n      tag_681\n        /* \"#utility.yul\":41191:41194   */\n      dup3\n        /* \"#utility.yul\":41102:41195   */\n      tag_327\n      jump\t// in\n    tag_681:\n        /* \"#utility.yul\":41220:41222   */\n      0x20\n        /* \"#utility.yul\":41215:41218   */\n      dup3\n        /* \"#utility.yul\":41211:41223   */\n      add\n        /* \"#utility.yul\":41204:41223   */\n      swap1\n      pop\n        /* \"#utility.yul\":40863:41229   */\n      swap2\n      swap1\n      pop\n      jump\t// out\n        /* \"#utility.yul\":41235:41654   */\n    tag_226:\n        /* \"#utility.yul\":41401:41405   */\n      0x00\n        /* \"#utility.yul\":41439:41441   */\n      0x20\n        /* \"#utility.yul\":41428:41437   */\n      dup3\n        /* \"#utility.yul\":41424:41442   */\n      add\n        /* \"#utility.yul\":41416:41442   */\n      swap1\n      pop\n        /* \"#utility.yul\":41488:41497   */\n      dup2\n        /* \"#utility.yul\":41482:41486   */\n      dup2\n        /* \"#utility.yul\":41478:41498   */\n      sub\n        /* \"#utility.yul\":41474:41475   */\n      0x00\n        /* \"#utility.yul\":41463:41472   */\n      dup4\n        /* \"#utility.yul\":41459:41476   */\n      add\n        /* \"#utility.yul\":41452:41499   */\n      mstore\n        /* \"#utility.yul\":41516:41647   */\n      tag_683\n        /* \"#utility.yul\":41642:41646   */\n      dup2\n        /* \"#utility.yul\":41516:41647   */\n      tag_328\n      jump\t// in\n    tag_683:\n        /* \"#utility.yul\":41508:41647   */\n      swap1\n      pop\n        /* \"#utility.yul\":41235:41654   */\n      swap2\n      swap1\n      pop\n      jump\t// out\n\n    auxdata: 0xa2646970667358221220eb6368427ed2be17c363c00bc189fdec940d5c2e8b0e0445a340ccc415864b0e64736f6c634300081a0033\n}\n",
				"bytecode": {
					"linkReferences": {},
					"object": "60806040525f8055348015610012575f80fd5b506040518060400160405280600781526020017f6d616e616765720000000000000000000000000000000000000000000000000081525060025f3373ffffffffffffffffffffffffffffffffffffffff1673ffffffffffffffffffffffffffffffffffffffff1681526020019081526020015f2090816100929190610371565b5060035f3373ffffffffffffffffffffffffffffffffffffffff1673ffffffffffffffffffffffffffffffffffffffff1681526020019081526020015f208060018154018082558091505060019003905f5260205f20015f6040518060400160405280600781526020017f6d616e6167657200000000000000000000000000000000000000000000000000815250909190915090816101319190610371565b50610440565b5f81519050919050565b7f4e487b71000000000000000000000000000000000000000000000000000000005f52604160045260245ffd5b7f4e487b71000000000000000000000000000000000000000000000000000000005f52602260045260245ffd5b5f60028204905060018216806101b257607f821691505b6020821081036101c5576101c461016e565b5b50919050565b5f819050815f5260205f209050919050565b5f6020601f8301049050919050565b5f82821b905092915050565b5f600883026102277fffffffffffffffffffffffffffffffffffffffffffffffffffffffffffffffff826101ec565b61023186836101ec565b95508019841693508086168417925050509392505050565b5f819050919050565b5f819050919050565b5f61027561027061026b84610249565b610252565b610249565b9050919050565b5f819050919050565b61028e8361025b565b6102a261029a8261027c565b8484546101f8565b825550505050565b5f90565b6102b66102aa565b6102c1818484610285565b505050565b5b818110156102e4576102d95f826102ae565b6001810190506102c7565b5050565b601f821115610329576102fa816101cb565b610303846101dd565b81016020851015610312578190505b61032661031e856101dd565b8301826102c6565b50505b505050565b5f82821c905092915050565b5f6103495f198460080261032e565b1980831691505092915050565b5f610361838361033a565b9150826002028217905092915050565b61037a82610137565b67ffffffffffffffff81111561039357610392610141565b5b61039d825461019b565b6103a88282856102e8565b5f60209050601f8311600181146103d9575f84156103c7578287015190505b6103d18582610356565b865550610438565b601f1984166103e7866101cb565b5f5b8281101561040e578489015182556001820191506020850194506020810190506103e9565b8683101561042b5784890151610427601f89168261033a565b8355505b6001600288020188555050505b505050505050565b6133848061044d5f395ff3fe608060405234801561000f575f80fd5b50600436106100b2575f3560e01c8063586717301161006f57806358671730146101745780638d97767214610192578063b7dfcbee146101c9578063bc9c2d55146101e5578063e1e2955814610203578063fde081741461021f576100b2565b8063022bf9c1146100b657806304a87e38146100d25780630c79586b146100f057806314c958321461010c5780631d65e77e146101285780633457d3e214610158575b5f80fd5b6100d060048036038101906100cb9190612178565b61023d565b005b6100da61061a565b6040516100e791906123e2565b60405180910390f35b61010a6004803603810190610105919061242c565b6109ca565b005b610126600480360381019061012191906124db565b610d7a565b005b610142600480360381019061013d9190612522565b610f84565b60405161014f9190612601565b60405180910390f35b610172600480360381019061016d91906124db565b6112ca565b005b61017c6114f0565b6040516101899190612630565b60405180910390f35b6101ac60048036038101906101a79190612522565b6114f5565b6040516101c09897969594939291906126af565b60405180910390f35b6101e360048036038101906101de9190612178565b611671565b005b6101ed61195a565b6040516101fa9190612739565b60405180910390f35b61021d60048036038101906102189190612522565b611af4565b005b610227611d56565b6040516102349190612814565b60405180910390f35b6040518060400160405280600781526020017f6d616e61676572000000000000000000000000000000000000000000000000008152508051906020012060025f3373ffffffffffffffffffffffffffffffffffffffff1673ffffffffffffffffffffffffffffffffffffffff1681526020019081526020015f206040516102c4919061292d565b60405180910390201461030c576040517f08c379a00000000000000000000000000000000000000000000000000000000081526004016103039061298d565b60405180910390fd5b5f73ffffffffffffffffffffffffffffffffffffffff1660015f3373ffffffffffffffffffffffffffffffffffffffff1673ffffffffffffffffffffffffffffffffffffffff1681526020019081526020015f206001015f9054906101000a900473ffffffffffffffffffffffffffffffffffffffff1673ffffffffffffffffffffffffffffffffffffffff16036103d9576040517f08c379a00000000000000000000000000000000000000000000000000000000081526004016103d090612a1b565b60405180910390fd5b5f81511161041c576040517f08c379a000000000000000000000000000000000000000000000000000000000815260040161041390612a83565b60405180910390fd5b5f338383426040516020016104349493929190612b40565b60405160208183030381529060405280519060200120905060045f8473ffffffffffffffffffffffffffffffffffffffff1673ffffffffffffffffffffffffffffffffffffffff1681526020019081526020015f2060405180608001604052803373ffffffffffffffffffffffffffffffffffffffff16815260200184815260200183815260200142815250908060018154018082558091505060019003905f5260205f2090600402015f909190919091505f820151815f015f6101000a81548173ffffffffffffffffffffffffffffffffffffffff021916908373ffffffffffffffffffffffffffffffffffffffff160217905550602082015181600101908161053f9190612d26565b506040820151816002015560608201518160030155505060035f8473ffffffffffffffffffffffffffffffffffffffff1673ffffffffffffffffffffffffffffffffffffffff1681526020019081526020015f2082908060018154018082558091505060019003905f5260205f20015f9091909190915090816105c29190612d26565b503373ffffffffffffffffffffffffffffffffffffffff167ff4313cb022699889c6eddb590e42342301cdae4824fd424ffdfdeb23d4cdbbe984848460405161060d93929190612e0d565b60405180910390a2505050565b60605f73ffffffffffffffffffffffffffffffffffffffff1660015f3373ffffffffffffffffffffffffffffffffffffffff1673ffffffffffffffffffffffffffffffffffffffff1681526020019081526020015f206001015f9054906101000a900473ffffffffffffffffffffffffffffffffffffffff1673ffffffffffffffffffffffffffffffffffffffff16146106e9576040517f08c379a00000000000000000000000000000000000000000000000000000000081526004016106e090612eb9565b60405180910390fd5b5f805467ffffffffffffffff81111561070557610704612054565b5b60405190808252806020026020018201604052801561073e57816020015b61072b611f7a565b8152602001906001900390816107235790505b5090505f805b5f548110156109c15760055f8281526020019081526020015f206005015f9054906101000a900473ffffffffffffffffffffffffffffffffffffffff1673ffffffffffffffffffffffffffffffffffffffff163373ffffffffffffffffffffffffffffffffffffffff16036109b45760055f8281526020019081526020015f20604051806101000160405290815f82015481526020016001820180546107e990612861565b80601f016020809104026020016040519081016040528092919081815260200182805461081590612861565b80156108605780601f1061083757610100808354040283529160200191610860565b820191905f5260205f20905b81548152906001019060200180831161084357829003601f168201915b5050505050815260200160028201805461087990612861565b80601f01602080910402602001604051908101604052809291908181526020018280546108a590612861565b80156108f05780601f106108c7576101008083540402835291602001916108f0565b820191905f5260205f20905b8154815290600101906020018083116108d357829003601f168201915b505050505081526020016003820154815260200160048201548152602001600582015f9054906101000a900473ffffffffffffffffffffffffffffffffffffffff1673ffffffffffffffffffffffffffffffffffffffff1673ffffffffffffffffffffffffffffffffffffffff1681526020016005820160149054906101000a900460ff1615151515815260200160068201548152505083838151811061099a57610999612ed7565b5b602002602001018190525081806109b090612f31565b9250505b8080600101915050610744565b50819250505090565b6040518060400160405280600781526020017f6d616e61676572000000000000000000000000000000000000000000000000008152508051906020012060025f3373ffffffffffffffffffffffffffffffffffffffff1673ffffffffffffffffffffffffffffffffffffffff1681526020019081526020015f20604051610a51919061292d565b604051809103902014610a99576040517f08c379a0000000000000000000000000000000000000000000000000000000008152600401610a909061298d565b60405180910390fd5b5f73ffffffffffffffffffffffffffffffffffffffff1660015f3373ffffffffffffffffffffffffffffffffffffffff1673ffffffffffffffffffffffffffffffffffffffff1681526020019081526020015f206001015f9054906101000a900473ffffffffffffffffffffffffffffffffffffffff1673ffffffffffffffffffffffffffffffffffffffff1614610b66576040517f08c379a0000000000000000000000000000000000000000000000000000000008152600401610b5d90612eb9565b60405180910390fd5b5f855111610ba9576040517f08c379a0000000000000000000000000000000000000000000000000000000008152600401610ba090612fc2565b60405180910390fd5b5f845111610bec576040517f08c379a0000000000000000000000000000000000000000000000000000000008152600401610be39061302a565b60405180910390fd5b6040518061010001604052805f5481526020018681526020018581526020018481526020018381526020018273ffffffffffffffffffffffffffffffffffffffff1681526020015f151581526020015f81525060055f805481526020019081526020015f205f820151815f01556020820151816001019081610c6e9190612d26565b506040820151816002019081610c849190612d26565b50606082015181600301556080820151816004015560a0820151816005015f6101000a81548173ffffffffffffffffffffffffffffffffffffffff021916908373ffffffffffffffffffffffffffffffffffffffff16021790555060c08201518160050160146101000a81548160ff02191690831515021790555060e082015181600601559050508073ffffffffffffffffffffffffffffffffffffffff167fa211005f5319202ee7ab6815fc340564635fb1eee9bc5a55aa10048c5b471dc45f5487604051610d55929190613048565b60405180910390a25f80815480929190610d6e90612f31565b91905055505050505050565b5f815111610dbd576040517f08c379a0000000000000000000000000000000000000000000000000000000008152600401610db4906130c0565b60405180910390fd5b5f73ffffffffffffffffffffffffffffffffffffffff1660015f3373ffffffffffffffffffffffffffffffffffffffff1673ffffffffffffffffffffffffffffffffffffffff1681526020019081526020015f206001015f9054906101000a900473ffffffffffffffffffffffffffffffffffffffff1673ffffffffffffffffffffffffffffffffffffffff1603610e8a576040517f08c379a0000000000000000000000000000000000000000000000000000000008152600401610e8190612a1b565b60405180910390fd5b5f610e9361195a565b90508180519060200120818051906020012003610ee5576040517f08c379a0000000000000000000000000000000000000000000000000000000008152600401610edc90613128565b60405180910390fd5b8160015f3373ffffffffffffffffffffffffffffffffffffffff1673ffffffffffffffffffffffffffffffffffffffff1681526020019081526020015f205f019081610f319190612d26565b503373ffffffffffffffffffffffffffffffffffffffff167f1b7934654ba536b6962955e057ce42885353bbaad8c605a5ce0678e632f2841083604051610f789190612739565b60405180910390a25050565b610f8c611f7a565b5f73ffffffffffffffffffffffffffffffffffffffff1660015f3373ffffffffffffffffffffffffffffffffffffffff1673ffffffffffffffffffffffffffffffffffffffff1681526020019081526020015f206001015f9054906101000a900473ffffffffffffffffffffffffffffffffffffffff1673ffffffffffffffffffffffffffffffffffffffff1614611059576040517f08c379a000000000000000000000000000000000000000000000000000000000815260040161105090612eb9565b60405180910390fd5b5f60055f8481526020019081526020015f209050806005015f9054906101000a900473ffffffffffffffffffffffffffffffffffffffff1673ffffffffffffffffffffffffffffffffffffffff163373ffffffffffffffffffffffffffffffffffffffff16146110fe576040517f08c379a00000000000000000000000000000000000000000000000000000000081526004016110f590613190565b60405180910390fd5b80604051806101000160405290815f820154815260200160018201805461112490612861565b80601f016020809104026020016040519081016040528092919081815260200182805461115090612861565b801561119b5780601f106111725761010080835404028352916020019161119b565b820191905f5260205f20905b81548152906001019060200180831161117e57829003601f168201915b505050505081526020016002820180546111b490612861565b80601f01602080910402602001604051908101604052809291908181526020018280546111e090612861565b801561122b5780601f106112025761010080835404028352916020019161122b565b820191905f5260205f20905b81548152906001019060200180831161120e57829003601f168201915b505050505081526020016003820154815260200160048201548152602001600582015f9054906101000a900473ffffffffffffffffffffffffffffffffffffffff1673ffffffffffffffffffffffffffffffffffffffff1673ffffffffffffffffffffffffffffffffffffffff1681526020016005820160149054906101000a900460ff16151515158152602001600682015481525050915050919050565b5f81511161130d576040517f08c379a0000000000000000000000000000000000000000000000000000000008152600401611304906131f8565b60405180910390fd5b5f73ffffffffffffffffffffffffffffffffffffffff1660015f3373ffffffffffffffffffffffffffffffffffffffff1673ffffffffffffffffffffffffffffffffffffffff1681526020019081526020015f206001015f9054906101000a900473ffffffffffffffffffffffffffffffffffffffff1673ffffffffffffffffffffffffffffffffffffffff16146113da576040517f08c379a00000000000000000000000000000000000000000000000000000000081526004016113d190612eb9565b60405180910390fd5b60405180604001604052808281526020013373ffffffffffffffffffffffffffffffffffffffff1681525060015f3373ffffffffffffffffffffffffffffffffffffffff1673ffffffffffffffffffffffffffffffffffffffff1681526020019081526020015f205f820151815f0190816114559190612d26565b506020820151816001015f6101000a81548173ffffffffffffffffffffffffffffffffffffffff021916908373ffffffffffffffffffffffffffffffffffffffff1602179055509050503373ffffffffffffffffffffffffffffffffffffffff167f1b7934654ba536b6962955e057ce42885353bbaad8c605a5ce0678e632f28410826040516114e59190612739565b60405180910390a250565b5f5481565b6005602052805f5260405f205f91509050805f01549080600101805461151a90612861565b80601f016020809104026020016040519081016040528092919081815260200182805461154690612861565b80156115915780601f1061156857610100808354040283529160200191611591565b820191905f5260205f20905b81548152906001019060200180831161157457829003601f168201915b5050505050908060020180546115a690612861565b80601f01602080910402602001604051908101604052809291908181526020018280546115d290612861565b801561161d5780601f106115f45761010080835404028352916020019161161d565b820191905f5260205f20905b81548152906001019060200180831161160057829003601f168201915b505050505090806003015490806004015490806005015f9054906101000a900473ffffffffffffffffffffffffffffffffffffffff16908060050160149054906101000a900460ff16908060060154905088565b6040518060400160405280600781526020017f6d616e61676572000000000000000000000000000000000000000000000000008152508051906020012060025f3373ffffffffffffffffffffffffffffffffffffffff1673ffffffffffffffffffffffffffffffffffffffff1681526020019081526020015f206040516116f8919061292d565b604051809103902014611740576040517f08c379a00000000000000000000000000000000000000000000000000000000081526004016117379061298d565b60405180910390fd5b5f73ffffffffffffffffffffffffffffffffffffffff1660015f3373ffffffffffffffffffffffffffffffffffffffff1673ffffffffffffffffffffffffffffffffffffffff1681526020019081526020015f206001015f9054906101000a900473ffffffffffffffffffffffffffffffffffffffff1673ffffffffffffffffffffffffffffffffffffffff160361180d576040517f08c379a000000000000000000000000000000000000000000000000000000000815260040161180490612a1b565b60405180910390fd5b5f815111611850576040517f08c379a000000000000000000000000000000000000000000000000000000000815260040161184790612a83565b60405180910390fd5b8060025f8473ffffffffffffffffffffffffffffffffffffffff1673ffffffffffffffffffffffffffffffffffffffff1681526020019081526020015f20908161189a9190612d26565b5060035f8373ffffffffffffffffffffffffffffffffffffffff1673ffffffffffffffffffffffffffffffffffffffff1681526020019081526020015f2081908060018154018082558091505060019003905f5260205f20015f9091909190915090816119079190612d26565b508173ffffffffffffffffffffffffffffffffffffffff167f3565795c2fb8842c21347d277937778bbcfe788b5b4f790fc5e408786cbe9c908260405161194e9190612739565b60405180910390a25050565b60605f73ffffffffffffffffffffffffffffffffffffffff1660015f3373ffffffffffffffffffffffffffffffffffffffff1673ffffffffffffffffffffffffffffffffffffffff1681526020019081526020015f206001015f9054906101000a900473ffffffffffffffffffffffffffffffffffffffff1673ffffffffffffffffffffffffffffffffffffffff1603611a29576040517f08c379a0000000000000000000000000000000000000000000000000000000008152600401611a2090613260565b60405180910390fd5b60015f3373ffffffffffffffffffffffffffffffffffffffff1673ffffffffffffffffffffffffffffffffffffffff1681526020019081526020015f205f018054611a7390612861565b80601f0160208091040260200160405190810160405280929190818152602001828054611a9f90612861565b8015611aea5780601f10611ac157610100808354040283529160200191611aea565b820191905f5260205f20905b815481529060010190602001808311611acd57829003601f168201915b5050505050905090565b5f73ffffffffffffffffffffffffffffffffffffffff1660015f3373ffffffffffffffffffffffffffffffffffffffff1673ffffffffffffffffffffffffffffffffffffffff1681526020019081526020015f206001015f9054906101000a900473ffffffffffffffffffffffffffffffffffffffff1673ffffffffffffffffffffffffffffffffffffffff1614611bc1576040517f08c379a0000000000000000000000000000000000000000000000000000000008152600401611bb890612eb9565b60405180910390fd5b5f60055f8381526020019081526020015f209050806005015f9054906101000a900473ffffffffffffffffffffffffffffffffffffffff1673ffffffffffffffffffffffffffffffffffffffff163373ffffffffffffffffffffffffffffffffffffffff1614611c66576040517f08c379a0000000000000000000000000000000000000000000000000000000008152600401611c5d90613190565b60405180910390fd5b8060050160149054906101000a900460ff1615611cb8576040517f08c379a0000000000000000000000000000000000000000000000000000000008152600401611caf906132c8565b60405180910390fd5b60018160050160146101000a81548160ff021916908315150217905550428160060181905550806005015f9054906101000a900473ffffffffffffffffffffffffffffffffffffffff1673ffffffffffffffffffffffffffffffffffffffff167ff684d89bb0f42287bf32838774e4b7f8a60c11804b3c6d1791fa55f306792643825f0154604051611d4a9190612630565b60405180910390a25050565b60605f73ffffffffffffffffffffffffffffffffffffffff1660015f3373ffffffffffffffffffffffffffffffffffffffff1673ffffffffffffffffffffffffffffffffffffffff1681526020019081526020015f206001015f9054906101000a900473ffffffffffffffffffffffffffffffffffffffff1673ffffffffffffffffffffffffffffffffffffffff1603611e25576040517f08c379a0000000000000000000000000000000000000000000000000000000008152600401611e1c90612a1b565b60405180910390fd5b5f60035f3373ffffffffffffffffffffffffffffffffffffffff1673ffffffffffffffffffffffffffffffffffffffff1681526020019081526020015f20805480602002602001604051908101604052809291908181526020015f905b82821015611f2a578382905f5260205f20018054611e9f90612861565b80601f0160208091040260200160405190810160405280929190818152602001828054611ecb90612861565b8015611f165780601f10611eed57610100808354040283529160200191611f16565b820191905f5260205f20905b815481529060010190602001808311611ef957829003601f168201915b505050505081526020019060010190611e82565b5050505090505f815111611f73576040517f08c379a0000000000000000000000000000000000000000000000000000000008152600401611f6a90613330565b60405180910390fd5b8091505090565b6040518061010001604052805f815260200160608152602001606081526020015f81526020015f81526020015f73ffffffffffffffffffffffffffffffffffffffff1681526020015f151581526020015f81525090565b5f604051905090565b5f80fd5b5f80fd5b5f73ffffffffffffffffffffffffffffffffffffffff82169050919050565b5f61200b82611fe2565b9050919050565b61201b81612001565b8114612025575f80fd5b50565b5f8135905061203681612012565b92915050565b5f80fd5b5f80fd5b5f601f19601f8301169050919050565b7f4e487b71000000000000000000000000000000000000000000000000000000005f52604160045260245ffd5b61208a82612044565b810181811067ffffffffffffffff821117156120a9576120a8612054565b5b80604052505050565b5f6120bb611fd1565b90506120c78282612081565b919050565b5f67ffffffffffffffff8211156120e6576120e5612054565b5b6120ef82612044565b9050602081019050919050565b828183375f83830152505050565b5f61211c612117846120cc565b6120b2565b90508281526020810184848401111561213857612137612040565b5b6121438482856120fc565b509392505050565b5f82601f83011261215f5761215e61203c565b5b813561216f84826020860161210a565b91505092915050565b5f806040838503121561218e5761218d611fda565b5b5f61219b85828601612028565b925050602083013567ffffffffffffffff8111156121bc576121bb611fde565b5b6121c88582860161214b565b9150509250929050565b5f81519050919050565b5f82825260208201905092915050565b5f819050602082019050919050565b5f819050919050565b61220d816121fb565b82525050565b5f81519050919050565b5f82825260208201905092915050565b8281835e5f83830152505050565b5f61224582612213565b61224f818561221d565b935061225f81856020860161222d565b61226881612044565b840191505092915050565b61227c81612001565b82525050565b5f8115159050919050565b61229681612282565b82525050565b5f61010083015f8301516122b25f860182612204565b50602083015184820360208601526122ca828261223b565b915050604083015184820360408601526122e4828261223b565b91505060608301516122f96060860182612204565b50608083015161230c6080860182612204565b5060a083015161231f60a0860182612273565b5060c083015161233260c086018261228d565b5060e083015161234560e0860182612204565b508091505092915050565b5f61235b838361229c565b905092915050565b5f602082019050919050565b5f612379826121d2565b61238381856121dc565b935083602082028501612395856121ec565b805f5b858110156123d057848403895281516123b18582612350565b94506123bc83612363565b925060208a01995050600181019050612398565b50829750879550505050505092915050565b5f6020820190508181035f8301526123fa818461236f565b905092915050565b61240b816121fb565b8114612415575f80fd5b50565b5f8135905061242681612402565b92915050565b5f805f805f60a0868803121561244557612444611fda565b5b5f86013567ffffffffffffffff81111561246257612461611fde565b5b61246e8882890161214b565b955050602086013567ffffffffffffffff81111561248f5761248e611fde565b5b61249b8882890161214b565b94505060406124ac88828901612418565b93505060606124bd88828901612418565b92505060806124ce88828901612028565b9150509295509295909350565b5f602082840312156124f0576124ef611fda565b5b5f82013567ffffffffffffffff81111561250d5761250c611fde565b5b6125198482850161214b565b91505092915050565b5f6020828403121561253757612536611fda565b5b5f61254484828501612418565b91505092915050565b5f61010083015f8301516125635f860182612204565b506020830151848203602086015261257b828261223b565b91505060408301518482036040860152612595828261223b565b91505060608301516125aa6060860182612204565b5060808301516125bd6080860182612204565b5060a08301516125d060a0860182612273565b5060c08301516125e360c086018261228d565b5060e08301516125f660e0860182612204565b508091505092915050565b5f6020820190508181035f830152612619818461254d565b905092915050565b61262a816121fb565b82525050565b5f6020820190506126435f830184612621565b92915050565b5f82825260208201905092915050565b5f61266382612213565b61266d8185612649565b935061267d81856020860161222d565b61268681612044565b840191505092915050565b61269a81612001565b82525050565b6126a981612282565b82525050565b5f610100820190506126c35f83018b612621565b81810360208301526126d5818a612659565b905081810360408301526126e98189612659565b90506126f86060830188612621565b6127056080830187612621565b61271260a0830186612691565b61271f60c08301856126a0565b61272c60e0830184612621565b9998505050505050505050565b5f6020820190508181035f8301526127518184612659565b905092915050565b5f81519050919050565b5f82825260208201905092915050565b5f819050602082019050919050565b5f61278d838361223b565b905092915050565b5f602082019050919050565b5f6127ab82612759565b6127b58185612763565b9350836020820285016127c785612773565b805f5b8581101561280257848403895281516127e38582612782565b94506127ee83612795565b925060208a019950506001810190506127ca565b50829750879550505050505092915050565b5f6020820190508181035f83015261282c81846127a1565b905092915050565b7f4e487b71000000000000000000000000000000000000000000000000000000005f52602260045260245ffd5b5f600282049050600182168061287857607f821691505b60208210810361288b5761288a612834565b5b50919050565b5f81905092915050565b5f819050815f5260205f209050919050565b5f81546128b981612861565b6128c38186612891565b9450600182165f81146128dd57600181146128f257612924565b60ff1983168652811515820286019350612924565b6128fb8561289b565b5f5b8381101561291c578154818901526001820191506020810190506128fd565b838801955050505b50505092915050565b5f61293882846128ad565b915081905092915050565b7f556e617574686f72697a656420616374696f6e000000000000000000000000005f82015250565b5f612977601383612649565b915061298282612943565b602082019050919050565b5f6020820190508181035f8301526129a48161296b565b9050919050565b7f4e6f206578697374696e672044494420666f756e6420666f72207468697320615f8201527f6464726573730000000000000000000000000000000000000000000000000000602082015250565b5f612a05602683612649565b9150612a10826129ab565b604082019050919050565b5f6020820190508181035f830152612a32816129f9565b9050919050565b7f526f6c652063616e6e6f7420626520656d7074790000000000000000000000005f82015250565b5f612a6d601483612649565b9150612a7882612a39565b602082019050919050565b5f6020820190508181035f830152612a9a81612a61565b9050919050565b5f8160601b9050919050565b5f612ab782612aa1565b9050919050565b5f612ac882612aad565b9050919050565b612ae0612adb82612001565b612abe565b82525050565b5f81905092915050565b5f612afa82612213565b612b048185612ae6565b9350612b1481856020860161222d565b80840191505092915050565b5f819050919050565b612b3a612b35826121fb565b612b20565b82525050565b5f612b4b8287612acf565b601482019150612b5b8286612acf565b601482019150612b6b8285612af0565b9150612b778284612b29565b60208201915081905095945050505050565b5f819050815f5260205f209050919050565b5f6020601f8301049050919050565b5f82821b905092915050565b5f60088302612be57fffffffffffffffffffffffffffffffffffffffffffffffffffffffffffffffff82612baa565b612bef8683612baa565b95508019841693508086168417925050509392505050565b5f819050919050565b5f612c2a612c25612c20846121fb565b612c07565b6121fb565b9050919050565b5f819050919050565b612c4383612c10565b612c57612c4f82612c31565b848454612bb6565b825550505050565b5f90565b612c6b612c5f565b612c76818484612c3a565b505050565b5b81811015612c9957612c8e5f82612c63565b600181019050612c7c565b5050565b601f821115612cde57612caf81612b89565b612cb884612b9b565b81016020851015612cc7578190505b612cdb612cd385612b9b565b830182612c7b565b50505b505050565b5f82821c905092915050565b5f612cfe5f1984600802612ce3565b1980831691505092915050565b5f612d168383612cef565b9150826002028217905092915050565b612d2f82612213565b67ffffffffffffffff811115612d4857612d47612054565b5b612d528254612861565b612d5d828285612c9d565b5f60209050601f831160018114612d8e575f8415612d7c578287015190505b612d868582612d0b565b865550612ded565b601f198416612d9c86612b89565b5f5b82811015612dc357848901518255600182019150602085019450602081019050612d9e565b86831015612de05784890151612ddc601f891682612cef565b8355505b6001600288020188555050505b505050505050565b5f819050919050565b612e0781612df5565b82525050565b5f606082019050612e205f830186612691565b8181036020830152612e328185612659565b9050612e416040830184612dfe565b949350505050565b7f44494420616c72656164792065786973747320666f72207468697320616464725f8201527f6573730000000000000000000000000000000000000000000000000000000000602082015250565b5f612ea3602383612649565b9150612eae82612e49565b604082019050919050565b5f6020820190508181035f830152612ed081612e97565b9050919050565b7f4e487b71000000000000000000000000000000000000000000000000000000005f52603260045260245ffd5b7f4e487b71000000000000000000000000000000000000000000000000000000005f52601160045260245ffd5b5f612f3b826121fb565b91507fffffffffffffffffffffffffffffffffffffffffffffffffffffffffffffffff8203612f6d57612f6c612f04565b5b600182019050919050565b7f4e616d652063616e6e6f7420626520656d7074790000000000000000000000005f82015250565b5f612fac601483612649565b9150612fb782612f78565b602082019050919050565b5f6020820190508181035f830152612fd981612fa0565b9050919050565b7f4465736372697074696f6e2063616e6e6f7420626520656d70747900000000005f82015250565b5f613014601b83612649565b915061301f82612fe0565b602082019050919050565b5f6020820190508181035f83015261304181613008565b9050919050565b5f60408201905061305b5f830185612621565b818103602083015261306d8184612659565b90509392505050565b7f4e6577206964656e7469666965722063616e6e6f7420626520656d70747900005f82015250565b5f6130aa601e83612649565b91506130b582613076565b602082019050919050565b5f6020820190508181035f8301526130d78161309e565b9050919050565b7f496e76616c6964206e6577206964656e746966696572000000000000000000005f82015250565b5f613112601683612649565b915061311d826130de565b602082019050919050565b5f6020820190508181035f83015261313f81613106565b9050919050565b7f4e6f7420617574686f72697a65640000000000000000000000000000000000005f82015250565b5f61317a600e83612649565b915061318582613146565b602082019050919050565b5f6020820190508181035f8301526131a78161316e565b9050919050565b7f4964656e7469666965722063616e6e6f7420626520656d7074790000000000005f82015250565b5f6131e2601a83612649565b91506131ed826131ae565b602082019050919050565b5f6020820190508181035f83015261320f816131d6565b9050919050565b7f4e6f2044494420666f756e6420666f72207468697320616464726573730000005f82015250565b5f61324a601d83612649565b915061325582613216565b602082019050919050565b5f6020820190508181035f8301526132778161323e565b9050919050565b7f5461736b20616c726561647920636f6d706c65746564000000000000000000005f82015250565b5f6132b2601683612649565b91506132bd8261327e565b602082019050919050565b5f6020820190508181035f8301526132df816132a6565b9050919050565b7f4e6f20726f6c65732061737369676e656420666f7220746869732075736572005f82015250565b5f61331a601f83612649565b9150613325826132e6565b602082019050919050565b5f6020820190508181035f8301526133478161330e565b905091905056fea2646970667358221220eb6368427ed2be17c363c00bc189fdec940d5c2e8b0e0445a340ccc415864b0e64736f6c634300081a0033",
					"opcodes": "PUSH1 0x80 PUSH1 0x40 MSTORE PUSH0 DUP1 SSTORE CALLVALUE DUP1 ISZERO PUSH2 0x12 JUMPI PUSH0 DUP1 REVERT JUMPDEST POP PUSH1 0x40 MLOAD DUP1 PUSH1 0x40 ADD PUSH1 0x40 MSTORE DUP1 PUSH1 0x7 DUP2 MSTORE PUSH1 0x20 ADD PUSH32 0x6D616E6167657200000000000000000000000000000000000000000000000000 DUP2 MSTORE POP PUSH1 0x2 PUSH0 CALLER PUSH20 0xFFFFFFFFFFFFFFFFFFFFFFFFFFFFFFFFFFFFFFFF AND PUSH20 0xFFFFFFFFFFFFFFFFFFFFFFFFFFFFFFFFFFFFFFFF AND DUP2 MSTORE PUSH1 0x20 ADD SWAP1 DUP2 MSTORE PUSH1 0x20 ADD PUSH0 KECCAK256 SWAP1 DUP2 PUSH2 0x92 SWAP2 SWAP1 PUSH2 0x371 JUMP JUMPDEST POP PUSH1 0x3 PUSH0 CALLER PUSH20 0xFFFFFFFFFFFFFFFFFFFFFFFFFFFFFFFFFFFFFFFF AND PUSH20 0xFFFFFFFFFFFFFFFFFFFFFFFFFFFFFFFFFFFFFFFF AND DUP2 MSTORE PUSH1 0x20 ADD SWAP1 DUP2 MSTORE PUSH1 0x20 ADD PUSH0 KECCAK256 DUP1 PUSH1 0x1 DUP2 SLOAD ADD DUP1 DUP3 SSTORE DUP1 SWAP2 POP POP PUSH1 0x1 SWAP1 SUB SWAP1 PUSH0 MSTORE PUSH1 0x20 PUSH0 KECCAK256 ADD PUSH0 PUSH1 0x40 MLOAD DUP1 PUSH1 0x40 ADD PUSH1 0x40 MSTORE DUP1 PUSH1 0x7 DUP2 MSTORE PUSH1 0x20 ADD PUSH32 0x6D616E6167657200000000000000000000000000000000000000000000000000 DUP2 MSTORE POP SWAP1 SWAP2 SWAP1 SWAP2 POP SWAP1 DUP2 PUSH2 0x131 SWAP2 SWAP1 PUSH2 0x371 JUMP JUMPDEST POP PUSH2 0x440 JUMP JUMPDEST PUSH0 DUP2 MLOAD SWAP1 POP SWAP2 SWAP1 POP JUMP JUMPDEST PUSH32 0x4E487B7100000000000000000000000000000000000000000000000000000000 PUSH0 MSTORE PUSH1 0x41 PUSH1 0x4 MSTORE PUSH1 0x24 PUSH0 REVERT JUMPDEST PUSH32 0x4E487B7100000000000000000000000000000000000000000000000000000000 PUSH0 MSTORE PUSH1 0x22 PUSH1 0x4 MSTORE PUSH1 0x24 PUSH0 REVERT JUMPDEST PUSH0 PUSH1 0x2 DUP3 DIV SWAP1 POP PUSH1 0x1 DUP3 AND DUP1 PUSH2 0x1B2 JUMPI PUSH1 0x7F DUP3 AND SWAP2 POP JUMPDEST PUSH1 0x20 DUP3 LT DUP2 SUB PUSH2 0x1C5 JUMPI PUSH2 0x1C4 PUSH2 0x16E JUMP JUMPDEST JUMPDEST POP SWAP2 SWAP1 POP JUMP JUMPDEST PUSH0 DUP2 SWAP1 POP DUP2 PUSH0 MSTORE PUSH1 0x20 PUSH0 KECCAK256 SWAP1 POP SWAP2 SWAP1 POP JUMP JUMPDEST PUSH0 PUSH1 0x20 PUSH1 0x1F DUP4 ADD DIV SWAP1 POP SWAP2 SWAP1 POP JUMP JUMPDEST PUSH0 DUP3 DUP3 SHL SWAP1 POP SWAP3 SWAP2 POP POP JUMP JUMPDEST PUSH0 PUSH1 0x8 DUP4 MUL PUSH2 0x227 PUSH32 0xFFFFFFFFFFFFFFFFFFFFFFFFFFFFFFFFFFFFFFFFFFFFFFFFFFFFFFFFFFFFFFFF DUP3 PUSH2 0x1EC JUMP JUMPDEST PUSH2 0x231 DUP7 DUP4 PUSH2 0x1EC JUMP JUMPDEST SWAP6 POP DUP1 NOT DUP5 AND SWAP4 POP DUP1 DUP7 AND DUP5 OR SWAP3 POP POP POP SWAP4 SWAP3 POP POP POP JUMP JUMPDEST PUSH0 DUP2 SWAP1 POP SWAP2 SWAP1 POP JUMP JUMPDEST PUSH0 DUP2 SWAP1 POP SWAP2 SWAP1 POP JUMP JUMPDEST PUSH0 PUSH2 0x275 PUSH2 0x270 PUSH2 0x26B DUP5 PUSH2 0x249 JUMP JUMPDEST PUSH2 0x252 JUMP JUMPDEST PUSH2 0x249 JUMP JUMPDEST SWAP1 POP SWAP2 SWAP1 POP JUMP JUMPDEST PUSH0 DUP2 SWAP1 POP SWAP2 SWAP1 POP JUMP JUMPDEST PUSH2 0x28E DUP4 PUSH2 0x25B JUMP JUMPDEST PUSH2 0x2A2 PUSH2 0x29A DUP3 PUSH2 0x27C JUMP JUMPDEST DUP5 DUP5 SLOAD PUSH2 0x1F8 JUMP JUMPDEST DUP3 SSTORE POP POP POP POP JUMP JUMPDEST PUSH0 SWAP1 JUMP JUMPDEST PUSH2 0x2B6 PUSH2 0x2AA JUMP JUMPDEST PUSH2 0x2C1 DUP2 DUP5 DUP5 PUSH2 0x285 JUMP JUMPDEST POP POP POP JUMP JUMPDEST JUMPDEST DUP2 DUP2 LT ISZERO PUSH2 0x2E4 JUMPI PUSH2 0x2D9 PUSH0 DUP3 PUSH2 0x2AE JUMP JUMPDEST PUSH1 0x1 DUP2 ADD SWAP1 POP PUSH2 0x2C7 JUMP JUMPDEST POP POP JUMP JUMPDEST PUSH1 0x1F DUP3 GT ISZERO PUSH2 0x329 JUMPI PUSH2 0x2FA DUP2 PUSH2 0x1CB JUMP JUMPDEST PUSH2 0x303 DUP5 PUSH2 0x1DD JUMP JUMPDEST DUP2 ADD PUSH1 0x20 DUP6 LT ISZERO PUSH2 0x312 JUMPI DUP2 SWAP1 POP JUMPDEST PUSH2 0x326 PUSH2 0x31E DUP6 PUSH2 0x1DD JUMP JUMPDEST DUP4 ADD DUP3 PUSH2 0x2C6 JUMP JUMPDEST POP POP JUMPDEST POP POP POP JUMP JUMPDEST PUSH0 DUP3 DUP3 SHR SWAP1 POP SWAP3 SWAP2 POP POP JUMP JUMPDEST PUSH0 PUSH2 0x349 PUSH0 NOT DUP5 PUSH1 0x8 MUL PUSH2 0x32E JUMP JUMPDEST NOT DUP1 DUP4 AND SWAP2 POP POP SWAP3 SWAP2 POP POP JUMP JUMPDEST PUSH0 PUSH2 0x361 DUP4 DUP4 PUSH2 0x33A JUMP JUMPDEST SWAP2 POP DUP3 PUSH1 0x2 MUL DUP3 OR SWAP1 POP SWAP3 SWAP2 POP POP JUMP JUMPDEST PUSH2 0x37A DUP3 PUSH2 0x137 JUMP JUMPDEST PUSH8 0xFFFFFFFFFFFFFFFF DUP2 GT ISZERO PUSH2 0x393 JUMPI PUSH2 0x392 PUSH2 0x141 JUMP JUMPDEST JUMPDEST PUSH2 0x39D DUP3 SLOAD PUSH2 0x19B JUMP JUMPDEST PUSH2 0x3A8 DUP3 DUP3 DUP6 PUSH2 0x2E8 JUMP JUMPDEST PUSH0 PUSH1 0x20 SWAP1 POP PUSH1 0x1F DUP4 GT PUSH1 0x1 DUP2 EQ PUSH2 0x3D9 JUMPI PUSH0 DUP5 ISZERO PUSH2 0x3C7 JUMPI DUP3 DUP8 ADD MLOAD SWAP1 POP JUMPDEST PUSH2 0x3D1 DUP6 DUP3 PUSH2 0x356 JUMP JUMPDEST DUP7 SSTORE POP PUSH2 0x438 JUMP JUMPDEST PUSH1 0x1F NOT DUP5 AND PUSH2 0x3E7 DUP7 PUSH2 0x1CB JUMP JUMPDEST PUSH0 JUMPDEST DUP3 DUP2 LT ISZERO PUSH2 0x40E JUMPI DUP5 DUP10 ADD MLOAD DUP3 SSTORE PUSH1 0x1 DUP3 ADD SWAP2 POP PUSH1 0x20 DUP6 ADD SWAP5 POP PUSH1 0x20 DUP2 ADD SWAP1 POP PUSH2 0x3E9 JUMP JUMPDEST DUP7 DUP4 LT ISZERO PUSH2 0x42B JUMPI DUP5 DUP10 ADD MLOAD PUSH2 0x427 PUSH1 0x1F DUP10 AND DUP3 PUSH2 0x33A JUMP JUMPDEST DUP4 SSTORE POP JUMPDEST PUSH1 0x1 PUSH1 0x2 DUP9 MUL ADD DUP9 SSTORE POP POP POP JUMPDEST POP POP POP POP POP POP JUMP JUMPDEST PUSH2 0x3384 DUP1 PUSH2 0x44D PUSH0 CODECOPY PUSH0 RETURN INVALID PUSH1 0x80 PUSH1 0x40 MSTORE CALLVALUE DUP1 ISZERO PUSH2 0xF JUMPI PUSH0 DUP1 REVERT JUMPDEST POP PUSH1 0x4 CALLDATASIZE LT PUSH2 0xB2 JUMPI PUSH0 CALLDATALOAD PUSH1 0xE0 SHR DUP1 PUSH4 0x58671730 GT PUSH2 0x6F JUMPI DUP1 PUSH4 0x58671730 EQ PUSH2 0x174 JUMPI DUP1 PUSH4 0x8D977672 EQ PUSH2 0x192 JUMPI DUP1 PUSH4 0xB7DFCBEE EQ PUSH2 0x1C9 JUMPI DUP1 PUSH4 0xBC9C2D55 EQ PUSH2 0x1E5 JUMPI DUP1 PUSH4 0xE1E29558 EQ PUSH2 0x203 JUMPI DUP1 PUSH4 0xFDE08174 EQ PUSH2 0x21F JUMPI PUSH2 0xB2 JUMP JUMPDEST DUP1 PUSH4 0x22BF9C1 EQ PUSH2 0xB6 JUMPI DUP1 PUSH4 0x4A87E38 EQ PUSH2 0xD2 JUMPI DUP1 PUSH4 0xC79586B EQ PUSH2 0xF0 JUMPI DUP1 PUSH4 0x14C95832 EQ PUSH2 0x10C JUMPI DUP1 PUSH4 0x1D65E77E EQ PUSH2 0x128 JUMPI DUP1 PUSH4 0x3457D3E2 EQ PUSH2 0x158 JUMPI JUMPDEST PUSH0 DUP1 REVERT JUMPDEST PUSH2 0xD0 PUSH1 0x4 DUP1 CALLDATASIZE SUB DUP2 ADD SWAP1 PUSH2 0xCB SWAP2 SWAP1 PUSH2 0x2178 JUMP JUMPDEST PUSH2 0x23D JUMP JUMPDEST STOP JUMPDEST PUSH2 0xDA PUSH2 0x61A JUMP JUMPDEST PUSH1 0x40 MLOAD PUSH2 0xE7 SWAP2 SWAP1 PUSH2 0x23E2 JUMP JUMPDEST PUSH1 0x40 MLOAD DUP1 SWAP2 SUB SWAP1 RETURN JUMPDEST PUSH2 0x10A PUSH1 0x4 DUP1 CALLDATASIZE SUB DUP2 ADD SWAP1 PUSH2 0x105 SWAP2 SWAP1 PUSH2 0x242C JUMP JUMPDEST PUSH2 0x9CA JUMP JUMPDEST STOP JUMPDEST PUSH2 0x126 PUSH1 0x4 DUP1 CALLDATASIZE SUB DUP2 ADD SWAP1 PUSH2 0x121 SWAP2 SWAP1 PUSH2 0x24DB JUMP JUMPDEST PUSH2 0xD7A JUMP JUMPDEST STOP JUMPDEST PUSH2 0x142 PUSH1 0x4 DUP1 CALLDATASIZE SUB DUP2 ADD SWAP1 PUSH2 0x13D SWAP2 SWAP1 PUSH2 0x2522 JUMP JUMPDEST PUSH2 0xF84 JUMP JUMPDEST PUSH1 0x40 MLOAD PUSH2 0x14F SWAP2 SWAP1 PUSH2 0x2601 JUMP JUMPDEST PUSH1 0x40 MLOAD DUP1 SWAP2 SUB SWAP1 RETURN JUMPDEST PUSH2 0x172 PUSH1 0x4 DUP1 CALLDATASIZE SUB DUP2 ADD SWAP1 PUSH2 0x16D SWAP2 SWAP1 PUSH2 0x24DB JUMP JUMPDEST PUSH2 0x12CA JUMP JUMPDEST STOP JUMPDEST PUSH2 0x17C PUSH2 0x14F0 JUMP JUMPDEST PUSH1 0x40 MLOAD PUSH2 0x189 SWAP2 SWAP1 PUSH2 0x2630 JUMP JUMPDEST PUSH1 0x40 MLOAD DUP1 SWAP2 SUB SWAP1 RETURN JUMPDEST PUSH2 0x1AC PUSH1 0x4 DUP1 CALLDATASIZE SUB DUP2 ADD SWAP1 PUSH2 0x1A7 SWAP2 SWAP1 PUSH2 0x2522 JUMP JUMPDEST PUSH2 0x14F5 JUMP JUMPDEST PUSH1 0x40 MLOAD PUSH2 0x1C0 SWAP9 SWAP8 SWAP7 SWAP6 SWAP5 SWAP4 SWAP3 SWAP2 SWAP1 PUSH2 0x26AF JUMP JUMPDEST PUSH1 0x40 MLOAD DUP1 SWAP2 SUB SWAP1 RETURN JUMPDEST PUSH2 0x1E3 PUSH1 0x4 DUP1 CALLDATASIZE SUB DUP2 ADD SWAP1 PUSH2 0x1DE SWAP2 SWAP1 PUSH2 0x2178 JUMP JUMPDEST PUSH2 0x1671 JUMP JUMPDEST STOP JUMPDEST PUSH2 0x1ED PUSH2 0x195A JUMP JUMPDEST PUSH1 0x40 MLOAD PUSH2 0x1FA SWAP2 SWAP1 PUSH2 0x2739 JUMP JUMPDEST PUSH1 0x40 MLOAD DUP1 SWAP2 SUB SWAP1 RETURN JUMPDEST PUSH2 0x21D PUSH1 0x4 DUP1 CALLDATASIZE SUB DUP2 ADD SWAP1 PUSH2 0x218 SWAP2 SWAP1 PUSH2 0x2522 JUMP JUMPDEST PUSH2 0x1AF4 JUMP JUMPDEST STOP JUMPDEST PUSH2 0x227 PUSH2 0x1D56 JUMP JUMPDEST PUSH1 0x40 MLOAD PUSH2 0x234 SWAP2 SWAP1 PUSH2 0x2814 JUMP JUMPDEST PUSH1 0x40 MLOAD DUP1 SWAP2 SUB SWAP1 RETURN JUMPDEST PUSH1 0x40 MLOAD DUP1 PUSH1 0x40 ADD PUSH1 0x40 MSTORE DUP1 PUSH1 0x7 DUP2 MSTORE PUSH1 0x20 ADD PUSH32 0x6D616E6167657200000000000000000000000000000000000000000000000000 DUP2 MSTORE POP DUP1 MLOAD SWAP1 PUSH1 0x20 ADD KECCAK256 PUSH1 0x2 PUSH0 CALLER PUSH20 0xFFFFFFFFFFFFFFFFFFFFFFFFFFFFFFFFFFFFFFFF AND PUSH20 0xFFFFFFFFFFFFFFFFFFFFFFFFFFFFFFFFFFFFFFFF AND DUP2 MSTORE PUSH1 0x20 ADD SWAP1 DUP2 MSTORE PUSH1 0x20 ADD PUSH0 KECCAK256 PUSH1 0x40 MLOAD PUSH2 0x2C4 SWAP2 SWAP1 PUSH2 0x292D JUMP JUMPDEST PUSH1 0x40 MLOAD DUP1 SWAP2 SUB SWAP1 KECCAK256 EQ PUSH2 0x30C JUMPI PUSH1 0x40 MLOAD PUSH32 0x8C379A000000000000000000000000000000000000000000000000000000000 DUP2 MSTORE PUSH1 0x4 ADD PUSH2 0x303 SWAP1 PUSH2 0x298D JUMP JUMPDEST PUSH1 0x40 MLOAD DUP1 SWAP2 SUB SWAP1 REVERT JUMPDEST PUSH0 PUSH20 0xFFFFFFFFFFFFFFFFFFFFFFFFFFFFFFFFFFFFFFFF AND PUSH1 0x1 PUSH0 CALLER PUSH20 0xFFFFFFFFFFFFFFFFFFFFFFFFFFFFFFFFFFFFFFFF AND PUSH20 0xFFFFFFFFFFFFFFFFFFFFFFFFFFFFFFFFFFFFFFFF AND DUP2 MSTORE PUSH1 0x20 ADD SWAP1 DUP2 MSTORE PUSH1 0x20 ADD PUSH0 KECCAK256 PUSH1 0x1 ADD PUSH0 SWAP1 SLOAD SWAP1 PUSH2 0x100 EXP SWAP1 DIV PUSH20 0xFFFFFFFFFFFFFFFFFFFFFFFFFFFFFFFFFFFFFFFF AND PUSH20 0xFFFFFFFFFFFFFFFFFFFFFFFFFFFFFFFFFFFFFFFF AND SUB PUSH2 0x3D9 JUMPI PUSH1 0x40 MLOAD PUSH32 0x8C379A000000000000000000000000000000000000000000000000000000000 DUP2 MSTORE PUSH1 0x4 ADD PUSH2 0x3D0 SWAP1 PUSH2 0x2A1B JUMP JUMPDEST PUSH1 0x40 MLOAD DUP1 SWAP2 SUB SWAP1 REVERT JUMPDEST PUSH0 DUP2 MLOAD GT PUSH2 0x41C JUMPI PUSH1 0x40 MLOAD PUSH32 0x8C379A000000000000000000000000000000000000000000000000000000000 DUP2 MSTORE PUSH1 0x4 ADD PUSH2 0x413 SWAP1 PUSH2 0x2A83 JUMP JUMPDEST PUSH1 0x40 MLOAD DUP1 SWAP2 SUB SWAP1 REVERT JUMPDEST PUSH0 CALLER DUP4 DUP4 TIMESTAMP PUSH1 0x40 MLOAD PUSH1 0x20 ADD PUSH2 0x434 SWAP5 SWAP4 SWAP3 SWAP2 SWAP1 PUSH2 0x2B40 JUMP JUMPDEST PUSH1 0x40 MLOAD PUSH1 0x20 DUP2 DUP4 SUB SUB DUP2 MSTORE SWAP1 PUSH1 0x40 MSTORE DUP1 MLOAD SWAP1 PUSH1 0x20 ADD KECCAK256 SWAP1 POP PUSH1 0x4 PUSH0 DUP5 PUSH20 0xFFFFFFFFFFFFFFFFFFFFFFFFFFFFFFFFFFFFFFFF AND PUSH20 0xFFFFFFFFFFFFFFFFFFFFFFFFFFFFFFFFFFFFFFFF AND DUP2 MSTORE PUSH1 0x20 ADD SWAP1 DUP2 MSTORE PUSH1 0x20 ADD PUSH0 KECCAK256 PUSH1 0x40 MLOAD DUP1 PUSH1 0x80 ADD PUSH1 0x40 MSTORE DUP1 CALLER PUSH20 0xFFFFFFFFFFFFFFFFFFFFFFFFFFFFFFFFFFFFFFFF AND DUP2 MSTORE PUSH1 0x20 ADD DUP5 DUP2 MSTORE PUSH1 0x20 ADD DUP4 DUP2 MSTORE PUSH1 0x20 ADD TIMESTAMP DUP2 MSTORE POP SWAP1 DUP1 PUSH1 0x1 DUP2 SLOAD ADD DUP1 DUP3 SSTORE DUP1 SWAP2 POP POP PUSH1 0x1 SWAP1 SUB SWAP1 PUSH0 MSTORE PUSH1 0x20 PUSH0 KECCAK256 SWAP1 PUSH1 0x4 MUL ADD PUSH0 SWAP1 SWAP2 SWAP1 SWAP2 SWAP1 SWAP2 POP PUSH0 DUP3 ADD MLOAD DUP2 PUSH0 ADD PUSH0 PUSH2 0x100 EXP DUP2 SLOAD DUP2 PUSH20 0xFFFFFFFFFFFFFFFFFFFFFFFFFFFFFFFFFFFFFFFF MUL NOT AND SWAP1 DUP4 PUSH20 0xFFFFFFFFFFFFFFFFFFFFFFFFFFFFFFFFFFFFFFFF AND MUL OR SWAP1 SSTORE POP PUSH1 0x20 DUP3 ADD MLOAD DUP2 PUSH1 0x1 ADD SWAP1 DUP2 PUSH2 0x53F SWAP2 SWAP1 PUSH2 0x2D26 JUMP JUMPDEST POP PUSH1 0x40 DUP3 ADD MLOAD DUP2 PUSH1 0x2 ADD SSTORE PUSH1 0x60 DUP3 ADD MLOAD DUP2 PUSH1 0x3 ADD SSTORE POP POP PUSH1 0x3 PUSH0 DUP5 PUSH20 0xFFFFFFFFFFFFFFFFFFFFFFFFFFFFFFFFFFFFFFFF AND PUSH20 0xFFFFFFFFFFFFFFFFFFFFFFFFFFFFFFFFFFFFFFFF AND DUP2 MSTORE PUSH1 0x20 ADD SWAP1 DUP2 MSTORE PUSH1 0x20 ADD PUSH0 KECCAK256 DUP3 SWAP1 DUP1 PUSH1 0x1 DUP2 SLOAD ADD DUP1 DUP3 SSTORE DUP1 SWAP2 POP POP PUSH1 0x1 SWAP1 SUB SWAP1 PUSH0 MSTORE PUSH1 0x20 PUSH0 KECCAK256 ADD PUSH0 SWAP1 SWAP2 SWAP1 SWAP2 SWAP1 SWAP2 POP SWAP1 DUP2 PUSH2 0x5C2 SWAP2 SWAP1 PUSH2 0x2D26 JUMP JUMPDEST POP CALLER PUSH20 0xFFFFFFFFFFFFFFFFFFFFFFFFFFFFFFFFFFFFFFFF AND PUSH32 0xF4313CB022699889C6EDDB590E42342301CDAE4824FD424FFDFDEB23D4CDBBE9 DUP5 DUP5 DUP5 PUSH1 0x40 MLOAD PUSH2 0x60D SWAP4 SWAP3 SWAP2 SWAP1 PUSH2 0x2E0D JUMP JUMPDEST PUSH1 0x40 MLOAD DUP1 SWAP2 SUB SWAP1 LOG2 POP POP POP JUMP JUMPDEST PUSH1 0x60 PUSH0 PUSH20 0xFFFFFFFFFFFFFFFFFFFFFFFFFFFFFFFFFFFFFFFF AND PUSH1 0x1 PUSH0 CALLER PUSH20 0xFFFFFFFFFFFFFFFFFFFFFFFFFFFFFFFFFFFFFFFF AND PUSH20 0xFFFFFFFFFFFFFFFFFFFFFFFFFFFFFFFFFFFFFFFF AND DUP2 MSTORE PUSH1 0x20 ADD SWAP1 DUP2 MSTORE PUSH1 0x20 ADD PUSH0 KECCAK256 PUSH1 0x1 ADD PUSH0 SWAP1 SLOAD SWAP1 PUSH2 0x100 EXP SWAP1 DIV PUSH20 0xFFFFFFFFFFFFFFFFFFFFFFFFFFFFFFFFFFFFFFFF AND PUSH20 0xFFFFFFFFFFFFFFFFFFFFFFFFFFFFFFFFFFFFFFFF AND EQ PUSH2 0x6E9 JUMPI PUSH1 0x40 MLOAD PUSH32 0x8C379A000000000000000000000000000000000000000000000000000000000 DUP2 MSTORE PUSH1 0x4 ADD PUSH2 0x6E0 SWAP1 PUSH2 0x2EB9 JUMP JUMPDEST PUSH1 0x40 MLOAD DUP1 SWAP2 SUB SWAP1 REVERT JUMPDEST PUSH0 DUP1 SLOAD PUSH8 0xFFFFFFFFFFFFFFFF DUP2 GT ISZERO PUSH2 0x705 JUMPI PUSH2 0x704 PUSH2 0x2054 JUMP JUMPDEST JUMPDEST PUSH1 0x40 MLOAD SWAP1 DUP1 DUP3 MSTORE DUP1 PUSH1 0x20 MUL PUSH1 0x20 ADD DUP3 ADD PUSH1 0x40 MSTORE DUP1 ISZERO PUSH2 0x73E JUMPI DUP2 PUSH1 0x20 ADD JUMPDEST PUSH2 0x72B PUSH2 0x1F7A JUMP JUMPDEST DUP2 MSTORE PUSH1 0x20 ADD SWAP1 PUSH1 0x1 SWAP1 SUB SWAP1 DUP2 PUSH2 0x723 JUMPI SWAP1 POP JUMPDEST POP SWAP1 POP PUSH0 DUP1 JUMPDEST PUSH0 SLOAD DUP2 LT ISZERO PUSH2 0x9C1 JUMPI PUSH1 0x5 PUSH0 DUP3 DUP2 MSTORE PUSH1 0x20 ADD SWAP1 DUP2 MSTORE PUSH1 0x20 ADD PUSH0 KECCAK256 PUSH1 0x5 ADD PUSH0 SWAP1 SLOAD SWAP1 PUSH2 0x100 EXP SWAP1 DIV PUSH20 0xFFFFFFFFFFFFFFFFFFFFFFFFFFFFFFFFFFFFFFFF AND PUSH20 0xFFFFFFFFFFFFFFFFFFFFFFFFFFFFFFFFFFFFFFFF AND CALLER PUSH20 0xFFFFFFFFFFFFFFFFFFFFFFFFFFFFFFFFFFFFFFFF AND SUB PUSH2 0x9B4 JUMPI PUSH1 0x5 PUSH0 DUP3 DUP2 MSTORE PUSH1 0x20 ADD SWAP1 DUP2 MSTORE PUSH1 0x20 ADD PUSH0 KECCAK256 PUSH1 0x40 MLOAD DUP1 PUSH2 0x100 ADD PUSH1 0x40 MSTORE SWAP1 DUP2 PUSH0 DUP3 ADD SLOAD DUP2 MSTORE PUSH1 0x20 ADD PUSH1 0x1 DUP3 ADD DUP1 SLOAD PUSH2 0x7E9 SWAP1 PUSH2 0x2861 JUMP JUMPDEST DUP1 PUSH1 0x1F ADD PUSH1 0x20 DUP1 SWAP2 DIV MUL PUSH1 0x20 ADD PUSH1 0x40 MLOAD SWAP1 DUP2 ADD PUSH1 0x40 MSTORE DUP1 SWAP3 SWAP2 SWAP1 DUP2 DUP2 MSTORE PUSH1 0x20 ADD DUP3 DUP1 SLOAD PUSH2 0x815 SWAP1 PUSH2 0x2861 JUMP JUMPDEST DUP1 ISZERO PUSH2 0x860 JUMPI DUP1 PUSH1 0x1F LT PUSH2 0x837 JUMPI PUSH2 0x100 DUP1 DUP4 SLOAD DIV MUL DUP4 MSTORE SWAP2 PUSH1 0x20 ADD SWAP2 PUSH2 0x860 JUMP JUMPDEST DUP3 ADD SWAP2 SWAP1 PUSH0 MSTORE PUSH1 0x20 PUSH0 KECCAK256 SWAP1 JUMPDEST DUP2 SLOAD DUP2 MSTORE SWAP1 PUSH1 0x1 ADD SWAP1 PUSH1 0x20 ADD DUP1 DUP4 GT PUSH2 0x843 JUMPI DUP3 SWAP1 SUB PUSH1 0x1F AND DUP3 ADD SWAP2 JUMPDEST POP POP POP POP POP DUP2 MSTORE PUSH1 0x20 ADD PUSH1 0x2 DUP3 ADD DUP1 SLOAD PUSH2 0x879 SWAP1 PUSH2 0x2861 JUMP JUMPDEST DUP1 PUSH1 0x1F ADD PUSH1 0x20 DUP1 SWAP2 DIV MUL PUSH1 0x20 ADD PUSH1 0x40 MLOAD SWAP1 DUP2 ADD PUSH1 0x40 MSTORE DUP1 SWAP3 SWAP2 SWAP1 DUP2 DUP2 MSTORE PUSH1 0x20 ADD DUP3 DUP1 SLOAD PUSH2 0x8A5 SWAP1 PUSH2 0x2861 JUMP JUMPDEST DUP1 ISZERO PUSH2 0x8F0 JUMPI DUP1 PUSH1 0x1F LT PUSH2 0x8C7 JUMPI PUSH2 0x100 DUP1 DUP4 SLOAD DIV MUL DUP4 MSTORE SWAP2 PUSH1 0x20 ADD SWAP2 PUSH2 0x8F0 JUMP JUMPDEST DUP3 ADD SWAP2 SWAP1 PUSH0 MSTORE PUSH1 0x20 PUSH0 KECCAK256 SWAP1 JUMPDEST DUP2 SLOAD DUP2 MSTORE SWAP1 PUSH1 0x1 ADD SWAP1 PUSH1 0x20 ADD DUP1 DUP4 GT PUSH2 0x8D3 JUMPI DUP3 SWAP1 SUB PUSH1 0x1F AND DUP3 ADD SWAP2 JUMPDEST POP POP POP POP POP DUP2 MSTORE PUSH1 0x20 ADD PUSH1 0x3 DUP3 ADD SLOAD DUP2 MSTORE PUSH1 0x20 ADD PUSH1 0x4 DUP3 ADD SLOAD DUP2 MSTORE PUSH1 0x20 ADD PUSH1 0x5 DUP3 ADD PUSH0 SWAP1 SLOAD SWAP1 PUSH2 0x100 EXP SWAP1 DIV PUSH20 0xFFFFFFFFFFFFFFFFFFFFFFFFFFFFFFFFFFFFFFFF AND PUSH20 0xFFFFFFFFFFFFFFFFFFFFFFFFFFFFFFFFFFFFFFFF AND PUSH20 0xFFFFFFFFFFFFFFFFFFFFFFFFFFFFFFFFFFFFFFFF AND DUP2 MSTORE PUSH1 0x20 ADD PUSH1 0x5 DUP3 ADD PUSH1 0x14 SWAP1 SLOAD SWAP1 PUSH2 0x100 EXP SWAP1 DIV PUSH1 0xFF AND ISZERO ISZERO ISZERO ISZERO DUP2 MSTORE PUSH1 0x20 ADD PUSH1 0x6 DUP3 ADD SLOAD DUP2 MSTORE POP POP DUP4 DUP4 DUP2 MLOAD DUP2 LT PUSH2 0x99A JUMPI PUSH2 0x999 PUSH2 0x2ED7 JUMP JUMPDEST JUMPDEST PUSH1 0x20 MUL PUSH1 0x20 ADD ADD DUP2 SWAP1 MSTORE POP DUP2 DUP1 PUSH2 0x9B0 SWAP1 PUSH2 0x2F31 JUMP JUMPDEST SWAP3 POP POP JUMPDEST DUP1 DUP1 PUSH1 0x1 ADD SWAP2 POP POP PUSH2 0x744 JUMP JUMPDEST POP DUP2 SWAP3 POP POP POP SWAP1 JUMP JUMPDEST PUSH1 0x40 MLOAD DUP1 PUSH1 0x40 ADD PUSH1 0x40 MSTORE DUP1 PUSH1 0x7 DUP2 MSTORE PUSH1 0x20 ADD PUSH32 0x6D616E6167657200000000000000000000000000000000000000000000000000 DUP2 MSTORE POP DUP1 MLOAD SWAP1 PUSH1 0x20 ADD KECCAK256 PUSH1 0x2 PUSH0 CALLER PUSH20 0xFFFFFFFFFFFFFFFFFFFFFFFFFFFFFFFFFFFFFFFF AND PUSH20 0xFFFFFFFFFFFFFFFFFFFFFFFFFFFFFFFFFFFFFFFF AND DUP2 MSTORE PUSH1 0x20 ADD SWAP1 DUP2 MSTORE PUSH1 0x20 ADD PUSH0 KECCAK256 PUSH1 0x40 MLOAD PUSH2 0xA51 SWAP2 SWAP1 PUSH2 0x292D JUMP JUMPDEST PUSH1 0x40 MLOAD DUP1 SWAP2 SUB SWAP1 KECCAK256 EQ PUSH2 0xA99 JUMPI PUSH1 0x40 MLOAD PUSH32 0x8C379A000000000000000000000000000000000000000000000000000000000 DUP2 MSTORE PUSH1 0x4 ADD PUSH2 0xA90 SWAP1 PUSH2 0x298D JUMP JUMPDEST PUSH1 0x40 MLOAD DUP1 SWAP2 SUB SWAP1 REVERT JUMPDEST PUSH0 PUSH20 0xFFFFFFFFFFFFFFFFFFFFFFFFFFFFFFFFFFFFFFFF AND PUSH1 0x1 PUSH0 CALLER PUSH20 0xFFFFFFFFFFFFFFFFFFFFFFFFFFFFFFFFFFFFFFFF AND PUSH20 0xFFFFFFFFFFFFFFFFFFFFFFFFFFFFFFFFFFFFFFFF AND DUP2 MSTORE PUSH1 0x20 ADD SWAP1 DUP2 MSTORE PUSH1 0x20 ADD PUSH0 KECCAK256 PUSH1 0x1 ADD PUSH0 SWAP1 SLOAD SWAP1 PUSH2 0x100 EXP SWAP1 DIV PUSH20 0xFFFFFFFFFFFFFFFFFFFFFFFFFFFFFFFFFFFFFFFF AND PUSH20 0xFFFFFFFFFFFFFFFFFFFFFFFFFFFFFFFFFFFFFFFF AND EQ PUSH2 0xB66 JUMPI PUSH1 0x40 MLOAD PUSH32 0x8C379A000000000000000000000000000000000000000000000000000000000 DUP2 MSTORE PUSH1 0x4 ADD PUSH2 0xB5D SWAP1 PUSH2 0x2EB9 JUMP JUMPDEST PUSH1 0x40 MLOAD DUP1 SWAP2 SUB SWAP1 REVERT JUMPDEST PUSH0 DUP6 MLOAD GT PUSH2 0xBA9 JUMPI PUSH1 0x40 MLOAD PUSH32 0x8C379A000000000000000000000000000000000000000000000000000000000 DUP2 MSTORE PUSH1 0x4 ADD PUSH2 0xBA0 SWAP1 PUSH2 0x2FC2 JUMP JUMPDEST PUSH1 0x40 MLOAD DUP1 SWAP2 SUB SWAP1 REVERT JUMPDEST PUSH0 DUP5 MLOAD GT PUSH2 0xBEC JUMPI PUSH1 0x40 MLOAD PUSH32 0x8C379A000000000000000000000000000000000000000000000000000000000 DUP2 MSTORE PUSH1 0x4 ADD PUSH2 0xBE3 SWAP1 PUSH2 0x302A JUMP JUMPDEST PUSH1 0x40 MLOAD DUP1 SWAP2 SUB SWAP1 REVERT JUMPDEST PUSH1 0x40 MLOAD DUP1 PUSH2 0x100 ADD PUSH1 0x40 MSTORE DUP1 PUSH0 SLOAD DUP2 MSTORE PUSH1 0x20 ADD DUP7 DUP2 MSTORE PUSH1 0x20 ADD DUP6 DUP2 MSTORE PUSH1 0x20 ADD DUP5 DUP2 MSTORE PUSH1 0x20 ADD DUP4 DUP2 MSTORE PUSH1 0x20 ADD DUP3 PUSH20 0xFFFFFFFFFFFFFFFFFFFFFFFFFFFFFFFFFFFFFFFF AND DUP2 MSTORE PUSH1 0x20 ADD PUSH0 ISZERO ISZERO DUP2 MSTORE PUSH1 0x20 ADD PUSH0 DUP2 MSTORE POP PUSH1 0x5 PUSH0 DUP1 SLOAD DUP2 MSTORE PUSH1 0x20 ADD SWAP1 DUP2 MSTORE PUSH1 0x20 ADD PUSH0 KECCAK256 PUSH0 DUP3 ADD MLOAD DUP2 PUSH0 ADD SSTORE PUSH1 0x20 DUP3 ADD MLOAD DUP2 PUSH1 0x1 ADD SWAP1 DUP2 PUSH2 0xC6E SWAP2 SWAP1 PUSH2 0x2D26 JUMP JUMPDEST POP PUSH1 0x40 DUP3 ADD MLOAD DUP2 PUSH1 0x2 ADD SWAP1 DUP2 PUSH2 0xC84 SWAP2 SWAP1 PUSH2 0x2D26 JUMP JUMPDEST POP PUSH1 0x60 DUP3 ADD MLOAD DUP2 PUSH1 0x3 ADD SSTORE PUSH1 0x80 DUP3 ADD MLOAD DUP2 PUSH1 0x4 ADD SSTORE PUSH1 0xA0 DUP3 ADD MLOAD DUP2 PUSH1 0x5 ADD PUSH0 PUSH2 0x100 EXP DUP2 SLOAD DUP2 PUSH20 0xFFFFFFFFFFFFFFFFFFFFFFFFFFFFFFFFFFFFFFFF MUL NOT AND SWAP1 DUP4 PUSH20 0xFFFFFFFFFFFFFFFFFFFFFFFFFFFFFFFFFFFFFFFF AND MUL OR SWAP1 SSTORE POP PUSH1 0xC0 DUP3 ADD MLOAD DUP2 PUSH1 0x5 ADD PUSH1 0x14 PUSH2 0x100 EXP DUP2 SLOAD DUP2 PUSH1 0xFF MUL NOT AND SWAP1 DUP4 ISZERO ISZERO MUL OR SWAP1 SSTORE POP PUSH1 0xE0 DUP3 ADD MLOAD DUP2 PUSH1 0x6 ADD SSTORE SWAP1 POP POP DUP1 PUSH20 0xFFFFFFFFFFFFFFFFFFFFFFFFFFFFFFFFFFFFFFFF AND PUSH32 0xA211005F5319202EE7AB6815FC340564635FB1EEE9BC5A55AA10048C5B471DC4 PUSH0 SLOAD DUP8 PUSH1 0x40 MLOAD PUSH2 0xD55 SWAP3 SWAP2 SWAP1 PUSH2 0x3048 JUMP JUMPDEST PUSH1 0x40 MLOAD DUP1 SWAP2 SUB SWAP1 LOG2 PUSH0 DUP1 DUP2 SLOAD DUP1 SWAP3 SWAP2 SWAP1 PUSH2 0xD6E SWAP1 PUSH2 0x2F31 JUMP JUMPDEST SWAP2 SWAP1 POP SSTORE POP POP POP POP POP POP JUMP JUMPDEST PUSH0 DUP2 MLOAD GT PUSH2 0xDBD JUMPI PUSH1 0x40 MLOAD PUSH32 0x8C379A000000000000000000000000000000000000000000000000000000000 DUP2 MSTORE PUSH1 0x4 ADD PUSH2 0xDB4 SWAP1 PUSH2 0x30C0 JUMP JUMPDEST PUSH1 0x40 MLOAD DUP1 SWAP2 SUB SWAP1 REVERT JUMPDEST PUSH0 PUSH20 0xFFFFFFFFFFFFFFFFFFFFFFFFFFFFFFFFFFFFFFFF AND PUSH1 0x1 PUSH0 CALLER PUSH20 0xFFFFFFFFFFFFFFFFFFFFFFFFFFFFFFFFFFFFFFFF AND PUSH20 0xFFFFFFFFFFFFFFFFFFFFFFFFFFFFFFFFFFFFFFFF AND DUP2 MSTORE PUSH1 0x20 ADD SWAP1 DUP2 MSTORE PUSH1 0x20 ADD PUSH0 KECCAK256 PUSH1 0x1 ADD PUSH0 SWAP1 SLOAD SWAP1 PUSH2 0x100 EXP SWAP1 DIV PUSH20 0xFFFFFFFFFFFFFFFFFFFFFFFFFFFFFFFFFFFFFFFF AND PUSH20 0xFFFFFFFFFFFFFFFFFFFFFFFFFFFFFFFFFFFFFFFF AND SUB PUSH2 0xE8A JUMPI PUSH1 0x40 MLOAD PUSH32 0x8C379A000000000000000000000000000000000000000000000000000000000 DUP2 MSTORE PUSH1 0x4 ADD PUSH2 0xE81 SWAP1 PUSH2 0x2A1B JUMP JUMPDEST PUSH1 0x40 MLOAD DUP1 SWAP2 SUB SWAP1 REVERT JUMPDEST PUSH0 PUSH2 0xE93 PUSH2 0x195A JUMP JUMPDEST SWAP1 POP DUP2 DUP1 MLOAD SWAP1 PUSH1 0x20 ADD KECCAK256 DUP2 DUP1 MLOAD SWAP1 PUSH1 0x20 ADD KECCAK256 SUB PUSH2 0xEE5 JUMPI PUSH1 0x40 MLOAD PUSH32 0x8C379A000000000000000000000000000000000000000000000000000000000 DUP2 MSTORE PUSH1 0x4 ADD PUSH2 0xEDC SWAP1 PUSH2 0x3128 JUMP JUMPDEST PUSH1 0x40 MLOAD DUP1 SWAP2 SUB SWAP1 REVERT JUMPDEST DUP2 PUSH1 0x1 PUSH0 CALLER PUSH20 0xFFFFFFFFFFFFFFFFFFFFFFFFFFFFFFFFFFFFFFFF AND PUSH20 0xFFFFFFFFFFFFFFFFFFFFFFFFFFFFFFFFFFFFFFFF AND DUP2 MSTORE PUSH1 0x20 ADD SWAP1 DUP2 MSTORE PUSH1 0x20 ADD PUSH0 KECCAK256 PUSH0 ADD SWAP1 DUP2 PUSH2 0xF31 SWAP2 SWAP1 PUSH2 0x2D26 JUMP JUMPDEST POP CALLER PUSH20 0xFFFFFFFFFFFFFFFFFFFFFFFFFFFFFFFFFFFFFFFF AND PUSH32 0x1B7934654BA536B6962955E057CE42885353BBAAD8C605A5CE0678E632F28410 DUP4 PUSH1 0x40 MLOAD PUSH2 0xF78 SWAP2 SWAP1 PUSH2 0x2739 JUMP JUMPDEST PUSH1 0x40 MLOAD DUP1 SWAP2 SUB SWAP1 LOG2 POP POP JUMP JUMPDEST PUSH2 0xF8C PUSH2 0x1F7A JUMP JUMPDEST PUSH0 PUSH20 0xFFFFFFFFFFFFFFFFFFFFFFFFFFFFFFFFFFFFFFFF AND PUSH1 0x1 PUSH0 CALLER PUSH20 0xFFFFFFFFFFFFFFFFFFFFFFFFFFFFFFFFFFFFFFFF AND PUSH20 0xFFFFFFFFFFFFFFFFFFFFFFFFFFFFFFFFFFFFFFFF AND DUP2 MSTORE PUSH1 0x20 ADD SWAP1 DUP2 MSTORE PUSH1 0x20 ADD PUSH0 KECCAK256 PUSH1 0x1 ADD PUSH0 SWAP1 SLOAD SWAP1 PUSH2 0x100 EXP SWAP1 DIV PUSH20 0xFFFFFFFFFFFFFFFFFFFFFFFFFFFFFFFFFFFFFFFF AND PUSH20 0xFFFFFFFFFFFFFFFFFFFFFFFFFFFFFFFFFFFFFFFF AND EQ PUSH2 0x1059 JUMPI PUSH1 0x40 MLOAD PUSH32 0x8C379A000000000000000000000000000000000000000000000000000000000 DUP2 MSTORE PUSH1 0x4 ADD PUSH2 0x1050 SWAP1 PUSH2 0x2EB9 JUMP JUMPDEST PUSH1 0x40 MLOAD DUP1 SWAP2 SUB SWAP1 REVERT JUMPDEST PUSH0 PUSH1 0x5 PUSH0 DUP5 DUP2 MSTORE PUSH1 0x20 ADD SWAP1 DUP2 MSTORE PUSH1 0x20 ADD PUSH0 KECCAK256 SWAP1 POP DUP1 PUSH1 0x5 ADD PUSH0 SWAP1 SLOAD SWAP1 PUSH2 0x100 EXP SWAP1 DIV PUSH20 0xFFFFFFFFFFFFFFFFFFFFFFFFFFFFFFFFFFFFFFFF AND PUSH20 0xFFFFFFFFFFFFFFFFFFFFFFFFFFFFFFFFFFFFFFFF AND CALLER PUSH20 0xFFFFFFFFFFFFFFFFFFFFFFFFFFFFFFFFFFFFFFFF AND EQ PUSH2 0x10FE JUMPI PUSH1 0x40 MLOAD PUSH32 0x8C379A000000000000000000000000000000000000000000000000000000000 DUP2 MSTORE PUSH1 0x4 ADD PUSH2 0x10F5 SWAP1 PUSH2 0x3190 JUMP JUMPDEST PUSH1 0x40 MLOAD DUP1 SWAP2 SUB SWAP1 REVERT JUMPDEST DUP1 PUSH1 0x40 MLOAD DUP1 PUSH2 0x100 ADD PUSH1 0x40 MSTORE SWAP1 DUP2 PUSH0 DUP3 ADD SLOAD DUP2 MSTORE PUSH1 0x20 ADD PUSH1 0x1 DUP3 ADD DUP1 SLOAD PUSH2 0x1124 SWAP1 PUSH2 0x2861 JUMP JUMPDEST DUP1 PUSH1 0x1F ADD PUSH1 0x20 DUP1 SWAP2 DIV MUL PUSH1 0x20 ADD PUSH1 0x40 MLOAD SWAP1 DUP2 ADD PUSH1 0x40 MSTORE DUP1 SWAP3 SWAP2 SWAP1 DUP2 DUP2 MSTORE PUSH1 0x20 ADD DUP3 DUP1 SLOAD PUSH2 0x1150 SWAP1 PUSH2 0x2861 JUMP JUMPDEST DUP1 ISZERO PUSH2 0x119B JUMPI DUP1 PUSH1 0x1F LT PUSH2 0x1172 JUMPI PUSH2 0x100 DUP1 DUP4 SLOAD DIV MUL DUP4 MSTORE SWAP2 PUSH1 0x20 ADD SWAP2 PUSH2 0x119B JUMP JUMPDEST DUP3 ADD SWAP2 SWAP1 PUSH0 MSTORE PUSH1 0x20 PUSH0 KECCAK256 SWAP1 JUMPDEST DUP2 SLOAD DUP2 MSTORE SWAP1 PUSH1 0x1 ADD SWAP1 PUSH1 0x20 ADD DUP1 DUP4 GT PUSH2 0x117E JUMPI DUP3 SWAP1 SUB PUSH1 0x1F AND DUP3 ADD SWAP2 JUMPDEST POP POP POP POP POP DUP2 MSTORE PUSH1 0x20 ADD PUSH1 0x2 DUP3 ADD DUP1 SLOAD PUSH2 0x11B4 SWAP1 PUSH2 0x2861 JUMP JUMPDEST DUP1 PUSH1 0x1F ADD PUSH1 0x20 DUP1 SWAP2 DIV MUL PUSH1 0x20 ADD PUSH1 0x40 MLOAD SWAP1 DUP2 ADD PUSH1 0x40 MSTORE DUP1 SWAP3 SWAP2 SWAP1 DUP2 DUP2 MSTORE PUSH1 0x20 ADD DUP3 DUP1 SLOAD PUSH2 0x11E0 SWAP1 PUSH2 0x2861 JUMP JUMPDEST DUP1 ISZERO PUSH2 0x122B JUMPI DUP1 PUSH1 0x1F LT PUSH2 0x1202 JUMPI PUSH2 0x100 DUP1 DUP4 SLOAD DIV MUL DUP4 MSTORE SWAP2 PUSH1 0x20 ADD SWAP2 PUSH2 0x122B JUMP JUMPDEST DUP3 ADD SWAP2 SWAP1 PUSH0 MSTORE PUSH1 0x20 PUSH0 KECCAK256 SWAP1 JUMPDEST DUP2 SLOAD DUP2 MSTORE SWAP1 PUSH1 0x1 ADD SWAP1 PUSH1 0x20 ADD DUP1 DUP4 GT PUSH2 0x120E JUMPI DUP3 SWAP1 SUB PUSH1 0x1F AND DUP3 ADD SWAP2 JUMPDEST POP POP POP POP POP DUP2 MSTORE PUSH1 0x20 ADD PUSH1 0x3 DUP3 ADD SLOAD DUP2 MSTORE PUSH1 0x20 ADD PUSH1 0x4 DUP3 ADD SLOAD DUP2 MSTORE PUSH1 0x20 ADD PUSH1 0x5 DUP3 ADD PUSH0 SWAP1 SLOAD SWAP1 PUSH2 0x100 EXP SWAP1 DIV PUSH20 0xFFFFFFFFFFFFFFFFFFFFFFFFFFFFFFFFFFFFFFFF AND PUSH20 0xFFFFFFFFFFFFFFFFFFFFFFFFFFFFFFFFFFFFFFFF AND PUSH20 0xFFFFFFFFFFFFFFFFFFFFFFFFFFFFFFFFFFFFFFFF AND DUP2 MSTORE PUSH1 0x20 ADD PUSH1 0x5 DUP3 ADD PUSH1 0x14 SWAP1 SLOAD SWAP1 PUSH2 0x100 EXP SWAP1 DIV PUSH1 0xFF AND ISZERO ISZERO ISZERO ISZERO DUP2 MSTORE PUSH1 0x20 ADD PUSH1 0x6 DUP3 ADD SLOAD DUP2 MSTORE POP POP SWAP2 POP POP SWAP2 SWAP1 POP JUMP JUMPDEST PUSH0 DUP2 MLOAD GT PUSH2 0x130D JUMPI PUSH1 0x40 MLOAD PUSH32 0x8C379A000000000000000000000000000000000000000000000000000000000 DUP2 MSTORE PUSH1 0x4 ADD PUSH2 0x1304 SWAP1 PUSH2 0x31F8 JUMP JUMPDEST PUSH1 0x40 MLOAD DUP1 SWAP2 SUB SWAP1 REVERT JUMPDEST PUSH0 PUSH20 0xFFFFFFFFFFFFFFFFFFFFFFFFFFFFFFFFFFFFFFFF AND PUSH1 0x1 PUSH0 CALLER PUSH20 0xFFFFFFFFFFFFFFFFFFFFFFFFFFFFFFFFFFFFFFFF AND PUSH20 0xFFFFFFFFFFFFFFFFFFFFFFFFFFFFFFFFFFFFFFFF AND DUP2 MSTORE PUSH1 0x20 ADD SWAP1 DUP2 MSTORE PUSH1 0x20 ADD PUSH0 KECCAK256 PUSH1 0x1 ADD PUSH0 SWAP1 SLOAD SWAP1 PUSH2 0x100 EXP SWAP1 DIV PUSH20 0xFFFFFFFFFFFFFFFFFFFFFFFFFFFFFFFFFFFFFFFF AND PUSH20 0xFFFFFFFFFFFFFFFFFFFFFFFFFFFFFFFFFFFFFFFF AND EQ PUSH2 0x13DA JUMPI PUSH1 0x40 MLOAD PUSH32 0x8C379A000000000000000000000000000000000000000000000000000000000 DUP2 MSTORE PUSH1 0x4 ADD PUSH2 0x13D1 SWAP1 PUSH2 0x2EB9 JUMP JUMPDEST PUSH1 0x40 MLOAD DUP1 SWAP2 SUB SWAP1 REVERT JUMPDEST PUSH1 0x40 MLOAD DUP1 PUSH1 0x40 ADD PUSH1 0x40 MSTORE DUP1 DUP3 DUP2 MSTORE PUSH1 0x20 ADD CALLER PUSH20 0xFFFFFFFFFFFFFFFFFFFFFFFFFFFFFFFFFFFFFFFF AND DUP2 MSTORE POP PUSH1 0x1 PUSH0 CALLER PUSH20 0xFFFFFFFFFFFFFFFFFFFFFFFFFFFFFFFFFFFFFFFF AND PUSH20 0xFFFFFFFFFFFFFFFFFFFFFFFFFFFFFFFFFFFFFFFF AND DUP2 MSTORE PUSH1 0x20 ADD SWAP1 DUP2 MSTORE PUSH1 0x20 ADD PUSH0 KECCAK256 PUSH0 DUP3 ADD MLOAD DUP2 PUSH0 ADD SWAP1 DUP2 PUSH2 0x1455 SWAP2 SWAP1 PUSH2 0x2D26 JUMP JUMPDEST POP PUSH1 0x20 DUP3 ADD MLOAD DUP2 PUSH1 0x1 ADD PUSH0 PUSH2 0x100 EXP DUP2 SLOAD DUP2 PUSH20 0xFFFFFFFFFFFFFFFFFFFFFFFFFFFFFFFFFFFFFFFF MUL NOT AND SWAP1 DUP4 PUSH20 0xFFFFFFFFFFFFFFFFFFFFFFFFFFFFFFFFFFFFFFFF AND MUL OR SWAP1 SSTORE POP SWAP1 POP POP CALLER PUSH20 0xFFFFFFFFFFFFFFFFFFFFFFFFFFFFFFFFFFFFFFFF AND PUSH32 0x1B7934654BA536B6962955E057CE42885353BBAAD8C605A5CE0678E632F28410 DUP3 PUSH1 0x40 MLOAD PUSH2 0x14E5 SWAP2 SWAP1 PUSH2 0x2739 JUMP JUMPDEST PUSH1 0x40 MLOAD DUP1 SWAP2 SUB SWAP1 LOG2 POP JUMP JUMPDEST PUSH0 SLOAD DUP2 JUMP JUMPDEST PUSH1 0x5 PUSH1 0x20 MSTORE DUP1 PUSH0 MSTORE PUSH1 0x40 PUSH0 KECCAK256 PUSH0 SWAP2 POP SWAP1 POP DUP1 PUSH0 ADD SLOAD SWAP1 DUP1 PUSH1 0x1 ADD DUP1 SLOAD PUSH2 0x151A SWAP1 PUSH2 0x2861 JUMP JUMPDEST DUP1 PUSH1 0x1F ADD PUSH1 0x20 DUP1 SWAP2 DIV MUL PUSH1 0x20 ADD PUSH1 0x40 MLOAD SWAP1 DUP2 ADD PUSH1 0x40 MSTORE DUP1 SWAP3 SWAP2 SWAP1 DUP2 DUP2 MSTORE PUSH1 0x20 ADD DUP3 DUP1 SLOAD PUSH2 0x1546 SWAP1 PUSH2 0x2861 JUMP JUMPDEST DUP1 ISZERO PUSH2 0x1591 JUMPI DUP1 PUSH1 0x1F LT PUSH2 0x1568 JUMPI PUSH2 0x100 DUP1 DUP4 SLOAD DIV MUL DUP4 MSTORE SWAP2 PUSH1 0x20 ADD SWAP2 PUSH2 0x1591 JUMP JUMPDEST DUP3 ADD SWAP2 SWAP1 PUSH0 MSTORE PUSH1 0x20 PUSH0 KECCAK256 SWAP1 JUMPDEST DUP2 SLOAD DUP2 MSTORE SWAP1 PUSH1 0x1 ADD SWAP1 PUSH1 0x20 ADD DUP1 DUP4 GT PUSH2 0x1574 JUMPI DUP3 SWAP1 SUB PUSH1 0x1F AND DUP3 ADD SWAP2 JUMPDEST POP POP POP POP POP SWAP1 DUP1 PUSH1 0x2 ADD DUP1 SLOAD PUSH2 0x15A6 SWAP1 PUSH2 0x2861 JUMP JUMPDEST DUP1 PUSH1 0x1F ADD PUSH1 0x20 DUP1 SWAP2 DIV MUL PUSH1 0x20 ADD PUSH1 0x40 MLOAD SWAP1 DUP2 ADD PUSH1 0x40 MSTORE DUP1 SWAP3 SWAP2 SWAP1 DUP2 DUP2 MSTORE PUSH1 0x20 ADD DUP3 DUP1 SLOAD PUSH2 0x15D2 SWAP1 PUSH2 0x2861 JUMP JUMPDEST DUP1 ISZERO PUSH2 0x161D JUMPI DUP1 PUSH1 0x1F LT PUSH2 0x15F4 JUMPI PUSH2 0x100 DUP1 DUP4 SLOAD DIV MUL DUP4 MSTORE SWAP2 PUSH1 0x20 ADD SWAP2 PUSH2 0x161D JUMP JUMPDEST DUP3 ADD SWAP2 SWAP1 PUSH0 MSTORE PUSH1 0x20 PUSH0 KECCAK256 SWAP1 JUMPDEST DUP2 SLOAD DUP2 MSTORE SWAP1 PUSH1 0x1 ADD SWAP1 PUSH1 0x20 ADD DUP1 DUP4 GT PUSH2 0x1600 JUMPI DUP3 SWAP1 SUB PUSH1 0x1F AND DUP3 ADD SWAP2 JUMPDEST POP POP POP POP POP SWAP1 DUP1 PUSH1 0x3 ADD SLOAD SWAP1 DUP1 PUSH1 0x4 ADD SLOAD SWAP1 DUP1 PUSH1 0x5 ADD PUSH0 SWAP1 SLOAD SWAP1 PUSH2 0x100 EXP SWAP1 DIV PUSH20 0xFFFFFFFFFFFFFFFFFFFFFFFFFFFFFFFFFFFFFFFF AND SWAP1 DUP1 PUSH1 0x5 ADD PUSH1 0x14 SWAP1 SLOAD SWAP1 PUSH2 0x100 EXP SWAP1 DIV PUSH1 0xFF AND SWAP1 DUP1 PUSH1 0x6 ADD SLOAD SWAP1 POP DUP9 JUMP JUMPDEST PUSH1 0x40 MLOAD DUP1 PUSH1 0x40 ADD PUSH1 0x40 MSTORE DUP1 PUSH1 0x7 DUP2 MSTORE PUSH1 0x20 ADD PUSH32 0x6D616E6167657200000000000000000000000000000000000000000000000000 DUP2 MSTORE POP DUP1 MLOAD SWAP1 PUSH1 0x20 ADD KECCAK256 PUSH1 0x2 PUSH0 CALLER PUSH20 0xFFFFFFFFFFFFFFFFFFFFFFFFFFFFFFFFFFFFFFFF AND PUSH20 0xFFFFFFFFFFFFFFFFFFFFFFFFFFFFFFFFFFFFFFFF AND DUP2 MSTORE PUSH1 0x20 ADD SWAP1 DUP2 MSTORE PUSH1 0x20 ADD PUSH0 KECCAK256 PUSH1 0x40 MLOAD PUSH2 0x16F8 SWAP2 SWAP1 PUSH2 0x292D JUMP JUMPDEST PUSH1 0x40 MLOAD DUP1 SWAP2 SUB SWAP1 KECCAK256 EQ PUSH2 0x1740 JUMPI PUSH1 0x40 MLOAD PUSH32 0x8C379A000000000000000000000000000000000000000000000000000000000 DUP2 MSTORE PUSH1 0x4 ADD PUSH2 0x1737 SWAP1 PUSH2 0x298D JUMP JUMPDEST PUSH1 0x40 MLOAD DUP1 SWAP2 SUB SWAP1 REVERT JUMPDEST PUSH0 PUSH20 0xFFFFFFFFFFFFFFFFFFFFFFFFFFFFFFFFFFFFFFFF AND PUSH1 0x1 PUSH0 CALLER PUSH20 0xFFFFFFFFFFFFFFFFFFFFFFFFFFFFFFFFFFFFFFFF AND PUSH20 0xFFFFFFFFFFFFFFFFFFFFFFFFFFFFFFFFFFFFFFFF AND DUP2 MSTORE PUSH1 0x20 ADD SWAP1 DUP2 MSTORE PUSH1 0x20 ADD PUSH0 KECCAK256 PUSH1 0x1 ADD PUSH0 SWAP1 SLOAD SWAP1 PUSH2 0x100 EXP SWAP1 DIV PUSH20 0xFFFFFFFFFFFFFFFFFFFFFFFFFFFFFFFFFFFFFFFF AND PUSH20 0xFFFFFFFFFFFFFFFFFFFFFFFFFFFFFFFFFFFFFFFF AND SUB PUSH2 0x180D JUMPI PUSH1 0x40 MLOAD PUSH32 0x8C379A000000000000000000000000000000000000000000000000000000000 DUP2 MSTORE PUSH1 0x4 ADD PUSH2 0x1804 SWAP1 PUSH2 0x2A1B JUMP JUMPDEST PUSH1 0x40 MLOAD DUP1 SWAP2 SUB SWAP1 REVERT JUMPDEST PUSH0 DUP2 MLOAD GT PUSH2 0x1850 JUMPI PUSH1 0x40 MLOAD PUSH32 0x8C379A000000000000000000000000000000000000000000000000000000000 DUP2 MSTORE PUSH1 0x4 ADD PUSH2 0x1847 SWAP1 PUSH2 0x2A83 JUMP JUMPDEST PUSH1 0x40 MLOAD DUP1 SWAP2 SUB SWAP1 REVERT JUMPDEST DUP1 PUSH1 0x2 PUSH0 DUP5 PUSH20 0xFFFFFFFFFFFFFFFFFFFFFFFFFFFFFFFFFFFFFFFF AND PUSH20 0xFFFFFFFFFFFFFFFFFFFFFFFFFFFFFFFFFFFFFFFF AND DUP2 MSTORE PUSH1 0x20 ADD SWAP1 DUP2 MSTORE PUSH1 0x20 ADD PUSH0 KECCAK256 SWAP1 DUP2 PUSH2 0x189A SWAP2 SWAP1 PUSH2 0x2D26 JUMP JUMPDEST POP PUSH1 0x3 PUSH0 DUP4 PUSH20 0xFFFFFFFFFFFFFFFFFFFFFFFFFFFFFFFFFFFFFFFF AND PUSH20 0xFFFFFFFFFFFFFFFFFFFFFFFFFFFFFFFFFFFFFFFF AND DUP2 MSTORE PUSH1 0x20 ADD SWAP1 DUP2 MSTORE PUSH1 0x20 ADD PUSH0 KECCAK256 DUP2 SWAP1 DUP1 PUSH1 0x1 DUP2 SLOAD ADD DUP1 DUP3 SSTORE DUP1 SWAP2 POP POP PUSH1 0x1 SWAP1 SUB SWAP1 PUSH0 MSTORE PUSH1 0x20 PUSH0 KECCAK256 ADD PUSH0 SWAP1 SWAP2 SWAP1 SWAP2 SWAP1 SWAP2 POP SWAP1 DUP2 PUSH2 0x1907 SWAP2 SWAP1 PUSH2 0x2D26 JUMP JUMPDEST POP DUP2 PUSH20 0xFFFFFFFFFFFFFFFFFFFFFFFFFFFFFFFFFFFFFFFF AND PUSH32 0x3565795C2FB8842C21347D277937778BBCFE788B5B4F790FC5E408786CBE9C90 DUP3 PUSH1 0x40 MLOAD PUSH2 0x194E SWAP2 SWAP1 PUSH2 0x2739 JUMP JUMPDEST PUSH1 0x40 MLOAD DUP1 SWAP2 SUB SWAP1 LOG2 POP POP JUMP JUMPDEST PUSH1 0x60 PUSH0 PUSH20 0xFFFFFFFFFFFFFFFFFFFFFFFFFFFFFFFFFFFFFFFF AND PUSH1 0x1 PUSH0 CALLER PUSH20 0xFFFFFFFFFFFFFFFFFFFFFFFFFFFFFFFFFFFFFFFF AND PUSH20 0xFFFFFFFFFFFFFFFFFFFFFFFFFFFFFFFFFFFFFFFF AND DUP2 MSTORE PUSH1 0x20 ADD SWAP1 DUP2 MSTORE PUSH1 0x20 ADD PUSH0 KECCAK256 PUSH1 0x1 ADD PUSH0 SWAP1 SLOAD SWAP1 PUSH2 0x100 EXP SWAP1 DIV PUSH20 0xFFFFFFFFFFFFFFFFFFFFFFFFFFFFFFFFFFFFFFFF AND PUSH20 0xFFFFFFFFFFFFFFFFFFFFFFFFFFFFFFFFFFFFFFFF AND SUB PUSH2 0x1A29 JUMPI PUSH1 0x40 MLOAD PUSH32 0x8C379A000000000000000000000000000000000000000000000000000000000 DUP2 MSTORE PUSH1 0x4 ADD PUSH2 0x1A20 SWAP1 PUSH2 0x3260 JUMP JUMPDEST PUSH1 0x40 MLOAD DUP1 SWAP2 SUB SWAP1 REVERT JUMPDEST PUSH1 0x1 PUSH0 CALLER PUSH20 0xFFFFFFFFFFFFFFFFFFFFFFFFFFFFFFFFFFFFFFFF AND PUSH20 0xFFFFFFFFFFFFFFFFFFFFFFFFFFFFFFFFFFFFFFFF AND DUP2 MSTORE PUSH1 0x20 ADD SWAP1 DUP2 MSTORE PUSH1 0x20 ADD PUSH0 KECCAK256 PUSH0 ADD DUP1 SLOAD PUSH2 0x1A73 SWAP1 PUSH2 0x2861 JUMP JUMPDEST DUP1 PUSH1 0x1F ADD PUSH1 0x20 DUP1 SWAP2 DIV MUL PUSH1 0x20 ADD PUSH1 0x40 MLOAD SWAP1 DUP2 ADD PUSH1 0x40 MSTORE DUP1 SWAP3 SWAP2 SWAP1 DUP2 DUP2 MSTORE PUSH1 0x20 ADD DUP3 DUP1 SLOAD PUSH2 0x1A9F SWAP1 PUSH2 0x2861 JUMP JUMPDEST DUP1 ISZERO PUSH2 0x1AEA JUMPI DUP1 PUSH1 0x1F LT PUSH2 0x1AC1 JUMPI PUSH2 0x100 DUP1 DUP4 SLOAD DIV MUL DUP4 MSTORE SWAP2 PUSH1 0x20 ADD SWAP2 PUSH2 0x1AEA JUMP JUMPDEST DUP3 ADD SWAP2 SWAP1 PUSH0 MSTORE PUSH1 0x20 PUSH0 KECCAK256 SWAP1 JUMPDEST DUP2 SLOAD DUP2 MSTORE SWAP1 PUSH1 0x1 ADD SWAP1 PUSH1 0x20 ADD DUP1 DUP4 GT PUSH2 0x1ACD JUMPI DUP3 SWAP1 SUB PUSH1 0x1F AND DUP3 ADD SWAP2 JUMPDEST POP POP POP POP POP SWAP1 POP SWAP1 JUMP JUMPDEST PUSH0 PUSH20 0xFFFFFFFFFFFFFFFFFFFFFFFFFFFFFFFFFFFFFFFF AND PUSH1 0x1 PUSH0 CALLER PUSH20 0xFFFFFFFFFFFFFFFFFFFFFFFFFFFFFFFFFFFFFFFF AND PUSH20 0xFFFFFFFFFFFFFFFFFFFFFFFFFFFFFFFFFFFFFFFF AND DUP2 MSTORE PUSH1 0x20 ADD SWAP1 DUP2 MSTORE PUSH1 0x20 ADD PUSH0 KECCAK256 PUSH1 0x1 ADD PUSH0 SWAP1 SLOAD SWAP1 PUSH2 0x100 EXP SWAP1 DIV PUSH20 0xFFFFFFFFFFFFFFFFFFFFFFFFFFFFFFFFFFFFFFFF AND PUSH20 0xFFFFFFFFFFFFFFFFFFFFFFFFFFFFFFFFFFFFFFFF AND EQ PUSH2 0x1BC1 JUMPI PUSH1 0x40 MLOAD PUSH32 0x8C379A000000000000000000000000000000000000000000000000000000000 DUP2 MSTORE PUSH1 0x4 ADD PUSH2 0x1BB8 SWAP1 PUSH2 0x2EB9 JUMP JUMPDEST PUSH1 0x40 MLOAD DUP1 SWAP2 SUB SWAP1 REVERT JUMPDEST PUSH0 PUSH1 0x5 PUSH0 DUP4 DUP2 MSTORE PUSH1 0x20 ADD SWAP1 DUP2 MSTORE PUSH1 0x20 ADD PUSH0 KECCAK256 SWAP1 POP DUP1 PUSH1 0x5 ADD PUSH0 SWAP1 SLOAD SWAP1 PUSH2 0x100 EXP SWAP1 DIV PUSH20 0xFFFFFFFFFFFFFFFFFFFFFFFFFFFFFFFFFFFFFFFF AND PUSH20 0xFFFFFFFFFFFFFFFFFFFFFFFFFFFFFFFFFFFFFFFF AND CALLER PUSH20 0xFFFFFFFFFFFFFFFFFFFFFFFFFFFFFFFFFFFFFFFF AND EQ PUSH2 0x1C66 JUMPI PUSH1 0x40 MLOAD PUSH32 0x8C379A000000000000000000000000000000000000000000000000000000000 DUP2 MSTORE PUSH1 0x4 ADD PUSH2 0x1C5D SWAP1 PUSH2 0x3190 JUMP JUMPDEST PUSH1 0x40 MLOAD DUP1 SWAP2 SUB SWAP1 REVERT JUMPDEST DUP1 PUSH1 0x5 ADD PUSH1 0x14 SWAP1 SLOAD SWAP1 PUSH2 0x100 EXP SWAP1 DIV PUSH1 0xFF AND ISZERO PUSH2 0x1CB8 JUMPI PUSH1 0x40 MLOAD PUSH32 0x8C379A000000000000000000000000000000000000000000000000000000000 DUP2 MSTORE PUSH1 0x4 ADD PUSH2 0x1CAF SWAP1 PUSH2 0x32C8 JUMP JUMPDEST PUSH1 0x40 MLOAD DUP1 SWAP2 SUB SWAP1 REVERT JUMPDEST PUSH1 0x1 DUP2 PUSH1 0x5 ADD PUSH1 0x14 PUSH2 0x100 EXP DUP2 SLOAD DUP2 PUSH1 0xFF MUL NOT AND SWAP1 DUP4 ISZERO ISZERO MUL OR SWAP1 SSTORE POP TIMESTAMP DUP2 PUSH1 0x6 ADD DUP2 SWAP1 SSTORE POP DUP1 PUSH1 0x5 ADD PUSH0 SWAP1 SLOAD SWAP1 PUSH2 0x100 EXP SWAP1 DIV PUSH20 0xFFFFFFFFFFFFFFFFFFFFFFFFFFFFFFFFFFFFFFFF AND PUSH20 0xFFFFFFFFFFFFFFFFFFFFFFFFFFFFFFFFFFFFFFFF AND PUSH32 0xF684D89BB0F42287BF32838774E4B7F8A60C11804B3C6D1791FA55F306792643 DUP3 PUSH0 ADD SLOAD PUSH1 0x40 MLOAD PUSH2 0x1D4A SWAP2 SWAP1 PUSH2 0x2630 JUMP JUMPDEST PUSH1 0x40 MLOAD DUP1 SWAP2 SUB SWAP1 LOG2 POP POP JUMP JUMPDEST PUSH1 0x60 PUSH0 PUSH20 0xFFFFFFFFFFFFFFFFFFFFFFFFFFFFFFFFFFFFFFFF AND PUSH1 0x1 PUSH0 CALLER PUSH20 0xFFFFFFFFFFFFFFFFFFFFFFFFFFFFFFFFFFFFFFFF AND PUSH20 0xFFFFFFFFFFFFFFFFFFFFFFFFFFFFFFFFFFFFFFFF AND DUP2 MSTORE PUSH1 0x20 ADD SWAP1 DUP2 MSTORE PUSH1 0x20 ADD PUSH0 KECCAK256 PUSH1 0x1 ADD PUSH0 SWAP1 SLOAD SWAP1 PUSH2 0x100 EXP SWAP1 DIV PUSH20 0xFFFFFFFFFFFFFFFFFFFFFFFFFFFFFFFFFFFFFFFF AND PUSH20 0xFFFFFFFFFFFFFFFFFFFFFFFFFFFFFFFFFFFFFFFF AND SUB PUSH2 0x1E25 JUMPI PUSH1 0x40 MLOAD PUSH32 0x8C379A000000000000000000000000000000000000000000000000000000000 DUP2 MSTORE PUSH1 0x4 ADD PUSH2 0x1E1C SWAP1 PUSH2 0x2A1B JUMP JUMPDEST PUSH1 0x40 MLOAD DUP1 SWAP2 SUB SWAP1 REVERT JUMPDEST PUSH0 PUSH1 0x3 PUSH0 CALLER PUSH20 0xFFFFFFFFFFFFFFFFFFFFFFFFFFFFFFFFFFFFFFFF AND PUSH20 0xFFFFFFFFFFFFFFFFFFFFFFFFFFFFFFFFFFFFFFFF AND DUP2 MSTORE PUSH1 0x20 ADD SWAP1 DUP2 MSTORE PUSH1 0x20 ADD PUSH0 KECCAK256 DUP1 SLOAD DUP1 PUSH1 0x20 MUL PUSH1 0x20 ADD PUSH1 0x40 MLOAD SWAP1 DUP2 ADD PUSH1 0x40 MSTORE DUP1 SWAP3 SWAP2 SWAP1 DUP2 DUP2 MSTORE PUSH1 0x20 ADD PUSH0 SWAP1 JUMPDEST DUP3 DUP3 LT ISZERO PUSH2 0x1F2A JUMPI DUP4 DUP3 SWAP1 PUSH0 MSTORE PUSH1 0x20 PUSH0 KECCAK256 ADD DUP1 SLOAD PUSH2 0x1E9F SWAP1 PUSH2 0x2861 JUMP JUMPDEST DUP1 PUSH1 0x1F ADD PUSH1 0x20 DUP1 SWAP2 DIV MUL PUSH1 0x20 ADD PUSH1 0x40 MLOAD SWAP1 DUP2 ADD PUSH1 0x40 MSTORE DUP1 SWAP3 SWAP2 SWAP1 DUP2 DUP2 MSTORE PUSH1 0x20 ADD DUP3 DUP1 SLOAD PUSH2 0x1ECB SWAP1 PUSH2 0x2861 JUMP JUMPDEST DUP1 ISZERO PUSH2 0x1F16 JUMPI DUP1 PUSH1 0x1F LT PUSH2 0x1EED JUMPI PUSH2 0x100 DUP1 DUP4 SLOAD DIV MUL DUP4 MSTORE SWAP2 PUSH1 0x20 ADD SWAP2 PUSH2 0x1F16 JUMP JUMPDEST DUP3 ADD SWAP2 SWAP1 PUSH0 MSTORE PUSH1 0x20 PUSH0 KECCAK256 SWAP1 JUMPDEST DUP2 SLOAD DUP2 MSTORE SWAP1 PUSH1 0x1 ADD SWAP1 PUSH1 0x20 ADD DUP1 DUP4 GT PUSH2 0x1EF9 JUMPI DUP3 SWAP1 SUB PUSH1 0x1F AND DUP3 ADD SWAP2 JUMPDEST POP POP POP POP POP DUP2 MSTORE PUSH1 0x20 ADD SWAP1 PUSH1 0x1 ADD SWAP1 PUSH2 0x1E82 JUMP JUMPDEST POP POP POP POP SWAP1 POP PUSH0 DUP2 MLOAD GT PUSH2 0x1F73 JUMPI PUSH1 0x40 MLOAD PUSH32 0x8C379A000000000000000000000000000000000000000000000000000000000 DUP2 MSTORE PUSH1 0x4 ADD PUSH2 0x1F6A SWAP1 PUSH2 0x3330 JUMP JUMPDEST PUSH1 0x40 MLOAD DUP1 SWAP2 SUB SWAP1 REVERT JUMPDEST DUP1 SWAP2 POP POP SWAP1 JUMP JUMPDEST PUSH1 0x40 MLOAD DUP1 PUSH2 0x100 ADD PUSH1 0x40 MSTORE DUP1 PUSH0 DUP2 MSTORE PUSH1 0x20 ADD PUSH1 0x60 DUP2 MSTORE PUSH1 0x20 ADD PUSH1 0x60 DUP2 MSTORE PUSH1 0x20 ADD PUSH0 DUP2 MSTORE PUSH1 0x20 ADD PUSH0 DUP2 MSTORE PUSH1 0x20 ADD PUSH0 PUSH20 0xFFFFFFFFFFFFFFFFFFFFFFFFFFFFFFFFFFFFFFFF AND DUP2 MSTORE PUSH1 0x20 ADD PUSH0 ISZERO ISZERO DUP2 MSTORE PUSH1 0x20 ADD PUSH0 DUP2 MSTORE POP SWAP1 JUMP JUMPDEST PUSH0 PUSH1 0x40 MLOAD SWAP1 POP SWAP1 JUMP JUMPDEST PUSH0 DUP1 REVERT JUMPDEST PUSH0 DUP1 REVERT JUMPDEST PUSH0 PUSH20 0xFFFFFFFFFFFFFFFFFFFFFFFFFFFFFFFFFFFFFFFF DUP3 AND SWAP1 POP SWAP2 SWAP1 POP JUMP JUMPDEST PUSH0 PUSH2 0x200B DUP3 PUSH2 0x1FE2 JUMP JUMPDEST SWAP1 POP SWAP2 SWAP1 POP JUMP JUMPDEST PUSH2 0x201B DUP2 PUSH2 0x2001 JUMP JUMPDEST DUP2 EQ PUSH2 0x2025 JUMPI PUSH0 DUP1 REVERT JUMPDEST POP JUMP JUMPDEST PUSH0 DUP2 CALLDATALOAD SWAP1 POP PUSH2 0x2036 DUP2 PUSH2 0x2012 JUMP JUMPDEST SWAP3 SWAP2 POP POP JUMP JUMPDEST PUSH0 DUP1 REVERT JUMPDEST PUSH0 DUP1 REVERT JUMPDEST PUSH0 PUSH1 0x1F NOT PUSH1 0x1F DUP4 ADD AND SWAP1 POP SWAP2 SWAP1 POP JUMP JUMPDEST PUSH32 0x4E487B7100000000000000000000000000000000000000000000000000000000 PUSH0 MSTORE PUSH1 0x41 PUSH1 0x4 MSTORE PUSH1 0x24 PUSH0 REVERT JUMPDEST PUSH2 0x208A DUP3 PUSH2 0x2044 JUMP JUMPDEST DUP2 ADD DUP2 DUP2 LT PUSH8 0xFFFFFFFFFFFFFFFF DUP3 GT OR ISZERO PUSH2 0x20A9 JUMPI PUSH2 0x20A8 PUSH2 0x2054 JUMP JUMPDEST JUMPDEST DUP1 PUSH1 0x40 MSTORE POP POP POP JUMP JUMPDEST PUSH0 PUSH2 0x20BB PUSH2 0x1FD1 JUMP JUMPDEST SWAP1 POP PUSH2 0x20C7 DUP3 DUP3 PUSH2 0x2081 JUMP JUMPDEST SWAP2 SWAP1 POP JUMP JUMPDEST PUSH0 PUSH8 0xFFFFFFFFFFFFFFFF DUP3 GT ISZERO PUSH2 0x20E6 JUMPI PUSH2 0x20E5 PUSH2 0x2054 JUMP JUMPDEST JUMPDEST PUSH2 0x20EF DUP3 PUSH2 0x2044 JUMP JUMPDEST SWAP1 POP PUSH1 0x20 DUP2 ADD SWAP1 POP SWAP2 SWAP1 POP JUMP JUMPDEST DUP3 DUP2 DUP4 CALLDATACOPY PUSH0 DUP4 DUP4 ADD MSTORE POP POP POP JUMP JUMPDEST PUSH0 PUSH2 0x211C PUSH2 0x2117 DUP5 PUSH2 0x20CC JUMP JUMPDEST PUSH2 0x20B2 JUMP JUMPDEST SWAP1 POP DUP3 DUP2 MSTORE PUSH1 0x20 DUP2 ADD DUP5 DUP5 DUP5 ADD GT ISZERO PUSH2 0x2138 JUMPI PUSH2 0x2137 PUSH2 0x2040 JUMP JUMPDEST JUMPDEST PUSH2 0x2143 DUP5 DUP3 DUP6 PUSH2 0x20FC JUMP JUMPDEST POP SWAP4 SWAP3 POP POP POP JUMP JUMPDEST PUSH0 DUP3 PUSH1 0x1F DUP4 ADD SLT PUSH2 0x215F JUMPI PUSH2 0x215E PUSH2 0x203C JUMP JUMPDEST JUMPDEST DUP2 CALLDATALOAD PUSH2 0x216F DUP5 DUP3 PUSH1 0x20 DUP7 ADD PUSH2 0x210A JUMP JUMPDEST SWAP2 POP POP SWAP3 SWAP2 POP POP JUMP JUMPDEST PUSH0 DUP1 PUSH1 0x40 DUP4 DUP6 SUB SLT ISZERO PUSH2 0x218E JUMPI PUSH2 0x218D PUSH2 0x1FDA JUMP JUMPDEST JUMPDEST PUSH0 PUSH2 0x219B DUP6 DUP3 DUP7 ADD PUSH2 0x2028 JUMP JUMPDEST SWAP3 POP POP PUSH1 0x20 DUP4 ADD CALLDATALOAD PUSH8 0xFFFFFFFFFFFFFFFF DUP2 GT ISZERO PUSH2 0x21BC JUMPI PUSH2 0x21BB PUSH2 0x1FDE JUMP JUMPDEST JUMPDEST PUSH2 0x21C8 DUP6 DUP3 DUP7 ADD PUSH2 0x214B JUMP JUMPDEST SWAP2 POP POP SWAP3 POP SWAP3 SWAP1 POP JUMP JUMPDEST PUSH0 DUP2 MLOAD SWAP1 POP SWAP2 SWAP1 POP JUMP JUMPDEST PUSH0 DUP3 DUP3 MSTORE PUSH1 0x20 DUP3 ADD SWAP1 POP SWAP3 SWAP2 POP POP JUMP JUMPDEST PUSH0 DUP2 SWAP1 POP PUSH1 0x20 DUP3 ADD SWAP1 POP SWAP2 SWAP1 POP JUMP JUMPDEST PUSH0 DUP2 SWAP1 POP SWAP2 SWAP1 POP JUMP JUMPDEST PUSH2 0x220D DUP2 PUSH2 0x21FB JUMP JUMPDEST DUP3 MSTORE POP POP JUMP JUMPDEST PUSH0 DUP2 MLOAD SWAP1 POP SWAP2 SWAP1 POP JUMP JUMPDEST PUSH0 DUP3 DUP3 MSTORE PUSH1 0x20 DUP3 ADD SWAP1 POP SWAP3 SWAP2 POP POP JUMP JUMPDEST DUP3 DUP2 DUP4 MCOPY PUSH0 DUP4 DUP4 ADD MSTORE POP POP POP JUMP JUMPDEST PUSH0 PUSH2 0x2245 DUP3 PUSH2 0x2213 JUMP JUMPDEST PUSH2 0x224F DUP2 DUP6 PUSH2 0x221D JUMP JUMPDEST SWAP4 POP PUSH2 0x225F DUP2 DUP6 PUSH1 0x20 DUP7 ADD PUSH2 0x222D JUMP JUMPDEST PUSH2 0x2268 DUP2 PUSH2 0x2044 JUMP JUMPDEST DUP5 ADD SWAP2 POP POP SWAP3 SWAP2 POP POP JUMP JUMPDEST PUSH2 0x227C DUP2 PUSH2 0x2001 JUMP JUMPDEST DUP3 MSTORE POP POP JUMP JUMPDEST PUSH0 DUP2 ISZERO ISZERO SWAP1 POP SWAP2 SWAP1 POP JUMP JUMPDEST PUSH2 0x2296 DUP2 PUSH2 0x2282 JUMP JUMPDEST DUP3 MSTORE POP POP JUMP JUMPDEST PUSH0 PUSH2 0x100 DUP4 ADD PUSH0 DUP4 ADD MLOAD PUSH2 0x22B2 PUSH0 DUP7 ADD DUP3 PUSH2 0x2204 JUMP JUMPDEST POP PUSH1 0x20 DUP4 ADD MLOAD DUP5 DUP3 SUB PUSH1 0x20 DUP7 ADD MSTORE PUSH2 0x22CA DUP3 DUP3 PUSH2 0x223B JUMP JUMPDEST SWAP2 POP POP PUSH1 0x40 DUP4 ADD MLOAD DUP5 DUP3 SUB PUSH1 0x40 DUP7 ADD MSTORE PUSH2 0x22E4 DUP3 DUP3 PUSH2 0x223B JUMP JUMPDEST SWAP2 POP POP PUSH1 0x60 DUP4 ADD MLOAD PUSH2 0x22F9 PUSH1 0x60 DUP7 ADD DUP3 PUSH2 0x2204 JUMP JUMPDEST POP PUSH1 0x80 DUP4 ADD MLOAD PUSH2 0x230C PUSH1 0x80 DUP7 ADD DUP3 PUSH2 0x2204 JUMP JUMPDEST POP PUSH1 0xA0 DUP4 ADD MLOAD PUSH2 0x231F PUSH1 0xA0 DUP7 ADD DUP3 PUSH2 0x2273 JUMP JUMPDEST POP PUSH1 0xC0 DUP4 ADD MLOAD PUSH2 0x2332 PUSH1 0xC0 DUP7 ADD DUP3 PUSH2 0x228D JUMP JUMPDEST POP PUSH1 0xE0 DUP4 ADD MLOAD PUSH2 0x2345 PUSH1 0xE0 DUP7 ADD DUP3 PUSH2 0x2204 JUMP JUMPDEST POP DUP1 SWAP2 POP POP SWAP3 SWAP2 POP POP JUMP JUMPDEST PUSH0 PUSH2 0x235B DUP4 DUP4 PUSH2 0x229C JUMP JUMPDEST SWAP1 POP SWAP3 SWAP2 POP POP JUMP JUMPDEST PUSH0 PUSH1 0x20 DUP3 ADD SWAP1 POP SWAP2 SWAP1 POP JUMP JUMPDEST PUSH0 PUSH2 0x2379 DUP3 PUSH2 0x21D2 JUMP JUMPDEST PUSH2 0x2383 DUP2 DUP6 PUSH2 0x21DC JUMP JUMPDEST SWAP4 POP DUP4 PUSH1 0x20 DUP3 MUL DUP6 ADD PUSH2 0x2395 DUP6 PUSH2 0x21EC JUMP JUMPDEST DUP1 PUSH0 JUMPDEST DUP6 DUP2 LT ISZERO PUSH2 0x23D0 JUMPI DUP5 DUP5 SUB DUP10 MSTORE DUP2 MLOAD PUSH2 0x23B1 DUP6 DUP3 PUSH2 0x2350 JUMP JUMPDEST SWAP5 POP PUSH2 0x23BC DUP4 PUSH2 0x2363 JUMP JUMPDEST SWAP3 POP PUSH1 0x20 DUP11 ADD SWAP10 POP POP PUSH1 0x1 DUP2 ADD SWAP1 POP PUSH2 0x2398 JUMP JUMPDEST POP DUP3 SWAP8 POP DUP8 SWAP6 POP POP POP POP POP POP SWAP3 SWAP2 POP POP JUMP JUMPDEST PUSH0 PUSH1 0x20 DUP3 ADD SWAP1 POP DUP2 DUP2 SUB PUSH0 DUP4 ADD MSTORE PUSH2 0x23FA DUP2 DUP5 PUSH2 0x236F JUMP JUMPDEST SWAP1 POP SWAP3 SWAP2 POP POP JUMP JUMPDEST PUSH2 0x240B DUP2 PUSH2 0x21FB JUMP JUMPDEST DUP2 EQ PUSH2 0x2415 JUMPI PUSH0 DUP1 REVERT JUMPDEST POP JUMP JUMPDEST PUSH0 DUP2 CALLDATALOAD SWAP1 POP PUSH2 0x2426 DUP2 PUSH2 0x2402 JUMP JUMPDEST SWAP3 SWAP2 POP POP JUMP JUMPDEST PUSH0 DUP1 PUSH0 DUP1 PUSH0 PUSH1 0xA0 DUP7 DUP9 SUB SLT ISZERO PUSH2 0x2445 JUMPI PUSH2 0x2444 PUSH2 0x1FDA JUMP JUMPDEST JUMPDEST PUSH0 DUP7 ADD CALLDATALOAD PUSH8 0xFFFFFFFFFFFFFFFF DUP2 GT ISZERO PUSH2 0x2462 JUMPI PUSH2 0x2461 PUSH2 0x1FDE JUMP JUMPDEST JUMPDEST PUSH2 0x246E DUP9 DUP3 DUP10 ADD PUSH2 0x214B JUMP JUMPDEST SWAP6 POP POP PUSH1 0x20 DUP7 ADD CALLDATALOAD PUSH8 0xFFFFFFFFFFFFFFFF DUP2 GT ISZERO PUSH2 0x248F JUMPI PUSH2 0x248E PUSH2 0x1FDE JUMP JUMPDEST JUMPDEST PUSH2 0x249B DUP9 DUP3 DUP10 ADD PUSH2 0x214B JUMP JUMPDEST SWAP5 POP POP PUSH1 0x40 PUSH2 0x24AC DUP9 DUP3 DUP10 ADD PUSH2 0x2418 JUMP JUMPDEST SWAP4 POP POP PUSH1 0x60 PUSH2 0x24BD DUP9 DUP3 DUP10 ADD PUSH2 0x2418 JUMP JUMPDEST SWAP3 POP POP PUSH1 0x80 PUSH2 0x24CE DUP9 DUP3 DUP10 ADD PUSH2 0x2028 JUMP JUMPDEST SWAP2 POP POP SWAP3 SWAP6 POP SWAP3 SWAP6 SWAP1 SWAP4 POP JUMP JUMPDEST PUSH0 PUSH1 0x20 DUP3 DUP5 SUB SLT ISZERO PUSH2 0x24F0 JUMPI PUSH2 0x24EF PUSH2 0x1FDA JUMP JUMPDEST JUMPDEST PUSH0 DUP3 ADD CALLDATALOAD PUSH8 0xFFFFFFFFFFFFFFFF DUP2 GT ISZERO PUSH2 0x250D JUMPI PUSH2 0x250C PUSH2 0x1FDE JUMP JUMPDEST JUMPDEST PUSH2 0x2519 DUP5 DUP3 DUP6 ADD PUSH2 0x214B JUMP JUMPDEST SWAP2 POP POP SWAP3 SWAP2 POP POP JUMP JUMPDEST PUSH0 PUSH1 0x20 DUP3 DUP5 SUB SLT ISZERO PUSH2 0x2537 JUMPI PUSH2 0x2536 PUSH2 0x1FDA JUMP JUMPDEST JUMPDEST PUSH0 PUSH2 0x2544 DUP5 DUP3 DUP6 ADD PUSH2 0x2418 JUMP JUMPDEST SWAP2 POP POP SWAP3 SWAP2 POP POP JUMP JUMPDEST PUSH0 PUSH2 0x100 DUP4 ADD PUSH0 DUP4 ADD MLOAD PUSH2 0x2563 PUSH0 DUP7 ADD DUP3 PUSH2 0x2204 JUMP JUMPDEST POP PUSH1 0x20 DUP4 ADD MLOAD DUP5 DUP3 SUB PUSH1 0x20 DUP7 ADD MSTORE PUSH2 0x257B DUP3 DUP3 PUSH2 0x223B JUMP JUMPDEST SWAP2 POP POP PUSH1 0x40 DUP4 ADD MLOAD DUP5 DUP3 SUB PUSH1 0x40 DUP7 ADD MSTORE PUSH2 0x2595 DUP3 DUP3 PUSH2 0x223B JUMP JUMPDEST SWAP2 POP POP PUSH1 0x60 DUP4 ADD MLOAD PUSH2 0x25AA PUSH1 0x60 DUP7 ADD DUP3 PUSH2 0x2204 JUMP JUMPDEST POP PUSH1 0x80 DUP4 ADD MLOAD PUSH2 0x25BD PUSH1 0x80 DUP7 ADD DUP3 PUSH2 0x2204 JUMP JUMPDEST POP PUSH1 0xA0 DUP4 ADD MLOAD PUSH2 0x25D0 PUSH1 0xA0 DUP7 ADD DUP3 PUSH2 0x2273 JUMP JUMPDEST POP PUSH1 0xC0 DUP4 ADD MLOAD PUSH2 0x25E3 PUSH1 0xC0 DUP7 ADD DUP3 PUSH2 0x228D JUMP JUMPDEST POP PUSH1 0xE0 DUP4 ADD MLOAD PUSH2 0x25F6 PUSH1 0xE0 DUP7 ADD DUP3 PUSH2 0x2204 JUMP JUMPDEST POP DUP1 SWAP2 POP POP SWAP3 SWAP2 POP POP JUMP JUMPDEST PUSH0 PUSH1 0x20 DUP3 ADD SWAP1 POP DUP2 DUP2 SUB PUSH0 DUP4 ADD MSTORE PUSH2 0x2619 DUP2 DUP5 PUSH2 0x254D JUMP JUMPDEST SWAP1 POP SWAP3 SWAP2 POP POP JUMP JUMPDEST PUSH2 0x262A DUP2 PUSH2 0x21FB JUMP JUMPDEST DUP3 MSTORE POP POP JUMP JUMPDEST PUSH0 PUSH1 0x20 DUP3 ADD SWAP1 POP PUSH2 0x2643 PUSH0 DUP4 ADD DUP5 PUSH2 0x2621 JUMP JUMPDEST SWAP3 SWAP2 POP POP JUMP JUMPDEST PUSH0 DUP3 DUP3 MSTORE PUSH1 0x20 DUP3 ADD SWAP1 POP SWAP3 SWAP2 POP POP JUMP JUMPDEST PUSH0 PUSH2 0x2663 DUP3 PUSH2 0x2213 JUMP JUMPDEST PUSH2 0x266D DUP2 DUP6 PUSH2 0x2649 JUMP JUMPDEST SWAP4 POP PUSH2 0x267D DUP2 DUP6 PUSH1 0x20 DUP7 ADD PUSH2 0x222D JUMP JUMPDEST PUSH2 0x2686 DUP2 PUSH2 0x2044 JUMP JUMPDEST DUP5 ADD SWAP2 POP POP SWAP3 SWAP2 POP POP JUMP JUMPDEST PUSH2 0x269A DUP2 PUSH2 0x2001 JUMP JUMPDEST DUP3 MSTORE POP POP JUMP JUMPDEST PUSH2 0x26A9 DUP2 PUSH2 0x2282 JUMP JUMPDEST DUP3 MSTORE POP POP JUMP JUMPDEST PUSH0 PUSH2 0x100 DUP3 ADD SWAP1 POP PUSH2 0x26C3 PUSH0 DUP4 ADD DUP12 PUSH2 0x2621 JUMP JUMPDEST DUP2 DUP2 SUB PUSH1 0x20 DUP4 ADD MSTORE PUSH2 0x26D5 DUP2 DUP11 PUSH2 0x2659 JUMP JUMPDEST SWAP1 POP DUP2 DUP2 SUB PUSH1 0x40 DUP4 ADD MSTORE PUSH2 0x26E9 DUP2 DUP10 PUSH2 0x2659 JUMP JUMPDEST SWAP1 POP PUSH2 0x26F8 PUSH1 0x60 DUP4 ADD DUP9 PUSH2 0x2621 JUMP JUMPDEST PUSH2 0x2705 PUSH1 0x80 DUP4 ADD DUP8 PUSH2 0x2621 JUMP JUMPDEST PUSH2 0x2712 PUSH1 0xA0 DUP4 ADD DUP7 PUSH2 0x2691 JUMP JUMPDEST PUSH2 0x271F PUSH1 0xC0 DUP4 ADD DUP6 PUSH2 0x26A0 JUMP JUMPDEST PUSH2 0x272C PUSH1 0xE0 DUP4 ADD DUP5 PUSH2 0x2621 JUMP JUMPDEST SWAP10 SWAP9 POP POP POP POP POP POP POP POP POP JUMP JUMPDEST PUSH0 PUSH1 0x20 DUP3 ADD SWAP1 POP DUP2 DUP2 SUB PUSH0 DUP4 ADD MSTORE PUSH2 0x2751 DUP2 DUP5 PUSH2 0x2659 JUMP JUMPDEST SWAP1 POP SWAP3 SWAP2 POP POP JUMP JUMPDEST PUSH0 DUP2 MLOAD SWAP1 POP SWAP2 SWAP1 POP JUMP JUMPDEST PUSH0 DUP3 DUP3 MSTORE PUSH1 0x20 DUP3 ADD SWAP1 POP SWAP3 SWAP2 POP POP JUMP JUMPDEST PUSH0 DUP2 SWAP1 POP PUSH1 0x20 DUP3 ADD SWAP1 POP SWAP2 SWAP1 POP JUMP JUMPDEST PUSH0 PUSH2 0x278D DUP4 DUP4 PUSH2 0x223B JUMP JUMPDEST SWAP1 POP SWAP3 SWAP2 POP POP JUMP JUMPDEST PUSH0 PUSH1 0x20 DUP3 ADD SWAP1 POP SWAP2 SWAP1 POP JUMP JUMPDEST PUSH0 PUSH2 0x27AB DUP3 PUSH2 0x2759 JUMP JUMPDEST PUSH2 0x27B5 DUP2 DUP6 PUSH2 0x2763 JUMP JUMPDEST SWAP4 POP DUP4 PUSH1 0x20 DUP3 MUL DUP6 ADD PUSH2 0x27C7 DUP6 PUSH2 0x2773 JUMP JUMPDEST DUP1 PUSH0 JUMPDEST DUP6 DUP2 LT ISZERO PUSH2 0x2802 JUMPI DUP5 DUP5 SUB DUP10 MSTORE DUP2 MLOAD PUSH2 0x27E3 DUP6 DUP3 PUSH2 0x2782 JUMP JUMPDEST SWAP5 POP PUSH2 0x27EE DUP4 PUSH2 0x2795 JUMP JUMPDEST SWAP3 POP PUSH1 0x20 DUP11 ADD SWAP10 POP POP PUSH1 0x1 DUP2 ADD SWAP1 POP PUSH2 0x27CA JUMP JUMPDEST POP DUP3 SWAP8 POP DUP8 SWAP6 POP POP POP POP POP POP SWAP3 SWAP2 POP POP JUMP JUMPDEST PUSH0 PUSH1 0x20 DUP3 ADD SWAP1 POP DUP2 DUP2 SUB PUSH0 DUP4 ADD MSTORE PUSH2 0x282C DUP2 DUP5 PUSH2 0x27A1 JUMP JUMPDEST SWAP1 POP SWAP3 SWAP2 POP POP JUMP JUMPDEST PUSH32 0x4E487B7100000000000000000000000000000000000000000000000000000000 PUSH0 MSTORE PUSH1 0x22 PUSH1 0x4 MSTORE PUSH1 0x24 PUSH0 REVERT JUMPDEST PUSH0 PUSH1 0x2 DUP3 DIV SWAP1 POP PUSH1 0x1 DUP3 AND DUP1 PUSH2 0x2878 JUMPI PUSH1 0x7F DUP3 AND SWAP2 POP JUMPDEST PUSH1 0x20 DUP3 LT DUP2 SUB PUSH2 0x288B JUMPI PUSH2 0x288A PUSH2 0x2834 JUMP JUMPDEST JUMPDEST POP SWAP2 SWAP1 POP JUMP JUMPDEST PUSH0 DUP2 SWAP1 POP SWAP3 SWAP2 POP POP JUMP JUMPDEST PUSH0 DUP2 SWAP1 POP DUP2 PUSH0 MSTORE PUSH1 0x20 PUSH0 KECCAK256 SWAP1 POP SWAP2 SWAP1 POP JUMP JUMPDEST PUSH0 DUP2 SLOAD PUSH2 0x28B9 DUP2 PUSH2 0x2861 JUMP JUMPDEST PUSH2 0x28C3 DUP2 DUP7 PUSH2 0x2891 JUMP JUMPDEST SWAP5 POP PUSH1 0x1 DUP3 AND PUSH0 DUP2 EQ PUSH2 0x28DD JUMPI PUSH1 0x1 DUP2 EQ PUSH2 0x28F2 JUMPI PUSH2 0x2924 JUMP JUMPDEST PUSH1 0xFF NOT DUP4 AND DUP7 MSTORE DUP2 ISZERO ISZERO DUP3 MUL DUP7 ADD SWAP4 POP PUSH2 0x2924 JUMP JUMPDEST PUSH2 0x28FB DUP6 PUSH2 0x289B JUMP JUMPDEST PUSH0 JUMPDEST DUP4 DUP2 LT ISZERO PUSH2 0x291C JUMPI DUP2 SLOAD DUP2 DUP10 ADD MSTORE PUSH1 0x1 DUP3 ADD SWAP2 POP PUSH1 0x20 DUP2 ADD SWAP1 POP PUSH2 0x28FD JUMP JUMPDEST DUP4 DUP9 ADD SWAP6 POP POP POP JUMPDEST POP POP POP SWAP3 SWAP2 POP POP JUMP JUMPDEST PUSH0 PUSH2 0x2938 DUP3 DUP5 PUSH2 0x28AD JUMP JUMPDEST SWAP2 POP DUP2 SWAP1 POP SWAP3 SWAP2 POP POP JUMP JUMPDEST PUSH32 0x556E617574686F72697A656420616374696F6E00000000000000000000000000 PUSH0 DUP3 ADD MSTORE POP JUMP JUMPDEST PUSH0 PUSH2 0x2977 PUSH1 0x13 DUP4 PUSH2 0x2649 JUMP JUMPDEST SWAP2 POP PUSH2 0x2982 DUP3 PUSH2 0x2943 JUMP JUMPDEST PUSH1 0x20 DUP3 ADD SWAP1 POP SWAP2 SWAP1 POP JUMP JUMPDEST PUSH0 PUSH1 0x20 DUP3 ADD SWAP1 POP DUP2 DUP2 SUB PUSH0 DUP4 ADD MSTORE PUSH2 0x29A4 DUP2 PUSH2 0x296B JUMP JUMPDEST SWAP1 POP SWAP2 SWAP1 POP JUMP JUMPDEST PUSH32 0x4E6F206578697374696E672044494420666F756E6420666F7220746869732061 PUSH0 DUP3 ADD MSTORE PUSH32 0x6464726573730000000000000000000000000000000000000000000000000000 PUSH1 0x20 DUP3 ADD MSTORE POP JUMP JUMPDEST PUSH0 PUSH2 0x2A05 PUSH1 0x26 DUP4 PUSH2 0x2649 JUMP JUMPDEST SWAP2 POP PUSH2 0x2A10 DUP3 PUSH2 0x29AB JUMP JUMPDEST PUSH1 0x40 DUP3 ADD SWAP1 POP SWAP2 SWAP1 POP JUMP JUMPDEST PUSH0 PUSH1 0x20 DUP3 ADD SWAP1 POP DUP2 DUP2 SUB PUSH0 DUP4 ADD MSTORE PUSH2 0x2A32 DUP2 PUSH2 0x29F9 JUMP JUMPDEST SWAP1 POP SWAP2 SWAP1 POP JUMP JUMPDEST PUSH32 0x526F6C652063616E6E6F7420626520656D707479000000000000000000000000 PUSH0 DUP3 ADD MSTORE POP JUMP JUMPDEST PUSH0 PUSH2 0x2A6D PUSH1 0x14 DUP4 PUSH2 0x2649 JUMP JUMPDEST SWAP2 POP PUSH2 0x2A78 DUP3 PUSH2 0x2A39 JUMP JUMPDEST PUSH1 0x20 DUP3 ADD SWAP1 POP SWAP2 SWAP1 POP JUMP JUMPDEST PUSH0 PUSH1 0x20 DUP3 ADD SWAP1 POP DUP2 DUP2 SUB PUSH0 DUP4 ADD MSTORE PUSH2 0x2A9A DUP2 PUSH2 0x2A61 JUMP JUMPDEST SWAP1 POP SWAP2 SWAP1 POP JUMP JUMPDEST PUSH0 DUP2 PUSH1 0x60 SHL SWAP1 POP SWAP2 SWAP1 POP JUMP JUMPDEST PUSH0 PUSH2 0x2AB7 DUP3 PUSH2 0x2AA1 JUMP JUMPDEST SWAP1 POP SWAP2 SWAP1 POP JUMP JUMPDEST PUSH0 PUSH2 0x2AC8 DUP3 PUSH2 0x2AAD JUMP JUMPDEST SWAP1 POP SWAP2 SWAP1 POP JUMP JUMPDEST PUSH2 0x2AE0 PUSH2 0x2ADB DUP3 PUSH2 0x2001 JUMP JUMPDEST PUSH2 0x2ABE JUMP JUMPDEST DUP3 MSTORE POP POP JUMP JUMPDEST PUSH0 DUP2 SWAP1 POP SWAP3 SWAP2 POP POP JUMP JUMPDEST PUSH0 PUSH2 0x2AFA DUP3 PUSH2 0x2213 JUMP JUMPDEST PUSH2 0x2B04 DUP2 DUP6 PUSH2 0x2AE6 JUMP JUMPDEST SWAP4 POP PUSH2 0x2B14 DUP2 DUP6 PUSH1 0x20 DUP7 ADD PUSH2 0x222D JUMP JUMPDEST DUP1 DUP5 ADD SWAP2 POP POP SWAP3 SWAP2 POP POP JUMP JUMPDEST PUSH0 DUP2 SWAP1 POP SWAP2 SWAP1 POP JUMP JUMPDEST PUSH2 0x2B3A PUSH2 0x2B35 DUP3 PUSH2 0x21FB JUMP JUMPDEST PUSH2 0x2B20 JUMP JUMPDEST DUP3 MSTORE POP POP JUMP JUMPDEST PUSH0 PUSH2 0x2B4B DUP3 DUP8 PUSH2 0x2ACF JUMP JUMPDEST PUSH1 0x14 DUP3 ADD SWAP2 POP PUSH2 0x2B5B DUP3 DUP7 PUSH2 0x2ACF JUMP JUMPDEST PUSH1 0x14 DUP3 ADD SWAP2 POP PUSH2 0x2B6B DUP3 DUP6 PUSH2 0x2AF0 JUMP JUMPDEST SWAP2 POP PUSH2 0x2B77 DUP3 DUP5 PUSH2 0x2B29 JUMP JUMPDEST PUSH1 0x20 DUP3 ADD SWAP2 POP DUP2 SWAP1 POP SWAP6 SWAP5 POP POP POP POP POP JUMP JUMPDEST PUSH0 DUP2 SWAP1 POP DUP2 PUSH0 MSTORE PUSH1 0x20 PUSH0 KECCAK256 SWAP1 POP SWAP2 SWAP1 POP JUMP JUMPDEST PUSH0 PUSH1 0x20 PUSH1 0x1F DUP4 ADD DIV SWAP1 POP SWAP2 SWAP1 POP JUMP JUMPDEST PUSH0 DUP3 DUP3 SHL SWAP1 POP SWAP3 SWAP2 POP POP JUMP JUMPDEST PUSH0 PUSH1 0x8 DUP4 MUL PUSH2 0x2BE5 PUSH32 0xFFFFFFFFFFFFFFFFFFFFFFFFFFFFFFFFFFFFFFFFFFFFFFFFFFFFFFFFFFFFFFFF DUP3 PUSH2 0x2BAA JUMP JUMPDEST PUSH2 0x2BEF DUP7 DUP4 PUSH2 0x2BAA JUMP JUMPDEST SWAP6 POP DUP1 NOT DUP5 AND SWAP4 POP DUP1 DUP7 AND DUP5 OR SWAP3 POP POP POP SWAP4 SWAP3 POP POP POP JUMP JUMPDEST PUSH0 DUP2 SWAP1 POP SWAP2 SWAP1 POP JUMP JUMPDEST PUSH0 PUSH2 0x2C2A PUSH2 0x2C25 PUSH2 0x2C20 DUP5 PUSH2 0x21FB JUMP JUMPDEST PUSH2 0x2C07 JUMP JUMPDEST PUSH2 0x21FB JUMP JUMPDEST SWAP1 POP SWAP2 SWAP1 POP JUMP JUMPDEST PUSH0 DUP2 SWAP1 POP SWAP2 SWAP1 POP JUMP JUMPDEST PUSH2 0x2C43 DUP4 PUSH2 0x2C10 JUMP JUMPDEST PUSH2 0x2C57 PUSH2 0x2C4F DUP3 PUSH2 0x2C31 JUMP JUMPDEST DUP5 DUP5 SLOAD PUSH2 0x2BB6 JUMP JUMPDEST DUP3 SSTORE POP POP POP POP JUMP JUMPDEST PUSH0 SWAP1 JUMP JUMPDEST PUSH2 0x2C6B PUSH2 0x2C5F JUMP JUMPDEST PUSH2 0x2C76 DUP2 DUP5 DUP5 PUSH2 0x2C3A JUMP JUMPDEST POP POP POP JUMP JUMPDEST JUMPDEST DUP2 DUP2 LT ISZERO PUSH2 0x2C99 JUMPI PUSH2 0x2C8E PUSH0 DUP3 PUSH2 0x2C63 JUMP JUMPDEST PUSH1 0x1 DUP2 ADD SWAP1 POP PUSH2 0x2C7C JUMP JUMPDEST POP POP JUMP JUMPDEST PUSH1 0x1F DUP3 GT ISZERO PUSH2 0x2CDE JUMPI PUSH2 0x2CAF DUP2 PUSH2 0x2B89 JUMP JUMPDEST PUSH2 0x2CB8 DUP5 PUSH2 0x2B9B JUMP JUMPDEST DUP2 ADD PUSH1 0x20 DUP6 LT ISZERO PUSH2 0x2CC7 JUMPI DUP2 SWAP1 POP JUMPDEST PUSH2 0x2CDB PUSH2 0x2CD3 DUP6 PUSH2 0x2B9B JUMP JUMPDEST DUP4 ADD DUP3 PUSH2 0x2C7B JUMP JUMPDEST POP POP JUMPDEST POP POP POP JUMP JUMPDEST PUSH0 DUP3 DUP3 SHR SWAP1 POP SWAP3 SWAP2 POP POP JUMP JUMPDEST PUSH0 PUSH2 0x2CFE PUSH0 NOT DUP5 PUSH1 0x8 MUL PUSH2 0x2CE3 JUMP JUMPDEST NOT DUP1 DUP4 AND SWAP2 POP POP SWAP3 SWAP2 POP POP JUMP JUMPDEST PUSH0 PUSH2 0x2D16 DUP4 DUP4 PUSH2 0x2CEF JUMP JUMPDEST SWAP2 POP DUP3 PUSH1 0x2 MUL DUP3 OR SWAP1 POP SWAP3 SWAP2 POP POP JUMP JUMPDEST PUSH2 0x2D2F DUP3 PUSH2 0x2213 JUMP JUMPDEST PUSH8 0xFFFFFFFFFFFFFFFF DUP2 GT ISZERO PUSH2 0x2D48 JUMPI PUSH2 0x2D47 PUSH2 0x2054 JUMP JUMPDEST JUMPDEST PUSH2 0x2D52 DUP3 SLOAD PUSH2 0x2861 JUMP JUMPDEST PUSH2 0x2D5D DUP3 DUP3 DUP6 PUSH2 0x2C9D JUMP JUMPDEST PUSH0 PUSH1 0x20 SWAP1 POP PUSH1 0x1F DUP4 GT PUSH1 0x1 DUP2 EQ PUSH2 0x2D8E JUMPI PUSH0 DUP5 ISZERO PUSH2 0x2D7C JUMPI DUP3 DUP8 ADD MLOAD SWAP1 POP JUMPDEST PUSH2 0x2D86 DUP6 DUP3 PUSH2 0x2D0B JUMP JUMPDEST DUP7 SSTORE POP PUSH2 0x2DED JUMP JUMPDEST PUSH1 0x1F NOT DUP5 AND PUSH2 0x2D9C DUP7 PUSH2 0x2B89 JUMP JUMPDEST PUSH0 JUMPDEST DUP3 DUP2 LT ISZERO PUSH2 0x2DC3 JUMPI DUP5 DUP10 ADD MLOAD DUP3 SSTORE PUSH1 0x1 DUP3 ADD SWAP2 POP PUSH1 0x20 DUP6 ADD SWAP5 POP PUSH1 0x20 DUP2 ADD SWAP1 POP PUSH2 0x2D9E JUMP JUMPDEST DUP7 DUP4 LT ISZERO PUSH2 0x2DE0 JUMPI DUP5 DUP10 ADD MLOAD PUSH2 0x2DDC PUSH1 0x1F DUP10 AND DUP3 PUSH2 0x2CEF JUMP JUMPDEST DUP4 SSTORE POP JUMPDEST PUSH1 0x1 PUSH1 0x2 DUP9 MUL ADD DUP9 SSTORE POP POP POP JUMPDEST POP POP POP POP POP POP JUMP JUMPDEST PUSH0 DUP2 SWAP1 POP SWAP2 SWAP1 POP JUMP JUMPDEST PUSH2 0x2E07 DUP2 PUSH2 0x2DF5 JUMP JUMPDEST DUP3 MSTORE POP POP JUMP JUMPDEST PUSH0 PUSH1 0x60 DUP3 ADD SWAP1 POP PUSH2 0x2E20 PUSH0 DUP4 ADD DUP7 PUSH2 0x2691 JUMP JUMPDEST DUP2 DUP2 SUB PUSH1 0x20 DUP4 ADD MSTORE PUSH2 0x2E32 DUP2 DUP6 PUSH2 0x2659 JUMP JUMPDEST SWAP1 POP PUSH2 0x2E41 PUSH1 0x40 DUP4 ADD DUP5 PUSH2 0x2DFE JUMP JUMPDEST SWAP5 SWAP4 POP POP POP POP JUMP JUMPDEST PUSH32 0x44494420616C72656164792065786973747320666F7220746869732061646472 PUSH0 DUP3 ADD MSTORE PUSH32 0x6573730000000000000000000000000000000000000000000000000000000000 PUSH1 0x20 DUP3 ADD MSTORE POP JUMP JUMPDEST PUSH0 PUSH2 0x2EA3 PUSH1 0x23 DUP4 PUSH2 0x2649 JUMP JUMPDEST SWAP2 POP PUSH2 0x2EAE DUP3 PUSH2 0x2E49 JUMP JUMPDEST PUSH1 0x40 DUP3 ADD SWAP1 POP SWAP2 SWAP1 POP JUMP JUMPDEST PUSH0 PUSH1 0x20 DUP3 ADD SWAP1 POP DUP2 DUP2 SUB PUSH0 DUP4 ADD MSTORE PUSH2 0x2ED0 DUP2 PUSH2 0x2E97 JUMP JUMPDEST SWAP1 POP SWAP2 SWAP1 POP JUMP JUMPDEST PUSH32 0x4E487B7100000000000000000000000000000000000000000000000000000000 PUSH0 MSTORE PUSH1 0x32 PUSH1 0x4 MSTORE PUSH1 0x24 PUSH0 REVERT JUMPDEST PUSH32 0x4E487B7100000000000000000000000000000000000000000000000000000000 PUSH0 MSTORE PUSH1 0x11 PUSH1 0x4 MSTORE PUSH1 0x24 PUSH0 REVERT JUMPDEST PUSH0 PUSH2 0x2F3B DUP3 PUSH2 0x21FB JUMP JUMPDEST SWAP2 POP PUSH32 0xFFFFFFFFFFFFFFFFFFFFFFFFFFFFFFFFFFFFFFFFFFFFFFFFFFFFFFFFFFFFFFFF DUP3 SUB PUSH2 0x2F6D JUMPI PUSH2 0x2F6C PUSH2 0x2F04 JUMP JUMPDEST JUMPDEST PUSH1 0x1 DUP3 ADD SWAP1 POP SWAP2 SWAP1 POP JUMP JUMPDEST PUSH32 0x4E616D652063616E6E6F7420626520656D707479000000000000000000000000 PUSH0 DUP3 ADD MSTORE POP JUMP JUMPDEST PUSH0 PUSH2 0x2FAC PUSH1 0x14 DUP4 PUSH2 0x2649 JUMP JUMPDEST SWAP2 POP PUSH2 0x2FB7 DUP3 PUSH2 0x2F78 JUMP JUMPDEST PUSH1 0x20 DUP3 ADD SWAP1 POP SWAP2 SWAP1 POP JUMP JUMPDEST PUSH0 PUSH1 0x20 DUP3 ADD SWAP1 POP DUP2 DUP2 SUB PUSH0 DUP4 ADD MSTORE PUSH2 0x2FD9 DUP2 PUSH2 0x2FA0 JUMP JUMPDEST SWAP1 POP SWAP2 SWAP1 POP JUMP JUMPDEST PUSH32 0x4465736372697074696F6E2063616E6E6F7420626520656D7074790000000000 PUSH0 DUP3 ADD MSTORE POP JUMP JUMPDEST PUSH0 PUSH2 0x3014 PUSH1 0x1B DUP4 PUSH2 0x2649 JUMP JUMPDEST SWAP2 POP PUSH2 0x301F DUP3 PUSH2 0x2FE0 JUMP JUMPDEST PUSH1 0x20 DUP3 ADD SWAP1 POP SWAP2 SWAP1 POP JUMP JUMPDEST PUSH0 PUSH1 0x20 DUP3 ADD SWAP1 POP DUP2 DUP2 SUB PUSH0 DUP4 ADD MSTORE PUSH2 0x3041 DUP2 PUSH2 0x3008 JUMP JUMPDEST SWAP1 POP SWAP2 SWAP1 POP JUMP JUMPDEST PUSH0 PUSH1 0x40 DUP3 ADD SWAP1 POP PUSH2 0x305B PUSH0 DUP4 ADD DUP6 PUSH2 0x2621 JUMP JUMPDEST DUP2 DUP2 SUB PUSH1 0x20 DUP4 ADD MSTORE PUSH2 0x306D DUP2 DUP5 PUSH2 0x2659 JUMP JUMPDEST SWAP1 POP SWAP4 SWAP3 POP POP POP JUMP JUMPDEST PUSH32 0x4E6577206964656E7469666965722063616E6E6F7420626520656D7074790000 PUSH0 DUP3 ADD MSTORE POP JUMP JUMPDEST PUSH0 PUSH2 0x30AA PUSH1 0x1E DUP4 PUSH2 0x2649 JUMP JUMPDEST SWAP2 POP PUSH2 0x30B5 DUP3 PUSH2 0x3076 JUMP JUMPDEST PUSH1 0x20 DUP3 ADD SWAP1 POP SWAP2 SWAP1 POP JUMP JUMPDEST PUSH0 PUSH1 0x20 DUP3 ADD SWAP1 POP DUP2 DUP2 SUB PUSH0 DUP4 ADD MSTORE PUSH2 0x30D7 DUP2 PUSH2 0x309E JUMP JUMPDEST SWAP1 POP SWAP2 SWAP1 POP JUMP JUMPDEST PUSH32 0x496E76616C6964206E6577206964656E74696669657200000000000000000000 PUSH0 DUP3 ADD MSTORE POP JUMP JUMPDEST PUSH0 PUSH2 0x3112 PUSH1 0x16 DUP4 PUSH2 0x2649 JUMP JUMPDEST SWAP2 POP PUSH2 0x311D DUP3 PUSH2 0x30DE JUMP JUMPDEST PUSH1 0x20 DUP3 ADD SWAP1 POP SWAP2 SWAP1 POP JUMP JUMPDEST PUSH0 PUSH1 0x20 DUP3 ADD SWAP1 POP DUP2 DUP2 SUB PUSH0 DUP4 ADD MSTORE PUSH2 0x313F DUP2 PUSH2 0x3106 JUMP JUMPDEST SWAP1 POP SWAP2 SWAP1 POP JUMP JUMPDEST PUSH32 0x4E6F7420617574686F72697A6564000000000000000000000000000000000000 PUSH0 DUP3 ADD MSTORE POP JUMP JUMPDEST PUSH0 PUSH2 0x317A PUSH1 0xE DUP4 PUSH2 0x2649 JUMP JUMPDEST SWAP2 POP PUSH2 0x3185 DUP3 PUSH2 0x3146 JUMP JUMPDEST PUSH1 0x20 DUP3 ADD SWAP1 POP SWAP2 SWAP1 POP JUMP JUMPDEST PUSH0 PUSH1 0x20 DUP3 ADD SWAP1 POP DUP2 DUP2 SUB PUSH0 DUP4 ADD MSTORE PUSH2 0x31A7 DUP2 PUSH2 0x316E JUMP JUMPDEST SWAP1 POP SWAP2 SWAP1 POP JUMP JUMPDEST PUSH32 0x4964656E7469666965722063616E6E6F7420626520656D707479000000000000 PUSH0 DUP3 ADD MSTORE POP JUMP JUMPDEST PUSH0 PUSH2 0x31E2 PUSH1 0x1A DUP4 PUSH2 0x2649 JUMP JUMPDEST SWAP2 POP PUSH2 0x31ED DUP3 PUSH2 0x31AE JUMP JUMPDEST PUSH1 0x20 DUP3 ADD SWAP1 POP SWAP2 SWAP1 POP JUMP JUMPDEST PUSH0 PUSH1 0x20 DUP3 ADD SWAP1 POP DUP2 DUP2 SUB PUSH0 DUP4 ADD MSTORE PUSH2 0x320F DUP2 PUSH2 0x31D6 JUMP JUMPDEST SWAP1 POP SWAP2 SWAP1 POP JUMP JUMPDEST PUSH32 0x4E6F2044494420666F756E6420666F7220746869732061646472657373000000 PUSH0 DUP3 ADD MSTORE POP JUMP JUMPDEST PUSH0 PUSH2 0x324A PUSH1 0x1D DUP4 PUSH2 0x2649 JUMP JUMPDEST SWAP2 POP PUSH2 0x3255 DUP3 PUSH2 0x3216 JUMP JUMPDEST PUSH1 0x20 DUP3 ADD SWAP1 POP SWAP2 SWAP1 POP JUMP JUMPDEST PUSH0 PUSH1 0x20 DUP3 ADD SWAP1 POP DUP2 DUP2 SUB PUSH0 DUP4 ADD MSTORE PUSH2 0x3277 DUP2 PUSH2 0x323E JUMP JUMPDEST SWAP1 POP SWAP2 SWAP1 POP JUMP JUMPDEST PUSH32 0x5461736B20616C726561647920636F6D706C6574656400000000000000000000 PUSH0 DUP3 ADD MSTORE POP JUMP JUMPDEST PUSH0 PUSH2 0x32B2 PUSH1 0x16 DUP4 PUSH2 0x2649 JUMP JUMPDEST SWAP2 POP PUSH2 0x32BD DUP3 PUSH2 0x327E JUMP JUMPDEST PUSH1 0x20 DUP3 ADD SWAP1 POP SWAP2 SWAP1 POP JUMP JUMPDEST PUSH0 PUSH1 0x20 DUP3 ADD SWAP1 POP DUP2 DUP2 SUB PUSH0 DUP4 ADD MSTORE PUSH2 0x32DF DUP2 PUSH2 0x32A6 JUMP JUMPDEST SWAP1 POP SWAP2 SWAP1 POP JUMP JUMPDEST PUSH32 0x4E6F20726F6C65732061737369676E656420666F722074686973207573657200 PUSH0 DUP3 ADD MSTORE POP JUMP JUMPDEST PUSH0 PUSH2 0x331A PUSH1 0x1F DUP4 PUSH2 0x2649 JUMP JUMPDEST SWAP2 POP PUSH2 0x3325 DUP3 PUSH2 0x32E6 JUMP JUMPDEST PUSH1 0x20 DUP3 ADD SWAP1 POP SWAP2 SWAP1 POP JUMP JUMPDEST PUSH0 PUSH1 0x20 DUP3 ADD SWAP1 POP DUP2 DUP2 SUB PUSH0 DUP4 ADD MSTORE PUSH2 0x3347 DUP2 PUSH2 0x330E JUMP JUMPDEST SWAP1 POP SWAP2 SWAP1 POP JUMP INVALID LOG2 PUSH5 0x6970667358 0x22 SLT KECCAK256 0xEB PUSH4 0x68427ED2 0xBE OR 0xC3 PUSH4 0xC00BC189 REVERT 0xEC SWAP5 0xD TLOAD 0x2E DUP12 0xE DIV GASLIMIT LOG3 BLOCKHASH 0xCC 0xC4 ISZERO DUP7 0x4B 0xE PUSH5 0x736F6C6343 STOP ADDMOD BYTE STOP CALLER "
				},
				"gasEstimates": {
					"creation": {
						"codeDepositCost": "2637600",
						"executionCost": "infinite",
						"totalCost": "infinite"
					},
					"external": {
						"assignRole(address,string)": "infinite",
						"completeTask(uint256)": "infinite",
						"createDID(string)": "infinite",
						"createTask(string,string,uint256,uint256,address)": "infinite",
						"getDID()": "infinite",
						"getRole()": "infinite",
						"getTask(uint256)": "infinite",
						"getTasks()": "infinite",
						"issueRole(address,string)": "infinite",
						"taskCounter()": "2424",
						"tasks(uint256)": "infinite",
						"updateDID(string)": "infinite"
					}
				},
				"methodIdentifiers": {
					"assignRole(address,string)": "b7dfcbee",
					"completeTask(uint256)": "e1e29558",
					"createDID(string)": "3457d3e2",
					"createTask(string,string,uint256,uint256,address)": "0c79586b",
					"getDID()": "bc9c2d55",
					"getRole()": "fde08174",
					"getTask(uint256)": "1d65e77e",
					"getTasks()": "04a87e38",
					"issueRole(address,string)": "022bf9c1",
					"taskCounter()": "58671730",
					"tasks(uint256)": "8d977672",
					"updateDID(string)": "14c95832"
				}
			},
			"storageLayout": {
				"storage": [
					{
						"astId": 35,
						"contract": "contracts/TaskManagement.sol:TaskManagement",
						"label": "taskCounter",
						"offset": 0,
						"slot": "0",
						"type": "t_uint256"
					},
					{
						"astId": 40,
						"contract": "contracts/TaskManagement.sol:TaskManagement",
						"label": "dids",
						"offset": 0,
						"slot": "1",
						"type": "t_mapping(t_address,t_struct(DID)6_storage)"
					},
					{
						"astId": 44,
						"contract": "contracts/TaskManagement.sol:TaskManagement",
						"label": "roles",
						"offset": 0,
						"slot": "2",
						"type": "t_mapping(t_address,t_string_storage)"
					},
					{
						"astId": 49,
						"contract": "contracts/TaskManagement.sol:TaskManagement",
						"label": "roleHistory",
						"offset": 0,
						"slot": "3",
						"type": "t_mapping(t_address,t_array(t_string_storage)dyn_storage)"
					},
					{
						"astId": 55,
						"contract": "contracts/TaskManagement.sol:TaskManagement",
						"label": "credentials",
						"offset": 0,
						"slot": "4",
						"type": "t_mapping(t_address,t_array(t_struct(Credential)32_storage)dyn_storage)"
					},
					{
						"astId": 60,
						"contract": "contracts/TaskManagement.sol:TaskManagement",
						"label": "tasks",
						"offset": 0,
						"slot": "5",
						"type": "t_mapping(t_uint256,t_struct(Task)23_storage)"
					}
				],
				"types": {
					"t_address": {
						"encoding": "inplace",
						"label": "address",
						"numberOfBytes": "20"
					},
					"t_array(t_string_storage)dyn_storage": {
						"base": "t_string_storage",
						"encoding": "dynamic_array",
						"label": "string[]",
						"numberOfBytes": "32"
					},
					"t_array(t_struct(Credential)32_storage)dyn_storage": {
						"base": "t_struct(Credential)32_storage",
						"encoding": "dynamic_array",
						"label": "struct TaskManagement.Credential[]",
						"numberOfBytes": "32"
					},
					"t_bool": {
						"encoding": "inplace",
						"label": "bool",
						"numberOfBytes": "1"
					},
					"t_bytes32": {
						"encoding": "inplace",
						"label": "bytes32",
						"numberOfBytes": "32"
					},
					"t_mapping(t_address,t_array(t_string_storage)dyn_storage)": {
						"encoding": "mapping",
						"key": "t_address",
						"label": "mapping(address => string[])",
						"numberOfBytes": "32",
						"value": "t_array(t_string_storage)dyn_storage"
					},
					"t_mapping(t_address,t_array(t_struct(Credential)32_storage)dyn_storage)": {
						"encoding": "mapping",
						"key": "t_address",
						"label": "mapping(address => struct TaskManagement.Credential[])",
						"numberOfBytes": "32",
						"value": "t_array(t_struct(Credential)32_storage)dyn_storage"
					},
					"t_mapping(t_address,t_string_storage)": {
						"encoding": "mapping",
						"key": "t_address",
						"label": "mapping(address => string)",
						"numberOfBytes": "32",
						"value": "t_string_storage"
					},
					"t_mapping(t_address,t_struct(DID)6_storage)": {
						"encoding": "mapping",
						"key": "t_address",
						"label": "mapping(address => struct TaskManagement.DID)",
						"numberOfBytes": "32",
						"value": "t_struct(DID)6_storage"
					},
					"t_mapping(t_uint256,t_struct(Task)23_storage)": {
						"encoding": "mapping",
						"key": "t_uint256",
						"label": "mapping(uint256 => struct TaskManagement.Task)",
						"numberOfBytes": "32",
						"value": "t_struct(Task)23_storage"
					},
					"t_string_storage": {
						"encoding": "bytes",
						"label": "string",
						"numberOfBytes": "32"
					},
					"t_struct(Credential)32_storage": {
						"encoding": "inplace",
						"label": "struct TaskManagement.Credential",
						"members": [
							{
								"astId": 25,
								"contract": "contracts/TaskManagement.sol:TaskManagement",
								"label": "issuer",
								"offset": 0,
								"slot": "0",
								"type": "t_address"
							},
							{
								"astId": 27,
								"contract": "contracts/TaskManagement.sol:TaskManagement",
								"label": "role",
								"offset": 0,
								"slot": "1",
								"type": "t_string_storage"
							},
							{
								"astId": 29,
								"contract": "contracts/TaskManagement.sol:TaskManagement",
								"label": "hashed",
								"offset": 0,
								"slot": "2",
								"type": "t_bytes32"
							},
							{
								"astId": 31,
								"contract": "contracts/TaskManagement.sol:TaskManagement",
								"label": "issueAt",
								"offset": 0,
								"slot": "3",
								"type": "t_uint256"
							}
						],
						"numberOfBytes": "128"
					},
					"t_struct(DID)6_storage": {
						"encoding": "inplace",
						"label": "struct TaskManagement.DID",
						"members": [
							{
								"astId": 3,
								"contract": "contracts/TaskManagement.sol:TaskManagement",
								"label": "identifier",
								"offset": 0,
								"slot": "0",
								"type": "t_string_storage"
							},
							{
								"astId": 5,
								"contract": "contracts/TaskManagement.sol:TaskManagement",
								"label": "owner",
								"offset": 0,
								"slot": "1",
								"type": "t_address"
							}
						],
						"numberOfBytes": "64"
					},
					"t_struct(Task)23_storage": {
						"encoding": "inplace",
						"label": "struct TaskManagement.Task",
						"members": [
							{
								"astId": 8,
								"contract": "contracts/TaskManagement.sol:TaskManagement",
								"label": "id",
								"offset": 0,
								"slot": "0",
								"type": "t_uint256"
							},
							{
								"astId": 10,
								"contract": "contracts/TaskManagement.sol:TaskManagement",
								"label": "name",
								"offset": 0,
								"slot": "1",
								"type": "t_string_storage"
							},
							{
								"astId": 12,
								"contract": "contracts/TaskManagement.sol:TaskManagement",
								"label": "description",
								"offset": 0,
								"slot": "2",
								"type": "t_string_storage"
							},
							{
								"astId": 14,
								"contract": "contracts/TaskManagement.sol:TaskManagement",
								"label": "priority",
								"offset": 0,
								"slot": "3",
								"type": "t_uint256"
							},
							{
								"astId": 16,
								"contract": "contracts/TaskManagement.sol:TaskManagement",
								"label": "dueDate",
								"offset": 0,
								"slot": "4",
								"type": "t_uint256"
							},
							{
								"astId": 18,
								"contract": "contracts/TaskManagement.sol:TaskManagement",
								"label": "assignedTo",
								"offset": 0,
								"slot": "5",
								"type": "t_address"
							},
							{
								"astId": 20,
								"contract": "contracts/TaskManagement.sol:TaskManagement",
								"label": "isCompleted",
								"offset": 20,
								"slot": "5",
								"type": "t_bool"
							},
							{
								"astId": 22,
								"contract": "contracts/TaskManagement.sol:TaskManagement",
								"label": "completedAt",
								"offset": 0,
								"slot": "6",
								"type": "t_uint256"
							}
						],
						"numberOfBytes": "224"
					},
					"t_uint256": {
						"encoding": "inplace",
						"label": "uint256",
						"numberOfBytes": "32"
					}
				}
			},
			"userdoc": {
				"kind": "user",
				"methods": {},
				"version": 1
			}
		}
	}
}